{
  "_format": "hh-sol-artifact-1",
  "contractName": "ERC20OnApprove",
  "sourceName": "src/L1/Mock/token/ERC20OnApprove.sol",
  "abi": [
    {
      "inputs": [
        {
          "internalType": "address",
          "name": "spender",
          "type": "address"
        },
        {
          "internalType": "uint256",
          "name": "amount",
          "type": "uint256"
        },
        {
          "internalType": "bytes",
          "name": "data",
          "type": "bytes"
        }
      ],
      "name": "approveAndCall",
      "outputs": [
        {
          "internalType": "bool",
          "name": "",
          "type": "bool"
        }
      ],
      "stateMutability": "nonpayable",
      "type": "function"
    }
  ],
  "bytecode": "0x60808060405234603b57600080546001600160a01b031916736e1734ac57e76fcd7fd66266ae0c2547db3a713a1790556103a790816100418239f35b600080fdfe6080604052600436101561001257600080fd5b6000803560e01c63cae9ca511461002857600080fd5b346100d85760603660031901126100d8576004356001600160a01b03811681036100d457604435906001600160401b0382116100d057366023830112156100d057816004013561007781610117565b9261008560405194856100f1565b81845236602483830101116100cc57936020826100b695949360246100c8980183870137840101526024359061013e565b60405190151581529081906020820190565b0390f35b8480fd5b8280fd5b5080fd5b80fd5b634e487b7160e01b600052604160045260246000fd5b90601f801991011681019081106001600160401b0382111761011257604052565b6100db565b6001600160401b03811161011257601f01601f191660200190565b1561013957565b600080fd5b6000805460405163095ea7b360e01b81526001600160a01b0380851660048301526024820186905290969594939291602091889160449183918691165af19586156101eb5781966101a4575b505061019961019f9495610132565b336102c5565b600190565b9095506020813d6020116101e3575b816101c0602093836100f1565b810103126101df57519485151586036100d8575061019961019f61018a565b8580fd5b3d91506101b3565b50604051903d90823e3d90fd5b919082519283825260005b848110610224575050826000602080949584010152601f8019910116010190565b602081830181015184830182015201610203565b156102405750565b60405162461bcd60e51b8152602060048201529081906102649060248301906101f8565b0390fd5b1561026f57565b60405162461bcd60e51b815260206004820152602860248201527f45524332304f6e417070726f76653a206661696c656420746f2063616c6c206f6044820152676e417070726f766560c01b6064820152608490fd5b600091829182610363966103266020976103186040519384928b840197632139e50b60e11b895260018060a01b0380911660248601528916604485015260648401526080608484015260a48301906101f8565b03601f1981018352826100f1565b51925af13d156103655761035c3d61033d81610117565b9061034b60405192836100f1565b81529182903d60008684013e610238565b0151610268565b565b61035c6060809261023856fea26469706673582212202fa5fc808d4f452ecd6b12d011cab3f9a6ac171866ae6dc71aef3061be95b0c764736f6c63430008190033",
  "linkReferences": {},
  "deployedLinkReferences": {}
}