{
  "_format": "hh-sol-artifact-1",
  "contractName": "AuthRoleGemFactory",
  "sourceName": "src/common/AuthRoleGemFactory.sol",
  "abi": [
    {
      "inputs": [],
      "name": "PAUSE_ROLE",
      "outputs": [
        {
          "internalType": "bytes32",
          "name": "",
          "type": "bytes32"
        }
      ],
      "stateMutability": "view",
      "type": "function"
    },
    {
      "inputs": [],
      "name": "TREASURY_ROLE",
      "outputs": [
        {
          "internalType": "bytes32",
          "name": "",
          "type": "bytes32"
        }
      ],
      "stateMutability": "view",
      "type": "function"
    }
  ],
  "bytecode": "0x6080806040523460135760e1908160198239f35b600080fdfe6080806040526004361015601257600080fd5b600090813560e01c908163389ed26714606f575063d11a57ec14603457600080fd5b34606c5780600319360112606c5760206040517f06aa03964db1f7257357ef09714a5f0ca3633723df419e97015e0c7a3e83edb78152f35b80fd5b90503460a7578160031936011260a757807ffcb9fcbfa83b897fb2d5cf4b58962164105c1e71489a37ef3ae0db3fdce576f660209252f35b5080fdfea2646970667358221220d32da281a98e705559311e5030d7a644997c58df6e6c0c37e798dffc74ec0d6664736f6c63430008190033",
  "linkReferences": {},
  "deployedLinkReferences": {}
}