{"src/L2/GemFactory.sol":{"GemFactory":{"abi":[{"inputs":[{"internalType":"address","name":"coordinator","type":"address"}],"stateMutability":"nonpayable","type":"constructor"},{"inputs":[],"name":"AccessControlBadConfirmation","type":"error"},{"inputs":[{"internalType":"address","name":"account","type":"address"},{"internalType":"bytes32","name":"neededRole","type":"bytes32"}],"name":"AccessControlUnauthorizedAccount","type":"error"},{"inputs":[{"internalType":"address","name":"sender","type":"address"},{"internalType":"uint256","name":"tokenId","type":"uint256"},{"internalType":"address","name":"owner","type":"address"}],"name":"ERC721IncorrectOwner","type":"error"},{"inputs":[{"internalType":"address","name":"operator","type":"address"},{"internalType":"uint256","name":"tokenId","type":"uint256"}],"name":"ERC721InsufficientApproval","type":"error"},{"inputs":[{"internalType":"address","name":"approver","type":"address"}],"name":"ERC721InvalidApprover","type":"error"},{"inputs":[{"internalType":"address","name":"operator","type":"address"}],"name":"ERC721InvalidOperator","type":"error"},{"inputs":[{"internalType":"address","name":"owner","type":"address"}],"name":"ERC721InvalidOwner","type":"error"},{"inputs":[{"internalType":"address","name":"receiver","type":"address"}],"name":"ERC721InvalidReceiver","type":"error"},{"inputs":[{"internalType":"address","name":"sender","type":"address"}],"name":"ERC721InvalidSender","type":"error"},{"inputs":[{"internalType":"uint256","name":"tokenId","type":"uint256"}],"name":"ERC721NonexistentToken","type":"error"},{"inputs":[{"internalType":"address","name":"have","type":"address"},{"internalType":"address","name":"want","type":"address"}],"name":"OnlyCoordinatorCanFulfill","type":"error"},{"inputs":[],"name":"ReentrancyGuardReentrantCall","type":"error"},{"anonymous":false,"inputs":[{"indexed":true,"internalType":"address","name":"owner","type":"address"},{"indexed":true,"internalType":"address","name":"approved","type":"address"},{"indexed":true,"internalType":"uint256","name":"tokenId","type":"uint256"}],"name":"Approval","type":"event"},{"anonymous":false,"inputs":[{"indexed":true,"internalType":"address","name":"owner","type":"address"},{"indexed":true,"internalType":"address","name":"operator","type":"address"},{"indexed":false,"internalType":"bool","name":"approved","type":"bool"}],"name":"ApprovalForAll","type":"event"},{"anonymous":false,"inputs":[{"indexed":true,"internalType":"uint8","name":"id","type":"uint8"},{"indexed":false,"internalType":"string","name":"backgroundColor","type":"string"}],"name":"BackgroundColorAdded","type":"event"},{"anonymous":false,"inputs":[{"indexed":false,"internalType":"uint256","name":"_fromTokenId","type":"uint256"},{"indexed":false,"internalType":"uint256","name":"_toTokenId","type":"uint256"}],"name":"BatchMetadataUpdate","type":"event"},{"anonymous":false,"inputs":[{"indexed":true,"internalType":"uint8","name":"id","type":"uint8"},{"indexed":false,"internalType":"string","name":"color","type":"string"}],"name":"ColorAdded","type":"event"},{"anonymous":false,"inputs":[{"indexed":false,"internalType":"uint8","name":"color_0","type":"uint8"},{"indexed":false,"internalType":"uint8","name":"color_1","type":"uint8"}],"name":"ColorValidated","type":"event"},{"anonymous":false,"inputs":[{"indexed":false,"internalType":"uint256","name":"gemCount","type":"uint256"},{"indexed":false,"internalType":"uint256[]","name":"tokenIds","type":"uint256[]"}],"name":"CountGemsByQuadrant","type":"event"},{"anonymous":false,"inputs":[{"indexed":true,"internalType":"uint256","name":"tokenId","type":"uint256"},{"indexed":false,"internalType":"enum GemFactoryStorage.Rarity","name":"rarity","type":"uint8"},{"indexed":false,"internalType":"uint8[2]","name":"color","type":"uint8[2]"},{"indexed":false,"internalType":"uint256","name":"value","type":"uint256"},{"indexed":false,"internalType":"uint8[4]","name":"quadrants","type":"uint8[4]"},{"indexed":false,"internalType":"uint256","name":"miningPeriod","type":"uint256"},{"indexed":false,"internalType":"uint256","name":"cooldownPeriod","type":"uint256"},{"indexed":false,"internalType":"string","name":"tokenURI","type":"string"},{"indexed":false,"internalType":"address","name":"owner","type":"address"}],"name":"Created","type":"event"},{"anonymous":false,"inputs":[{"indexed":false,"internalType":"address","name":"gemOwner","type":"address"},{"indexed":false,"internalType":"uint256[]","name":"gemsTokenIds","type":"uint256[]"},{"indexed":false,"internalType":"uint256","name":"newGemCreatedId","type":"uint256"},{"indexed":false,"internalType":"enum GemFactoryStorage.Rarity","name":"newRarity","type":"uint8"},{"indexed":false,"internalType":"uint8[4]","name":"forgedQuadrants","type":"uint8[4]"},{"indexed":false,"internalType":"uint8[2]","name":"color","type":"uint8[2]"},{"indexed":false,"internalType":"uint256","name":"newValue","type":"uint256"}],"name":"GemForged","type":"event"},{"anonymous":false,"inputs":[{"indexed":false,"internalType":"uint256","name":"_tokenId","type":"uint256"},{"indexed":false,"internalType":"address","name":"_from","type":"address"}],"name":"GemMelted","type":"event"},{"anonymous":false,"inputs":[{"indexed":false,"internalType":"uint256","name":"tokenId","type":"uint256"},{"indexed":false,"internalType":"address","name":"miner","type":"address"}],"name":"GemMiningClaimed","type":"event"},{"anonymous":false,"inputs":[{"indexed":false,"internalType":"uint256","name":"tokenId","type":"uint256"},{"indexed":false,"internalType":"address","name":"miner","type":"address"},{"indexed":false,"internalType":"uint256","name":"startMiningTime","type":"uint256"},{"indexed":false,"internalType":"uint256","name":"newminingTry","type":"uint256"}],"name":"GemMiningStarted","type":"event"},{"anonymous":false,"inputs":[{"indexed":false,"internalType":"uint256","name":"_tokenId","type":"uint256"}],"name":"MetadataUpdate","type":"event"},{"anonymous":false,"inputs":[{"indexed":false,"internalType":"uint256","name":"tokenId","type":"uint256"}],"name":"NoGemAvailable","type":"event"},{"anonymous":false,"inputs":[{"indexed":false,"internalType":"address","name":"account","type":"address"}],"name":"Paused","type":"event"},{"anonymous":false,"inputs":[{"indexed":false,"internalType":"uint256","name":"tokenId","type":"uint256"},{"indexed":false,"internalType":"uint256","name":"requestNumber","type":"uint256"}],"name":"RandomGemRequested","type":"event"},{"anonymous":false,"inputs":[{"indexed":true,"internalType":"bytes32","name":"role","type":"bytes32"},{"indexed":true,"internalType":"bytes32","name":"previousAdminRole","type":"bytes32"},{"indexed":true,"internalType":"bytes32","name":"newAdminRole","type":"bytes32"}],"name":"RoleAdminChanged","type":"event"},{"anonymous":false,"inputs":[{"indexed":true,"internalType":"bytes32","name":"role","type":"bytes32"},{"indexed":true,"internalType":"address","name":"account","type":"address"},{"indexed":true,"internalType":"address","name":"sender","type":"address"}],"name":"RoleGranted","type":"event"},{"anonymous":false,"inputs":[{"indexed":true,"internalType":"bytes32","name":"role","type":"bytes32"},{"indexed":true,"internalType":"address","name":"account","type":"address"},{"indexed":true,"internalType":"address","name":"sender","type":"address"}],"name":"RoleRevoked","type":"event"},{"anonymous":false,"inputs":[{"indexed":true,"internalType":"address","name":"from","type":"address"},{"indexed":true,"internalType":"address","name":"to","type":"address"},{"indexed":true,"internalType":"uint256","name":"tokenId","type":"uint256"}],"name":"Transfer","type":"event"},{"anonymous":false,"inputs":[{"indexed":false,"internalType":"address","name":"from","type":"address"},{"indexed":false,"internalType":"address","name":"to","type":"address"},{"indexed":false,"internalType":"uint256","name":"tokenId","type":"uint256"}],"name":"TransferGEM","type":"event"},{"anonymous":false,"inputs":[{"indexed":false,"internalType":"address","name":"account","type":"address"}],"name":"Unpaused","type":"event"},{"inputs":[],"name":"ADMIN_ROLE","outputs":[{"internalType":"bytes32","name":"","type":"bytes32"}],"stateMutability":"view","type":"function"},{"inputs":[],"name":"CALLBACK_GAS_LIMIT","outputs":[{"internalType":"uint32","name":"","type":"uint32"}],"stateMutability":"view","type":"function"},{"inputs":[],"name":"CommonGemsCooldownPeriod","outputs":[{"internalType":"uint256","name":"","type":"uint256"}],"stateMutability":"view","type":"function"},{"inputs":[],"name":"CommonGemsMiningPeriod","outputs":[{"internalType":"uint256","name":"","type":"uint256"}],"stateMutability":"view","type":"function"},{"inputs":[],"name":"CommonGemsValue","outputs":[{"internalType":"uint256","name":"","type":"uint256"}],"stateMutability":"view","type":"function"},{"inputs":[],"name":"CommonminingTry","outputs":[{"internalType":"uint256","name":"","type":"uint256"}],"stateMutability":"view","type":"function"},{"inputs":[],"name":"DEFAULT_ADMIN_ROLE","outputs":[{"internalType":"bytes32","name":"","type":"bytes32"}],"stateMutability":"view","type":"function"},{"inputs":[],"name":"EpicGemsCooldownPeriod","outputs":[{"internalType":"uint256","name":"","type":"uint256"}],"stateMutability":"view","type":"function"},{"inputs":[],"name":"EpicGemsMiningPeriod","outputs":[{"internalType":"uint256","name":"","type":"uint256"}],"stateMutability":"view","type":"function"},{"inputs":[],"name":"EpicGemsValue","outputs":[{"internalType":"uint256","name":"","type":"uint256"}],"stateMutability":"view","type":"function"},{"inputs":[],"name":"EpicminingTry","outputs":[{"internalType":"uint256","name":"","type":"uint256"}],"stateMutability":"view","type":"function"},{"inputs":[{"internalType":"uint256","name":"","type":"uint256"}],"name":"GEMIndexToOwner","outputs":[{"internalType":"address","name":"","type":"address"}],"stateMutability":"view","type":"function"},{"inputs":[{"internalType":"uint256","name":"","type":"uint256"}],"name":"Gems","outputs":[{"internalType":"uint256","name":"tokenId","type":"uint256"},{"internalType":"enum GemFactoryStorage.Rarity","name":"rarity","type":"uint8"},{"internalType":"uint256","name":"gemCooldownPeriod","type":"uint256"},{"internalType":"uint256","name":"miningPeriod","type":"uint256"},{"internalType":"uint256","name":"miningTry","type":"uint256"},{"internalType":"bool","name":"isLocked","type":"bool"},{"internalType":"uint256","name":"value","type":"uint256"},{"internalType":"string","name":"tokenURI","type":"string"},{"internalType":"uint256","name":"randomRequestId","type":"uint256"}],"stateMutability":"view","type":"function"},{"inputs":[],"name":"LegendaryGemsCooldownPeriod","outputs":[{"internalType":"uint256","name":"","type":"uint256"}],"stateMutability":"view","type":"function"},{"inputs":[],"name":"LegendaryGemsMiningPeriod","outputs":[{"internalType":"uint256","name":"","type":"uint256"}],"stateMutability":"view","type":"function"},{"inputs":[],"name":"LegendaryGemsValue","outputs":[{"internalType":"uint256","name":"","type":"uint256"}],"stateMutability":"view","type":"function"},{"inputs":[],"name":"LegendaryminingTry","outputs":[{"internalType":"uint256","name":"","type":"uint256"}],"stateMutability":"view","type":"function"},{"inputs":[],"name":"MythicGemsCooldownPeriod","outputs":[{"internalType":"uint256","name":"","type":"uint256"}],"stateMutability":"view","type":"function"},{"inputs":[],"name":"MythicGemsMiningPeriod","outputs":[{"internalType":"uint256","name":"","type":"uint256"}],"stateMutability":"view","type":"function"},{"inputs":[],"name":"MythicGemsValue","outputs":[{"internalType":"uint256","name":"","type":"uint256"}],"stateMutability":"view","type":"function"},{"inputs":[],"name":"MythicminingTry","outputs":[{"internalType":"uint256","name":"","type":"uint256"}],"stateMutability":"view","type":"function"},{"inputs":[],"name":"PAUSE_ROLE","outputs":[{"internalType":"bytes32","name":"","type":"bytes32"}],"stateMutability":"view","type":"function"},{"inputs":[],"name":"RareGemsCooldownPeriod","outputs":[{"internalType":"uint256","name":"","type":"uint256"}],"stateMutability":"view","type":"function"},{"inputs":[],"name":"RareGemsMiningPeriod","outputs":[{"internalType":"uint256","name":"","type":"uint256"}],"stateMutability":"view","type":"function"},{"inputs":[],"name":"RareGemsValue","outputs":[{"internalType":"uint256","name":"","type":"uint256"}],"stateMutability":"view","type":"function"},{"inputs":[],"name":"RareminingTry","outputs":[{"internalType":"uint256","name":"","type":"uint256"}],"stateMutability":"view","type":"function"},{"inputs":[],"name":"UniqueGemsCooldownPeriod","outputs":[{"internalType":"uint256","name":"","type":"uint256"}],"stateMutability":"view","type":"function"},{"inputs":[],"name":"UniqueGemsMiningPeriod","outputs":[{"internalType":"uint256","name":"","type":"uint256"}],"stateMutability":"view","type":"function"},{"inputs":[],"name":"UniqueGemsValue","outputs":[{"internalType":"uint256","name":"","type":"uint256"}],"stateMutability":"view","type":"function"},{"inputs":[],"name":"UniqueminingTry","outputs":[{"internalType":"uint256","name":"","type":"uint256"}],"stateMutability":"view","type":"function"},{"inputs":[{"internalType":"address","name":"account","type":"address"}],"name":"addAdmin","outputs":[],"stateMutability":"nonpayable","type":"function"},{"inputs":[{"internalType":"string","name":"_backgroundColor","type":"string"}],"name":"addBackgroundColor","outputs":[],"stateMutability":"nonpayable","type":"function"},{"inputs":[{"internalType":"string","name":"_color","type":"string"}],"name":"addColor","outputs":[],"stateMutability":"nonpayable","type":"function"},{"inputs":[{"internalType":"address","name":"account","type":"address"}],"name":"addPauser","outputs":[],"stateMutability":"nonpayable","type":"function"},{"inputs":[{"internalType":"address","name":"_to","type":"address"},{"internalType":"uint256","name":"_tokenId","type":"uint256"}],"name":"adminTransferGEM","outputs":[{"internalType":"bool","name":"","type":"bool"}],"stateMutability":"nonpayable","type":"function"},{"inputs":[{"internalType":"address","name":"","type":"address"}],"name":"aliveImplementation","outputs":[{"internalType":"bool","name":"","type":"bool"}],"stateMutability":"view","type":"function"},{"inputs":[{"internalType":"address","name":"to","type":"address"},{"internalType":"uint256","name":"tokenId","type":"uint256"}],"name":"approve","outputs":[],"stateMutability":"nonpayable","type":"function"},{"inputs":[{"internalType":"uint256","name":"","type":"uint256"}],"name":"backgroundColors","outputs":[{"internalType":"string","name":"","type":"string"}],"stateMutability":"view","type":"function"},{"inputs":[{"internalType":"address","name":"_owner","type":"address"}],"name":"balanceOf","outputs":[{"internalType":"uint256","name":"count","type":"uint256"}],"stateMutability":"view","type":"function"},{"inputs":[{"internalType":"uint256","name":"_tokenId","type":"uint256"}],"name":"cancelMining","outputs":[{"internalType":"bool","name":"","type":"bool"}],"stateMutability":"nonpayable","type":"function"},{"inputs":[{"internalType":"uint256","name":"","type":"uint256"}],"name":"colors","outputs":[{"internalType":"string","name":"","type":"string"}],"stateMutability":"view","type":"function"},{"inputs":[{"internalType":"enum GemFactoryStorage.Rarity","name":"_rarity","type":"uint8"},{"internalType":"uint8[2]","name":"_color","type":"uint8[2]"},{"internalType":"uint8[4]","name":"_quadrants","type":"uint8[4]"},{"internalType":"string","name":"_tokenURI","type":"string"}],"name":"createGEM","outputs":[{"internalType":"uint256","name":"","type":"uint256"}],"stateMutability":"nonpayable","type":"function"},{"inputs":[{"internalType":"enum GemFactoryStorage.Rarity[]","name":"_rarities","type":"uint8[]"},{"internalType":"uint8[2][]","name":"_colors","type":"uint8[2][]"},{"internalType":"uint8[4][]","name":"_quadrants","type":"uint8[4][]"},{"internalType":"string[]","name":"_tokenURIs","type":"string[]"}],"name":"createGEMPool","outputs":[{"internalType":"uint256[]","name":"","type":"uint256[]"}],"stateMutability":"nonpayable","type":"function"},{"inputs":[{"internalType":"uint8","name":"","type":"uint8"}],"name":"customBackgroundColors","outputs":[{"internalType":"string","name":"","type":"string"}],"stateMutability":"view","type":"function"},{"inputs":[],"name":"customBackgroundColorsCount","outputs":[{"internalType":"uint8","name":"","type":"uint8"}],"stateMutability":"view","type":"function"},{"inputs":[{"internalType":"uint8","name":"","type":"uint8"}],"name":"customColors","outputs":[{"internalType":"string","name":"","type":"string"}],"stateMutability":"view","type":"function"},{"inputs":[],"name":"customColorsCount","outputs":[{"internalType":"uint8","name":"","type":"uint8"}],"stateMutability":"view","type":"function"},{"inputs":[],"name":"drbcoordinator","outputs":[{"internalType":"address","name":"","type":"address"}],"stateMutability":"view","type":"function"},{"inputs":[{"internalType":"uint256[]","name":"_tokenIds","type":"uint256[]"},{"internalType":"enum GemFactoryStorage.Rarity","name":"_rarity","type":"uint8"},{"internalType":"uint8[2]","name":"_color","type":"uint8[2]"}],"name":"forgeTokens","outputs":[{"internalType":"uint256","name":"newGemId","type":"uint256"}],"stateMutability":"nonpayable","type":"function"},{"inputs":[{"internalType":"uint256","name":"tokenId","type":"uint256"}],"name":"getApproved","outputs":[{"internalType":"address","name":"","type":"address"}],"stateMutability":"view","type":"function"},{"inputs":[],"name":"getCommonValue","outputs":[{"internalType":"uint256","name":"","type":"uint256"}],"stateMutability":"view","type":"function"},{"inputs":[],"name":"getCommonminingTry","outputs":[{"internalType":"uint256","name":"","type":"uint256"}],"stateMutability":"view","type":"function"},{"inputs":[{"internalType":"uint8","name":"_index","type":"uint8"}],"name":"getCustomColor","outputs":[{"internalType":"string","name":"","type":"string"}],"stateMutability":"view","type":"function"},{"inputs":[],"name":"getEpicValue","outputs":[{"internalType":"uint256","name":"","type":"uint256"}],"stateMutability":"view","type":"function"},{"inputs":[],"name":"getEpicminingTry","outputs":[{"internalType":"uint256","name":"","type":"uint256"}],"stateMutability":"view","type":"function"},{"inputs":[{"internalType":"uint256","name":"_tokenId","type":"uint256"}],"name":"getGem","outputs":[{"components":[{"internalType":"uint256","name":"tokenId","type":"uint256"},{"internalType":"enum GemFactoryStorage.Rarity","name":"rarity","type":"uint8"},{"internalType":"uint8[4]","name":"quadrants","type":"uint8[4]"},{"internalType":"uint8[2]","name":"color","type":"uint8[2]"},{"internalType":"uint256","name":"gemCooldownPeriod","type":"uint256"},{"internalType":"uint256","name":"miningPeriod","type":"uint256"},{"internalType":"uint256","name":"miningTry","type":"uint256"},{"internalType":"bool","name":"isLocked","type":"bool"},{"internalType":"uint256","name":"value","type":"uint256"},{"internalType":"string","name":"tokenURI","type":"string"},{"internalType":"uint256","name":"randomRequestId","type":"uint256"}],"internalType":"struct GemFactoryStorage.Gem","name":"","type":"tuple"}],"stateMutability":"view","type":"function"},{"inputs":[],"name":"getGemList","outputs":[{"components":[{"internalType":"uint256","name":"tokenId","type":"uint256"},{"internalType":"enum GemFactoryStorage.Rarity","name":"rarity","type":"uint8"},{"internalType":"uint8[4]","name":"quadrants","type":"uint8[4]"},{"internalType":"uint8[2]","name":"color","type":"uint8[2]"},{"internalType":"uint256","name":"gemCooldownPeriod","type":"uint256"},{"internalType":"uint256","name":"miningPeriod","type":"uint256"},{"internalType":"uint256","name":"miningTry","type":"uint256"},{"internalType":"bool","name":"isLocked","type":"bool"},{"internalType":"uint256","name":"value","type":"uint256"},{"internalType":"string","name":"tokenURI","type":"string"},{"internalType":"uint256","name":"randomRequestId","type":"uint256"}],"internalType":"struct GemFactoryStorage.Gem[]","name":"","type":"tuple[]"}],"stateMutability":"view","type":"function"},{"inputs":[],"name":"getGemListAvailableForRandomPack","outputs":[{"internalType":"uint256","name":"","type":"uint256"},{"internalType":"uint256[]","name":"","type":"uint256[]"}],"stateMutability":"view","type":"function"},{"inputs":[],"name":"getGemsSupplyTotalValue","outputs":[{"internalType":"uint256","name":"totalValue","type":"uint256"}],"stateMutability":"view","type":"function"},{"inputs":[],"name":"getLegendaryValue","outputs":[{"internalType":"uint256","name":"","type":"uint256"}],"stateMutability":"view","type":"function"},{"inputs":[],"name":"getLegendaryminingTry","outputs":[{"internalType":"uint256","name":"","type":"uint256"}],"stateMutability":"view","type":"function"},{"inputs":[],"name":"getMythicValue","outputs":[{"internalType":"uint256","name":"","type":"uint256"}],"stateMutability":"view","type":"function"},{"inputs":[],"name":"getMythicminingTry","outputs":[{"internalType":"uint256","name":"","type":"uint256"}],"stateMutability":"view","type":"function"},{"inputs":[{"internalType":"uint256","name":"_requestId","type":"uint256"}],"name":"getRandomRequest","outputs":[{"components":[{"internalType":"uint256","name":"tokenId","type":"uint256"},{"internalType":"bool","name":"requested","type":"bool"},{"internalType":"bool","name":"fulfilled","type":"bool"},{"internalType":"uint256","name":"randomWord","type":"uint256"},{"internalType":"uint256","name":"chosenTokenId","type":"uint256"},{"internalType":"address","name":"requester","type":"address"}],"internalType":"struct GemFactoryStorage.RequestStatus","name":"","type":"tuple"}],"stateMutability":"view","type":"function"},{"inputs":[],"name":"getRareValue","outputs":[{"internalType":"uint256","name":"","type":"uint256"}],"stateMutability":"view","type":"function"},{"inputs":[],"name":"getRareminingTry","outputs":[{"internalType":"uint256","name":"","type":"uint256"}],"stateMutability":"view","type":"function"},{"inputs":[{"internalType":"bytes32","name":"role","type":"bytes32"}],"name":"getRoleAdmin","outputs":[{"internalType":"bytes32","name":"","type":"bytes32"}],"stateMutability":"view","type":"function"},{"inputs":[],"name":"getTon","outputs":[{"internalType":"address","name":"","type":"address"}],"stateMutability":"view","type":"function"},{"inputs":[],"name":"getTreasury","outputs":[{"internalType":"address","name":"","type":"address"}],"stateMutability":"view","type":"function"},{"inputs":[],"name":"getUniqueValue","outputs":[{"internalType":"uint256","name":"","type":"uint256"}],"stateMutability":"view","type":"function"},{"inputs":[],"name":"getUniqueminingTry","outputs":[{"internalType":"uint256","name":"","type":"uint256"}],"stateMutability":"view","type":"function"},{"inputs":[{"internalType":"enum GemFactoryStorage.Rarity","name":"_rarity","type":"uint8"}],"name":"getValueBasedOnRarity","outputs":[{"internalType":"uint256","name":"value","type":"uint256"}],"stateMutability":"view","type":"function"},{"inputs":[],"name":"getWston","outputs":[{"internalType":"address","name":"","type":"address"}],"stateMutability":"view","type":"function"},{"inputs":[{"internalType":"bytes32","name":"role","type":"bytes32"},{"internalType":"address","name":"account","type":"address"}],"name":"grantRole","outputs":[],"stateMutability":"nonpayable","type":"function"},{"inputs":[{"internalType":"bytes32","name":"role","type":"bytes32"},{"internalType":"address","name":"account","type":"address"}],"name":"hasRole","outputs":[{"internalType":"bool","name":"","type":"bool"}],"stateMutability":"view","type":"function"},{"inputs":[{"internalType":"address","name":"_wston","type":"address"},{"internalType":"address","name":"_ton","type":"address"},{"internalType":"address","name":"_treasury","type":"address"},{"internalType":"uint256","name":"_CommonGemsValue","type":"uint256"},{"internalType":"uint256","name":"_RareGemsValue","type":"uint256"},{"internalType":"uint256","name":"_UniqueGemsValue","type":"uint256"},{"internalType":"uint256","name":"_EpicGemsValue","type":"uint256"},{"internalType":"uint256","name":"_LegendaryGemsValue","type":"uint256"},{"internalType":"uint256","name":"_MythicGemsValue","type":"uint256"}],"name":"initialize","outputs":[],"stateMutability":"nonpayable","type":"function"},{"inputs":[{"internalType":"address","name":"account","type":"address"}],"name":"isAdmin","outputs":[{"internalType":"bool","name":"","type":"bool"}],"stateMutability":"view","type":"function"},{"inputs":[{"internalType":"address","name":"owner","type":"address"},{"internalType":"address","name":"operator","type":"address"}],"name":"isApprovedForAll","outputs":[{"internalType":"bool","name":"","type":"bool"}],"stateMutability":"view","type":"function"},{"inputs":[],"name":"isOwner","outputs":[{"internalType":"bool","name":"","type":"bool"}],"stateMutability":"view","type":"function"},{"inputs":[{"internalType":"uint256","name":"_tokenId","type":"uint256"}],"name":"isTokenLocked","outputs":[{"internalType":"bool","name":"","type":"bool"}],"stateMutability":"view","type":"function"},{"inputs":[],"name":"marketplace","outputs":[{"internalType":"address","name":"","type":"address"}],"stateMutability":"view","type":"function"},{"inputs":[{"internalType":"uint256","name":"_tokenId","type":"uint256"}],"name":"meltGEM","outputs":[],"stateMutability":"nonpayable","type":"function"},{"inputs":[],"name":"name","outputs":[{"internalType":"string","name":"","type":"string"}],"stateMutability":"view","type":"function"},{"inputs":[],"name":"numberOfSolidColors","outputs":[{"internalType":"uint8","name":"","type":"uint8"}],"stateMutability":"view","type":"function"},{"inputs":[{"internalType":"uint256","name":"tokenId","type":"uint256"}],"name":"ownerOf","outputs":[{"internalType":"address","name":"","type":"address"}],"stateMutability":"view","type":"function"},{"inputs":[{"internalType":"address","name":"","type":"address"}],"name":"ownershipTokenCount","outputs":[{"internalType":"uint256","name":"","type":"uint256"}],"stateMutability":"view","type":"function"},{"inputs":[],"name":"pause","outputs":[],"stateMutability":"nonpayable","type":"function"},{"inputs":[],"name":"pauseProxy","outputs":[{"internalType":"bool","name":"","type":"bool"}],"stateMutability":"view","type":"function"},{"inputs":[],"name":"paused","outputs":[{"internalType":"bool","name":"","type":"bool"}],"stateMutability":"view","type":"function"},{"inputs":[{"internalType":"uint256","name":"_tokenId","type":"uint256"}],"name":"pickMinedGEM","outputs":[{"internalType":"uint256","name":"","type":"uint256"}],"stateMutability":"payable","type":"function"},{"inputs":[],"name":"preMintedGemsAvailable","outputs":[{"internalType":"uint256[]","name":"GemsAvailable","type":"uint256[]"}],"stateMutability":"view","type":"function"},{"inputs":[{"internalType":"uint256","name":"","type":"uint256"}],"name":"proxyImplementation","outputs":[{"internalType":"address","name":"","type":"address"}],"stateMutability":"view","type":"function"},{"inputs":[],"name":"randomPack","outputs":[{"internalType":"address","name":"","type":"address"}],"stateMutability":"view","type":"function"},{"inputs":[{"internalType":"uint256","name":"requestId","type":"uint256"},{"internalType":"uint256","name":"randomWord","type":"uint256"}],"name":"rawFulfillRandomWords","outputs":[],"stateMutability":"nonpayable","type":"function"},{"inputs":[{"internalType":"address","name":"account","type":"address"}],"name":"removeAdmin","outputs":[],"stateMutability":"nonpayable","type":"function"},{"inputs":[{"internalType":"address","name":"account","type":"address"}],"name":"removePauser","outputs":[],"stateMutability":"nonpayable","type":"function"},{"inputs":[],"name":"renounceOwnership","outputs":[],"stateMutability":"nonpayable","type":"function"},{"inputs":[{"internalType":"bytes32","name":"role","type":"bytes32"},{"internalType":"address","name":"callerConfirmation","type":"address"}],"name":"renounceRole","outputs":[],"stateMutability":"nonpayable","type":"function"},{"inputs":[],"name":"requestCount","outputs":[{"internalType":"uint256","name":"","type":"uint256"}],"stateMutability":"view","type":"function"},{"inputs":[{"internalType":"uint256","name":"","type":"uint256"}],"name":"requestIds","outputs":[{"internalType":"uint256","name":"","type":"uint256"}],"stateMutability":"view","type":"function"},{"inputs":[{"internalType":"bytes32","name":"role","type":"bytes32"},{"internalType":"address","name":"account","type":"address"}],"name":"revokeRole","outputs":[],"stateMutability":"nonpayable","type":"function"},{"inputs":[{"internalType":"uint256","name":"","type":"uint256"}],"name":"s_requests","outputs":[{"internalType":"uint256","name":"tokenId","type":"uint256"},{"internalType":"bool","name":"requested","type":"bool"},{"internalType":"bool","name":"fulfilled","type":"bool"},{"internalType":"uint256","name":"randomWord","type":"uint256"},{"internalType":"uint256","name":"chosenTokenId","type":"uint256"},{"internalType":"address","name":"requester","type":"address"}],"stateMutability":"view","type":"function"},{"inputs":[{"internalType":"address","name":"from","type":"address"},{"internalType":"address","name":"to","type":"address"},{"internalType":"uint256","name":"tokenId","type":"uint256"}],"name":"safeTransferFrom","outputs":[],"stateMutability":"nonpayable","type":"function"},{"inputs":[{"internalType":"address","name":"from","type":"address"},{"internalType":"address","name":"to","type":"address"},{"internalType":"uint256","name":"tokenId","type":"uint256"},{"internalType":"bytes","name":"data","type":"bytes"}],"name":"safeTransferFrom","outputs":[],"stateMutability":"nonpayable","type":"function"},{"inputs":[{"internalType":"bytes4","name":"","type":"bytes4"}],"name":"selectorImplementation","outputs":[{"internalType":"address","name":"","type":"address"}],"stateMutability":"view","type":"function"},{"inputs":[{"internalType":"address","name":"operator","type":"address"},{"internalType":"bool","name":"approved","type":"bool"}],"name":"setApprovalForAll","outputs":[],"stateMutability":"nonpayable","type":"function"},{"inputs":[],"name":"setApprovalForMarketplace","outputs":[],"stateMutability":"nonpayable","type":"function"},{"inputs":[{"internalType":"uint256","name":"_CommonGemsCooldownPeriod","type":"uint256"},{"internalType":"uint256","name":"_RareGemsCooldownPeriod","type":"uint256"},{"internalType":"uint256","name":"_UniqueGemsCooldownPeriod","type":"uint256"},{"internalType":"uint256","name":"_EpicGemsCooldownPeriod","type":"uint256"},{"internalType":"uint256","name":"_LegendaryGemsCooldownPeriod","type":"uint256"},{"internalType":"uint256","name":"_MythicGemsCooldownPeriod","type":"uint256"}],"name":"setGemsCooldownPeriods","outputs":[],"stateMutability":"nonpayable","type":"function"},{"inputs":[{"internalType":"uint256","name":"_CommonGemsMiningPeriod","type":"uint256"},{"internalType":"uint256","name":"_RareGemsMiningPeriod","type":"uint256"},{"internalType":"uint256","name":"_UniqueGemsMiningPeriod","type":"uint256"},{"internalType":"uint256","name":"_EpicGemsMiningPeriod","type":"uint256"},{"internalType":"uint256","name":"_LegendaryGemsMiningPeriod","type":"uint256"},{"internalType":"uint256","name":"_MythicGemsMiningPeriod","type":"uint256"}],"name":"setGemsMiningPeriods","outputs":[],"stateMutability":"nonpayable","type":"function"},{"inputs":[{"internalType":"uint256","name":"_CommonGemsValue","type":"uint256"},{"internalType":"uint256","name":"_RareGemsValue","type":"uint256"},{"internalType":"uint256","name":"_UniqueGemsValue","type":"uint256"},{"internalType":"uint256","name":"_EpicGemsValue","type":"uint256"},{"internalType":"uint256","name":"_LegendaryGemsValue","type":"uint256"},{"internalType":"uint256","name":"_MythicGemsValue","type":"uint256"}],"name":"setGemsValue","outputs":[],"stateMutability":"nonpayable","type":"function"},{"inputs":[{"internalType":"uint256","name":"_tokenId","type":"uint256"},{"internalType":"bool","name":"_isLocked","type":"bool"}],"name":"setIsLocked","outputs":[],"stateMutability":"nonpayable","type":"function"},{"inputs":[{"internalType":"address","name":"_marketplace","type":"address"}],"name":"setMarketPlaceAddress","outputs":[],"stateMutability":"nonpayable","type":"function"},{"inputs":[{"internalType":"uint8","name":"_numberOfSolidColors","type":"uint8"}],"name":"setNumberOfSolidColors","outputs":[],"stateMutability":"nonpayable","type":"function"},{"inputs":[{"internalType":"address","name":"_randomPack","type":"address"}],"name":"setRandomPack","outputs":[],"stateMutability":"nonpayable","type":"function"},{"inputs":[{"internalType":"uint256","name":"tokenId","type":"uint256"},{"internalType":"string","name":"_tokenURI","type":"string"}],"name":"setTokenURI","outputs":[],"stateMutability":"nonpayable","type":"function"},{"inputs":[{"internalType":"address","name":"_treasury","type":"address"}],"name":"setTreasury","outputs":[],"stateMutability":"nonpayable","type":"function"},{"inputs":[{"internalType":"uint256","name":"_CommonminingTry","type":"uint256"},{"internalType":"uint256","name":"_RareminingTry","type":"uint256"},{"internalType":"uint256","name":"_UniqueminingTry","type":"uint256"},{"internalType":"uint256","name":"_EpicminingTry","type":"uint256"},{"internalType":"uint256","name":"_LegendaryminingTry","type":"uint256"},{"internalType":"uint256","name":"_MythicminingTry","type":"uint256"}],"name":"setminingTrys","outputs":[],"stateMutability":"nonpayable","type":"function"},{"inputs":[{"internalType":"uint256","name":"_tokenId","type":"uint256"}],"name":"startMiningGEM","outputs":[{"internalType":"bool","name":"","type":"bool"}],"stateMutability":"nonpayable","type":"function"},{"inputs":[{"internalType":"bytes4","name":"interfaceId","type":"bytes4"}],"name":"supportsInterface","outputs":[{"internalType":"bool","name":"","type":"bool"}],"stateMutability":"view","type":"function"},{"inputs":[],"name":"symbol","outputs":[{"internalType":"string","name":"","type":"string"}],"stateMutability":"view","type":"function"},{"inputs":[{"internalType":"address","name":"","type":"address"}],"name":"tokenMiningByUser","outputs":[{"internalType":"uint256","name":"","type":"uint256"}],"stateMutability":"view","type":"function"},{"inputs":[{"internalType":"uint256","name":"","type":"uint256"}],"name":"tokenReadyToMine","outputs":[{"internalType":"bool","name":"","type":"bool"}],"stateMutability":"view","type":"function"},{"inputs":[{"internalType":"uint256","name":"tokenId","type":"uint256"}],"name":"tokenURI","outputs":[{"internalType":"string","name":"","type":"string"}],"stateMutability":"view","type":"function"},{"inputs":[{"internalType":"address","name":"_owner","type":"address"}],"name":"tokensOfOwner","outputs":[{"internalType":"uint256[]","name":"ownerTokens","type":"uint256[]"}],"stateMutability":"view","type":"function"},{"inputs":[],"name":"ton","outputs":[{"internalType":"address","name":"","type":"address"}],"stateMutability":"view","type":"function"},{"inputs":[],"name":"totalSupply","outputs":[{"internalType":"uint256","name":"","type":"uint256"}],"stateMutability":"view","type":"function"},{"inputs":[{"internalType":"address","name":"newAdmin","type":"address"}],"name":"transferAdmin","outputs":[],"stateMutability":"nonpayable","type":"function"},{"inputs":[{"internalType":"address","name":"from","type":"address"},{"internalType":"address","name":"to","type":"address"},{"internalType":"uint256","name":"tokenId","type":"uint256"}],"name":"transferFrom","outputs":[],"stateMutability":"nonpayable","type":"function"},{"inputs":[{"internalType":"address","name":"newAdmin","type":"address"}],"name":"transferOwnership","outputs":[],"stateMutability":"nonpayable","type":"function"},{"inputs":[],"name":"treasury","outputs":[{"internalType":"address","name":"","type":"address"}],"stateMutability":"view","type":"function"},{"inputs":[],"name":"unpause","outputs":[],"stateMutability":"nonpayable","type":"function"},{"inputs":[{"internalType":"address","name":"","type":"address"},{"internalType":"uint256","name":"","type":"uint256"}],"name":"userMiningStartTime","outputs":[{"internalType":"uint256","name":"","type":"uint256"}],"stateMutability":"view","type":"function"},{"inputs":[{"internalType":"address","name":"","type":"address"},{"internalType":"uint256","name":"","type":"uint256"}],"name":"userMiningToken","outputs":[{"internalType":"bool","name":"","type":"bool"}],"stateMutability":"view","type":"function"},{"inputs":[],"name":"wston","outputs":[{"internalType":"address","name":"","type":"address"}],"stateMutability":"view","type":"function"}],"evm":{"bytecode":{"linkReferences":{"src/libraries/ForgeLibrary.sol":{"ForgeLibrary":[{"length":20,"start":15254}]}},"object":"60a03461034857601f601f196001600160401b036177493881900384810184168601838111878210176103325786928291604052833960209586918101031261034857516001600160a01b03811693908490036103485761005e61034d565b92600784526623b2b6a9aa27a760c91b8685015261007a61034d565b90600382526247454d60e81b87830152845190848211610332576000918254966001978881811c91168015610328575b8b821014610314579081878493116102c6575b508a9087831160011461026857859261025d575b5050600019600383901b1c191690871b1782555b82519485116102495785548681811c9116801561023f575b8982101461022b578481116101e8575b5087938511600114610188575083949596509261017d575b5050600019600383901b1c191690821b1781555b81608052603b556101493361036c565b50603580546001600160a01b03191691909117905560405161734b90816103fe8239608051818181612f4b0152613d770152f35b015190503880610125565b8493929193169685845280842093905b8882106101d157505083859697106101b8575b505050811b018155610139565b015160001960f88460031b161c191690553880806101ab565b808785968294968601518155019501930190610198565b8683528883208580880160051c8201928b8910610222575b0160051c019087905b82811061021757505061010d565b848155018790610209565b92508192610200565b634e487b7160e01b83526022600452602483fd5b90607f16906100fd565b634e487b7160e01b82526041600452602482fd5b0151905038806100d1565b90848a9416918680528c8720928d88905b8282106102af5750508411610296575b505050811b0182556100e5565b015160001960f88460031b161c19169055388080610289565b8385015186558d979095019493840193018e610279565b9091508480528a85208780850160051c8201928d861061030b575b918b91869594930160051c01915b8281106102fd5750506100bd565b8781558594508b91016102ef565b925081926102e1565b634e487b7160e01b85526022600452602485fd5b90607f16906100aa565b634e487b7160e01b600052604160045260246000fd5b600080fd5b60408051919082016001600160401b0381118382101761033257604052565b6001600160a01b031660008181527f489cb750909c17c66c5ce6e12fc66200b1268a56adfccc87a74969633bf57069602052604081205490919060ff166103f957818052603a6020526040822081835260205260408220600160ff1982541617905533917f2f8788117e7eff1d82e926ec794901d17c78024a50270940304540a733656f0d8180a4600190565b509056fe61018080604052600436101561001457600080fd5b600090813560e01c90816301ffc9a714615b3257508063034294f814615b11578063038a7e0514610c5c5780630491fd3e14615a7657806304e41a0b14615a5857806306fdde03146159a8578063081812fc1461596b5780630922f5131461594a578063095ea7b3146158675780630b513d99146157a45780630c7254a01461574d5780630de32a971461572f5780630ff1ac67146148335780631008ef7814614815578063139b63f3146147f757806315341f2b146146dd578063162094c4146146a1578063166b35c9146142035780631785f53c1461467457806318160ddd146146515780631885cbbe1461463357806318898f3614610c975780631d0e0aac146144ff5780631da0fc9c14614221578063201832c01461420357806323b872dd14614025578063248a9ca314613ff857806324d7806c14613fa3578063274f245514613c44578063276a28a314613c135780632b8cd09414613b2c5780632bbbe94d14610df65780632f2ff15d14613aee5780633315805814613a1757806333d608f1146139f957806333fcb6481461341157806336568abe146133db57806336b17e1314610c1157806337ed11db14612f37578063389ed26714612f0e5780633b19e84a14612c225780633ec7af4a14612b4e5780633f4ba83a14612e895780633fb310a514610ff657806342842e0e14612de95780634cbe436014612d9d5780634d723a7514612d575780634ec741b414612d2e57806350d2a27614612ce9578063550d01a314612caa57806358bf3e6514610cb55780635badbe4c14612c8c5780635bbffab614612c6e5780635c975abb14612c4b5780635fcf94d11461195257806361d027b314612c2257806361f7f6d714612b6c5780636275173814612b4e5780636352211e14612b1d57806363a8fd8914612af7578063676f79f114612ab45780636b1a96fa14612a815780636b2c0f5514612a315780636c106fea14610d1557806370480275146129e357806370a0823114610d33578063715018a6146129be57806371b57c4714612995578063724188bc1461297457806375829def1461295a57806375b238fc1461293157806377f7e499146129135780637866369b146128e457806382dc1ec41461284f5780638456cb59146127c55780638462151c146127a05780638796ba8c1461274e5780638964f0c1146109215780638d41fe30146109035780638f32d59b146127295780638fddb0651461270b57806391d14854146126bf57806395d89b41146125f957806397125c40146125c6578063975781b7146119e757806398a2c65d14610ef05780639a66af6214611970578063a0b2d41b14611952578063a168fa89146118e0578063a1770a7d14611897578063a1c527261461181f578063a217fddf14611803578063a22cb46514611762578063a8ce886e1461170f578063aa723bb71461161f578063aae31df314611546578063abc8c7af1461151d578063ad0d3d3f146114a5578063ad6caa471461130c578063aff2a4631461128e578063b78417b014611270578063b88d4fde14611199578063b911135f14611166578063bb4a250914611014578063bc36b2ee14610ff6578063bd11f69d14610fa3578063c138907214610f6a578063c28fb6b714610f2c578063c4d2fcae14610f0e578063c61a46c514610ef0578063c87b56dd14610e1f578063cc48b94714610df6578063cc98ef9614610d6c578063cec21acb14610d33578063d1bd7e0614610d15578063d547741f14610cd3578063d55486d314610cb5578063d62c990f14610c97578063d7a4649514610c79578063dc0515d614610c5c578063e4b7fddf14610c3e578063e7a523c014610c11578063e985e9c514610bbd578063ecc5e06f14610b76578063ed8c247214610aec578063efa2cc2914610ace578063f0f4426014610a44578063f2fde38b1461093f578063f66f9e3414610921578063f7c0794d14610903578063f99a6bb51461076f578063fea90d021461067c578063ff198a1d146106045763ffbccde4146105e457600080fd5b346106015780600319360112610601576020601754604051908152f35b80fd5b50346106015761061336615c3f565b946000805160206172968339815191528795929594939452603a602052604087203360005260205260ff604060002054168015610669575b610654906160ca565b601d55601e55601f5560205560215560225580f35b50610654610675616706565b905061064b565b5034610601578060031936011261060157806007805461069b8161616d565b603354909285916001600160a01b0390811690835b85811061070d578888886106c38261616d565b925b8281106106ee5750506106ea6040519283928352604060208401526040830190615dc6565b0390f35b806106fb6001928461619f565b51610706828761619f565b52016106c5565b808952600f602052828260408b2054161480610758575b610731575b6001016106b0565b969360019061073f89615f77565b505461074b828a61619f565b5294810197940193610729565b5060ff8461076583615f77565b5001541615610724565b5034610601576020806003193601126108ff576004359061079560ff601654161561608b565b6107a033151561634a565b818352600f8152604083205483906001600160a01b039033908216036108ff5761083f839160086107d087615f77565b500154906107e66107e088615f77565b90616a62565b6107ef33615f5d565b6107f981546168a1565b9055868552600f84526040852080546001600160a01b031916905561081d87617103565b6033541690604051948580948193630169dc3160e01b83523360048401616513565b03925af19081156108f45784916108c7575b5015610891575061088b7f65aff8e0552d208dfaf55b1280e55553b7dba628290897ff43c8f086d5dbfd2a9160405191829133908361677a565b0390a180f35b6064906040519062461bcd60e51b82526004820152600f60248201526e1d1c985b9cd9995c8819985a5b1959608a1b6044820152fd5b6108e79150823d84116108ed575b6108df8183615d00565b8101906164fb565b38610851565b503d6108d5565b6040513d86823e3d90fd5b5080fd5b50346106015780600319360112610601576020601a54604051908152f35b50346106015780600319360112610601576020601e54604051908152f35b503461060157602036600319011261060157610959615c13565b610969610964616706565b6162e0565b610974610964616706565b6001600160a01b0381168015610a045733146109c6576109b9906000805160206172968339815191528352603a6020526109b460016040852001546168ae565b6168f2565b506109c3336165cb565b80f35b60405162461bcd60e51b815260206004820152601660248201527520b1b1b2b9b9b4b136329d1039b0b6b29030b236b4b760511b6044820152606490fd5b60405162461bcd60e51b815260206004820152601860248201527741636365737369626c653a207a65726f206164647265737360401b6044820152606490fd5b503461060157602036600319011261060157610a5e615c13565b6000805160206172968339815191528252603a602052604082203360005260205260ff604060002054168015610abb575b610a98906160ca565b603380546001600160a01b0319166001600160a01b039290921691909117905580f35b50610a98610ac7616706565b9050610a8f565b50346106015780600319360112610601576020602c54604051908152f35b503461060157602036600319011261060157610b06615c13565b6000805160206172968339815191528252603a602052604082203360005260205260ff604060002054168015610b63575b610b40906160ca565b603680546001600160a01b0319166001600160a01b039290921691909117905580f35b50610b40610b6f616706565b9050610b37565b503461060157602036600319011261060157610ba960406106ea9260ff610b9b615d38565b168152600b60205220615fe6565b604051918291602083526020830190615bd3565b503461060157604036600319011261060157610bd7615c13565b6040610be1615c29565b9260018060a01b0380931681526005602052209116600052602052602060ff604060002054166040519015158152f35b503461060157806003193601126106015760315460405160089190911c6001600160a01b03168152602090f35b50346106015780600319360112610601576020602e54604051908152f35b503461060157806003193601126106015760208054604051908152f35b50346106015780600319360112610601576020602754604051908152f35b50346106015780600319360112610601576020601f54604051908152f35b50346106015780600319360112610601576020601d54604051908152f35b503461060157604036600319011261060157610d11600435610cf3615c29565b90808452603a602052610d0c60016040862001546168ae565b616e87565b5080f35b50346106015780600319360112610601576020601854604051908152f35b5034610601576020366003190112610601576020906040906001600160a01b03610d5b615c13565b168152601083522054604051908152f35b503461060157602036600319011261060157610d86615c13565b6000805160206172968339815191528252603a602052604082203360005260205260ff604060002054168015610de3575b610dc0906160ca565b603480546001600160a01b0319166001600160a01b039290921691909117905580f35b50610dc0610def616706565b9050610db7565b50346106015780600319360112610601576032546040516001600160a01b039091168152602090f35b5034610601576020908160031936011261060157600435808252600f83526040909120546001600160a01b031615610e9357610e5a81616793565b5060005260068152610e6f6040600020615fe6565b906000604051610e7e81615cca565b526106ea604051928284938452830190615bd3565b60405162461bcd60e51b815260048101839052602f60248201527f4552433732314d657461646174613a2055524920717565727920666f72206e6f60448201526e3732bc34b9ba32b73a103a37b5b2b760891b6064820152608490fd5b50346106015780600319360112610601576020601954604051908152f35b50346106015780600319360112610601576020602354604051908152f35b50346106015780600319360112610601576033546106ea90610f56906001600160a01b031661664e565b604051918291602083526020830190615dc6565b5034610601576020366003190112610601576020906040906001600160a01b03610f92615c13565b168152601183522054604051908152f35b50346106015760203660031901126106015760043590600a5482101561060157600a6000526106ea610ba97fc65a7bb8d6351c1cf70c95a316cc6a92839c986682d98bc35f958f4883f9d2a88401615fe6565b50346106015780600319360112610601576020602254604051908152f35b5034610601576101203660031901126106015761102f615c13565b611037615c29565b6001600160a01b03604435818116939192908490036111615761105b610964616706565b603154838160081c1661111c57603254928484166110dd57610100600160a81b0360089190911b16610100600160a81b031991909116176031559091166001600160a01b03199182161760325560338054909116919091179055606435601d55608435601e5560a435601f5560c43560205560e4356021556101043560225580f35b60405162461bcd60e51b81526020600482015260176024820152761d1bdb88185b1c9958591e481a5b9a5d1a585b1a5e9959604a1b6044820152606490fd5b60405162461bcd60e51b815260206004820152601e60248201527f746974616e7773746f6e20616c726561647920696e697469616c697a656400006044820152606490fd5b600080fd5b503461060157602036600319011261060157602090600435815260378252604060018060a01b0391205416604051908152f35b5034610601576080366003190112610601576111b3615c13565b6111bb615c29565b6044356064356001600160401b0381116112615736602382011215611261576111ee903690602481600401359101615d71565b916111fe60ff601654161561608b565b611209823386616f00565b303b15611261576040516323b872dd60e01b8152859081818061123187878b60048501616385565b038183305af180156112655761124d575b50506109c393616fbf565b61125690615c65565b611261578438611242565b8480fd5b6040513d84823e3d90fd5b50346106015780600319360112610601576020602a54604051908152f35b5034610601576020366003190112610601576112a8615d38565b9060ff80600954169216918210156112d1576040816106ea93610ba99352600860205220615fe6565b60405162461bcd60e51b8152602060048201526013602482015272496e646578206f7574206f6620626f756e647360681b6044820152606490fd5b503461060157602090816003193601126106015760043561133260ff601654161561608b565b808252600f835260408220546001600160a01b031633036114705761136b600160ff600761135f85615f77565b500154161515146163b4565b33825260128352604082208183528352600160ff60408420541615150361142d57600a61139782615f77565b5001546113ea576113d96007916113ad33615f29565b8185528552604084209360ff19948581541690556113ca33615f43565b82825286526040812055615f77565b500190815416905560405160018152f35b60405162461bcd60e51b815260048101849052601b60248201527a616c72656164792063616c6c6564207069636b4d696e656447454d60281b6044820152606490fd5b60405162461bcd60e51b815260048101849052601b60248201527a75736572206973206e6f74206d696e696e6720746869732047656d60281b6044820152606490fd5b60405162461bcd60e51b815260048101849052600d60248201526c3737ba1023a2a69037bbb732b960991b6044820152606490fd5b5034610601576114b436615c3f565b946000805160206172968339815191528795929594939452603a602052604087203360005260205260ff60406000205416801561150a575b6114f5906160ca565b602955602a55602b55602c55602d55602e5580f35b506114f5611516616706565b90506114ec565b50346106015780600319360112610601576034546040516001600160a01b039091168152602090f35b50346106015760203660031901126106015760408160c09260a0835161156b81615c94565b82815282602082015282858201528260608201528260808201520152600435815260156020522060046040516115a081615c94565b8254928382526001810154602083019060ff81161515825260ff604085019160081c16151581526002830154916060850192835260a060038501549460808701958652600180831b03978891015416950194855260405196875251151560208701525115156040860152516060850152516080840152511660a0820152f35b5034610601576020366003190112610601576004359061014060405161164481615c78565b82815282602082015260405161165981615caf565b6080368237604082015260405161166f81615ce5565b604036823760608201528260808201528260a08201528260c08201528260e082015282610100820152606061012082015201526007548110156116d5576116c16116bb6106ea92615f77565b50616447565b604051918291602083526020830190615e3c565b60405162461bcd60e51b815260206004820152601260248201527111d95b48191bd95cc81b9bdd08195e1a5cdd60721b6044820152606490fd5b50346106015760203660031901126106015760043590600d5482101561060157600d6000526106ea610ba97fd7b6990105719101dabeb77144f2a3385c8033acd3af97e9423a695e81ad1eb58401615fe6565b50346106015760403660031901126106015761177c615c13565b611784615f1a565b6001600160a01b039091169081156117ea573360005260056020526040600020826000526020526117b98160406000206163f5565b60405190151581527f17307eab39ab6107e8899845ad3d59bd9653f200f220920489ca2b5937696c3160203392a380f35b604051630b61174360e31b815260048101839052602490fd5b5034610601578060031936011261060157602090604051908152f35b50346106015761182e36615c3f565b946000805160206172968339815191528795929594939452603a602052604087203360005260205260ff604060002054168015611884575b61186f906160ca565b601755601855601955601a55601b55601c5580f35b5061186f611890616706565b9050611866565b50346106015760403660031901126106015760209060ff906040906001600160a01b036118c2615c13565b16815260128452818120602435825284522054166040519015158152f35b503461060157602036600319011261060157604060c0916004358152601560205220805490600181015490600281015460ff600383015492600460018060a01b0391015416936040519586528181161515602087015260081c16151560408501526060840152608083015260a0820152f35b50346106015780600319360112610601576020602154604051908152f35b50346106015760203660031901126106015760ff61198c615d38565b6000805160206172968339815191528352603a6020526040832033600052602052816040600020541680156119d4575b6119c5906160ca565b1660ff19603154161760315580f35b506119c56119e0616706565b90506119bc565b50346106015761010036600319011261060157600660043510156106015736604312156111615760405190611a1b82615ce5565b81606492368411611161576024905b8482106125ae57505036608312156111615760405191611a4983615caf565b60e4833682116111615785905b8282106125965750505060e435906001600160401b0382116106015750611a81903690600401615da8565b92611a9760018060a01b0360335416331461610b565b611aa660ff601654161561608b565b60ff835116611abe602085019160ff83511690616766565b90611ad2604086019260ff84511690616766565b611ae5606087019160ff83511690616766565b92600435611ef65760ff8751169260018414938415611eeb575b5083611ec5575b5082611e9f575b5081611e7b575b5015611e205760ff600891161015611de4575060295460235492601d546017545b611b3f84426163a7565b9060405190611b4d82615c78565b600082526020820192611b6260043585616406565b85604084015287606084015260808301528760a083015260c0820152600060e082015282610100820152876101208201526000610140820152600754600160401b811015611dce57806001611bba9201600755615f77565b929092611db85781518355516006811015611da25760ff80196001850154169116176001830155604081015160009060005b60048110611d835750506002830155606081015160009060005b60028110611d64575050600a916101409160038501556080810151600485015560a0810151600585015560c08101516006850155611c4d60e08201511515600786016163f5565b6101008101516008850155611c6a610120820151600986016161ca565b0151910155600754600019810195908611611d4e5760209686956000805160206172f683398151915295611d3c9388611ca281615f77565b50556000898152600f8c526040902080546001600160a01b03191633908117909155611ccd90615f5d565b611cd7815461663f565b9055611ce38933616b07565b611ced848a6167ce565b611d21604051978897611d1261018096611d098b600435615e2f565b8f8b0190616575565b606089015260808801906165a0565b61010086015261012085015280610140850152830190615bd3565b336101608301520390a2604051908152f35b634e487b7160e01b600052601160045260246000fd5b90916020611d7a6001928460ff87511691616eec565b93019101611c06565b90916020611d996001928460ff87511691616eec565b93019101611bec565b634e487b7160e01b600052602160045260246000fd5b634e487b7160e01b600052600060045260246000fd5b634e487b7160e01b600052604160045260246000fd5b60405162461bcd60e51b8152602060048201526017602482015276191919191034b9902920a922903737ba1021a7a6a6a7a760491b6044820152fd5b60405162461bcd60e51b815260206004820152602e60248201527f416c6c207175616472616e7473206d7573742062652031206f72203220666f7260448201526d20434f4d4d4f4e2072617269747960901b81840152608490fd5b60ff9150511660018114908115611e94575b5038611b14565b600291501438611e8d565b60ff919250511660018114908115611eba575b509038611b0d565b600291501438611eb2565b60ff919350511660018114908115611ee0575b509138611b06565b600291501438611ed8565b600214935038611aff565b60043560010361205c5760ff8751169260028414938415612051575b508361202b575b5082612005575b5081611fe1575b5015611f885760ff600c91161015611f4c5750602a5460245492601e54601854611b35565b60405162461bcd60e51b81526020600482015260176024820152763333333320697320554e49515545206e6f74205241524560481b6044820152fd5b60405162461bcd60e51b815260206004820152602c60248201527f416c6c207175616472616e7473206d7573742062652032206f72203320666f7260448201526b20524152452072617269747960a01b81840152608490fd5b60ff9150511660028114908115611ffa575b5038611f27565b600391501438611ff3565b60ff919250511660028114908115612020575b509038611f20565b600391501438612018565b60ff919350511660028114908115612046575b509138611f19565b60039150143861203e565b600314935038611f12565b6004356002036121c45760ff87511692600384149384156121b9575b5083612193575b508261216d575b5081612149575b50156120ee5760ff6010911610156120b25750602b5460255492601f54601954611b35565b60405162461bcd60e51b8152602060048201526017602482015276343434342069732045504943206e6f7420554e4951554560481b6044820152fd5b60405162461bcd60e51b815260206004820152602e60248201527f416c6c207175616472616e7473206d7573742062652033206f72203420666f7260448201526d20554e495155452072617269747960901b81840152608490fd5b60ff9150511660038114908115612162575b503861208d565b60049150143861215b565b60ff919250511660038114908115612188575b509038612086565b600491501438612180565b60ff9193505116600381149081156121ae575b50913861207f565b6004915014386121a6565b600414935038612078565b60043560030361232d5760ff8751169260048414938415612322575b50836122fc575b50826122d6575b50816122b2575b50156122595760ff60149116101561221a5750602c5460265492602054601a54611b35565b60405162461bcd60e51b815260206004820152601a60248201527935353535206973204c4547454e44415259206e6f74204550494360301b6044820152fd5b60405162461bcd60e51b815260206004820152602c60248201527f416c6c207175616472616e7473206d7573742062652034206f72203520666f7260448201526b20455049432072617269747960a01b81840152608490fd5b60ff91505116600481149081156122cb575b50386121f5565b6005915014386122c4565b60ff9192505116600481149081156122f1575b5090386121ee565b6005915014386122e9565b60ff919350511660048114908115612317575b5091386121e7565b60059150143861230f565b6005149350386121e0565b600480350361249c5760ff8751169260058414938415612491575b508361246b575b5082612445575b5081612421575b50156123c35760ff6018911610156123825750602d5460275492602154601b54611b35565b60405162461bcd60e51b815260206004820152601c60248201527b36363636206973204d5954484943206e6f74204c4547454e4441525960201b6044820152fd5b60405162461bcd60e51b815260206004820152603160248201527f416c6c207175616472616e7473206d7573742062652035206f72203620666f72604482015270204c4547454e444152592072617269747960781b81840152608490fd5b60ff915051166005811490811561243a575b503861235d565b600691501438612433565b60ff919250511660058114908115612460575b509038612356565b600691501438612458565b60ff919350511660058114908115612486575b50913861234f565b60069150143861247e565b600614935038612348565b9192509060043560050361256357600660ff875116149283612554575b5082612545575b5081612536575b50156124e05750602e5460285492602254601c54611b35565b6084906849432072617269747960b81b6040519162461bcd60e51b835260206004840152602960248401527f416c6c207175616472616e7473206d757374206265203620666f72204d5954486044840152820152fd5b5160ff166006149050386124c7565b5160ff166006149150386124c0565b5160ff166006149250386124b9565b60405162461bcd60e51b815260206004820152600c60248201526b77726f6e672052617269747960a01b60448201528490fd5b602080916125a384615d48565b815201910190611a56565b602080916125bb84615d48565b815201910190611a2a565b5034610601576020366003190112610601576020906004358152600f8252604060018060a01b0391205416604051908152f35b503461060157806003193601126106015760405160006001826001549261261f84615fac565b928383526020948560018216918260001461269f57505060011461265f575b5061264b92500383615d00565b6106ea604051928284938452830190615bd3565b849150600160005281600020906000915b85831061268757505061264b93508201018561263e565b80548389018501528794508693909201918101612670565b60ff19168582015261264b95151560051b850101925087915061263e9050565b50346106015760403660031901126106015760406126db615c29565b916004358152603a602052209060018060a01b0316600052602052602060ff604060002054166040519015158152f35b50346106015780600319360112610601576020602d54604051908152f35b50346106015780600319360112610601576020612744616706565b6040519015158152f35b503461060157602036600319011261060157600435602f548110156108ff57602f6000527fa813484aef6fb598f9f753daf162068ff39ccea4075cb95e1a30f86995b5b7ee0154604051908152602090f35b5034610601576020366003190112610601576106ea610f566127c0615c13565b61664e565b50346106015780600319360112610601576000805160206172768339815191528152603a602052604081203360005260205261280860ff604060002054166165e7565b600160165461281a60ff82161561608b565b60ff1916176016557f62e78cea01bee320cd4e420270b5ea74000d11b0c9f74754ebdbfc544b05a2586020604051338152a180f35b503461060157602036600319011261060157610d1161286c615c13565b6000805160206172968339815191528352603a602052604083203360005260205260ff6040600020541680156128d1575b6128a6906160ca565b6000805160206172768339815191528352603a6020526128cc60016040852001546168ae565b61696f565b506128a66128dd616706565b905061289d565b50346106015760203660031901126106015760ff60406020926004358152601484522054166040519015158152f35b50346106015780600319360112610601576020602954604051908152f35b503461060157806003193601126106015760206040516000805160206172968339815191528152f35b503461060157602036600319011261060157610969615c13565b5034610601578060031936011261060157602060ff60315416604051908152f35b50346106015780600319360112610601576035546040516001600160a01b039091168152602090f35b50346106015780600319360112610601576129da610964616706565b610d1133616d94565b503461060157602036600319011261060157610d11612a00615c13565b612a0b610964616706565b6000805160206172968339815191528352603a6020526109b460016040852001546168ae565b503461060157602036600319011261060157612a4b615c13565b612a56610964616706565b336001600160a01b03821603612a6f57610d1190616d0c565b60405163334bd91960e11b8152600490fd5b503461060157602036600319011261060157610ba960406106ea9260ff612aa6615d38565b168152600860205220615fe6565b5034610601576040366003190112610601576020906040906001600160a01b03612adc615c13565b16815260138352818120602435825283522054604051908152f35b5034610601578060031936011261060157602060ff60365460a01c166040519015158152f35b5034610601576020366003190112610601576020612b3c600435616793565b6040516001600160a01b039091168152f35b50346106015780600319360112610601576020601c54604051908152f35b5034610601576020366003190112610601576004359060075482101561060157612bee612b9883615f77565b508054612c1760ff600184015416926004810154926005820154600683015460ff60078501541690600885015492600a612bd460098801615fe6565b960154976040519a8b9a610120978c5260208c0190615e2f565b60408a015260608901526080880152151560a087015260c08601528060e0860152840190615bd3565b906101008301520390f35b50346106015780600319360112610601576033546040516001600160a01b039091168152602090f35b5034610601578060031936011261060157602060ff601654166040519015158152f35b50346106015780600319360112610601576020602654604051908152f35b50346106015780600319360112610601576020603054604051908152f35b50346106015760203660031901126106015760209060ff906040906001600160a01b03612cd5615c13565b168152603884522054166040519015158152f35b50346106015760203660031901126106015760043563ffffffff60e01b81168091036108ff5790602091815260398252604060018060a01b0391205416604051908152f35b50346106015780600319360112610601576036546040516001600160a01b039091168152602090f35b5034610601576040366003190112610601576109c3612d74615f1a565b612d8960018060a01b0360345416331461610b565b6007612d96600435615f77565b50016163f5565b5034610601578060031936011261060157806007545b808310612dc557602082604051908152f35b90612de06001916008612dd786615f77565b500154906163a7565b92019190612db3565b503461060157612df836615dfa565b60409392935191612e0883615cca565b838352612e1a60ff601654161561608b565b612e25823387616f00565b303b15612e85576040516323b872dd60e01b8152848180612e4b86868b60048501616385565b038183305af18015612e7a57612e67575b506109c39394616fbf565b93612e746109c395615c65565b93612e5c565b6040513d87823e3d90fd5b8380fd5b50346106015780600319360112610601576000805160206172768339815191528152603a60205260408120338252602052612eca60ff6040832054166165e7565b601654612eda60ff82161561608b565b60ff19166016557f5db9ee0a495bf2e6ff9c91a7834c1ba4fdd244a5e8aa4e537bd38aeae4b073aa6020604051338152a180f35b503461060157806003193601126106015760206040516000805160206172768339815191528152f35b5034610601576040366003190112610601577f00000000000000000000000000000000000000000000000000000000000000006001600160a01b0316338190036133bd57506004358152601560205260ff600160408320015416156133855760043581526015602052604081206001810161010061ff0019825416179055602435600282015554612fd36002612fcc83615f77565b5001616412565b60ff81511660ff6020830151169160ff60608160408401511692015116916130168693613011600754946130116130098761616d565b988b96616766565b616766565b865b838110613298575050505061302c8161616d565b91845b8281106132795750507fdd6ebb40766c50572c78f680f70ff043535bc04e71ac56a352f7c3df1e11ec5160405182815260406020820152806130746040820186615dc6565b0390a180158061323657613222576131a9929161309591602435069061619f565b5160043584526015602052600360408520015560076130b382615f77565b500160ff199081815416905583600a6130cb84615f77565b500155600435845260156020526130fe6130f860ff60016130ef6040892054615f77565b5001541661719a565b426163a7565b600461310984615f77565b5001556001600160a01b0361311d83616793565b1684526012602052604084208285526020526040842090815416905560018060a01b0361314982616793565b16835260136020908152604080852083865282528085208590556033546004803587526015845282872080820154600390910154935163048dbcef60e41b81529687946001600160a01b039485169486948b948694939216908401616513565b03925af1908115613217576131ea61088b927f97b363697f59781efcf0539a3eeabceea1e3b444e248009d3730fa6a26db9c249486916131f8575b5061652e565b60405191829133908361677a565b613211915060203d6020116108ed576108df8183615d00565b386131e4565b6040513d85823e3d90fd5b634e487b7160e01b84526012600452602484fd5b50505060207f87c3badc36a4b7c7f2331493a7998c2f9c414769a1bc588ef4b4c7ef302aeb5191600435845260158252836003604082200155604051908152a180f35b806132866001928461619f565b51613291828761619f565b520161302f565b6132e36132c960ff60026132ab85615f77565b5001541660ff60026132bc86615f77565b50015460081c1690616766565b60ff60026132d685615f77565b50015460101c1690616766565b60ff6133066132f184615f77565b509282600281881695015460181c1690616766565b161080613361575b80613349575b613321575b600101613018565b9391600180809261333188615f77565b505461333d828b61619f565b52019301949050613319565b5060ff600761335783615f77565b5001541615613314565b50808852600f60205260408820546033546001600160a01b0390811691161461330e565b60405162461bcd60e51b815260206004820152601060248201526f52657175657374206e6f74206d61646560801b6044820152606490fd5b6044906040519063073e64fd60e21b82523360048301526024820152fd5b5034610601576040366003190112610601576133f5615c29565b336001600160a01b03821603612a6f57610d1190600435616e87565b503461060157608036600319011261060157600435906001600160401b03821161060157366023830112156106015781600401359161344f83615d21565b9261345d6040519485615d00565b80845260246020850191826101005260051b83010191368311612e8557602401905b8282106139e9575050506006602435101561060157366063121561060157604051906134aa82615ce5565b60848236821161397f576044905b8282106139d1575050506134d160ff601654161561608b565b601e5461012052601f5461016052602054602154602254602454602554602654602754602854906018549260195494601a5496601b5498601c549a602a549c602b54608052602c5460c052602d5461014052602e5460e05260405160a05260a05161028060a05101106001600160401b0361028060a0510111176139bd5761028060a051016040526101205160a0515261016051602060a0510152604060a0510152606060a0510152608060a051015260a08051015260c060a051015260e060a051015261010060a051015261012060a051015261014060a051015261016060a051015261018060a05101526101a060a05101526101c060a05101526101e060a051015260805161020060a051015260c05161022060a05101526101405161024060a051015260e05161026060a0510152608060405161361081615caf565b3690376040516341264bff60e01b815260076004820152600f602482015260106044820152336064820152610380608482015283516103848201819052610100516103a4830191845b8181106139a75750505061367260a48301602435615e2f565b81848460c483015b6002821061398a57505050806101409260a05151610104830152602060a0510151610124830152604060a0510151610144830152606060a0510151610164830152608060a051015161018483015260a0805101516101a483015260c060a05101516101c483015260e060a05101516101e483015261010060a051015161020483015261012060a05101516102248301528360a051015161024483015261016060a051015161026483015261018060a05101516102848301526101a060a05101516102a48301526101c060a05101516102c48301526101e060a05101516102e483015261020060a051015161030483015261022060a051015161032483015261024060a051015161034483015261026060a0510151610364830152038173__$c8413349dc071733da103ffe8c54b86872$__5af49081156112655782918391849285869287946138d1575b50865b895181101561383c57806137e96107e06137e36001948e61619f565b51615f77565b3389526010602052604089206137ff81546168a1565b905561380b818c61619f565b518952600f60205260408920828060a01b03198154169055613836613830828d61619f565b51617103565b016137c7565b50926000805160206172f683398151915294926138a68798936101a09661389760209c6138698c33616b07565b61388160405161387881615cca565b8981528d6167ce565b61388e604051809a615e2f565b8d890190616575565b606087015260808601906165a0565b61010084015261012083015261018061014083015261018082015233610160820152a2604051908152f35b955050505050506101403d61014011613983575b6138ef8183615d00565b8101906101408183031261397f5780519082603f82011215612e85576040519261391884615caf565b839060a08301116112615760208201905b60a08301821061396157505060a08101519160068310156112615760c082015160e083015161010090930151919491929190386137c4565b815160ff8116810361397b57815260209182019101613929565b8680fd5b8280fd5b503d6138e5565b8293506020809160ff60019495511681520193019101849261367a565b8251845260209384019390920191600101613659565b634e487b7160e01b8f52604160045260248ffd5b602080916139de84615d48565b8152019101906134b8565b813581526020918201910161347f565b50346106015780600319360112610601576020604051620334508152f35b503461060157604036600319011261060157613aa081613a35615c13565b60008051602061729683398151915282526020928391603a835260408420338552835260ff6040852054168015613adb575b613a70906160ca565b60335460405163048dbcef60e41b81529485936001600160a01b0390921692849283916024359060048401616513565b03925af190811561321757613abb929391613ac4575061652e565b60405160018152f35b6132119150833d85116108ed576108df8183615d00565b50613a70613ae7616706565b9050613a67565b503461060157604036600319011261060157610d11600435613b0e615c29565b90808452603a602052613b2760016040862001546168ae565b6169f9565b5034610601578060031936011261060157600754613b4981615d21565b90613b576040519283615d00565b8082526007835260209283830191817fa66cc928b5edb82af9bd49922954155ab7b0942694bea4ce44661d9a8736c688845b838310613bee5750505050604051928484019085855251809152604084019460408260051b8601019392955b828710613bc25785850386f35b909192938280613bde600193603f198a82030186528851615e3c565b9601920196019592919092613bb5565b600b88600192613c01859b9a989b616447565b81520192019201919096939596613b89565b503461060157602036600319011261060157602060ff6007613c36600435615f77565b500154166040519015158152f35b506020908160031936011261060157600435613c6560ff601654161561608b565b6002603b5414613f91576002603b55613c7d81616793565b6001600160a01b039290831633148015613f60575b15613f1e5733815260138452604081208282528452613cba60408220546005612dd785615f77565b4210613ed95790600791613ce3613cd083615f77565b5060ff60019586920154161515146163b4565b83613ced83616793565b168152601285526040812082825285528260ff604083205416151503613ea357604051606081018181106001600160401b03821117613e8f579086916040528281526064828201848152604083019762033450895263ffffffff604051998a9586946309160b1560e11b865261ffff809251166004870152511660248501525116604483015234907f0000000000000000000000000000000000000000000000000000000000000000165af1938415613e82578194613e33575b508160046040809387600a613ddc7f92f40ca7d6cff5022608e05da6b963f9ac5a227ea2da740f7d35831bb78c285d98615f77565b5001558781526015895220828155858101805460ff1916871790550180546001600160a01b031916331790556030805485019055600a613e1b82615f77565b500154825191825286820152a1603b55604051908152f35b9093508481813d8311613e7b575b613e4b8183615d00565b81010312612e855751927f92f40ca7d6cff5022608e05da6b963f9ac5a227ea2da740f7d35831bb78c285d613da7565b503d613e41565b50604051903d90823e3d90fd5b634e487b7160e01b83526041600452602483fd5b60405162461bcd60e51b815260048101869052600e60248201526d67656d206e6f74206d696e696e6760901b6044820152606490fd5b60405162461bcd60e51b815260048101859052601d60248201527f6d696e696e6720706572696f6420686173206e6f7420656c61707365640000006044820152606490fd5b60405162461bcd60e51b815260048101859052601a6024820152793737ba1023a2a69037bbb732b91037b9103737ba1030b236b4b760311b6044820152606490fd5b506000805160206172968339815191528152603a8452604081203382528452600160ff604083205416151514613c92565b604051633ee5aeb560e01b8152600490fd5b50346106015760203660031901126106015760ff6040602092613fc4615c13565b6000805160206172968339815191528252603a85528282206001600160a01b03909116825284522054604051911615158152f35b503461060157602036600319011261060157600160406020926004358152603a8452200154604051908152f35b50346106015761403436615dfa565b929161404560ff601654161561608b565b6001600160a01b0382811690811561126157808316918281146141ff5760ff600761406f89615f77565b500154166141ca57869061408c6130f860ff60016130ef86615f77565b600461409784615f77565b5001556140a386615f5d565b6140ad815461663f565b9055818752600f6020526040872080546001600160a01b03199081168317909155926140d886615f5d565b6140e281546168a1565b9055828852600260205260408820541692336141ba575b83614198575b818852600360205260408820600181540190558288526002602052816040892091825416179055826000805160206172b68339815191528880a481810361417457505061088b7f85d07a7616aea29f5d972fd9100b991c224490bd49b737377d908f66f34d9afd939460405193849384616385565b6064925085604051926364283d7b60e01b8452600484015260248301526044820152fd5b6141a18361717c565b83885260036020526040882080546000190190556140ff565b6141c5833386616f00565b6140f9565b60405162461bcd60e51b815260206004820152600d60248201526c11d95b481a5cc81b1bd8dad959609a1b6044820152606490fd5b8580fd5b50346106015780600319360112610601576020601b54604051908152f35b50346106015760209081600319360112610601576004359061424860ff601654161561608b565b61425333151561634a565b336001600160a01b0361426584616793565b16036144ca57600461427683615f77565b50015442106144795760ff600761428c84615f77565b500154166144235760ff60016142a184615f77565b50015416600681101561440f57156143cb5760066142be83615f77565b5001541561437c577fcfdb0da0eda7e72692cc304e4e58d2543a70ce5269931e91e02337cbff2a1ef1916080916142f433615f29565b8282528552604081209060ff199160018382541617905561431433615f43565b83825286526040429120556001600761432c84615f77565b500191825416179055600661434082615f77565b500161434c81546168a1565b9055600661435982615f77565b50015460405191825233858301524260408301526060820152a160405160018152f35b60405162461bcd60e51b815260048101849052602160248201527f6e6f206d696e696e6720706f776572206c65667420666f7220746861742047456044820152604d60f81b6064820152608490fd5b60405162461bcd60e51b815260048101849052601c60248201527b726172697479206d757374206265206174206c65617374205241524560201b6044820152606490fd5b634e487b7160e01b82526021600452602482fd5b60405162461bcd60e51b815260048101849052602860248201527f47656d206973206c697374656420666f722073616c65206f7220616c7265616460448201526779206d696e696e6760c01b6064820152608490fd5b60405162461bcd60e51b815260048101849052602360248201527f47656d20636f6f6c646f776e20706572696f6420686173206e6f7420656c61706044820152621cd95960ea1b6064820152608490fd5b60405162461bcd60e51b815260048101849052600d60248201526c3737ba1033b2b69037bbb732b960991b6044820152606490fd5b5034610601576020366003190112610601576004356001600160401b0381116108ff57614530903690600401615da8565b6145393361673b565b8015614620575b614549906160ca565b60ff600c54168252600b60205261456381604084206161ca565b600d54600160401b811015613e8f576001810180600d5581101561460c57600d83526145b29082907fd7b6990105719101dabeb77144f2a3385c8033acd3af97e9423a695e81ad1eb5016161ca565b7fd961fa20561746b8576d7b504b0bc57067c67db2ce13bd9866d451bec5985f4b614606600c549260ff6145e78186166162cf565b16809460ff191617600c55604051918291602083526020830190615bd3565b0390a280f35b634e487b7160e01b83526032600452602483fd5b5061454961462c616706565b9050614540565b50346106015780600319360112610601576020602b54604051908152f35b5034610601578060031936011261060157602061466c616338565b604051908152f35b5034610601576020366003190112610601576109c3614691615c13565b61469c610964616706565b6165cb565b5034610601576040366003190112610601576024356001600160401b0381116108ff576146d56109c3913690600401615da8565b6004356167ce565b5034610601576020366003190112610601576004356001600160401b0381116108ff5761470e903690600401615da8565b6147173361673b565b80156147e4575b614727906160ca565b60ff600954168252600860205261474181604084206161ca565b600a54600160401b811015613e8f576001810180600a5581101561460c57600a83526147909082907fc65a7bb8d6351c1cf70c95a316cc6a92839c986682d98bc35f958f4883f9d2a8016161ca565b7fe4d2864ec291f6f11cb3363fa1bd2a4d5ff49a2cfdf4bf7dfe3b90a26b8c776f6146066009549260ff6147c58186166162cf565b16809460ff191617600955604051918291602083526020830190615bd3565b506147276147f0616706565b905061471e565b50346106015780600319360112610601576020602854604051908152f35b50346106015780600319360112610601576020601754604051908152f35b5034610601576080366003190112610601576004356001600160401b0381116108ff57366023820112156108ff57806004013561486f81615d21565b9161487d6040519384615d00565b8183526024602084019260051b8201019036821161126157602401915b818310615716575050506024356001600160401b03811161397f573660238201121561397f578060040135906148cf82615d21565b916148dd6040519384615d00565b8083526024602084019160061b830101913683116141ff57602401905b8282106156b957505050604435926001600160401b038411610601573660238501121561060157836004013561492f81615d21565b9461493d6040519687615d00565b81865260208601903660248460071b83010111612e855760248101915b60248460071b830101831061565f57505050506001600160401b036064351161060157366023606435011215610601576064356004013561499a81615d21565b906149a86040519283615d00565b80825260208201903660248260051b606435010111612e8557602460643501915b60248260051b6064350101831061562c575050506149f260018060a01b0360335416331461610b565b614a0160ff601654161561608b565b835183518091149081615621575b5080615616575b156155c257614a28849395945161616d565b94825b84518110156155ac57614a3e818661619f565b51600681101561559857614a52828461619f565b51614a5d838961619f565b5191614a69848761619f565b5190614a8060018060a01b0360335416331461610b565b614a8f60ff601654161561608b565b614ac7614ab9614aab60ff87511660ff60208901511690616766565b60ff60408801511690616766565b60ff60608701511690616766565b81614ef55760ff8551166001808214918215614eea575b5081614ec3575b81614e9c575b81614e76575b5015614e1a5760ff600891161015614ddb57602954602354601d54956017545b614b1b84426163a7565b9060405191614b2983615c78565b8d8352614b398760208501616406565b83604084015288606084015260808301528360a083015260c08201528b60e082015287610100820152856101208201528b610140820152600754600160401b811015614dc757806001614b8f9201600755615f77565b919091614db3578051825560208101516006811015614d9f5760ff801960018501541691161760018301558c6040820151815b60048110614d8057505060028301558c6060820151815b60028110614d615750509e9f9d9e600a916101409160038501556080810151600485015560a0810151600585015560c08101516006850155614c2460e08201511515600786016163f5565b6101008101516008850155614c41610120820151600986016161ca565b01519101556007549687600019810111614d4d579287969592614d076000805160206172f68339815191529693614d22968f604090614c8660019f9e60001901615f77565b508d6000190190556000198d018152600f60205220338e8060a01b0319825416179055614cb233615f5d565b614cbc815461663f565b9055614ccc6000198c0133616b07565b614cda876000198d016167ce565b614cf86040519a614cee8c61018099615e2f565b60208c0190616575565b60608a015260808901906165a0565b61010087015261012086015280610140860152840190615bd3565b9133610160820152806000198501930390a260001901614d42828861619f565b520195949395614a2b565b634e487b7160e01b8c52601160045260248cfd5b90916020614d776001928460ff87511691616eec565b93019101614bd9565b90916020614d966001928460ff87511691616eec565b93019101614bc2565b634e487b7160e01b8e52602160045260248efd5b634e487b7160e01b8d5260048d905260248dfd5b634e487b7160e01b8d52604160045260248dfd5b60405162461bcd60e51b8152602060048201526017602482015276191919191034b9902920a922903737ba1021a7a6a6a7a760491b6044820152606490fd5b60405162461bcd60e51b815260206004820152602e60248201527f416c6c207175616472616e7473206d7573742062652031206f72203220666f7260448201526d20434f4d4d4f4e2072617269747960901b6064820152608490fd5b606087015160ff1690811491508115614e91575b5038614af1565b600291501438614e8a565b905060ff604087015116818114908115614eb8575b5090614aeb565b600291501438614eb1565b905060ff602087015116818114908115614edf575b5090614ae5565b600291501438614ed8565b600214915038614ade565b6001820361505e5760ff8551166002808214918215615053575b508161502c575b81615005575b81614fdf575b5015614f855760ff600c91161015614f4657602a54602454601e5495601854614b11565b60405162461bcd60e51b81526020600482015260176024820152763333333320697320554e49515545206e6f74205241524560481b6044820152606490fd5b60405162461bcd60e51b815260206004820152602c60248201527f416c6c207175616472616e7473206d7573742062652032206f72203320666f7260448201526b20524152452072617269747960a01b6064820152608490fd5b606087015160ff1690811491508115614ffa575b5038614f22565b600391501438614ff3565b905060ff604087015116818114908115615021575b5090614f1c565b60039150143861501a565b905060ff602087015116818114908115615048575b5090614f16565b600391501438615041565b600314915038614f0f565b600282036151c95760ff85511660038082149182156151be575b5081615197575b81615170575b8161514a575b50156150ee5760ff6010911610156150af57602b54602554601f5495601954614b11565b60405162461bcd60e51b8152602060048201526017602482015276343434342069732045504943206e6f7420554e4951554560481b6044820152606490fd5b60405162461bcd60e51b815260206004820152602e60248201527f416c6c207175616472616e7473206d7573742062652033206f72203420666f7260448201526d20554e495155452072617269747960901b6064820152608490fd5b606087015160ff1690811491508115615165575b503861508b565b60049150143861515e565b905060ff60408701511681811490811561518c575b5090615085565b600491501438615185565b905060ff6020870151168181149081156151b3575b509061507f565b6004915014386151ac565b600414915038615078565b600382036153315760ff85511660048114908115615326575b5080615300575b806152da575b806152b4575b1561525a5760ff60149116101561521857602c5460265460205495601a54614b11565b60405162461bcd60e51b815260206004820152601a60248201527935353535206973204c4547454e44415259206e6f74204550494360301b6044820152606490fd5b60405162461bcd60e51b815260206004820152602c60248201527f416c6c207175616472616e7473206d7573742062652034206f72203520666f7260448201526b20455049432072617269747960a01b6064820152608490fd5b5060ff606086015116600481149081156152cf575b506151f5565b6005915014386152c9565b5060ff604086015116600481149081156152f5575b506151ef565b6005915014386152ef565b5060ff6020860151166004811490811561531b575b506151e9565b600591501438615315565b6005915014386151e2565b600482036154a05760ff85511660058114908115615495575b508061546f575b80615449575b80615423575b156153c45760ff60189116101561538057602d5460275460215495601b54614b11565b60405162461bcd60e51b815260206004820152601c60248201527b36363636206973204d5954484943206e6f74204c4547454e4441525960201b6044820152606490fd5b60405162461bcd60e51b815260206004820152603160248201527f416c6c207175616472616e7473206d7573742062652035206f72203620666f72604482015270204c4547454e444152592072617269747960781b6064820152608490fd5b5060ff6060860151166005811490811561543e575b5061535d565b600691501438615438565b5060ff60408601511660058114908115615464575b50615357565b60069150143861545e565b5060ff6020860151166005811490811561548a575b50615351565b600691501438615484565b60069150143861534a565b506005810361556457600660ff8551161480615553575b80615542575b80615531575b156154da57602e5460285460225495601c54614b11565b60405162461bcd60e51b815260206004820152602960248201527f416c6c207175616472616e7473206d757374206265203620666f72204d59544860448201526849432072617269747960b81b6064820152608490fd5b50600660ff606086015116146154c3565b50600660ff604086015116146154bd565b50600660ff602086015116146154b7565b60405162461bcd60e51b815260206004820152600c60248201526b77726f6e672052617269747960a01b6044820152606490fd5b634e487b7160e01b85526021600452602485fd5b604051602080825281906106ea9082018a615dc6565b60405162461bcd60e51b815260206004820152602660248201527f496e70757420617272617973206d7573742068617665207468652073616d65206044820152650d8cadccee8d60d31b6064820152608490fd5b508451815114614a16565b905085511438614a0f565b6001600160401b0383351161126157602080602492615652368588356064350101615da8565b81520193019290506149c9565b36601f840112156112615760405161567681615caf565b8036608086011161397b5784905b6080860182106156a157505081526080929092019160200161495a565b602080916156ae84615d48565b815201910190615684565b36601f830112156141ff576040516156d081615ce5565b80604084013681116157125784915b8183106156fa575050508160209160409352019101906148fa565b6020809161570785615d48565b8152019201916156df565b8880fd5b823560068110156141ff5781526020928301920161489a565b50346106015780600319360112610601576020602454604051908152f35b50346106015761575c36615c3f565b9461576c9491949392933361673b565b8015615791575b61577c906160ca565b60235560245560255560265560275560285580f35b5061577c61579d616706565b9050615773565b5034610601576020366003190112610601576004359060068210156106015750806157d757506020601d54604051908152f35b600181036157ea57506020601e5461466c565b600281036157fd57506020601f5461466c565b6003810361580f57506020805461466c565b600481036158225750602060215461466c565b60050361583357602060225461466c565b60405162461bcd60e51b815260206004820152600c60248201526b77726f6e672072617269747960a01b6044820152606490fd5b503461060157604036600319011261060157615881615c13565b60243561588d81616793565b33151580615937575b8061590c575b6158f4576001600160a01b039283169282918491167f8c5be1e5ebec7d5bd14f71427d1e84f3dd0314c0f7b2291e5b200ac8c7c3b9258680a4825260046020526040822080546001600160a01b031916909117905580f35b60405163a9fbf51f60e01b8152336004820152602490fd5b506001600160a01b038116845260056020908152604080862033875290915284205460ff161561589c565b506001600160a01b038116331415615896565b5034610601578060031936011261060157602060ff600c5416604051908152f35b50346106015760203660031901126106015760209060043561598c81616793565b50815260048252604060018060a01b0391205416604051908152f35b50346106015780600319360112610601576040519080828254916159cb83615fac565b9283835260209460019186600182169182600014615a365750506001146159fb575b505061264b92500383615d00565b908592508180528282205b858310615a1e57505061264b935082010138806159ed565b80548389018501528794508693909201918101615a06565b925093505061264b94915060ff191682840152151560051b82010138806159ed565b50346106015780600319360112610601576020602554604051908152f35b5034610601578060031936011261060157615a9660ff601654161561608b565b6034546001600160a01b03168015615af95733825260056020526040822081835260205260408220600160ff19825416179055604051600181527f17307eab39ab6107e8899845ad3d59bd9653f200f220920489ca2b5937696c3160203392a380f35b60249060405190630b61174360e31b82526004820152fd5b5034610601578060031936011261060157602060ff60095416604051908152f35b9050346108ff5760203660031901126108ff5760043563ffffffff60e01b811680910361397f5760209250637965db0b60e01b8114908115615b76575b5015158152f35b632483248360e11b811491508115615b90575b5038615b6f565b6380ac58cd60e01b811491508115615bc2575b8115615bb1575b5038615b89565b6301ffc9a760e01b14905038615baa565b635b5e139f60e01b81149150615ba3565b919082519283825260005b848110615bff575050826000602080949584010152601f8019910116010190565b602081830181015184830182015201615bde565b600435906001600160a01b038216820361116157565b602435906001600160a01b038216820361116157565b60c090600319011261116157600435906024359060443590606435906084359060a43590565b6001600160401b038111611dce57604052565b61016081019081106001600160401b03821117611dce57604052565b60c081019081106001600160401b03821117611dce57604052565b608081019081106001600160401b03821117611dce57604052565b602081019081106001600160401b03821117611dce57604052565b604081019081106001600160401b03821117611dce57604052565b90601f801991011681019081106001600160401b03821117611dce57604052565b6001600160401b038111611dce5760051b60200190565b6004359060ff8216820361116157565b359060ff8216820361116157565b6001600160401b038111611dce57601f01601f191660200190565b929192615d7d82615d56565b91615d8b6040519384615d00565b829481845281830111611161578281602093846000960137010152565b9080601f8301121561116157816020615dc393359101615d71565b90565b90815180825260208080930193019160005b828110615de6575050505090565b835185529381019392810192600101615dd8565b6060906003190112611161576001600160a01b0390600435828116810361116157916024359081168103611161579060443590565b906006821015611da25752565b906101e0825182526020615e568185015182850190615e2f565b6040840151604084016000905b8360048310615f035750505050606084015190600060c085015b60028210615eeb57505050506101c090615ee2608085015191610100928386015260a0860151610120908187015260c087015193610140948588015260e0880151151561016088015287015161018087015286015190806101a0870152850190615bd3565b93015191015290565b828060019260ff875116815201940191019092615e7d565b8060019260ff865116815201930191019091615e63565b60243590811515820361116157565b6001600160a01b0316600090815260126020526040902090565b6001600160a01b0316600090815260136020526040902090565b6001600160a01b0316600090815260106020526040902090565b600754811015615f96576007600052600b602060002091020190600090565b634e487b7160e01b600052603260045260246000fd5b90600182811c92168015615fdc575b6020831014615fc657565b634e487b7160e01b600052602260045260246000fd5b91607f1691615fbb565b90604051918260008254615ff981615fac565b90818452602094600191600181169081600014616069575060011461602a575b50505061602892500383615d00565b565b600090815285812095935091905b8183106160515750506160289350820101388080616019565b85548884018501529485019487945091830191616038565b9250505061602894925060ff191682840152151560051b820101388080616019565b1561609257565b60405162461bcd60e51b815260206004820152601060248201526f14185d5cd8589b194e881c185d5cd95960821b6044820152606490fd5b156160d157565b60405162461bcd60e51b81526020600482015260126024820152713737ba1027bbb732b91037b91020b236b4b760711b6044820152606490fd5b1561611257565b60405162461bcd60e51b815260206004820152602d60248201527f66756e6374696f6e2063616c6c61626c652066726f6d2074726561737572792060448201526c636f6e7472616374206f6e6c7960981b6064820152608490fd5b9061617782615d21565b6161846040519182615d00565b8281528092616195601f1991615d21565b0190602036910137565b8051821015615f965760209160051b010190565b8181106161be575050565b600081556001016161b3565b91909182516001600160401b038111611dce576161e78254615fac565b601f8111616292575b50602080601f831160011461622d575081929394600092616222575b50508160011b916000199060031b1c1916179055565b01519050388061620c565b90601f19831695846000526020600020926000905b88821061627a57505083600195969710616261575b505050811b019055565b015160001960f88460031b161c19169055388080616257565b80600185968294968601518155019501930190616242565b6162bf90836000526020600020601f840160051c810191602085106162c5575b601f0160051c01906161b3565b386161f0565b90915081906162b2565b60ff1660ff8114611d4e5760010190565b156162e757565b60405162461bcd60e51b8152602060048201526024808201527f41757468436f6e74726f6c3a2043616c6c6572206973206e6f7420746865206f6044820152633bb732b960e11b6064820152608490fd5b6007546000198101908111611d4e5790565b1561635157565b60405162461bcd60e51b815260206004820152600c60248201526b7a65726f206164647265737360a01b6044820152606490fd5b6001600160a01b03918216815291166020820152604081019190915260600190565b91908201809211611d4e57565b156163bb57565b60405162461bcd60e51b815260206004820152601260248201527147656d73206973206e6f74206d696e696e6760701b6044820152606490fd5b9060ff801983541691151516179055565b6006821015611da25752565b9060ff60405192548181168452818160081c166020850152818160101c16604085015260181c16606083015261602882615caf565b9060405161645481615c78565b610140600a82948054845261647360ff60018301541660208601616406565b61647f60028201616412565b604085015260405160ff6003830154818116835260081c1660208201526164a581615ce5565b606085015260048101546080850152600581015460a0850152600681015460c085015260ff600782015416151560e085015260088101546101008501526164ee60098201615fe6565b6101208501520154910152565b90816020910312611161575180151581036111615790565b6001600160a01b039091168152602081019190915260400190565b1561653557565b60405162461bcd60e51b81526020600482015260186024820152773330b4b632b2103a37903a3930b739b332b9103a37b5b2b760411b6044820152606490fd5b6000915b6002831061658657505050565b60019060ff83511681526020809101920192019190616579565b6000915b600483106165b157505050565b60019060ff835116815260208091019201920191906165a4565b336001600160a01b03821603612a6f576165e490616e11565b50565b156165ee57565b60405162461bcd60e51b815260206004820152602360248201527f41757468436f6e74726f6c3a2043616c6c6572206973206e6f7420612070617560448201526239b2b960e91b6064820152608490fd5b6000198114611d4e5760010190565b60018060a01b038091166000918183526020916010602052604090604085205480156000146166925750505050506040519061668982615cca565b80825236813790565b6166a19096959293949661616d565b936166aa616338565b938360015b868111156166c35750959750505050505050565b808252600f8a5284848484205416146166e5575b6166e09061663f565b6166af565b946166fe81876166f86166e0948c61619f565b5261663f565b9590506166d7565b3360009081527f489cb750909c17c66c5ce6e12fc66200b1268a56adfccc87a74969633bf57069602052604090205460ff1690565b6001600160a01b03166000908152600080516020617256833981519152602052604090205460ff1690565b9060ff8091169116019060ff8211611d4e57565b9081526001600160a01b03909116602082015260400190565b6000818152600260205260409020546001600160a01b03169081156167b6575090565b60249060405190637e27328960e01b82526004820152fd5b906001600160a01b036167e083616793565b1633148015616876575b1561683257816168296020927ff8e1a15aba9398e019f0b49df1a4fde98ee17ae345cb5f6b5e2c27f5033e8ce7946000526006845260406000206161ca565b604051908152a1565b60405162461bcd60e51b815260206004820152601c60248201527b6e6f7420616c6c6f77656420746f2073657420746f6b656e2055524960201b6044820152606490fd5b50336000908152600080516020617256833981519152602052604090205460ff1615156001146167ea565b8015611d4e576000190190565b80600052603a60205260406000203360005260205260ff60406000205416156168d45750565b6044906040519063e2517d3f60e01b82523360048301526024820152fd5b6001600160a01b0316600081815260008051602061725683398151915260205260408120549091906000805160206172968339815191529060ff1661696a57808352603a6020526040832082845260205260408320600160ff19825416179055600080516020617236833981519152339380a4600190565b505090565b6001600160a01b031660008181527fc3e7f7030e2b5e93229767c75293162bace57ab459b2158e709794c3a02a893260205260408120549091906000805160206172768339815191529060ff1661696a57808352603a6020526040832082845260205260408320600160ff19825416179055600080516020617236833981519152339380a4600190565b90600091808352603a602052604083209160018060a01b03169182845260205260ff6040842054161560001461696a57808352603a6020526040832082845260205260408320600160ff19825416179055600080516020617236833981519152339380a4600190565b90611db857600a6000918281558260018201558260038201616a8781600285016161b3565b616a956004840180926161b3565b558260058201558260068201558260078201558260088201558260098201616abd8154615fac565b80616aca575b5050500155565b82601f8211600114616ae2575050555b823880616ac3565b9091808252616b00601f60208420940160051c8401600185016161b3565b5555616ada565b6040805192616b1584615cca565b60008085526001600160a01b0394848616949192918515616cf45782845260209660028852858520541683878215159283616cd4575b81885260038b528888208054600101905582885260028b5288882080546001600160a01b031916831790556000805160206172b68339815191528880a4616cbc573b616b9a575b505050505050565b85616bd8918596979894955180938192630a85bd0160e11b968784523360048501528960248501526044840152608060648401526084830190615bd3565b0381878a5af1849181616c7c575b50616c45575050503d600014616c3d573d616c0081615d56565b90616c0d84519283615d00565b81528091853d92013e5b80519384616c37578251633250574960e11b815260048101859052602490fd5b84925001fd5b506060616c17565b919550915063ffffffff60e01b1603616c65575050388080808080616b92565b602492505190633250574960e11b82526004820152fd5b9091508781813d8311616cb5575b616c948183615d00565b8101031261126157516001600160e01b031981168103611261579038616be6565b503d616c8a565b84516339e3563760e11b815260048101859052602490fd5b616cdd8361717c565b80885260038b528888208054600019019055616b4b565b8451633250574960e11b815260048101859052602490fd5b6001600160a01b031660008181527fc3e7f7030e2b5e93229767c75293162bace57ab459b2158e709794c3a02a893260205260408120549091906000805160206172768339815191529060ff161561696a57808352603a602052604083208284526020526040832060ff1981541690556000805160206172d6833981519152339380a4600190565b6001600160a01b031660008181527f489cb750909c17c66c5ce6e12fc66200b1268a56adfccc87a74969633bf57069602052604081205490919060ff1615616e0d57818052603a602052604082208183526020526040822060ff19815416905533916000805160206172d68339815191528180a4600190565b5090565b6001600160a01b0316600081815260008051602061725683398151915260205260408120549091906000805160206172968339815191529060ff161561696a57808352603a602052604083208284526020526040832060ff1981541690556000805160206172d6833981519152339380a4600190565b90600091808352603a602052604083209160018060a01b03169182845260205260ff60408420541660001461696a57808352603a602052604083208284526020526040832060ff1981541690556000805160206172d6833981519152339380a4600190565b9060ff809160031b9316831b921b19161790565b6001600160a01b03908282168015159081616f60575b5015616f225750505050565b16616f4057604051637e27328960e01b815260048101839052602490fd5b616f5c60405192839263177e802f60e01b845260048401616513565b0390fd5b82841680821492508215616f98575b508115616f7e575b5038616f16565b905084600052600460205282604060002054161438616f77565b909150600052600560205260406000208160005260205260ff604060002054169038616f6f565b813b616fcc575b50505050565b604051630a85bd0160e11b8082523360048301526001600160a01b0392831660248301526044820194909452608060648201526020959290911693909290839061701a906084830190615bd3565b039285816000958187895af18491816170c3575b5061708e575050503d600014617086573d61704881615d56565b906170566040519283615d00565b81528091843d92013e5b8051928361708157604051633250574960e11b815260048101849052602490fd5b019050fd5b506060617060565b919450915063ffffffff60e01b16036170ab575038808080616fc6565b60249060405190633250574960e11b82526004820152fd5b9091508681813d83116170fc575b6170db8183615d00565b8101031261126157516001600160e01b03198116810361126157903861702e565b503d6170d1565b6000818152600260205260408120546001600160a01b03168015918391831561715a575b82825260026020526040822080546001600160a01b03191690556000805160206172b68339815191528280a46167b65750565b6171638361717c565b8082526003602052604082208054600019019055617127565b600090815260046020526040902080546001600160a01b0319169055565b6006811015611da257801561722d5760018114617225576002811461721d5760038114617215576004811461720d576005146172065760405162461bcd60e51b815260206004820152600e60248201526d496e76616c69642072617269747960901b6044820152606490fd5b6207e90090565b506206978090565b506205460090565b506203f48090565b506202a30090565b50620151809056fe2f8788117e7eff1d82e926ec794901d17c78024a50270940304540a733656f0daaf8c8a7989d91242822056a65a27834ab391db017cf998782abb499a10e90bdfcb9fcbfa83b897fb2d5cf4b58962164105c1e71489a37ef3ae0db3fdce576f6df8b4c520ffe197c5343c6f5aec59570151ef9a492f2c624fd45ddde6135ec42ddf252ad1be2c89b69c2b068fc378daa952ba7f163c4a11628f55a4df523b3eff6391f5c32d9c69d2a47ea670b442974b53935d1edc7fd64eb21e047a839171b5ea0402f9a8785c25ad31fd3e0e81f8c2b4ca231668cc82cd03fa34ea1f0ce3ca26469706673582212201cc860c5be0f7324b402d0cca6b3c5dc76ec51f5b7f2aaea33b227ee4870167864736f6c63430008190033","opcodes":"PUSH1 0xA0 CALLVALUE PUSH2 0x348 JUMPI PUSH1 0x1F PUSH1 0x1F NOT PUSH1 0x1 PUSH1 0x1 PUSH1 0x40 SHL SUB PUSH2 0x7749 CODESIZE DUP2 SWAP1 SUB DUP5 DUP2 ADD DUP5 AND DUP7 ADD DUP4 DUP2 GT DUP8 DUP3 LT OR PUSH2 0x332 JUMPI DUP7 SWAP3 DUP3 SWAP2 PUSH1 0x40 MSTORE DUP4 CODECOPY PUSH1 0x20 SWAP6 DUP7 SWAP2 DUP2 ADD SUB SLT PUSH2 0x348 JUMPI MLOAD PUSH1 0x1 PUSH1 0x1 PUSH1 0xA0 SHL SUB DUP2 AND SWAP4 SWAP1 DUP5 SWAP1 SUB PUSH2 0x348 JUMPI PUSH2 0x5E PUSH2 0x34D JUMP JUMPDEST SWAP3 PUSH1 0x7 DUP5 MSTORE PUSH7 0x23B2B6A9AA27A7 PUSH1 0xC9 SHL DUP7 DUP6 ADD MSTORE PUSH2 0x7A PUSH2 0x34D JUMP JUMPDEST SWAP1 PUSH1 0x3 DUP3 MSTORE PUSH3 0x47454D PUSH1 0xE8 SHL DUP8 DUP4 ADD MSTORE DUP5 MLOAD SWAP1 DUP5 DUP3 GT PUSH2 0x332 JUMPI PUSH1 0x0 SWAP2 DUP3 SLOAD SWAP7 PUSH1 0x1 SWAP8 DUP9 DUP2 DUP2 SHR SWAP2 AND DUP1 ISZERO PUSH2 0x328 JUMPI JUMPDEST DUP12 DUP3 LT EQ PUSH2 0x314 JUMPI SWAP1 DUP2 DUP8 DUP5 SWAP4 GT PUSH2 0x2C6 JUMPI JUMPDEST POP DUP11 SWAP1 DUP8 DUP4 GT PUSH1 0x1 EQ PUSH2 0x268 JUMPI DUP6 SWAP3 PUSH2 0x25D JUMPI JUMPDEST POP POP PUSH1 0x0 NOT PUSH1 0x3 DUP4 SWAP1 SHL SHR NOT AND SWAP1 DUP8 SHL OR DUP3 SSTORE JUMPDEST DUP3 MLOAD SWAP5 DUP6 GT PUSH2 0x249 JUMPI DUP6 SLOAD DUP7 DUP2 DUP2 SHR SWAP2 AND DUP1 ISZERO PUSH2 0x23F JUMPI JUMPDEST DUP10 DUP3 LT EQ PUSH2 0x22B JUMPI DUP5 DUP2 GT PUSH2 0x1E8 JUMPI JUMPDEST POP DUP8 SWAP4 DUP6 GT PUSH1 0x1 EQ PUSH2 0x188 JUMPI POP DUP4 SWAP5 SWAP6 SWAP7 POP SWAP3 PUSH2 0x17D JUMPI JUMPDEST POP POP PUSH1 0x0 NOT PUSH1 0x3 DUP4 SWAP1 SHL SHR NOT AND SWAP1 DUP3 SHL OR DUP2 SSTORE JUMPDEST DUP2 PUSH1 0x80 MSTORE PUSH1 0x3B SSTORE PUSH2 0x149 CALLER PUSH2 0x36C JUMP JUMPDEST POP PUSH1 0x35 DUP1 SLOAD PUSH1 0x1 PUSH1 0x1 PUSH1 0xA0 SHL SUB NOT AND SWAP2 SWAP1 SWAP2 OR SWAP1 SSTORE PUSH1 0x40 MLOAD PUSH2 0x734B SWAP1 DUP2 PUSH2 0x3FE DUP3 CODECOPY PUSH1 0x80 MLOAD DUP2 DUP2 DUP2 PUSH2 0x2F4B ADD MSTORE PUSH2 0x3D77 ADD MSTORE RETURN JUMPDEST ADD MLOAD SWAP1 POP CODESIZE DUP1 PUSH2 0x125 JUMP JUMPDEST DUP5 SWAP4 SWAP3 SWAP2 SWAP4 AND SWAP7 DUP6 DUP5 MSTORE DUP1 DUP5 KECCAK256 SWAP4 SWAP1 JUMPDEST DUP9 DUP3 LT PUSH2 0x1D1 JUMPI POP POP DUP4 DUP6 SWAP7 SWAP8 LT PUSH2 0x1B8 JUMPI JUMPDEST POP POP POP DUP2 SHL ADD DUP2 SSTORE PUSH2 0x139 JUMP JUMPDEST ADD MLOAD PUSH1 0x0 NOT PUSH1 0xF8 DUP5 PUSH1 0x3 SHL AND SHR NOT AND SWAP1 SSTORE CODESIZE DUP1 DUP1 PUSH2 0x1AB JUMP JUMPDEST DUP1 DUP8 DUP6 SWAP7 DUP3 SWAP5 SWAP7 DUP7 ADD MLOAD DUP2 SSTORE ADD SWAP6 ADD SWAP4 ADD SWAP1 PUSH2 0x198 JUMP JUMPDEST DUP7 DUP4 MSTORE DUP9 DUP4 KECCAK256 DUP6 DUP1 DUP9 ADD PUSH1 0x5 SHR DUP3 ADD SWAP3 DUP12 DUP10 LT PUSH2 0x222 JUMPI JUMPDEST ADD PUSH1 0x5 SHR ADD SWAP1 DUP8 SWAP1 JUMPDEST DUP3 DUP2 LT PUSH2 0x217 JUMPI POP POP PUSH2 0x10D JUMP JUMPDEST DUP5 DUP2 SSTORE ADD DUP8 SWAP1 PUSH2 0x209 JUMP JUMPDEST SWAP3 POP DUP2 SWAP3 PUSH2 0x200 JUMP JUMPDEST PUSH4 0x4E487B71 PUSH1 0xE0 SHL DUP4 MSTORE PUSH1 0x22 PUSH1 0x4 MSTORE PUSH1 0x24 DUP4 REVERT JUMPDEST SWAP1 PUSH1 0x7F AND SWAP1 PUSH2 0xFD JUMP JUMPDEST PUSH4 0x4E487B71 PUSH1 0xE0 SHL DUP3 MSTORE PUSH1 0x41 PUSH1 0x4 MSTORE PUSH1 0x24 DUP3 REVERT JUMPDEST ADD MLOAD SWAP1 POP CODESIZE DUP1 PUSH2 0xD1 JUMP JUMPDEST SWAP1 DUP5 DUP11 SWAP5 AND SWAP2 DUP7 DUP1 MSTORE DUP13 DUP8 KECCAK256 SWAP3 DUP14 DUP9 SWAP1 JUMPDEST DUP3 DUP3 LT PUSH2 0x2AF JUMPI POP POP DUP5 GT PUSH2 0x296 JUMPI JUMPDEST POP POP POP DUP2 SHL ADD DUP3 SSTORE PUSH2 0xE5 JUMP JUMPDEST ADD MLOAD PUSH1 0x0 NOT PUSH1 0xF8 DUP5 PUSH1 0x3 SHL AND SHR NOT AND SWAP1 SSTORE CODESIZE DUP1 DUP1 PUSH2 0x289 JUMP JUMPDEST DUP4 DUP6 ADD MLOAD DUP7 SSTORE DUP14 SWAP8 SWAP1 SWAP6 ADD SWAP5 SWAP4 DUP5 ADD SWAP4 ADD DUP15 PUSH2 0x279 JUMP JUMPDEST SWAP1 SWAP2 POP DUP5 DUP1 MSTORE DUP11 DUP6 KECCAK256 DUP8 DUP1 DUP6 ADD PUSH1 0x5 SHR DUP3 ADD SWAP3 DUP14 DUP7 LT PUSH2 0x30B JUMPI JUMPDEST SWAP2 DUP12 SWAP2 DUP7 SWAP6 SWAP5 SWAP4 ADD PUSH1 0x5 SHR ADD SWAP2 JUMPDEST DUP3 DUP2 LT PUSH2 0x2FD JUMPI POP POP PUSH2 0xBD JUMP JUMPDEST DUP8 DUP2 SSTORE DUP6 SWAP5 POP DUP12 SWAP2 ADD PUSH2 0x2EF JUMP JUMPDEST SWAP3 POP DUP2 SWAP3 PUSH2 0x2E1 JUMP JUMPDEST PUSH4 0x4E487B71 PUSH1 0xE0 SHL DUP6 MSTORE PUSH1 0x22 PUSH1 0x4 MSTORE PUSH1 0x24 DUP6 REVERT JUMPDEST SWAP1 PUSH1 0x7F AND SWAP1 PUSH2 0xAA JUMP JUMPDEST PUSH4 0x4E487B71 PUSH1 0xE0 SHL PUSH1 0x0 MSTORE PUSH1 0x41 PUSH1 0x4 MSTORE PUSH1 0x24 PUSH1 0x0 REVERT JUMPDEST PUSH1 0x0 DUP1 REVERT JUMPDEST PUSH1 0x40 DUP1 MLOAD SWAP2 SWAP1 DUP3 ADD PUSH1 0x1 PUSH1 0x1 PUSH1 0x40 SHL SUB DUP2 GT DUP4 DUP3 LT OR PUSH2 0x332 JUMPI PUSH1 0x40 MSTORE JUMP JUMPDEST PUSH1 0x1 PUSH1 0x1 PUSH1 0xA0 SHL SUB AND PUSH1 0x0 DUP2 DUP2 MSTORE PUSH32 0x489CB750909C17C66C5CE6E12FC66200B1268A56ADFCCC87A74969633BF57069 PUSH1 0x20 MSTORE PUSH1 0x40 DUP2 KECCAK256 SLOAD SWAP1 SWAP2 SWAP1 PUSH1 0xFF AND PUSH2 0x3F9 JUMPI DUP2 DUP1 MSTORE PUSH1 0x3A PUSH1 0x20 MSTORE PUSH1 0x40 DUP3 KECCAK256 DUP2 DUP4 MSTORE PUSH1 0x20 MSTORE PUSH1 0x40 DUP3 KECCAK256 PUSH1 0x1 PUSH1 0xFF NOT DUP3 SLOAD AND OR SWAP1 SSTORE CALLER SWAP2 PUSH32 0x2F8788117E7EFF1D82E926EC794901D17C78024A50270940304540A733656F0D DUP2 DUP1 LOG4 PUSH1 0x1 SWAP1 JUMP JUMPDEST POP SWAP1 JUMP INVALID PUSH2 0x180 DUP1 PUSH1 0x40 MSTORE PUSH1 0x4 CALLDATASIZE LT ISZERO PUSH2 0x14 JUMPI PUSH1 0x0 DUP1 REVERT JUMPDEST PUSH1 0x0 SWAP1 DUP2 CALLDATALOAD PUSH1 0xE0 SHR SWAP1 DUP2 PUSH4 0x1FFC9A7 EQ PUSH2 0x5B32 JUMPI POP DUP1 PUSH4 0x34294F8 EQ PUSH2 0x5B11 JUMPI DUP1 PUSH4 0x38A7E05 EQ PUSH2 0xC5C JUMPI DUP1 PUSH4 0x491FD3E EQ PUSH2 0x5A76 JUMPI DUP1 PUSH4 0x4E41A0B EQ PUSH2 0x5A58 JUMPI DUP1 PUSH4 0x6FDDE03 EQ PUSH2 0x59A8 JUMPI DUP1 PUSH4 0x81812FC EQ PUSH2 0x596B JUMPI DUP1 PUSH4 0x922F513 EQ PUSH2 0x594A JUMPI DUP1 PUSH4 0x95EA7B3 EQ PUSH2 0x5867 JUMPI DUP1 PUSH4 0xB513D99 EQ PUSH2 0x57A4 JUMPI DUP1 PUSH4 0xC7254A0 EQ PUSH2 0x574D JUMPI DUP1 PUSH4 0xDE32A97 EQ PUSH2 0x572F JUMPI DUP1 PUSH4 0xFF1AC67 EQ PUSH2 0x4833 JUMPI DUP1 PUSH4 0x1008EF78 EQ PUSH2 0x4815 JUMPI DUP1 PUSH4 0x139B63F3 EQ PUSH2 0x47F7 JUMPI DUP1 PUSH4 0x15341F2B EQ PUSH2 0x46DD JUMPI DUP1 PUSH4 0x162094C4 EQ PUSH2 0x46A1 JUMPI DUP1 PUSH4 0x166B35C9 EQ PUSH2 0x4203 JUMPI DUP1 PUSH4 0x1785F53C EQ PUSH2 0x4674 JUMPI DUP1 PUSH4 0x18160DDD EQ PUSH2 0x4651 JUMPI DUP1 PUSH4 0x1885CBBE EQ PUSH2 0x4633 JUMPI DUP1 PUSH4 0x18898F36 EQ PUSH2 0xC97 JUMPI DUP1 PUSH4 0x1D0E0AAC EQ PUSH2 0x44FF JUMPI DUP1 PUSH4 0x1DA0FC9C EQ PUSH2 0x4221 JUMPI DUP1 PUSH4 0x201832C0 EQ PUSH2 0x4203 JUMPI DUP1 PUSH4 0x23B872DD EQ PUSH2 0x4025 JUMPI DUP1 PUSH4 0x248A9CA3 EQ PUSH2 0x3FF8 JUMPI DUP1 PUSH4 0x24D7806C EQ PUSH2 0x3FA3 JUMPI DUP1 PUSH4 0x274F2455 EQ PUSH2 0x3C44 JUMPI DUP1 PUSH4 0x276A28A3 EQ PUSH2 0x3C13 JUMPI DUP1 PUSH4 0x2B8CD094 EQ PUSH2 0x3B2C JUMPI DUP1 PUSH4 0x2BBBE94D EQ PUSH2 0xDF6 JUMPI DUP1 PUSH4 0x2F2FF15D EQ PUSH2 0x3AEE JUMPI DUP1 PUSH4 0x33158058 EQ PUSH2 0x3A17 JUMPI DUP1 PUSH4 0x33D608F1 EQ PUSH2 0x39F9 JUMPI DUP1 PUSH4 0x33FCB648 EQ PUSH2 0x3411 JUMPI DUP1 PUSH4 0x36568ABE EQ PUSH2 0x33DB JUMPI DUP1 PUSH4 0x36B17E13 EQ PUSH2 0xC11 JUMPI DUP1 PUSH4 0x37ED11DB EQ PUSH2 0x2F37 JUMPI DUP1 PUSH4 0x389ED267 EQ PUSH2 0x2F0E JUMPI DUP1 PUSH4 0x3B19E84A EQ PUSH2 0x2C22 JUMPI DUP1 PUSH4 0x3EC7AF4A EQ PUSH2 0x2B4E JUMPI DUP1 PUSH4 0x3F4BA83A EQ PUSH2 0x2E89 JUMPI DUP1 PUSH4 0x3FB310A5 EQ PUSH2 0xFF6 JUMPI DUP1 PUSH4 0x42842E0E EQ PUSH2 0x2DE9 JUMPI DUP1 PUSH4 0x4CBE4360 EQ PUSH2 0x2D9D JUMPI DUP1 PUSH4 0x4D723A75 EQ PUSH2 0x2D57 JUMPI DUP1 PUSH4 0x4EC741B4 EQ PUSH2 0x2D2E JUMPI DUP1 PUSH4 0x50D2A276 EQ PUSH2 0x2CE9 JUMPI DUP1 PUSH4 0x550D01A3 EQ PUSH2 0x2CAA JUMPI DUP1 PUSH4 0x58BF3E65 EQ PUSH2 0xCB5 JUMPI DUP1 PUSH4 0x5BADBE4C EQ PUSH2 0x2C8C JUMPI DUP1 PUSH4 0x5BBFFAB6 EQ PUSH2 0x2C6E JUMPI DUP1 PUSH4 0x5C975ABB EQ PUSH2 0x2C4B JUMPI DUP1 PUSH4 0x5FCF94D1 EQ PUSH2 0x1952 JUMPI DUP1 PUSH4 0x61D027B3 EQ PUSH2 0x2C22 JUMPI DUP1 PUSH4 0x61F7F6D7 EQ PUSH2 0x2B6C JUMPI DUP1 PUSH4 0x62751738 EQ PUSH2 0x2B4E JUMPI DUP1 PUSH4 0x6352211E EQ PUSH2 0x2B1D JUMPI DUP1 PUSH4 0x63A8FD89 EQ PUSH2 0x2AF7 JUMPI DUP1 PUSH4 0x676F79F1 EQ PUSH2 0x2AB4 JUMPI DUP1 PUSH4 0x6B1A96FA EQ PUSH2 0x2A81 JUMPI DUP1 PUSH4 0x6B2C0F55 EQ PUSH2 0x2A31 JUMPI DUP1 PUSH4 0x6C106FEA EQ PUSH2 0xD15 JUMPI DUP1 PUSH4 0x70480275 EQ PUSH2 0x29E3 JUMPI DUP1 PUSH4 0x70A08231 EQ PUSH2 0xD33 JUMPI DUP1 PUSH4 0x715018A6 EQ PUSH2 0x29BE JUMPI DUP1 PUSH4 0x71B57C47 EQ PUSH2 0x2995 JUMPI DUP1 PUSH4 0x724188BC EQ PUSH2 0x2974 JUMPI DUP1 PUSH4 0x75829DEF EQ PUSH2 0x295A JUMPI DUP1 PUSH4 0x75B238FC EQ PUSH2 0x2931 JUMPI DUP1 PUSH4 0x77F7E499 EQ PUSH2 0x2913 JUMPI DUP1 PUSH4 0x7866369B EQ PUSH2 0x28E4 JUMPI DUP1 PUSH4 0x82DC1EC4 EQ PUSH2 0x284F JUMPI DUP1 PUSH4 0x8456CB59 EQ PUSH2 0x27C5 JUMPI DUP1 PUSH4 0x8462151C EQ PUSH2 0x27A0 JUMPI DUP1 PUSH4 0x8796BA8C EQ PUSH2 0x274E JUMPI DUP1 PUSH4 0x8964F0C1 EQ PUSH2 0x921 JUMPI DUP1 PUSH4 0x8D41FE30 EQ PUSH2 0x903 JUMPI DUP1 PUSH4 0x8F32D59B EQ PUSH2 0x2729 JUMPI DUP1 PUSH4 0x8FDDB065 EQ PUSH2 0x270B JUMPI DUP1 PUSH4 0x91D14854 EQ PUSH2 0x26BF JUMPI DUP1 PUSH4 0x95D89B41 EQ PUSH2 0x25F9 JUMPI DUP1 PUSH4 0x97125C40 EQ PUSH2 0x25C6 JUMPI DUP1 PUSH4 0x975781B7 EQ PUSH2 0x19E7 JUMPI DUP1 PUSH4 0x98A2C65D EQ PUSH2 0xEF0 JUMPI DUP1 PUSH4 0x9A66AF62 EQ PUSH2 0x1970 JUMPI DUP1 PUSH4 0xA0B2D41B EQ PUSH2 0x1952 JUMPI DUP1 PUSH4 0xA168FA89 EQ PUSH2 0x18E0 JUMPI DUP1 PUSH4 0xA1770A7D EQ PUSH2 0x1897 JUMPI DUP1 PUSH4 0xA1C52726 EQ PUSH2 0x181F JUMPI DUP1 PUSH4 0xA217FDDF EQ PUSH2 0x1803 JUMPI DUP1 PUSH4 0xA22CB465 EQ PUSH2 0x1762 JUMPI DUP1 PUSH4 0xA8CE886E EQ PUSH2 0x170F JUMPI DUP1 PUSH4 0xAA723BB7 EQ PUSH2 0x161F JUMPI DUP1 PUSH4 0xAAE31DF3 EQ PUSH2 0x1546 JUMPI DUP1 PUSH4 0xABC8C7AF EQ PUSH2 0x151D JUMPI DUP1 PUSH4 0xAD0D3D3F EQ PUSH2 0x14A5 JUMPI DUP1 PUSH4 0xAD6CAA47 EQ PUSH2 0x130C JUMPI DUP1 PUSH4 0xAFF2A463 EQ PUSH2 0x128E JUMPI DUP1 PUSH4 0xB78417B0 EQ PUSH2 0x1270 JUMPI DUP1 PUSH4 0xB88D4FDE EQ PUSH2 0x1199 JUMPI DUP1 PUSH4 0xB911135F EQ PUSH2 0x1166 JUMPI DUP1 PUSH4 0xBB4A2509 EQ PUSH2 0x1014 JUMPI DUP1 PUSH4 0xBC36B2EE EQ PUSH2 0xFF6 JUMPI DUP1 PUSH4 0xBD11F69D EQ PUSH2 0xFA3 JUMPI DUP1 PUSH4 0xC1389072 EQ PUSH2 0xF6A JUMPI DUP1 PUSH4 0xC28FB6B7 EQ PUSH2 0xF2C JUMPI DUP1 PUSH4 0xC4D2FCAE EQ PUSH2 0xF0E JUMPI DUP1 PUSH4 0xC61A46C5 EQ PUSH2 0xEF0 JUMPI DUP1 PUSH4 0xC87B56DD EQ PUSH2 0xE1F JUMPI DUP1 PUSH4 0xCC48B947 EQ PUSH2 0xDF6 JUMPI DUP1 PUSH4 0xCC98EF96 EQ PUSH2 0xD6C JUMPI DUP1 PUSH4 0xCEC21ACB EQ PUSH2 0xD33 JUMPI DUP1 PUSH4 0xD1BD7E06 EQ PUSH2 0xD15 JUMPI DUP1 PUSH4 0xD547741F EQ PUSH2 0xCD3 JUMPI DUP1 PUSH4 0xD55486D3 EQ PUSH2 0xCB5 JUMPI DUP1 PUSH4 0xD62C990F EQ PUSH2 0xC97 JUMPI DUP1 PUSH4 0xD7A46495 EQ PUSH2 0xC79 JUMPI DUP1 PUSH4 0xDC0515D6 EQ PUSH2 0xC5C JUMPI DUP1 PUSH4 0xE4B7FDDF EQ PUSH2 0xC3E JUMPI DUP1 PUSH4 0xE7A523C0 EQ PUSH2 0xC11 JUMPI DUP1 PUSH4 0xE985E9C5 EQ PUSH2 0xBBD JUMPI DUP1 PUSH4 0xECC5E06F EQ PUSH2 0xB76 JUMPI DUP1 PUSH4 0xED8C2472 EQ PUSH2 0xAEC JUMPI DUP1 PUSH4 0xEFA2CC29 EQ PUSH2 0xACE JUMPI DUP1 PUSH4 0xF0F44260 EQ PUSH2 0xA44 JUMPI DUP1 PUSH4 0xF2FDE38B EQ PUSH2 0x93F JUMPI DUP1 PUSH4 0xF66F9E34 EQ PUSH2 0x921 JUMPI DUP1 PUSH4 0xF7C0794D EQ PUSH2 0x903 JUMPI DUP1 PUSH4 0xF99A6BB5 EQ PUSH2 0x76F JUMPI DUP1 PUSH4 0xFEA90D02 EQ PUSH2 0x67C JUMPI DUP1 PUSH4 0xFF198A1D EQ PUSH2 0x604 JUMPI PUSH4 0xFFBCCDE4 EQ PUSH2 0x5E4 JUMPI PUSH1 0x0 DUP1 REVERT JUMPDEST CALLVALUE PUSH2 0x601 JUMPI DUP1 PUSH1 0x3 NOT CALLDATASIZE ADD SLT PUSH2 0x601 JUMPI PUSH1 0x20 PUSH1 0x17 SLOAD PUSH1 0x40 MLOAD SWAP1 DUP2 MSTORE RETURN JUMPDEST DUP1 REVERT JUMPDEST POP CALLVALUE PUSH2 0x601 JUMPI PUSH2 0x613 CALLDATASIZE PUSH2 0x5C3F JUMP JUMPDEST SWAP5 PUSH1 0x0 DUP1 MLOAD PUSH1 0x20 PUSH2 0x7296 DUP4 CODECOPY DUP2 MLOAD SWAP2 MSTORE DUP8 SWAP6 SWAP3 SWAP6 SWAP5 SWAP4 SWAP5 MSTORE PUSH1 0x3A PUSH1 0x20 MSTORE PUSH1 0x40 DUP8 KECCAK256 CALLER PUSH1 0x0 MSTORE PUSH1 0x20 MSTORE PUSH1 0xFF PUSH1 0x40 PUSH1 0x0 KECCAK256 SLOAD AND DUP1 ISZERO PUSH2 0x669 JUMPI JUMPDEST PUSH2 0x654 SWAP1 PUSH2 0x60CA JUMP JUMPDEST PUSH1 0x1D SSTORE PUSH1 0x1E SSTORE PUSH1 0x1F SSTORE PUSH1 0x20 SSTORE PUSH1 0x21 SSTORE PUSH1 0x22 SSTORE DUP1 RETURN JUMPDEST POP PUSH2 0x654 PUSH2 0x675 PUSH2 0x6706 JUMP JUMPDEST SWAP1 POP PUSH2 0x64B JUMP JUMPDEST POP CALLVALUE PUSH2 0x601 JUMPI DUP1 PUSH1 0x3 NOT CALLDATASIZE ADD SLT PUSH2 0x601 JUMPI DUP1 PUSH1 0x7 DUP1 SLOAD PUSH2 0x69B DUP2 PUSH2 0x616D JUMP JUMPDEST PUSH1 0x33 SLOAD SWAP1 SWAP3 DUP6 SWAP2 PUSH1 0x1 PUSH1 0x1 PUSH1 0xA0 SHL SUB SWAP1 DUP2 AND SWAP1 DUP4 JUMPDEST DUP6 DUP2 LT PUSH2 0x70D JUMPI DUP9 DUP9 DUP9 PUSH2 0x6C3 DUP3 PUSH2 0x616D JUMP JUMPDEST SWAP3 JUMPDEST DUP3 DUP2 LT PUSH2 0x6EE JUMPI POP POP PUSH2 0x6EA PUSH1 0x40 MLOAD SWAP3 DUP4 SWAP3 DUP4 MSTORE PUSH1 0x40 PUSH1 0x20 DUP5 ADD MSTORE PUSH1 0x40 DUP4 ADD SWAP1 PUSH2 0x5DC6 JUMP JUMPDEST SUB SWAP1 RETURN JUMPDEST DUP1 PUSH2 0x6FB PUSH1 0x1 SWAP3 DUP5 PUSH2 0x619F JUMP JUMPDEST MLOAD PUSH2 0x706 DUP3 DUP8 PUSH2 0x619F JUMP JUMPDEST MSTORE ADD PUSH2 0x6C5 JUMP JUMPDEST DUP1 DUP10 MSTORE PUSH1 0xF PUSH1 0x20 MSTORE DUP3 DUP3 PUSH1 0x40 DUP12 KECCAK256 SLOAD AND EQ DUP1 PUSH2 0x758 JUMPI JUMPDEST PUSH2 0x731 JUMPI JUMPDEST PUSH1 0x1 ADD PUSH2 0x6B0 JUMP JUMPDEST SWAP7 SWAP4 PUSH1 0x1 SWAP1 PUSH2 0x73F DUP10 PUSH2 0x5F77 JUMP JUMPDEST POP SLOAD PUSH2 0x74B DUP3 DUP11 PUSH2 0x619F JUMP JUMPDEST MSTORE SWAP5 DUP2 ADD SWAP8 SWAP5 ADD SWAP4 PUSH2 0x729 JUMP JUMPDEST POP PUSH1 0xFF DUP5 PUSH2 0x765 DUP4 PUSH2 0x5F77 JUMP JUMPDEST POP ADD SLOAD AND ISZERO PUSH2 0x724 JUMP JUMPDEST POP CALLVALUE PUSH2 0x601 JUMPI PUSH1 0x20 DUP1 PUSH1 0x3 NOT CALLDATASIZE ADD SLT PUSH2 0x8FF JUMPI PUSH1 0x4 CALLDATALOAD SWAP1 PUSH2 0x795 PUSH1 0xFF PUSH1 0x16 SLOAD AND ISZERO PUSH2 0x608B JUMP JUMPDEST PUSH2 0x7A0 CALLER ISZERO ISZERO PUSH2 0x634A JUMP JUMPDEST DUP2 DUP4 MSTORE PUSH1 0xF DUP2 MSTORE PUSH1 0x40 DUP4 KECCAK256 SLOAD DUP4 SWAP1 PUSH1 0x1 PUSH1 0x1 PUSH1 0xA0 SHL SUB SWAP1 CALLER SWAP1 DUP3 AND SUB PUSH2 0x8FF JUMPI PUSH2 0x83F DUP4 SWAP2 PUSH1 0x8 PUSH2 0x7D0 DUP8 PUSH2 0x5F77 JUMP JUMPDEST POP ADD SLOAD SWAP1 PUSH2 0x7E6 PUSH2 0x7E0 DUP9 PUSH2 0x5F77 JUMP JUMPDEST SWAP1 PUSH2 0x6A62 JUMP JUMPDEST PUSH2 0x7EF CALLER PUSH2 0x5F5D JUMP JUMPDEST PUSH2 0x7F9 DUP2 SLOAD PUSH2 0x68A1 JUMP JUMPDEST SWAP1 SSTORE DUP7 DUP6 MSTORE PUSH1 0xF DUP5 MSTORE PUSH1 0x40 DUP6 KECCAK256 DUP1 SLOAD PUSH1 0x1 PUSH1 0x1 PUSH1 0xA0 SHL SUB NOT AND SWAP1 SSTORE PUSH2 0x81D DUP8 PUSH2 0x7103 JUMP JUMPDEST PUSH1 0x33 SLOAD AND SWAP1 PUSH1 0x40 MLOAD SWAP5 DUP6 DUP1 SWAP5 DUP2 SWAP4 PUSH4 0x169DC31 PUSH1 0xE0 SHL DUP4 MSTORE CALLER PUSH1 0x4 DUP5 ADD PUSH2 0x6513 JUMP JUMPDEST SUB SWAP3 GAS CALL SWAP1 DUP2 ISZERO PUSH2 0x8F4 JUMPI DUP5 SWAP2 PUSH2 0x8C7 JUMPI JUMPDEST POP ISZERO PUSH2 0x891 JUMPI POP PUSH2 0x88B PUSH32 0x65AFF8E0552D208DFAF55B1280E55553B7DBA628290897FF43C8F086D5DBFD2A SWAP2 PUSH1 0x40 MLOAD SWAP2 DUP3 SWAP2 CALLER SWAP1 DUP4 PUSH2 0x677A JUMP JUMPDEST SUB SWAP1 LOG1 DUP1 RETURN JUMPDEST PUSH1 0x64 SWAP1 PUSH1 0x40 MLOAD SWAP1 PUSH3 0x461BCD PUSH1 0xE5 SHL DUP3 MSTORE PUSH1 0x4 DUP3 ADD MSTORE PUSH1 0xF PUSH1 0x24 DUP3 ADD MSTORE PUSH15 0x1D1C985B9CD9995C8819985A5B1959 PUSH1 0x8A SHL PUSH1 0x44 DUP3 ADD MSTORE REVERT JUMPDEST PUSH2 0x8E7 SWAP2 POP DUP3 RETURNDATASIZE DUP5 GT PUSH2 0x8ED JUMPI JUMPDEST PUSH2 0x8DF DUP2 DUP4 PUSH2 0x5D00 JUMP JUMPDEST DUP2 ADD SWAP1 PUSH2 0x64FB JUMP JUMPDEST CODESIZE PUSH2 0x851 JUMP JUMPDEST POP RETURNDATASIZE PUSH2 0x8D5 JUMP JUMPDEST PUSH1 0x40 MLOAD RETURNDATASIZE DUP7 DUP3 RETURNDATACOPY RETURNDATASIZE SWAP1 REVERT JUMPDEST POP DUP1 REVERT JUMPDEST POP CALLVALUE PUSH2 0x601 JUMPI DUP1 PUSH1 0x3 NOT CALLDATASIZE ADD SLT PUSH2 0x601 JUMPI PUSH1 0x20 PUSH1 0x1A SLOAD PUSH1 0x40 MLOAD SWAP1 DUP2 MSTORE RETURN JUMPDEST POP CALLVALUE PUSH2 0x601 JUMPI DUP1 PUSH1 0x3 NOT CALLDATASIZE ADD SLT PUSH2 0x601 JUMPI PUSH1 0x20 PUSH1 0x1E SLOAD PUSH1 0x40 MLOAD SWAP1 DUP2 MSTORE RETURN JUMPDEST POP CALLVALUE PUSH2 0x601 JUMPI PUSH1 0x20 CALLDATASIZE PUSH1 0x3 NOT ADD SLT PUSH2 0x601 JUMPI PUSH2 0x959 PUSH2 0x5C13 JUMP JUMPDEST PUSH2 0x969 PUSH2 0x964 PUSH2 0x6706 JUMP JUMPDEST PUSH2 0x62E0 JUMP JUMPDEST PUSH2 0x974 PUSH2 0x964 PUSH2 0x6706 JUMP JUMPDEST PUSH1 0x1 PUSH1 0x1 PUSH1 0xA0 SHL SUB DUP2 AND DUP1 ISZERO PUSH2 0xA04 JUMPI CALLER EQ PUSH2 0x9C6 JUMPI PUSH2 0x9B9 SWAP1 PUSH1 0x0 DUP1 MLOAD PUSH1 0x20 PUSH2 0x7296 DUP4 CODECOPY DUP2 MLOAD SWAP2 MSTORE DUP4 MSTORE PUSH1 0x3A PUSH1 0x20 MSTORE PUSH2 0x9B4 PUSH1 0x1 PUSH1 0x40 DUP6 KECCAK256 ADD SLOAD PUSH2 0x68AE JUMP JUMPDEST PUSH2 0x68F2 JUMP JUMPDEST POP PUSH2 0x9C3 CALLER PUSH2 0x65CB JUMP JUMPDEST DUP1 RETURN JUMPDEST PUSH1 0x40 MLOAD PUSH3 0x461BCD PUSH1 0xE5 SHL DUP2 MSTORE PUSH1 0x20 PUSH1 0x4 DUP3 ADD MSTORE PUSH1 0x16 PUSH1 0x24 DUP3 ADD MSTORE PUSH22 0x20B1B1B2B9B9B4B136329D1039B0B6B29030B236B4B7 PUSH1 0x51 SHL PUSH1 0x44 DUP3 ADD MSTORE PUSH1 0x64 SWAP1 REVERT JUMPDEST PUSH1 0x40 MLOAD PUSH3 0x461BCD PUSH1 0xE5 SHL DUP2 MSTORE PUSH1 0x20 PUSH1 0x4 DUP3 ADD MSTORE PUSH1 0x18 PUSH1 0x24 DUP3 ADD MSTORE PUSH24 0x41636365737369626C653A207A65726F2061646472657373 PUSH1 0x40 SHL PUSH1 0x44 DUP3 ADD MSTORE PUSH1 0x64 SWAP1 REVERT JUMPDEST POP CALLVALUE PUSH2 0x601 JUMPI PUSH1 0x20 CALLDATASIZE PUSH1 0x3 NOT ADD SLT PUSH2 0x601 JUMPI PUSH2 0xA5E PUSH2 0x5C13 JUMP JUMPDEST PUSH1 0x0 DUP1 MLOAD PUSH1 0x20 PUSH2 0x7296 DUP4 CODECOPY DUP2 MLOAD SWAP2 MSTORE DUP3 MSTORE PUSH1 0x3A PUSH1 0x20 MSTORE PUSH1 0x40 DUP3 KECCAK256 CALLER PUSH1 0x0 MSTORE PUSH1 0x20 MSTORE PUSH1 0xFF PUSH1 0x40 PUSH1 0x0 KECCAK256 SLOAD AND DUP1 ISZERO PUSH2 0xABB JUMPI JUMPDEST PUSH2 0xA98 SWAP1 PUSH2 0x60CA JUMP JUMPDEST PUSH1 0x33 DUP1 SLOAD PUSH1 0x1 PUSH1 0x1 PUSH1 0xA0 SHL SUB NOT AND PUSH1 0x1 PUSH1 0x1 PUSH1 0xA0 SHL SUB SWAP3 SWAP1 SWAP3 AND SWAP2 SWAP1 SWAP2 OR SWAP1 SSTORE DUP1 RETURN JUMPDEST POP PUSH2 0xA98 PUSH2 0xAC7 PUSH2 0x6706 JUMP JUMPDEST SWAP1 POP PUSH2 0xA8F JUMP JUMPDEST POP CALLVALUE PUSH2 0x601 JUMPI DUP1 PUSH1 0x3 NOT CALLDATASIZE ADD SLT PUSH2 0x601 JUMPI PUSH1 0x20 PUSH1 0x2C SLOAD PUSH1 0x40 MLOAD SWAP1 DUP2 MSTORE RETURN JUMPDEST POP CALLVALUE PUSH2 0x601 JUMPI PUSH1 0x20 CALLDATASIZE PUSH1 0x3 NOT ADD SLT PUSH2 0x601 JUMPI PUSH2 0xB06 PUSH2 0x5C13 JUMP JUMPDEST PUSH1 0x0 DUP1 MLOAD PUSH1 0x20 PUSH2 0x7296 DUP4 CODECOPY DUP2 MLOAD SWAP2 MSTORE DUP3 MSTORE PUSH1 0x3A PUSH1 0x20 MSTORE PUSH1 0x40 DUP3 KECCAK256 CALLER PUSH1 0x0 MSTORE PUSH1 0x20 MSTORE PUSH1 0xFF PUSH1 0x40 PUSH1 0x0 KECCAK256 SLOAD AND DUP1 ISZERO PUSH2 0xB63 JUMPI JUMPDEST PUSH2 0xB40 SWAP1 PUSH2 0x60CA JUMP JUMPDEST PUSH1 0x36 DUP1 SLOAD PUSH1 0x1 PUSH1 0x1 PUSH1 0xA0 SHL SUB NOT AND PUSH1 0x1 PUSH1 0x1 PUSH1 0xA0 SHL SUB SWAP3 SWAP1 SWAP3 AND SWAP2 SWAP1 SWAP2 OR SWAP1 SSTORE DUP1 RETURN JUMPDEST POP PUSH2 0xB40 PUSH2 0xB6F PUSH2 0x6706 JUMP JUMPDEST SWAP1 POP PUSH2 0xB37 JUMP JUMPDEST POP CALLVALUE PUSH2 0x601 JUMPI PUSH1 0x20 CALLDATASIZE PUSH1 0x3 NOT ADD SLT PUSH2 0x601 JUMPI PUSH2 0xBA9 PUSH1 0x40 PUSH2 0x6EA SWAP3 PUSH1 0xFF PUSH2 0xB9B PUSH2 0x5D38 JUMP JUMPDEST AND DUP2 MSTORE PUSH1 0xB PUSH1 0x20 MSTORE KECCAK256 PUSH2 0x5FE6 JUMP JUMPDEST PUSH1 0x40 MLOAD SWAP2 DUP3 SWAP2 PUSH1 0x20 DUP4 MSTORE PUSH1 0x20 DUP4 ADD SWAP1 PUSH2 0x5BD3 JUMP JUMPDEST POP CALLVALUE PUSH2 0x601 JUMPI PUSH1 0x40 CALLDATASIZE PUSH1 0x3 NOT ADD SLT PUSH2 0x601 JUMPI PUSH2 0xBD7 PUSH2 0x5C13 JUMP JUMPDEST PUSH1 0x40 PUSH2 0xBE1 PUSH2 0x5C29 JUMP JUMPDEST SWAP3 PUSH1 0x1 DUP1 PUSH1 0xA0 SHL SUB DUP1 SWAP4 AND DUP2 MSTORE PUSH1 0x5 PUSH1 0x20 MSTORE KECCAK256 SWAP2 AND PUSH1 0x0 MSTORE PUSH1 0x20 MSTORE PUSH1 0x20 PUSH1 0xFF PUSH1 0x40 PUSH1 0x0 KECCAK256 SLOAD AND PUSH1 0x40 MLOAD SWAP1 ISZERO ISZERO DUP2 MSTORE RETURN JUMPDEST POP CALLVALUE PUSH2 0x601 JUMPI DUP1 PUSH1 0x3 NOT CALLDATASIZE ADD SLT PUSH2 0x601 JUMPI PUSH1 0x31 SLOAD PUSH1 0x40 MLOAD PUSH1 0x8 SWAP2 SWAP1 SWAP2 SHR PUSH1 0x1 PUSH1 0x1 PUSH1 0xA0 SHL SUB AND DUP2 MSTORE PUSH1 0x20 SWAP1 RETURN JUMPDEST POP CALLVALUE PUSH2 0x601 JUMPI DUP1 PUSH1 0x3 NOT CALLDATASIZE ADD SLT PUSH2 0x601 JUMPI PUSH1 0x20 PUSH1 0x2E SLOAD PUSH1 0x40 MLOAD SWAP1 DUP2 MSTORE RETURN JUMPDEST POP CALLVALUE PUSH2 0x601 JUMPI DUP1 PUSH1 0x3 NOT CALLDATASIZE ADD SLT PUSH2 0x601 JUMPI PUSH1 0x20 DUP1 SLOAD PUSH1 0x40 MLOAD SWAP1 DUP2 MSTORE RETURN JUMPDEST POP CALLVALUE PUSH2 0x601 JUMPI DUP1 PUSH1 0x3 NOT CALLDATASIZE ADD SLT PUSH2 0x601 JUMPI PUSH1 0x20 PUSH1 0x27 SLOAD PUSH1 0x40 MLOAD SWAP1 DUP2 MSTORE RETURN JUMPDEST POP CALLVALUE PUSH2 0x601 JUMPI DUP1 PUSH1 0x3 NOT CALLDATASIZE ADD SLT PUSH2 0x601 JUMPI PUSH1 0x20 PUSH1 0x1F SLOAD PUSH1 0x40 MLOAD SWAP1 DUP2 MSTORE RETURN JUMPDEST POP CALLVALUE PUSH2 0x601 JUMPI DUP1 PUSH1 0x3 NOT CALLDATASIZE ADD SLT PUSH2 0x601 JUMPI PUSH1 0x20 PUSH1 0x1D SLOAD PUSH1 0x40 MLOAD SWAP1 DUP2 MSTORE RETURN JUMPDEST POP CALLVALUE PUSH2 0x601 JUMPI PUSH1 0x40 CALLDATASIZE PUSH1 0x3 NOT ADD SLT PUSH2 0x601 JUMPI PUSH2 0xD11 PUSH1 0x4 CALLDATALOAD PUSH2 0xCF3 PUSH2 0x5C29 JUMP JUMPDEST SWAP1 DUP1 DUP5 MSTORE PUSH1 0x3A PUSH1 0x20 MSTORE PUSH2 0xD0C PUSH1 0x1 PUSH1 0x40 DUP7 KECCAK256 ADD SLOAD PUSH2 0x68AE JUMP JUMPDEST PUSH2 0x6E87 JUMP JUMPDEST POP DUP1 RETURN JUMPDEST POP CALLVALUE PUSH2 0x601 JUMPI DUP1 PUSH1 0x3 NOT CALLDATASIZE ADD SLT PUSH2 0x601 JUMPI PUSH1 0x20 PUSH1 0x18 SLOAD PUSH1 0x40 MLOAD SWAP1 DUP2 MSTORE RETURN JUMPDEST POP CALLVALUE PUSH2 0x601 JUMPI PUSH1 0x20 CALLDATASIZE PUSH1 0x3 NOT ADD SLT PUSH2 0x601 JUMPI PUSH1 0x20 SWAP1 PUSH1 0x40 SWAP1 PUSH1 0x1 PUSH1 0x1 PUSH1 0xA0 SHL SUB PUSH2 0xD5B PUSH2 0x5C13 JUMP JUMPDEST AND DUP2 MSTORE PUSH1 0x10 DUP4 MSTORE KECCAK256 SLOAD PUSH1 0x40 MLOAD SWAP1 DUP2 MSTORE RETURN JUMPDEST POP CALLVALUE PUSH2 0x601 JUMPI PUSH1 0x20 CALLDATASIZE PUSH1 0x3 NOT ADD SLT PUSH2 0x601 JUMPI PUSH2 0xD86 PUSH2 0x5C13 JUMP JUMPDEST PUSH1 0x0 DUP1 MLOAD PUSH1 0x20 PUSH2 0x7296 DUP4 CODECOPY DUP2 MLOAD SWAP2 MSTORE DUP3 MSTORE PUSH1 0x3A PUSH1 0x20 MSTORE PUSH1 0x40 DUP3 KECCAK256 CALLER PUSH1 0x0 MSTORE PUSH1 0x20 MSTORE PUSH1 0xFF PUSH1 0x40 PUSH1 0x0 KECCAK256 SLOAD AND DUP1 ISZERO PUSH2 0xDE3 JUMPI JUMPDEST PUSH2 0xDC0 SWAP1 PUSH2 0x60CA JUMP JUMPDEST PUSH1 0x34 DUP1 SLOAD PUSH1 0x1 PUSH1 0x1 PUSH1 0xA0 SHL SUB NOT AND PUSH1 0x1 PUSH1 0x1 PUSH1 0xA0 SHL SUB SWAP3 SWAP1 SWAP3 AND SWAP2 SWAP1 SWAP2 OR SWAP1 SSTORE DUP1 RETURN JUMPDEST POP PUSH2 0xDC0 PUSH2 0xDEF PUSH2 0x6706 JUMP JUMPDEST SWAP1 POP PUSH2 0xDB7 JUMP JUMPDEST POP CALLVALUE PUSH2 0x601 JUMPI DUP1 PUSH1 0x3 NOT CALLDATASIZE ADD SLT PUSH2 0x601 JUMPI PUSH1 0x32 SLOAD PUSH1 0x40 MLOAD PUSH1 0x1 PUSH1 0x1 PUSH1 0xA0 SHL SUB SWAP1 SWAP2 AND DUP2 MSTORE PUSH1 0x20 SWAP1 RETURN JUMPDEST POP CALLVALUE PUSH2 0x601 JUMPI PUSH1 0x20 SWAP1 DUP2 PUSH1 0x3 NOT CALLDATASIZE ADD SLT PUSH2 0x601 JUMPI PUSH1 0x4 CALLDATALOAD DUP1 DUP3 MSTORE PUSH1 0xF DUP4 MSTORE PUSH1 0x40 SWAP1 SWAP2 KECCAK256 SLOAD PUSH1 0x1 PUSH1 0x1 PUSH1 0xA0 SHL SUB AND ISZERO PUSH2 0xE93 JUMPI PUSH2 0xE5A DUP2 PUSH2 0x6793 JUMP JUMPDEST POP PUSH1 0x0 MSTORE PUSH1 0x6 DUP2 MSTORE PUSH2 0xE6F PUSH1 0x40 PUSH1 0x0 KECCAK256 PUSH2 0x5FE6 JUMP JUMPDEST SWAP1 PUSH1 0x0 PUSH1 0x40 MLOAD PUSH2 0xE7E DUP2 PUSH2 0x5CCA JUMP JUMPDEST MSTORE PUSH2 0x6EA PUSH1 0x40 MLOAD SWAP3 DUP3 DUP5 SWAP4 DUP5 MSTORE DUP4 ADD SWAP1 PUSH2 0x5BD3 JUMP JUMPDEST PUSH1 0x40 MLOAD PUSH3 0x461BCD PUSH1 0xE5 SHL DUP2 MSTORE PUSH1 0x4 DUP2 ADD DUP4 SWAP1 MSTORE PUSH1 0x2F PUSH1 0x24 DUP3 ADD MSTORE PUSH32 0x4552433732314D657461646174613A2055524920717565727920666F72206E6F PUSH1 0x44 DUP3 ADD MSTORE PUSH15 0x3732BC34B9BA32B73A103A37B5B2B7 PUSH1 0x89 SHL PUSH1 0x64 DUP3 ADD MSTORE PUSH1 0x84 SWAP1 REVERT JUMPDEST POP CALLVALUE PUSH2 0x601 JUMPI DUP1 PUSH1 0x3 NOT CALLDATASIZE ADD SLT PUSH2 0x601 JUMPI PUSH1 0x20 PUSH1 0x19 SLOAD PUSH1 0x40 MLOAD SWAP1 DUP2 MSTORE RETURN JUMPDEST POP CALLVALUE PUSH2 0x601 JUMPI DUP1 PUSH1 0x3 NOT CALLDATASIZE ADD SLT PUSH2 0x601 JUMPI PUSH1 0x20 PUSH1 0x23 SLOAD PUSH1 0x40 MLOAD SWAP1 DUP2 MSTORE RETURN JUMPDEST POP CALLVALUE PUSH2 0x601 JUMPI DUP1 PUSH1 0x3 NOT CALLDATASIZE ADD SLT PUSH2 0x601 JUMPI PUSH1 0x33 SLOAD PUSH2 0x6EA SWAP1 PUSH2 0xF56 SWAP1 PUSH1 0x1 PUSH1 0x1 PUSH1 0xA0 SHL SUB AND PUSH2 0x664E JUMP JUMPDEST PUSH1 0x40 MLOAD SWAP2 DUP3 SWAP2 PUSH1 0x20 DUP4 MSTORE PUSH1 0x20 DUP4 ADD SWAP1 PUSH2 0x5DC6 JUMP JUMPDEST POP CALLVALUE PUSH2 0x601 JUMPI PUSH1 0x20 CALLDATASIZE PUSH1 0x3 NOT ADD SLT PUSH2 0x601 JUMPI PUSH1 0x20 SWAP1 PUSH1 0x40 SWAP1 PUSH1 0x1 PUSH1 0x1 PUSH1 0xA0 SHL SUB PUSH2 0xF92 PUSH2 0x5C13 JUMP JUMPDEST AND DUP2 MSTORE PUSH1 0x11 DUP4 MSTORE KECCAK256 SLOAD PUSH1 0x40 MLOAD SWAP1 DUP2 MSTORE RETURN JUMPDEST POP CALLVALUE PUSH2 0x601 JUMPI PUSH1 0x20 CALLDATASIZE PUSH1 0x3 NOT ADD SLT PUSH2 0x601 JUMPI PUSH1 0x4 CALLDATALOAD SWAP1 PUSH1 0xA SLOAD DUP3 LT ISZERO PUSH2 0x601 JUMPI PUSH1 0xA PUSH1 0x0 MSTORE PUSH2 0x6EA PUSH2 0xBA9 PUSH32 0xC65A7BB8D6351C1CF70C95A316CC6A92839C986682D98BC35F958F4883F9D2A8 DUP5 ADD PUSH2 0x5FE6 JUMP JUMPDEST POP CALLVALUE PUSH2 0x601 JUMPI DUP1 PUSH1 0x3 NOT CALLDATASIZE ADD SLT PUSH2 0x601 JUMPI PUSH1 0x20 PUSH1 0x22 SLOAD PUSH1 0x40 MLOAD SWAP1 DUP2 MSTORE RETURN JUMPDEST POP CALLVALUE PUSH2 0x601 JUMPI PUSH2 0x120 CALLDATASIZE PUSH1 0x3 NOT ADD SLT PUSH2 0x601 JUMPI PUSH2 0x102F PUSH2 0x5C13 JUMP JUMPDEST PUSH2 0x1037 PUSH2 0x5C29 JUMP JUMPDEST PUSH1 0x1 PUSH1 0x1 PUSH1 0xA0 SHL SUB PUSH1 0x44 CALLDATALOAD DUP2 DUP2 AND SWAP4 SWAP2 SWAP3 SWAP1 DUP5 SWAP1 SUB PUSH2 0x1161 JUMPI PUSH2 0x105B PUSH2 0x964 PUSH2 0x6706 JUMP JUMPDEST PUSH1 0x31 SLOAD DUP4 DUP2 PUSH1 0x8 SHR AND PUSH2 0x111C JUMPI PUSH1 0x32 SLOAD SWAP3 DUP5 DUP5 AND PUSH2 0x10DD JUMPI PUSH2 0x100 PUSH1 0x1 PUSH1 0xA8 SHL SUB PUSH1 0x8 SWAP2 SWAP1 SWAP2 SHL AND PUSH2 0x100 PUSH1 0x1 PUSH1 0xA8 SHL SUB NOT SWAP2 SWAP1 SWAP2 AND OR PUSH1 0x31 SSTORE SWAP1 SWAP2 AND PUSH1 0x1 PUSH1 0x1 PUSH1 0xA0 SHL SUB NOT SWAP2 DUP3 AND OR PUSH1 0x32 SSTORE PUSH1 0x33 DUP1 SLOAD SWAP1 SWAP2 AND SWAP2 SWAP1 SWAP2 OR SWAP1 SSTORE PUSH1 0x64 CALLDATALOAD PUSH1 0x1D SSTORE PUSH1 0x84 CALLDATALOAD PUSH1 0x1E SSTORE PUSH1 0xA4 CALLDATALOAD PUSH1 0x1F SSTORE PUSH1 0xC4 CALLDATALOAD PUSH1 0x20 SSTORE PUSH1 0xE4 CALLDATALOAD PUSH1 0x21 SSTORE PUSH2 0x104 CALLDATALOAD PUSH1 0x22 SSTORE DUP1 RETURN JUMPDEST PUSH1 0x40 MLOAD PUSH3 0x461BCD PUSH1 0xE5 SHL DUP2 MSTORE PUSH1 0x20 PUSH1 0x4 DUP3 ADD MSTORE PUSH1 0x17 PUSH1 0x24 DUP3 ADD MSTORE PUSH23 0x1D1BDB88185B1C9958591E481A5B9A5D1A585B1A5E9959 PUSH1 0x4A SHL PUSH1 0x44 DUP3 ADD MSTORE PUSH1 0x64 SWAP1 REVERT JUMPDEST PUSH1 0x40 MLOAD PUSH3 0x461BCD PUSH1 0xE5 SHL DUP2 MSTORE PUSH1 0x20 PUSH1 0x4 DUP3 ADD MSTORE PUSH1 0x1E PUSH1 0x24 DUP3 ADD MSTORE PUSH32 0x746974616E7773746F6E20616C726561647920696E697469616C697A65640000 PUSH1 0x44 DUP3 ADD MSTORE PUSH1 0x64 SWAP1 REVERT JUMPDEST PUSH1 0x0 DUP1 REVERT JUMPDEST POP CALLVALUE PUSH2 0x601 JUMPI PUSH1 0x20 CALLDATASIZE PUSH1 0x3 NOT ADD SLT PUSH2 0x601 JUMPI PUSH1 0x20 SWAP1 PUSH1 0x4 CALLDATALOAD DUP2 MSTORE PUSH1 0x37 DUP3 MSTORE PUSH1 0x40 PUSH1 0x1 DUP1 PUSH1 0xA0 SHL SUB SWAP2 KECCAK256 SLOAD AND PUSH1 0x40 MLOAD SWAP1 DUP2 MSTORE RETURN JUMPDEST POP CALLVALUE PUSH2 0x601 JUMPI PUSH1 0x80 CALLDATASIZE PUSH1 0x3 NOT ADD SLT PUSH2 0x601 JUMPI PUSH2 0x11B3 PUSH2 0x5C13 JUMP JUMPDEST PUSH2 0x11BB PUSH2 0x5C29 JUMP JUMPDEST PUSH1 0x44 CALLDATALOAD PUSH1 0x64 CALLDATALOAD PUSH1 0x1 PUSH1 0x1 PUSH1 0x40 SHL SUB DUP2 GT PUSH2 0x1261 JUMPI CALLDATASIZE PUSH1 0x23 DUP3 ADD SLT ISZERO PUSH2 0x1261 JUMPI PUSH2 0x11EE SWAP1 CALLDATASIZE SWAP1 PUSH1 0x24 DUP2 PUSH1 0x4 ADD CALLDATALOAD SWAP2 ADD PUSH2 0x5D71 JUMP JUMPDEST SWAP2 PUSH2 0x11FE PUSH1 0xFF PUSH1 0x16 SLOAD AND ISZERO PUSH2 0x608B JUMP JUMPDEST PUSH2 0x1209 DUP3 CALLER DUP7 PUSH2 0x6F00 JUMP JUMPDEST ADDRESS EXTCODESIZE ISZERO PUSH2 0x1261 JUMPI PUSH1 0x40 MLOAD PUSH4 0x23B872DD PUSH1 0xE0 SHL DUP2 MSTORE DUP6 SWAP1 DUP2 DUP2 DUP1 PUSH2 0x1231 DUP8 DUP8 DUP12 PUSH1 0x4 DUP6 ADD PUSH2 0x6385 JUMP JUMPDEST SUB DUP2 DUP4 ADDRESS GAS CALL DUP1 ISZERO PUSH2 0x1265 JUMPI PUSH2 0x124D JUMPI JUMPDEST POP POP PUSH2 0x9C3 SWAP4 PUSH2 0x6FBF JUMP JUMPDEST PUSH2 0x1256 SWAP1 PUSH2 0x5C65 JUMP JUMPDEST PUSH2 0x1261 JUMPI DUP5 CODESIZE PUSH2 0x1242 JUMP JUMPDEST DUP5 DUP1 REVERT JUMPDEST PUSH1 0x40 MLOAD RETURNDATASIZE DUP5 DUP3 RETURNDATACOPY RETURNDATASIZE SWAP1 REVERT JUMPDEST POP CALLVALUE PUSH2 0x601 JUMPI DUP1 PUSH1 0x3 NOT CALLDATASIZE ADD SLT PUSH2 0x601 JUMPI PUSH1 0x20 PUSH1 0x2A SLOAD PUSH1 0x40 MLOAD SWAP1 DUP2 MSTORE RETURN JUMPDEST POP CALLVALUE PUSH2 0x601 JUMPI PUSH1 0x20 CALLDATASIZE PUSH1 0x3 NOT ADD SLT PUSH2 0x601 JUMPI PUSH2 0x12A8 PUSH2 0x5D38 JUMP JUMPDEST SWAP1 PUSH1 0xFF DUP1 PUSH1 0x9 SLOAD AND SWAP3 AND SWAP2 DUP3 LT ISZERO PUSH2 0x12D1 JUMPI PUSH1 0x40 DUP2 PUSH2 0x6EA SWAP4 PUSH2 0xBA9 SWAP4 MSTORE PUSH1 0x8 PUSH1 0x20 MSTORE KECCAK256 PUSH2 0x5FE6 JUMP JUMPDEST PUSH1 0x40 MLOAD PUSH3 0x461BCD PUSH1 0xE5 SHL DUP2 MSTORE PUSH1 0x20 PUSH1 0x4 DUP3 ADD MSTORE PUSH1 0x13 PUSH1 0x24 DUP3 ADD MSTORE PUSH19 0x496E646578206F7574206F6620626F756E6473 PUSH1 0x68 SHL PUSH1 0x44 DUP3 ADD MSTORE PUSH1 0x64 SWAP1 REVERT JUMPDEST POP CALLVALUE PUSH2 0x601 JUMPI PUSH1 0x20 SWAP1 DUP2 PUSH1 0x3 NOT CALLDATASIZE ADD SLT PUSH2 0x601 JUMPI PUSH1 0x4 CALLDATALOAD PUSH2 0x1332 PUSH1 0xFF PUSH1 0x16 SLOAD AND ISZERO PUSH2 0x608B JUMP JUMPDEST DUP1 DUP3 MSTORE PUSH1 0xF DUP4 MSTORE PUSH1 0x40 DUP3 KECCAK256 SLOAD PUSH1 0x1 PUSH1 0x1 PUSH1 0xA0 SHL SUB AND CALLER SUB PUSH2 0x1470 JUMPI PUSH2 0x136B PUSH1 0x1 PUSH1 0xFF PUSH1 0x7 PUSH2 0x135F DUP6 PUSH2 0x5F77 JUMP JUMPDEST POP ADD SLOAD AND ISZERO ISZERO EQ PUSH2 0x63B4 JUMP JUMPDEST CALLER DUP3 MSTORE PUSH1 0x12 DUP4 MSTORE PUSH1 0x40 DUP3 KECCAK256 DUP2 DUP4 MSTORE DUP4 MSTORE PUSH1 0x1 PUSH1 0xFF PUSH1 0x40 DUP5 KECCAK256 SLOAD AND ISZERO ISZERO SUB PUSH2 0x142D JUMPI PUSH1 0xA PUSH2 0x1397 DUP3 PUSH2 0x5F77 JUMP JUMPDEST POP ADD SLOAD PUSH2 0x13EA JUMPI PUSH2 0x13D9 PUSH1 0x7 SWAP2 PUSH2 0x13AD CALLER PUSH2 0x5F29 JUMP JUMPDEST DUP2 DUP6 MSTORE DUP6 MSTORE PUSH1 0x40 DUP5 KECCAK256 SWAP4 PUSH1 0xFF NOT SWAP5 DUP6 DUP2 SLOAD AND SWAP1 SSTORE PUSH2 0x13CA CALLER PUSH2 0x5F43 JUMP JUMPDEST DUP3 DUP3 MSTORE DUP7 MSTORE PUSH1 0x40 DUP2 KECCAK256 SSTORE PUSH2 0x5F77 JUMP JUMPDEST POP ADD SWAP1 DUP2 SLOAD AND SWAP1 SSTORE PUSH1 0x40 MLOAD PUSH1 0x1 DUP2 MSTORE RETURN JUMPDEST PUSH1 0x40 MLOAD PUSH3 0x461BCD PUSH1 0xE5 SHL DUP2 MSTORE PUSH1 0x4 DUP2 ADD DUP5 SWAP1 MSTORE PUSH1 0x1B PUSH1 0x24 DUP3 ADD MSTORE PUSH27 0x616C72656164792063616C6C6564207069636B4D696E656447454D PUSH1 0x28 SHL PUSH1 0x44 DUP3 ADD MSTORE PUSH1 0x64 SWAP1 REVERT JUMPDEST PUSH1 0x40 MLOAD PUSH3 0x461BCD PUSH1 0xE5 SHL DUP2 MSTORE PUSH1 0x4 DUP2 ADD DUP5 SWAP1 MSTORE PUSH1 0x1B PUSH1 0x24 DUP3 ADD MSTORE PUSH27 0x75736572206973206E6F74206D696E696E6720746869732047656D PUSH1 0x28 SHL PUSH1 0x44 DUP3 ADD MSTORE PUSH1 0x64 SWAP1 REVERT JUMPDEST PUSH1 0x40 MLOAD PUSH3 0x461BCD PUSH1 0xE5 SHL DUP2 MSTORE PUSH1 0x4 DUP2 ADD DUP5 SWAP1 MSTORE PUSH1 0xD PUSH1 0x24 DUP3 ADD MSTORE PUSH13 0x3737BA1023A2A69037BBB732B9 PUSH1 0x99 SHL PUSH1 0x44 DUP3 ADD MSTORE PUSH1 0x64 SWAP1 REVERT JUMPDEST POP CALLVALUE PUSH2 0x601 JUMPI PUSH2 0x14B4 CALLDATASIZE PUSH2 0x5C3F JUMP JUMPDEST SWAP5 PUSH1 0x0 DUP1 MLOAD PUSH1 0x20 PUSH2 0x7296 DUP4 CODECOPY DUP2 MLOAD SWAP2 MSTORE DUP8 SWAP6 SWAP3 SWAP6 SWAP5 SWAP4 SWAP5 MSTORE PUSH1 0x3A PUSH1 0x20 MSTORE PUSH1 0x40 DUP8 KECCAK256 CALLER PUSH1 0x0 MSTORE PUSH1 0x20 MSTORE PUSH1 0xFF PUSH1 0x40 PUSH1 0x0 KECCAK256 SLOAD AND DUP1 ISZERO PUSH2 0x150A JUMPI JUMPDEST PUSH2 0x14F5 SWAP1 PUSH2 0x60CA JUMP JUMPDEST PUSH1 0x29 SSTORE PUSH1 0x2A SSTORE PUSH1 0x2B SSTORE PUSH1 0x2C SSTORE PUSH1 0x2D SSTORE PUSH1 0x2E SSTORE DUP1 RETURN JUMPDEST POP PUSH2 0x14F5 PUSH2 0x1516 PUSH2 0x6706 JUMP JUMPDEST SWAP1 POP PUSH2 0x14EC JUMP JUMPDEST POP CALLVALUE PUSH2 0x601 JUMPI DUP1 PUSH1 0x3 NOT CALLDATASIZE ADD SLT PUSH2 0x601 JUMPI PUSH1 0x34 SLOAD PUSH1 0x40 MLOAD PUSH1 0x1 PUSH1 0x1 PUSH1 0xA0 SHL SUB SWAP1 SWAP2 AND DUP2 MSTORE PUSH1 0x20 SWAP1 RETURN JUMPDEST POP CALLVALUE PUSH2 0x601 JUMPI PUSH1 0x20 CALLDATASIZE PUSH1 0x3 NOT ADD SLT PUSH2 0x601 JUMPI PUSH1 0x40 DUP2 PUSH1 0xC0 SWAP3 PUSH1 0xA0 DUP4 MLOAD PUSH2 0x156B DUP2 PUSH2 0x5C94 JUMP JUMPDEST DUP3 DUP2 MSTORE DUP3 PUSH1 0x20 DUP3 ADD MSTORE DUP3 DUP6 DUP3 ADD MSTORE DUP3 PUSH1 0x60 DUP3 ADD MSTORE DUP3 PUSH1 0x80 DUP3 ADD MSTORE ADD MSTORE PUSH1 0x4 CALLDATALOAD DUP2 MSTORE PUSH1 0x15 PUSH1 0x20 MSTORE KECCAK256 PUSH1 0x4 PUSH1 0x40 MLOAD PUSH2 0x15A0 DUP2 PUSH2 0x5C94 JUMP JUMPDEST DUP3 SLOAD SWAP3 DUP4 DUP3 MSTORE PUSH1 0x1 DUP2 ADD SLOAD PUSH1 0x20 DUP4 ADD SWAP1 PUSH1 0xFF DUP2 AND ISZERO ISZERO DUP3 MSTORE PUSH1 0xFF PUSH1 0x40 DUP6 ADD SWAP2 PUSH1 0x8 SHR AND ISZERO ISZERO DUP2 MSTORE PUSH1 0x2 DUP4 ADD SLOAD SWAP2 PUSH1 0x60 DUP6 ADD SWAP3 DUP4 MSTORE PUSH1 0xA0 PUSH1 0x3 DUP6 ADD SLOAD SWAP5 PUSH1 0x80 DUP8 ADD SWAP6 DUP7 MSTORE PUSH1 0x1 DUP1 DUP4 SHL SUB SWAP8 DUP9 SWAP2 ADD SLOAD AND SWAP6 ADD SWAP5 DUP6 MSTORE PUSH1 0x40 MLOAD SWAP7 DUP8 MSTORE MLOAD ISZERO ISZERO PUSH1 0x20 DUP8 ADD MSTORE MLOAD ISZERO ISZERO PUSH1 0x40 DUP7 ADD MSTORE MLOAD PUSH1 0x60 DUP6 ADD MSTORE MLOAD PUSH1 0x80 DUP5 ADD MSTORE MLOAD AND PUSH1 0xA0 DUP3 ADD MSTORE RETURN JUMPDEST POP CALLVALUE PUSH2 0x601 JUMPI PUSH1 0x20 CALLDATASIZE PUSH1 0x3 NOT ADD SLT PUSH2 0x601 JUMPI PUSH1 0x4 CALLDATALOAD SWAP1 PUSH2 0x140 PUSH1 0x40 MLOAD PUSH2 0x1644 DUP2 PUSH2 0x5C78 JUMP JUMPDEST DUP3 DUP2 MSTORE DUP3 PUSH1 0x20 DUP3 ADD MSTORE PUSH1 0x40 MLOAD PUSH2 0x1659 DUP2 PUSH2 0x5CAF JUMP JUMPDEST PUSH1 0x80 CALLDATASIZE DUP3 CALLDATACOPY PUSH1 0x40 DUP3 ADD MSTORE PUSH1 0x40 MLOAD PUSH2 0x166F DUP2 PUSH2 0x5CE5 JUMP JUMPDEST PUSH1 0x40 CALLDATASIZE DUP3 CALLDATACOPY PUSH1 0x60 DUP3 ADD MSTORE DUP3 PUSH1 0x80 DUP3 ADD MSTORE DUP3 PUSH1 0xA0 DUP3 ADD MSTORE DUP3 PUSH1 0xC0 DUP3 ADD MSTORE DUP3 PUSH1 0xE0 DUP3 ADD MSTORE DUP3 PUSH2 0x100 DUP3 ADD MSTORE PUSH1 0x60 PUSH2 0x120 DUP3 ADD MSTORE ADD MSTORE PUSH1 0x7 SLOAD DUP2 LT ISZERO PUSH2 0x16D5 JUMPI PUSH2 0x16C1 PUSH2 0x16BB PUSH2 0x6EA SWAP3 PUSH2 0x5F77 JUMP JUMPDEST POP PUSH2 0x6447 JUMP JUMPDEST PUSH1 0x40 MLOAD SWAP2 DUP3 SWAP2 PUSH1 0x20 DUP4 MSTORE PUSH1 0x20 DUP4 ADD SWAP1 PUSH2 0x5E3C JUMP JUMPDEST PUSH1 0x40 MLOAD PUSH3 0x461BCD PUSH1 0xE5 SHL DUP2 MSTORE PUSH1 0x20 PUSH1 0x4 DUP3 ADD MSTORE PUSH1 0x12 PUSH1 0x24 DUP3 ADD MSTORE PUSH18 0x11D95B48191BD95CC81B9BDD08195E1A5CDD PUSH1 0x72 SHL PUSH1 0x44 DUP3 ADD MSTORE PUSH1 0x64 SWAP1 REVERT JUMPDEST POP CALLVALUE PUSH2 0x601 JUMPI PUSH1 0x20 CALLDATASIZE PUSH1 0x3 NOT ADD SLT PUSH2 0x601 JUMPI PUSH1 0x4 CALLDATALOAD SWAP1 PUSH1 0xD SLOAD DUP3 LT ISZERO PUSH2 0x601 JUMPI PUSH1 0xD PUSH1 0x0 MSTORE PUSH2 0x6EA PUSH2 0xBA9 PUSH32 0xD7B6990105719101DABEB77144F2A3385C8033ACD3AF97E9423A695E81AD1EB5 DUP5 ADD PUSH2 0x5FE6 JUMP JUMPDEST POP CALLVALUE PUSH2 0x601 JUMPI PUSH1 0x40 CALLDATASIZE PUSH1 0x3 NOT ADD SLT PUSH2 0x601 JUMPI PUSH2 0x177C PUSH2 0x5C13 JUMP JUMPDEST PUSH2 0x1784 PUSH2 0x5F1A JUMP JUMPDEST PUSH1 0x1 PUSH1 0x1 PUSH1 0xA0 SHL SUB SWAP1 SWAP2 AND SWAP1 DUP2 ISZERO PUSH2 0x17EA JUMPI CALLER PUSH1 0x0 MSTORE PUSH1 0x5 PUSH1 0x20 MSTORE PUSH1 0x40 PUSH1 0x0 KECCAK256 DUP3 PUSH1 0x0 MSTORE PUSH1 0x20 MSTORE PUSH2 0x17B9 DUP2 PUSH1 0x40 PUSH1 0x0 KECCAK256 PUSH2 0x63F5 JUMP JUMPDEST PUSH1 0x40 MLOAD SWAP1 ISZERO ISZERO DUP2 MSTORE PUSH32 0x17307EAB39AB6107E8899845AD3D59BD9653F200F220920489CA2B5937696C31 PUSH1 0x20 CALLER SWAP3 LOG3 DUP1 RETURN JUMPDEST PUSH1 0x40 MLOAD PUSH4 0xB611743 PUSH1 0xE3 SHL DUP2 MSTORE PUSH1 0x4 DUP2 ADD DUP4 SWAP1 MSTORE PUSH1 0x24 SWAP1 REVERT JUMPDEST POP CALLVALUE PUSH2 0x601 JUMPI DUP1 PUSH1 0x3 NOT CALLDATASIZE ADD SLT PUSH2 0x601 JUMPI PUSH1 0x20 SWAP1 PUSH1 0x40 MLOAD SWAP1 DUP2 MSTORE RETURN JUMPDEST POP CALLVALUE PUSH2 0x601 JUMPI PUSH2 0x182E CALLDATASIZE PUSH2 0x5C3F JUMP JUMPDEST SWAP5 PUSH1 0x0 DUP1 MLOAD PUSH1 0x20 PUSH2 0x7296 DUP4 CODECOPY DUP2 MLOAD SWAP2 MSTORE DUP8 SWAP6 SWAP3 SWAP6 SWAP5 SWAP4 SWAP5 MSTORE PUSH1 0x3A PUSH1 0x20 MSTORE PUSH1 0x40 DUP8 KECCAK256 CALLER PUSH1 0x0 MSTORE PUSH1 0x20 MSTORE PUSH1 0xFF PUSH1 0x40 PUSH1 0x0 KECCAK256 SLOAD AND DUP1 ISZERO PUSH2 0x1884 JUMPI JUMPDEST PUSH2 0x186F SWAP1 PUSH2 0x60CA JUMP JUMPDEST PUSH1 0x17 SSTORE PUSH1 0x18 SSTORE PUSH1 0x19 SSTORE PUSH1 0x1A SSTORE PUSH1 0x1B SSTORE PUSH1 0x1C SSTORE DUP1 RETURN JUMPDEST POP PUSH2 0x186F PUSH2 0x1890 PUSH2 0x6706 JUMP JUMPDEST SWAP1 POP PUSH2 0x1866 JUMP JUMPDEST POP CALLVALUE PUSH2 0x601 JUMPI PUSH1 0x40 CALLDATASIZE PUSH1 0x3 NOT ADD SLT PUSH2 0x601 JUMPI PUSH1 0x20 SWAP1 PUSH1 0xFF SWAP1 PUSH1 0x40 SWAP1 PUSH1 0x1 PUSH1 0x1 PUSH1 0xA0 SHL SUB PUSH2 0x18C2 PUSH2 0x5C13 JUMP JUMPDEST AND DUP2 MSTORE PUSH1 0x12 DUP5 MSTORE DUP2 DUP2 KECCAK256 PUSH1 0x24 CALLDATALOAD DUP3 MSTORE DUP5 MSTORE KECCAK256 SLOAD AND PUSH1 0x40 MLOAD SWAP1 ISZERO ISZERO DUP2 MSTORE RETURN JUMPDEST POP CALLVALUE PUSH2 0x601 JUMPI PUSH1 0x20 CALLDATASIZE PUSH1 0x3 NOT ADD SLT PUSH2 0x601 JUMPI PUSH1 0x40 PUSH1 0xC0 SWAP2 PUSH1 0x4 CALLDATALOAD DUP2 MSTORE PUSH1 0x15 PUSH1 0x20 MSTORE KECCAK256 DUP1 SLOAD SWAP1 PUSH1 0x1 DUP2 ADD SLOAD SWAP1 PUSH1 0x2 DUP2 ADD SLOAD PUSH1 0xFF PUSH1 0x3 DUP4 ADD SLOAD SWAP3 PUSH1 0x4 PUSH1 0x1 DUP1 PUSH1 0xA0 SHL SUB SWAP2 ADD SLOAD AND SWAP4 PUSH1 0x40 MLOAD SWAP6 DUP7 MSTORE DUP2 DUP2 AND ISZERO ISZERO PUSH1 0x20 DUP8 ADD MSTORE PUSH1 0x8 SHR AND ISZERO ISZERO PUSH1 0x40 DUP6 ADD MSTORE PUSH1 0x60 DUP5 ADD MSTORE PUSH1 0x80 DUP4 ADD MSTORE PUSH1 0xA0 DUP3 ADD MSTORE RETURN JUMPDEST POP CALLVALUE PUSH2 0x601 JUMPI DUP1 PUSH1 0x3 NOT CALLDATASIZE ADD SLT PUSH2 0x601 JUMPI PUSH1 0x20 PUSH1 0x21 SLOAD PUSH1 0x40 MLOAD SWAP1 DUP2 MSTORE RETURN JUMPDEST POP CALLVALUE PUSH2 0x601 JUMPI PUSH1 0x20 CALLDATASIZE PUSH1 0x3 NOT ADD SLT PUSH2 0x601 JUMPI PUSH1 0xFF PUSH2 0x198C PUSH2 0x5D38 JUMP JUMPDEST PUSH1 0x0 DUP1 MLOAD PUSH1 0x20 PUSH2 0x7296 DUP4 CODECOPY DUP2 MLOAD SWAP2 MSTORE DUP4 MSTORE PUSH1 0x3A PUSH1 0x20 MSTORE PUSH1 0x40 DUP4 KECCAK256 CALLER PUSH1 0x0 MSTORE PUSH1 0x20 MSTORE DUP2 PUSH1 0x40 PUSH1 0x0 KECCAK256 SLOAD AND DUP1 ISZERO PUSH2 0x19D4 JUMPI JUMPDEST PUSH2 0x19C5 SWAP1 PUSH2 0x60CA JUMP JUMPDEST AND PUSH1 0xFF NOT PUSH1 0x31 SLOAD AND OR PUSH1 0x31 SSTORE DUP1 RETURN JUMPDEST POP PUSH2 0x19C5 PUSH2 0x19E0 PUSH2 0x6706 JUMP JUMPDEST SWAP1 POP PUSH2 0x19BC JUMP JUMPDEST POP CALLVALUE PUSH2 0x601 JUMPI PUSH2 0x100 CALLDATASIZE PUSH1 0x3 NOT ADD SLT PUSH2 0x601 JUMPI PUSH1 0x6 PUSH1 0x4 CALLDATALOAD LT ISZERO PUSH2 0x601 JUMPI CALLDATASIZE PUSH1 0x43 SLT ISZERO PUSH2 0x1161 JUMPI PUSH1 0x40 MLOAD SWAP1 PUSH2 0x1A1B DUP3 PUSH2 0x5CE5 JUMP JUMPDEST DUP2 PUSH1 0x64 SWAP3 CALLDATASIZE DUP5 GT PUSH2 0x1161 JUMPI PUSH1 0x24 SWAP1 JUMPDEST DUP5 DUP3 LT PUSH2 0x25AE JUMPI POP POP CALLDATASIZE PUSH1 0x83 SLT ISZERO PUSH2 0x1161 JUMPI PUSH1 0x40 MLOAD SWAP2 PUSH2 0x1A49 DUP4 PUSH2 0x5CAF JUMP JUMPDEST PUSH1 0xE4 DUP4 CALLDATASIZE DUP3 GT PUSH2 0x1161 JUMPI DUP6 SWAP1 JUMPDEST DUP3 DUP3 LT PUSH2 0x2596 JUMPI POP POP POP PUSH1 0xE4 CALLDATALOAD SWAP1 PUSH1 0x1 PUSH1 0x1 PUSH1 0x40 SHL SUB DUP3 GT PUSH2 0x601 JUMPI POP PUSH2 0x1A81 SWAP1 CALLDATASIZE SWAP1 PUSH1 0x4 ADD PUSH2 0x5DA8 JUMP JUMPDEST SWAP3 PUSH2 0x1A97 PUSH1 0x1 DUP1 PUSH1 0xA0 SHL SUB PUSH1 0x33 SLOAD AND CALLER EQ PUSH2 0x610B JUMP JUMPDEST PUSH2 0x1AA6 PUSH1 0xFF PUSH1 0x16 SLOAD AND ISZERO PUSH2 0x608B JUMP JUMPDEST PUSH1 0xFF DUP4 MLOAD AND PUSH2 0x1ABE PUSH1 0x20 DUP6 ADD SWAP2 PUSH1 0xFF DUP4 MLOAD AND SWAP1 PUSH2 0x6766 JUMP JUMPDEST SWAP1 PUSH2 0x1AD2 PUSH1 0x40 DUP7 ADD SWAP3 PUSH1 0xFF DUP5 MLOAD AND SWAP1 PUSH2 0x6766 JUMP JUMPDEST PUSH2 0x1AE5 PUSH1 0x60 DUP8 ADD SWAP2 PUSH1 0xFF DUP4 MLOAD AND SWAP1 PUSH2 0x6766 JUMP JUMPDEST SWAP3 PUSH1 0x4 CALLDATALOAD PUSH2 0x1EF6 JUMPI PUSH1 0xFF DUP8 MLOAD AND SWAP3 PUSH1 0x1 DUP5 EQ SWAP4 DUP5 ISZERO PUSH2 0x1EEB JUMPI JUMPDEST POP DUP4 PUSH2 0x1EC5 JUMPI JUMPDEST POP DUP3 PUSH2 0x1E9F JUMPI JUMPDEST POP DUP2 PUSH2 0x1E7B JUMPI JUMPDEST POP ISZERO PUSH2 0x1E20 JUMPI PUSH1 0xFF PUSH1 0x8 SWAP2 AND LT ISZERO PUSH2 0x1DE4 JUMPI POP PUSH1 0x29 SLOAD PUSH1 0x23 SLOAD SWAP3 PUSH1 0x1D SLOAD PUSH1 0x17 SLOAD JUMPDEST PUSH2 0x1B3F DUP5 TIMESTAMP PUSH2 0x63A7 JUMP JUMPDEST SWAP1 PUSH1 0x40 MLOAD SWAP1 PUSH2 0x1B4D DUP3 PUSH2 0x5C78 JUMP JUMPDEST PUSH1 0x0 DUP3 MSTORE PUSH1 0x20 DUP3 ADD SWAP3 PUSH2 0x1B62 PUSH1 0x4 CALLDATALOAD DUP6 PUSH2 0x6406 JUMP JUMPDEST DUP6 PUSH1 0x40 DUP5 ADD MSTORE DUP8 PUSH1 0x60 DUP5 ADD MSTORE PUSH1 0x80 DUP4 ADD MSTORE DUP8 PUSH1 0xA0 DUP4 ADD MSTORE PUSH1 0xC0 DUP3 ADD MSTORE PUSH1 0x0 PUSH1 0xE0 DUP3 ADD MSTORE DUP3 PUSH2 0x100 DUP3 ADD MSTORE DUP8 PUSH2 0x120 DUP3 ADD MSTORE PUSH1 0x0 PUSH2 0x140 DUP3 ADD MSTORE PUSH1 0x7 SLOAD PUSH1 0x1 PUSH1 0x40 SHL DUP2 LT ISZERO PUSH2 0x1DCE JUMPI DUP1 PUSH1 0x1 PUSH2 0x1BBA SWAP3 ADD PUSH1 0x7 SSTORE PUSH2 0x5F77 JUMP JUMPDEST SWAP3 SWAP1 SWAP3 PUSH2 0x1DB8 JUMPI DUP2 MLOAD DUP4 SSTORE MLOAD PUSH1 0x6 DUP2 LT ISZERO PUSH2 0x1DA2 JUMPI PUSH1 0xFF DUP1 NOT PUSH1 0x1 DUP6 ADD SLOAD AND SWAP2 AND OR PUSH1 0x1 DUP4 ADD SSTORE PUSH1 0x40 DUP2 ADD MLOAD PUSH1 0x0 SWAP1 PUSH1 0x0 JUMPDEST PUSH1 0x4 DUP2 LT PUSH2 0x1D83 JUMPI POP POP PUSH1 0x2 DUP4 ADD SSTORE PUSH1 0x60 DUP2 ADD MLOAD PUSH1 0x0 SWAP1 PUSH1 0x0 JUMPDEST PUSH1 0x2 DUP2 LT PUSH2 0x1D64 JUMPI POP POP PUSH1 0xA SWAP2 PUSH2 0x140 SWAP2 PUSH1 0x3 DUP6 ADD SSTORE PUSH1 0x80 DUP2 ADD MLOAD PUSH1 0x4 DUP6 ADD SSTORE PUSH1 0xA0 DUP2 ADD MLOAD PUSH1 0x5 DUP6 ADD SSTORE PUSH1 0xC0 DUP2 ADD MLOAD PUSH1 0x6 DUP6 ADD SSTORE PUSH2 0x1C4D PUSH1 0xE0 DUP3 ADD MLOAD ISZERO ISZERO PUSH1 0x7 DUP7 ADD PUSH2 0x63F5 JUMP JUMPDEST PUSH2 0x100 DUP2 ADD MLOAD PUSH1 0x8 DUP6 ADD SSTORE PUSH2 0x1C6A PUSH2 0x120 DUP3 ADD MLOAD PUSH1 0x9 DUP7 ADD PUSH2 0x61CA JUMP JUMPDEST ADD MLOAD SWAP2 ADD SSTORE PUSH1 0x7 SLOAD PUSH1 0x0 NOT DUP2 ADD SWAP6 SWAP1 DUP7 GT PUSH2 0x1D4E JUMPI PUSH1 0x20 SWAP7 DUP7 SWAP6 PUSH1 0x0 DUP1 MLOAD PUSH1 0x20 PUSH2 0x72F6 DUP4 CODECOPY DUP2 MLOAD SWAP2 MSTORE SWAP6 PUSH2 0x1D3C SWAP4 DUP9 PUSH2 0x1CA2 DUP2 PUSH2 0x5F77 JUMP JUMPDEST POP SSTORE PUSH1 0x0 DUP10 DUP2 MSTORE PUSH1 0xF DUP13 MSTORE PUSH1 0x40 SWAP1 KECCAK256 DUP1 SLOAD PUSH1 0x1 PUSH1 0x1 PUSH1 0xA0 SHL SUB NOT AND CALLER SWAP1 DUP2 OR SWAP1 SWAP2 SSTORE PUSH2 0x1CCD SWAP1 PUSH2 0x5F5D JUMP JUMPDEST PUSH2 0x1CD7 DUP2 SLOAD PUSH2 0x663F JUMP JUMPDEST SWAP1 SSTORE PUSH2 0x1CE3 DUP10 CALLER PUSH2 0x6B07 JUMP JUMPDEST PUSH2 0x1CED DUP5 DUP11 PUSH2 0x67CE JUMP JUMPDEST PUSH2 0x1D21 PUSH1 0x40 MLOAD SWAP8 DUP9 SWAP8 PUSH2 0x1D12 PUSH2 0x180 SWAP7 PUSH2 0x1D09 DUP12 PUSH1 0x4 CALLDATALOAD PUSH2 0x5E2F JUMP JUMPDEST DUP16 DUP12 ADD SWAP1 PUSH2 0x6575 JUMP JUMPDEST PUSH1 0x60 DUP10 ADD MSTORE PUSH1 0x80 DUP9 ADD SWAP1 PUSH2 0x65A0 JUMP JUMPDEST PUSH2 0x100 DUP7 ADD MSTORE PUSH2 0x120 DUP6 ADD MSTORE DUP1 PUSH2 0x140 DUP6 ADD MSTORE DUP4 ADD SWAP1 PUSH2 0x5BD3 JUMP JUMPDEST CALLER PUSH2 0x160 DUP4 ADD MSTORE SUB SWAP1 LOG2 PUSH1 0x40 MLOAD SWAP1 DUP2 MSTORE RETURN JUMPDEST PUSH4 0x4E487B71 PUSH1 0xE0 SHL PUSH1 0x0 MSTORE PUSH1 0x11 PUSH1 0x4 MSTORE PUSH1 0x24 PUSH1 0x0 REVERT JUMPDEST SWAP1 SWAP2 PUSH1 0x20 PUSH2 0x1D7A PUSH1 0x1 SWAP3 DUP5 PUSH1 0xFF DUP8 MLOAD AND SWAP2 PUSH2 0x6EEC JUMP JUMPDEST SWAP4 ADD SWAP2 ADD PUSH2 0x1C06 JUMP JUMPDEST SWAP1 SWAP2 PUSH1 0x20 PUSH2 0x1D99 PUSH1 0x1 SWAP3 DUP5 PUSH1 0xFF DUP8 MLOAD AND SWAP2 PUSH2 0x6EEC JUMP JUMPDEST SWAP4 ADD SWAP2 ADD PUSH2 0x1BEC JUMP JUMPDEST PUSH4 0x4E487B71 PUSH1 0xE0 SHL PUSH1 0x0 MSTORE PUSH1 0x21 PUSH1 0x4 MSTORE PUSH1 0x24 PUSH1 0x0 REVERT JUMPDEST PUSH4 0x4E487B71 PUSH1 0xE0 SHL PUSH1 0x0 MSTORE PUSH1 0x0 PUSH1 0x4 MSTORE PUSH1 0x24 PUSH1 0x0 REVERT JUMPDEST PUSH4 0x4E487B71 PUSH1 0xE0 SHL PUSH1 0x0 MSTORE PUSH1 0x41 PUSH1 0x4 MSTORE PUSH1 0x24 PUSH1 0x0 REVERT JUMPDEST PUSH1 0x40 MLOAD PUSH3 0x461BCD PUSH1 0xE5 SHL DUP2 MSTORE PUSH1 0x20 PUSH1 0x4 DUP3 ADD MSTORE PUSH1 0x17 PUSH1 0x24 DUP3 ADD MSTORE PUSH23 0x191919191034B9902920A922903737BA1021A7A6A6A7A7 PUSH1 0x49 SHL PUSH1 0x44 DUP3 ADD MSTORE REVERT JUMPDEST PUSH1 0x40 MLOAD PUSH3 0x461BCD PUSH1 0xE5 SHL DUP2 MSTORE PUSH1 0x20 PUSH1 0x4 DUP3 ADD MSTORE PUSH1 0x2E PUSH1 0x24 DUP3 ADD MSTORE PUSH32 0x416C6C207175616472616E7473206D7573742062652031206F72203220666F72 PUSH1 0x44 DUP3 ADD MSTORE PUSH14 0x20434F4D4D4F4E20726172697479 PUSH1 0x90 SHL DUP2 DUP5 ADD MSTORE PUSH1 0x84 SWAP1 REVERT JUMPDEST PUSH1 0xFF SWAP2 POP MLOAD AND PUSH1 0x1 DUP2 EQ SWAP1 DUP2 ISZERO PUSH2 0x1E94 JUMPI JUMPDEST POP CODESIZE PUSH2 0x1B14 JUMP JUMPDEST PUSH1 0x2 SWAP2 POP EQ CODESIZE PUSH2 0x1E8D JUMP JUMPDEST PUSH1 0xFF SWAP2 SWAP3 POP MLOAD AND PUSH1 0x1 DUP2 EQ SWAP1 DUP2 ISZERO PUSH2 0x1EBA JUMPI JUMPDEST POP SWAP1 CODESIZE PUSH2 0x1B0D JUMP JUMPDEST PUSH1 0x2 SWAP2 POP EQ CODESIZE PUSH2 0x1EB2 JUMP JUMPDEST PUSH1 0xFF SWAP2 SWAP4 POP MLOAD AND PUSH1 0x1 DUP2 EQ SWAP1 DUP2 ISZERO PUSH2 0x1EE0 JUMPI JUMPDEST POP SWAP2 CODESIZE PUSH2 0x1B06 JUMP JUMPDEST PUSH1 0x2 SWAP2 POP EQ CODESIZE PUSH2 0x1ED8 JUMP JUMPDEST PUSH1 0x2 EQ SWAP4 POP CODESIZE PUSH2 0x1AFF JUMP JUMPDEST PUSH1 0x4 CALLDATALOAD PUSH1 0x1 SUB PUSH2 0x205C JUMPI PUSH1 0xFF DUP8 MLOAD AND SWAP3 PUSH1 0x2 DUP5 EQ SWAP4 DUP5 ISZERO PUSH2 0x2051 JUMPI JUMPDEST POP DUP4 PUSH2 0x202B JUMPI JUMPDEST POP DUP3 PUSH2 0x2005 JUMPI JUMPDEST POP DUP2 PUSH2 0x1FE1 JUMPI JUMPDEST POP ISZERO PUSH2 0x1F88 JUMPI PUSH1 0xFF PUSH1 0xC SWAP2 AND LT ISZERO PUSH2 0x1F4C JUMPI POP PUSH1 0x2A SLOAD PUSH1 0x24 SLOAD SWAP3 PUSH1 0x1E SLOAD PUSH1 0x18 SLOAD PUSH2 0x1B35 JUMP JUMPDEST PUSH1 0x40 MLOAD PUSH3 0x461BCD PUSH1 0xE5 SHL DUP2 MSTORE PUSH1 0x20 PUSH1 0x4 DUP3 ADD MSTORE PUSH1 0x17 PUSH1 0x24 DUP3 ADD MSTORE PUSH23 0x3333333320697320554E49515545206E6F742052415245 PUSH1 0x48 SHL PUSH1 0x44 DUP3 ADD MSTORE REVERT JUMPDEST PUSH1 0x40 MLOAD PUSH3 0x461BCD PUSH1 0xE5 SHL DUP2 MSTORE PUSH1 0x20 PUSH1 0x4 DUP3 ADD MSTORE PUSH1 0x2C PUSH1 0x24 DUP3 ADD MSTORE PUSH32 0x416C6C207175616472616E7473206D7573742062652032206F72203320666F72 PUSH1 0x44 DUP3 ADD MSTORE PUSH12 0x205241524520726172697479 PUSH1 0xA0 SHL DUP2 DUP5 ADD MSTORE PUSH1 0x84 SWAP1 REVERT JUMPDEST PUSH1 0xFF SWAP2 POP MLOAD AND PUSH1 0x2 DUP2 EQ SWAP1 DUP2 ISZERO PUSH2 0x1FFA JUMPI JUMPDEST POP CODESIZE PUSH2 0x1F27 JUMP JUMPDEST PUSH1 0x3 SWAP2 POP EQ CODESIZE PUSH2 0x1FF3 JUMP JUMPDEST PUSH1 0xFF SWAP2 SWAP3 POP MLOAD AND PUSH1 0x2 DUP2 EQ SWAP1 DUP2 ISZERO PUSH2 0x2020 JUMPI JUMPDEST POP SWAP1 CODESIZE PUSH2 0x1F20 JUMP JUMPDEST PUSH1 0x3 SWAP2 POP EQ CODESIZE PUSH2 0x2018 JUMP JUMPDEST PUSH1 0xFF SWAP2 SWAP4 POP MLOAD AND PUSH1 0x2 DUP2 EQ SWAP1 DUP2 ISZERO PUSH2 0x2046 JUMPI JUMPDEST POP SWAP2 CODESIZE PUSH2 0x1F19 JUMP JUMPDEST PUSH1 0x3 SWAP2 POP EQ CODESIZE PUSH2 0x203E JUMP JUMPDEST PUSH1 0x3 EQ SWAP4 POP CODESIZE PUSH2 0x1F12 JUMP JUMPDEST PUSH1 0x4 CALLDATALOAD PUSH1 0x2 SUB PUSH2 0x21C4 JUMPI PUSH1 0xFF DUP8 MLOAD AND SWAP3 PUSH1 0x3 DUP5 EQ SWAP4 DUP5 ISZERO PUSH2 0x21B9 JUMPI JUMPDEST POP DUP4 PUSH2 0x2193 JUMPI JUMPDEST POP DUP3 PUSH2 0x216D JUMPI JUMPDEST POP DUP2 PUSH2 0x2149 JUMPI JUMPDEST POP ISZERO PUSH2 0x20EE JUMPI PUSH1 0xFF PUSH1 0x10 SWAP2 AND LT ISZERO PUSH2 0x20B2 JUMPI POP PUSH1 0x2B SLOAD PUSH1 0x25 SLOAD SWAP3 PUSH1 0x1F SLOAD PUSH1 0x19 SLOAD PUSH2 0x1B35 JUMP JUMPDEST PUSH1 0x40 MLOAD PUSH3 0x461BCD PUSH1 0xE5 SHL DUP2 MSTORE PUSH1 0x20 PUSH1 0x4 DUP3 ADD MSTORE PUSH1 0x17 PUSH1 0x24 DUP3 ADD MSTORE PUSH23 0x343434342069732045504943206E6F7420554E49515545 PUSH1 0x48 SHL PUSH1 0x44 DUP3 ADD MSTORE REVERT JUMPDEST PUSH1 0x40 MLOAD PUSH3 0x461BCD PUSH1 0xE5 SHL DUP2 MSTORE PUSH1 0x20 PUSH1 0x4 DUP3 ADD MSTORE PUSH1 0x2E PUSH1 0x24 DUP3 ADD MSTORE PUSH32 0x416C6C207175616472616E7473206D7573742062652033206F72203420666F72 PUSH1 0x44 DUP3 ADD MSTORE PUSH14 0x20554E4951554520726172697479 PUSH1 0x90 SHL DUP2 DUP5 ADD MSTORE PUSH1 0x84 SWAP1 REVERT JUMPDEST PUSH1 0xFF SWAP2 POP MLOAD AND PUSH1 0x3 DUP2 EQ SWAP1 DUP2 ISZERO PUSH2 0x2162 JUMPI JUMPDEST POP CODESIZE PUSH2 0x208D JUMP JUMPDEST PUSH1 0x4 SWAP2 POP EQ CODESIZE PUSH2 0x215B JUMP JUMPDEST PUSH1 0xFF SWAP2 SWAP3 POP MLOAD AND PUSH1 0x3 DUP2 EQ SWAP1 DUP2 ISZERO PUSH2 0x2188 JUMPI JUMPDEST POP SWAP1 CODESIZE PUSH2 0x2086 JUMP JUMPDEST PUSH1 0x4 SWAP2 POP EQ CODESIZE PUSH2 0x2180 JUMP JUMPDEST PUSH1 0xFF SWAP2 SWAP4 POP MLOAD AND PUSH1 0x3 DUP2 EQ SWAP1 DUP2 ISZERO PUSH2 0x21AE JUMPI JUMPDEST POP SWAP2 CODESIZE PUSH2 0x207F JUMP JUMPDEST PUSH1 0x4 SWAP2 POP EQ CODESIZE PUSH2 0x21A6 JUMP JUMPDEST PUSH1 0x4 EQ SWAP4 POP CODESIZE PUSH2 0x2078 JUMP JUMPDEST PUSH1 0x4 CALLDATALOAD PUSH1 0x3 SUB PUSH2 0x232D JUMPI PUSH1 0xFF DUP8 MLOAD AND SWAP3 PUSH1 0x4 DUP5 EQ SWAP4 DUP5 ISZERO PUSH2 0x2322 JUMPI JUMPDEST POP DUP4 PUSH2 0x22FC JUMPI JUMPDEST POP DUP3 PUSH2 0x22D6 JUMPI JUMPDEST POP DUP2 PUSH2 0x22B2 JUMPI JUMPDEST POP ISZERO PUSH2 0x2259 JUMPI PUSH1 0xFF PUSH1 0x14 SWAP2 AND LT ISZERO PUSH2 0x221A JUMPI POP PUSH1 0x2C SLOAD PUSH1 0x26 SLOAD SWAP3 PUSH1 0x20 SLOAD PUSH1 0x1A SLOAD PUSH2 0x1B35 JUMP JUMPDEST PUSH1 0x40 MLOAD PUSH3 0x461BCD PUSH1 0xE5 SHL DUP2 MSTORE PUSH1 0x20 PUSH1 0x4 DUP3 ADD MSTORE PUSH1 0x1A PUSH1 0x24 DUP3 ADD MSTORE PUSH26 0x35353535206973204C4547454E44415259206E6F742045504943 PUSH1 0x30 SHL PUSH1 0x44 DUP3 ADD MSTORE REVERT JUMPDEST PUSH1 0x40 MLOAD PUSH3 0x461BCD PUSH1 0xE5 SHL DUP2 MSTORE PUSH1 0x20 PUSH1 0x4 DUP3 ADD MSTORE PUSH1 0x2C PUSH1 0x24 DUP3 ADD MSTORE PUSH32 0x416C6C207175616472616E7473206D7573742062652034206F72203520666F72 PUSH1 0x44 DUP3 ADD MSTORE PUSH12 0x204550494320726172697479 PUSH1 0xA0 SHL DUP2 DUP5 ADD MSTORE PUSH1 0x84 SWAP1 REVERT JUMPDEST PUSH1 0xFF SWAP2 POP MLOAD AND PUSH1 0x4 DUP2 EQ SWAP1 DUP2 ISZERO PUSH2 0x22CB JUMPI JUMPDEST POP CODESIZE PUSH2 0x21F5 JUMP JUMPDEST PUSH1 0x5 SWAP2 POP EQ CODESIZE PUSH2 0x22C4 JUMP JUMPDEST PUSH1 0xFF SWAP2 SWAP3 POP MLOAD AND PUSH1 0x4 DUP2 EQ SWAP1 DUP2 ISZERO PUSH2 0x22F1 JUMPI JUMPDEST POP SWAP1 CODESIZE PUSH2 0x21EE JUMP JUMPDEST PUSH1 0x5 SWAP2 POP EQ CODESIZE PUSH2 0x22E9 JUMP JUMPDEST PUSH1 0xFF SWAP2 SWAP4 POP MLOAD AND PUSH1 0x4 DUP2 EQ SWAP1 DUP2 ISZERO PUSH2 0x2317 JUMPI JUMPDEST POP SWAP2 CODESIZE PUSH2 0x21E7 JUMP JUMPDEST PUSH1 0x5 SWAP2 POP EQ CODESIZE PUSH2 0x230F JUMP JUMPDEST PUSH1 0x5 EQ SWAP4 POP CODESIZE PUSH2 0x21E0 JUMP JUMPDEST PUSH1 0x4 DUP1 CALLDATALOAD SUB PUSH2 0x249C JUMPI PUSH1 0xFF DUP8 MLOAD AND SWAP3 PUSH1 0x5 DUP5 EQ SWAP4 DUP5 ISZERO PUSH2 0x2491 JUMPI JUMPDEST POP DUP4 PUSH2 0x246B JUMPI JUMPDEST POP DUP3 PUSH2 0x2445 JUMPI JUMPDEST POP DUP2 PUSH2 0x2421 JUMPI JUMPDEST POP ISZERO PUSH2 0x23C3 JUMPI PUSH1 0xFF PUSH1 0x18 SWAP2 AND LT ISZERO PUSH2 0x2382 JUMPI POP PUSH1 0x2D SLOAD PUSH1 0x27 SLOAD SWAP3 PUSH1 0x21 SLOAD PUSH1 0x1B SLOAD PUSH2 0x1B35 JUMP JUMPDEST PUSH1 0x40 MLOAD PUSH3 0x461BCD PUSH1 0xE5 SHL DUP2 MSTORE PUSH1 0x20 PUSH1 0x4 DUP3 ADD MSTORE PUSH1 0x1C PUSH1 0x24 DUP3 ADD MSTORE PUSH28 0x36363636206973204D5954484943206E6F74204C4547454E44415259 PUSH1 0x20 SHL PUSH1 0x44 DUP3 ADD MSTORE REVERT JUMPDEST PUSH1 0x40 MLOAD PUSH3 0x461BCD PUSH1 0xE5 SHL DUP2 MSTORE PUSH1 0x20 PUSH1 0x4 DUP3 ADD MSTORE PUSH1 0x31 PUSH1 0x24 DUP3 ADD MSTORE PUSH32 0x416C6C207175616472616E7473206D7573742062652035206F72203620666F72 PUSH1 0x44 DUP3 ADD MSTORE PUSH17 0x204C4547454E4441525920726172697479 PUSH1 0x78 SHL DUP2 DUP5 ADD MSTORE PUSH1 0x84 SWAP1 REVERT JUMPDEST PUSH1 0xFF SWAP2 POP MLOAD AND PUSH1 0x5 DUP2 EQ SWAP1 DUP2 ISZERO PUSH2 0x243A JUMPI JUMPDEST POP CODESIZE PUSH2 0x235D JUMP JUMPDEST PUSH1 0x6 SWAP2 POP EQ CODESIZE PUSH2 0x2433 JUMP JUMPDEST PUSH1 0xFF SWAP2 SWAP3 POP MLOAD AND PUSH1 0x5 DUP2 EQ SWAP1 DUP2 ISZERO PUSH2 0x2460 JUMPI JUMPDEST POP SWAP1 CODESIZE PUSH2 0x2356 JUMP JUMPDEST PUSH1 0x6 SWAP2 POP EQ CODESIZE PUSH2 0x2458 JUMP JUMPDEST PUSH1 0xFF SWAP2 SWAP4 POP MLOAD AND PUSH1 0x5 DUP2 EQ SWAP1 DUP2 ISZERO PUSH2 0x2486 JUMPI JUMPDEST POP SWAP2 CODESIZE PUSH2 0x234F JUMP JUMPDEST PUSH1 0x6 SWAP2 POP EQ CODESIZE PUSH2 0x247E JUMP JUMPDEST PUSH1 0x6 EQ SWAP4 POP CODESIZE PUSH2 0x2348 JUMP JUMPDEST SWAP2 SWAP3 POP SWAP1 PUSH1 0x4 CALLDATALOAD PUSH1 0x5 SUB PUSH2 0x2563 JUMPI PUSH1 0x6 PUSH1 0xFF DUP8 MLOAD AND EQ SWAP3 DUP4 PUSH2 0x2554 JUMPI JUMPDEST POP DUP3 PUSH2 0x2545 JUMPI JUMPDEST POP DUP2 PUSH2 0x2536 JUMPI JUMPDEST POP ISZERO PUSH2 0x24E0 JUMPI POP PUSH1 0x2E SLOAD PUSH1 0x28 SLOAD SWAP3 PUSH1 0x22 SLOAD PUSH1 0x1C SLOAD PUSH2 0x1B35 JUMP JUMPDEST PUSH1 0x84 SWAP1 PUSH9 0x494320726172697479 PUSH1 0xB8 SHL PUSH1 0x40 MLOAD SWAP2 PUSH3 0x461BCD PUSH1 0xE5 SHL DUP4 MSTORE PUSH1 0x20 PUSH1 0x4 DUP5 ADD MSTORE PUSH1 0x29 PUSH1 0x24 DUP5 ADD MSTORE PUSH32 0x416C6C207175616472616E7473206D757374206265203620666F72204D595448 PUSH1 0x44 DUP5 ADD MSTORE DUP3 ADD MSTORE REVERT JUMPDEST MLOAD PUSH1 0xFF AND PUSH1 0x6 EQ SWAP1 POP CODESIZE PUSH2 0x24C7 JUMP JUMPDEST MLOAD PUSH1 0xFF AND PUSH1 0x6 EQ SWAP2 POP CODESIZE PUSH2 0x24C0 JUMP JUMPDEST MLOAD PUSH1 0xFF AND PUSH1 0x6 EQ SWAP3 POP CODESIZE PUSH2 0x24B9 JUMP JUMPDEST PUSH1 0x40 MLOAD PUSH3 0x461BCD PUSH1 0xE5 SHL DUP2 MSTORE PUSH1 0x20 PUSH1 0x4 DUP3 ADD MSTORE PUSH1 0xC PUSH1 0x24 DUP3 ADD MSTORE PUSH12 0x77726F6E6720526172697479 PUSH1 0xA0 SHL PUSH1 0x44 DUP3 ADD MSTORE DUP5 SWAP1 REVERT JUMPDEST PUSH1 0x20 DUP1 SWAP2 PUSH2 0x25A3 DUP5 PUSH2 0x5D48 JUMP JUMPDEST DUP2 MSTORE ADD SWAP2 ADD SWAP1 PUSH2 0x1A56 JUMP JUMPDEST PUSH1 0x20 DUP1 SWAP2 PUSH2 0x25BB DUP5 PUSH2 0x5D48 JUMP JUMPDEST DUP2 MSTORE ADD SWAP2 ADD SWAP1 PUSH2 0x1A2A JUMP JUMPDEST POP CALLVALUE PUSH2 0x601 JUMPI PUSH1 0x20 CALLDATASIZE PUSH1 0x3 NOT ADD SLT PUSH2 0x601 JUMPI PUSH1 0x20 SWAP1 PUSH1 0x4 CALLDATALOAD DUP2 MSTORE PUSH1 0xF DUP3 MSTORE PUSH1 0x40 PUSH1 0x1 DUP1 PUSH1 0xA0 SHL SUB SWAP2 KECCAK256 SLOAD AND PUSH1 0x40 MLOAD SWAP1 DUP2 MSTORE RETURN JUMPDEST POP CALLVALUE PUSH2 0x601 JUMPI DUP1 PUSH1 0x3 NOT CALLDATASIZE ADD SLT PUSH2 0x601 JUMPI PUSH1 0x40 MLOAD PUSH1 0x0 PUSH1 0x1 DUP3 PUSH1 0x1 SLOAD SWAP3 PUSH2 0x261F DUP5 PUSH2 0x5FAC JUMP JUMPDEST SWAP3 DUP4 DUP4 MSTORE PUSH1 0x20 SWAP5 DUP6 PUSH1 0x1 DUP3 AND SWAP2 DUP3 PUSH1 0x0 EQ PUSH2 0x269F JUMPI POP POP PUSH1 0x1 EQ PUSH2 0x265F JUMPI JUMPDEST POP PUSH2 0x264B SWAP3 POP SUB DUP4 PUSH2 0x5D00 JUMP JUMPDEST PUSH2 0x6EA PUSH1 0x40 MLOAD SWAP3 DUP3 DUP5 SWAP4 DUP5 MSTORE DUP4 ADD SWAP1 PUSH2 0x5BD3 JUMP JUMPDEST DUP5 SWAP2 POP PUSH1 0x1 PUSH1 0x0 MSTORE DUP2 PUSH1 0x0 KECCAK256 SWAP1 PUSH1 0x0 SWAP2 JUMPDEST DUP6 DUP4 LT PUSH2 0x2687 JUMPI POP POP PUSH2 0x264B SWAP4 POP DUP3 ADD ADD DUP6 PUSH2 0x263E JUMP JUMPDEST DUP1 SLOAD DUP4 DUP10 ADD DUP6 ADD MSTORE DUP8 SWAP5 POP DUP7 SWAP4 SWAP1 SWAP3 ADD SWAP2 DUP2 ADD PUSH2 0x2670 JUMP JUMPDEST PUSH1 0xFF NOT AND DUP6 DUP3 ADD MSTORE PUSH2 0x264B SWAP6 ISZERO ISZERO PUSH1 0x5 SHL DUP6 ADD ADD SWAP3 POP DUP8 SWAP2 POP PUSH2 0x263E SWAP1 POP JUMP JUMPDEST POP CALLVALUE PUSH2 0x601 JUMPI PUSH1 0x40 CALLDATASIZE PUSH1 0x3 NOT ADD SLT PUSH2 0x601 JUMPI PUSH1 0x40 PUSH2 0x26DB PUSH2 0x5C29 JUMP JUMPDEST SWAP2 PUSH1 0x4 CALLDATALOAD DUP2 MSTORE PUSH1 0x3A PUSH1 0x20 MSTORE KECCAK256 SWAP1 PUSH1 0x1 DUP1 PUSH1 0xA0 SHL SUB AND PUSH1 0x0 MSTORE PUSH1 0x20 MSTORE PUSH1 0x20 PUSH1 0xFF PUSH1 0x40 PUSH1 0x0 KECCAK256 SLOAD AND PUSH1 0x40 MLOAD SWAP1 ISZERO ISZERO DUP2 MSTORE RETURN JUMPDEST POP CALLVALUE PUSH2 0x601 JUMPI DUP1 PUSH1 0x3 NOT CALLDATASIZE ADD SLT PUSH2 0x601 JUMPI PUSH1 0x20 PUSH1 0x2D SLOAD PUSH1 0x40 MLOAD SWAP1 DUP2 MSTORE RETURN JUMPDEST POP CALLVALUE PUSH2 0x601 JUMPI DUP1 PUSH1 0x3 NOT CALLDATASIZE ADD SLT PUSH2 0x601 JUMPI PUSH1 0x20 PUSH2 0x2744 PUSH2 0x6706 JUMP JUMPDEST PUSH1 0x40 MLOAD SWAP1 ISZERO ISZERO DUP2 MSTORE RETURN JUMPDEST POP CALLVALUE PUSH2 0x601 JUMPI PUSH1 0x20 CALLDATASIZE PUSH1 0x3 NOT ADD SLT PUSH2 0x601 JUMPI PUSH1 0x4 CALLDATALOAD PUSH1 0x2F SLOAD DUP2 LT ISZERO PUSH2 0x8FF JUMPI PUSH1 0x2F PUSH1 0x0 MSTORE PUSH32 0xA813484AEF6FB598F9F753DAF162068FF39CCEA4075CB95E1A30F86995B5B7EE ADD SLOAD PUSH1 0x40 MLOAD SWAP1 DUP2 MSTORE PUSH1 0x20 SWAP1 RETURN JUMPDEST POP CALLVALUE PUSH2 0x601 JUMPI PUSH1 0x20 CALLDATASIZE PUSH1 0x3 NOT ADD SLT PUSH2 0x601 JUMPI PUSH2 0x6EA PUSH2 0xF56 PUSH2 0x27C0 PUSH2 0x5C13 JUMP JUMPDEST PUSH2 0x664E JUMP JUMPDEST POP CALLVALUE PUSH2 0x601 JUMPI DUP1 PUSH1 0x3 NOT CALLDATASIZE ADD SLT PUSH2 0x601 JUMPI PUSH1 0x0 DUP1 MLOAD PUSH1 0x20 PUSH2 0x7276 DUP4 CODECOPY DUP2 MLOAD SWAP2 MSTORE DUP2 MSTORE PUSH1 0x3A PUSH1 0x20 MSTORE PUSH1 0x40 DUP2 KECCAK256 CALLER PUSH1 0x0 MSTORE PUSH1 0x20 MSTORE PUSH2 0x2808 PUSH1 0xFF PUSH1 0x40 PUSH1 0x0 KECCAK256 SLOAD AND PUSH2 0x65E7 JUMP JUMPDEST PUSH1 0x1 PUSH1 0x16 SLOAD PUSH2 0x281A PUSH1 0xFF DUP3 AND ISZERO PUSH2 0x608B JUMP JUMPDEST PUSH1 0xFF NOT AND OR PUSH1 0x16 SSTORE PUSH32 0x62E78CEA01BEE320CD4E420270B5EA74000D11B0C9F74754EBDBFC544B05A258 PUSH1 0x20 PUSH1 0x40 MLOAD CALLER DUP2 MSTORE LOG1 DUP1 RETURN JUMPDEST POP CALLVALUE PUSH2 0x601 JUMPI PUSH1 0x20 CALLDATASIZE PUSH1 0x3 NOT ADD SLT PUSH2 0x601 JUMPI PUSH2 0xD11 PUSH2 0x286C PUSH2 0x5C13 JUMP JUMPDEST PUSH1 0x0 DUP1 MLOAD PUSH1 0x20 PUSH2 0x7296 DUP4 CODECOPY DUP2 MLOAD SWAP2 MSTORE DUP4 MSTORE PUSH1 0x3A PUSH1 0x20 MSTORE PUSH1 0x40 DUP4 KECCAK256 CALLER PUSH1 0x0 MSTORE PUSH1 0x20 MSTORE PUSH1 0xFF PUSH1 0x40 PUSH1 0x0 KECCAK256 SLOAD AND DUP1 ISZERO PUSH2 0x28D1 JUMPI JUMPDEST PUSH2 0x28A6 SWAP1 PUSH2 0x60CA JUMP JUMPDEST PUSH1 0x0 DUP1 MLOAD PUSH1 0x20 PUSH2 0x7276 DUP4 CODECOPY DUP2 MLOAD SWAP2 MSTORE DUP4 MSTORE PUSH1 0x3A PUSH1 0x20 MSTORE PUSH2 0x28CC PUSH1 0x1 PUSH1 0x40 DUP6 KECCAK256 ADD SLOAD PUSH2 0x68AE JUMP JUMPDEST PUSH2 0x696F JUMP JUMPDEST POP PUSH2 0x28A6 PUSH2 0x28DD PUSH2 0x6706 JUMP JUMPDEST SWAP1 POP PUSH2 0x289D JUMP JUMPDEST POP CALLVALUE PUSH2 0x601 JUMPI PUSH1 0x20 CALLDATASIZE PUSH1 0x3 NOT ADD SLT PUSH2 0x601 JUMPI PUSH1 0xFF PUSH1 0x40 PUSH1 0x20 SWAP3 PUSH1 0x4 CALLDATALOAD DUP2 MSTORE PUSH1 0x14 DUP5 MSTORE KECCAK256 SLOAD AND PUSH1 0x40 MLOAD SWAP1 ISZERO ISZERO DUP2 MSTORE RETURN JUMPDEST POP CALLVALUE PUSH2 0x601 JUMPI DUP1 PUSH1 0x3 NOT CALLDATASIZE ADD SLT PUSH2 0x601 JUMPI PUSH1 0x20 PUSH1 0x29 SLOAD PUSH1 0x40 MLOAD SWAP1 DUP2 MSTORE RETURN JUMPDEST POP CALLVALUE PUSH2 0x601 JUMPI DUP1 PUSH1 0x3 NOT CALLDATASIZE ADD SLT PUSH2 0x601 JUMPI PUSH1 0x20 PUSH1 0x40 MLOAD PUSH1 0x0 DUP1 MLOAD PUSH1 0x20 PUSH2 0x7296 DUP4 CODECOPY DUP2 MLOAD SWAP2 MSTORE DUP2 MSTORE RETURN JUMPDEST POP CALLVALUE PUSH2 0x601 JUMPI PUSH1 0x20 CALLDATASIZE PUSH1 0x3 NOT ADD SLT PUSH2 0x601 JUMPI PUSH2 0x969 PUSH2 0x5C13 JUMP JUMPDEST POP CALLVALUE PUSH2 0x601 JUMPI DUP1 PUSH1 0x3 NOT CALLDATASIZE ADD SLT PUSH2 0x601 JUMPI PUSH1 0x20 PUSH1 0xFF PUSH1 0x31 SLOAD AND PUSH1 0x40 MLOAD SWAP1 DUP2 MSTORE RETURN JUMPDEST POP CALLVALUE PUSH2 0x601 JUMPI DUP1 PUSH1 0x3 NOT CALLDATASIZE ADD SLT PUSH2 0x601 JUMPI PUSH1 0x35 SLOAD PUSH1 0x40 MLOAD PUSH1 0x1 PUSH1 0x1 PUSH1 0xA0 SHL SUB SWAP1 SWAP2 AND DUP2 MSTORE PUSH1 0x20 SWAP1 RETURN JUMPDEST POP CALLVALUE PUSH2 0x601 JUMPI DUP1 PUSH1 0x3 NOT CALLDATASIZE ADD SLT PUSH2 0x601 JUMPI PUSH2 0x29DA PUSH2 0x964 PUSH2 0x6706 JUMP JUMPDEST PUSH2 0xD11 CALLER PUSH2 0x6D94 JUMP JUMPDEST POP CALLVALUE PUSH2 0x601 JUMPI PUSH1 0x20 CALLDATASIZE PUSH1 0x3 NOT ADD SLT PUSH2 0x601 JUMPI PUSH2 0xD11 PUSH2 0x2A00 PUSH2 0x5C13 JUMP JUMPDEST PUSH2 0x2A0B PUSH2 0x964 PUSH2 0x6706 JUMP JUMPDEST PUSH1 0x0 DUP1 MLOAD PUSH1 0x20 PUSH2 0x7296 DUP4 CODECOPY DUP2 MLOAD SWAP2 MSTORE DUP4 MSTORE PUSH1 0x3A PUSH1 0x20 MSTORE PUSH2 0x9B4 PUSH1 0x1 PUSH1 0x40 DUP6 KECCAK256 ADD SLOAD PUSH2 0x68AE JUMP JUMPDEST POP CALLVALUE PUSH2 0x601 JUMPI PUSH1 0x20 CALLDATASIZE PUSH1 0x3 NOT ADD SLT PUSH2 0x601 JUMPI PUSH2 0x2A4B PUSH2 0x5C13 JUMP JUMPDEST PUSH2 0x2A56 PUSH2 0x964 PUSH2 0x6706 JUMP JUMPDEST CALLER PUSH1 0x1 PUSH1 0x1 PUSH1 0xA0 SHL SUB DUP3 AND SUB PUSH2 0x2A6F JUMPI PUSH2 0xD11 SWAP1 PUSH2 0x6D0C JUMP JUMPDEST PUSH1 0x40 MLOAD PUSH4 0x334BD919 PUSH1 0xE1 SHL DUP2 MSTORE PUSH1 0x4 SWAP1 REVERT JUMPDEST POP CALLVALUE PUSH2 0x601 JUMPI PUSH1 0x20 CALLDATASIZE PUSH1 0x3 NOT ADD SLT PUSH2 0x601 JUMPI PUSH2 0xBA9 PUSH1 0x40 PUSH2 0x6EA SWAP3 PUSH1 0xFF PUSH2 0x2AA6 PUSH2 0x5D38 JUMP JUMPDEST AND DUP2 MSTORE PUSH1 0x8 PUSH1 0x20 MSTORE KECCAK256 PUSH2 0x5FE6 JUMP JUMPDEST POP CALLVALUE PUSH2 0x601 JUMPI PUSH1 0x40 CALLDATASIZE PUSH1 0x3 NOT ADD SLT PUSH2 0x601 JUMPI PUSH1 0x20 SWAP1 PUSH1 0x40 SWAP1 PUSH1 0x1 PUSH1 0x1 PUSH1 0xA0 SHL SUB PUSH2 0x2ADC PUSH2 0x5C13 JUMP JUMPDEST AND DUP2 MSTORE PUSH1 0x13 DUP4 MSTORE DUP2 DUP2 KECCAK256 PUSH1 0x24 CALLDATALOAD DUP3 MSTORE DUP4 MSTORE KECCAK256 SLOAD PUSH1 0x40 MLOAD SWAP1 DUP2 MSTORE RETURN JUMPDEST POP CALLVALUE PUSH2 0x601 JUMPI DUP1 PUSH1 0x3 NOT CALLDATASIZE ADD SLT PUSH2 0x601 JUMPI PUSH1 0x20 PUSH1 0xFF PUSH1 0x36 SLOAD PUSH1 0xA0 SHR AND PUSH1 0x40 MLOAD SWAP1 ISZERO ISZERO DUP2 MSTORE RETURN JUMPDEST POP CALLVALUE PUSH2 0x601 JUMPI PUSH1 0x20 CALLDATASIZE PUSH1 0x3 NOT ADD SLT PUSH2 0x601 JUMPI PUSH1 0x20 PUSH2 0x2B3C PUSH1 0x4 CALLDATALOAD PUSH2 0x6793 JUMP JUMPDEST PUSH1 0x40 MLOAD PUSH1 0x1 PUSH1 0x1 PUSH1 0xA0 SHL SUB SWAP1 SWAP2 AND DUP2 MSTORE RETURN JUMPDEST POP CALLVALUE PUSH2 0x601 JUMPI DUP1 PUSH1 0x3 NOT CALLDATASIZE ADD SLT PUSH2 0x601 JUMPI PUSH1 0x20 PUSH1 0x1C SLOAD PUSH1 0x40 MLOAD SWAP1 DUP2 MSTORE RETURN JUMPDEST POP CALLVALUE PUSH2 0x601 JUMPI PUSH1 0x20 CALLDATASIZE PUSH1 0x3 NOT ADD SLT PUSH2 0x601 JUMPI PUSH1 0x4 CALLDATALOAD SWAP1 PUSH1 0x7 SLOAD DUP3 LT ISZERO PUSH2 0x601 JUMPI PUSH2 0x2BEE PUSH2 0x2B98 DUP4 PUSH2 0x5F77 JUMP JUMPDEST POP DUP1 SLOAD PUSH2 0x2C17 PUSH1 0xFF PUSH1 0x1 DUP5 ADD SLOAD AND SWAP3 PUSH1 0x4 DUP2 ADD SLOAD SWAP3 PUSH1 0x5 DUP3 ADD SLOAD PUSH1 0x6 DUP4 ADD SLOAD PUSH1 0xFF PUSH1 0x7 DUP6 ADD SLOAD AND SWAP1 PUSH1 0x8 DUP6 ADD SLOAD SWAP3 PUSH1 0xA PUSH2 0x2BD4 PUSH1 0x9 DUP9 ADD PUSH2 0x5FE6 JUMP JUMPDEST SWAP7 ADD SLOAD SWAP8 PUSH1 0x40 MLOAD SWAP11 DUP12 SWAP11 PUSH2 0x120 SWAP8 DUP13 MSTORE PUSH1 0x20 DUP13 ADD SWAP1 PUSH2 0x5E2F JUMP JUMPDEST PUSH1 0x40 DUP11 ADD MSTORE PUSH1 0x60 DUP10 ADD MSTORE PUSH1 0x80 DUP9 ADD MSTORE ISZERO ISZERO PUSH1 0xA0 DUP8 ADD MSTORE PUSH1 0xC0 DUP7 ADD MSTORE DUP1 PUSH1 0xE0 DUP7 ADD MSTORE DUP5 ADD SWAP1 PUSH2 0x5BD3 JUMP JUMPDEST SWAP1 PUSH2 0x100 DUP4 ADD MSTORE SUB SWAP1 RETURN JUMPDEST POP CALLVALUE PUSH2 0x601 JUMPI DUP1 PUSH1 0x3 NOT CALLDATASIZE ADD SLT PUSH2 0x601 JUMPI PUSH1 0x33 SLOAD PUSH1 0x40 MLOAD PUSH1 0x1 PUSH1 0x1 PUSH1 0xA0 SHL SUB SWAP1 SWAP2 AND DUP2 MSTORE PUSH1 0x20 SWAP1 RETURN JUMPDEST POP CALLVALUE PUSH2 0x601 JUMPI DUP1 PUSH1 0x3 NOT CALLDATASIZE ADD SLT PUSH2 0x601 JUMPI PUSH1 0x20 PUSH1 0xFF PUSH1 0x16 SLOAD AND PUSH1 0x40 MLOAD SWAP1 ISZERO ISZERO DUP2 MSTORE RETURN JUMPDEST POP CALLVALUE PUSH2 0x601 JUMPI DUP1 PUSH1 0x3 NOT CALLDATASIZE ADD SLT PUSH2 0x601 JUMPI PUSH1 0x20 PUSH1 0x26 SLOAD PUSH1 0x40 MLOAD SWAP1 DUP2 MSTORE RETURN JUMPDEST POP CALLVALUE PUSH2 0x601 JUMPI DUP1 PUSH1 0x3 NOT CALLDATASIZE ADD SLT PUSH2 0x601 JUMPI PUSH1 0x20 PUSH1 0x30 SLOAD PUSH1 0x40 MLOAD SWAP1 DUP2 MSTORE RETURN JUMPDEST POP CALLVALUE PUSH2 0x601 JUMPI PUSH1 0x20 CALLDATASIZE PUSH1 0x3 NOT ADD SLT PUSH2 0x601 JUMPI PUSH1 0x20 SWAP1 PUSH1 0xFF SWAP1 PUSH1 0x40 SWAP1 PUSH1 0x1 PUSH1 0x1 PUSH1 0xA0 SHL SUB PUSH2 0x2CD5 PUSH2 0x5C13 JUMP JUMPDEST AND DUP2 MSTORE PUSH1 0x38 DUP5 MSTORE KECCAK256 SLOAD AND PUSH1 0x40 MLOAD SWAP1 ISZERO ISZERO DUP2 MSTORE RETURN JUMPDEST POP CALLVALUE PUSH2 0x601 JUMPI PUSH1 0x20 CALLDATASIZE PUSH1 0x3 NOT ADD SLT PUSH2 0x601 JUMPI PUSH1 0x4 CALLDATALOAD PUSH4 0xFFFFFFFF PUSH1 0xE0 SHL DUP2 AND DUP1 SWAP2 SUB PUSH2 0x8FF JUMPI SWAP1 PUSH1 0x20 SWAP2 DUP2 MSTORE PUSH1 0x39 DUP3 MSTORE PUSH1 0x40 PUSH1 0x1 DUP1 PUSH1 0xA0 SHL SUB SWAP2 KECCAK256 SLOAD AND PUSH1 0x40 MLOAD SWAP1 DUP2 MSTORE RETURN JUMPDEST POP CALLVALUE PUSH2 0x601 JUMPI DUP1 PUSH1 0x3 NOT CALLDATASIZE ADD SLT PUSH2 0x601 JUMPI PUSH1 0x36 SLOAD PUSH1 0x40 MLOAD PUSH1 0x1 PUSH1 0x1 PUSH1 0xA0 SHL SUB SWAP1 SWAP2 AND DUP2 MSTORE PUSH1 0x20 SWAP1 RETURN JUMPDEST POP CALLVALUE PUSH2 0x601 JUMPI PUSH1 0x40 CALLDATASIZE PUSH1 0x3 NOT ADD SLT PUSH2 0x601 JUMPI PUSH2 0x9C3 PUSH2 0x2D74 PUSH2 0x5F1A JUMP JUMPDEST PUSH2 0x2D89 PUSH1 0x1 DUP1 PUSH1 0xA0 SHL SUB PUSH1 0x34 SLOAD AND CALLER EQ PUSH2 0x610B JUMP JUMPDEST PUSH1 0x7 PUSH2 0x2D96 PUSH1 0x4 CALLDATALOAD PUSH2 0x5F77 JUMP JUMPDEST POP ADD PUSH2 0x63F5 JUMP JUMPDEST POP CALLVALUE PUSH2 0x601 JUMPI DUP1 PUSH1 0x3 NOT CALLDATASIZE ADD SLT PUSH2 0x601 JUMPI DUP1 PUSH1 0x7 SLOAD JUMPDEST DUP1 DUP4 LT PUSH2 0x2DC5 JUMPI PUSH1 0x20 DUP3 PUSH1 0x40 MLOAD SWAP1 DUP2 MSTORE RETURN JUMPDEST SWAP1 PUSH2 0x2DE0 PUSH1 0x1 SWAP2 PUSH1 0x8 PUSH2 0x2DD7 DUP7 PUSH2 0x5F77 JUMP JUMPDEST POP ADD SLOAD SWAP1 PUSH2 0x63A7 JUMP JUMPDEST SWAP3 ADD SWAP2 SWAP1 PUSH2 0x2DB3 JUMP JUMPDEST POP CALLVALUE PUSH2 0x601 JUMPI PUSH2 0x2DF8 CALLDATASIZE PUSH2 0x5DFA JUMP JUMPDEST PUSH1 0x40 SWAP4 SWAP3 SWAP4 MLOAD SWAP2 PUSH2 0x2E08 DUP4 PUSH2 0x5CCA JUMP JUMPDEST DUP4 DUP4 MSTORE PUSH2 0x2E1A PUSH1 0xFF PUSH1 0x16 SLOAD AND ISZERO PUSH2 0x608B JUMP JUMPDEST PUSH2 0x2E25 DUP3 CALLER DUP8 PUSH2 0x6F00 JUMP JUMPDEST ADDRESS EXTCODESIZE ISZERO PUSH2 0x2E85 JUMPI PUSH1 0x40 MLOAD PUSH4 0x23B872DD PUSH1 0xE0 SHL DUP2 MSTORE DUP5 DUP2 DUP1 PUSH2 0x2E4B DUP7 DUP7 DUP12 PUSH1 0x4 DUP6 ADD PUSH2 0x6385 JUMP JUMPDEST SUB DUP2 DUP4 ADDRESS GAS CALL DUP1 ISZERO PUSH2 0x2E7A JUMPI PUSH2 0x2E67 JUMPI JUMPDEST POP PUSH2 0x9C3 SWAP4 SWAP5 PUSH2 0x6FBF JUMP JUMPDEST SWAP4 PUSH2 0x2E74 PUSH2 0x9C3 SWAP6 PUSH2 0x5C65 JUMP JUMPDEST SWAP4 PUSH2 0x2E5C JUMP JUMPDEST PUSH1 0x40 MLOAD RETURNDATASIZE DUP8 DUP3 RETURNDATACOPY RETURNDATASIZE SWAP1 REVERT JUMPDEST DUP4 DUP1 REVERT JUMPDEST POP CALLVALUE PUSH2 0x601 JUMPI DUP1 PUSH1 0x3 NOT CALLDATASIZE ADD SLT PUSH2 0x601 JUMPI PUSH1 0x0 DUP1 MLOAD PUSH1 0x20 PUSH2 0x7276 DUP4 CODECOPY DUP2 MLOAD SWAP2 MSTORE DUP2 MSTORE PUSH1 0x3A PUSH1 0x20 MSTORE PUSH1 0x40 DUP2 KECCAK256 CALLER DUP3 MSTORE PUSH1 0x20 MSTORE PUSH2 0x2ECA PUSH1 0xFF PUSH1 0x40 DUP4 KECCAK256 SLOAD AND PUSH2 0x65E7 JUMP JUMPDEST PUSH1 0x16 SLOAD PUSH2 0x2EDA PUSH1 0xFF DUP3 AND ISZERO PUSH2 0x608B JUMP JUMPDEST PUSH1 0xFF NOT AND PUSH1 0x16 SSTORE PUSH32 0x5DB9EE0A495BF2E6FF9C91A7834C1BA4FDD244A5E8AA4E537BD38AEAE4B073AA PUSH1 0x20 PUSH1 0x40 MLOAD CALLER DUP2 MSTORE LOG1 DUP1 RETURN JUMPDEST POP CALLVALUE PUSH2 0x601 JUMPI DUP1 PUSH1 0x3 NOT CALLDATASIZE ADD SLT PUSH2 0x601 JUMPI PUSH1 0x20 PUSH1 0x40 MLOAD PUSH1 0x0 DUP1 MLOAD PUSH1 0x20 PUSH2 0x7276 DUP4 CODECOPY DUP2 MLOAD SWAP2 MSTORE DUP2 MSTORE RETURN JUMPDEST POP CALLVALUE PUSH2 0x601 JUMPI PUSH1 0x40 CALLDATASIZE PUSH1 0x3 NOT ADD SLT PUSH2 0x601 JUMPI PUSH32 0x0 PUSH1 0x1 PUSH1 0x1 PUSH1 0xA0 SHL SUB AND CALLER DUP2 SWAP1 SUB PUSH2 0x33BD JUMPI POP PUSH1 0x4 CALLDATALOAD DUP2 MSTORE PUSH1 0x15 PUSH1 0x20 MSTORE PUSH1 0xFF PUSH1 0x1 PUSH1 0x40 DUP4 KECCAK256 ADD SLOAD AND ISZERO PUSH2 0x3385 JUMPI PUSH1 0x4 CALLDATALOAD DUP2 MSTORE PUSH1 0x15 PUSH1 0x20 MSTORE PUSH1 0x40 DUP2 KECCAK256 PUSH1 0x1 DUP2 ADD PUSH2 0x100 PUSH2 0xFF00 NOT DUP3 SLOAD AND OR SWAP1 SSTORE PUSH1 0x24 CALLDATALOAD PUSH1 0x2 DUP3 ADD SSTORE SLOAD PUSH2 0x2FD3 PUSH1 0x2 PUSH2 0x2FCC DUP4 PUSH2 0x5F77 JUMP JUMPDEST POP ADD PUSH2 0x6412 JUMP JUMPDEST PUSH1 0xFF DUP2 MLOAD AND PUSH1 0xFF PUSH1 0x20 DUP4 ADD MLOAD AND SWAP2 PUSH1 0xFF PUSH1 0x60 DUP2 PUSH1 0x40 DUP5 ADD MLOAD AND SWAP3 ADD MLOAD AND SWAP2 PUSH2 0x3016 DUP7 SWAP4 PUSH2 0x3011 PUSH1 0x7 SLOAD SWAP5 PUSH2 0x3011 PUSH2 0x3009 DUP8 PUSH2 0x616D JUMP JUMPDEST SWAP9 DUP12 SWAP7 PUSH2 0x6766 JUMP JUMPDEST PUSH2 0x6766 JUMP JUMPDEST DUP7 JUMPDEST DUP4 DUP2 LT PUSH2 0x3298 JUMPI POP POP POP POP PUSH2 0x302C DUP2 PUSH2 0x616D JUMP JUMPDEST SWAP2 DUP5 JUMPDEST DUP3 DUP2 LT PUSH2 0x3279 JUMPI POP POP PUSH32 0xDD6EBB40766C50572C78F680F70FF043535BC04E71AC56A352F7C3DF1E11EC51 PUSH1 0x40 MLOAD DUP3 DUP2 MSTORE PUSH1 0x40 PUSH1 0x20 DUP3 ADD MSTORE DUP1 PUSH2 0x3074 PUSH1 0x40 DUP3 ADD DUP7 PUSH2 0x5DC6 JUMP JUMPDEST SUB SWAP1 LOG1 DUP1 ISZERO DUP1 PUSH2 0x3236 JUMPI PUSH2 0x3222 JUMPI PUSH2 0x31A9 SWAP3 SWAP2 PUSH2 0x3095 SWAP2 PUSH1 0x24 CALLDATALOAD MOD SWAP1 PUSH2 0x619F JUMP JUMPDEST MLOAD PUSH1 0x4 CALLDATALOAD DUP5 MSTORE PUSH1 0x15 PUSH1 0x20 MSTORE PUSH1 0x3 PUSH1 0x40 DUP6 KECCAK256 ADD SSTORE PUSH1 0x7 PUSH2 0x30B3 DUP3 PUSH2 0x5F77 JUMP JUMPDEST POP ADD PUSH1 0xFF NOT SWAP1 DUP2 DUP2 SLOAD AND SWAP1 SSTORE DUP4 PUSH1 0xA PUSH2 0x30CB DUP5 PUSH2 0x5F77 JUMP JUMPDEST POP ADD SSTORE PUSH1 0x4 CALLDATALOAD DUP5 MSTORE PUSH1 0x15 PUSH1 0x20 MSTORE PUSH2 0x30FE PUSH2 0x30F8 PUSH1 0xFF PUSH1 0x1 PUSH2 0x30EF PUSH1 0x40 DUP10 KECCAK256 SLOAD PUSH2 0x5F77 JUMP JUMPDEST POP ADD SLOAD AND PUSH2 0x719A JUMP JUMPDEST TIMESTAMP PUSH2 0x63A7 JUMP JUMPDEST PUSH1 0x4 PUSH2 0x3109 DUP5 PUSH2 0x5F77 JUMP JUMPDEST POP ADD SSTORE PUSH1 0x1 PUSH1 0x1 PUSH1 0xA0 SHL SUB PUSH2 0x311D DUP4 PUSH2 0x6793 JUMP JUMPDEST AND DUP5 MSTORE PUSH1 0x12 PUSH1 0x20 MSTORE PUSH1 0x40 DUP5 KECCAK256 DUP3 DUP6 MSTORE PUSH1 0x20 MSTORE PUSH1 0x40 DUP5 KECCAK256 SWAP1 DUP2 SLOAD AND SWAP1 SSTORE PUSH1 0x1 DUP1 PUSH1 0xA0 SHL SUB PUSH2 0x3149 DUP3 PUSH2 0x6793 JUMP JUMPDEST AND DUP4 MSTORE PUSH1 0x13 PUSH1 0x20 SWAP1 DUP2 MSTORE PUSH1 0x40 DUP1 DUP6 KECCAK256 DUP4 DUP7 MSTORE DUP3 MSTORE DUP1 DUP6 KECCAK256 DUP6 SWAP1 SSTORE PUSH1 0x33 SLOAD PUSH1 0x4 DUP1 CALLDATALOAD DUP8 MSTORE PUSH1 0x15 DUP5 MSTORE DUP3 DUP8 KECCAK256 DUP1 DUP3 ADD SLOAD PUSH1 0x3 SWAP1 SWAP2 ADD SLOAD SWAP4 MLOAD PUSH4 0x48DBCEF PUSH1 0xE4 SHL DUP2 MSTORE SWAP7 DUP8 SWAP5 PUSH1 0x1 PUSH1 0x1 PUSH1 0xA0 SHL SUB SWAP5 DUP6 AND SWAP5 DUP7 SWAP5 DUP12 SWAP5 DUP7 SWAP5 SWAP4 SWAP3 AND SWAP1 DUP5 ADD PUSH2 0x6513 JUMP JUMPDEST SUB SWAP3 GAS CALL SWAP1 DUP2 ISZERO PUSH2 0x3217 JUMPI PUSH2 0x31EA PUSH2 0x88B SWAP3 PUSH32 0x97B363697F59781EFCF0539A3EEABCEEA1E3B444E248009D3730FA6A26DB9C24 SWAP5 DUP7 SWAP2 PUSH2 0x31F8 JUMPI JUMPDEST POP PUSH2 0x652E JUMP JUMPDEST PUSH1 0x40 MLOAD SWAP2 DUP3 SWAP2 CALLER SWAP1 DUP4 PUSH2 0x677A JUMP JUMPDEST PUSH2 0x3211 SWAP2 POP PUSH1 0x20 RETURNDATASIZE PUSH1 0x20 GT PUSH2 0x8ED JUMPI PUSH2 0x8DF DUP2 DUP4 PUSH2 0x5D00 JUMP JUMPDEST CODESIZE PUSH2 0x31E4 JUMP JUMPDEST PUSH1 0x40 MLOAD RETURNDATASIZE DUP6 DUP3 RETURNDATACOPY RETURNDATASIZE SWAP1 REVERT JUMPDEST PUSH4 0x4E487B71 PUSH1 0xE0 SHL DUP5 MSTORE PUSH1 0x12 PUSH1 0x4 MSTORE PUSH1 0x24 DUP5 REVERT JUMPDEST POP POP POP PUSH1 0x20 PUSH32 0x87C3BADC36A4B7C7F2331493A7998C2F9C414769A1BC588EF4B4C7EF302AEB51 SWAP2 PUSH1 0x4 CALLDATALOAD DUP5 MSTORE PUSH1 0x15 DUP3 MSTORE DUP4 PUSH1 0x3 PUSH1 0x40 DUP3 KECCAK256 ADD SSTORE PUSH1 0x40 MLOAD SWAP1 DUP2 MSTORE LOG1 DUP1 RETURN JUMPDEST DUP1 PUSH2 0x3286 PUSH1 0x1 SWAP3 DUP5 PUSH2 0x619F JUMP JUMPDEST MLOAD PUSH2 0x3291 DUP3 DUP8 PUSH2 0x619F JUMP JUMPDEST MSTORE ADD PUSH2 0x302F JUMP JUMPDEST PUSH2 0x32E3 PUSH2 0x32C9 PUSH1 0xFF PUSH1 0x2 PUSH2 0x32AB DUP6 PUSH2 0x5F77 JUMP JUMPDEST POP ADD SLOAD AND PUSH1 0xFF PUSH1 0x2 PUSH2 0x32BC DUP7 PUSH2 0x5F77 JUMP JUMPDEST POP ADD SLOAD PUSH1 0x8 SHR AND SWAP1 PUSH2 0x6766 JUMP JUMPDEST PUSH1 0xFF PUSH1 0x2 PUSH2 0x32D6 DUP6 PUSH2 0x5F77 JUMP JUMPDEST POP ADD SLOAD PUSH1 0x10 SHR AND SWAP1 PUSH2 0x6766 JUMP JUMPDEST PUSH1 0xFF PUSH2 0x3306 PUSH2 0x32F1 DUP5 PUSH2 0x5F77 JUMP JUMPDEST POP SWAP3 DUP3 PUSH1 0x2 DUP2 DUP9 AND SWAP6 ADD SLOAD PUSH1 0x18 SHR AND SWAP1 PUSH2 0x6766 JUMP JUMPDEST AND LT DUP1 PUSH2 0x3361 JUMPI JUMPDEST DUP1 PUSH2 0x3349 JUMPI JUMPDEST PUSH2 0x3321 JUMPI JUMPDEST PUSH1 0x1 ADD PUSH2 0x3018 JUMP JUMPDEST SWAP4 SWAP2 PUSH1 0x1 DUP1 DUP1 SWAP3 PUSH2 0x3331 DUP9 PUSH2 0x5F77 JUMP JUMPDEST POP SLOAD PUSH2 0x333D DUP3 DUP12 PUSH2 0x619F JUMP JUMPDEST MSTORE ADD SWAP4 ADD SWAP5 SWAP1 POP PUSH2 0x3319 JUMP JUMPDEST POP PUSH1 0xFF PUSH1 0x7 PUSH2 0x3357 DUP4 PUSH2 0x5F77 JUMP JUMPDEST POP ADD SLOAD AND ISZERO PUSH2 0x3314 JUMP JUMPDEST POP DUP1 DUP9 MSTORE PUSH1 0xF PUSH1 0x20 MSTORE PUSH1 0x40 DUP9 KECCAK256 SLOAD PUSH1 0x33 SLOAD PUSH1 0x1 PUSH1 0x1 PUSH1 0xA0 SHL SUB SWAP1 DUP2 AND SWAP2 AND EQ PUSH2 0x330E JUMP JUMPDEST PUSH1 0x40 MLOAD PUSH3 0x461BCD PUSH1 0xE5 SHL DUP2 MSTORE PUSH1 0x20 PUSH1 0x4 DUP3 ADD MSTORE PUSH1 0x10 PUSH1 0x24 DUP3 ADD MSTORE PUSH16 0x52657175657374206E6F74206D616465 PUSH1 0x80 SHL PUSH1 0x44 DUP3 ADD MSTORE PUSH1 0x64 SWAP1 REVERT JUMPDEST PUSH1 0x44 SWAP1 PUSH1 0x40 MLOAD SWAP1 PUSH4 0x73E64FD PUSH1 0xE2 SHL DUP3 MSTORE CALLER PUSH1 0x4 DUP4 ADD MSTORE PUSH1 0x24 DUP3 ADD MSTORE REVERT JUMPDEST POP CALLVALUE PUSH2 0x601 JUMPI PUSH1 0x40 CALLDATASIZE PUSH1 0x3 NOT ADD SLT PUSH2 0x601 JUMPI PUSH2 0x33F5 PUSH2 0x5C29 JUMP JUMPDEST CALLER PUSH1 0x1 PUSH1 0x1 PUSH1 0xA0 SHL SUB DUP3 AND SUB PUSH2 0x2A6F JUMPI PUSH2 0xD11 SWAP1 PUSH1 0x4 CALLDATALOAD PUSH2 0x6E87 JUMP JUMPDEST POP CALLVALUE PUSH2 0x601 JUMPI PUSH1 0x80 CALLDATASIZE PUSH1 0x3 NOT ADD SLT PUSH2 0x601 JUMPI PUSH1 0x4 CALLDATALOAD SWAP1 PUSH1 0x1 PUSH1 0x1 PUSH1 0x40 SHL SUB DUP3 GT PUSH2 0x601 JUMPI CALLDATASIZE PUSH1 0x23 DUP4 ADD SLT ISZERO PUSH2 0x601 JUMPI DUP2 PUSH1 0x4 ADD CALLDATALOAD SWAP2 PUSH2 0x344F DUP4 PUSH2 0x5D21 JUMP JUMPDEST SWAP3 PUSH2 0x345D PUSH1 0x40 MLOAD SWAP5 DUP6 PUSH2 0x5D00 JUMP JUMPDEST DUP1 DUP5 MSTORE PUSH1 0x24 PUSH1 0x20 DUP6 ADD SWAP2 DUP3 PUSH2 0x100 MSTORE PUSH1 0x5 SHL DUP4 ADD ADD SWAP2 CALLDATASIZE DUP4 GT PUSH2 0x2E85 JUMPI PUSH1 0x24 ADD SWAP1 JUMPDEST DUP3 DUP3 LT PUSH2 0x39E9 JUMPI POP POP POP PUSH1 0x6 PUSH1 0x24 CALLDATALOAD LT ISZERO PUSH2 0x601 JUMPI CALLDATASIZE PUSH1 0x63 SLT ISZERO PUSH2 0x601 JUMPI PUSH1 0x40 MLOAD SWAP1 PUSH2 0x34AA DUP3 PUSH2 0x5CE5 JUMP JUMPDEST PUSH1 0x84 DUP3 CALLDATASIZE DUP3 GT PUSH2 0x397F JUMPI PUSH1 0x44 SWAP1 JUMPDEST DUP3 DUP3 LT PUSH2 0x39D1 JUMPI POP POP POP PUSH2 0x34D1 PUSH1 0xFF PUSH1 0x16 SLOAD AND ISZERO PUSH2 0x608B JUMP JUMPDEST PUSH1 0x1E SLOAD PUSH2 0x120 MSTORE PUSH1 0x1F SLOAD PUSH2 0x160 MSTORE PUSH1 0x20 SLOAD PUSH1 0x21 SLOAD PUSH1 0x22 SLOAD PUSH1 0x24 SLOAD PUSH1 0x25 SLOAD PUSH1 0x26 SLOAD PUSH1 0x27 SLOAD PUSH1 0x28 SLOAD SWAP1 PUSH1 0x18 SLOAD SWAP3 PUSH1 0x19 SLOAD SWAP5 PUSH1 0x1A SLOAD SWAP7 PUSH1 0x1B SLOAD SWAP9 PUSH1 0x1C SLOAD SWAP11 PUSH1 0x2A SLOAD SWAP13 PUSH1 0x2B SLOAD PUSH1 0x80 MSTORE PUSH1 0x2C SLOAD PUSH1 0xC0 MSTORE PUSH1 0x2D SLOAD PUSH2 0x140 MSTORE PUSH1 0x2E SLOAD PUSH1 0xE0 MSTORE PUSH1 0x40 MLOAD PUSH1 0xA0 MSTORE PUSH1 0xA0 MLOAD PUSH2 0x280 PUSH1 0xA0 MLOAD ADD LT PUSH1 0x1 PUSH1 0x1 PUSH1 0x40 SHL SUB PUSH2 0x280 PUSH1 0xA0 MLOAD ADD GT OR PUSH2 0x39BD JUMPI PUSH2 0x280 PUSH1 0xA0 MLOAD ADD PUSH1 0x40 MSTORE PUSH2 0x120 MLOAD PUSH1 0xA0 MLOAD MSTORE PUSH2 0x160 MLOAD PUSH1 0x20 PUSH1 0xA0 MLOAD ADD MSTORE PUSH1 0x40 PUSH1 0xA0 MLOAD ADD MSTORE PUSH1 0x60 PUSH1 0xA0 MLOAD ADD MSTORE PUSH1 0x80 PUSH1 0xA0 MLOAD ADD MSTORE PUSH1 0xA0 DUP1 MLOAD ADD MSTORE PUSH1 0xC0 PUSH1 0xA0 MLOAD ADD MSTORE PUSH1 0xE0 PUSH1 0xA0 MLOAD ADD MSTORE PUSH2 0x100 PUSH1 0xA0 MLOAD ADD MSTORE PUSH2 0x120 PUSH1 0xA0 MLOAD ADD MSTORE PUSH2 0x140 PUSH1 0xA0 MLOAD ADD MSTORE PUSH2 0x160 PUSH1 0xA0 MLOAD ADD MSTORE PUSH2 0x180 PUSH1 0xA0 MLOAD ADD MSTORE PUSH2 0x1A0 PUSH1 0xA0 MLOAD ADD MSTORE PUSH2 0x1C0 PUSH1 0xA0 MLOAD ADD MSTORE PUSH2 0x1E0 PUSH1 0xA0 MLOAD ADD MSTORE PUSH1 0x80 MLOAD PUSH2 0x200 PUSH1 0xA0 MLOAD ADD MSTORE PUSH1 0xC0 MLOAD PUSH2 0x220 PUSH1 0xA0 MLOAD ADD MSTORE PUSH2 0x140 MLOAD PUSH2 0x240 PUSH1 0xA0 MLOAD ADD MSTORE PUSH1 0xE0 MLOAD PUSH2 0x260 PUSH1 0xA0 MLOAD ADD MSTORE PUSH1 0x80 PUSH1 0x40 MLOAD PUSH2 0x3610 DUP2 PUSH2 0x5CAF JUMP JUMPDEST CALLDATASIZE SWAP1 CALLDATACOPY PUSH1 0x40 MLOAD PUSH4 0x41264BFF PUSH1 0xE0 SHL DUP2 MSTORE PUSH1 0x7 PUSH1 0x4 DUP3 ADD MSTORE PUSH1 0xF PUSH1 0x24 DUP3 ADD MSTORE PUSH1 0x10 PUSH1 0x44 DUP3 ADD MSTORE CALLER PUSH1 0x64 DUP3 ADD MSTORE PUSH2 0x380 PUSH1 0x84 DUP3 ADD MSTORE DUP4 MLOAD PUSH2 0x384 DUP3 ADD DUP2 SWAP1 MSTORE PUSH2 0x100 MLOAD PUSH2 0x3A4 DUP4 ADD SWAP2 DUP5 JUMPDEST DUP2 DUP2 LT PUSH2 0x39A7 JUMPI POP POP POP PUSH2 0x3672 PUSH1 0xA4 DUP4 ADD PUSH1 0x24 CALLDATALOAD PUSH2 0x5E2F JUMP JUMPDEST DUP2 DUP5 DUP5 PUSH1 0xC4 DUP4 ADD JUMPDEST PUSH1 0x2 DUP3 LT PUSH2 0x398A JUMPI POP POP POP DUP1 PUSH2 0x140 SWAP3 PUSH1 0xA0 MLOAD MLOAD PUSH2 0x104 DUP4 ADD MSTORE PUSH1 0x20 PUSH1 0xA0 MLOAD ADD MLOAD PUSH2 0x124 DUP4 ADD MSTORE PUSH1 0x40 PUSH1 0xA0 MLOAD ADD MLOAD PUSH2 0x144 DUP4 ADD MSTORE PUSH1 0x60 PUSH1 0xA0 MLOAD ADD MLOAD PUSH2 0x164 DUP4 ADD MSTORE PUSH1 0x80 PUSH1 0xA0 MLOAD ADD MLOAD PUSH2 0x184 DUP4 ADD MSTORE PUSH1 0xA0 DUP1 MLOAD ADD MLOAD PUSH2 0x1A4 DUP4 ADD MSTORE PUSH1 0xC0 PUSH1 0xA0 MLOAD ADD MLOAD PUSH2 0x1C4 DUP4 ADD MSTORE PUSH1 0xE0 PUSH1 0xA0 MLOAD ADD MLOAD PUSH2 0x1E4 DUP4 ADD MSTORE PUSH2 0x100 PUSH1 0xA0 MLOAD ADD MLOAD PUSH2 0x204 DUP4 ADD MSTORE PUSH2 0x120 PUSH1 0xA0 MLOAD ADD MLOAD PUSH2 0x224 DUP4 ADD MSTORE DUP4 PUSH1 0xA0 MLOAD ADD MLOAD PUSH2 0x244 DUP4 ADD MSTORE PUSH2 0x160 PUSH1 0xA0 MLOAD ADD MLOAD PUSH2 0x264 DUP4 ADD MSTORE PUSH2 0x180 PUSH1 0xA0 MLOAD ADD MLOAD PUSH2 0x284 DUP4 ADD MSTORE PUSH2 0x1A0 PUSH1 0xA0 MLOAD ADD MLOAD PUSH2 0x2A4 DUP4 ADD MSTORE PUSH2 0x1C0 PUSH1 0xA0 MLOAD ADD MLOAD PUSH2 0x2C4 DUP4 ADD MSTORE PUSH2 0x1E0 PUSH1 0xA0 MLOAD ADD MLOAD PUSH2 0x2E4 DUP4 ADD MSTORE PUSH2 0x200 PUSH1 0xA0 MLOAD ADD MLOAD PUSH2 0x304 DUP4 ADD MSTORE PUSH2 0x220 PUSH1 0xA0 MLOAD ADD MLOAD PUSH2 0x324 DUP4 ADD MSTORE PUSH2 0x240 PUSH1 0xA0 MLOAD ADD MLOAD PUSH2 0x344 DUP4 ADD MSTORE PUSH2 0x260 PUSH1 0xA0 MLOAD ADD MLOAD PUSH2 0x364 DUP4 ADD MSTORE SUB DUP2 PUSH20 0x0 GAS DELEGATECALL SWAP1 DUP2 ISZERO PUSH2 0x1265 JUMPI DUP3 SWAP2 DUP4 SWAP2 DUP5 SWAP3 DUP6 DUP7 SWAP3 DUP8 SWAP5 PUSH2 0x38D1 JUMPI JUMPDEST POP DUP7 JUMPDEST DUP10 MLOAD DUP2 LT ISZERO PUSH2 0x383C JUMPI DUP1 PUSH2 0x37E9 PUSH2 0x7E0 PUSH2 0x37E3 PUSH1 0x1 SWAP5 DUP15 PUSH2 0x619F JUMP JUMPDEST MLOAD PUSH2 0x5F77 JUMP JUMPDEST CALLER DUP10 MSTORE PUSH1 0x10 PUSH1 0x20 MSTORE PUSH1 0x40 DUP10 KECCAK256 PUSH2 0x37FF DUP2 SLOAD PUSH2 0x68A1 JUMP JUMPDEST SWAP1 SSTORE PUSH2 0x380B DUP2 DUP13 PUSH2 0x619F JUMP JUMPDEST MLOAD DUP10 MSTORE PUSH1 0xF PUSH1 0x20 MSTORE PUSH1 0x40 DUP10 KECCAK256 DUP3 DUP1 PUSH1 0xA0 SHL SUB NOT DUP2 SLOAD AND SWAP1 SSTORE PUSH2 0x3836 PUSH2 0x3830 DUP3 DUP14 PUSH2 0x619F JUMP JUMPDEST MLOAD PUSH2 0x7103 JUMP JUMPDEST ADD PUSH2 0x37C7 JUMP JUMPDEST POP SWAP3 PUSH1 0x0 DUP1 MLOAD PUSH1 0x20 PUSH2 0x72F6 DUP4 CODECOPY DUP2 MLOAD SWAP2 MSTORE SWAP5 SWAP3 PUSH2 0x38A6 DUP8 SWAP9 SWAP4 PUSH2 0x1A0 SWAP7 PUSH2 0x3897 PUSH1 0x20 SWAP13 PUSH2 0x3869 DUP13 CALLER PUSH2 0x6B07 JUMP JUMPDEST PUSH2 0x3881 PUSH1 0x40 MLOAD PUSH2 0x3878 DUP2 PUSH2 0x5CCA JUMP JUMPDEST DUP10 DUP2 MSTORE DUP14 PUSH2 0x67CE JUMP JUMPDEST PUSH2 0x388E PUSH1 0x40 MLOAD DUP1 SWAP11 PUSH2 0x5E2F JUMP JUMPDEST DUP14 DUP10 ADD SWAP1 PUSH2 0x6575 JUMP JUMPDEST PUSH1 0x60 DUP8 ADD MSTORE PUSH1 0x80 DUP7 ADD SWAP1 PUSH2 0x65A0 JUMP JUMPDEST PUSH2 0x100 DUP5 ADD MSTORE PUSH2 0x120 DUP4 ADD MSTORE PUSH2 0x180 PUSH2 0x140 DUP4 ADD MSTORE PUSH2 0x180 DUP3 ADD MSTORE CALLER PUSH2 0x160 DUP3 ADD MSTORE LOG2 PUSH1 0x40 MLOAD SWAP1 DUP2 MSTORE RETURN JUMPDEST SWAP6 POP POP POP POP POP POP PUSH2 0x140 RETURNDATASIZE PUSH2 0x140 GT PUSH2 0x3983 JUMPI JUMPDEST PUSH2 0x38EF DUP2 DUP4 PUSH2 0x5D00 JUMP JUMPDEST DUP2 ADD SWAP1 PUSH2 0x140 DUP2 DUP4 SUB SLT PUSH2 0x397F JUMPI DUP1 MLOAD SWAP1 DUP3 PUSH1 0x3F DUP3 ADD SLT ISZERO PUSH2 0x2E85 JUMPI PUSH1 0x40 MLOAD SWAP3 PUSH2 0x3918 DUP5 PUSH2 0x5CAF JUMP JUMPDEST DUP4 SWAP1 PUSH1 0xA0 DUP4 ADD GT PUSH2 0x1261 JUMPI PUSH1 0x20 DUP3 ADD SWAP1 JUMPDEST PUSH1 0xA0 DUP4 ADD DUP3 LT PUSH2 0x3961 JUMPI POP POP PUSH1 0xA0 DUP2 ADD MLOAD SWAP2 PUSH1 0x6 DUP4 LT ISZERO PUSH2 0x1261 JUMPI PUSH1 0xC0 DUP3 ADD MLOAD PUSH1 0xE0 DUP4 ADD MLOAD PUSH2 0x100 SWAP1 SWAP4 ADD MLOAD SWAP2 SWAP5 SWAP2 SWAP3 SWAP2 SWAP1 CODESIZE PUSH2 0x37C4 JUMP JUMPDEST DUP2 MLOAD PUSH1 0xFF DUP2 AND DUP2 SUB PUSH2 0x397B JUMPI DUP2 MSTORE PUSH1 0x20 SWAP2 DUP3 ADD SWAP2 ADD PUSH2 0x3929 JUMP JUMPDEST DUP7 DUP1 REVERT JUMPDEST DUP3 DUP1 REVERT JUMPDEST POP RETURNDATASIZE PUSH2 0x38E5 JUMP JUMPDEST DUP3 SWAP4 POP PUSH1 0x20 DUP1 SWAP2 PUSH1 0xFF PUSH1 0x1 SWAP5 SWAP6 MLOAD AND DUP2 MSTORE ADD SWAP4 ADD SWAP2 ADD DUP5 SWAP3 PUSH2 0x367A JUMP JUMPDEST DUP3 MLOAD DUP5 MSTORE PUSH1 0x20 SWAP4 DUP5 ADD SWAP4 SWAP1 SWAP3 ADD SWAP2 PUSH1 0x1 ADD PUSH2 0x3659 JUMP JUMPDEST PUSH4 0x4E487B71 PUSH1 0xE0 SHL DUP16 MSTORE PUSH1 0x41 PUSH1 0x4 MSTORE PUSH1 0x24 DUP16 REVERT JUMPDEST PUSH1 0x20 DUP1 SWAP2 PUSH2 0x39DE DUP5 PUSH2 0x5D48 JUMP JUMPDEST DUP2 MSTORE ADD SWAP2 ADD SWAP1 PUSH2 0x34B8 JUMP JUMPDEST DUP2 CALLDATALOAD DUP2 MSTORE PUSH1 0x20 SWAP2 DUP3 ADD SWAP2 ADD PUSH2 0x347F JUMP JUMPDEST POP CALLVALUE PUSH2 0x601 JUMPI DUP1 PUSH1 0x3 NOT CALLDATASIZE ADD SLT PUSH2 0x601 JUMPI PUSH1 0x20 PUSH1 0x40 MLOAD PUSH3 0x33450 DUP2 MSTORE RETURN JUMPDEST POP CALLVALUE PUSH2 0x601 JUMPI PUSH1 0x40 CALLDATASIZE PUSH1 0x3 NOT ADD SLT PUSH2 0x601 JUMPI PUSH2 0x3AA0 DUP2 PUSH2 0x3A35 PUSH2 0x5C13 JUMP JUMPDEST PUSH1 0x0 DUP1 MLOAD PUSH1 0x20 PUSH2 0x7296 DUP4 CODECOPY DUP2 MLOAD SWAP2 MSTORE DUP3 MSTORE PUSH1 0x20 SWAP3 DUP4 SWAP2 PUSH1 0x3A DUP4 MSTORE PUSH1 0x40 DUP5 KECCAK256 CALLER DUP6 MSTORE DUP4 MSTORE PUSH1 0xFF PUSH1 0x40 DUP6 KECCAK256 SLOAD AND DUP1 ISZERO PUSH2 0x3ADB JUMPI JUMPDEST PUSH2 0x3A70 SWAP1 PUSH2 0x60CA JUMP JUMPDEST PUSH1 0x33 SLOAD PUSH1 0x40 MLOAD PUSH4 0x48DBCEF PUSH1 0xE4 SHL DUP2 MSTORE SWAP5 DUP6 SWAP4 PUSH1 0x1 PUSH1 0x1 PUSH1 0xA0 SHL SUB SWAP1 SWAP3 AND SWAP3 DUP5 SWAP3 DUP4 SWAP2 PUSH1 0x24 CALLDATALOAD SWAP1 PUSH1 0x4 DUP5 ADD PUSH2 0x6513 JUMP JUMPDEST SUB SWAP3 GAS CALL SWAP1 DUP2 ISZERO PUSH2 0x3217 JUMPI PUSH2 0x3ABB SWAP3 SWAP4 SWAP2 PUSH2 0x3AC4 JUMPI POP PUSH2 0x652E JUMP JUMPDEST PUSH1 0x40 MLOAD PUSH1 0x1 DUP2 MSTORE RETURN JUMPDEST PUSH2 0x3211 SWAP2 POP DUP4 RETURNDATASIZE DUP6 GT PUSH2 0x8ED JUMPI PUSH2 0x8DF DUP2 DUP4 PUSH2 0x5D00 JUMP JUMPDEST POP PUSH2 0x3A70 PUSH2 0x3AE7 PUSH2 0x6706 JUMP JUMPDEST SWAP1 POP PUSH2 0x3A67 JUMP JUMPDEST POP CALLVALUE PUSH2 0x601 JUMPI PUSH1 0x40 CALLDATASIZE PUSH1 0x3 NOT ADD SLT PUSH2 0x601 JUMPI PUSH2 0xD11 PUSH1 0x4 CALLDATALOAD PUSH2 0x3B0E PUSH2 0x5C29 JUMP JUMPDEST SWAP1 DUP1 DUP5 MSTORE PUSH1 0x3A PUSH1 0x20 MSTORE PUSH2 0x3B27 PUSH1 0x1 PUSH1 0x40 DUP7 KECCAK256 ADD SLOAD PUSH2 0x68AE JUMP JUMPDEST PUSH2 0x69F9 JUMP JUMPDEST POP CALLVALUE PUSH2 0x601 JUMPI DUP1 PUSH1 0x3 NOT CALLDATASIZE ADD SLT PUSH2 0x601 JUMPI PUSH1 0x7 SLOAD PUSH2 0x3B49 DUP2 PUSH2 0x5D21 JUMP JUMPDEST SWAP1 PUSH2 0x3B57 PUSH1 0x40 MLOAD SWAP3 DUP4 PUSH2 0x5D00 JUMP JUMPDEST DUP1 DUP3 MSTORE PUSH1 0x7 DUP4 MSTORE PUSH1 0x20 SWAP3 DUP4 DUP4 ADD SWAP2 DUP2 PUSH32 0xA66CC928B5EDB82AF9BD49922954155AB7B0942694BEA4CE44661D9A8736C688 DUP5 JUMPDEST DUP4 DUP4 LT PUSH2 0x3BEE JUMPI POP POP POP POP PUSH1 0x40 MLOAD SWAP3 DUP5 DUP5 ADD SWAP1 DUP6 DUP6 MSTORE MLOAD DUP1 SWAP2 MSTORE PUSH1 0x40 DUP5 ADD SWAP5 PUSH1 0x40 DUP3 PUSH1 0x5 SHL DUP7 ADD ADD SWAP4 SWAP3 SWAP6 JUMPDEST DUP3 DUP8 LT PUSH2 0x3BC2 JUMPI DUP6 DUP6 SUB DUP7 RETURN JUMPDEST SWAP1 SWAP2 SWAP3 SWAP4 DUP3 DUP1 PUSH2 0x3BDE PUSH1 0x1 SWAP4 PUSH1 0x3F NOT DUP11 DUP3 SUB ADD DUP7 MSTORE DUP9 MLOAD PUSH2 0x5E3C JUMP JUMPDEST SWAP7 ADD SWAP3 ADD SWAP7 ADD SWAP6 SWAP3 SWAP2 SWAP1 SWAP3 PUSH2 0x3BB5 JUMP JUMPDEST PUSH1 0xB DUP9 PUSH1 0x1 SWAP3 PUSH2 0x3C01 DUP6 SWAP12 SWAP11 SWAP9 SWAP12 PUSH2 0x6447 JUMP JUMPDEST DUP2 MSTORE ADD SWAP3 ADD SWAP3 ADD SWAP2 SWAP1 SWAP7 SWAP4 SWAP6 SWAP7 PUSH2 0x3B89 JUMP JUMPDEST POP CALLVALUE PUSH2 0x601 JUMPI PUSH1 0x20 CALLDATASIZE PUSH1 0x3 NOT ADD SLT PUSH2 0x601 JUMPI PUSH1 0x20 PUSH1 0xFF PUSH1 0x7 PUSH2 0x3C36 PUSH1 0x4 CALLDATALOAD PUSH2 0x5F77 JUMP JUMPDEST POP ADD SLOAD AND PUSH1 0x40 MLOAD SWAP1 ISZERO ISZERO DUP2 MSTORE RETURN JUMPDEST POP PUSH1 0x20 SWAP1 DUP2 PUSH1 0x3 NOT CALLDATASIZE ADD SLT PUSH2 0x601 JUMPI PUSH1 0x4 CALLDATALOAD PUSH2 0x3C65 PUSH1 0xFF PUSH1 0x16 SLOAD AND ISZERO PUSH2 0x608B JUMP JUMPDEST PUSH1 0x2 PUSH1 0x3B SLOAD EQ PUSH2 0x3F91 JUMPI PUSH1 0x2 PUSH1 0x3B SSTORE PUSH2 0x3C7D DUP2 PUSH2 0x6793 JUMP JUMPDEST PUSH1 0x1 PUSH1 0x1 PUSH1 0xA0 SHL SUB SWAP3 SWAP1 DUP4 AND CALLER EQ DUP1 ISZERO PUSH2 0x3F60 JUMPI JUMPDEST ISZERO PUSH2 0x3F1E JUMPI CALLER DUP2 MSTORE PUSH1 0x13 DUP5 MSTORE PUSH1 0x40 DUP2 KECCAK256 DUP3 DUP3 MSTORE DUP5 MSTORE PUSH2 0x3CBA PUSH1 0x40 DUP3 KECCAK256 SLOAD PUSH1 0x5 PUSH2 0x2DD7 DUP6 PUSH2 0x5F77 JUMP JUMPDEST TIMESTAMP LT PUSH2 0x3ED9 JUMPI SWAP1 PUSH1 0x7 SWAP2 PUSH2 0x3CE3 PUSH2 0x3CD0 DUP4 PUSH2 0x5F77 JUMP JUMPDEST POP PUSH1 0xFF PUSH1 0x1 SWAP6 DUP7 SWAP3 ADD SLOAD AND ISZERO ISZERO EQ PUSH2 0x63B4 JUMP JUMPDEST DUP4 PUSH2 0x3CED DUP4 PUSH2 0x6793 JUMP JUMPDEST AND DUP2 MSTORE PUSH1 0x12 DUP6 MSTORE PUSH1 0x40 DUP2 KECCAK256 DUP3 DUP3 MSTORE DUP6 MSTORE DUP3 PUSH1 0xFF PUSH1 0x40 DUP4 KECCAK256 SLOAD AND ISZERO ISZERO SUB PUSH2 0x3EA3 JUMPI PUSH1 0x40 MLOAD PUSH1 0x60 DUP2 ADD DUP2 DUP2 LT PUSH1 0x1 PUSH1 0x1 PUSH1 0x40 SHL SUB DUP3 GT OR PUSH2 0x3E8F JUMPI SWAP1 DUP7 SWAP2 PUSH1 0x40 MSTORE DUP3 DUP2 MSTORE PUSH1 0x64 DUP3 DUP3 ADD DUP5 DUP2 MSTORE PUSH1 0x40 DUP4 ADD SWAP8 PUSH3 0x33450 DUP10 MSTORE PUSH4 0xFFFFFFFF PUSH1 0x40 MLOAD SWAP10 DUP11 SWAP6 DUP7 SWAP5 PUSH4 0x9160B15 PUSH1 0xE1 SHL DUP7 MSTORE PUSH2 0xFFFF DUP1 SWAP3 MLOAD AND PUSH1 0x4 DUP8 ADD MSTORE MLOAD AND PUSH1 0x24 DUP6 ADD MSTORE MLOAD AND PUSH1 0x44 DUP4 ADD MSTORE CALLVALUE SWAP1 PUSH32 0x0 AND GAS CALL SWAP4 DUP5 ISZERO PUSH2 0x3E82 JUMPI DUP2 SWAP5 PUSH2 0x3E33 JUMPI JUMPDEST POP DUP2 PUSH1 0x4 PUSH1 0x40 DUP1 SWAP4 DUP8 PUSH1 0xA PUSH2 0x3DDC PUSH32 0x92F40CA7D6CFF5022608E05DA6B963F9AC5A227EA2DA740F7D35831BB78C285D SWAP9 PUSH2 0x5F77 JUMP JUMPDEST POP ADD SSTORE DUP8 DUP2 MSTORE PUSH1 0x15 DUP10 MSTORE KECCAK256 DUP3 DUP2 SSTORE DUP6 DUP2 ADD DUP1 SLOAD PUSH1 0xFF NOT AND DUP8 OR SWAP1 SSTORE ADD DUP1 SLOAD PUSH1 0x1 PUSH1 0x1 PUSH1 0xA0 SHL SUB NOT AND CALLER OR SWAP1 SSTORE PUSH1 0x30 DUP1 SLOAD DUP6 ADD SWAP1 SSTORE PUSH1 0xA PUSH2 0x3E1B DUP3 PUSH2 0x5F77 JUMP JUMPDEST POP ADD SLOAD DUP3 MLOAD SWAP2 DUP3 MSTORE DUP7 DUP3 ADD MSTORE LOG1 PUSH1 0x3B SSTORE PUSH1 0x40 MLOAD SWAP1 DUP2 MSTORE RETURN JUMPDEST SWAP1 SWAP4 POP DUP5 DUP2 DUP2 RETURNDATASIZE DUP4 GT PUSH2 0x3E7B JUMPI JUMPDEST PUSH2 0x3E4B DUP2 DUP4 PUSH2 0x5D00 JUMP JUMPDEST DUP2 ADD SUB SLT PUSH2 0x2E85 JUMPI MLOAD SWAP3 PUSH32 0x92F40CA7D6CFF5022608E05DA6B963F9AC5A227EA2DA740F7D35831BB78C285D PUSH2 0x3DA7 JUMP JUMPDEST POP RETURNDATASIZE PUSH2 0x3E41 JUMP JUMPDEST POP PUSH1 0x40 MLOAD SWAP1 RETURNDATASIZE SWAP1 DUP3 RETURNDATACOPY RETURNDATASIZE SWAP1 REVERT JUMPDEST PUSH4 0x4E487B71 PUSH1 0xE0 SHL DUP4 MSTORE PUSH1 0x41 PUSH1 0x4 MSTORE PUSH1 0x24 DUP4 REVERT JUMPDEST PUSH1 0x40 MLOAD PUSH3 0x461BCD PUSH1 0xE5 SHL DUP2 MSTORE PUSH1 0x4 DUP2 ADD DUP7 SWAP1 MSTORE PUSH1 0xE PUSH1 0x24 DUP3 ADD MSTORE PUSH14 0x67656D206E6F74206D696E696E67 PUSH1 0x90 SHL PUSH1 0x44 DUP3 ADD MSTORE PUSH1 0x64 SWAP1 REVERT JUMPDEST PUSH1 0x40 MLOAD PUSH3 0x461BCD PUSH1 0xE5 SHL DUP2 MSTORE PUSH1 0x4 DUP2 ADD DUP6 SWAP1 MSTORE PUSH1 0x1D PUSH1 0x24 DUP3 ADD MSTORE PUSH32 0x6D696E696E6720706572696F6420686173206E6F7420656C6170736564000000 PUSH1 0x44 DUP3 ADD MSTORE PUSH1 0x64 SWAP1 REVERT JUMPDEST PUSH1 0x40 MLOAD PUSH3 0x461BCD PUSH1 0xE5 SHL DUP2 MSTORE PUSH1 0x4 DUP2 ADD DUP6 SWAP1 MSTORE PUSH1 0x1A PUSH1 0x24 DUP3 ADD MSTORE PUSH26 0x3737BA1023A2A69037BBB732B91037B9103737BA1030B236B4B7 PUSH1 0x31 SHL PUSH1 0x44 DUP3 ADD MSTORE PUSH1 0x64 SWAP1 REVERT JUMPDEST POP PUSH1 0x0 DUP1 MLOAD PUSH1 0x20 PUSH2 0x7296 DUP4 CODECOPY DUP2 MLOAD SWAP2 MSTORE DUP2 MSTORE PUSH1 0x3A DUP5 MSTORE PUSH1 0x40 DUP2 KECCAK256 CALLER DUP3 MSTORE DUP5 MSTORE PUSH1 0x1 PUSH1 0xFF PUSH1 0x40 DUP4 KECCAK256 SLOAD AND ISZERO ISZERO EQ PUSH2 0x3C92 JUMP JUMPDEST PUSH1 0x40 MLOAD PUSH4 0x3EE5AEB5 PUSH1 0xE0 SHL DUP2 MSTORE PUSH1 0x4 SWAP1 REVERT JUMPDEST POP CALLVALUE PUSH2 0x601 JUMPI PUSH1 0x20 CALLDATASIZE PUSH1 0x3 NOT ADD SLT PUSH2 0x601 JUMPI PUSH1 0xFF PUSH1 0x40 PUSH1 0x20 SWAP3 PUSH2 0x3FC4 PUSH2 0x5C13 JUMP JUMPDEST PUSH1 0x0 DUP1 MLOAD PUSH1 0x20 PUSH2 0x7296 DUP4 CODECOPY DUP2 MLOAD SWAP2 MSTORE DUP3 MSTORE PUSH1 0x3A DUP6 MSTORE DUP3 DUP3 KECCAK256 PUSH1 0x1 PUSH1 0x1 PUSH1 0xA0 SHL SUB SWAP1 SWAP2 AND DUP3 MSTORE DUP5 MSTORE KECCAK256 SLOAD PUSH1 0x40 MLOAD SWAP2 AND ISZERO ISZERO DUP2 MSTORE RETURN JUMPDEST POP CALLVALUE PUSH2 0x601 JUMPI PUSH1 0x20 CALLDATASIZE PUSH1 0x3 NOT ADD SLT PUSH2 0x601 JUMPI PUSH1 0x1 PUSH1 0x40 PUSH1 0x20 SWAP3 PUSH1 0x4 CALLDATALOAD DUP2 MSTORE PUSH1 0x3A DUP5 MSTORE KECCAK256 ADD SLOAD PUSH1 0x40 MLOAD SWAP1 DUP2 MSTORE RETURN JUMPDEST POP CALLVALUE PUSH2 0x601 JUMPI PUSH2 0x4034 CALLDATASIZE PUSH2 0x5DFA JUMP JUMPDEST SWAP3 SWAP2 PUSH2 0x4045 PUSH1 0xFF PUSH1 0x16 SLOAD AND ISZERO PUSH2 0x608B JUMP JUMPDEST PUSH1 0x1 PUSH1 0x1 PUSH1 0xA0 SHL SUB DUP3 DUP2 AND SWAP1 DUP2 ISZERO PUSH2 0x1261 JUMPI DUP1 DUP4 AND SWAP2 DUP3 DUP2 EQ PUSH2 0x41FF JUMPI PUSH1 0xFF PUSH1 0x7 PUSH2 0x406F DUP10 PUSH2 0x5F77 JUMP JUMPDEST POP ADD SLOAD AND PUSH2 0x41CA JUMPI DUP7 SWAP1 PUSH2 0x408C PUSH2 0x30F8 PUSH1 0xFF PUSH1 0x1 PUSH2 0x30EF DUP7 PUSH2 0x5F77 JUMP JUMPDEST PUSH1 0x4 PUSH2 0x4097 DUP5 PUSH2 0x5F77 JUMP JUMPDEST POP ADD SSTORE PUSH2 0x40A3 DUP7 PUSH2 0x5F5D JUMP JUMPDEST PUSH2 0x40AD DUP2 SLOAD PUSH2 0x663F JUMP JUMPDEST SWAP1 SSTORE DUP2 DUP8 MSTORE PUSH1 0xF PUSH1 0x20 MSTORE PUSH1 0x40 DUP8 KECCAK256 DUP1 SLOAD PUSH1 0x1 PUSH1 0x1 PUSH1 0xA0 SHL SUB NOT SWAP1 DUP2 AND DUP4 OR SWAP1 SWAP2 SSTORE SWAP3 PUSH2 0x40D8 DUP7 PUSH2 0x5F5D JUMP JUMPDEST PUSH2 0x40E2 DUP2 SLOAD PUSH2 0x68A1 JUMP JUMPDEST SWAP1 SSTORE DUP3 DUP9 MSTORE PUSH1 0x2 PUSH1 0x20 MSTORE PUSH1 0x40 DUP9 KECCAK256 SLOAD AND SWAP3 CALLER PUSH2 0x41BA JUMPI JUMPDEST DUP4 PUSH2 0x4198 JUMPI JUMPDEST DUP2 DUP9 MSTORE PUSH1 0x3 PUSH1 0x20 MSTORE PUSH1 0x40 DUP9 KECCAK256 PUSH1 0x1 DUP2 SLOAD ADD SWAP1 SSTORE DUP3 DUP9 MSTORE PUSH1 0x2 PUSH1 0x20 MSTORE DUP2 PUSH1 0x40 DUP10 KECCAK256 SWAP2 DUP3 SLOAD AND OR SWAP1 SSTORE DUP3 PUSH1 0x0 DUP1 MLOAD PUSH1 0x20 PUSH2 0x72B6 DUP4 CODECOPY DUP2 MLOAD SWAP2 MSTORE DUP9 DUP1 LOG4 DUP2 DUP2 SUB PUSH2 0x4174 JUMPI POP POP PUSH2 0x88B PUSH32 0x85D07A7616AEA29F5D972FD9100B991C224490BD49B737377D908F66F34D9AFD SWAP4 SWAP5 PUSH1 0x40 MLOAD SWAP4 DUP5 SWAP4 DUP5 PUSH2 0x6385 JUMP JUMPDEST PUSH1 0x64 SWAP3 POP DUP6 PUSH1 0x40 MLOAD SWAP3 PUSH4 0x64283D7B PUSH1 0xE0 SHL DUP5 MSTORE PUSH1 0x4 DUP5 ADD MSTORE PUSH1 0x24 DUP4 ADD MSTORE PUSH1 0x44 DUP3 ADD MSTORE REVERT JUMPDEST PUSH2 0x41A1 DUP4 PUSH2 0x717C JUMP JUMPDEST DUP4 DUP9 MSTORE PUSH1 0x3 PUSH1 0x20 MSTORE PUSH1 0x40 DUP9 KECCAK256 DUP1 SLOAD PUSH1 0x0 NOT ADD SWAP1 SSTORE PUSH2 0x40FF JUMP JUMPDEST PUSH2 0x41C5 DUP4 CALLER DUP7 PUSH2 0x6F00 JUMP JUMPDEST PUSH2 0x40F9 JUMP JUMPDEST PUSH1 0x40 MLOAD PUSH3 0x461BCD PUSH1 0xE5 SHL DUP2 MSTORE PUSH1 0x20 PUSH1 0x4 DUP3 ADD MSTORE PUSH1 0xD PUSH1 0x24 DUP3 ADD MSTORE PUSH13 0x11D95B481A5CC81B1BD8DAD959 PUSH1 0x9A SHL PUSH1 0x44 DUP3 ADD MSTORE PUSH1 0x64 SWAP1 REVERT JUMPDEST DUP6 DUP1 REVERT JUMPDEST POP CALLVALUE PUSH2 0x601 JUMPI DUP1 PUSH1 0x3 NOT CALLDATASIZE ADD SLT PUSH2 0x601 JUMPI PUSH1 0x20 PUSH1 0x1B SLOAD PUSH1 0x40 MLOAD SWAP1 DUP2 MSTORE RETURN JUMPDEST POP CALLVALUE PUSH2 0x601 JUMPI PUSH1 0x20 SWAP1 DUP2 PUSH1 0x3 NOT CALLDATASIZE ADD SLT PUSH2 0x601 JUMPI PUSH1 0x4 CALLDATALOAD SWAP1 PUSH2 0x4248 PUSH1 0xFF PUSH1 0x16 SLOAD AND ISZERO PUSH2 0x608B JUMP JUMPDEST PUSH2 0x4253 CALLER ISZERO ISZERO PUSH2 0x634A JUMP JUMPDEST CALLER PUSH1 0x1 PUSH1 0x1 PUSH1 0xA0 SHL SUB PUSH2 0x4265 DUP5 PUSH2 0x6793 JUMP JUMPDEST AND SUB PUSH2 0x44CA JUMPI PUSH1 0x4 PUSH2 0x4276 DUP4 PUSH2 0x5F77 JUMP JUMPDEST POP ADD SLOAD TIMESTAMP LT PUSH2 0x4479 JUMPI PUSH1 0xFF PUSH1 0x7 PUSH2 0x428C DUP5 PUSH2 0x5F77 JUMP JUMPDEST POP ADD SLOAD AND PUSH2 0x4423 JUMPI PUSH1 0xFF PUSH1 0x1 PUSH2 0x42A1 DUP5 PUSH2 0x5F77 JUMP JUMPDEST POP ADD SLOAD AND PUSH1 0x6 DUP2 LT ISZERO PUSH2 0x440F JUMPI ISZERO PUSH2 0x43CB JUMPI PUSH1 0x6 PUSH2 0x42BE DUP4 PUSH2 0x5F77 JUMP JUMPDEST POP ADD SLOAD ISZERO PUSH2 0x437C JUMPI PUSH32 0xCFDB0DA0EDA7E72692CC304E4E58D2543A70CE5269931E91E02337CBFF2A1EF1 SWAP2 PUSH1 0x80 SWAP2 PUSH2 0x42F4 CALLER PUSH2 0x5F29 JUMP JUMPDEST DUP3 DUP3 MSTORE DUP6 MSTORE PUSH1 0x40 DUP2 KECCAK256 SWAP1 PUSH1 0xFF NOT SWAP2 PUSH1 0x1 DUP4 DUP3 SLOAD AND OR SWAP1 SSTORE PUSH2 0x4314 CALLER PUSH2 0x5F43 JUMP JUMPDEST DUP4 DUP3 MSTORE DUP7 MSTORE PUSH1 0x40 TIMESTAMP SWAP2 KECCAK256 SSTORE PUSH1 0x1 PUSH1 0x7 PUSH2 0x432C DUP5 PUSH2 0x5F77 JUMP JUMPDEST POP ADD SWAP2 DUP3 SLOAD AND OR SWAP1 SSTORE PUSH1 0x6 PUSH2 0x4340 DUP3 PUSH2 0x5F77 JUMP JUMPDEST POP ADD PUSH2 0x434C DUP2 SLOAD PUSH2 0x68A1 JUMP JUMPDEST SWAP1 SSTORE PUSH1 0x6 PUSH2 0x4359 DUP3 PUSH2 0x5F77 JUMP JUMPDEST POP ADD SLOAD PUSH1 0x40 MLOAD SWAP2 DUP3 MSTORE CALLER DUP6 DUP4 ADD MSTORE TIMESTAMP PUSH1 0x40 DUP4 ADD MSTORE PUSH1 0x60 DUP3 ADD MSTORE LOG1 PUSH1 0x40 MLOAD PUSH1 0x1 DUP2 MSTORE RETURN JUMPDEST PUSH1 0x40 MLOAD PUSH3 0x461BCD PUSH1 0xE5 SHL DUP2 MSTORE PUSH1 0x4 DUP2 ADD DUP5 SWAP1 MSTORE PUSH1 0x21 PUSH1 0x24 DUP3 ADD MSTORE PUSH32 0x6E6F206D696E696E6720706F776572206C65667420666F722074686174204745 PUSH1 0x44 DUP3 ADD MSTORE PUSH1 0x4D PUSH1 0xF8 SHL PUSH1 0x64 DUP3 ADD MSTORE PUSH1 0x84 SWAP1 REVERT JUMPDEST PUSH1 0x40 MLOAD PUSH3 0x461BCD PUSH1 0xE5 SHL DUP2 MSTORE PUSH1 0x4 DUP2 ADD DUP5 SWAP1 MSTORE PUSH1 0x1C PUSH1 0x24 DUP3 ADD MSTORE PUSH28 0x726172697479206D757374206265206174206C656173742052415245 PUSH1 0x20 SHL PUSH1 0x44 DUP3 ADD MSTORE PUSH1 0x64 SWAP1 REVERT JUMPDEST PUSH4 0x4E487B71 PUSH1 0xE0 SHL DUP3 MSTORE PUSH1 0x21 PUSH1 0x4 MSTORE PUSH1 0x24 DUP3 REVERT JUMPDEST PUSH1 0x40 MLOAD PUSH3 0x461BCD PUSH1 0xE5 SHL DUP2 MSTORE PUSH1 0x4 DUP2 ADD DUP5 SWAP1 MSTORE PUSH1 0x28 PUSH1 0x24 DUP3 ADD MSTORE PUSH32 0x47656D206973206C697374656420666F722073616C65206F7220616C72656164 PUSH1 0x44 DUP3 ADD MSTORE PUSH8 0x79206D696E696E67 PUSH1 0xC0 SHL PUSH1 0x64 DUP3 ADD MSTORE PUSH1 0x84 SWAP1 REVERT JUMPDEST PUSH1 0x40 MLOAD PUSH3 0x461BCD PUSH1 0xE5 SHL DUP2 MSTORE PUSH1 0x4 DUP2 ADD DUP5 SWAP1 MSTORE PUSH1 0x23 PUSH1 0x24 DUP3 ADD MSTORE PUSH32 0x47656D20636F6F6C646F776E20706572696F6420686173206E6F7420656C6170 PUSH1 0x44 DUP3 ADD MSTORE PUSH3 0x1CD959 PUSH1 0xEA SHL PUSH1 0x64 DUP3 ADD MSTORE PUSH1 0x84 SWAP1 REVERT JUMPDEST PUSH1 0x40 MLOAD PUSH3 0x461BCD PUSH1 0xE5 SHL DUP2 MSTORE PUSH1 0x4 DUP2 ADD DUP5 SWAP1 MSTORE PUSH1 0xD PUSH1 0x24 DUP3 ADD MSTORE PUSH13 0x3737BA1033B2B69037BBB732B9 PUSH1 0x99 SHL PUSH1 0x44 DUP3 ADD MSTORE PUSH1 0x64 SWAP1 REVERT JUMPDEST POP CALLVALUE PUSH2 0x601 JUMPI PUSH1 0x20 CALLDATASIZE PUSH1 0x3 NOT ADD SLT PUSH2 0x601 JUMPI PUSH1 0x4 CALLDATALOAD PUSH1 0x1 PUSH1 0x1 PUSH1 0x40 SHL SUB DUP2 GT PUSH2 0x8FF JUMPI PUSH2 0x4530 SWAP1 CALLDATASIZE SWAP1 PUSH1 0x4 ADD PUSH2 0x5DA8 JUMP JUMPDEST PUSH2 0x4539 CALLER PUSH2 0x673B JUMP JUMPDEST DUP1 ISZERO PUSH2 0x4620 JUMPI JUMPDEST PUSH2 0x4549 SWAP1 PUSH2 0x60CA JUMP JUMPDEST PUSH1 0xFF PUSH1 0xC SLOAD AND DUP3 MSTORE PUSH1 0xB PUSH1 0x20 MSTORE PUSH2 0x4563 DUP2 PUSH1 0x40 DUP5 KECCAK256 PUSH2 0x61CA JUMP JUMPDEST PUSH1 0xD SLOAD PUSH1 0x1 PUSH1 0x40 SHL DUP2 LT ISZERO PUSH2 0x3E8F JUMPI PUSH1 0x1 DUP2 ADD DUP1 PUSH1 0xD SSTORE DUP2 LT ISZERO PUSH2 0x460C JUMPI PUSH1 0xD DUP4 MSTORE PUSH2 0x45B2 SWAP1 DUP3 SWAP1 PUSH32 0xD7B6990105719101DABEB77144F2A3385C8033ACD3AF97E9423A695E81AD1EB5 ADD PUSH2 0x61CA JUMP JUMPDEST PUSH32 0xD961FA20561746B8576D7B504B0BC57067C67DB2CE13BD9866D451BEC5985F4B PUSH2 0x4606 PUSH1 0xC SLOAD SWAP3 PUSH1 0xFF PUSH2 0x45E7 DUP2 DUP7 AND PUSH2 0x62CF JUMP JUMPDEST AND DUP1 SWAP5 PUSH1 0xFF NOT AND OR PUSH1 0xC SSTORE PUSH1 0x40 MLOAD SWAP2 DUP3 SWAP2 PUSH1 0x20 DUP4 MSTORE PUSH1 0x20 DUP4 ADD SWAP1 PUSH2 0x5BD3 JUMP JUMPDEST SUB SWAP1 LOG2 DUP1 RETURN JUMPDEST PUSH4 0x4E487B71 PUSH1 0xE0 SHL DUP4 MSTORE PUSH1 0x32 PUSH1 0x4 MSTORE PUSH1 0x24 DUP4 REVERT JUMPDEST POP PUSH2 0x4549 PUSH2 0x462C PUSH2 0x6706 JUMP JUMPDEST SWAP1 POP PUSH2 0x4540 JUMP JUMPDEST POP CALLVALUE PUSH2 0x601 JUMPI DUP1 PUSH1 0x3 NOT CALLDATASIZE ADD SLT PUSH2 0x601 JUMPI PUSH1 0x20 PUSH1 0x2B SLOAD PUSH1 0x40 MLOAD SWAP1 DUP2 MSTORE RETURN JUMPDEST POP CALLVALUE PUSH2 0x601 JUMPI DUP1 PUSH1 0x3 NOT CALLDATASIZE ADD SLT PUSH2 0x601 JUMPI PUSH1 0x20 PUSH2 0x466C PUSH2 0x6338 JUMP JUMPDEST PUSH1 0x40 MLOAD SWAP1 DUP2 MSTORE RETURN JUMPDEST POP CALLVALUE PUSH2 0x601 JUMPI PUSH1 0x20 CALLDATASIZE PUSH1 0x3 NOT ADD SLT PUSH2 0x601 JUMPI PUSH2 0x9C3 PUSH2 0x4691 PUSH2 0x5C13 JUMP JUMPDEST PUSH2 0x469C PUSH2 0x964 PUSH2 0x6706 JUMP JUMPDEST PUSH2 0x65CB JUMP JUMPDEST POP CALLVALUE PUSH2 0x601 JUMPI PUSH1 0x40 CALLDATASIZE PUSH1 0x3 NOT ADD SLT PUSH2 0x601 JUMPI PUSH1 0x24 CALLDATALOAD PUSH1 0x1 PUSH1 0x1 PUSH1 0x40 SHL SUB DUP2 GT PUSH2 0x8FF JUMPI PUSH2 0x46D5 PUSH2 0x9C3 SWAP2 CALLDATASIZE SWAP1 PUSH1 0x4 ADD PUSH2 0x5DA8 JUMP JUMPDEST PUSH1 0x4 CALLDATALOAD PUSH2 0x67CE JUMP JUMPDEST POP CALLVALUE PUSH2 0x601 JUMPI PUSH1 0x20 CALLDATASIZE PUSH1 0x3 NOT ADD SLT PUSH2 0x601 JUMPI PUSH1 0x4 CALLDATALOAD PUSH1 0x1 PUSH1 0x1 PUSH1 0x40 SHL SUB DUP2 GT PUSH2 0x8FF JUMPI PUSH2 0x470E SWAP1 CALLDATASIZE SWAP1 PUSH1 0x4 ADD PUSH2 0x5DA8 JUMP JUMPDEST PUSH2 0x4717 CALLER PUSH2 0x673B JUMP JUMPDEST DUP1 ISZERO PUSH2 0x47E4 JUMPI JUMPDEST PUSH2 0x4727 SWAP1 PUSH2 0x60CA JUMP JUMPDEST PUSH1 0xFF PUSH1 0x9 SLOAD AND DUP3 MSTORE PUSH1 0x8 PUSH1 0x20 MSTORE PUSH2 0x4741 DUP2 PUSH1 0x40 DUP5 KECCAK256 PUSH2 0x61CA JUMP JUMPDEST PUSH1 0xA SLOAD PUSH1 0x1 PUSH1 0x40 SHL DUP2 LT ISZERO PUSH2 0x3E8F JUMPI PUSH1 0x1 DUP2 ADD DUP1 PUSH1 0xA SSTORE DUP2 LT ISZERO PUSH2 0x460C JUMPI PUSH1 0xA DUP4 MSTORE PUSH2 0x4790 SWAP1 DUP3 SWAP1 PUSH32 0xC65A7BB8D6351C1CF70C95A316CC6A92839C986682D98BC35F958F4883F9D2A8 ADD PUSH2 0x61CA JUMP JUMPDEST PUSH32 0xE4D2864EC291F6F11CB3363FA1BD2A4D5FF49A2CFDF4BF7DFE3B90A26B8C776F PUSH2 0x4606 PUSH1 0x9 SLOAD SWAP3 PUSH1 0xFF PUSH2 0x47C5 DUP2 DUP7 AND PUSH2 0x62CF JUMP JUMPDEST AND DUP1 SWAP5 PUSH1 0xFF NOT AND OR PUSH1 0x9 SSTORE PUSH1 0x40 MLOAD SWAP2 DUP3 SWAP2 PUSH1 0x20 DUP4 MSTORE PUSH1 0x20 DUP4 ADD SWAP1 PUSH2 0x5BD3 JUMP JUMPDEST POP PUSH2 0x4727 PUSH2 0x47F0 PUSH2 0x6706 JUMP JUMPDEST SWAP1 POP PUSH2 0x471E JUMP JUMPDEST POP CALLVALUE PUSH2 0x601 JUMPI DUP1 PUSH1 0x3 NOT CALLDATASIZE ADD SLT PUSH2 0x601 JUMPI PUSH1 0x20 PUSH1 0x28 SLOAD PUSH1 0x40 MLOAD SWAP1 DUP2 MSTORE RETURN JUMPDEST POP CALLVALUE PUSH2 0x601 JUMPI DUP1 PUSH1 0x3 NOT CALLDATASIZE ADD SLT PUSH2 0x601 JUMPI PUSH1 0x20 PUSH1 0x17 SLOAD PUSH1 0x40 MLOAD SWAP1 DUP2 MSTORE RETURN JUMPDEST POP CALLVALUE PUSH2 0x601 JUMPI PUSH1 0x80 CALLDATASIZE PUSH1 0x3 NOT ADD SLT PUSH2 0x601 JUMPI PUSH1 0x4 CALLDATALOAD PUSH1 0x1 PUSH1 0x1 PUSH1 0x40 SHL SUB DUP2 GT PUSH2 0x8FF JUMPI CALLDATASIZE PUSH1 0x23 DUP3 ADD SLT ISZERO PUSH2 0x8FF JUMPI DUP1 PUSH1 0x4 ADD CALLDATALOAD PUSH2 0x486F DUP2 PUSH2 0x5D21 JUMP JUMPDEST SWAP2 PUSH2 0x487D PUSH1 0x40 MLOAD SWAP4 DUP5 PUSH2 0x5D00 JUMP JUMPDEST DUP2 DUP4 MSTORE PUSH1 0x24 PUSH1 0x20 DUP5 ADD SWAP3 PUSH1 0x5 SHL DUP3 ADD ADD SWAP1 CALLDATASIZE DUP3 GT PUSH2 0x1261 JUMPI PUSH1 0x24 ADD SWAP2 JUMPDEST DUP2 DUP4 LT PUSH2 0x5716 JUMPI POP POP POP PUSH1 0x24 CALLDATALOAD PUSH1 0x1 PUSH1 0x1 PUSH1 0x40 SHL SUB DUP2 GT PUSH2 0x397F JUMPI CALLDATASIZE PUSH1 0x23 DUP3 ADD SLT ISZERO PUSH2 0x397F JUMPI DUP1 PUSH1 0x4 ADD CALLDATALOAD SWAP1 PUSH2 0x48CF DUP3 PUSH2 0x5D21 JUMP JUMPDEST SWAP2 PUSH2 0x48DD PUSH1 0x40 MLOAD SWAP4 DUP5 PUSH2 0x5D00 JUMP JUMPDEST DUP1 DUP4 MSTORE PUSH1 0x24 PUSH1 0x20 DUP5 ADD SWAP2 PUSH1 0x6 SHL DUP4 ADD ADD SWAP2 CALLDATASIZE DUP4 GT PUSH2 0x41FF JUMPI PUSH1 0x24 ADD SWAP1 JUMPDEST DUP3 DUP3 LT PUSH2 0x56B9 JUMPI POP POP POP PUSH1 0x44 CALLDATALOAD SWAP3 PUSH1 0x1 PUSH1 0x1 PUSH1 0x40 SHL SUB DUP5 GT PUSH2 0x601 JUMPI CALLDATASIZE PUSH1 0x23 DUP6 ADD SLT ISZERO PUSH2 0x601 JUMPI DUP4 PUSH1 0x4 ADD CALLDATALOAD PUSH2 0x492F DUP2 PUSH2 0x5D21 JUMP JUMPDEST SWAP5 PUSH2 0x493D PUSH1 0x40 MLOAD SWAP7 DUP8 PUSH2 0x5D00 JUMP JUMPDEST DUP2 DUP7 MSTORE PUSH1 0x20 DUP7 ADD SWAP1 CALLDATASIZE PUSH1 0x24 DUP5 PUSH1 0x7 SHL DUP4 ADD ADD GT PUSH2 0x2E85 JUMPI PUSH1 0x24 DUP2 ADD SWAP2 JUMPDEST PUSH1 0x24 DUP5 PUSH1 0x7 SHL DUP4 ADD ADD DUP4 LT PUSH2 0x565F JUMPI POP POP POP POP PUSH1 0x1 PUSH1 0x1 PUSH1 0x40 SHL SUB PUSH1 0x64 CALLDATALOAD GT PUSH2 0x601 JUMPI CALLDATASIZE PUSH1 0x23 PUSH1 0x64 CALLDATALOAD ADD SLT ISZERO PUSH2 0x601 JUMPI PUSH1 0x64 CALLDATALOAD PUSH1 0x4 ADD CALLDATALOAD PUSH2 0x499A DUP2 PUSH2 0x5D21 JUMP JUMPDEST SWAP1 PUSH2 0x49A8 PUSH1 0x40 MLOAD SWAP3 DUP4 PUSH2 0x5D00 JUMP JUMPDEST DUP1 DUP3 MSTORE PUSH1 0x20 DUP3 ADD SWAP1 CALLDATASIZE PUSH1 0x24 DUP3 PUSH1 0x5 SHL PUSH1 0x64 CALLDATALOAD ADD ADD GT PUSH2 0x2E85 JUMPI PUSH1 0x24 PUSH1 0x64 CALLDATALOAD ADD SWAP2 JUMPDEST PUSH1 0x24 DUP3 PUSH1 0x5 SHL PUSH1 0x64 CALLDATALOAD ADD ADD DUP4 LT PUSH2 0x562C JUMPI POP POP POP PUSH2 0x49F2 PUSH1 0x1 DUP1 PUSH1 0xA0 SHL SUB PUSH1 0x33 SLOAD AND CALLER EQ PUSH2 0x610B JUMP JUMPDEST PUSH2 0x4A01 PUSH1 0xFF PUSH1 0x16 SLOAD AND ISZERO PUSH2 0x608B JUMP JUMPDEST DUP4 MLOAD DUP4 MLOAD DUP1 SWAP2 EQ SWAP1 DUP2 PUSH2 0x5621 JUMPI JUMPDEST POP DUP1 PUSH2 0x5616 JUMPI JUMPDEST ISZERO PUSH2 0x55C2 JUMPI PUSH2 0x4A28 DUP5 SWAP4 SWAP6 SWAP5 MLOAD PUSH2 0x616D JUMP JUMPDEST SWAP5 DUP3 JUMPDEST DUP5 MLOAD DUP2 LT ISZERO PUSH2 0x55AC JUMPI PUSH2 0x4A3E DUP2 DUP7 PUSH2 0x619F JUMP JUMPDEST MLOAD PUSH1 0x6 DUP2 LT ISZERO PUSH2 0x5598 JUMPI PUSH2 0x4A52 DUP3 DUP5 PUSH2 0x619F JUMP JUMPDEST MLOAD PUSH2 0x4A5D DUP4 DUP10 PUSH2 0x619F JUMP JUMPDEST MLOAD SWAP2 PUSH2 0x4A69 DUP5 DUP8 PUSH2 0x619F JUMP JUMPDEST MLOAD SWAP1 PUSH2 0x4A80 PUSH1 0x1 DUP1 PUSH1 0xA0 SHL SUB PUSH1 0x33 SLOAD AND CALLER EQ PUSH2 0x610B JUMP JUMPDEST PUSH2 0x4A8F PUSH1 0xFF PUSH1 0x16 SLOAD AND ISZERO PUSH2 0x608B JUMP JUMPDEST PUSH2 0x4AC7 PUSH2 0x4AB9 PUSH2 0x4AAB PUSH1 0xFF DUP8 MLOAD AND PUSH1 0xFF PUSH1 0x20 DUP10 ADD MLOAD AND SWAP1 PUSH2 0x6766 JUMP JUMPDEST PUSH1 0xFF PUSH1 0x40 DUP9 ADD MLOAD AND SWAP1 PUSH2 0x6766 JUMP JUMPDEST PUSH1 0xFF PUSH1 0x60 DUP8 ADD MLOAD AND SWAP1 PUSH2 0x6766 JUMP JUMPDEST DUP2 PUSH2 0x4EF5 JUMPI PUSH1 0xFF DUP6 MLOAD AND PUSH1 0x1 DUP1 DUP3 EQ SWAP2 DUP3 ISZERO PUSH2 0x4EEA JUMPI JUMPDEST POP DUP2 PUSH2 0x4EC3 JUMPI JUMPDEST DUP2 PUSH2 0x4E9C JUMPI JUMPDEST DUP2 PUSH2 0x4E76 JUMPI JUMPDEST POP ISZERO PUSH2 0x4E1A JUMPI PUSH1 0xFF PUSH1 0x8 SWAP2 AND LT ISZERO PUSH2 0x4DDB JUMPI PUSH1 0x29 SLOAD PUSH1 0x23 SLOAD PUSH1 0x1D SLOAD SWAP6 PUSH1 0x17 SLOAD JUMPDEST PUSH2 0x4B1B DUP5 TIMESTAMP PUSH2 0x63A7 JUMP JUMPDEST SWAP1 PUSH1 0x40 MLOAD SWAP2 PUSH2 0x4B29 DUP4 PUSH2 0x5C78 JUMP JUMPDEST DUP14 DUP4 MSTORE PUSH2 0x4B39 DUP8 PUSH1 0x20 DUP6 ADD PUSH2 0x6406 JUMP JUMPDEST DUP4 PUSH1 0x40 DUP5 ADD MSTORE DUP9 PUSH1 0x60 DUP5 ADD MSTORE PUSH1 0x80 DUP4 ADD MSTORE DUP4 PUSH1 0xA0 DUP4 ADD MSTORE PUSH1 0xC0 DUP3 ADD MSTORE DUP12 PUSH1 0xE0 DUP3 ADD MSTORE DUP8 PUSH2 0x100 DUP3 ADD MSTORE DUP6 PUSH2 0x120 DUP3 ADD MSTORE DUP12 PUSH2 0x140 DUP3 ADD MSTORE PUSH1 0x7 SLOAD PUSH1 0x1 PUSH1 0x40 SHL DUP2 LT ISZERO PUSH2 0x4DC7 JUMPI DUP1 PUSH1 0x1 PUSH2 0x4B8F SWAP3 ADD PUSH1 0x7 SSTORE PUSH2 0x5F77 JUMP JUMPDEST SWAP2 SWAP1 SWAP2 PUSH2 0x4DB3 JUMPI DUP1 MLOAD DUP3 SSTORE PUSH1 0x20 DUP2 ADD MLOAD PUSH1 0x6 DUP2 LT ISZERO PUSH2 0x4D9F JUMPI PUSH1 0xFF DUP1 NOT PUSH1 0x1 DUP6 ADD SLOAD AND SWAP2 AND OR PUSH1 0x1 DUP4 ADD SSTORE DUP13 PUSH1 0x40 DUP3 ADD MLOAD DUP2 JUMPDEST PUSH1 0x4 DUP2 LT PUSH2 0x4D80 JUMPI POP POP PUSH1 0x2 DUP4 ADD SSTORE DUP13 PUSH1 0x60 DUP3 ADD MLOAD DUP2 JUMPDEST PUSH1 0x2 DUP2 LT PUSH2 0x4D61 JUMPI POP POP SWAP15 SWAP16 SWAP14 SWAP15 PUSH1 0xA SWAP2 PUSH2 0x140 SWAP2 PUSH1 0x3 DUP6 ADD SSTORE PUSH1 0x80 DUP2 ADD MLOAD PUSH1 0x4 DUP6 ADD SSTORE PUSH1 0xA0 DUP2 ADD MLOAD PUSH1 0x5 DUP6 ADD SSTORE PUSH1 0xC0 DUP2 ADD MLOAD PUSH1 0x6 DUP6 ADD SSTORE PUSH2 0x4C24 PUSH1 0xE0 DUP3 ADD MLOAD ISZERO ISZERO PUSH1 0x7 DUP7 ADD PUSH2 0x63F5 JUMP JUMPDEST PUSH2 0x100 DUP2 ADD MLOAD PUSH1 0x8 DUP6 ADD SSTORE PUSH2 0x4C41 PUSH2 0x120 DUP3 ADD MLOAD PUSH1 0x9 DUP7 ADD PUSH2 0x61CA JUMP JUMPDEST ADD MLOAD SWAP2 ADD SSTORE PUSH1 0x7 SLOAD SWAP7 DUP8 PUSH1 0x0 NOT DUP2 ADD GT PUSH2 0x4D4D JUMPI SWAP3 DUP8 SWAP7 SWAP6 SWAP3 PUSH2 0x4D07 PUSH1 0x0 DUP1 MLOAD PUSH1 0x20 PUSH2 0x72F6 DUP4 CODECOPY DUP2 MLOAD SWAP2 MSTORE SWAP7 SWAP4 PUSH2 0x4D22 SWAP7 DUP16 PUSH1 0x40 SWAP1 PUSH2 0x4C86 PUSH1 0x1 SWAP16 SWAP15 PUSH1 0x0 NOT ADD PUSH2 0x5F77 JUMP JUMPDEST POP DUP14 PUSH1 0x0 NOT ADD SWAP1 SSTORE PUSH1 0x0 NOT DUP14 ADD DUP2 MSTORE PUSH1 0xF PUSH1 0x20 MSTORE KECCAK256 CALLER DUP15 DUP1 PUSH1 0xA0 SHL SUB NOT DUP3 SLOAD AND OR SWAP1 SSTORE PUSH2 0x4CB2 CALLER PUSH2 0x5F5D JUMP JUMPDEST PUSH2 0x4CBC DUP2 SLOAD PUSH2 0x663F JUMP JUMPDEST SWAP1 SSTORE PUSH2 0x4CCC PUSH1 0x0 NOT DUP13 ADD CALLER PUSH2 0x6B07 JUMP JUMPDEST PUSH2 0x4CDA DUP8 PUSH1 0x0 NOT DUP14 ADD PUSH2 0x67CE JUMP JUMPDEST PUSH2 0x4CF8 PUSH1 0x40 MLOAD SWAP11 PUSH2 0x4CEE DUP13 PUSH2 0x180 SWAP10 PUSH2 0x5E2F JUMP JUMPDEST PUSH1 0x20 DUP13 ADD SWAP1 PUSH2 0x6575 JUMP JUMPDEST PUSH1 0x60 DUP11 ADD MSTORE PUSH1 0x80 DUP10 ADD SWAP1 PUSH2 0x65A0 JUMP JUMPDEST PUSH2 0x100 DUP8 ADD MSTORE PUSH2 0x120 DUP7 ADD MSTORE DUP1 PUSH2 0x140 DUP7 ADD MSTORE DUP5 ADD SWAP1 PUSH2 0x5BD3 JUMP JUMPDEST SWAP2 CALLER PUSH2 0x160 DUP3 ADD MSTORE DUP1 PUSH1 0x0 NOT DUP6 ADD SWAP4 SUB SWAP1 LOG2 PUSH1 0x0 NOT ADD PUSH2 0x4D42 DUP3 DUP9 PUSH2 0x619F JUMP JUMPDEST MSTORE ADD SWAP6 SWAP5 SWAP4 SWAP6 PUSH2 0x4A2B JUMP JUMPDEST PUSH4 0x4E487B71 PUSH1 0xE0 SHL DUP13 MSTORE PUSH1 0x11 PUSH1 0x4 MSTORE PUSH1 0x24 DUP13 REVERT JUMPDEST SWAP1 SWAP2 PUSH1 0x20 PUSH2 0x4D77 PUSH1 0x1 SWAP3 DUP5 PUSH1 0xFF DUP8 MLOAD AND SWAP2 PUSH2 0x6EEC JUMP JUMPDEST SWAP4 ADD SWAP2 ADD PUSH2 0x4BD9 JUMP JUMPDEST SWAP1 SWAP2 PUSH1 0x20 PUSH2 0x4D96 PUSH1 0x1 SWAP3 DUP5 PUSH1 0xFF DUP8 MLOAD AND SWAP2 PUSH2 0x6EEC JUMP JUMPDEST SWAP4 ADD SWAP2 ADD PUSH2 0x4BC2 JUMP JUMPDEST PUSH4 0x4E487B71 PUSH1 0xE0 SHL DUP15 MSTORE PUSH1 0x21 PUSH1 0x4 MSTORE PUSH1 0x24 DUP15 REVERT JUMPDEST PUSH4 0x4E487B71 PUSH1 0xE0 SHL DUP14 MSTORE PUSH1 0x4 DUP14 SWAP1 MSTORE PUSH1 0x24 DUP14 REVERT JUMPDEST PUSH4 0x4E487B71 PUSH1 0xE0 SHL DUP14 MSTORE PUSH1 0x41 PUSH1 0x4 MSTORE PUSH1 0x24 DUP14 REVERT JUMPDEST PUSH1 0x40 MLOAD PUSH3 0x461BCD PUSH1 0xE5 SHL DUP2 MSTORE PUSH1 0x20 PUSH1 0x4 DUP3 ADD MSTORE PUSH1 0x17 PUSH1 0x24 DUP3 ADD MSTORE PUSH23 0x191919191034B9902920A922903737BA1021A7A6A6A7A7 PUSH1 0x49 SHL PUSH1 0x44 DUP3 ADD MSTORE PUSH1 0x64 SWAP1 REVERT JUMPDEST PUSH1 0x40 MLOAD PUSH3 0x461BCD PUSH1 0xE5 SHL DUP2 MSTORE PUSH1 0x20 PUSH1 0x4 DUP3 ADD MSTORE PUSH1 0x2E PUSH1 0x24 DUP3 ADD MSTORE PUSH32 0x416C6C207175616472616E7473206D7573742062652031206F72203220666F72 PUSH1 0x44 DUP3 ADD MSTORE PUSH14 0x20434F4D4D4F4E20726172697479 PUSH1 0x90 SHL PUSH1 0x64 DUP3 ADD MSTORE PUSH1 0x84 SWAP1 REVERT JUMPDEST PUSH1 0x60 DUP8 ADD MLOAD PUSH1 0xFF AND SWAP1 DUP2 EQ SWAP2 POP DUP2 ISZERO PUSH2 0x4E91 JUMPI JUMPDEST POP CODESIZE PUSH2 0x4AF1 JUMP JUMPDEST PUSH1 0x2 SWAP2 POP EQ CODESIZE PUSH2 0x4E8A JUMP JUMPDEST SWAP1 POP PUSH1 0xFF PUSH1 0x40 DUP8 ADD MLOAD AND DUP2 DUP2 EQ SWAP1 DUP2 ISZERO PUSH2 0x4EB8 JUMPI JUMPDEST POP SWAP1 PUSH2 0x4AEB JUMP JUMPDEST PUSH1 0x2 SWAP2 POP EQ CODESIZE PUSH2 0x4EB1 JUMP JUMPDEST SWAP1 POP PUSH1 0xFF PUSH1 0x20 DUP8 ADD MLOAD AND DUP2 DUP2 EQ SWAP1 DUP2 ISZERO PUSH2 0x4EDF JUMPI JUMPDEST POP SWAP1 PUSH2 0x4AE5 JUMP JUMPDEST PUSH1 0x2 SWAP2 POP EQ CODESIZE PUSH2 0x4ED8 JUMP JUMPDEST PUSH1 0x2 EQ SWAP2 POP CODESIZE PUSH2 0x4ADE JUMP JUMPDEST PUSH1 0x1 DUP3 SUB PUSH2 0x505E JUMPI PUSH1 0xFF DUP6 MLOAD AND PUSH1 0x2 DUP1 DUP3 EQ SWAP2 DUP3 ISZERO PUSH2 0x5053 JUMPI JUMPDEST POP DUP2 PUSH2 0x502C JUMPI JUMPDEST DUP2 PUSH2 0x5005 JUMPI JUMPDEST DUP2 PUSH2 0x4FDF JUMPI JUMPDEST POP ISZERO PUSH2 0x4F85 JUMPI PUSH1 0xFF PUSH1 0xC SWAP2 AND LT ISZERO PUSH2 0x4F46 JUMPI PUSH1 0x2A SLOAD PUSH1 0x24 SLOAD PUSH1 0x1E SLOAD SWAP6 PUSH1 0x18 SLOAD PUSH2 0x4B11 JUMP JUMPDEST PUSH1 0x40 MLOAD PUSH3 0x461BCD PUSH1 0xE5 SHL DUP2 MSTORE PUSH1 0x20 PUSH1 0x4 DUP3 ADD MSTORE PUSH1 0x17 PUSH1 0x24 DUP3 ADD MSTORE PUSH23 0x3333333320697320554E49515545206E6F742052415245 PUSH1 0x48 SHL PUSH1 0x44 DUP3 ADD MSTORE PUSH1 0x64 SWAP1 REVERT JUMPDEST PUSH1 0x40 MLOAD PUSH3 0x461BCD PUSH1 0xE5 SHL DUP2 MSTORE PUSH1 0x20 PUSH1 0x4 DUP3 ADD MSTORE PUSH1 0x2C PUSH1 0x24 DUP3 ADD MSTORE PUSH32 0x416C6C207175616472616E7473206D7573742062652032206F72203320666F72 PUSH1 0x44 DUP3 ADD MSTORE PUSH12 0x205241524520726172697479 PUSH1 0xA0 SHL PUSH1 0x64 DUP3 ADD MSTORE PUSH1 0x84 SWAP1 REVERT JUMPDEST PUSH1 0x60 DUP8 ADD MLOAD PUSH1 0xFF AND SWAP1 DUP2 EQ SWAP2 POP DUP2 ISZERO PUSH2 0x4FFA JUMPI JUMPDEST POP CODESIZE PUSH2 0x4F22 JUMP JUMPDEST PUSH1 0x3 SWAP2 POP EQ CODESIZE PUSH2 0x4FF3 JUMP JUMPDEST SWAP1 POP PUSH1 0xFF PUSH1 0x40 DUP8 ADD MLOAD AND DUP2 DUP2 EQ SWAP1 DUP2 ISZERO PUSH2 0x5021 JUMPI JUMPDEST POP SWAP1 PUSH2 0x4F1C JUMP JUMPDEST PUSH1 0x3 SWAP2 POP EQ CODESIZE PUSH2 0x501A JUMP JUMPDEST SWAP1 POP PUSH1 0xFF PUSH1 0x20 DUP8 ADD MLOAD AND DUP2 DUP2 EQ SWAP1 DUP2 ISZERO PUSH2 0x5048 JUMPI JUMPDEST POP SWAP1 PUSH2 0x4F16 JUMP JUMPDEST PUSH1 0x3 SWAP2 POP EQ CODESIZE PUSH2 0x5041 JUMP JUMPDEST PUSH1 0x3 EQ SWAP2 POP CODESIZE PUSH2 0x4F0F JUMP JUMPDEST PUSH1 0x2 DUP3 SUB PUSH2 0x51C9 JUMPI PUSH1 0xFF DUP6 MLOAD AND PUSH1 0x3 DUP1 DUP3 EQ SWAP2 DUP3 ISZERO PUSH2 0x51BE JUMPI JUMPDEST POP DUP2 PUSH2 0x5197 JUMPI JUMPDEST DUP2 PUSH2 0x5170 JUMPI JUMPDEST DUP2 PUSH2 0x514A JUMPI JUMPDEST POP ISZERO PUSH2 0x50EE JUMPI PUSH1 0xFF PUSH1 0x10 SWAP2 AND LT ISZERO PUSH2 0x50AF JUMPI PUSH1 0x2B SLOAD PUSH1 0x25 SLOAD PUSH1 0x1F SLOAD SWAP6 PUSH1 0x19 SLOAD PUSH2 0x4B11 JUMP JUMPDEST PUSH1 0x40 MLOAD PUSH3 0x461BCD PUSH1 0xE5 SHL DUP2 MSTORE PUSH1 0x20 PUSH1 0x4 DUP3 ADD MSTORE PUSH1 0x17 PUSH1 0x24 DUP3 ADD MSTORE PUSH23 0x343434342069732045504943206E6F7420554E49515545 PUSH1 0x48 SHL PUSH1 0x44 DUP3 ADD MSTORE PUSH1 0x64 SWAP1 REVERT JUMPDEST PUSH1 0x40 MLOAD PUSH3 0x461BCD PUSH1 0xE5 SHL DUP2 MSTORE PUSH1 0x20 PUSH1 0x4 DUP3 ADD MSTORE PUSH1 0x2E PUSH1 0x24 DUP3 ADD MSTORE PUSH32 0x416C6C207175616472616E7473206D7573742062652033206F72203420666F72 PUSH1 0x44 DUP3 ADD MSTORE PUSH14 0x20554E4951554520726172697479 PUSH1 0x90 SHL PUSH1 0x64 DUP3 ADD MSTORE PUSH1 0x84 SWAP1 REVERT JUMPDEST PUSH1 0x60 DUP8 ADD MLOAD PUSH1 0xFF AND SWAP1 DUP2 EQ SWAP2 POP DUP2 ISZERO PUSH2 0x5165 JUMPI JUMPDEST POP CODESIZE PUSH2 0x508B JUMP JUMPDEST PUSH1 0x4 SWAP2 POP EQ CODESIZE PUSH2 0x515E JUMP JUMPDEST SWAP1 POP PUSH1 0xFF PUSH1 0x40 DUP8 ADD MLOAD AND DUP2 DUP2 EQ SWAP1 DUP2 ISZERO PUSH2 0x518C JUMPI JUMPDEST POP SWAP1 PUSH2 0x5085 JUMP JUMPDEST PUSH1 0x4 SWAP2 POP EQ CODESIZE PUSH2 0x5185 JUMP JUMPDEST SWAP1 POP PUSH1 0xFF PUSH1 0x20 DUP8 ADD MLOAD AND DUP2 DUP2 EQ SWAP1 DUP2 ISZERO PUSH2 0x51B3 JUMPI JUMPDEST POP SWAP1 PUSH2 0x507F JUMP JUMPDEST PUSH1 0x4 SWAP2 POP EQ CODESIZE PUSH2 0x51AC JUMP JUMPDEST PUSH1 0x4 EQ SWAP2 POP CODESIZE PUSH2 0x5078 JUMP JUMPDEST PUSH1 0x3 DUP3 SUB PUSH2 0x5331 JUMPI PUSH1 0xFF DUP6 MLOAD AND PUSH1 0x4 DUP2 EQ SWAP1 DUP2 ISZERO PUSH2 0x5326 JUMPI JUMPDEST POP DUP1 PUSH2 0x5300 JUMPI JUMPDEST DUP1 PUSH2 0x52DA JUMPI JUMPDEST DUP1 PUSH2 0x52B4 JUMPI JUMPDEST ISZERO PUSH2 0x525A JUMPI PUSH1 0xFF PUSH1 0x14 SWAP2 AND LT ISZERO PUSH2 0x5218 JUMPI PUSH1 0x2C SLOAD PUSH1 0x26 SLOAD PUSH1 0x20 SLOAD SWAP6 PUSH1 0x1A SLOAD PUSH2 0x4B11 JUMP JUMPDEST PUSH1 0x40 MLOAD PUSH3 0x461BCD PUSH1 0xE5 SHL DUP2 MSTORE PUSH1 0x20 PUSH1 0x4 DUP3 ADD MSTORE PUSH1 0x1A PUSH1 0x24 DUP3 ADD MSTORE PUSH26 0x35353535206973204C4547454E44415259206E6F742045504943 PUSH1 0x30 SHL PUSH1 0x44 DUP3 ADD MSTORE PUSH1 0x64 SWAP1 REVERT JUMPDEST PUSH1 0x40 MLOAD PUSH3 0x461BCD PUSH1 0xE5 SHL DUP2 MSTORE PUSH1 0x20 PUSH1 0x4 DUP3 ADD MSTORE PUSH1 0x2C PUSH1 0x24 DUP3 ADD MSTORE PUSH32 0x416C6C207175616472616E7473206D7573742062652034206F72203520666F72 PUSH1 0x44 DUP3 ADD MSTORE PUSH12 0x204550494320726172697479 PUSH1 0xA0 SHL PUSH1 0x64 DUP3 ADD MSTORE PUSH1 0x84 SWAP1 REVERT JUMPDEST POP PUSH1 0xFF PUSH1 0x60 DUP7 ADD MLOAD AND PUSH1 0x4 DUP2 EQ SWAP1 DUP2 ISZERO PUSH2 0x52CF JUMPI JUMPDEST POP PUSH2 0x51F5 JUMP JUMPDEST PUSH1 0x5 SWAP2 POP EQ CODESIZE PUSH2 0x52C9 JUMP JUMPDEST POP PUSH1 0xFF PUSH1 0x40 DUP7 ADD MLOAD AND PUSH1 0x4 DUP2 EQ SWAP1 DUP2 ISZERO PUSH2 0x52F5 JUMPI JUMPDEST POP PUSH2 0x51EF JUMP JUMPDEST PUSH1 0x5 SWAP2 POP EQ CODESIZE PUSH2 0x52EF JUMP JUMPDEST POP PUSH1 0xFF PUSH1 0x20 DUP7 ADD MLOAD AND PUSH1 0x4 DUP2 EQ SWAP1 DUP2 ISZERO PUSH2 0x531B JUMPI JUMPDEST POP PUSH2 0x51E9 JUMP JUMPDEST PUSH1 0x5 SWAP2 POP EQ CODESIZE PUSH2 0x5315 JUMP JUMPDEST PUSH1 0x5 SWAP2 POP EQ CODESIZE PUSH2 0x51E2 JUMP JUMPDEST PUSH1 0x4 DUP3 SUB PUSH2 0x54A0 JUMPI PUSH1 0xFF DUP6 MLOAD AND PUSH1 0x5 DUP2 EQ SWAP1 DUP2 ISZERO PUSH2 0x5495 JUMPI JUMPDEST POP DUP1 PUSH2 0x546F JUMPI JUMPDEST DUP1 PUSH2 0x5449 JUMPI JUMPDEST DUP1 PUSH2 0x5423 JUMPI JUMPDEST ISZERO PUSH2 0x53C4 JUMPI PUSH1 0xFF PUSH1 0x18 SWAP2 AND LT ISZERO PUSH2 0x5380 JUMPI PUSH1 0x2D SLOAD PUSH1 0x27 SLOAD PUSH1 0x21 SLOAD SWAP6 PUSH1 0x1B SLOAD PUSH2 0x4B11 JUMP JUMPDEST PUSH1 0x40 MLOAD PUSH3 0x461BCD PUSH1 0xE5 SHL DUP2 MSTORE PUSH1 0x20 PUSH1 0x4 DUP3 ADD MSTORE PUSH1 0x1C PUSH1 0x24 DUP3 ADD MSTORE PUSH28 0x36363636206973204D5954484943206E6F74204C4547454E44415259 PUSH1 0x20 SHL PUSH1 0x44 DUP3 ADD MSTORE PUSH1 0x64 SWAP1 REVERT JUMPDEST PUSH1 0x40 MLOAD PUSH3 0x461BCD PUSH1 0xE5 SHL DUP2 MSTORE PUSH1 0x20 PUSH1 0x4 DUP3 ADD MSTORE PUSH1 0x31 PUSH1 0x24 DUP3 ADD MSTORE PUSH32 0x416C6C207175616472616E7473206D7573742062652035206F72203620666F72 PUSH1 0x44 DUP3 ADD MSTORE PUSH17 0x204C4547454E4441525920726172697479 PUSH1 0x78 SHL PUSH1 0x64 DUP3 ADD MSTORE PUSH1 0x84 SWAP1 REVERT JUMPDEST POP PUSH1 0xFF PUSH1 0x60 DUP7 ADD MLOAD AND PUSH1 0x5 DUP2 EQ SWAP1 DUP2 ISZERO PUSH2 0x543E JUMPI JUMPDEST POP PUSH2 0x535D JUMP JUMPDEST PUSH1 0x6 SWAP2 POP EQ CODESIZE PUSH2 0x5438 JUMP JUMPDEST POP PUSH1 0xFF PUSH1 0x40 DUP7 ADD MLOAD AND PUSH1 0x5 DUP2 EQ SWAP1 DUP2 ISZERO PUSH2 0x5464 JUMPI JUMPDEST POP PUSH2 0x5357 JUMP JUMPDEST PUSH1 0x6 SWAP2 POP EQ CODESIZE PUSH2 0x545E JUMP JUMPDEST POP PUSH1 0xFF PUSH1 0x20 DUP7 ADD MLOAD AND PUSH1 0x5 DUP2 EQ SWAP1 DUP2 ISZERO PUSH2 0x548A JUMPI JUMPDEST POP PUSH2 0x5351 JUMP JUMPDEST PUSH1 0x6 SWAP2 POP EQ CODESIZE PUSH2 0x5484 JUMP JUMPDEST PUSH1 0x6 SWAP2 POP EQ CODESIZE PUSH2 0x534A JUMP JUMPDEST POP PUSH1 0x5 DUP2 SUB PUSH2 0x5564 JUMPI PUSH1 0x6 PUSH1 0xFF DUP6 MLOAD AND EQ DUP1 PUSH2 0x5553 JUMPI JUMPDEST DUP1 PUSH2 0x5542 JUMPI JUMPDEST DUP1 PUSH2 0x5531 JUMPI JUMPDEST ISZERO PUSH2 0x54DA JUMPI PUSH1 0x2E SLOAD PUSH1 0x28 SLOAD PUSH1 0x22 SLOAD SWAP6 PUSH1 0x1C SLOAD PUSH2 0x4B11 JUMP JUMPDEST PUSH1 0x40 MLOAD PUSH3 0x461BCD PUSH1 0xE5 SHL DUP2 MSTORE PUSH1 0x20 PUSH1 0x4 DUP3 ADD MSTORE PUSH1 0x29 PUSH1 0x24 DUP3 ADD MSTORE PUSH32 0x416C6C207175616472616E7473206D757374206265203620666F72204D595448 PUSH1 0x44 DUP3 ADD MSTORE PUSH9 0x494320726172697479 PUSH1 0xB8 SHL PUSH1 0x64 DUP3 ADD MSTORE PUSH1 0x84 SWAP1 REVERT JUMPDEST POP PUSH1 0x6 PUSH1 0xFF PUSH1 0x60 DUP7 ADD MLOAD AND EQ PUSH2 0x54C3 JUMP JUMPDEST POP PUSH1 0x6 PUSH1 0xFF PUSH1 0x40 DUP7 ADD MLOAD AND EQ PUSH2 0x54BD JUMP JUMPDEST POP PUSH1 0x6 PUSH1 0xFF PUSH1 0x20 DUP7 ADD MLOAD AND EQ PUSH2 0x54B7 JUMP JUMPDEST PUSH1 0x40 MLOAD PUSH3 0x461BCD PUSH1 0xE5 SHL DUP2 MSTORE PUSH1 0x20 PUSH1 0x4 DUP3 ADD MSTORE PUSH1 0xC PUSH1 0x24 DUP3 ADD MSTORE PUSH12 0x77726F6E6720526172697479 PUSH1 0xA0 SHL PUSH1 0x44 DUP3 ADD MSTORE PUSH1 0x64 SWAP1 REVERT JUMPDEST PUSH4 0x4E487B71 PUSH1 0xE0 SHL DUP6 MSTORE PUSH1 0x21 PUSH1 0x4 MSTORE PUSH1 0x24 DUP6 REVERT JUMPDEST PUSH1 0x40 MLOAD PUSH1 0x20 DUP1 DUP3 MSTORE DUP2 SWAP1 PUSH2 0x6EA SWAP1 DUP3 ADD DUP11 PUSH2 0x5DC6 JUMP JUMPDEST PUSH1 0x40 MLOAD PUSH3 0x461BCD PUSH1 0xE5 SHL DUP2 MSTORE PUSH1 0x20 PUSH1 0x4 DUP3 ADD MSTORE PUSH1 0x26 PUSH1 0x24 DUP3 ADD MSTORE PUSH32 0x496E70757420617272617973206D7573742068617665207468652073616D6520 PUSH1 0x44 DUP3 ADD MSTORE PUSH6 0xD8CADCCEE8D PUSH1 0xD3 SHL PUSH1 0x64 DUP3 ADD MSTORE PUSH1 0x84 SWAP1 REVERT JUMPDEST POP DUP5 MLOAD DUP2 MLOAD EQ PUSH2 0x4A16 JUMP JUMPDEST SWAP1 POP DUP6 MLOAD EQ CODESIZE PUSH2 0x4A0F JUMP JUMPDEST PUSH1 0x1 PUSH1 0x1 PUSH1 0x40 SHL SUB DUP4 CALLDATALOAD GT PUSH2 0x1261 JUMPI PUSH1 0x20 DUP1 PUSH1 0x24 SWAP3 PUSH2 0x5652 CALLDATASIZE DUP6 DUP9 CALLDATALOAD PUSH1 0x64 CALLDATALOAD ADD ADD PUSH2 0x5DA8 JUMP JUMPDEST DUP2 MSTORE ADD SWAP4 ADD SWAP3 SWAP1 POP PUSH2 0x49C9 JUMP JUMPDEST CALLDATASIZE PUSH1 0x1F DUP5 ADD SLT ISZERO PUSH2 0x1261 JUMPI PUSH1 0x40 MLOAD PUSH2 0x5676 DUP2 PUSH2 0x5CAF JUMP JUMPDEST DUP1 CALLDATASIZE PUSH1 0x80 DUP7 ADD GT PUSH2 0x397B JUMPI DUP5 SWAP1 JUMPDEST PUSH1 0x80 DUP7 ADD DUP3 LT PUSH2 0x56A1 JUMPI POP POP DUP2 MSTORE PUSH1 0x80 SWAP3 SWAP1 SWAP3 ADD SWAP2 PUSH1 0x20 ADD PUSH2 0x495A JUMP JUMPDEST PUSH1 0x20 DUP1 SWAP2 PUSH2 0x56AE DUP5 PUSH2 0x5D48 JUMP JUMPDEST DUP2 MSTORE ADD SWAP2 ADD SWAP1 PUSH2 0x5684 JUMP JUMPDEST CALLDATASIZE PUSH1 0x1F DUP4 ADD SLT ISZERO PUSH2 0x41FF JUMPI PUSH1 0x40 MLOAD PUSH2 0x56D0 DUP2 PUSH2 0x5CE5 JUMP JUMPDEST DUP1 PUSH1 0x40 DUP5 ADD CALLDATASIZE DUP2 GT PUSH2 0x5712 JUMPI DUP5 SWAP2 JUMPDEST DUP2 DUP4 LT PUSH2 0x56FA JUMPI POP POP POP DUP2 PUSH1 0x20 SWAP2 PUSH1 0x40 SWAP4 MSTORE ADD SWAP2 ADD SWAP1 PUSH2 0x48FA JUMP JUMPDEST PUSH1 0x20 DUP1 SWAP2 PUSH2 0x5707 DUP6 PUSH2 0x5D48 JUMP JUMPDEST DUP2 MSTORE ADD SWAP3 ADD SWAP2 PUSH2 0x56DF JUMP JUMPDEST DUP9 DUP1 REVERT JUMPDEST DUP3 CALLDATALOAD PUSH1 0x6 DUP2 LT ISZERO PUSH2 0x41FF JUMPI DUP2 MSTORE PUSH1 0x20 SWAP3 DUP4 ADD SWAP3 ADD PUSH2 0x489A JUMP JUMPDEST POP CALLVALUE PUSH2 0x601 JUMPI DUP1 PUSH1 0x3 NOT CALLDATASIZE ADD SLT PUSH2 0x601 JUMPI PUSH1 0x20 PUSH1 0x24 SLOAD PUSH1 0x40 MLOAD SWAP1 DUP2 MSTORE RETURN JUMPDEST POP CALLVALUE PUSH2 0x601 JUMPI PUSH2 0x575C CALLDATASIZE PUSH2 0x5C3F JUMP JUMPDEST SWAP5 PUSH2 0x576C SWAP5 SWAP2 SWAP5 SWAP4 SWAP3 SWAP4 CALLER PUSH2 0x673B JUMP JUMPDEST DUP1 ISZERO PUSH2 0x5791 JUMPI JUMPDEST PUSH2 0x577C SWAP1 PUSH2 0x60CA JUMP JUMPDEST PUSH1 0x23 SSTORE PUSH1 0x24 SSTORE PUSH1 0x25 SSTORE PUSH1 0x26 SSTORE PUSH1 0x27 SSTORE PUSH1 0x28 SSTORE DUP1 RETURN JUMPDEST POP PUSH2 0x577C PUSH2 0x579D PUSH2 0x6706 JUMP JUMPDEST SWAP1 POP PUSH2 0x5773 JUMP JUMPDEST POP CALLVALUE PUSH2 0x601 JUMPI PUSH1 0x20 CALLDATASIZE PUSH1 0x3 NOT ADD SLT PUSH2 0x601 JUMPI PUSH1 0x4 CALLDATALOAD SWAP1 PUSH1 0x6 DUP3 LT ISZERO PUSH2 0x601 JUMPI POP DUP1 PUSH2 0x57D7 JUMPI POP PUSH1 0x20 PUSH1 0x1D SLOAD PUSH1 0x40 MLOAD SWAP1 DUP2 MSTORE RETURN JUMPDEST PUSH1 0x1 DUP2 SUB PUSH2 0x57EA JUMPI POP PUSH1 0x20 PUSH1 0x1E SLOAD PUSH2 0x466C JUMP JUMPDEST PUSH1 0x2 DUP2 SUB PUSH2 0x57FD JUMPI POP PUSH1 0x20 PUSH1 0x1F SLOAD PUSH2 0x466C JUMP JUMPDEST PUSH1 0x3 DUP2 SUB PUSH2 0x580F JUMPI POP PUSH1 0x20 DUP1 SLOAD PUSH2 0x466C JUMP JUMPDEST PUSH1 0x4 DUP2 SUB PUSH2 0x5822 JUMPI POP PUSH1 0x20 PUSH1 0x21 SLOAD PUSH2 0x466C JUMP JUMPDEST PUSH1 0x5 SUB PUSH2 0x5833 JUMPI PUSH1 0x20 PUSH1 0x22 SLOAD PUSH2 0x466C JUMP JUMPDEST PUSH1 0x40 MLOAD PUSH3 0x461BCD PUSH1 0xE5 SHL DUP2 MSTORE PUSH1 0x20 PUSH1 0x4 DUP3 ADD MSTORE PUSH1 0xC PUSH1 0x24 DUP3 ADD MSTORE PUSH12 0x77726F6E6720726172697479 PUSH1 0xA0 SHL PUSH1 0x44 DUP3 ADD MSTORE PUSH1 0x64 SWAP1 REVERT JUMPDEST POP CALLVALUE PUSH2 0x601 JUMPI PUSH1 0x40 CALLDATASIZE PUSH1 0x3 NOT ADD SLT PUSH2 0x601 JUMPI PUSH2 0x5881 PUSH2 0x5C13 JUMP JUMPDEST PUSH1 0x24 CALLDATALOAD PUSH2 0x588D DUP2 PUSH2 0x6793 JUMP JUMPDEST CALLER ISZERO ISZERO DUP1 PUSH2 0x5937 JUMPI JUMPDEST DUP1 PUSH2 0x590C JUMPI JUMPDEST PUSH2 0x58F4 JUMPI PUSH1 0x1 PUSH1 0x1 PUSH1 0xA0 SHL SUB SWAP3 DUP4 AND SWAP3 DUP3 SWAP2 DUP5 SWAP2 AND PUSH32 0x8C5BE1E5EBEC7D5BD14F71427D1E84F3DD0314C0F7B2291E5B200AC8C7C3B925 DUP7 DUP1 LOG4 DUP3 MSTORE PUSH1 0x4 PUSH1 0x20 MSTORE PUSH1 0x40 DUP3 KECCAK256 DUP1 SLOAD PUSH1 0x1 PUSH1 0x1 PUSH1 0xA0 SHL SUB NOT AND SWAP1 SWAP2 OR SWAP1 SSTORE DUP1 RETURN JUMPDEST PUSH1 0x40 MLOAD PUSH4 0xA9FBF51F PUSH1 0xE0 SHL DUP2 MSTORE CALLER PUSH1 0x4 DUP3 ADD MSTORE PUSH1 0x24 SWAP1 REVERT JUMPDEST POP PUSH1 0x1 PUSH1 0x1 PUSH1 0xA0 SHL SUB DUP2 AND DUP5 MSTORE PUSH1 0x5 PUSH1 0x20 SWAP1 DUP2 MSTORE PUSH1 0x40 DUP1 DUP7 KECCAK256 CALLER DUP8 MSTORE SWAP1 SWAP2 MSTORE DUP5 KECCAK256 SLOAD PUSH1 0xFF AND ISZERO PUSH2 0x589C JUMP JUMPDEST POP PUSH1 0x1 PUSH1 0x1 PUSH1 0xA0 SHL SUB DUP2 AND CALLER EQ ISZERO PUSH2 0x5896 JUMP JUMPDEST POP CALLVALUE PUSH2 0x601 JUMPI DUP1 PUSH1 0x3 NOT CALLDATASIZE ADD SLT PUSH2 0x601 JUMPI PUSH1 0x20 PUSH1 0xFF PUSH1 0xC SLOAD AND PUSH1 0x40 MLOAD SWAP1 DUP2 MSTORE RETURN JUMPDEST POP CALLVALUE PUSH2 0x601 JUMPI PUSH1 0x20 CALLDATASIZE PUSH1 0x3 NOT ADD SLT PUSH2 0x601 JUMPI PUSH1 0x20 SWAP1 PUSH1 0x4 CALLDATALOAD PUSH2 0x598C DUP2 PUSH2 0x6793 JUMP JUMPDEST POP DUP2 MSTORE PUSH1 0x4 DUP3 MSTORE PUSH1 0x40 PUSH1 0x1 DUP1 PUSH1 0xA0 SHL SUB SWAP2 KECCAK256 SLOAD AND PUSH1 0x40 MLOAD SWAP1 DUP2 MSTORE RETURN JUMPDEST POP CALLVALUE PUSH2 0x601 JUMPI DUP1 PUSH1 0x3 NOT CALLDATASIZE ADD SLT PUSH2 0x601 JUMPI PUSH1 0x40 MLOAD SWAP1 DUP1 DUP3 DUP3 SLOAD SWAP2 PUSH2 0x59CB DUP4 PUSH2 0x5FAC JUMP JUMPDEST SWAP3 DUP4 DUP4 MSTORE PUSH1 0x20 SWAP5 PUSH1 0x1 SWAP2 DUP7 PUSH1 0x1 DUP3 AND SWAP2 DUP3 PUSH1 0x0 EQ PUSH2 0x5A36 JUMPI POP POP PUSH1 0x1 EQ PUSH2 0x59FB JUMPI JUMPDEST POP POP PUSH2 0x264B SWAP3 POP SUB DUP4 PUSH2 0x5D00 JUMP JUMPDEST SWAP1 DUP6 SWAP3 POP DUP2 DUP1 MSTORE DUP3 DUP3 KECCAK256 JUMPDEST DUP6 DUP4 LT PUSH2 0x5A1E JUMPI POP POP PUSH2 0x264B SWAP4 POP DUP3 ADD ADD CODESIZE DUP1 PUSH2 0x59ED JUMP JUMPDEST DUP1 SLOAD DUP4 DUP10 ADD DUP6 ADD MSTORE DUP8 SWAP5 POP DUP7 SWAP4 SWAP1 SWAP3 ADD SWAP2 DUP2 ADD PUSH2 0x5A06 JUMP JUMPDEST SWAP3 POP SWAP4 POP POP PUSH2 0x264B SWAP5 SWAP2 POP PUSH1 0xFF NOT AND DUP3 DUP5 ADD MSTORE ISZERO ISZERO PUSH1 0x5 SHL DUP3 ADD ADD CODESIZE DUP1 PUSH2 0x59ED JUMP JUMPDEST POP CALLVALUE PUSH2 0x601 JUMPI DUP1 PUSH1 0x3 NOT CALLDATASIZE ADD SLT PUSH2 0x601 JUMPI PUSH1 0x20 PUSH1 0x25 SLOAD PUSH1 0x40 MLOAD SWAP1 DUP2 MSTORE RETURN JUMPDEST POP CALLVALUE PUSH2 0x601 JUMPI DUP1 PUSH1 0x3 NOT CALLDATASIZE ADD SLT PUSH2 0x601 JUMPI PUSH2 0x5A96 PUSH1 0xFF PUSH1 0x16 SLOAD AND ISZERO PUSH2 0x608B JUMP JUMPDEST PUSH1 0x34 SLOAD PUSH1 0x1 PUSH1 0x1 PUSH1 0xA0 SHL SUB AND DUP1 ISZERO PUSH2 0x5AF9 JUMPI CALLER DUP3 MSTORE PUSH1 0x5 PUSH1 0x20 MSTORE PUSH1 0x40 DUP3 KECCAK256 DUP2 DUP4 MSTORE PUSH1 0x20 MSTORE PUSH1 0x40 DUP3 KECCAK256 PUSH1 0x1 PUSH1 0xFF NOT DUP3 SLOAD AND OR SWAP1 SSTORE PUSH1 0x40 MLOAD PUSH1 0x1 DUP2 MSTORE PUSH32 0x17307EAB39AB6107E8899845AD3D59BD9653F200F220920489CA2B5937696C31 PUSH1 0x20 CALLER SWAP3 LOG3 DUP1 RETURN JUMPDEST PUSH1 0x24 SWAP1 PUSH1 0x40 MLOAD SWAP1 PUSH4 0xB611743 PUSH1 0xE3 SHL DUP3 MSTORE PUSH1 0x4 DUP3 ADD MSTORE REVERT JUMPDEST POP CALLVALUE PUSH2 0x601 JUMPI DUP1 PUSH1 0x3 NOT CALLDATASIZE ADD SLT PUSH2 0x601 JUMPI PUSH1 0x20 PUSH1 0xFF PUSH1 0x9 SLOAD AND PUSH1 0x40 MLOAD SWAP1 DUP2 MSTORE RETURN JUMPDEST SWAP1 POP CALLVALUE PUSH2 0x8FF JUMPI PUSH1 0x20 CALLDATASIZE PUSH1 0x3 NOT ADD SLT PUSH2 0x8FF JUMPI PUSH1 0x4 CALLDATALOAD PUSH4 0xFFFFFFFF PUSH1 0xE0 SHL DUP2 AND DUP1 SWAP2 SUB PUSH2 0x397F JUMPI PUSH1 0x20 SWAP3 POP PUSH4 0x7965DB0B PUSH1 0xE0 SHL DUP2 EQ SWAP1 DUP2 ISZERO PUSH2 0x5B76 JUMPI JUMPDEST POP ISZERO ISZERO DUP2 MSTORE RETURN JUMPDEST PUSH4 0x24832483 PUSH1 0xE1 SHL DUP2 EQ SWAP2 POP DUP2 ISZERO PUSH2 0x5B90 JUMPI JUMPDEST POP CODESIZE PUSH2 0x5B6F JUMP JUMPDEST PUSH4 0x80AC58CD PUSH1 0xE0 SHL DUP2 EQ SWAP2 POP DUP2 ISZERO PUSH2 0x5BC2 JUMPI JUMPDEST DUP2 ISZERO PUSH2 0x5BB1 JUMPI JUMPDEST POP CODESIZE PUSH2 0x5B89 JUMP JUMPDEST PUSH4 0x1FFC9A7 PUSH1 0xE0 SHL EQ SWAP1 POP CODESIZE PUSH2 0x5BAA JUMP JUMPDEST PUSH4 0x5B5E139F PUSH1 0xE0 SHL DUP2 EQ SWAP2 POP PUSH2 0x5BA3 JUMP JUMPDEST SWAP2 SWAP1 DUP3 MLOAD SWAP3 DUP4 DUP3 MSTORE PUSH1 0x0 JUMPDEST DUP5 DUP2 LT PUSH2 0x5BFF JUMPI POP POP DUP3 PUSH1 0x0 PUSH1 0x20 DUP1 SWAP5 SWAP6 DUP5 ADD ADD MSTORE PUSH1 0x1F DUP1 NOT SWAP2 ADD AND ADD ADD SWAP1 JUMP JUMPDEST PUSH1 0x20 DUP2 DUP4 ADD DUP2 ADD MLOAD DUP5 DUP4 ADD DUP3 ADD MSTORE ADD PUSH2 0x5BDE JUMP JUMPDEST PUSH1 0x4 CALLDATALOAD SWAP1 PUSH1 0x1 PUSH1 0x1 PUSH1 0xA0 SHL SUB DUP3 AND DUP3 SUB PUSH2 0x1161 JUMPI JUMP JUMPDEST PUSH1 0x24 CALLDATALOAD SWAP1 PUSH1 0x1 PUSH1 0x1 PUSH1 0xA0 SHL SUB DUP3 AND DUP3 SUB PUSH2 0x1161 JUMPI JUMP JUMPDEST PUSH1 0xC0 SWAP1 PUSH1 0x3 NOT ADD SLT PUSH2 0x1161 JUMPI PUSH1 0x4 CALLDATALOAD SWAP1 PUSH1 0x24 CALLDATALOAD SWAP1 PUSH1 0x44 CALLDATALOAD SWAP1 PUSH1 0x64 CALLDATALOAD SWAP1 PUSH1 0x84 CALLDATALOAD SWAP1 PUSH1 0xA4 CALLDATALOAD SWAP1 JUMP JUMPDEST PUSH1 0x1 PUSH1 0x1 PUSH1 0x40 SHL SUB DUP2 GT PUSH2 0x1DCE JUMPI PUSH1 0x40 MSTORE JUMP JUMPDEST PUSH2 0x160 DUP2 ADD SWAP1 DUP2 LT PUSH1 0x1 PUSH1 0x1 PUSH1 0x40 SHL SUB DUP3 GT OR PUSH2 0x1DCE JUMPI PUSH1 0x40 MSTORE JUMP JUMPDEST PUSH1 0xC0 DUP2 ADD SWAP1 DUP2 LT PUSH1 0x1 PUSH1 0x1 PUSH1 0x40 SHL SUB DUP3 GT OR PUSH2 0x1DCE JUMPI PUSH1 0x40 MSTORE JUMP JUMPDEST PUSH1 0x80 DUP2 ADD SWAP1 DUP2 LT PUSH1 0x1 PUSH1 0x1 PUSH1 0x40 SHL SUB DUP3 GT OR PUSH2 0x1DCE JUMPI PUSH1 0x40 MSTORE JUMP JUMPDEST PUSH1 0x20 DUP2 ADD SWAP1 DUP2 LT PUSH1 0x1 PUSH1 0x1 PUSH1 0x40 SHL SUB DUP3 GT OR PUSH2 0x1DCE JUMPI PUSH1 0x40 MSTORE JUMP JUMPDEST PUSH1 0x40 DUP2 ADD SWAP1 DUP2 LT PUSH1 0x1 PUSH1 0x1 PUSH1 0x40 SHL SUB DUP3 GT OR PUSH2 0x1DCE JUMPI PUSH1 0x40 MSTORE JUMP JUMPDEST SWAP1 PUSH1 0x1F DUP1 NOT SWAP2 ADD AND DUP2 ADD SWAP1 DUP2 LT PUSH1 0x1 PUSH1 0x1 PUSH1 0x40 SHL SUB DUP3 GT OR PUSH2 0x1DCE JUMPI PUSH1 0x40 MSTORE JUMP JUMPDEST PUSH1 0x1 PUSH1 0x1 PUSH1 0x40 SHL SUB DUP2 GT PUSH2 0x1DCE JUMPI PUSH1 0x5 SHL PUSH1 0x20 ADD SWAP1 JUMP JUMPDEST PUSH1 0x4 CALLDATALOAD SWAP1 PUSH1 0xFF DUP3 AND DUP3 SUB PUSH2 0x1161 JUMPI JUMP JUMPDEST CALLDATALOAD SWAP1 PUSH1 0xFF DUP3 AND DUP3 SUB PUSH2 0x1161 JUMPI JUMP JUMPDEST PUSH1 0x1 PUSH1 0x1 PUSH1 0x40 SHL SUB DUP2 GT PUSH2 0x1DCE JUMPI PUSH1 0x1F ADD PUSH1 0x1F NOT AND PUSH1 0x20 ADD SWAP1 JUMP JUMPDEST SWAP3 SWAP2 SWAP3 PUSH2 0x5D7D DUP3 PUSH2 0x5D56 JUMP JUMPDEST SWAP2 PUSH2 0x5D8B PUSH1 0x40 MLOAD SWAP4 DUP5 PUSH2 0x5D00 JUMP JUMPDEST DUP3 SWAP5 DUP2 DUP5 MSTORE DUP2 DUP4 ADD GT PUSH2 0x1161 JUMPI DUP3 DUP2 PUSH1 0x20 SWAP4 DUP5 PUSH1 0x0 SWAP7 ADD CALLDATACOPY ADD ADD MSTORE JUMP JUMPDEST SWAP1 DUP1 PUSH1 0x1F DUP4 ADD SLT ISZERO PUSH2 0x1161 JUMPI DUP2 PUSH1 0x20 PUSH2 0x5DC3 SWAP4 CALLDATALOAD SWAP2 ADD PUSH2 0x5D71 JUMP JUMPDEST SWAP1 JUMP JUMPDEST SWAP1 DUP2 MLOAD DUP1 DUP3 MSTORE PUSH1 0x20 DUP1 DUP1 SWAP4 ADD SWAP4 ADD SWAP2 PUSH1 0x0 JUMPDEST DUP3 DUP2 LT PUSH2 0x5DE6 JUMPI POP POP POP POP SWAP1 JUMP JUMPDEST DUP4 MLOAD DUP6 MSTORE SWAP4 DUP2 ADD SWAP4 SWAP3 DUP2 ADD SWAP3 PUSH1 0x1 ADD PUSH2 0x5DD8 JUMP JUMPDEST PUSH1 0x60 SWAP1 PUSH1 0x3 NOT ADD SLT PUSH2 0x1161 JUMPI PUSH1 0x1 PUSH1 0x1 PUSH1 0xA0 SHL SUB SWAP1 PUSH1 0x4 CALLDATALOAD DUP3 DUP2 AND DUP2 SUB PUSH2 0x1161 JUMPI SWAP2 PUSH1 0x24 CALLDATALOAD SWAP1 DUP2 AND DUP2 SUB PUSH2 0x1161 JUMPI SWAP1 PUSH1 0x44 CALLDATALOAD SWAP1 JUMP JUMPDEST SWAP1 PUSH1 0x6 DUP3 LT ISZERO PUSH2 0x1DA2 JUMPI MSTORE JUMP JUMPDEST SWAP1 PUSH2 0x1E0 DUP3 MLOAD DUP3 MSTORE PUSH1 0x20 PUSH2 0x5E56 DUP2 DUP6 ADD MLOAD DUP3 DUP6 ADD SWAP1 PUSH2 0x5E2F JUMP JUMPDEST PUSH1 0x40 DUP5 ADD MLOAD PUSH1 0x40 DUP5 ADD PUSH1 0x0 SWAP1 JUMPDEST DUP4 PUSH1 0x4 DUP4 LT PUSH2 0x5F03 JUMPI POP POP POP POP PUSH1 0x60 DUP5 ADD MLOAD SWAP1 PUSH1 0x0 PUSH1 0xC0 DUP6 ADD JUMPDEST PUSH1 0x2 DUP3 LT PUSH2 0x5EEB JUMPI POP POP POP POP PUSH2 0x1C0 SWAP1 PUSH2 0x5EE2 PUSH1 0x80 DUP6 ADD MLOAD SWAP2 PUSH2 0x100 SWAP3 DUP4 DUP7 ADD MSTORE PUSH1 0xA0 DUP7 ADD MLOAD PUSH2 0x120 SWAP1 DUP2 DUP8 ADD MSTORE PUSH1 0xC0 DUP8 ADD MLOAD SWAP4 PUSH2 0x140 SWAP5 DUP6 DUP9 ADD MSTORE PUSH1 0xE0 DUP9 ADD MLOAD ISZERO ISZERO PUSH2 0x160 DUP9 ADD MSTORE DUP8 ADD MLOAD PUSH2 0x180 DUP8 ADD MSTORE DUP7 ADD MLOAD SWAP1 DUP1 PUSH2 0x1A0 DUP8 ADD MSTORE DUP6 ADD SWAP1 PUSH2 0x5BD3 JUMP JUMPDEST SWAP4 ADD MLOAD SWAP2 ADD MSTORE SWAP1 JUMP JUMPDEST DUP3 DUP1 PUSH1 0x1 SWAP3 PUSH1 0xFF DUP8 MLOAD AND DUP2 MSTORE ADD SWAP5 ADD SWAP2 ADD SWAP1 SWAP3 PUSH2 0x5E7D JUMP JUMPDEST DUP1 PUSH1 0x1 SWAP3 PUSH1 0xFF DUP7 MLOAD AND DUP2 MSTORE ADD SWAP4 ADD SWAP2 ADD SWAP1 SWAP2 PUSH2 0x5E63 JUMP JUMPDEST PUSH1 0x24 CALLDATALOAD SWAP1 DUP2 ISZERO ISZERO DUP3 SUB PUSH2 0x1161 JUMPI JUMP JUMPDEST PUSH1 0x1 PUSH1 0x1 PUSH1 0xA0 SHL SUB AND PUSH1 0x0 SWAP1 DUP2 MSTORE PUSH1 0x12 PUSH1 0x20 MSTORE PUSH1 0x40 SWAP1 KECCAK256 SWAP1 JUMP JUMPDEST PUSH1 0x1 PUSH1 0x1 PUSH1 0xA0 SHL SUB AND PUSH1 0x0 SWAP1 DUP2 MSTORE PUSH1 0x13 PUSH1 0x20 MSTORE PUSH1 0x40 SWAP1 KECCAK256 SWAP1 JUMP JUMPDEST PUSH1 0x1 PUSH1 0x1 PUSH1 0xA0 SHL SUB AND PUSH1 0x0 SWAP1 DUP2 MSTORE PUSH1 0x10 PUSH1 0x20 MSTORE PUSH1 0x40 SWAP1 KECCAK256 SWAP1 JUMP JUMPDEST PUSH1 0x7 SLOAD DUP2 LT ISZERO PUSH2 0x5F96 JUMPI PUSH1 0x7 PUSH1 0x0 MSTORE PUSH1 0xB PUSH1 0x20 PUSH1 0x0 KECCAK256 SWAP2 MUL ADD SWAP1 PUSH1 0x0 SWAP1 JUMP JUMPDEST PUSH4 0x4E487B71 PUSH1 0xE0 SHL PUSH1 0x0 MSTORE PUSH1 0x32 PUSH1 0x4 MSTORE PUSH1 0x24 PUSH1 0x0 REVERT JUMPDEST SWAP1 PUSH1 0x1 DUP3 DUP2 SHR SWAP3 AND DUP1 ISZERO PUSH2 0x5FDC JUMPI JUMPDEST PUSH1 0x20 DUP4 LT EQ PUSH2 0x5FC6 JUMPI JUMP JUMPDEST PUSH4 0x4E487B71 PUSH1 0xE0 SHL PUSH1 0x0 MSTORE PUSH1 0x22 PUSH1 0x4 MSTORE PUSH1 0x24 PUSH1 0x0 REVERT JUMPDEST SWAP2 PUSH1 0x7F AND SWAP2 PUSH2 0x5FBB JUMP JUMPDEST SWAP1 PUSH1 0x40 MLOAD SWAP2 DUP3 PUSH1 0x0 DUP3 SLOAD PUSH2 0x5FF9 DUP2 PUSH2 0x5FAC JUMP JUMPDEST SWAP1 DUP2 DUP5 MSTORE PUSH1 0x20 SWAP5 PUSH1 0x1 SWAP2 PUSH1 0x1 DUP2 AND SWAP1 DUP2 PUSH1 0x0 EQ PUSH2 0x6069 JUMPI POP PUSH1 0x1 EQ PUSH2 0x602A JUMPI JUMPDEST POP POP POP PUSH2 0x6028 SWAP3 POP SUB DUP4 PUSH2 0x5D00 JUMP JUMPDEST JUMP JUMPDEST PUSH1 0x0 SWAP1 DUP2 MSTORE DUP6 DUP2 KECCAK256 SWAP6 SWAP4 POP SWAP2 SWAP1 JUMPDEST DUP2 DUP4 LT PUSH2 0x6051 JUMPI POP POP PUSH2 0x6028 SWAP4 POP DUP3 ADD ADD CODESIZE DUP1 DUP1 PUSH2 0x6019 JUMP JUMPDEST DUP6 SLOAD DUP9 DUP5 ADD DUP6 ADD MSTORE SWAP5 DUP6 ADD SWAP5 DUP8 SWAP5 POP SWAP2 DUP4 ADD SWAP2 PUSH2 0x6038 JUMP JUMPDEST SWAP3 POP POP POP PUSH2 0x6028 SWAP5 SWAP3 POP PUSH1 0xFF NOT AND DUP3 DUP5 ADD MSTORE ISZERO ISZERO PUSH1 0x5 SHL DUP3 ADD ADD CODESIZE DUP1 DUP1 PUSH2 0x6019 JUMP JUMPDEST ISZERO PUSH2 0x6092 JUMPI JUMP JUMPDEST PUSH1 0x40 MLOAD PUSH3 0x461BCD PUSH1 0xE5 SHL DUP2 MSTORE PUSH1 0x20 PUSH1 0x4 DUP3 ADD MSTORE PUSH1 0x10 PUSH1 0x24 DUP3 ADD MSTORE PUSH16 0x14185D5CD8589B194E881C185D5CD959 PUSH1 0x82 SHL PUSH1 0x44 DUP3 ADD MSTORE PUSH1 0x64 SWAP1 REVERT JUMPDEST ISZERO PUSH2 0x60D1 JUMPI JUMP JUMPDEST PUSH1 0x40 MLOAD PUSH3 0x461BCD PUSH1 0xE5 SHL DUP2 MSTORE PUSH1 0x20 PUSH1 0x4 DUP3 ADD MSTORE PUSH1 0x12 PUSH1 0x24 DUP3 ADD MSTORE PUSH18 0x3737BA1027BBB732B91037B91020B236B4B7 PUSH1 0x71 SHL PUSH1 0x44 DUP3 ADD MSTORE PUSH1 0x64 SWAP1 REVERT JUMPDEST ISZERO PUSH2 0x6112 JUMPI JUMP JUMPDEST PUSH1 0x40 MLOAD PUSH3 0x461BCD PUSH1 0xE5 SHL DUP2 MSTORE PUSH1 0x20 PUSH1 0x4 DUP3 ADD MSTORE PUSH1 0x2D PUSH1 0x24 DUP3 ADD MSTORE PUSH32 0x66756E6374696F6E2063616C6C61626C652066726F6D20747265617375727920 PUSH1 0x44 DUP3 ADD MSTORE PUSH13 0x636F6E7472616374206F6E6C79 PUSH1 0x98 SHL PUSH1 0x64 DUP3 ADD MSTORE PUSH1 0x84 SWAP1 REVERT JUMPDEST SWAP1 PUSH2 0x6177 DUP3 PUSH2 0x5D21 JUMP JUMPDEST PUSH2 0x6184 PUSH1 0x40 MLOAD SWAP2 DUP3 PUSH2 0x5D00 JUMP JUMPDEST DUP3 DUP2 MSTORE DUP1 SWAP3 PUSH2 0x6195 PUSH1 0x1F NOT SWAP2 PUSH2 0x5D21 JUMP JUMPDEST ADD SWAP1 PUSH1 0x20 CALLDATASIZE SWAP2 ADD CALLDATACOPY JUMP JUMPDEST DUP1 MLOAD DUP3 LT ISZERO PUSH2 0x5F96 JUMPI PUSH1 0x20 SWAP2 PUSH1 0x5 SHL ADD ADD SWAP1 JUMP JUMPDEST DUP2 DUP2 LT PUSH2 0x61BE JUMPI POP POP JUMP JUMPDEST PUSH1 0x0 DUP2 SSTORE PUSH1 0x1 ADD PUSH2 0x61B3 JUMP JUMPDEST SWAP2 SWAP1 SWAP2 DUP3 MLOAD PUSH1 0x1 PUSH1 0x1 PUSH1 0x40 SHL SUB DUP2 GT PUSH2 0x1DCE JUMPI PUSH2 0x61E7 DUP3 SLOAD PUSH2 0x5FAC JUMP JUMPDEST PUSH1 0x1F DUP2 GT PUSH2 0x6292 JUMPI JUMPDEST POP PUSH1 0x20 DUP1 PUSH1 0x1F DUP4 GT PUSH1 0x1 EQ PUSH2 0x622D JUMPI POP DUP2 SWAP3 SWAP4 SWAP5 PUSH1 0x0 SWAP3 PUSH2 0x6222 JUMPI JUMPDEST POP POP DUP2 PUSH1 0x1 SHL SWAP2 PUSH1 0x0 NOT SWAP1 PUSH1 0x3 SHL SHR NOT AND OR SWAP1 SSTORE JUMP JUMPDEST ADD MLOAD SWAP1 POP CODESIZE DUP1 PUSH2 0x620C JUMP JUMPDEST SWAP1 PUSH1 0x1F NOT DUP4 AND SWAP6 DUP5 PUSH1 0x0 MSTORE PUSH1 0x20 PUSH1 0x0 KECCAK256 SWAP3 PUSH1 0x0 SWAP1 JUMPDEST DUP9 DUP3 LT PUSH2 0x627A JUMPI POP POP DUP4 PUSH1 0x1 SWAP6 SWAP7 SWAP8 LT PUSH2 0x6261 JUMPI JUMPDEST POP POP POP DUP2 SHL ADD SWAP1 SSTORE JUMP JUMPDEST ADD MLOAD PUSH1 0x0 NOT PUSH1 0xF8 DUP5 PUSH1 0x3 SHL AND SHR NOT AND SWAP1 SSTORE CODESIZE DUP1 DUP1 PUSH2 0x6257 JUMP JUMPDEST DUP1 PUSH1 0x1 DUP6 SWAP7 DUP3 SWAP5 SWAP7 DUP7 ADD MLOAD DUP2 SSTORE ADD SWAP6 ADD SWAP4 ADD SWAP1 PUSH2 0x6242 JUMP JUMPDEST PUSH2 0x62BF SWAP1 DUP4 PUSH1 0x0 MSTORE PUSH1 0x20 PUSH1 0x0 KECCAK256 PUSH1 0x1F DUP5 ADD PUSH1 0x5 SHR DUP2 ADD SWAP2 PUSH1 0x20 DUP6 LT PUSH2 0x62C5 JUMPI JUMPDEST PUSH1 0x1F ADD PUSH1 0x5 SHR ADD SWAP1 PUSH2 0x61B3 JUMP JUMPDEST CODESIZE PUSH2 0x61F0 JUMP JUMPDEST SWAP1 SWAP2 POP DUP2 SWAP1 PUSH2 0x62B2 JUMP JUMPDEST PUSH1 0xFF AND PUSH1 0xFF DUP2 EQ PUSH2 0x1D4E JUMPI PUSH1 0x1 ADD SWAP1 JUMP JUMPDEST ISZERO PUSH2 0x62E7 JUMPI JUMP JUMPDEST PUSH1 0x40 MLOAD PUSH3 0x461BCD PUSH1 0xE5 SHL DUP2 MSTORE PUSH1 0x20 PUSH1 0x4 DUP3 ADD MSTORE PUSH1 0x24 DUP1 DUP3 ADD MSTORE PUSH32 0x41757468436F6E74726F6C3A2043616C6C6572206973206E6F7420746865206F PUSH1 0x44 DUP3 ADD MSTORE PUSH4 0x3BB732B9 PUSH1 0xE1 SHL PUSH1 0x64 DUP3 ADD MSTORE PUSH1 0x84 SWAP1 REVERT JUMPDEST PUSH1 0x7 SLOAD PUSH1 0x0 NOT DUP2 ADD SWAP1 DUP2 GT PUSH2 0x1D4E JUMPI SWAP1 JUMP JUMPDEST ISZERO PUSH2 0x6351 JUMPI JUMP JUMPDEST PUSH1 0x40 MLOAD PUSH3 0x461BCD PUSH1 0xE5 SHL DUP2 MSTORE PUSH1 0x20 PUSH1 0x4 DUP3 ADD MSTORE PUSH1 0xC PUSH1 0x24 DUP3 ADD MSTORE PUSH12 0x7A65726F2061646472657373 PUSH1 0xA0 SHL PUSH1 0x44 DUP3 ADD MSTORE PUSH1 0x64 SWAP1 REVERT JUMPDEST PUSH1 0x1 PUSH1 0x1 PUSH1 0xA0 SHL SUB SWAP2 DUP3 AND DUP2 MSTORE SWAP2 AND PUSH1 0x20 DUP3 ADD MSTORE PUSH1 0x40 DUP2 ADD SWAP2 SWAP1 SWAP2 MSTORE PUSH1 0x60 ADD SWAP1 JUMP JUMPDEST SWAP2 SWAP1 DUP3 ADD DUP1 SWAP3 GT PUSH2 0x1D4E JUMPI JUMP JUMPDEST ISZERO PUSH2 0x63BB JUMPI JUMP JUMPDEST PUSH1 0x40 MLOAD PUSH3 0x461BCD PUSH1 0xE5 SHL DUP2 MSTORE PUSH1 0x20 PUSH1 0x4 DUP3 ADD MSTORE PUSH1 0x12 PUSH1 0x24 DUP3 ADD MSTORE PUSH18 0x47656D73206973206E6F74206D696E696E67 PUSH1 0x70 SHL PUSH1 0x44 DUP3 ADD MSTORE PUSH1 0x64 SWAP1 REVERT JUMPDEST SWAP1 PUSH1 0xFF DUP1 NOT DUP4 SLOAD AND SWAP2 ISZERO ISZERO AND OR SWAP1 SSTORE JUMP JUMPDEST PUSH1 0x6 DUP3 LT ISZERO PUSH2 0x1DA2 JUMPI MSTORE JUMP JUMPDEST SWAP1 PUSH1 0xFF PUSH1 0x40 MLOAD SWAP3 SLOAD DUP2 DUP2 AND DUP5 MSTORE DUP2 DUP2 PUSH1 0x8 SHR AND PUSH1 0x20 DUP6 ADD MSTORE DUP2 DUP2 PUSH1 0x10 SHR AND PUSH1 0x40 DUP6 ADD MSTORE PUSH1 0x18 SHR AND PUSH1 0x60 DUP4 ADD MSTORE PUSH2 0x6028 DUP3 PUSH2 0x5CAF JUMP JUMPDEST SWAP1 PUSH1 0x40 MLOAD PUSH2 0x6454 DUP2 PUSH2 0x5C78 JUMP JUMPDEST PUSH2 0x140 PUSH1 0xA DUP3 SWAP5 DUP1 SLOAD DUP5 MSTORE PUSH2 0x6473 PUSH1 0xFF PUSH1 0x1 DUP4 ADD SLOAD AND PUSH1 0x20 DUP7 ADD PUSH2 0x6406 JUMP JUMPDEST PUSH2 0x647F PUSH1 0x2 DUP3 ADD PUSH2 0x6412 JUMP JUMPDEST PUSH1 0x40 DUP6 ADD MSTORE PUSH1 0x40 MLOAD PUSH1 0xFF PUSH1 0x3 DUP4 ADD SLOAD DUP2 DUP2 AND DUP4 MSTORE PUSH1 0x8 SHR AND PUSH1 0x20 DUP3 ADD MSTORE PUSH2 0x64A5 DUP2 PUSH2 0x5CE5 JUMP JUMPDEST PUSH1 0x60 DUP6 ADD MSTORE PUSH1 0x4 DUP2 ADD SLOAD PUSH1 0x80 DUP6 ADD MSTORE PUSH1 0x5 DUP2 ADD SLOAD PUSH1 0xA0 DUP6 ADD MSTORE PUSH1 0x6 DUP2 ADD SLOAD PUSH1 0xC0 DUP6 ADD MSTORE PUSH1 0xFF PUSH1 0x7 DUP3 ADD SLOAD AND ISZERO ISZERO PUSH1 0xE0 DUP6 ADD MSTORE PUSH1 0x8 DUP2 ADD SLOAD PUSH2 0x100 DUP6 ADD MSTORE PUSH2 0x64EE PUSH1 0x9 DUP3 ADD PUSH2 0x5FE6 JUMP JUMPDEST PUSH2 0x120 DUP6 ADD MSTORE ADD SLOAD SWAP2 ADD MSTORE JUMP JUMPDEST SWAP1 DUP2 PUSH1 0x20 SWAP2 SUB SLT PUSH2 0x1161 JUMPI MLOAD DUP1 ISZERO ISZERO DUP2 SUB PUSH2 0x1161 JUMPI SWAP1 JUMP JUMPDEST PUSH1 0x1 PUSH1 0x1 PUSH1 0xA0 SHL SUB SWAP1 SWAP2 AND DUP2 MSTORE PUSH1 0x20 DUP2 ADD SWAP2 SWAP1 SWAP2 MSTORE PUSH1 0x40 ADD SWAP1 JUMP JUMPDEST ISZERO PUSH2 0x6535 JUMPI JUMP JUMPDEST PUSH1 0x40 MLOAD PUSH3 0x461BCD PUSH1 0xE5 SHL DUP2 MSTORE PUSH1 0x20 PUSH1 0x4 DUP3 ADD MSTORE PUSH1 0x18 PUSH1 0x24 DUP3 ADD MSTORE PUSH24 0x3330B4B632B2103A37903A3930B739B332B9103A37B5B2B7 PUSH1 0x41 SHL PUSH1 0x44 DUP3 ADD MSTORE PUSH1 0x64 SWAP1 REVERT JUMPDEST PUSH1 0x0 SWAP2 JUMPDEST PUSH1 0x2 DUP4 LT PUSH2 0x6586 JUMPI POP POP POP JUMP JUMPDEST PUSH1 0x1 SWAP1 PUSH1 0xFF DUP4 MLOAD AND DUP2 MSTORE PUSH1 0x20 DUP1 SWAP2 ADD SWAP3 ADD SWAP3 ADD SWAP2 SWAP1 PUSH2 0x6579 JUMP JUMPDEST PUSH1 0x0 SWAP2 JUMPDEST PUSH1 0x4 DUP4 LT PUSH2 0x65B1 JUMPI POP POP POP JUMP JUMPDEST PUSH1 0x1 SWAP1 PUSH1 0xFF DUP4 MLOAD AND DUP2 MSTORE PUSH1 0x20 DUP1 SWAP2 ADD SWAP3 ADD SWAP3 ADD SWAP2 SWAP1 PUSH2 0x65A4 JUMP JUMPDEST CALLER PUSH1 0x1 PUSH1 0x1 PUSH1 0xA0 SHL SUB DUP3 AND SUB PUSH2 0x2A6F JUMPI PUSH2 0x65E4 SWAP1 PUSH2 0x6E11 JUMP JUMPDEST POP JUMP JUMPDEST ISZERO PUSH2 0x65EE JUMPI JUMP JUMPDEST PUSH1 0x40 MLOAD PUSH3 0x461BCD PUSH1 0xE5 SHL DUP2 MSTORE PUSH1 0x20 PUSH1 0x4 DUP3 ADD MSTORE PUSH1 0x23 PUSH1 0x24 DUP3 ADD MSTORE PUSH32 0x41757468436F6E74726F6C3A2043616C6C6572206973206E6F74206120706175 PUSH1 0x44 DUP3 ADD MSTORE PUSH3 0x39B2B9 PUSH1 0xE9 SHL PUSH1 0x64 DUP3 ADD MSTORE PUSH1 0x84 SWAP1 REVERT JUMPDEST PUSH1 0x0 NOT DUP2 EQ PUSH2 0x1D4E JUMPI PUSH1 0x1 ADD SWAP1 JUMP JUMPDEST PUSH1 0x1 DUP1 PUSH1 0xA0 SHL SUB DUP1 SWAP2 AND PUSH1 0x0 SWAP2 DUP2 DUP4 MSTORE PUSH1 0x20 SWAP2 PUSH1 0x10 PUSH1 0x20 MSTORE PUSH1 0x40 SWAP1 PUSH1 0x40 DUP6 KECCAK256 SLOAD DUP1 ISZERO PUSH1 0x0 EQ PUSH2 0x6692 JUMPI POP POP POP POP POP PUSH1 0x40 MLOAD SWAP1 PUSH2 0x6689 DUP3 PUSH2 0x5CCA JUMP JUMPDEST DUP1 DUP3 MSTORE CALLDATASIZE DUP2 CALLDATACOPY SWAP1 JUMP JUMPDEST PUSH2 0x66A1 SWAP1 SWAP7 SWAP6 SWAP3 SWAP4 SWAP5 SWAP7 PUSH2 0x616D JUMP JUMPDEST SWAP4 PUSH2 0x66AA PUSH2 0x6338 JUMP JUMPDEST SWAP4 DUP4 PUSH1 0x1 JUMPDEST DUP7 DUP2 GT ISZERO PUSH2 0x66C3 JUMPI POP SWAP6 SWAP8 POP POP POP POP POP POP POP JUMP JUMPDEST DUP1 DUP3 MSTORE PUSH1 0xF DUP11 MSTORE DUP5 DUP5 DUP5 DUP5 KECCAK256 SLOAD AND EQ PUSH2 0x66E5 JUMPI JUMPDEST PUSH2 0x66E0 SWAP1 PUSH2 0x663F JUMP JUMPDEST PUSH2 0x66AF JUMP JUMPDEST SWAP5 PUSH2 0x66FE DUP2 DUP8 PUSH2 0x66F8 PUSH2 0x66E0 SWAP5 DUP13 PUSH2 0x619F JUMP JUMPDEST MSTORE PUSH2 0x663F JUMP JUMPDEST SWAP6 SWAP1 POP PUSH2 0x66D7 JUMP JUMPDEST CALLER PUSH1 0x0 SWAP1 DUP2 MSTORE PUSH32 0x489CB750909C17C66C5CE6E12FC66200B1268A56ADFCCC87A74969633BF57069 PUSH1 0x20 MSTORE PUSH1 0x40 SWAP1 KECCAK256 SLOAD PUSH1 0xFF AND SWAP1 JUMP JUMPDEST PUSH1 0x1 PUSH1 0x1 PUSH1 0xA0 SHL SUB AND PUSH1 0x0 SWAP1 DUP2 MSTORE PUSH1 0x0 DUP1 MLOAD PUSH1 0x20 PUSH2 0x7256 DUP4 CODECOPY DUP2 MLOAD SWAP2 MSTORE PUSH1 0x20 MSTORE PUSH1 0x40 SWAP1 KECCAK256 SLOAD PUSH1 0xFF AND SWAP1 JUMP JUMPDEST SWAP1 PUSH1 0xFF DUP1 SWAP2 AND SWAP2 AND ADD SWAP1 PUSH1 0xFF DUP3 GT PUSH2 0x1D4E JUMPI JUMP JUMPDEST SWAP1 DUP2 MSTORE PUSH1 0x1 PUSH1 0x1 PUSH1 0xA0 SHL SUB SWAP1 SWAP2 AND PUSH1 0x20 DUP3 ADD MSTORE PUSH1 0x40 ADD SWAP1 JUMP JUMPDEST PUSH1 0x0 DUP2 DUP2 MSTORE PUSH1 0x2 PUSH1 0x20 MSTORE PUSH1 0x40 SWAP1 KECCAK256 SLOAD PUSH1 0x1 PUSH1 0x1 PUSH1 0xA0 SHL SUB AND SWAP1 DUP2 ISZERO PUSH2 0x67B6 JUMPI POP SWAP1 JUMP JUMPDEST PUSH1 0x24 SWAP1 PUSH1 0x40 MLOAD SWAP1 PUSH4 0x7E273289 PUSH1 0xE0 SHL DUP3 MSTORE PUSH1 0x4 DUP3 ADD MSTORE REVERT JUMPDEST SWAP1 PUSH1 0x1 PUSH1 0x1 PUSH1 0xA0 SHL SUB PUSH2 0x67E0 DUP4 PUSH2 0x6793 JUMP JUMPDEST AND CALLER EQ DUP1 ISZERO PUSH2 0x6876 JUMPI JUMPDEST ISZERO PUSH2 0x6832 JUMPI DUP2 PUSH2 0x6829 PUSH1 0x20 SWAP3 PUSH32 0xF8E1A15ABA9398E019F0B49DF1A4FDE98EE17AE345CB5F6B5E2C27F5033E8CE7 SWAP5 PUSH1 0x0 MSTORE PUSH1 0x6 DUP5 MSTORE PUSH1 0x40 PUSH1 0x0 KECCAK256 PUSH2 0x61CA JUMP JUMPDEST PUSH1 0x40 MLOAD SWAP1 DUP2 MSTORE LOG1 JUMP JUMPDEST PUSH1 0x40 MLOAD PUSH3 0x461BCD PUSH1 0xE5 SHL DUP2 MSTORE PUSH1 0x20 PUSH1 0x4 DUP3 ADD MSTORE PUSH1 0x1C PUSH1 0x24 DUP3 ADD MSTORE PUSH28 0x6E6F7420616C6C6F77656420746F2073657420746F6B656E20555249 PUSH1 0x20 SHL PUSH1 0x44 DUP3 ADD MSTORE PUSH1 0x64 SWAP1 REVERT JUMPDEST POP CALLER PUSH1 0x0 SWAP1 DUP2 MSTORE PUSH1 0x0 DUP1 MLOAD PUSH1 0x20 PUSH2 0x7256 DUP4 CODECOPY DUP2 MLOAD SWAP2 MSTORE PUSH1 0x20 MSTORE PUSH1 0x40 SWAP1 KECCAK256 SLOAD PUSH1 0xFF AND ISZERO ISZERO PUSH1 0x1 EQ PUSH2 0x67EA JUMP JUMPDEST DUP1 ISZERO PUSH2 0x1D4E JUMPI PUSH1 0x0 NOT ADD SWAP1 JUMP JUMPDEST DUP1 PUSH1 0x0 MSTORE PUSH1 0x3A PUSH1 0x20 MSTORE PUSH1 0x40 PUSH1 0x0 KECCAK256 CALLER PUSH1 0x0 MSTORE PUSH1 0x20 MSTORE PUSH1 0xFF PUSH1 0x40 PUSH1 0x0 KECCAK256 SLOAD AND ISZERO PUSH2 0x68D4 JUMPI POP JUMP JUMPDEST PUSH1 0x44 SWAP1 PUSH1 0x40 MLOAD SWAP1 PUSH4 0xE2517D3F PUSH1 0xE0 SHL DUP3 MSTORE CALLER PUSH1 0x4 DUP4 ADD MSTORE PUSH1 0x24 DUP3 ADD MSTORE REVERT JUMPDEST PUSH1 0x1 PUSH1 0x1 PUSH1 0xA0 SHL SUB AND PUSH1 0x0 DUP2 DUP2 MSTORE PUSH1 0x0 DUP1 MLOAD PUSH1 0x20 PUSH2 0x7256 DUP4 CODECOPY DUP2 MLOAD SWAP2 MSTORE PUSH1 0x20 MSTORE PUSH1 0x40 DUP2 KECCAK256 SLOAD SWAP1 SWAP2 SWAP1 PUSH1 0x0 DUP1 MLOAD PUSH1 0x20 PUSH2 0x7296 DUP4 CODECOPY DUP2 MLOAD SWAP2 MSTORE SWAP1 PUSH1 0xFF AND PUSH2 0x696A JUMPI DUP1 DUP4 MSTORE PUSH1 0x3A PUSH1 0x20 MSTORE PUSH1 0x40 DUP4 KECCAK256 DUP3 DUP5 MSTORE PUSH1 0x20 MSTORE PUSH1 0x40 DUP4 KECCAK256 PUSH1 0x1 PUSH1 0xFF NOT DUP3 SLOAD AND OR SWAP1 SSTORE PUSH1 0x0 DUP1 MLOAD PUSH1 0x20 PUSH2 0x7236 DUP4 CODECOPY DUP2 MLOAD SWAP2 MSTORE CALLER SWAP4 DUP1 LOG4 PUSH1 0x1 SWAP1 JUMP JUMPDEST POP POP SWAP1 JUMP JUMPDEST PUSH1 0x1 PUSH1 0x1 PUSH1 0xA0 SHL SUB AND PUSH1 0x0 DUP2 DUP2 MSTORE PUSH32 0xC3E7F7030E2B5E93229767C75293162BACE57AB459B2158E709794C3A02A8932 PUSH1 0x20 MSTORE PUSH1 0x40 DUP2 KECCAK256 SLOAD SWAP1 SWAP2 SWAP1 PUSH1 0x0 DUP1 MLOAD PUSH1 0x20 PUSH2 0x7276 DUP4 CODECOPY DUP2 MLOAD SWAP2 MSTORE SWAP1 PUSH1 0xFF AND PUSH2 0x696A JUMPI DUP1 DUP4 MSTORE PUSH1 0x3A PUSH1 0x20 MSTORE PUSH1 0x40 DUP4 KECCAK256 DUP3 DUP5 MSTORE PUSH1 0x20 MSTORE PUSH1 0x40 DUP4 KECCAK256 PUSH1 0x1 PUSH1 0xFF NOT DUP3 SLOAD AND OR SWAP1 SSTORE PUSH1 0x0 DUP1 MLOAD PUSH1 0x20 PUSH2 0x7236 DUP4 CODECOPY DUP2 MLOAD SWAP2 MSTORE CALLER SWAP4 DUP1 LOG4 PUSH1 0x1 SWAP1 JUMP JUMPDEST SWAP1 PUSH1 0x0 SWAP2 DUP1 DUP4 MSTORE PUSH1 0x3A PUSH1 0x20 MSTORE PUSH1 0x40 DUP4 KECCAK256 SWAP2 PUSH1 0x1 DUP1 PUSH1 0xA0 SHL SUB AND SWAP2 DUP3 DUP5 MSTORE PUSH1 0x20 MSTORE PUSH1 0xFF PUSH1 0x40 DUP5 KECCAK256 SLOAD AND ISZERO PUSH1 0x0 EQ PUSH2 0x696A JUMPI DUP1 DUP4 MSTORE PUSH1 0x3A PUSH1 0x20 MSTORE PUSH1 0x40 DUP4 KECCAK256 DUP3 DUP5 MSTORE PUSH1 0x20 MSTORE PUSH1 0x40 DUP4 KECCAK256 PUSH1 0x1 PUSH1 0xFF NOT DUP3 SLOAD AND OR SWAP1 SSTORE PUSH1 0x0 DUP1 MLOAD PUSH1 0x20 PUSH2 0x7236 DUP4 CODECOPY DUP2 MLOAD SWAP2 MSTORE CALLER SWAP4 DUP1 LOG4 PUSH1 0x1 SWAP1 JUMP JUMPDEST SWAP1 PUSH2 0x1DB8 JUMPI PUSH1 0xA PUSH1 0x0 SWAP2 DUP3 DUP2 SSTORE DUP3 PUSH1 0x1 DUP3 ADD SSTORE DUP3 PUSH1 0x3 DUP3 ADD PUSH2 0x6A87 DUP2 PUSH1 0x2 DUP6 ADD PUSH2 0x61B3 JUMP JUMPDEST PUSH2 0x6A95 PUSH1 0x4 DUP5 ADD DUP1 SWAP3 PUSH2 0x61B3 JUMP JUMPDEST SSTORE DUP3 PUSH1 0x5 DUP3 ADD SSTORE DUP3 PUSH1 0x6 DUP3 ADD SSTORE DUP3 PUSH1 0x7 DUP3 ADD SSTORE DUP3 PUSH1 0x8 DUP3 ADD SSTORE DUP3 PUSH1 0x9 DUP3 ADD PUSH2 0x6ABD DUP2 SLOAD PUSH2 0x5FAC JUMP JUMPDEST DUP1 PUSH2 0x6ACA JUMPI JUMPDEST POP POP POP ADD SSTORE JUMP JUMPDEST DUP3 PUSH1 0x1F DUP3 GT PUSH1 0x1 EQ PUSH2 0x6AE2 JUMPI POP POP SSTORE JUMPDEST DUP3 CODESIZE DUP1 PUSH2 0x6AC3 JUMP JUMPDEST SWAP1 SWAP2 DUP1 DUP3 MSTORE PUSH2 0x6B00 PUSH1 0x1F PUSH1 0x20 DUP5 KECCAK256 SWAP5 ADD PUSH1 0x5 SHR DUP5 ADD PUSH1 0x1 DUP6 ADD PUSH2 0x61B3 JUMP JUMPDEST SSTORE SSTORE PUSH2 0x6ADA JUMP JUMPDEST PUSH1 0x40 DUP1 MLOAD SWAP3 PUSH2 0x6B15 DUP5 PUSH2 0x5CCA JUMP JUMPDEST PUSH1 0x0 DUP1 DUP6 MSTORE PUSH1 0x1 PUSH1 0x1 PUSH1 0xA0 SHL SUB SWAP5 DUP5 DUP7 AND SWAP5 SWAP2 SWAP3 SWAP2 DUP6 ISZERO PUSH2 0x6CF4 JUMPI DUP3 DUP5 MSTORE PUSH1 0x20 SWAP7 PUSH1 0x2 DUP9 MSTORE DUP6 DUP6 KECCAK256 SLOAD AND DUP4 DUP8 DUP3 ISZERO ISZERO SWAP3 DUP4 PUSH2 0x6CD4 JUMPI JUMPDEST DUP2 DUP9 MSTORE PUSH1 0x3 DUP12 MSTORE DUP9 DUP9 KECCAK256 DUP1 SLOAD PUSH1 0x1 ADD SWAP1 SSTORE DUP3 DUP9 MSTORE PUSH1 0x2 DUP12 MSTORE DUP9 DUP9 KECCAK256 DUP1 SLOAD PUSH1 0x1 PUSH1 0x1 PUSH1 0xA0 SHL SUB NOT AND DUP4 OR SWAP1 SSTORE PUSH1 0x0 DUP1 MLOAD PUSH1 0x20 PUSH2 0x72B6 DUP4 CODECOPY DUP2 MLOAD SWAP2 MSTORE DUP9 DUP1 LOG4 PUSH2 0x6CBC JUMPI EXTCODESIZE PUSH2 0x6B9A JUMPI JUMPDEST POP POP POP POP POP POP JUMP JUMPDEST DUP6 PUSH2 0x6BD8 SWAP2 DUP6 SWAP7 SWAP8 SWAP9 SWAP5 SWAP6 MLOAD DUP1 SWAP4 DUP2 SWAP3 PUSH4 0xA85BD01 PUSH1 0xE1 SHL SWAP7 DUP8 DUP5 MSTORE CALLER PUSH1 0x4 DUP6 ADD MSTORE DUP10 PUSH1 0x24 DUP6 ADD MSTORE PUSH1 0x44 DUP5 ADD MSTORE PUSH1 0x80 PUSH1 0x64 DUP5 ADD MSTORE PUSH1 0x84 DUP4 ADD SWAP1 PUSH2 0x5BD3 JUMP JUMPDEST SUB DUP2 DUP8 DUP11 GAS CALL DUP5 SWAP2 DUP2 PUSH2 0x6C7C JUMPI JUMPDEST POP PUSH2 0x6C45 JUMPI POP POP POP RETURNDATASIZE PUSH1 0x0 EQ PUSH2 0x6C3D JUMPI RETURNDATASIZE PUSH2 0x6C00 DUP2 PUSH2 0x5D56 JUMP JUMPDEST SWAP1 PUSH2 0x6C0D DUP5 MLOAD SWAP3 DUP4 PUSH2 0x5D00 JUMP JUMPDEST DUP2 MSTORE DUP1 SWAP2 DUP6 RETURNDATASIZE SWAP3 ADD RETURNDATACOPY JUMPDEST DUP1 MLOAD SWAP4 DUP5 PUSH2 0x6C37 JUMPI DUP3 MLOAD PUSH4 0x32505749 PUSH1 0xE1 SHL DUP2 MSTORE PUSH1 0x4 DUP2 ADD DUP6 SWAP1 MSTORE PUSH1 0x24 SWAP1 REVERT JUMPDEST DUP5 SWAP3 POP ADD REVERT JUMPDEST POP PUSH1 0x60 PUSH2 0x6C17 JUMP JUMPDEST SWAP2 SWAP6 POP SWAP2 POP PUSH4 0xFFFFFFFF PUSH1 0xE0 SHL AND SUB PUSH2 0x6C65 JUMPI POP POP CODESIZE DUP1 DUP1 DUP1 DUP1 DUP1 PUSH2 0x6B92 JUMP JUMPDEST PUSH1 0x24 SWAP3 POP MLOAD SWAP1 PUSH4 0x32505749 PUSH1 0xE1 SHL DUP3 MSTORE PUSH1 0x4 DUP3 ADD MSTORE REVERT JUMPDEST SWAP1 SWAP2 POP DUP8 DUP2 DUP2 RETURNDATASIZE DUP4 GT PUSH2 0x6CB5 JUMPI JUMPDEST PUSH2 0x6C94 DUP2 DUP4 PUSH2 0x5D00 JUMP JUMPDEST DUP2 ADD SUB SLT PUSH2 0x1261 JUMPI MLOAD PUSH1 0x1 PUSH1 0x1 PUSH1 0xE0 SHL SUB NOT DUP2 AND DUP2 SUB PUSH2 0x1261 JUMPI SWAP1 CODESIZE PUSH2 0x6BE6 JUMP JUMPDEST POP RETURNDATASIZE PUSH2 0x6C8A JUMP JUMPDEST DUP5 MLOAD PUSH4 0x39E35637 PUSH1 0xE1 SHL DUP2 MSTORE PUSH1 0x4 DUP2 ADD DUP6 SWAP1 MSTORE PUSH1 0x24 SWAP1 REVERT JUMPDEST PUSH2 0x6CDD DUP4 PUSH2 0x717C JUMP JUMPDEST DUP1 DUP9 MSTORE PUSH1 0x3 DUP12 MSTORE DUP9 DUP9 KECCAK256 DUP1 SLOAD PUSH1 0x0 NOT ADD SWAP1 SSTORE PUSH2 0x6B4B JUMP JUMPDEST DUP5 MLOAD PUSH4 0x32505749 PUSH1 0xE1 SHL DUP2 MSTORE PUSH1 0x4 DUP2 ADD DUP6 SWAP1 MSTORE PUSH1 0x24 SWAP1 REVERT JUMPDEST PUSH1 0x1 PUSH1 0x1 PUSH1 0xA0 SHL SUB AND PUSH1 0x0 DUP2 DUP2 MSTORE PUSH32 0xC3E7F7030E2B5E93229767C75293162BACE57AB459B2158E709794C3A02A8932 PUSH1 0x20 MSTORE PUSH1 0x40 DUP2 KECCAK256 SLOAD SWAP1 SWAP2 SWAP1 PUSH1 0x0 DUP1 MLOAD PUSH1 0x20 PUSH2 0x7276 DUP4 CODECOPY DUP2 MLOAD SWAP2 MSTORE SWAP1 PUSH1 0xFF AND ISZERO PUSH2 0x696A JUMPI DUP1 DUP4 MSTORE PUSH1 0x3A PUSH1 0x20 MSTORE PUSH1 0x40 DUP4 KECCAK256 DUP3 DUP5 MSTORE PUSH1 0x20 MSTORE PUSH1 0x40 DUP4 KECCAK256 PUSH1 0xFF NOT DUP2 SLOAD AND SWAP1 SSTORE PUSH1 0x0 DUP1 MLOAD PUSH1 0x20 PUSH2 0x72D6 DUP4 CODECOPY DUP2 MLOAD SWAP2 MSTORE CALLER SWAP4 DUP1 LOG4 PUSH1 0x1 SWAP1 JUMP JUMPDEST PUSH1 0x1 PUSH1 0x1 PUSH1 0xA0 SHL SUB AND PUSH1 0x0 DUP2 DUP2 MSTORE PUSH32 0x489CB750909C17C66C5CE6E12FC66200B1268A56ADFCCC87A74969633BF57069 PUSH1 0x20 MSTORE PUSH1 0x40 DUP2 KECCAK256 SLOAD SWAP1 SWAP2 SWAP1 PUSH1 0xFF AND ISZERO PUSH2 0x6E0D JUMPI DUP2 DUP1 MSTORE PUSH1 0x3A PUSH1 0x20 MSTORE PUSH1 0x40 DUP3 KECCAK256 DUP2 DUP4 MSTORE PUSH1 0x20 MSTORE PUSH1 0x40 DUP3 KECCAK256 PUSH1 0xFF NOT DUP2 SLOAD AND SWAP1 SSTORE CALLER SWAP2 PUSH1 0x0 DUP1 MLOAD PUSH1 0x20 PUSH2 0x72D6 DUP4 CODECOPY DUP2 MLOAD SWAP2 MSTORE DUP2 DUP1 LOG4 PUSH1 0x1 SWAP1 JUMP JUMPDEST POP SWAP1 JUMP JUMPDEST PUSH1 0x1 PUSH1 0x1 PUSH1 0xA0 SHL SUB AND PUSH1 0x0 DUP2 DUP2 MSTORE PUSH1 0x0 DUP1 MLOAD PUSH1 0x20 PUSH2 0x7256 DUP4 CODECOPY DUP2 MLOAD SWAP2 MSTORE PUSH1 0x20 MSTORE PUSH1 0x40 DUP2 KECCAK256 SLOAD SWAP1 SWAP2 SWAP1 PUSH1 0x0 DUP1 MLOAD PUSH1 0x20 PUSH2 0x7296 DUP4 CODECOPY DUP2 MLOAD SWAP2 MSTORE SWAP1 PUSH1 0xFF AND ISZERO PUSH2 0x696A JUMPI DUP1 DUP4 MSTORE PUSH1 0x3A PUSH1 0x20 MSTORE PUSH1 0x40 DUP4 KECCAK256 DUP3 DUP5 MSTORE PUSH1 0x20 MSTORE PUSH1 0x40 DUP4 KECCAK256 PUSH1 0xFF NOT DUP2 SLOAD AND SWAP1 SSTORE PUSH1 0x0 DUP1 MLOAD PUSH1 0x20 PUSH2 0x72D6 DUP4 CODECOPY DUP2 MLOAD SWAP2 MSTORE CALLER SWAP4 DUP1 LOG4 PUSH1 0x1 SWAP1 JUMP JUMPDEST SWAP1 PUSH1 0x0 SWAP2 DUP1 DUP4 MSTORE PUSH1 0x3A PUSH1 0x20 MSTORE PUSH1 0x40 DUP4 KECCAK256 SWAP2 PUSH1 0x1 DUP1 PUSH1 0xA0 SHL SUB AND SWAP2 DUP3 DUP5 MSTORE PUSH1 0x20 MSTORE PUSH1 0xFF PUSH1 0x40 DUP5 KECCAK256 SLOAD AND PUSH1 0x0 EQ PUSH2 0x696A JUMPI DUP1 DUP4 MSTORE PUSH1 0x3A PUSH1 0x20 MSTORE PUSH1 0x40 DUP4 KECCAK256 DUP3 DUP5 MSTORE PUSH1 0x20 MSTORE PUSH1 0x40 DUP4 KECCAK256 PUSH1 0xFF NOT DUP2 SLOAD AND SWAP1 SSTORE PUSH1 0x0 DUP1 MLOAD PUSH1 0x20 PUSH2 0x72D6 DUP4 CODECOPY DUP2 MLOAD SWAP2 MSTORE CALLER SWAP4 DUP1 LOG4 PUSH1 0x1 SWAP1 JUMP JUMPDEST SWAP1 PUSH1 0xFF DUP1 SWAP2 PUSH1 0x3 SHL SWAP4 AND DUP4 SHL SWAP3 SHL NOT AND OR SWAP1 JUMP JUMPDEST PUSH1 0x1 PUSH1 0x1 PUSH1 0xA0 SHL SUB SWAP1 DUP3 DUP3 AND DUP1 ISZERO ISZERO SWAP1 DUP2 PUSH2 0x6F60 JUMPI JUMPDEST POP ISZERO PUSH2 0x6F22 JUMPI POP POP POP POP JUMP JUMPDEST AND PUSH2 0x6F40 JUMPI PUSH1 0x40 MLOAD PUSH4 0x7E273289 PUSH1 0xE0 SHL DUP2 MSTORE PUSH1 0x4 DUP2 ADD DUP4 SWAP1 MSTORE PUSH1 0x24 SWAP1 REVERT JUMPDEST PUSH2 0x6F5C PUSH1 0x40 MLOAD SWAP3 DUP4 SWAP3 PUSH4 0x177E802F PUSH1 0xE0 SHL DUP5 MSTORE PUSH1 0x4 DUP5 ADD PUSH2 0x6513 JUMP JUMPDEST SUB SWAP1 REVERT JUMPDEST DUP3 DUP5 AND DUP1 DUP3 EQ SWAP3 POP DUP3 ISZERO PUSH2 0x6F98 JUMPI JUMPDEST POP DUP2 ISZERO PUSH2 0x6F7E JUMPI JUMPDEST POP CODESIZE PUSH2 0x6F16 JUMP JUMPDEST SWAP1 POP DUP5 PUSH1 0x0 MSTORE PUSH1 0x4 PUSH1 0x20 MSTORE DUP3 PUSH1 0x40 PUSH1 0x0 KECCAK256 SLOAD AND EQ CODESIZE PUSH2 0x6F77 JUMP JUMPDEST SWAP1 SWAP2 POP PUSH1 0x0 MSTORE PUSH1 0x5 PUSH1 0x20 MSTORE PUSH1 0x40 PUSH1 0x0 KECCAK256 DUP2 PUSH1 0x0 MSTORE PUSH1 0x20 MSTORE PUSH1 0xFF PUSH1 0x40 PUSH1 0x0 KECCAK256 SLOAD AND SWAP1 CODESIZE PUSH2 0x6F6F JUMP JUMPDEST DUP2 EXTCODESIZE PUSH2 0x6FCC JUMPI JUMPDEST POP POP POP POP JUMP JUMPDEST PUSH1 0x40 MLOAD PUSH4 0xA85BD01 PUSH1 0xE1 SHL DUP1 DUP3 MSTORE CALLER PUSH1 0x4 DUP4 ADD MSTORE PUSH1 0x1 PUSH1 0x1 PUSH1 0xA0 SHL SUB SWAP3 DUP4 AND PUSH1 0x24 DUP4 ADD MSTORE PUSH1 0x44 DUP3 ADD SWAP5 SWAP1 SWAP5 MSTORE PUSH1 0x80 PUSH1 0x64 DUP3 ADD MSTORE PUSH1 0x20 SWAP6 SWAP3 SWAP1 SWAP2 AND SWAP4 SWAP1 SWAP3 SWAP1 DUP4 SWAP1 PUSH2 0x701A SWAP1 PUSH1 0x84 DUP4 ADD SWAP1 PUSH2 0x5BD3 JUMP JUMPDEST SUB SWAP3 DUP6 DUP2 PUSH1 0x0 SWAP6 DUP2 DUP8 DUP10 GAS CALL DUP5 SWAP2 DUP2 PUSH2 0x70C3 JUMPI JUMPDEST POP PUSH2 0x708E JUMPI POP POP POP RETURNDATASIZE PUSH1 0x0 EQ PUSH2 0x7086 JUMPI RETURNDATASIZE PUSH2 0x7048 DUP2 PUSH2 0x5D56 JUMP JUMPDEST SWAP1 PUSH2 0x7056 PUSH1 0x40 MLOAD SWAP3 DUP4 PUSH2 0x5D00 JUMP JUMPDEST DUP2 MSTORE DUP1 SWAP2 DUP5 RETURNDATASIZE SWAP3 ADD RETURNDATACOPY JUMPDEST DUP1 MLOAD SWAP3 DUP4 PUSH2 0x7081 JUMPI PUSH1 0x40 MLOAD PUSH4 0x32505749 PUSH1 0xE1 SHL DUP2 MSTORE PUSH1 0x4 DUP2 ADD DUP5 SWAP1 MSTORE PUSH1 0x24 SWAP1 REVERT JUMPDEST ADD SWAP1 POP REVERT JUMPDEST POP PUSH1 0x60 PUSH2 0x7060 JUMP JUMPDEST SWAP2 SWAP5 POP SWAP2 POP PUSH4 0xFFFFFFFF PUSH1 0xE0 SHL AND SUB PUSH2 0x70AB JUMPI POP CODESIZE DUP1 DUP1 DUP1 PUSH2 0x6FC6 JUMP JUMPDEST PUSH1 0x24 SWAP1 PUSH1 0x40 MLOAD SWAP1 PUSH4 0x32505749 PUSH1 0xE1 SHL DUP3 MSTORE PUSH1 0x4 DUP3 ADD MSTORE REVERT JUMPDEST SWAP1 SWAP2 POP DUP7 DUP2 DUP2 RETURNDATASIZE DUP4 GT PUSH2 0x70FC JUMPI JUMPDEST PUSH2 0x70DB DUP2 DUP4 PUSH2 0x5D00 JUMP JUMPDEST DUP2 ADD SUB SLT PUSH2 0x1261 JUMPI MLOAD PUSH1 0x1 PUSH1 0x1 PUSH1 0xE0 SHL SUB NOT DUP2 AND DUP2 SUB PUSH2 0x1261 JUMPI SWAP1 CODESIZE PUSH2 0x702E JUMP JUMPDEST POP RETURNDATASIZE PUSH2 0x70D1 JUMP JUMPDEST PUSH1 0x0 DUP2 DUP2 MSTORE PUSH1 0x2 PUSH1 0x20 MSTORE PUSH1 0x40 DUP2 KECCAK256 SLOAD PUSH1 0x1 PUSH1 0x1 PUSH1 0xA0 SHL SUB AND DUP1 ISZERO SWAP2 DUP4 SWAP2 DUP4 ISZERO PUSH2 0x715A JUMPI JUMPDEST DUP3 DUP3 MSTORE PUSH1 0x2 PUSH1 0x20 MSTORE PUSH1 0x40 DUP3 KECCAK256 DUP1 SLOAD PUSH1 0x1 PUSH1 0x1 PUSH1 0xA0 SHL SUB NOT AND SWAP1 SSTORE PUSH1 0x0 DUP1 MLOAD PUSH1 0x20 PUSH2 0x72B6 DUP4 CODECOPY DUP2 MLOAD SWAP2 MSTORE DUP3 DUP1 LOG4 PUSH2 0x67B6 JUMPI POP JUMP JUMPDEST PUSH2 0x7163 DUP4 PUSH2 0x717C JUMP JUMPDEST DUP1 DUP3 MSTORE PUSH1 0x3 PUSH1 0x20 MSTORE PUSH1 0x40 DUP3 KECCAK256 DUP1 SLOAD PUSH1 0x0 NOT ADD SWAP1 SSTORE PUSH2 0x7127 JUMP JUMPDEST PUSH1 0x0 SWAP1 DUP2 MSTORE PUSH1 0x4 PUSH1 0x20 MSTORE PUSH1 0x40 SWAP1 KECCAK256 DUP1 SLOAD PUSH1 0x1 PUSH1 0x1 PUSH1 0xA0 SHL SUB NOT AND SWAP1 SSTORE JUMP JUMPDEST PUSH1 0x6 DUP2 LT ISZERO PUSH2 0x1DA2 JUMPI DUP1 ISZERO PUSH2 0x722D JUMPI PUSH1 0x1 DUP2 EQ PUSH2 0x7225 JUMPI PUSH1 0x2 DUP2 EQ PUSH2 0x721D JUMPI PUSH1 0x3 DUP2 EQ PUSH2 0x7215 JUMPI PUSH1 0x4 DUP2 EQ PUSH2 0x720D JUMPI PUSH1 0x5 EQ PUSH2 0x7206 JUMPI PUSH1 0x40 MLOAD PUSH3 0x461BCD PUSH1 0xE5 SHL DUP2 MSTORE PUSH1 0x20 PUSH1 0x4 DUP3 ADD MSTORE PUSH1 0xE PUSH1 0x24 DUP3 ADD MSTORE PUSH14 0x496E76616C696420726172697479 PUSH1 0x90 SHL PUSH1 0x44 DUP3 ADD MSTORE PUSH1 0x64 SWAP1 REVERT JUMPDEST PUSH3 0x7E900 SWAP1 JUMP JUMPDEST POP PUSH3 0x69780 SWAP1 JUMP JUMPDEST POP PUSH3 0x54600 SWAP1 JUMP JUMPDEST POP PUSH3 0x3F480 SWAP1 JUMP JUMPDEST POP PUSH3 0x2A300 SWAP1 JUMP JUMPDEST POP PUSH3 0x15180 SWAP1 JUMP INVALID 0x2F DUP8 DUP9 GT PUSH31 0x7EFF1D82E926EC794901D17C78024A50270940304540A733656F0DAAF8C8A7 SWAP9 SWAP14 SWAP2 0x24 0x28 0x22 SDIV PUSH11 0x65A27834AB391DB017CF99 DUP8 DUP3 0xAB 0xB4 SWAP10 LOG1 0xE SWAP1 0xBD 0xFC 0xB9 0xFC 0xBF 0xA8 EXTCODESIZE DUP10 PUSH32 0xB2D5CF4B58962164105C1E71489A37EF3AE0DB3FDCE576F6DF8B4C520FFE197C MSTORE8 NUMBER 0xC6 CREATE2 0xAE 0xC5 SWAP6 PUSH17 0x151EF9A492F2C624FD45DDDE6135EC42DD CALLCODE MSTORE 0xAD SHL 0xE2 0xC8 SWAP12 PUSH10 0xC2B068FC378DAA952BA7 CALL PUSH4 0xC4A11628 CREATE2 GAS 0x4D CREATE2 0x23 0xB3 0xEF 0xF6 CODECOPY 0x1F TLOAD ORIGIN 0xD9 0xC6 SWAP14 0x2A SELFBALANCE 0xEA PUSH8 0xB442974B53935D1 0xED 0xC7 REVERT PUSH5 0xEB21E047A8 CODECOPY OR SHL MCOPY LOG0 BLOCKHASH 0x2F SWAP11 DUP8 DUP6 0xC2 GAS 0xD3 0x1F 0xD3 0xE0 0xE8 0x1F DUP13 0x2B 0x4C LOG2 BALANCE PUSH7 0x8CC82CD03FA34E LOG1 CREATE 0xCE EXTCODECOPY LOG2 PUSH5 0x6970667358 0x22 SLT KECCAK256 SHR 0xC8 PUSH1 0xC5 0xBE 0xF PUSH20 0x24B402D0CCA6B3C5DC76EC51F5B7F2AAEA33B227 0xEE BASEFEE PUSH17 0x167864736F6C6343000819003300000000 "},"methodIdentifiers":{"ADMIN_ROLE()":"75b238fc","CALLBACK_GAS_LIMIT()":"33d608f1","CommonGemsCooldownPeriod()":"77f7e499","CommonGemsMiningPeriod()":"c4d2fcae","CommonGemsValue()":"58bf3e65","CommonminingTry()":"ffbccde4","DEFAULT_ADMIN_ROLE()":"a217fddf","EpicGemsCooldownPeriod()":"efa2cc29","EpicGemsMiningPeriod()":"5bbffab6","EpicGemsValue()":"038a7e05","EpicminingTry()":"f7c0794d","GEMIndexToOwner(uint256)":"97125c40","Gems(uint256)":"61f7f6d7","LegendaryGemsCooldownPeriod()":"8fddb065","LegendaryGemsMiningPeriod()":"d7a46495","LegendaryGemsValue()":"a0b2d41b","LegendaryminingTry()":"201832c0","MythicGemsCooldownPeriod()":"e4b7fddf","MythicGemsMiningPeriod()":"139b63f3","MythicGemsValue()":"3fb310a5","MythicminingTry()":"62751738","PAUSE_ROLE()":"389ed267","RareGemsCooldownPeriod()":"b78417b0","RareGemsMiningPeriod()":"0de32a97","RareGemsValue()":"f66f9e34","RareminingTry()":"d1bd7e06","UniqueGemsCooldownPeriod()":"1885cbbe","UniqueGemsMiningPeriod()":"04e41a0b","UniqueGemsValue()":"18898f36","UniqueminingTry()":"98a2c65d","addAdmin(address)":"70480275","addBackgroundColor(string)":"1d0e0aac","addColor(string)":"15341f2b","addPauser(address)":"82dc1ec4","adminTransferGEM(address,uint256)":"33158058","aliveImplementation(address)":"550d01a3","approve(address,uint256)":"095ea7b3","backgroundColors(uint256)":"a8ce886e","balanceOf(address)":"70a08231","cancelMining(uint256)":"ad6caa47","colors(uint256)":"bd11f69d","createGEM(uint8,uint8[2],uint8[4],string)":"975781b7","createGEMPool(uint8[],uint8[2][],uint8[4][],string[])":"0ff1ac67","customBackgroundColors(uint8)":"ecc5e06f","customBackgroundColorsCount()":"0922f513","customColors(uint8)":"6b1a96fa","customColorsCount()":"034294f8","drbcoordinator()":"71b57c47","forgeTokens(uint256[],uint8,uint8[2])":"33fcb648","getApproved(uint256)":"081812fc","getCommonValue()":"d55486d3","getCommonminingTry()":"1008ef78","getCustomColor(uint8)":"aff2a463","getEpicValue()":"dc0515d6","getEpicminingTry()":"8d41fe30","getGem(uint256)":"aa723bb7","getGemList()":"2b8cd094","getGemListAvailableForRandomPack()":"fea90d02","getGemsSupplyTotalValue()":"4cbe4360","getLegendaryValue()":"5fcf94d1","getLegendaryminingTry()":"166b35c9","getMythicValue()":"bc36b2ee","getMythicminingTry()":"3ec7af4a","getRandomRequest(uint256)":"aae31df3","getRareValue()":"8964f0c1","getRareminingTry()":"6c106fea","getRoleAdmin(bytes32)":"248a9ca3","getTon()":"2bbbe94d","getTreasury()":"3b19e84a","getUniqueValue()":"d62c990f","getUniqueminingTry()":"c61a46c5","getValueBasedOnRarity(uint8)":"0b513d99","getWston()":"e7a523c0","grantRole(bytes32,address)":"2f2ff15d","hasRole(bytes32,address)":"91d14854","initialize(address,address,address,uint256,uint256,uint256,uint256,uint256,uint256)":"bb4a2509","isAdmin(address)":"24d7806c","isApprovedForAll(address,address)":"e985e9c5","isOwner()":"8f32d59b","isTokenLocked(uint256)":"276a28a3","marketplace()":"abc8c7af","meltGEM(uint256)":"f99a6bb5","name()":"06fdde03","numberOfSolidColors()":"724188bc","ownerOf(uint256)":"6352211e","ownershipTokenCount(address)":"cec21acb","pause()":"8456cb59","pauseProxy()":"63a8fd89","paused()":"5c975abb","pickMinedGEM(uint256)":"274f2455","preMintedGemsAvailable()":"c28fb6b7","proxyImplementation(uint256)":"b911135f","randomPack()":"4ec741b4","rawFulfillRandomWords(uint256,uint256)":"37ed11db","removeAdmin(address)":"1785f53c","removePauser(address)":"6b2c0f55","renounceOwnership()":"715018a6","renounceRole(bytes32,address)":"36568abe","requestCount()":"5badbe4c","requestIds(uint256)":"8796ba8c","revokeRole(bytes32,address)":"d547741f","s_requests(uint256)":"a168fa89","safeTransferFrom(address,address,uint256)":"42842e0e","safeTransferFrom(address,address,uint256,bytes)":"b88d4fde","selectorImplementation(bytes4)":"50d2a276","setApprovalForAll(address,bool)":"a22cb465","setApprovalForMarketplace()":"0491fd3e","setGemsCooldownPeriods(uint256,uint256,uint256,uint256,uint256,uint256)":"ad0d3d3f","setGemsMiningPeriods(uint256,uint256,uint256,uint256,uint256,uint256)":"0c7254a0","setGemsValue(uint256,uint256,uint256,uint256,uint256,uint256)":"ff198a1d","setIsLocked(uint256,bool)":"4d723a75","setMarketPlaceAddress(address)":"cc98ef96","setNumberOfSolidColors(uint8)":"9a66af62","setRandomPack(address)":"ed8c2472","setTokenURI(uint256,string)":"162094c4","setTreasury(address)":"f0f44260","setminingTrys(uint256,uint256,uint256,uint256,uint256,uint256)":"a1c52726","startMiningGEM(uint256)":"1da0fc9c","supportsInterface(bytes4)":"01ffc9a7","symbol()":"95d89b41","tokenMiningByUser(address)":"c1389072","tokenReadyToMine(uint256)":"7866369b","tokenURI(uint256)":"c87b56dd","tokensOfOwner(address)":"8462151c","ton()":"cc48b947","totalSupply()":"18160ddd","transferAdmin(address)":"75829def","transferFrom(address,address,uint256)":"23b872dd","transferOwnership(address)":"f2fde38b","treasury()":"61d027b3","unpause()":"3f4ba83a","userMiningStartTime(address,uint256)":"676f79f1","userMiningToken(address,uint256)":"a1770a7d","wston()":"36b17e13"}}}}}