{"src/L2/GemFactoryStorage.sol":{"GemFactoryStorage":{"abi":[{"anonymous":false,"inputs":[{"indexed":true,"internalType":"uint8","name":"id","type":"uint8"},{"indexed":false,"internalType":"string","name":"backgroundColor","type":"string"}],"name":"BackgroundColorAdded","type":"event"},{"anonymous":false,"inputs":[{"indexed":true,"internalType":"uint8","name":"id","type":"uint8"},{"indexed":false,"internalType":"string","name":"color","type":"string"}],"name":"ColorAdded","type":"event"},{"anonymous":false,"inputs":[{"indexed":false,"internalType":"uint8","name":"color_0","type":"uint8"},{"indexed":false,"internalType":"uint8","name":"color_1","type":"uint8"}],"name":"ColorValidated","type":"event"},{"anonymous":false,"inputs":[{"indexed":false,"internalType":"uint256","name":"gemCount","type":"uint256"},{"indexed":false,"internalType":"uint256[]","name":"tokenIds","type":"uint256[]"}],"name":"CountGemsByQuadrant","type":"event"},{"anonymous":false,"inputs":[{"indexed":true,"internalType":"uint256","name":"tokenId","type":"uint256"},{"indexed":false,"internalType":"enum GemFactoryStorage.Rarity","name":"rarity","type":"uint8"},{"indexed":false,"internalType":"uint8[2]","name":"color","type":"uint8[2]"},{"indexed":false,"internalType":"uint256","name":"value","type":"uint256"},{"indexed":false,"internalType":"uint8[4]","name":"quadrants","type":"uint8[4]"},{"indexed":false,"internalType":"uint256","name":"miningPeriod","type":"uint256"},{"indexed":false,"internalType":"uint256","name":"cooldownPeriod","type":"uint256"},{"indexed":false,"internalType":"string","name":"tokenURI","type":"string"},{"indexed":false,"internalType":"address","name":"owner","type":"address"}],"name":"Created","type":"event"},{"anonymous":false,"inputs":[{"indexed":false,"internalType":"address","name":"gemOwner","type":"address"},{"indexed":false,"internalType":"uint256[]","name":"gemsTokenIds","type":"uint256[]"},{"indexed":false,"internalType":"uint256","name":"newGemCreatedId","type":"uint256"},{"indexed":false,"internalType":"enum GemFactoryStorage.Rarity","name":"newRarity","type":"uint8"},{"indexed":false,"internalType":"uint8[4]","name":"forgedQuadrants","type":"uint8[4]"},{"indexed":false,"internalType":"uint8[2]","name":"color","type":"uint8[2]"},{"indexed":false,"internalType":"uint256","name":"newValue","type":"uint256"}],"name":"GemForged","type":"event"},{"anonymous":false,"inputs":[{"indexed":false,"internalType":"uint256","name":"_tokenId","type":"uint256"},{"indexed":false,"internalType":"address","name":"_from","type":"address"}],"name":"GemMelted","type":"event"},{"anonymous":false,"inputs":[{"indexed":false,"internalType":"uint256","name":"tokenId","type":"uint256"},{"indexed":false,"internalType":"address","name":"miner","type":"address"}],"name":"GemMiningClaimed","type":"event"},{"anonymous":false,"inputs":[{"indexed":false,"internalType":"uint256","name":"tokenId","type":"uint256"},{"indexed":false,"internalType":"address","name":"miner","type":"address"},{"indexed":false,"internalType":"uint256","name":"startMiningTime","type":"uint256"},{"indexed":false,"internalType":"uint256","name":"newminingTry","type":"uint256"}],"name":"GemMiningStarted","type":"event"},{"anonymous":false,"inputs":[{"indexed":false,"internalType":"uint256","name":"tokenId","type":"uint256"}],"name":"NoGemAvailable","type":"event"},{"anonymous":false,"inputs":[{"indexed":false,"internalType":"address","name":"account","type":"address"}],"name":"Paused","type":"event"},{"anonymous":false,"inputs":[{"indexed":false,"internalType":"uint256","name":"tokenId","type":"uint256"},{"indexed":false,"internalType":"uint256","name":"requestNumber","type":"uint256"}],"name":"RandomGemRequested","type":"event"},{"anonymous":false,"inputs":[{"indexed":false,"internalType":"address","name":"from","type":"address"},{"indexed":false,"internalType":"address","name":"to","type":"address"},{"indexed":false,"internalType":"uint256","name":"tokenId","type":"uint256"}],"name":"TransferGEM","type":"event"},{"anonymous":false,"inputs":[{"indexed":false,"internalType":"address","name":"account","type":"address"}],"name":"Unpaused","type":"event"},{"inputs":[],"name":"CALLBACK_GAS_LIMIT","outputs":[{"internalType":"uint32","name":"","type":"uint32"}],"stateMutability":"view","type":"function"},{"inputs":[],"name":"CommonGemsCooldownPeriod","outputs":[{"internalType":"uint256","name":"","type":"uint256"}],"stateMutability":"view","type":"function"},{"inputs":[],"name":"CommonGemsMiningPeriod","outputs":[{"internalType":"uint256","name":"","type":"uint256"}],"stateMutability":"view","type":"function"},{"inputs":[],"name":"CommonGemsValue","outputs":[{"internalType":"uint256","name":"","type":"uint256"}],"stateMutability":"view","type":"function"},{"inputs":[],"name":"CommonminingTry","outputs":[{"internalType":"uint256","name":"","type":"uint256"}],"stateMutability":"view","type":"function"},{"inputs":[],"name":"EpicGemsCooldownPeriod","outputs":[{"internalType":"uint256","name":"","type":"uint256"}],"stateMutability":"view","type":"function"},{"inputs":[],"name":"EpicGemsMiningPeriod","outputs":[{"internalType":"uint256","name":"","type":"uint256"}],"stateMutability":"view","type":"function"},{"inputs":[],"name":"EpicGemsValue","outputs":[{"internalType":"uint256","name":"","type":"uint256"}],"stateMutability":"view","type":"function"},{"inputs":[],"name":"EpicminingTry","outputs":[{"internalType":"uint256","name":"","type":"uint256"}],"stateMutability":"view","type":"function"},{"inputs":[{"internalType":"uint256","name":"","type":"uint256"}],"name":"GEMIndexToOwner","outputs":[{"internalType":"address","name":"","type":"address"}],"stateMutability":"view","type":"function"},{"inputs":[{"internalType":"uint256","name":"","type":"uint256"}],"name":"Gems","outputs":[{"internalType":"uint256","name":"tokenId","type":"uint256"},{"internalType":"enum GemFactoryStorage.Rarity","name":"rarity","type":"uint8"},{"internalType":"uint256","name":"gemCooldownPeriod","type":"uint256"},{"internalType":"uint256","name":"miningPeriod","type":"uint256"},{"internalType":"uint256","name":"miningTry","type":"uint256"},{"internalType":"bool","name":"isLocked","type":"bool"},{"internalType":"uint256","name":"value","type":"uint256"},{"internalType":"string","name":"tokenURI","type":"string"},{"internalType":"uint256","name":"randomRequestId","type":"uint256"}],"stateMutability":"view","type":"function"},{"inputs":[],"name":"LegendaryGemsCooldownPeriod","outputs":[{"internalType":"uint256","name":"","type":"uint256"}],"stateMutability":"view","type":"function"},{"inputs":[],"name":"LegendaryGemsMiningPeriod","outputs":[{"internalType":"uint256","name":"","type":"uint256"}],"stateMutability":"view","type":"function"},{"inputs":[],"name":"LegendaryGemsValue","outputs":[{"internalType":"uint256","name":"","type":"uint256"}],"stateMutability":"view","type":"function"},{"inputs":[],"name":"LegendaryminingTry","outputs":[{"internalType":"uint256","name":"","type":"uint256"}],"stateMutability":"view","type":"function"},{"inputs":[],"name":"MythicGemsCooldownPeriod","outputs":[{"internalType":"uint256","name":"","type":"uint256"}],"stateMutability":"view","type":"function"},{"inputs":[],"name":"MythicGemsMiningPeriod","outputs":[{"internalType":"uint256","name":"","type":"uint256"}],"stateMutability":"view","type":"function"},{"inputs":[],"name":"MythicGemsValue","outputs":[{"internalType":"uint256","name":"","type":"uint256"}],"stateMutability":"view","type":"function"},{"inputs":[],"name":"MythicminingTry","outputs":[{"internalType":"uint256","name":"","type":"uint256"}],"stateMutability":"view","type":"function"},{"inputs":[],"name":"RareGemsCooldownPeriod","outputs":[{"internalType":"uint256","name":"","type":"uint256"}],"stateMutability":"view","type":"function"},{"inputs":[],"name":"RareGemsMiningPeriod","outputs":[{"internalType":"uint256","name":"","type":"uint256"}],"stateMutability":"view","type":"function"},{"inputs":[],"name":"RareGemsValue","outputs":[{"internalType":"uint256","name":"","type":"uint256"}],"stateMutability":"view","type":"function"},{"inputs":[],"name":"RareminingTry","outputs":[{"internalType":"uint256","name":"","type":"uint256"}],"stateMutability":"view","type":"function"},{"inputs":[],"name":"UniqueGemsCooldownPeriod","outputs":[{"internalType":"uint256","name":"","type":"uint256"}],"stateMutability":"view","type":"function"},{"inputs":[],"name":"UniqueGemsMiningPeriod","outputs":[{"internalType":"uint256","name":"","type":"uint256"}],"stateMutability":"view","type":"function"},{"inputs":[],"name":"UniqueGemsValue","outputs":[{"internalType":"uint256","name":"","type":"uint256"}],"stateMutability":"view","type":"function"},{"inputs":[],"name":"UniqueminingTry","outputs":[{"internalType":"uint256","name":"","type":"uint256"}],"stateMutability":"view","type":"function"},{"inputs":[{"internalType":"uint256","name":"","type":"uint256"}],"name":"backgroundColors","outputs":[{"internalType":"string","name":"","type":"string"}],"stateMutability":"view","type":"function"},{"inputs":[{"internalType":"uint256","name":"","type":"uint256"}],"name":"colors","outputs":[{"internalType":"string","name":"","type":"string"}],"stateMutability":"view","type":"function"},{"inputs":[{"internalType":"uint8","name":"","type":"uint8"}],"name":"customBackgroundColors","outputs":[{"internalType":"string","name":"","type":"string"}],"stateMutability":"view","type":"function"},{"inputs":[],"name":"customBackgroundColorsCount","outputs":[{"internalType":"uint8","name":"","type":"uint8"}],"stateMutability":"view","type":"function"},{"inputs":[{"internalType":"uint8","name":"","type":"uint8"}],"name":"customColors","outputs":[{"internalType":"string","name":"","type":"string"}],"stateMutability":"view","type":"function"},{"inputs":[],"name":"customColorsCount","outputs":[{"internalType":"uint8","name":"","type":"uint8"}],"stateMutability":"view","type":"function"},{"inputs":[],"name":"drbcoordinator","outputs":[{"internalType":"address","name":"","type":"address"}],"stateMutability":"view","type":"function"},{"inputs":[],"name":"marketplace","outputs":[{"internalType":"address","name":"","type":"address"}],"stateMutability":"view","type":"function"},{"inputs":[],"name":"numberOfSolidColors","outputs":[{"internalType":"uint8","name":"","type":"uint8"}],"stateMutability":"view","type":"function"},{"inputs":[{"internalType":"address","name":"","type":"address"}],"name":"ownershipTokenCount","outputs":[{"internalType":"uint256","name":"","type":"uint256"}],"stateMutability":"view","type":"function"},{"inputs":[],"name":"paused","outputs":[{"internalType":"bool","name":"","type":"bool"}],"stateMutability":"view","type":"function"},{"inputs":[],"name":"randomPack","outputs":[{"internalType":"address","name":"","type":"address"}],"stateMutability":"view","type":"function"},{"inputs":[],"name":"requestCount","outputs":[{"internalType":"uint256","name":"","type":"uint256"}],"stateMutability":"view","type":"function"},{"inputs":[{"internalType":"uint256","name":"","type":"uint256"}],"name":"requestIds","outputs":[{"internalType":"uint256","name":"","type":"uint256"}],"stateMutability":"view","type":"function"},{"inputs":[{"internalType":"uint256","name":"","type":"uint256"}],"name":"s_requests","outputs":[{"internalType":"uint256","name":"tokenId","type":"uint256"},{"internalType":"bool","name":"requested","type":"bool"},{"internalType":"bool","name":"fulfilled","type":"bool"},{"internalType":"uint256","name":"randomWord","type":"uint256"},{"internalType":"uint256","name":"chosenTokenId","type":"uint256"},{"internalType":"address","name":"requester","type":"address"}],"stateMutability":"view","type":"function"},{"inputs":[{"internalType":"address","name":"","type":"address"}],"name":"tokenMiningByUser","outputs":[{"internalType":"uint256","name":"","type":"uint256"}],"stateMutability":"view","type":"function"},{"inputs":[{"internalType":"uint256","name":"","type":"uint256"}],"name":"tokenReadyToMine","outputs":[{"internalType":"bool","name":"","type":"bool"}],"stateMutability":"view","type":"function"},{"inputs":[],"name":"ton","outputs":[{"internalType":"address","name":"","type":"address"}],"stateMutability":"view","type":"function"},{"inputs":[],"name":"treasury","outputs":[{"internalType":"address","name":"","type":"address"}],"stateMutability":"view","type":"function"},{"inputs":[{"internalType":"address","name":"","type":"address"},{"internalType":"uint256","name":"","type":"uint256"}],"name":"userMiningStartTime","outputs":[{"internalType":"uint256","name":"","type":"uint256"}],"stateMutability":"view","type":"function"},{"inputs":[{"internalType":"address","name":"","type":"address"},{"internalType":"uint256","name":"","type":"uint256"}],"name":"userMiningToken","outputs":[{"internalType":"bool","name":"","type":"bool"}],"stateMutability":"view","type":"function"},{"inputs":[],"name":"wston","outputs":[{"internalType":"address","name":"","type":"address"}],"stateMutability":"view","type":"function"}],"evm":{"bytecode":{"linkReferences":{},"object":"60808060405234601557610c19908161001b8239f35b600080fdfe608060408181526004918236101561001657600080fd5b600092833560e01c918263034294f814610a7657508163038a7e0514610a5757816304e41a0b14610a385781630922f51314610a165781630de32a97146109f7578163139b63f3146109d85781631885cbbe146109b957816318898f361461099a578163201832c01461097b57816333d608f11461095d57816336b17e13146109305781633fb310a5146109115781634ec741b4146108e857816358bf3e65146108c95781635badbe4c146108aa5781635bbffab61461088b5781635c975abb1461086757816361d027b31461083e57816361f7f6d7146107745781636275173814610755578163676f79f1146107145781636b1a96fa146106df57816371b57c47146106b6578163724188bc1461069457816377f7e499146106755781637866369b146106485781638796ba8c146106185781638fddb065146105f957816397125c40146105c657816398a2c65d146105a7578163a0b2d41b14610588578163a168fa8914610518578163a1770a7d146104d1578163a8ce886e1461049e578163abc8c7af14610475578163b78417b014610456578163bd11f69d14610423578163c1389072146103eb578163c4d2fcae146103cc578163cc48b947146103a3578163cec21acb1461036b578163d1bd7e061461034c578163d7a464951461032e578163e4b7fddf1461030f578163ecc5e06f146102bb57508063efa2cc291461029d578063f66f9e341461027f578063f7c0794d146102615763ffbccde41461024057600080fd5b3461025d578160031936011261025d576020906010549051908152f35b5080fd5b503461025d578160031936011261025d576020906013549051908152f35b503461025d578160031936011261025d576020906017549051908152f35b503461025d578160031936011261025d576020906025549051908152f35b90503461030b57602036600319011261030b57803560ff811680910361030757836102f0928492610303965260205220610a95565b9051918291602083526020830190610b88565b0390f35b8380fd5b8280fd5b50503461025d578160031936011261025d576020906027549051908152f35b50503461025d578160031936011261025d5760209081549051908152f35b50503461025d578160031936011261025d576020906011549051908152f35b50503461025d57602036600319011261025d5760209181906001600160a01b03610393610bc8565b1681526009845220549051908152f35b50503461025d578160031936011261025d57602b5490516001600160a01b039091168152602090f35b50503461025d578160031936011261025d57602090601c549051908152f35b50503461025d57602036600319011261025d5760209181906001600160a01b03610413610bc8565b168152600a845220549051908152f35b90503461030b57602036600319011261030b573560035481101561030b576102f090602084600361030396522001610a95565b50503461025d578160031936011261025d576020906023549051908152f35b50503461025d578160031936011261025d57602d5490516001600160a01b039091168152602090f35b90503461030b57602036600319011261030b573560065481101561030b576102f090602084600661030396522001610a95565b50503461025d578060031936011261025d5760209160ff9082906001600160a01b036104fb610bc8565b168152600b85528181206024358252855220541690519015158152f35b9190503461030b57602036600319011261030b578060c09383358152600e602052209182549260018101549260ff60028301549260038101549460018060a01b03910154169482519687528181161515602088015260081c161515908501526060840152608083015260a0820152f35b50503461025d578160031936011261025d57602090601a549051908152f35b50503461025d578160031936011261025d576020906012549051908152f35b90503461030b57602036600319011261030b5735825260086020908152918190205490516001600160a01b039091168152f35b50503461025d578160031936011261025d576020906026549051908152f35b90503461030b57602036600319011261030b573560285481101561030b5760208360288295522001549051908152f35b90503461030b57602036600319011261030b578160209360ff92358152600d855220541690519015158152f35b50503461025d578160031936011261025d576020906022549051908152f35b50503461025d578160031936011261025d5760209060ff602a54169051908152f35b50503461025d578160031936011261025d57602e5490516001600160a01b039091168152602090f35b90503461030b57602036600319011261030b573560ff811680910361030b5781836102f0926103039552600160205220610a95565b50503461025d578060031936011261025d5760209181906001600160a01b0361073b610bc8565b168152600c84528181206024358252845220549051908152f35b50503461025d578160031936011261025d576020906015549051908152f35b83833461025d57602036600319011261025d578235825481101561030b57828052600b60208420910201805460ff6001830154169285830154600584015460068501549060ff60078701541692600887015494600a6107d560098a01610a95565b9801549881519a610120988c52600682101561082b575060208b015289015260608801526080870152151560a086015260c085015260e0840181905283929161082091840190610b88565b906101008301520390f35b634e487b7160e01b815260218d52602490fd5b50503461025d578160031936011261025d57602c5490516001600160a01b039091168152602090f35b50503461025d578160031936011261025d5760209060ff600f541690519015158152f35b50503461025d578160031936011261025d57602090601f549051908152f35b50503461025d578160031936011261025d576020906029549051908152f35b50503461025d578160031936011261025d576020906016549051908152f35b50503461025d578160031936011261025d57602f5490516001600160a01b039091168152602090f35b50503461025d578160031936011261025d57602090601b549051908152f35b50503461025d578160031936011261025d57602a54905160089190911c6001600160a01b03168152602090f35b50503461025d578160031936011261025d5760209051620334508152f35b50503461025d578160031936011261025d576020906014549051908152f35b50503461025d578160031936011261025d576020906018549051908152f35b50503461025d578160031936011261025d576020906024549051908152f35b50503461025d578160031936011261025d576020906021549051908152f35b50503461025d578160031936011261025d57602090601d549051908152f35b50503461025d578160031936011261025d5760209060ff600554169051908152f35b50503461025d578160031936011261025d57602090601e549051908152f35b50503461025d578160031936011261025d576020906019549051908152f35b84903461025d578160031936011261025d5760209060ff600254168152f35b906040519160009080549060018260011c9160018416938415610b7e575b6020948585108114610b6a57848952908115610b4c5750600114610b10575b50505050829003601f01601f1916820167ffffffffffffffff811183821017610afa57604052565b634e487b7160e01b600052604160045260246000fd5b909293506000528260002091836000935b838510610b38575050505083010138808080610ad2565b805488860183015293019284908201610b21565b60ff191688860152505050151560051b840101905038808080610ad2565b634e487b7160e01b87526022600452602487fd5b92607f1692610ab3565b919082519283825260005b848110610bb4575050826000602080949584010152601f8019910116010190565b602081830181015184830182015201610b93565b600435906001600160a01b0382168203610bde57565b600080fdfea26469706673582212206cd4dd7bf99f479aa5b9f5e194b042316957a2e7d2f31553f9b19ada499b842f64736f6c63430008190033","opcodes":"PUSH1 0x80 DUP1 PUSH1 0x40 MSTORE CALLVALUE PUSH1 0x15 JUMPI PUSH2 0xC19 SWAP1 DUP2 PUSH2 0x1B DUP3 CODECOPY RETURN JUMPDEST PUSH1 0x0 DUP1 REVERT INVALID PUSH1 0x80 PUSH1 0x40 DUP2 DUP2 MSTORE PUSH1 0x4 SWAP2 DUP3 CALLDATASIZE LT ISZERO PUSH2 0x16 JUMPI PUSH1 0x0 DUP1 REVERT JUMPDEST PUSH1 0x0 SWAP3 DUP4 CALLDATALOAD PUSH1 0xE0 SHR SWAP2 DUP3 PUSH4 0x34294F8 EQ PUSH2 0xA76 JUMPI POP DUP2 PUSH4 0x38A7E05 EQ PUSH2 0xA57 JUMPI DUP2 PUSH4 0x4E41A0B EQ PUSH2 0xA38 JUMPI DUP2 PUSH4 0x922F513 EQ PUSH2 0xA16 JUMPI DUP2 PUSH4 0xDE32A97 EQ PUSH2 0x9F7 JUMPI DUP2 PUSH4 0x139B63F3 EQ PUSH2 0x9D8 JUMPI DUP2 PUSH4 0x1885CBBE EQ PUSH2 0x9B9 JUMPI DUP2 PUSH4 0x18898F36 EQ PUSH2 0x99A JUMPI DUP2 PUSH4 0x201832C0 EQ PUSH2 0x97B JUMPI DUP2 PUSH4 0x33D608F1 EQ PUSH2 0x95D JUMPI DUP2 PUSH4 0x36B17E13 EQ PUSH2 0x930 JUMPI DUP2 PUSH4 0x3FB310A5 EQ PUSH2 0x911 JUMPI DUP2 PUSH4 0x4EC741B4 EQ PUSH2 0x8E8 JUMPI DUP2 PUSH4 0x58BF3E65 EQ PUSH2 0x8C9 JUMPI DUP2 PUSH4 0x5BADBE4C EQ PUSH2 0x8AA JUMPI DUP2 PUSH4 0x5BBFFAB6 EQ PUSH2 0x88B JUMPI DUP2 PUSH4 0x5C975ABB EQ PUSH2 0x867 JUMPI DUP2 PUSH4 0x61D027B3 EQ PUSH2 0x83E JUMPI DUP2 PUSH4 0x61F7F6D7 EQ PUSH2 0x774 JUMPI DUP2 PUSH4 0x62751738 EQ PUSH2 0x755 JUMPI DUP2 PUSH4 0x676F79F1 EQ PUSH2 0x714 JUMPI DUP2 PUSH4 0x6B1A96FA EQ PUSH2 0x6DF JUMPI DUP2 PUSH4 0x71B57C47 EQ PUSH2 0x6B6 JUMPI DUP2 PUSH4 0x724188BC EQ PUSH2 0x694 JUMPI DUP2 PUSH4 0x77F7E499 EQ PUSH2 0x675 JUMPI DUP2 PUSH4 0x7866369B EQ PUSH2 0x648 JUMPI DUP2 PUSH4 0x8796BA8C EQ PUSH2 0x618 JUMPI DUP2 PUSH4 0x8FDDB065 EQ PUSH2 0x5F9 JUMPI DUP2 PUSH4 0x97125C40 EQ PUSH2 0x5C6 JUMPI DUP2 PUSH4 0x98A2C65D EQ PUSH2 0x5A7 JUMPI DUP2 PUSH4 0xA0B2D41B EQ PUSH2 0x588 JUMPI DUP2 PUSH4 0xA168FA89 EQ PUSH2 0x518 JUMPI DUP2 PUSH4 0xA1770A7D EQ PUSH2 0x4D1 JUMPI DUP2 PUSH4 0xA8CE886E EQ PUSH2 0x49E JUMPI DUP2 PUSH4 0xABC8C7AF EQ PUSH2 0x475 JUMPI DUP2 PUSH4 0xB78417B0 EQ PUSH2 0x456 JUMPI DUP2 PUSH4 0xBD11F69D EQ PUSH2 0x423 JUMPI DUP2 PUSH4 0xC1389072 EQ PUSH2 0x3EB JUMPI DUP2 PUSH4 0xC4D2FCAE EQ PUSH2 0x3CC JUMPI DUP2 PUSH4 0xCC48B947 EQ PUSH2 0x3A3 JUMPI DUP2 PUSH4 0xCEC21ACB EQ PUSH2 0x36B JUMPI DUP2 PUSH4 0xD1BD7E06 EQ PUSH2 0x34C JUMPI DUP2 PUSH4 0xD7A46495 EQ PUSH2 0x32E JUMPI DUP2 PUSH4 0xE4B7FDDF EQ PUSH2 0x30F JUMPI DUP2 PUSH4 0xECC5E06F EQ PUSH2 0x2BB JUMPI POP DUP1 PUSH4 0xEFA2CC29 EQ PUSH2 0x29D JUMPI DUP1 PUSH4 0xF66F9E34 EQ PUSH2 0x27F JUMPI DUP1 PUSH4 0xF7C0794D EQ PUSH2 0x261 JUMPI PUSH4 0xFFBCCDE4 EQ PUSH2 0x240 JUMPI PUSH1 0x0 DUP1 REVERT JUMPDEST CALLVALUE PUSH2 0x25D JUMPI DUP2 PUSH1 0x3 NOT CALLDATASIZE ADD SLT PUSH2 0x25D JUMPI PUSH1 0x20 SWAP1 PUSH1 0x10 SLOAD SWAP1 MLOAD SWAP1 DUP2 MSTORE RETURN JUMPDEST POP DUP1 REVERT JUMPDEST POP CALLVALUE PUSH2 0x25D JUMPI DUP2 PUSH1 0x3 NOT CALLDATASIZE ADD SLT PUSH2 0x25D JUMPI PUSH1 0x20 SWAP1 PUSH1 0x13 SLOAD SWAP1 MLOAD SWAP1 DUP2 MSTORE RETURN JUMPDEST POP CALLVALUE PUSH2 0x25D JUMPI DUP2 PUSH1 0x3 NOT CALLDATASIZE ADD SLT PUSH2 0x25D JUMPI PUSH1 0x20 SWAP1 PUSH1 0x17 SLOAD SWAP1 MLOAD SWAP1 DUP2 MSTORE RETURN JUMPDEST POP CALLVALUE PUSH2 0x25D JUMPI DUP2 PUSH1 0x3 NOT CALLDATASIZE ADD SLT PUSH2 0x25D JUMPI PUSH1 0x20 SWAP1 PUSH1 0x25 SLOAD SWAP1 MLOAD SWAP1 DUP2 MSTORE RETURN JUMPDEST SWAP1 POP CALLVALUE PUSH2 0x30B JUMPI PUSH1 0x20 CALLDATASIZE PUSH1 0x3 NOT ADD SLT PUSH2 0x30B JUMPI DUP1 CALLDATALOAD PUSH1 0xFF DUP2 AND DUP1 SWAP2 SUB PUSH2 0x307 JUMPI DUP4 PUSH2 0x2F0 SWAP3 DUP5 SWAP3 PUSH2 0x303 SWAP7 MSTORE PUSH1 0x20 MSTORE KECCAK256 PUSH2 0xA95 JUMP JUMPDEST SWAP1 MLOAD SWAP2 DUP3 SWAP2 PUSH1 0x20 DUP4 MSTORE PUSH1 0x20 DUP4 ADD SWAP1 PUSH2 0xB88 JUMP JUMPDEST SUB SWAP1 RETURN JUMPDEST DUP4 DUP1 REVERT JUMPDEST DUP3 DUP1 REVERT JUMPDEST POP POP CALLVALUE PUSH2 0x25D JUMPI DUP2 PUSH1 0x3 NOT CALLDATASIZE ADD SLT PUSH2 0x25D JUMPI PUSH1 0x20 SWAP1 PUSH1 0x27 SLOAD SWAP1 MLOAD SWAP1 DUP2 MSTORE RETURN JUMPDEST POP POP CALLVALUE PUSH2 0x25D JUMPI DUP2 PUSH1 0x3 NOT CALLDATASIZE ADD SLT PUSH2 0x25D JUMPI PUSH1 0x20 SWAP1 DUP2 SLOAD SWAP1 MLOAD SWAP1 DUP2 MSTORE RETURN JUMPDEST POP POP CALLVALUE PUSH2 0x25D JUMPI DUP2 PUSH1 0x3 NOT CALLDATASIZE ADD SLT PUSH2 0x25D JUMPI PUSH1 0x20 SWAP1 PUSH1 0x11 SLOAD SWAP1 MLOAD SWAP1 DUP2 MSTORE RETURN JUMPDEST POP POP CALLVALUE PUSH2 0x25D JUMPI PUSH1 0x20 CALLDATASIZE PUSH1 0x3 NOT ADD SLT PUSH2 0x25D JUMPI PUSH1 0x20 SWAP2 DUP2 SWAP1 PUSH1 0x1 PUSH1 0x1 PUSH1 0xA0 SHL SUB PUSH2 0x393 PUSH2 0xBC8 JUMP JUMPDEST AND DUP2 MSTORE PUSH1 0x9 DUP5 MSTORE KECCAK256 SLOAD SWAP1 MLOAD SWAP1 DUP2 MSTORE RETURN JUMPDEST POP POP CALLVALUE PUSH2 0x25D JUMPI DUP2 PUSH1 0x3 NOT CALLDATASIZE ADD SLT PUSH2 0x25D JUMPI PUSH1 0x2B SLOAD SWAP1 MLOAD PUSH1 0x1 PUSH1 0x1 PUSH1 0xA0 SHL SUB SWAP1 SWAP2 AND DUP2 MSTORE PUSH1 0x20 SWAP1 RETURN JUMPDEST POP POP CALLVALUE PUSH2 0x25D JUMPI DUP2 PUSH1 0x3 NOT CALLDATASIZE ADD SLT PUSH2 0x25D JUMPI PUSH1 0x20 SWAP1 PUSH1 0x1C SLOAD SWAP1 MLOAD SWAP1 DUP2 MSTORE RETURN JUMPDEST POP POP CALLVALUE PUSH2 0x25D JUMPI PUSH1 0x20 CALLDATASIZE PUSH1 0x3 NOT ADD SLT PUSH2 0x25D JUMPI PUSH1 0x20 SWAP2 DUP2 SWAP1 PUSH1 0x1 PUSH1 0x1 PUSH1 0xA0 SHL SUB PUSH2 0x413 PUSH2 0xBC8 JUMP JUMPDEST AND DUP2 MSTORE PUSH1 0xA DUP5 MSTORE KECCAK256 SLOAD SWAP1 MLOAD SWAP1 DUP2 MSTORE RETURN JUMPDEST SWAP1 POP CALLVALUE PUSH2 0x30B JUMPI PUSH1 0x20 CALLDATASIZE PUSH1 0x3 NOT ADD SLT PUSH2 0x30B JUMPI CALLDATALOAD PUSH1 0x3 SLOAD DUP2 LT ISZERO PUSH2 0x30B JUMPI PUSH2 0x2F0 SWAP1 PUSH1 0x20 DUP5 PUSH1 0x3 PUSH2 0x303 SWAP7 MSTORE KECCAK256 ADD PUSH2 0xA95 JUMP JUMPDEST POP POP CALLVALUE PUSH2 0x25D JUMPI DUP2 PUSH1 0x3 NOT CALLDATASIZE ADD SLT PUSH2 0x25D JUMPI PUSH1 0x20 SWAP1 PUSH1 0x23 SLOAD SWAP1 MLOAD SWAP1 DUP2 MSTORE RETURN JUMPDEST POP POP CALLVALUE PUSH2 0x25D JUMPI DUP2 PUSH1 0x3 NOT CALLDATASIZE ADD SLT PUSH2 0x25D JUMPI PUSH1 0x2D SLOAD SWAP1 MLOAD PUSH1 0x1 PUSH1 0x1 PUSH1 0xA0 SHL SUB SWAP1 SWAP2 AND DUP2 MSTORE PUSH1 0x20 SWAP1 RETURN JUMPDEST SWAP1 POP CALLVALUE PUSH2 0x30B JUMPI PUSH1 0x20 CALLDATASIZE PUSH1 0x3 NOT ADD SLT PUSH2 0x30B JUMPI CALLDATALOAD PUSH1 0x6 SLOAD DUP2 LT ISZERO PUSH2 0x30B JUMPI PUSH2 0x2F0 SWAP1 PUSH1 0x20 DUP5 PUSH1 0x6 PUSH2 0x303 SWAP7 MSTORE KECCAK256 ADD PUSH2 0xA95 JUMP JUMPDEST POP POP CALLVALUE PUSH2 0x25D JUMPI DUP1 PUSH1 0x3 NOT CALLDATASIZE ADD SLT PUSH2 0x25D JUMPI PUSH1 0x20 SWAP2 PUSH1 0xFF SWAP1 DUP3 SWAP1 PUSH1 0x1 PUSH1 0x1 PUSH1 0xA0 SHL SUB PUSH2 0x4FB PUSH2 0xBC8 JUMP JUMPDEST AND DUP2 MSTORE PUSH1 0xB DUP6 MSTORE DUP2 DUP2 KECCAK256 PUSH1 0x24 CALLDATALOAD DUP3 MSTORE DUP6 MSTORE KECCAK256 SLOAD AND SWAP1 MLOAD SWAP1 ISZERO ISZERO DUP2 MSTORE RETURN JUMPDEST SWAP2 SWAP1 POP CALLVALUE PUSH2 0x30B JUMPI PUSH1 0x20 CALLDATASIZE PUSH1 0x3 NOT ADD SLT PUSH2 0x30B JUMPI DUP1 PUSH1 0xC0 SWAP4 DUP4 CALLDATALOAD DUP2 MSTORE PUSH1 0xE PUSH1 0x20 MSTORE KECCAK256 SWAP2 DUP3 SLOAD SWAP3 PUSH1 0x1 DUP2 ADD SLOAD SWAP3 PUSH1 0xFF PUSH1 0x2 DUP4 ADD SLOAD SWAP3 PUSH1 0x3 DUP2 ADD SLOAD SWAP5 PUSH1 0x1 DUP1 PUSH1 0xA0 SHL SUB SWAP2 ADD SLOAD AND SWAP5 DUP3 MLOAD SWAP7 DUP8 MSTORE DUP2 DUP2 AND ISZERO ISZERO PUSH1 0x20 DUP9 ADD MSTORE PUSH1 0x8 SHR AND ISZERO ISZERO SWAP1 DUP6 ADD MSTORE PUSH1 0x60 DUP5 ADD MSTORE PUSH1 0x80 DUP4 ADD MSTORE PUSH1 0xA0 DUP3 ADD MSTORE RETURN JUMPDEST POP POP CALLVALUE PUSH2 0x25D JUMPI DUP2 PUSH1 0x3 NOT CALLDATASIZE ADD SLT PUSH2 0x25D JUMPI PUSH1 0x20 SWAP1 PUSH1 0x1A SLOAD SWAP1 MLOAD SWAP1 DUP2 MSTORE RETURN JUMPDEST POP POP CALLVALUE PUSH2 0x25D JUMPI DUP2 PUSH1 0x3 NOT CALLDATASIZE ADD SLT PUSH2 0x25D JUMPI PUSH1 0x20 SWAP1 PUSH1 0x12 SLOAD SWAP1 MLOAD SWAP1 DUP2 MSTORE RETURN JUMPDEST SWAP1 POP CALLVALUE PUSH2 0x30B JUMPI PUSH1 0x20 CALLDATASIZE PUSH1 0x3 NOT ADD SLT PUSH2 0x30B JUMPI CALLDATALOAD DUP3 MSTORE PUSH1 0x8 PUSH1 0x20 SWAP1 DUP2 MSTORE SWAP2 DUP2 SWAP1 KECCAK256 SLOAD SWAP1 MLOAD PUSH1 0x1 PUSH1 0x1 PUSH1 0xA0 SHL SUB SWAP1 SWAP2 AND DUP2 MSTORE RETURN JUMPDEST POP POP CALLVALUE PUSH2 0x25D JUMPI DUP2 PUSH1 0x3 NOT CALLDATASIZE ADD SLT PUSH2 0x25D JUMPI PUSH1 0x20 SWAP1 PUSH1 0x26 SLOAD SWAP1 MLOAD SWAP1 DUP2 MSTORE RETURN JUMPDEST SWAP1 POP CALLVALUE PUSH2 0x30B JUMPI PUSH1 0x20 CALLDATASIZE PUSH1 0x3 NOT ADD SLT PUSH2 0x30B JUMPI CALLDATALOAD PUSH1 0x28 SLOAD DUP2 LT ISZERO PUSH2 0x30B JUMPI PUSH1 0x20 DUP4 PUSH1 0x28 DUP3 SWAP6 MSTORE KECCAK256 ADD SLOAD SWAP1 MLOAD SWAP1 DUP2 MSTORE RETURN JUMPDEST SWAP1 POP CALLVALUE PUSH2 0x30B JUMPI PUSH1 0x20 CALLDATASIZE PUSH1 0x3 NOT ADD SLT PUSH2 0x30B JUMPI DUP2 PUSH1 0x20 SWAP4 PUSH1 0xFF SWAP3 CALLDATALOAD DUP2 MSTORE PUSH1 0xD DUP6 MSTORE KECCAK256 SLOAD AND SWAP1 MLOAD SWAP1 ISZERO ISZERO DUP2 MSTORE RETURN JUMPDEST POP POP CALLVALUE PUSH2 0x25D JUMPI DUP2 PUSH1 0x3 NOT CALLDATASIZE ADD SLT PUSH2 0x25D JUMPI PUSH1 0x20 SWAP1 PUSH1 0x22 SLOAD SWAP1 MLOAD SWAP1 DUP2 MSTORE RETURN JUMPDEST POP POP CALLVALUE PUSH2 0x25D JUMPI DUP2 PUSH1 0x3 NOT CALLDATASIZE ADD SLT PUSH2 0x25D JUMPI PUSH1 0x20 SWAP1 PUSH1 0xFF PUSH1 0x2A SLOAD AND SWAP1 MLOAD SWAP1 DUP2 MSTORE RETURN JUMPDEST POP POP CALLVALUE PUSH2 0x25D JUMPI DUP2 PUSH1 0x3 NOT CALLDATASIZE ADD SLT PUSH2 0x25D JUMPI PUSH1 0x2E SLOAD SWAP1 MLOAD PUSH1 0x1 PUSH1 0x1 PUSH1 0xA0 SHL SUB SWAP1 SWAP2 AND DUP2 MSTORE PUSH1 0x20 SWAP1 RETURN JUMPDEST SWAP1 POP CALLVALUE PUSH2 0x30B JUMPI PUSH1 0x20 CALLDATASIZE PUSH1 0x3 NOT ADD SLT PUSH2 0x30B JUMPI CALLDATALOAD PUSH1 0xFF DUP2 AND DUP1 SWAP2 SUB PUSH2 0x30B JUMPI DUP2 DUP4 PUSH2 0x2F0 SWAP3 PUSH2 0x303 SWAP6 MSTORE PUSH1 0x1 PUSH1 0x20 MSTORE KECCAK256 PUSH2 0xA95 JUMP JUMPDEST POP POP CALLVALUE PUSH2 0x25D JUMPI DUP1 PUSH1 0x3 NOT CALLDATASIZE ADD SLT PUSH2 0x25D JUMPI PUSH1 0x20 SWAP2 DUP2 SWAP1 PUSH1 0x1 PUSH1 0x1 PUSH1 0xA0 SHL SUB PUSH2 0x73B PUSH2 0xBC8 JUMP JUMPDEST AND DUP2 MSTORE PUSH1 0xC DUP5 MSTORE DUP2 DUP2 KECCAK256 PUSH1 0x24 CALLDATALOAD DUP3 MSTORE DUP5 MSTORE KECCAK256 SLOAD SWAP1 MLOAD SWAP1 DUP2 MSTORE RETURN JUMPDEST POP POP CALLVALUE PUSH2 0x25D JUMPI DUP2 PUSH1 0x3 NOT CALLDATASIZE ADD SLT PUSH2 0x25D JUMPI PUSH1 0x20 SWAP1 PUSH1 0x15 SLOAD SWAP1 MLOAD SWAP1 DUP2 MSTORE RETURN JUMPDEST DUP4 DUP4 CALLVALUE PUSH2 0x25D JUMPI PUSH1 0x20 CALLDATASIZE PUSH1 0x3 NOT ADD SLT PUSH2 0x25D JUMPI DUP3 CALLDATALOAD DUP3 SLOAD DUP2 LT ISZERO PUSH2 0x30B JUMPI DUP3 DUP1 MSTORE PUSH1 0xB PUSH1 0x20 DUP5 KECCAK256 SWAP2 MUL ADD DUP1 SLOAD PUSH1 0xFF PUSH1 0x1 DUP4 ADD SLOAD AND SWAP3 DUP6 DUP4 ADD SLOAD PUSH1 0x5 DUP5 ADD SLOAD PUSH1 0x6 DUP6 ADD SLOAD SWAP1 PUSH1 0xFF PUSH1 0x7 DUP8 ADD SLOAD AND SWAP3 PUSH1 0x8 DUP8 ADD SLOAD SWAP5 PUSH1 0xA PUSH2 0x7D5 PUSH1 0x9 DUP11 ADD PUSH2 0xA95 JUMP JUMPDEST SWAP9 ADD SLOAD SWAP9 DUP2 MLOAD SWAP11 PUSH2 0x120 SWAP9 DUP13 MSTORE PUSH1 0x6 DUP3 LT ISZERO PUSH2 0x82B JUMPI POP PUSH1 0x20 DUP12 ADD MSTORE DUP10 ADD MSTORE PUSH1 0x60 DUP9 ADD MSTORE PUSH1 0x80 DUP8 ADD MSTORE ISZERO ISZERO PUSH1 0xA0 DUP7 ADD MSTORE PUSH1 0xC0 DUP6 ADD MSTORE PUSH1 0xE0 DUP5 ADD DUP2 SWAP1 MSTORE DUP4 SWAP3 SWAP2 PUSH2 0x820 SWAP2 DUP5 ADD SWAP1 PUSH2 0xB88 JUMP JUMPDEST SWAP1 PUSH2 0x100 DUP4 ADD MSTORE SUB SWAP1 RETURN JUMPDEST PUSH4 0x4E487B71 PUSH1 0xE0 SHL DUP2 MSTORE PUSH1 0x21 DUP14 MSTORE PUSH1 0x24 SWAP1 REVERT JUMPDEST POP POP CALLVALUE PUSH2 0x25D JUMPI DUP2 PUSH1 0x3 NOT CALLDATASIZE ADD SLT PUSH2 0x25D JUMPI PUSH1 0x2C SLOAD SWAP1 MLOAD PUSH1 0x1 PUSH1 0x1 PUSH1 0xA0 SHL SUB SWAP1 SWAP2 AND DUP2 MSTORE PUSH1 0x20 SWAP1 RETURN JUMPDEST POP POP CALLVALUE PUSH2 0x25D JUMPI DUP2 PUSH1 0x3 NOT CALLDATASIZE ADD SLT PUSH2 0x25D JUMPI PUSH1 0x20 SWAP1 PUSH1 0xFF PUSH1 0xF SLOAD AND SWAP1 MLOAD SWAP1 ISZERO ISZERO DUP2 MSTORE RETURN JUMPDEST POP POP CALLVALUE PUSH2 0x25D JUMPI DUP2 PUSH1 0x3 NOT CALLDATASIZE ADD SLT PUSH2 0x25D JUMPI PUSH1 0x20 SWAP1 PUSH1 0x1F SLOAD SWAP1 MLOAD SWAP1 DUP2 MSTORE RETURN JUMPDEST POP POP CALLVALUE PUSH2 0x25D JUMPI DUP2 PUSH1 0x3 NOT CALLDATASIZE ADD SLT PUSH2 0x25D JUMPI PUSH1 0x20 SWAP1 PUSH1 0x29 SLOAD SWAP1 MLOAD SWAP1 DUP2 MSTORE RETURN JUMPDEST POP POP CALLVALUE PUSH2 0x25D JUMPI DUP2 PUSH1 0x3 NOT CALLDATASIZE ADD SLT PUSH2 0x25D JUMPI PUSH1 0x20 SWAP1 PUSH1 0x16 SLOAD SWAP1 MLOAD SWAP1 DUP2 MSTORE RETURN JUMPDEST POP POP CALLVALUE PUSH2 0x25D JUMPI DUP2 PUSH1 0x3 NOT CALLDATASIZE ADD SLT PUSH2 0x25D JUMPI PUSH1 0x2F SLOAD SWAP1 MLOAD PUSH1 0x1 PUSH1 0x1 PUSH1 0xA0 SHL SUB SWAP1 SWAP2 AND DUP2 MSTORE PUSH1 0x20 SWAP1 RETURN JUMPDEST POP POP CALLVALUE PUSH2 0x25D JUMPI DUP2 PUSH1 0x3 NOT CALLDATASIZE ADD SLT PUSH2 0x25D JUMPI PUSH1 0x20 SWAP1 PUSH1 0x1B SLOAD SWAP1 MLOAD SWAP1 DUP2 MSTORE RETURN JUMPDEST POP POP CALLVALUE PUSH2 0x25D JUMPI DUP2 PUSH1 0x3 NOT CALLDATASIZE ADD SLT PUSH2 0x25D JUMPI PUSH1 0x2A SLOAD SWAP1 MLOAD PUSH1 0x8 SWAP2 SWAP1 SWAP2 SHR PUSH1 0x1 PUSH1 0x1 PUSH1 0xA0 SHL SUB AND DUP2 MSTORE PUSH1 0x20 SWAP1 RETURN JUMPDEST POP POP CALLVALUE PUSH2 0x25D JUMPI DUP2 PUSH1 0x3 NOT CALLDATASIZE ADD SLT PUSH2 0x25D JUMPI PUSH1 0x20 SWAP1 MLOAD PUSH3 0x33450 DUP2 MSTORE RETURN JUMPDEST POP POP CALLVALUE PUSH2 0x25D JUMPI DUP2 PUSH1 0x3 NOT CALLDATASIZE ADD SLT PUSH2 0x25D JUMPI PUSH1 0x20 SWAP1 PUSH1 0x14 SLOAD SWAP1 MLOAD SWAP1 DUP2 MSTORE RETURN JUMPDEST POP POP CALLVALUE PUSH2 0x25D JUMPI DUP2 PUSH1 0x3 NOT CALLDATASIZE ADD SLT PUSH2 0x25D JUMPI PUSH1 0x20 SWAP1 PUSH1 0x18 SLOAD SWAP1 MLOAD SWAP1 DUP2 MSTORE RETURN JUMPDEST POP POP CALLVALUE PUSH2 0x25D JUMPI DUP2 PUSH1 0x3 NOT CALLDATASIZE ADD SLT PUSH2 0x25D JUMPI PUSH1 0x20 SWAP1 PUSH1 0x24 SLOAD SWAP1 MLOAD SWAP1 DUP2 MSTORE RETURN JUMPDEST POP POP CALLVALUE PUSH2 0x25D JUMPI DUP2 PUSH1 0x3 NOT CALLDATASIZE ADD SLT PUSH2 0x25D JUMPI PUSH1 0x20 SWAP1 PUSH1 0x21 SLOAD SWAP1 MLOAD SWAP1 DUP2 MSTORE RETURN JUMPDEST POP POP CALLVALUE PUSH2 0x25D JUMPI DUP2 PUSH1 0x3 NOT CALLDATASIZE ADD SLT PUSH2 0x25D JUMPI PUSH1 0x20 SWAP1 PUSH1 0x1D SLOAD SWAP1 MLOAD SWAP1 DUP2 MSTORE RETURN JUMPDEST POP POP CALLVALUE PUSH2 0x25D JUMPI DUP2 PUSH1 0x3 NOT CALLDATASIZE ADD SLT PUSH2 0x25D JUMPI PUSH1 0x20 SWAP1 PUSH1 0xFF PUSH1 0x5 SLOAD AND SWAP1 MLOAD SWAP1 DUP2 MSTORE RETURN JUMPDEST POP POP CALLVALUE PUSH2 0x25D JUMPI DUP2 PUSH1 0x3 NOT CALLDATASIZE ADD SLT PUSH2 0x25D JUMPI PUSH1 0x20 SWAP1 PUSH1 0x1E SLOAD SWAP1 MLOAD SWAP1 DUP2 MSTORE RETURN JUMPDEST POP POP CALLVALUE PUSH2 0x25D JUMPI DUP2 PUSH1 0x3 NOT CALLDATASIZE ADD SLT PUSH2 0x25D JUMPI PUSH1 0x20 SWAP1 PUSH1 0x19 SLOAD SWAP1 MLOAD SWAP1 DUP2 MSTORE RETURN JUMPDEST DUP5 SWAP1 CALLVALUE PUSH2 0x25D JUMPI DUP2 PUSH1 0x3 NOT CALLDATASIZE ADD SLT PUSH2 0x25D JUMPI PUSH1 0x20 SWAP1 PUSH1 0xFF PUSH1 0x2 SLOAD AND DUP2 MSTORE RETURN JUMPDEST SWAP1 PUSH1 0x40 MLOAD SWAP2 PUSH1 0x0 SWAP1 DUP1 SLOAD SWAP1 PUSH1 0x1 DUP3 PUSH1 0x1 SHR SWAP2 PUSH1 0x1 DUP5 AND SWAP4 DUP5 ISZERO PUSH2 0xB7E JUMPI JUMPDEST PUSH1 0x20 SWAP5 DUP6 DUP6 LT DUP2 EQ PUSH2 0xB6A JUMPI DUP5 DUP10 MSTORE SWAP1 DUP2 ISZERO PUSH2 0xB4C JUMPI POP PUSH1 0x1 EQ PUSH2 0xB10 JUMPI JUMPDEST POP POP POP POP DUP3 SWAP1 SUB PUSH1 0x1F ADD PUSH1 0x1F NOT AND DUP3 ADD PUSH8 0xFFFFFFFFFFFFFFFF DUP2 GT DUP4 DUP3 LT OR PUSH2 0xAFA JUMPI PUSH1 0x40 MSTORE JUMP JUMPDEST PUSH4 0x4E487B71 PUSH1 0xE0 SHL PUSH1 0x0 MSTORE PUSH1 0x41 PUSH1 0x4 MSTORE PUSH1 0x24 PUSH1 0x0 REVERT JUMPDEST SWAP1 SWAP3 SWAP4 POP PUSH1 0x0 MSTORE DUP3 PUSH1 0x0 KECCAK256 SWAP2 DUP4 PUSH1 0x0 SWAP4 JUMPDEST DUP4 DUP6 LT PUSH2 0xB38 JUMPI POP POP POP POP DUP4 ADD ADD CODESIZE DUP1 DUP1 DUP1 PUSH2 0xAD2 JUMP JUMPDEST DUP1 SLOAD DUP9 DUP7 ADD DUP4 ADD MSTORE SWAP4 ADD SWAP3 DUP5 SWAP1 DUP3 ADD PUSH2 0xB21 JUMP JUMPDEST PUSH1 0xFF NOT AND DUP9 DUP7 ADD MSTORE POP POP POP ISZERO ISZERO PUSH1 0x5 SHL DUP5 ADD ADD SWAP1 POP CODESIZE DUP1 DUP1 DUP1 PUSH2 0xAD2 JUMP JUMPDEST PUSH4 0x4E487B71 PUSH1 0xE0 SHL DUP8 MSTORE PUSH1 0x22 PUSH1 0x4 MSTORE PUSH1 0x24 DUP8 REVERT JUMPDEST SWAP3 PUSH1 0x7F AND SWAP3 PUSH2 0xAB3 JUMP JUMPDEST SWAP2 SWAP1 DUP3 MLOAD SWAP3 DUP4 DUP3 MSTORE PUSH1 0x0 JUMPDEST DUP5 DUP2 LT PUSH2 0xBB4 JUMPI POP POP DUP3 PUSH1 0x0 PUSH1 0x20 DUP1 SWAP5 SWAP6 DUP5 ADD ADD MSTORE PUSH1 0x1F DUP1 NOT SWAP2 ADD AND ADD ADD SWAP1 JUMP JUMPDEST PUSH1 0x20 DUP2 DUP4 ADD DUP2 ADD MLOAD DUP5 DUP4 ADD DUP3 ADD MSTORE ADD PUSH2 0xB93 JUMP JUMPDEST PUSH1 0x4 CALLDATALOAD SWAP1 PUSH1 0x1 PUSH1 0x1 PUSH1 0xA0 SHL SUB DUP3 AND DUP3 SUB PUSH2 0xBDE JUMPI JUMP JUMPDEST PUSH1 0x0 DUP1 REVERT INVALID LOG2 PUSH5 0x6970667358 0x22 SLT KECCAK256 PUSH13 0xD4DD7BF99F479AA5B9F5E194B0 TIMESTAMP BALANCE PUSH10 0x57A2E7D2F31553F9B19A 0xDA BLOBHASH SWAP12 DUP5 0x2F PUSH5 0x736F6C6343 STOP ADDMOD NOT STOP CALLER "},"methodIdentifiers":{"CALLBACK_GAS_LIMIT()":"33d608f1","CommonGemsCooldownPeriod()":"77f7e499","CommonGemsMiningPeriod()":"c4d2fcae","CommonGemsValue()":"58bf3e65","CommonminingTry()":"ffbccde4","EpicGemsCooldownPeriod()":"efa2cc29","EpicGemsMiningPeriod()":"5bbffab6","EpicGemsValue()":"038a7e05","EpicminingTry()":"f7c0794d","GEMIndexToOwner(uint256)":"97125c40","Gems(uint256)":"61f7f6d7","LegendaryGemsCooldownPeriod()":"8fddb065","LegendaryGemsMiningPeriod()":"d7a46495","LegendaryGemsValue()":"a0b2d41b","LegendaryminingTry()":"201832c0","MythicGemsCooldownPeriod()":"e4b7fddf","MythicGemsMiningPeriod()":"139b63f3","MythicGemsValue()":"3fb310a5","MythicminingTry()":"62751738","RareGemsCooldownPeriod()":"b78417b0","RareGemsMiningPeriod()":"0de32a97","RareGemsValue()":"f66f9e34","RareminingTry()":"d1bd7e06","UniqueGemsCooldownPeriod()":"1885cbbe","UniqueGemsMiningPeriod()":"04e41a0b","UniqueGemsValue()":"18898f36","UniqueminingTry()":"98a2c65d","backgroundColors(uint256)":"a8ce886e","colors(uint256)":"bd11f69d","customBackgroundColors(uint8)":"ecc5e06f","customBackgroundColorsCount()":"0922f513","customColors(uint8)":"6b1a96fa","customColorsCount()":"034294f8","drbcoordinator()":"71b57c47","marketplace()":"abc8c7af","numberOfSolidColors()":"724188bc","ownershipTokenCount(address)":"cec21acb","paused()":"5c975abb","randomPack()":"4ec741b4","requestCount()":"5badbe4c","requestIds(uint256)":"8796ba8c","s_requests(uint256)":"a168fa89","tokenMiningByUser(address)":"c1389072","tokenReadyToMine(uint256)":"7866369b","ton()":"cc48b947","treasury()":"61d027b3","userMiningStartTime(address,uint256)":"676f79f1","userMiningToken(address,uint256)":"a1770a7d","wston()":"36b17e13"}}}}}