{"src/L2/MarketPlace.sol":{"MarketPlace":{"abi":[{"inputs":[],"stateMutability":"nonpayable","type":"constructor"},{"inputs":[{"internalType":"address","name":"target","type":"address"}],"name":"AddressEmptyCode","type":"error"},{"inputs":[{"internalType":"address","name":"account","type":"address"}],"name":"AddressInsufficientBalance","type":"error"},{"inputs":[],"name":"FailedInnerCall","type":"error"},{"inputs":[{"internalType":"address","name":"owner","type":"address"}],"name":"OwnableInvalidOwner","type":"error"},{"inputs":[{"internalType":"address","name":"account","type":"address"}],"name":"OwnableUnauthorizedAccount","type":"error"},{"inputs":[],"name":"ReentrancyGuardReentrantCall","type":"error"},{"inputs":[{"internalType":"address","name":"token","type":"address"}],"name":"SafeERC20FailedOperation","type":"error"},{"anonymous":false,"inputs":[{"indexed":false,"internalType":"uint256","name":"tokenId","type":"uint256"},{"indexed":false,"internalType":"address","name":"payer","type":"address"},{"indexed":false,"internalType":"address","name":"seller","type":"address"},{"indexed":false,"internalType":"uint256","name":"amount","type":"uint256"}],"name":"GemBought","type":"event"},{"anonymous":false,"inputs":[{"indexed":false,"internalType":"uint256","name":"tokenId","type":"uint256"},{"indexed":false,"internalType":"address","name":"seller","type":"address"},{"indexed":false,"internalType":"uint256","name":"price","type":"uint256"}],"name":"GemForSale","type":"event"},{"anonymous":false,"inputs":[{"indexed":false,"internalType":"uint256","name":"tokenId","type":"uint256"}],"name":"GemRemovedFromSale","type":"event"},{"anonymous":false,"inputs":[{"indexed":true,"internalType":"address","name":"previousOwner","type":"address"},{"indexed":true,"internalType":"address","name":"newOwner","type":"address"}],"name":"OwnershipTransferred","type":"event"},{"anonymous":false,"inputs":[{"indexed":false,"internalType":"uint256","name":"discountRate","type":"uint256"}],"name":"SetDiscountRate","type":"event"},{"anonymous":false,"inputs":[{"indexed":false,"internalType":"uint256","name":"tokenId","type":"uint256"},{"indexed":false,"internalType":"address","name":"claimer","type":"address"}],"name":"WSTONClaimed","type":"event"},{"inputs":[],"name":"DECIMALS","outputs":[{"internalType":"uint256","name":"","type":"uint256"}],"stateMutability":"view","type":"function"},{"inputs":[],"name":"TON_FEES_RATE_DIVIDER","outputs":[{"internalType":"uint256","name":"","type":"uint256"}],"stateMutability":"view","type":"function"},{"inputs":[],"name":"buyCommonGem","outputs":[{"internalType":"uint256","name":"newTokenId","type":"uint256"}],"stateMutability":"nonpayable","type":"function"},{"inputs":[{"internalType":"uint256","name":"_tokenId","type":"uint256"},{"internalType":"bool","name":"_paymentMethod","type":"bool"}],"name":"buyGem","outputs":[],"stateMutability":"nonpayable","type":"function"},{"inputs":[],"name":"commonGemTokenUri","outputs":[{"internalType":"string","name":"","type":"string"}],"stateMutability":"view","type":"function"},{"inputs":[],"name":"gemFactory","outputs":[{"internalType":"address","name":"","type":"address"}],"stateMutability":"view","type":"function"},{"inputs":[{"internalType":"uint256","name":"","type":"uint256"}],"name":"gemsForSale","outputs":[{"internalType":"address","name":"seller","type":"address"},{"internalType":"uint256","name":"price","type":"uint256"},{"internalType":"bool","name":"isActive","type":"bool"}],"stateMutability":"view","type":"function"},{"inputs":[],"name":"getGemFactory","outputs":[{"internalType":"address","name":"","type":"address"}],"stateMutability":"view","type":"function"},{"inputs":[],"name":"getTonFeesRate","outputs":[{"internalType":"uint256","name":"","type":"uint256"}],"stateMutability":"view","type":"function"},{"inputs":[{"internalType":"address","name":"_treasury","type":"address"},{"internalType":"address","name":"_gemfactory","type":"address"},{"internalType":"uint256","name":"_tonFeesRate","type":"uint256"},{"internalType":"address","name":"_wston","type":"address"},{"internalType":"address","name":"_ton","type":"address"}],"name":"initialize","outputs":[],"stateMutability":"nonpayable","type":"function"},{"inputs":[],"name":"owner","outputs":[{"internalType":"address","name":"","type":"address"}],"stateMutability":"view","type":"function"},{"inputs":[],"name":"paused","outputs":[{"internalType":"bool","name":"","type":"bool"}],"stateMutability":"view","type":"function"},{"inputs":[{"internalType":"uint256","name":"_tokenId","type":"uint256"},{"internalType":"uint256","name":"_price","type":"uint256"}],"name":"putGemForSale","outputs":[],"stateMutability":"nonpayable","type":"function"},{"inputs":[{"internalType":"uint256[]","name":"tokenIds","type":"uint256[]"},{"internalType":"uint256[]","name":"prices","type":"uint256[]"}],"name":"putGemListForSale","outputs":[],"stateMutability":"nonpayable","type":"function"},{"inputs":[{"internalType":"uint256","name":"_tokenId","type":"uint256"}],"name":"removeGemForSale","outputs":[],"stateMutability":"nonpayable","type":"function"},{"inputs":[],"name":"renounceOwnership","outputs":[],"stateMutability":"nonpayable","type":"function"},{"inputs":[{"internalType":"string","name":"_tokenURI","type":"string"}],"name":"setCommonGemTokenUri","outputs":[],"stateMutability":"nonpayable","type":"function"},{"inputs":[{"internalType":"uint256","name":"_tonFeesRate","type":"uint256"}],"name":"setDiscountRate","outputs":[],"stateMutability":"nonpayable","type":"function"},{"inputs":[{"internalType":"uint256","name":"_stakingIndex","type":"uint256"}],"name":"setStakingIndex","outputs":[],"stateMutability":"nonpayable","type":"function"},{"inputs":[],"name":"stakingIndex","outputs":[{"internalType":"uint256","name":"","type":"uint256"}],"stateMutability":"view","type":"function"},{"inputs":[],"name":"ton","outputs":[{"internalType":"address","name":"","type":"address"}],"stateMutability":"view","type":"function"},{"inputs":[],"name":"tonFeesRate","outputs":[{"internalType":"uint256","name":"","type":"uint256"}],"stateMutability":"view","type":"function"},{"inputs":[{"internalType":"address","name":"newOwner","type":"address"}],"name":"transferOwnership","outputs":[],"stateMutability":"nonpayable","type":"function"},{"inputs":[],"name":"treasury","outputs":[{"internalType":"address","name":"","type":"address"}],"stateMutability":"view","type":"function"},{"inputs":[],"name":"wston","outputs":[{"internalType":"address","name":"","type":"address"}],"stateMutability":"view","type":"function"}],"evm":{"bytecode":{"linkReferences":{},"object":"60808060405234608c57600160075560ff196008541660085560016009553315607657600a8054336001600160a01b03198216811790925560405191906001600160a01b03167f8be0079c531659141344cd1fd0a4f28419497f9722a3daafe3b4186f6b6457e0600080a3611a1290816100928239f35b631e4fbdf760e01b815260006004820152602490fd5b600080fdfe6040608081526004908136101561001557600080fd5b600091823560e01c806302424ed314610fbc57806308ec897d14610fa0578063127886191461042d5780632e0f262514610f7a5780632ede643214610ece57806330f5085914610eaf5780633336096814610db457806333e1a22314610cc357806336b17e1314610c9c5780635c975abb14610c7857806361d027b314610c4f578063715018a614610bee5780637525e5261461082657806379dbd7981461069f5780637c69febd146106465780638da5cb5b1461061d5780639c41b42b146105d2578063a27682ef1461044c578063a53225c0146101c1578063a69c8fb21461042d578063adad69261461029b578063cc48b94714610272578063ce49a360146101ee578063f00fe4fd146101c15763f2fde38b1461013457600080fd5b346101bd5760203660031901126101bd5761014d61142a565b9061015661194d565b6001600160a01b039182169283156101a7575050600a80546001600160a01b031981168417909155167f8be0079c531659141344cd1fd0a4f28419497f9722a3daafe3b4186f6b6457e0600080a380f35b51631e4fbdf760e01b8152908101849052602490fd5b8280fd5b5050346101ea57816003193601126101ea5760025490516001600160a01b039091168152602090f35b5080fd5b5090346101bd5760203660031901126101bd5761020961194d565b60016007541061021b57503560075580f35b906020608492519162461bcd60e51b8352820152602b60248201527f7374616b696e6720696e646578206d7573742062652067726561746572206f7260448201526a20657175616c20746f203160a81b6064820152fd5b5050346101ea57816003193601126101ea5760055490516001600160a01b039091168152602090f35b50346101bd57602090816003193601126103ad578035906102c160ff60085416156114c1565b818552848352600160ff60028688200154161515036103f45760025484516331a9108f60e11b815280830184905286926001600160a01b03928316929091908682602481875afa9081156103ea576103239286926103bb575b5016331461165f565b813b156101bd5783604484928389519586948593634d723a7560e01b85528401528160248401525af180156103b157610399575b5092817f05e530d2932a31001c9cde048b350c93ce3ffea36cf640e4473b8da9e62ac1bb9452848352846002828220828155826001820155015551908152a180f35b6103a2906113e0565b6103ad578338610357565b8380fd5b85513d84823e3d90fd5b6103dc919250883d8a116103e3575b6103d48183611409565b810190611500565b903861031a565b503d6103ca565b88513d87823e3d90fd5b835162461bcd60e51b8152908101839052601360248201527247656d206973206e6f7420666f722073616c6560681b6044820152606490fd5b5050346101ea57816003193601126101ea576020906001549051908152f35b508290346101ea576020806003193601126101bd576001600160401b039180358381116105ce57366023820112156105ce57808201359061049861048f836114a6565b97519788611409565b81875236602483830101116105ca578186926024869301838a0137870101526104bf61194d565b84519283116105b757506104d46006546113a6565b601f811161057b575b5080601f83116001146105185750829382939261050d575b50508160011b916000199060031b1c19161760065580f35b0151905083806104f5565b90601f19831694600685528285209285905b87821061056357505083600195961061054a575b505050811b0160065580f35b015160001960f88460031b161c1916905583808061053e565b8060018596829496860151815501950193019061052a565b6105a790600660005282600020601f850160051c8101918486106105ad575b601f0160051c0190611606565b846104dd565b909150819061059a565b634e487b7160e01b845260419052602483fd5b8580fd5b8480fd5b50346101bd5760203660031901126101bd57606092829135815280602052209060018060a01b038254169160ff60026001830154920154169082519384526020840152151590820152f35b5050346101ea57816003193601126101ea57600a5490516001600160a01b039091168152602090f35b50346101bd5760203660031901126101bd577f21a8eefc17e9c864964b5a4c0769d87f39cc0a7576773159e12358bc0095ffc591602091359061068761194d565b610693606483106115ae565b8160015551908152a180f35b50346101bd57816003193601126101bd576001600160401b039181358381116105ce576106cf9036908401611440565b906024936024359081116105ca576106ea9036908501611440565b926106fa60ff60085416156114c1565b8251156107f85782518451036107c757855b83518110156107c3576002546001600160a01b039081169061072e8387611635565b51855192839163020604bf60e21b835286830152818a60209586935afa9283156107b95791600194939161076d938c9361079a575b505016301461151f565b61079461078f61077d8388611635565b51610788848a611635565b51906116f1565b611565565b0161070c565b6107b1929350803d106103e3576103d48183611409565b903880610763565b86513d8c823e3d90fd5b8680f35b6020606492519162461bcd60e51b8352820152600c60248201526b0eee4dedcce40d8cadccee8d60a31b6044820152fd5b6020606492519162461bcd60e51b835282015260096024820152686e6f20746f6b656e7360b81b6044820152fd5b509190346101ea57816003193601126101ea5760ff9161084b60ff60085416156114c1565b60028054835163d55486d360e01b8152602096926001600160a01b0392909190889082908690829087165afa908115610be4579088949392918691610bb5575b50610902868085875416936108c16108cf88600354169a8d519283918201946323b872dd60e01b865260249d8e339085016116cf565b03601f198101835282611409565b519082865af13d15610bad573d906108e6826114a6565b916108f38b519384611409565b82523d898d84013e5b83611979565b8051908a8215159283610b94575b505050610b8057508160035416908651978789016001600160401b03908a811082821117610b6c578952878a52878b8b0152885190608082019082821090821117610b6c57908b949289928b9c959c526001918281528287820152828c8201528260608201528b519c8d9663912b431b60e01b8852858b8901528b88019086915b838310610b425750505050606486019084915b8a8310610b2657505061010060e4870152505060065482916109c5826113a6565b908161010488015261012492878282169182600014610b05575050600114610ac4575b5050509083809203925af1958615610aba5790879392918597610a7b575b50849392918795604492600354168851978895869463048dbcef60e41b865233908601528401525af1908115610a705750610a43575b5051908152f35b610a6290843d8611610a69575b610a5a8183611409565b81019061161d565b5038610a3c565b503d610a50565b8351903d90823e3d90fd5b848195929698509392933d8311610ab3575b610a978183611409565b81010312610aae5791519492869291906044610a06565b600080fd5b503d610a8d565b85513d86823e3d90fd5b91925060068452868420918785935b838510610ae957505050508401018380386109e8565b80549885018601989098528e978d965093019288908201610ad3565b60ff19168582015292151560051b83019093019350909150819050386109e8565b8151841681528f988f98508d96509285019291820191016109a4565b86995081949750858b9396999b92979497511681520192019201928d96938f9896938d9693610991565b87604188634e487b7160e01b600052526000fd5b8651635274afe760e01b8152938401525050fd5b610ba4935082018101910161161d565b15388a81610910565b6060906108fc565b85819692503d8311610bdd575b610bcc8183611409565b81010312610aae578793513861088b565b503d610bc2565b86513d87823e3d90fd5b8334610c4c5780600319360112610c4c57610c0761194d565b600a80546001600160a01b031981169091556000906001600160a01b03167f8be0079c531659141344cd1fd0a4f28419497f9722a3daafe3b4186f6b6457e08280a380f35b80fd5b5050346101ea57816003193601126101ea5760035490516001600160a01b039091168152602090f35b5050346101ea57816003193601126101ea5760209060ff6008541690519015158152f35b50346101bd57826003193601126101bd575490516001600160a01b03909116815260209150f35b8382346101ea5760a03660031901126101ea57610cde61142a565b6001600160a01b03916024358381169290839003610aae576044359360643591818316809303610aae5760843595828716809703610aae57610d1e61194d565b610d2a606482106115ae565b60015560018060a01b03199485600254161760025516836003541617600355828254161790556005541617600555610d636006546113a6565b601f8111610d75575b50600060065580f35b6006600052610dae90601f0160051c7ff652222313e28459528d920b65115c16c04f3efc82aaedc97be59f3f377c0d3f90810190611606565b81610d6c565b5050346101ea57816003193601126101ea5780518260065482610dd6826113a6565b958682526020968793600190600181169081600014610e8e5750600114610e50575b5050610e0a9250959392950382611409565b82519382859384528251928382860152825b848110610e3a57505050828201840152601f01601f19168101030190f35b8181018301518882018801528795508201610e1c565b600686528486209492508591905b818310610e76575088945050820101610e0a38610df8565b85548884018501529485019487945091830191610e5e565b915050610e0a94925060ff191682840152151560051b820101869238610df8565b5050346101ea57816003193601126101ea576020906007549051908152f35b5090346101bd57806003193601126101bd57813591610ef260ff60085416156114c1565b600254825163020604bf60e21b81529182018490526001600160a01b0391906020908290602490829086165afa928315610f71575061078f92610f4d9492610f44928792610f50575b5016301461151f565b602435906116f1565b80f35b610f6a91925060203d6020116103e3576103d48183611409565b9038610f3b565b513d86823e3d90fd5b5050346101ea57816003193601126101ea5751676765c793fa10079d601b1b8152602090f35b5050346101ea57816003193601126101ea576020905160648152f35b50346101bd57816003193601126101bd57803590602480359081151582036105ca57610fed60ff60085416156114c1565b6002928360095414611398578360095533156113685784875260209187835260ff85888a2001541615611339578588528783526001878920015494851561130a57868952888452878920546001600160a01b039081169590929086156112d9578a9190156111cb5761107e86898c8a868a8a8154169351968795869485936323b872dd60e01b8552339085016116cf565b03925af180156111c1576111a4575b505b8882528186528982208301805460ff191690558254841690813b156101bd5760448a8480948e519687958694634d723a7560e01b86528c8601528401525af1801561119a57611183575b505488929116803b156101bd5786839161110a93838b518096819582946323b872dd60e01b84528c339185016116cf565b03925af180156111795761115d575b507f429a311c86d807d248190c8540973d38711c40cabad4c6266ef4b9a7ae6cdc3c60808686868a87815194855233908501528301526060820152a1600160095580f35b61116b9095949392956113e0565b6105ca579091928538611119565b87513d84823e3d90fd5b6111919099919392996113e0565b979091386110d9565b89513d8c823e3d90fd5b6111ba90873d8911610a6957610a5a8183611409565b503861108d565b8b513d85823e3d90fd5b9050676765c793fa10079d601b1b6111e5600754896116a6565b0460646111f4600154836116a6565b0481018091116112c757906112368b928b888888600554168960035416888551809881958294633b9aca006323b872dd60e01b9b8c86520491339085016116cf565b03925af19182156112bd5788868d928d968d966112a0575b5061126e8b845416948c60035416965198899788968795865285016116cf565b03925af180156111c157611283575b5061108f565b61129990873d8911610a6957610a5a8183611409565b503861127d565b6112b690873d8911610a6957610a5a8183611409565b503861124e565b81513d87823e3d90fd5b50634e487b7160e01b8a526011845289fd5b895162461bcd60e51b8152808601879052600c818401526b3bb937b7339039b2b63632b960a11b6044820152606490fd5b50600b9060649388519362461bcd60e51b85528401528201526a77726f6e6720707269636560a81b6044820152fd5b600c9060649388519362461bcd60e51b85528401528201526b6e6f7420666f722073616c6560a01b6044820152fd5b600c606492602088519362461bcd60e51b85528401528201526b7a65726f206164647265737360a01b6044820152fd5b8551633ee5aeb560e01b8152fd5b90600182811c921680156113d6575b60208310146113c057565b634e487b7160e01b600052602260045260246000fd5b91607f16916113b5565b6001600160401b0381116113f357604052565b634e487b7160e01b600052604160045260246000fd5b90601f801991011681019081106001600160401b038211176113f357604052565b600435906001600160a01b0382168203610aae57565b81601f82011215610aae578035916020916001600160401b0384116113f3578360051b906040519461147485840187611409565b85528380860192820101928311610aae578301905b828210611497575050505090565b81358152908301908301611489565b6001600160401b0381116113f357601f01601f191660200190565b156114c857565b60405162461bcd60e51b815260206004820152601060248201526f14185d5cd8589b194e881c185d5cd95960821b6044820152606490fd5b90816020910312610aae57516001600160a01b0381168103610aae5790565b1561152657565b60405162461bcd60e51b81526020600482015260176024820152761d1a1948139195081a5cc81b9bdd08185c1c1c9bdd9959604a1b6044820152606490fd5b1561156c57565b60405162461bcd60e51b815260206004820152601a6024820152796661696c656420746f207075742067656d20666f722073616c6560301b6044820152606490fd5b156115b557565b60405162461bcd60e51b8152602060048201526024808201527f646973636f756e742072617465206d757374206265206c657373207468616e206044820152633130302560e01b6064820152608490fd5b818110611611575050565b60008155600101611606565b90816020910312610aae57518015158103610aae5790565b80518210156116495760209160051b010190565b634e487b7160e01b600052603260045260246000fd5b1561166657565b60405162461bcd60e51b81526020600482015260186024820152774e6f7420746865206f776e6572206f66207468652047454d60401b6044820152606490fd5b818102929181159184041417156116b957565b634e487b7160e01b600052601160045260246000fd5b6001600160a01b03918216815291166020820152604081019190915260600190565b90600254600060018060a01b03809216906040928351906331a9108f60e11b82526004878184015260209460249386818681855afa9081156118e45790611743918791611930575b508416331461165f565b87156118ee57865163276a28a360e01b81528281018a905286818681855afa9081156118e45786916118c7575b5061187b57803b156105ce5784809160448b8a519485938492634d723a7560e01b84528884015260018a8401525af180156118715761185e575b5085519260608401918483106001600160401b0384111761184b57505060609694928694926002927f8b8052dfcc72d6fc28cd795f60661e1a701f185ce78c06a47b2ac29357d6ef8b9a9852338252848201908782528680840195600187528a81528088522092511660018060a01b0319835416178255516001820155019051151560ff8019835416911617905581519384523390840152820152a1600190565b604190634e487b7160e01b600052526000fd5b61186a909491946113e0565b92386117aa565b87513d87823e3d90fd5b865162461bcd60e51b81528083018790526021818601527f47656d20697320616c726561647920666f722073616c65206f72206d696e696e6044820152606760f81b6064820152608490fd5b6118de9150873d8911610a6957610a5a8183611409565b38611770565b88513d88823e3d90fd5b865162461bcd60e51b8152808301879052601f818601527f5072696365206d7573742062652067726561746572207468616e207a65726f006044820152606490fd5b6119479150883d8a116103e3576103d48183611409565b38611739565b600a546001600160a01b0316330361196157565b60405163118cdaa760e01b8152336004820152602490fd5b906119a0575080511561198e57805190602001fd5b604051630a12f52160e11b8152600490fd5b815115806119d3575b6119b1575090565b604051639996b31560e01b81526001600160a01b039091166004820152602490fd5b50803b156119a956fea2646970667358221220906259228b74759f518e4e887c05386e0a40620eb00f66fdb9be4757b3f7bf8764736f6c63430008190033","opcodes":"PUSH1 0x80 DUP1 PUSH1 0x40 MSTORE CALLVALUE PUSH1 0x8C JUMPI PUSH1 0x1 PUSH1 0x7 SSTORE PUSH1 0xFF NOT PUSH1 0x8 SLOAD AND PUSH1 0x8 SSTORE PUSH1 0x1 PUSH1 0x9 SSTORE CALLER ISZERO PUSH1 0x76 JUMPI PUSH1 0xA DUP1 SLOAD CALLER PUSH1 0x1 PUSH1 0x1 PUSH1 0xA0 SHL SUB NOT DUP3 AND DUP2 OR SWAP1 SWAP3 SSTORE PUSH1 0x40 MLOAD SWAP2 SWAP1 PUSH1 0x1 PUSH1 0x1 PUSH1 0xA0 SHL SUB AND PUSH32 0x8BE0079C531659141344CD1FD0A4F28419497F9722A3DAAFE3B4186F6B6457E0 PUSH1 0x0 DUP1 LOG3 PUSH2 0x1A12 SWAP1 DUP2 PUSH2 0x92 DUP3 CODECOPY RETURN JUMPDEST PUSH4 0x1E4FBDF7 PUSH1 0xE0 SHL DUP2 MSTORE PUSH1 0x0 PUSH1 0x4 DUP3 ADD MSTORE PUSH1 0x24 SWAP1 REVERT JUMPDEST PUSH1 0x0 DUP1 REVERT INVALID PUSH1 0x40 PUSH1 0x80 DUP2 MSTORE PUSH1 0x4 SWAP1 DUP2 CALLDATASIZE LT ISZERO PUSH2 0x15 JUMPI PUSH1 0x0 DUP1 REVERT JUMPDEST PUSH1 0x0 SWAP2 DUP3 CALLDATALOAD PUSH1 0xE0 SHR DUP1 PUSH4 0x2424ED3 EQ PUSH2 0xFBC JUMPI DUP1 PUSH4 0x8EC897D EQ PUSH2 0xFA0 JUMPI DUP1 PUSH4 0x12788619 EQ PUSH2 0x42D JUMPI DUP1 PUSH4 0x2E0F2625 EQ PUSH2 0xF7A JUMPI DUP1 PUSH4 0x2EDE6432 EQ PUSH2 0xECE JUMPI DUP1 PUSH4 0x30F50859 EQ PUSH2 0xEAF JUMPI DUP1 PUSH4 0x33360968 EQ PUSH2 0xDB4 JUMPI DUP1 PUSH4 0x33E1A223 EQ PUSH2 0xCC3 JUMPI DUP1 PUSH4 0x36B17E13 EQ PUSH2 0xC9C JUMPI DUP1 PUSH4 0x5C975ABB EQ PUSH2 0xC78 JUMPI DUP1 PUSH4 0x61D027B3 EQ PUSH2 0xC4F JUMPI DUP1 PUSH4 0x715018A6 EQ PUSH2 0xBEE JUMPI DUP1 PUSH4 0x7525E526 EQ PUSH2 0x826 JUMPI DUP1 PUSH4 0x79DBD798 EQ PUSH2 0x69F JUMPI DUP1 PUSH4 0x7C69FEBD EQ PUSH2 0x646 JUMPI DUP1 PUSH4 0x8DA5CB5B EQ PUSH2 0x61D JUMPI DUP1 PUSH4 0x9C41B42B EQ PUSH2 0x5D2 JUMPI DUP1 PUSH4 0xA27682EF EQ PUSH2 0x44C JUMPI DUP1 PUSH4 0xA53225C0 EQ PUSH2 0x1C1 JUMPI DUP1 PUSH4 0xA69C8FB2 EQ PUSH2 0x42D JUMPI DUP1 PUSH4 0xADAD6926 EQ PUSH2 0x29B JUMPI DUP1 PUSH4 0xCC48B947 EQ PUSH2 0x272 JUMPI DUP1 PUSH4 0xCE49A360 EQ PUSH2 0x1EE JUMPI DUP1 PUSH4 0xF00FE4FD EQ PUSH2 0x1C1 JUMPI PUSH4 0xF2FDE38B EQ PUSH2 0x134 JUMPI PUSH1 0x0 DUP1 REVERT JUMPDEST CALLVALUE PUSH2 0x1BD JUMPI PUSH1 0x20 CALLDATASIZE PUSH1 0x3 NOT ADD SLT PUSH2 0x1BD JUMPI PUSH2 0x14D PUSH2 0x142A JUMP JUMPDEST SWAP1 PUSH2 0x156 PUSH2 0x194D JUMP JUMPDEST PUSH1 0x1 PUSH1 0x1 PUSH1 0xA0 SHL SUB SWAP2 DUP3 AND SWAP3 DUP4 ISZERO PUSH2 0x1A7 JUMPI POP POP PUSH1 0xA DUP1 SLOAD PUSH1 0x1 PUSH1 0x1 PUSH1 0xA0 SHL SUB NOT DUP2 AND DUP5 OR SWAP1 SWAP2 SSTORE AND PUSH32 0x8BE0079C531659141344CD1FD0A4F28419497F9722A3DAAFE3B4186F6B6457E0 PUSH1 0x0 DUP1 LOG3 DUP1 RETURN JUMPDEST MLOAD PUSH4 0x1E4FBDF7 PUSH1 0xE0 SHL DUP2 MSTORE SWAP1 DUP2 ADD DUP5 SWAP1 MSTORE PUSH1 0x24 SWAP1 REVERT JUMPDEST DUP3 DUP1 REVERT JUMPDEST POP POP CALLVALUE PUSH2 0x1EA JUMPI DUP2 PUSH1 0x3 NOT CALLDATASIZE ADD SLT PUSH2 0x1EA JUMPI PUSH1 0x2 SLOAD SWAP1 MLOAD PUSH1 0x1 PUSH1 0x1 PUSH1 0xA0 SHL SUB SWAP1 SWAP2 AND DUP2 MSTORE PUSH1 0x20 SWAP1 RETURN JUMPDEST POP DUP1 REVERT JUMPDEST POP SWAP1 CALLVALUE PUSH2 0x1BD JUMPI PUSH1 0x20 CALLDATASIZE PUSH1 0x3 NOT ADD SLT PUSH2 0x1BD JUMPI PUSH2 0x209 PUSH2 0x194D JUMP JUMPDEST PUSH1 0x1 PUSH1 0x7 SLOAD LT PUSH2 0x21B JUMPI POP CALLDATALOAD PUSH1 0x7 SSTORE DUP1 RETURN JUMPDEST SWAP1 PUSH1 0x20 PUSH1 0x84 SWAP3 MLOAD SWAP2 PUSH3 0x461BCD PUSH1 0xE5 SHL DUP4 MSTORE DUP3 ADD MSTORE PUSH1 0x2B PUSH1 0x24 DUP3 ADD MSTORE PUSH32 0x7374616B696E6720696E646578206D7573742062652067726561746572206F72 PUSH1 0x44 DUP3 ADD MSTORE PUSH11 0x20657175616C20746F2031 PUSH1 0xA8 SHL PUSH1 0x64 DUP3 ADD MSTORE REVERT JUMPDEST POP POP CALLVALUE PUSH2 0x1EA JUMPI DUP2 PUSH1 0x3 NOT CALLDATASIZE ADD SLT PUSH2 0x1EA JUMPI PUSH1 0x5 SLOAD SWAP1 MLOAD PUSH1 0x1 PUSH1 0x1 PUSH1 0xA0 SHL SUB SWAP1 SWAP2 AND DUP2 MSTORE PUSH1 0x20 SWAP1 RETURN JUMPDEST POP CALLVALUE PUSH2 0x1BD JUMPI PUSH1 0x20 SWAP1 DUP2 PUSH1 0x3 NOT CALLDATASIZE ADD SLT PUSH2 0x3AD JUMPI DUP1 CALLDATALOAD SWAP1 PUSH2 0x2C1 PUSH1 0xFF PUSH1 0x8 SLOAD AND ISZERO PUSH2 0x14C1 JUMP JUMPDEST DUP2 DUP6 MSTORE DUP5 DUP4 MSTORE PUSH1 0x1 PUSH1 0xFF PUSH1 0x2 DUP7 DUP9 KECCAK256 ADD SLOAD AND ISZERO ISZERO SUB PUSH2 0x3F4 JUMPI PUSH1 0x2 SLOAD DUP5 MLOAD PUSH4 0x31A9108F PUSH1 0xE1 SHL DUP2 MSTORE DUP1 DUP4 ADD DUP5 SWAP1 MSTORE DUP7 SWAP3 PUSH1 0x1 PUSH1 0x1 PUSH1 0xA0 SHL SUB SWAP3 DUP4 AND SWAP3 SWAP1 SWAP2 SWAP1 DUP7 DUP3 PUSH1 0x24 DUP2 DUP8 GAS STATICCALL SWAP1 DUP2 ISZERO PUSH2 0x3EA JUMPI PUSH2 0x323 SWAP3 DUP7 SWAP3 PUSH2 0x3BB JUMPI JUMPDEST POP AND CALLER EQ PUSH2 0x165F JUMP JUMPDEST DUP2 EXTCODESIZE ISZERO PUSH2 0x1BD JUMPI DUP4 PUSH1 0x44 DUP5 SWAP3 DUP4 DUP10 MLOAD SWAP6 DUP7 SWAP5 DUP6 SWAP4 PUSH4 0x4D723A75 PUSH1 0xE0 SHL DUP6 MSTORE DUP5 ADD MSTORE DUP2 PUSH1 0x24 DUP5 ADD MSTORE GAS CALL DUP1 ISZERO PUSH2 0x3B1 JUMPI PUSH2 0x399 JUMPI JUMPDEST POP SWAP3 DUP2 PUSH32 0x5E530D2932A31001C9CDE048B350C93CE3FFEA36CF640E4473B8DA9E62AC1BB SWAP5 MSTORE DUP5 DUP4 MSTORE DUP5 PUSH1 0x2 DUP3 DUP3 KECCAK256 DUP3 DUP2 SSTORE DUP3 PUSH1 0x1 DUP3 ADD SSTORE ADD SSTORE MLOAD SWAP1 DUP2 MSTORE LOG1 DUP1 RETURN JUMPDEST PUSH2 0x3A2 SWAP1 PUSH2 0x13E0 JUMP JUMPDEST PUSH2 0x3AD JUMPI DUP4 CODESIZE PUSH2 0x357 JUMP JUMPDEST DUP4 DUP1 REVERT JUMPDEST DUP6 MLOAD RETURNDATASIZE DUP5 DUP3 RETURNDATACOPY RETURNDATASIZE SWAP1 REVERT JUMPDEST PUSH2 0x3DC SWAP2 SWAP3 POP DUP9 RETURNDATASIZE DUP11 GT PUSH2 0x3E3 JUMPI JUMPDEST PUSH2 0x3D4 DUP2 DUP4 PUSH2 0x1409 JUMP JUMPDEST DUP2 ADD SWAP1 PUSH2 0x1500 JUMP JUMPDEST SWAP1 CODESIZE PUSH2 0x31A JUMP JUMPDEST POP RETURNDATASIZE PUSH2 0x3CA JUMP JUMPDEST DUP9 MLOAD RETURNDATASIZE DUP8 DUP3 RETURNDATACOPY RETURNDATASIZE SWAP1 REVERT JUMPDEST DUP4 MLOAD PUSH3 0x461BCD PUSH1 0xE5 SHL DUP2 MSTORE SWAP1 DUP2 ADD DUP4 SWAP1 MSTORE PUSH1 0x13 PUSH1 0x24 DUP3 ADD MSTORE PUSH19 0x47656D206973206E6F7420666F722073616C65 PUSH1 0x68 SHL PUSH1 0x44 DUP3 ADD MSTORE PUSH1 0x64 SWAP1 REVERT JUMPDEST POP POP CALLVALUE PUSH2 0x1EA JUMPI DUP2 PUSH1 0x3 NOT CALLDATASIZE ADD SLT PUSH2 0x1EA JUMPI PUSH1 0x20 SWAP1 PUSH1 0x1 SLOAD SWAP1 MLOAD SWAP1 DUP2 MSTORE RETURN JUMPDEST POP DUP3 SWAP1 CALLVALUE PUSH2 0x1EA JUMPI PUSH1 0x20 DUP1 PUSH1 0x3 NOT CALLDATASIZE ADD SLT PUSH2 0x1BD JUMPI PUSH1 0x1 PUSH1 0x1 PUSH1 0x40 SHL SUB SWAP2 DUP1 CALLDATALOAD DUP4 DUP2 GT PUSH2 0x5CE JUMPI CALLDATASIZE PUSH1 0x23 DUP3 ADD SLT ISZERO PUSH2 0x5CE JUMPI DUP1 DUP3 ADD CALLDATALOAD SWAP1 PUSH2 0x498 PUSH2 0x48F DUP4 PUSH2 0x14A6 JUMP JUMPDEST SWAP8 MLOAD SWAP8 DUP9 PUSH2 0x1409 JUMP JUMPDEST DUP2 DUP8 MSTORE CALLDATASIZE PUSH1 0x24 DUP4 DUP4 ADD ADD GT PUSH2 0x5CA JUMPI DUP2 DUP7 SWAP3 PUSH1 0x24 DUP7 SWAP4 ADD DUP4 DUP11 ADD CALLDATACOPY DUP8 ADD ADD MSTORE PUSH2 0x4BF PUSH2 0x194D JUMP JUMPDEST DUP5 MLOAD SWAP3 DUP4 GT PUSH2 0x5B7 JUMPI POP PUSH2 0x4D4 PUSH1 0x6 SLOAD PUSH2 0x13A6 JUMP JUMPDEST PUSH1 0x1F DUP2 GT PUSH2 0x57B JUMPI JUMPDEST POP DUP1 PUSH1 0x1F DUP4 GT PUSH1 0x1 EQ PUSH2 0x518 JUMPI POP DUP3 SWAP4 DUP3 SWAP4 SWAP3 PUSH2 0x50D JUMPI JUMPDEST POP POP DUP2 PUSH1 0x1 SHL SWAP2 PUSH1 0x0 NOT SWAP1 PUSH1 0x3 SHL SHR NOT AND OR PUSH1 0x6 SSTORE DUP1 RETURN JUMPDEST ADD MLOAD SWAP1 POP DUP4 DUP1 PUSH2 0x4F5 JUMP JUMPDEST SWAP1 PUSH1 0x1F NOT DUP4 AND SWAP5 PUSH1 0x6 DUP6 MSTORE DUP3 DUP6 KECCAK256 SWAP3 DUP6 SWAP1 JUMPDEST DUP8 DUP3 LT PUSH2 0x563 JUMPI POP POP DUP4 PUSH1 0x1 SWAP6 SWAP7 LT PUSH2 0x54A JUMPI JUMPDEST POP POP POP DUP2 SHL ADD PUSH1 0x6 SSTORE DUP1 RETURN JUMPDEST ADD MLOAD PUSH1 0x0 NOT PUSH1 0xF8 DUP5 PUSH1 0x3 SHL AND SHR NOT AND SWAP1 SSTORE DUP4 DUP1 DUP1 PUSH2 0x53E JUMP JUMPDEST DUP1 PUSH1 0x1 DUP6 SWAP7 DUP3 SWAP5 SWAP7 DUP7 ADD MLOAD DUP2 SSTORE ADD SWAP6 ADD SWAP4 ADD SWAP1 PUSH2 0x52A JUMP JUMPDEST PUSH2 0x5A7 SWAP1 PUSH1 0x6 PUSH1 0x0 MSTORE DUP3 PUSH1 0x0 KECCAK256 PUSH1 0x1F DUP6 ADD PUSH1 0x5 SHR DUP2 ADD SWAP2 DUP5 DUP7 LT PUSH2 0x5AD JUMPI JUMPDEST PUSH1 0x1F ADD PUSH1 0x5 SHR ADD SWAP1 PUSH2 0x1606 JUMP JUMPDEST DUP5 PUSH2 0x4DD JUMP JUMPDEST SWAP1 SWAP2 POP DUP2 SWAP1 PUSH2 0x59A JUMP JUMPDEST PUSH4 0x4E487B71 PUSH1 0xE0 SHL DUP5 MSTORE PUSH1 0x41 SWAP1 MSTORE PUSH1 0x24 DUP4 REVERT JUMPDEST DUP6 DUP1 REVERT JUMPDEST DUP5 DUP1 REVERT JUMPDEST POP CALLVALUE PUSH2 0x1BD JUMPI PUSH1 0x20 CALLDATASIZE PUSH1 0x3 NOT ADD SLT PUSH2 0x1BD JUMPI PUSH1 0x60 SWAP3 DUP3 SWAP2 CALLDATALOAD DUP2 MSTORE DUP1 PUSH1 0x20 MSTORE KECCAK256 SWAP1 PUSH1 0x1 DUP1 PUSH1 0xA0 SHL SUB DUP3 SLOAD AND SWAP2 PUSH1 0xFF PUSH1 0x2 PUSH1 0x1 DUP4 ADD SLOAD SWAP3 ADD SLOAD AND SWAP1 DUP3 MLOAD SWAP4 DUP5 MSTORE PUSH1 0x20 DUP5 ADD MSTORE ISZERO ISZERO SWAP1 DUP3 ADD MSTORE RETURN JUMPDEST POP POP CALLVALUE PUSH2 0x1EA JUMPI DUP2 PUSH1 0x3 NOT CALLDATASIZE ADD SLT PUSH2 0x1EA JUMPI PUSH1 0xA SLOAD SWAP1 MLOAD PUSH1 0x1 PUSH1 0x1 PUSH1 0xA0 SHL SUB SWAP1 SWAP2 AND DUP2 MSTORE PUSH1 0x20 SWAP1 RETURN JUMPDEST POP CALLVALUE PUSH2 0x1BD JUMPI PUSH1 0x20 CALLDATASIZE PUSH1 0x3 NOT ADD SLT PUSH2 0x1BD JUMPI PUSH32 0x21A8EEFC17E9C864964B5A4C0769D87F39CC0A7576773159E12358BC0095FFC5 SWAP2 PUSH1 0x20 SWAP2 CALLDATALOAD SWAP1 PUSH2 0x687 PUSH2 0x194D JUMP JUMPDEST PUSH2 0x693 PUSH1 0x64 DUP4 LT PUSH2 0x15AE JUMP JUMPDEST DUP2 PUSH1 0x1 SSTORE MLOAD SWAP1 DUP2 MSTORE LOG1 DUP1 RETURN JUMPDEST POP CALLVALUE PUSH2 0x1BD JUMPI DUP2 PUSH1 0x3 NOT CALLDATASIZE ADD SLT PUSH2 0x1BD JUMPI PUSH1 0x1 PUSH1 0x1 PUSH1 0x40 SHL SUB SWAP2 DUP2 CALLDATALOAD DUP4 DUP2 GT PUSH2 0x5CE JUMPI PUSH2 0x6CF SWAP1 CALLDATASIZE SWAP1 DUP5 ADD PUSH2 0x1440 JUMP JUMPDEST SWAP1 PUSH1 0x24 SWAP4 PUSH1 0x24 CALLDATALOAD SWAP1 DUP2 GT PUSH2 0x5CA JUMPI PUSH2 0x6EA SWAP1 CALLDATASIZE SWAP1 DUP6 ADD PUSH2 0x1440 JUMP JUMPDEST SWAP3 PUSH2 0x6FA PUSH1 0xFF PUSH1 0x8 SLOAD AND ISZERO PUSH2 0x14C1 JUMP JUMPDEST DUP3 MLOAD ISZERO PUSH2 0x7F8 JUMPI DUP3 MLOAD DUP5 MLOAD SUB PUSH2 0x7C7 JUMPI DUP6 JUMPDEST DUP4 MLOAD DUP2 LT ISZERO PUSH2 0x7C3 JUMPI PUSH1 0x2 SLOAD PUSH1 0x1 PUSH1 0x1 PUSH1 0xA0 SHL SUB SWAP1 DUP2 AND SWAP1 PUSH2 0x72E DUP4 DUP8 PUSH2 0x1635 JUMP JUMPDEST MLOAD DUP6 MLOAD SWAP3 DUP4 SWAP2 PUSH4 0x20604BF PUSH1 0xE2 SHL DUP4 MSTORE DUP7 DUP4 ADD MSTORE DUP2 DUP11 PUSH1 0x20 SWAP6 DUP7 SWAP4 GAS STATICCALL SWAP3 DUP4 ISZERO PUSH2 0x7B9 JUMPI SWAP2 PUSH1 0x1 SWAP5 SWAP4 SWAP2 PUSH2 0x76D SWAP4 DUP13 SWAP4 PUSH2 0x79A JUMPI JUMPDEST POP POP AND ADDRESS EQ PUSH2 0x151F JUMP JUMPDEST PUSH2 0x794 PUSH2 0x78F PUSH2 0x77D DUP4 DUP9 PUSH2 0x1635 JUMP JUMPDEST MLOAD PUSH2 0x788 DUP5 DUP11 PUSH2 0x1635 JUMP JUMPDEST MLOAD SWAP1 PUSH2 0x16F1 JUMP JUMPDEST PUSH2 0x1565 JUMP JUMPDEST ADD PUSH2 0x70C JUMP JUMPDEST PUSH2 0x7B1 SWAP3 SWAP4 POP DUP1 RETURNDATASIZE LT PUSH2 0x3E3 JUMPI PUSH2 0x3D4 DUP2 DUP4 PUSH2 0x1409 JUMP JUMPDEST SWAP1 CODESIZE DUP1 PUSH2 0x763 JUMP JUMPDEST DUP7 MLOAD RETURNDATASIZE DUP13 DUP3 RETURNDATACOPY RETURNDATASIZE SWAP1 REVERT JUMPDEST DUP7 DUP1 RETURN JUMPDEST PUSH1 0x20 PUSH1 0x64 SWAP3 MLOAD SWAP2 PUSH3 0x461BCD PUSH1 0xE5 SHL DUP4 MSTORE DUP3 ADD MSTORE PUSH1 0xC PUSH1 0x24 DUP3 ADD MSTORE PUSH12 0xEEE4DEDCCE40D8CADCCEE8D PUSH1 0xA3 SHL PUSH1 0x44 DUP3 ADD MSTORE REVERT JUMPDEST PUSH1 0x20 PUSH1 0x64 SWAP3 MLOAD SWAP2 PUSH3 0x461BCD PUSH1 0xE5 SHL DUP4 MSTORE DUP3 ADD MSTORE PUSH1 0x9 PUSH1 0x24 DUP3 ADD MSTORE PUSH9 0x6E6F20746F6B656E73 PUSH1 0xB8 SHL PUSH1 0x44 DUP3 ADD MSTORE REVERT JUMPDEST POP SWAP2 SWAP1 CALLVALUE PUSH2 0x1EA JUMPI DUP2 PUSH1 0x3 NOT CALLDATASIZE ADD SLT PUSH2 0x1EA JUMPI PUSH1 0xFF SWAP2 PUSH2 0x84B PUSH1 0xFF PUSH1 0x8 SLOAD AND ISZERO PUSH2 0x14C1 JUMP JUMPDEST PUSH1 0x2 DUP1 SLOAD DUP4 MLOAD PUSH4 0xD55486D3 PUSH1 0xE0 SHL DUP2 MSTORE PUSH1 0x20 SWAP7 SWAP3 PUSH1 0x1 PUSH1 0x1 PUSH1 0xA0 SHL SUB SWAP3 SWAP1 SWAP2 SWAP1 DUP9 SWAP1 DUP3 SWAP1 DUP7 SWAP1 DUP3 SWAP1 DUP8 AND GAS STATICCALL SWAP1 DUP2 ISZERO PUSH2 0xBE4 JUMPI SWAP1 DUP9 SWAP5 SWAP4 SWAP3 SWAP2 DUP7 SWAP2 PUSH2 0xBB5 JUMPI JUMPDEST POP PUSH2 0x902 DUP7 DUP1 DUP6 DUP8 SLOAD AND SWAP4 PUSH2 0x8C1 PUSH2 0x8CF DUP9 PUSH1 0x3 SLOAD AND SWAP11 DUP14 MLOAD SWAP3 DUP4 SWAP2 DUP3 ADD SWAP5 PUSH4 0x23B872DD PUSH1 0xE0 SHL DUP7 MSTORE PUSH1 0x24 SWAP14 DUP15 CALLER SWAP1 DUP6 ADD PUSH2 0x16CF JUMP JUMPDEST SUB PUSH1 0x1F NOT DUP2 ADD DUP4 MSTORE DUP3 PUSH2 0x1409 JUMP JUMPDEST MLOAD SWAP1 DUP3 DUP7 GAS CALL RETURNDATASIZE ISZERO PUSH2 0xBAD JUMPI RETURNDATASIZE SWAP1 PUSH2 0x8E6 DUP3 PUSH2 0x14A6 JUMP JUMPDEST SWAP2 PUSH2 0x8F3 DUP12 MLOAD SWAP4 DUP5 PUSH2 0x1409 JUMP JUMPDEST DUP3 MSTORE RETURNDATASIZE DUP10 DUP14 DUP5 ADD RETURNDATACOPY JUMPDEST DUP4 PUSH2 0x1979 JUMP JUMPDEST DUP1 MLOAD SWAP1 DUP11 DUP3 ISZERO ISZERO SWAP3 DUP4 PUSH2 0xB94 JUMPI JUMPDEST POP POP POP PUSH2 0xB80 JUMPI POP DUP2 PUSH1 0x3 SLOAD AND SWAP1 DUP7 MLOAD SWAP8 DUP8 DUP10 ADD PUSH1 0x1 PUSH1 0x1 PUSH1 0x40 SHL SUB SWAP1 DUP11 DUP2 LT DUP3 DUP3 GT OR PUSH2 0xB6C JUMPI DUP10 MSTORE DUP8 DUP11 MSTORE DUP8 DUP12 DUP12 ADD MSTORE DUP9 MLOAD SWAP1 PUSH1 0x80 DUP3 ADD SWAP1 DUP3 DUP3 LT SWAP1 DUP3 GT OR PUSH2 0xB6C JUMPI SWAP1 DUP12 SWAP5 SWAP3 DUP10 SWAP3 DUP12 SWAP13 SWAP6 SWAP13 MSTORE PUSH1 0x1 SWAP2 DUP3 DUP2 MSTORE DUP3 DUP8 DUP3 ADD MSTORE DUP3 DUP13 DUP3 ADD MSTORE DUP3 PUSH1 0x60 DUP3 ADD MSTORE DUP12 MLOAD SWAP13 DUP14 SWAP7 PUSH4 0x912B431B PUSH1 0xE0 SHL DUP9 MSTORE DUP6 DUP12 DUP10 ADD MSTORE DUP12 DUP9 ADD SWAP1 DUP7 SWAP2 JUMPDEST DUP4 DUP4 LT PUSH2 0xB42 JUMPI POP POP POP POP PUSH1 0x64 DUP7 ADD SWAP1 DUP5 SWAP2 JUMPDEST DUP11 DUP4 LT PUSH2 0xB26 JUMPI POP POP PUSH2 0x100 PUSH1 0xE4 DUP8 ADD MSTORE POP POP PUSH1 0x6 SLOAD DUP3 SWAP2 PUSH2 0x9C5 DUP3 PUSH2 0x13A6 JUMP JUMPDEST SWAP1 DUP2 PUSH2 0x104 DUP9 ADD MSTORE PUSH2 0x124 SWAP3 DUP8 DUP3 DUP3 AND SWAP2 DUP3 PUSH1 0x0 EQ PUSH2 0xB05 JUMPI POP POP PUSH1 0x1 EQ PUSH2 0xAC4 JUMPI JUMPDEST POP POP POP SWAP1 DUP4 DUP1 SWAP3 SUB SWAP3 GAS CALL SWAP6 DUP7 ISZERO PUSH2 0xABA JUMPI SWAP1 DUP8 SWAP4 SWAP3 SWAP2 DUP6 SWAP8 PUSH2 0xA7B JUMPI JUMPDEST POP DUP5 SWAP4 SWAP3 SWAP2 DUP8 SWAP6 PUSH1 0x44 SWAP3 PUSH1 0x3 SLOAD AND DUP9 MLOAD SWAP8 DUP9 SWAP6 DUP7 SWAP5 PUSH4 0x48DBCEF PUSH1 0xE4 SHL DUP7 MSTORE CALLER SWAP1 DUP7 ADD MSTORE DUP5 ADD MSTORE GAS CALL SWAP1 DUP2 ISZERO PUSH2 0xA70 JUMPI POP PUSH2 0xA43 JUMPI JUMPDEST POP MLOAD SWAP1 DUP2 MSTORE RETURN JUMPDEST PUSH2 0xA62 SWAP1 DUP5 RETURNDATASIZE DUP7 GT PUSH2 0xA69 JUMPI JUMPDEST PUSH2 0xA5A DUP2 DUP4 PUSH2 0x1409 JUMP JUMPDEST DUP2 ADD SWAP1 PUSH2 0x161D JUMP JUMPDEST POP CODESIZE PUSH2 0xA3C JUMP JUMPDEST POP RETURNDATASIZE PUSH2 0xA50 JUMP JUMPDEST DUP4 MLOAD SWAP1 RETURNDATASIZE SWAP1 DUP3 RETURNDATACOPY RETURNDATASIZE SWAP1 REVERT JUMPDEST DUP5 DUP2 SWAP6 SWAP3 SWAP7 SWAP9 POP SWAP4 SWAP3 SWAP4 RETURNDATASIZE DUP4 GT PUSH2 0xAB3 JUMPI JUMPDEST PUSH2 0xA97 DUP2 DUP4 PUSH2 0x1409 JUMP JUMPDEST DUP2 ADD SUB SLT PUSH2 0xAAE JUMPI SWAP2 MLOAD SWAP5 SWAP3 DUP7 SWAP3 SWAP2 SWAP1 PUSH1 0x44 PUSH2 0xA06 JUMP JUMPDEST PUSH1 0x0 DUP1 REVERT JUMPDEST POP RETURNDATASIZE PUSH2 0xA8D JUMP JUMPDEST DUP6 MLOAD RETURNDATASIZE DUP7 DUP3 RETURNDATACOPY RETURNDATASIZE SWAP1 REVERT JUMPDEST SWAP2 SWAP3 POP PUSH1 0x6 DUP5 MSTORE DUP7 DUP5 KECCAK256 SWAP2 DUP8 DUP6 SWAP4 JUMPDEST DUP4 DUP6 LT PUSH2 0xAE9 JUMPI POP POP POP POP DUP5 ADD ADD DUP4 DUP1 CODESIZE PUSH2 0x9E8 JUMP JUMPDEST DUP1 SLOAD SWAP9 DUP6 ADD DUP7 ADD SWAP9 SWAP1 SWAP9 MSTORE DUP15 SWAP8 DUP14 SWAP7 POP SWAP4 ADD SWAP3 DUP9 SWAP1 DUP3 ADD PUSH2 0xAD3 JUMP JUMPDEST PUSH1 0xFF NOT AND DUP6 DUP3 ADD MSTORE SWAP3 ISZERO ISZERO PUSH1 0x5 SHL DUP4 ADD SWAP1 SWAP4 ADD SWAP4 POP SWAP1 SWAP2 POP DUP2 SWAP1 POP CODESIZE PUSH2 0x9E8 JUMP JUMPDEST DUP2 MLOAD DUP5 AND DUP2 MSTORE DUP16 SWAP9 DUP16 SWAP9 POP DUP14 SWAP7 POP SWAP3 DUP6 ADD SWAP3 SWAP2 DUP3 ADD SWAP2 ADD PUSH2 0x9A4 JUMP JUMPDEST DUP7 SWAP10 POP DUP2 SWAP5 SWAP8 POP DUP6 DUP12 SWAP4 SWAP7 SWAP10 SWAP12 SWAP3 SWAP8 SWAP5 SWAP8 MLOAD AND DUP2 MSTORE ADD SWAP3 ADD SWAP3 ADD SWAP3 DUP14 SWAP7 SWAP4 DUP16 SWAP9 SWAP7 SWAP4 DUP14 SWAP7 SWAP4 PUSH2 0x991 JUMP JUMPDEST DUP8 PUSH1 0x41 DUP9 PUSH4 0x4E487B71 PUSH1 0xE0 SHL PUSH1 0x0 MSTORE MSTORE PUSH1 0x0 REVERT JUMPDEST DUP7 MLOAD PUSH4 0x5274AFE7 PUSH1 0xE0 SHL DUP2 MSTORE SWAP4 DUP5 ADD MSTORE POP POP REVERT JUMPDEST PUSH2 0xBA4 SWAP4 POP DUP3 ADD DUP2 ADD SWAP2 ADD PUSH2 0x161D JUMP JUMPDEST ISZERO CODESIZE DUP11 DUP2 PUSH2 0x910 JUMP JUMPDEST PUSH1 0x60 SWAP1 PUSH2 0x8FC JUMP JUMPDEST DUP6 DUP2 SWAP7 SWAP3 POP RETURNDATASIZE DUP4 GT PUSH2 0xBDD JUMPI JUMPDEST PUSH2 0xBCC DUP2 DUP4 PUSH2 0x1409 JUMP JUMPDEST DUP2 ADD SUB SLT PUSH2 0xAAE JUMPI DUP8 SWAP4 MLOAD CODESIZE PUSH2 0x88B JUMP JUMPDEST POP RETURNDATASIZE PUSH2 0xBC2 JUMP JUMPDEST DUP7 MLOAD RETURNDATASIZE DUP8 DUP3 RETURNDATACOPY RETURNDATASIZE SWAP1 REVERT JUMPDEST DUP4 CALLVALUE PUSH2 0xC4C JUMPI DUP1 PUSH1 0x3 NOT CALLDATASIZE ADD SLT PUSH2 0xC4C JUMPI PUSH2 0xC07 PUSH2 0x194D JUMP JUMPDEST PUSH1 0xA DUP1 SLOAD PUSH1 0x1 PUSH1 0x1 PUSH1 0xA0 SHL SUB NOT DUP2 AND SWAP1 SWAP2 SSTORE PUSH1 0x0 SWAP1 PUSH1 0x1 PUSH1 0x1 PUSH1 0xA0 SHL SUB AND PUSH32 0x8BE0079C531659141344CD1FD0A4F28419497F9722A3DAAFE3B4186F6B6457E0 DUP3 DUP1 LOG3 DUP1 RETURN JUMPDEST DUP1 REVERT JUMPDEST POP POP CALLVALUE PUSH2 0x1EA JUMPI DUP2 PUSH1 0x3 NOT CALLDATASIZE ADD SLT PUSH2 0x1EA JUMPI PUSH1 0x3 SLOAD SWAP1 MLOAD PUSH1 0x1 PUSH1 0x1 PUSH1 0xA0 SHL SUB SWAP1 SWAP2 AND DUP2 MSTORE PUSH1 0x20 SWAP1 RETURN JUMPDEST POP POP CALLVALUE PUSH2 0x1EA JUMPI DUP2 PUSH1 0x3 NOT CALLDATASIZE ADD SLT PUSH2 0x1EA JUMPI PUSH1 0x20 SWAP1 PUSH1 0xFF PUSH1 0x8 SLOAD AND SWAP1 MLOAD SWAP1 ISZERO ISZERO DUP2 MSTORE RETURN JUMPDEST POP CALLVALUE PUSH2 0x1BD JUMPI DUP3 PUSH1 0x3 NOT CALLDATASIZE ADD SLT PUSH2 0x1BD JUMPI SLOAD SWAP1 MLOAD PUSH1 0x1 PUSH1 0x1 PUSH1 0xA0 SHL SUB SWAP1 SWAP2 AND DUP2 MSTORE PUSH1 0x20 SWAP2 POP RETURN JUMPDEST DUP4 DUP3 CALLVALUE PUSH2 0x1EA JUMPI PUSH1 0xA0 CALLDATASIZE PUSH1 0x3 NOT ADD SLT PUSH2 0x1EA JUMPI PUSH2 0xCDE PUSH2 0x142A JUMP JUMPDEST PUSH1 0x1 PUSH1 0x1 PUSH1 0xA0 SHL SUB SWAP2 PUSH1 0x24 CALLDATALOAD DUP4 DUP2 AND SWAP3 SWAP1 DUP4 SWAP1 SUB PUSH2 0xAAE JUMPI PUSH1 0x44 CALLDATALOAD SWAP4 PUSH1 0x64 CALLDATALOAD SWAP2 DUP2 DUP4 AND DUP1 SWAP4 SUB PUSH2 0xAAE JUMPI PUSH1 0x84 CALLDATALOAD SWAP6 DUP3 DUP8 AND DUP1 SWAP8 SUB PUSH2 0xAAE JUMPI PUSH2 0xD1E PUSH2 0x194D JUMP JUMPDEST PUSH2 0xD2A PUSH1 0x64 DUP3 LT PUSH2 0x15AE JUMP JUMPDEST PUSH1 0x1 SSTORE PUSH1 0x1 DUP1 PUSH1 0xA0 SHL SUB NOT SWAP5 DUP6 PUSH1 0x2 SLOAD AND OR PUSH1 0x2 SSTORE AND DUP4 PUSH1 0x3 SLOAD AND OR PUSH1 0x3 SSTORE DUP3 DUP3 SLOAD AND OR SWAP1 SSTORE PUSH1 0x5 SLOAD AND OR PUSH1 0x5 SSTORE PUSH2 0xD63 PUSH1 0x6 SLOAD PUSH2 0x13A6 JUMP JUMPDEST PUSH1 0x1F DUP2 GT PUSH2 0xD75 JUMPI JUMPDEST POP PUSH1 0x0 PUSH1 0x6 SSTORE DUP1 RETURN JUMPDEST PUSH1 0x6 PUSH1 0x0 MSTORE PUSH2 0xDAE SWAP1 PUSH1 0x1F ADD PUSH1 0x5 SHR PUSH32 0xF652222313E28459528D920B65115C16C04F3EFC82AAEDC97BE59F3F377C0D3F SWAP1 DUP2 ADD SWAP1 PUSH2 0x1606 JUMP JUMPDEST DUP2 PUSH2 0xD6C JUMP JUMPDEST POP POP CALLVALUE PUSH2 0x1EA JUMPI DUP2 PUSH1 0x3 NOT CALLDATASIZE ADD SLT PUSH2 0x1EA JUMPI DUP1 MLOAD DUP3 PUSH1 0x6 SLOAD DUP3 PUSH2 0xDD6 DUP3 PUSH2 0x13A6 JUMP JUMPDEST SWAP6 DUP7 DUP3 MSTORE PUSH1 0x20 SWAP7 DUP8 SWAP4 PUSH1 0x1 SWAP1 PUSH1 0x1 DUP2 AND SWAP1 DUP2 PUSH1 0x0 EQ PUSH2 0xE8E JUMPI POP PUSH1 0x1 EQ PUSH2 0xE50 JUMPI JUMPDEST POP POP PUSH2 0xE0A SWAP3 POP SWAP6 SWAP4 SWAP3 SWAP6 SUB DUP3 PUSH2 0x1409 JUMP JUMPDEST DUP3 MLOAD SWAP4 DUP3 DUP6 SWAP4 DUP5 MSTORE DUP3 MLOAD SWAP3 DUP4 DUP3 DUP7 ADD MSTORE DUP3 JUMPDEST DUP5 DUP2 LT PUSH2 0xE3A JUMPI POP POP POP DUP3 DUP3 ADD DUP5 ADD MSTORE PUSH1 0x1F ADD PUSH1 0x1F NOT AND DUP2 ADD SUB ADD SWAP1 RETURN JUMPDEST DUP2 DUP2 ADD DUP4 ADD MLOAD DUP9 DUP3 ADD DUP9 ADD MSTORE DUP8 SWAP6 POP DUP3 ADD PUSH2 0xE1C JUMP JUMPDEST PUSH1 0x6 DUP7 MSTORE DUP5 DUP7 KECCAK256 SWAP5 SWAP3 POP DUP6 SWAP2 SWAP1 JUMPDEST DUP2 DUP4 LT PUSH2 0xE76 JUMPI POP DUP9 SWAP5 POP POP DUP3 ADD ADD PUSH2 0xE0A CODESIZE PUSH2 0xDF8 JUMP JUMPDEST DUP6 SLOAD DUP9 DUP5 ADD DUP6 ADD MSTORE SWAP5 DUP6 ADD SWAP5 DUP8 SWAP5 POP SWAP2 DUP4 ADD SWAP2 PUSH2 0xE5E JUMP JUMPDEST SWAP2 POP POP PUSH2 0xE0A SWAP5 SWAP3 POP PUSH1 0xFF NOT AND DUP3 DUP5 ADD MSTORE ISZERO ISZERO PUSH1 0x5 SHL DUP3 ADD ADD DUP7 SWAP3 CODESIZE PUSH2 0xDF8 JUMP JUMPDEST POP POP CALLVALUE PUSH2 0x1EA JUMPI DUP2 PUSH1 0x3 NOT CALLDATASIZE ADD SLT PUSH2 0x1EA JUMPI PUSH1 0x20 SWAP1 PUSH1 0x7 SLOAD SWAP1 MLOAD SWAP1 DUP2 MSTORE RETURN JUMPDEST POP SWAP1 CALLVALUE PUSH2 0x1BD JUMPI DUP1 PUSH1 0x3 NOT CALLDATASIZE ADD SLT PUSH2 0x1BD JUMPI DUP2 CALLDATALOAD SWAP2 PUSH2 0xEF2 PUSH1 0xFF PUSH1 0x8 SLOAD AND ISZERO PUSH2 0x14C1 JUMP JUMPDEST PUSH1 0x2 SLOAD DUP3 MLOAD PUSH4 0x20604BF PUSH1 0xE2 SHL DUP2 MSTORE SWAP2 DUP3 ADD DUP5 SWAP1 MSTORE PUSH1 0x1 PUSH1 0x1 PUSH1 0xA0 SHL SUB SWAP2 SWAP1 PUSH1 0x20 SWAP1 DUP3 SWAP1 PUSH1 0x24 SWAP1 DUP3 SWAP1 DUP7 AND GAS STATICCALL SWAP3 DUP4 ISZERO PUSH2 0xF71 JUMPI POP PUSH2 0x78F SWAP3 PUSH2 0xF4D SWAP5 SWAP3 PUSH2 0xF44 SWAP3 DUP8 SWAP3 PUSH2 0xF50 JUMPI JUMPDEST POP AND ADDRESS EQ PUSH2 0x151F JUMP JUMPDEST PUSH1 0x24 CALLDATALOAD SWAP1 PUSH2 0x16F1 JUMP JUMPDEST DUP1 RETURN JUMPDEST PUSH2 0xF6A SWAP2 SWAP3 POP PUSH1 0x20 RETURNDATASIZE PUSH1 0x20 GT PUSH2 0x3E3 JUMPI PUSH2 0x3D4 DUP2 DUP4 PUSH2 0x1409 JUMP JUMPDEST SWAP1 CODESIZE PUSH2 0xF3B JUMP JUMPDEST MLOAD RETURNDATASIZE DUP7 DUP3 RETURNDATACOPY RETURNDATASIZE SWAP1 REVERT JUMPDEST POP POP CALLVALUE PUSH2 0x1EA JUMPI DUP2 PUSH1 0x3 NOT CALLDATASIZE ADD SLT PUSH2 0x1EA JUMPI MLOAD PUSH8 0x6765C793FA10079D PUSH1 0x1B SHL DUP2 MSTORE PUSH1 0x20 SWAP1 RETURN JUMPDEST POP POP CALLVALUE PUSH2 0x1EA JUMPI DUP2 PUSH1 0x3 NOT CALLDATASIZE ADD SLT PUSH2 0x1EA JUMPI PUSH1 0x20 SWAP1 MLOAD PUSH1 0x64 DUP2 MSTORE RETURN JUMPDEST POP CALLVALUE PUSH2 0x1BD JUMPI DUP2 PUSH1 0x3 NOT CALLDATASIZE ADD SLT PUSH2 0x1BD JUMPI DUP1 CALLDATALOAD SWAP1 PUSH1 0x24 DUP1 CALLDATALOAD SWAP1 DUP2 ISZERO ISZERO DUP3 SUB PUSH2 0x5CA JUMPI PUSH2 0xFED PUSH1 0xFF PUSH1 0x8 SLOAD AND ISZERO PUSH2 0x14C1 JUMP JUMPDEST PUSH1 0x2 SWAP3 DUP4 PUSH1 0x9 SLOAD EQ PUSH2 0x1398 JUMPI DUP4 PUSH1 0x9 SSTORE CALLER ISZERO PUSH2 0x1368 JUMPI DUP5 DUP8 MSTORE PUSH1 0x20 SWAP2 DUP8 DUP4 MSTORE PUSH1 0xFF DUP6 DUP9 DUP11 KECCAK256 ADD SLOAD AND ISZERO PUSH2 0x1339 JUMPI DUP6 DUP9 MSTORE DUP8 DUP4 MSTORE PUSH1 0x1 DUP8 DUP10 KECCAK256 ADD SLOAD SWAP5 DUP6 ISZERO PUSH2 0x130A JUMPI DUP7 DUP10 MSTORE DUP9 DUP5 MSTORE DUP8 DUP10 KECCAK256 SLOAD PUSH1 0x1 PUSH1 0x1 PUSH1 0xA0 SHL SUB SWAP1 DUP2 AND SWAP6 SWAP1 SWAP3 SWAP1 DUP7 ISZERO PUSH2 0x12D9 JUMPI DUP11 SWAP2 SWAP1 ISZERO PUSH2 0x11CB JUMPI PUSH2 0x107E DUP7 DUP10 DUP13 DUP11 DUP7 DUP11 DUP11 DUP2 SLOAD AND SWAP4 MLOAD SWAP7 DUP8 SWAP6 DUP7 SWAP5 DUP6 SWAP4 PUSH4 0x23B872DD PUSH1 0xE0 SHL DUP6 MSTORE CALLER SWAP1 DUP6 ADD PUSH2 0x16CF JUMP JUMPDEST SUB SWAP3 GAS CALL DUP1 ISZERO PUSH2 0x11C1 JUMPI PUSH2 0x11A4 JUMPI JUMPDEST POP JUMPDEST DUP9 DUP3 MSTORE DUP2 DUP7 MSTORE DUP10 DUP3 KECCAK256 DUP4 ADD DUP1 SLOAD PUSH1 0xFF NOT AND SWAP1 SSTORE DUP3 SLOAD DUP5 AND SWAP1 DUP2 EXTCODESIZE ISZERO PUSH2 0x1BD JUMPI PUSH1 0x44 DUP11 DUP5 DUP1 SWAP5 DUP15 MLOAD SWAP7 DUP8 SWAP6 DUP7 SWAP5 PUSH4 0x4D723A75 PUSH1 0xE0 SHL DUP7 MSTORE DUP13 DUP7 ADD MSTORE DUP5 ADD MSTORE GAS CALL DUP1 ISZERO PUSH2 0x119A JUMPI PUSH2 0x1183 JUMPI JUMPDEST POP SLOAD DUP9 SWAP3 SWAP2 AND DUP1 EXTCODESIZE ISZERO PUSH2 0x1BD JUMPI DUP7 DUP4 SWAP2 PUSH2 0x110A SWAP4 DUP4 DUP12 MLOAD DUP1 SWAP7 DUP2 SWAP6 DUP3 SWAP5 PUSH4 0x23B872DD PUSH1 0xE0 SHL DUP5 MSTORE DUP13 CALLER SWAP2 DUP6 ADD PUSH2 0x16CF JUMP JUMPDEST SUB SWAP3 GAS CALL DUP1 ISZERO PUSH2 0x1179 JUMPI PUSH2 0x115D JUMPI JUMPDEST POP PUSH32 0x429A311C86D807D248190C8540973D38711C40CABAD4C6266EF4B9A7AE6CDC3C PUSH1 0x80 DUP7 DUP7 DUP7 DUP11 DUP8 DUP2 MLOAD SWAP5 DUP6 MSTORE CALLER SWAP1 DUP6 ADD MSTORE DUP4 ADD MSTORE PUSH1 0x60 DUP3 ADD MSTORE LOG1 PUSH1 0x1 PUSH1 0x9 SSTORE DUP1 RETURN JUMPDEST PUSH2 0x116B SWAP1 SWAP6 SWAP5 SWAP4 SWAP3 SWAP6 PUSH2 0x13E0 JUMP JUMPDEST PUSH2 0x5CA JUMPI SWAP1 SWAP2 SWAP3 DUP6 CODESIZE PUSH2 0x1119 JUMP JUMPDEST DUP8 MLOAD RETURNDATASIZE DUP5 DUP3 RETURNDATACOPY RETURNDATASIZE SWAP1 REVERT JUMPDEST PUSH2 0x1191 SWAP1 SWAP10 SWAP2 SWAP4 SWAP3 SWAP10 PUSH2 0x13E0 JUMP JUMPDEST SWAP8 SWAP1 SWAP2 CODESIZE PUSH2 0x10D9 JUMP JUMPDEST DUP10 MLOAD RETURNDATASIZE DUP13 DUP3 RETURNDATACOPY RETURNDATASIZE SWAP1 REVERT JUMPDEST PUSH2 0x11BA SWAP1 DUP8 RETURNDATASIZE DUP10 GT PUSH2 0xA69 JUMPI PUSH2 0xA5A DUP2 DUP4 PUSH2 0x1409 JUMP JUMPDEST POP CODESIZE PUSH2 0x108D JUMP JUMPDEST DUP12 MLOAD RETURNDATASIZE DUP6 DUP3 RETURNDATACOPY RETURNDATASIZE SWAP1 REVERT JUMPDEST SWAP1 POP PUSH8 0x6765C793FA10079D PUSH1 0x1B SHL PUSH2 0x11E5 PUSH1 0x7 SLOAD DUP10 PUSH2 0x16A6 JUMP JUMPDEST DIV PUSH1 0x64 PUSH2 0x11F4 PUSH1 0x1 SLOAD DUP4 PUSH2 0x16A6 JUMP JUMPDEST DIV DUP2 ADD DUP1 SWAP2 GT PUSH2 0x12C7 JUMPI SWAP1 PUSH2 0x1236 DUP12 SWAP3 DUP12 DUP9 DUP9 DUP9 PUSH1 0x5 SLOAD AND DUP10 PUSH1 0x3 SLOAD AND DUP9 DUP6 MLOAD DUP1 SWAP9 DUP2 SWAP6 DUP3 SWAP5 PUSH4 0x3B9ACA00 PUSH4 0x23B872DD PUSH1 0xE0 SHL SWAP12 DUP13 DUP7 MSTORE DIV SWAP2 CALLER SWAP1 DUP6 ADD PUSH2 0x16CF JUMP JUMPDEST SUB SWAP3 GAS CALL SWAP2 DUP3 ISZERO PUSH2 0x12BD JUMPI DUP9 DUP7 DUP14 SWAP3 DUP14 SWAP7 DUP14 SWAP7 PUSH2 0x12A0 JUMPI JUMPDEST POP PUSH2 0x126E DUP12 DUP5 SLOAD AND SWAP5 DUP13 PUSH1 0x3 SLOAD AND SWAP7 MLOAD SWAP9 DUP10 SWAP8 DUP9 SWAP7 DUP8 SWAP6 DUP7 MSTORE DUP6 ADD PUSH2 0x16CF JUMP JUMPDEST SUB SWAP3 GAS CALL DUP1 ISZERO PUSH2 0x11C1 JUMPI PUSH2 0x1283 JUMPI JUMPDEST POP PUSH2 0x108F JUMP JUMPDEST PUSH2 0x1299 SWAP1 DUP8 RETURNDATASIZE DUP10 GT PUSH2 0xA69 JUMPI PUSH2 0xA5A DUP2 DUP4 PUSH2 0x1409 JUMP JUMPDEST POP CODESIZE PUSH2 0x127D JUMP JUMPDEST PUSH2 0x12B6 SWAP1 DUP8 RETURNDATASIZE DUP10 GT PUSH2 0xA69 JUMPI PUSH2 0xA5A DUP2 DUP4 PUSH2 0x1409 JUMP JUMPDEST POP CODESIZE PUSH2 0x124E JUMP JUMPDEST DUP2 MLOAD RETURNDATASIZE DUP8 DUP3 RETURNDATACOPY RETURNDATASIZE SWAP1 REVERT JUMPDEST POP PUSH4 0x4E487B71 PUSH1 0xE0 SHL DUP11 MSTORE PUSH1 0x11 DUP5 MSTORE DUP10 REVERT JUMPDEST DUP10 MLOAD PUSH3 0x461BCD PUSH1 0xE5 SHL DUP2 MSTORE DUP1 DUP7 ADD DUP8 SWAP1 MSTORE PUSH1 0xC DUP2 DUP5 ADD MSTORE PUSH12 0x3BB937B7339039B2B63632B9 PUSH1 0xA1 SHL PUSH1 0x44 DUP3 ADD MSTORE PUSH1 0x64 SWAP1 REVERT JUMPDEST POP PUSH1 0xB SWAP1 PUSH1 0x64 SWAP4 DUP9 MLOAD SWAP4 PUSH3 0x461BCD PUSH1 0xE5 SHL DUP6 MSTORE DUP5 ADD MSTORE DUP3 ADD MSTORE PUSH11 0x77726F6E67207072696365 PUSH1 0xA8 SHL PUSH1 0x44 DUP3 ADD MSTORE REVERT JUMPDEST PUSH1 0xC SWAP1 PUSH1 0x64 SWAP4 DUP9 MLOAD SWAP4 PUSH3 0x461BCD PUSH1 0xE5 SHL DUP6 MSTORE DUP5 ADD MSTORE DUP3 ADD MSTORE PUSH12 0x6E6F7420666F722073616C65 PUSH1 0xA0 SHL PUSH1 0x44 DUP3 ADD MSTORE REVERT JUMPDEST PUSH1 0xC PUSH1 0x64 SWAP3 PUSH1 0x20 DUP9 MLOAD SWAP4 PUSH3 0x461BCD PUSH1 0xE5 SHL DUP6 MSTORE DUP5 ADD MSTORE DUP3 ADD MSTORE PUSH12 0x7A65726F2061646472657373 PUSH1 0xA0 SHL PUSH1 0x44 DUP3 ADD MSTORE REVERT JUMPDEST DUP6 MLOAD PUSH4 0x3EE5AEB5 PUSH1 0xE0 SHL DUP2 MSTORE REVERT JUMPDEST SWAP1 PUSH1 0x1 DUP3 DUP2 SHR SWAP3 AND DUP1 ISZERO PUSH2 0x13D6 JUMPI JUMPDEST PUSH1 0x20 DUP4 LT EQ PUSH2 0x13C0 JUMPI JUMP JUMPDEST PUSH4 0x4E487B71 PUSH1 0xE0 SHL PUSH1 0x0 MSTORE PUSH1 0x22 PUSH1 0x4 MSTORE PUSH1 0x24 PUSH1 0x0 REVERT JUMPDEST SWAP2 PUSH1 0x7F AND SWAP2 PUSH2 0x13B5 JUMP JUMPDEST PUSH1 0x1 PUSH1 0x1 PUSH1 0x40 SHL SUB DUP2 GT PUSH2 0x13F3 JUMPI PUSH1 0x40 MSTORE JUMP JUMPDEST PUSH4 0x4E487B71 PUSH1 0xE0 SHL PUSH1 0x0 MSTORE PUSH1 0x41 PUSH1 0x4 MSTORE PUSH1 0x24 PUSH1 0x0 REVERT JUMPDEST SWAP1 PUSH1 0x1F DUP1 NOT SWAP2 ADD AND DUP2 ADD SWAP1 DUP2 LT PUSH1 0x1 PUSH1 0x1 PUSH1 0x40 SHL SUB DUP3 GT OR PUSH2 0x13F3 JUMPI PUSH1 0x40 MSTORE JUMP JUMPDEST PUSH1 0x4 CALLDATALOAD SWAP1 PUSH1 0x1 PUSH1 0x1 PUSH1 0xA0 SHL SUB DUP3 AND DUP3 SUB PUSH2 0xAAE JUMPI JUMP JUMPDEST DUP2 PUSH1 0x1F DUP3 ADD SLT ISZERO PUSH2 0xAAE JUMPI DUP1 CALLDATALOAD SWAP2 PUSH1 0x20 SWAP2 PUSH1 0x1 PUSH1 0x1 PUSH1 0x40 SHL SUB DUP5 GT PUSH2 0x13F3 JUMPI DUP4 PUSH1 0x5 SHL SWAP1 PUSH1 0x40 MLOAD SWAP5 PUSH2 0x1474 DUP6 DUP5 ADD DUP8 PUSH2 0x1409 JUMP JUMPDEST DUP6 MSTORE DUP4 DUP1 DUP7 ADD SWAP3 DUP3 ADD ADD SWAP3 DUP4 GT PUSH2 0xAAE JUMPI DUP4 ADD SWAP1 JUMPDEST DUP3 DUP3 LT PUSH2 0x1497 JUMPI POP POP POP POP SWAP1 JUMP JUMPDEST DUP2 CALLDATALOAD DUP2 MSTORE SWAP1 DUP4 ADD SWAP1 DUP4 ADD PUSH2 0x1489 JUMP JUMPDEST PUSH1 0x1 PUSH1 0x1 PUSH1 0x40 SHL SUB DUP2 GT PUSH2 0x13F3 JUMPI PUSH1 0x1F ADD PUSH1 0x1F NOT AND PUSH1 0x20 ADD SWAP1 JUMP JUMPDEST ISZERO PUSH2 0x14C8 JUMPI JUMP JUMPDEST PUSH1 0x40 MLOAD PUSH3 0x461BCD PUSH1 0xE5 SHL DUP2 MSTORE PUSH1 0x20 PUSH1 0x4 DUP3 ADD MSTORE PUSH1 0x10 PUSH1 0x24 DUP3 ADD MSTORE PUSH16 0x14185D5CD8589B194E881C185D5CD959 PUSH1 0x82 SHL PUSH1 0x44 DUP3 ADD MSTORE PUSH1 0x64 SWAP1 REVERT JUMPDEST SWAP1 DUP2 PUSH1 0x20 SWAP2 SUB SLT PUSH2 0xAAE JUMPI MLOAD PUSH1 0x1 PUSH1 0x1 PUSH1 0xA0 SHL SUB DUP2 AND DUP2 SUB PUSH2 0xAAE JUMPI SWAP1 JUMP JUMPDEST ISZERO PUSH2 0x1526 JUMPI JUMP JUMPDEST PUSH1 0x40 MLOAD PUSH3 0x461BCD PUSH1 0xE5 SHL DUP2 MSTORE PUSH1 0x20 PUSH1 0x4 DUP3 ADD MSTORE PUSH1 0x17 PUSH1 0x24 DUP3 ADD MSTORE PUSH23 0x1D1A1948139195081A5CC81B9BDD08185C1C1C9BDD9959 PUSH1 0x4A SHL PUSH1 0x44 DUP3 ADD MSTORE PUSH1 0x64 SWAP1 REVERT JUMPDEST ISZERO PUSH2 0x156C JUMPI JUMP JUMPDEST PUSH1 0x40 MLOAD PUSH3 0x461BCD PUSH1 0xE5 SHL DUP2 MSTORE PUSH1 0x20 PUSH1 0x4 DUP3 ADD MSTORE PUSH1 0x1A PUSH1 0x24 DUP3 ADD MSTORE PUSH26 0x6661696C656420746F207075742067656D20666F722073616C65 PUSH1 0x30 SHL PUSH1 0x44 DUP3 ADD MSTORE PUSH1 0x64 SWAP1 REVERT JUMPDEST ISZERO PUSH2 0x15B5 JUMPI JUMP JUMPDEST PUSH1 0x40 MLOAD PUSH3 0x461BCD PUSH1 0xE5 SHL DUP2 MSTORE PUSH1 0x20 PUSH1 0x4 DUP3 ADD MSTORE PUSH1 0x24 DUP1 DUP3 ADD MSTORE PUSH32 0x646973636F756E742072617465206D757374206265206C657373207468616E20 PUSH1 0x44 DUP3 ADD MSTORE PUSH4 0x31303025 PUSH1 0xE0 SHL PUSH1 0x64 DUP3 ADD MSTORE PUSH1 0x84 SWAP1 REVERT JUMPDEST DUP2 DUP2 LT PUSH2 0x1611 JUMPI POP POP JUMP JUMPDEST PUSH1 0x0 DUP2 SSTORE PUSH1 0x1 ADD PUSH2 0x1606 JUMP JUMPDEST SWAP1 DUP2 PUSH1 0x20 SWAP2 SUB SLT PUSH2 0xAAE JUMPI MLOAD DUP1 ISZERO ISZERO DUP2 SUB PUSH2 0xAAE JUMPI SWAP1 JUMP JUMPDEST DUP1 MLOAD DUP3 LT ISZERO PUSH2 0x1649 JUMPI PUSH1 0x20 SWAP2 PUSH1 0x5 SHL ADD ADD SWAP1 JUMP JUMPDEST PUSH4 0x4E487B71 PUSH1 0xE0 SHL PUSH1 0x0 MSTORE PUSH1 0x32 PUSH1 0x4 MSTORE PUSH1 0x24 PUSH1 0x0 REVERT JUMPDEST ISZERO PUSH2 0x1666 JUMPI JUMP JUMPDEST PUSH1 0x40 MLOAD PUSH3 0x461BCD PUSH1 0xE5 SHL DUP2 MSTORE PUSH1 0x20 PUSH1 0x4 DUP3 ADD MSTORE PUSH1 0x18 PUSH1 0x24 DUP3 ADD MSTORE PUSH24 0x4E6F7420746865206F776E6572206F66207468652047454D PUSH1 0x40 SHL PUSH1 0x44 DUP3 ADD MSTORE PUSH1 0x64 SWAP1 REVERT JUMPDEST DUP2 DUP2 MUL SWAP3 SWAP2 DUP2 ISZERO SWAP2 DUP5 DIV EQ OR ISZERO PUSH2 0x16B9 JUMPI JUMP JUMPDEST PUSH4 0x4E487B71 PUSH1 0xE0 SHL PUSH1 0x0 MSTORE PUSH1 0x11 PUSH1 0x4 MSTORE PUSH1 0x24 PUSH1 0x0 REVERT JUMPDEST PUSH1 0x1 PUSH1 0x1 PUSH1 0xA0 SHL SUB SWAP2 DUP3 AND DUP2 MSTORE SWAP2 AND PUSH1 0x20 DUP3 ADD MSTORE PUSH1 0x40 DUP2 ADD SWAP2 SWAP1 SWAP2 MSTORE PUSH1 0x60 ADD SWAP1 JUMP JUMPDEST SWAP1 PUSH1 0x2 SLOAD PUSH1 0x0 PUSH1 0x1 DUP1 PUSH1 0xA0 SHL SUB DUP1 SWAP3 AND SWAP1 PUSH1 0x40 SWAP3 DUP4 MLOAD SWAP1 PUSH4 0x31A9108F PUSH1 0xE1 SHL DUP3 MSTORE PUSH1 0x4 DUP8 DUP2 DUP5 ADD MSTORE PUSH1 0x20 SWAP5 PUSH1 0x24 SWAP4 DUP7 DUP2 DUP7 DUP2 DUP6 GAS STATICCALL SWAP1 DUP2 ISZERO PUSH2 0x18E4 JUMPI SWAP1 PUSH2 0x1743 SWAP2 DUP8 SWAP2 PUSH2 0x1930 JUMPI JUMPDEST POP DUP5 AND CALLER EQ PUSH2 0x165F JUMP JUMPDEST DUP8 ISZERO PUSH2 0x18EE JUMPI DUP7 MLOAD PUSH4 0x276A28A3 PUSH1 0xE0 SHL DUP2 MSTORE DUP3 DUP2 ADD DUP11 SWAP1 MSTORE DUP7 DUP2 DUP7 DUP2 DUP6 GAS STATICCALL SWAP1 DUP2 ISZERO PUSH2 0x18E4 JUMPI DUP7 SWAP2 PUSH2 0x18C7 JUMPI JUMPDEST POP PUSH2 0x187B JUMPI DUP1 EXTCODESIZE ISZERO PUSH2 0x5CE JUMPI DUP5 DUP1 SWAP2 PUSH1 0x44 DUP12 DUP11 MLOAD SWAP5 DUP6 SWAP4 DUP5 SWAP3 PUSH4 0x4D723A75 PUSH1 0xE0 SHL DUP5 MSTORE DUP9 DUP5 ADD MSTORE PUSH1 0x1 DUP11 DUP5 ADD MSTORE GAS CALL DUP1 ISZERO PUSH2 0x1871 JUMPI PUSH2 0x185E JUMPI JUMPDEST POP DUP6 MLOAD SWAP3 PUSH1 0x60 DUP5 ADD SWAP2 DUP5 DUP4 LT PUSH1 0x1 PUSH1 0x1 PUSH1 0x40 SHL SUB DUP5 GT OR PUSH2 0x184B JUMPI POP POP PUSH1 0x60 SWAP7 SWAP5 SWAP3 DUP7 SWAP5 SWAP3 PUSH1 0x2 SWAP3 PUSH32 0x8B8052DFCC72D6FC28CD795F60661E1A701F185CE78C06A47B2AC29357D6EF8B SWAP11 SWAP9 MSTORE CALLER DUP3 MSTORE DUP5 DUP3 ADD SWAP1 DUP8 DUP3 MSTORE DUP7 DUP1 DUP5 ADD SWAP6 PUSH1 0x1 DUP8 MSTORE DUP11 DUP2 MSTORE DUP1 DUP9 MSTORE KECCAK256 SWAP3 MLOAD AND PUSH1 0x1 DUP1 PUSH1 0xA0 SHL SUB NOT DUP4 SLOAD AND OR DUP3 SSTORE MLOAD PUSH1 0x1 DUP3 ADD SSTORE ADD SWAP1 MLOAD ISZERO ISZERO PUSH1 0xFF DUP1 NOT DUP4 SLOAD AND SWAP2 AND OR SWAP1 SSTORE DUP2 MLOAD SWAP4 DUP5 MSTORE CALLER SWAP1 DUP5 ADD MSTORE DUP3 ADD MSTORE LOG1 PUSH1 0x1 SWAP1 JUMP JUMPDEST PUSH1 0x41 SWAP1 PUSH4 0x4E487B71 PUSH1 0xE0 SHL PUSH1 0x0 MSTORE MSTORE PUSH1 0x0 REVERT JUMPDEST PUSH2 0x186A SWAP1 SWAP5 SWAP2 SWAP5 PUSH2 0x13E0 JUMP JUMPDEST SWAP3 CODESIZE PUSH2 0x17AA JUMP JUMPDEST DUP8 MLOAD RETURNDATASIZE DUP8 DUP3 RETURNDATACOPY RETURNDATASIZE SWAP1 REVERT JUMPDEST DUP7 MLOAD PUSH3 0x461BCD PUSH1 0xE5 SHL DUP2 MSTORE DUP1 DUP4 ADD DUP8 SWAP1 MSTORE PUSH1 0x21 DUP2 DUP7 ADD MSTORE PUSH32 0x47656D20697320616C726561647920666F722073616C65206F72206D696E696E PUSH1 0x44 DUP3 ADD MSTORE PUSH1 0x67 PUSH1 0xF8 SHL PUSH1 0x64 DUP3 ADD MSTORE PUSH1 0x84 SWAP1 REVERT JUMPDEST PUSH2 0x18DE SWAP2 POP DUP8 RETURNDATASIZE DUP10 GT PUSH2 0xA69 JUMPI PUSH2 0xA5A DUP2 DUP4 PUSH2 0x1409 JUMP JUMPDEST CODESIZE PUSH2 0x1770 JUMP JUMPDEST DUP9 MLOAD RETURNDATASIZE DUP9 DUP3 RETURNDATACOPY RETURNDATASIZE SWAP1 REVERT JUMPDEST DUP7 MLOAD PUSH3 0x461BCD PUSH1 0xE5 SHL DUP2 MSTORE DUP1 DUP4 ADD DUP8 SWAP1 MSTORE PUSH1 0x1F DUP2 DUP7 ADD MSTORE PUSH32 0x5072696365206D7573742062652067726561746572207468616E207A65726F00 PUSH1 0x44 DUP3 ADD MSTORE PUSH1 0x64 SWAP1 REVERT JUMPDEST PUSH2 0x1947 SWAP2 POP DUP9 RETURNDATASIZE DUP11 GT PUSH2 0x3E3 JUMPI PUSH2 0x3D4 DUP2 DUP4 PUSH2 0x1409 JUMP JUMPDEST CODESIZE PUSH2 0x1739 JUMP JUMPDEST PUSH1 0xA SLOAD PUSH1 0x1 PUSH1 0x1 PUSH1 0xA0 SHL SUB AND CALLER SUB PUSH2 0x1961 JUMPI JUMP JUMPDEST PUSH1 0x40 MLOAD PUSH4 0x118CDAA7 PUSH1 0xE0 SHL DUP2 MSTORE CALLER PUSH1 0x4 DUP3 ADD MSTORE PUSH1 0x24 SWAP1 REVERT JUMPDEST SWAP1 PUSH2 0x19A0 JUMPI POP DUP1 MLOAD ISZERO PUSH2 0x198E JUMPI DUP1 MLOAD SWAP1 PUSH1 0x20 ADD REVERT JUMPDEST PUSH1 0x40 MLOAD PUSH4 0xA12F521 PUSH1 0xE1 SHL DUP2 MSTORE PUSH1 0x4 SWAP1 REVERT JUMPDEST DUP2 MLOAD ISZERO DUP1 PUSH2 0x19D3 JUMPI JUMPDEST PUSH2 0x19B1 JUMPI POP SWAP1 JUMP JUMPDEST PUSH1 0x40 MLOAD PUSH4 0x9996B315 PUSH1 0xE0 SHL DUP2 MSTORE PUSH1 0x1 PUSH1 0x1 PUSH1 0xA0 SHL SUB SWAP1 SWAP2 AND PUSH1 0x4 DUP3 ADD MSTORE PUSH1 0x24 SWAP1 REVERT JUMPDEST POP DUP1 EXTCODESIZE ISZERO PUSH2 0x19A9 JUMP INVALID LOG2 PUSH5 0x6970667358 0x22 SLT KECCAK256 SWAP1 PUSH3 0x59228B PUSH21 0x759F518E4E887C05386E0A40620EB00F66FDB9BE47 JUMPI 0xB3 0xF7 0xBF DUP8 PUSH5 0x736F6C6343 STOP ADDMOD NOT STOP CALLER "},"methodIdentifiers":{"DECIMALS()":"2e0f2625","TON_FEES_RATE_DIVIDER()":"08ec897d","buyCommonGem()":"7525e526","buyGem(uint256,bool)":"02424ed3","commonGemTokenUri()":"33360968","gemFactory()":"a53225c0","gemsForSale(uint256)":"9c41b42b","getGemFactory()":"f00fe4fd","getTonFeesRate()":"a69c8fb2","initialize(address,address,uint256,address,address)":"33e1a223","owner()":"8da5cb5b","paused()":"5c975abb","putGemForSale(uint256,uint256)":"2ede6432","putGemListForSale(uint256[],uint256[])":"79dbd798","removeGemForSale(uint256)":"adad6926","renounceOwnership()":"715018a6","setCommonGemTokenUri(string)":"a27682ef","setDiscountRate(uint256)":"7c69febd","setStakingIndex(uint256)":"ce49a360","stakingIndex()":"30f50859","ton()":"cc48b947","tonFeesRate()":"12788619","transferOwnership(address)":"f2fde38b","treasury()":"61d027b3","wston()":"36b17e13"}}}}}