{"src/L2/MarketPlaceStorage.sol":{"MarketPlaceStorage":{"abi":[{"anonymous":false,"inputs":[{"indexed":false,"internalType":"uint256","name":"tokenId","type":"uint256"},{"indexed":false,"internalType":"address","name":"payer","type":"address"},{"indexed":false,"internalType":"address","name":"seller","type":"address"},{"indexed":false,"internalType":"uint256","name":"amount","type":"uint256"}],"name":"GemBought","type":"event"},{"anonymous":false,"inputs":[{"indexed":false,"internalType":"uint256","name":"tokenId","type":"uint256"},{"indexed":false,"internalType":"address","name":"seller","type":"address"},{"indexed":false,"internalType":"uint256","name":"price","type":"uint256"}],"name":"GemForSale","type":"event"},{"anonymous":false,"inputs":[{"indexed":false,"internalType":"uint256","name":"tokenId","type":"uint256"}],"name":"GemRemovedFromSale","type":"event"},{"anonymous":false,"inputs":[{"indexed":false,"internalType":"uint256","name":"discountRate","type":"uint256"}],"name":"SetDiscountRate","type":"event"},{"anonymous":false,"inputs":[{"indexed":false,"internalType":"uint256","name":"tokenId","type":"uint256"},{"indexed":false,"internalType":"address","name":"claimer","type":"address"}],"name":"WSTONClaimed","type":"event"},{"inputs":[],"name":"DECIMALS","outputs":[{"internalType":"uint256","name":"","type":"uint256"}],"stateMutability":"view","type":"function"},{"inputs":[],"name":"TON_FEES_RATE_DIVIDER","outputs":[{"internalType":"uint256","name":"","type":"uint256"}],"stateMutability":"view","type":"function"},{"inputs":[],"name":"commonGemTokenUri","outputs":[{"internalType":"string","name":"","type":"string"}],"stateMutability":"view","type":"function"},{"inputs":[],"name":"gemFactory","outputs":[{"internalType":"address","name":"","type":"address"}],"stateMutability":"view","type":"function"},{"inputs":[{"internalType":"uint256","name":"","type":"uint256"}],"name":"gemsForSale","outputs":[{"internalType":"address","name":"seller","type":"address"},{"internalType":"uint256","name":"price","type":"uint256"},{"internalType":"bool","name":"isActive","type":"bool"}],"stateMutability":"view","type":"function"},{"inputs":[],"name":"paused","outputs":[{"internalType":"bool","name":"","type":"bool"}],"stateMutability":"view","type":"function"},{"inputs":[],"name":"stakingIndex","outputs":[{"internalType":"uint256","name":"","type":"uint256"}],"stateMutability":"view","type":"function"},{"inputs":[],"name":"ton","outputs":[{"internalType":"address","name":"","type":"address"}],"stateMutability":"view","type":"function"},{"inputs":[],"name":"tonFeesRate","outputs":[{"internalType":"uint256","name":"","type":"uint256"}],"stateMutability":"view","type":"function"},{"inputs":[],"name":"treasury","outputs":[{"internalType":"address","name":"","type":"address"}],"stateMutability":"view","type":"function"},{"inputs":[],"name":"wston","outputs":[{"internalType":"address","name":"","type":"address"}],"stateMutability":"view","type":"function"}],"evm":{"bytecode":{"linkReferences":{},"object":"60808060405234602457600160075560ff19600854166008556103a8908161002a8239f35b600080fdfe60806040818152600436101561001457600080fd5b600091823560e01c90816308ec897d146103575750806312788619146103395780632e0f26251461031457806330f50859146102f657806333360968146101ad57806336b17e13146101855780635c975abb1461016257806361d027b31461013a5780639c41b42b146100ee578063a53225c0146100c65763cc48b9471461009b57600080fd5b346100c257816003193601126100c25760055490516001600160a01b039091168152602090f35b5080fd5b50346100c257816003193601126100c25760025490516001600160a01b039091168152602090f35b50346100c25760203660031901126100c25780606092600435815280602052209060018060a01b038254169160ff60026001830154920154169082519384526020840152151590820152f35b50346100c257816003193601126100c25760035490516001600160a01b039091168152602090f35b50346100c257816003193601126100c25760209060ff6008541690519015158152f35b50346100c257816003193601126100c25760045490516001600160a01b039091168152602090f35b50346100c257816003193601126100c2578051908291600654936001938560011c94600187169687156102ec575b60209788881081146102d85787865288929181156102b95750600114610281575b505082939450601f801994859203011682019482861067ffffffffffffffff87111761026d5785929391838652818452845191828186015281955b8387106102555750508394508582601f949501015201168101030190f35b86810182015189880189015295810195889550610237565b634e487b7160e01b82526041600452602482fd5b6006845281842091925083915b8783106102a6575094955085945083010185386101fc565b805486840185015291830191810161028e565b60ff191683870152509495869550151560051b840101905085386101fc565b634e487b7160e01b85526022600452602485fd5b95607f16956101db565b50346100c257816003193601126100c2576020906007549051908152f35b50346100c257816003193601126100c25751676765c793fa10079d601b1b8152602090f35b50346100c257816003193601126100c2576020906001549051908152f35b8390346100c257816003193601126100c25780606460209252f3fea2646970667358221220a9a94ed2b6e10219d0182bb784eb45a952cbf426c245633ac61241141797767564736f6c63430008190033","opcodes":"PUSH1 0x80 DUP1 PUSH1 0x40 MSTORE CALLVALUE PUSH1 0x24 JUMPI PUSH1 0x1 PUSH1 0x7 SSTORE PUSH1 0xFF NOT PUSH1 0x8 SLOAD AND PUSH1 0x8 SSTORE PUSH2 0x3A8 SWAP1 DUP2 PUSH2 0x2A DUP3 CODECOPY RETURN JUMPDEST PUSH1 0x0 DUP1 REVERT INVALID PUSH1 0x80 PUSH1 0x40 DUP2 DUP2 MSTORE PUSH1 0x4 CALLDATASIZE LT ISZERO PUSH2 0x14 JUMPI PUSH1 0x0 DUP1 REVERT JUMPDEST PUSH1 0x0 SWAP2 DUP3 CALLDATALOAD PUSH1 0xE0 SHR SWAP1 DUP2 PUSH4 0x8EC897D EQ PUSH2 0x357 JUMPI POP DUP1 PUSH4 0x12788619 EQ PUSH2 0x339 JUMPI DUP1 PUSH4 0x2E0F2625 EQ PUSH2 0x314 JUMPI DUP1 PUSH4 0x30F50859 EQ PUSH2 0x2F6 JUMPI DUP1 PUSH4 0x33360968 EQ PUSH2 0x1AD JUMPI DUP1 PUSH4 0x36B17E13 EQ PUSH2 0x185 JUMPI DUP1 PUSH4 0x5C975ABB EQ PUSH2 0x162 JUMPI DUP1 PUSH4 0x61D027B3 EQ PUSH2 0x13A JUMPI DUP1 PUSH4 0x9C41B42B EQ PUSH2 0xEE JUMPI DUP1 PUSH4 0xA53225C0 EQ PUSH2 0xC6 JUMPI PUSH4 0xCC48B947 EQ PUSH2 0x9B JUMPI PUSH1 0x0 DUP1 REVERT JUMPDEST CALLVALUE PUSH2 0xC2 JUMPI DUP2 PUSH1 0x3 NOT CALLDATASIZE ADD SLT PUSH2 0xC2 JUMPI PUSH1 0x5 SLOAD SWAP1 MLOAD PUSH1 0x1 PUSH1 0x1 PUSH1 0xA0 SHL SUB SWAP1 SWAP2 AND DUP2 MSTORE PUSH1 0x20 SWAP1 RETURN JUMPDEST POP DUP1 REVERT JUMPDEST POP CALLVALUE PUSH2 0xC2 JUMPI DUP2 PUSH1 0x3 NOT CALLDATASIZE ADD SLT PUSH2 0xC2 JUMPI PUSH1 0x2 SLOAD SWAP1 MLOAD PUSH1 0x1 PUSH1 0x1 PUSH1 0xA0 SHL SUB SWAP1 SWAP2 AND DUP2 MSTORE PUSH1 0x20 SWAP1 RETURN JUMPDEST POP CALLVALUE PUSH2 0xC2 JUMPI PUSH1 0x20 CALLDATASIZE PUSH1 0x3 NOT ADD SLT PUSH2 0xC2 JUMPI DUP1 PUSH1 0x60 SWAP3 PUSH1 0x4 CALLDATALOAD DUP2 MSTORE DUP1 PUSH1 0x20 MSTORE KECCAK256 SWAP1 PUSH1 0x1 DUP1 PUSH1 0xA0 SHL SUB DUP3 SLOAD AND SWAP2 PUSH1 0xFF PUSH1 0x2 PUSH1 0x1 DUP4 ADD SLOAD SWAP3 ADD SLOAD AND SWAP1 DUP3 MLOAD SWAP4 DUP5 MSTORE PUSH1 0x20 DUP5 ADD MSTORE ISZERO ISZERO SWAP1 DUP3 ADD MSTORE RETURN JUMPDEST POP CALLVALUE PUSH2 0xC2 JUMPI DUP2 PUSH1 0x3 NOT CALLDATASIZE ADD SLT PUSH2 0xC2 JUMPI PUSH1 0x3 SLOAD SWAP1 MLOAD PUSH1 0x1 PUSH1 0x1 PUSH1 0xA0 SHL SUB SWAP1 SWAP2 AND DUP2 MSTORE PUSH1 0x20 SWAP1 RETURN JUMPDEST POP CALLVALUE PUSH2 0xC2 JUMPI DUP2 PUSH1 0x3 NOT CALLDATASIZE ADD SLT PUSH2 0xC2 JUMPI PUSH1 0x20 SWAP1 PUSH1 0xFF PUSH1 0x8 SLOAD AND SWAP1 MLOAD SWAP1 ISZERO ISZERO DUP2 MSTORE RETURN JUMPDEST POP CALLVALUE PUSH2 0xC2 JUMPI DUP2 PUSH1 0x3 NOT CALLDATASIZE ADD SLT PUSH2 0xC2 JUMPI PUSH1 0x4 SLOAD SWAP1 MLOAD PUSH1 0x1 PUSH1 0x1 PUSH1 0xA0 SHL SUB SWAP1 SWAP2 AND DUP2 MSTORE PUSH1 0x20 SWAP1 RETURN JUMPDEST POP CALLVALUE PUSH2 0xC2 JUMPI DUP2 PUSH1 0x3 NOT CALLDATASIZE ADD SLT PUSH2 0xC2 JUMPI DUP1 MLOAD SWAP1 DUP3 SWAP2 PUSH1 0x6 SLOAD SWAP4 PUSH1 0x1 SWAP4 DUP6 PUSH1 0x1 SHR SWAP5 PUSH1 0x1 DUP8 AND SWAP7 DUP8 ISZERO PUSH2 0x2EC JUMPI JUMPDEST PUSH1 0x20 SWAP8 DUP9 DUP9 LT DUP2 EQ PUSH2 0x2D8 JUMPI DUP8 DUP7 MSTORE DUP9 SWAP3 SWAP2 DUP2 ISZERO PUSH2 0x2B9 JUMPI POP PUSH1 0x1 EQ PUSH2 0x281 JUMPI JUMPDEST POP POP DUP3 SWAP4 SWAP5 POP PUSH1 0x1F DUP1 NOT SWAP5 DUP6 SWAP3 SUB ADD AND DUP3 ADD SWAP5 DUP3 DUP7 LT PUSH8 0xFFFFFFFFFFFFFFFF DUP8 GT OR PUSH2 0x26D JUMPI DUP6 SWAP3 SWAP4 SWAP2 DUP4 DUP7 MSTORE DUP2 DUP5 MSTORE DUP5 MLOAD SWAP2 DUP3 DUP2 DUP7 ADD MSTORE DUP2 SWAP6 JUMPDEST DUP4 DUP8 LT PUSH2 0x255 JUMPI POP POP DUP4 SWAP5 POP DUP6 DUP3 PUSH1 0x1F SWAP5 SWAP6 ADD ADD MSTORE ADD AND DUP2 ADD SUB ADD SWAP1 RETURN JUMPDEST DUP7 DUP2 ADD DUP3 ADD MLOAD DUP10 DUP9 ADD DUP10 ADD MSTORE SWAP6 DUP2 ADD SWAP6 DUP9 SWAP6 POP PUSH2 0x237 JUMP JUMPDEST PUSH4 0x4E487B71 PUSH1 0xE0 SHL DUP3 MSTORE PUSH1 0x41 PUSH1 0x4 MSTORE PUSH1 0x24 DUP3 REVERT JUMPDEST PUSH1 0x6 DUP5 MSTORE DUP2 DUP5 KECCAK256 SWAP2 SWAP3 POP DUP4 SWAP2 JUMPDEST DUP8 DUP4 LT PUSH2 0x2A6 JUMPI POP SWAP5 SWAP6 POP DUP6 SWAP5 POP DUP4 ADD ADD DUP6 CODESIZE PUSH2 0x1FC JUMP JUMPDEST DUP1 SLOAD DUP7 DUP5 ADD DUP6 ADD MSTORE SWAP2 DUP4 ADD SWAP2 DUP2 ADD PUSH2 0x28E JUMP JUMPDEST PUSH1 0xFF NOT AND DUP4 DUP8 ADD MSTORE POP SWAP5 SWAP6 DUP7 SWAP6 POP ISZERO ISZERO PUSH1 0x5 SHL DUP5 ADD ADD SWAP1 POP DUP6 CODESIZE PUSH2 0x1FC JUMP JUMPDEST PUSH4 0x4E487B71 PUSH1 0xE0 SHL DUP6 MSTORE PUSH1 0x22 PUSH1 0x4 MSTORE PUSH1 0x24 DUP6 REVERT JUMPDEST SWAP6 PUSH1 0x7F AND SWAP6 PUSH2 0x1DB JUMP JUMPDEST POP CALLVALUE PUSH2 0xC2 JUMPI DUP2 PUSH1 0x3 NOT CALLDATASIZE ADD SLT PUSH2 0xC2 JUMPI PUSH1 0x20 SWAP1 PUSH1 0x7 SLOAD SWAP1 MLOAD SWAP1 DUP2 MSTORE RETURN JUMPDEST POP CALLVALUE PUSH2 0xC2 JUMPI DUP2 PUSH1 0x3 NOT CALLDATASIZE ADD SLT PUSH2 0xC2 JUMPI MLOAD PUSH8 0x6765C793FA10079D PUSH1 0x1B SHL DUP2 MSTORE PUSH1 0x20 SWAP1 RETURN JUMPDEST POP CALLVALUE PUSH2 0xC2 JUMPI DUP2 PUSH1 0x3 NOT CALLDATASIZE ADD SLT PUSH2 0xC2 JUMPI PUSH1 0x20 SWAP1 PUSH1 0x1 SLOAD SWAP1 MLOAD SWAP1 DUP2 MSTORE RETURN JUMPDEST DUP4 SWAP1 CALLVALUE PUSH2 0xC2 JUMPI DUP2 PUSH1 0x3 NOT CALLDATASIZE ADD SLT PUSH2 0xC2 JUMPI DUP1 PUSH1 0x64 PUSH1 0x20 SWAP3 MSTORE RETURN INVALID LOG2 PUSH5 0x6970667358 0x22 SLT KECCAK256 0xA9 0xA9 0x4E 0xD2 0xB6 0xE1 MUL NOT 0xD0 XOR 0x2B 0xB7 DUP5 0xEB GASLIMIT 0xA9 MSTORE 0xCB DELEGATECALL 0x26 0xC2 GASLIMIT PUSH4 0x3AC61241 EQ OR SWAP8 PUSH23 0x7564736F6C634300081900330000000000000000000000 "},"methodIdentifiers":{"DECIMALS()":"2e0f2625","TON_FEES_RATE_DIVIDER()":"08ec897d","commonGemTokenUri()":"33360968","gemFactory()":"a53225c0","gemsForSale(uint256)":"9c41b42b","paused()":"5c975abb","stakingIndex()":"30f50859","ton()":"cc48b947","tonFeesRate()":"12788619","treasury()":"61d027b3","wston()":"36b17e13"}}}}}