{"src/L2/WstonSwapPool.sol":{"WstonSwapPool":{"abi":[{"inputs":[{"internalType":"address","name":"_ton","type":"address"},{"internalType":"address","name":"_wston","type":"address"},{"internalType":"uint256","name":"_initialStakingIndex","type":"uint256"},{"internalType":"address","name":"_treasury","type":"address"},{"internalType":"uint256","name":"_feeRate","type":"uint256"}],"stateMutability":"nonpayable","type":"constructor"},{"inputs":[{"internalType":"address","name":"owner","type":"address"}],"name":"OwnableInvalidOwner","type":"error"},{"inputs":[{"internalType":"address","name":"account","type":"address"}],"name":"OwnableUnauthorizedAccount","type":"error"},{"inputs":[],"name":"ReentrancyGuardReentrantCall","type":"error"},{"anonymous":false,"inputs":[{"indexed":false,"internalType":"uint256","name":"tonFees","type":"uint256"},{"indexed":false,"internalType":"uint256","name":"wstonFees","type":"uint256"}],"name":"FeesCollected","type":"event"},{"anonymous":false,"inputs":[{"indexed":true,"internalType":"address","name":"user","type":"address"},{"indexed":false,"internalType":"uint256","name":"tonAmount","type":"uint256"},{"indexed":false,"internalType":"uint256","name":"wstonAmount","type":"uint256"}],"name":"LiquidityAdded","type":"event"},{"anonymous":false,"inputs":[{"indexed":true,"internalType":"address","name":"user","type":"address"},{"indexed":false,"internalType":"uint256","name":"tonAmount","type":"uint256"},{"indexed":false,"internalType":"uint256","name":"wstonAmount","type":"uint256"}],"name":"LiquidityRemoved","type":"event"},{"anonymous":false,"inputs":[{"indexed":true,"internalType":"address","name":"previousOwner","type":"address"},{"indexed":true,"internalType":"address","name":"newOwner","type":"address"}],"name":"OwnershipTransferred","type":"event"},{"anonymous":false,"inputs":[{"indexed":false,"internalType":"uint256","name":"newIndex","type":"uint256"}],"name":"StakingIndexUpdated","type":"event"},{"anonymous":false,"inputs":[{"indexed":true,"internalType":"address","name":"user","type":"address"},{"indexed":false,"internalType":"uint256","name":"tonAmount","type":"uint256"},{"indexed":false,"internalType":"uint256","name":"wstonAmount","type":"uint256"}],"name":"Swap","type":"event"},{"inputs":[],"name":"DECIMALS","outputs":[{"internalType":"uint256","name":"","type":"uint256"}],"stateMutability":"view","type":"function"},{"inputs":[],"name":"FEE_RATE_DIVIDER","outputs":[{"internalType":"uint256","name":"","type":"uint256"}],"stateMutability":"view","type":"function"},{"inputs":[{"internalType":"uint256","name":"tonAmount","type":"uint256"},{"internalType":"uint256","name":"wstonAmount","type":"uint256"}],"name":"addLiquidity","outputs":[],"stateMutability":"nonpayable","type":"function"},{"inputs":[],"name":"feeRate","outputs":[{"internalType":"uint256","name":"","type":"uint256"}],"stateMutability":"view","type":"function"},{"inputs":[{"internalType":"address","name":"lp","type":"address"}],"name":"getLpShares","outputs":[{"internalType":"uint256","name":"","type":"uint256"}],"stateMutability":"view","type":"function"},{"inputs":[],"name":"getTonReserve","outputs":[{"internalType":"uint256","name":"","type":"uint256"}],"stateMutability":"view","type":"function"},{"inputs":[],"name":"getTotalShares","outputs":[{"internalType":"uint256","name":"","type":"uint256"}],"stateMutability":"view","type":"function"},{"inputs":[],"name":"getWstonReserve","outputs":[{"internalType":"uint256","name":"","type":"uint256"}],"stateMutability":"view","type":"function"},{"inputs":[{"internalType":"uint256","name":"","type":"uint256"}],"name":"lpAddresses","outputs":[{"internalType":"address","name":"","type":"address"}],"stateMutability":"view","type":"function"},{"inputs":[{"internalType":"address","name":"","type":"address"}],"name":"lpShares","outputs":[{"internalType":"uint256","name":"","type":"uint256"}],"stateMutability":"view","type":"function"},{"inputs":[],"name":"owner","outputs":[{"internalType":"address","name":"","type":"address"}],"stateMutability":"view","type":"function"},{"inputs":[{"internalType":"uint256","name":"shares","type":"uint256"}],"name":"removeLiquidity","outputs":[],"stateMutability":"nonpayable","type":"function"},{"inputs":[],"name":"renounceOwnership","outputs":[],"stateMutability":"nonpayable","type":"function"},{"inputs":[],"name":"stakingIndex","outputs":[{"internalType":"uint256","name":"","type":"uint256"}],"stateMutability":"view","type":"function"},{"inputs":[{"internalType":"uint256","name":"tonAmount","type":"uint256"}],"name":"swapTONforWSTON","outputs":[],"stateMutability":"nonpayable","type":"function"},{"inputs":[{"internalType":"uint256","name":"wstonAmount","type":"uint256"}],"name":"swapWSTONforTON","outputs":[],"stateMutability":"nonpayable","type":"function"},{"inputs":[],"name":"ton","outputs":[{"internalType":"address","name":"","type":"address"}],"stateMutability":"view","type":"function"},{"inputs":[],"name":"tonReserve","outputs":[{"internalType":"uint256","name":"","type":"uint256"}],"stateMutability":"view","type":"function"},{"inputs":[],"name":"totalShares","outputs":[{"internalType":"uint256","name":"","type":"uint256"}],"stateMutability":"view","type":"function"},{"inputs":[{"internalType":"address","name":"newOwner","type":"address"}],"name":"transferOwnership","outputs":[],"stateMutability":"nonpayable","type":"function"},{"inputs":[],"name":"treasury","outputs":[{"internalType":"address","name":"","type":"address"}],"stateMutability":"view","type":"function"},{"inputs":[{"internalType":"uint256","name":"_feeRate","type":"uint256"}],"name":"updateFeeRate","outputs":[],"stateMutability":"nonpayable","type":"function"},{"inputs":[{"internalType":"uint256","name":"newIndex","type":"uint256"}],"name":"updateStakingIndex","outputs":[],"stateMutability":"nonpayable","type":"function"},{"inputs":[],"name":"wston","outputs":[{"internalType":"address","name":"","type":"address"}],"stateMutability":"view","type":"function"},{"inputs":[],"name":"wstonReserve","outputs":[{"internalType":"uint256","name":"","type":"uint256"}],"stateMutability":"view","type":"function"}],"evm":{"bytecode":{"linkReferences":{},"object":"60803461011357601f6115c838819003918201601f19168301916001600160401b038311848410176101185780849260a094604052833981010312610113576100478161012e565b6100536020830161012e565b9060408301519060806100686060860161012e565b9401519233156100fa57600080546001600160a01b03198082163390811784556040519891956001600160a01b039592948694859391908416907f8be0079c531659141344cd1fd0a4f28419497f9722a3daafe3b4186f6b6457e09080a36001805516856002541617600255168360035416176003551690600454161760045560055560085561148590816101438239f35b604051631e4fbdf760e01b815260006004820152602490fd5b600080fd5b634e487b7160e01b600052604160045260246000fd5b51906001600160a01b03821682036101135756fe608060408181526004908136101561001657600080fd5b600092833560e01c9081630183513914610f3d575080630d727e2b14610c545780630fa40a1214610c375780631bbc46ac14610aa35780632e0f262514610c1157806330f5085914610bf257806336b17e1314610bc95780633806223214610baa5780633a98ef39146101c757806361d027b314610b82578063715018a614610b285780637b84fda514610b065780637cad7e7c14610ac257806385ffa3de14610aa35780638da5cb5b14610a7b578063978bbdb914610a5c5780639c8f9f23146109225780639cd441da14610584578063a2681f0d146102fc578063c109a6dc146101ea578063caa78a861461024d578063cc48b94714610224578063d464017a146101ea578063d5002f2e146101c75763f2fde38b1461013757600080fd5b346101c35760203660031901126101c3576001600160a01b038235818116939192908490036101bf57610168611400565b83156101a957505082546001600160a01b0319811683178455167f8be0079c531659141344cd1fd0a4f28419497f9722a3daafe3b4186f6b6457e08380a380f35b51631e4fbdf760e01b8152908101849052602490fd5b8480fd5b8280fd5b8382346101e657816003193601126101e657602090600b549051908152f35b5080fd5b5090346101c35760203660031901126101c357356001600160a01b038116908190036101c357828291602094526009845220549051908152f35b8382346101e657816003193601126101e65760025490516001600160a01b039091168152602090f35b50346101c35760203660031901126101c35781359161026a611400565b676765c793fa10079d601b1b83106102ae5750816020917f30ce0c4920695ae7b30f6304002cac26f3bffd83b1b84b281d4495ec83956c499360055551908152a180f35b6020608492519162461bcd60e51b8352820152602360248201527f7374616b696e6720696e6465782063616e6e6f74206265206c657373207468616044820152626e203160e81b6064820152fd5b508290346101e657602090816003193601126101c357833561031c61142c565b6003548251636eb1769f60e11b81526001600160a01b0391821694919082818061034930338d8401610fc2565b0381895afa801561057a5784908890610545575b61036992501015610fdc565b83516370a0823160e01b8082523389830152919083816024818a5afa801561053b5785908990610506575b6103a092501015611020565b633b9aca00676765c793fa10079d601b1b6103bd60055487611062565b0404956127106103cf60085489611062565b04986103db8a896110b5565b938584600254169160248a5180948193825230878301525afa9081156104fc579089918b916104c7575b50106104865750610474927f77f92a1b6a1a11de8ca49515ad4c1fad45632dd3442167d74b90b304a3c7a75897989992610446876104519430903390611130565b3390600254166111c4565b61045d846007546110c2565b60075561046c876006546110b5565b600655611306565b82519485528401523392a26001805580f35b865162461bcd60e51b8152908101859052601b60248201527a1513d38818985b185b98d9481d1bdbc81b1bddc81a5b881c1bdbdb602a1b6044820152606490fd5b809250878092503d83116104f5575b6104e08183610f8a565b810103126104f1578890518c610405565b8980fd5b503d6104d6565b88513d8c823e3d90fd5b50508381813d8311610534575b61051d8183610f8a565b8101031261053057846103a09151610394565b8780fd5b503d610513565b86513d8a823e3d90fd5b50508281813d8311610573575b61055c8183610f8a565b8101031261056f5783610369915161035d565b8680fd5b503d610552565b85513d89823e3d90fd5b508290346101e657806003193601126101e65782359060246105d88135916105aa61142c565b60018060a01b039081600254168551636eb1769f60e11b908181528a81806020988993309033908401610fc2565b0381865afa80156104fc5789908b906108f1575b6105f892501015610fdc565b610617858b8660035416938a5193849283928352309033908401610fc2565b0381855afa9081156104fc579087918b916108c0575b50106108845786516370a0823160e01b808252338c8301529086818681875afa90811561087a5787928b8e9388938f9161083b575b509061066f911015611020565b8a519485938492835233908301525afa908115610831579086918a916107fc575b50106107c257866106a49130903390611130565b6106b48430338560035416611130565b338752600983528487205415610750575b5050907fac1d76749e5447b7b16f5ab61447e1bd502f3bb4807af3b28e620d1700a6ee45929161071d6106fe633b9aca008404876110c2565b338852600983528488206107138282546110c2565b9055600b546110c2565b600b5561072c856006546110c2565b60065561073b826007546110c2565b60075582519485528401523392a26001805580f35b600a5497600160401b8910156107b15750506107958760017fac1d76749e5447b7b16f5ab61447e1bd502f3bb4807af3b28e620d1700a6ee4597989901600a55610f59565b819291549060031b9133831b921b1916179055859493876106c5565b634e487b7160e01b88526041905286fd5b855162461bcd60e51b8152808a01859052601581840152745753544f4e2062616c616e636520746f6f206c6f7760581b6044820152606490fd5b809250868092503d831161082a575b6108158183610f8a565b81010312610826578590518b610690565b8880fd5b503d61080b565b87513d8b823e3d90fd5b9450505092905081813d8311610873575b6108568183610f8a565b8101031261086f5784879261066f8c8f94519091610662565b8a80fd5b503d61084c565b89513d8d823e3d90fd5b865162461bcd60e51b8152808b01869052601781850152765753544f4e20616c6c6f77616e636520746f6f206c6f7760481b6044820152606490fd5b809250878092503d83116108ea575b6108d98183610f8a565b810103126104f1578690518c61062d565b503d6108cf565b50508581813d831161091b575b6109088183610f8a565b810103126104f157886105f891516105ec565b503d6108fe565b50346101c35760203660031901126101c35781359161093f61142c565b3384526009602052828285205410610a2157507f96cd817c6329656790ef8fba7675405193677d39619571282f5e21f3a98cd0599061098060065484611062565b926109c76109a6610994600b5480976110ab565b956109a160075485611062565b6110ab565b9133875260096020528387206109bd8282546110b5565b9055600b546110b5565b600b556109d6846006546110b5565b6006556109e5816007546110b5565b600755610a0d8160018060a01b03610a02873383600254166111c4565b3390600354166111c4565b815193845260208401523392a26001805580f35b6020606492519162461bcd60e51b83528201526016602482015275496e73756666696369656e74204c502073686172657360501b6044820152fd5b8382346101e657816003193601126101e6576020906008549051908152f35b8382346101e657816003193601126101e657905490516001600160a01b039091168152602090f35b8382346101e657816003193601126101e6576020906007549051908152f35b5090346101c35760203660031901126101c3573591600a54831015610b035750610aed602092610f59565b905491519160018060a01b039160031b1c168152f35b80fd5b5050346101e65760203660031901126101e657610b21611400565b3560085580f35b8334610b035780600319360112610b0357610b41611400565b80546001600160a01b03198116825581906001600160a01b03167f8be0079c531659141344cd1fd0a4f28419497f9722a3daafe3b4186f6b6457e08280a380f35b5090346101c357826003193601126101c3575490516001600160a01b03909116815260209150f35b8382346101e657816003193601126101e6576020906006549051908152f35b8382346101e657816003193601126101e65760035490516001600160a01b039091168152602090f35b8382346101e657816003193601126101e6576020906005549051908152f35b8382346101e657816003193601126101e65751676765c793fa10079d601b1b8152602090f35b8382346101e657816003193601126101e657602090516127108152f35b508290346101e657602090816003193601126101c35783548435926001600160a01b039182163303610ee5578160025416918351636eb1769f60e11b8152828180610ca230338d8401610fc2565b0381875afa801561057a5786908890610eb4575b610cc292501015610fdc565b83516370a0823160e01b808252338983015291908381602481885afa801561053b5787908990610e83575b610cf992501015611020565b633b9aca00808702908782041487151715610e70576a0c097ce7bc90715b34b9f160241b870290808204676765c793fa10079d601b1b1490151715610e7057600554610d44916110ab565b93612710610d5460085487611062565b0498610d608a876110b5565b938584600354169160248a5180948193825230878301525afa9081156104fc579087918b91610e3f575b5010610dfc5750610dee9287989992610a027f77f92a1b6a1a11de8ca49515ad4c1fad45632dd3442167d74b90b304a3c7a75899610dcb9430903390611130565b610dd7876006546110c2565b600655610de6846007546110b5565b600755611210565b82519485528401523392a280f35b865162461bcd60e51b8152908101859052601d60248201527f5753544f4e2062616c616e636520746f6f206c6f7720696e20706f6f6c0000006044820152606490fd5b809250878092503d8311610e69575b610e588183610f8a565b810103126104f1578690518c610d8a565b503d610e4e565b634e487b7160e01b885260118952602488fd5b50508381813d8311610ead575b610e9a8183610f8a565b810103126105305786610cf99151610ced565b503d610e90565b50508281813d8311610ede575b610ecb8183610f8a565b8101031261056f5785610cc29151610cb6565b503d610ec1565b8560849184519162461bcd60e51b8352820152602d60248201527f66756e6374696f6e2063616c6c61626c652066726f6d2074726561737572792060448201526c636f6e7472616374206f6e6c7960981b6064820152fd5b8490346101e657816003193601126101e6576020906006548152f35b600a54811015610f7457600a60005260206000200190600090565b634e487b7160e01b600052603260045260246000fd5b90601f8019910116810190811067ffffffffffffffff821117610fac57604052565b634e487b7160e01b600052604160045260246000fd5b6001600160a01b0391821681529116602082015260400190565b15610fe357565b60405162461bcd60e51b8152602060048201526015602482015274544f4e20616c6c6f77616e636520746f6f206c6f7760581b6044820152606490fd5b1561102757565b60405162461bcd60e51b8152602060048201526013602482015272544f4e2062616c616e636520746f6f206c6f7760681b6044820152606490fd5b8181029291811591840414171561107557565b634e487b7160e01b600052601160045260246000fd5b1561109557600090565b634e487b7160e01b600052601260045260246000fd5b8115611095570490565b9190820391821161107557565b9190820180921161107557565b908160209103126110e7575180151581036110e75790565b600080fd5b156110f357565b60405162461bcd60e51b8152602060048201526015602482015274151bdad95b881d1c985b9cd9995c8819985a5b1959605a1b6044820152606490fd5b6040516323b872dd60e01b81526001600160a01b03928316600482015292821660248401526044830193909352909160209183916064918391600091165af180156111b85761118791600091611189575b506110ec565b565b6111ab915060203d6020116111b1575b6111a38183610f8a565b8101906110cf565b38611181565b503d611199565b6040513d6000823e3d90fd5b60405163a9059cbb60e01b81526001600160a01b039283166004820152602481019390935260209183916044918391600091165af180156111b8576111879160009161118957506110ec565b90600b91600b54156113015760005b600a548110156112ca5761123281610f59565b9054600391821b1c6001600160a01b03908116600081815260096020526040902054919392919081158015611270575b50505050600191500161121f565b600117156110755760019461129389546109a161128c8261108b565b958a611062565b92806112b5575b508215611262576112ac9354166111c4565b38808080611262565b6112c4908383600254166111c4565b3861129a565b507f49d512bf9cb224241c05691e73eb9fab078cf350c7dbcbcf66788f1fc0cc8b0b919250604090815190600082526020820152a1565b509050565b90600b91600b54156113015760005b600a548110156113c95761132881610f59565b9054600391821b1c6001600160a01b0390811660008181526009602052604090205491939291801591908215611367575b505050506001915001611315565b6113719087611062565b9461137e895480976110ab565b92600117156110755761139260019661108b565b92806113b4575b508215611359576113ab9354166111c4565b38808080611359565b6113c3908383600254166111c4565b38611399565b507f49d512bf9cb224241c05691e73eb9fab078cf350c7dbcbcf66788f1fc0cc8b0b919250604090815190815260006020820152a1565b6000546001600160a01b0316330361141457565b60405163118cdaa760e01b8152336004820152602490fd5b60026001541461143d576002600155565b604051633ee5aeb560e01b8152600490fdfea26469706673582212208ab44727444e3bf072e0e3b4c1df34afa703870e935b4eac282958bd8133a56264736f6c63430008190033","opcodes":"PUSH1 0x80 CALLVALUE PUSH2 0x113 JUMPI PUSH1 0x1F PUSH2 0x15C8 CODESIZE DUP2 SWAP1 SUB SWAP2 DUP3 ADD PUSH1 0x1F NOT AND DUP4 ADD SWAP2 PUSH1 0x1 PUSH1 0x1 PUSH1 0x40 SHL SUB DUP4 GT DUP5 DUP5 LT OR PUSH2 0x118 JUMPI DUP1 DUP5 SWAP3 PUSH1 0xA0 SWAP5 PUSH1 0x40 MSTORE DUP4 CODECOPY DUP2 ADD SUB SLT PUSH2 0x113 JUMPI PUSH2 0x47 DUP2 PUSH2 0x12E JUMP JUMPDEST PUSH2 0x53 PUSH1 0x20 DUP4 ADD PUSH2 0x12E JUMP JUMPDEST SWAP1 PUSH1 0x40 DUP4 ADD MLOAD SWAP1 PUSH1 0x80 PUSH2 0x68 PUSH1 0x60 DUP7 ADD PUSH2 0x12E JUMP JUMPDEST SWAP5 ADD MLOAD SWAP3 CALLER ISZERO PUSH2 0xFA JUMPI PUSH1 0x0 DUP1 SLOAD PUSH1 0x1 PUSH1 0x1 PUSH1 0xA0 SHL SUB NOT DUP1 DUP3 AND CALLER SWAP1 DUP2 OR DUP5 SSTORE PUSH1 0x40 MLOAD SWAP9 SWAP2 SWAP6 PUSH1 0x1 PUSH1 0x1 PUSH1 0xA0 SHL SUB SWAP6 SWAP3 SWAP5 DUP7 SWAP5 DUP6 SWAP4 SWAP2 SWAP1 DUP5 AND SWAP1 PUSH32 0x8BE0079C531659141344CD1FD0A4F28419497F9722A3DAAFE3B4186F6B6457E0 SWAP1 DUP1 LOG3 PUSH1 0x1 DUP1 SSTORE AND DUP6 PUSH1 0x2 SLOAD AND OR PUSH1 0x2 SSTORE AND DUP4 PUSH1 0x3 SLOAD AND OR PUSH1 0x3 SSTORE AND SWAP1 PUSH1 0x4 SLOAD AND OR PUSH1 0x4 SSTORE PUSH1 0x5 SSTORE PUSH1 0x8 SSTORE PUSH2 0x1485 SWAP1 DUP2 PUSH2 0x143 DUP3 CODECOPY RETURN JUMPDEST PUSH1 0x40 MLOAD PUSH4 0x1E4FBDF7 PUSH1 0xE0 SHL DUP2 MSTORE PUSH1 0x0 PUSH1 0x4 DUP3 ADD MSTORE PUSH1 0x24 SWAP1 REVERT JUMPDEST PUSH1 0x0 DUP1 REVERT JUMPDEST PUSH4 0x4E487B71 PUSH1 0xE0 SHL PUSH1 0x0 MSTORE PUSH1 0x41 PUSH1 0x4 MSTORE PUSH1 0x24 PUSH1 0x0 REVERT JUMPDEST MLOAD SWAP1 PUSH1 0x1 PUSH1 0x1 PUSH1 0xA0 SHL SUB DUP3 AND DUP3 SUB PUSH2 0x113 JUMPI JUMP INVALID PUSH1 0x80 PUSH1 0x40 DUP2 DUP2 MSTORE PUSH1 0x4 SWAP1 DUP2 CALLDATASIZE LT ISZERO PUSH2 0x16 JUMPI PUSH1 0x0 DUP1 REVERT JUMPDEST PUSH1 0x0 SWAP3 DUP4 CALLDATALOAD PUSH1 0xE0 SHR SWAP1 DUP2 PUSH4 0x1835139 EQ PUSH2 0xF3D JUMPI POP DUP1 PUSH4 0xD727E2B EQ PUSH2 0xC54 JUMPI DUP1 PUSH4 0xFA40A12 EQ PUSH2 0xC37 JUMPI DUP1 PUSH4 0x1BBC46AC EQ PUSH2 0xAA3 JUMPI DUP1 PUSH4 0x2E0F2625 EQ PUSH2 0xC11 JUMPI DUP1 PUSH4 0x30F50859 EQ PUSH2 0xBF2 JUMPI DUP1 PUSH4 0x36B17E13 EQ PUSH2 0xBC9 JUMPI DUP1 PUSH4 0x38062232 EQ PUSH2 0xBAA JUMPI DUP1 PUSH4 0x3A98EF39 EQ PUSH2 0x1C7 JUMPI DUP1 PUSH4 0x61D027B3 EQ PUSH2 0xB82 JUMPI DUP1 PUSH4 0x715018A6 EQ PUSH2 0xB28 JUMPI DUP1 PUSH4 0x7B84FDA5 EQ PUSH2 0xB06 JUMPI DUP1 PUSH4 0x7CAD7E7C EQ PUSH2 0xAC2 JUMPI DUP1 PUSH4 0x85FFA3DE EQ PUSH2 0xAA3 JUMPI DUP1 PUSH4 0x8DA5CB5B EQ PUSH2 0xA7B JUMPI DUP1 PUSH4 0x978BBDB9 EQ PUSH2 0xA5C JUMPI DUP1 PUSH4 0x9C8F9F23 EQ PUSH2 0x922 JUMPI DUP1 PUSH4 0x9CD441DA EQ PUSH2 0x584 JUMPI DUP1 PUSH4 0xA2681F0D EQ PUSH2 0x2FC JUMPI DUP1 PUSH4 0xC109A6DC EQ PUSH2 0x1EA JUMPI DUP1 PUSH4 0xCAA78A86 EQ PUSH2 0x24D JUMPI DUP1 PUSH4 0xCC48B947 EQ PUSH2 0x224 JUMPI DUP1 PUSH4 0xD464017A EQ PUSH2 0x1EA JUMPI DUP1 PUSH4 0xD5002F2E EQ PUSH2 0x1C7 JUMPI PUSH4 0xF2FDE38B EQ PUSH2 0x137 JUMPI PUSH1 0x0 DUP1 REVERT JUMPDEST CALLVALUE PUSH2 0x1C3 JUMPI PUSH1 0x20 CALLDATASIZE PUSH1 0x3 NOT ADD SLT PUSH2 0x1C3 JUMPI PUSH1 0x1 PUSH1 0x1 PUSH1 0xA0 SHL SUB DUP3 CALLDATALOAD DUP2 DUP2 AND SWAP4 SWAP2 SWAP3 SWAP1 DUP5 SWAP1 SUB PUSH2 0x1BF JUMPI PUSH2 0x168 PUSH2 0x1400 JUMP JUMPDEST DUP4 ISZERO PUSH2 0x1A9 JUMPI POP POP DUP3 SLOAD PUSH1 0x1 PUSH1 0x1 PUSH1 0xA0 SHL SUB NOT DUP2 AND DUP4 OR DUP5 SSTORE AND PUSH32 0x8BE0079C531659141344CD1FD0A4F28419497F9722A3DAAFE3B4186F6B6457E0 DUP4 DUP1 LOG3 DUP1 RETURN JUMPDEST MLOAD PUSH4 0x1E4FBDF7 PUSH1 0xE0 SHL DUP2 MSTORE SWAP1 DUP2 ADD DUP5 SWAP1 MSTORE PUSH1 0x24 SWAP1 REVERT JUMPDEST DUP5 DUP1 REVERT JUMPDEST DUP3 DUP1 REVERT JUMPDEST DUP4 DUP3 CALLVALUE PUSH2 0x1E6 JUMPI DUP2 PUSH1 0x3 NOT CALLDATASIZE ADD SLT PUSH2 0x1E6 JUMPI PUSH1 0x20 SWAP1 PUSH1 0xB SLOAD SWAP1 MLOAD SWAP1 DUP2 MSTORE RETURN JUMPDEST POP DUP1 REVERT JUMPDEST POP SWAP1 CALLVALUE PUSH2 0x1C3 JUMPI PUSH1 0x20 CALLDATASIZE PUSH1 0x3 NOT ADD SLT PUSH2 0x1C3 JUMPI CALLDATALOAD PUSH1 0x1 PUSH1 0x1 PUSH1 0xA0 SHL SUB DUP2 AND SWAP1 DUP2 SWAP1 SUB PUSH2 0x1C3 JUMPI DUP3 DUP3 SWAP2 PUSH1 0x20 SWAP5 MSTORE PUSH1 0x9 DUP5 MSTORE KECCAK256 SLOAD SWAP1 MLOAD SWAP1 DUP2 MSTORE RETURN JUMPDEST DUP4 DUP3 CALLVALUE PUSH2 0x1E6 JUMPI DUP2 PUSH1 0x3 NOT CALLDATASIZE ADD SLT PUSH2 0x1E6 JUMPI PUSH1 0x2 SLOAD SWAP1 MLOAD PUSH1 0x1 PUSH1 0x1 PUSH1 0xA0 SHL SUB SWAP1 SWAP2 AND DUP2 MSTORE PUSH1 0x20 SWAP1 RETURN JUMPDEST POP CALLVALUE PUSH2 0x1C3 JUMPI PUSH1 0x20 CALLDATASIZE PUSH1 0x3 NOT ADD SLT PUSH2 0x1C3 JUMPI DUP2 CALLDATALOAD SWAP2 PUSH2 0x26A PUSH2 0x1400 JUMP JUMPDEST PUSH8 0x6765C793FA10079D PUSH1 0x1B SHL DUP4 LT PUSH2 0x2AE JUMPI POP DUP2 PUSH1 0x20 SWAP2 PUSH32 0x30CE0C4920695AE7B30F6304002CAC26F3BFFD83B1B84B281D4495EC83956C49 SWAP4 PUSH1 0x5 SSTORE MLOAD SWAP1 DUP2 MSTORE LOG1 DUP1 RETURN JUMPDEST PUSH1 0x20 PUSH1 0x84 SWAP3 MLOAD SWAP2 PUSH3 0x461BCD PUSH1 0xE5 SHL DUP4 MSTORE DUP3 ADD MSTORE PUSH1 0x23 PUSH1 0x24 DUP3 ADD MSTORE PUSH32 0x7374616B696E6720696E6465782063616E6E6F74206265206C65737320746861 PUSH1 0x44 DUP3 ADD MSTORE PUSH3 0x6E2031 PUSH1 0xE8 SHL PUSH1 0x64 DUP3 ADD MSTORE REVERT JUMPDEST POP DUP3 SWAP1 CALLVALUE PUSH2 0x1E6 JUMPI PUSH1 0x20 SWAP1 DUP2 PUSH1 0x3 NOT CALLDATASIZE ADD SLT PUSH2 0x1C3 JUMPI DUP4 CALLDATALOAD PUSH2 0x31C PUSH2 0x142C JUMP JUMPDEST PUSH1 0x3 SLOAD DUP3 MLOAD PUSH4 0x6EB1769F PUSH1 0xE1 SHL DUP2 MSTORE PUSH1 0x1 PUSH1 0x1 PUSH1 0xA0 SHL SUB SWAP2 DUP3 AND SWAP5 SWAP2 SWAP1 DUP3 DUP2 DUP1 PUSH2 0x349 ADDRESS CALLER DUP14 DUP5 ADD PUSH2 0xFC2 JUMP JUMPDEST SUB DUP2 DUP10 GAS STATICCALL DUP1 ISZERO PUSH2 0x57A JUMPI DUP5 SWAP1 DUP9 SWAP1 PUSH2 0x545 JUMPI JUMPDEST PUSH2 0x369 SWAP3 POP LT ISZERO PUSH2 0xFDC JUMP JUMPDEST DUP4 MLOAD PUSH4 0x70A08231 PUSH1 0xE0 SHL DUP1 DUP3 MSTORE CALLER DUP10 DUP4 ADD MSTORE SWAP2 SWAP1 DUP4 DUP2 PUSH1 0x24 DUP2 DUP11 GAS STATICCALL DUP1 ISZERO PUSH2 0x53B JUMPI DUP6 SWAP1 DUP10 SWAP1 PUSH2 0x506 JUMPI JUMPDEST PUSH2 0x3A0 SWAP3 POP LT ISZERO PUSH2 0x1020 JUMP JUMPDEST PUSH4 0x3B9ACA00 PUSH8 0x6765C793FA10079D PUSH1 0x1B SHL PUSH2 0x3BD PUSH1 0x5 SLOAD DUP8 PUSH2 0x1062 JUMP JUMPDEST DIV DIV SWAP6 PUSH2 0x2710 PUSH2 0x3CF PUSH1 0x8 SLOAD DUP10 PUSH2 0x1062 JUMP JUMPDEST DIV SWAP9 PUSH2 0x3DB DUP11 DUP10 PUSH2 0x10B5 JUMP JUMPDEST SWAP4 DUP6 DUP5 PUSH1 0x2 SLOAD AND SWAP2 PUSH1 0x24 DUP11 MLOAD DUP1 SWAP5 DUP2 SWAP4 DUP3 MSTORE ADDRESS DUP8 DUP4 ADD MSTORE GAS STATICCALL SWAP1 DUP2 ISZERO PUSH2 0x4FC JUMPI SWAP1 DUP10 SWAP2 DUP12 SWAP2 PUSH2 0x4C7 JUMPI JUMPDEST POP LT PUSH2 0x486 JUMPI POP PUSH2 0x474 SWAP3 PUSH32 0x77F92A1B6A1A11DE8CA49515AD4C1FAD45632DD3442167D74B90B304A3C7A758 SWAP8 SWAP9 SWAP10 SWAP3 PUSH2 0x446 DUP8 PUSH2 0x451 SWAP5 ADDRESS SWAP1 CALLER SWAP1 PUSH2 0x1130 JUMP JUMPDEST CALLER SWAP1 PUSH1 0x2 SLOAD AND PUSH2 0x11C4 JUMP JUMPDEST PUSH2 0x45D DUP5 PUSH1 0x7 SLOAD PUSH2 0x10C2 JUMP JUMPDEST PUSH1 0x7 SSTORE PUSH2 0x46C DUP8 PUSH1 0x6 SLOAD PUSH2 0x10B5 JUMP JUMPDEST PUSH1 0x6 SSTORE PUSH2 0x1306 JUMP JUMPDEST DUP3 MLOAD SWAP5 DUP6 MSTORE DUP5 ADD MSTORE CALLER SWAP3 LOG2 PUSH1 0x1 DUP1 SSTORE DUP1 RETURN JUMPDEST DUP7 MLOAD PUSH3 0x461BCD PUSH1 0xE5 SHL DUP2 MSTORE SWAP1 DUP2 ADD DUP6 SWAP1 MSTORE PUSH1 0x1B PUSH1 0x24 DUP3 ADD MSTORE PUSH27 0x1513D38818985B185B98D9481D1BDBC81B1BDDC81A5B881C1BDBDB PUSH1 0x2A SHL PUSH1 0x44 DUP3 ADD MSTORE PUSH1 0x64 SWAP1 REVERT JUMPDEST DUP1 SWAP3 POP DUP8 DUP1 SWAP3 POP RETURNDATASIZE DUP4 GT PUSH2 0x4F5 JUMPI JUMPDEST PUSH2 0x4E0 DUP2 DUP4 PUSH2 0xF8A JUMP JUMPDEST DUP2 ADD SUB SLT PUSH2 0x4F1 JUMPI DUP9 SWAP1 MLOAD DUP13 PUSH2 0x405 JUMP JUMPDEST DUP10 DUP1 REVERT JUMPDEST POP RETURNDATASIZE PUSH2 0x4D6 JUMP JUMPDEST DUP9 MLOAD RETURNDATASIZE DUP13 DUP3 RETURNDATACOPY RETURNDATASIZE SWAP1 REVERT JUMPDEST POP POP DUP4 DUP2 DUP2 RETURNDATASIZE DUP4 GT PUSH2 0x534 JUMPI JUMPDEST PUSH2 0x51D DUP2 DUP4 PUSH2 0xF8A JUMP JUMPDEST DUP2 ADD SUB SLT PUSH2 0x530 JUMPI DUP5 PUSH2 0x3A0 SWAP2 MLOAD PUSH2 0x394 JUMP JUMPDEST DUP8 DUP1 REVERT JUMPDEST POP RETURNDATASIZE PUSH2 0x513 JUMP JUMPDEST DUP7 MLOAD RETURNDATASIZE DUP11 DUP3 RETURNDATACOPY RETURNDATASIZE SWAP1 REVERT JUMPDEST POP POP DUP3 DUP2 DUP2 RETURNDATASIZE DUP4 GT PUSH2 0x573 JUMPI JUMPDEST PUSH2 0x55C DUP2 DUP4 PUSH2 0xF8A JUMP JUMPDEST DUP2 ADD SUB SLT PUSH2 0x56F JUMPI DUP4 PUSH2 0x369 SWAP2 MLOAD PUSH2 0x35D JUMP JUMPDEST DUP7 DUP1 REVERT JUMPDEST POP RETURNDATASIZE PUSH2 0x552 JUMP JUMPDEST DUP6 MLOAD RETURNDATASIZE DUP10 DUP3 RETURNDATACOPY RETURNDATASIZE SWAP1 REVERT JUMPDEST POP DUP3 SWAP1 CALLVALUE PUSH2 0x1E6 JUMPI DUP1 PUSH1 0x3 NOT CALLDATASIZE ADD SLT PUSH2 0x1E6 JUMPI DUP3 CALLDATALOAD SWAP1 PUSH1 0x24 PUSH2 0x5D8 DUP2 CALLDATALOAD SWAP2 PUSH2 0x5AA PUSH2 0x142C JUMP JUMPDEST PUSH1 0x1 DUP1 PUSH1 0xA0 SHL SUB SWAP1 DUP2 PUSH1 0x2 SLOAD AND DUP6 MLOAD PUSH4 0x6EB1769F PUSH1 0xE1 SHL SWAP1 DUP2 DUP2 MSTORE DUP11 DUP2 DUP1 PUSH1 0x20 SWAP9 DUP10 SWAP4 ADDRESS SWAP1 CALLER SWAP1 DUP5 ADD PUSH2 0xFC2 JUMP JUMPDEST SUB DUP2 DUP7 GAS STATICCALL DUP1 ISZERO PUSH2 0x4FC JUMPI DUP10 SWAP1 DUP12 SWAP1 PUSH2 0x8F1 JUMPI JUMPDEST PUSH2 0x5F8 SWAP3 POP LT ISZERO PUSH2 0xFDC JUMP JUMPDEST PUSH2 0x617 DUP6 DUP12 DUP7 PUSH1 0x3 SLOAD AND SWAP4 DUP11 MLOAD SWAP4 DUP5 SWAP3 DUP4 SWAP3 DUP4 MSTORE ADDRESS SWAP1 CALLER SWAP1 DUP5 ADD PUSH2 0xFC2 JUMP JUMPDEST SUB DUP2 DUP6 GAS STATICCALL SWAP1 DUP2 ISZERO PUSH2 0x4FC JUMPI SWAP1 DUP8 SWAP2 DUP12 SWAP2 PUSH2 0x8C0 JUMPI JUMPDEST POP LT PUSH2 0x884 JUMPI DUP7 MLOAD PUSH4 0x70A08231 PUSH1 0xE0 SHL DUP1 DUP3 MSTORE CALLER DUP13 DUP4 ADD MSTORE SWAP1 DUP7 DUP2 DUP7 DUP2 DUP8 GAS STATICCALL SWAP1 DUP2 ISZERO PUSH2 0x87A JUMPI DUP8 SWAP3 DUP12 DUP15 SWAP4 DUP9 SWAP4 DUP16 SWAP2 PUSH2 0x83B JUMPI JUMPDEST POP SWAP1 PUSH2 0x66F SWAP2 LT ISZERO PUSH2 0x1020 JUMP JUMPDEST DUP11 MLOAD SWAP5 DUP6 SWAP4 DUP5 SWAP3 DUP4 MSTORE CALLER SWAP1 DUP4 ADD MSTORE GAS STATICCALL SWAP1 DUP2 ISZERO PUSH2 0x831 JUMPI SWAP1 DUP7 SWAP2 DUP11 SWAP2 PUSH2 0x7FC JUMPI JUMPDEST POP LT PUSH2 0x7C2 JUMPI DUP7 PUSH2 0x6A4 SWAP2 ADDRESS SWAP1 CALLER SWAP1 PUSH2 0x1130 JUMP JUMPDEST PUSH2 0x6B4 DUP5 ADDRESS CALLER DUP6 PUSH1 0x3 SLOAD AND PUSH2 0x1130 JUMP JUMPDEST CALLER DUP8 MSTORE PUSH1 0x9 DUP4 MSTORE DUP5 DUP8 KECCAK256 SLOAD ISZERO PUSH2 0x750 JUMPI JUMPDEST POP POP SWAP1 PUSH32 0xAC1D76749E5447B7B16F5AB61447E1BD502F3BB4807AF3B28E620D1700A6EE45 SWAP3 SWAP2 PUSH2 0x71D PUSH2 0x6FE PUSH4 0x3B9ACA00 DUP5 DIV DUP8 PUSH2 0x10C2 JUMP JUMPDEST CALLER DUP9 MSTORE PUSH1 0x9 DUP4 MSTORE DUP5 DUP9 KECCAK256 PUSH2 0x713 DUP3 DUP3 SLOAD PUSH2 0x10C2 JUMP JUMPDEST SWAP1 SSTORE PUSH1 0xB SLOAD PUSH2 0x10C2 JUMP JUMPDEST PUSH1 0xB SSTORE PUSH2 0x72C DUP6 PUSH1 0x6 SLOAD PUSH2 0x10C2 JUMP JUMPDEST PUSH1 0x6 SSTORE PUSH2 0x73B DUP3 PUSH1 0x7 SLOAD PUSH2 0x10C2 JUMP JUMPDEST PUSH1 0x7 SSTORE DUP3 MLOAD SWAP5 DUP6 MSTORE DUP5 ADD MSTORE CALLER SWAP3 LOG2 PUSH1 0x1 DUP1 SSTORE DUP1 RETURN JUMPDEST PUSH1 0xA SLOAD SWAP8 PUSH1 0x1 PUSH1 0x40 SHL DUP10 LT ISZERO PUSH2 0x7B1 JUMPI POP POP PUSH2 0x795 DUP8 PUSH1 0x1 PUSH32 0xAC1D76749E5447B7B16F5AB61447E1BD502F3BB4807AF3B28E620D1700A6EE45 SWAP8 SWAP9 SWAP10 ADD PUSH1 0xA SSTORE PUSH2 0xF59 JUMP JUMPDEST DUP2 SWAP3 SWAP2 SLOAD SWAP1 PUSH1 0x3 SHL SWAP2 CALLER DUP4 SHL SWAP3 SHL NOT AND OR SWAP1 SSTORE DUP6 SWAP5 SWAP4 DUP8 PUSH2 0x6C5 JUMP JUMPDEST PUSH4 0x4E487B71 PUSH1 0xE0 SHL DUP9 MSTORE PUSH1 0x41 SWAP1 MSTORE DUP7 REVERT JUMPDEST DUP6 MLOAD PUSH3 0x461BCD PUSH1 0xE5 SHL DUP2 MSTORE DUP1 DUP11 ADD DUP6 SWAP1 MSTORE PUSH1 0x15 DUP2 DUP5 ADD MSTORE PUSH21 0x5753544F4E2062616C616E636520746F6F206C6F77 PUSH1 0x58 SHL PUSH1 0x44 DUP3 ADD MSTORE PUSH1 0x64 SWAP1 REVERT JUMPDEST DUP1 SWAP3 POP DUP7 DUP1 SWAP3 POP RETURNDATASIZE DUP4 GT PUSH2 0x82A JUMPI JUMPDEST PUSH2 0x815 DUP2 DUP4 PUSH2 0xF8A JUMP JUMPDEST DUP2 ADD SUB SLT PUSH2 0x826 JUMPI DUP6 SWAP1 MLOAD DUP12 PUSH2 0x690 JUMP JUMPDEST DUP9 DUP1 REVERT JUMPDEST POP RETURNDATASIZE PUSH2 0x80B JUMP JUMPDEST DUP8 MLOAD RETURNDATASIZE DUP12 DUP3 RETURNDATACOPY RETURNDATASIZE SWAP1 REVERT JUMPDEST SWAP5 POP POP POP SWAP3 SWAP1 POP DUP2 DUP2 RETURNDATASIZE DUP4 GT PUSH2 0x873 JUMPI JUMPDEST PUSH2 0x856 DUP2 DUP4 PUSH2 0xF8A JUMP JUMPDEST DUP2 ADD SUB SLT PUSH2 0x86F JUMPI DUP5 DUP8 SWAP3 PUSH2 0x66F DUP13 DUP16 SWAP5 MLOAD SWAP1 SWAP2 PUSH2 0x662 JUMP JUMPDEST DUP11 DUP1 REVERT JUMPDEST POP RETURNDATASIZE PUSH2 0x84C JUMP JUMPDEST DUP10 MLOAD RETURNDATASIZE DUP14 DUP3 RETURNDATACOPY RETURNDATASIZE SWAP1 REVERT JUMPDEST DUP7 MLOAD PUSH3 0x461BCD PUSH1 0xE5 SHL DUP2 MSTORE DUP1 DUP12 ADD DUP7 SWAP1 MSTORE PUSH1 0x17 DUP2 DUP6 ADD MSTORE PUSH23 0x5753544F4E20616C6C6F77616E636520746F6F206C6F77 PUSH1 0x48 SHL PUSH1 0x44 DUP3 ADD MSTORE PUSH1 0x64 SWAP1 REVERT JUMPDEST DUP1 SWAP3 POP DUP8 DUP1 SWAP3 POP RETURNDATASIZE DUP4 GT PUSH2 0x8EA JUMPI JUMPDEST PUSH2 0x8D9 DUP2 DUP4 PUSH2 0xF8A JUMP JUMPDEST DUP2 ADD SUB SLT PUSH2 0x4F1 JUMPI DUP7 SWAP1 MLOAD DUP13 PUSH2 0x62D JUMP JUMPDEST POP RETURNDATASIZE PUSH2 0x8CF JUMP JUMPDEST POP POP DUP6 DUP2 DUP2 RETURNDATASIZE DUP4 GT PUSH2 0x91B JUMPI JUMPDEST PUSH2 0x908 DUP2 DUP4 PUSH2 0xF8A JUMP JUMPDEST DUP2 ADD SUB SLT PUSH2 0x4F1 JUMPI DUP9 PUSH2 0x5F8 SWAP2 MLOAD PUSH2 0x5EC JUMP JUMPDEST POP RETURNDATASIZE PUSH2 0x8FE JUMP JUMPDEST POP CALLVALUE PUSH2 0x1C3 JUMPI PUSH1 0x20 CALLDATASIZE PUSH1 0x3 NOT ADD SLT PUSH2 0x1C3 JUMPI DUP2 CALLDATALOAD SWAP2 PUSH2 0x93F PUSH2 0x142C JUMP JUMPDEST CALLER DUP5 MSTORE PUSH1 0x9 PUSH1 0x20 MSTORE DUP3 DUP3 DUP6 KECCAK256 SLOAD LT PUSH2 0xA21 JUMPI POP PUSH32 0x96CD817C6329656790EF8FBA7675405193677D39619571282F5E21F3A98CD059 SWAP1 PUSH2 0x980 PUSH1 0x6 SLOAD DUP5 PUSH2 0x1062 JUMP JUMPDEST SWAP3 PUSH2 0x9C7 PUSH2 0x9A6 PUSH2 0x994 PUSH1 0xB SLOAD DUP1 SWAP8 PUSH2 0x10AB JUMP JUMPDEST SWAP6 PUSH2 0x9A1 PUSH1 0x7 SLOAD DUP6 PUSH2 0x1062 JUMP JUMPDEST PUSH2 0x10AB JUMP JUMPDEST SWAP2 CALLER DUP8 MSTORE PUSH1 0x9 PUSH1 0x20 MSTORE DUP4 DUP8 KECCAK256 PUSH2 0x9BD DUP3 DUP3 SLOAD PUSH2 0x10B5 JUMP JUMPDEST SWAP1 SSTORE PUSH1 0xB SLOAD PUSH2 0x10B5 JUMP JUMPDEST PUSH1 0xB SSTORE PUSH2 0x9D6 DUP5 PUSH1 0x6 SLOAD PUSH2 0x10B5 JUMP JUMPDEST PUSH1 0x6 SSTORE PUSH2 0x9E5 DUP2 PUSH1 0x7 SLOAD PUSH2 0x10B5 JUMP JUMPDEST PUSH1 0x7 SSTORE PUSH2 0xA0D DUP2 PUSH1 0x1 DUP1 PUSH1 0xA0 SHL SUB PUSH2 0xA02 DUP8 CALLER DUP4 PUSH1 0x2 SLOAD AND PUSH2 0x11C4 JUMP JUMPDEST CALLER SWAP1 PUSH1 0x3 SLOAD AND PUSH2 0x11C4 JUMP JUMPDEST DUP2 MLOAD SWAP4 DUP5 MSTORE PUSH1 0x20 DUP5 ADD MSTORE CALLER SWAP3 LOG2 PUSH1 0x1 DUP1 SSTORE DUP1 RETURN JUMPDEST PUSH1 0x20 PUSH1 0x64 SWAP3 MLOAD SWAP2 PUSH3 0x461BCD PUSH1 0xE5 SHL DUP4 MSTORE DUP3 ADD MSTORE PUSH1 0x16 PUSH1 0x24 DUP3 ADD MSTORE PUSH22 0x496E73756666696369656E74204C5020736861726573 PUSH1 0x50 SHL PUSH1 0x44 DUP3 ADD MSTORE REVERT JUMPDEST DUP4 DUP3 CALLVALUE PUSH2 0x1E6 JUMPI DUP2 PUSH1 0x3 NOT CALLDATASIZE ADD SLT PUSH2 0x1E6 JUMPI PUSH1 0x20 SWAP1 PUSH1 0x8 SLOAD SWAP1 MLOAD SWAP1 DUP2 MSTORE RETURN JUMPDEST DUP4 DUP3 CALLVALUE PUSH2 0x1E6 JUMPI DUP2 PUSH1 0x3 NOT CALLDATASIZE ADD SLT PUSH2 0x1E6 JUMPI SWAP1 SLOAD SWAP1 MLOAD PUSH1 0x1 PUSH1 0x1 PUSH1 0xA0 SHL SUB SWAP1 SWAP2 AND DUP2 MSTORE PUSH1 0x20 SWAP1 RETURN JUMPDEST DUP4 DUP3 CALLVALUE PUSH2 0x1E6 JUMPI DUP2 PUSH1 0x3 NOT CALLDATASIZE ADD SLT PUSH2 0x1E6 JUMPI PUSH1 0x20 SWAP1 PUSH1 0x7 SLOAD SWAP1 MLOAD SWAP1 DUP2 MSTORE RETURN JUMPDEST POP SWAP1 CALLVALUE PUSH2 0x1C3 JUMPI PUSH1 0x20 CALLDATASIZE PUSH1 0x3 NOT ADD SLT PUSH2 0x1C3 JUMPI CALLDATALOAD SWAP2 PUSH1 0xA SLOAD DUP4 LT ISZERO PUSH2 0xB03 JUMPI POP PUSH2 0xAED PUSH1 0x20 SWAP3 PUSH2 0xF59 JUMP JUMPDEST SWAP1 SLOAD SWAP2 MLOAD SWAP2 PUSH1 0x1 DUP1 PUSH1 0xA0 SHL SUB SWAP2 PUSH1 0x3 SHL SHR AND DUP2 MSTORE RETURN JUMPDEST DUP1 REVERT JUMPDEST POP POP CALLVALUE PUSH2 0x1E6 JUMPI PUSH1 0x20 CALLDATASIZE PUSH1 0x3 NOT ADD SLT PUSH2 0x1E6 JUMPI PUSH2 0xB21 PUSH2 0x1400 JUMP JUMPDEST CALLDATALOAD PUSH1 0x8 SSTORE DUP1 RETURN JUMPDEST DUP4 CALLVALUE PUSH2 0xB03 JUMPI DUP1 PUSH1 0x3 NOT CALLDATASIZE ADD SLT PUSH2 0xB03 JUMPI PUSH2 0xB41 PUSH2 0x1400 JUMP JUMPDEST DUP1 SLOAD PUSH1 0x1 PUSH1 0x1 PUSH1 0xA0 SHL SUB NOT DUP2 AND DUP3 SSTORE DUP2 SWAP1 PUSH1 0x1 PUSH1 0x1 PUSH1 0xA0 SHL SUB AND PUSH32 0x8BE0079C531659141344CD1FD0A4F28419497F9722A3DAAFE3B4186F6B6457E0 DUP3 DUP1 LOG3 DUP1 RETURN JUMPDEST POP SWAP1 CALLVALUE PUSH2 0x1C3 JUMPI DUP3 PUSH1 0x3 NOT CALLDATASIZE ADD SLT PUSH2 0x1C3 JUMPI SLOAD SWAP1 MLOAD PUSH1 0x1 PUSH1 0x1 PUSH1 0xA0 SHL SUB SWAP1 SWAP2 AND DUP2 MSTORE PUSH1 0x20 SWAP2 POP RETURN JUMPDEST DUP4 DUP3 CALLVALUE PUSH2 0x1E6 JUMPI DUP2 PUSH1 0x3 NOT CALLDATASIZE ADD SLT PUSH2 0x1E6 JUMPI PUSH1 0x20 SWAP1 PUSH1 0x6 SLOAD SWAP1 MLOAD SWAP1 DUP2 MSTORE RETURN JUMPDEST DUP4 DUP3 CALLVALUE PUSH2 0x1E6 JUMPI DUP2 PUSH1 0x3 NOT CALLDATASIZE ADD SLT PUSH2 0x1E6 JUMPI PUSH1 0x3 SLOAD SWAP1 MLOAD PUSH1 0x1 PUSH1 0x1 PUSH1 0xA0 SHL SUB SWAP1 SWAP2 AND DUP2 MSTORE PUSH1 0x20 SWAP1 RETURN JUMPDEST DUP4 DUP3 CALLVALUE PUSH2 0x1E6 JUMPI DUP2 PUSH1 0x3 NOT CALLDATASIZE ADD SLT PUSH2 0x1E6 JUMPI PUSH1 0x20 SWAP1 PUSH1 0x5 SLOAD SWAP1 MLOAD SWAP1 DUP2 MSTORE RETURN JUMPDEST DUP4 DUP3 CALLVALUE PUSH2 0x1E6 JUMPI DUP2 PUSH1 0x3 NOT CALLDATASIZE ADD SLT PUSH2 0x1E6 JUMPI MLOAD PUSH8 0x6765C793FA10079D PUSH1 0x1B SHL DUP2 MSTORE PUSH1 0x20 SWAP1 RETURN JUMPDEST DUP4 DUP3 CALLVALUE PUSH2 0x1E6 JUMPI DUP2 PUSH1 0x3 NOT CALLDATASIZE ADD SLT PUSH2 0x1E6 JUMPI PUSH1 0x20 SWAP1 MLOAD PUSH2 0x2710 DUP2 MSTORE RETURN JUMPDEST POP DUP3 SWAP1 CALLVALUE PUSH2 0x1E6 JUMPI PUSH1 0x20 SWAP1 DUP2 PUSH1 0x3 NOT CALLDATASIZE ADD SLT PUSH2 0x1C3 JUMPI DUP4 SLOAD DUP5 CALLDATALOAD SWAP3 PUSH1 0x1 PUSH1 0x1 PUSH1 0xA0 SHL SUB SWAP2 DUP3 AND CALLER SUB PUSH2 0xEE5 JUMPI DUP2 PUSH1 0x2 SLOAD AND SWAP2 DUP4 MLOAD PUSH4 0x6EB1769F PUSH1 0xE1 SHL DUP2 MSTORE DUP3 DUP2 DUP1 PUSH2 0xCA2 ADDRESS CALLER DUP14 DUP5 ADD PUSH2 0xFC2 JUMP JUMPDEST SUB DUP2 DUP8 GAS STATICCALL DUP1 ISZERO PUSH2 0x57A JUMPI DUP7 SWAP1 DUP9 SWAP1 PUSH2 0xEB4 JUMPI JUMPDEST PUSH2 0xCC2 SWAP3 POP LT ISZERO PUSH2 0xFDC JUMP JUMPDEST DUP4 MLOAD PUSH4 0x70A08231 PUSH1 0xE0 SHL DUP1 DUP3 MSTORE CALLER DUP10 DUP4 ADD MSTORE SWAP2 SWAP1 DUP4 DUP2 PUSH1 0x24 DUP2 DUP9 GAS STATICCALL DUP1 ISZERO PUSH2 0x53B JUMPI DUP8 SWAP1 DUP10 SWAP1 PUSH2 0xE83 JUMPI JUMPDEST PUSH2 0xCF9 SWAP3 POP LT ISZERO PUSH2 0x1020 JUMP JUMPDEST PUSH4 0x3B9ACA00 DUP1 DUP8 MUL SWAP1 DUP8 DUP3 DIV EQ DUP8 ISZERO OR ISZERO PUSH2 0xE70 JUMPI PUSH11 0xC097CE7BC90715B34B9F1 PUSH1 0x24 SHL DUP8 MUL SWAP1 DUP1 DUP3 DIV PUSH8 0x6765C793FA10079D PUSH1 0x1B SHL EQ SWAP1 ISZERO OR ISZERO PUSH2 0xE70 JUMPI PUSH1 0x5 SLOAD PUSH2 0xD44 SWAP2 PUSH2 0x10AB JUMP JUMPDEST SWAP4 PUSH2 0x2710 PUSH2 0xD54 PUSH1 0x8 SLOAD DUP8 PUSH2 0x1062 JUMP JUMPDEST DIV SWAP9 PUSH2 0xD60 DUP11 DUP8 PUSH2 0x10B5 JUMP JUMPDEST SWAP4 DUP6 DUP5 PUSH1 0x3 SLOAD AND SWAP2 PUSH1 0x24 DUP11 MLOAD DUP1 SWAP5 DUP2 SWAP4 DUP3 MSTORE ADDRESS DUP8 DUP4 ADD MSTORE GAS STATICCALL SWAP1 DUP2 ISZERO PUSH2 0x4FC JUMPI SWAP1 DUP8 SWAP2 DUP12 SWAP2 PUSH2 0xE3F JUMPI JUMPDEST POP LT PUSH2 0xDFC JUMPI POP PUSH2 0xDEE SWAP3 DUP8 SWAP9 SWAP10 SWAP3 PUSH2 0xA02 PUSH32 0x77F92A1B6A1A11DE8CA49515AD4C1FAD45632DD3442167D74B90B304A3C7A758 SWAP10 PUSH2 0xDCB SWAP5 ADDRESS SWAP1 CALLER SWAP1 PUSH2 0x1130 JUMP JUMPDEST PUSH2 0xDD7 DUP8 PUSH1 0x6 SLOAD PUSH2 0x10C2 JUMP JUMPDEST PUSH1 0x6 SSTORE PUSH2 0xDE6 DUP5 PUSH1 0x7 SLOAD PUSH2 0x10B5 JUMP JUMPDEST PUSH1 0x7 SSTORE PUSH2 0x1210 JUMP JUMPDEST DUP3 MLOAD SWAP5 DUP6 MSTORE DUP5 ADD MSTORE CALLER SWAP3 LOG2 DUP1 RETURN JUMPDEST DUP7 MLOAD PUSH3 0x461BCD PUSH1 0xE5 SHL DUP2 MSTORE SWAP1 DUP2 ADD DUP6 SWAP1 MSTORE PUSH1 0x1D PUSH1 0x24 DUP3 ADD MSTORE PUSH32 0x5753544F4E2062616C616E636520746F6F206C6F7720696E20706F6F6C000000 PUSH1 0x44 DUP3 ADD MSTORE PUSH1 0x64 SWAP1 REVERT JUMPDEST DUP1 SWAP3 POP DUP8 DUP1 SWAP3 POP RETURNDATASIZE DUP4 GT PUSH2 0xE69 JUMPI JUMPDEST PUSH2 0xE58 DUP2 DUP4 PUSH2 0xF8A JUMP JUMPDEST DUP2 ADD SUB SLT PUSH2 0x4F1 JUMPI DUP7 SWAP1 MLOAD DUP13 PUSH2 0xD8A JUMP JUMPDEST POP RETURNDATASIZE PUSH2 0xE4E JUMP JUMPDEST PUSH4 0x4E487B71 PUSH1 0xE0 SHL DUP9 MSTORE PUSH1 0x11 DUP10 MSTORE PUSH1 0x24 DUP9 REVERT JUMPDEST POP POP DUP4 DUP2 DUP2 RETURNDATASIZE DUP4 GT PUSH2 0xEAD JUMPI JUMPDEST PUSH2 0xE9A DUP2 DUP4 PUSH2 0xF8A JUMP JUMPDEST DUP2 ADD SUB SLT PUSH2 0x530 JUMPI DUP7 PUSH2 0xCF9 SWAP2 MLOAD PUSH2 0xCED JUMP JUMPDEST POP RETURNDATASIZE PUSH2 0xE90 JUMP JUMPDEST POP POP DUP3 DUP2 DUP2 RETURNDATASIZE DUP4 GT PUSH2 0xEDE JUMPI JUMPDEST PUSH2 0xECB DUP2 DUP4 PUSH2 0xF8A JUMP JUMPDEST DUP2 ADD SUB SLT PUSH2 0x56F JUMPI DUP6 PUSH2 0xCC2 SWAP2 MLOAD PUSH2 0xCB6 JUMP JUMPDEST POP RETURNDATASIZE PUSH2 0xEC1 JUMP JUMPDEST DUP6 PUSH1 0x84 SWAP2 DUP5 MLOAD SWAP2 PUSH3 0x461BCD PUSH1 0xE5 SHL DUP4 MSTORE DUP3 ADD MSTORE PUSH1 0x2D PUSH1 0x24 DUP3 ADD MSTORE PUSH32 0x66756E6374696F6E2063616C6C61626C652066726F6D20747265617375727920 PUSH1 0x44 DUP3 ADD MSTORE PUSH13 0x636F6E7472616374206F6E6C79 PUSH1 0x98 SHL PUSH1 0x64 DUP3 ADD MSTORE REVERT JUMPDEST DUP5 SWAP1 CALLVALUE PUSH2 0x1E6 JUMPI DUP2 PUSH1 0x3 NOT CALLDATASIZE ADD SLT PUSH2 0x1E6 JUMPI PUSH1 0x20 SWAP1 PUSH1 0x6 SLOAD DUP2 MSTORE RETURN JUMPDEST PUSH1 0xA SLOAD DUP2 LT ISZERO PUSH2 0xF74 JUMPI PUSH1 0xA PUSH1 0x0 MSTORE PUSH1 0x20 PUSH1 0x0 KECCAK256 ADD SWAP1 PUSH1 0x0 SWAP1 JUMP JUMPDEST PUSH4 0x4E487B71 PUSH1 0xE0 SHL PUSH1 0x0 MSTORE PUSH1 0x32 PUSH1 0x4 MSTORE PUSH1 0x24 PUSH1 0x0 REVERT JUMPDEST SWAP1 PUSH1 0x1F DUP1 NOT SWAP2 ADD AND DUP2 ADD SWAP1 DUP2 LT PUSH8 0xFFFFFFFFFFFFFFFF DUP3 GT OR PUSH2 0xFAC JUMPI PUSH1 0x40 MSTORE JUMP JUMPDEST PUSH4 0x4E487B71 PUSH1 0xE0 SHL PUSH1 0x0 MSTORE PUSH1 0x41 PUSH1 0x4 MSTORE PUSH1 0x24 PUSH1 0x0 REVERT JUMPDEST PUSH1 0x1 PUSH1 0x1 PUSH1 0xA0 SHL SUB SWAP2 DUP3 AND DUP2 MSTORE SWAP2 AND PUSH1 0x20 DUP3 ADD MSTORE PUSH1 0x40 ADD SWAP1 JUMP JUMPDEST ISZERO PUSH2 0xFE3 JUMPI JUMP JUMPDEST PUSH1 0x40 MLOAD PUSH3 0x461BCD PUSH1 0xE5 SHL DUP2 MSTORE PUSH1 0x20 PUSH1 0x4 DUP3 ADD MSTORE PUSH1 0x15 PUSH1 0x24 DUP3 ADD MSTORE PUSH21 0x544F4E20616C6C6F77616E636520746F6F206C6F77 PUSH1 0x58 SHL PUSH1 0x44 DUP3 ADD MSTORE PUSH1 0x64 SWAP1 REVERT JUMPDEST ISZERO PUSH2 0x1027 JUMPI JUMP JUMPDEST PUSH1 0x40 MLOAD PUSH3 0x461BCD PUSH1 0xE5 SHL DUP2 MSTORE PUSH1 0x20 PUSH1 0x4 DUP3 ADD MSTORE PUSH1 0x13 PUSH1 0x24 DUP3 ADD MSTORE PUSH19 0x544F4E2062616C616E636520746F6F206C6F77 PUSH1 0x68 SHL PUSH1 0x44 DUP3 ADD MSTORE PUSH1 0x64 SWAP1 REVERT JUMPDEST DUP2 DUP2 MUL SWAP3 SWAP2 DUP2 ISZERO SWAP2 DUP5 DIV EQ OR ISZERO PUSH2 0x1075 JUMPI JUMP JUMPDEST PUSH4 0x4E487B71 PUSH1 0xE0 SHL PUSH1 0x0 MSTORE PUSH1 0x11 PUSH1 0x4 MSTORE PUSH1 0x24 PUSH1 0x0 REVERT JUMPDEST ISZERO PUSH2 0x1095 JUMPI PUSH1 0x0 SWAP1 JUMP JUMPDEST PUSH4 0x4E487B71 PUSH1 0xE0 SHL PUSH1 0x0 MSTORE PUSH1 0x12 PUSH1 0x4 MSTORE PUSH1 0x24 PUSH1 0x0 REVERT JUMPDEST DUP2 ISZERO PUSH2 0x1095 JUMPI DIV SWAP1 JUMP JUMPDEST SWAP2 SWAP1 DUP3 SUB SWAP2 DUP3 GT PUSH2 0x1075 JUMPI JUMP JUMPDEST SWAP2 SWAP1 DUP3 ADD DUP1 SWAP3 GT PUSH2 0x1075 JUMPI JUMP JUMPDEST SWAP1 DUP2 PUSH1 0x20 SWAP2 SUB SLT PUSH2 0x10E7 JUMPI MLOAD DUP1 ISZERO ISZERO DUP2 SUB PUSH2 0x10E7 JUMPI SWAP1 JUMP JUMPDEST PUSH1 0x0 DUP1 REVERT JUMPDEST ISZERO PUSH2 0x10F3 JUMPI JUMP JUMPDEST PUSH1 0x40 MLOAD PUSH3 0x461BCD PUSH1 0xE5 SHL DUP2 MSTORE PUSH1 0x20 PUSH1 0x4 DUP3 ADD MSTORE PUSH1 0x15 PUSH1 0x24 DUP3 ADD MSTORE PUSH21 0x151BDAD95B881D1C985B9CD9995C8819985A5B1959 PUSH1 0x5A SHL PUSH1 0x44 DUP3 ADD MSTORE PUSH1 0x64 SWAP1 REVERT JUMPDEST PUSH1 0x40 MLOAD PUSH4 0x23B872DD PUSH1 0xE0 SHL DUP2 MSTORE PUSH1 0x1 PUSH1 0x1 PUSH1 0xA0 SHL SUB SWAP3 DUP4 AND PUSH1 0x4 DUP3 ADD MSTORE SWAP3 DUP3 AND PUSH1 0x24 DUP5 ADD MSTORE PUSH1 0x44 DUP4 ADD SWAP4 SWAP1 SWAP4 MSTORE SWAP1 SWAP2 PUSH1 0x20 SWAP2 DUP4 SWAP2 PUSH1 0x64 SWAP2 DUP4 SWAP2 PUSH1 0x0 SWAP2 AND GAS CALL DUP1 ISZERO PUSH2 0x11B8 JUMPI PUSH2 0x1187 SWAP2 PUSH1 0x0 SWAP2 PUSH2 0x1189 JUMPI JUMPDEST POP PUSH2 0x10EC JUMP JUMPDEST JUMP JUMPDEST PUSH2 0x11AB SWAP2 POP PUSH1 0x20 RETURNDATASIZE PUSH1 0x20 GT PUSH2 0x11B1 JUMPI JUMPDEST PUSH2 0x11A3 DUP2 DUP4 PUSH2 0xF8A JUMP JUMPDEST DUP2 ADD SWAP1 PUSH2 0x10CF JUMP JUMPDEST CODESIZE PUSH2 0x1181 JUMP JUMPDEST POP RETURNDATASIZE PUSH2 0x1199 JUMP JUMPDEST PUSH1 0x40 MLOAD RETURNDATASIZE PUSH1 0x0 DUP3 RETURNDATACOPY RETURNDATASIZE SWAP1 REVERT JUMPDEST PUSH1 0x40 MLOAD PUSH4 0xA9059CBB PUSH1 0xE0 SHL DUP2 MSTORE PUSH1 0x1 PUSH1 0x1 PUSH1 0xA0 SHL SUB SWAP3 DUP4 AND PUSH1 0x4 DUP3 ADD MSTORE PUSH1 0x24 DUP2 ADD SWAP4 SWAP1 SWAP4 MSTORE PUSH1 0x20 SWAP2 DUP4 SWAP2 PUSH1 0x44 SWAP2 DUP4 SWAP2 PUSH1 0x0 SWAP2 AND GAS CALL DUP1 ISZERO PUSH2 0x11B8 JUMPI PUSH2 0x1187 SWAP2 PUSH1 0x0 SWAP2 PUSH2 0x1189 JUMPI POP PUSH2 0x10EC JUMP JUMPDEST SWAP1 PUSH1 0xB SWAP2 PUSH1 0xB SLOAD ISZERO PUSH2 0x1301 JUMPI PUSH1 0x0 JUMPDEST PUSH1 0xA SLOAD DUP2 LT ISZERO PUSH2 0x12CA JUMPI PUSH2 0x1232 DUP2 PUSH2 0xF59 JUMP JUMPDEST SWAP1 SLOAD PUSH1 0x3 SWAP2 DUP3 SHL SHR PUSH1 0x1 PUSH1 0x1 PUSH1 0xA0 SHL SUB SWAP1 DUP2 AND PUSH1 0x0 DUP2 DUP2 MSTORE PUSH1 0x9 PUSH1 0x20 MSTORE PUSH1 0x40 SWAP1 KECCAK256 SLOAD SWAP2 SWAP4 SWAP3 SWAP2 SWAP1 DUP2 ISZERO DUP1 ISZERO PUSH2 0x1270 JUMPI JUMPDEST POP POP POP POP PUSH1 0x1 SWAP2 POP ADD PUSH2 0x121F JUMP JUMPDEST PUSH1 0x1 OR ISZERO PUSH2 0x1075 JUMPI PUSH1 0x1 SWAP5 PUSH2 0x1293 DUP10 SLOAD PUSH2 0x9A1 PUSH2 0x128C DUP3 PUSH2 0x108B JUMP JUMPDEST SWAP6 DUP11 PUSH2 0x1062 JUMP JUMPDEST SWAP3 DUP1 PUSH2 0x12B5 JUMPI JUMPDEST POP DUP3 ISZERO PUSH2 0x1262 JUMPI PUSH2 0x12AC SWAP4 SLOAD AND PUSH2 0x11C4 JUMP JUMPDEST CODESIZE DUP1 DUP1 DUP1 PUSH2 0x1262 JUMP JUMPDEST PUSH2 0x12C4 SWAP1 DUP4 DUP4 PUSH1 0x2 SLOAD AND PUSH2 0x11C4 JUMP JUMPDEST CODESIZE PUSH2 0x129A JUMP JUMPDEST POP PUSH32 0x49D512BF9CB224241C05691E73EB9FAB078CF350C7DBCBCF66788F1FC0CC8B0B SWAP2 SWAP3 POP PUSH1 0x40 SWAP1 DUP2 MLOAD SWAP1 PUSH1 0x0 DUP3 MSTORE PUSH1 0x20 DUP3 ADD MSTORE LOG1 JUMP JUMPDEST POP SWAP1 POP JUMP JUMPDEST SWAP1 PUSH1 0xB SWAP2 PUSH1 0xB SLOAD ISZERO PUSH2 0x1301 JUMPI PUSH1 0x0 JUMPDEST PUSH1 0xA SLOAD DUP2 LT ISZERO PUSH2 0x13C9 JUMPI PUSH2 0x1328 DUP2 PUSH2 0xF59 JUMP JUMPDEST SWAP1 SLOAD PUSH1 0x3 SWAP2 DUP3 SHL SHR PUSH1 0x1 PUSH1 0x1 PUSH1 0xA0 SHL SUB SWAP1 DUP2 AND PUSH1 0x0 DUP2 DUP2 MSTORE PUSH1 0x9 PUSH1 0x20 MSTORE PUSH1 0x40 SWAP1 KECCAK256 SLOAD SWAP2 SWAP4 SWAP3 SWAP2 DUP1 ISZERO SWAP2 SWAP1 DUP3 ISZERO PUSH2 0x1367 JUMPI JUMPDEST POP POP POP POP PUSH1 0x1 SWAP2 POP ADD PUSH2 0x1315 JUMP JUMPDEST PUSH2 0x1371 SWAP1 DUP8 PUSH2 0x1062 JUMP JUMPDEST SWAP5 PUSH2 0x137E DUP10 SLOAD DUP1 SWAP8 PUSH2 0x10AB JUMP JUMPDEST SWAP3 PUSH1 0x1 OR ISZERO PUSH2 0x1075 JUMPI PUSH2 0x1392 PUSH1 0x1 SWAP7 PUSH2 0x108B JUMP JUMPDEST SWAP3 DUP1 PUSH2 0x13B4 JUMPI JUMPDEST POP DUP3 ISZERO PUSH2 0x1359 JUMPI PUSH2 0x13AB SWAP4 SLOAD AND PUSH2 0x11C4 JUMP JUMPDEST CODESIZE DUP1 DUP1 DUP1 PUSH2 0x1359 JUMP JUMPDEST PUSH2 0x13C3 SWAP1 DUP4 DUP4 PUSH1 0x2 SLOAD AND PUSH2 0x11C4 JUMP JUMPDEST CODESIZE PUSH2 0x1399 JUMP JUMPDEST POP PUSH32 0x49D512BF9CB224241C05691E73EB9FAB078CF350C7DBCBCF66788F1FC0CC8B0B SWAP2 SWAP3 POP PUSH1 0x40 SWAP1 DUP2 MLOAD SWAP1 DUP2 MSTORE PUSH1 0x0 PUSH1 0x20 DUP3 ADD MSTORE LOG1 JUMP JUMPDEST PUSH1 0x0 SLOAD PUSH1 0x1 PUSH1 0x1 PUSH1 0xA0 SHL SUB AND CALLER SUB PUSH2 0x1414 JUMPI JUMP JUMPDEST PUSH1 0x40 MLOAD PUSH4 0x118CDAA7 PUSH1 0xE0 SHL DUP2 MSTORE CALLER PUSH1 0x4 DUP3 ADD MSTORE PUSH1 0x24 SWAP1 REVERT JUMPDEST PUSH1 0x2 PUSH1 0x1 SLOAD EQ PUSH2 0x143D JUMPI PUSH1 0x2 PUSH1 0x1 SSTORE JUMP JUMPDEST PUSH1 0x40 MLOAD PUSH4 0x3EE5AEB5 PUSH1 0xE0 SHL DUP2 MSTORE PUSH1 0x4 SWAP1 REVERT INVALID LOG2 PUSH5 0x6970667358 0x22 SLT KECCAK256 DUP11 0xB4 SELFBALANCE 0x27 PREVRANDAO 0x4E EXTCODESIZE CREATE PUSH19 0xE0E3B4C1DF34AFA703870E935B4EAC282958BD DUP2 CALLER 0xA5 PUSH3 0x64736F PUSH13 0x63430008190033000000000000 "},"methodIdentifiers":{"DECIMALS()":"2e0f2625","FEE_RATE_DIVIDER()":"0fa40a12","addLiquidity(uint256,uint256)":"9cd441da","feeRate()":"978bbdb9","getLpShares(address)":"d464017a","getTonReserve()":"01835139","getTotalShares()":"d5002f2e","getWstonReserve()":"1bbc46ac","lpAddresses(uint256)":"7cad7e7c","lpShares(address)":"c109a6dc","owner()":"8da5cb5b","removeLiquidity(uint256)":"9c8f9f23","renounceOwnership()":"715018a6","stakingIndex()":"30f50859","swapTONforWSTON(uint256)":"0d727e2b","swapWSTONforTON(uint256)":"a2681f0d","ton()":"cc48b947","tonReserve()":"38062232","totalShares()":"3a98ef39","transferOwnership(address)":"f2fde38b","treasury()":"61d027b3","updateFeeRate(uint256)":"7b84fda5","updateStakingIndex(uint256)":"caa78a86","wston()":"36b17e13","wstonReserve()":"85ffa3de"}}}}}