{"src/L2/RandomPack.sol":{"RandomPack":{"abi":[{"inputs":[{"internalType":"address","name":"coordinator","type":"address"},{"internalType":"address","name":"_ton","type":"address"},{"internalType":"address","name":"_gemFactory","type":"address"},{"internalType":"address","name":"_treasury","type":"address"},{"internalType":"uint256","name":"_randomPackFees","type":"uint256"}],"stateMutability":"nonpayable","type":"constructor"},{"inputs":[],"name":"AccessControlBadConfirmation","type":"error"},{"inputs":[{"internalType":"address","name":"account","type":"address"},{"internalType":"bytes32","name":"neededRole","type":"bytes32"}],"name":"AccessControlUnauthorizedAccount","type":"error"},{"inputs":[{"internalType":"address","name":"target","type":"address"}],"name":"AddressEmptyCode","type":"error"},{"inputs":[{"internalType":"address","name":"account","type":"address"}],"name":"AddressInsufficientBalance","type":"error"},{"inputs":[],"name":"FailedInnerCall","type":"error"},{"inputs":[{"internalType":"address","name":"have","type":"address"},{"internalType":"address","name":"want","type":"address"}],"name":"OnlyCoordinatorCanFulfill","type":"error"},{"inputs":[],"name":"ReentrancyGuardReentrantCall","type":"error"},{"inputs":[{"internalType":"address","name":"token","type":"address"}],"name":"SafeERC20FailedOperation","type":"error"},{"anonymous":false,"inputs":[],"name":"CommonGemMinted","type":"event"},{"anonymous":false,"inputs":[],"name":"CommonGemToBeMinted","type":"event"},{"anonymous":false,"inputs":[{"indexed":false,"internalType":"uint256","name":"tokenId","type":"uint256"},{"indexed":false,"internalType":"address","name":"newOwner","type":"address"}],"name":"RandomGemToBeTransferred","type":"event"},{"anonymous":false,"inputs":[{"indexed":false,"internalType":"uint256","name":"tokenId","type":"uint256"},{"indexed":false,"internalType":"address","name":"newOwner","type":"address"}],"name":"RandomGemTransferred","type":"event"},{"anonymous":false,"inputs":[{"indexed":true,"internalType":"bytes32","name":"role","type":"bytes32"},{"indexed":true,"internalType":"bytes32","name":"previousAdminRole","type":"bytes32"},{"indexed":true,"internalType":"bytes32","name":"newAdminRole","type":"bytes32"}],"name":"RoleAdminChanged","type":"event"},{"anonymous":false,"inputs":[{"indexed":true,"internalType":"bytes32","name":"role","type":"bytes32"},{"indexed":true,"internalType":"address","name":"account","type":"address"},{"indexed":true,"internalType":"address","name":"sender","type":"address"}],"name":"RoleGranted","type":"event"},{"anonymous":false,"inputs":[{"indexed":true,"internalType":"bytes32","name":"role","type":"bytes32"},{"indexed":true,"internalType":"address","name":"account","type":"address"},{"indexed":true,"internalType":"address","name":"sender","type":"address"}],"name":"RoleRevoked","type":"event"},{"inputs":[],"name":"ADMIN_ROLE","outputs":[{"internalType":"bytes32","name":"","type":"bytes32"}],"stateMutability":"view","type":"function"},{"inputs":[],"name":"DEFAULT_ADMIN_ROLE","outputs":[{"internalType":"bytes32","name":"","type":"bytes32"}],"stateMutability":"view","type":"function"},{"inputs":[],"name":"PAUSE_ROLE","outputs":[{"internalType":"bytes32","name":"","type":"bytes32"}],"stateMutability":"view","type":"function"},{"inputs":[{"internalType":"address","name":"account","type":"address"}],"name":"addAdmin","outputs":[],"stateMutability":"nonpayable","type":"function"},{"inputs":[{"internalType":"address","name":"account","type":"address"}],"name":"addPauser","outputs":[],"stateMutability":"nonpayable","type":"function"},{"inputs":[],"name":"callbackGasLimit","outputs":[{"internalType":"uint32","name":"","type":"uint32"}],"stateMutability":"view","type":"function"},{"inputs":[{"internalType":"uint256","name":"requestId","type":"uint256"}],"name":"collectRandomGem","outputs":[],"stateMutability":"nonpayable","type":"function"},{"inputs":[],"name":"getDrbCoordinatorAddress","outputs":[{"internalType":"address","name":"","type":"address"}],"stateMutability":"view","type":"function"},{"inputs":[],"name":"getGemFactoryAddress","outputs":[{"internalType":"address","name":"","type":"address"}],"stateMutability":"view","type":"function"},{"inputs":[],"name":"getRandomGem","outputs":[{"internalType":"uint256","name":"","type":"uint256"}],"stateMutability":"payable","type":"function"},{"inputs":[{"internalType":"bytes32","name":"role","type":"bytes32"}],"name":"getRoleAdmin","outputs":[{"internalType":"bytes32","name":"","type":"bytes32"}],"stateMutability":"view","type":"function"},{"inputs":[],"name":"getTonAddress","outputs":[{"internalType":"address","name":"","type":"address"}],"stateMutability":"view","type":"function"},{"inputs":[],"name":"getTreasuryAddress","outputs":[{"internalType":"address","name":"","type":"address"}],"stateMutability":"view","type":"function"},{"inputs":[{"internalType":"bytes32","name":"role","type":"bytes32"},{"internalType":"address","name":"account","type":"address"}],"name":"grantRole","outputs":[],"stateMutability":"nonpayable","type":"function"},{"inputs":[{"internalType":"bytes32","name":"role","type":"bytes32"},{"internalType":"address","name":"account","type":"address"}],"name":"hasRole","outputs":[{"internalType":"bool","name":"","type":"bool"}],"stateMutability":"view","type":"function"},{"inputs":[{"internalType":"address","name":"account","type":"address"}],"name":"isAdmin","outputs":[{"internalType":"bool","name":"","type":"bool"}],"stateMutability":"view","type":"function"},{"inputs":[],"name":"isOwner","outputs":[{"internalType":"bool","name":"","type":"bool"}],"stateMutability":"view","type":"function"},{"inputs":[{"internalType":"address","name":"","type":"address"},{"internalType":"address","name":"","type":"address"},{"internalType":"uint256","name":"","type":"uint256"},{"internalType":"bytes","name":"","type":"bytes"}],"name":"onERC721Received","outputs":[{"internalType":"bytes4","name":"","type":"bytes4"}],"stateMutability":"pure","type":"function"},{"inputs":[],"name":"perfectCommonGemURI","outputs":[{"internalType":"string","name":"","type":"string"}],"stateMutability":"view","type":"function"},{"inputs":[],"name":"randomPackFees","outputs":[{"internalType":"uint256","name":"","type":"uint256"}],"stateMutability":"view","type":"function"},{"inputs":[{"internalType":"uint256","name":"requestId","type":"uint256"},{"internalType":"uint256","name":"randomWord","type":"uint256"}],"name":"rawFulfillRandomWords","outputs":[],"stateMutability":"nonpayable","type":"function"},{"inputs":[{"internalType":"address","name":"account","type":"address"}],"name":"removeAdmin","outputs":[],"stateMutability":"nonpayable","type":"function"},{"inputs":[{"internalType":"address","name":"account","type":"address"}],"name":"removePauser","outputs":[],"stateMutability":"nonpayable","type":"function"},{"inputs":[],"name":"renounceOwnership","outputs":[],"stateMutability":"nonpayable","type":"function"},{"inputs":[{"internalType":"bytes32","name":"role","type":"bytes32"},{"internalType":"address","name":"callerConfirmation","type":"address"}],"name":"renounceRole","outputs":[],"stateMutability":"nonpayable","type":"function"},{"inputs":[],"name":"requestCount","outputs":[{"internalType":"uint256","name":"","type":"uint256"}],"stateMutability":"view","type":"function"},{"inputs":[{"internalType":"bytes32","name":"role","type":"bytes32"},{"internalType":"address","name":"account","type":"address"}],"name":"revokeRole","outputs":[],"stateMutability":"nonpayable","type":"function"},{"inputs":[{"internalType":"uint256","name":"","type":"uint256"}],"name":"s_requests","outputs":[{"internalType":"bool","name":"requested","type":"bool"},{"internalType":"bool","name":"fulfilled","type":"bool"},{"internalType":"uint256","name":"randomWord","type":"uint256"},{"internalType":"uint256","name":"chosenTokenId","type":"uint256"},{"internalType":"address","name":"requester","type":"address"}],"stateMutability":"view","type":"function"},{"inputs":[{"internalType":"uint32","name":"_callbackGasLimit","type":"uint32"}],"name":"setCallbackGasLimit","outputs":[],"stateMutability":"nonpayable","type":"function"},{"inputs":[{"internalType":"address","name":"_gemFactory","type":"address"}],"name":"setGemFactory","outputs":[],"stateMutability":"nonpayable","type":"function"},{"inputs":[{"internalType":"string","name":"_tokenURI","type":"string"}],"name":"setPerfectCommonGemURI","outputs":[],"stateMutability":"nonpayable","type":"function"},{"inputs":[{"internalType":"uint256","name":"_randomPackFees","type":"uint256"}],"name":"setRandomPackFees","outputs":[],"stateMutability":"nonpayable","type":"function"},{"inputs":[{"internalType":"address","name":"_treasury","type":"address"}],"name":"setTreasury","outputs":[],"stateMutability":"nonpayable","type":"function"},{"inputs":[{"internalType":"bytes4","name":"interfaceId","type":"bytes4"}],"name":"supportsInterface","outputs":[{"internalType":"bool","name":"","type":"bool"}],"stateMutability":"view","type":"function"},{"inputs":[{"internalType":"address","name":"newAdmin","type":"address"}],"name":"transferAdmin","outputs":[],"stateMutability":"nonpayable","type":"function"},{"inputs":[{"internalType":"address","name":"newAdmin","type":"address"}],"name":"transferOwnership","outputs":[],"stateMutability":"nonpayable","type":"function"}],"evm":{"bytecode":{"linkReferences":{},"object":"60a03461018157601f611f0d38819003918201601f19168301916001600160401b038311848410176101865780849260a094604052833981010312610181576100478161019c565b906100546020820161019c565b906100616040820161019c565b9060806100706060830161019c565b910151916001946000946001865560018060a01b0380809316948560805260ff60a01b19600654166006556100a4336101b0565b508160018060a01b0319951685600354161760035516836004541617600455169060055416176005556006549160085561334560ac1b916bffffffffffffff00000000ff60a01b16171760065560095490600182811c92168015610177575b602083101461016357601f8211610139575b6000600955604051611ccb90816102428239608051818181610d5901526110c90152f35b60098152601f60208220920160051c8201915b8281106101595750610115565b818155830161014c565b634e487b7160e01b81526022600452602490fd5b91607f1691610103565b600080fd5b634e487b7160e01b600052604160045260246000fd5b51906001600160a01b038216820361018157565b6001600160a01b031660008181527fa6eef7e35abe7026729641147f7915573c7e97b47efa546f5f6e3230263bcb49602052604081205490919060ff1661023d5781805260016020526040822081835260205260408220600160ff1982541617905533917f2f8788117e7eff1d82e926ec794901d17c78024a50270940304540a733656f0d8180a4600190565b509056fe608060409080825260048036101561001657600080fd5b600091823560e01c90816301ffc9a71461156a57508063150b7a02146115005780631785f53c146114d3578063224a11a1146114aa578063248a9ca31461147f57806324d7806c1461142b57806324f746971461140357806325b5b3b2146113945780632f2ff15d1461136b57806336568abe1461132557806337ed11db146110a5578063389ed2671461107c5780635badbe4c1461105d5780636985ba4714610f625780636ae638d014610f395780636b2c0f5514610eea5780636ce1408b14610c215780636ecd19cb14610a925780637048027514610a44578063715018a614610a1f57806375829def146109f957806375b238fc146109d057806382dc1ec41461090d5780638f32d59b146108e757806391d14854146108a05780639d541be214610877578063a168fa8914610813578063a217fddf146107f8578063a2a79ac114610431578063a4eb718c146103e0578063bafc3301146103c1578063d547741f14610383578063e002460414610356578063e6147518146102ff578063f0f44260146102b45763f2fde38b146101b057600080fd5b346102b05760203660031901126102b0576101c96115be565b906101da6101d561173b565b611676565b6101e56101d561173b565b6001600160a01b0382168015610272573314610236575061022460018394600080516020611c56833981519152610229955281602052852001546117fa565b61183e565b50610233336116ce565b80f35b606490602085519162461bcd60e51b8352820152601660248201527520b1b1b2b9b9b4b136329d1039b0b6b29030b236b4b760511b6044820152fd5b845162461bcd60e51b8152602081840152601860248201527741636365737369626c653a207a65726f206164647265737360401b6044820152606490fd5b5080fd5b50346102b05760203660031901126102b0576102ce6115be565b6102d96101d561173b565b6001600160a01b03166102ed8115156117bc565b81546001600160a01b03191617905580f35b8234610353576020366003190112610353576103196115be565b6103246101d561173b565b600354906001600160a01b039061033e82841615156117bc565b6001600160a01b031990921691161760035580f35b80fd5b5082903461037f578260031936011261037f575490516001600160a01b03909116815260209150f35b8280fd5b50823461037f578060031936011261037f576103bd91356103b860016103a76115d4565b9383875281602052862001546117fa565b611b4d565b5080f35b8284346102b057816003193601126102b0576020906008549051908152f35b50346102b05760203660031901126102b0573563ffffffff811681036102b05761040b6101d561173b565b6006805463ffffffff60a81b191660a89290921b63ffffffff60a81b1691909117905580f35b50823461037f57602091826003193601126107f45780359260ff9361045e60ff60065460a01c16156116fc565b8086526002808352848720600301546001600160a01b039691949190871633036107b75782885284845260018060ff888b205460081c16151503610775578389528585528689208601541561057a5750508281876104e8935416848a52868352878a208a888b600384015416920154938a519687958694859363048dbcef60e41b85528401611788565b03925af1801561057057927f5ea50d72ed96185eb6f31884978fae6836ea30ba583e3fb7c32b66135514723c9692859261053d95610543575b50885252600384872093840154930154169251928392836117a3565b0390a180f35b61056290833d8511610569575b61055a8183611624565b810190611770565b5089610521565b503d610550565b85513d89823e3d90fd5b8783949796929598935416908651958787016001600160401b0390888110828211176107605789528b88528b8b89015288519060808201908282109082111761076057928c928c959299948b52818a5281868b0152818b8b01528160608b01528a51998a9563912b431b60e01b8752858b8801526024870186905b8a821061073957505050606486019085915b8b831061071457505050505061012491839161010060e4840152816101048401525af193841561070a5790879493929189946106d0575b50839061066f978a52808652868a2001558154169087855180978195829463048dbcef60e41b845233908401611788565b03925af19081156106c757506106a9575b50507fdd20b2dff2d53ef41435ad0074aea6e1ce693777fcc9ea8e76c76a8f3607dd218180a180f35b816106bf92903d106105695761055a8183611624565b508180610680565b513d85823e3d90fd5b8581969295503d8311610703575b6106e88183611624565b810103126106fe5792518693909261066f61063e565b600080fd5b503d6106de565b85513d8a823e3d90fd5b84975083828a94979a9396959850511681520192019201928d938d96938b9693610607565b859850848a93809795989b93969950511681520193019101928e94918e97948c97946105f5565b604188634e487b7160e01b6000525260246000fd5b865162461bcd60e51b8152808401869052601c60248201527b1c985b991bdb481ddbdc99081a5cc81b9bdd08199d5b1b199a5b195960221b6044820152606490fd5b855162461bcd60e51b815280830185905260176024820152763737ba103a3432903934b3b43a103932b8bab2b9ba32b960491b6044820152606490fd5b8380fd5b8284346102b057816003193601126102b05751908152602090f35b5082903461037f57602036600319011261037f5760a09282913581526002602052209081549160018101546002820154916003600180881b03910154169260ff8151958181161515875260081c161515602086015284015260608301526080820152f35b8284346102b057816003193601126102b05760035490516001600160a01b039091168152602090f35b5082903461037f578160031936011261037f57816020936108bf6115d4565b9235815260018552209060018060a01b0316600052825260ff81600020541690519015158152f35b8284346102b057816003193601126102b05760209061090461173b565b90519015158152f35b50346102b05760203660031901126102b0576109276115be565b90600080516020611c56833981519152835260016020528383203360005260205260ff84600020541680156109c2575b1561098a575061098560018394600080516020611c368339815191526103bd955281602052852001546117fa565b6118cd565b606490602085519162461bcd60e51b835282015260126024820152713737ba1027bbb732b91037b91020b236b4b760711b6044820152fd5b506109cb61173b565b610957565b8284346102b057816003193601126102b05760209051600080516020611c568339815191528152f35b50346102b05760203660031901126102b057610a136115be565b906101e56101d561173b565b8234610353578060031936011261035357610a3b6101d561173b565b6103bd33611a48565b8284346102b05760203660031901126102b0576103bd906102246001610a686115be565b92610a746101d561173b565b600080516020611c56833981519152865281602052852001546117fa565b50346102b05760208060031936011261037f576001600160401b03918035838111610c1d5736602382011215610c1d578082013590610adc610ad38361165b565b97519788611624565b8187523660248383010111610c19578186926024869301838a013787010152610b066101d561173b565b8451928311610c065750610b1b6009546115ea565b601f8111610bc2575b5080601f8311600114610b5f57508293829392610b54575b50508160011b916000199060031b1c19161760095580f35b015190503880610b3c565b90601f19831694600985528285209285905b878210610baa575050836001959610610b91575b505050811b0160095580f35b015160001960f88460031b161c19169055388080610b85565b80600185968294968601518155019501930190610b71565b60098452818420601f840160051c810191838510610bfc575b601f0160051c01905b818110610bf15750610b24565b848155600101610be4565b9091508190610bdb565b634e487b7160e01b845260419052602483fd5b8580fd5b8480fd5b5091816003193601126102b057610c4060ff60065460a01c16156116fc565b6002825414610edb57600282553315610ea15760018060a01b03918260055416936008549083516020968782016323b872dd60e01b8152602494338685015230604485015260648401526064835260a08301926001600160401b039381811085821117610e5b57885251610ce3918791829182865af13d15610e99573d90610cc78261165b565b91610cd48a519384611624565b82523d888c84013e5b83611bb2565b805190898215159283610e80575b505050610e6d575063ffffffff958660065460a81c16968651976060890189811085821117610e5b57885286895289890187815289890191825288516309160b1560e11b8152995161ffff908116878c0152905116868a0152511660448801528787606481347f000000000000000000000000000000000000000000000000000000000000000086165af1968715610e22578597610e2c575b50868552600288526003868620600160ff19825416178155013360018060a01b031982541617905560016007540160075560065416803b15610c1d57908484939281958851809781936324adeca760e11b83528c888401525af18015610e2257610dfd575b505050506001905551908152f35b8311610e1157505082526001388080610def565b634e487b7160e01b84526041905282fd5b86513d87823e3d90fd5b9096508781813d8311610e54575b610e448183611624565b81010312610c1d57519538610d8a565b503d610e3a565b634e487b7160e01b8852604186528688fd5b8551635274afe760e01b81529283015250fd5b610e909350820181019101611770565b15388981610cf1565b606090610cdd565b5162461bcd60e51b815260208184015260156024820152741859191c995cdcc80c081b9bdd08185b1b1bddd959605a1b6044820152606490fd5b51633ee5aeb560e01b81529050fd5b5082903461037f57602036600319011261037f57610f066115be565b91610f126101d561173b565b336001600160a01b03841603610f2c57836103bd846119c0565b5163334bd91960e11b8152fd5b8284346102b057816003193601126102b05760055490516001600160a01b039091168152602090f35b8284346102b057816003193601126102b05780518260095482610f84826115ea565b95868252602096879360019060018116908160001461103c5750600114610ffe575b5050610fb89250959392950382611624565b82519382859384528251928382860152825b848110610fe857505050828201840152601f01601f19168101030190f35b8181018301518882018801528795508201610fca565b600986528486209492508591905b818310611024575088945050820101610fb888610fa6565b8554888401850152948501948794509183019161100c565b915050610fb894925060ff191682840152151560051b820101869288610fa6565b8284346102b057816003193601126102b0576020906007549051908152f35b8284346102b057816003193601126102b05760209051600080516020611c368339815191528152f35b5091346102b057806003193601126102b0576001600160a01b0392803590602480357f0000000000000000000000000000000000000000000000000000000000000000871633819003611308575083865260029260209284845260ff8789205416156112d357858852848452826001888a2061010061ff0019825416178155015581888a60035416895192838092637f54868160e11b82525afa9384156112c95789918a95611213575b508115806111d9576111c757069183518310156111b65750509280837fb0af079a2fe2f9cb55edfa571fc822d68f92e17d7d4df64bb98aeb067e02c84098999460039461053d9760051b010151968a525284868920918201550154169251928392836117a3565b634e487b7160e01b89526032905287fd5b634e487b7160e01b8a5260128452828afd5b505050505050849550819392855252822001557f33e073f01a1bf838bf4806259ac82ec45d5b87e439f328d646e6d648f291a42e8180a180f35b915093503d808a833e6112268183611624565b810188828203126112c557815190868301516001600160401b03938482116112ab570181601f820112156112c15780519384116112af578360051b908b51946112718a840187611624565b855288808601928201019283116112ab5788809101915b83831061129b575050505090933861114f565b8251815291810191899101611288565b8c80fd5b634e487b7160e01b8c5260418652848cfd5b8b80fd5b8980fd5b88513d8b823e3d90fd5b865162461bcd60e51b81529182018490526010908201526f52657175657374206e6f74206d61646560801b6044820152606490fd5b855163073e64fd60e21b8152338186015280840191909152604490fd5b5091346102b057806003193601126102b05761133f6115d4565b90336001600160a01b0383160361135c57506103bd919235611b4d565b5163334bd91960e11b81528390fd5b50823461037f578060031936011261037f576103bd913561138f60016103a76115d4565b611957565b50823461037f57602036600319011261037f576113b26101d561173b565b600854156113c257503560085580f35b906020606492519162461bcd60e51b8352820152601b60248201527a066656573206d7573742062652067726561746572207468616e203602c1b6044820152fd5b8284346102b057816003193601126102b05760209063ffffffff60065460a81c169051908152f35b8284346102b05760203660031901126102b05760ff8160209361144c6115be565b600080516020611c568339815191528252600186528282206001600160a01b039091168252855220549151911615158152f35b5082903461037f57602036600319011261037f57816020936001923581528285522001549051908152f35b8284346102b057816003193601126102b05760065490516001600160a01b039091168152602090f35b8234610353576020366003190112610353576102336114f06115be565b6114fb6101d561173b565b6116ce565b5082903461037f57608036600319011261037f5761151c6115be565b506115256115d4565b50606435906001600160401b0390818311610c1d5736602384011215610c1d578201359081116107f457369101602401116102b05751630a85bd0160e11b8152602090f35b9190503461037f57602036600319011261037f573563ffffffff60e01b811680910361037f5760209250637965db0b60e01b81149081156115ad575b5015158152f35b6301ffc9a760e01b149050836115a6565b600435906001600160a01b03821682036106fe57565b602435906001600160a01b03821682036106fe57565b90600182811c9216801561161a575b602083101461160457565b634e487b7160e01b600052602260045260246000fd5b91607f16916115f9565b90601f801991011681019081106001600160401b0382111761164557604052565b634e487b7160e01b600052604160045260246000fd5b6001600160401b03811161164557601f01601f191660200190565b1561167d57565b60405162461bcd60e51b8152602060048201526024808201527f41757468436f6e74726f6c3a2043616c6c6572206973206e6f7420746865206f6044820152633bb732b960e11b6064820152608490fd5b336001600160a01b038216036116ea576116e790611ac5565b50565b60405163334bd91960e11b8152600490fd5b1561170357565b60405162461bcd60e51b815260206004820152601060248201526f14185d5cd8589b194e881c185d5cd95960821b6044820152606490fd5b3360009081527fa6eef7e35abe7026729641147f7915573c7e97b47efa546f5f6e3230263bcb49602052604090205460ff1690565b908160209103126106fe575180151581036106fe5790565b6001600160a01b039091168152602081019190915260400190565b9081526001600160a01b03909116602082015260400190565b156117c357565b60405162461bcd60e51b815260206004820152600f60248201526e496e76616c6964206164647265737360881b6044820152606490fd5b80600052600160205260406000203360005260205260ff60406000205416156118205750565b6044906040519063e2517d3f60e01b82523360048301526024820152fd5b6001600160a01b031660008181527fd52cfefb3f6fd7766669e08a03d2ceb3243383019e3a5fed2a519df30ee55b926020526040812054909190600080516020611c568339815191529060ff166118c85780835260016020526040832082845260205260408320600160ff19825416179055600080516020611c16833981519152339380a4600190565b505090565b6001600160a01b031660008181527fe1a43b5771e30cf668ec0dc18c42d6714aff29cbb9ec47bd8eb0b81d4a8bcc146020526040812054909190600080516020611c368339815191529060ff166118c85780835260016020526040832082845260205260408320600160ff19825416179055600080516020611c16833981519152339380a4600190565b906000918083526001602052604083209160018060a01b03169182845260205260ff604084205416156000146118c85780835260016020526040832082845260205260408320600160ff19825416179055600080516020611c16833981519152339380a4600190565b6001600160a01b031660008181527fe1a43b5771e30cf668ec0dc18c42d6714aff29cbb9ec47bd8eb0b81d4a8bcc146020526040812054909190600080516020611c368339815191529060ff16156118c8578083526001602052604083208284526020526040832060ff198154169055600080516020611c76833981519152339380a4600190565b6001600160a01b031660008181527fa6eef7e35abe7026729641147f7915573c7e97b47efa546f5f6e3230263bcb49602052604081205490919060ff1615611ac1578180526001602052604082208183526020526040822060ff1981541690553391600080516020611c768339815191528180a4600190565b5090565b6001600160a01b031660008181527fd52cfefb3f6fd7766669e08a03d2ceb3243383019e3a5fed2a519df30ee55b926020526040812054909190600080516020611c568339815191529060ff16156118c8578083526001602052604083208284526020526040832060ff198154169055600080516020611c76833981519152339380a4600190565b906000918083526001602052604083209160018060a01b03169182845260205260ff6040842054166000146118c8578083526001602052604083208284526020526040832060ff198154169055600080516020611c76833981519152339380a4600190565b90611bd95750805115611bc757805190602001fd5b604051630a12f52160e11b8152600490fd5b81511580611c0c575b611bea575090565b604051639996b31560e01b81526001600160a01b039091166004820152602490fd5b50803b15611be256fe2f8788117e7eff1d82e926ec794901d17c78024a50270940304540a733656f0dfcb9fcbfa83b897fb2d5cf4b58962164105c1e71489a37ef3ae0db3fdce576f6df8b4c520ffe197c5343c6f5aec59570151ef9a492f2c624fd45ddde6135ec42f6391f5c32d9c69d2a47ea670b442974b53935d1edc7fd64eb21e047a839171ba264697066735822122002781c30e5ea0e1272ff2034600167268a9477c7cb71cb0ec3e18401c4c02a5c64736f6c63430008190033","opcodes":"PUSH1 0xA0 CALLVALUE PUSH2 0x181 JUMPI PUSH1 0x1F PUSH2 0x1F0D CODESIZE DUP2 SWAP1 SUB SWAP2 DUP3 ADD PUSH1 0x1F NOT AND DUP4 ADD SWAP2 PUSH1 0x1 PUSH1 0x1 PUSH1 0x40 SHL SUB DUP4 GT DUP5 DUP5 LT OR PUSH2 0x186 JUMPI DUP1 DUP5 SWAP3 PUSH1 0xA0 SWAP5 PUSH1 0x40 MSTORE DUP4 CODECOPY DUP2 ADD SUB SLT PUSH2 0x181 JUMPI PUSH2 0x47 DUP2 PUSH2 0x19C JUMP JUMPDEST SWAP1 PUSH2 0x54 PUSH1 0x20 DUP3 ADD PUSH2 0x19C JUMP JUMPDEST SWAP1 PUSH2 0x61 PUSH1 0x40 DUP3 ADD PUSH2 0x19C JUMP JUMPDEST SWAP1 PUSH1 0x80 PUSH2 0x70 PUSH1 0x60 DUP4 ADD PUSH2 0x19C JUMP JUMPDEST SWAP2 ADD MLOAD SWAP2 PUSH1 0x1 SWAP5 PUSH1 0x0 SWAP5 PUSH1 0x1 DUP7 SSTORE PUSH1 0x1 DUP1 PUSH1 0xA0 SHL SUB DUP1 DUP1 SWAP4 AND SWAP5 DUP6 PUSH1 0x80 MSTORE PUSH1 0xFF PUSH1 0xA0 SHL NOT PUSH1 0x6 SLOAD AND PUSH1 0x6 SSTORE PUSH2 0xA4 CALLER PUSH2 0x1B0 JUMP JUMPDEST POP DUP2 PUSH1 0x1 DUP1 PUSH1 0xA0 SHL SUB NOT SWAP6 AND DUP6 PUSH1 0x3 SLOAD AND OR PUSH1 0x3 SSTORE AND DUP4 PUSH1 0x4 SLOAD AND OR PUSH1 0x4 SSTORE AND SWAP1 PUSH1 0x5 SLOAD AND OR PUSH1 0x5 SSTORE PUSH1 0x6 SLOAD SWAP2 PUSH1 0x8 SSTORE PUSH2 0x3345 PUSH1 0xAC SHL SWAP2 PUSH12 0xFFFFFFFFFFFFFF00000000FF PUSH1 0xA0 SHL AND OR OR PUSH1 0x6 SSTORE PUSH1 0x9 SLOAD SWAP1 PUSH1 0x1 DUP3 DUP2 SHR SWAP3 AND DUP1 ISZERO PUSH2 0x177 JUMPI JUMPDEST PUSH1 0x20 DUP4 LT EQ PUSH2 0x163 JUMPI PUSH1 0x1F DUP3 GT PUSH2 0x139 JUMPI JUMPDEST PUSH1 0x0 PUSH1 0x9 SSTORE PUSH1 0x40 MLOAD PUSH2 0x1CCB SWAP1 DUP2 PUSH2 0x242 DUP3 CODECOPY PUSH1 0x80 MLOAD DUP2 DUP2 DUP2 PUSH2 0xD59 ADD MSTORE PUSH2 0x10C9 ADD MSTORE RETURN JUMPDEST PUSH1 0x9 DUP2 MSTORE PUSH1 0x1F PUSH1 0x20 DUP3 KECCAK256 SWAP3 ADD PUSH1 0x5 SHR DUP3 ADD SWAP2 JUMPDEST DUP3 DUP2 LT PUSH2 0x159 JUMPI POP PUSH2 0x115 JUMP JUMPDEST DUP2 DUP2 SSTORE DUP4 ADD PUSH2 0x14C JUMP JUMPDEST PUSH4 0x4E487B71 PUSH1 0xE0 SHL DUP2 MSTORE PUSH1 0x22 PUSH1 0x4 MSTORE PUSH1 0x24 SWAP1 REVERT JUMPDEST SWAP2 PUSH1 0x7F AND SWAP2 PUSH2 0x103 JUMP JUMPDEST PUSH1 0x0 DUP1 REVERT JUMPDEST PUSH4 0x4E487B71 PUSH1 0xE0 SHL PUSH1 0x0 MSTORE PUSH1 0x41 PUSH1 0x4 MSTORE PUSH1 0x24 PUSH1 0x0 REVERT JUMPDEST MLOAD SWAP1 PUSH1 0x1 PUSH1 0x1 PUSH1 0xA0 SHL SUB DUP3 AND DUP3 SUB PUSH2 0x181 JUMPI JUMP JUMPDEST PUSH1 0x1 PUSH1 0x1 PUSH1 0xA0 SHL SUB AND PUSH1 0x0 DUP2 DUP2 MSTORE PUSH32 0xA6EEF7E35ABE7026729641147F7915573C7E97B47EFA546F5F6E3230263BCB49 PUSH1 0x20 MSTORE PUSH1 0x40 DUP2 KECCAK256 SLOAD SWAP1 SWAP2 SWAP1 PUSH1 0xFF AND PUSH2 0x23D JUMPI DUP2 DUP1 MSTORE PUSH1 0x1 PUSH1 0x20 MSTORE PUSH1 0x40 DUP3 KECCAK256 DUP2 DUP4 MSTORE PUSH1 0x20 MSTORE PUSH1 0x40 DUP3 KECCAK256 PUSH1 0x1 PUSH1 0xFF NOT DUP3 SLOAD AND OR SWAP1 SSTORE CALLER SWAP2 PUSH32 0x2F8788117E7EFF1D82E926EC794901D17C78024A50270940304540A733656F0D DUP2 DUP1 LOG4 PUSH1 0x1 SWAP1 JUMP JUMPDEST POP SWAP1 JUMP INVALID PUSH1 0x80 PUSH1 0x40 SWAP1 DUP1 DUP3 MSTORE PUSH1 0x4 DUP1 CALLDATASIZE LT ISZERO PUSH2 0x16 JUMPI PUSH1 0x0 DUP1 REVERT JUMPDEST PUSH1 0x0 SWAP2 DUP3 CALLDATALOAD PUSH1 0xE0 SHR SWAP1 DUP2 PUSH4 0x1FFC9A7 EQ PUSH2 0x156A JUMPI POP DUP1 PUSH4 0x150B7A02 EQ PUSH2 0x1500 JUMPI DUP1 PUSH4 0x1785F53C EQ PUSH2 0x14D3 JUMPI DUP1 PUSH4 0x224A11A1 EQ PUSH2 0x14AA JUMPI DUP1 PUSH4 0x248A9CA3 EQ PUSH2 0x147F JUMPI DUP1 PUSH4 0x24D7806C EQ PUSH2 0x142B JUMPI DUP1 PUSH4 0x24F74697 EQ PUSH2 0x1403 JUMPI DUP1 PUSH4 0x25B5B3B2 EQ PUSH2 0x1394 JUMPI DUP1 PUSH4 0x2F2FF15D EQ PUSH2 0x136B JUMPI DUP1 PUSH4 0x36568ABE EQ PUSH2 0x1325 JUMPI DUP1 PUSH4 0x37ED11DB EQ PUSH2 0x10A5 JUMPI DUP1 PUSH4 0x389ED267 EQ PUSH2 0x107C JUMPI DUP1 PUSH4 0x5BADBE4C EQ PUSH2 0x105D JUMPI DUP1 PUSH4 0x6985BA47 EQ PUSH2 0xF62 JUMPI DUP1 PUSH4 0x6AE638D0 EQ PUSH2 0xF39 JUMPI DUP1 PUSH4 0x6B2C0F55 EQ PUSH2 0xEEA JUMPI DUP1 PUSH4 0x6CE1408B EQ PUSH2 0xC21 JUMPI DUP1 PUSH4 0x6ECD19CB EQ PUSH2 0xA92 JUMPI DUP1 PUSH4 0x70480275 EQ PUSH2 0xA44 JUMPI DUP1 PUSH4 0x715018A6 EQ PUSH2 0xA1F JUMPI DUP1 PUSH4 0x75829DEF EQ PUSH2 0x9F9 JUMPI DUP1 PUSH4 0x75B238FC EQ PUSH2 0x9D0 JUMPI DUP1 PUSH4 0x82DC1EC4 EQ PUSH2 0x90D JUMPI DUP1 PUSH4 0x8F32D59B EQ PUSH2 0x8E7 JUMPI DUP1 PUSH4 0x91D14854 EQ PUSH2 0x8A0 JUMPI DUP1 PUSH4 0x9D541BE2 EQ PUSH2 0x877 JUMPI DUP1 PUSH4 0xA168FA89 EQ PUSH2 0x813 JUMPI DUP1 PUSH4 0xA217FDDF EQ PUSH2 0x7F8 JUMPI DUP1 PUSH4 0xA2A79AC1 EQ PUSH2 0x431 JUMPI DUP1 PUSH4 0xA4EB718C EQ PUSH2 0x3E0 JUMPI DUP1 PUSH4 0xBAFC3301 EQ PUSH2 0x3C1 JUMPI DUP1 PUSH4 0xD547741F EQ PUSH2 0x383 JUMPI DUP1 PUSH4 0xE0024604 EQ PUSH2 0x356 JUMPI DUP1 PUSH4 0xE6147518 EQ PUSH2 0x2FF JUMPI DUP1 PUSH4 0xF0F44260 EQ PUSH2 0x2B4 JUMPI PUSH4 0xF2FDE38B EQ PUSH2 0x1B0 JUMPI PUSH1 0x0 DUP1 REVERT JUMPDEST CALLVALUE PUSH2 0x2B0 JUMPI PUSH1 0x20 CALLDATASIZE PUSH1 0x3 NOT ADD SLT PUSH2 0x2B0 JUMPI PUSH2 0x1C9 PUSH2 0x15BE JUMP JUMPDEST SWAP1 PUSH2 0x1DA PUSH2 0x1D5 PUSH2 0x173B JUMP JUMPDEST PUSH2 0x1676 JUMP JUMPDEST PUSH2 0x1E5 PUSH2 0x1D5 PUSH2 0x173B JUMP JUMPDEST PUSH1 0x1 PUSH1 0x1 PUSH1 0xA0 SHL SUB DUP3 AND DUP1 ISZERO PUSH2 0x272 JUMPI CALLER EQ PUSH2 0x236 JUMPI POP PUSH2 0x224 PUSH1 0x1 DUP4 SWAP5 PUSH1 0x0 DUP1 MLOAD PUSH1 0x20 PUSH2 0x1C56 DUP4 CODECOPY DUP2 MLOAD SWAP2 MSTORE PUSH2 0x229 SWAP6 MSTORE DUP2 PUSH1 0x20 MSTORE DUP6 KECCAK256 ADD SLOAD PUSH2 0x17FA JUMP JUMPDEST PUSH2 0x183E JUMP JUMPDEST POP PUSH2 0x233 CALLER PUSH2 0x16CE JUMP JUMPDEST DUP1 RETURN JUMPDEST PUSH1 0x64 SWAP1 PUSH1 0x20 DUP6 MLOAD SWAP2 PUSH3 0x461BCD PUSH1 0xE5 SHL DUP4 MSTORE DUP3 ADD MSTORE PUSH1 0x16 PUSH1 0x24 DUP3 ADD MSTORE PUSH22 0x20B1B1B2B9B9B4B136329D1039B0B6B29030B236B4B7 PUSH1 0x51 SHL PUSH1 0x44 DUP3 ADD MSTORE REVERT JUMPDEST DUP5 MLOAD PUSH3 0x461BCD PUSH1 0xE5 SHL DUP2 MSTORE PUSH1 0x20 DUP2 DUP5 ADD MSTORE PUSH1 0x18 PUSH1 0x24 DUP3 ADD MSTORE PUSH24 0x41636365737369626C653A207A65726F2061646472657373 PUSH1 0x40 SHL PUSH1 0x44 DUP3 ADD MSTORE PUSH1 0x64 SWAP1 REVERT JUMPDEST POP DUP1 REVERT JUMPDEST POP CALLVALUE PUSH2 0x2B0 JUMPI PUSH1 0x20 CALLDATASIZE PUSH1 0x3 NOT ADD SLT PUSH2 0x2B0 JUMPI PUSH2 0x2CE PUSH2 0x15BE JUMP JUMPDEST PUSH2 0x2D9 PUSH2 0x1D5 PUSH2 0x173B JUMP JUMPDEST PUSH1 0x1 PUSH1 0x1 PUSH1 0xA0 SHL SUB AND PUSH2 0x2ED DUP2 ISZERO ISZERO PUSH2 0x17BC JUMP JUMPDEST DUP2 SLOAD PUSH1 0x1 PUSH1 0x1 PUSH1 0xA0 SHL SUB NOT AND OR SWAP1 SSTORE DUP1 RETURN JUMPDEST DUP3 CALLVALUE PUSH2 0x353 JUMPI PUSH1 0x20 CALLDATASIZE PUSH1 0x3 NOT ADD SLT PUSH2 0x353 JUMPI PUSH2 0x319 PUSH2 0x15BE JUMP JUMPDEST PUSH2 0x324 PUSH2 0x1D5 PUSH2 0x173B JUMP JUMPDEST PUSH1 0x3 SLOAD SWAP1 PUSH1 0x1 PUSH1 0x1 PUSH1 0xA0 SHL SUB SWAP1 PUSH2 0x33E DUP3 DUP5 AND ISZERO ISZERO PUSH2 0x17BC JUMP JUMPDEST PUSH1 0x1 PUSH1 0x1 PUSH1 0xA0 SHL SUB NOT SWAP1 SWAP3 AND SWAP2 AND OR PUSH1 0x3 SSTORE DUP1 RETURN JUMPDEST DUP1 REVERT JUMPDEST POP DUP3 SWAP1 CALLVALUE PUSH2 0x37F JUMPI DUP3 PUSH1 0x3 NOT CALLDATASIZE ADD SLT PUSH2 0x37F JUMPI SLOAD SWAP1 MLOAD PUSH1 0x1 PUSH1 0x1 PUSH1 0xA0 SHL SUB SWAP1 SWAP2 AND DUP2 MSTORE PUSH1 0x20 SWAP2 POP RETURN JUMPDEST DUP3 DUP1 REVERT JUMPDEST POP DUP3 CALLVALUE PUSH2 0x37F JUMPI DUP1 PUSH1 0x3 NOT CALLDATASIZE ADD SLT PUSH2 0x37F JUMPI PUSH2 0x3BD SWAP2 CALLDATALOAD PUSH2 0x3B8 PUSH1 0x1 PUSH2 0x3A7 PUSH2 0x15D4 JUMP JUMPDEST SWAP4 DUP4 DUP8 MSTORE DUP2 PUSH1 0x20 MSTORE DUP7 KECCAK256 ADD SLOAD PUSH2 0x17FA JUMP JUMPDEST PUSH2 0x1B4D JUMP JUMPDEST POP DUP1 RETURN JUMPDEST DUP3 DUP5 CALLVALUE PUSH2 0x2B0 JUMPI DUP2 PUSH1 0x3 NOT CALLDATASIZE ADD SLT PUSH2 0x2B0 JUMPI PUSH1 0x20 SWAP1 PUSH1 0x8 SLOAD SWAP1 MLOAD SWAP1 DUP2 MSTORE RETURN JUMPDEST POP CALLVALUE PUSH2 0x2B0 JUMPI PUSH1 0x20 CALLDATASIZE PUSH1 0x3 NOT ADD SLT PUSH2 0x2B0 JUMPI CALLDATALOAD PUSH4 0xFFFFFFFF DUP2 AND DUP2 SUB PUSH2 0x2B0 JUMPI PUSH2 0x40B PUSH2 0x1D5 PUSH2 0x173B JUMP JUMPDEST PUSH1 0x6 DUP1 SLOAD PUSH4 0xFFFFFFFF PUSH1 0xA8 SHL NOT AND PUSH1 0xA8 SWAP3 SWAP1 SWAP3 SHL PUSH4 0xFFFFFFFF PUSH1 0xA8 SHL AND SWAP2 SWAP1 SWAP2 OR SWAP1 SSTORE DUP1 RETURN JUMPDEST POP DUP3 CALLVALUE PUSH2 0x37F JUMPI PUSH1 0x20 SWAP2 DUP3 PUSH1 0x3 NOT CALLDATASIZE ADD SLT PUSH2 0x7F4 JUMPI DUP1 CALLDATALOAD SWAP3 PUSH1 0xFF SWAP4 PUSH2 0x45E PUSH1 0xFF PUSH1 0x6 SLOAD PUSH1 0xA0 SHR AND ISZERO PUSH2 0x16FC JUMP JUMPDEST DUP1 DUP7 MSTORE PUSH1 0x2 DUP1 DUP4 MSTORE DUP5 DUP8 KECCAK256 PUSH1 0x3 ADD SLOAD PUSH1 0x1 PUSH1 0x1 PUSH1 0xA0 SHL SUB SWAP7 SWAP2 SWAP5 SWAP2 SWAP1 DUP8 AND CALLER SUB PUSH2 0x7B7 JUMPI DUP3 DUP9 MSTORE DUP5 DUP5 MSTORE PUSH1 0x1 DUP1 PUSH1 0xFF DUP9 DUP12 KECCAK256 SLOAD PUSH1 0x8 SHR AND ISZERO ISZERO SUB PUSH2 0x775 JUMPI DUP4 DUP10 MSTORE DUP6 DUP6 MSTORE DUP7 DUP10 KECCAK256 DUP7 ADD SLOAD ISZERO PUSH2 0x57A JUMPI POP POP DUP3 DUP2 DUP8 PUSH2 0x4E8 SWAP4 SLOAD AND DUP5 DUP11 MSTORE DUP7 DUP4 MSTORE DUP8 DUP11 KECCAK256 DUP11 DUP9 DUP12 PUSH1 0x3 DUP5 ADD SLOAD AND SWAP3 ADD SLOAD SWAP4 DUP11 MLOAD SWAP7 DUP8 SWAP6 DUP7 SWAP5 DUP6 SWAP4 PUSH4 0x48DBCEF PUSH1 0xE4 SHL DUP6 MSTORE DUP5 ADD PUSH2 0x1788 JUMP JUMPDEST SUB SWAP3 GAS CALL DUP1 ISZERO PUSH2 0x570 JUMPI SWAP3 PUSH32 0x5EA50D72ED96185EB6F31884978FAE6836EA30BA583E3FB7C32B66135514723C SWAP7 SWAP3 DUP6 SWAP3 PUSH2 0x53D SWAP6 PUSH2 0x543 JUMPI JUMPDEST POP DUP9 MSTORE MSTORE PUSH1 0x3 DUP5 DUP8 KECCAK256 SWAP4 DUP5 ADD SLOAD SWAP4 ADD SLOAD AND SWAP3 MLOAD SWAP3 DUP4 SWAP3 DUP4 PUSH2 0x17A3 JUMP JUMPDEST SUB SWAP1 LOG1 DUP1 RETURN JUMPDEST PUSH2 0x562 SWAP1 DUP4 RETURNDATASIZE DUP6 GT PUSH2 0x569 JUMPI JUMPDEST PUSH2 0x55A DUP2 DUP4 PUSH2 0x1624 JUMP JUMPDEST DUP2 ADD SWAP1 PUSH2 0x1770 JUMP JUMPDEST POP DUP10 PUSH2 0x521 JUMP JUMPDEST POP RETURNDATASIZE PUSH2 0x550 JUMP JUMPDEST DUP6 MLOAD RETURNDATASIZE DUP10 DUP3 RETURNDATACOPY RETURNDATASIZE SWAP1 REVERT JUMPDEST DUP8 DUP4 SWAP5 SWAP8 SWAP7 SWAP3 SWAP6 SWAP9 SWAP4 SLOAD AND SWAP1 DUP7 MLOAD SWAP6 DUP8 DUP8 ADD PUSH1 0x1 PUSH1 0x1 PUSH1 0x40 SHL SUB SWAP1 DUP9 DUP2 LT DUP3 DUP3 GT OR PUSH2 0x760 JUMPI DUP10 MSTORE DUP12 DUP9 MSTORE DUP12 DUP12 DUP10 ADD MSTORE DUP9 MLOAD SWAP1 PUSH1 0x80 DUP3 ADD SWAP1 DUP3 DUP3 LT SWAP1 DUP3 GT OR PUSH2 0x760 JUMPI SWAP3 DUP13 SWAP3 DUP13 SWAP6 SWAP3 SWAP10 SWAP5 DUP12 MSTORE DUP2 DUP11 MSTORE DUP2 DUP7 DUP12 ADD MSTORE DUP2 DUP12 DUP12 ADD MSTORE DUP2 PUSH1 0x60 DUP12 ADD MSTORE DUP11 MLOAD SWAP10 DUP11 SWAP6 PUSH4 0x912B431B PUSH1 0xE0 SHL DUP8 MSTORE DUP6 DUP12 DUP9 ADD MSTORE PUSH1 0x24 DUP8 ADD DUP7 SWAP1 JUMPDEST DUP11 DUP3 LT PUSH2 0x739 JUMPI POP POP POP PUSH1 0x64 DUP7 ADD SWAP1 DUP6 SWAP2 JUMPDEST DUP12 DUP4 LT PUSH2 0x714 JUMPI POP POP POP POP POP PUSH2 0x124 SWAP2 DUP4 SWAP2 PUSH2 0x100 PUSH1 0xE4 DUP5 ADD MSTORE DUP2 PUSH2 0x104 DUP5 ADD MSTORE GAS CALL SWAP4 DUP5 ISZERO PUSH2 0x70A JUMPI SWAP1 DUP8 SWAP5 SWAP4 SWAP3 SWAP2 DUP10 SWAP5 PUSH2 0x6D0 JUMPI JUMPDEST POP DUP4 SWAP1 PUSH2 0x66F SWAP8 DUP11 MSTORE DUP1 DUP7 MSTORE DUP7 DUP11 KECCAK256 ADD SSTORE DUP2 SLOAD AND SWAP1 DUP8 DUP6 MLOAD DUP1 SWAP8 DUP2 SWAP6 DUP3 SWAP5 PUSH4 0x48DBCEF PUSH1 0xE4 SHL DUP5 MSTORE CALLER SWAP1 DUP5 ADD PUSH2 0x1788 JUMP JUMPDEST SUB SWAP3 GAS CALL SWAP1 DUP2 ISZERO PUSH2 0x6C7 JUMPI POP PUSH2 0x6A9 JUMPI JUMPDEST POP POP PUSH32 0xDD20B2DFF2D53EF41435AD0074AEA6E1CE693777FCC9EA8E76C76A8F3607DD21 DUP2 DUP1 LOG1 DUP1 RETURN JUMPDEST DUP2 PUSH2 0x6BF SWAP3 SWAP1 RETURNDATASIZE LT PUSH2 0x569 JUMPI PUSH2 0x55A DUP2 DUP4 PUSH2 0x1624 JUMP JUMPDEST POP DUP2 DUP1 PUSH2 0x680 JUMP JUMPDEST MLOAD RETURNDATASIZE DUP6 DUP3 RETURNDATACOPY RETURNDATASIZE SWAP1 REVERT JUMPDEST DUP6 DUP2 SWAP7 SWAP3 SWAP6 POP RETURNDATASIZE DUP4 GT PUSH2 0x703 JUMPI JUMPDEST PUSH2 0x6E8 DUP2 DUP4 PUSH2 0x1624 JUMP JUMPDEST DUP2 ADD SUB SLT PUSH2 0x6FE JUMPI SWAP3 MLOAD DUP7 SWAP4 SWAP1 SWAP3 PUSH2 0x66F PUSH2 0x63E JUMP JUMPDEST PUSH1 0x0 DUP1 REVERT JUMPDEST POP RETURNDATASIZE PUSH2 0x6DE JUMP JUMPDEST DUP6 MLOAD RETURNDATASIZE DUP11 DUP3 RETURNDATACOPY RETURNDATASIZE SWAP1 REVERT JUMPDEST DUP5 SWAP8 POP DUP4 DUP3 DUP11 SWAP5 SWAP8 SWAP11 SWAP4 SWAP7 SWAP6 SWAP9 POP MLOAD AND DUP2 MSTORE ADD SWAP3 ADD SWAP3 ADD SWAP3 DUP14 SWAP4 DUP14 SWAP7 SWAP4 DUP12 SWAP7 SWAP4 PUSH2 0x607 JUMP JUMPDEST DUP6 SWAP9 POP DUP5 DUP11 SWAP4 DUP1 SWAP8 SWAP6 SWAP9 SWAP12 SWAP4 SWAP7 SWAP10 POP MLOAD AND DUP2 MSTORE ADD SWAP4 ADD SWAP2 ADD SWAP3 DUP15 SWAP5 SWAP2 DUP15 SWAP8 SWAP5 DUP13 SWAP8 SWAP5 PUSH2 0x5F5 JUMP JUMPDEST PUSH1 0x41 DUP9 PUSH4 0x4E487B71 PUSH1 0xE0 SHL PUSH1 0x0 MSTORE MSTORE PUSH1 0x24 PUSH1 0x0 REVERT JUMPDEST DUP7 MLOAD PUSH3 0x461BCD PUSH1 0xE5 SHL DUP2 MSTORE DUP1 DUP5 ADD DUP7 SWAP1 MSTORE PUSH1 0x1C PUSH1 0x24 DUP3 ADD MSTORE PUSH28 0x1C985B991BDB481DDBDC99081A5CC81B9BDD08199D5B1B199A5B1959 PUSH1 0x22 SHL PUSH1 0x44 DUP3 ADD MSTORE PUSH1 0x64 SWAP1 REVERT JUMPDEST DUP6 MLOAD PUSH3 0x461BCD PUSH1 0xE5 SHL DUP2 MSTORE DUP1 DUP4 ADD DUP6 SWAP1 MSTORE PUSH1 0x17 PUSH1 0x24 DUP3 ADD MSTORE PUSH23 0x3737BA103A3432903934B3B43A103932B8BAB2B9BA32B9 PUSH1 0x49 SHL PUSH1 0x44 DUP3 ADD MSTORE PUSH1 0x64 SWAP1 REVERT JUMPDEST DUP4 DUP1 REVERT JUMPDEST DUP3 DUP5 CALLVALUE PUSH2 0x2B0 JUMPI DUP2 PUSH1 0x3 NOT CALLDATASIZE ADD SLT PUSH2 0x2B0 JUMPI MLOAD SWAP1 DUP2 MSTORE PUSH1 0x20 SWAP1 RETURN JUMPDEST POP DUP3 SWAP1 CALLVALUE PUSH2 0x37F JUMPI PUSH1 0x20 CALLDATASIZE PUSH1 0x3 NOT ADD SLT PUSH2 0x37F JUMPI PUSH1 0xA0 SWAP3 DUP3 SWAP2 CALLDATALOAD DUP2 MSTORE PUSH1 0x2 PUSH1 0x20 MSTORE KECCAK256 SWAP1 DUP2 SLOAD SWAP2 PUSH1 0x1 DUP2 ADD SLOAD PUSH1 0x2 DUP3 ADD SLOAD SWAP2 PUSH1 0x3 PUSH1 0x1 DUP1 DUP9 SHL SUB SWAP2 ADD SLOAD AND SWAP3 PUSH1 0xFF DUP2 MLOAD SWAP6 DUP2 DUP2 AND ISZERO ISZERO DUP8 MSTORE PUSH1 0x8 SHR AND ISZERO ISZERO PUSH1 0x20 DUP7 ADD MSTORE DUP5 ADD MSTORE PUSH1 0x60 DUP4 ADD MSTORE PUSH1 0x80 DUP3 ADD MSTORE RETURN JUMPDEST DUP3 DUP5 CALLVALUE PUSH2 0x2B0 JUMPI DUP2 PUSH1 0x3 NOT CALLDATASIZE ADD SLT PUSH2 0x2B0 JUMPI PUSH1 0x3 SLOAD SWAP1 MLOAD PUSH1 0x1 PUSH1 0x1 PUSH1 0xA0 SHL SUB SWAP1 SWAP2 AND DUP2 MSTORE PUSH1 0x20 SWAP1 RETURN JUMPDEST POP DUP3 SWAP1 CALLVALUE PUSH2 0x37F JUMPI DUP2 PUSH1 0x3 NOT CALLDATASIZE ADD SLT PUSH2 0x37F JUMPI DUP2 PUSH1 0x20 SWAP4 PUSH2 0x8BF PUSH2 0x15D4 JUMP JUMPDEST SWAP3 CALLDATALOAD DUP2 MSTORE PUSH1 0x1 DUP6 MSTORE KECCAK256 SWAP1 PUSH1 0x1 DUP1 PUSH1 0xA0 SHL SUB AND PUSH1 0x0 MSTORE DUP3 MSTORE PUSH1 0xFF DUP2 PUSH1 0x0 KECCAK256 SLOAD AND SWAP1 MLOAD SWAP1 ISZERO ISZERO DUP2 MSTORE RETURN JUMPDEST DUP3 DUP5 CALLVALUE PUSH2 0x2B0 JUMPI DUP2 PUSH1 0x3 NOT CALLDATASIZE ADD SLT PUSH2 0x2B0 JUMPI PUSH1 0x20 SWAP1 PUSH2 0x904 PUSH2 0x173B JUMP JUMPDEST SWAP1 MLOAD SWAP1 ISZERO ISZERO DUP2 MSTORE RETURN JUMPDEST POP CALLVALUE PUSH2 0x2B0 JUMPI PUSH1 0x20 CALLDATASIZE PUSH1 0x3 NOT ADD SLT PUSH2 0x2B0 JUMPI PUSH2 0x927 PUSH2 0x15BE JUMP JUMPDEST SWAP1 PUSH1 0x0 DUP1 MLOAD PUSH1 0x20 PUSH2 0x1C56 DUP4 CODECOPY DUP2 MLOAD SWAP2 MSTORE DUP4 MSTORE PUSH1 0x1 PUSH1 0x20 MSTORE DUP4 DUP4 KECCAK256 CALLER PUSH1 0x0 MSTORE PUSH1 0x20 MSTORE PUSH1 0xFF DUP5 PUSH1 0x0 KECCAK256 SLOAD AND DUP1 ISZERO PUSH2 0x9C2 JUMPI JUMPDEST ISZERO PUSH2 0x98A JUMPI POP PUSH2 0x985 PUSH1 0x1 DUP4 SWAP5 PUSH1 0x0 DUP1 MLOAD PUSH1 0x20 PUSH2 0x1C36 DUP4 CODECOPY DUP2 MLOAD SWAP2 MSTORE PUSH2 0x3BD SWAP6 MSTORE DUP2 PUSH1 0x20 MSTORE DUP6 KECCAK256 ADD SLOAD PUSH2 0x17FA JUMP JUMPDEST PUSH2 0x18CD JUMP JUMPDEST PUSH1 0x64 SWAP1 PUSH1 0x20 DUP6 MLOAD SWAP2 PUSH3 0x461BCD PUSH1 0xE5 SHL DUP4 MSTORE DUP3 ADD MSTORE PUSH1 0x12 PUSH1 0x24 DUP3 ADD MSTORE PUSH18 0x3737BA1027BBB732B91037B91020B236B4B7 PUSH1 0x71 SHL PUSH1 0x44 DUP3 ADD MSTORE REVERT JUMPDEST POP PUSH2 0x9CB PUSH2 0x173B JUMP JUMPDEST PUSH2 0x957 JUMP JUMPDEST DUP3 DUP5 CALLVALUE PUSH2 0x2B0 JUMPI DUP2 PUSH1 0x3 NOT CALLDATASIZE ADD SLT PUSH2 0x2B0 JUMPI PUSH1 0x20 SWAP1 MLOAD PUSH1 0x0 DUP1 MLOAD PUSH1 0x20 PUSH2 0x1C56 DUP4 CODECOPY DUP2 MLOAD SWAP2 MSTORE DUP2 MSTORE RETURN JUMPDEST POP CALLVALUE PUSH2 0x2B0 JUMPI PUSH1 0x20 CALLDATASIZE PUSH1 0x3 NOT ADD SLT PUSH2 0x2B0 JUMPI PUSH2 0xA13 PUSH2 0x15BE JUMP JUMPDEST SWAP1 PUSH2 0x1E5 PUSH2 0x1D5 PUSH2 0x173B JUMP JUMPDEST DUP3 CALLVALUE PUSH2 0x353 JUMPI DUP1 PUSH1 0x3 NOT CALLDATASIZE ADD SLT PUSH2 0x353 JUMPI PUSH2 0xA3B PUSH2 0x1D5 PUSH2 0x173B JUMP JUMPDEST PUSH2 0x3BD CALLER PUSH2 0x1A48 JUMP JUMPDEST DUP3 DUP5 CALLVALUE PUSH2 0x2B0 JUMPI PUSH1 0x20 CALLDATASIZE PUSH1 0x3 NOT ADD SLT PUSH2 0x2B0 JUMPI PUSH2 0x3BD SWAP1 PUSH2 0x224 PUSH1 0x1 PUSH2 0xA68 PUSH2 0x15BE JUMP JUMPDEST SWAP3 PUSH2 0xA74 PUSH2 0x1D5 PUSH2 0x173B JUMP JUMPDEST PUSH1 0x0 DUP1 MLOAD PUSH1 0x20 PUSH2 0x1C56 DUP4 CODECOPY DUP2 MLOAD SWAP2 MSTORE DUP7 MSTORE DUP2 PUSH1 0x20 MSTORE DUP6 KECCAK256 ADD SLOAD PUSH2 0x17FA JUMP JUMPDEST POP CALLVALUE PUSH2 0x2B0 JUMPI PUSH1 0x20 DUP1 PUSH1 0x3 NOT CALLDATASIZE ADD SLT PUSH2 0x37F JUMPI PUSH1 0x1 PUSH1 0x1 PUSH1 0x40 SHL SUB SWAP2 DUP1 CALLDATALOAD DUP4 DUP2 GT PUSH2 0xC1D JUMPI CALLDATASIZE PUSH1 0x23 DUP3 ADD SLT ISZERO PUSH2 0xC1D JUMPI DUP1 DUP3 ADD CALLDATALOAD SWAP1 PUSH2 0xADC PUSH2 0xAD3 DUP4 PUSH2 0x165B JUMP JUMPDEST SWAP8 MLOAD SWAP8 DUP9 PUSH2 0x1624 JUMP JUMPDEST DUP2 DUP8 MSTORE CALLDATASIZE PUSH1 0x24 DUP4 DUP4 ADD ADD GT PUSH2 0xC19 JUMPI DUP2 DUP7 SWAP3 PUSH1 0x24 DUP7 SWAP4 ADD DUP4 DUP11 ADD CALLDATACOPY DUP8 ADD ADD MSTORE PUSH2 0xB06 PUSH2 0x1D5 PUSH2 0x173B JUMP JUMPDEST DUP5 MLOAD SWAP3 DUP4 GT PUSH2 0xC06 JUMPI POP PUSH2 0xB1B PUSH1 0x9 SLOAD PUSH2 0x15EA JUMP JUMPDEST PUSH1 0x1F DUP2 GT PUSH2 0xBC2 JUMPI JUMPDEST POP DUP1 PUSH1 0x1F DUP4 GT PUSH1 0x1 EQ PUSH2 0xB5F JUMPI POP DUP3 SWAP4 DUP3 SWAP4 SWAP3 PUSH2 0xB54 JUMPI JUMPDEST POP POP DUP2 PUSH1 0x1 SHL SWAP2 PUSH1 0x0 NOT SWAP1 PUSH1 0x3 SHL SHR NOT AND OR PUSH1 0x9 SSTORE DUP1 RETURN JUMPDEST ADD MLOAD SWAP1 POP CODESIZE DUP1 PUSH2 0xB3C JUMP JUMPDEST SWAP1 PUSH1 0x1F NOT DUP4 AND SWAP5 PUSH1 0x9 DUP6 MSTORE DUP3 DUP6 KECCAK256 SWAP3 DUP6 SWAP1 JUMPDEST DUP8 DUP3 LT PUSH2 0xBAA JUMPI POP POP DUP4 PUSH1 0x1 SWAP6 SWAP7 LT PUSH2 0xB91 JUMPI JUMPDEST POP POP POP DUP2 SHL ADD PUSH1 0x9 SSTORE DUP1 RETURN JUMPDEST ADD MLOAD PUSH1 0x0 NOT PUSH1 0xF8 DUP5 PUSH1 0x3 SHL AND SHR NOT AND SWAP1 SSTORE CODESIZE DUP1 DUP1 PUSH2 0xB85 JUMP JUMPDEST DUP1 PUSH1 0x1 DUP6 SWAP7 DUP3 SWAP5 SWAP7 DUP7 ADD MLOAD DUP2 SSTORE ADD SWAP6 ADD SWAP4 ADD SWAP1 PUSH2 0xB71 JUMP JUMPDEST PUSH1 0x9 DUP5 MSTORE DUP2 DUP5 KECCAK256 PUSH1 0x1F DUP5 ADD PUSH1 0x5 SHR DUP2 ADD SWAP2 DUP4 DUP6 LT PUSH2 0xBFC JUMPI JUMPDEST PUSH1 0x1F ADD PUSH1 0x5 SHR ADD SWAP1 JUMPDEST DUP2 DUP2 LT PUSH2 0xBF1 JUMPI POP PUSH2 0xB24 JUMP JUMPDEST DUP5 DUP2 SSTORE PUSH1 0x1 ADD PUSH2 0xBE4 JUMP JUMPDEST SWAP1 SWAP2 POP DUP2 SWAP1 PUSH2 0xBDB JUMP JUMPDEST PUSH4 0x4E487B71 PUSH1 0xE0 SHL DUP5 MSTORE PUSH1 0x41 SWAP1 MSTORE PUSH1 0x24 DUP4 REVERT JUMPDEST DUP6 DUP1 REVERT JUMPDEST DUP5 DUP1 REVERT JUMPDEST POP SWAP2 DUP2 PUSH1 0x3 NOT CALLDATASIZE ADD SLT PUSH2 0x2B0 JUMPI PUSH2 0xC40 PUSH1 0xFF PUSH1 0x6 SLOAD PUSH1 0xA0 SHR AND ISZERO PUSH2 0x16FC JUMP JUMPDEST PUSH1 0x2 DUP3 SLOAD EQ PUSH2 0xEDB JUMPI PUSH1 0x2 DUP3 SSTORE CALLER ISZERO PUSH2 0xEA1 JUMPI PUSH1 0x1 DUP1 PUSH1 0xA0 SHL SUB SWAP2 DUP3 PUSH1 0x5 SLOAD AND SWAP4 PUSH1 0x8 SLOAD SWAP1 DUP4 MLOAD PUSH1 0x20 SWAP7 DUP8 DUP3 ADD PUSH4 0x23B872DD PUSH1 0xE0 SHL DUP2 MSTORE PUSH1 0x24 SWAP5 CALLER DUP7 DUP6 ADD MSTORE ADDRESS PUSH1 0x44 DUP6 ADD MSTORE PUSH1 0x64 DUP5 ADD MSTORE PUSH1 0x64 DUP4 MSTORE PUSH1 0xA0 DUP4 ADD SWAP3 PUSH1 0x1 PUSH1 0x1 PUSH1 0x40 SHL SUB SWAP4 DUP2 DUP2 LT DUP6 DUP3 GT OR PUSH2 0xE5B JUMPI DUP9 MSTORE MLOAD PUSH2 0xCE3 SWAP2 DUP8 SWAP2 DUP3 SWAP2 DUP3 DUP7 GAS CALL RETURNDATASIZE ISZERO PUSH2 0xE99 JUMPI RETURNDATASIZE SWAP1 PUSH2 0xCC7 DUP3 PUSH2 0x165B JUMP JUMPDEST SWAP2 PUSH2 0xCD4 DUP11 MLOAD SWAP4 DUP5 PUSH2 0x1624 JUMP JUMPDEST DUP3 MSTORE RETURNDATASIZE DUP9 DUP13 DUP5 ADD RETURNDATACOPY JUMPDEST DUP4 PUSH2 0x1BB2 JUMP JUMPDEST DUP1 MLOAD SWAP1 DUP10 DUP3 ISZERO ISZERO SWAP3 DUP4 PUSH2 0xE80 JUMPI JUMPDEST POP POP POP PUSH2 0xE6D JUMPI POP PUSH4 0xFFFFFFFF SWAP6 DUP7 PUSH1 0x6 SLOAD PUSH1 0xA8 SHR AND SWAP7 DUP7 MLOAD SWAP8 PUSH1 0x60 DUP10 ADD DUP10 DUP2 LT DUP6 DUP3 GT OR PUSH2 0xE5B JUMPI DUP9 MSTORE DUP7 DUP10 MSTORE DUP10 DUP10 ADD DUP8 DUP2 MSTORE DUP10 DUP10 ADD SWAP2 DUP3 MSTORE DUP9 MLOAD PUSH4 0x9160B15 PUSH1 0xE1 SHL DUP2 MSTORE SWAP10 MLOAD PUSH2 0xFFFF SWAP1 DUP2 AND DUP8 DUP13 ADD MSTORE SWAP1 MLOAD AND DUP7 DUP11 ADD MSTORE MLOAD AND PUSH1 0x44 DUP9 ADD MSTORE DUP8 DUP8 PUSH1 0x64 DUP2 CALLVALUE PUSH32 0x0 DUP7 AND GAS CALL SWAP7 DUP8 ISZERO PUSH2 0xE22 JUMPI DUP6 SWAP8 PUSH2 0xE2C JUMPI JUMPDEST POP DUP7 DUP6 MSTORE PUSH1 0x2 DUP9 MSTORE PUSH1 0x3 DUP7 DUP7 KECCAK256 PUSH1 0x1 PUSH1 0xFF NOT DUP3 SLOAD AND OR DUP2 SSTORE ADD CALLER PUSH1 0x1 DUP1 PUSH1 0xA0 SHL SUB NOT DUP3 SLOAD AND OR SWAP1 SSTORE PUSH1 0x1 PUSH1 0x7 SLOAD ADD PUSH1 0x7 SSTORE PUSH1 0x6 SLOAD AND DUP1 EXTCODESIZE ISZERO PUSH2 0xC1D JUMPI SWAP1 DUP5 DUP5 SWAP4 SWAP3 DUP2 SWAP6 DUP9 MLOAD DUP1 SWAP8 DUP2 SWAP4 PUSH4 0x24ADECA7 PUSH1 0xE1 SHL DUP4 MSTORE DUP13 DUP9 DUP5 ADD MSTORE GAS CALL DUP1 ISZERO PUSH2 0xE22 JUMPI PUSH2 0xDFD JUMPI JUMPDEST POP POP POP POP PUSH1 0x1 SWAP1 SSTORE MLOAD SWAP1 DUP2 MSTORE RETURN JUMPDEST DUP4 GT PUSH2 0xE11 JUMPI POP POP DUP3 MSTORE PUSH1 0x1 CODESIZE DUP1 DUP1 PUSH2 0xDEF JUMP JUMPDEST PUSH4 0x4E487B71 PUSH1 0xE0 SHL DUP5 MSTORE PUSH1 0x41 SWAP1 MSTORE DUP3 REVERT JUMPDEST DUP7 MLOAD RETURNDATASIZE DUP8 DUP3 RETURNDATACOPY RETURNDATASIZE SWAP1 REVERT JUMPDEST SWAP1 SWAP7 POP DUP8 DUP2 DUP2 RETURNDATASIZE DUP4 GT PUSH2 0xE54 JUMPI JUMPDEST PUSH2 0xE44 DUP2 DUP4 PUSH2 0x1624 JUMP JUMPDEST DUP2 ADD SUB SLT PUSH2 0xC1D JUMPI MLOAD SWAP6 CODESIZE PUSH2 0xD8A JUMP JUMPDEST POP RETURNDATASIZE PUSH2 0xE3A JUMP JUMPDEST PUSH4 0x4E487B71 PUSH1 0xE0 SHL DUP9 MSTORE PUSH1 0x41 DUP7 MSTORE DUP7 DUP9 REVERT JUMPDEST DUP6 MLOAD PUSH4 0x5274AFE7 PUSH1 0xE0 SHL DUP2 MSTORE SWAP3 DUP4 ADD MSTORE POP REVERT JUMPDEST PUSH2 0xE90 SWAP4 POP DUP3 ADD DUP2 ADD SWAP2 ADD PUSH2 0x1770 JUMP JUMPDEST ISZERO CODESIZE DUP10 DUP2 PUSH2 0xCF1 JUMP JUMPDEST PUSH1 0x60 SWAP1 PUSH2 0xCDD JUMP JUMPDEST MLOAD PUSH3 0x461BCD PUSH1 0xE5 SHL DUP2 MSTORE PUSH1 0x20 DUP2 DUP5 ADD MSTORE PUSH1 0x15 PUSH1 0x24 DUP3 ADD MSTORE PUSH21 0x1859191C995CDCC80C081B9BDD08185B1B1BDDD959 PUSH1 0x5A SHL PUSH1 0x44 DUP3 ADD MSTORE PUSH1 0x64 SWAP1 REVERT JUMPDEST MLOAD PUSH4 0x3EE5AEB5 PUSH1 0xE0 SHL DUP2 MSTORE SWAP1 POP REVERT JUMPDEST POP DUP3 SWAP1 CALLVALUE PUSH2 0x37F JUMPI PUSH1 0x20 CALLDATASIZE PUSH1 0x3 NOT ADD SLT PUSH2 0x37F JUMPI PUSH2 0xF06 PUSH2 0x15BE JUMP JUMPDEST SWAP2 PUSH2 0xF12 PUSH2 0x1D5 PUSH2 0x173B JUMP JUMPDEST CALLER PUSH1 0x1 PUSH1 0x1 PUSH1 0xA0 SHL SUB DUP5 AND SUB PUSH2 0xF2C JUMPI DUP4 PUSH2 0x3BD DUP5 PUSH2 0x19C0 JUMP JUMPDEST MLOAD PUSH4 0x334BD919 PUSH1 0xE1 SHL DUP2 MSTORE REVERT JUMPDEST DUP3 DUP5 CALLVALUE PUSH2 0x2B0 JUMPI DUP2 PUSH1 0x3 NOT CALLDATASIZE ADD SLT PUSH2 0x2B0 JUMPI PUSH1 0x5 SLOAD SWAP1 MLOAD PUSH1 0x1 PUSH1 0x1 PUSH1 0xA0 SHL SUB SWAP1 SWAP2 AND DUP2 MSTORE PUSH1 0x20 SWAP1 RETURN JUMPDEST DUP3 DUP5 CALLVALUE PUSH2 0x2B0 JUMPI DUP2 PUSH1 0x3 NOT CALLDATASIZE ADD SLT PUSH2 0x2B0 JUMPI DUP1 MLOAD DUP3 PUSH1 0x9 SLOAD DUP3 PUSH2 0xF84 DUP3 PUSH2 0x15EA JUMP JUMPDEST SWAP6 DUP7 DUP3 MSTORE PUSH1 0x20 SWAP7 DUP8 SWAP4 PUSH1 0x1 SWAP1 PUSH1 0x1 DUP2 AND SWAP1 DUP2 PUSH1 0x0 EQ PUSH2 0x103C JUMPI POP PUSH1 0x1 EQ PUSH2 0xFFE JUMPI JUMPDEST POP POP PUSH2 0xFB8 SWAP3 POP SWAP6 SWAP4 SWAP3 SWAP6 SUB DUP3 PUSH2 0x1624 JUMP JUMPDEST DUP3 MLOAD SWAP4 DUP3 DUP6 SWAP4 DUP5 MSTORE DUP3 MLOAD SWAP3 DUP4 DUP3 DUP7 ADD MSTORE DUP3 JUMPDEST DUP5 DUP2 LT PUSH2 0xFE8 JUMPI POP POP POP DUP3 DUP3 ADD DUP5 ADD MSTORE PUSH1 0x1F ADD PUSH1 0x1F NOT AND DUP2 ADD SUB ADD SWAP1 RETURN JUMPDEST DUP2 DUP2 ADD DUP4 ADD MLOAD DUP9 DUP3 ADD DUP9 ADD MSTORE DUP8 SWAP6 POP DUP3 ADD PUSH2 0xFCA JUMP JUMPDEST PUSH1 0x9 DUP7 MSTORE DUP5 DUP7 KECCAK256 SWAP5 SWAP3 POP DUP6 SWAP2 SWAP1 JUMPDEST DUP2 DUP4 LT PUSH2 0x1024 JUMPI POP DUP9 SWAP5 POP POP DUP3 ADD ADD PUSH2 0xFB8 DUP9 PUSH2 0xFA6 JUMP JUMPDEST DUP6 SLOAD DUP9 DUP5 ADD DUP6 ADD MSTORE SWAP5 DUP6 ADD SWAP5 DUP8 SWAP5 POP SWAP2 DUP4 ADD SWAP2 PUSH2 0x100C JUMP JUMPDEST SWAP2 POP POP PUSH2 0xFB8 SWAP5 SWAP3 POP PUSH1 0xFF NOT AND DUP3 DUP5 ADD MSTORE ISZERO ISZERO PUSH1 0x5 SHL DUP3 ADD ADD DUP7 SWAP3 DUP9 PUSH2 0xFA6 JUMP JUMPDEST DUP3 DUP5 CALLVALUE PUSH2 0x2B0 JUMPI DUP2 PUSH1 0x3 NOT CALLDATASIZE ADD SLT PUSH2 0x2B0 JUMPI PUSH1 0x20 SWAP1 PUSH1 0x7 SLOAD SWAP1 MLOAD SWAP1 DUP2 MSTORE RETURN JUMPDEST DUP3 DUP5 CALLVALUE PUSH2 0x2B0 JUMPI DUP2 PUSH1 0x3 NOT CALLDATASIZE ADD SLT PUSH2 0x2B0 JUMPI PUSH1 0x20 SWAP1 MLOAD PUSH1 0x0 DUP1 MLOAD PUSH1 0x20 PUSH2 0x1C36 DUP4 CODECOPY DUP2 MLOAD SWAP2 MSTORE DUP2 MSTORE RETURN JUMPDEST POP SWAP2 CALLVALUE PUSH2 0x2B0 JUMPI DUP1 PUSH1 0x3 NOT CALLDATASIZE ADD SLT PUSH2 0x2B0 JUMPI PUSH1 0x1 PUSH1 0x1 PUSH1 0xA0 SHL SUB SWAP3 DUP1 CALLDATALOAD SWAP1 PUSH1 0x24 DUP1 CALLDATALOAD PUSH32 0x0 DUP8 AND CALLER DUP2 SWAP1 SUB PUSH2 0x1308 JUMPI POP DUP4 DUP7 MSTORE PUSH1 0x2 SWAP3 PUSH1 0x20 SWAP3 DUP5 DUP5 MSTORE PUSH1 0xFF DUP8 DUP10 KECCAK256 SLOAD AND ISZERO PUSH2 0x12D3 JUMPI DUP6 DUP9 MSTORE DUP5 DUP5 MSTORE DUP3 PUSH1 0x1 DUP9 DUP11 KECCAK256 PUSH2 0x100 PUSH2 0xFF00 NOT DUP3 SLOAD AND OR DUP2 SSTORE ADD SSTORE DUP2 DUP9 DUP11 PUSH1 0x3 SLOAD AND DUP10 MLOAD SWAP3 DUP4 DUP1 SWAP3 PUSH4 0x7F548681 PUSH1 0xE1 SHL DUP3 MSTORE GAS STATICCALL SWAP4 DUP5 ISZERO PUSH2 0x12C9 JUMPI DUP10 SWAP2 DUP11 SWAP6 PUSH2 0x1213 JUMPI JUMPDEST POP DUP2 ISZERO DUP1 PUSH2 0x11D9 JUMPI PUSH2 0x11C7 JUMPI MOD SWAP2 DUP4 MLOAD DUP4 LT ISZERO PUSH2 0x11B6 JUMPI POP POP SWAP3 DUP1 DUP4 PUSH32 0xB0AF079A2FE2F9CB55EDFA571FC822D68F92E17D7D4DF64BB98AEB067E02C840 SWAP9 SWAP10 SWAP5 PUSH1 0x3 SWAP5 PUSH2 0x53D SWAP8 PUSH1 0x5 SHL ADD ADD MLOAD SWAP7 DUP11 MSTORE MSTORE DUP5 DUP7 DUP10 KECCAK256 SWAP2 DUP3 ADD SSTORE ADD SLOAD AND SWAP3 MLOAD SWAP3 DUP4 SWAP3 DUP4 PUSH2 0x17A3 JUMP JUMPDEST PUSH4 0x4E487B71 PUSH1 0xE0 SHL DUP10 MSTORE PUSH1 0x32 SWAP1 MSTORE DUP8 REVERT JUMPDEST PUSH4 0x4E487B71 PUSH1 0xE0 SHL DUP11 MSTORE PUSH1 0x12 DUP5 MSTORE DUP3 DUP11 REVERT JUMPDEST POP POP POP POP POP POP DUP5 SWAP6 POP DUP2 SWAP4 SWAP3 DUP6 MSTORE MSTORE DUP3 KECCAK256 ADD SSTORE PUSH32 0x33E073F01A1BF838BF4806259AC82EC45D5B87E439F328D646E6D648F291A42E DUP2 DUP1 LOG1 DUP1 RETURN JUMPDEST SWAP2 POP SWAP4 POP RETURNDATASIZE DUP1 DUP11 DUP4 RETURNDATACOPY PUSH2 0x1226 DUP2 DUP4 PUSH2 0x1624 JUMP JUMPDEST DUP2 ADD DUP9 DUP3 DUP3 SUB SLT PUSH2 0x12C5 JUMPI DUP2 MLOAD SWAP1 DUP7 DUP4 ADD MLOAD PUSH1 0x1 PUSH1 0x1 PUSH1 0x40 SHL SUB SWAP4 DUP5 DUP3 GT PUSH2 0x12AB JUMPI ADD DUP2 PUSH1 0x1F DUP3 ADD SLT ISZERO PUSH2 0x12C1 JUMPI DUP1 MLOAD SWAP4 DUP5 GT PUSH2 0x12AF JUMPI DUP4 PUSH1 0x5 SHL SWAP1 DUP12 MLOAD SWAP5 PUSH2 0x1271 DUP11 DUP5 ADD DUP8 PUSH2 0x1624 JUMP JUMPDEST DUP6 MSTORE DUP9 DUP1 DUP7 ADD SWAP3 DUP3 ADD ADD SWAP3 DUP4 GT PUSH2 0x12AB JUMPI DUP9 DUP1 SWAP2 ADD SWAP2 JUMPDEST DUP4 DUP4 LT PUSH2 0x129B JUMPI POP POP POP POP SWAP1 SWAP4 CODESIZE PUSH2 0x114F JUMP JUMPDEST DUP3 MLOAD DUP2 MSTORE SWAP2 DUP2 ADD SWAP2 DUP10 SWAP2 ADD PUSH2 0x1288 JUMP JUMPDEST DUP13 DUP1 REVERT JUMPDEST PUSH4 0x4E487B71 PUSH1 0xE0 SHL DUP13 MSTORE PUSH1 0x41 DUP7 MSTORE DUP5 DUP13 REVERT JUMPDEST DUP12 DUP1 REVERT JUMPDEST DUP10 DUP1 REVERT JUMPDEST DUP9 MLOAD RETURNDATASIZE DUP12 DUP3 RETURNDATACOPY RETURNDATASIZE SWAP1 REVERT JUMPDEST DUP7 MLOAD PUSH3 0x461BCD PUSH1 0xE5 SHL DUP2 MSTORE SWAP2 DUP3 ADD DUP5 SWAP1 MSTORE PUSH1 0x10 SWAP1 DUP3 ADD MSTORE PUSH16 0x52657175657374206E6F74206D616465 PUSH1 0x80 SHL PUSH1 0x44 DUP3 ADD MSTORE PUSH1 0x64 SWAP1 REVERT JUMPDEST DUP6 MLOAD PUSH4 0x73E64FD PUSH1 0xE2 SHL DUP2 MSTORE CALLER DUP2 DUP7 ADD MSTORE DUP1 DUP5 ADD SWAP2 SWAP1 SWAP2 MSTORE PUSH1 0x44 SWAP1 REVERT JUMPDEST POP SWAP2 CALLVALUE PUSH2 0x2B0 JUMPI DUP1 PUSH1 0x3 NOT CALLDATASIZE ADD SLT PUSH2 0x2B0 JUMPI PUSH2 0x133F PUSH2 0x15D4 JUMP JUMPDEST SWAP1 CALLER PUSH1 0x1 PUSH1 0x1 PUSH1 0xA0 SHL SUB DUP4 AND SUB PUSH2 0x135C JUMPI POP PUSH2 0x3BD SWAP2 SWAP3 CALLDATALOAD PUSH2 0x1B4D JUMP JUMPDEST MLOAD PUSH4 0x334BD919 PUSH1 0xE1 SHL DUP2 MSTORE DUP4 SWAP1 REVERT JUMPDEST POP DUP3 CALLVALUE PUSH2 0x37F JUMPI DUP1 PUSH1 0x3 NOT CALLDATASIZE ADD SLT PUSH2 0x37F JUMPI PUSH2 0x3BD SWAP2 CALLDATALOAD PUSH2 0x138F PUSH1 0x1 PUSH2 0x3A7 PUSH2 0x15D4 JUMP JUMPDEST PUSH2 0x1957 JUMP JUMPDEST POP DUP3 CALLVALUE PUSH2 0x37F JUMPI PUSH1 0x20 CALLDATASIZE PUSH1 0x3 NOT ADD SLT PUSH2 0x37F JUMPI PUSH2 0x13B2 PUSH2 0x1D5 PUSH2 0x173B JUMP JUMPDEST PUSH1 0x8 SLOAD ISZERO PUSH2 0x13C2 JUMPI POP CALLDATALOAD PUSH1 0x8 SSTORE DUP1 RETURN JUMPDEST SWAP1 PUSH1 0x20 PUSH1 0x64 SWAP3 MLOAD SWAP2 PUSH3 0x461BCD PUSH1 0xE5 SHL DUP4 MSTORE DUP3 ADD MSTORE PUSH1 0x1B PUSH1 0x24 DUP3 ADD MSTORE PUSH27 0x66656573206D7573742062652067726561746572207468616E203 PUSH1 0x2C SHL PUSH1 0x44 DUP3 ADD MSTORE REVERT JUMPDEST DUP3 DUP5 CALLVALUE PUSH2 0x2B0 JUMPI DUP2 PUSH1 0x3 NOT CALLDATASIZE ADD SLT PUSH2 0x2B0 JUMPI PUSH1 0x20 SWAP1 PUSH4 0xFFFFFFFF PUSH1 0x6 SLOAD PUSH1 0xA8 SHR AND SWAP1 MLOAD SWAP1 DUP2 MSTORE RETURN JUMPDEST DUP3 DUP5 CALLVALUE PUSH2 0x2B0 JUMPI PUSH1 0x20 CALLDATASIZE PUSH1 0x3 NOT ADD SLT PUSH2 0x2B0 JUMPI PUSH1 0xFF DUP2 PUSH1 0x20 SWAP4 PUSH2 0x144C PUSH2 0x15BE JUMP JUMPDEST PUSH1 0x0 DUP1 MLOAD PUSH1 0x20 PUSH2 0x1C56 DUP4 CODECOPY DUP2 MLOAD SWAP2 MSTORE DUP3 MSTORE PUSH1 0x1 DUP7 MSTORE DUP3 DUP3 KECCAK256 PUSH1 0x1 PUSH1 0x1 PUSH1 0xA0 SHL SUB SWAP1 SWAP2 AND DUP3 MSTORE DUP6 MSTORE KECCAK256 SLOAD SWAP2 MLOAD SWAP2 AND ISZERO ISZERO DUP2 MSTORE RETURN JUMPDEST POP DUP3 SWAP1 CALLVALUE PUSH2 0x37F JUMPI PUSH1 0x20 CALLDATASIZE PUSH1 0x3 NOT ADD SLT PUSH2 0x37F JUMPI DUP2 PUSH1 0x20 SWAP4 PUSH1 0x1 SWAP3 CALLDATALOAD DUP2 MSTORE DUP3 DUP6 MSTORE KECCAK256 ADD SLOAD SWAP1 MLOAD SWAP1 DUP2 MSTORE RETURN JUMPDEST DUP3 DUP5 CALLVALUE PUSH2 0x2B0 JUMPI DUP2 PUSH1 0x3 NOT CALLDATASIZE ADD SLT PUSH2 0x2B0 JUMPI PUSH1 0x6 SLOAD SWAP1 MLOAD PUSH1 0x1 PUSH1 0x1 PUSH1 0xA0 SHL SUB SWAP1 SWAP2 AND DUP2 MSTORE PUSH1 0x20 SWAP1 RETURN JUMPDEST DUP3 CALLVALUE PUSH2 0x353 JUMPI PUSH1 0x20 CALLDATASIZE PUSH1 0x3 NOT ADD SLT PUSH2 0x353 JUMPI PUSH2 0x233 PUSH2 0x14F0 PUSH2 0x15BE JUMP JUMPDEST PUSH2 0x14FB PUSH2 0x1D5 PUSH2 0x173B JUMP JUMPDEST PUSH2 0x16CE JUMP JUMPDEST POP DUP3 SWAP1 CALLVALUE PUSH2 0x37F JUMPI PUSH1 0x80 CALLDATASIZE PUSH1 0x3 NOT ADD SLT PUSH2 0x37F JUMPI PUSH2 0x151C PUSH2 0x15BE JUMP JUMPDEST POP PUSH2 0x1525 PUSH2 0x15D4 JUMP JUMPDEST POP PUSH1 0x64 CALLDATALOAD SWAP1 PUSH1 0x1 PUSH1 0x1 PUSH1 0x40 SHL SUB SWAP1 DUP2 DUP4 GT PUSH2 0xC1D JUMPI CALLDATASIZE PUSH1 0x23 DUP5 ADD SLT ISZERO PUSH2 0xC1D JUMPI DUP3 ADD CALLDATALOAD SWAP1 DUP2 GT PUSH2 0x7F4 JUMPI CALLDATASIZE SWAP2 ADD PUSH1 0x24 ADD GT PUSH2 0x2B0 JUMPI MLOAD PUSH4 0xA85BD01 PUSH1 0xE1 SHL DUP2 MSTORE PUSH1 0x20 SWAP1 RETURN JUMPDEST SWAP2 SWAP1 POP CALLVALUE PUSH2 0x37F JUMPI PUSH1 0x20 CALLDATASIZE PUSH1 0x3 NOT ADD SLT PUSH2 0x37F JUMPI CALLDATALOAD PUSH4 0xFFFFFFFF PUSH1 0xE0 SHL DUP2 AND DUP1 SWAP2 SUB PUSH2 0x37F JUMPI PUSH1 0x20 SWAP3 POP PUSH4 0x7965DB0B PUSH1 0xE0 SHL DUP2 EQ SWAP1 DUP2 ISZERO PUSH2 0x15AD JUMPI JUMPDEST POP ISZERO ISZERO DUP2 MSTORE RETURN JUMPDEST PUSH4 0x1FFC9A7 PUSH1 0xE0 SHL EQ SWAP1 POP DUP4 PUSH2 0x15A6 JUMP JUMPDEST PUSH1 0x4 CALLDATALOAD SWAP1 PUSH1 0x1 PUSH1 0x1 PUSH1 0xA0 SHL SUB DUP3 AND DUP3 SUB PUSH2 0x6FE JUMPI JUMP JUMPDEST PUSH1 0x24 CALLDATALOAD SWAP1 PUSH1 0x1 PUSH1 0x1 PUSH1 0xA0 SHL SUB DUP3 AND DUP3 SUB PUSH2 0x6FE JUMPI JUMP JUMPDEST SWAP1 PUSH1 0x1 DUP3 DUP2 SHR SWAP3 AND DUP1 ISZERO PUSH2 0x161A JUMPI JUMPDEST PUSH1 0x20 DUP4 LT EQ PUSH2 0x1604 JUMPI JUMP JUMPDEST PUSH4 0x4E487B71 PUSH1 0xE0 SHL PUSH1 0x0 MSTORE PUSH1 0x22 PUSH1 0x4 MSTORE PUSH1 0x24 PUSH1 0x0 REVERT JUMPDEST SWAP2 PUSH1 0x7F AND SWAP2 PUSH2 0x15F9 JUMP JUMPDEST SWAP1 PUSH1 0x1F DUP1 NOT SWAP2 ADD AND DUP2 ADD SWAP1 DUP2 LT PUSH1 0x1 PUSH1 0x1 PUSH1 0x40 SHL SUB DUP3 GT OR PUSH2 0x1645 JUMPI PUSH1 0x40 MSTORE JUMP JUMPDEST PUSH4 0x4E487B71 PUSH1 0xE0 SHL PUSH1 0x0 MSTORE PUSH1 0x41 PUSH1 0x4 MSTORE PUSH1 0x24 PUSH1 0x0 REVERT JUMPDEST PUSH1 0x1 PUSH1 0x1 PUSH1 0x40 SHL SUB DUP2 GT PUSH2 0x1645 JUMPI PUSH1 0x1F ADD PUSH1 0x1F NOT AND PUSH1 0x20 ADD SWAP1 JUMP JUMPDEST ISZERO PUSH2 0x167D JUMPI JUMP JUMPDEST PUSH1 0x40 MLOAD PUSH3 0x461BCD PUSH1 0xE5 SHL DUP2 MSTORE PUSH1 0x20 PUSH1 0x4 DUP3 ADD MSTORE PUSH1 0x24 DUP1 DUP3 ADD MSTORE PUSH32 0x41757468436F6E74726F6C3A2043616C6C6572206973206E6F7420746865206F PUSH1 0x44 DUP3 ADD MSTORE PUSH4 0x3BB732B9 PUSH1 0xE1 SHL PUSH1 0x64 DUP3 ADD MSTORE PUSH1 0x84 SWAP1 REVERT JUMPDEST CALLER PUSH1 0x1 PUSH1 0x1 PUSH1 0xA0 SHL SUB DUP3 AND SUB PUSH2 0x16EA JUMPI PUSH2 0x16E7 SWAP1 PUSH2 0x1AC5 JUMP JUMPDEST POP JUMP JUMPDEST PUSH1 0x40 MLOAD PUSH4 0x334BD919 PUSH1 0xE1 SHL DUP2 MSTORE PUSH1 0x4 SWAP1 REVERT JUMPDEST ISZERO PUSH2 0x1703 JUMPI JUMP JUMPDEST PUSH1 0x40 MLOAD PUSH3 0x461BCD PUSH1 0xE5 SHL DUP2 MSTORE PUSH1 0x20 PUSH1 0x4 DUP3 ADD MSTORE PUSH1 0x10 PUSH1 0x24 DUP3 ADD MSTORE PUSH16 0x14185D5CD8589B194E881C185D5CD959 PUSH1 0x82 SHL PUSH1 0x44 DUP3 ADD MSTORE PUSH1 0x64 SWAP1 REVERT JUMPDEST CALLER PUSH1 0x0 SWAP1 DUP2 MSTORE PUSH32 0xA6EEF7E35ABE7026729641147F7915573C7E97B47EFA546F5F6E3230263BCB49 PUSH1 0x20 MSTORE PUSH1 0x40 SWAP1 KECCAK256 SLOAD PUSH1 0xFF AND SWAP1 JUMP JUMPDEST SWAP1 DUP2 PUSH1 0x20 SWAP2 SUB SLT PUSH2 0x6FE JUMPI MLOAD DUP1 ISZERO ISZERO DUP2 SUB PUSH2 0x6FE JUMPI SWAP1 JUMP JUMPDEST PUSH1 0x1 PUSH1 0x1 PUSH1 0xA0 SHL SUB SWAP1 SWAP2 AND DUP2 MSTORE PUSH1 0x20 DUP2 ADD SWAP2 SWAP1 SWAP2 MSTORE PUSH1 0x40 ADD SWAP1 JUMP JUMPDEST SWAP1 DUP2 MSTORE PUSH1 0x1 PUSH1 0x1 PUSH1 0xA0 SHL SUB SWAP1 SWAP2 AND PUSH1 0x20 DUP3 ADD MSTORE PUSH1 0x40 ADD SWAP1 JUMP JUMPDEST ISZERO PUSH2 0x17C3 JUMPI JUMP JUMPDEST PUSH1 0x40 MLOAD PUSH3 0x461BCD PUSH1 0xE5 SHL DUP2 MSTORE PUSH1 0x20 PUSH1 0x4 DUP3 ADD MSTORE PUSH1 0xF PUSH1 0x24 DUP3 ADD MSTORE PUSH15 0x496E76616C69642061646472657373 PUSH1 0x88 SHL PUSH1 0x44 DUP3 ADD MSTORE PUSH1 0x64 SWAP1 REVERT JUMPDEST DUP1 PUSH1 0x0 MSTORE PUSH1 0x1 PUSH1 0x20 MSTORE PUSH1 0x40 PUSH1 0x0 KECCAK256 CALLER PUSH1 0x0 MSTORE PUSH1 0x20 MSTORE PUSH1 0xFF PUSH1 0x40 PUSH1 0x0 KECCAK256 SLOAD AND ISZERO PUSH2 0x1820 JUMPI POP JUMP JUMPDEST PUSH1 0x44 SWAP1 PUSH1 0x40 MLOAD SWAP1 PUSH4 0xE2517D3F PUSH1 0xE0 SHL DUP3 MSTORE CALLER PUSH1 0x4 DUP4 ADD MSTORE PUSH1 0x24 DUP3 ADD MSTORE REVERT JUMPDEST PUSH1 0x1 PUSH1 0x1 PUSH1 0xA0 SHL SUB AND PUSH1 0x0 DUP2 DUP2 MSTORE PUSH32 0xD52CFEFB3F6FD7766669E08A03D2CEB3243383019E3A5FED2A519DF30EE55B92 PUSH1 0x20 MSTORE PUSH1 0x40 DUP2 KECCAK256 SLOAD SWAP1 SWAP2 SWAP1 PUSH1 0x0 DUP1 MLOAD PUSH1 0x20 PUSH2 0x1C56 DUP4 CODECOPY DUP2 MLOAD SWAP2 MSTORE SWAP1 PUSH1 0xFF AND PUSH2 0x18C8 JUMPI DUP1 DUP4 MSTORE PUSH1 0x1 PUSH1 0x20 MSTORE PUSH1 0x40 DUP4 KECCAK256 DUP3 DUP5 MSTORE PUSH1 0x20 MSTORE PUSH1 0x40 DUP4 KECCAK256 PUSH1 0x1 PUSH1 0xFF NOT DUP3 SLOAD AND OR SWAP1 SSTORE PUSH1 0x0 DUP1 MLOAD PUSH1 0x20 PUSH2 0x1C16 DUP4 CODECOPY DUP2 MLOAD SWAP2 MSTORE CALLER SWAP4 DUP1 LOG4 PUSH1 0x1 SWAP1 JUMP JUMPDEST POP POP SWAP1 JUMP JUMPDEST PUSH1 0x1 PUSH1 0x1 PUSH1 0xA0 SHL SUB AND PUSH1 0x0 DUP2 DUP2 MSTORE PUSH32 0xE1A43B5771E30CF668EC0DC18C42D6714AFF29CBB9EC47BD8EB0B81D4A8BCC14 PUSH1 0x20 MSTORE PUSH1 0x40 DUP2 KECCAK256 SLOAD SWAP1 SWAP2 SWAP1 PUSH1 0x0 DUP1 MLOAD PUSH1 0x20 PUSH2 0x1C36 DUP4 CODECOPY DUP2 MLOAD SWAP2 MSTORE SWAP1 PUSH1 0xFF AND PUSH2 0x18C8 JUMPI DUP1 DUP4 MSTORE PUSH1 0x1 PUSH1 0x20 MSTORE PUSH1 0x40 DUP4 KECCAK256 DUP3 DUP5 MSTORE PUSH1 0x20 MSTORE PUSH1 0x40 DUP4 KECCAK256 PUSH1 0x1 PUSH1 0xFF NOT DUP3 SLOAD AND OR SWAP1 SSTORE PUSH1 0x0 DUP1 MLOAD PUSH1 0x20 PUSH2 0x1C16 DUP4 CODECOPY DUP2 MLOAD SWAP2 MSTORE CALLER SWAP4 DUP1 LOG4 PUSH1 0x1 SWAP1 JUMP JUMPDEST SWAP1 PUSH1 0x0 SWAP2 DUP1 DUP4 MSTORE PUSH1 0x1 PUSH1 0x20 MSTORE PUSH1 0x40 DUP4 KECCAK256 SWAP2 PUSH1 0x1 DUP1 PUSH1 0xA0 SHL SUB AND SWAP2 DUP3 DUP5 MSTORE PUSH1 0x20 MSTORE PUSH1 0xFF PUSH1 0x40 DUP5 KECCAK256 SLOAD AND ISZERO PUSH1 0x0 EQ PUSH2 0x18C8 JUMPI DUP1 DUP4 MSTORE PUSH1 0x1 PUSH1 0x20 MSTORE PUSH1 0x40 DUP4 KECCAK256 DUP3 DUP5 MSTORE PUSH1 0x20 MSTORE PUSH1 0x40 DUP4 KECCAK256 PUSH1 0x1 PUSH1 0xFF NOT DUP3 SLOAD AND OR SWAP1 SSTORE PUSH1 0x0 DUP1 MLOAD PUSH1 0x20 PUSH2 0x1C16 DUP4 CODECOPY DUP2 MLOAD SWAP2 MSTORE CALLER SWAP4 DUP1 LOG4 PUSH1 0x1 SWAP1 JUMP JUMPDEST PUSH1 0x1 PUSH1 0x1 PUSH1 0xA0 SHL SUB AND PUSH1 0x0 DUP2 DUP2 MSTORE PUSH32 0xE1A43B5771E30CF668EC0DC18C42D6714AFF29CBB9EC47BD8EB0B81D4A8BCC14 PUSH1 0x20 MSTORE PUSH1 0x40 DUP2 KECCAK256 SLOAD SWAP1 SWAP2 SWAP1 PUSH1 0x0 DUP1 MLOAD PUSH1 0x20 PUSH2 0x1C36 DUP4 CODECOPY DUP2 MLOAD SWAP2 MSTORE SWAP1 PUSH1 0xFF AND ISZERO PUSH2 0x18C8 JUMPI DUP1 DUP4 MSTORE PUSH1 0x1 PUSH1 0x20 MSTORE PUSH1 0x40 DUP4 KECCAK256 DUP3 DUP5 MSTORE PUSH1 0x20 MSTORE PUSH1 0x40 DUP4 KECCAK256 PUSH1 0xFF NOT DUP2 SLOAD AND SWAP1 SSTORE PUSH1 0x0 DUP1 MLOAD PUSH1 0x20 PUSH2 0x1C76 DUP4 CODECOPY DUP2 MLOAD SWAP2 MSTORE CALLER SWAP4 DUP1 LOG4 PUSH1 0x1 SWAP1 JUMP JUMPDEST PUSH1 0x1 PUSH1 0x1 PUSH1 0xA0 SHL SUB AND PUSH1 0x0 DUP2 DUP2 MSTORE PUSH32 0xA6EEF7E35ABE7026729641147F7915573C7E97B47EFA546F5F6E3230263BCB49 PUSH1 0x20 MSTORE PUSH1 0x40 DUP2 KECCAK256 SLOAD SWAP1 SWAP2 SWAP1 PUSH1 0xFF AND ISZERO PUSH2 0x1AC1 JUMPI DUP2 DUP1 MSTORE PUSH1 0x1 PUSH1 0x20 MSTORE PUSH1 0x40 DUP3 KECCAK256 DUP2 DUP4 MSTORE PUSH1 0x20 MSTORE PUSH1 0x40 DUP3 KECCAK256 PUSH1 0xFF NOT DUP2 SLOAD AND SWAP1 SSTORE CALLER SWAP2 PUSH1 0x0 DUP1 MLOAD PUSH1 0x20 PUSH2 0x1C76 DUP4 CODECOPY DUP2 MLOAD SWAP2 MSTORE DUP2 DUP1 LOG4 PUSH1 0x1 SWAP1 JUMP JUMPDEST POP SWAP1 JUMP JUMPDEST PUSH1 0x1 PUSH1 0x1 PUSH1 0xA0 SHL SUB AND PUSH1 0x0 DUP2 DUP2 MSTORE PUSH32 0xD52CFEFB3F6FD7766669E08A03D2CEB3243383019E3A5FED2A519DF30EE55B92 PUSH1 0x20 MSTORE PUSH1 0x40 DUP2 KECCAK256 SLOAD SWAP1 SWAP2 SWAP1 PUSH1 0x0 DUP1 MLOAD PUSH1 0x20 PUSH2 0x1C56 DUP4 CODECOPY DUP2 MLOAD SWAP2 MSTORE SWAP1 PUSH1 0xFF AND ISZERO PUSH2 0x18C8 JUMPI DUP1 DUP4 MSTORE PUSH1 0x1 PUSH1 0x20 MSTORE PUSH1 0x40 DUP4 KECCAK256 DUP3 DUP5 MSTORE PUSH1 0x20 MSTORE PUSH1 0x40 DUP4 KECCAK256 PUSH1 0xFF NOT DUP2 SLOAD AND SWAP1 SSTORE PUSH1 0x0 DUP1 MLOAD PUSH1 0x20 PUSH2 0x1C76 DUP4 CODECOPY DUP2 MLOAD SWAP2 MSTORE CALLER SWAP4 DUP1 LOG4 PUSH1 0x1 SWAP1 JUMP JUMPDEST SWAP1 PUSH1 0x0 SWAP2 DUP1 DUP4 MSTORE PUSH1 0x1 PUSH1 0x20 MSTORE PUSH1 0x40 DUP4 KECCAK256 SWAP2 PUSH1 0x1 DUP1 PUSH1 0xA0 SHL SUB AND SWAP2 DUP3 DUP5 MSTORE PUSH1 0x20 MSTORE PUSH1 0xFF PUSH1 0x40 DUP5 KECCAK256 SLOAD AND PUSH1 0x0 EQ PUSH2 0x18C8 JUMPI DUP1 DUP4 MSTORE PUSH1 0x1 PUSH1 0x20 MSTORE PUSH1 0x40 DUP4 KECCAK256 DUP3 DUP5 MSTORE PUSH1 0x20 MSTORE PUSH1 0x40 DUP4 KECCAK256 PUSH1 0xFF NOT DUP2 SLOAD AND SWAP1 SSTORE PUSH1 0x0 DUP1 MLOAD PUSH1 0x20 PUSH2 0x1C76 DUP4 CODECOPY DUP2 MLOAD SWAP2 MSTORE CALLER SWAP4 DUP1 LOG4 PUSH1 0x1 SWAP1 JUMP JUMPDEST SWAP1 PUSH2 0x1BD9 JUMPI POP DUP1 MLOAD ISZERO PUSH2 0x1BC7 JUMPI DUP1 MLOAD SWAP1 PUSH1 0x20 ADD REVERT JUMPDEST PUSH1 0x40 MLOAD PUSH4 0xA12F521 PUSH1 0xE1 SHL DUP2 MSTORE PUSH1 0x4 SWAP1 REVERT JUMPDEST DUP2 MLOAD ISZERO DUP1 PUSH2 0x1C0C JUMPI JUMPDEST PUSH2 0x1BEA JUMPI POP SWAP1 JUMP JUMPDEST PUSH1 0x40 MLOAD PUSH4 0x9996B315 PUSH1 0xE0 SHL DUP2 MSTORE PUSH1 0x1 PUSH1 0x1 PUSH1 0xA0 SHL SUB SWAP1 SWAP2 AND PUSH1 0x4 DUP3 ADD MSTORE PUSH1 0x24 SWAP1 REVERT JUMPDEST POP DUP1 EXTCODESIZE ISZERO PUSH2 0x1BE2 JUMP INVALID 0x2F DUP8 DUP9 GT PUSH31 0x7EFF1D82E926EC794901D17C78024A50270940304540A733656F0DFCB9FCBF 0xA8 EXTCODESIZE DUP10 PUSH32 0xB2D5CF4B58962164105C1E71489A37EF3AE0DB3FDCE576F6DF8B4C520FFE197C MSTORE8 NUMBER 0xC6 CREATE2 0xAE 0xC5 SWAP6 PUSH17 0x151EF9A492F2C624FD45DDDE6135EC42F6 CODECOPY 0x1F TLOAD ORIGIN 0xD9 0xC6 SWAP14 0x2A SELFBALANCE 0xEA PUSH8 0xB442974B53935D1 0xED 0xC7 REVERT PUSH5 0xEB21E047A8 CODECOPY OR SHL LOG2 PUSH5 0x6970667358 0x22 SLT KECCAK256 MUL PUSH25 0x1C30E5EA0E1272FF2034600167268A9477C7CB71CB0EC3E184 ADD 0xC4 0xC0 0x2A TLOAD PUSH5 0x736F6C6343 STOP ADDMOD NOT STOP CALLER "},"methodIdentifiers":{"ADMIN_ROLE()":"75b238fc","DEFAULT_ADMIN_ROLE()":"a217fddf","PAUSE_ROLE()":"389ed267","addAdmin(address)":"70480275","addPauser(address)":"82dc1ec4","callbackGasLimit()":"24f74697","collectRandomGem(uint256)":"a2a79ac1","getDrbCoordinatorAddress()":"224a11a1","getGemFactoryAddress()":"9d541be2","getRandomGem()":"6ce1408b","getRoleAdmin(bytes32)":"248a9ca3","getTonAddress()":"6ae638d0","getTreasuryAddress()":"e0024604","grantRole(bytes32,address)":"2f2ff15d","hasRole(bytes32,address)":"91d14854","isAdmin(address)":"24d7806c","isOwner()":"8f32d59b","onERC721Received(address,address,uint256,bytes)":"150b7a02","perfectCommonGemURI()":"6985ba47","randomPackFees()":"bafc3301","rawFulfillRandomWords(uint256,uint256)":"37ed11db","removeAdmin(address)":"1785f53c","removePauser(address)":"6b2c0f55","renounceOwnership()":"715018a6","renounceRole(bytes32,address)":"36568abe","requestCount()":"5badbe4c","revokeRole(bytes32,address)":"d547741f","s_requests(uint256)":"a168fa89","setCallbackGasLimit(uint32)":"a4eb718c","setGemFactory(address)":"e6147518","setPerfectCommonGemURI(string)":"6ecd19cb","setRandomPackFees(uint256)":"25b5b3b2","setTreasury(address)":"f0f44260","supportsInterface(bytes4)":"01ffc9a7","transferAdmin(address)":"75829def","transferOwnership(address)":"f2fde38b"}}}}}