{"src/common/AuthRole.sol":{"AuthRole":{"abi":[{"inputs":[],"name":"ADMIN_ROLE","outputs":[{"internalType":"bytes32","name":"","type":"bytes32"}],"stateMutability":"view","type":"function"},{"inputs":[],"name":"PAUSE_ROLE","outputs":[{"internalType":"bytes32","name":"","type":"bytes32"}],"stateMutability":"view","type":"function"}],"evm":{"bytecode":{"linkReferences":{},"object":"6080806040523460135760e1908160198239f35b600080fdfe6080806040526004361015601257600080fd5b600090813560e01c908163389ed26714606f57506375b238fc14603457600080fd5b34606c5780600319360112606c5760206040517fdf8b4c520ffe197c5343c6f5aec59570151ef9a492f2c624fd45ddde6135ec428152f35b80fd5b90503460a7578160031936011260a757807ffcb9fcbfa83b897fb2d5cf4b58962164105c1e71489a37ef3ae0db3fdce576f660209252f35b5080fdfea2646970667358221220a4a2595b91625b2d54932be3c8d2651b25fab703ab58f9d1c3536c612883c61364736f6c63430008190033","opcodes":"PUSH1 0x80 DUP1 PUSH1 0x40 MSTORE CALLVALUE PUSH1 0x13 JUMPI PUSH1 0xE1 SWAP1 DUP2 PUSH1 0x19 DUP3 CODECOPY RETURN JUMPDEST PUSH1 0x0 DUP1 REVERT INVALID PUSH1 0x80 DUP1 PUSH1 0x40 MSTORE PUSH1 0x4 CALLDATASIZE LT ISZERO PUSH1 0x12 JUMPI PUSH1 0x0 DUP1 REVERT JUMPDEST PUSH1 0x0 SWAP1 DUP2 CALLDATALOAD PUSH1 0xE0 SHR SWAP1 DUP2 PUSH4 0x389ED267 EQ PUSH1 0x6F JUMPI POP PUSH4 0x75B238FC EQ PUSH1 0x34 JUMPI PUSH1 0x0 DUP1 REVERT JUMPDEST CALLVALUE PUSH1 0x6C JUMPI DUP1 PUSH1 0x3 NOT CALLDATASIZE ADD SLT PUSH1 0x6C JUMPI PUSH1 0x20 PUSH1 0x40 MLOAD PUSH32 0xDF8B4C520FFE197C5343C6F5AEC59570151EF9A492F2C624FD45DDDE6135EC42 DUP2 MSTORE RETURN JUMPDEST DUP1 REVERT JUMPDEST SWAP1 POP CALLVALUE PUSH1 0xA7 JUMPI DUP2 PUSH1 0x3 NOT CALLDATASIZE ADD SLT PUSH1 0xA7 JUMPI DUP1 PUSH32 0xFCB9FCBFA83B897FB2D5CF4B58962164105C1E71489A37EF3AE0DB3FDCE576F6 PUSH1 0x20 SWAP3 MSTORE RETURN JUMPDEST POP DUP1 REVERT INVALID LOG2 PUSH5 0x6970667358 0x22 SLT KECCAK256 LOG4 LOG2 MSIZE JUMPDEST SWAP2 PUSH3 0x5B2D54 SWAP4 0x2B 0xE3 0xC8 0xD2 PUSH6 0x1B25FAB703AB PC 0xF9 0xD1 0xC3 MSTORE8 PUSH13 0x612883C61364736F6C63430008 NOT STOP CALLER "},"methodIdentifiers":{"ADMIN_ROLE()":"75b238fc","PAUSE_ROLE()":"389ed267"}}}}}