{
  "_format": "hh-sol-artifact-1",
  "contractName": "TON",
  "sourceName": "src/L1/Mock/token/TON.sol",
  "abi": [
    {
      "inputs": [],
      "stateMutability": "nonpayable",
      "type": "constructor"
    },
    {
      "inputs": [
        {
          "internalType": "address",
          "name": "spender",
          "type": "address"
        },
        {
          "internalType": "uint256",
          "name": "allowance",
          "type": "uint256"
        },
        {
          "internalType": "uint256",
          "name": "needed",
          "type": "uint256"
        }
      ],
      "name": "ERC20InsufficientAllowance",
      "type": "error"
    },
    {
      "inputs": [
        {
          "internalType": "address",
          "name": "sender",
          "type": "address"
        },
        {
          "internalType": "uint256",
          "name": "balance",
          "type": "uint256"
        },
        {
          "internalType": "uint256",
          "name": "needed",
          "type": "uint256"
        }
      ],
      "name": "ERC20InsufficientBalance",
      "type": "error"
    },
    {
      "inputs": [
        {
          "internalType": "address",
          "name": "approver",
          "type": "address"
        }
      ],
      "name": "ERC20InvalidApprover",
      "type": "error"
    },
    {
      "inputs": [
        {
          "internalType": "address",
          "name": "receiver",
          "type": "address"
        }
      ],
      "name": "ERC20InvalidReceiver",
      "type": "error"
    },
    {
      "inputs": [
        {
          "internalType": "address",
          "name": "sender",
          "type": "address"
        }
      ],
      "name": "ERC20InvalidSender",
      "type": "error"
    },
    {
      "inputs": [
        {
          "internalType": "address",
          "name": "spender",
          "type": "address"
        }
      ],
      "name": "ERC20InvalidSpender",
      "type": "error"
    },
    {
      "inputs": [
        {
          "internalType": "address",
          "name": "owner",
          "type": "address"
        }
      ],
      "name": "OwnableInvalidOwner",
      "type": "error"
    },
    {
      "inputs": [
        {
          "internalType": "address",
          "name": "account",
          "type": "address"
        }
      ],
      "name": "OwnableUnauthorizedAccount",
      "type": "error"
    },
    {
      "anonymous": false,
      "inputs": [
        {
          "indexed": true,
          "internalType": "address",
          "name": "owner",
          "type": "address"
        },
        {
          "indexed": true,
          "internalType": "address",
          "name": "spender",
          "type": "address"
        },
        {
          "indexed": false,
          "internalType": "uint256",
          "name": "value",
          "type": "uint256"
        }
      ],
      "name": "Approval",
      "type": "event"
    },
    {
      "anonymous": false,
      "inputs": [
        {
          "indexed": true,
          "internalType": "address",
          "name": "previousOwner",
          "type": "address"
        },
        {
          "indexed": true,
          "internalType": "address",
          "name": "newOwner",
          "type": "address"
        }
      ],
      "name": "OwnershipTransferred",
      "type": "event"
    },
    {
      "anonymous": false,
      "inputs": [
        {
          "indexed": true,
          "internalType": "address",
          "name": "from",
          "type": "address"
        },
        {
          "indexed": true,
          "internalType": "address",
          "name": "to",
          "type": "address"
        },
        {
          "indexed": false,
          "internalType": "uint256",
          "name": "value",
          "type": "uint256"
        }
      ],
      "name": "Transfer",
      "type": "event"
    },
    {
      "inputs": [
        {
          "internalType": "address",
          "name": "owner",
          "type": "address"
        },
        {
          "internalType": "address",
          "name": "spender",
          "type": "address"
        }
      ],
      "name": "allowance",
      "outputs": [
        {
          "internalType": "uint256",
          "name": "",
          "type": "uint256"
        }
      ],
      "stateMutability": "view",
      "type": "function"
    },
    {
      "inputs": [
        {
          "internalType": "address",
          "name": "spender",
          "type": "address"
        },
        {
          "internalType": "uint256",
          "name": "value",
          "type": "uint256"
        }
      ],
      "name": "approve",
      "outputs": [
        {
          "internalType": "bool",
          "name": "",
          "type": "bool"
        }
      ],
      "stateMutability": "nonpayable",
      "type": "function"
    },
    {
      "inputs": [
        {
          "internalType": "address",
          "name": "spender",
          "type": "address"
        },
        {
          "internalType": "uint256",
          "name": "amount",
          "type": "uint256"
        },
        {
          "internalType": "bytes",
          "name": "data",
          "type": "bytes"
        }
      ],
      "name": "approveAndCall",
      "outputs": [
        {
          "internalType": "bool",
          "name": "",
          "type": "bool"
        }
      ],
      "stateMutability": "nonpayable",
      "type": "function"
    },
    {
      "inputs": [
        {
          "internalType": "address",
          "name": "account",
          "type": "address"
        }
      ],
      "name": "balanceOf",
      "outputs": [
        {
          "internalType": "uint256",
          "name": "",
          "type": "uint256"
        }
      ],
      "stateMutability": "view",
      "type": "function"
    },
    {
      "inputs": [],
      "name": "callbackEnabled",
      "outputs": [
        {
          "internalType": "bool",
          "name": "",
          "type": "bool"
        }
      ],
      "stateMutability": "view",
      "type": "function"
    },
    {
      "inputs": [],
      "name": "decimals",
      "outputs": [
        {
          "internalType": "uint8",
          "name": "",
          "type": "uint8"
        }
      ],
      "stateMutability": "view",
      "type": "function"
    },
    {
      "inputs": [
        {
          "internalType": "bool",
          "name": "_callbackEnabled",
          "type": "bool"
        }
      ],
      "name": "enableCallback",
      "outputs": [],
      "stateMutability": "nonpayable",
      "type": "function"
    },
    {
      "inputs": [
        {
          "internalType": "address",
          "name": "_to",
          "type": "address"
        },
        {
          "internalType": "uint256",
          "name": "_amount",
          "type": "uint256"
        }
      ],
      "name": "mint",
      "outputs": [],
      "stateMutability": "nonpayable",
      "type": "function"
    },
    {
      "inputs": [],
      "name": "name",
      "outputs": [
        {
          "internalType": "string",
          "name": "",
          "type": "string"
        }
      ],
      "stateMutability": "view",
      "type": "function"
    },
    {
      "inputs": [],
      "name": "owner",
      "outputs": [
        {
          "internalType": "address",
          "name": "",
          "type": "address"
        }
      ],
      "stateMutability": "view",
      "type": "function"
    },
    {
      "inputs": [],
      "name": "renounceOwnership",
      "outputs": [],
      "stateMutability": "nonpayable",
      "type": "function"
    },
    {
      "inputs": [],
      "name": "seigManager",
      "outputs": [
        {
          "internalType": "contract ISeigManager",
          "name": "",
          "type": "address"
        }
      ],
      "stateMutability": "view",
      "type": "function"
    },
    {
      "inputs": [
        {
          "internalType": "contract ISeigManager",
          "name": "_seigManager",
          "type": "address"
        }
      ],
      "name": "setSeigManager",
      "outputs": [],
      "stateMutability": "nonpayable",
      "type": "function"
    },
    {
      "inputs": [],
      "name": "symbol",
      "outputs": [
        {
          "internalType": "string",
          "name": "",
          "type": "string"
        }
      ],
      "stateMutability": "view",
      "type": "function"
    },
    {
      "inputs": [],
      "name": "totalSupply",
      "outputs": [
        {
          "internalType": "uint256",
          "name": "",
          "type": "uint256"
        }
      ],
      "stateMutability": "view",
      "type": "function"
    },
    {
      "inputs": [
        {
          "internalType": "address",
          "name": "to",
          "type": "address"
        },
        {
          "internalType": "uint256",
          "name": "value",
          "type": "uint256"
        }
      ],
      "name": "transfer",
      "outputs": [
        {
          "internalType": "bool",
          "name": "",
          "type": "bool"
        }
      ],
      "stateMutability": "nonpayable",
      "type": "function"
    },
    {
      "inputs": [
        {
          "internalType": "address",
          "name": "from",
          "type": "address"
        },
        {
          "internalType": "address",
          "name": "to",
          "type": "address"
        },
        {
          "internalType": "uint256",
          "name": "value",
          "type": "uint256"
        }
      ],
      "name": "transferFrom",
      "outputs": [
        {
          "internalType": "bool",
          "name": "",
          "type": "bool"
        }
      ],
      "stateMutability": "nonpayable",
      "type": "function"
    },
    {
      "inputs": [
        {
          "internalType": "address",
          "name": "newOwner",
          "type": "address"
        }
      ],
      "name": "transferOwnership",
      "outputs": [],
      "stateMutability": "nonpayable",
      "type": "function"
    }
  ],
  "bytecode": "0x60803461037c576040906001600160401b039080830182811182821017610288578352601581526020917f546f6b616d616b204e6574776f726b20546f6b656e000000000000000000000083830152835184810181811083821117610288578552600390818152622a27a760e91b85820152835190838211610288578254916001958684811c94168015610372575b8885101461035c578190601f9485811161030b575b5088908583116001146102a95760009261029e575b505060001982861b1c191690861b1783555b80519384116102885760049586548681811c9116801561027e575b8282101461026957838111610223575b50809285116001146101ba57509383949184926000956101af575b50501b92600019911b1c19161781555b3315610199575060058054336001600160a01b03198083168217909355925192736e1734ac57e76fcd7fd66266ae0c2547db3a713a92916001600160a01b03167f8be0079c531659141344cd1fd0a4f28419497f9722a3daafe3b4186f6b6457e0600080a36006541617600655610d0b90816103828239f35b60006024925191631e4fbdf760e01b8352820152fd5b015193503880610110565b92919084601f1981168860005285600020956000905b8983831061020957505050106101ef575b50505050811b018155610120565b01519060f884600019921b161c19169055388080806101e1565b8587015189559097019694850194889350908101906101d0565b87600052816000208480880160051c820192848910610260575b0160051c019087905b8281106102545750506100f5565b60008155018790610246565b9250819261023d565b602288634e487b7160e01b6000525260246000fd5b90607f16906100e5565b634e487b7160e01b600052604160045260246000fd5b0151905038806100b8565b90889350601f19831691876000528a6000209260005b8c8282106102f557505084116102dd575b505050811b0183556100ca565b015160001983881b60f8161c191690553880806102d0565b8385015186558c979095019493840193016102bf565b90915085600052886000208580850160051c8201928b8610610353575b918a91869594930160051c01915b8281106103445750506100a3565b600081558594508a9101610336565b92508192610328565b634e487b7160e01b600052602260045260246000fd5b93607f169361008e565b600080fdfe6080604052600436101561001257600080fd5b60003560e01c806306fdde0314610137578063095ea7b31461013257806318160ddd1461012d57806323b872dd146101285780633113ed5c14610123578063313ce5671461011e57806340c10f191461011957806363380113146101145780636fb7f5581461010f57806370a082311461010a578063715018a6146101055780637657f20a146101005780638da5cb5b146100fb57806395d89b41146100f6578063a9059cbb146100f1578063cae9ca51146100ec578063dd62ed3e146100e75763f2fde38b146100e257600080fd5b6108e3565b610890565b6107f8565b61076c565b6106a6565b61067d565b610636565b6105d8565b61059b565b610572565b61054c565b61049b565b61047f565b61043b565b610387565b610369565b6102b5565b610190565b919082519283825260005b848110610168575050826000602080949584010152601f8019910116010190565b602081830181015184830182015201610147565b90602061018d92818152019061013c565b90565b3461029f5760008060031936011261029c576040519080600354906001918060011c9260018216928315610292575b60209260208610851461027e57858852602088019490811561025d5750600114610204575b610200876101f4818903826107b7565b6040519182918261017c565b0390f35b600360005294509192917fc2575a0e9e593c00f959f8c92f12db2869c3395a3b0502d05e2516446f71f85b5b83861061024c57505050910190506101f48261020038806101e4565b805485870152948201948101610230565b60ff191685525050505090151560051b0190506101f48261020038806101e4565b634e487b7160e01b82526022600452602482fd5b93607f16936101bf565b80fd5b600080fd5b6001600160a01b0381160361029f57565b3461029f57604036600319011261029f576004356102d2816102a4565b6024353315610350576001600160a01b038216918215610337576102ff82916102fa3361096f565b6109a3565b556040519081527f8c5be1e5ebec7d5bd14f71427d1e84f3dd0314c0f7b2291e5b200ac8c7c3b92560203392a3602060405160018152f35b604051634a1406b160e11b815260006004820152602490fd5b60405163e602df0560e01b815260006004820152602490fd5b3461029f57600036600319011261029f576020600254604051908152f35b3461029f57606036600319011261029f576004356103a4816102a4565b6024356103b0816102a4565b6044359060018060a01b03831660005260016020526103d33360406000206109a3565b5492600184016103f4575b6103e89350610a91565b60405160018152602090f35b8284106104105761040b836103e895033383610cae565b6103de565b604051637dc7a0d960e11b81528061042d85873360048501610a73565b0390fd5b8015150361029f57565b3461029f57602036600319011261029f5760043561045881610431565b610460610b4d565b6007805460ff60a01b191691151560a01b60ff60a01b16919091179055005b3461029f57600036600319011261029f57602060405160128152f35b3461029f57604036600319011261029f576004356104b8816102a4565b6001600160a01b03811690602435908215610533576002549082820180921161051d5760009261050e6020927fddf252ad1be2c89b69c2b068fc378daa952ba7f163c4a11628f55a4df523b3ef94600255610989565b818154019055604051908152a3005b634e487b7160e01b600052601160045260246000fd5b60405163ec442f0560e01b815260006004820152602490fd5b3461029f57600036600319011261029f57602060ff60075460a01c166040519015158152f35b3461029f57600036600319011261029f576007546040516001600160a01b039091168152602090f35b3461029f57602036600319011261029f576004356105b8816102a4565b60018060a01b031660005260006020526020604060002054604051908152f35b3461029f5760008060031936011261029c576105f2610b4d565b600580546001600160a01b0319811690915581906001600160a01b03167f8be0079c531659141344cd1fd0a4f28419497f9722a3daafe3b4186f6b6457e08280a380f35b3461029f57602036600319011261029f57600435610653816102a4565b61065b610b4d565b600780546001600160a01b0319166001600160a01b0392909216919091179055005b3461029f57600036600319011261029f576005546040516001600160a01b039091168152602090f35b3461029f5760008060031936011261029c576040519080600454906001918060011c9260018216928315610762575b60209260208610851461027e57858852602088019490811561025d575060011461070957610200876101f4818903826107b7565b600460005294509192917f8a35acfbc15ff81a39ae7d344fd709f28e8600b4aa8c65c6b64bfe7fe36bd19b5b83861061075157505050910190506101f48261020038806101e4565b805485870152948201948101610735565b93607f16936106d5565b3461029f57604036600319011261029f5761079660043561078c816102a4565b6024359033610a91565b602060405160018152f35b634e487b7160e01b600052604160045260246000fd5b90601f801991011681019081106001600160401b038211176107d857604052565b6107a1565b6001600160401b0381116107d857601f01601f191660200190565b3461029f57606036600319011261029f57600435610815816102a4565b6044356001600160401b03811161029f573660238201121561029f57806004013591610840836107dd565b9061084e60405192836107b7565b838252366024858501011161029f57600060208561020096602461087e97018387013784010152602435906109c1565b60405190151581529081906020820190565b3461029f57604036600319011261029f5760206108da6004356108b2816102a4565b602435906108bf826102a4565b6001600160a01b0316600090815260018452604090206109a3565b54604051908152f35b3461029f57602036600319011261029f57600435610900816102a4565b610908610b4d565b6001600160a01b0390811690811561095657600580546001600160a01b031981168417909155167f8be0079c531659141344cd1fd0a4f28419497f9722a3daafe3b4186f6b6457e0600080a3005b604051631e4fbdf760e01b815260006004820152602490fd5b6001600160a01b0316600090815260016020526040902090565b6001600160a01b0316600090815260208190526040902090565b9060018060a01b0316600052602052604060002090565b1561029f57565b60065460405163095ea7b360e01b81526001600160a01b03808416600483015260248201859052909493929160209186916044918391600091165af1938415610a6757600094610a24575b50610a19610a1f946109ba565b33610c02565b600190565b93506020843d602011610a5f575b81610a3f602093836107b7565b8101031261029f57610a19610a1f9451610a5881610431565b9450610a0c565b3d9150610a32565b6040513d6000823e3d90fd5b604091949392606082019560018060a01b0316825260208201520152565b916001600160a01b0380841692908315610b3457811693841561053357610ab781610989565b54838110610b1657610b11928492610af57fddf252ad1be2c89b69c2b068fc378daa952ba7f163c4a11628f55a4df523b3ef96610afb940391610989565b55610989565b8054820190556040519081529081906020820190565b0390a3565b9061042d8460405193849363391434e360e21b855260048501610a73565b604051634b637e8f60e11b815260006004820152602490fd5b6005546001600160a01b03163303610b6157565b60405163118cdaa760e01b8152336004820152602490fd5b15610b815750565b60405162461bcd60e51b81526020600482015290819061042d90602483019061013c565b15610bac57565b60405162461bcd60e51b815260206004820152602860248201527f45524332304f6e417070726f76653a206661696c656420746f2063616c6c206f6044820152676e417070726f766560c01b6064820152608490fd5b600091829182610ca096610c63602097610c556040519384928b840197632139e50b60e11b895260018060a01b0380911660248601528916604485015260648401526080608484015260a483019061013c565b03601f1981018352826107b7565b51925af13d15610ca257610c993d610c7a816107dd565b90610c8860405192836107b7565b81529182903d60008684013e610b79565b0151610ba5565b565b610c9960608092610b79565b906001600160a01b038083161561035057811615610337576102fa610cd29261096f565b5556fea2646970667358221220c9daa6bdf244b55bf7fc79d5184c7145bd5a0aea71c389157f93297daaa276dd64736f6c63430008190033",
  "linkReferences": {},
  "deployedLinkReferences": {}
}