{
  "_format": "hh-sol-artifact-1",
  "contractName": "AccessRoleCommon",
  "sourceName": "src/L1/Mock/common/AccessRoleCommon.sol",
  "abi": [
    {
      "inputs": [],
      "name": "MINTER_ROLE",
      "outputs": [
        {
          "internalType": "bytes32",
          "name": "",
          "type": "bytes32"
        }
      ],
      "stateMutability": "view",
      "type": "function"
    }
  ],
  "bytecode": "0x608080604052346013576098908160198239f35b600080fdfe6080806040526004361015601257600080fd5b600090813560e01c63d539139314602857600080fd5b34605e5781600319360112605e57807ff0887ba65ee2024ea881d91b74c2450ef19e1557f03bed3ea9f16b037cbe2dc960209252f35b5080fdfea2646970667358221220f92fb4089dfce194c5e507f29786b19dc1b15ca2f01aa0d3350bd14e16e2353c64736f6c63430008190033",
  "linkReferences": {},
  "deployedLinkReferences": {}
}