{
  "_format": "hh-sol-artifact-1",
  "contractName": "Airdrop",
  "sourceName": "src/L2/Airdrop.sol",
  "abi": [
    {
      "inputs": [],
      "name": "AccessControlBadConfirmation",
      "type": "error"
    },
    {
      "inputs": [
        {
          "internalType": "address",
          "name": "account",
          "type": "address"
        },
        {
          "internalType": "bytes32",
          "name": "neededRole",
          "type": "bytes32"
        }
      ],
      "name": "AccessControlUnauthorizedAccount",
      "type": "error"
    },
    {
      "inputs": [],
      "name": "AlreadyInitialized",
      "type": "error"
    },
    {
      "inputs": [],
      "name": "NoEligibleUsers",
      "type": "error"
    },
    {
      "inputs": [],
      "name": "ReentrancyGuardReentrantCall",
      "type": "error"
    },
    {
      "inputs": [],
      "name": "SameAdmin",
      "type": "error"
    },
    {
      "inputs": [],
      "name": "TokenNotAvailable",
      "type": "error"
    },
    {
      "inputs": [],
      "name": "TokenNotOwnedByTreasury",
      "type": "error"
    },
    {
      "inputs": [],
      "name": "UserAlreadyClaimedCurrentAirdrop",
      "type": "error"
    },
    {
      "inputs": [],
      "name": "UserNotEligible",
      "type": "error"
    },
    {
      "inputs": [],
      "name": "ZeroAddress",
      "type": "error"
    },
    {
      "anonymous": false,
      "inputs": [],
      "name": "EligibleTokenListCleared",
      "type": "event"
    },
    {
      "anonymous": false,
      "inputs": [
        {
          "indexed": true,
          "internalType": "bytes32",
          "name": "role",
          "type": "bytes32"
        },
        {
          "indexed": true,
          "internalType": "bytes32",
          "name": "previousAdminRole",
          "type": "bytes32"
        },
        {
          "indexed": true,
          "internalType": "bytes32",
          "name": "newAdminRole",
          "type": "bytes32"
        }
      ],
      "name": "RoleAdminChanged",
      "type": "event"
    },
    {
      "anonymous": false,
      "inputs": [
        {
          "indexed": true,
          "internalType": "bytes32",
          "name": "role",
          "type": "bytes32"
        },
        {
          "indexed": true,
          "internalType": "address",
          "name": "account",
          "type": "address"
        },
        {
          "indexed": true,
          "internalType": "address",
          "name": "sender",
          "type": "address"
        }
      ],
      "name": "RoleGranted",
      "type": "event"
    },
    {
      "anonymous": false,
      "inputs": [
        {
          "indexed": true,
          "internalType": "bytes32",
          "name": "role",
          "type": "bytes32"
        },
        {
          "indexed": true,
          "internalType": "address",
          "name": "account",
          "type": "address"
        },
        {
          "indexed": true,
          "internalType": "address",
          "name": "sender",
          "type": "address"
        }
      ],
      "name": "RoleRevoked",
      "type": "event"
    },
    {
      "anonymous": false,
      "inputs": [
        {
          "indexed": false,
          "internalType": "uint256[]",
          "name": "tokenIds",
          "type": "uint256[]"
        },
        {
          "indexed": false,
          "internalType": "address",
          "name": "_to",
          "type": "address"
        }
      ],
      "name": "TokensAssigned",
      "type": "event"
    },
    {
      "anonymous": false,
      "inputs": [
        {
          "indexed": false,
          "internalType": "uint256[]",
          "name": "tokenIds",
          "type": "uint256[]"
        },
        {
          "indexed": false,
          "internalType": "address",
          "name": "to",
          "type": "address"
        }
      ],
      "name": "TokensClaimed",
      "type": "event"
    },
    {
      "inputs": [],
      "name": "ADMIN_ROLE",
      "outputs": [
        {
          "internalType": "bytes32",
          "name": "",
          "type": "bytes32"
        }
      ],
      "stateMutability": "view",
      "type": "function"
    },
    {
      "inputs": [],
      "name": "DEFAULT_ADMIN_ROLE",
      "outputs": [
        {
          "internalType": "bytes32",
          "name": "",
          "type": "bytes32"
        }
      ],
      "stateMutability": "view",
      "type": "function"
    },
    {
      "inputs": [],
      "name": "PAUSE_ROLE",
      "outputs": [
        {
          "internalType": "bytes32",
          "name": "",
          "type": "bytes32"
        }
      ],
      "stateMutability": "view",
      "type": "function"
    },
    {
      "inputs": [
        {
          "internalType": "address",
          "name": "account",
          "type": "address"
        }
      ],
      "name": "addAdmin",
      "outputs": [],
      "stateMutability": "nonpayable",
      "type": "function"
    },
    {
      "inputs": [
        {
          "internalType": "address",
          "name": "account",
          "type": "address"
        }
      ],
      "name": "addPauser",
      "outputs": [],
      "stateMutability": "nonpayable",
      "type": "function"
    },
    {
      "inputs": [
        {
          "internalType": "address",
          "name": "",
          "type": "address"
        }
      ],
      "name": "aliveImplementation",
      "outputs": [
        {
          "internalType": "bool",
          "name": "",
          "type": "bool"
        }
      ],
      "stateMutability": "view",
      "type": "function"
    },
    {
      "inputs": [
        {
          "internalType": "uint256[]",
          "name": "_tokenIds",
          "type": "uint256[]"
        },
        {
          "internalType": "address",
          "name": "_to",
          "type": "address"
        }
      ],
      "name": "assignGemForAirdrop",
      "outputs": [
        {
          "internalType": "bool",
          "name": "",
          "type": "bool"
        }
      ],
      "stateMutability": "nonpayable",
      "type": "function"
    },
    {
      "inputs": [],
      "name": "claimAirdrop",
      "outputs": [],
      "stateMutability": "nonpayable",
      "type": "function"
    },
    {
      "inputs": [],
      "name": "clearEligibleTokensList",
      "outputs": [
        {
          "internalType": "bool",
          "name": "",
          "type": "bool"
        }
      ],
      "stateMutability": "nonpayable",
      "type": "function"
    },
    {
      "inputs": [],
      "name": "gemFactory",
      "outputs": [
        {
          "internalType": "address",
          "name": "",
          "type": "address"
        }
      ],
      "stateMutability": "view",
      "type": "function"
    },
    {
      "inputs": [],
      "name": "getGemFactory",
      "outputs": [
        {
          "internalType": "address",
          "name": "",
          "type": "address"
        }
      ],
      "stateMutability": "view",
      "type": "function"
    },
    {
      "inputs": [
        {
          "internalType": "bytes32",
          "name": "role",
          "type": "bytes32"
        }
      ],
      "name": "getRoleAdmin",
      "outputs": [
        {
          "internalType": "bytes32",
          "name": "",
          "type": "bytes32"
        }
      ],
      "stateMutability": "view",
      "type": "function"
    },
    {
      "inputs": [
        {
          "internalType": "address",
          "name": "_address",
          "type": "address"
        }
      ],
      "name": "getTokensEligible",
      "outputs": [
        {
          "internalType": "uint256[]",
          "name": "",
          "type": "uint256[]"
        }
      ],
      "stateMutability": "view",
      "type": "function"
    },
    {
      "inputs": [],
      "name": "getTreasury",
      "outputs": [
        {
          "internalType": "address",
          "name": "",
          "type": "address"
        }
      ],
      "stateMutability": "view",
      "type": "function"
    },
    {
      "inputs": [
        {
          "internalType": "address",
          "name": "_user",
          "type": "address"
        }
      ],
      "name": "getUserClaimed",
      "outputs": [
        {
          "internalType": "bool",
          "name": "",
          "type": "bool"
        }
      ],
      "stateMutability": "view",
      "type": "function"
    },
    {
      "inputs": [],
      "name": "getUsersWithEligibleTokens",
      "outputs": [
        {
          "internalType": "address[]",
          "name": "",
          "type": "address[]"
        }
      ],
      "stateMutability": "view",
      "type": "function"
    },
    {
      "inputs": [
        {
          "internalType": "bytes32",
          "name": "role",
          "type": "bytes32"
        },
        {
          "internalType": "address",
          "name": "account",
          "type": "address"
        }
      ],
      "name": "grantRole",
      "outputs": [],
      "stateMutability": "nonpayable",
      "type": "function"
    },
    {
      "inputs": [
        {
          "internalType": "address",
          "name": "_user",
          "type": "address"
        }
      ],
      "name": "hasEligibleTokens",
      "outputs": [
        {
          "internalType": "bool",
          "name": "",
          "type": "bool"
        }
      ],
      "stateMutability": "view",
      "type": "function"
    },
    {
      "inputs": [
        {
          "internalType": "bytes32",
          "name": "role",
          "type": "bytes32"
        },
        {
          "internalType": "address",
          "name": "account",
          "type": "address"
        }
      ],
      "name": "hasRole",
      "outputs": [
        {
          "internalType": "bool",
          "name": "",
          "type": "bool"
        }
      ],
      "stateMutability": "view",
      "type": "function"
    },
    {
      "inputs": [
        {
          "internalType": "address",
          "name": "_treasury",
          "type": "address"
        },
        {
          "internalType": "address",
          "name": "_gemFactory",
          "type": "address"
        }
      ],
      "name": "initialize",
      "outputs": [],
      "stateMutability": "nonpayable",
      "type": "function"
    },
    {
      "inputs": [
        {
          "internalType": "address",
          "name": "account",
          "type": "address"
        }
      ],
      "name": "isAdmin",
      "outputs": [
        {
          "internalType": "bool",
          "name": "",
          "type": "bool"
        }
      ],
      "stateMutability": "view",
      "type": "function"
    },
    {
      "inputs": [],
      "name": "isInitialized",
      "outputs": [
        {
          "internalType": "bool",
          "name": "",
          "type": "bool"
        }
      ],
      "stateMutability": "view",
      "type": "function"
    },
    {
      "inputs": [],
      "name": "isOwner",
      "outputs": [
        {
          "internalType": "bool",
          "name": "",
          "type": "bool"
        }
      ],
      "stateMutability": "view",
      "type": "function"
    },
    {
      "inputs": [],
      "name": "isPaused",
      "outputs": [
        {
          "internalType": "bool",
          "name": "",
          "type": "bool"
        }
      ],
      "stateMutability": "view",
      "type": "function"
    },
    {
      "inputs": [],
      "name": "pause",
      "outputs": [],
      "stateMutability": "nonpayable",
      "type": "function"
    },
    {
      "inputs": [],
      "name": "pauseProxy",
      "outputs": [
        {
          "internalType": "bool",
          "name": "",
          "type": "bool"
        }
      ],
      "stateMutability": "view",
      "type": "function"
    },
    {
      "inputs": [],
      "name": "paused",
      "outputs": [
        {
          "internalType": "bool",
          "name": "",
          "type": "bool"
        }
      ],
      "stateMutability": "view",
      "type": "function"
    },
    {
      "inputs": [
        {
          "internalType": "uint256",
          "name": "",
          "type": "uint256"
        }
      ],
      "name": "proxyImplementation",
      "outputs": [
        {
          "internalType": "address",
          "name": "",
          "type": "address"
        }
      ],
      "stateMutability": "view",
      "type": "function"
    },
    {
      "inputs": [
        {
          "internalType": "address",
          "name": "account",
          "type": "address"
        }
      ],
      "name": "removeAdmin",
      "outputs": [],
      "stateMutability": "nonpayable",
      "type": "function"
    },
    {
      "inputs": [
        {
          "internalType": "address",
          "name": "account",
          "type": "address"
        }
      ],
      "name": "removePauser",
      "outputs": [],
      "stateMutability": "nonpayable",
      "type": "function"
    },
    {
      "inputs": [],
      "name": "renounceOwnership",
      "outputs": [],
      "stateMutability": "nonpayable",
      "type": "function"
    },
    {
      "inputs": [
        {
          "internalType": "bytes32",
          "name": "role",
          "type": "bytes32"
        },
        {
          "internalType": "address",
          "name": "callerConfirmation",
          "type": "address"
        }
      ],
      "name": "renounceRole",
      "outputs": [],
      "stateMutability": "nonpayable",
      "type": "function"
    },
    {
      "inputs": [
        {
          "internalType": "bytes32",
          "name": "role",
          "type": "bytes32"
        },
        {
          "internalType": "address",
          "name": "account",
          "type": "address"
        }
      ],
      "name": "revokeRole",
      "outputs": [],
      "stateMutability": "nonpayable",
      "type": "function"
    },
    {
      "inputs": [
        {
          "internalType": "bytes4",
          "name": "",
          "type": "bytes4"
        }
      ],
      "name": "selectorImplementation",
      "outputs": [
        {
          "internalType": "address",
          "name": "",
          "type": "address"
        }
      ],
      "stateMutability": "view",
      "type": "function"
    },
    {
      "inputs": [
        {
          "internalType": "bytes4",
          "name": "interfaceId",
          "type": "bytes4"
        }
      ],
      "name": "supportsInterface",
      "outputs": [
        {
          "internalType": "bool",
          "name": "",
          "type": "bool"
        }
      ],
      "stateMutability": "view",
      "type": "function"
    },
    {
      "inputs": [
        {
          "internalType": "address",
          "name": "",
          "type": "address"
        },
        {
          "internalType": "uint256",
          "name": "",
          "type": "uint256"
        }
      ],
      "name": "tokensEligible",
      "outputs": [
        {
          "internalType": "uint256",
          "name": "",
          "type": "uint256"
        }
      ],
      "stateMutability": "view",
      "type": "function"
    },
    {
      "inputs": [
        {
          "internalType": "address",
          "name": "newAdmin",
          "type": "address"
        }
      ],
      "name": "transferAdmin",
      "outputs": [],
      "stateMutability": "nonpayable",
      "type": "function"
    },
    {
      "inputs": [
        {
          "internalType": "address",
          "name": "newAdmin",
          "type": "address"
        }
      ],
      "name": "transferOwnership",
      "outputs": [],
      "stateMutability": "nonpayable",
      "type": "function"
    },
    {
      "inputs": [],
      "name": "treasury",
      "outputs": [
        {
          "internalType": "address",
          "name": "",
          "type": "address"
        }
      ],
      "stateMutability": "view",
      "type": "function"
    },
    {
      "inputs": [],
      "name": "unpause",
      "outputs": [],
      "stateMutability": "nonpayable",
      "type": "function"
    },
    {
      "inputs": [
        {
          "internalType": "address",
          "name": "",
          "type": "address"
        }
      ],
      "name": "userClaimed",
      "outputs": [
        {
          "internalType": "bool",
          "name": "",
          "type": "bool"
        }
      ],
      "stateMutability": "view",
      "type": "function"
    }
  ],
  "bytecode": "0x608080604052346057576301ffc9a760e01b600052600b6020527f6fc4fe54b7713e8c3beb98c1633f1a7c51390dad7f13255e19999c5edaf38b65805460ff19166001908117909155600d55611a61908161005d8239f35b600080fdfe608060408181526004908136101561001657600080fd5b600092833560e01c90816301ffc9a71461124d57508063155f4fa8146111205780631785f53c146110f35780631c6bd5b91461102e578063248a9ca31461100357806324d7806c14610faf5780632f2ff15d14610f8757806336568abe14610f40578063389ed26714610f17578063392e53cd14610ef05780633b19e84a1461070f5780633b7fcdca146103f45780633f4ba83a14610eba578063485cc95514610e3257806350d2a27614610dee578063550d01a314610db057806356b2e412146109dc5780635b88349d146107375780635c975abb1461046557806361d027b31461070f57806363a8fd89146106ed5780636b2c0f551461069f5780637048027514610650578063715018a61461062b57806375829def1461060557806375b238fc146105dc57806382dc1ec41461054a5780638456cb59146105115780638f32d59b146104eb57806391d14854146104a4578063a217fddf14610489578063a53225c01461028f578063b187bd2614610465578063b911135f14610432578063c55321e6146103f4578063cb216356146103b6578063d547741f14610378578063e7da0eed1461031f578063eeb261c1146102bc578063f00fe4fd1461028f5763f2fde38b146101e757600080fd5b3461028b57602036600319011261028b57610200611286565b9161021161020c61152d565b6113f7565b61021c61020c61152d565b6001600160a01b038316801561027c57331461026e57509061025c6001610261936000805160206119ec8339815191528652600c6020528520015461157c565b61162d565b5061026b3361144f565b80f35b90516309cd70b960e21b8152fd5b50905163d92e233d60e01b8152fd5b8280fd5b8382346102b857816003193601126102b85760055490516001600160a01b039091168152602090f35b5080fd5b8382346102b85760203660031901126102b85761031b9161030291906103099082906001600160a01b036102ee611286565b1681526009602052208251938480926114ef565b03836112e0565b5191829160208352602083019061134a565b0390f35b8382346102b857806003193601126102b857610339611286565b6001600160a01b03168252600960205280822080546024359390841015610375575060209261036791611332565b91905490519160031b1c8152f35b80fd5b503461028b578060031936011261028b576103b291356103ad600161039b6112a1565b93838752600c6020528620015461157c565b611926565b5080f35b8382346102b85760203660031901126102b85760209160ff9082906001600160a01b036103e1611286565b168152600a855220541690519015158152f35b8382346102b85760203660031901126102b85760209160ff9082906001600160a01b0361041f611286565b1681526008855220541690519015158152f35b50903461028b57602036600319011261028b5735825260016020908152918190205490516001600160a01b039091168152f35b8382346102b857816003193601126102b85760209060ff6007541690519015158152f35b8382346102b857816003193601126102b85751908152602090f35b50903461028b578160031936011261028b578160209360ff926104c56112a1565b90358252600c86528282206001600160a01b039091168252855220549151911615158152f35b8382346102b857816003193601126102b85760209061050861152d565b90519015158152f35b833461037557806003193601126103755761052d61020c61152d565b600160075461053f60ff82161561147d565b60ff19161760075580f35b8382346102b85760203660031901126102b8576103b2906105c4600161056e611286565b926000805160206119ec8339815191528652600c60205280862033875260205260ff818720541680156105c9575b6105a59061137e565b6000805160206119cc8339815191528652600c6020528520015461157c565b6116bc565b506105a56105d561152d565b905061059c565b8382346102b857816003193601126102b857602090516000805160206119ec8339815191528152f35b503461028b57602036600319011261028b5761061f611286565b9161021c61020c61152d565b833461037557806003193601126103755761064761020c61152d565b6103b233611837565b8382346102b85760203660031901126102b8576103b29061025c6001610674611286565b9261068061020c61152d565b6000805160206119ec8339815191528652600c6020528520015461157c565b50903461028b57602036600319011261028b576106ba611286565b916106c661020c61152d565b336001600160a01b038416036106e057836103b2846117af565b5163334bd91960e11b8152fd5b8382346102b857816003193601126102b85760ff602092541690519015158152f35b50903461028b578260031936011261028b575490516001600160a01b03909116815260209150f35b50823461037557806003193601126103755761075860ff600754161561147d565b6002600d54146109ce576002600d5533815260209160088352600192600160ff83852054161515146109be576107a2929394338552600982526107a98386208451958680926114ef565b03856112e0565b8351156109b0573385526008825282852060ff1990600182825416179055600983526107dc8487208054908881556113d6565b338652600a83528386209081541690558585905b61083f575b50507f81017b6d9dcd50d1463b528b7a1c8c1dd866348804544848d3ca723d5f9c69a293945061082e825193838594855284019061134a565b9033908301520390a16001600d5580f35b84518110156109ab576005546001600160a01b039081169061086183886114bc565b51918651926331a9108f60e11b84528584015260249286818581855afa90811561097457908b9695949392918b9161097e575b5082808754169116146108ae575b505050820190916107f0565b9091929394506108be84896114bc565b51813b15610961579089809493928951928391634d723a7560e01b83528983015282868301528160449788925af1801561097457610965575b508454169161090684896114bc565b5191833b156109615790899291838951958694859363048dbcef60e41b8552338b8601528401525af180156109575791889392918492610948575b81926108a2565b610951906112b7565b89610941565b85513d89823e3d90fd5b8980fd5b61096e906112b7565b8a6108f7565b88513d8c823e3d90fd5b61099e9150883d8a116109a4575b61099681836112e0565b8101906114d0565b8c610894565b503d61098c565b6107f5565b825163267c16a760e21b8152fd5b8151632ca1efb560e21b81528590fd5b5051633ee5aeb560e01b8152fd5b5082346103755781600319360112610375578235916001600160401b039081841161028b573660238501121561028b5783850135916024908311610d9f576005938360051b95602096845195610a34898301886112e0565b8652838887019183010191368311610d9b5784899101915b838310610d8b5750505050610a5f6112a1565b926000805160206119ec8339815191528252600c8752808220338352875260ff81832054168015610d78575b610a949061137e565b6001600160a01b039384168083526009885281832090979095835b8151811015610c8157610ac281836114bc565b51885489875b83838210610c5b5750505050878a54168c828751916331a9108f60e11b835282015285818a81855afa908115610bd2578e8b918a93610c3a575b50548116911603610c2a57855163276a28a360e01b8152808e0183905285818a81855afa908115610bd2578891610bf0575b50610be057803b15610bdc57879087838f604490838b519586948593634d723a7560e01b8552840152600180988401525af18015610bd257610bc3575b50895490600160401b821015610bb05781610b94916001959493018c558b611332565b819291549060031b91821b91600019901b191617905501610aaf565b50634e487b7160e01b875260418d528787fd5b610bcc906112b7565b8d610b71565b87513d8a823e3d90fd5b8680fd5b8551636f4c40dd60e01b81528d90fd5b90508581813d8311610c23575b610c0781836112e0565b81010312610c1f57518015158103610c1f578e610b34565b8780fd5b503d610bfd565b855163de5ba81760e01b81528d90fd5b82919350610c5490893d8b116109a45761099681836112e0565b9290610b02565b610c6782600194611332565b90549060031b1c14610c7c575b018a90610ac8565b610c74565b8284898c8a8f8b8b8481526008885286812060ff1990818154169055600a895287822090815460ff811615610cf9575b8a8a7f6010d17ca674a11494ef21d1535339e57b4cc5f748aff181d496b89917aaf68b610cea8c8c8451928392868452868401906114ef565b90868301520390a15160018152f35b16600117905560065492600160401b841015610d6857505050917f6010d17ca674a11494ef21d1535339e57b4cc5f748aff181d496b89917aaf68b9391610d49846001610cea9601600655611301565b819291549060031b9184831b921b191617905591819387808080610cb1565b634e487b7160e01b825260419052fd5b50610a94610d8461152d565b9050610a8b565b8235815291810191899101610a4c565b8380fd5b634e487b7160e01b84526041865283fd5b8382346102b85760203660031901126102b85760209160ff9082906001600160a01b03610ddb611286565b1681526002855220541690519015158152f35b50903461028b57602036600319011261028b573563ffffffff60e01b811680910361028b57825260036020908152918190205490516001600160a01b039091168152f35b50903461028b578160031936011261028b57610e4c611286565b91610e556112a1565b9060ff60075460081c16610eac5750610e6d336115c0565b5081546001600160a01b03199081166001600160a01b03948516179092556005805490921692169190911790556007805461ff00191661010017905580f35b5162dc149f60e41b81529050fd5b8334610375578060031936011261037557610ed661020c61152d565b600754610ee660ff82161561147d565b60ff191660075580f35b8382346102b857816003193601126102b85760209060ff60075460081c1690519015158152f35b8382346102b857816003193601126102b857602090516000805160206119cc8339815191528152f35b508290346102b857806003193601126102b857610f5b6112a1565b90336001600160a01b03831603610f7857506103b2919235611926565b5163334bd91960e11b81528390fd5b503461028b578060031936011261028b576103b29135610faa600161039b6112a1565b611746565b8382346102b85760203660031901126102b85760ff81602093610fd0611286565b6000805160206119ec8339815191528252600c86528282206001600160a01b039091168252855220549151911615158152f35b50903461028b57602036600319011261028b5781602093600192358152600c85522001549051908152f35b5082346103755780600319360112610375578151600680548083529083526020939284830192909183907ff652222313e28459528d920b65115c16c04f3efc82aaedc97be59f3f377c0d3f90845b8181106110d657505050816110929103826112e0565b83519485948186019282875251809352850193925b8281106110b657505050500390f35b83516001600160a01b0316855286955093810193928101926001016110a7565b82546001600160a01b03168452928801926001928301920161107c565b83346103755760203660031901126103755761026b611110611286565b61111b61020c61152d565b61144f565b503461028b578260031936011261028b576000805160206119ec8339815191528352602090600c8252808420338552825260ff8185205416801561123a575b6111689061137e565b6006926006541561122c5750835b83548110156111d7578061118b600192611301565b838060a01b0391549060031b1c16808752600985526111b18488208054908981556113d6565b86526008845282862060ff1990818154169055600a855283872090815416905501611176565b507f579909dd9ac17c7f62d01eabab0127d8ec5b8f3375e59d9a0785c1fd50c5fe2384916006548360065580611213575b50519180a160018152f35b60068452848420611226918101906113bf565b84611208565b9051630404844760e01b8152fd5b5061116861124661152d565b905061115f565b8490843461028b57602036600319011261028b5735916001600160e01b0319831683036103755750611280602092611550565b15158152f35b600435906001600160a01b038216820361129c57565b600080fd5b602435906001600160a01b038216820361129c57565b6001600160401b0381116112ca57604052565b634e487b7160e01b600052604160045260246000fd5b90601f801991011681019081106001600160401b038211176112ca57604052565b60065481101561131c57600660005260206000200190600090565b634e487b7160e01b600052603260045260246000fd5b805482101561131c5760005260206000200190600090565b90815180825260208080930193019160005b82811061136a575050505090565b83518552938101939281019260010161135c565b1561138557565b60405162461bcd60e51b81526020600482015260126024820152713737ba1027bbb732b91037b91020b236b4b760711b6044820152606490fd5b8181106113ca575050565b600081556001016113bf565b90806113e0575050565b6113f5916000526020600020908101906113bf565b565b156113fe57565b60405162461bcd60e51b8152602060048201526024808201527f41757468436f6e74726f6c3a2043616c6c6572206973206e6f7420746865206f6044820152633bb732b960e11b6064820152608490fd5b336001600160a01b0382160361146b576114689061189e565b50565b60405163334bd91960e11b8152600490fd5b1561148457565b60405162461bcd60e51b815260206004820152601060248201526f14185d5cd8589b194e881c185d5cd95960821b6044820152606490fd5b805182101561131c5760209160051b010190565b9081602091031261129c57516001600160a01b038116810361129c5790565b9081548082526020809201926000526020600020916000905b828210611516575050505090565b835485529384019360019384019390910190611508565b3360009081526000805160206119ac833981519152602052604090205460ff1690565b6001600160e01b03198116637965db0b60e01b1490811561156f575090565b6115799150611550565b90565b80600052600c60205260406000203360005260205260ff60406000205416156115a25750565b6044906040519063e2517d3f60e01b82523360048301526024820152fd5b6001600160a01b031660008181526000805160206119ac833981519152602052604081205490919060ff1661162957818052600c6020526040822081835260205260408220600160ff19825416179055339160008051602061198c8339815191528180a4600190565b5090565b6001600160a01b031660008181527f7d5405723e3f85426c68a63938c8549334e29cc23b03b741ad9d81a8734f567c60205260408120549091906000805160206119ec8339815191529060ff166116b757808352600c6020526040832082845260205260408320600160ff1982541617905560008051602061198c833981519152339380a4600190565b505090565b6001600160a01b031660008181527f641aa0044c3ac28afaad743d3256a7d0f7c46595c21ed8fcd6992beffc99b7bc60205260408120549091906000805160206119cc8339815191529060ff166116b757808352600c6020526040832082845260205260408320600160ff1982541617905560008051602061198c833981519152339380a4600190565b90600091808352600c602052604083209160018060a01b03169182845260205260ff604084205416156000146116b757808352600c6020526040832082845260205260408320600160ff1982541617905560008051602061198c833981519152339380a4600190565b6001600160a01b031660008181527f641aa0044c3ac28afaad743d3256a7d0f7c46595c21ed8fcd6992beffc99b7bc60205260408120549091906000805160206119cc8339815191529060ff16156116b757808352600c602052604083208284526020526040832060ff198154169055600080516020611a0c833981519152339380a4600190565b6001600160a01b031660008181526000805160206119ac833981519152602052604081205490919060ff161561162957818052600c602052604082208183526020526040822060ff1981541690553391600080516020611a0c8339815191528180a4600190565b6001600160a01b031660008181527f7d5405723e3f85426c68a63938c8549334e29cc23b03b741ad9d81a8734f567c60205260408120549091906000805160206119ec8339815191529060ff16156116b757808352600c602052604083208284526020526040832060ff198154169055600080516020611a0c833981519152339380a4600190565b90600091808352600c602052604083209160018060a01b03169182845260205260ff6040842054166000146116b757808352600c602052604083208284526020526040832060ff198154169055600080516020611a0c833981519152339380a460019056fe2f8788117e7eff1d82e926ec794901d17c78024a50270940304540a733656f0d13649b2456f1b42fef0f0040b3aaeabcd21a76a0f3f5defd4f583839455116e8fcb9fcbfa83b897fb2d5cf4b58962164105c1e71489a37ef3ae0db3fdce576f6df8b4c520ffe197c5343c6f5aec59570151ef9a492f2c624fd45ddde6135ec42f6391f5c32d9c69d2a47ea670b442974b53935d1edc7fd64eb21e047a839171ba2646970667358221220bccabae3efa1b7281dc2892a9a3b4d6d6788f0f19d7a028a590a8f91e5a4dd1764736f6c63430008190033",
  "linkReferences": {},
  "deployedLinkReferences": {}
}