{
  "_format": "hh-sol-artifact-1",
  "contractName": "Airdrop",
  "sourceName": "src/L2/Airdrop.sol",
  "abi": [
    {
      "inputs": [],
      "name": "AccessControlBadConfirmation",
      "type": "error"
    },
    {
      "inputs": [
        {
          "internalType": "address",
          "name": "account",
          "type": "address"
        },
        {
          "internalType": "bytes32",
          "name": "neededRole",
          "type": "bytes32"
        }
      ],
      "name": "AccessControlUnauthorizedAccount",
      "type": "error"
    },
    {
      "inputs": [],
      "name": "AlreadyInitialized",
      "type": "error"
    },
    {
      "inputs": [],
      "name": "NoEligibleUsers",
      "type": "error"
    },
    {
      "inputs": [],
      "name": "ReentrancyGuardReentrantCall",
      "type": "error"
    },
    {
      "inputs": [],
      "name": "SameAdmin",
      "type": "error"
    },
    {
      "inputs": [],
      "name": "TokenNotAvailable",
      "type": "error"
    },
    {
      "inputs": [],
      "name": "TokenNotOwnedByTreasury",
      "type": "error"
    },
    {
      "inputs": [],
      "name": "UserAlreadyClaimedCurrentAirdrop",
      "type": "error"
    },
    {
      "inputs": [],
      "name": "UserNotEligible",
      "type": "error"
    },
    {
      "inputs": [],
      "name": "ZeroAddress",
      "type": "error"
    },
    {
      "anonymous": false,
      "inputs": [],
      "name": "EligibleTokenListCleared",
      "type": "event"
    },
    {
      "anonymous": false,
      "inputs": [
        {
          "indexed": true,
          "internalType": "bytes32",
          "name": "role",
          "type": "bytes32"
        },
        {
          "indexed": true,
          "internalType": "bytes32",
          "name": "previousAdminRole",
          "type": "bytes32"
        },
        {
          "indexed": true,
          "internalType": "bytes32",
          "name": "newAdminRole",
          "type": "bytes32"
        }
      ],
      "name": "RoleAdminChanged",
      "type": "event"
    },
    {
      "anonymous": false,
      "inputs": [
        {
          "indexed": true,
          "internalType": "bytes32",
          "name": "role",
          "type": "bytes32"
        },
        {
          "indexed": true,
          "internalType": "address",
          "name": "account",
          "type": "address"
        },
        {
          "indexed": true,
          "internalType": "address",
          "name": "sender",
          "type": "address"
        }
      ],
      "name": "RoleGranted",
      "type": "event"
    },
    {
      "anonymous": false,
      "inputs": [
        {
          "indexed": true,
          "internalType": "bytes32",
          "name": "role",
          "type": "bytes32"
        },
        {
          "indexed": true,
          "internalType": "address",
          "name": "account",
          "type": "address"
        },
        {
          "indexed": true,
          "internalType": "address",
          "name": "sender",
          "type": "address"
        }
      ],
      "name": "RoleRevoked",
      "type": "event"
    },
    {
      "anonymous": false,
      "inputs": [
        {
          "indexed": false,
          "internalType": "uint256[]",
          "name": "tokenIds",
          "type": "uint256[]"
        },
        {
          "indexed": false,
          "internalType": "address",
          "name": "_to",
          "type": "address"
        }
      ],
      "name": "TokensAssigned",
      "type": "event"
    },
    {
      "anonymous": false,
      "inputs": [
        {
          "indexed": false,
          "internalType": "uint256[]",
          "name": "tokenIds",
          "type": "uint256[]"
        },
        {
          "indexed": false,
          "internalType": "address",
          "name": "to",
          "type": "address"
        }
      ],
      "name": "TokensClaimed",
      "type": "event"
    },
    {
      "inputs": [],
      "name": "ADMIN_ROLE",
      "outputs": [
        {
          "internalType": "bytes32",
          "name": "",
          "type": "bytes32"
        }
      ],
      "stateMutability": "view",
      "type": "function"
    },
    {
      "inputs": [],
      "name": "DEFAULT_ADMIN_ROLE",
      "outputs": [
        {
          "internalType": "bytes32",
          "name": "",
          "type": "bytes32"
        }
      ],
      "stateMutability": "view",
      "type": "function"
    },
    {
      "inputs": [],
      "name": "PAUSE_ROLE",
      "outputs": [
        {
          "internalType": "bytes32",
          "name": "",
          "type": "bytes32"
        }
      ],
      "stateMutability": "view",
      "type": "function"
    },
    {
      "inputs": [
        {
          "internalType": "address",
          "name": "account",
          "type": "address"
        }
      ],
      "name": "addAdmin",
      "outputs": [],
      "stateMutability": "nonpayable",
      "type": "function"
    },
    {
      "inputs": [
        {
          "internalType": "address",
          "name": "account",
          "type": "address"
        }
      ],
      "name": "addPauser",
      "outputs": [],
      "stateMutability": "nonpayable",
      "type": "function"
    },
    {
      "inputs": [
        {
          "internalType": "address",
          "name": "",
          "type": "address"
        }
      ],
      "name": "aliveImplementation",
      "outputs": [
        {
          "internalType": "bool",
          "name": "",
          "type": "bool"
        }
      ],
      "stateMutability": "view",
      "type": "function"
    },
    {
      "inputs": [
        {
          "internalType": "uint256[]",
          "name": "_tokenIds",
          "type": "uint256[]"
        },
        {
          "internalType": "address",
          "name": "_to",
          "type": "address"
        }
      ],
      "name": "assignGemForAirdrop",
      "outputs": [
        {
          "internalType": "bool",
          "name": "",
          "type": "bool"
        }
      ],
      "stateMutability": "nonpayable",
      "type": "function"
    },
    {
      "inputs": [],
      "name": "claimAirdrop",
      "outputs": [],
      "stateMutability": "nonpayable",
      "type": "function"
    },
    {
      "inputs": [],
      "name": "clearEligibleTokensList",
      "outputs": [
        {
          "internalType": "bool",
          "name": "",
          "type": "bool"
        }
      ],
      "stateMutability": "nonpayable",
      "type": "function"
    },
    {
      "inputs": [],
      "name": "getGemFactory",
      "outputs": [
        {
          "internalType": "address",
          "name": "",
          "type": "address"
        }
      ],
      "stateMutability": "view",
      "type": "function"
    },
    {
      "inputs": [
        {
          "internalType": "bytes32",
          "name": "role",
          "type": "bytes32"
        }
      ],
      "name": "getRoleAdmin",
      "outputs": [
        {
          "internalType": "bytes32",
          "name": "",
          "type": "bytes32"
        }
      ],
      "stateMutability": "view",
      "type": "function"
    },
    {
      "inputs": [
        {
          "internalType": "address",
          "name": "_address",
          "type": "address"
        }
      ],
      "name": "getTokensEligible",
      "outputs": [
        {
          "internalType": "uint256[]",
          "name": "",
          "type": "uint256[]"
        }
      ],
      "stateMutability": "view",
      "type": "function"
    },
    {
      "inputs": [],
      "name": "getTreasury",
      "outputs": [
        {
          "internalType": "address",
          "name": "",
          "type": "address"
        }
      ],
      "stateMutability": "view",
      "type": "function"
    },
    {
      "inputs": [
        {
          "internalType": "address",
          "name": "_user",
          "type": "address"
        }
      ],
      "name": "getUserClaimed",
      "outputs": [
        {
          "internalType": "bool",
          "name": "",
          "type": "bool"
        }
      ],
      "stateMutability": "view",
      "type": "function"
    },
    {
      "inputs": [],
      "name": "getUsersWithEligibleTokens",
      "outputs": [
        {
          "internalType": "address[]",
          "name": "",
          "type": "address[]"
        }
      ],
      "stateMutability": "view",
      "type": "function"
    },
    {
      "inputs": [
        {
          "internalType": "bytes32",
          "name": "role",
          "type": "bytes32"
        },
        {
          "internalType": "address",
          "name": "account",
          "type": "address"
        }
      ],
      "name": "grantRole",
      "outputs": [],
      "stateMutability": "nonpayable",
      "type": "function"
    },
    {
      "inputs": [
        {
          "internalType": "address",
          "name": "_user",
          "type": "address"
        }
      ],
      "name": "hasEligibleTokens",
      "outputs": [
        {
          "internalType": "bool",
          "name": "",
          "type": "bool"
        }
      ],
      "stateMutability": "view",
      "type": "function"
    },
    {
      "inputs": [
        {
          "internalType": "bytes32",
          "name": "role",
          "type": "bytes32"
        },
        {
          "internalType": "address",
          "name": "account",
          "type": "address"
        }
      ],
      "name": "hasRole",
      "outputs": [
        {
          "internalType": "bool",
          "name": "",
          "type": "bool"
        }
      ],
      "stateMutability": "view",
      "type": "function"
    },
    {
      "inputs": [
        {
          "internalType": "address",
          "name": "_treasury",
          "type": "address"
        },
        {
          "internalType": "address",
          "name": "_gemFactory",
          "type": "address"
        }
      ],
      "name": "initialize",
      "outputs": [],
      "stateMutability": "nonpayable",
      "type": "function"
    },
    {
      "inputs": [
        {
          "internalType": "address",
          "name": "account",
          "type": "address"
        }
      ],
      "name": "isAdmin",
      "outputs": [
        {
          "internalType": "bool",
          "name": "",
          "type": "bool"
        }
      ],
      "stateMutability": "view",
      "type": "function"
    },
    {
      "inputs": [],
      "name": "isInitialized",
      "outputs": [
        {
          "internalType": "bool",
          "name": "",
          "type": "bool"
        }
      ],
      "stateMutability": "view",
      "type": "function"
    },
    {
      "inputs": [],
      "name": "isOwner",
      "outputs": [
        {
          "internalType": "bool",
          "name": "",
          "type": "bool"
        }
      ],
      "stateMutability": "view",
      "type": "function"
    },
    {
      "inputs": [],
      "name": "isPaused",
      "outputs": [
        {
          "internalType": "bool",
          "name": "",
          "type": "bool"
        }
      ],
      "stateMutability": "view",
      "type": "function"
    },
    {
      "inputs": [],
      "name": "pause",
      "outputs": [],
      "stateMutability": "nonpayable",
      "type": "function"
    },
    {
      "inputs": [],
      "name": "pauseProxy",
      "outputs": [
        {
          "internalType": "bool",
          "name": "",
          "type": "bool"
        }
      ],
      "stateMutability": "view",
      "type": "function"
    },
    {
      "inputs": [
        {
          "internalType": "uint256",
          "name": "",
          "type": "uint256"
        }
      ],
      "name": "proxyImplementation",
      "outputs": [
        {
          "internalType": "address",
          "name": "",
          "type": "address"
        }
      ],
      "stateMutability": "view",
      "type": "function"
    },
    {
      "inputs": [
        {
          "internalType": "address",
          "name": "account",
          "type": "address"
        }
      ],
      "name": "removeAdmin",
      "outputs": [],
      "stateMutability": "nonpayable",
      "type": "function"
    },
    {
      "inputs": [
        {
          "internalType": "address",
          "name": "account",
          "type": "address"
        }
      ],
      "name": "removePauser",
      "outputs": [],
      "stateMutability": "nonpayable",
      "type": "function"
    },
    {
      "inputs": [],
      "name": "renounceOwnership",
      "outputs": [],
      "stateMutability": "nonpayable",
      "type": "function"
    },
    {
      "inputs": [
        {
          "internalType": "bytes32",
          "name": "role",
          "type": "bytes32"
        },
        {
          "internalType": "address",
          "name": "callerConfirmation",
          "type": "address"
        }
      ],
      "name": "renounceRole",
      "outputs": [],
      "stateMutability": "nonpayable",
      "type": "function"
    },
    {
      "inputs": [
        {
          "internalType": "bytes32",
          "name": "role",
          "type": "bytes32"
        },
        {
          "internalType": "address",
          "name": "account",
          "type": "address"
        }
      ],
      "name": "revokeRole",
      "outputs": [],
      "stateMutability": "nonpayable",
      "type": "function"
    },
    {
      "inputs": [
        {
          "internalType": "bytes4",
          "name": "",
          "type": "bytes4"
        }
      ],
      "name": "selectorImplementation",
      "outputs": [
        {
          "internalType": "address",
          "name": "",
          "type": "address"
        }
      ],
      "stateMutability": "view",
      "type": "function"
    },
    {
      "inputs": [
        {
          "internalType": "bytes4",
          "name": "interfaceId",
          "type": "bytes4"
        }
      ],
      "name": "supportsInterface",
      "outputs": [
        {
          "internalType": "bool",
          "name": "",
          "type": "bool"
        }
      ],
      "stateMutability": "view",
      "type": "function"
    },
    {
      "inputs": [
        {
          "internalType": "address",
          "name": "newAdmin",
          "type": "address"
        }
      ],
      "name": "transferAdmin",
      "outputs": [],
      "stateMutability": "nonpayable",
      "type": "function"
    },
    {
      "inputs": [
        {
          "internalType": "address",
          "name": "newAdmin",
          "type": "address"
        }
      ],
      "name": "transferOwnership",
      "outputs": [],
      "stateMutability": "nonpayable",
      "type": "function"
    },
    {
      "inputs": [],
      "name": "unpause",
      "outputs": [],
      "stateMutability": "nonpayable",
      "type": "function"
    }
  ],
  "bytecode": "0x608080604052346057576301ffc9a760e01b600052600b6020527f6fc4fe54b7713e8c3beb98c1633f1a7c51390dad7f13255e19999c5edaf38b65805460ff19166001908117909155600d556119d4908161005d8239f35b600080fdfe608060408181526004908136101561001657600080fd5b600092833560e01c90816301ffc9a7146111c057508063155f4fa8146110935780631785f53c146110665780631c6bd5b914610fa1578063248a9ca314610f7657806324d7806c14610f225780632f2ff15d14610efa57806336568abe14610eb3578063389ed26714610e8a578063392e53cd14610e635780633b19e84a14610e3b5780633f4ba83a14610e05578063485cc95514610d7d57806350d2a27614610d39578063550d01a314610cfb57806356b2e412146109275780635b88349d1461068257806363a8fd89146106605780636b2c0f551461061257806370480275146105c3578063715018a61461059e57806375829def1461057857806375b238fc1461054f57806382dc1ec4146104bd5780638456cb59146104815780638f32d59b1461045b57806391d1485414610414578063a217fddf146103f9578063b187bd26146103d5578063b911135f146103a2578063c55321e614610364578063cb21635614610326578063d547741f146102e8578063eeb261c114610285578063f00fe4fd146102585763f2fde38b146101b057600080fd5b34610254576020366003190112610254576101c96111f9565b916101da6101d56114a0565b61136a565b6101e56101d56114a0565b6001600160a01b0383168015610245573314610237575090610225600161022a9360008051602061195f8339815191528652600c602052852001546114ef565b6115a0565b50610234336113c2565b80f35b90516309cd70b960e21b8152fd5b50905163d92e233d60e01b8152fd5b8280fd5b83823461028157816003193601126102815760055490516001600160a01b039091168152602090f35b5080fd5b838234610281576020366003190112610281576102e4916102cb91906102d29082906001600160a01b036102b76111f9565b168152600960205220825193848092611462565b0383611253565b51918291602083526020830190611274565b0390f35b5034610254578060031936011261025457610322913561031d600161030b611214565b93838752600c602052862001546114ef565b611899565b5080f35b8382346102815760203660031901126102815760209160ff9082906001600160a01b036103516111f9565b168152600a855220541690519015158152f35b8382346102815760203660031901126102815760209160ff9082906001600160a01b0361038f6111f9565b1681526008855220541690519015158152f35b5090346102545760203660031901126102545735825260016020908152918190205490516001600160a01b039091168152f35b83823461028157816003193601126102815760209060ff6007541690519015158152f35b83823461028157816003193601126102815751908152602090f35b5090346102545781600319360112610254578160209360ff92610435611214565b90358252600c86528282206001600160a01b039091168252855220549151911615158152f35b8382346102815781600319360112610281576020906104786114a0565b90519015158152f35b83346104ba57806003193601126104ba5761049d6101d56114a0565b60016007546104af60ff8216156113f0565b60ff19161760075580f35b80fd5b838234610281576020366003190112610281576103229061053760016104e16111f9565b9260008051602061195f8339815191528652600c60205280862033875260205260ff8187205416801561053c575b610518906112a8565b60008051602061193f8339815191528652600c602052852001546114ef565b61162f565b506105186105486114a0565b905061050f565b8382346102815781600319360112610281576020905160008051602061195f8339815191528152f35b5034610254576020366003190112610254576105926111f9565b916101e56101d56114a0565b83346104ba57806003193601126104ba576105ba6101d56114a0565b610322336117aa565b838234610281576020366003190112610281576103229061022560016105e76111f9565b926105f36101d56114a0565b60008051602061195f8339815191528652600c602052852001546114ef565b5090346102545760203660031901126102545761062d6111f9565b916106396101d56114a0565b336001600160a01b03841603610653578361032284611722565b5163334bd91960e11b8152fd5b83823461028157816003193601126102815760ff602092541690519015158152f35b5082346104ba57806003193601126104ba576106a360ff60075416156113f0565b6002600d5414610919576002600d5533815260209160088352600192600160ff8385205416151514610909576106ed929394338552600982526106f4838620845195868092611462565b0385611253565b8351156108fb573385526008825282852060ff199060018282541617905560098352610727848720805490888155611349565b338652600a83528386209081541690558585905b61078a575b50507f81017b6d9dcd50d1463b528b7a1c8c1dd866348804544848d3ca723d5f9c69a29394506107798251938385948552840190611274565b9033908301520390a16001600d5580f35b84518110156108f6576005546001600160a01b03908116906107ac838861142f565b51918651926331a9108f60e11b84528584015260249286818581855afa9081156108bf57908b9695949392918b916108c9575b5082808754169116146107f9575b5050508201909161073b565b909192939450610809848961142f565b51813b156108ac579089809493928951928391634d723a7560e01b83528983015282868301528160449788925af180156108bf576108b0575b5084541691610851848961142f565b5191833b156108ac5790899291838951958694859363048dbcef60e41b8552338b8601528401525af180156108a25791889392918492610893575b81926107ed565b61089c9061122a565b8961088c565b85513d89823e3d90fd5b8980fd5b6108b99061122a565b8a610842565b88513d8c823e3d90fd5b6108e99150883d8a116108ef575b6108e18183611253565b810190611443565b8c6107df565b503d6108d7565b610740565b825163267c16a760e21b8152fd5b8151632ca1efb560e21b81528590fd5b5051633ee5aeb560e01b8152fd5b5082346104ba57816003193601126104ba578235916001600160401b039081841161025457366023850112156102545783850135916024908311610cea576005938360051b9560209684519561097f89830188611253565b8652838887019183010191368311610ce65784899101915b838310610cd657505050506109aa611214565b9260008051602061195f8339815191528252600c8752808220338352875260ff81832054168015610cc3575b6109df906112a8565b6001600160a01b039384168083526009885281832090979095835b8151811015610bcc57610a0d818361142f565b51885489875b83838210610ba65750505050878a54168c828751916331a9108f60e11b835282015285818a81855afa908115610b1d578e8b918a93610b85575b50548116911603610b7557855163276a28a360e01b8152808e0183905285818a81855afa908115610b1d578891610b3b575b50610b2b57803b15610b2757879087838f604490838b519586948593634d723a7560e01b8552840152600180988401525af18015610b1d57610b0e575b50895490600160401b821015610afb5781610adf916001959493018c558b61131a565b819291549060031b91821b91600019901b1916179055016109fa565b50634e487b7160e01b875260418d528787fd5b610b179061122a565b8d610abc565b87513d8a823e3d90fd5b8680fd5b8551636f4c40dd60e01b81528d90fd5b90508581813d8311610b6e575b610b528183611253565b81010312610b6a57518015158103610b6a578e610a7f565b8780fd5b503d610b48565b855163de5ba81760e01b81528d90fd5b82919350610b9f90893d8b116108ef576108e18183611253565b9290610a4d565b610bb28260019461131a565b90549060031b1c14610bc7575b018a90610a13565b610bbf565b8284898c8a8f8b8b8481526008885286812060ff1990818154169055600a895287822090815460ff811615610c44575b8a8a7f6010d17ca674a11494ef21d1535339e57b4cc5f748aff181d496b89917aaf68b610c358c8c845192839286845286840190611462565b90868301520390a15160018152f35b16600117905560065492600160401b841015610cb357505050917f6010d17ca674a11494ef21d1535339e57b4cc5f748aff181d496b89917aaf68b9391610c94846001610c3596016006556112e9565b819291549060031b9184831b921b191617905591819387808080610bfc565b634e487b7160e01b825260419052fd5b506109df610ccf6114a0565b90506109d6565b8235815291810191899101610997565b8380fd5b634e487b7160e01b84526041865283fd5b8382346102815760203660031901126102815760209160ff9082906001600160a01b03610d266111f9565b1681526002855220541690519015158152f35b509034610254576020366003190112610254573563ffffffff60e01b811680910361025457825260036020908152918190205490516001600160a01b039091168152f35b509034610254578160031936011261025457610d976111f9565b91610da0611214565b9060ff60075460081c16610df75750610db833611533565b5081546001600160a01b03199081166001600160a01b03948516179092556005805490921692169190911790556007805461ff00191661010017905580f35b5162dc149f60e41b81529050fd5b83346104ba57806003193601126104ba57610e216101d56114a0565b600754610e3160ff8216156113f0565b60ff191660075580f35b5090346102545782600319360112610254575490516001600160a01b03909116815260209150f35b83823461028157816003193601126102815760209060ff60075460081c1690519015158152f35b8382346102815781600319360112610281576020905160008051602061193f8339815191528152f35b50829034610281578060031936011261028157610ece611214565b90336001600160a01b03831603610eeb5750610322919235611899565b5163334bd91960e11b81528390fd5b50346102545780600319360112610254576103229135610f1d600161030b611214565b6116b9565b8382346102815760203660031901126102815760ff81602093610f436111f9565b60008051602061195f8339815191528252600c86528282206001600160a01b039091168252855220549151911615158152f35b5090346102545760203660031901126102545781602093600192358152600c85522001549051908152f35b5082346104ba57806003193601126104ba578151600680548083529083526020939284830192909183907ff652222313e28459528d920b65115c16c04f3efc82aaedc97be59f3f377c0d3f90845b8181106110495750505081611005910382611253565b83519485948186019282875251809352850193925b82811061102957505050500390f35b83516001600160a01b03168552869550938101939281019260010161101a565b82546001600160a01b031684529288019260019283019201610fef565b83346104ba5760203660031901126104ba576102346110836111f9565b61108e6101d56114a0565b6113c2565b503461025457826003193601126102545760008051602061195f8339815191528352602090600c8252808420338552825260ff818520541680156111ad575b6110db906112a8565b6006926006541561119f5750835b835481101561114a57806110fe6001926112e9565b838060a01b0391549060031b1c1680875260098552611124848820805490898155611349565b86526008845282862060ff1990818154169055600a8552838720908154169055016110e9565b507f579909dd9ac17c7f62d01eabab0127d8ec5b8f3375e59d9a0785c1fd50c5fe2384916006548360065580611186575b50519180a160018152f35b6006845284842061119991810190611332565b8461117b565b9051630404844760e01b8152fd5b506110db6111b96114a0565b90506110d2565b849084346102545760203660031901126102545735916001600160e01b0319831683036104ba57506111f36020926114c3565b15158152f35b600435906001600160a01b038216820361120f57565b600080fd5b602435906001600160a01b038216820361120f57565b6001600160401b03811161123d57604052565b634e487b7160e01b600052604160045260246000fd5b90601f801991011681019081106001600160401b0382111761123d57604052565b90815180825260208080930193019160005b828110611294575050505090565b835185529381019392810192600101611286565b156112af57565b60405162461bcd60e51b81526020600482015260126024820152713737ba1027bbb732b91037b91020b236b4b760711b6044820152606490fd5b60065481101561130457600660005260206000200190600090565b634e487b7160e01b600052603260045260246000fd5b80548210156113045760005260206000200190600090565b81811061133d575050565b60008155600101611332565b9080611353575050565b61136891600052602060002090810190611332565b565b1561137157565b60405162461bcd60e51b8152602060048201526024808201527f41757468436f6e74726f6c3a2043616c6c6572206973206e6f7420746865206f6044820152633bb732b960e11b6064820152608490fd5b336001600160a01b038216036113de576113db90611811565b50565b60405163334bd91960e11b8152600490fd5b156113f757565b60405162461bcd60e51b815260206004820152601060248201526f14185d5cd8589b194e881c185d5cd95960821b6044820152606490fd5b80518210156113045760209160051b010190565b9081602091031261120f57516001600160a01b038116810361120f5790565b9081548082526020809201926000526020600020916000905b828210611489575050505090565b83548552938401936001938401939091019061147b565b33600090815260008051602061191f833981519152602052604090205460ff1690565b6001600160e01b03198116637965db0b60e01b149081156114e2575090565b6114ec91506114c3565b90565b80600052600c60205260406000203360005260205260ff60406000205416156115155750565b6044906040519063e2517d3f60e01b82523360048301526024820152fd5b6001600160a01b0316600081815260008051602061191f833981519152602052604081205490919060ff1661159c57818052600c6020526040822081835260205260408220600160ff1982541617905533916000805160206118ff8339815191528180a4600190565b5090565b6001600160a01b031660008181527f7d5405723e3f85426c68a63938c8549334e29cc23b03b741ad9d81a8734f567c602052604081205490919060008051602061195f8339815191529060ff1661162a57808352600c6020526040832082845260205260408320600160ff198254161790556000805160206118ff833981519152339380a4600190565b505090565b6001600160a01b031660008181527f641aa0044c3ac28afaad743d3256a7d0f7c46595c21ed8fcd6992beffc99b7bc602052604081205490919060008051602061193f8339815191529060ff1661162a57808352600c6020526040832082845260205260408320600160ff198254161790556000805160206118ff833981519152339380a4600190565b90600091808352600c602052604083209160018060a01b03169182845260205260ff6040842054161560001461162a57808352600c6020526040832082845260205260408320600160ff198254161790556000805160206118ff833981519152339380a4600190565b6001600160a01b031660008181527f641aa0044c3ac28afaad743d3256a7d0f7c46595c21ed8fcd6992beffc99b7bc602052604081205490919060008051602061193f8339815191529060ff161561162a57808352600c602052604083208284526020526040832060ff19815416905560008051602061197f833981519152339380a4600190565b6001600160a01b0316600081815260008051602061191f833981519152602052604081205490919060ff161561159c57818052600c602052604082208183526020526040822060ff198154169055339160008051602061197f8339815191528180a4600190565b6001600160a01b031660008181527f7d5405723e3f85426c68a63938c8549334e29cc23b03b741ad9d81a8734f567c602052604081205490919060008051602061195f8339815191529060ff161561162a57808352600c602052604083208284526020526040832060ff19815416905560008051602061197f833981519152339380a4600190565b90600091808352600c602052604083209160018060a01b03169182845260205260ff60408420541660001461162a57808352600c602052604083208284526020526040832060ff19815416905560008051602061197f833981519152339380a460019056fe2f8788117e7eff1d82e926ec794901d17c78024a50270940304540a733656f0d13649b2456f1b42fef0f0040b3aaeabcd21a76a0f3f5defd4f583839455116e8fcb9fcbfa83b897fb2d5cf4b58962164105c1e71489a37ef3ae0db3fdce576f6df8b4c520ffe197c5343c6f5aec59570151ef9a492f2c624fd45ddde6135ec42f6391f5c32d9c69d2a47ea670b442974b53935d1edc7fd64eb21e047a839171ba26469706673582212208852fc55a1034f225559d5a23e33c3b05f2fa71a7603e2fc1aca1f458a70211164736f6c63430008190033",
  "linkReferences": {},
  "deployedLinkReferences": {}
}