{
  "_format": "hh-sol-artifact-1",
  "contractName": "WstonSwapPoolV2",
  "sourceName": "src/L2/WstonSwapPoolV2.sol",
  "abi": [
    {
      "inputs": [],
      "name": "AccessControlBadConfirmation",
      "type": "error"
    },
    {
      "inputs": [
        {
          "internalType": "address",
          "name": "account",
          "type": "address"
        },
        {
          "internalType": "bytes32",
          "name": "neededRole",
          "type": "bytes32"
        }
      ],
      "name": "AccessControlUnauthorizedAccount",
      "type": "error"
    },
    {
      "inputs": [],
      "name": "ContractTonBalanceOrAllowanceTooLow",
      "type": "error"
    },
    {
      "inputs": [
        {
          "internalType": "uint256",
          "name": "amount",
          "type": "uint256"
        }
      ],
      "name": "FailedToApproveTon",
      "type": "error"
    },
    {
      "inputs": [],
      "name": "ReentrancyGuardReentrantCall",
      "type": "error"
    },
    {
      "inputs": [],
      "name": "SameAdmin",
      "type": "error"
    },
    {
      "inputs": [],
      "name": "WrongStakingIndex",
      "type": "error"
    },
    {
      "inputs": [],
      "name": "WstonAllowanceTooLow",
      "type": "error"
    },
    {
      "inputs": [],
      "name": "WstonBalanceTooLow",
      "type": "error"
    },
    {
      "inputs": [],
      "name": "ZeroAddress",
      "type": "error"
    },
    {
      "anonymous": false,
      "inputs": [
        {
          "indexed": true,
          "internalType": "bytes32",
          "name": "role",
          "type": "bytes32"
        },
        {
          "indexed": true,
          "internalType": "bytes32",
          "name": "previousAdminRole",
          "type": "bytes32"
        },
        {
          "indexed": true,
          "internalType": "bytes32",
          "name": "newAdminRole",
          "type": "bytes32"
        }
      ],
      "name": "RoleAdminChanged",
      "type": "event"
    },
    {
      "anonymous": false,
      "inputs": [
        {
          "indexed": true,
          "internalType": "bytes32",
          "name": "role",
          "type": "bytes32"
        },
        {
          "indexed": true,
          "internalType": "address",
          "name": "account",
          "type": "address"
        },
        {
          "indexed": true,
          "internalType": "address",
          "name": "sender",
          "type": "address"
        }
      ],
      "name": "RoleGranted",
      "type": "event"
    },
    {
      "anonymous": false,
      "inputs": [
        {
          "indexed": true,
          "internalType": "bytes32",
          "name": "role",
          "type": "bytes32"
        },
        {
          "indexed": true,
          "internalType": "address",
          "name": "account",
          "type": "address"
        },
        {
          "indexed": true,
          "internalType": "address",
          "name": "sender",
          "type": "address"
        }
      ],
      "name": "RoleRevoked",
      "type": "event"
    },
    {
      "anonymous": false,
      "inputs": [
        {
          "indexed": false,
          "internalType": "uint256",
          "name": "newIndex",
          "type": "uint256"
        }
      ],
      "name": "StakingIndexUpdated",
      "type": "event"
    },
    {
      "anonymous": false,
      "inputs": [
        {
          "indexed": true,
          "internalType": "address",
          "name": "user",
          "type": "address"
        },
        {
          "indexed": false,
          "internalType": "uint256",
          "name": "tonAmount",
          "type": "uint256"
        },
        {
          "indexed": false,
          "internalType": "uint256",
          "name": "wstonAmount",
          "type": "uint256"
        }
      ],
      "name": "SwappedWstonForTon",
      "type": "event"
    },
    {
      "inputs": [],
      "name": "ADMIN_ROLE",
      "outputs": [
        {
          "internalType": "bytes32",
          "name": "",
          "type": "bytes32"
        }
      ],
      "stateMutability": "view",
      "type": "function"
    },
    {
      "inputs": [],
      "name": "DECIMALS",
      "outputs": [
        {
          "internalType": "uint256",
          "name": "",
          "type": "uint256"
        }
      ],
      "stateMutability": "view",
      "type": "function"
    },
    {
      "inputs": [],
      "name": "DEFAULT_ADMIN_ROLE",
      "outputs": [
        {
          "internalType": "bytes32",
          "name": "",
          "type": "bytes32"
        }
      ],
      "stateMutability": "view",
      "type": "function"
    },
    {
      "inputs": [],
      "name": "PAUSE_ROLE",
      "outputs": [
        {
          "internalType": "bytes32",
          "name": "",
          "type": "bytes32"
        }
      ],
      "stateMutability": "view",
      "type": "function"
    },
    {
      "inputs": [
        {
          "internalType": "address",
          "name": "account",
          "type": "address"
        }
      ],
      "name": "addAdmin",
      "outputs": [],
      "stateMutability": "nonpayable",
      "type": "function"
    },
    {
      "inputs": [
        {
          "internalType": "address",
          "name": "account",
          "type": "address"
        }
      ],
      "name": "addPauser",
      "outputs": [],
      "stateMutability": "nonpayable",
      "type": "function"
    },
    {
      "inputs": [
        {
          "internalType": "address",
          "name": "",
          "type": "address"
        }
      ],
      "name": "aliveImplementation",
      "outputs": [
        {
          "internalType": "bool",
          "name": "",
          "type": "bool"
        }
      ],
      "stateMutability": "view",
      "type": "function"
    },
    {
      "inputs": [
        {
          "internalType": "bytes32",
          "name": "role",
          "type": "bytes32"
        }
      ],
      "name": "getRoleAdmin",
      "outputs": [
        {
          "internalType": "bytes32",
          "name": "",
          "type": "bytes32"
        }
      ],
      "stateMutability": "view",
      "type": "function"
    },
    {
      "inputs": [],
      "name": "getStakingIndex",
      "outputs": [
        {
          "internalType": "uint256",
          "name": "",
          "type": "uint256"
        }
      ],
      "stateMutability": "view",
      "type": "function"
    },
    {
      "inputs": [
        {
          "internalType": "bytes32",
          "name": "role",
          "type": "bytes32"
        },
        {
          "internalType": "address",
          "name": "account",
          "type": "address"
        }
      ],
      "name": "grantRole",
      "outputs": [],
      "stateMutability": "nonpayable",
      "type": "function"
    },
    {
      "inputs": [
        {
          "internalType": "bytes32",
          "name": "role",
          "type": "bytes32"
        },
        {
          "internalType": "address",
          "name": "account",
          "type": "address"
        }
      ],
      "name": "hasRole",
      "outputs": [
        {
          "internalType": "bool",
          "name": "",
          "type": "bool"
        }
      ],
      "stateMutability": "view",
      "type": "function"
    },
    {
      "inputs": [
        {
          "internalType": "address",
          "name": "_ton",
          "type": "address"
        },
        {
          "internalType": "address",
          "name": "_wston",
          "type": "address"
        },
        {
          "internalType": "uint256",
          "name": "_initialStakingIndex",
          "type": "uint256"
        },
        {
          "internalType": "address",
          "name": "_treasury",
          "type": "address"
        }
      ],
      "name": "initialize",
      "outputs": [],
      "stateMutability": "nonpayable",
      "type": "function"
    },
    {
      "inputs": [
        {
          "internalType": "address",
          "name": "account",
          "type": "address"
        }
      ],
      "name": "isAdmin",
      "outputs": [
        {
          "internalType": "bool",
          "name": "",
          "type": "bool"
        }
      ],
      "stateMutability": "view",
      "type": "function"
    },
    {
      "inputs": [],
      "name": "isOwner",
      "outputs": [
        {
          "internalType": "bool",
          "name": "",
          "type": "bool"
        }
      ],
      "stateMutability": "view",
      "type": "function"
    },
    {
      "inputs": [],
      "name": "pause",
      "outputs": [],
      "stateMutability": "nonpayable",
      "type": "function"
    },
    {
      "inputs": [],
      "name": "pauseProxy",
      "outputs": [
        {
          "internalType": "bool",
          "name": "",
          "type": "bool"
        }
      ],
      "stateMutability": "view",
      "type": "function"
    },
    {
      "inputs": [],
      "name": "paused",
      "outputs": [
        {
          "internalType": "bool",
          "name": "",
          "type": "bool"
        }
      ],
      "stateMutability": "view",
      "type": "function"
    },
    {
      "inputs": [
        {
          "internalType": "uint256",
          "name": "",
          "type": "uint256"
        }
      ],
      "name": "proxyImplementation",
      "outputs": [
        {
          "internalType": "address",
          "name": "",
          "type": "address"
        }
      ],
      "stateMutability": "view",
      "type": "function"
    },
    {
      "inputs": [
        {
          "internalType": "address",
          "name": "account",
          "type": "address"
        }
      ],
      "name": "removeAdmin",
      "outputs": [],
      "stateMutability": "nonpayable",
      "type": "function"
    },
    {
      "inputs": [
        {
          "internalType": "address",
          "name": "account",
          "type": "address"
        }
      ],
      "name": "removePauser",
      "outputs": [],
      "stateMutability": "nonpayable",
      "type": "function"
    },
    {
      "inputs": [],
      "name": "renounceOwnership",
      "outputs": [],
      "stateMutability": "nonpayable",
      "type": "function"
    },
    {
      "inputs": [
        {
          "internalType": "bytes32",
          "name": "role",
          "type": "bytes32"
        },
        {
          "internalType": "address",
          "name": "callerConfirmation",
          "type": "address"
        }
      ],
      "name": "renounceRole",
      "outputs": [],
      "stateMutability": "nonpayable",
      "type": "function"
    },
    {
      "inputs": [
        {
          "internalType": "bytes32",
          "name": "role",
          "type": "bytes32"
        },
        {
          "internalType": "address",
          "name": "account",
          "type": "address"
        }
      ],
      "name": "revokeRole",
      "outputs": [],
      "stateMutability": "nonpayable",
      "type": "function"
    },
    {
      "inputs": [
        {
          "internalType": "bytes4",
          "name": "",
          "type": "bytes4"
        }
      ],
      "name": "selectorImplementation",
      "outputs": [
        {
          "internalType": "address",
          "name": "",
          "type": "address"
        }
      ],
      "stateMutability": "view",
      "type": "function"
    },
    {
      "inputs": [],
      "name": "stakingIndex",
      "outputs": [
        {
          "internalType": "uint256",
          "name": "",
          "type": "uint256"
        }
      ],
      "stateMutability": "view",
      "type": "function"
    },
    {
      "inputs": [
        {
          "internalType": "bytes4",
          "name": "interfaceId",
          "type": "bytes4"
        }
      ],
      "name": "supportsInterface",
      "outputs": [
        {
          "internalType": "bool",
          "name": "",
          "type": "bool"
        }
      ],
      "stateMutability": "view",
      "type": "function"
    },
    {
      "inputs": [
        {
          "internalType": "uint256",
          "name": "wstonAmount",
          "type": "uint256"
        }
      ],
      "name": "swap",
      "outputs": [],
      "stateMutability": "nonpayable",
      "type": "function"
    },
    {
      "inputs": [],
      "name": "ton",
      "outputs": [
        {
          "internalType": "address",
          "name": "",
          "type": "address"
        }
      ],
      "stateMutability": "view",
      "type": "function"
    },
    {
      "inputs": [
        {
          "internalType": "address",
          "name": "newAdmin",
          "type": "address"
        }
      ],
      "name": "transferAdmin",
      "outputs": [],
      "stateMutability": "nonpayable",
      "type": "function"
    },
    {
      "inputs": [
        {
          "internalType": "address",
          "name": "newAdmin",
          "type": "address"
        }
      ],
      "name": "transferOwnership",
      "outputs": [],
      "stateMutability": "nonpayable",
      "type": "function"
    },
    {
      "inputs": [],
      "name": "treasury",
      "outputs": [
        {
          "internalType": "address",
          "name": "",
          "type": "address"
        }
      ],
      "stateMutability": "view",
      "type": "function"
    },
    {
      "inputs": [],
      "name": "unpause",
      "outputs": [],
      "stateMutability": "nonpayable",
      "type": "function"
    },
    {
      "inputs": [
        {
          "internalType": "uint256",
          "name": "newIndex",
          "type": "uint256"
        }
      ],
      "name": "updateStakingIndex",
      "outputs": [],
      "stateMutability": "nonpayable",
      "type": "function"
    },
    {
      "inputs": [],
      "name": "wston",
      "outputs": [
        {
          "internalType": "address",
          "name": "",
          "type": "address"
        }
      ],
      "stateMutability": "view",
      "type": "function"
    }
  ],
  "bytecode": "0x608080604052346057576301ffc9a760e01b60005260046020527f9fe05126d2d9ecf60592e254dead906a4b2e492f36cca727682c38e9008c6ac1805460ff191660019081179091556006556113d2908161005d8239f35b600080fdfe608060408181526004908136101561001657600080fd5b600092833560e01c90816301ffc9a714610c61575080631785f53c14610c34578063248a9ca314610c0957806324d7806c14610bb55780632e0f262514610b8f5780632f2ff15d14610b6757806330f5085914610a7557806336568abe14610b2057806336b17e1314610af7578063389ed26714610ace5780633f4ba83a14610a945780635074e0c814610a7557806350d2a27614610a31578063550d01a3146109f35780635c975abb146109cc57806361d027b3146109a357806363a8fd89146109815780636b2c0f551461093357806370480275146108e4578063715018a6146108bf57806375829def1461089957806375b238fc1461087057806382dc1ec4146107ac5780638456cb591461076b5780638f32d59b1461074557806391d14854146106fe57806394b918de14610438578063a217fddf1461041d578063b911135f146103ea578063be2030941461031f578063caa78a86146102ad578063cc48b94714610280578063d547741f146102425763f2fde38b1461019a57600080fd5b3461023e57602036600319011261023e576101b3610c9a565b916101c46101bf610d90565b610ccb565b6101cf6101bf610d90565b6001600160a01b038316801561022f57331461022157509061020f60016102149360008051602061133d8339815191528652600560205285200154610e2f565b610e73565b5061021e33610d23565b80f35b90516309cd70b960e21b8152fd5b50905163d92e233d60e01b8152fd5b8280fd5b503461023e578060031936011261023e5761027c91356102776001610265610cb5565b93838752600560205286200154610e2f565b6111d9565b5080f35b8382346102a957816003193601126102a95760075490516001600160a01b039091168152602090f35b5080fd5b503461023e57602036600319011261023e578135916102cd6101bf610d90565b676765c793fa10079d601b1b83106103115750816020917f30ce0c4920695ae7b30f6304002cac26f3bffd83b1b84b281d4495ec83956c4993600a5551908152a180f35b90516373fd31f360e01b8152fd5b503461023e57608036600319011261023e57610339610c9a565b90610342610cb5565b6001600160a01b03606435818116959193908690036103e65760ff600b54166103ad57505061037033610f8c565b508160018060a01b03199316836007541617600755168160085416176008556009541617600955604435600a55600160ff19600b541617600b5580f35b906020606492519162461bcd60e51b83528201526013602482015272185b1c9958591e481a5b9a5d1a585b1a5e9959606a1b6044820152fd5b8680fd5b50903461023e57602036600319011261023e5735825260016020908152918190205490516001600160a01b039091168152f35b8382346102a957816003193601126102a95751908152602090f35b509190346102a9576020928360031936011261023e5781356002600654146106f05760026006556008548251636eb1769f60e11b81523381860152306024808301919091526001600160a01b039792881695909183816044818a5afa90811561060a5790859189916106bf575b50106106b1578451838184816370a0823160e01b9a8b825233878301525afa90811561060a579085918991610680575b501061067257600a5480850290858204148515171561066057633b9aca0090676765c793fa10079d601b1b9004049587848a60095416858951809481936312608dfb60e01b83528d898401525af1908115610656578991610629575b501561061457838960075416918a6009541694885180948193825287878301525afa90811561060a5790879189916105d5575b50106105c75750847feb53aa1346bf80833deed132609343df1b6cdb928bd868803c6aa09a8ebeb60b9596976105a3856105b49433846008541661123e565b80600754163391600954169061123e565b82519485528401523392a2600160065580f35b84516364a7800d60e11b8152fd5b809250858092503d8311610603575b6105ee8183610db3565b810103126105ff5786905138610564565b8780fd5b503d6105e4565b86513d8a823e3d90fd5b508451638ef9226b60e01b8152908101869052fd5b6106499150853d871161064f575b6106418183610db3565b810190610deb565b38610531565b503d610637565b87513d8b823e3d90fd5b50634e487b7160e01b87526011905285fd5b84516316a5d17360e11b8152fd5b809250858092503d83116106aa575b6106998183610db3565b810103126105ff57849051386104d5565b503d61068f565b84516382cf63f960e01b8152fd5b809250858092503d83116106e9575b6106d88183610db3565b810103126105ff57849051386104a5565b503d6106ce565b5051633ee5aeb560e01b8152fd5b50903461023e578160031936011261023e578160209360ff9261071f610cb5565b90358252600586528282206001600160a01b039091168252855220549151911615158152f35b8382346102a957816003193601126102a957602090610762610d90565b90519015158152f35b83346107a957806003193601126107a9576107876101bf610d90565b610100600b5461079d60ff8260081c1615610d51565b61ff00191617600b5580f35b80fd5b509190346102a95760203660031901126102a9576107c8610c9a565b9060008051602061133d8339815191528352600560205283832033845260205260ff84842054168015610862575b1561082a57506108256001839460008051602061131d83398151915261027c9552600560205285200154610e2f565b610f02565b606490602085519162461bcd60e51b835282015260126024820152713737ba1027bbb732b91037b91020b236b4b760711b6044820152fd5b5061086b610d90565b6107f6565b8382346102a957816003193601126102a9576020905160008051602061133d8339815191528152f35b503461023e57602036600319011261023e576108b3610c9a565b916101cf6101bf610d90565b83346107a957806003193601126107a9576108db6101bf610d90565b61027c336110ea565b8382346102a95760203660031901126102a95761027c9061020f6001610908610c9a565b926109146101bf610d90565b60008051602061133d8339815191528652600560205285200154610e2f565b50903461023e57602036600319011261023e5761094e610c9a565b9161095a6101bf610d90565b336001600160a01b03841603610974578361027c84611062565b5163334bd91960e11b8152fd5b8382346102a957816003193601126102a95760ff602092541690519015158152f35b8382346102a957816003193601126102a95760095490516001600160a01b039091168152602090f35b8382346102a957816003193601126102a95760209060ff600b5460081c1690519015158152f35b8382346102a95760203660031901126102a95760209160ff9082906001600160a01b03610a1e610c9a565b1681526002855220541690519015158152f35b50903461023e57602036600319011261023e573563ffffffff60e01b811680910361023e57825260036020908152918190205490516001600160a01b039091168152f35b8382346102a957816003193601126102a957602090600a549051908152f35b83346107a957806003193601126107a957610ab06101bf610d90565b600b54610ac360ff8260081c1615610d51565b61ff001916600b5580f35b8382346102a957816003193601126102a9576020905160008051602061131d8339815191528152f35b8382346102a957816003193601126102a95760085490516001600160a01b039091168152602090f35b508290346102a957806003193601126102a957610b3b610cb5565b90336001600160a01b03831603610b58575061027c9192356111d9565b5163334bd91960e11b81528390fd5b503461023e578060031936011261023e5761027c9135610b8a6001610265610cb5565b610ff9565b8382346102a957816003193601126102a95751676765c793fa10079d601b1b8152602090f35b8382346102a95760203660031901126102a95760ff81602093610bd6610c9a565b60008051602061133d8339815191528252600586528282206001600160a01b039091168252855220549151911615158152f35b50903461023e57602036600319011261023e5781602093600192358152600585522001549051908152f35b83346107a95760203660031901126107a95761021e610c51610c9a565b610c5c6101bf610d90565b610d23565b8490843461023e57602036600319011261023e5735916001600160e01b0319831683036107a95750610c94602092610e03565b15158152f35b600435906001600160a01b0382168203610cb057565b600080fd5b602435906001600160a01b0382168203610cb057565b15610cd257565b60405162461bcd60e51b8152602060048201526024808201527f41757468436f6e74726f6c3a2043616c6c6572206973206e6f7420746865206f6044820152633bb732b960e11b6064820152608490fd5b336001600160a01b03821603610d3f57610d3c90611151565b50565b60405163334bd91960e11b8152600490fd5b15610d5857565b60405162461bcd60e51b815260206004820152601060248201526f14185d5cd8589b194e881c185d5cd95960821b6044820152606490fd5b33600090815260008051602061137d833981519152602052604090205460ff1690565b90601f8019910116810190811067ffffffffffffffff821117610dd557604052565b634e487b7160e01b600052604160045260246000fd5b90816020910312610cb057518015158103610cb05790565b6001600160e01b03198116637965db0b60e01b14908115610e22575090565b610e2c9150610e03565b90565b80600052600560205260406000203360005260205260ff6040600020541615610e555750565b6044906040519063e2517d3f60e01b82523360048301526024820152fd5b6001600160a01b031660008181527f09f04f5809d5be59813a33617d16f069caae874a6b34f03139f63d934daddae6602052604081205490919060008051602061133d8339815191529060ff16610efd5780835260056020526040832082845260205260408320600160ff198254161790556000805160206112fd833981519152339380a4600190565b505090565b6001600160a01b031660008181527f787f97f3270d439d97068e73d6d75a066b24f84c342661f177d4e43e00e9f513602052604081205490919060008051602061131d8339815191529060ff16610efd5780835260056020526040832082845260205260408320600160ff198254161790556000805160206112fd833981519152339380a4600190565b6001600160a01b0316600081815260008051602061137d833981519152602052604081205490919060ff16610ff55781805260056020526040822081835260205260408220600160ff1982541617905533916000805160206112fd8339815191528180a4600190565b5090565b906000918083526005602052604083209160018060a01b03169182845260205260ff60408420541615600014610efd5780835260056020526040832082845260205260408320600160ff198254161790556000805160206112fd833981519152339380a4600190565b6001600160a01b031660008181527f787f97f3270d439d97068e73d6d75a066b24f84c342661f177d4e43e00e9f513602052604081205490919060008051602061131d8339815191529060ff1615610efd578083526005602052604083208284526020526040832060ff19815416905560008051602061135d833981519152339380a4600190565b6001600160a01b0316600081815260008051602061137d833981519152602052604081205490919060ff1615610ff5578180526005602052604082208183526020526040822060ff198154169055339160008051602061135d8339815191528180a4600190565b6001600160a01b031660008181527f09f04f5809d5be59813a33617d16f069caae874a6b34f03139f63d934daddae6602052604081205490919060008051602061133d8339815191529060ff1615610efd578083526005602052604083208284526020526040832060ff19815416905560008051602061135d833981519152339380a4600190565b906000918083526005602052604083209160018060a01b03169182845260205260ff604084205416600014610efd578083526005602052604083208284526020526040832060ff19815416905560008051602061135d833981519152339380a4600190565b6040516323b872dd60e01b81526001600160a01b03928316600482015292821660248401526044830193909352909160209183916064918391600091165af19081156112f0576000916112d1575b501561129457565b60405162461bcd60e51b8152602060048201526015602482015274151bdad95b881d1c985b9cd9995c8819985a5b1959605a1b6044820152606490fd5b6112ea915060203d60201161064f576106418183610db3565b3861128c565b6040513d6000823e3d90fdfe2f8788117e7eff1d82e926ec794901d17c78024a50270940304540a733656f0dfcb9fcbfa83b897fb2d5cf4b58962164105c1e71489a37ef3ae0db3fdce576f6df8b4c520ffe197c5343c6f5aec59570151ef9a492f2c624fd45ddde6135ec42f6391f5c32d9c69d2a47ea670b442974b53935d1edc7fd64eb21e047a839171b05b8ccbb9d4d8fb16ea74ce3c29a41f1b461fbdaff4714a0d9a8eb05499746bca2646970667358221220f37270b00bed92ac330d8d8cc50d6cd2c278d83548e4862072bf5bbd817b2b6864736f6c63430008190033",
  "linkReferences": {},
  "deployedLinkReferences": {}
}