{
  "_format": "hh-sol-artifact-1",
  "contractName": "AuthControlSeigManager",
  "sourceName": "src/L1/Mock/common/AuthControlSeigManager.sol",
  "abi": [
    {
      "inputs": [],
      "name": "AccessControlBadConfirmation",
      "type": "error"
    },
    {
      "inputs": [
        {
          "internalType": "address",
          "name": "account",
          "type": "address"
        },
        {
          "internalType": "bytes32",
          "name": "neededRole",
          "type": "bytes32"
        }
      ],
      "name": "AccessControlUnauthorizedAccount",
      "type": "error"
    },
    {
      "anonymous": false,
      "inputs": [
        {
          "indexed": true,
          "internalType": "bytes32",
          "name": "role",
          "type": "bytes32"
        },
        {
          "indexed": true,
          "internalType": "bytes32",
          "name": "previousAdminRole",
          "type": "bytes32"
        },
        {
          "indexed": true,
          "internalType": "bytes32",
          "name": "newAdminRole",
          "type": "bytes32"
        }
      ],
      "name": "RoleAdminChanged",
      "type": "event"
    },
    {
      "anonymous": false,
      "inputs": [
        {
          "indexed": true,
          "internalType": "bytes32",
          "name": "role",
          "type": "bytes32"
        },
        {
          "indexed": true,
          "internalType": "address",
          "name": "account",
          "type": "address"
        },
        {
          "indexed": true,
          "internalType": "address",
          "name": "sender",
          "type": "address"
        }
      ],
      "name": "RoleGranted",
      "type": "event"
    },
    {
      "anonymous": false,
      "inputs": [
        {
          "indexed": true,
          "internalType": "bytes32",
          "name": "role",
          "type": "bytes32"
        },
        {
          "indexed": true,
          "internalType": "address",
          "name": "account",
          "type": "address"
        },
        {
          "indexed": true,
          "internalType": "address",
          "name": "sender",
          "type": "address"
        }
      ],
      "name": "RoleRevoked",
      "type": "event"
    },
    {
      "inputs": [],
      "name": "CHALLENGER_ROLE",
      "outputs": [
        {
          "internalType": "bytes32",
          "name": "",
          "type": "bytes32"
        }
      ],
      "stateMutability": "view",
      "type": "function"
    },
    {
      "inputs": [],
      "name": "DEFAULT_ADMIN_ROLE",
      "outputs": [
        {
          "internalType": "bytes32",
          "name": "",
          "type": "bytes32"
        }
      ],
      "stateMutability": "view",
      "type": "function"
    },
    {
      "inputs": [],
      "name": "MINTER_ROLE",
      "outputs": [
        {
          "internalType": "bytes32",
          "name": "",
          "type": "bytes32"
        }
      ],
      "stateMutability": "view",
      "type": "function"
    },
    {
      "inputs": [],
      "name": "OPERATOR_ROLE",
      "outputs": [
        {
          "internalType": "bytes32",
          "name": "",
          "type": "bytes32"
        }
      ],
      "stateMutability": "view",
      "type": "function"
    },
    {
      "inputs": [],
      "name": "PAUSE_ROLE",
      "outputs": [
        {
          "internalType": "bytes32",
          "name": "",
          "type": "bytes32"
        }
      ],
      "stateMutability": "view",
      "type": "function"
    },
    {
      "inputs": [
        {
          "internalType": "address",
          "name": "account",
          "type": "address"
        }
      ],
      "name": "addAdmin",
      "outputs": [],
      "stateMutability": "nonpayable",
      "type": "function"
    },
    {
      "inputs": [
        {
          "internalType": "address",
          "name": "account",
          "type": "address"
        }
      ],
      "name": "addChallenger",
      "outputs": [],
      "stateMutability": "nonpayable",
      "type": "function"
    },
    {
      "inputs": [
        {
          "internalType": "address",
          "name": "account",
          "type": "address"
        }
      ],
      "name": "addMinter",
      "outputs": [],
      "stateMutability": "nonpayable",
      "type": "function"
    },
    {
      "inputs": [
        {
          "internalType": "address",
          "name": "account",
          "type": "address"
        }
      ],
      "name": "addOperator",
      "outputs": [],
      "stateMutability": "nonpayable",
      "type": "function"
    },
    {
      "inputs": [
        {
          "internalType": "bytes32",
          "name": "role",
          "type": "bytes32"
        }
      ],
      "name": "getRoleAdmin",
      "outputs": [
        {
          "internalType": "bytes32",
          "name": "",
          "type": "bytes32"
        }
      ],
      "stateMutability": "view",
      "type": "function"
    },
    {
      "inputs": [
        {
          "internalType": "bytes32",
          "name": "role",
          "type": "bytes32"
        },
        {
          "internalType": "address",
          "name": "account",
          "type": "address"
        }
      ],
      "name": "grantRole",
      "outputs": [],
      "stateMutability": "nonpayable",
      "type": "function"
    },
    {
      "inputs": [
        {
          "internalType": "bytes32",
          "name": "role",
          "type": "bytes32"
        },
        {
          "internalType": "address",
          "name": "account",
          "type": "address"
        }
      ],
      "name": "hasRole",
      "outputs": [
        {
          "internalType": "bool",
          "name": "",
          "type": "bool"
        }
      ],
      "stateMutability": "view",
      "type": "function"
    },
    {
      "inputs": [
        {
          "internalType": "address",
          "name": "account",
          "type": "address"
        }
      ],
      "name": "isAdmin",
      "outputs": [
        {
          "internalType": "bool",
          "name": "",
          "type": "bool"
        }
      ],
      "stateMutability": "view",
      "type": "function"
    },
    {
      "inputs": [
        {
          "internalType": "address",
          "name": "account",
          "type": "address"
        }
      ],
      "name": "isChallenger",
      "outputs": [
        {
          "internalType": "bool",
          "name": "",
          "type": "bool"
        }
      ],
      "stateMutability": "view",
      "type": "function"
    },
    {
      "inputs": [
        {
          "internalType": "address",
          "name": "account",
          "type": "address"
        }
      ],
      "name": "isMinter",
      "outputs": [
        {
          "internalType": "bool",
          "name": "",
          "type": "bool"
        }
      ],
      "stateMutability": "view",
      "type": "function"
    },
    {
      "inputs": [
        {
          "internalType": "address",
          "name": "account",
          "type": "address"
        }
      ],
      "name": "isOperator",
      "outputs": [
        {
          "internalType": "bool",
          "name": "",
          "type": "bool"
        }
      ],
      "stateMutability": "view",
      "type": "function"
    },
    {
      "inputs": [],
      "name": "isOwner",
      "outputs": [
        {
          "internalType": "bool",
          "name": "",
          "type": "bool"
        }
      ],
      "stateMutability": "view",
      "type": "function"
    },
    {
      "inputs": [
        {
          "internalType": "address",
          "name": "account",
          "type": "address"
        }
      ],
      "name": "removeAdmin",
      "outputs": [],
      "stateMutability": "nonpayable",
      "type": "function"
    },
    {
      "inputs": [
        {
          "internalType": "address",
          "name": "account",
          "type": "address"
        }
      ],
      "name": "removeChallenger",
      "outputs": [],
      "stateMutability": "nonpayable",
      "type": "function"
    },
    {
      "inputs": [
        {
          "internalType": "address",
          "name": "account",
          "type": "address"
        }
      ],
      "name": "removeMinter",
      "outputs": [],
      "stateMutability": "nonpayable",
      "type": "function"
    },
    {
      "inputs": [
        {
          "internalType": "address",
          "name": "account",
          "type": "address"
        }
      ],
      "name": "removeOperator",
      "outputs": [],
      "stateMutability": "nonpayable",
      "type": "function"
    },
    {
      "inputs": [],
      "name": "renounceChallenger",
      "outputs": [],
      "stateMutability": "nonpayable",
      "type": "function"
    },
    {
      "inputs": [],
      "name": "renounceMinter",
      "outputs": [],
      "stateMutability": "nonpayable",
      "type": "function"
    },
    {
      "inputs": [],
      "name": "renounceOperator",
      "outputs": [],
      "stateMutability": "nonpayable",
      "type": "function"
    },
    {
      "inputs": [],
      "name": "renounceOwnership",
      "outputs": [],
      "stateMutability": "nonpayable",
      "type": "function"
    },
    {
      "inputs": [
        {
          "internalType": "bytes32",
          "name": "role",
          "type": "bytes32"
        },
        {
          "internalType": "address",
          "name": "callerConfirmation",
          "type": "address"
        }
      ],
      "name": "renounceRole",
      "outputs": [],
      "stateMutability": "nonpayable",
      "type": "function"
    },
    {
      "inputs": [
        {
          "internalType": "address",
          "name": "account",
          "type": "address"
        }
      ],
      "name": "revokeChallenger",
      "outputs": [],
      "stateMutability": "nonpayable",
      "type": "function"
    },
    {
      "inputs": [
        {
          "internalType": "address",
          "name": "account",
          "type": "address"
        }
      ],
      "name": "revokeMinter",
      "outputs": [],
      "stateMutability": "nonpayable",
      "type": "function"
    },
    {
      "inputs": [
        {
          "internalType": "address",
          "name": "account",
          "type": "address"
        }
      ],
      "name": "revokeOperator",
      "outputs": [],
      "stateMutability": "nonpayable",
      "type": "function"
    },
    {
      "inputs": [
        {
          "internalType": "bytes32",
          "name": "role",
          "type": "bytes32"
        },
        {
          "internalType": "address",
          "name": "account",
          "type": "address"
        }
      ],
      "name": "revokeRole",
      "outputs": [],
      "stateMutability": "nonpayable",
      "type": "function"
    },
    {
      "inputs": [
        {
          "internalType": "bytes4",
          "name": "interfaceId",
          "type": "bytes4"
        }
      ],
      "name": "supportsInterface",
      "outputs": [
        {
          "internalType": "bool",
          "name": "",
          "type": "bool"
        }
      ],
      "stateMutability": "view",
      "type": "function"
    },
    {
      "inputs": [
        {
          "internalType": "address",
          "name": "newAdmin",
          "type": "address"
        }
      ],
      "name": "transferAdmin",
      "outputs": [],
      "stateMutability": "nonpayable",
      "type": "function"
    },
    {
      "inputs": [
        {
          "internalType": "address",
          "name": "newAdmin",
          "type": "address"
        }
      ],
      "name": "transferOwnership",
      "outputs": [],
      "stateMutability": "nonpayable",
      "type": "function"
    }
  ],
  "bytecode": "0x608080604052346015576111c4908161001b8239f35b600080fdfe608060408181526004918236101561001657600080fd5b600092833560e01c91826301ffc9a714610a39575081630ceb6780146109735781631785f53c14610940578163248a9ca31461091657816324d7806c146108d157816325e90db4146108b75781632ab6f8db1461089d5781632f2ff15d146108735781633092afd51461084a57816336568abe14610804578163389ed267146107c95781633c49117314610762578163530adbb4146107395781636c578c1d146107105781636d70f7ae146106bd5781637048027514610669578163715018a61461062f57816375829def146105f45781638f32d59b146105c257816391d148541461057c578163983b2d561461055357816398650275146105365781639870d7fe1461050d578163a217fddf146104f2578163a415d8dc1461049f578163aa271e1a1461044c578163ac8a584a14610409578163cfbd4885146103a2578163d539139314610379578163d547741f1461033e578163f2fde38b1461022557508063f5b541a6146101fd5763fad8b32a1461019057600080fd5b346101f95760203660031901126101f9576101f5906101f060016101b2610a8c565b92858052856020528086203387526020526101d260ff8288205416610abd565b60008051602061110f83398151915286528560205285200154610bb9565b610f7e565b5080f35b5080fd5b50346101f957816003193601126101f9576020905160008051602061110f8339815191528152f35b9190503461033a5760208060031936011261033657610242610a8c565b92848052848252828520338652825261026060ff8487205416610abd565b848052848252828520338652825261027d60ff8487205416610abd565b6001600160a01b03841680156102f95733146102bf575060016102b29392856102ad938180525285200154610bb9565b610c8b565b506102bc33610b15565b80f35b915162461bcd60e51b815291820152601660248201527520b1b1b2b9b9b4b136329d1039b0b6b29030b236b4b760511b6044820152606490fd5b50915162461bcd60e51b815291820152601860248201527741636365737369626c653a207a65726f206164647265737360401b6044820152606490fd5b8380fd5b8280fd5b9190503461033a578060031936011261033a576101f591356103746001610363610aa7565b938387528660205286200154610bb9565b61106b565b5050346101f957816003193601126101f957602090516000805160206110ef8339815191528152f35b5050346101f95760203660031901126101f9576101f59061040460016103c6610a8c565b92858052856020528086203387526020526103e660ff8288205416610abd565b6000805160206110ef83398151915286528560205285200154610bb9565b610ef7565b5050346101f95760203660031901126101f9576102bc9061044760ff61042d610a8c565b928580528560205280862033875260205285205416610abd565b610b5c565b5050346101f95760203660031901126101f95760ff8160209361046d610a8c565b6000805160206110ef83398151915282528186528282206001600160a01b039091168252855220549151911615158152f35b5050346101f95760203660031901126101f95760ff816020936104c0610a8c565b60008051602061112f83398151915282528186528282206001600160a01b039091168252855220549151911615158152f35b5050346101f957816003193601126101f95751908152602090f35b5050346101f95760203660031901126101f9576101f59061053160016101b2610a8c565b610d80565b83346105505780600319360112610550576102bc33610b75565b80fd5b5050346101f95760203660031901126101f9576101f59061057760016103c6610a8c565b610cf7565b90503461033a578160031936011261033a578160209360ff9261059d610aa7565b903582528186528282206001600160a01b039091168252855220549151911615158152f35b5050346101f957816003193601126101f95760ff81838060209552808552818120338252855220541690519015158152f35b9190503461033a5760208060031936011261033657610611610a8c565b92848052848252828520338652825261027d60ff8487205416610abd565b5050346101f957816003193601126101f95760ff610660918380528360205280842033855260205283205416610abd565b6102bc33610b15565b5050346101f95760203660031901126101f9576101f5906102ad600161068d610a8c565b92858052856020528086203387526020526106ad60ff8288205416610abd565b8580528560205285200154610bb9565b5050346101f95760203660031901126101f95760ff816020936106de610a8c565b60008051602061110f83398151915282528186528282206001600160a01b039091168252855220549151911615158152f35b5050346101f95760203660031901126101f9576102bc9061073460ff61042d610a8c565b610b43565b5050346101f957816003193601126101f9576020905160008051602061112f8339815191528152f35b5050346101f95760203660031901126101f9576101f5906107c46001610786610a8c565b92858052856020528086203387526020526107a660ff8288205416610abd565b60008051602061112f83398151915286528560205285200154610bb9565b610e70565b5050346101f957816003193601126101f957602090517ffcb9fcbfa83b897fb2d5cf4b58962164105c1e71489a37ef3ae0db3fdce576f68152f35b8383346101f957806003193601126101f95761081e610aa7565b90336001600160a01b0383160361083b57506101f591923561106b565b5163334bd91960e11b81528390fd5b5050346101f95760203660031901126101f9576102bc9061086e60ff61042d610a8c565b610b75565b9190503461033a578060031936011261033a576101f591356108986001610363610aa7565b610e09565b83346105505780600319360112610550576102bc33610b5c565b83346105505780600319360112610550576102bc33610b43565b5050346101f95760203660031901126101f95760ff816020936108f2610a8c565b8180528186528282206001600160a01b039091168252855220549151911615158152f35b90503461033a57602036600319011261033a57816020936001923581528085522001549051908152f35b8334610550576020366003190112610550576102bc61095d610a8c565b61096e61096933610b8e565b610abd565b610b15565b839150346101f95760203660031901126101f95761098f610a8c565b9061099933610b8e565b8015610a0e575b156109d357506109ce6001839460008051602061112f8339815191526101f595528560205285200154610bb9565b610bfd565b606490602085519162461bcd60e51b835282015260156024820152743737ba1037b7363ca6b4b73a32b927b920b236b4b760591b6044820152fd5b506000805160206110ef83398151915283528260205283832033845260205260ff84842054166109a0565b84913461033a57602036600319011261033a573563ffffffff60e01b811680910361033a5760209250637965db0b60e01b8114908115610a7b575b5015158152f35b6301ffc9a760e01b14905083610a74565b600435906001600160a01b0382168203610aa257565b600080fd5b602435906001600160a01b0382168203610aa257565b15610ac457565b60405162461bcd60e51b815260206004820152602360248201527f41757468436f6e74726f6c3a2043616c6c6572206973206e6f7420616e20616460448201526236b4b760e91b6064820152608490fd5b336001600160a01b03821603610b3157610b2e90611005565b50565b60405163334bd91960e11b8152600490fd5b336001600160a01b03821603610b3157610b2e90610e70565b336001600160a01b03821603610b3157610b2e90610f7e565b336001600160a01b03821603610b3157610b2e90610ef7565b6001600160a01b0316600090815260008051602061116f833981519152602052604090205460ff1690565b80600052600060205260406000203360005260205260ff6040600020541615610bdf5750565b6044906040519063e2517d3f60e01b82523360048301526024820152fd5b6001600160a01b031660008181527fc1d0acec9bade0cffdbc13f1b2faff9f7481956b9183a6eafe162d039809cf8a602052604081205490919060008051602061112f8339815191529060ff16610c8657808352826020526040832082845260205260408320600160ff198254161790556000805160206110cf833981519152339380a4600190565b505090565b6001600160a01b0316600081815260008051602061116f833981519152602052604081205490919060ff16610cf357818052816020526040822081835260205260408220600160ff1982541617905533916000805160206110cf8339815191528180a4600190565b5090565b6001600160a01b031660008181527f213adc0a84cc939081f025f2b699be0ed944ae23aa7816da33f513ef6fc3cdfb60205260408120549091906000805160206110ef8339815191529060ff16610c8657808352826020526040832082845260205260408320600160ff198254161790556000805160206110cf833981519152339380a4600190565b6001600160a01b031660008181527f84779ab8c2db004a3e75bfe114d2b98838cc68288e8e29039ab1b1e132f853bc602052604081205490919060008051602061110f8339815191529060ff16610c8657808352826020526040832082845260205260408320600160ff198254161790556000805160206110cf833981519152339380a4600190565b9060009180835282602052604083209160018060a01b03169182845260205260ff60408420541615600014610c8657808352826020526040832082845260205260408320600160ff198254161790556000805160206110cf833981519152339380a4600190565b6001600160a01b031660008181527fc1d0acec9bade0cffdbc13f1b2faff9f7481956b9183a6eafe162d039809cf8a602052604081205490919060008051602061112f8339815191529060ff1615610c865780835282602052604083208284526020526040832060ff19815416905560008051602061114f833981519152339380a4600190565b6001600160a01b031660008181527f213adc0a84cc939081f025f2b699be0ed944ae23aa7816da33f513ef6fc3cdfb60205260408120549091906000805160206110ef8339815191529060ff1615610c865780835282602052604083208284526020526040832060ff19815416905560008051602061114f833981519152339380a4600190565b6001600160a01b031660008181527f84779ab8c2db004a3e75bfe114d2b98838cc68288e8e29039ab1b1e132f853bc602052604081205490919060008051602061110f8339815191529060ff1615610c865780835282602052604083208284526020526040832060ff19815416905560008051602061114f833981519152339380a4600190565b6001600160a01b0316600081815260008051602061116f833981519152602052604081205490919060ff1615610cf35781805281602052604082208183526020526040822060ff198154169055339160008051602061114f8339815191528180a4600190565b9060009180835282602052604083209160018060a01b03169182845260205260ff604084205416600014610c865780835282602052604083208284526020526040832060ff19815416905560008051602061114f833981519152339380a460019056fe2f8788117e7eff1d82e926ec794901d17c78024a50270940304540a733656f0df0887ba65ee2024ea881d91b74c2450ef19e1557f03bed3ea9f16b037cbe2dc9523a704056dcd17bcf83bed8b68c59416dac1119be77755efe3bde0a64e46e0cbf02bad7114723a857a3af46cea17b778a3a951c96f183784d9a2448cc479ab6f6391f5c32d9c69d2a47ea670b442974b53935d1edc7fd64eb21e047a839171bad3228b676f7d3cd4284a5443f17f1962b36e491b30a40b2405849e597ba5fb5a2646970667358221220bf17599a50a3b7b9ae5cd9cb951b1dd623277b55ae37ea7f57877dd6c42b230264736f6c63430008190033",
  "linkReferences": {},
  "deployedLinkReferences": {}
}