{
  "_format": "hh-sol-artifact-1",
  "contractName": "AuthControlSeigManager",
  "sourceName": "src/L1/Mock/common/AuthControlSeigManager.sol",
  "abi": [
    {
      "inputs": [],
      "name": "AccessControlBadConfirmation",
      "type": "error"
    },
    {
      "inputs": [
        {
          "internalType": "address",
          "name": "account",
          "type": "address"
        },
        {
          "internalType": "bytes32",
          "name": "neededRole",
          "type": "bytes32"
        }
      ],
      "name": "AccessControlUnauthorizedAccount",
      "type": "error"
    },
    {
      "anonymous": false,
      "inputs": [
        {
          "indexed": true,
          "internalType": "bytes32",
          "name": "role",
          "type": "bytes32"
        },
        {
          "indexed": true,
          "internalType": "bytes32",
          "name": "previousAdminRole",
          "type": "bytes32"
        },
        {
          "indexed": true,
          "internalType": "bytes32",
          "name": "newAdminRole",
          "type": "bytes32"
        }
      ],
      "name": "RoleAdminChanged",
      "type": "event"
    },
    {
      "anonymous": false,
      "inputs": [
        {
          "indexed": true,
          "internalType": "bytes32",
          "name": "role",
          "type": "bytes32"
        },
        {
          "indexed": true,
          "internalType": "address",
          "name": "account",
          "type": "address"
        },
        {
          "indexed": true,
          "internalType": "address",
          "name": "sender",
          "type": "address"
        }
      ],
      "name": "RoleGranted",
      "type": "event"
    },
    {
      "anonymous": false,
      "inputs": [
        {
          "indexed": true,
          "internalType": "bytes32",
          "name": "role",
          "type": "bytes32"
        },
        {
          "indexed": true,
          "internalType": "address",
          "name": "account",
          "type": "address"
        },
        {
          "indexed": true,
          "internalType": "address",
          "name": "sender",
          "type": "address"
        }
      ],
      "name": "RoleRevoked",
      "type": "event"
    },
    {
      "inputs": [],
      "name": "CHALLENGER_ROLE",
      "outputs": [
        {
          "internalType": "bytes32",
          "name": "",
          "type": "bytes32"
        }
      ],
      "stateMutability": "view",
      "type": "function"
    },
    {
      "inputs": [],
      "name": "DEFAULT_ADMIN_ROLE",
      "outputs": [
        {
          "internalType": "bytes32",
          "name": "",
          "type": "bytes32"
        }
      ],
      "stateMutability": "view",
      "type": "function"
    },
    {
      "inputs": [],
      "name": "MINTER_ROLE",
      "outputs": [
        {
          "internalType": "bytes32",
          "name": "",
          "type": "bytes32"
        }
      ],
      "stateMutability": "view",
      "type": "function"
    },
    {
      "inputs": [],
      "name": "OPERATOR_ROLE",
      "outputs": [
        {
          "internalType": "bytes32",
          "name": "",
          "type": "bytes32"
        }
      ],
      "stateMutability": "view",
      "type": "function"
    },
    {
      "inputs": [],
      "name": "PAUSE_ROLE",
      "outputs": [
        {
          "internalType": "bytes32",
          "name": "",
          "type": "bytes32"
        }
      ],
      "stateMutability": "view",
      "type": "function"
    },
    {
      "inputs": [
        {
          "internalType": "address",
          "name": "account",
          "type": "address"
        }
      ],
      "name": "addAdmin",
      "outputs": [],
      "stateMutability": "nonpayable",
      "type": "function"
    },
    {
      "inputs": [
        {
          "internalType": "address",
          "name": "account",
          "type": "address"
        }
      ],
      "name": "addChallenger",
      "outputs": [],
      "stateMutability": "nonpayable",
      "type": "function"
    },
    {
      "inputs": [
        {
          "internalType": "address",
          "name": "account",
          "type": "address"
        }
      ],
      "name": "addMinter",
      "outputs": [],
      "stateMutability": "nonpayable",
      "type": "function"
    },
    {
      "inputs": [
        {
          "internalType": "address",
          "name": "account",
          "type": "address"
        }
      ],
      "name": "addOperator",
      "outputs": [],
      "stateMutability": "nonpayable",
      "type": "function"
    },
    {
      "inputs": [
        {
          "internalType": "bytes32",
          "name": "role",
          "type": "bytes32"
        }
      ],
      "name": "getRoleAdmin",
      "outputs": [
        {
          "internalType": "bytes32",
          "name": "",
          "type": "bytes32"
        }
      ],
      "stateMutability": "view",
      "type": "function"
    },
    {
      "inputs": [
        {
          "internalType": "bytes32",
          "name": "role",
          "type": "bytes32"
        },
        {
          "internalType": "address",
          "name": "account",
          "type": "address"
        }
      ],
      "name": "grantRole",
      "outputs": [],
      "stateMutability": "nonpayable",
      "type": "function"
    },
    {
      "inputs": [
        {
          "internalType": "bytes32",
          "name": "role",
          "type": "bytes32"
        },
        {
          "internalType": "address",
          "name": "account",
          "type": "address"
        }
      ],
      "name": "hasRole",
      "outputs": [
        {
          "internalType": "bool",
          "name": "",
          "type": "bool"
        }
      ],
      "stateMutability": "view",
      "type": "function"
    },
    {
      "inputs": [
        {
          "internalType": "address",
          "name": "account",
          "type": "address"
        }
      ],
      "name": "isAdmin",
      "outputs": [
        {
          "internalType": "bool",
          "name": "",
          "type": "bool"
        }
      ],
      "stateMutability": "view",
      "type": "function"
    },
    {
      "inputs": [
        {
          "internalType": "address",
          "name": "account",
          "type": "address"
        }
      ],
      "name": "isChallenger",
      "outputs": [
        {
          "internalType": "bool",
          "name": "",
          "type": "bool"
        }
      ],
      "stateMutability": "view",
      "type": "function"
    },
    {
      "inputs": [
        {
          "internalType": "address",
          "name": "account",
          "type": "address"
        }
      ],
      "name": "isMinter",
      "outputs": [
        {
          "internalType": "bool",
          "name": "",
          "type": "bool"
        }
      ],
      "stateMutability": "view",
      "type": "function"
    },
    {
      "inputs": [
        {
          "internalType": "address",
          "name": "account",
          "type": "address"
        }
      ],
      "name": "isOperator",
      "outputs": [
        {
          "internalType": "bool",
          "name": "",
          "type": "bool"
        }
      ],
      "stateMutability": "view",
      "type": "function"
    },
    {
      "inputs": [],
      "name": "isOwner",
      "outputs": [
        {
          "internalType": "bool",
          "name": "",
          "type": "bool"
        }
      ],
      "stateMutability": "view",
      "type": "function"
    },
    {
      "inputs": [
        {
          "internalType": "address",
          "name": "account",
          "type": "address"
        }
      ],
      "name": "removeAdmin",
      "outputs": [],
      "stateMutability": "nonpayable",
      "type": "function"
    },
    {
      "inputs": [
        {
          "internalType": "address",
          "name": "account",
          "type": "address"
        }
      ],
      "name": "removeChallenger",
      "outputs": [],
      "stateMutability": "nonpayable",
      "type": "function"
    },
    {
      "inputs": [
        {
          "internalType": "address",
          "name": "account",
          "type": "address"
        }
      ],
      "name": "removeMinter",
      "outputs": [],
      "stateMutability": "nonpayable",
      "type": "function"
    },
    {
      "inputs": [
        {
          "internalType": "address",
          "name": "account",
          "type": "address"
        }
      ],
      "name": "removeOperator",
      "outputs": [],
      "stateMutability": "nonpayable",
      "type": "function"
    },
    {
      "inputs": [],
      "name": "renounceChallenger",
      "outputs": [],
      "stateMutability": "nonpayable",
      "type": "function"
    },
    {
      "inputs": [],
      "name": "renounceMinter",
      "outputs": [],
      "stateMutability": "nonpayable",
      "type": "function"
    },
    {
      "inputs": [],
      "name": "renounceOperator",
      "outputs": [],
      "stateMutability": "nonpayable",
      "type": "function"
    },
    {
      "inputs": [],
      "name": "renounceOwnership",
      "outputs": [],
      "stateMutability": "nonpayable",
      "type": "function"
    },
    {
      "inputs": [
        {
          "internalType": "bytes32",
          "name": "role",
          "type": "bytes32"
        },
        {
          "internalType": "address",
          "name": "callerConfirmation",
          "type": "address"
        }
      ],
      "name": "renounceRole",
      "outputs": [],
      "stateMutability": "nonpayable",
      "type": "function"
    },
    {
      "inputs": [
        {
          "internalType": "address",
          "name": "account",
          "type": "address"
        }
      ],
      "name": "revokeChallenger",
      "outputs": [],
      "stateMutability": "nonpayable",
      "type": "function"
    },
    {
      "inputs": [
        {
          "internalType": "address",
          "name": "account",
          "type": "address"
        }
      ],
      "name": "revokeMinter",
      "outputs": [],
      "stateMutability": "nonpayable",
      "type": "function"
    },
    {
      "inputs": [
        {
          "internalType": "address",
          "name": "account",
          "type": "address"
        }
      ],
      "name": "revokeOperator",
      "outputs": [],
      "stateMutability": "nonpayable",
      "type": "function"
    },
    {
      "inputs": [
        {
          "internalType": "bytes32",
          "name": "role",
          "type": "bytes32"
        },
        {
          "internalType": "address",
          "name": "account",
          "type": "address"
        }
      ],
      "name": "revokeRole",
      "outputs": [],
      "stateMutability": "nonpayable",
      "type": "function"
    },
    {
      "inputs": [
        {
          "internalType": "bytes4",
          "name": "interfaceId",
          "type": "bytes4"
        }
      ],
      "name": "supportsInterface",
      "outputs": [
        {
          "internalType": "bool",
          "name": "",
          "type": "bool"
        }
      ],
      "stateMutability": "view",
      "type": "function"
    },
    {
      "inputs": [
        {
          "internalType": "address",
          "name": "newAdmin",
          "type": "address"
        }
      ],
      "name": "transferAdmin",
      "outputs": [],
      "stateMutability": "nonpayable",
      "type": "function"
    },
    {
      "inputs": [
        {
          "internalType": "address",
          "name": "newAdmin",
          "type": "address"
        }
      ],
      "name": "transferOwnership",
      "outputs": [],
      "stateMutability": "nonpayable",
      "type": "function"
    }
  ],
  "bytecode": "0x608080604052346051576301ffc9a760e01b60009081526020527f67be87c3ff9960ca1e9cfac5cab2ff4747269cf9ed20c9b7306235ac35a491c5805460ff191660011790556111ed90816100578239f35b600080fdfe608060408181526004918236101561001657600080fd5b600092833560e01c91826301ffc9a714610a45575081630ceb67801461097e5781631785f53c1461094b578163248a9ca31461092157816324d7806c146108db57816325e90db4146108c15781632ab6f8db146108a75781632f2ff15d1461087d5781633092afd51461085457816336568abe1461080e578163389ed267146107d35781633c4911731461076c578163530adbb4146107435781636c578c1d1461071a5781636d70f7ae146106c65781637048027514610672578163715018a61461063757816375829def146105fb5781638f32d59b146105c857816391d1485414610581578163983b2d5614610558578163986502751461053b5781639870d7fe14610512578163a217fddf146104f7578163a415d8dc146104a3578163aa271e1a1461044f578163ac8a584a1461040b578163cfbd4885146103a4578163d53913931461037b578163d547741f14610340578163f2fde38b1461022557508063f5b541a6146101fd5763fad8b32a1461019057600080fd5b346101f95760203660031901126101f9576101f5906101f060016101b2610a7d565b92858052816020528086203387526020526101d260ff8288205416610aae565b60008051602061115883398151915286528160205285200154610bd6565b610fa3565b5080f35b5080fd5b50346101f957816003193601126101f957602090516000805160206111588339815191528152f35b9190503461033c5760208060031936011261033857610242610a7d565b9284805260018252828520338652825261026160ff8487205416610aae565b84805260018252828520338652825261027f60ff8487205416610aae565b6001600160a01b03841680156102fb5733146102c1575060016102b49392816102af938780525285200154610bd6565b610ca9565b506102be33610b06565b80f35b915162461bcd60e51b815291820152601660248201527520b1b1b2b9b9b4b136329d1039b0b6b29030b236b4b760511b6044820152606490fd5b50915162461bcd60e51b815291820152601860248201527741636365737369626c653a207a65726f206164647265737360401b6044820152606490fd5b8380fd5b8280fd5b9190503461033c578060031936011261033c576101f591356103766001610365610a98565b938387528160205286200154610bd6565b611092565b5050346101f957816003193601126101f957602090516000805160206111388339815191528152f35b5050346101f95760203660031901126101f9576101f59061040660016103c8610a7d565b92858052816020528086203387526020526103e860ff8288205416610aae565b60008051602061113883398151915286528160205285200154610bd6565b610f1b565b5050346101f95760203660031901126101f9576102be9061044a60ff61042f610a7d565b92858052600160205280862033875260205285205416610aae565b610b4d565b5050346101f95760203660031901126101f95760ff81602093610470610a7d565b6000805160206111388339815191528252600186528282206001600160a01b039091168252855220549151911615158152f35b5050346101f95760203660031901126101f95760ff816020936104c4610a7d565b6000805160206111788339815191528252600186528282206001600160a01b039091168252855220549151911615158152f35b5050346101f957816003193601126101f95751908152602090f35b5050346101f95760203660031901126101f9576101f59061053660016101b2610a7d565b610da0565b83346105555780600319360112610555576102be33610b66565b80fd5b5050346101f95760203660031901126101f9576101f59061057c60016103c8610a7d565b610d16565b90503461033c578160031936011261033c578160209360ff926105a2610a98565b90358252600186528282206001600160a01b039091168252855220549151911615158152f35b5050346101f957816003193601126101f95760ff8183806020955260018552818120338252855220541690519015158152f35b9190503461033c5760208060031936011261033857610618610a7d565b9284805260018252828520338652825261027f60ff8487205416610aae565b5050346101f957816003193601126101f95760ff61066991838052600160205280842033855260205283205416610aae565b6102be33610b06565b5050346101f95760203660031901126101f9576101f5906102af6001610696610a7d565b92858052816020528086203387526020526106b660ff8288205416610aae565b8580528160205285200154610bd6565b5050346101f95760203660031901126101f95760ff816020936106e7610a7d565b6000805160206111588339815191528252600186528282206001600160a01b039091168252855220549151911615158152f35b5050346101f95760203660031901126101f9576102be9061073e60ff61042f610a7d565b610b34565b5050346101f957816003193601126101f957602090516000805160206111788339815191528152f35b5050346101f95760203660031901126101f9576101f5906107ce6001610790610a7d565b92858052816020528086203387526020526107b060ff8288205416610aae565b60008051602061117883398151915286528160205285200154610bd6565b610e93565b5050346101f957816003193601126101f957602090517ffcb9fcbfa83b897fb2d5cf4b58962164105c1e71489a37ef3ae0db3fdce576f68152f35b8383346101f957806003193601126101f957610828610a98565b90336001600160a01b0383160361084557506101f5919235611092565b5163334bd91960e11b81528390fd5b5050346101f95760203660031901126101f9576102be9061087860ff61042f610a7d565b610b66565b9190503461033c578060031936011261033c576101f591356108a26001610365610a98565b610e2a565b83346105555780600319360112610555576102be33610b4d565b83346105555780600319360112610555576102be33610b34565b5050346101f95760203660031901126101f95760ff816020936108fc610a7d565b818052600186528282206001600160a01b039091168252855220549151911615158152f35b90503461033c57602036600319011261033c57816020936001923581528285522001549051908152f35b8334610555576020366003190112610555576102be610968610a7d565b61097961097433610b7f565b610aae565b610b06565b839150346101f95760203660031901126101f95761099a610a7d565b906109a433610b7f565b8015610a19575b156109de57506109d9600183946000805160206111788339815191526101f595528160205285200154610bd6565b610c1a565b606490602085519162461bcd60e51b835282015260156024820152743737ba1037b7363ca6b4b73a32b927b920b236b4b760591b6044820152fd5b506000805160206111388339815191528352600160205283832033845260205260ff84842054166109ab565b84913461033c57602036600319011261033c5735916001600160e01b0319831683036105555750610a77602092610baa565b15158152f35b600435906001600160a01b0382168203610a9357565b600080fd5b602435906001600160a01b0382168203610a9357565b15610ab557565b60405162461bcd60e51b815260206004820152602360248201527f41757468436f6e74726f6c3a2043616c6c6572206973206e6f7420616e20616460448201526236b4b760e91b6064820152608490fd5b336001600160a01b03821603610b2257610b1f9061102b565b50565b60405163334bd91960e11b8152600490fd5b336001600160a01b03821603610b2257610b1f90610e93565b336001600160a01b03821603610b2257610b1f90610fa3565b336001600160a01b03821603610b2257610b1f90610f1b565b6001600160a01b03166000908152600080516020611118833981519152602052604090205460ff1690565b6001600160e01b03198116637965db0b60e01b14908115610bc9575090565b610bd39150610baa565b90565b80600052600160205260406000203360005260205260ff6040600020541615610bfc5750565b6044906040519063e2517d3f60e01b82523360048301526024820152fd5b6001600160a01b031660008181527f58c1f4e7a1a9b7c12869d09a0c82f72215f4830b8777d4a607eb11b3aa53630860205260408120549091906000805160206111788339815191529060ff16610ca45780835260016020526040832082845260205260408320600160ff198254161790556000805160206110f8833981519152339380a4600190565b505090565b6001600160a01b03166000818152600080516020611118833981519152602052604081205490919060ff16610d125781805260016020526040822081835260205260408220600160ff1982541617905533916000805160206110f88339815191528180a4600190565b5090565b6001600160a01b031660008181527ffe36a80dee87f02e45351a65c4bd3ccefd3fc5363e679b6e4b81a8004282b3fc60205260408120549091906000805160206111388339815191529060ff16610ca45780835260016020526040832082845260205260408320600160ff198254161790556000805160206110f8833981519152339380a4600190565b6001600160a01b031660008181527f8ba84450219907afe912da1ddd29b6f4e773baa5c2630d42ebe0371c91fdf9ed60205260408120549091906000805160206111588339815191529060ff16610ca45780835260016020526040832082845260205260408320600160ff198254161790556000805160206110f8833981519152339380a4600190565b906000918083526001602052604083209160018060a01b03169182845260205260ff60408420541615600014610ca45780835260016020526040832082845260205260408320600160ff198254161790556000805160206110f8833981519152339380a4600190565b6001600160a01b031660008181527f58c1f4e7a1a9b7c12869d09a0c82f72215f4830b8777d4a607eb11b3aa53630860205260408120549091906000805160206111788339815191529060ff1615610ca4578083526001602052604083208284526020526040832060ff198154169055600080516020611198833981519152339380a4600190565b6001600160a01b031660008181527ffe36a80dee87f02e45351a65c4bd3ccefd3fc5363e679b6e4b81a8004282b3fc60205260408120549091906000805160206111388339815191529060ff1615610ca4578083526001602052604083208284526020526040832060ff198154169055600080516020611198833981519152339380a4600190565b6001600160a01b031660008181527f8ba84450219907afe912da1ddd29b6f4e773baa5c2630d42ebe0371c91fdf9ed60205260408120549091906000805160206111588339815191529060ff1615610ca4578083526001602052604083208284526020526040832060ff198154169055600080516020611198833981519152339380a4600190565b6001600160a01b03166000818152600080516020611118833981519152602052604081205490919060ff1615610d12578180526001602052604082208183526020526040822060ff19815416905533916000805160206111988339815191528180a4600190565b906000918083526001602052604083209160018060a01b03169182845260205260ff604084205416600014610ca4578083526001602052604083208284526020526040832060ff198154169055600080516020611198833981519152339380a460019056fe2f8788117e7eff1d82e926ec794901d17c78024a50270940304540a733656f0da6eef7e35abe7026729641147f7915573c7e97b47efa546f5f6e3230263bcb49f0887ba65ee2024ea881d91b74c2450ef19e1557f03bed3ea9f16b037cbe2dc9523a704056dcd17bcf83bed8b68c59416dac1119be77755efe3bde0a64e46e0cbf02bad7114723a857a3af46cea17b778a3a951c96f183784d9a2448cc479ab6f6391f5c32d9c69d2a47ea670b442974b53935d1edc7fd64eb21e047a839171ba2646970667358221220424286f5f6b3db0d07e19c6b46a323b6bec1cc7c0ae77a0fb6f6a919c6998acd64736f6c63430008190033",
  "linkReferences": {},
  "deployedLinkReferences": {}
}