{
  "_format": "hh-sol-artifact-1",
  "contractName": "RandomPack",
  "sourceName": "src/L2/RandomPack.sol",
  "abi": [
    {
      "inputs": [
        {
          "internalType": "address",
          "name": "coordinator",
          "type": "address"
        },
        {
          "internalType": "address",
          "name": "_ton",
          "type": "address"
        },
        {
          "internalType": "address",
          "name": "_gemFactory",
          "type": "address"
        },
        {
          "internalType": "address",
          "name": "_treasury",
          "type": "address"
        },
        {
          "internalType": "uint256",
          "name": "_randomPackFees",
          "type": "uint256"
        }
      ],
      "stateMutability": "nonpayable",
      "type": "constructor"
    },
    {
      "inputs": [],
      "name": "AccessControlBadConfirmation",
      "type": "error"
    },
    {
      "inputs": [
        {
          "internalType": "address",
          "name": "account",
          "type": "address"
        },
        {
          "internalType": "bytes32",
          "name": "neededRole",
          "type": "bytes32"
        }
      ],
      "name": "AccessControlUnauthorizedAccount",
      "type": "error"
    },
    {
      "inputs": [
        {
          "internalType": "address",
          "name": "target",
          "type": "address"
        }
      ],
      "name": "AddressEmptyCode",
      "type": "error"
    },
    {
      "inputs": [
        {
          "internalType": "address",
          "name": "account",
          "type": "address"
        }
      ],
      "name": "AddressInsufficientBalance",
      "type": "error"
    },
    {
      "inputs": [],
      "name": "FailedInnerCall",
      "type": "error"
    },
    {
      "inputs": [
        {
          "internalType": "address",
          "name": "have",
          "type": "address"
        },
        {
          "internalType": "address",
          "name": "want",
          "type": "address"
        }
      ],
      "name": "OnlyCoordinatorCanFulfill",
      "type": "error"
    },
    {
      "inputs": [],
      "name": "ReentrancyGuardReentrantCall",
      "type": "error"
    },
    {
      "inputs": [
        {
          "internalType": "address",
          "name": "token",
          "type": "address"
        }
      ],
      "name": "SafeERC20FailedOperation",
      "type": "error"
    },
    {
      "anonymous": false,
      "inputs": [],
      "name": "CommonGemMinted",
      "type": "event"
    },
    {
      "anonymous": false,
      "inputs": [],
      "name": "CommonGemToBeMinted",
      "type": "event"
    },
    {
      "anonymous": false,
      "inputs": [
        {
          "indexed": false,
          "internalType": "uint256",
          "name": "tokenId",
          "type": "uint256"
        },
        {
          "indexed": false,
          "internalType": "address",
          "name": "newOwner",
          "type": "address"
        }
      ],
      "name": "RandomGemToBeTransferred",
      "type": "event"
    },
    {
      "anonymous": false,
      "inputs": [
        {
          "indexed": false,
          "internalType": "uint256",
          "name": "tokenId",
          "type": "uint256"
        },
        {
          "indexed": false,
          "internalType": "address",
          "name": "newOwner",
          "type": "address"
        }
      ],
      "name": "RandomGemTransferred",
      "type": "event"
    },
    {
      "anonymous": false,
      "inputs": [
        {
          "indexed": true,
          "internalType": "bytes32",
          "name": "role",
          "type": "bytes32"
        },
        {
          "indexed": true,
          "internalType": "bytes32",
          "name": "previousAdminRole",
          "type": "bytes32"
        },
        {
          "indexed": true,
          "internalType": "bytes32",
          "name": "newAdminRole",
          "type": "bytes32"
        }
      ],
      "name": "RoleAdminChanged",
      "type": "event"
    },
    {
      "anonymous": false,
      "inputs": [
        {
          "indexed": true,
          "internalType": "bytes32",
          "name": "role",
          "type": "bytes32"
        },
        {
          "indexed": true,
          "internalType": "address",
          "name": "account",
          "type": "address"
        },
        {
          "indexed": true,
          "internalType": "address",
          "name": "sender",
          "type": "address"
        }
      ],
      "name": "RoleGranted",
      "type": "event"
    },
    {
      "anonymous": false,
      "inputs": [
        {
          "indexed": true,
          "internalType": "bytes32",
          "name": "role",
          "type": "bytes32"
        },
        {
          "indexed": true,
          "internalType": "address",
          "name": "account",
          "type": "address"
        },
        {
          "indexed": true,
          "internalType": "address",
          "name": "sender",
          "type": "address"
        }
      ],
      "name": "RoleRevoked",
      "type": "event"
    },
    {
      "inputs": [],
      "name": "ADMIN_ROLE",
      "outputs": [
        {
          "internalType": "bytes32",
          "name": "",
          "type": "bytes32"
        }
      ],
      "stateMutability": "view",
      "type": "function"
    },
    {
      "inputs": [],
      "name": "DEFAULT_ADMIN_ROLE",
      "outputs": [
        {
          "internalType": "bytes32",
          "name": "",
          "type": "bytes32"
        }
      ],
      "stateMutability": "view",
      "type": "function"
    },
    {
      "inputs": [],
      "name": "PAUSE_ROLE",
      "outputs": [
        {
          "internalType": "bytes32",
          "name": "",
          "type": "bytes32"
        }
      ],
      "stateMutability": "view",
      "type": "function"
    },
    {
      "inputs": [
        {
          "internalType": "address",
          "name": "account",
          "type": "address"
        }
      ],
      "name": "addAdmin",
      "outputs": [],
      "stateMutability": "nonpayable",
      "type": "function"
    },
    {
      "inputs": [
        {
          "internalType": "address",
          "name": "account",
          "type": "address"
        }
      ],
      "name": "addPauser",
      "outputs": [],
      "stateMutability": "nonpayable",
      "type": "function"
    },
    {
      "inputs": [],
      "name": "callbackGasLimit",
      "outputs": [
        {
          "internalType": "uint32",
          "name": "",
          "type": "uint32"
        }
      ],
      "stateMutability": "view",
      "type": "function"
    },
    {
      "inputs": [
        {
          "internalType": "uint256",
          "name": "requestId",
          "type": "uint256"
        }
      ],
      "name": "collectRandomGem",
      "outputs": [],
      "stateMutability": "nonpayable",
      "type": "function"
    },
    {
      "inputs": [],
      "name": "getRandomGem",
      "outputs": [
        {
          "internalType": "uint256",
          "name": "",
          "type": "uint256"
        }
      ],
      "stateMutability": "payable",
      "type": "function"
    },
    {
      "inputs": [
        {
          "internalType": "bytes32",
          "name": "role",
          "type": "bytes32"
        }
      ],
      "name": "getRoleAdmin",
      "outputs": [
        {
          "internalType": "bytes32",
          "name": "",
          "type": "bytes32"
        }
      ],
      "stateMutability": "view",
      "type": "function"
    },
    {
      "inputs": [
        {
          "internalType": "bytes32",
          "name": "role",
          "type": "bytes32"
        },
        {
          "internalType": "address",
          "name": "account",
          "type": "address"
        }
      ],
      "name": "grantRole",
      "outputs": [],
      "stateMutability": "nonpayable",
      "type": "function"
    },
    {
      "inputs": [
        {
          "internalType": "bytes32",
          "name": "role",
          "type": "bytes32"
        },
        {
          "internalType": "address",
          "name": "account",
          "type": "address"
        }
      ],
      "name": "hasRole",
      "outputs": [
        {
          "internalType": "bool",
          "name": "",
          "type": "bool"
        }
      ],
      "stateMutability": "view",
      "type": "function"
    },
    {
      "inputs": [
        {
          "internalType": "address",
          "name": "account",
          "type": "address"
        }
      ],
      "name": "isAdmin",
      "outputs": [
        {
          "internalType": "bool",
          "name": "",
          "type": "bool"
        }
      ],
      "stateMutability": "view",
      "type": "function"
    },
    {
      "inputs": [],
      "name": "isOwner",
      "outputs": [
        {
          "internalType": "bool",
          "name": "",
          "type": "bool"
        }
      ],
      "stateMutability": "view",
      "type": "function"
    },
    {
      "inputs": [
        {
          "internalType": "address",
          "name": "",
          "type": "address"
        },
        {
          "internalType": "address",
          "name": "",
          "type": "address"
        },
        {
          "internalType": "uint256",
          "name": "",
          "type": "uint256"
        },
        {
          "internalType": "bytes",
          "name": "",
          "type": "bytes"
        }
      ],
      "name": "onERC721Received",
      "outputs": [
        {
          "internalType": "bytes4",
          "name": "",
          "type": "bytes4"
        }
      ],
      "stateMutability": "pure",
      "type": "function"
    },
    {
      "inputs": [],
      "name": "perfectCommonGemURI",
      "outputs": [
        {
          "internalType": "string",
          "name": "",
          "type": "string"
        }
      ],
      "stateMutability": "view",
      "type": "function"
    },
    {
      "inputs": [],
      "name": "randomPackFees",
      "outputs": [
        {
          "internalType": "uint256",
          "name": "",
          "type": "uint256"
        }
      ],
      "stateMutability": "view",
      "type": "function"
    },
    {
      "inputs": [
        {
          "internalType": "uint256",
          "name": "requestId",
          "type": "uint256"
        },
        {
          "internalType": "uint256",
          "name": "randomWord",
          "type": "uint256"
        }
      ],
      "name": "rawFulfillRandomWords",
      "outputs": [],
      "stateMutability": "nonpayable",
      "type": "function"
    },
    {
      "inputs": [
        {
          "internalType": "address",
          "name": "account",
          "type": "address"
        }
      ],
      "name": "removeAdmin",
      "outputs": [],
      "stateMutability": "nonpayable",
      "type": "function"
    },
    {
      "inputs": [
        {
          "internalType": "address",
          "name": "account",
          "type": "address"
        }
      ],
      "name": "removePauser",
      "outputs": [],
      "stateMutability": "nonpayable",
      "type": "function"
    },
    {
      "inputs": [],
      "name": "renounceOwnership",
      "outputs": [],
      "stateMutability": "nonpayable",
      "type": "function"
    },
    {
      "inputs": [
        {
          "internalType": "bytes32",
          "name": "role",
          "type": "bytes32"
        },
        {
          "internalType": "address",
          "name": "callerConfirmation",
          "type": "address"
        }
      ],
      "name": "renounceRole",
      "outputs": [],
      "stateMutability": "nonpayable",
      "type": "function"
    },
    {
      "inputs": [],
      "name": "requestCount",
      "outputs": [
        {
          "internalType": "uint256",
          "name": "",
          "type": "uint256"
        }
      ],
      "stateMutability": "view",
      "type": "function"
    },
    {
      "inputs": [
        {
          "internalType": "bytes32",
          "name": "role",
          "type": "bytes32"
        },
        {
          "internalType": "address",
          "name": "account",
          "type": "address"
        }
      ],
      "name": "revokeRole",
      "outputs": [],
      "stateMutability": "nonpayable",
      "type": "function"
    },
    {
      "inputs": [
        {
          "internalType": "uint256",
          "name": "",
          "type": "uint256"
        }
      ],
      "name": "s_requests",
      "outputs": [
        {
          "internalType": "bool",
          "name": "requested",
          "type": "bool"
        },
        {
          "internalType": "bool",
          "name": "fulfilled",
          "type": "bool"
        },
        {
          "internalType": "uint256",
          "name": "randomWord",
          "type": "uint256"
        },
        {
          "internalType": "uint256",
          "name": "chosenTokenId",
          "type": "uint256"
        },
        {
          "internalType": "address",
          "name": "requester",
          "type": "address"
        }
      ],
      "stateMutability": "view",
      "type": "function"
    },
    {
      "inputs": [
        {
          "internalType": "uint32",
          "name": "_callbackGasLimit",
          "type": "uint32"
        }
      ],
      "name": "setCallbackGasLimit",
      "outputs": [],
      "stateMutability": "nonpayable",
      "type": "function"
    },
    {
      "inputs": [
        {
          "internalType": "address",
          "name": "_gemFactory",
          "type": "address"
        }
      ],
      "name": "setGemFactory",
      "outputs": [],
      "stateMutability": "nonpayable",
      "type": "function"
    },
    {
      "inputs": [
        {
          "internalType": "string",
          "name": "_tokenURI",
          "type": "string"
        }
      ],
      "name": "setPerfectCommonGemURI",
      "outputs": [],
      "stateMutability": "nonpayable",
      "type": "function"
    },
    {
      "inputs": [
        {
          "internalType": "uint256",
          "name": "_randomPackFees",
          "type": "uint256"
        }
      ],
      "name": "setRandomPackFees",
      "outputs": [],
      "stateMutability": "nonpayable",
      "type": "function"
    },
    {
      "inputs": [
        {
          "internalType": "bytes4",
          "name": "interfaceId",
          "type": "bytes4"
        }
      ],
      "name": "supportsInterface",
      "outputs": [
        {
          "internalType": "bool",
          "name": "",
          "type": "bool"
        }
      ],
      "stateMutability": "view",
      "type": "function"
    },
    {
      "inputs": [
        {
          "internalType": "address",
          "name": "newAdmin",
          "type": "address"
        }
      ],
      "name": "transferAdmin",
      "outputs": [],
      "stateMutability": "nonpayable",
      "type": "function"
    },
    {
      "inputs": [
        {
          "internalType": "address",
          "name": "newAdmin",
          "type": "address"
        }
      ],
      "name": "transferOwnership",
      "outputs": [],
      "stateMutability": "nonpayable",
      "type": "function"
    }
  ],
  "bytecode": "0x60a03461011057601f611d6538819003918201601f19168301916001600160401b038311848410176101155780849260a094604052833981010312610110576100478161012b565b906100546020820161012b565b916100616040830161012b565b9060806100706060850161012b565b93015160016000556001600160a01b0391821660808190526007805460ff60a01b191690559094909382906100a43361013f565b508160018060a01b0319951685600354161760035516836004541617600455169060065416176006556007549160095561334560ac1b916bffffffffffffff00000000ff60a01b161717600755604051611b9490816101d18239608051818181610cac0152610ff30152f35b600080fd5b634e487b7160e01b600052604160045260246000fd5b51906001600160a01b038216820361011057565b6001600160a01b031660008181527fa6eef7e35abe7026729641147f7915573c7e97b47efa546f5f6e3230263bcb49602052604081205490919060ff166101cc5781805260016020526040822081835260205260408220600160ff1982541617905533917f2f8788117e7eff1d82e926ec794901d17c78024a50270940304540a733656f0d8180a4600190565b509056fe608060409080825260048036101561001657600080fd5b600091823560e01c90816301ffc9a71461147157508063150b7a02146114075780631785f53c146113da578063248a9ca3146113af57806324d7806c1461135b57806324f746971461133357806325b5b3b2146112c45780632f2ff15d1461129b57806336568abe1461125557806337ed11db14610fcf578063389ed26714610fa65780635badbe4c14610f875780636985ba4714610e8c5780636b2c0f5514610e3d5780636ce1408b14610b745780636ecd19cb146109e55780637048027514610997578063715018a61461096f57806375829def1461094957806375b238fc1461092057806382dc1ec41461085d5780638f32d59b1461083757806391d14854146107f0578063a168fa891461078c578063a217fddf14610771578063a2a79ac1146103b6578063a4eb718c14610365578063bafc330114610346578063d547741f14610308578063e61475181461027d5763f2fde38b1461017957600080fd5b34610279576020366003190112610279576101926114c5565b906101a361019e611642565b61157d565b6101ae61019e611642565b6001600160a01b038216801561023b5733146101ff57506101ed60018394600080516020611b1f8339815191526101f2955281602052852001546116c3565b611707565b506101fc336115d5565b80f35b606490602085519162461bcd60e51b8352820152601660248201527520b1b1b2b9b9b4b136329d1039b0b6b29030b236b4b760511b6044820152fd5b845162461bcd60e51b8152602081840152601860248201527741636365737369626c653a207a65726f206164647265737360401b6044820152606490fd5b5080fd5b508234610304576020366003190112610304576102986114c5565b6102a361019e611642565b600354926001600160a01b0392838516156102cf5750506001600160a01b031990921691161760035580f35b906020606492519162461bcd60e51b8352820152600f60248201526e496e76616c6964206164647265737360881b6044820152fd5b8280fd5b508234610304578060031936011261030457610342913561033d600161032c6114db565b9383875281602052862001546116c3565b611a16565b5080f35b8284346102795781600319360112610279576020906009549051908152f35b5034610279576020366003190112610279573563ffffffff811681036102795761039061019e611642565b6007805463ffffffff60a81b191660a89290921b63ffffffff60a81b1691909117905580f35b50829034610304576020918260031936011261076d5781359160ff926103e460ff60075460a01c1615611603565b8086526002808652838720600301546001600160a01b039190821633036107305782885280875260018060ff878b205460081c161515036106ee5783895281885285892082015488959493928a929091156104fc57506104b897508382528086527f5ea50d72ed96185eb6f31884978fae6836ea30ba583e3fb7c32b66135514723c8783208460038483015492015416906104838a51928392836116aa565b0390a182855416938252808652868220926003840154169201549386519788958694859363048dbcef60e41b8552840161168f565b03925af19081156104f357506104cd57505080f35b8161034292903d106104ec575b6104e4818361152b565b810190611677565b503d6104da565b513d85823e3d90fd5b9150918093979550845416908651958787016001600160401b0390888110828211176106d95789528b88528b8b8901528851906080820190828210908211176106d957928c928c959299948b52818a5281868b0152818b8b01528160608b01528a51998a9563912b431b60e01b8752858b8801526024870186905b8a82106106b257505050606486019085915b8b831061068d57505050505061012491839161010060e4840152816101048401525af1938415610683579087949392918994610649575b5083906105f1978a52808652868a2001558154169087855180978195829463048dbcef60e41b84523390840161168f565b03925af19081156104f3575061062b575b50507fdd20b2dff2d53ef41435ad0074aea6e1ce693777fcc9ea8e76c76a8f3607dd218180a180f35b8161064192903d106104ec576104e4818361152b565b508180610602565b8581969295503d831161067c575b610661818361152b565b81010312610677579251869390926105f16105c0565b600080fd5b503d610657565b85513d8a823e3d90fd5b84975083828a94979a9396959850511681520192019201928d938d96938b9693610589565b859850848a93809795989b93969950511681520193019101928e94918e97948c9794610577565b604188634e487b7160e01b6000525260246000fd5b855162461bcd60e51b8152808601899052601c60248201527b1c985b991bdb481ddbdc99081a5cc81b9bdd08199d5b1b199a5b195960221b6044820152606490fd5b845162461bcd60e51b815280850188905260176024820152763737ba103a3432903934b3b43a103932b8bab2b9ba32b960491b6044820152606490fd5b8380fd5b82843461027957816003193601126102795751908152602090f35b508290346103045760203660031901126103045760a09282913581526002602052209081549160018101546002820154916003600180881b03910154169260ff8151958181161515875260081c161515602086015284015260608301526080820152f35b508290346103045781600319360112610304578160209361080f6114db565b9235815260018552209060018060a01b0316600052825260ff81600020541690519015158152f35b828434610279578160031936011261027957602090610854611642565b90519015158152f35b5034610279576020366003190112610279576108776114c5565b90600080516020611b1f833981519152835260016020528383203360005260205260ff8460002054168015610912575b156108da57506108d560018394600080516020611aff833981519152610342955281602052852001546116c3565b611796565b606490602085519162461bcd60e51b835282015260126024820152713737ba1027bbb732b91037b91020b236b4b760711b6044820152fd5b5061091b611642565b6108a7565b82843461027957816003193601126102795760209051600080516020611b1f8339815191528152f35b5034610279576020366003190112610279576109636114c5565b906101ae61019e611642565b823461099457806003193601126109945761098b61019e611642565b61034233611911565b80fd5b82843461027957602036600319011261027957610342906101ed60016109bb6114c5565b926109c761019e611642565b600080516020611b1f833981519152865281602052852001546116c3565b503461027957602080600319360112610304576001600160401b03918035838111610b705736602382011215610b70578082013590610a2f610a2683611562565b9751978861152b565b8187523660248383010111610b6c578186926024869301838a013787010152610a5961019e611642565b8451928311610b595750610a6e600a546114f1565b601f8111610b15575b5080601f8311600114610ab257508293829392610aa7575b50508160011b916000199060031b1c191617600a5580f35b015190503880610a8f565b90601f19831694600a85528285209285905b878210610afd575050836001959610610ae4575b505050811b01600a5580f35b015160001960f88460031b161c19169055388080610ad8565b80600185968294968601518155019501930190610ac4565b600a8452818420601f840160051c810191838510610b4f575b601f0160051c01905b818110610b445750610a77565b848155600101610b37565b9091508190610b2e565b634e487b7160e01b845260419052602483fd5b8580fd5b8480fd5b50918160031936011261027957610b9360ff60075460a01c1615611603565b6002825414610e2e57600282553315610df45760018060a01b03918260065416936009549083516020968782016323b872dd60e01b8152602494338685015230604485015260648401526064835260a08301926001600160401b039381811085821117610dae57885251610c36918791829182865af13d15610dec573d90610c1a82611562565b91610c278a51938461152b565b82523d888c84013e5b83611a7b565b805190898215159283610dd3575b505050610dc0575063ffffffff958660075460a81c16968651976060890189811085821117610dae57885286895289890187815289890191825288516309160b1560e11b8152995161ffff908116878c0152905116868a0152511660448801528787606481347f000000000000000000000000000000000000000000000000000000000000000086165af1968715610d75578597610d7f575b50868552600288526003868620600160ff19825416178155013360018060a01b031982541617905560016008540160085560075416803b15610b7057908484939281958851809781936324adeca760e11b83528c888401525af18015610d7557610d50575b505050506001905551908152f35b8311610d6457505082526001388080610d42565b634e487b7160e01b84526041905282fd5b86513d87823e3d90fd5b9096508781813d8311610da7575b610d97818361152b565b81010312610b7057519538610cdd565b503d610d8d565b634e487b7160e01b8852604186528688fd5b8551635274afe760e01b81529283015250fd5b610de39350820181019101611677565b15388981610c44565b606090610c30565b5162461bcd60e51b815260208184015260156024820152741859191c995cdcc80c081b9bdd08185b1b1bddd959605a1b6044820152606490fd5b51633ee5aeb560e01b81529050fd5b5082903461030457602036600319011261030457610e596114c5565b91610e6561019e611642565b336001600160a01b03841603610e7f578361034284611889565b5163334bd91960e11b8152fd5b828434610279578160031936011261027957805182600a5482610eae826114f1565b958682526020968793600190600181169081600014610f665750600114610f28575b5050610ee2925095939295038261152b565b82519382859384528251928382860152825b848110610f1257505050828201840152601f01601f19168101030190f35b8181018301518882018801528795508201610ef4565b600a86528486209492508591905b818310610f4e575088945050820101610ee288610ed0565b85548884018501529485019487945091830191610f36565b915050610ee294925060ff191682840152151560051b820101869288610ed0565b8284346102795781600319360112610279576020906008549051908152f35b82843461027957816003193601126102795760209051600080516020611aff8339815191528152f35b5091346102795780600319360112610279576001600160a01b0392803590602480357f0000000000000000000000000000000000000000000000000000000000000000871633819003611238575083865260029260209284845260ff87892054161561120357858852848452826001888a2061010061ff0019825416178155015581888a60035416895192838092637f54868160e11b82525afa9384156111f95789918a95611143575b50811580611109576110f757069183518310156110e65750509280837fb0af079a2fe2f9cb55edfa571fc822d68f92e17d7d4df64bb98aeb067e02c8409899946003946110e09760051b010151968a525284868920918201550154169251928392836116aa565b0390a180f35b634e487b7160e01b89526032905287fd5b634e487b7160e01b8a5260128452828afd5b505050505050849550819392855252822001557f33e073f01a1bf838bf4806259ac82ec45d5b87e439f328d646e6d648f291a42e8180a180f35b915093503d808a833e611156818361152b565b810188828203126111f557815190868301516001600160401b03938482116111db570181601f820112156111f15780519384116111df578360051b908b51946111a18a84018761152b565b855288808601928201019283116111db5788809101915b8383106111cb5750505050909338611079565b82518152918101918991016111b8565b8c80fd5b634e487b7160e01b8c5260418652848cfd5b8b80fd5b8980fd5b88513d8b823e3d90fd5b865162461bcd60e51b81529182018490526010908201526f52657175657374206e6f74206d61646560801b6044820152606490fd5b855163073e64fd60e21b8152338186015280840191909152604490fd5b50913461027957806003193601126102795761126f6114db565b90336001600160a01b0383160361128c5750610342919235611a16565b5163334bd91960e11b81528390fd5b50823461030457806003193601126103045761034291356112bf600161032c6114db565b611820565b508234610304576020366003190112610304576112e261019e611642565b600954156112f257503560095580f35b906020606492519162461bcd60e51b8352820152601b60248201527a066656573206d7573742062652067726561746572207468616e203602c1b6044820152fd5b82843461027957816003193601126102795760209063ffffffff60075460a81c169051908152f35b8284346102795760203660031901126102795760ff8160209361137c6114c5565b600080516020611b1f8339815191528252600186528282206001600160a01b039091168252855220549151911615158152f35b5082903461030457602036600319011261030457816020936001923581528285522001549051908152f35b8234610994576020366003190112610994576101fc6113f76114c5565b61140261019e611642565b6115d5565b50829034610304576080366003190112610304576114236114c5565b5061142c6114db565b50606435906001600160401b0390818311610b705736602384011215610b705782013590811161076d57369101602401116102795751630a85bd0160e11b8152602090f35b91905034610304576020366003190112610304573563ffffffff60e01b81168091036103045760209250637965db0b60e01b81149081156114b4575b5015158152f35b6301ffc9a760e01b149050836114ad565b600435906001600160a01b038216820361067757565b602435906001600160a01b038216820361067757565b90600182811c92168015611521575b602083101461150b57565b634e487b7160e01b600052602260045260246000fd5b91607f1691611500565b90601f801991011681019081106001600160401b0382111761154c57604052565b634e487b7160e01b600052604160045260246000fd5b6001600160401b03811161154c57601f01601f191660200190565b1561158457565b60405162461bcd60e51b8152602060048201526024808201527f41757468436f6e74726f6c3a2043616c6c6572206973206e6f7420746865206f6044820152633bb732b960e11b6064820152608490fd5b336001600160a01b038216036115f1576115ee9061198e565b50565b60405163334bd91960e11b8152600490fd5b1561160a57565b60405162461bcd60e51b815260206004820152601060248201526f14185d5cd8589b194e881c185d5cd95960821b6044820152606490fd5b3360009081527fa6eef7e35abe7026729641147f7915573c7e97b47efa546f5f6e3230263bcb49602052604090205460ff1690565b90816020910312610677575180151581036106775790565b6001600160a01b039091168152602081019190915260400190565b9081526001600160a01b03909116602082015260400190565b80600052600160205260406000203360005260205260ff60406000205416156116e95750565b6044906040519063e2517d3f60e01b82523360048301526024820152fd5b6001600160a01b031660008181527fd52cfefb3f6fd7766669e08a03d2ceb3243383019e3a5fed2a519df30ee55b926020526040812054909190600080516020611b1f8339815191529060ff166117915780835260016020526040832082845260205260408320600160ff19825416179055600080516020611adf833981519152339380a4600190565b505090565b6001600160a01b031660008181527fe1a43b5771e30cf668ec0dc18c42d6714aff29cbb9ec47bd8eb0b81d4a8bcc146020526040812054909190600080516020611aff8339815191529060ff166117915780835260016020526040832082845260205260408320600160ff19825416179055600080516020611adf833981519152339380a4600190565b906000918083526001602052604083209160018060a01b03169182845260205260ff604084205416156000146117915780835260016020526040832082845260205260408320600160ff19825416179055600080516020611adf833981519152339380a4600190565b6001600160a01b031660008181527fe1a43b5771e30cf668ec0dc18c42d6714aff29cbb9ec47bd8eb0b81d4a8bcc146020526040812054909190600080516020611aff8339815191529060ff1615611791578083526001602052604083208284526020526040832060ff198154169055600080516020611b3f833981519152339380a4600190565b6001600160a01b031660008181527fa6eef7e35abe7026729641147f7915573c7e97b47efa546f5f6e3230263bcb49602052604081205490919060ff161561198a578180526001602052604082208183526020526040822060ff1981541690553391600080516020611b3f8339815191528180a4600190565b5090565b6001600160a01b031660008181527fd52cfefb3f6fd7766669e08a03d2ceb3243383019e3a5fed2a519df30ee55b926020526040812054909190600080516020611b1f8339815191529060ff1615611791578083526001602052604083208284526020526040832060ff198154169055600080516020611b3f833981519152339380a4600190565b906000918083526001602052604083209160018060a01b03169182845260205260ff604084205416600014611791578083526001602052604083208284526020526040832060ff198154169055600080516020611b3f833981519152339380a4600190565b90611aa25750805115611a9057805190602001fd5b604051630a12f52160e11b8152600490fd5b81511580611ad5575b611ab3575090565b604051639996b31560e01b81526001600160a01b039091166004820152602490fd5b50803b15611aab56fe2f8788117e7eff1d82e926ec794901d17c78024a50270940304540a733656f0dfcb9fcbfa83b897fb2d5cf4b58962164105c1e71489a37ef3ae0db3fdce576f6df8b4c520ffe197c5343c6f5aec59570151ef9a492f2c624fd45ddde6135ec42f6391f5c32d9c69d2a47ea670b442974b53935d1edc7fd64eb21e047a839171ba2646970667358221220c467a9fe9cd82181b76aaaa44ca8816be3f5d4a5edbecaeb87f9a040ecfa4f0064736f6c63430008190033",
  "linkReferences": {},
  "deployedLinkReferences": {}
}