{
  "_format": "hh-sol-artifact-1",
  "contractName": "RandomPack",
  "sourceName": "src/L2/RandomPack.sol",
  "abi": [
    {
      "inputs": [
        {
          "internalType": "address",
          "name": "coordinator",
          "type": "address"
        },
        {
          "internalType": "address",
          "name": "_ton",
          "type": "address"
        },
        {
          "internalType": "address",
          "name": "_gemFactory",
          "type": "address"
        },
        {
          "internalType": "address",
          "name": "_treasury",
          "type": "address"
        },
        {
          "internalType": "uint256",
          "name": "_randomPackFees",
          "type": "uint256"
        }
      ],
      "stateMutability": "nonpayable",
      "type": "constructor"
    },
    {
      "inputs": [],
      "name": "AccessControlBadConfirmation",
      "type": "error"
    },
    {
      "inputs": [
        {
          "internalType": "address",
          "name": "account",
          "type": "address"
        },
        {
          "internalType": "bytes32",
          "name": "neededRole",
          "type": "bytes32"
        }
      ],
      "name": "AccessControlUnauthorizedAccount",
      "type": "error"
    },
    {
      "inputs": [
        {
          "internalType": "address",
          "name": "target",
          "type": "address"
        }
      ],
      "name": "AddressEmptyCode",
      "type": "error"
    },
    {
      "inputs": [
        {
          "internalType": "address",
          "name": "account",
          "type": "address"
        }
      ],
      "name": "AddressInsufficientBalance",
      "type": "error"
    },
    {
      "inputs": [],
      "name": "FailedInnerCall",
      "type": "error"
    },
    {
      "inputs": [
        {
          "internalType": "address",
          "name": "have",
          "type": "address"
        },
        {
          "internalType": "address",
          "name": "want",
          "type": "address"
        }
      ],
      "name": "OnlyCoordinatorCanFulfill",
      "type": "error"
    },
    {
      "inputs": [],
      "name": "ReentrancyGuardReentrantCall",
      "type": "error"
    },
    {
      "inputs": [
        {
          "internalType": "address",
          "name": "token",
          "type": "address"
        }
      ],
      "name": "SafeERC20FailedOperation",
      "type": "error"
    },
    {
      "anonymous": false,
      "inputs": [],
      "name": "CommonGemMinted",
      "type": "event"
    },
    {
      "anonymous": false,
      "inputs": [],
      "name": "CommonGemToBeMinted",
      "type": "event"
    },
    {
      "anonymous": false,
      "inputs": [
        {
          "indexed": false,
          "internalType": "uint256",
          "name": "tokenId",
          "type": "uint256"
        },
        {
          "indexed": false,
          "internalType": "address",
          "name": "newOwner",
          "type": "address"
        }
      ],
      "name": "RandomGemToBeTransferred",
      "type": "event"
    },
    {
      "anonymous": false,
      "inputs": [
        {
          "indexed": false,
          "internalType": "uint256",
          "name": "tokenId",
          "type": "uint256"
        },
        {
          "indexed": false,
          "internalType": "address",
          "name": "newOwner",
          "type": "address"
        }
      ],
      "name": "RandomGemTransferred",
      "type": "event"
    },
    {
      "anonymous": false,
      "inputs": [
        {
          "indexed": true,
          "internalType": "bytes32",
          "name": "role",
          "type": "bytes32"
        },
        {
          "indexed": true,
          "internalType": "bytes32",
          "name": "previousAdminRole",
          "type": "bytes32"
        },
        {
          "indexed": true,
          "internalType": "bytes32",
          "name": "newAdminRole",
          "type": "bytes32"
        }
      ],
      "name": "RoleAdminChanged",
      "type": "event"
    },
    {
      "anonymous": false,
      "inputs": [
        {
          "indexed": true,
          "internalType": "bytes32",
          "name": "role",
          "type": "bytes32"
        },
        {
          "indexed": true,
          "internalType": "address",
          "name": "account",
          "type": "address"
        },
        {
          "indexed": true,
          "internalType": "address",
          "name": "sender",
          "type": "address"
        }
      ],
      "name": "RoleGranted",
      "type": "event"
    },
    {
      "anonymous": false,
      "inputs": [
        {
          "indexed": true,
          "internalType": "bytes32",
          "name": "role",
          "type": "bytes32"
        },
        {
          "indexed": true,
          "internalType": "address",
          "name": "account",
          "type": "address"
        },
        {
          "indexed": true,
          "internalType": "address",
          "name": "sender",
          "type": "address"
        }
      ],
      "name": "RoleRevoked",
      "type": "event"
    },
    {
      "inputs": [],
      "name": "ADMIN_ROLE",
      "outputs": [
        {
          "internalType": "bytes32",
          "name": "",
          "type": "bytes32"
        }
      ],
      "stateMutability": "view",
      "type": "function"
    },
    {
      "inputs": [],
      "name": "DEFAULT_ADMIN_ROLE",
      "outputs": [
        {
          "internalType": "bytes32",
          "name": "",
          "type": "bytes32"
        }
      ],
      "stateMutability": "view",
      "type": "function"
    },
    {
      "inputs": [],
      "name": "PAUSE_ROLE",
      "outputs": [
        {
          "internalType": "bytes32",
          "name": "",
          "type": "bytes32"
        }
      ],
      "stateMutability": "view",
      "type": "function"
    },
    {
      "inputs": [
        {
          "internalType": "address",
          "name": "account",
          "type": "address"
        }
      ],
      "name": "addAdmin",
      "outputs": [],
      "stateMutability": "nonpayable",
      "type": "function"
    },
    {
      "inputs": [
        {
          "internalType": "address",
          "name": "account",
          "type": "address"
        }
      ],
      "name": "addPauser",
      "outputs": [],
      "stateMutability": "nonpayable",
      "type": "function"
    },
    {
      "inputs": [],
      "name": "callbackGasLimit",
      "outputs": [
        {
          "internalType": "uint32",
          "name": "",
          "type": "uint32"
        }
      ],
      "stateMutability": "view",
      "type": "function"
    },
    {
      "inputs": [],
      "name": "getDrbCoordinatorAddress",
      "outputs": [
        {
          "internalType": "address",
          "name": "",
          "type": "address"
        }
      ],
      "stateMutability": "view",
      "type": "function"
    },
    {
      "inputs": [],
      "name": "getGemFactoryAddress",
      "outputs": [
        {
          "internalType": "address",
          "name": "",
          "type": "address"
        }
      ],
      "stateMutability": "view",
      "type": "function"
    },
    {
      "inputs": [
        {
          "internalType": "bytes32",
          "name": "role",
          "type": "bytes32"
        }
      ],
      "name": "getRoleAdmin",
      "outputs": [
        {
          "internalType": "bytes32",
          "name": "",
          "type": "bytes32"
        }
      ],
      "stateMutability": "view",
      "type": "function"
    },
    {
      "inputs": [],
      "name": "getTonAddress",
      "outputs": [
        {
          "internalType": "address",
          "name": "",
          "type": "address"
        }
      ],
      "stateMutability": "view",
      "type": "function"
    },
    {
      "inputs": [],
      "name": "getTreasuryAddress",
      "outputs": [
        {
          "internalType": "address",
          "name": "",
          "type": "address"
        }
      ],
      "stateMutability": "view",
      "type": "function"
    },
    {
      "inputs": [
        {
          "internalType": "bytes32",
          "name": "role",
          "type": "bytes32"
        },
        {
          "internalType": "address",
          "name": "account",
          "type": "address"
        }
      ],
      "name": "grantRole",
      "outputs": [],
      "stateMutability": "nonpayable",
      "type": "function"
    },
    {
      "inputs": [
        {
          "internalType": "bytes32",
          "name": "role",
          "type": "bytes32"
        },
        {
          "internalType": "address",
          "name": "account",
          "type": "address"
        }
      ],
      "name": "hasRole",
      "outputs": [
        {
          "internalType": "bool",
          "name": "",
          "type": "bool"
        }
      ],
      "stateMutability": "view",
      "type": "function"
    },
    {
      "inputs": [
        {
          "internalType": "address",
          "name": "account",
          "type": "address"
        }
      ],
      "name": "isAdmin",
      "outputs": [
        {
          "internalType": "bool",
          "name": "",
          "type": "bool"
        }
      ],
      "stateMutability": "view",
      "type": "function"
    },
    {
      "inputs": [],
      "name": "isOwner",
      "outputs": [
        {
          "internalType": "bool",
          "name": "",
          "type": "bool"
        }
      ],
      "stateMutability": "view",
      "type": "function"
    },
    {
      "inputs": [
        {
          "internalType": "address",
          "name": "",
          "type": "address"
        },
        {
          "internalType": "address",
          "name": "",
          "type": "address"
        },
        {
          "internalType": "uint256",
          "name": "",
          "type": "uint256"
        },
        {
          "internalType": "bytes",
          "name": "",
          "type": "bytes"
        }
      ],
      "name": "onERC721Received",
      "outputs": [
        {
          "internalType": "bytes4",
          "name": "",
          "type": "bytes4"
        }
      ],
      "stateMutability": "pure",
      "type": "function"
    },
    {
      "inputs": [],
      "name": "perfectCommonGemURI",
      "outputs": [
        {
          "internalType": "string",
          "name": "",
          "type": "string"
        }
      ],
      "stateMutability": "view",
      "type": "function"
    },
    {
      "inputs": [],
      "name": "randomPackFees",
      "outputs": [
        {
          "internalType": "uint256",
          "name": "",
          "type": "uint256"
        }
      ],
      "stateMutability": "view",
      "type": "function"
    },
    {
      "inputs": [
        {
          "internalType": "uint256",
          "name": "requestId",
          "type": "uint256"
        },
        {
          "internalType": "uint256",
          "name": "randomWord",
          "type": "uint256"
        }
      ],
      "name": "rawFulfillRandomWords",
      "outputs": [],
      "stateMutability": "nonpayable",
      "type": "function"
    },
    {
      "inputs": [
        {
          "internalType": "address",
          "name": "account",
          "type": "address"
        }
      ],
      "name": "removeAdmin",
      "outputs": [],
      "stateMutability": "nonpayable",
      "type": "function"
    },
    {
      "inputs": [
        {
          "internalType": "address",
          "name": "account",
          "type": "address"
        }
      ],
      "name": "removePauser",
      "outputs": [],
      "stateMutability": "nonpayable",
      "type": "function"
    },
    {
      "inputs": [],
      "name": "renounceOwnership",
      "outputs": [],
      "stateMutability": "nonpayable",
      "type": "function"
    },
    {
      "inputs": [
        {
          "internalType": "bytes32",
          "name": "role",
          "type": "bytes32"
        },
        {
          "internalType": "address",
          "name": "callerConfirmation",
          "type": "address"
        }
      ],
      "name": "renounceRole",
      "outputs": [],
      "stateMutability": "nonpayable",
      "type": "function"
    },
    {
      "inputs": [],
      "name": "requestCount",
      "outputs": [
        {
          "internalType": "uint256",
          "name": "",
          "type": "uint256"
        }
      ],
      "stateMutability": "view",
      "type": "function"
    },
    {
      "inputs": [],
      "name": "requestRandomGem",
      "outputs": [
        {
          "internalType": "uint256",
          "name": "",
          "type": "uint256"
        }
      ],
      "stateMutability": "payable",
      "type": "function"
    },
    {
      "inputs": [
        {
          "internalType": "bytes32",
          "name": "role",
          "type": "bytes32"
        },
        {
          "internalType": "address",
          "name": "account",
          "type": "address"
        }
      ],
      "name": "revokeRole",
      "outputs": [],
      "stateMutability": "nonpayable",
      "type": "function"
    },
    {
      "inputs": [
        {
          "internalType": "uint256",
          "name": "",
          "type": "uint256"
        }
      ],
      "name": "s_requests",
      "outputs": [
        {
          "internalType": "bool",
          "name": "requested",
          "type": "bool"
        },
        {
          "internalType": "bool",
          "name": "fulfilled",
          "type": "bool"
        },
        {
          "internalType": "uint256",
          "name": "randomWord",
          "type": "uint256"
        },
        {
          "internalType": "uint256",
          "name": "chosenTokenId",
          "type": "uint256"
        },
        {
          "internalType": "address",
          "name": "requester",
          "type": "address"
        }
      ],
      "stateMutability": "view",
      "type": "function"
    },
    {
      "inputs": [
        {
          "internalType": "uint32",
          "name": "_callbackGasLimit",
          "type": "uint32"
        }
      ],
      "name": "setCallbackGasLimit",
      "outputs": [],
      "stateMutability": "nonpayable",
      "type": "function"
    },
    {
      "inputs": [
        {
          "internalType": "address",
          "name": "_gemFactory",
          "type": "address"
        }
      ],
      "name": "setGemFactory",
      "outputs": [],
      "stateMutability": "nonpayable",
      "type": "function"
    },
    {
      "inputs": [
        {
          "internalType": "string",
          "name": "_tokenURI",
          "type": "string"
        }
      ],
      "name": "setPerfectCommonGemURI",
      "outputs": [],
      "stateMutability": "nonpayable",
      "type": "function"
    },
    {
      "inputs": [
        {
          "internalType": "uint256",
          "name": "_randomPackFees",
          "type": "uint256"
        }
      ],
      "name": "setRandomPackFees",
      "outputs": [],
      "stateMutability": "nonpayable",
      "type": "function"
    },
    {
      "inputs": [
        {
          "internalType": "address",
          "name": "_treasury",
          "type": "address"
        }
      ],
      "name": "setTreasury",
      "outputs": [],
      "stateMutability": "nonpayable",
      "type": "function"
    },
    {
      "inputs": [
        {
          "internalType": "bytes4",
          "name": "interfaceId",
          "type": "bytes4"
        }
      ],
      "name": "supportsInterface",
      "outputs": [
        {
          "internalType": "bool",
          "name": "",
          "type": "bool"
        }
      ],
      "stateMutability": "view",
      "type": "function"
    },
    {
      "inputs": [
        {
          "internalType": "address",
          "name": "newAdmin",
          "type": "address"
        }
      ],
      "name": "transferAdmin",
      "outputs": [],
      "stateMutability": "nonpayable",
      "type": "function"
    },
    {
      "inputs": [
        {
          "internalType": "address",
          "name": "newAdmin",
          "type": "address"
        }
      ],
      "name": "transferOwnership",
      "outputs": [],
      "stateMutability": "nonpayable",
      "type": "function"
    }
  ],
  "bytecode": "0x60a03461018157601f611d4638819003918201601f19168301916001600160401b038311848410176101865780849260a094604052833981010312610181576100478161019c565b906100546020820161019c565b906100616040820161019c565b9060806100706060830161019c565b910151916001946000946001865560018060a01b0380809316948560805260ff60a01b19600654166006556100a4336101b0565b508160018060a01b0319951685600354161760035516836004541617600455169060055416176005556006549160085561249f60ae1b916bffffffffffffff00000000ff60a01b16171760065560095490600182811c92168015610177575b602083101461016357601f8211610139575b6000600955604051611b0490816102428239608051818181610b1d0152610cee0152f35b60098152601f60208220920160051c8201915b8281106101595750610115565b818155830161014c565b634e487b7160e01b81526022600452602490fd5b91607f1691610103565b600080fd5b634e487b7160e01b600052604160045260246000fd5b51906001600160a01b038216820361018157565b6001600160a01b031660008181527fa6eef7e35abe7026729641147f7915573c7e97b47efa546f5f6e3230263bcb49602052604081205490919060ff1661023d5781805260016020526040822081835260205260408220600160ff1982541617905533917f2f8788117e7eff1d82e926ec794901d17c78024a50270940304540a733656f0d8180a4600190565b509056fe608060409080825260048036101561001657600080fd5b600091823560e01c90816301ffc9a7146113f657508063150b7a02146113885780631785f53c1461135b578063224a11a114611332578063248a9ca31461130757806324d7806c146112b357806324f746971461128b57806325b5b3b21461121c5780632f2ff15d146111f357806336568abe146111ad57806337ed11db14610ccb578063389ed26714610ca25780633db8df98146109e05780635badbe4c146109c15780636985ba47146108c65780636ae638d01461089d5780636b2c0f551461084e5780636ecd19cb146106bf5780637048027514610671578063715018a61461064c57806375829def1461062657806375b238fc146105fd57806382dc1ec41461053c5780638f32d59b1461051657806391d14854146104ce5780639d541be2146104a5578063a168fa8914610441578063a217fddf14610426578063a4eb718c146103d5578063bafc3301146103b6578063d547741f14610378578063e00246041461034b578063e6147518146102f4578063f0f44260146102a95763f2fde38b146101a557600080fd5b346102a55760203660031901126102a5576101be61144a565b906101cf6101ca61158d565b611507565b6101da6101ca61158d565b6001600160a01b038216801561026757331461022b575061021960018394600080516020611a8f83398151915261021e95528160205285200154611600565b611644565b506102283361155f565b80f35b606490602085519162461bcd60e51b8352820152601660248201527520b1b1b2b9b9b4b136329d1039b0b6b29030b236b4b760511b6044820152fd5b845162461bcd60e51b8152602081840152601860248201527741636365737369626c653a207a65726f206164647265737360401b6044820152606490fd5b5080fd5b50346102a55760203660031901126102a5576102c361144a565b6102ce6101ca61158d565b6001600160a01b03166102e28115156115c2565b81546001600160a01b03191617905580f35b82346103485760203660031901126103485761030e61144a565b6103196101ca61158d565b600354906001600160a01b039061033382841615156115c2565b6001600160a01b031990921691161760035580f35b80fd5b508290346103745782600319360112610374575490516001600160a01b03909116815260209150f35b8280fd5b5082346103745780600319360112610374576103b291356103ad600161039c611465565b938387528160205286200154611600565b611953565b5080f35b8284346102a557816003193601126102a5576020906008549051908152f35b50346102a55760203660031901126102a5573563ffffffff811681036102a5576104006101ca61158d565b6006805463ffffffff60a81b191660a89290921b63ffffffff60a81b1691909117905580f35b8284346102a557816003193601126102a55751908152602090f35b508290346103745760203660031901126103745760a09282913581526002602052209081549160018101546002820154916003600180881b03910154169260ff8151958181161515875260081c161515602086015284015260608301526080820152f35b8284346102a557816003193601126102a55760035490516001600160a01b039091168152602090f35b508290346103745781600319360112610374578160209360ff926104f0611465565b90358252600186528282206001600160a01b039091168252855220549151911615158152f35b8284346102a557816003193601126102a55760209061053361158d565b90519015158152f35b50346102a55760203660031901126102a55761055661144a565b90600080516020611a8f8339815191528352600160205283832033845260205260ff848420541680156105ef575b156105b757506105b260018394600080516020611a6f8339815191526103b295528160205285200154611600565b6116d3565b606490602085519162461bcd60e51b835282015260126024820152713737ba1027bbb732b91037b91020b236b4b760711b6044820152fd5b506105f861158d565b610584565b8284346102a557816003193601126102a55760209051600080516020611a8f8339815191528152f35b50346102a55760203660031901126102a55761064061144a565b906101da6101ca61158d565b82346103485780600319360112610348576106686101ca61158d565b6103b23361184e565b8284346102a55760203660031901126102a5576103b290610219600161069561144a565b926106a16101ca61158d565b600080516020611a8f83398151915286528160205285200154611600565b50346102a557602080600319360112610374576001600160401b0391803583811161084a573660238201121561084a578082013590610709610700836114ec565b975197886114b5565b8187523660248383010111610846578186926024869301838a0137870101526107336101ca61158d565b8451928311610833575061074860095461147b565b601f81116107ef575b5080601f831160011461078c57508293829392610781575b50508160011b916000199060031b1c19161760095580f35b015190503880610769565b90601f19831694600985528285209285905b8782106107d75750508360019596106107be575b505050811b0160095580f35b015160001960f88460031b161c191690553880806107b2565b8060018596829496860151815501950193019061079e565b60098452818420601f840160051c810191838510610829575b601f0160051c01905b81811061081e5750610751565b848155600101610811565b9091508190610808565b634e487b7160e01b845260419052602483fd5b8580fd5b8480fd5b508290346103745760203660031901126103745761086a61144a565b916108766101ca61158d565b336001600160a01b0384160361089057836103b2846117c6565b5163334bd91960e11b8152fd5b8284346102a557816003193601126102a55760055490516001600160a01b039091168152602090f35b8284346102a557816003193601126102a557805182600954826108e88261147b565b9586825260209687936001906001811690816000146109a05750600114610962575b505061091c92509593929503826114b5565b82519382859384528251928382860152825b84811061094c57505050828201840152601f01601f19168101030190f35b818101830151888201880152879550820161092e565b600986528486209492508591905b81831061098857508894505082010161091c8861090a565b85548884018501529485019487945091830191610970565b91505061091c94925060ff191682840152151560051b82010186928861090a565b8284346102a557816003193601126102a5576020906007549051908152f35b5091816003193601126102a55760ff60065460a01c16610c6d576002825414610c5e57600282553315610c245760018060a01b039182600554169260085494835194602096878701906323b872dd60e01b825233602489015230604489015260648801526064875260a08701966001600160401b039781811089821117610c1157875251610a9d918691829182865af13d15610c09573d90610a81826114ec565b91610a8e895193846114b5565b82523d878b84013e5b836119eb565b805190888215159283610bf0575b505050610bda575063ffffffff918260065460a81c1692855196606088019088821090821117610bc7579188949391606493885286895285890194878652888a019081528851998a9687956309160b1560e11b875261ffff8093511690870152511660248501525116604483015234907f0000000000000000000000000000000000000000000000000000000000000000165af1928315610bbb578193610b8b575b5082815260028452818120805460ff19166001908117825560039190910180546001600160a01b031916331790556007805482019055905551908152f35b9092508381813d8311610bb4575b610ba381836114b5565b810103126103745751916001610b4d565b503d610b99565b509051903d90823e3d90fd5b634e487b7160e01b865260418452602486fd5b8451635274afe760e01b81529182015260249150fd5b610c0093508201810191016119b8565b15388881610aab565b606090610a97565b634e487b7160e01b875260418552602487fd5b5162461bcd60e51b815260208184015260156024820152741859191c995cdcc80c081b9bdd08185b1b1bddd959605a1b6044820152606490fd5b51633ee5aeb560e01b81529050fd5b5162461bcd60e51b8152602081840152601060248201526f14185d5cd8589b194e881c185d5cd95960821b6044820152606490fd5b8284346102a557816003193601126102a55760209051600080516020611a6f8339815191528152f35b5091346102a557806003193601126102a55760248035906001600160a01b0385357f0000000000000000000000000000000000000000000000000000000000000000821633819003611190575080865260029360209385855260ff9160ff888a2054161561115b578990848a52878752888a20610100948561ff0019835416178255826001809301558b88600354168c5195868092637f54868160e11b82525afa958615611151578c948d97611090575b5084159283610e8a57505050610e785706908251821015610e67575097848092610dde999a60051b01015190838a52868352878a209082888301558a8660038184541694015416918a519b8c958694859363048dbcef60e41b855284016119d0565b03925af1958615610e5d577f5ea50d72ed96185eb6f31884978fae6836ea30ba583e3fb7c32b66135514723c96610e30575b50865282825260038487209384015493015416908351928352820152a180f35b610e4f90843d8611610e56575b610e4781836114b5565b8101906119b8565b5038610e10565b503d610e3d565b85513d89823e3d90fd5b634e487b7160e01b895260328a5288fd5b634e487b7160e01b8a5260128b52828afd5b9350935093979a9b87969a999550809791505416928851898101906001600160401b03918181108382111761107e578b528d81528d8d8201528a519160808301908382109082111761107e57928e94919a95928e97948d528281528288820152828d8201528260608201528c519b8c9763912b431b60e01b8952878d8a0152880187905b8b821061105257505050606487019086915b8c831061102a5750505050509183916101249360e4840152816101048401525af1938415611020579087949392918994610fe7575b508390610f86978a52808652868a2001558154169087855180978195829463048dbcef60e41b8452339084016119d0565b03925af1908115610fde5750610fc0575b50507fdd20b2dff2d53ef41435ad0074aea6e1ce693777fcc9ea8e76c76a8f3607dd218180a180f35b81610fd692903d10610e5657610e4781836114b5565b503880610f97565b513d85823e3d90fd5b8581969295503d8311611019575b610fff81836114b5565b8101031261101557925186939092610f86610f55565b8780fd5b503d610ff5565b85513d8a823e3d90fd5b899295985084975083829594979a92511681520192019201928d96938f9592938c9794610f20565b859850829593969950848b939b9295989b511681520193019101928f9592918f989592948d9895610f0e565b634e487b7160e01b8f5260418a528a8ffd5b919293945095503d808d833e6110a681836114b5565b81018b8282031261114d578151918a8101516001600160401b039182821161113257019082601f83011215611149578151908111611136578d51969594939291600582901b916110f8838f018a6114b5565b88528c80890192820101928311611132578c809101915b8383106111225750505050939538610d7c565b82518152918101918d910161110f565b8f80fd5b8f8f60418a92634e487b7160e01b835252fd5b8e80fd5b8c80fd5b8b513d8e823e3d90fd5b875162461bcd60e51b8152808b018790526010818401526f52657175657374206e6f74206d61646560801b6044820152606490fd5b855163073e64fd60e21b815233818a015280850191909152604490fd5b5091346102a557806003193601126102a5576111c7611465565b90336001600160a01b038316036111e457506103b2919235611953565b5163334bd91960e11b81528390fd5b5082346103745780600319360112610374576103b29135611217600161039c611465565b61175d565b5082346103745760203660031901126103745761123a6101ca61158d565b6008541561124a57503560085580f35b906020606492519162461bcd60e51b8352820152601b60248201527a066656573206d7573742062652067726561746572207468616e203602c1b6044820152fd5b8284346102a557816003193601126102a55760209063ffffffff60065460a81c169051908152f35b8284346102a55760203660031901126102a55760ff816020936112d461144a565b600080516020611a8f8339815191528252600186528282206001600160a01b039091168252855220549151911615158152f35b5082903461037457602036600319011261037457816020936001923581528285522001549051908152f35b8284346102a557816003193601126102a55760065490516001600160a01b039091168152602090f35b82346103485760203660031901126103485761022861137861144a565b6113836101ca61158d565b61155f565b50829034610374576080366003190112610374576113a461144a565b506113ad611465565b50606435906001600160401b039081831161084a573660238401121561084a578201359081116113f257369101602401116102a55751630a85bd0160e11b8152602090f35b8380fd5b91905034610374576020366003190112610374573563ffffffff60e01b81168091036103745760209250637965db0b60e01b8114908115611439575b5015158152f35b6301ffc9a760e01b14905083611432565b600435906001600160a01b038216820361146057565b600080fd5b602435906001600160a01b038216820361146057565b90600182811c921680156114ab575b602083101461149557565b634e487b7160e01b600052602260045260246000fd5b91607f169161148a565b90601f801991011681019081106001600160401b038211176114d657604052565b634e487b7160e01b600052604160045260246000fd5b6001600160401b0381116114d657601f01601f191660200190565b1561150e57565b60405162461bcd60e51b8152602060048201526024808201527f41757468436f6e74726f6c3a2043616c6c6572206973206e6f7420746865206f6044820152633bb732b960e11b6064820152608490fd5b336001600160a01b0382160361157b57611578906118cb565b50565b60405163334bd91960e11b8152600490fd5b3360009081527fa6eef7e35abe7026729641147f7915573c7e97b47efa546f5f6e3230263bcb49602052604090205460ff1690565b156115c957565b60405162461bcd60e51b815260206004820152600f60248201526e496e76616c6964206164647265737360881b6044820152606490fd5b80600052600160205260406000203360005260205260ff60406000205416156116265750565b6044906040519063e2517d3f60e01b82523360048301526024820152fd5b6001600160a01b031660008181527fd52cfefb3f6fd7766669e08a03d2ceb3243383019e3a5fed2a519df30ee55b926020526040812054909190600080516020611a8f8339815191529060ff166116ce5780835260016020526040832082845260205260408320600160ff19825416179055600080516020611a4f833981519152339380a4600190565b505090565b6001600160a01b031660008181527fe1a43b5771e30cf668ec0dc18c42d6714aff29cbb9ec47bd8eb0b81d4a8bcc146020526040812054909190600080516020611a6f8339815191529060ff166116ce5780835260016020526040832082845260205260408320600160ff19825416179055600080516020611a4f833981519152339380a4600190565b906000918083526001602052604083209160018060a01b03169182845260205260ff604084205416156000146116ce5780835260016020526040832082845260205260408320600160ff19825416179055600080516020611a4f833981519152339380a4600190565b6001600160a01b031660008181527fe1a43b5771e30cf668ec0dc18c42d6714aff29cbb9ec47bd8eb0b81d4a8bcc146020526040812054909190600080516020611a6f8339815191529060ff16156116ce578083526001602052604083208284526020526040832060ff198154169055600080516020611aaf833981519152339380a4600190565b6001600160a01b031660008181527fa6eef7e35abe7026729641147f7915573c7e97b47efa546f5f6e3230263bcb49602052604081205490919060ff16156118c7578180526001602052604082208183526020526040822060ff1981541690553391600080516020611aaf8339815191528180a4600190565b5090565b6001600160a01b031660008181527fd52cfefb3f6fd7766669e08a03d2ceb3243383019e3a5fed2a519df30ee55b926020526040812054909190600080516020611a8f8339815191529060ff16156116ce578083526001602052604083208284526020526040832060ff198154169055600080516020611aaf833981519152339380a4600190565b906000918083526001602052604083209160018060a01b03169182845260205260ff6040842054166000146116ce578083526001602052604083208284526020526040832060ff198154169055600080516020611aaf833981519152339380a4600190565b90816020910312611460575180151581036114605790565b6001600160a01b039091168152602081019190915260400190565b90611a125750805115611a0057805190602001fd5b604051630a12f52160e11b8152600490fd5b81511580611a45575b611a23575090565b604051639996b31560e01b81526001600160a01b039091166004820152602490fd5b50803b15611a1b56fe2f8788117e7eff1d82e926ec794901d17c78024a50270940304540a733656f0dfcb9fcbfa83b897fb2d5cf4b58962164105c1e71489a37ef3ae0db3fdce576f6df8b4c520ffe197c5343c6f5aec59570151ef9a492f2c624fd45ddde6135ec42f6391f5c32d9c69d2a47ea670b442974b53935d1edc7fd64eb21e047a839171ba26469706673582212201811f54ee4c7bd75a8c5be29e6545701e6c87e8d7f3f034a6067162f975a077464736f6c63430008190033",
  "linkReferences": {},
  "deployedLinkReferences": {}
}