{
  "_format": "hh-sol-artifact-1",
  "contractName": "RandomPack",
  "sourceName": "src/L2/RandomPack.sol",
  "abi": [
    {
      "inputs": [],
      "name": "AccessControlBadConfirmation",
      "type": "error"
    },
    {
      "inputs": [
        {
          "internalType": "address",
          "name": "account",
          "type": "address"
        },
        {
          "internalType": "bytes32",
          "name": "neededRole",
          "type": "bytes32"
        }
      ],
      "name": "AccessControlUnauthorizedAccount",
      "type": "error"
    },
    {
      "inputs": [
        {
          "internalType": "address",
          "name": "target",
          "type": "address"
        }
      ],
      "name": "AddressEmptyCode",
      "type": "error"
    },
    {
      "inputs": [
        {
          "internalType": "address",
          "name": "account",
          "type": "address"
        }
      ],
      "name": "AddressInsufficientBalance",
      "type": "error"
    },
    {
      "inputs": [],
      "name": "FailedInnerCall",
      "type": "error"
    },
    {
      "inputs": [],
      "name": "FailedToSendEthBack",
      "type": "error"
    },
    {
      "inputs": [],
      "name": "InvalidAddress",
      "type": "error"
    },
    {
      "inputs": [
        {
          "internalType": "address",
          "name": "have",
          "type": "address"
        },
        {
          "internalType": "address",
          "name": "want",
          "type": "address"
        }
      ],
      "name": "OnlyCoordinatorCanFulfill",
      "type": "error"
    },
    {
      "inputs": [],
      "name": "RandomPackFeesEqualToZero",
      "type": "error"
    },
    {
      "inputs": [],
      "name": "ReentrancyGuardReentrantCall",
      "type": "error"
    },
    {
      "inputs": [],
      "name": "RequestNotMade",
      "type": "error"
    },
    {
      "inputs": [
        {
          "internalType": "address",
          "name": "token",
          "type": "address"
        }
      ],
      "name": "SafeERC20FailedOperation",
      "type": "error"
    },
    {
      "inputs": [],
      "name": "SameAdmin",
      "type": "error"
    },
    {
      "inputs": [],
      "name": "ZeroAddress",
      "type": "error"
    },
    {
      "anonymous": false,
      "inputs": [
        {
          "indexed": false,
          "internalType": "uint256",
          "name": "_callbackGasLimit",
          "type": "uint256"
        }
      ],
      "name": "CallBackGasLimitUpdated",
      "type": "event"
    },
    {
      "anonymous": false,
      "inputs": [],
      "name": "CommonGemMinted",
      "type": "event"
    },
    {
      "anonymous": false,
      "inputs": [],
      "name": "CommonGemToBeMinted",
      "type": "event"
    },
    {
      "anonymous": false,
      "inputs": [
        {
          "indexed": false,
          "internalType": "uint256",
          "name": "amount",
          "type": "uint256"
        }
      ],
      "name": "EthSentBack",
      "type": "event"
    },
    {
      "anonymous": false,
      "inputs": [
        {
          "indexed": false,
          "internalType": "address",
          "name": "gemFactory",
          "type": "address"
        }
      ],
      "name": "GemFactoryAddressUpdated",
      "type": "event"
    },
    {
      "anonymous": false,
      "inputs": [
        {
          "indexed": false,
          "internalType": "string",
          "name": "_tokenURI",
          "type": "string"
        }
      ],
      "name": "PerfectCommonGemURIUpdated",
      "type": "event"
    },
    {
      "anonymous": false,
      "inputs": [
        {
          "indexed": false,
          "internalType": "address",
          "name": "requestor",
          "type": "address"
        }
      ],
      "name": "RandomGemRequested",
      "type": "event"
    },
    {
      "anonymous": false,
      "inputs": [
        {
          "indexed": false,
          "internalType": "uint256",
          "name": "tokenId",
          "type": "uint256"
        },
        {
          "indexed": false,
          "internalType": "address",
          "name": "newOwner",
          "type": "address"
        }
      ],
      "name": "RandomGemToBeTransferred",
      "type": "event"
    },
    {
      "anonymous": false,
      "inputs": [
        {
          "indexed": false,
          "internalType": "uint256",
          "name": "tokenId",
          "type": "uint256"
        },
        {
          "indexed": false,
          "internalType": "address",
          "name": "newOwner",
          "type": "address"
        }
      ],
      "name": "RandomGemTransferred",
      "type": "event"
    },
    {
      "anonymous": false,
      "inputs": [
        {
          "indexed": false,
          "internalType": "uint256",
          "name": "randomPackFees",
          "type": "uint256"
        }
      ],
      "name": "RandomPackFeesUpdated",
      "type": "event"
    },
    {
      "anonymous": false,
      "inputs": [
        {
          "indexed": true,
          "internalType": "bytes32",
          "name": "role",
          "type": "bytes32"
        },
        {
          "indexed": true,
          "internalType": "bytes32",
          "name": "previousAdminRole",
          "type": "bytes32"
        },
        {
          "indexed": true,
          "internalType": "bytes32",
          "name": "newAdminRole",
          "type": "bytes32"
        }
      ],
      "name": "RoleAdminChanged",
      "type": "event"
    },
    {
      "anonymous": false,
      "inputs": [
        {
          "indexed": true,
          "internalType": "bytes32",
          "name": "role",
          "type": "bytes32"
        },
        {
          "indexed": true,
          "internalType": "address",
          "name": "account",
          "type": "address"
        },
        {
          "indexed": true,
          "internalType": "address",
          "name": "sender",
          "type": "address"
        }
      ],
      "name": "RoleGranted",
      "type": "event"
    },
    {
      "anonymous": false,
      "inputs": [
        {
          "indexed": true,
          "internalType": "bytes32",
          "name": "role",
          "type": "bytes32"
        },
        {
          "indexed": true,
          "internalType": "address",
          "name": "account",
          "type": "address"
        },
        {
          "indexed": true,
          "internalType": "address",
          "name": "sender",
          "type": "address"
        }
      ],
      "name": "RoleRevoked",
      "type": "event"
    },
    {
      "anonymous": false,
      "inputs": [
        {
          "indexed": false,
          "internalType": "address",
          "name": "treasury",
          "type": "address"
        }
      ],
      "name": "TreasuryAddressUpdated",
      "type": "event"
    },
    {
      "inputs": [],
      "name": "ADMIN_ROLE",
      "outputs": [
        {
          "internalType": "bytes32",
          "name": "",
          "type": "bytes32"
        }
      ],
      "stateMutability": "view",
      "type": "function"
    },
    {
      "inputs": [],
      "name": "DEFAULT_ADMIN_ROLE",
      "outputs": [
        {
          "internalType": "bytes32",
          "name": "",
          "type": "bytes32"
        }
      ],
      "stateMutability": "view",
      "type": "function"
    },
    {
      "inputs": [],
      "name": "PAUSE_ROLE",
      "outputs": [
        {
          "internalType": "bytes32",
          "name": "",
          "type": "bytes32"
        }
      ],
      "stateMutability": "view",
      "type": "function"
    },
    {
      "inputs": [
        {
          "internalType": "address",
          "name": "account",
          "type": "address"
        }
      ],
      "name": "addAdmin",
      "outputs": [],
      "stateMutability": "nonpayable",
      "type": "function"
    },
    {
      "inputs": [
        {
          "internalType": "address",
          "name": "account",
          "type": "address"
        }
      ],
      "name": "addPauser",
      "outputs": [],
      "stateMutability": "nonpayable",
      "type": "function"
    },
    {
      "inputs": [
        {
          "internalType": "address",
          "name": "",
          "type": "address"
        }
      ],
      "name": "aliveImplementation",
      "outputs": [
        {
          "internalType": "bool",
          "name": "",
          "type": "bool"
        }
      ],
      "stateMutability": "view",
      "type": "function"
    },
    {
      "inputs": [],
      "name": "getCallbackGasLimit",
      "outputs": [
        {
          "internalType": "uint32",
          "name": "",
          "type": "uint32"
        }
      ],
      "stateMutability": "view",
      "type": "function"
    },
    {
      "inputs": [],
      "name": "getGemFactoryAddress",
      "outputs": [
        {
          "internalType": "address",
          "name": "",
          "type": "address"
        }
      ],
      "stateMutability": "view",
      "type": "function"
    },
    {
      "inputs": [],
      "name": "getPerfectCommonGemURI",
      "outputs": [
        {
          "internalType": "string",
          "name": "",
          "type": "string"
        }
      ],
      "stateMutability": "view",
      "type": "function"
    },
    {
      "inputs": [],
      "name": "getRandomPackFees",
      "outputs": [
        {
          "internalType": "uint256",
          "name": "",
          "type": "uint256"
        }
      ],
      "stateMutability": "view",
      "type": "function"
    },
    {
      "inputs": [],
      "name": "getRequestCount",
      "outputs": [
        {
          "internalType": "uint256",
          "name": "",
          "type": "uint256"
        }
      ],
      "stateMutability": "view",
      "type": "function"
    },
    {
      "inputs": [
        {
          "internalType": "bytes32",
          "name": "role",
          "type": "bytes32"
        }
      ],
      "name": "getRoleAdmin",
      "outputs": [
        {
          "internalType": "bytes32",
          "name": "",
          "type": "bytes32"
        }
      ],
      "stateMutability": "view",
      "type": "function"
    },
    {
      "inputs": [],
      "name": "getTonAddress",
      "outputs": [
        {
          "internalType": "address",
          "name": "",
          "type": "address"
        }
      ],
      "stateMutability": "view",
      "type": "function"
    },
    {
      "inputs": [],
      "name": "getTreasuryAddress",
      "outputs": [
        {
          "internalType": "address",
          "name": "",
          "type": "address"
        }
      ],
      "stateMutability": "view",
      "type": "function"
    },
    {
      "inputs": [
        {
          "internalType": "bytes32",
          "name": "role",
          "type": "bytes32"
        },
        {
          "internalType": "address",
          "name": "account",
          "type": "address"
        }
      ],
      "name": "grantRole",
      "outputs": [],
      "stateMutability": "nonpayable",
      "type": "function"
    },
    {
      "inputs": [
        {
          "internalType": "bytes32",
          "name": "role",
          "type": "bytes32"
        },
        {
          "internalType": "address",
          "name": "account",
          "type": "address"
        }
      ],
      "name": "hasRole",
      "outputs": [
        {
          "internalType": "bool",
          "name": "",
          "type": "bool"
        }
      ],
      "stateMutability": "view",
      "type": "function"
    },
    {
      "inputs": [
        {
          "internalType": "address",
          "name": "_coordinator",
          "type": "address"
        },
        {
          "internalType": "address",
          "name": "_ton",
          "type": "address"
        },
        {
          "internalType": "address",
          "name": "_gemFactory",
          "type": "address"
        },
        {
          "internalType": "address",
          "name": "_treasury",
          "type": "address"
        },
        {
          "internalType": "uint256",
          "name": "_randomPackFees",
          "type": "uint256"
        }
      ],
      "name": "initialize",
      "outputs": [],
      "stateMutability": "nonpayable",
      "type": "function"
    },
    {
      "inputs": [
        {
          "internalType": "address",
          "name": "account",
          "type": "address"
        }
      ],
      "name": "isAdmin",
      "outputs": [
        {
          "internalType": "bool",
          "name": "",
          "type": "bool"
        }
      ],
      "stateMutability": "view",
      "type": "function"
    },
    {
      "inputs": [],
      "name": "isOwner",
      "outputs": [
        {
          "internalType": "bool",
          "name": "",
          "type": "bool"
        }
      ],
      "stateMutability": "view",
      "type": "function"
    },
    {
      "inputs": [
        {
          "internalType": "address",
          "name": "",
          "type": "address"
        },
        {
          "internalType": "address",
          "name": "",
          "type": "address"
        },
        {
          "internalType": "uint256",
          "name": "",
          "type": "uint256"
        },
        {
          "internalType": "bytes",
          "name": "",
          "type": "bytes"
        }
      ],
      "name": "onERC721Received",
      "outputs": [
        {
          "internalType": "bytes4",
          "name": "",
          "type": "bytes4"
        }
      ],
      "stateMutability": "pure",
      "type": "function"
    },
    {
      "inputs": [],
      "name": "pause",
      "outputs": [],
      "stateMutability": "nonpayable",
      "type": "function"
    },
    {
      "inputs": [],
      "name": "pauseProxy",
      "outputs": [
        {
          "internalType": "bool",
          "name": "",
          "type": "bool"
        }
      ],
      "stateMutability": "view",
      "type": "function"
    },
    {
      "inputs": [
        {
          "internalType": "uint256",
          "name": "",
          "type": "uint256"
        }
      ],
      "name": "proxyImplementation",
      "outputs": [
        {
          "internalType": "address",
          "name": "",
          "type": "address"
        }
      ],
      "stateMutability": "view",
      "type": "function"
    },
    {
      "inputs": [
        {
          "internalType": "uint256",
          "name": "requestId",
          "type": "uint256"
        },
        {
          "internalType": "uint256",
          "name": "randomWord",
          "type": "uint256"
        }
      ],
      "name": "rawFulfillRandomWords",
      "outputs": [],
      "stateMutability": "nonpayable",
      "type": "function"
    },
    {
      "inputs": [
        {
          "internalType": "address",
          "name": "account",
          "type": "address"
        }
      ],
      "name": "removeAdmin",
      "outputs": [],
      "stateMutability": "nonpayable",
      "type": "function"
    },
    {
      "inputs": [
        {
          "internalType": "address",
          "name": "account",
          "type": "address"
        }
      ],
      "name": "removePauser",
      "outputs": [],
      "stateMutability": "nonpayable",
      "type": "function"
    },
    {
      "inputs": [],
      "name": "renounceOwnership",
      "outputs": [],
      "stateMutability": "nonpayable",
      "type": "function"
    },
    {
      "inputs": [
        {
          "internalType": "bytes32",
          "name": "role",
          "type": "bytes32"
        },
        {
          "internalType": "address",
          "name": "callerConfirmation",
          "type": "address"
        }
      ],
      "name": "renounceRole",
      "outputs": [],
      "stateMutability": "nonpayable",
      "type": "function"
    },
    {
      "inputs": [],
      "name": "requestRandomGem",
      "outputs": [
        {
          "internalType": "uint256",
          "name": "",
          "type": "uint256"
        }
      ],
      "stateMutability": "payable",
      "type": "function"
    },
    {
      "inputs": [
        {
          "internalType": "bytes32",
          "name": "role",
          "type": "bytes32"
        },
        {
          "internalType": "address",
          "name": "account",
          "type": "address"
        }
      ],
      "name": "revokeRole",
      "outputs": [],
      "stateMutability": "nonpayable",
      "type": "function"
    },
    {
      "inputs": [
        {
          "internalType": "uint256",
          "name": "",
          "type": "uint256"
        }
      ],
      "name": "s_requests",
      "outputs": [
        {
          "internalType": "uint256",
          "name": "randomWord",
          "type": "uint256"
        },
        {
          "internalType": "uint256",
          "name": "chosenTokenId",
          "type": "uint256"
        },
        {
          "internalType": "address",
          "name": "requester",
          "type": "address"
        },
        {
          "internalType": "bool",
          "name": "requested",
          "type": "bool"
        },
        {
          "internalType": "bool",
          "name": "fulfilled",
          "type": "bool"
        }
      ],
      "stateMutability": "view",
      "type": "function"
    },
    {
      "inputs": [
        {
          "internalType": "bytes4",
          "name": "",
          "type": "bytes4"
        }
      ],
      "name": "selectorImplementation",
      "outputs": [
        {
          "internalType": "address",
          "name": "",
          "type": "address"
        }
      ],
      "stateMutability": "view",
      "type": "function"
    },
    {
      "inputs": [
        {
          "internalType": "uint32",
          "name": "_callbackGasLimit",
          "type": "uint32"
        }
      ],
      "name": "setCallbackGasLimit",
      "outputs": [],
      "stateMutability": "nonpayable",
      "type": "function"
    },
    {
      "inputs": [
        {
          "internalType": "address",
          "name": "_gemFactory",
          "type": "address"
        }
      ],
      "name": "setGemFactory",
      "outputs": [],
      "stateMutability": "nonpayable",
      "type": "function"
    },
    {
      "inputs": [
        {
          "internalType": "string",
          "name": "_tokenURI",
          "type": "string"
        }
      ],
      "name": "setPerfectCommonGemURI",
      "outputs": [],
      "stateMutability": "nonpayable",
      "type": "function"
    },
    {
      "inputs": [
        {
          "internalType": "uint256",
          "name": "_randomPackFees",
          "type": "uint256"
        }
      ],
      "name": "setRandomPackFees",
      "outputs": [],
      "stateMutability": "nonpayable",
      "type": "function"
    },
    {
      "inputs": [
        {
          "internalType": "address",
          "name": "_treasury",
          "type": "address"
        }
      ],
      "name": "setTreasury",
      "outputs": [],
      "stateMutability": "nonpayable",
      "type": "function"
    },
    {
      "inputs": [
        {
          "internalType": "bytes4",
          "name": "interfaceId",
          "type": "bytes4"
        }
      ],
      "name": "supportsInterface",
      "outputs": [
        {
          "internalType": "bool",
          "name": "",
          "type": "bool"
        }
      ],
      "stateMutability": "view",
      "type": "function"
    },
    {
      "inputs": [
        {
          "internalType": "address",
          "name": "newAdmin",
          "type": "address"
        }
      ],
      "name": "transferAdmin",
      "outputs": [],
      "stateMutability": "nonpayable",
      "type": "function"
    },
    {
      "inputs": [
        {
          "internalType": "address",
          "name": "newAdmin",
          "type": "address"
        }
      ],
      "name": "transferOwnership",
      "outputs": [],
      "stateMutability": "nonpayable",
      "type": "function"
    },
    {
      "inputs": [],
      "name": "unpause",
      "outputs": [],
      "stateMutability": "nonpayable",
      "type": "function"
    }
  ],
  "bytecode": "0x6080806040523460435760016004556301ffc9a760e01b6000526005602052604060002060ff1990600182825416179055600f5416600f55611f3090816100498239f35b600080fdfe608060409080825260048036101561001657600080fd5b600092833560e01c92836301ffc9a7146116b157508263150b7a021461164857826315c01616146115945782631785f53c14611567578263184fa84f14611548578263248a9ca31461151d57826324d7806c146114c957826325b5b3b21461145f5782632f2ff15d1461143557826336568abe146113ef57826337ed11db14610f43578263389ed26714610f1a5782633db8df9814610c095782633f4ba83a14610bd35782633fad183414610bb457826350d2a27614610b70578263550d01a314610b3257826363a8fd8914610b105782636ae638d014610ae75782636b2c0f5514610a995782636ecd19cb146108b85782637048027514610869578263715018a61461084457826375829def1461081c57826375b238fc146107f357826382dc1ec4146107305782638456cb59146106f75782638f32d59b146106d157826391d148541461068a5782639d541be214610661578263a168fa8914610601578263a217fddf146105e6578263a4eb718c1461056d578263b911135f1461053a578263d547741f146104fa578263de8be8e7146104d2578263e0024604146104a5578263e614751814610419578263f0f4426014610394578263f2fde38b146102e957505063f7013ef6146101e957600080fd5b346102e65760a03660031901126102e6576102026116ea565b61020a611705565b6001600160a01b0390604435828116908190036102e257606435908382168092036102de5761023833611ae6565b508360018060a01b0319951685600754161760075584600954161760095583600a541617600a551690600b541617600b55608435600d55630927c00064ffffffff0019600f541617600f5561028e600e546117d1565b601f81116102a0575b506000600e5580f35b600e82526102d890601f0160051c7fbb7b4a454dc3493923482f07822329ed19e8244eff582cc204f8554c3620c3fd90810190611923565b38610297565b8580fd5b8480fd5b80fd5b90915034610390576020366003190112610390576103056116ea565b9161031661031161193a565b61180b565b61032161031161193a565b6001600160a01b0383168015610381573314610373575090610361600161036693600080516020611e9b8339815191528652600660205285200154611989565b6119cd565b5061037033611863565b80f35b90516309cd70b960e21b8152fd5b50905163d92e233d60e01b8152fd5b8280fd5b90915034610390576020366003190112610390576103b06116ea565b6103bb61031161193a565b6001600160a01b031691821561040b5750600a80546001600160a01b03191683179055519081527fb6a5e89655cf506139085f051af608195ed056f8dc550b180a1c38d401e2b6c490602090a180f35b905163e6c4247b60e01b8152fd5b90915034610390576020366003190112610390576104356116ea565b9161044161031161193a565b600954926001600160a01b0391828516156104975750166001600160a01b0319929092168217600955519081527fed7acc23c47775012c7b3a370974b91aefab1849cacf173b5ea54273abb4815690602090a180f35b835163e6c4247b60e01b8152fd5b8390346104ce57816003193601126104ce57600a5490516001600160a01b039091168152602090f35b5080fd5b8390346104ce57816003193601126104ce5760209063ffffffff600f5460081c169051908152f35b909150346103905780600319360112610390576105369135610531600161051f611705565b93838752600660205286200154611989565b611d33565b5080f35b9150346103905760203660031901126103905735825260016020908152918190205490516001600160a01b039091168152f35b915034610390576020366003190112610390573563ffffffff81168082036105e2577fe26fa4acf522c01381834acc8213105df00a52674031c6311f5dc24bd608819f926020926105bf61031161193a565b64ffffffff00600f549160081b169064ffffffff00191617600f5551908152a180f35b8380fd5b8390346104ce57816003193601126104ce5751908152602090f35b915034610390576020366003190112610390578160a09360ff92358152600860205220805492600260018301549201549181519485526020850152600180861b038216908401528181851c161515606084015260a81c1615156080820152f35b8390346104ce57816003193601126104ce5760095490516001600160a01b039091168152602090f35b9150346103905781600319360112610390578160209360ff926106ab611705565b90358252600686528282206001600160a01b039091168252855220549151911615158152f35b8390346104ce57816003193601126104ce576020906106ee61193a565b90519015158152f35b83346102e657806003193601126102e65761071361031161193a565b6001600f5461072560ff821615611891565b60ff191617600f5580f35b8382346104ce5760203660031901126104ce5761074b6116ea565b90600080516020611e9b8339815191528352600660205283832033845260205260ff848420541680156107e5575b156107ad57506107a860018394600080516020611e7b8339815191526105369552600660205285200154611989565b611a5c565b606490602085519162461bcd60e51b835282015260126024820152713737ba1027bbb732b91037b91020b236b4b760711b6044820152fd5b506107ee61193a565b610779565b8390346104ce57816003193601126104ce5760209051600080516020611e9b8339815191528152f35b90915034610390576020366003190112610390576108386116ea565b9161032161031161193a565b83346102e657806003193601126102e65761086061031161193a565b61053633611c44565b8390346104ce5760203660031901126104ce5761053690610361600161088d6116ea565b9261089961031161193a565b600080516020611e9b8339815191528652600660205285200154611989565b8382346104ce5760209081600319360112610390578035916001600160401b03918284116102e257366023850112156102e257838101356108f8816117b6565b9461090588519687611795565b8186523660248383010111610a95578187926024869301838901378601015261092f61031161193a565b8351928311610a825750610944600e546117d1565b601f8111610a48575b5080601f83116001146109bc575093816109ab939285967f5c9db415e672f6d0f9a26180f0ff083c406f4c7aa95aec2c0e9536794035a4d896916109b1575b508160011b916000199060031b1c191617600e555b519182918261171b565b0390a180f35b90508301518761098c565b90601f198316600e86528286209286905b828210610a30575050927f5c9db415e672f6d0f9a26180f0ff083c406f4c7aa95aec2c0e9536794035a4d8959692600192826109ab979610610a17575b5050811b01600e556109a1565b85015160001960f88460031b161c191690558780610a0a565b80600185968294968a015181550195019301906109cd565b610a7290600e8652828620601f850160051c810191848610610a78575b601f0160051c0190611923565b8561094d565b9091508190610a65565b634e487b7160e01b855260419052602484fd5b8680fd5b91503461039057602036600319011261039057610ab46116ea565b91610ac061031161193a565b336001600160a01b03841603610ada578361053684611bbc565b5163334bd91960e11b8152fd5b8390346104ce57816003193601126104ce57600b5490516001600160a01b039091168152602090f35b8390346104ce57816003193601126104ce5760ff602092541690519015158152f35b8390346104ce5760203660031901126104ce5760209160ff9082906001600160a01b03610b5d6116ea565b1681526002855220541690519015158152f35b915034610390576020366003190112610390573563ffffffff60e01b811680910361039057825260036020908152918190205490516001600160a01b039091168152f35b8390346104ce57816003193601126104ce57602090600c549051908152f35b83346102e657806003193601126102e657610bef61031161193a565b600f54610bff60ff821615611891565b60ff1916600f5580f35b9091508260031936011261039057610c2660ff600f541615611891565b6002825414610f0d57600282553315610f0057600b54600d5482516323b872dd60e01b60208083019182523360248401523060448401526064808401949094529282526001600160a01b03938416969295939160a081016001600160401b03811182821017610eed57865251610cad9184918291828b5af1610ca66118f3565b9088611df7565b805190868215159283610ed4575b505050610ebd57610d0b94955063ffffffff600f5460081c16906007541690868551610ce681611764565b8481528482820152828782015286518098819263a6c278f360e01b8352888301611dcb565b0381855afa958615610eb357908792918497610e7c575b5086939291610d5d91875190610d3782611764565b85825285858301528882015287519889809481936309160b1560e11b83528a8301611dcb565b03925af1948515610e70578195610e41575b508481526008865283812060020180546001600160a81b0319163317600160a01b179055600c80546001019055348210610dd8575b50506001907f591af11a018220de9c440841d69e035063106d38933fa5e481d17ac1d14c4958858451338152a15551908152f35b808080610de585346118d0565b335af1610df06118f3565b5015610e3257907f27468d49151596d3863ccb02e3911b3146a62533facd0765451ba556bb4fd9c885610e25600194346118d0565b8551908152a19038610da4565b509051631e53f7e560e11b8152fd5b9094508581813d8311610e69575b610e598183611795565b810103126102e257519338610d6f565b503d610e4f565b508351903d90823e3d90fd5b919650929181813d8111610eac575b610e958183611795565b810103126104ce5751949091869190610d5d610d22565b503d610e8b565b85513d85823e3d90fd5b8351635274afe760e01b8152808401879052602490fd5b610ee49350820181019101611d98565b15388681610cbb565b634e487b7160e01b855260418652602485fd5b5163e6c4247b60e01b8152fd5b51633ee5aeb560e01b8152fd5b8390346104ce57816003193601126104ce5760209051600080516020611e7b8339815191528152f35b8390346104ce57806003193601126104ce576007546001600160a01b03906024908535908235908416338190036113d25750818652602092600884528760ff9260029360ff60028a8c20015460a01c16156113c257858a5260088752888a2060028101805460ff60a81b1916600160a81b1790558290556009548951637f54868160e11b8152938b9185919082908c165afa9485156113b8578a938b96611301575b50831591826110f85750506110e657069082518210156110d5575096838092611049989960051b0101519083895260088352868920908260018301558987600281600a5416940154169189519a8b958694859363048dbcef60e41b85528401611db0565b03925af19485156110cb577f5ea50d72ed96185eb6f31884978fae6836ea30ba583e3fb7c32b66135514723c9561109e575b50855260088152828520916002600184015493015416908351928352820152a180f35b6110bd90833d85116110c4575b6110b58183611795565b810190611d98565b508661107b565b503d6110ab565b84513d88823e3d90fd5b634e487b7160e01b88526032895287fd5b634e487b7160e01b895260128a528289fd5b93509396999a9598979450505082600a541690865192878401906001600160401b0391858110838211176112ef5789528b85528b8b8601528851916080830190838210908211176112ef57928c928c95929699948b526001968782528787830152878c8301528760608301528b519a8b9663912b431b60e01b8852868c8901528701908987925b8484106112c657505050505060648501908785925b8b84106112a257505050505061012491839161010060e4840152816101048401525af193841561129857908794939291899461125f575b5083906111fe978a5260088652868a200155600a54169087855180978195829463048dbcef60e41b845233908401611db0565b03925af19081156112565750611238575b50507fdd20b2dff2d53ef41435ad0074aea6e1ce693777fcc9ea8e76c76a8f3607dd218180a180f35b8161124e92903d106110c4576110b58183611795565b50818061120f565b513d85823e3d90fd5b8581969295503d8311611291575b6112778183611795565b8101031261128d579251869390926111fe6111cb565b8780fd5b503d61126d565b85513d8a823e3d90fd5b909380975088939650829598925116815201920192019288938d93878e9794611194565b909396999295809950828493969950511681520192019201928d96938f959293898d989561117f565b634e487b7160e01b8d5260418852888dfd5b935094503d808b853e6113148185611795565b830189848203126113b457835190888501516001600160401b0395868211611399570181601f820112156113b057805195861161139d578560051b908c519661135f8c840189611795565b87528a80880192820101928311611399578a809101915b838310611389575050505092948c610fe5565b82518152918101918b9101611376565b8d80fd5b50634e487b7160e01b8c5260418d52858cfd5b8c80fd5b8a80fd5b89513d8c823e3d90fd5b88516392b8197960e01b81528390fd5b855163073e64fd60e21b815233818a015280850191909152604490fd5b8390346104ce57806003193601126104ce57611409611705565b90336001600160a01b038316036114265750610536919235611d33565b5163334bd91960e11b81528390fd5b90915034610390578060031936011261039057610536913561145a600161051f611705565b611b53565b909150346103905760203660031901126103905781359161148161031161193a565b600d54156114bb5750816020917fa9ba7fa833bd01c7d078c99360f9c0764c1de898c3300802f43fd0ec1dee717c93600d5551908152a180f35b905163173ecfb760e31b8152fd5b8390346104ce5760203660031901126104ce5760ff816020936114ea6116ea565b600080516020611e9b8339815191528252600686528282206001600160a01b039091168252855220549151911615158152f35b9150346103905760203660031901126103905781602093600192358152600685522001549051908152f35b8390346104ce57816003193601126104ce57602090600d549051908152f35b83346102e65760203660031901126102e6576103706115846116ea565b61158f61031161193a565b611863565b8390346104ce57816003193601126104ce5780519082600e546115b6816117d1565b9081855260209260019160018116908160001461162657506001146115eb575b6115e786866109a1828b0383611795565b0390f35b929550600e83528583205b82841061161357505050826115e7946109a19282010194866115d6565b80548685018801529286019281016115f6565b60ff191687860152505050151560051b83010192506109a1826115e7866115d6565b915034610390576080366003190112610390576116636116ea565b5061166c611705565b50606435906001600160401b03908183116102e257366023840112156102e2578201359081116105e257369101602401116104ce5751630a85bd0160e11b8152602090f35b925050346103905760203660031901126103905735916001600160e01b0319831683036102e657506116e460209261195d565b15158152f35b600435906001600160a01b038216820361170057565b600080fd5b602435906001600160a01b038216820361170057565b6020808252825181830181905290939260005b82811061175057505060409293506000838284010152601f8019910116010190565b81810186015184820160400152850161172e565b606081019081106001600160401b0382111761177f57604052565b634e487b7160e01b600052604160045260246000fd5b90601f801991011681019081106001600160401b0382111761177f57604052565b6001600160401b03811161177f57601f01601f191660200190565b90600182811c92168015611801575b60208310146117eb57565b634e487b7160e01b600052602260045260246000fd5b91607f16916117e0565b1561181257565b60405162461bcd60e51b8152602060048201526024808201527f41757468436f6e74726f6c3a2043616c6c6572206973206e6f7420746865206f6044820152633bb732b960e11b6064820152608490fd5b336001600160a01b0382160361187f5761187c90611cab565b50565b60405163334bd91960e11b8152600490fd5b1561189857565b60405162461bcd60e51b815260206004820152601060248201526f14185d5cd8589b194e881c185d5cd95960821b6044820152606490fd5b919082039182116118dd57565b634e487b7160e01b600052601160045260246000fd5b3d1561191e573d90611904826117b6565b916119126040519384611795565b82523d6000602084013e565b606090565b81811061192e575050565b60008155600101611923565b336000908152600080516020611edb833981519152602052604090205460ff1690565b6001600160e01b03198116637965db0b60e01b1490811561197c575090565b611986915061195d565b90565b80600052600660205260406000203360005260205260ff60406000205416156119af5750565b6044906040519063e2517d3f60e01b82523360048301526024820152fd5b6001600160a01b031660008181527f31f4bc5980931cfff8fcc0887a354f492c853dee1983bdef4d9cb3e8a5ff876e6020526040812054909190600080516020611e9b8339815191529060ff16611a575780835260066020526040832082845260205260408320600160ff19825416179055600080516020611e5b833981519152339380a4600190565b505090565b6001600160a01b031660008181527f1f8dd7b22d148f841c713baeaaa6d87f64519d51ae5db1519f67dc96623cc8d86020526040812054909190600080516020611e7b8339815191529060ff16611a575780835260066020526040832082845260205260408320600160ff19825416179055600080516020611e5b833981519152339380a4600190565b6001600160a01b03166000818152600080516020611edb833981519152602052604081205490919060ff16611b4f5781805260066020526040822081835260205260408220600160ff198254161790553391600080516020611e5b8339815191528180a4600190565b5090565b906000918083526006602052604083209160018060a01b03169182845260205260ff60408420541615600014611a575780835260066020526040832082845260205260408320600160ff19825416179055600080516020611e5b833981519152339380a4600190565b6001600160a01b031660008181527f1f8dd7b22d148f841c713baeaaa6d87f64519d51ae5db1519f67dc96623cc8d86020526040812054909190600080516020611e7b8339815191529060ff1615611a57578083526006602052604083208284526020526040832060ff198154169055600080516020611ebb833981519152339380a4600190565b6001600160a01b03166000818152600080516020611edb833981519152602052604081205490919060ff1615611b4f578180526006602052604082208183526020526040822060ff1981541690553391600080516020611ebb8339815191528180a4600190565b6001600160a01b031660008181527f31f4bc5980931cfff8fcc0887a354f492c853dee1983bdef4d9cb3e8a5ff876e6020526040812054909190600080516020611e9b8339815191529060ff1615611a57578083526006602052604083208284526020526040832060ff198154169055600080516020611ebb833981519152339380a4600190565b906000918083526006602052604083209160018060a01b03169182845260205260ff604084205416600014611a57578083526006602052604083208284526020526040832060ff198154169055600080516020611ebb833981519152339380a4600190565b90816020910312611700575180151581036117005790565b6001600160a01b039091168152602081019190915260400190565b919091604063ffffffff81606084019561ffff8082511686526020820151166020860152015116910152565b90611e1e5750805115611e0c57805190602001fd5b604051630a12f52160e11b8152600490fd5b81511580611e51575b611e2f575090565b604051639996b31560e01b81526001600160a01b039091166004820152602490fd5b50803b15611e2756fe2f8788117e7eff1d82e926ec794901d17c78024a50270940304540a733656f0dfcb9fcbfa83b897fb2d5cf4b58962164105c1e71489a37ef3ae0db3fdce576f6df8b4c520ffe197c5343c6f5aec59570151ef9a492f2c624fd45ddde6135ec42f6391f5c32d9c69d2a47ea670b442974b53935d1edc7fd64eb21e047a839171b54cdd369e4e8a8515e52ca72ec816c2101831ad1f18bf44102ed171459c9b4f8a26469706673582212204d72930a209239a41c8a193a54ab9a4faf46ab63bfbc500647eb7af2c9b170a964736f6c63430008190033",
  "linkReferences": {},
  "deployedLinkReferences": {}
}