{
  "_format": "hh-sol-artifact-1",
  "contractName": "RandomPack",
  "sourceName": "src/L2/RandomPack.sol",
  "abi": [
    {
      "inputs": [],
      "name": "AccessControlBadConfirmation",
      "type": "error"
    },
    {
      "inputs": [
        {
          "internalType": "address",
          "name": "account",
          "type": "address"
        },
        {
          "internalType": "bytes32",
          "name": "neededRole",
          "type": "bytes32"
        }
      ],
      "name": "AccessControlUnauthorizedAccount",
      "type": "error"
    },
    {
      "inputs": [
        {
          "internalType": "address",
          "name": "target",
          "type": "address"
        }
      ],
      "name": "AddressEmptyCode",
      "type": "error"
    },
    {
      "inputs": [
        {
          "internalType": "address",
          "name": "account",
          "type": "address"
        }
      ],
      "name": "AddressInsufficientBalance",
      "type": "error"
    },
    {
      "inputs": [],
      "name": "FailedInnerCall",
      "type": "error"
    },
    {
      "inputs": [],
      "name": "FailedToSendEthBack",
      "type": "error"
    },
    {
      "inputs": [],
      "name": "InvalidAddress",
      "type": "error"
    },
    {
      "inputs": [
        {
          "internalType": "address",
          "name": "have",
          "type": "address"
        },
        {
          "internalType": "address",
          "name": "want",
          "type": "address"
        }
      ],
      "name": "OnlyCoordinatorCanFulfill",
      "type": "error"
    },
    {
      "inputs": [],
      "name": "RandomPackFeesEqualToZero",
      "type": "error"
    },
    {
      "inputs": [],
      "name": "ReentrancyGuardReentrantCall",
      "type": "error"
    },
    {
      "inputs": [],
      "name": "RequestNotMade",
      "type": "error"
    },
    {
      "inputs": [
        {
          "internalType": "address",
          "name": "token",
          "type": "address"
        }
      ],
      "name": "SafeERC20FailedOperation",
      "type": "error"
    },
    {
      "inputs": [],
      "name": "SameAdmin",
      "type": "error"
    },
    {
      "inputs": [],
      "name": "ZeroAddress",
      "type": "error"
    },
    {
      "anonymous": false,
      "inputs": [
        {
          "indexed": false,
          "internalType": "uint256",
          "name": "_callbackGasLimit",
          "type": "uint256"
        }
      ],
      "name": "CallBackGasLimitUpdated",
      "type": "event"
    },
    {
      "anonymous": false,
      "inputs": [],
      "name": "CommonGemMinted",
      "type": "event"
    },
    {
      "anonymous": false,
      "inputs": [],
      "name": "CommonGemToBeMinted",
      "type": "event"
    },
    {
      "anonymous": false,
      "inputs": [
        {
          "indexed": false,
          "internalType": "uint256",
          "name": "amount",
          "type": "uint256"
        }
      ],
      "name": "EthSentBack",
      "type": "event"
    },
    {
      "anonymous": false,
      "inputs": [
        {
          "indexed": false,
          "internalType": "address",
          "name": "gemFactory",
          "type": "address"
        }
      ],
      "name": "GemFactoryAddressUpdated",
      "type": "event"
    },
    {
      "anonymous": false,
      "inputs": [
        {
          "indexed": false,
          "internalType": "string",
          "name": "_tokenURI",
          "type": "string"
        }
      ],
      "name": "PerfectCommonGemURIUpdated",
      "type": "event"
    },
    {
      "anonymous": false,
      "inputs": [
        {
          "indexed": false,
          "internalType": "address",
          "name": "requestor",
          "type": "address"
        }
      ],
      "name": "RandomGemRequested",
      "type": "event"
    },
    {
      "anonymous": false,
      "inputs": [
        {
          "indexed": false,
          "internalType": "uint256",
          "name": "tokenId",
          "type": "uint256"
        },
        {
          "indexed": false,
          "internalType": "address",
          "name": "newOwner",
          "type": "address"
        }
      ],
      "name": "RandomGemToBeTransferred",
      "type": "event"
    },
    {
      "anonymous": false,
      "inputs": [
        {
          "indexed": false,
          "internalType": "uint256",
          "name": "tokenId",
          "type": "uint256"
        },
        {
          "indexed": false,
          "internalType": "address",
          "name": "newOwner",
          "type": "address"
        }
      ],
      "name": "RandomGemTransferred",
      "type": "event"
    },
    {
      "anonymous": false,
      "inputs": [
        {
          "indexed": false,
          "internalType": "uint256",
          "name": "randomPackFees",
          "type": "uint256"
        }
      ],
      "name": "RandomPackFeesUpdated",
      "type": "event"
    },
    {
      "anonymous": false,
      "inputs": [
        {
          "indexed": true,
          "internalType": "bytes32",
          "name": "role",
          "type": "bytes32"
        },
        {
          "indexed": true,
          "internalType": "bytes32",
          "name": "previousAdminRole",
          "type": "bytes32"
        },
        {
          "indexed": true,
          "internalType": "bytes32",
          "name": "newAdminRole",
          "type": "bytes32"
        }
      ],
      "name": "RoleAdminChanged",
      "type": "event"
    },
    {
      "anonymous": false,
      "inputs": [
        {
          "indexed": true,
          "internalType": "bytes32",
          "name": "role",
          "type": "bytes32"
        },
        {
          "indexed": true,
          "internalType": "address",
          "name": "account",
          "type": "address"
        },
        {
          "indexed": true,
          "internalType": "address",
          "name": "sender",
          "type": "address"
        }
      ],
      "name": "RoleGranted",
      "type": "event"
    },
    {
      "anonymous": false,
      "inputs": [
        {
          "indexed": true,
          "internalType": "bytes32",
          "name": "role",
          "type": "bytes32"
        },
        {
          "indexed": true,
          "internalType": "address",
          "name": "account",
          "type": "address"
        },
        {
          "indexed": true,
          "internalType": "address",
          "name": "sender",
          "type": "address"
        }
      ],
      "name": "RoleRevoked",
      "type": "event"
    },
    {
      "anonymous": false,
      "inputs": [
        {
          "indexed": false,
          "internalType": "address",
          "name": "treasury",
          "type": "address"
        }
      ],
      "name": "TreasuryAddressUpdated",
      "type": "event"
    },
    {
      "inputs": [],
      "name": "ADMIN_ROLE",
      "outputs": [
        {
          "internalType": "bytes32",
          "name": "",
          "type": "bytes32"
        }
      ],
      "stateMutability": "view",
      "type": "function"
    },
    {
      "inputs": [],
      "name": "DEFAULT_ADMIN_ROLE",
      "outputs": [
        {
          "internalType": "bytes32",
          "name": "",
          "type": "bytes32"
        }
      ],
      "stateMutability": "view",
      "type": "function"
    },
    {
      "inputs": [],
      "name": "PAUSE_ROLE",
      "outputs": [
        {
          "internalType": "bytes32",
          "name": "",
          "type": "bytes32"
        }
      ],
      "stateMutability": "view",
      "type": "function"
    },
    {
      "inputs": [
        {
          "internalType": "address",
          "name": "account",
          "type": "address"
        }
      ],
      "name": "addAdmin",
      "outputs": [],
      "stateMutability": "nonpayable",
      "type": "function"
    },
    {
      "inputs": [
        {
          "internalType": "address",
          "name": "account",
          "type": "address"
        }
      ],
      "name": "addPauser",
      "outputs": [],
      "stateMutability": "nonpayable",
      "type": "function"
    },
    {
      "inputs": [
        {
          "internalType": "address",
          "name": "",
          "type": "address"
        }
      ],
      "name": "aliveImplementation",
      "outputs": [
        {
          "internalType": "bool",
          "name": "",
          "type": "bool"
        }
      ],
      "stateMutability": "view",
      "type": "function"
    },
    {
      "inputs": [],
      "name": "getCallbackGasLimit",
      "outputs": [
        {
          "internalType": "uint32",
          "name": "",
          "type": "uint32"
        }
      ],
      "stateMutability": "view",
      "type": "function"
    },
    {
      "inputs": [],
      "name": "getGemFactoryAddress",
      "outputs": [
        {
          "internalType": "address",
          "name": "",
          "type": "address"
        }
      ],
      "stateMutability": "view",
      "type": "function"
    },
    {
      "inputs": [],
      "name": "getPerfectCommonGemURI",
      "outputs": [
        {
          "internalType": "string",
          "name": "",
          "type": "string"
        }
      ],
      "stateMutability": "view",
      "type": "function"
    },
    {
      "inputs": [],
      "name": "getRandomPackFees",
      "outputs": [
        {
          "internalType": "uint256",
          "name": "",
          "type": "uint256"
        }
      ],
      "stateMutability": "view",
      "type": "function"
    },
    {
      "inputs": [],
      "name": "getRequestCount",
      "outputs": [
        {
          "internalType": "uint256",
          "name": "",
          "type": "uint256"
        }
      ],
      "stateMutability": "view",
      "type": "function"
    },
    {
      "inputs": [
        {
          "internalType": "bytes32",
          "name": "role",
          "type": "bytes32"
        }
      ],
      "name": "getRoleAdmin",
      "outputs": [
        {
          "internalType": "bytes32",
          "name": "",
          "type": "bytes32"
        }
      ],
      "stateMutability": "view",
      "type": "function"
    },
    {
      "inputs": [],
      "name": "getTonAddress",
      "outputs": [
        {
          "internalType": "address",
          "name": "",
          "type": "address"
        }
      ],
      "stateMutability": "view",
      "type": "function"
    },
    {
      "inputs": [],
      "name": "getTreasuryAddress",
      "outputs": [
        {
          "internalType": "address",
          "name": "",
          "type": "address"
        }
      ],
      "stateMutability": "view",
      "type": "function"
    },
    {
      "inputs": [
        {
          "internalType": "bytes32",
          "name": "role",
          "type": "bytes32"
        },
        {
          "internalType": "address",
          "name": "account",
          "type": "address"
        }
      ],
      "name": "grantRole",
      "outputs": [],
      "stateMutability": "nonpayable",
      "type": "function"
    },
    {
      "inputs": [
        {
          "internalType": "bytes32",
          "name": "role",
          "type": "bytes32"
        },
        {
          "internalType": "address",
          "name": "account",
          "type": "address"
        }
      ],
      "name": "hasRole",
      "outputs": [
        {
          "internalType": "bool",
          "name": "",
          "type": "bool"
        }
      ],
      "stateMutability": "view",
      "type": "function"
    },
    {
      "inputs": [
        {
          "internalType": "address",
          "name": "_coordinator",
          "type": "address"
        },
        {
          "internalType": "address",
          "name": "_ton",
          "type": "address"
        },
        {
          "internalType": "address",
          "name": "_gemFactory",
          "type": "address"
        },
        {
          "internalType": "address",
          "name": "_treasury",
          "type": "address"
        },
        {
          "internalType": "uint256",
          "name": "_randomPackFees",
          "type": "uint256"
        }
      ],
      "name": "initialize",
      "outputs": [],
      "stateMutability": "nonpayable",
      "type": "function"
    },
    {
      "inputs": [
        {
          "internalType": "address",
          "name": "account",
          "type": "address"
        }
      ],
      "name": "isAdmin",
      "outputs": [
        {
          "internalType": "bool",
          "name": "",
          "type": "bool"
        }
      ],
      "stateMutability": "view",
      "type": "function"
    },
    {
      "inputs": [],
      "name": "isOwner",
      "outputs": [
        {
          "internalType": "bool",
          "name": "",
          "type": "bool"
        }
      ],
      "stateMutability": "view",
      "type": "function"
    },
    {
      "inputs": [
        {
          "internalType": "address",
          "name": "",
          "type": "address"
        },
        {
          "internalType": "address",
          "name": "",
          "type": "address"
        },
        {
          "internalType": "uint256",
          "name": "",
          "type": "uint256"
        },
        {
          "internalType": "bytes",
          "name": "",
          "type": "bytes"
        }
      ],
      "name": "onERC721Received",
      "outputs": [
        {
          "internalType": "bytes4",
          "name": "",
          "type": "bytes4"
        }
      ],
      "stateMutability": "pure",
      "type": "function"
    },
    {
      "inputs": [],
      "name": "pause",
      "outputs": [],
      "stateMutability": "nonpayable",
      "type": "function"
    },
    {
      "inputs": [],
      "name": "pauseProxy",
      "outputs": [
        {
          "internalType": "bool",
          "name": "",
          "type": "bool"
        }
      ],
      "stateMutability": "view",
      "type": "function"
    },
    {
      "inputs": [
        {
          "internalType": "uint256",
          "name": "",
          "type": "uint256"
        }
      ],
      "name": "proxyImplementation",
      "outputs": [
        {
          "internalType": "address",
          "name": "",
          "type": "address"
        }
      ],
      "stateMutability": "view",
      "type": "function"
    },
    {
      "inputs": [
        {
          "internalType": "uint256",
          "name": "requestId",
          "type": "uint256"
        },
        {
          "internalType": "uint256",
          "name": "randomWord",
          "type": "uint256"
        }
      ],
      "name": "rawFulfillRandomWords",
      "outputs": [],
      "stateMutability": "nonpayable",
      "type": "function"
    },
    {
      "inputs": [
        {
          "internalType": "address",
          "name": "account",
          "type": "address"
        }
      ],
      "name": "removeAdmin",
      "outputs": [],
      "stateMutability": "nonpayable",
      "type": "function"
    },
    {
      "inputs": [
        {
          "internalType": "address",
          "name": "account",
          "type": "address"
        }
      ],
      "name": "removePauser",
      "outputs": [],
      "stateMutability": "nonpayable",
      "type": "function"
    },
    {
      "inputs": [],
      "name": "renounceOwnership",
      "outputs": [],
      "stateMutability": "nonpayable",
      "type": "function"
    },
    {
      "inputs": [
        {
          "internalType": "bytes32",
          "name": "role",
          "type": "bytes32"
        },
        {
          "internalType": "address",
          "name": "callerConfirmation",
          "type": "address"
        }
      ],
      "name": "renounceRole",
      "outputs": [],
      "stateMutability": "nonpayable",
      "type": "function"
    },
    {
      "inputs": [],
      "name": "requestRandomGem",
      "outputs": [
        {
          "internalType": "uint256",
          "name": "",
          "type": "uint256"
        }
      ],
      "stateMutability": "payable",
      "type": "function"
    },
    {
      "inputs": [
        {
          "internalType": "bytes32",
          "name": "role",
          "type": "bytes32"
        },
        {
          "internalType": "address",
          "name": "account",
          "type": "address"
        }
      ],
      "name": "revokeRole",
      "outputs": [],
      "stateMutability": "nonpayable",
      "type": "function"
    },
    {
      "inputs": [
        {
          "internalType": "uint256",
          "name": "",
          "type": "uint256"
        }
      ],
      "name": "s_requests",
      "outputs": [
        {
          "internalType": "bool",
          "name": "requested",
          "type": "bool"
        },
        {
          "internalType": "bool",
          "name": "fulfilled",
          "type": "bool"
        },
        {
          "internalType": "uint256",
          "name": "randomWord",
          "type": "uint256"
        },
        {
          "internalType": "uint256",
          "name": "chosenTokenId",
          "type": "uint256"
        },
        {
          "internalType": "address",
          "name": "requester",
          "type": "address"
        }
      ],
      "stateMutability": "view",
      "type": "function"
    },
    {
      "inputs": [
        {
          "internalType": "bytes4",
          "name": "",
          "type": "bytes4"
        }
      ],
      "name": "selectorImplementation",
      "outputs": [
        {
          "internalType": "address",
          "name": "",
          "type": "address"
        }
      ],
      "stateMutability": "view",
      "type": "function"
    },
    {
      "inputs": [
        {
          "internalType": "uint32",
          "name": "_callbackGasLimit",
          "type": "uint32"
        }
      ],
      "name": "setCallbackGasLimit",
      "outputs": [],
      "stateMutability": "nonpayable",
      "type": "function"
    },
    {
      "inputs": [
        {
          "internalType": "address",
          "name": "_gemFactory",
          "type": "address"
        }
      ],
      "name": "setGemFactory",
      "outputs": [],
      "stateMutability": "nonpayable",
      "type": "function"
    },
    {
      "inputs": [
        {
          "internalType": "string",
          "name": "_tokenURI",
          "type": "string"
        }
      ],
      "name": "setPerfectCommonGemURI",
      "outputs": [],
      "stateMutability": "nonpayable",
      "type": "function"
    },
    {
      "inputs": [
        {
          "internalType": "uint256",
          "name": "_randomPackFees",
          "type": "uint256"
        }
      ],
      "name": "setRandomPackFees",
      "outputs": [],
      "stateMutability": "nonpayable",
      "type": "function"
    },
    {
      "inputs": [
        {
          "internalType": "address",
          "name": "_treasury",
          "type": "address"
        }
      ],
      "name": "setTreasury",
      "outputs": [],
      "stateMutability": "nonpayable",
      "type": "function"
    },
    {
      "inputs": [
        {
          "internalType": "bytes4",
          "name": "interfaceId",
          "type": "bytes4"
        }
      ],
      "name": "supportsInterface",
      "outputs": [
        {
          "internalType": "bool",
          "name": "",
          "type": "bool"
        }
      ],
      "stateMutability": "view",
      "type": "function"
    },
    {
      "inputs": [
        {
          "internalType": "address",
          "name": "newAdmin",
          "type": "address"
        }
      ],
      "name": "transferAdmin",
      "outputs": [],
      "stateMutability": "nonpayable",
      "type": "function"
    },
    {
      "inputs": [
        {
          "internalType": "address",
          "name": "newAdmin",
          "type": "address"
        }
      ],
      "name": "transferOwnership",
      "outputs": [],
      "stateMutability": "nonpayable",
      "type": "function"
    },
    {
      "inputs": [],
      "name": "unpause",
      "outputs": [],
      "stateMutability": "nonpayable",
      "type": "function"
    }
  ],
  "bytecode": "0x60808060405234606557600160048190556301ffc9a760e01b60005260056020527fc01909ce2b517f8cd3a46ae0cfde9179f9b675cf633d3d84c8226585cc73c156805460ff19169091179055600b805460ff60a01b19169055611f34908161006b8239f35b600080fdfe608060409080825260048036101561001657600080fd5b600092833560e01c92836301ffc9a7146116b557508263150b7a021461164c57826315c01616146115985782631785f53c1461156b578263184fa84f1461154c578263248a9ca31461152157826324d7806c146114cd57826325b5b3b2146114635782632f2ff15d1461143957826336568abe146113f357826337ed11db14610f59578263389ed26714610f305782633db8df9814610c265782633f4ba83a14610bea5782633fad183414610bcb57826350d2a27614610b87578263550d01a314610b4957826363a8fd8914610b275782636ae638d014610afe5782636b2c0f5514610ab05782636ecd19cb146108cf5782637048027514610880578263715018a61461085b57826375829def1461083357826375b238fc1461080a57826382dc1ec4146107475782638456cb59146107055782638f32d59b146106df57826391d14854146106985782639d541be21461066f578263a168fa891461060c578263a217fddf146105f1578263a4eb718c14610570578263b911135f1461053d578263d547741f146104fd578263de8be8e7146104d5578263e0024604146104a8578263e61475181461041c578263f0f4426014610397578263f2fde38b146102ec57505063f7013ef6146101e957600080fd5b346102e95760a03660031901126102e9576102026116ee565b61020a611709565b906001600160a01b039060443582811691908290036102e557606435918383168093036102e15761023a33611aea565b508360018060a01b03199216826007541617600755816009541617600955600a541617600a55600b5490608435600d5561249f60ae1b921690600164ffffffff0160a01b0319161717600b55610291600e546117d5565b601f81116102a3575b506000600e5580f35b600e82526102db90601f0160051c7fbb7b4a454dc3493923482f07822329ed19e8244eff582cc204f8554c3620c3fd90810190611927565b3861029a565b8580fd5b8480fd5b80fd5b90915034610393576020366003190112610393576103086116ee565b9161031961031461193e565b61180f565b61032461031461193e565b6001600160a01b0383168015610384573314610376575090610364600161036993600080516020611e9f833981519152865260066020528520015461198d565b6119d1565b5061037333611867565b80f35b90516309cd70b960e21b8152fd5b50905163d92e233d60e01b8152fd5b8280fd5b90915034610393576020366003190112610393576103b36116ee565b6103be61031461193e565b6001600160a01b031691821561040e5750600a80546001600160a01b03191683179055519081527fb6a5e89655cf506139085f051af608195ed056f8dc550b180a1c38d401e2b6c490602090a180f35b905163e6c4247b60e01b8152fd5b90915034610393576020366003190112610393576104386116ee565b9161044461031461193e565b600954926001600160a01b03918285161561049a5750166001600160a01b0319929092168217600955519081527fed7acc23c47775012c7b3a370974b91aefab1849cacf173b5ea54273abb4815690602090a180f35b835163e6c4247b60e01b8152fd5b8390346104d157816003193601126104d157600a5490516001600160a01b039091168152602090f35b5080fd5b8390346104d157816003193601126104d15760209063ffffffff600b5460a81c169051908152f35b9091503461039357806003193601126103935761053991356105346001610522611709565b9383875260066020528620015461198d565b611d37565b5080f35b9150346103935760203660031901126103935735825260016020908152918190205490516001600160a01b039091168152f35b915034610393576020366003190112610393573563ffffffff81168082036105ed577fe26fa4acf522c01381834acc8213105df00a52674031c6311f5dc24bd608819f926020926105c261031461193e565b600b805463ffffffff60a81b191660a89290921b63ffffffff60a81b1691909117905551908152a180f35b8380fd5b8390346104d157816003193601126104d15751908152602090f35b9150346103935760203660031901126103935760a09282913581526008602052209081549160018101546002820154916003600180881b03910154169260ff8151958181161515875260081c161515602086015284015260608301526080820152f35b8390346104d157816003193601126104d15760095490516001600160a01b039091168152602090f35b9150346103935781600319360112610393578160209360ff926106b9611709565b90358252600686528282206001600160a01b039091168252855220549151911615158152f35b8390346104d157816003193601126104d1576020906106fc61193e565b90519015158152f35b83346102e957806003193601126102e95761072161031461193e565b600b5461073460ff8260a01c1615611895565b60ff60a01b1916600160a01b17600b5580f35b8382346104d15760203660031901126104d1576107626116ee565b90600080516020611e9f8339815191528352600660205283832033845260205260ff848420541680156107fc575b156107c457506107bf60018394600080516020611e7f833981519152610539955260066020528520015461198d565b611a60565b606490602085519162461bcd60e51b835282015260126024820152713737ba1027bbb732b91037b91020b236b4b760711b6044820152fd5b5061080561193e565b610790565b8390346104d157816003193601126104d15760209051600080516020611e9f8339815191528152f35b909150346103935760203660031901126103935761084f6116ee565b9161032461031461193e565b83346102e957806003193601126102e95761087761031461193e565b61053933611c48565b8390346104d15760203660031901126104d1576105399061036460016108a46116ee565b926108b061031461193e565b600080516020611e9f833981519152865260066020528520015461198d565b8382346104d15760209081600319360112610393578035916001600160401b03918284116102e557366023850112156102e5578381013561090f816117ba565b9461091c88519687611799565b8186523660248383010111610aac578187926024869301838901378601015261094661031461193e565b8351928311610a99575061095b600e546117d5565b601f8111610a5f575b5080601f83116001146109d3575093816109c2939285967f5c9db415e672f6d0f9a26180f0ff083c406f4c7aa95aec2c0e9536794035a4d896916109c8575b508160011b916000199060031b1c191617600e555b519182918261171f565b0390a180f35b9050830151876109a3565b90601f198316600e86528286209286905b828210610a47575050927f5c9db415e672f6d0f9a26180f0ff083c406f4c7aa95aec2c0e9536794035a4d8959692600192826109c2979610610a2e575b5050811b01600e556109b8565b85015160001960f88460031b161c191690558780610a21565b80600185968294968a015181550195019301906109e4565b610a8990600e8652828620601f850160051c810191848610610a8f575b601f0160051c0190611927565b85610964565b9091508190610a7c565b634e487b7160e01b855260419052602484fd5b8680fd5b91503461039357602036600319011261039357610acb6116ee565b91610ad761031461193e565b336001600160a01b03841603610af1578361053984611bc0565b5163334bd91960e11b8152fd5b8390346104d157816003193601126104d157600b5490516001600160a01b039091168152602090f35b8390346104d157816003193601126104d15760ff602092541690519015158152f35b8390346104d15760203660031901126104d15760209160ff9082906001600160a01b03610b746116ee565b1681526002855220541690519015158152f35b915034610393576020366003190112610393573563ffffffff60e01b811680910361039357825260036020908152918190205490516001600160a01b039091168152f35b8390346104d157816003193601126104d157602090600c549051908152f35b83346102e957806003193601126102e957610c0661031461193e565b600b54610c1960ff8260a01c1615611895565b60ff60a01b1916600b5580f35b9091508260031936011261039357600b5491610c4860ff8460a01c1615611895565b6002815414610f225760028155331561040e57600d5482516323b872dd60e01b60208083019182523360248401523060448401526064808401949094529282526001600160a01b039586169692959160a081016001600160401b03811182821017610f0f57865251610ccb9184918291828b5af1610cc46118f7565b9088611dfb565b805190868215159283610ef6575b505050610edf57610d2994955063ffffffff600b5460a81c16906007541690868551610d0481611768565b8481528482820152828782015286518098819263a6c278f360e01b8352888301611dcf565b0381855afa958615610ed557908792918497610e9e575b5086939291610d7b91875190610d5582611768565b85825285858301528882015287519889809481936309160b1560e11b83528a8301611dcf565b03925af1948515610e92578195610e63575b50848152600886526003848220600160ff19825416178155013360018060a01b03198254161790556001600c5401600c55813411610dfa575b50506001907f591af11a018220de9c440841d69e035063106d38933fa5e481d17ac1d14c4958858451338152a15551908152f35b808080610e0785346118d4565b335af1610e126118f7565b5015610e5457907f27468d49151596d3863ccb02e3911b3146a62533facd0765451ba556bb4fd9c885610e47600194346118d4565b8551908152a19038610dc6565b509051631e53f7e560e11b8152fd5b9094508581813d8311610e8b575b610e7b8183611799565b810103126102e557519338610d8d565b503d610e71565b508351903d90823e3d90fd5b919650929181813d8111610ece575b610eb78183611799565b810103126104d15751949091869190610d7b610d40565b503d610ead565b85513d85823e3d90fd5b8351635274afe760e01b8152808401879052602490fd5b610f069350820181019101611d9c565b15388681610cd9565b634e487b7160e01b855260418652602485fd5b9051633ee5aeb560e01b8152fd5b8390346104d157816003193601126104d15760209051600080516020611e7f8339815191528152f35b8390346104d157806003193601126104d1576007546001600160a01b03906024908535908235908416338190036113d65750818652602092600884528760ff9260ff888a205416156113c75784895260088652878920610100948561ff0019835416178255826001809301558a89600954168b5195868092637f54868160e11b82525afa9586156113bd578b948c97611305575b5084159283611101575050506110ef57069082518210156110de575096838092611052989960051b0101519083895260088352868920908260028301558987600381600a5416940154169189519a8b958694859363048dbcef60e41b85528401611db4565b03925af19485156110d4577f5ea50d72ed96185eb6f31884978fae6836ea30ba583e3fb7c32b66135514723c956110a7575b50855260088152828520916003600284015493015416908351928352820152a180f35b6110c690833d85116110cd575b6110be8183611799565b810190611d9c565b5086611084565b503d6110b4565b84513d88823e3d90fd5b634e487b7160e01b88526032895287fd5b634e487b7160e01b895260128a528289fd5b935093509396999a9594505086600a9897985416928751888101906001600160401b0391818110838211176112f3578a528c81528c8c8201528951916080830190838210908211176112f357928d94919995928d97948c528281528288820152828c8201528260608201528b519a8b9763912b431b60e01b8952878c8a0152880187905b600282106112c857505050606487019086915b8b83106112a15750505050509183916101249360e4840152816101048401525af19283156112975790869392918893611262575b509461120195885260088452826002868a200155600a54169087855180978195829463048dbcef60e41b845233908401611db4565b03925af1908115611259575061123b575b50507fdd20b2dff2d53ef41435ad0074aea6e1ce693777fcc9ea8e76c76a8f3607dd218180a180f35b8161125192903d106110cd576110be8183611799565b508180611212565b513d85823e3d90fd5b8481959294503d8311611290575b61127a8183611799565b81010312610aac579151859290916112016111cc565b503d611270565b84513d89823e3d90fd5b899295985084975083829594979a92511681520192019201928c96938a96938f9693611198565b859850829593969950848b939b9295989b511681520193019101928d9794918f9693948c9895611185565b634e487b7160e01b8e5260418952898efd5b945095503d808c863e6113188186611799565b84018a858203126113b957845190898601516001600160401b039687821161139d570181601f820112156113b55780519687116113a1578660051b908d51976113638d84018a611799565b88528b8089019282010192831161139d578b809101915b83831061138d575050505093958d610fed565b82518152918101918c910161137a565b8e80fd5b5050634e487b7160e01b8c5260418d52858cfd5b8d80fd5b8b80fd5b8a513d8d823e3d90fd5b5086516392b8197960e01b8152fd5b855163073e64fd60e21b815233818a015280850191909152604490fd5b8390346104d157806003193601126104d15761140d611709565b90336001600160a01b0383160361142a5750610539919235611d37565b5163334bd91960e11b81528390fd5b90915034610393578060031936011261039357610539913561145e6001610522611709565b611b57565b909150346103935760203660031901126103935781359161148561031461193e565b600d54156114bf5750816020917fa9ba7fa833bd01c7d078c99360f9c0764c1de898c3300802f43fd0ec1dee717c93600d5551908152a180f35b905163173ecfb760e31b8152fd5b8390346104d15760203660031901126104d15760ff816020936114ee6116ee565b600080516020611e9f8339815191528252600686528282206001600160a01b039091168252855220549151911615158152f35b9150346103935760203660031901126103935781602093600192358152600685522001549051908152f35b8390346104d157816003193601126104d157602090600d549051908152f35b83346102e95760203660031901126102e9576103736115886116ee565b61159361031461193e565b611867565b8390346104d157816003193601126104d15780519082600e546115ba816117d5565b9081855260209260019160018116908160001461162a57506001146115ef575b6115eb86866109b8828b0383611799565b0390f35b929550600e83528583205b82841061161757505050826115eb946109b89282010194866115da565b80548685018801529286019281016115fa565b60ff191687860152505050151560051b83010192506109b8826115eb866115da565b915034610393576080366003190112610393576116676116ee565b50611670611709565b50606435906001600160401b03908183116102e557366023840112156102e5578201359081116105ed57369101602401116104d15751630a85bd0160e11b8152602090f35b925050346103935760203660031901126103935735916001600160e01b0319831683036102e957506116e8602092611961565b15158152f35b600435906001600160a01b038216820361170457565b600080fd5b602435906001600160a01b038216820361170457565b6020808252825181830181905290939260005b82811061175457505060409293506000838284010152601f8019910116010190565b818101860151848201604001528501611732565b606081019081106001600160401b0382111761178357604052565b634e487b7160e01b600052604160045260246000fd5b90601f801991011681019081106001600160401b0382111761178357604052565b6001600160401b03811161178357601f01601f191660200190565b90600182811c92168015611805575b60208310146117ef57565b634e487b7160e01b600052602260045260246000fd5b91607f16916117e4565b1561181657565b60405162461bcd60e51b8152602060048201526024808201527f41757468436f6e74726f6c3a2043616c6c6572206973206e6f7420746865206f6044820152633bb732b960e11b6064820152608490fd5b336001600160a01b038216036118835761188090611caf565b50565b60405163334bd91960e11b8152600490fd5b1561189c57565b60405162461bcd60e51b815260206004820152601060248201526f14185d5cd8589b194e881c185d5cd95960821b6044820152606490fd5b919082039182116118e157565b634e487b7160e01b600052601160045260246000fd5b3d15611922573d90611908826117ba565b916119166040519384611799565b82523d6000602084013e565b606090565b818110611932575050565b60008155600101611927565b336000908152600080516020611edf833981519152602052604090205460ff1690565b6001600160e01b03198116637965db0b60e01b14908115611980575090565b61198a9150611961565b90565b80600052600660205260406000203360005260205260ff60406000205416156119b35750565b6044906040519063e2517d3f60e01b82523360048301526024820152fd5b6001600160a01b031660008181527f31f4bc5980931cfff8fcc0887a354f492c853dee1983bdef4d9cb3e8a5ff876e6020526040812054909190600080516020611e9f8339815191529060ff16611a5b5780835260066020526040832082845260205260408320600160ff19825416179055600080516020611e5f833981519152339380a4600190565b505090565b6001600160a01b031660008181527f1f8dd7b22d148f841c713baeaaa6d87f64519d51ae5db1519f67dc96623cc8d86020526040812054909190600080516020611e7f8339815191529060ff16611a5b5780835260066020526040832082845260205260408320600160ff19825416179055600080516020611e5f833981519152339380a4600190565b6001600160a01b03166000818152600080516020611edf833981519152602052604081205490919060ff16611b535781805260066020526040822081835260205260408220600160ff198254161790553391600080516020611e5f8339815191528180a4600190565b5090565b906000918083526006602052604083209160018060a01b03169182845260205260ff60408420541615600014611a5b5780835260066020526040832082845260205260408320600160ff19825416179055600080516020611e5f833981519152339380a4600190565b6001600160a01b031660008181527f1f8dd7b22d148f841c713baeaaa6d87f64519d51ae5db1519f67dc96623cc8d86020526040812054909190600080516020611e7f8339815191529060ff1615611a5b578083526006602052604083208284526020526040832060ff198154169055600080516020611ebf833981519152339380a4600190565b6001600160a01b03166000818152600080516020611edf833981519152602052604081205490919060ff1615611b53578180526006602052604082208183526020526040822060ff1981541690553391600080516020611ebf8339815191528180a4600190565b6001600160a01b031660008181527f31f4bc5980931cfff8fcc0887a354f492c853dee1983bdef4d9cb3e8a5ff876e6020526040812054909190600080516020611e9f8339815191529060ff1615611a5b578083526006602052604083208284526020526040832060ff198154169055600080516020611ebf833981519152339380a4600190565b906000918083526006602052604083209160018060a01b03169182845260205260ff604084205416600014611a5b578083526006602052604083208284526020526040832060ff198154169055600080516020611ebf833981519152339380a4600190565b90816020910312611704575180151581036117045790565b6001600160a01b039091168152602081019190915260400190565b919091604063ffffffff81606084019561ffff8082511686526020820151166020860152015116910152565b90611e225750805115611e1057805190602001fd5b604051630a12f52160e11b8152600490fd5b81511580611e55575b611e33575090565b604051639996b31560e01b81526001600160a01b039091166004820152602490fd5b50803b15611e2b56fe2f8788117e7eff1d82e926ec794901d17c78024a50270940304540a733656f0dfcb9fcbfa83b897fb2d5cf4b58962164105c1e71489a37ef3ae0db3fdce576f6df8b4c520ffe197c5343c6f5aec59570151ef9a492f2c624fd45ddde6135ec42f6391f5c32d9c69d2a47ea670b442974b53935d1edc7fd64eb21e047a839171b54cdd369e4e8a8515e52ca72ec816c2101831ad1f18bf44102ed171459c9b4f8a26469706673582212203b9ece7bd87db472c78a3459275f09eecd4f3f10a8e03cf7e1b2879376aa270664736f6c63430008190033",
  "linkReferences": {},
  "deployedLinkReferences": {}
}