{
  "_format": "hh-sol-artifact-1",
  "contractName": "RandomPack",
  "sourceName": "src/L2/RandomPack.sol",
  "abi": [
    {
      "inputs": [
        {
          "internalType": "address",
          "name": "coordinator",
          "type": "address"
        },
        {
          "internalType": "address",
          "name": "_ton",
          "type": "address"
        },
        {
          "internalType": "address",
          "name": "_gemFactory",
          "type": "address"
        },
        {
          "internalType": "address",
          "name": "_treasury",
          "type": "address"
        },
        {
          "internalType": "uint256",
          "name": "_randomPackFees",
          "type": "uint256"
        }
      ],
      "stateMutability": "nonpayable",
      "type": "constructor"
    },
    {
      "inputs": [],
      "name": "AccessControlBadConfirmation",
      "type": "error"
    },
    {
      "inputs": [
        {
          "internalType": "address",
          "name": "account",
          "type": "address"
        },
        {
          "internalType": "bytes32",
          "name": "neededRole",
          "type": "bytes32"
        }
      ],
      "name": "AccessControlUnauthorizedAccount",
      "type": "error"
    },
    {
      "inputs": [
        {
          "internalType": "address",
          "name": "target",
          "type": "address"
        }
      ],
      "name": "AddressEmptyCode",
      "type": "error"
    },
    {
      "inputs": [
        {
          "internalType": "address",
          "name": "account",
          "type": "address"
        }
      ],
      "name": "AddressInsufficientBalance",
      "type": "error"
    },
    {
      "inputs": [],
      "name": "FailedInnerCall",
      "type": "error"
    },
    {
      "inputs": [
        {
          "internalType": "address",
          "name": "have",
          "type": "address"
        },
        {
          "internalType": "address",
          "name": "want",
          "type": "address"
        }
      ],
      "name": "OnlyCoordinatorCanFulfill",
      "type": "error"
    },
    {
      "inputs": [],
      "name": "ReentrancyGuardReentrantCall",
      "type": "error"
    },
    {
      "inputs": [
        {
          "internalType": "address",
          "name": "token",
          "type": "address"
        }
      ],
      "name": "SafeERC20FailedOperation",
      "type": "error"
    },
    {
      "anonymous": false,
      "inputs": [],
      "name": "CommonGemMinted",
      "type": "event"
    },
    {
      "anonymous": false,
      "inputs": [],
      "name": "CommonGemToBeMinted",
      "type": "event"
    },
    {
      "anonymous": false,
      "inputs": [
        {
          "indexed": false,
          "internalType": "uint256",
          "name": "tokenId",
          "type": "uint256"
        },
        {
          "indexed": false,
          "internalType": "address",
          "name": "newOwner",
          "type": "address"
        }
      ],
      "name": "RandomGemToBeTransferred",
      "type": "event"
    },
    {
      "anonymous": false,
      "inputs": [
        {
          "indexed": false,
          "internalType": "uint256",
          "name": "tokenId",
          "type": "uint256"
        },
        {
          "indexed": false,
          "internalType": "address",
          "name": "newOwner",
          "type": "address"
        }
      ],
      "name": "RandomGemTransferred",
      "type": "event"
    },
    {
      "anonymous": false,
      "inputs": [
        {
          "indexed": true,
          "internalType": "bytes32",
          "name": "role",
          "type": "bytes32"
        },
        {
          "indexed": true,
          "internalType": "bytes32",
          "name": "previousAdminRole",
          "type": "bytes32"
        },
        {
          "indexed": true,
          "internalType": "bytes32",
          "name": "newAdminRole",
          "type": "bytes32"
        }
      ],
      "name": "RoleAdminChanged",
      "type": "event"
    },
    {
      "anonymous": false,
      "inputs": [
        {
          "indexed": true,
          "internalType": "bytes32",
          "name": "role",
          "type": "bytes32"
        },
        {
          "indexed": true,
          "internalType": "address",
          "name": "account",
          "type": "address"
        },
        {
          "indexed": true,
          "internalType": "address",
          "name": "sender",
          "type": "address"
        }
      ],
      "name": "RoleGranted",
      "type": "event"
    },
    {
      "anonymous": false,
      "inputs": [
        {
          "indexed": true,
          "internalType": "bytes32",
          "name": "role",
          "type": "bytes32"
        },
        {
          "indexed": true,
          "internalType": "address",
          "name": "account",
          "type": "address"
        },
        {
          "indexed": true,
          "internalType": "address",
          "name": "sender",
          "type": "address"
        }
      ],
      "name": "RoleRevoked",
      "type": "event"
    },
    {
      "inputs": [],
      "name": "ADMIN_ROLE",
      "outputs": [
        {
          "internalType": "bytes32",
          "name": "",
          "type": "bytes32"
        }
      ],
      "stateMutability": "view",
      "type": "function"
    },
    {
      "inputs": [],
      "name": "DEFAULT_ADMIN_ROLE",
      "outputs": [
        {
          "internalType": "bytes32",
          "name": "",
          "type": "bytes32"
        }
      ],
      "stateMutability": "view",
      "type": "function"
    },
    {
      "inputs": [],
      "name": "PAUSE_ROLE",
      "outputs": [
        {
          "internalType": "bytes32",
          "name": "",
          "type": "bytes32"
        }
      ],
      "stateMutability": "view",
      "type": "function"
    },
    {
      "inputs": [
        {
          "internalType": "address",
          "name": "account",
          "type": "address"
        }
      ],
      "name": "addAdmin",
      "outputs": [],
      "stateMutability": "nonpayable",
      "type": "function"
    },
    {
      "inputs": [
        {
          "internalType": "address",
          "name": "account",
          "type": "address"
        }
      ],
      "name": "addPauser",
      "outputs": [],
      "stateMutability": "nonpayable",
      "type": "function"
    },
    {
      "inputs": [],
      "name": "callbackGasLimit",
      "outputs": [
        {
          "internalType": "uint32",
          "name": "",
          "type": "uint32"
        }
      ],
      "stateMutability": "view",
      "type": "function"
    },
    {
      "inputs": [
        {
          "internalType": "uint256",
          "name": "requestId",
          "type": "uint256"
        }
      ],
      "name": "collectRandomGem",
      "outputs": [],
      "stateMutability": "nonpayable",
      "type": "function"
    },
    {
      "inputs": [],
      "name": "getDrbCoordinatorAddress",
      "outputs": [
        {
          "internalType": "address",
          "name": "",
          "type": "address"
        }
      ],
      "stateMutability": "view",
      "type": "function"
    },
    {
      "inputs": [],
      "name": "getGemFactoryAddress",
      "outputs": [
        {
          "internalType": "address",
          "name": "",
          "type": "address"
        }
      ],
      "stateMutability": "view",
      "type": "function"
    },
    {
      "inputs": [],
      "name": "getRandomGem",
      "outputs": [
        {
          "internalType": "uint256",
          "name": "",
          "type": "uint256"
        }
      ],
      "stateMutability": "payable",
      "type": "function"
    },
    {
      "inputs": [
        {
          "internalType": "bytes32",
          "name": "role",
          "type": "bytes32"
        }
      ],
      "name": "getRoleAdmin",
      "outputs": [
        {
          "internalType": "bytes32",
          "name": "",
          "type": "bytes32"
        }
      ],
      "stateMutability": "view",
      "type": "function"
    },
    {
      "inputs": [],
      "name": "getTonAddress",
      "outputs": [
        {
          "internalType": "address",
          "name": "",
          "type": "address"
        }
      ],
      "stateMutability": "view",
      "type": "function"
    },
    {
      "inputs": [],
      "name": "getTreasuryAddress",
      "outputs": [
        {
          "internalType": "address",
          "name": "",
          "type": "address"
        }
      ],
      "stateMutability": "view",
      "type": "function"
    },
    {
      "inputs": [
        {
          "internalType": "bytes32",
          "name": "role",
          "type": "bytes32"
        },
        {
          "internalType": "address",
          "name": "account",
          "type": "address"
        }
      ],
      "name": "grantRole",
      "outputs": [],
      "stateMutability": "nonpayable",
      "type": "function"
    },
    {
      "inputs": [
        {
          "internalType": "bytes32",
          "name": "role",
          "type": "bytes32"
        },
        {
          "internalType": "address",
          "name": "account",
          "type": "address"
        }
      ],
      "name": "hasRole",
      "outputs": [
        {
          "internalType": "bool",
          "name": "",
          "type": "bool"
        }
      ],
      "stateMutability": "view",
      "type": "function"
    },
    {
      "inputs": [
        {
          "internalType": "address",
          "name": "account",
          "type": "address"
        }
      ],
      "name": "isAdmin",
      "outputs": [
        {
          "internalType": "bool",
          "name": "",
          "type": "bool"
        }
      ],
      "stateMutability": "view",
      "type": "function"
    },
    {
      "inputs": [],
      "name": "isOwner",
      "outputs": [
        {
          "internalType": "bool",
          "name": "",
          "type": "bool"
        }
      ],
      "stateMutability": "view",
      "type": "function"
    },
    {
      "inputs": [
        {
          "internalType": "address",
          "name": "",
          "type": "address"
        },
        {
          "internalType": "address",
          "name": "",
          "type": "address"
        },
        {
          "internalType": "uint256",
          "name": "",
          "type": "uint256"
        },
        {
          "internalType": "bytes",
          "name": "",
          "type": "bytes"
        }
      ],
      "name": "onERC721Received",
      "outputs": [
        {
          "internalType": "bytes4",
          "name": "",
          "type": "bytes4"
        }
      ],
      "stateMutability": "pure",
      "type": "function"
    },
    {
      "inputs": [],
      "name": "perfectCommonGemURI",
      "outputs": [
        {
          "internalType": "string",
          "name": "",
          "type": "string"
        }
      ],
      "stateMutability": "view",
      "type": "function"
    },
    {
      "inputs": [],
      "name": "randomPackFees",
      "outputs": [
        {
          "internalType": "uint256",
          "name": "",
          "type": "uint256"
        }
      ],
      "stateMutability": "view",
      "type": "function"
    },
    {
      "inputs": [
        {
          "internalType": "uint256",
          "name": "requestId",
          "type": "uint256"
        },
        {
          "internalType": "uint256",
          "name": "randomWord",
          "type": "uint256"
        }
      ],
      "name": "rawFulfillRandomWords",
      "outputs": [],
      "stateMutability": "nonpayable",
      "type": "function"
    },
    {
      "inputs": [
        {
          "internalType": "address",
          "name": "account",
          "type": "address"
        }
      ],
      "name": "removeAdmin",
      "outputs": [],
      "stateMutability": "nonpayable",
      "type": "function"
    },
    {
      "inputs": [
        {
          "internalType": "address",
          "name": "account",
          "type": "address"
        }
      ],
      "name": "removePauser",
      "outputs": [],
      "stateMutability": "nonpayable",
      "type": "function"
    },
    {
      "inputs": [],
      "name": "renounceOwnership",
      "outputs": [],
      "stateMutability": "nonpayable",
      "type": "function"
    },
    {
      "inputs": [
        {
          "internalType": "bytes32",
          "name": "role",
          "type": "bytes32"
        },
        {
          "internalType": "address",
          "name": "callerConfirmation",
          "type": "address"
        }
      ],
      "name": "renounceRole",
      "outputs": [],
      "stateMutability": "nonpayable",
      "type": "function"
    },
    {
      "inputs": [],
      "name": "requestCount",
      "outputs": [
        {
          "internalType": "uint256",
          "name": "",
          "type": "uint256"
        }
      ],
      "stateMutability": "view",
      "type": "function"
    },
    {
      "inputs": [
        {
          "internalType": "bytes32",
          "name": "role",
          "type": "bytes32"
        },
        {
          "internalType": "address",
          "name": "account",
          "type": "address"
        }
      ],
      "name": "revokeRole",
      "outputs": [],
      "stateMutability": "nonpayable",
      "type": "function"
    },
    {
      "inputs": [
        {
          "internalType": "uint256",
          "name": "",
          "type": "uint256"
        }
      ],
      "name": "s_requests",
      "outputs": [
        {
          "internalType": "bool",
          "name": "requested",
          "type": "bool"
        },
        {
          "internalType": "bool",
          "name": "fulfilled",
          "type": "bool"
        },
        {
          "internalType": "uint256",
          "name": "randomWord",
          "type": "uint256"
        },
        {
          "internalType": "uint256",
          "name": "chosenTokenId",
          "type": "uint256"
        },
        {
          "internalType": "address",
          "name": "requester",
          "type": "address"
        }
      ],
      "stateMutability": "view",
      "type": "function"
    },
    {
      "inputs": [
        {
          "internalType": "uint32",
          "name": "_callbackGasLimit",
          "type": "uint32"
        }
      ],
      "name": "setCallbackGasLimit",
      "outputs": [],
      "stateMutability": "nonpayable",
      "type": "function"
    },
    {
      "inputs": [
        {
          "internalType": "address",
          "name": "_gemFactory",
          "type": "address"
        }
      ],
      "name": "setGemFactory",
      "outputs": [],
      "stateMutability": "nonpayable",
      "type": "function"
    },
    {
      "inputs": [
        {
          "internalType": "string",
          "name": "_tokenURI",
          "type": "string"
        }
      ],
      "name": "setPerfectCommonGemURI",
      "outputs": [],
      "stateMutability": "nonpayable",
      "type": "function"
    },
    {
      "inputs": [
        {
          "internalType": "uint256",
          "name": "_randomPackFees",
          "type": "uint256"
        }
      ],
      "name": "setRandomPackFees",
      "outputs": [],
      "stateMutability": "nonpayable",
      "type": "function"
    },
    {
      "inputs": [
        {
          "internalType": "address",
          "name": "_treasury",
          "type": "address"
        }
      ],
      "name": "setTreasury",
      "outputs": [],
      "stateMutability": "nonpayable",
      "type": "function"
    },
    {
      "inputs": [
        {
          "internalType": "bytes4",
          "name": "interfaceId",
          "type": "bytes4"
        }
      ],
      "name": "supportsInterface",
      "outputs": [
        {
          "internalType": "bool",
          "name": "",
          "type": "bool"
        }
      ],
      "stateMutability": "view",
      "type": "function"
    },
    {
      "inputs": [
        {
          "internalType": "address",
          "name": "newAdmin",
          "type": "address"
        }
      ],
      "name": "transferAdmin",
      "outputs": [],
      "stateMutability": "nonpayable",
      "type": "function"
    },
    {
      "inputs": [
        {
          "internalType": "address",
          "name": "newAdmin",
          "type": "address"
        }
      ],
      "name": "transferOwnership",
      "outputs": [],
      "stateMutability": "nonpayable",
      "type": "function"
    }
  ],
  "bytecode": "0x60a03461018157601f611f0d38819003918201601f19168301916001600160401b038311848410176101865780849260a094604052833981010312610181576100478161019c565b906100546020820161019c565b906100616040820161019c565b9060806100706060830161019c565b910151916001946000946001865560018060a01b0380809316948560805260ff60a01b19600654166006556100a4336101b0565b508160018060a01b0319951685600354161760035516836004541617600455169060055416176005556006549160085561334560ac1b916bffffffffffffff00000000ff60a01b16171760065560095490600182811c92168015610177575b602083101461016357601f8211610139575b6000600955604051611ccb90816102428239608051818181610d5901526110c90152f35b60098152601f60208220920160051c8201915b8281106101595750610115565b818155830161014c565b634e487b7160e01b81526022600452602490fd5b91607f1691610103565b600080fd5b634e487b7160e01b600052604160045260246000fd5b51906001600160a01b038216820361018157565b6001600160a01b031660008181527fa6eef7e35abe7026729641147f7915573c7e97b47efa546f5f6e3230263bcb49602052604081205490919060ff1661023d5781805260016020526040822081835260205260408220600160ff1982541617905533917f2f8788117e7eff1d82e926ec794901d17c78024a50270940304540a733656f0d8180a4600190565b509056fe608060409080825260048036101561001657600080fd5b600091823560e01c90816301ffc9a71461156a57508063150b7a02146115005780631785f53c146114d3578063224a11a1146114aa578063248a9ca31461147f57806324d7806c1461142b57806324f746971461140357806325b5b3b2146113945780632f2ff15d1461136b57806336568abe1461132557806337ed11db146110a5578063389ed2671461107c5780635badbe4c1461105d5780636985ba4714610f625780636ae638d014610f395780636b2c0f5514610eea5780636ce1408b14610c215780636ecd19cb14610a925780637048027514610a44578063715018a614610a1f57806375829def146109f957806375b238fc146109d057806382dc1ec41461090d5780638f32d59b146108e757806391d14854146108a05780639d541be214610877578063a168fa8914610813578063a217fddf146107f8578063a2a79ac114610431578063a4eb718c146103e0578063bafc3301146103c1578063d547741f14610383578063e002460414610356578063e6147518146102ff578063f0f44260146102b45763f2fde38b146101b057600080fd5b346102b05760203660031901126102b0576101c96115be565b906101da6101d561173b565b611676565b6101e56101d561173b565b6001600160a01b0382168015610272573314610236575061022460018394600080516020611c56833981519152610229955281602052852001546117fa565b61183e565b50610233336116ce565b80f35b606490602085519162461bcd60e51b8352820152601660248201527520b1b1b2b9b9b4b136329d1039b0b6b29030b236b4b760511b6044820152fd5b845162461bcd60e51b8152602081840152601860248201527741636365737369626c653a207a65726f206164647265737360401b6044820152606490fd5b5080fd5b50346102b05760203660031901126102b0576102ce6115be565b6102d96101d561173b565b6001600160a01b03166102ed8115156117bc565b81546001600160a01b03191617905580f35b8234610353576020366003190112610353576103196115be565b6103246101d561173b565b600354906001600160a01b039061033e82841615156117bc565b6001600160a01b031990921691161760035580f35b80fd5b5082903461037f578260031936011261037f575490516001600160a01b03909116815260209150f35b8280fd5b50823461037f578060031936011261037f576103bd91356103b860016103a76115d4565b9383875281602052862001546117fa565b611b4d565b5080f35b8284346102b057816003193601126102b0576020906008549051908152f35b50346102b05760203660031901126102b0573563ffffffff811681036102b05761040b6101d561173b565b6006805463ffffffff60a81b191660a89290921b63ffffffff60a81b1691909117905580f35b50823461037f57602091826003193601126107f45780359260ff9361045e60ff60065460a01c16156116fc565b8086526002808352848720600301546001600160a01b039691949190871633036107b75782885284845260018060ff888b205460081c16151503610775578389528585528689208601541561057a5750508281876104e8935416848a52868352878a208a888b600384015416920154938a519687958694859363048dbcef60e41b85528401611788565b03925af1801561057057927f5ea50d72ed96185eb6f31884978fae6836ea30ba583e3fb7c32b66135514723c9692859261053d95610543575b50885252600384872093840154930154169251928392836117a3565b0390a180f35b61056290833d8511610569575b61055a8183611624565b810190611770565b5089610521565b503d610550565b85513d89823e3d90fd5b8783949796929598935416908651958787016001600160401b0390888110828211176107605789528b88528b8b89015288519060808201908282109082111761076057928c928c959299948b52818a5281868b0152818b8b01528160608b01528a51998a9563912b431b60e01b8752858b8801526024870186905b8a821061073957505050606486019085915b8b831061071457505050505061012491839161010060e4840152816101048401525af193841561070a5790879493929189946106d0575b50839061066f978a52808652868a2001558154169087855180978195829463048dbcef60e41b845233908401611788565b03925af19081156106c757506106a9575b50507fdd20b2dff2d53ef41435ad0074aea6e1ce693777fcc9ea8e76c76a8f3607dd218180a180f35b816106bf92903d106105695761055a8183611624565b508180610680565b513d85823e3d90fd5b8581969295503d8311610703575b6106e88183611624565b810103126106fe5792518693909261066f61063e565b600080fd5b503d6106de565b85513d8a823e3d90fd5b84975083828a94979a9396959850511681520192019201928d938d96938b9693610607565b859850848a93809795989b93969950511681520193019101928e94918e97948c97946105f5565b604188634e487b7160e01b6000525260246000fd5b865162461bcd60e51b8152808401869052601c60248201527b1c985b991bdb481ddbdc99081a5cc81b9bdd08199d5b1b199a5b195960221b6044820152606490fd5b855162461bcd60e51b815280830185905260176024820152763737ba103a3432903934b3b43a103932b8bab2b9ba32b960491b6044820152606490fd5b8380fd5b8284346102b057816003193601126102b05751908152602090f35b5082903461037f57602036600319011261037f5760a09282913581526002602052209081549160018101546002820154916003600180881b03910154169260ff8151958181161515875260081c161515602086015284015260608301526080820152f35b8284346102b057816003193601126102b05760035490516001600160a01b039091168152602090f35b5082903461037f578160031936011261037f57816020936108bf6115d4565b9235815260018552209060018060a01b0316600052825260ff81600020541690519015158152f35b8284346102b057816003193601126102b05760209061090461173b565b90519015158152f35b50346102b05760203660031901126102b0576109276115be565b90600080516020611c56833981519152835260016020528383203360005260205260ff84600020541680156109c2575b1561098a575061098560018394600080516020611c368339815191526103bd955281602052852001546117fa565b6118cd565b606490602085519162461bcd60e51b835282015260126024820152713737ba1027bbb732b91037b91020b236b4b760711b6044820152fd5b506109cb61173b565b610957565b8284346102b057816003193601126102b05760209051600080516020611c568339815191528152f35b50346102b05760203660031901126102b057610a136115be565b906101e56101d561173b565b8234610353578060031936011261035357610a3b6101d561173b565b6103bd33611a48565b8284346102b05760203660031901126102b0576103bd906102246001610a686115be565b92610a746101d561173b565b600080516020611c56833981519152865281602052852001546117fa565b50346102b05760208060031936011261037f576001600160401b03918035838111610c1d5736602382011215610c1d578082013590610adc610ad38361165b565b97519788611624565b8187523660248383010111610c19578186926024869301838a013787010152610b066101d561173b565b8451928311610c065750610b1b6009546115ea565b601f8111610bc2575b5080601f8311600114610b5f57508293829392610b54575b50508160011b916000199060031b1c19161760095580f35b015190503880610b3c565b90601f19831694600985528285209285905b878210610baa575050836001959610610b91575b505050811b0160095580f35b015160001960f88460031b161c19169055388080610b85565b80600185968294968601518155019501930190610b71565b60098452818420601f840160051c810191838510610bfc575b601f0160051c01905b818110610bf15750610b24565b848155600101610be4565b9091508190610bdb565b634e487b7160e01b845260419052602483fd5b8580fd5b8480fd5b5091816003193601126102b057610c4060ff60065460a01c16156116fc565b6002825414610edb57600282553315610ea15760018060a01b03918260055416936008549083516020968782016323b872dd60e01b8152602494338685015230604485015260648401526064835260a08301926001600160401b039381811085821117610e5b57885251610ce3918791829182865af13d15610e99573d90610cc78261165b565b91610cd48a519384611624565b82523d888c84013e5b83611bb2565b805190898215159283610e80575b505050610e6d575063ffffffff958660065460a81c16968651976060890189811085821117610e5b57885286895289890187815289890191825288516309160b1560e11b8152995161ffff908116878c0152905116868a0152511660448801528787606481347f000000000000000000000000000000000000000000000000000000000000000086165af1968715610e22578597610e2c575b50868552600288526003868620600160ff19825416178155013360018060a01b031982541617905560016007540160075560065416803b15610c1d57908484939281958851809781936324adeca760e11b83528c888401525af18015610e2257610dfd575b505050506001905551908152f35b8311610e1157505082526001388080610def565b634e487b7160e01b84526041905282fd5b86513d87823e3d90fd5b9096508781813d8311610e54575b610e448183611624565b81010312610c1d57519538610d8a565b503d610e3a565b634e487b7160e01b8852604186528688fd5b8551635274afe760e01b81529283015250fd5b610e909350820181019101611770565b15388981610cf1565b606090610cdd565b5162461bcd60e51b815260208184015260156024820152741859191c995cdcc80c081b9bdd08185b1b1bddd959605a1b6044820152606490fd5b51633ee5aeb560e01b81529050fd5b5082903461037f57602036600319011261037f57610f066115be565b91610f126101d561173b565b336001600160a01b03841603610f2c57836103bd846119c0565b5163334bd91960e11b8152fd5b8284346102b057816003193601126102b05760055490516001600160a01b039091168152602090f35b8284346102b057816003193601126102b05780518260095482610f84826115ea565b95868252602096879360019060018116908160001461103c5750600114610ffe575b5050610fb89250959392950382611624565b82519382859384528251928382860152825b848110610fe857505050828201840152601f01601f19168101030190f35b8181018301518882018801528795508201610fca565b600986528486209492508591905b818310611024575088945050820101610fb888610fa6565b8554888401850152948501948794509183019161100c565b915050610fb894925060ff191682840152151560051b820101869288610fa6565b8284346102b057816003193601126102b0576020906007549051908152f35b8284346102b057816003193601126102b05760209051600080516020611c368339815191528152f35b5091346102b057806003193601126102b0576001600160a01b0392803590602480357f0000000000000000000000000000000000000000000000000000000000000000871633819003611308575083865260029260209284845260ff8789205416156112d357858852848452826001888a2061010061ff0019825416178155015581888a60035416895192838092637f54868160e11b82525afa9384156112c95789918a95611213575b508115806111d9576111c757069183518310156111b65750509280837fb0af079a2fe2f9cb55edfa571fc822d68f92e17d7d4df64bb98aeb067e02c84098999460039461053d9760051b010151968a525284868920918201550154169251928392836117a3565b634e487b7160e01b89526032905287fd5b634e487b7160e01b8a5260128452828afd5b505050505050849550819392855252822001557f33e073f01a1bf838bf4806259ac82ec45d5b87e439f328d646e6d648f291a42e8180a180f35b915093503d808a833e6112268183611624565b810188828203126112c557815190868301516001600160401b03938482116112ab570181601f820112156112c15780519384116112af578360051b908b51946112718a840187611624565b855288808601928201019283116112ab5788809101915b83831061129b575050505090933861114f565b8251815291810191899101611288565b8c80fd5b634e487b7160e01b8c5260418652848cfd5b8b80fd5b8980fd5b88513d8b823e3d90fd5b865162461bcd60e51b81529182018490526010908201526f52657175657374206e6f74206d61646560801b6044820152606490fd5b855163073e64fd60e21b8152338186015280840191909152604490fd5b5091346102b057806003193601126102b05761133f6115d4565b90336001600160a01b0383160361135c57506103bd919235611b4d565b5163334bd91960e11b81528390fd5b50823461037f578060031936011261037f576103bd913561138f60016103a76115d4565b611957565b50823461037f57602036600319011261037f576113b26101d561173b565b600854156113c257503560085580f35b906020606492519162461bcd60e51b8352820152601b60248201527a066656573206d7573742062652067726561746572207468616e203602c1b6044820152fd5b8284346102b057816003193601126102b05760209063ffffffff60065460a81c169051908152f35b8284346102b05760203660031901126102b05760ff8160209361144c6115be565b600080516020611c568339815191528252600186528282206001600160a01b039091168252855220549151911615158152f35b5082903461037f57602036600319011261037f57816020936001923581528285522001549051908152f35b8284346102b057816003193601126102b05760065490516001600160a01b039091168152602090f35b8234610353576020366003190112610353576102336114f06115be565b6114fb6101d561173b565b6116ce565b5082903461037f57608036600319011261037f5761151c6115be565b506115256115d4565b50606435906001600160401b0390818311610c1d5736602384011215610c1d578201359081116107f457369101602401116102b05751630a85bd0160e11b8152602090f35b9190503461037f57602036600319011261037f573563ffffffff60e01b811680910361037f5760209250637965db0b60e01b81149081156115ad575b5015158152f35b6301ffc9a760e01b149050836115a6565b600435906001600160a01b03821682036106fe57565b602435906001600160a01b03821682036106fe57565b90600182811c9216801561161a575b602083101461160457565b634e487b7160e01b600052602260045260246000fd5b91607f16916115f9565b90601f801991011681019081106001600160401b0382111761164557604052565b634e487b7160e01b600052604160045260246000fd5b6001600160401b03811161164557601f01601f191660200190565b1561167d57565b60405162461bcd60e51b8152602060048201526024808201527f41757468436f6e74726f6c3a2043616c6c6572206973206e6f7420746865206f6044820152633bb732b960e11b6064820152608490fd5b336001600160a01b038216036116ea576116e790611ac5565b50565b60405163334bd91960e11b8152600490fd5b1561170357565b60405162461bcd60e51b815260206004820152601060248201526f14185d5cd8589b194e881c185d5cd95960821b6044820152606490fd5b3360009081527fa6eef7e35abe7026729641147f7915573c7e97b47efa546f5f6e3230263bcb49602052604090205460ff1690565b908160209103126106fe575180151581036106fe5790565b6001600160a01b039091168152602081019190915260400190565b9081526001600160a01b03909116602082015260400190565b156117c357565b60405162461bcd60e51b815260206004820152600f60248201526e496e76616c6964206164647265737360881b6044820152606490fd5b80600052600160205260406000203360005260205260ff60406000205416156118205750565b6044906040519063e2517d3f60e01b82523360048301526024820152fd5b6001600160a01b031660008181527fd52cfefb3f6fd7766669e08a03d2ceb3243383019e3a5fed2a519df30ee55b926020526040812054909190600080516020611c568339815191529060ff166118c85780835260016020526040832082845260205260408320600160ff19825416179055600080516020611c16833981519152339380a4600190565b505090565b6001600160a01b031660008181527fe1a43b5771e30cf668ec0dc18c42d6714aff29cbb9ec47bd8eb0b81d4a8bcc146020526040812054909190600080516020611c368339815191529060ff166118c85780835260016020526040832082845260205260408320600160ff19825416179055600080516020611c16833981519152339380a4600190565b906000918083526001602052604083209160018060a01b03169182845260205260ff604084205416156000146118c85780835260016020526040832082845260205260408320600160ff19825416179055600080516020611c16833981519152339380a4600190565b6001600160a01b031660008181527fe1a43b5771e30cf668ec0dc18c42d6714aff29cbb9ec47bd8eb0b81d4a8bcc146020526040812054909190600080516020611c368339815191529060ff16156118c8578083526001602052604083208284526020526040832060ff198154169055600080516020611c76833981519152339380a4600190565b6001600160a01b031660008181527fa6eef7e35abe7026729641147f7915573c7e97b47efa546f5f6e3230263bcb49602052604081205490919060ff1615611ac1578180526001602052604082208183526020526040822060ff1981541690553391600080516020611c768339815191528180a4600190565b5090565b6001600160a01b031660008181527fd52cfefb3f6fd7766669e08a03d2ceb3243383019e3a5fed2a519df30ee55b926020526040812054909190600080516020611c568339815191529060ff16156118c8578083526001602052604083208284526020526040832060ff198154169055600080516020611c76833981519152339380a4600190565b906000918083526001602052604083209160018060a01b03169182845260205260ff6040842054166000146118c8578083526001602052604083208284526020526040832060ff198154169055600080516020611c76833981519152339380a4600190565b90611bd95750805115611bc757805190602001fd5b604051630a12f52160e11b8152600490fd5b81511580611c0c575b611bea575090565b604051639996b31560e01b81526001600160a01b039091166004820152602490fd5b50803b15611be256fe2f8788117e7eff1d82e926ec794901d17c78024a50270940304540a733656f0dfcb9fcbfa83b897fb2d5cf4b58962164105c1e71489a37ef3ae0db3fdce576f6df8b4c520ffe197c5343c6f5aec59570151ef9a492f2c624fd45ddde6135ec42f6391f5c32d9c69d2a47ea670b442974b53935d1edc7fd64eb21e047a839171ba264697066735822122002781c30e5ea0e1272ff2034600167268a9477c7cb71cb0ec3e18401c4c02a5c64736f6c63430008190033",
  "linkReferences": {},
  "deployedLinkReferences": {}
}