{
  "_format": "hh-sol-artifact-1",
  "contractName": "WTON",
  "sourceName": "src/L1/Mock/token/WTON.sol",
  "abi": [
    {
      "inputs": [
        {
          "internalType": "contract TON",
          "name": "_ton",
          "type": "address"
        }
      ],
      "stateMutability": "nonpayable",
      "type": "constructor"
    },
    {
      "inputs": [
        {
          "internalType": "address",
          "name": "spender",
          "type": "address"
        },
        {
          "internalType": "uint256",
          "name": "allowance",
          "type": "uint256"
        },
        {
          "internalType": "uint256",
          "name": "needed",
          "type": "uint256"
        }
      ],
      "name": "ERC20InsufficientAllowance",
      "type": "error"
    },
    {
      "inputs": [
        {
          "internalType": "address",
          "name": "sender",
          "type": "address"
        },
        {
          "internalType": "uint256",
          "name": "balance",
          "type": "uint256"
        },
        {
          "internalType": "uint256",
          "name": "needed",
          "type": "uint256"
        }
      ],
      "name": "ERC20InsufficientBalance",
      "type": "error"
    },
    {
      "inputs": [
        {
          "internalType": "address",
          "name": "approver",
          "type": "address"
        }
      ],
      "name": "ERC20InvalidApprover",
      "type": "error"
    },
    {
      "inputs": [
        {
          "internalType": "address",
          "name": "receiver",
          "type": "address"
        }
      ],
      "name": "ERC20InvalidReceiver",
      "type": "error"
    },
    {
      "inputs": [
        {
          "internalType": "address",
          "name": "sender",
          "type": "address"
        }
      ],
      "name": "ERC20InvalidSender",
      "type": "error"
    },
    {
      "inputs": [
        {
          "internalType": "address",
          "name": "spender",
          "type": "address"
        }
      ],
      "name": "ERC20InvalidSpender",
      "type": "error"
    },
    {
      "inputs": [
        {
          "internalType": "address",
          "name": "owner",
          "type": "address"
        }
      ],
      "name": "OwnableInvalidOwner",
      "type": "error"
    },
    {
      "inputs": [
        {
          "internalType": "address",
          "name": "account",
          "type": "address"
        }
      ],
      "name": "OwnableUnauthorizedAccount",
      "type": "error"
    },
    {
      "inputs": [],
      "name": "ReentrancyGuardReentrantCall",
      "type": "error"
    },
    {
      "anonymous": false,
      "inputs": [
        {
          "indexed": true,
          "internalType": "address",
          "name": "owner",
          "type": "address"
        },
        {
          "indexed": true,
          "internalType": "address",
          "name": "spender",
          "type": "address"
        },
        {
          "indexed": false,
          "internalType": "uint256",
          "name": "value",
          "type": "uint256"
        }
      ],
      "name": "Approval",
      "type": "event"
    },
    {
      "anonymous": false,
      "inputs": [
        {
          "indexed": false,
          "internalType": "address",
          "name": "layer2",
          "type": "address"
        }
      ],
      "name": "DepositManagerOnApproveData",
      "type": "event"
    },
    {
      "anonymous": false,
      "inputs": [
        {
          "indexed": true,
          "internalType": "address",
          "name": "previousOwner",
          "type": "address"
        },
        {
          "indexed": true,
          "internalType": "address",
          "name": "newOwner",
          "type": "address"
        }
      ],
      "name": "OwnershipTransferred",
      "type": "event"
    },
    {
      "anonymous": false,
      "inputs": [
        {
          "indexed": true,
          "internalType": "address",
          "name": "from",
          "type": "address"
        },
        {
          "indexed": true,
          "internalType": "address",
          "name": "to",
          "type": "address"
        },
        {
          "indexed": false,
          "internalType": "uint256",
          "name": "value",
          "type": "uint256"
        }
      ],
      "name": "Transfer",
      "type": "event"
    },
    {
      "anonymous": false,
      "inputs": [],
      "name": "WtonMinted",
      "type": "event"
    },
    {
      "inputs": [
        {
          "internalType": "address",
          "name": "owner",
          "type": "address"
        },
        {
          "internalType": "address",
          "name": "spender",
          "type": "address"
        }
      ],
      "name": "allowance",
      "outputs": [
        {
          "internalType": "uint256",
          "name": "",
          "type": "uint256"
        }
      ],
      "stateMutability": "view",
      "type": "function"
    },
    {
      "inputs": [
        {
          "internalType": "address",
          "name": "spender",
          "type": "address"
        },
        {
          "internalType": "uint256",
          "name": "value",
          "type": "uint256"
        }
      ],
      "name": "approve",
      "outputs": [
        {
          "internalType": "bool",
          "name": "",
          "type": "bool"
        }
      ],
      "stateMutability": "nonpayable",
      "type": "function"
    },
    {
      "inputs": [
        {
          "internalType": "address",
          "name": "spender",
          "type": "address"
        },
        {
          "internalType": "uint256",
          "name": "amount",
          "type": "uint256"
        },
        {
          "internalType": "bytes",
          "name": "data",
          "type": "bytes"
        }
      ],
      "name": "approveAndCall",
      "outputs": [
        {
          "internalType": "bool",
          "name": "",
          "type": "bool"
        }
      ],
      "stateMutability": "nonpayable",
      "type": "function"
    },
    {
      "inputs": [
        {
          "internalType": "address",
          "name": "account",
          "type": "address"
        }
      ],
      "name": "balanceOf",
      "outputs": [
        {
          "internalType": "uint256",
          "name": "",
          "type": "uint256"
        }
      ],
      "stateMutability": "view",
      "type": "function"
    },
    {
      "inputs": [
        {
          "internalType": "uint256",
          "name": "value",
          "type": "uint256"
        }
      ],
      "name": "burn",
      "outputs": [],
      "stateMutability": "nonpayable",
      "type": "function"
    },
    {
      "inputs": [
        {
          "internalType": "address",
          "name": "account",
          "type": "address"
        },
        {
          "internalType": "uint256",
          "name": "amount",
          "type": "uint256"
        }
      ],
      "name": "burnFrom",
      "outputs": [],
      "stateMutability": "nonpayable",
      "type": "function"
    },
    {
      "inputs": [],
      "name": "decimals",
      "outputs": [
        {
          "internalType": "uint8",
          "name": "",
          "type": "uint8"
        }
      ],
      "stateMutability": "view",
      "type": "function"
    },
    {
      "inputs": [
        {
          "internalType": "address",
          "name": "_to",
          "type": "address"
        },
        {
          "internalType": "uint256",
          "name": "_amount",
          "type": "uint256"
        }
      ],
      "name": "mint",
      "outputs": [
        {
          "internalType": "bool",
          "name": "",
          "type": "bool"
        }
      ],
      "stateMutability": "nonpayable",
      "type": "function"
    },
    {
      "inputs": [],
      "name": "name",
      "outputs": [
        {
          "internalType": "string",
          "name": "",
          "type": "string"
        }
      ],
      "stateMutability": "view",
      "type": "function"
    },
    {
      "inputs": [
        {
          "internalType": "address",
          "name": "owner",
          "type": "address"
        },
        {
          "internalType": "address",
          "name": "",
          "type": "address"
        },
        {
          "internalType": "uint256",
          "name": "tonAmount",
          "type": "uint256"
        },
        {
          "internalType": "bytes",
          "name": "data",
          "type": "bytes"
        }
      ],
      "name": "onApprove",
      "outputs": [
        {
          "internalType": "bool",
          "name": "",
          "type": "bool"
        }
      ],
      "stateMutability": "nonpayable",
      "type": "function"
    },
    {
      "inputs": [],
      "name": "owner",
      "outputs": [
        {
          "internalType": "address",
          "name": "",
          "type": "address"
        }
      ],
      "stateMutability": "view",
      "type": "function"
    },
    {
      "inputs": [],
      "name": "renounceOwnership",
      "outputs": [],
      "stateMutability": "nonpayable",
      "type": "function"
    },
    {
      "inputs": [
        {
          "internalType": "bytes4",
          "name": "interfaceId",
          "type": "bytes4"
        }
      ],
      "name": "supportsInterface",
      "outputs": [
        {
          "internalType": "bool",
          "name": "",
          "type": "bool"
        }
      ],
      "stateMutability": "view",
      "type": "function"
    },
    {
      "inputs": [
        {
          "internalType": "uint256",
          "name": "tonAmount",
          "type": "uint256"
        }
      ],
      "name": "swapFromTON",
      "outputs": [
        {
          "internalType": "bool",
          "name": "",
          "type": "bool"
        }
      ],
      "stateMutability": "nonpayable",
      "type": "function"
    },
    {
      "inputs": [
        {
          "internalType": "address",
          "name": "to",
          "type": "address"
        },
        {
          "internalType": "uint256",
          "name": "tonAmount",
          "type": "uint256"
        }
      ],
      "name": "swapFromTONAndTransfer",
      "outputs": [
        {
          "internalType": "bool",
          "name": "",
          "type": "bool"
        }
      ],
      "stateMutability": "nonpayable",
      "type": "function"
    },
    {
      "inputs": [
        {
          "internalType": "uint256",
          "name": "wtonAmount",
          "type": "uint256"
        }
      ],
      "name": "swapToTON",
      "outputs": [
        {
          "internalType": "bool",
          "name": "",
          "type": "bool"
        }
      ],
      "stateMutability": "nonpayable",
      "type": "function"
    },
    {
      "inputs": [
        {
          "internalType": "address",
          "name": "to",
          "type": "address"
        },
        {
          "internalType": "uint256",
          "name": "wtonAmount",
          "type": "uint256"
        }
      ],
      "name": "swapToTONAndTransfer",
      "outputs": [
        {
          "internalType": "bool",
          "name": "",
          "type": "bool"
        }
      ],
      "stateMutability": "nonpayable",
      "type": "function"
    },
    {
      "inputs": [],
      "name": "symbol",
      "outputs": [
        {
          "internalType": "string",
          "name": "",
          "type": "string"
        }
      ],
      "stateMutability": "view",
      "type": "function"
    },
    {
      "inputs": [],
      "name": "ton",
      "outputs": [
        {
          "internalType": "contract TON",
          "name": "",
          "type": "address"
        }
      ],
      "stateMutability": "view",
      "type": "function"
    },
    {
      "inputs": [],
      "name": "totalSupply",
      "outputs": [
        {
          "internalType": "uint256",
          "name": "",
          "type": "uint256"
        }
      ],
      "stateMutability": "view",
      "type": "function"
    },
    {
      "inputs": [
        {
          "internalType": "address",
          "name": "to",
          "type": "address"
        },
        {
          "internalType": "uint256",
          "name": "value",
          "type": "uint256"
        }
      ],
      "name": "transfer",
      "outputs": [
        {
          "internalType": "bool",
          "name": "",
          "type": "bool"
        }
      ],
      "stateMutability": "nonpayable",
      "type": "function"
    },
    {
      "inputs": [
        {
          "internalType": "address",
          "name": "from",
          "type": "address"
        },
        {
          "internalType": "address",
          "name": "to",
          "type": "address"
        },
        {
          "internalType": "uint256",
          "name": "value",
          "type": "uint256"
        }
      ],
      "name": "transferFrom",
      "outputs": [
        {
          "internalType": "bool",
          "name": "",
          "type": "bool"
        }
      ],
      "stateMutability": "nonpayable",
      "type": "function"
    },
    {
      "inputs": [
        {
          "internalType": "address",
          "name": "newOwner",
          "type": "address"
        }
      ],
      "name": "transferOwnership",
      "outputs": [],
      "stateMutability": "nonpayable",
      "type": "function"
    }
  ],
  "bytecode": "0x6080346103cd57601f906001600160401b03601f196116b23881900385810183168501848111868210176103d2578592829160405283396020948591810103126103cd57516001600160a01b0380821695909490918690036103cd576100636103e8565b93600b85526a2bb930b83832b2102a27a760a91b828601526100836103e8565b92600494858552632baa27a760e11b8486015260019560009787895533156103b5578754336001600160a01b031980831682178b559b9091167f8be0079c531659141344cd1fd0a4f28419497f9722a3daafe3b4186f6b6457e08b80a380518581116103a25760059182548a81811c91168015610398575b8982101461038557908187849311610339575b5088908783116001146102dd578c926102d2575b5050600019600383901b1c191690891b1781555b86519485116102bf57600654918883811c931680156102b5575b878410146102a25750838211610260575b5050839183116001146101ff5750819060079487926101f4575b5050600019600383901b1c191690841b176006555b6301ffc9a760e01b84525260408083209260ff19938385825416179055632139e50b60e11b81522091825416179055736e1734ac57e76fcd7fd66266ae0c2547db3a713a81600854161760085560095416176009556040516112aa90816104088239f35b01519050388061017b565b600687528387209083169486939290885b87811061024957508360079710610230575b505050811b01600655610190565b015160001960f88460031b161c19169055388080610222565b828201518455889590930192918601918601610210565b600689528589209084808701821c830193888810610299575b01901c019087905b82811061028e5750610161565b898155018790610281565b93508293610279565b634e487b7160e01b8a5260229052602489fd5b92607f1692610150565b634e487b7160e01b895260418252602489fd5b015190503880610122565b908c91878d95168684528b8420935b8c828210610323575050841161030a575b505050811b018155610136565b015160001960f88460031b161c191690553880806102fd565b8385015186558f979095019493840193016102ec565b909150838c52888c2087808501861c8201928b861061037c575b918d918695949301871c01915b82811061036e57505061010e565b8e81558594508d9101610360565b92508192610353565b634e487b7160e01b8c526022855260248cfd5b90607f16906100fb565b634e487b7160e01b8a526041835260248afd5b604051631e4fbdf760e01b81528083018a9052602490fd5b600080fd5b634e487b7160e01b600052604160045260246000fd5b60408051919082016001600160401b038111838210176103d25760405256fe6080604052600436101561001257600080fd5b60003560e01c806301ffc9a71461018757806306fdde0314610182578063095ea7b31461017d57806318160ddd1461017857806323b872dd14610173578063313ce5671461016e57806340c10f19146101695780634273ca161461016457806342966c681461015f578063588420b71461015a57806370a0823114610155578063715018a61461015057806379cc67901461014b5780638da5cb5b1461014657806395d89b4114610141578063a9059cbb1461013c578063cae9ca5114610137578063cc48b94714610132578063dd62ed3e1461012d578063e34869d714610128578063e3b99e8514610123578063f2fde38b1461011e5763f53fe70f1461011957600080fd5b610a46565b6109be565b61098d565b610965565b610919565b6108f0565b610819565b610752565b61068c565b610663565b61063e565b6105e0565b6105a6565b610567565b610548565b6104ca565b610475565b610459565b6103b7565b610399565b610368565b61022d565b346101c95760203660031901126101c95760043563ffffffff60e01b81168091036101c9576000526007602052602060ff604060002054166040519015158152f35b600080fd5b60009103126101c957565b919082519283825260005b848110610205575050826000602080949584010152601f8019910116010190565b6020818301810151848301820152016101e4565b90602061022a9281815201906101d9565b90565b346101c957600080600319360112610339576040519080600554906001918060011c926001821692831561032f575b60209260208610851461031b5785885260208801949081156102fa57506001146102a1575b61029d87610291818903826107a6565b60405191829182610219565b0390f35b600560005294509192917f036b6384b5eca791c62761152d0c79bb0604c104a5fb6f4eb0703f3154bb3db05b8386106102e957505050910190506102918261029d3880610281565b8054858701529482019481016102cd565b60ff191685525050505090151560051b0190506102918261029d3880610281565b634e487b7160e01b82526022600452602482fd5b93607f169361025c565b80fd5b600435906001600160a01b03821682036101c957565b602435906001600160a01b03821682036101c957565b346101c95760403660031901126101c95761038e61038461033c565b602435903361119e565b602060405160018152f35b346101c95760003660031901126101c9576020600454604051908152f35b346101c95760603660031901126101c9576103d061033c565b6103d8610352565b6044359060018060a01b03831660005260036020526103fb336040600020610b9b565b54926001840161041c575b6104109350610c0f565b60405160018152602090f35b82841061043857610433836104109503338361122d565b610406565b604051637dc7a0d960e11b81528061045585873360048501610bf1565b0390fd5b346101c95760003660031901126101c9576020604051601b8152f35b346101c95760403660031901126101c95761049a61049161033c565b60243590610cd2565b60206040517f0989d9f2a7d52878602a18adb24e8b8687f1f764d9bbd018ebe64dce63d4f01b600080a160018152f35b346101c95760803660031901126101c9576104e361033c565b6104eb610352565b506064356001600160401b038082116101c957366023830112156101c95781600401359081116101c95736602482840101116101c95761029d92602461053693019060443590610a6e565b60405190151581529081906020820190565b346101c95760203660031901126101c95761056560043533610f4b565b005b346101c95760403660031901126101c957602061059761058561033c565b61058d610fc2565b6024359033610d27565b60016000556040519015158152f35b346101c95760203660031901126101c9576001600160a01b036105c761033c565b1660005260026020526020604060002054604051908152f35b346101c957600080600319360112610339576105fa610fe5565b600180546001600160a01b0319811690915581906001600160a01b03167f8be0079c531659141344cd1fd0a4f28419497f9722a3daafe3b4186f6b6457e08280a380f35b346101c95760403660031901126101c95761056561065a61033c565b60243590610f4b565b346101c95760003660031901126101c9576001546040516001600160a01b039091168152602090f35b346101c957600080600319360112610339576040519080600654906001918060011c9260018216928315610748575b60209260208610851461031b5785885260208801949081156102fa57506001146106ef5761029d87610291818903826107a6565b600660005294509192917ff652222313e28459528d920b65115c16c04f3efc82aaedc97be59f3f377c0d3f5b83861061073757505050910190506102918261029d3880610281565b80548587015294820194810161071b565b93607f16936106bb565b346101c95760403660031901126101c95761038e61076e61033c565b6024359033610c0f565b634e487b7160e01b600052604160045260246000fd5b6001600160401b0381116107a157604052565b610778565b90601f801991011681019081106001600160401b038211176107a157604052565b6001600160401b0381116107a157601f01601f191660200190565b9291926107ee826107c7565b916107fc60405193846107a6565b8294818452818301116101c9578281602093846000960137010152565b346101c95760603660031901126101c95761083261033c565b6024356044356001600160401b0381116101c957366023820112156101c9576108659036906024816004013591016107e2565b60085460405163095ea7b360e01b81529192919060209082906001600160a01b031681600081610899888b60048401610bca565b03925af19081156108eb576000916108bc575b50156101c9576104109233610e9f565b6108de915060203d6020116108e4575b6108d681836107a6565b810190610bb2565b386108ac565b503d6108cc565b610be5565b346101c95760003660031901126101c9576009546040516001600160a01b039091168152602090f35b346101c95760403660031901126101c957602061095c61093761033c565b61093f610352565b6001600160a01b0390911660009081526003845260409020610b9b565b54604051908152f35b346101c95760203660031901126101c95761097e610fc2565b60206105976004353333610d27565b346101c95760403660031901126101c95760206105976109ab61033c565b6109b3610fc2565b60243590339061102d565b346101c95760203660031901126101c9576109d761033c565b6109df610fe5565b6001600160a01b03908116908115610a2d57600180546001600160a01b031981168417909155167f8be0079c531659141344cd1fd0a4f28419497f9722a3daafe3b4186f6b6457e0600080a3005b604051631e4fbdf760e01b815260006004820152602490fd5b346101c95760203660031901126101c957610a5f610fc2565b6020610597600435333361102d565b6009549193909290916001600160a01b03163303610b1357610aad610ab291610aa586610a9f610b0e988880610d27565b50610dbd565b9336916107e2565b610dd6565b92610abe83838361119e565b7fd0aa23d1c7a13990297d5bd73e52289ecb3893b09d3f356c4b3e5515c87167aa610b06610aeb86610ded565b6040516001600160a01b039097168752959081906020820190565b0390a1610e9f565b600190565b60405162461bcd60e51b815260206004820152602660248201527f57544f4e3a206f6e6c792061636365707420544f4e20617070726f76652063616044820152656c6c6261636b60d01b6064820152608490fd5b6001600160a01b0316600090815260036020526040902090565b6001600160a01b0316600090815260026020526040902090565b9060018060a01b0316600052602052604060002090565b908160209103126101c9575180151581036101c95790565b6001600160a01b039091168152602081019190915260400190565b6040513d6000823e3d90fd5b604091949392606082019560018060a01b0316825260208201520152565b916001600160a01b0380841692908315610cb9578116938415610ca057610c3581610b81565b54838110610c8257610c7d928492610c6160008051602061125583398151915296610c67940391610b81565b55610b81565b8054820190556040519081529081906020820190565b0390a3565b906104558460405193849363391434e360e21b855260048501610bf1565b60405163ec442f0560e01b815260006004820152602490fd5b604051634b637e8f60e11b815260006004820152602490fd5b6001600160a01b03811691908215610ca05760045490828201809211610d2257600092610d1360209260008051602061125583398151915294600455610b81565b818154019055604051908152a3565b610da7565b610d3c602092610d3685610dbd565b90610cd2565b6009546040516323b872dd60e01b81526001600160a01b039283166004820152306024820152604481019490945283916064918391600091165af180156108eb57610d88575b50600190565b610da09060203d6020116108e4576108d681836107a6565b5038610d82565b634e487b7160e01b600052601160045260246000fd5b90633b9aca0091828102928184041490151715610d2257565b9060408251036101c9576040602083015192015190565b9060405191604083018381106001600160401b038211176107a157604052602083526020830152565b15610e1e5750565b60405162461bcd60e51b8152602060048201529081906104559060248301906101d9565b15610e4957565b60405162461bcd60e51b815260206004820152602860248201527f45524332304f6e417070726f76653a206661696c656420746f2063616c6c206f6044820152676e417070726f766560c01b6064820152608490fd5b600091829182610f3d96610f00602097610ef26040519384928b840197632139e50b60e11b895260018060a01b0380911660248601528916604485015260648401526080608484015260a48301906101d9565b03601f1981018352826107a6565b51925af13d15610f3f57610f363d610f17816107c7565b90610f2560405192836107a6565b81529182903d60008684013e610e16565b0151610e42565b565b610f3660608092610e16565b91906001600160a01b038316908115610cb957610f6784610b81565b5493818510610fa45781602091610f9260008051602061125583398151915294600097980391610b81565b558060045403600455604051908152a3565b610455859260405193849363391434e360e21b855260048501610bf1565b600260005414610fd3576002600055565b604051633ee5aeb560e01b8152600490fd5b6001546001600160a01b03163303610ff957565b60405163118cdaa760e01b8152336004820152602490fd5b908160209103126101c9575190565b91908203918211610d2257565b9161103d81633b9aca0093610f4b565b6009549190049061105e906001600160a01b03165b6001600160a01b031690565b6040516370a0823160e01b8152306004820152602093919290918483602481875afa80156108eb578593600091611171575b50828110611107575b506009546110d394506110b4906001600160a01b0316611052565b90600060405180968195829463a9059cbb60e01b845260048401610bca565b03925af180156108eb576110e9575b5050600190565b816110ff92903d106108e4576108d681836107a6565b5038806110e2565b61111391935082611020565b92803b156101c9576040516340c10f1960e01b8152936000918591829084908290611142903060048401610bca565b03925af19182156108eb576110d393859315611099578061116561116b9261078e565b806101ce565b38611099565b6111919150843d8611611197575b61118981836107a6565b810190611011565b38611090565b503d61117f565b6001600160a01b0380821692919083156112145782169384156111fb57806111f17f8c5be1e5ebec7d5bd14f71427d1e84f3dd0314c0f7b2291e5b200ac8c7c3b925946111ec602095610b67565b610b9b565b55604051908152a3565b604051634a1406b160e11b815260006004820152602490fd5b60405163e602df0560e01b815260006004820152602490fd5b906001600160a01b0380831615611214578116156111fb576111ec61125192610b67565b5556feddf252ad1be2c89b69c2b068fc378daa952ba7f163c4a11628f55a4df523b3efa2646970667358221220088594015aafe1bb06a11f498b37fd9b72d0049582ed33e24b9c895ac5eeb20b64736f6c63430008190033",
  "linkReferences": {},
  "deployedLinkReferences": {}
}