{
  "_format": "hh-sol-artifact-1",
  "contractName": "CoinageFactory",
  "sourceName": "src/L1/Mock/CoinageFactory.sol",
  "abi": [
    {
      "inputs": [],
      "stateMutability": "nonpayable",
      "type": "constructor"
    },
    {
      "inputs": [
        {
          "internalType": "address",
          "name": "owner",
          "type": "address"
        }
      ],
      "name": "OwnableInvalidOwner",
      "type": "error"
    },
    {
      "inputs": [
        {
          "internalType": "address",
          "name": "account",
          "type": "address"
        }
      ],
      "name": "OwnableUnauthorizedAccount",
      "type": "error"
    },
    {
      "anonymous": false,
      "inputs": [
        {
          "indexed": true,
          "internalType": "address",
          "name": "previousOwner",
          "type": "address"
        },
        {
          "indexed": true,
          "internalType": "address",
          "name": "newOwner",
          "type": "address"
        }
      ],
      "name": "OwnershipTransferred",
      "type": "event"
    },
    {
      "inputs": [],
      "name": "autoCoinageLogic",
      "outputs": [
        {
          "internalType": "address",
          "name": "",
          "type": "address"
        }
      ],
      "stateMutability": "view",
      "type": "function"
    },
    {
      "inputs": [],
      "name": "deploy",
      "outputs": [
        {
          "internalType": "address",
          "name": "",
          "type": "address"
        }
      ],
      "stateMutability": "nonpayable",
      "type": "function"
    },
    {
      "inputs": [],
      "name": "owner",
      "outputs": [
        {
          "internalType": "address",
          "name": "",
          "type": "address"
        }
      ],
      "stateMutability": "view",
      "type": "function"
    },
    {
      "inputs": [],
      "name": "renounceOwnership",
      "outputs": [],
      "stateMutability": "nonpayable",
      "type": "function"
    },
    {
      "inputs": [
        {
          "internalType": "address",
          "name": "newLogic",
          "type": "address"
        }
      ],
      "name": "setAutoCoinageLogic",
      "outputs": [],
      "stateMutability": "nonpayable",
      "type": "function"
    },
    {
      "inputs": [
        {
          "internalType": "address",
          "name": "newOwner",
          "type": "address"
        }
      ],
      "name": "transferOwnership",
      "outputs": [],
      "stateMutability": "nonpayable",
      "type": "function"
    }
  ],
  "bytecode": "0x60808060405234607857331560625760008054336001600160a01b03198216811783556040519290916001600160a01b0316907f8be0079c531659141344cd1fd0a4f28419497f9722a3daafe3b4186f6b6457e09080a3612dec908161007e8239f35b631e4fbdf760e01b815260006004820152602490fd5b600080fdfe60406080815260048036101561001457600080fd5b600091823560e01c8063715018a6146102b3578063775c300c1461018c5780638ad68763146101635780638da5cb5b1461013b578063989e3f28146100f25763f2fde38b1461006257600080fd5b346100ee5760203660031901126100ee576001600160a01b038235818116939192908490036100ea5761009361030d565b83156100d457505082546001600160a01b0319811683178455167f8be0079c531659141344cd1fd0a4f28419497f9722a3daafe3b4186f6b6457e08380a380f35b51631e4fbdf760e01b8152908101849052602490fd5b8480fd5b8280fd5b50503461013757602036600319011261013757356001600160a01b038116908190036101375761012061030d565b600180546001600160a01b03191691909117905580f35b5080fd5b838234610137578160031936011261013757905490516001600160a01b039091168152602090f35b83823461013757816003193601126101375760015490516001600160a01b039091168152602090f35b508290346101375781600319360112610137578051612a7d9081810167ffffffffffffffff92828210848311176102a05790829161033a8339039084f08015610294576001600160a01b031692833b15610291578251635e9d09fb60e11b8152608086820152600a60848201526929ba30b5b2b22baa27a760b11b60a482015260c06024820152600560c48201526439abaa27a760d91b60e4820152676765c793fa10079d601b1b60448201523360648201529181836101048183895af180156102875761025f575b6020858551908152f35b82116102745750602093508152838080610255565b634e487b7160e01b815260418552602490fd5b84513d84823e3d90fd5b80fd5b505051903d90823e3d90fd5b634e487b7160e01b865260418752602486fd5b83346102915780600319360112610291576102cc61030d565b80546001600160a01b03198116825581906001600160a01b03167f8be0079c531659141344cd1fd0a4f28419497f9722a3daafe3b4186f6b6457e08280a380f35b6000546001600160a01b0316330361032157565b60405163118cdaa760e01b8152336004820152602490fdfe60808060405234601557612a62908161001b8239f35b600080fdfe6080604081815260048036101561001557600080fd5b600092833560e01c908162d87a9c146116d65750806301f6a80a1461169e57806301ffc9a714611649578063024c2ddd146116005780630461fdc5146115b457806306fdde031461152757806308eef06d146114e857806313977042146114cb5780631785f53c146114a357806318160ddd1461148357806319d5dce914611423578063248a9ca3146113fa57806324d7806c146113b55780632ab6f8db1461139b5780632f2ff15d146113715780633092afd514611349578063313ce5671461132d57806336568abe146112e657806340c10f191461113357806342966c68146111155780634ee2cd7e146110f257806350d2a276146110af57806354f703f81461107b578063550d01a31461103d57806356fabf68146110135780635deaecec14610fe2578063614db8b214610fb857806363a8fd8914610f965780636957f38b14610f7557806369f499b114610f1f5780636d70f7ae14610ecc5780636fb7f55814610ea35780637048027514610e5157806370a0823114610e1c578063715018a614610de357806375829def14610da75780637657f20a14610d7157806379cc679014610d4c578063817e9d3114610bb7578063837afbc014610b985780638639583f14610b615780638f32d59b14610b3057806391d1485414610aeb57806395d89b4114610a2d578063981b24d0146109fd578063983b2d56146109d557806398650275146109b85780639870d7fe14610990578063a217fddf14610975578063aa271e1a14610922578063ac8a584a146108e1578063b7c246d7146108ba578063b7d78b1a14610889578063b911135f14610857578063bd3a13f614610535578063cfbd4885146104d0578063d5391393146104a7578063d547741f1461046d578063f2fde38b1461035a578063f5b541a61461032d5763fad8b32a146102c157600080fd5b34610329576020366003190112610329576103206001610325936102e3611743565b938680528060205281872033885260205261030360ff8389205416611947565b6000805160206129ed833981519152875260205285200154611d63565b612030565b5080f35b8280fd5b505034610356578160031936011261035657602090516000805160206129ed8339815191528152f35b5080fd5b50829034610356576020908160031936011261032957610378611743565b91838052818152848420338552815261039660ff8686205416611947565b83805281815284842033855281526103b360ff8686205416611947565b6001600160a01b038316801561042f5733146103f45783946103e292600192866103e797525285200154611d63565b611da7565b506103f13361199f565b80f35b845162461bcd60e51b815291820152601660248201527520b1b1b2b9b9b4b136329d1039b0b6b29030b236b4b760511b604482015260649150fd5b855162461bcd60e51b8152808401839052601860248201527741636365737369626c653a207a65726f206164647265737360401b6044820152606490fd5b5034610329578160031936011261032957610325916104a2600183359261049261175e565b9484885260205286200154611d63565b612131565b505034610356578160031936011261035657602090516000805160206129cd8339815191528152f35b5034610329576020366003190112610329576105306001610325936104f3611743565b938680528060205281872033885260205261051360ff8389205416611947565b6000805160206129cd833981519152875260205285200154611d63565b611fa8565b5034610329576080366003190112610329576001600160401b0391813583811161085357610566903690840161187e565b9260243581811161084f5761057e903690850161187e565b6064356001600160a01b03811695919086900361084b57868052602094600c8652848820546108125782518481116107ff57806105bc600654611774565b94601f958681116107b2575b50889086831160011461074d578b92610742575b50508160011b916000199060031b1c1916176006555b815193841161072f5750610607600754611774565b8281116106ee575b5084918311600114610685576106639493929187918361067a575b50508160011b916000199060031b1c1916176007555b600c81519261064e846116f1565b60443584528681850152868052528420611b67565b600580546001600160a01b03191691909117905580f35b01519050388061062a565b600787528487209190601f198416885b8181106106d7575091600193918561066398979694106106be575b505050811b01600755610640565b015160001960f88460031b161c191690553880806106b0565b929387600181928786015181550195019301610695565b600788528588208380860160051c820192888710610726575b0160051c01905b81811061071b575061060f565b88815560010161070e565b92508192610707565b634e487b7160e01b885260419052602487fd5b0151905038806105dc565b60068c52898c209250601f1984168c5b8b82821061079c575050908460019594939210610783575b505050811b016006556105f2565b015160001960f88460031b161c19169055388080610775565b600185968293968601518155019501930161075d565b90915060068b52888b208680850160051c8201928b86106107f6575b9085949392910160051c01905b8181106107e857506105c8565b8c81558493506001016107db565b925081926107ce565b634e487b7160e01b895260418252602489fd5b845162461bcd60e51b81529081018690526013602482015272185b1c9958591e481a5b9a5d1a585b1a5e9959606a1b6044820152606490fd5b8680fd5b8580fd5b8480fd5b50346103295760203660031901126103295735825260016020908152918190205490516001600160a01b039091168152f35b503461032957602036600319011261032957918192358152600a602052206001815491015482519182526020820152f35b505034610356578160031936011261035657602090516b204fce5e3e250261100000008152f35b50346103295760203660031901126103295761091d60ff6103f193610904611743565b9386805260205280862033875260205285205416611947565b6119cd565b5034610329576020366003190112610329578160209360ff92610943611743565b6000805160206129cd83398151915283529086528282206001600160a01b039091168252855220549151911615158152f35b50503461035657816003193601126103565751908152602090f35b5034610329576020366003190112610329576109b36001610325936102e3611743565b611eb5565b83346109d257806003193601126109d2576103f1336119e6565b80fd5b5034610329576020366003190112610329576109f86001610325936104f3611743565b611e26565b5091346109d25760203660031901126109d25750610a26610a2060209335611a43565b906123bb565b9051908152f35b50503461035657816003193601126103565780519082600754610a4f81611774565b90818552602092600191600181169081600014610ac95750600114610a8e575b610a8a8686610a80828b0383611722565b51918291826117ae565b0390f35b929550600783528583205b828410610ab65750505082610a8a94610a80928201019438610a6f565b8054868501880152928601928101610a99565b60ff191687860152505050151560051b8301019250610a8082610a8a38610a6f565b50346103295781600319360112610329578160209360ff92610b0b61175e565b813583529086528282206001600160a01b039091168252855220549151911615158152f35b5034610329578260031936011261032957818360ff9281602096528552818120338252855220541690519015158152f35b505034610356578060031936011261035657610a8a90610b8b610b82611743565b60243590611adb565b92909151928392836117f7565b505034610356578160031936011261035657602090600f549051908152f35b5091346109d25760203660031901126109d257610bd2611c62565b818435925b6b204fce5e3e25026110000000841015610d2357845193610bf7856116f1565b84526020840152610c066118d4565b600b5480610cee5781835b10610c68575b6020867f29ca2230155ed7b305631c2160bcce185fe471567c0e99ae17de3b6a909a838d8787610c5082858a8a8152600c895220611b67565b610c5e8451928392836117f7565b0390a15160018152f35b600160401b811015610cdb5760209650938581949383610ccf610c5095610cb68a60017f29ca2230155ed7b305631c2160bcce185fe471567c0e99ae17de3b6a909a838d9c01600b5561181a565b90919082549060031b91821b91600019901b1916179055565b93509394955050610c17565b634e487b7160e01b835260418752602483fd5b6000198101818111610d1057610d04839161181a565b90549060031b1c610c11565b634e487b7160e01b845260118852602484fd5b6000198114610d39576001019260011c92610bd7565b634e487b7160e01b825260118652602482fd5b505034610356573660031901126109d2576103f1610d68611743565b602435906121e7565b83346109d25760203660031901126109d2576001600160a01b03610d93611743565b1660018060a01b0319600554161760055580f35b50829034610356576020908160031936011261032957610dc5611743565b9183805281815284842033855281526103b360ff8686205416611947565b5034610329578260031936011261032957610e139160ff9184805260205280842033855260205283205416611947565b6103f13361199f565b50503461035657602036600319011261035657602090610a26610e45610e40611743565b611cc4565b83815191015190611b85565b5034610329576020366003190112610329576103e2600161032593610e74611743565b9386805280602052818720338852602052610e9460ff8389205416611947565b86805260205285200154611d63565b50503461035657816003193601126103565760055490516001600160a01b039091168152602090f35b5034610329576020366003190112610329578160209360ff92610eed611743565b6000805160206129ed83398151915283529086528282206001600160a01b039091168252855220549151911615158152f35b505034610356578060031936011261035657610f39611743565b6001600160a01b03168252600d602052808220805460243593908410156109d25750602092610f6791611866565b91905490519160031b1c8152f35b5091346109d25760203660031901126109d25750610b8b610a8a9235611a43565b50503461035657816003193601126103565760ff602092541690519015158152f35b50346103295760203660031901126103295735916009548310156109d25750610f6760209261184b565b503461032957602036600319011261032957918192358152600c602052206001815491015482519182526020820152f35b5034610329576020366003190112610329573591600b548310156109d25750610f6760209261181a565b5050346103565760203660031901126103565760209160ff9082906001600160a01b03611068611743565b1681526002855220541690519015158152f35b505034610356578160031936011261035657602090610a2661109b611c62565b6110a98482519201516119ff565b90611a30565b5034610329576020366003190112610329573563ffffffff60e01b811680910361032957825260036020908152918190205490516001600160a01b039091168152f35b505034610356578060031936011261035657602090610a26610a20610b82611743565b838234610356576020366003190112610356576103f19035336121e7565b503461032957816003193601126103295761114c611743565b602435936001600160a01b03821692909190831561128d575082859182611171611c62565b9161117a611bec565b9261118482611cc4565b91825160209b8c918286015161119991611b85565b8751838901516111a891611b85565b916111b291612196565b6111ba611c62565b51906111c590612984565b906111cf91611abb565b956111d991612196565b6111e1611c62565b51906111ec90612984565b906111f691611abb565b920180518b5195611206876116f1565b86528c860152518a5192611219846116f1565b83528b83015261122a908285612522565b885193849361123993856121a3565b037f452b30c947ea249a4a1a2c0410f1780e479e022d06691644108f38c3b3e17c4791a28484519182527fddf252ad1be2c89b69c2b068fc378daa952ba7f163c4a11628f55a4df523b3ef91a35160018152f35b608490602086519162461bcd60e51b8352820152602d60248201527f4175746f5265666163746f72436f696e6167653a206d696e7420746f2074686560448201526c207a65726f206164647265737360981b6064820152fd5b5091903461035657806003193601126103565761130161175e565b90336001600160a01b0383160361131e5750610325919235612131565b5163334bd91960e11b81528390fd5b50503461035657816003193601126103565760209051601b8152f35b50346103295760203660031901126103295761136c60ff6103f193610904611743565b6119e6565b503461032957816003193601126103295761032591611396600183359261049261175e565b611f3f565b83346109d257806003193601126109d2576103f1336119cd565b5034610329576020366003190112610329578160209360ff926113d6611743565b8280529086528282206001600160a01b039091168252855220549151911615158152f35b503461032957602036600319011261032957816020938260019335825285522001549051908152f35b8284346109d25760203660031901126109d25761146d90611442611743565b908060208551611451816116f1565b828152015260208451611463816116f1565b8281520152611cc4565b610a8a611478611c62565b9251928392836117f7565b505034610356578160031936011261035657602090610a26610e45611bec565b5034610329576020366003190112610329576114c660ff6103f193610904611743565b61199f565b505034610356578160031936011261035657602090610a266118d4565b8284346109d257806003193601126109d2578060208351611508816116f1565b82815201526020825161151a816116f1565b828152015261146d611bec565b5050346103565781600319360112610356578051908260065461154981611774565b90818552602092600191600181169081600014610ac9575060011461157957610a8a8686610a80828b0383611722565b929550600683528583205b8284106115a15750505082610a8a94610a80928201019438610a6f565b8054868501880152928601928101611584565b5050346103565780600319360112610356579081906001600160a01b036115d9611743565b168152600e6020528181206024358252602052206001815491015482519182526020820152f35b5050346103565780600319360112610356578060209261161e611743565b61162661175e565b6001600160a01b0391821683526008865283832091168252845220549051908152f35b503461032957602036600319011261032957359063ffffffff60e01b82168092036103295760209250637965db0b60e01b821491821561168d575b50519015158152f35b6301ffc9a760e01b14915038611684565b5091346109d257816003193601126109d25750610a26602080938351906116c4826116f1565b35908181526024359283910152611b85565b84903461035657816003193601126103565780600260209252f35b604081019081106001600160401b0382111761170c57604052565b634e487b7160e01b600052604160045260246000fd5b90601f801991011681019081106001600160401b0382111761170c57604052565b600435906001600160a01b038216820361175957565b600080fd5b602435906001600160a01b038216820361175957565b90600182811c921680156117a4575b602083101461178e57565b634e487b7160e01b600052602260045260246000fd5b91607f1691611783565b6020808252825181830181905290939260005b8281106117e357505060409293506000838284010152601f8019910116010190565b8181018601518482016040015285016117c1565b815181526020918201518282015282516040820152910151606082015260800190565b600b5481101561183557600b60005260206000200190600090565b634e487b7160e01b600052603260045260246000fd5b60095481101561183557600960005260206000200190600090565b80548210156118355760005260206000200190600090565b81601f82011215611759578035906001600160401b03821161170c57604051926118b2601f8401601f191660200185611722565b8284526020838301011161175957816000926020809301838601378301015290565b6005546040516309cbb82160e11b815290602090829060049082906001600160a01b03165afa90811561193b5760009161190c575090565b90506020813d602011611933575b8161192760209383611722565b81010312611759575190565b3d915061191a565b6040513d6000823e3d90fd5b1561194e57565b60405162461bcd60e51b815260206004820152602360248201527f41757468436f6e74726f6c3a2043616c6c6572206973206e6f7420616e20616460448201526236b4b760e91b6064820152608490fd5b336001600160a01b038216036119bb576119b8906120b8565b50565b60405163334bd91960e11b8152600490fd5b336001600160a01b038216036119bb576119b890612030565b336001600160a01b038216036119bb576119b890611fa8565b8015611a2a5760ff8111611a14576001901b90565b634e487b7160e01b600052601160045260246000fd5b50600190565b81810292918115918404141715611a1457565b90611ab8611ab2604060208151611a59816116f1565b600091818380935201528060208351611a71816116f1565b82815201528060208351611a84816116f1565b8281520152611a9c611a946118d4565b87111561240f565b611aa5866126d8565b8152600a60205220611bce565b9261245b565b90565b8115611ac5570490565b634e487b7160e01b600052601260045260246000fd5b611ab2611ab8919392936040908151611af3816116f1565b6000918282528260208093015282828551611b0d816116f1565b828152015282828551611b1f816116f1565b8281520152611b37611b2f6118d4565b89111561240f565b60018060a01b031690818352600d8152611b5388858520612899565b918352600e81528383209183525220611bce565b906020600191805184550151910155565b91908203918211611a1457565b908115611bc7576020611ba2611b99611c62565b938451906124a1565b920151818111611bb157505090565b611bc2611ab893926110a992611b78565b6119ff565b5050600090565b90604051611bdb816116f1565b602060018294805484520154910152565b6020604051611bfa816116f1565b600091818380935201528060095480611c23575b5081604091611ab89352600a60205220611bce565b600019810191508111611c4e57611ab891611c3f60409261184b565b90549060031b1c915091611c0e565b634e487b7160e01b82526011600452602482fd5b6020604051611c70816116f1565b6000918183809352015280600b5480611c99575b5081604091611ab89352600c60205220611bce565b600019810191508111611c4e57611ab891611cb560409261181a565b90549060031b1c915091611c84565b602090604051611cd3816116f1565b600080825292018290526001600160a01b0316808252600d60205260408220805483929181611d1d575b505091604091611ab8938252600e60205282822090825260205220611bce565b919250600019810191908211611d4f5791611d3e611ab89492604094611866565b90549060031b1c9281929450611cfd565b634e487b7160e01b84526011600452602484fd5b80600052600460205260406000203360005260205260ff6040600020541615611d895750565b6044906040519063e2517d3f60e01b82523360048301526024820152fd5b6001600160a01b031660008181527f17ef568e3e12ab5b9c7254a8d58478811de00f9e6eb34345acd53bf8fd09d3ec602052604081205490919060ff16611e225781805260046020526040822081835260205260408220600160ff1982541617905533916000805160206129ad8339815191528180a4600190565b5090565b6001600160a01b031660008181527fc8eb82122b0a761efb0e99f166311d3c9fc899bad9a87f4be6a6aaea831ff0e260205260408120549091906000805160206129cd8339815191529060ff16611eb05780835260046020526040832082845260205260408320600160ff198254161790556000805160206129ad833981519152339380a4600190565b505090565b6001600160a01b031660008181527fd040eb565e09a47b48cd8067d32ca1f9075290bcdf8bb7535df4a4d0830da9f460205260408120549091906000805160206129ed8339815191529060ff16611eb05780835260046020526040832082845260205260408320600160ff198254161790556000805160206129ad833981519152339380a4600190565b906000918083526004602052604083209160018060a01b03169182845260205260ff60408420541615600014611eb05780835260046020526040832082845260205260408320600160ff198254161790556000805160206129ad833981519152339380a4600190565b6001600160a01b031660008181527fc8eb82122b0a761efb0e99f166311d3c9fc899bad9a87f4be6a6aaea831ff0e260205260408120549091906000805160206129cd8339815191529060ff1615611eb0578083526004602052604083208284526020526040832060ff198154169055600080516020612a0d833981519152339380a4600190565b6001600160a01b031660008181527fd040eb565e09a47b48cd8067d32ca1f9075290bcdf8bb7535df4a4d0830da9f460205260408120549091906000805160206129ed8339815191529060ff1615611eb0578083526004602052604083208284526020526040832060ff198154169055600080516020612a0d833981519152339380a4600190565b6001600160a01b031660008181527f17ef568e3e12ab5b9c7254a8d58478811de00f9e6eb34345acd53bf8fd09d3ec602052604081205490919060ff1615611e22578180526004602052604082208183526020526040822060ff1981541690553391600080516020612a0d8339815191528180a4600190565b906000918083526004602052604083209160018060a01b03169182845260205260ff604084205416600014611eb0578083526004602052604083208284526020526040832060ff198154169055600080516020612a0d833981519152339380a4600190565b91908201809211611a1457565b815181526020918201518282015282516040820152918101516060830152825160808301529182015160a0820152825160c082015291015160e08201526101000190565b91906001600160a01b03831690811561235e57612202611c62565b61220a611bec565b9461221481611cc4565b908651966122286020988983015190611b85565b9161223884518a86015190611b85565b928684101580612354575b15612318579361230c88947f452b30c947ea249a4a1a2c0410f1780e479e022d06691644108f38c3b3e17c47946123008d999560009d9e6122ce6122b18e7fddf252ad1be2c89b69c2b068fc378daa952ba7f163c4a11628f55a4df523b3ef9f9d6122b1826122c892611b78565b6122c36122bc611c62565b5191612984565b611abb565b97611b78565b97018051604051956122df876116f1565b86528c86015251604051976122f3896116f1565b88528b8801528387612522565b604051948594856121a3565b0390a2604051908152a3565b60405162461bcd60e51b8152600481018b90526014602482015273696e73756666696369656e742062616c616e636560601b6044820152606490fd5b5086811015612243565b60405162461bcd60e51b815260206004820152602f60248201527f4175746f5265666163746f72436f696e6167653a206275726e2066726f6d207460448201526e6865207a65726f206164647265737360881b6064820152608490fd5b9081518015612407576123d26020918351906124a1565b9182845201519060208301518083116123ed575b5050505190565b611bc26110a9916123fd94611b78565b81523880806123e6565b505050600090565b1561241657565b60405162461bcd60e51b815260206004820152601f60248201527f736e617073686f744964203e2070726f6772657373536e617073686f744964006044820152606490fd5b61248c906000602060405161246f816116f1565b828152015261248761247f6118d4565b82111561240f565b6127cf565b600052600c602052611ab86040600020611bce565b6000918015918215612502575b5050156124c657676765c793fa10079d601b1b900490565b60405162461bcd60e51b815260206004820152601460248201527364732d6d6174682d6d756c2d6f766572666c6f7760601b6044820152606490fd5b9150915061251a6125138383611a30565b9283611abb565b1438806124ae565b92919261252d6118d4565b9360018060a01b0316600094818652602091600d835260409384882080549081156000146126b557505087915b6009548061267f575088925b811561264c57908480949392106125f8575b90612593918a52600e8652868a20848b528652868a20611b67565b106125ad575b8591600a916125ab9697525220611b67565b565b600954600160401b8110156125e45791816125d9600a93610cb68660016125ab9b9c980160095561184b565b915091959450612599565b634e487b7160e01b87526041600452602487fd5b80919293508952600d8552858920805490600160401b821015612638579161263086610cb684612593966001849a9997018155611866565b909150612578565b634e487b7160e01b8b52604160045260248bfd5b865162461bcd60e51b815260048101879052600c60248201526b1e995c9bc81858d8dbdd5b9d60a21b6044820152606490fd5b60001981019081116126a1576126949061184b565b90549060031b1c92612566565b634e487b7160e01b8a52601160045260248afd5b60001982019182116126a157906126cb91611866565b90549060031b1c9161255a565b9060095480156127c85760001992818401918211611a14576126f98261184b565b94905460039560031b1c8210156127bb5760009160098352602083205481106127b35791908193925b848411612742575050505061273891925061184b565b90549060031b1c90565b909192936127508186612196565b600180820180921161279f571c90826127688361184b565b9054908a1b1c1161277e5750935b929190612722565b94508281019081111561277657634e487b7160e01b84526011600452602484fd5b634e487b7160e01b86526011600452602486fd5b509093505050565b505061273891925061184b565b5060009150565b90600b5480156127c85760001992818401918211611a14576127f08261181a565b94905460039560031b1c82101561288c57600091600b8352602083205481106127b35791908193925b84841161282f575050505061273891925061181a565b9091929361283d8186612196565b600180820180921161279f571c90826128558361181a565b9054908a1b1c1161286b5750935b929190612819565b94508281019081111561286357634e487b7160e01b84526011600452602484fd5b505061273891925061181a565b805491821561240757600019838101938411611a14576128b98484611866565b92905460039360031b1c811015612977576000928484526020842054821061296e57929392849291905b8587116128f857505050506127389250611866565b90919293946129078188612196565b600180820180921161295a571c90836129208389611866565b905490851b1c116129395750955b9594939291906128e3565b96508381019081111561292e57634e487b7160e01b85526011600452602485fd5b634e487b7160e01b87526011600452602487fd5b50505091505090565b5050509061273891611866565b676765c793fa10079d601b1b808202929190811582850482141715611a14578304036124c65756fe2f8788117e7eff1d82e926ec794901d17c78024a50270940304540a733656f0df0887ba65ee2024ea881d91b74c2450ef19e1557f03bed3ea9f16b037cbe2dc9523a704056dcd17bcf83bed8b68c59416dac1119be77755efe3bde0a64e46e0cf6391f5c32d9c69d2a47ea670b442974b53935d1edc7fd64eb21e047a839171ba2646970667358221220453287f4c7a95f13dce1dbdd1d3d9d6c021a5a8d505c70d7c835c52c4c409f5764736f6c63430008190033a264697066735822122065d1a2660e7a66c730f7db25eabfe442024fea554ee8c1766bfef45c0d57b9cc64736f6c63430008190033",
  "linkReferences": {},
  "deployedLinkReferences": {}
}