{
  "_format": "hh-sol-artifact-1",
  "contractName": "WstonSwapPoolStorageV2",
  "sourceName": "src/L2/WstonSwapPoolStorageV2.sol",
  "abi": [
    {
      "inputs": [],
      "name": "ContractTonBalanceOrAllowanceTooLow",
      "type": "error"
    },
    {
      "inputs": [
        {
          "internalType": "uint256",
          "name": "amount",
          "type": "uint256"
        }
      ],
      "name": "FailedToApproveTon",
      "type": "error"
    },
    {
      "inputs": [],
      "name": "WrongStakingIndex",
      "type": "error"
    },
    {
      "inputs": [],
      "name": "WstonAllowanceTooLow",
      "type": "error"
    },
    {
      "inputs": [],
      "name": "WstonBalanceTooLow",
      "type": "error"
    },
    {
      "anonymous": false,
      "inputs": [
        {
          "indexed": false,
          "internalType": "uint256",
          "name": "newIndex",
          "type": "uint256"
        }
      ],
      "name": "StakingIndexUpdated",
      "type": "event"
    },
    {
      "anonymous": false,
      "inputs": [
        {
          "indexed": true,
          "internalType": "address",
          "name": "user",
          "type": "address"
        },
        {
          "indexed": false,
          "internalType": "uint256",
          "name": "tonAmount",
          "type": "uint256"
        },
        {
          "indexed": false,
          "internalType": "uint256",
          "name": "wstonAmount",
          "type": "uint256"
        }
      ],
      "name": "SwappedWstonForTon",
      "type": "event"
    },
    {
      "inputs": [],
      "name": "DECIMALS",
      "outputs": [
        {
          "internalType": "uint256",
          "name": "",
          "type": "uint256"
        }
      ],
      "stateMutability": "view",
      "type": "function"
    },
    {
      "inputs": [],
      "name": "paused",
      "outputs": [
        {
          "internalType": "bool",
          "name": "",
          "type": "bool"
        }
      ],
      "stateMutability": "view",
      "type": "function"
    },
    {
      "inputs": [],
      "name": "stakingIndex",
      "outputs": [
        {
          "internalType": "uint256",
          "name": "",
          "type": "uint256"
        }
      ],
      "stateMutability": "view",
      "type": "function"
    },
    {
      "inputs": [],
      "name": "ton",
      "outputs": [
        {
          "internalType": "address",
          "name": "",
          "type": "address"
        }
      ],
      "stateMutability": "view",
      "type": "function"
    },
    {
      "inputs": [],
      "name": "treasury",
      "outputs": [
        {
          "internalType": "address",
          "name": "",
          "type": "address"
        }
      ],
      "stateMutability": "view",
      "type": "function"
    },
    {
      "inputs": [],
      "name": "wston",
      "outputs": [
        {
          "internalType": "address",
          "name": "",
          "type": "address"
        }
      ],
      "stateMutability": "view",
      "type": "function"
    }
  ],
  "bytecode": "0x6080806040523460155761017d908161001b8239f35b600080fdfe60806040818152600436101561001457600080fd5b600091823560e01c9081632e0f2625146101225750806330f508591461010457806336b17e13146100dc5780635c975abb146100b657806361d027b31461008e5763cc48b9471461006457600080fd5b3461008a578160031936011261008a57905490516001600160a01b039091168152602090f35b5080fd5b503461008a578160031936011261008a5760025490516001600160a01b039091168152602090f35b503461008a578160031936011261008a5760209060ff60045460081c1690519015158152f35b503461008a578160031936011261008a5760015490516001600160a01b039091168152602090f35b503461008a578160031936011261008a576020906003549051908152f35b83903461008a578160031936011261008a57676765c793fa10079d601b1b8152602090f3fea26469706673582212205fb8b33477ecb1aeb34a1ab155b2c64d99f3390aaffea5535160ed1c4932eab564736f6c63430008190033",
  "linkReferences": {},
  "deployedLinkReferences": {}
}