{
  "_format": "hh-sol-artifact-1",
  "contractName": "CandidateStorage",
  "sourceName": "src/L1/Mock/CandidateStorage.sol",
  "abi": [
    {
      "inputs": [],
      "name": "candidate",
      "outputs": [
        {
          "internalType": "address",
          "name": "",
          "type": "address"
        }
      ],
      "stateMutability": "view",
      "type": "function"
    },
    {
      "inputs": [],
      "name": "committee",
      "outputs": [
        {
          "internalType": "address",
          "name": "",
          "type": "address"
        }
      ],
      "stateMutability": "view",
      "type": "function"
    },
    {
      "inputs": [],
      "name": "isLayer2Candidate",
      "outputs": [
        {
          "internalType": "bool",
          "name": "",
          "type": "bool"
        }
      ],
      "stateMutability": "view",
      "type": "function"
    },
    {
      "inputs": [],
      "name": "memo",
      "outputs": [
        {
          "internalType": "string",
          "name": "",
          "type": "string"
        }
      ],
      "stateMutability": "view",
      "type": "function"
    },
    {
      "inputs": [],
      "name": "seigManager",
      "outputs": [
        {
          "internalType": "address",
          "name": "",
          "type": "address"
        }
      ],
      "stateMutability": "view",
      "type": "function"
    }
  ],
  "bytecode": "0x6080806040523460155761027d908161001b8239f35b600080fdfe60806040818152600436101561001457600080fd5b600091823560e01c90816358c3b870146100fb575080636c8381f8146100cf5780636fb7f558146100a75780639b638268146100845763d864e7401461005957600080fd5b3461008057816003193601126100805760035490516001600160a01b039091168152602090f35b5080fd5b503461008057816003193601126100805760209060ff6001541690519015158152f35b503461008057816003193601126100805760045490516001600160a01b039091168152602090f35b5034610080578160031936011261008057600154905160089190911c6001600160a01b03168152602090f35b919050346102435782600319360112610243578291600254936001938560011c9460018716968715610239575b602097888810811461022557878652889291811561020657506001146101ce575b505082939450601f801994859203011682019482861067ffffffffffffffff8711176101ba5785929391838652818452845191828186015281955b8387106101a25750508394508582601f949501015201168101030190f35b86810182015189880189015295810195889550610184565b634e487b7160e01b82526041600452602482fd5b6002845281842091925083915b8783106101f357509495508594508301018538610149565b80548684018501529183019181016101db565b60ff191683870152509495869550151560051b84010190508538610149565b634e487b7160e01b85526022600452602485fd5b95607f1695610128565b8280fdfea26469706673582212208a99b7645d1584b428c76294916297118a4aabba17aaff1306dcdb565c7bfb1364736f6c63430008190033",
  "linkReferences": {},
  "deployedLinkReferences": {}
}