{
  "_format": "hh-sol-artifact-1",
  "contractName": "GemFactory",
  "sourceName": "src/L2/GemFactory.sol",
  "abi": [
    {
      "inputs": [
        {
          "internalType": "address",
          "name": "coordinator",
          "type": "address"
        }
      ],
      "stateMutability": "nonpayable",
      "type": "constructor"
    },
    {
      "inputs": [],
      "name": "AccessControlBadConfirmation",
      "type": "error"
    },
    {
      "inputs": [
        {
          "internalType": "address",
          "name": "account",
          "type": "address"
        },
        {
          "internalType": "bytes32",
          "name": "neededRole",
          "type": "bytes32"
        }
      ],
      "name": "AccessControlUnauthorizedAccount",
      "type": "error"
    },
    {
      "inputs": [
        {
          "internalType": "address",
          "name": "sender",
          "type": "address"
        },
        {
          "internalType": "uint256",
          "name": "tokenId",
          "type": "uint256"
        },
        {
          "internalType": "address",
          "name": "owner",
          "type": "address"
        }
      ],
      "name": "ERC721IncorrectOwner",
      "type": "error"
    },
    {
      "inputs": [
        {
          "internalType": "address",
          "name": "operator",
          "type": "address"
        },
        {
          "internalType": "uint256",
          "name": "tokenId",
          "type": "uint256"
        }
      ],
      "name": "ERC721InsufficientApproval",
      "type": "error"
    },
    {
      "inputs": [
        {
          "internalType": "address",
          "name": "approver",
          "type": "address"
        }
      ],
      "name": "ERC721InvalidApprover",
      "type": "error"
    },
    {
      "inputs": [
        {
          "internalType": "address",
          "name": "operator",
          "type": "address"
        }
      ],
      "name": "ERC721InvalidOperator",
      "type": "error"
    },
    {
      "inputs": [
        {
          "internalType": "address",
          "name": "owner",
          "type": "address"
        }
      ],
      "name": "ERC721InvalidOwner",
      "type": "error"
    },
    {
      "inputs": [
        {
          "internalType": "address",
          "name": "receiver",
          "type": "address"
        }
      ],
      "name": "ERC721InvalidReceiver",
      "type": "error"
    },
    {
      "inputs": [
        {
          "internalType": "address",
          "name": "sender",
          "type": "address"
        }
      ],
      "name": "ERC721InvalidSender",
      "type": "error"
    },
    {
      "inputs": [
        {
          "internalType": "uint256",
          "name": "tokenId",
          "type": "uint256"
        }
      ],
      "name": "ERC721NonexistentToken",
      "type": "error"
    },
    {
      "inputs": [
        {
          "internalType": "address",
          "name": "have",
          "type": "address"
        },
        {
          "internalType": "address",
          "name": "want",
          "type": "address"
        }
      ],
      "name": "OnlyCoordinatorCanFulfill",
      "type": "error"
    },
    {
      "inputs": [],
      "name": "ReentrancyGuardReentrantCall",
      "type": "error"
    },
    {
      "anonymous": false,
      "inputs": [
        {
          "indexed": true,
          "internalType": "address",
          "name": "owner",
          "type": "address"
        },
        {
          "indexed": true,
          "internalType": "address",
          "name": "approved",
          "type": "address"
        },
        {
          "indexed": true,
          "internalType": "uint256",
          "name": "tokenId",
          "type": "uint256"
        }
      ],
      "name": "Approval",
      "type": "event"
    },
    {
      "anonymous": false,
      "inputs": [
        {
          "indexed": true,
          "internalType": "address",
          "name": "owner",
          "type": "address"
        },
        {
          "indexed": true,
          "internalType": "address",
          "name": "operator",
          "type": "address"
        },
        {
          "indexed": false,
          "internalType": "bool",
          "name": "approved",
          "type": "bool"
        }
      ],
      "name": "ApprovalForAll",
      "type": "event"
    },
    {
      "anonymous": false,
      "inputs": [
        {
          "indexed": true,
          "internalType": "uint8",
          "name": "id",
          "type": "uint8"
        },
        {
          "indexed": false,
          "internalType": "string",
          "name": "backgroundColor",
          "type": "string"
        }
      ],
      "name": "BackgroundColorAdded",
      "type": "event"
    },
    {
      "anonymous": false,
      "inputs": [
        {
          "indexed": false,
          "internalType": "uint256",
          "name": "_fromTokenId",
          "type": "uint256"
        },
        {
          "indexed": false,
          "internalType": "uint256",
          "name": "_toTokenId",
          "type": "uint256"
        }
      ],
      "name": "BatchMetadataUpdate",
      "type": "event"
    },
    {
      "anonymous": false,
      "inputs": [
        {
          "indexed": true,
          "internalType": "uint8",
          "name": "id",
          "type": "uint8"
        },
        {
          "indexed": false,
          "internalType": "string",
          "name": "color",
          "type": "string"
        }
      ],
      "name": "ColorAdded",
      "type": "event"
    },
    {
      "anonymous": false,
      "inputs": [
        {
          "indexed": false,
          "internalType": "uint8",
          "name": "color_0",
          "type": "uint8"
        },
        {
          "indexed": false,
          "internalType": "uint8",
          "name": "color_1",
          "type": "uint8"
        }
      ],
      "name": "ColorValidated",
      "type": "event"
    },
    {
      "anonymous": false,
      "inputs": [
        {
          "indexed": false,
          "internalType": "uint256",
          "name": "gemCount",
          "type": "uint256"
        },
        {
          "indexed": false,
          "internalType": "uint256[]",
          "name": "tokenIds",
          "type": "uint256[]"
        }
      ],
      "name": "CountGemsByQuadrant",
      "type": "event"
    },
    {
      "anonymous": false,
      "inputs": [
        {
          "indexed": true,
          "internalType": "uint256",
          "name": "tokenId",
          "type": "uint256"
        },
        {
          "indexed": false,
          "internalType": "enum GemFactoryStorage.Rarity",
          "name": "rarity",
          "type": "uint8"
        },
        {
          "indexed": false,
          "internalType": "uint8[2]",
          "name": "color",
          "type": "uint8[2]"
        },
        {
          "indexed": false,
          "internalType": "uint256",
          "name": "value",
          "type": "uint256"
        },
        {
          "indexed": false,
          "internalType": "uint8[4]",
          "name": "quadrants",
          "type": "uint8[4]"
        },
        {
          "indexed": false,
          "internalType": "uint256",
          "name": "miningPeriod",
          "type": "uint256"
        },
        {
          "indexed": false,
          "internalType": "uint256",
          "name": "cooldownPeriod",
          "type": "uint256"
        },
        {
          "indexed": false,
          "internalType": "string",
          "name": "tokenURI",
          "type": "string"
        },
        {
          "indexed": false,
          "internalType": "address",
          "name": "owner",
          "type": "address"
        }
      ],
      "name": "Created",
      "type": "event"
    },
    {
      "anonymous": false,
      "inputs": [
        {
          "indexed": false,
          "internalType": "address",
          "name": "gemOwner",
          "type": "address"
        },
        {
          "indexed": false,
          "internalType": "uint256[]",
          "name": "gemsTokenIds",
          "type": "uint256[]"
        },
        {
          "indexed": false,
          "internalType": "uint256",
          "name": "newGemCreatedId",
          "type": "uint256"
        },
        {
          "indexed": false,
          "internalType": "enum GemFactoryStorage.Rarity",
          "name": "newRarity",
          "type": "uint8"
        },
        {
          "indexed": false,
          "internalType": "uint8[4]",
          "name": "forgedQuadrants",
          "type": "uint8[4]"
        },
        {
          "indexed": false,
          "internalType": "uint8[2]",
          "name": "color",
          "type": "uint8[2]"
        },
        {
          "indexed": false,
          "internalType": "uint256",
          "name": "newValue",
          "type": "uint256"
        }
      ],
      "name": "GemForged",
      "type": "event"
    },
    {
      "anonymous": false,
      "inputs": [
        {
          "indexed": false,
          "internalType": "uint256",
          "name": "_tokenId",
          "type": "uint256"
        },
        {
          "indexed": false,
          "internalType": "address",
          "name": "_from",
          "type": "address"
        }
      ],
      "name": "GemMelted",
      "type": "event"
    },
    {
      "anonymous": false,
      "inputs": [
        {
          "indexed": false,
          "internalType": "uint256",
          "name": "tokenId",
          "type": "uint256"
        },
        {
          "indexed": false,
          "internalType": "address",
          "name": "miner",
          "type": "address"
        }
      ],
      "name": "GemMiningClaimed",
      "type": "event"
    },
    {
      "anonymous": false,
      "inputs": [
        {
          "indexed": false,
          "internalType": "uint256",
          "name": "tokenId",
          "type": "uint256"
        },
        {
          "indexed": false,
          "internalType": "address",
          "name": "miner",
          "type": "address"
        },
        {
          "indexed": false,
          "internalType": "uint256",
          "name": "startMiningTime",
          "type": "uint256"
        },
        {
          "indexed": false,
          "internalType": "uint256",
          "name": "newminingTry",
          "type": "uint256"
        }
      ],
      "name": "GemMiningStarted",
      "type": "event"
    },
    {
      "anonymous": false,
      "inputs": [
        {
          "indexed": false,
          "internalType": "uint256",
          "name": "_tokenId",
          "type": "uint256"
        }
      ],
      "name": "MetadataUpdate",
      "type": "event"
    },
    {
      "anonymous": false,
      "inputs": [
        {
          "indexed": false,
          "internalType": "uint256",
          "name": "tokenId",
          "type": "uint256"
        }
      ],
      "name": "NoGemAvailable",
      "type": "event"
    },
    {
      "anonymous": false,
      "inputs": [
        {
          "indexed": false,
          "internalType": "address",
          "name": "account",
          "type": "address"
        }
      ],
      "name": "Paused",
      "type": "event"
    },
    {
      "anonymous": false,
      "inputs": [
        {
          "indexed": false,
          "internalType": "uint256",
          "name": "chosenTokenId",
          "type": "uint256"
        },
        {
          "indexed": false,
          "internalType": "uint256",
          "name": "requestNumber",
          "type": "uint256"
        }
      ],
      "name": "RandomGemSelected",
      "type": "event"
    },
    {
      "anonymous": false,
      "inputs": [
        {
          "indexed": true,
          "internalType": "bytes32",
          "name": "role",
          "type": "bytes32"
        },
        {
          "indexed": true,
          "internalType": "bytes32",
          "name": "previousAdminRole",
          "type": "bytes32"
        },
        {
          "indexed": true,
          "internalType": "bytes32",
          "name": "newAdminRole",
          "type": "bytes32"
        }
      ],
      "name": "RoleAdminChanged",
      "type": "event"
    },
    {
      "anonymous": false,
      "inputs": [
        {
          "indexed": true,
          "internalType": "bytes32",
          "name": "role",
          "type": "bytes32"
        },
        {
          "indexed": true,
          "internalType": "address",
          "name": "account",
          "type": "address"
        },
        {
          "indexed": true,
          "internalType": "address",
          "name": "sender",
          "type": "address"
        }
      ],
      "name": "RoleGranted",
      "type": "event"
    },
    {
      "anonymous": false,
      "inputs": [
        {
          "indexed": true,
          "internalType": "bytes32",
          "name": "role",
          "type": "bytes32"
        },
        {
          "indexed": true,
          "internalType": "address",
          "name": "account",
          "type": "address"
        },
        {
          "indexed": true,
          "internalType": "address",
          "name": "sender",
          "type": "address"
        }
      ],
      "name": "RoleRevoked",
      "type": "event"
    },
    {
      "anonymous": false,
      "inputs": [
        {
          "indexed": true,
          "internalType": "address",
          "name": "from",
          "type": "address"
        },
        {
          "indexed": true,
          "internalType": "address",
          "name": "to",
          "type": "address"
        },
        {
          "indexed": true,
          "internalType": "uint256",
          "name": "tokenId",
          "type": "uint256"
        }
      ],
      "name": "Transfer",
      "type": "event"
    },
    {
      "anonymous": false,
      "inputs": [
        {
          "indexed": false,
          "internalType": "address",
          "name": "from",
          "type": "address"
        },
        {
          "indexed": false,
          "internalType": "address",
          "name": "to",
          "type": "address"
        },
        {
          "indexed": false,
          "internalType": "uint256",
          "name": "tokenId",
          "type": "uint256"
        }
      ],
      "name": "TransferGEM",
      "type": "event"
    },
    {
      "anonymous": false,
      "inputs": [
        {
          "indexed": false,
          "internalType": "address",
          "name": "account",
          "type": "address"
        }
      ],
      "name": "Unpaused",
      "type": "event"
    },
    {
      "inputs": [],
      "name": "CALLBACK_GAS_LIMIT",
      "outputs": [
        {
          "internalType": "uint32",
          "name": "",
          "type": "uint32"
        }
      ],
      "stateMutability": "view",
      "type": "function"
    },
    {
      "inputs": [],
      "name": "CommonGemsCooldownPeriod",
      "outputs": [
        {
          "internalType": "uint256",
          "name": "",
          "type": "uint256"
        }
      ],
      "stateMutability": "view",
      "type": "function"
    },
    {
      "inputs": [],
      "name": "CommonGemsMiningPeriod",
      "outputs": [
        {
          "internalType": "uint256",
          "name": "",
          "type": "uint256"
        }
      ],
      "stateMutability": "view",
      "type": "function"
    },
    {
      "inputs": [],
      "name": "CommonGemsValue",
      "outputs": [
        {
          "internalType": "uint256",
          "name": "",
          "type": "uint256"
        }
      ],
      "stateMutability": "view",
      "type": "function"
    },
    {
      "inputs": [],
      "name": "CommonminingTry",
      "outputs": [
        {
          "internalType": "uint256",
          "name": "",
          "type": "uint256"
        }
      ],
      "stateMutability": "view",
      "type": "function"
    },
    {
      "inputs": [],
      "name": "DEFAULT_ADMIN_ROLE",
      "outputs": [
        {
          "internalType": "bytes32",
          "name": "",
          "type": "bytes32"
        }
      ],
      "stateMutability": "view",
      "type": "function"
    },
    {
      "inputs": [],
      "name": "EpicGemsCooldownPeriod",
      "outputs": [
        {
          "internalType": "uint256",
          "name": "",
          "type": "uint256"
        }
      ],
      "stateMutability": "view",
      "type": "function"
    },
    {
      "inputs": [],
      "name": "EpicGemsMiningPeriod",
      "outputs": [
        {
          "internalType": "uint256",
          "name": "",
          "type": "uint256"
        }
      ],
      "stateMutability": "view",
      "type": "function"
    },
    {
      "inputs": [],
      "name": "EpicGemsValue",
      "outputs": [
        {
          "internalType": "uint256",
          "name": "",
          "type": "uint256"
        }
      ],
      "stateMutability": "view",
      "type": "function"
    },
    {
      "inputs": [],
      "name": "EpicminingTry",
      "outputs": [
        {
          "internalType": "uint256",
          "name": "",
          "type": "uint256"
        }
      ],
      "stateMutability": "view",
      "type": "function"
    },
    {
      "inputs": [
        {
          "internalType": "uint256",
          "name": "",
          "type": "uint256"
        }
      ],
      "name": "GEMIndexToOwner",
      "outputs": [
        {
          "internalType": "address",
          "name": "",
          "type": "address"
        }
      ],
      "stateMutability": "view",
      "type": "function"
    },
    {
      "inputs": [
        {
          "internalType": "uint256",
          "name": "",
          "type": "uint256"
        }
      ],
      "name": "Gems",
      "outputs": [
        {
          "internalType": "uint256",
          "name": "tokenId",
          "type": "uint256"
        },
        {
          "internalType": "enum GemFactoryStorage.Rarity",
          "name": "rarity",
          "type": "uint8"
        },
        {
          "internalType": "uint256",
          "name": "gemCooldownPeriod",
          "type": "uint256"
        },
        {
          "internalType": "uint256",
          "name": "miningPeriod",
          "type": "uint256"
        },
        {
          "internalType": "uint256",
          "name": "miningTry",
          "type": "uint256"
        },
        {
          "internalType": "bool",
          "name": "isLocked",
          "type": "bool"
        },
        {
          "internalType": "uint256",
          "name": "value",
          "type": "uint256"
        },
        {
          "internalType": "string",
          "name": "tokenURI",
          "type": "string"
        },
        {
          "internalType": "uint256",
          "name": "randomRequestId",
          "type": "uint256"
        }
      ],
      "stateMutability": "view",
      "type": "function"
    },
    {
      "inputs": [],
      "name": "LegendaryGemsCooldownPeriod",
      "outputs": [
        {
          "internalType": "uint256",
          "name": "",
          "type": "uint256"
        }
      ],
      "stateMutability": "view",
      "type": "function"
    },
    {
      "inputs": [],
      "name": "LegendaryGemsMiningPeriod",
      "outputs": [
        {
          "internalType": "uint256",
          "name": "",
          "type": "uint256"
        }
      ],
      "stateMutability": "view",
      "type": "function"
    },
    {
      "inputs": [],
      "name": "LegendaryGemsValue",
      "outputs": [
        {
          "internalType": "uint256",
          "name": "",
          "type": "uint256"
        }
      ],
      "stateMutability": "view",
      "type": "function"
    },
    {
      "inputs": [],
      "name": "LegendaryminingTry",
      "outputs": [
        {
          "internalType": "uint256",
          "name": "",
          "type": "uint256"
        }
      ],
      "stateMutability": "view",
      "type": "function"
    },
    {
      "inputs": [],
      "name": "MythicGemsCooldownPeriod",
      "outputs": [
        {
          "internalType": "uint256",
          "name": "",
          "type": "uint256"
        }
      ],
      "stateMutability": "view",
      "type": "function"
    },
    {
      "inputs": [],
      "name": "MythicGemsMiningPeriod",
      "outputs": [
        {
          "internalType": "uint256",
          "name": "",
          "type": "uint256"
        }
      ],
      "stateMutability": "view",
      "type": "function"
    },
    {
      "inputs": [],
      "name": "MythicGemsValue",
      "outputs": [
        {
          "internalType": "uint256",
          "name": "",
          "type": "uint256"
        }
      ],
      "stateMutability": "view",
      "type": "function"
    },
    {
      "inputs": [],
      "name": "MythicminingTry",
      "outputs": [
        {
          "internalType": "uint256",
          "name": "",
          "type": "uint256"
        }
      ],
      "stateMutability": "view",
      "type": "function"
    },
    {
      "inputs": [],
      "name": "PAUSE_ROLE",
      "outputs": [
        {
          "internalType": "bytes32",
          "name": "",
          "type": "bytes32"
        }
      ],
      "stateMutability": "view",
      "type": "function"
    },
    {
      "inputs": [],
      "name": "RareGemsCooldownPeriod",
      "outputs": [
        {
          "internalType": "uint256",
          "name": "",
          "type": "uint256"
        }
      ],
      "stateMutability": "view",
      "type": "function"
    },
    {
      "inputs": [],
      "name": "RareGemsMiningPeriod",
      "outputs": [
        {
          "internalType": "uint256",
          "name": "",
          "type": "uint256"
        }
      ],
      "stateMutability": "view",
      "type": "function"
    },
    {
      "inputs": [],
      "name": "RareGemsValue",
      "outputs": [
        {
          "internalType": "uint256",
          "name": "",
          "type": "uint256"
        }
      ],
      "stateMutability": "view",
      "type": "function"
    },
    {
      "inputs": [],
      "name": "RareminingTry",
      "outputs": [
        {
          "internalType": "uint256",
          "name": "",
          "type": "uint256"
        }
      ],
      "stateMutability": "view",
      "type": "function"
    },
    {
      "inputs": [],
      "name": "TREASURY_ROLE",
      "outputs": [
        {
          "internalType": "bytes32",
          "name": "",
          "type": "bytes32"
        }
      ],
      "stateMutability": "view",
      "type": "function"
    },
    {
      "inputs": [],
      "name": "UniqueGemsCooldownPeriod",
      "outputs": [
        {
          "internalType": "uint256",
          "name": "",
          "type": "uint256"
        }
      ],
      "stateMutability": "view",
      "type": "function"
    },
    {
      "inputs": [],
      "name": "UniqueGemsMiningPeriod",
      "outputs": [
        {
          "internalType": "uint256",
          "name": "",
          "type": "uint256"
        }
      ],
      "stateMutability": "view",
      "type": "function"
    },
    {
      "inputs": [],
      "name": "UniqueGemsValue",
      "outputs": [
        {
          "internalType": "uint256",
          "name": "",
          "type": "uint256"
        }
      ],
      "stateMutability": "view",
      "type": "function"
    },
    {
      "inputs": [],
      "name": "UniqueminingTry",
      "outputs": [
        {
          "internalType": "uint256",
          "name": "",
          "type": "uint256"
        }
      ],
      "stateMutability": "view",
      "type": "function"
    },
    {
      "inputs": [
        {
          "internalType": "address",
          "name": "account",
          "type": "address"
        }
      ],
      "name": "addAdmin",
      "outputs": [],
      "stateMutability": "nonpayable",
      "type": "function"
    },
    {
      "inputs": [
        {
          "internalType": "string",
          "name": "_backgroundColor",
          "type": "string"
        }
      ],
      "name": "addBackgroundColor",
      "outputs": [],
      "stateMutability": "nonpayable",
      "type": "function"
    },
    {
      "inputs": [
        {
          "internalType": "string",
          "name": "_color",
          "type": "string"
        }
      ],
      "name": "addColor",
      "outputs": [],
      "stateMutability": "nonpayable",
      "type": "function"
    },
    {
      "inputs": [
        {
          "internalType": "address",
          "name": "account",
          "type": "address"
        }
      ],
      "name": "addMinter",
      "outputs": [],
      "stateMutability": "nonpayable",
      "type": "function"
    },
    {
      "inputs": [
        {
          "internalType": "address",
          "name": "_to",
          "type": "address"
        },
        {
          "internalType": "uint256",
          "name": "_tokenId",
          "type": "uint256"
        }
      ],
      "name": "adminTransferGEM",
      "outputs": [
        {
          "internalType": "bool",
          "name": "",
          "type": "bool"
        }
      ],
      "stateMutability": "nonpayable",
      "type": "function"
    },
    {
      "inputs": [
        {
          "internalType": "address",
          "name": "",
          "type": "address"
        }
      ],
      "name": "aliveImplementation",
      "outputs": [
        {
          "internalType": "bool",
          "name": "",
          "type": "bool"
        }
      ],
      "stateMutability": "view",
      "type": "function"
    },
    {
      "inputs": [
        {
          "internalType": "address",
          "name": "to",
          "type": "address"
        },
        {
          "internalType": "uint256",
          "name": "tokenId",
          "type": "uint256"
        }
      ],
      "name": "approve",
      "outputs": [],
      "stateMutability": "nonpayable",
      "type": "function"
    },
    {
      "inputs": [
        {
          "internalType": "uint256",
          "name": "",
          "type": "uint256"
        }
      ],
      "name": "backgroundColors",
      "outputs": [
        {
          "internalType": "string",
          "name": "",
          "type": "string"
        }
      ],
      "stateMutability": "view",
      "type": "function"
    },
    {
      "inputs": [
        {
          "internalType": "address",
          "name": "_owner",
          "type": "address"
        }
      ],
      "name": "balanceOf",
      "outputs": [
        {
          "internalType": "uint256",
          "name": "count",
          "type": "uint256"
        }
      ],
      "stateMutability": "view",
      "type": "function"
    },
    {
      "inputs": [
        {
          "internalType": "uint256",
          "name": "_tokenId",
          "type": "uint256"
        }
      ],
      "name": "cancelMining",
      "outputs": [
        {
          "internalType": "bool",
          "name": "",
          "type": "bool"
        }
      ],
      "stateMutability": "nonpayable",
      "type": "function"
    },
    {
      "inputs": [
        {
          "internalType": "uint256",
          "name": "_tokenId",
          "type": "uint256"
        }
      ],
      "name": "claimMinedGEM",
      "outputs": [
        {
          "internalType": "bool",
          "name": "",
          "type": "bool"
        }
      ],
      "stateMutability": "nonpayable",
      "type": "function"
    },
    {
      "inputs": [
        {
          "internalType": "uint256",
          "name": "",
          "type": "uint256"
        }
      ],
      "name": "colors",
      "outputs": [
        {
          "internalType": "string",
          "name": "",
          "type": "string"
        }
      ],
      "stateMutability": "view",
      "type": "function"
    },
    {
      "inputs": [
        {
          "internalType": "enum GemFactoryStorage.Rarity",
          "name": "_rarity",
          "type": "uint8"
        },
        {
          "internalType": "uint8[2]",
          "name": "_color",
          "type": "uint8[2]"
        },
        {
          "internalType": "uint8[4]",
          "name": "_quadrants",
          "type": "uint8[4]"
        },
        {
          "internalType": "string",
          "name": "_tokenURI",
          "type": "string"
        }
      ],
      "name": "createGEM",
      "outputs": [
        {
          "internalType": "uint256",
          "name": "",
          "type": "uint256"
        }
      ],
      "stateMutability": "nonpayable",
      "type": "function"
    },
    {
      "inputs": [
        {
          "internalType": "enum GemFactoryStorage.Rarity[]",
          "name": "_rarities",
          "type": "uint8[]"
        },
        {
          "internalType": "uint8[2][]",
          "name": "_colors",
          "type": "uint8[2][]"
        },
        {
          "internalType": "uint8[4][]",
          "name": "_quadrants",
          "type": "uint8[4][]"
        },
        {
          "internalType": "string[]",
          "name": "_tokenURIs",
          "type": "string[]"
        }
      ],
      "name": "createGEMPool",
      "outputs": [
        {
          "internalType": "uint256[]",
          "name": "",
          "type": "uint256[]"
        }
      ],
      "stateMutability": "nonpayable",
      "type": "function"
    },
    {
      "inputs": [
        {
          "internalType": "uint8",
          "name": "",
          "type": "uint8"
        }
      ],
      "name": "customBackgroundColors",
      "outputs": [
        {
          "internalType": "string",
          "name": "",
          "type": "string"
        }
      ],
      "stateMutability": "view",
      "type": "function"
    },
    {
      "inputs": [],
      "name": "customBackgroundColorsCount",
      "outputs": [
        {
          "internalType": "uint8",
          "name": "",
          "type": "uint8"
        }
      ],
      "stateMutability": "view",
      "type": "function"
    },
    {
      "inputs": [
        {
          "internalType": "uint8",
          "name": "",
          "type": "uint8"
        }
      ],
      "name": "customColors",
      "outputs": [
        {
          "internalType": "string",
          "name": "",
          "type": "string"
        }
      ],
      "stateMutability": "view",
      "type": "function"
    },
    {
      "inputs": [],
      "name": "customColorsCount",
      "outputs": [
        {
          "internalType": "uint8",
          "name": "",
          "type": "uint8"
        }
      ],
      "stateMutability": "view",
      "type": "function"
    },
    {
      "inputs": [],
      "name": "drbcoordinator",
      "outputs": [
        {
          "internalType": "address",
          "name": "",
          "type": "address"
        }
      ],
      "stateMutability": "view",
      "type": "function"
    },
    {
      "inputs": [
        {
          "internalType": "uint256[]",
          "name": "_tokenIds",
          "type": "uint256[]"
        },
        {
          "internalType": "enum GemFactoryStorage.Rarity",
          "name": "_rarity",
          "type": "uint8"
        },
        {
          "internalType": "uint8[2]",
          "name": "_color",
          "type": "uint8[2]"
        }
      ],
      "name": "forgeTokens",
      "outputs": [
        {
          "internalType": "uint256",
          "name": "newGemId",
          "type": "uint256"
        }
      ],
      "stateMutability": "nonpayable",
      "type": "function"
    },
    {
      "inputs": [
        {
          "internalType": "uint256",
          "name": "tokenId",
          "type": "uint256"
        }
      ],
      "name": "getApproved",
      "outputs": [
        {
          "internalType": "address",
          "name": "",
          "type": "address"
        }
      ],
      "stateMutability": "view",
      "type": "function"
    },
    {
      "inputs": [],
      "name": "getCommonValue",
      "outputs": [
        {
          "internalType": "uint256",
          "name": "",
          "type": "uint256"
        }
      ],
      "stateMutability": "view",
      "type": "function"
    },
    {
      "inputs": [],
      "name": "getCommonminingTry",
      "outputs": [
        {
          "internalType": "uint256",
          "name": "",
          "type": "uint256"
        }
      ],
      "stateMutability": "view",
      "type": "function"
    },
    {
      "inputs": [
        {
          "internalType": "uint8",
          "name": "_index",
          "type": "uint8"
        }
      ],
      "name": "getCustomColor",
      "outputs": [
        {
          "internalType": "string",
          "name": "",
          "type": "string"
        }
      ],
      "stateMutability": "view",
      "type": "function"
    },
    {
      "inputs": [],
      "name": "getEpicValue",
      "outputs": [
        {
          "internalType": "uint256",
          "name": "",
          "type": "uint256"
        }
      ],
      "stateMutability": "view",
      "type": "function"
    },
    {
      "inputs": [],
      "name": "getEpicminingTry",
      "outputs": [
        {
          "internalType": "uint256",
          "name": "",
          "type": "uint256"
        }
      ],
      "stateMutability": "view",
      "type": "function"
    },
    {
      "inputs": [
        {
          "internalType": "uint256",
          "name": "_tokenId",
          "type": "uint256"
        }
      ],
      "name": "getGem",
      "outputs": [
        {
          "components": [
            {
              "internalType": "uint256",
              "name": "tokenId",
              "type": "uint256"
            },
            {
              "internalType": "enum GemFactoryStorage.Rarity",
              "name": "rarity",
              "type": "uint8"
            },
            {
              "internalType": "uint8[4]",
              "name": "quadrants",
              "type": "uint8[4]"
            },
            {
              "internalType": "uint8[2]",
              "name": "color",
              "type": "uint8[2]"
            },
            {
              "internalType": "uint256",
              "name": "gemCooldownPeriod",
              "type": "uint256"
            },
            {
              "internalType": "uint256",
              "name": "miningPeriod",
              "type": "uint256"
            },
            {
              "internalType": "uint256",
              "name": "miningTry",
              "type": "uint256"
            },
            {
              "internalType": "bool",
              "name": "isLocked",
              "type": "bool"
            },
            {
              "internalType": "uint256",
              "name": "value",
              "type": "uint256"
            },
            {
              "internalType": "string",
              "name": "tokenURI",
              "type": "string"
            },
            {
              "internalType": "uint256",
              "name": "randomRequestId",
              "type": "uint256"
            }
          ],
          "internalType": "struct GemFactoryStorage.Gem",
          "name": "",
          "type": "tuple"
        }
      ],
      "stateMutability": "view",
      "type": "function"
    },
    {
      "inputs": [],
      "name": "getLegendaryValue",
      "outputs": [
        {
          "internalType": "uint256",
          "name": "",
          "type": "uint256"
        }
      ],
      "stateMutability": "view",
      "type": "function"
    },
    {
      "inputs": [],
      "name": "getLegendaryminingTry",
      "outputs": [
        {
          "internalType": "uint256",
          "name": "",
          "type": "uint256"
        }
      ],
      "stateMutability": "view",
      "type": "function"
    },
    {
      "inputs": [],
      "name": "getMythicValue",
      "outputs": [
        {
          "internalType": "uint256",
          "name": "",
          "type": "uint256"
        }
      ],
      "stateMutability": "view",
      "type": "function"
    },
    {
      "inputs": [],
      "name": "getMythicminingTry",
      "outputs": [
        {
          "internalType": "uint256",
          "name": "",
          "type": "uint256"
        }
      ],
      "stateMutability": "view",
      "type": "function"
    },
    {
      "inputs": [
        {
          "internalType": "uint256",
          "name": "_requestId",
          "type": "uint256"
        }
      ],
      "name": "getRandomRequest",
      "outputs": [
        {
          "components": [
            {
              "internalType": "uint256",
              "name": "tokenId",
              "type": "uint256"
            },
            {
              "internalType": "bool",
              "name": "requested",
              "type": "bool"
            },
            {
              "internalType": "bool",
              "name": "fulfilled",
              "type": "bool"
            },
            {
              "internalType": "uint256",
              "name": "randomWord",
              "type": "uint256"
            },
            {
              "internalType": "uint256",
              "name": "chosenTokenId",
              "type": "uint256"
            },
            {
              "internalType": "address",
              "name": "requester",
              "type": "address"
            }
          ],
          "internalType": "struct GemFactoryStorage.RequestStatus",
          "name": "",
          "type": "tuple"
        }
      ],
      "stateMutability": "view",
      "type": "function"
    },
    {
      "inputs": [],
      "name": "getRareValue",
      "outputs": [
        {
          "internalType": "uint256",
          "name": "",
          "type": "uint256"
        }
      ],
      "stateMutability": "view",
      "type": "function"
    },
    {
      "inputs": [],
      "name": "getRareminingTry",
      "outputs": [
        {
          "internalType": "uint256",
          "name": "",
          "type": "uint256"
        }
      ],
      "stateMutability": "view",
      "type": "function"
    },
    {
      "inputs": [
        {
          "internalType": "bytes32",
          "name": "role",
          "type": "bytes32"
        }
      ],
      "name": "getRoleAdmin",
      "outputs": [
        {
          "internalType": "bytes32",
          "name": "",
          "type": "bytes32"
        }
      ],
      "stateMutability": "view",
      "type": "function"
    },
    {
      "inputs": [],
      "name": "getTon",
      "outputs": [
        {
          "internalType": "address",
          "name": "",
          "type": "address"
        }
      ],
      "stateMutability": "view",
      "type": "function"
    },
    {
      "inputs": [],
      "name": "getTreasury",
      "outputs": [
        {
          "internalType": "address",
          "name": "",
          "type": "address"
        }
      ],
      "stateMutability": "view",
      "type": "function"
    },
    {
      "inputs": [],
      "name": "getUniqueValue",
      "outputs": [
        {
          "internalType": "uint256",
          "name": "",
          "type": "uint256"
        }
      ],
      "stateMutability": "view",
      "type": "function"
    },
    {
      "inputs": [],
      "name": "getUniqueminingTry",
      "outputs": [
        {
          "internalType": "uint256",
          "name": "",
          "type": "uint256"
        }
      ],
      "stateMutability": "view",
      "type": "function"
    },
    {
      "inputs": [],
      "name": "getWston",
      "outputs": [
        {
          "internalType": "address",
          "name": "",
          "type": "address"
        }
      ],
      "stateMutability": "view",
      "type": "function"
    },
    {
      "inputs": [
        {
          "internalType": "bytes32",
          "name": "role",
          "type": "bytes32"
        },
        {
          "internalType": "address",
          "name": "account",
          "type": "address"
        }
      ],
      "name": "grantRole",
      "outputs": [],
      "stateMutability": "nonpayable",
      "type": "function"
    },
    {
      "inputs": [
        {
          "internalType": "bytes32",
          "name": "role",
          "type": "bytes32"
        },
        {
          "internalType": "address",
          "name": "account",
          "type": "address"
        }
      ],
      "name": "hasRole",
      "outputs": [
        {
          "internalType": "bool",
          "name": "",
          "type": "bool"
        }
      ],
      "stateMutability": "view",
      "type": "function"
    },
    {
      "inputs": [
        {
          "internalType": "address",
          "name": "_wston",
          "type": "address"
        },
        {
          "internalType": "address",
          "name": "_ton",
          "type": "address"
        },
        {
          "internalType": "address",
          "name": "_treasury",
          "type": "address"
        },
        {
          "internalType": "uint256",
          "name": "_CommonGemsValue",
          "type": "uint256"
        },
        {
          "internalType": "uint256",
          "name": "_RareGemsValue",
          "type": "uint256"
        },
        {
          "internalType": "uint256",
          "name": "_UniqueGemsValue",
          "type": "uint256"
        },
        {
          "internalType": "uint256",
          "name": "_EpicGemsValue",
          "type": "uint256"
        },
        {
          "internalType": "uint256",
          "name": "_LegendaryGemsValue",
          "type": "uint256"
        },
        {
          "internalType": "uint256",
          "name": "_MythicGemsValue",
          "type": "uint256"
        }
      ],
      "name": "initialize",
      "outputs": [],
      "stateMutability": "nonpayable",
      "type": "function"
    },
    {
      "inputs": [
        {
          "internalType": "address",
          "name": "account",
          "type": "address"
        }
      ],
      "name": "isAdmin",
      "outputs": [
        {
          "internalType": "bool",
          "name": "",
          "type": "bool"
        }
      ],
      "stateMutability": "view",
      "type": "function"
    },
    {
      "inputs": [
        {
          "internalType": "address",
          "name": "owner",
          "type": "address"
        },
        {
          "internalType": "address",
          "name": "operator",
          "type": "address"
        }
      ],
      "name": "isApprovedForAll",
      "outputs": [
        {
          "internalType": "bool",
          "name": "",
          "type": "bool"
        }
      ],
      "stateMutability": "view",
      "type": "function"
    },
    {
      "inputs": [
        {
          "internalType": "address",
          "name": "account",
          "type": "address"
        }
      ],
      "name": "isMinter",
      "outputs": [
        {
          "internalType": "bool",
          "name": "",
          "type": "bool"
        }
      ],
      "stateMutability": "view",
      "type": "function"
    },
    {
      "inputs": [],
      "name": "isOwner",
      "outputs": [
        {
          "internalType": "bool",
          "name": "",
          "type": "bool"
        }
      ],
      "stateMutability": "view",
      "type": "function"
    },
    {
      "inputs": [
        {
          "internalType": "uint256",
          "name": "_tokenId",
          "type": "uint256"
        }
      ],
      "name": "isTokenLocked",
      "outputs": [
        {
          "internalType": "bool",
          "name": "",
          "type": "bool"
        }
      ],
      "stateMutability": "view",
      "type": "function"
    },
    {
      "inputs": [],
      "name": "marketplace",
      "outputs": [
        {
          "internalType": "address",
          "name": "",
          "type": "address"
        }
      ],
      "stateMutability": "view",
      "type": "function"
    },
    {
      "inputs": [
        {
          "internalType": "uint256",
          "name": "_tokenId",
          "type": "uint256"
        }
      ],
      "name": "meltGEM",
      "outputs": [],
      "stateMutability": "nonpayable",
      "type": "function"
    },
    {
      "inputs": [],
      "name": "name",
      "outputs": [
        {
          "internalType": "string",
          "name": "",
          "type": "string"
        }
      ],
      "stateMutability": "view",
      "type": "function"
    },
    {
      "inputs": [],
      "name": "numberOfSolidColors",
      "outputs": [
        {
          "internalType": "uint8",
          "name": "",
          "type": "uint8"
        }
      ],
      "stateMutability": "view",
      "type": "function"
    },
    {
      "inputs": [
        {
          "internalType": "uint256",
          "name": "tokenId",
          "type": "uint256"
        }
      ],
      "name": "ownerOf",
      "outputs": [
        {
          "internalType": "address",
          "name": "",
          "type": "address"
        }
      ],
      "stateMutability": "view",
      "type": "function"
    },
    {
      "inputs": [
        {
          "internalType": "address",
          "name": "",
          "type": "address"
        }
      ],
      "name": "ownershipTokenCount",
      "outputs": [
        {
          "internalType": "uint256",
          "name": "",
          "type": "uint256"
        }
      ],
      "stateMutability": "view",
      "type": "function"
    },
    {
      "inputs": [],
      "name": "pause",
      "outputs": [],
      "stateMutability": "nonpayable",
      "type": "function"
    },
    {
      "inputs": [],
      "name": "pauseProxy",
      "outputs": [
        {
          "internalType": "bool",
          "name": "",
          "type": "bool"
        }
      ],
      "stateMutability": "view",
      "type": "function"
    },
    {
      "inputs": [],
      "name": "paused",
      "outputs": [
        {
          "internalType": "bool",
          "name": "",
          "type": "bool"
        }
      ],
      "stateMutability": "view",
      "type": "function"
    },
    {
      "inputs": [
        {
          "internalType": "uint256",
          "name": "_tokenId",
          "type": "uint256"
        }
      ],
      "name": "pickMinedGEM",
      "outputs": [
        {
          "internalType": "bool",
          "name": "",
          "type": "bool"
        }
      ],
      "stateMutability": "payable",
      "type": "function"
    },
    {
      "inputs": [],
      "name": "preMintedGemsAvailable",
      "outputs": [
        {
          "internalType": "uint256[]",
          "name": "GemsAvailable",
          "type": "uint256[]"
        }
      ],
      "stateMutability": "view",
      "type": "function"
    },
    {
      "inputs": [
        {
          "internalType": "uint256",
          "name": "",
          "type": "uint256"
        }
      ],
      "name": "proxyImplementation",
      "outputs": [
        {
          "internalType": "address",
          "name": "",
          "type": "address"
        }
      ],
      "stateMutability": "view",
      "type": "function"
    },
    {
      "inputs": [
        {
          "internalType": "uint256",
          "name": "requestId",
          "type": "uint256"
        },
        {
          "internalType": "uint256",
          "name": "randomWord",
          "type": "uint256"
        }
      ],
      "name": "rawFulfillRandomWords",
      "outputs": [],
      "stateMutability": "nonpayable",
      "type": "function"
    },
    {
      "inputs": [
        {
          "internalType": "address",
          "name": "account",
          "type": "address"
        }
      ],
      "name": "removeAdmin",
      "outputs": [],
      "stateMutability": "nonpayable",
      "type": "function"
    },
    {
      "inputs": [
        {
          "internalType": "address",
          "name": "account",
          "type": "address"
        }
      ],
      "name": "removeMinter",
      "outputs": [],
      "stateMutability": "nonpayable",
      "type": "function"
    },
    {
      "inputs": [],
      "name": "renounceMinter",
      "outputs": [],
      "stateMutability": "nonpayable",
      "type": "function"
    },
    {
      "inputs": [],
      "name": "renounceOwnership",
      "outputs": [],
      "stateMutability": "nonpayable",
      "type": "function"
    },
    {
      "inputs": [
        {
          "internalType": "bytes32",
          "name": "role",
          "type": "bytes32"
        },
        {
          "internalType": "address",
          "name": "callerConfirmation",
          "type": "address"
        }
      ],
      "name": "renounceRole",
      "outputs": [],
      "stateMutability": "nonpayable",
      "type": "function"
    },
    {
      "inputs": [],
      "name": "requestCount",
      "outputs": [
        {
          "internalType": "uint256",
          "name": "",
          "type": "uint256"
        }
      ],
      "stateMutability": "view",
      "type": "function"
    },
    {
      "inputs": [
        {
          "internalType": "uint256",
          "name": "",
          "type": "uint256"
        }
      ],
      "name": "requestIds",
      "outputs": [
        {
          "internalType": "uint256",
          "name": "",
          "type": "uint256"
        }
      ],
      "stateMutability": "view",
      "type": "function"
    },
    {
      "inputs": [
        {
          "internalType": "address",
          "name": "account",
          "type": "address"
        }
      ],
      "name": "revokeMinter",
      "outputs": [],
      "stateMutability": "nonpayable",
      "type": "function"
    },
    {
      "inputs": [
        {
          "internalType": "bytes32",
          "name": "role",
          "type": "bytes32"
        },
        {
          "internalType": "address",
          "name": "account",
          "type": "address"
        }
      ],
      "name": "revokeRole",
      "outputs": [],
      "stateMutability": "nonpayable",
      "type": "function"
    },
    {
      "inputs": [
        {
          "internalType": "uint256",
          "name": "",
          "type": "uint256"
        }
      ],
      "name": "s_requests",
      "outputs": [
        {
          "internalType": "uint256",
          "name": "tokenId",
          "type": "uint256"
        },
        {
          "internalType": "bool",
          "name": "requested",
          "type": "bool"
        },
        {
          "internalType": "bool",
          "name": "fulfilled",
          "type": "bool"
        },
        {
          "internalType": "uint256",
          "name": "randomWord",
          "type": "uint256"
        },
        {
          "internalType": "uint256",
          "name": "chosenTokenId",
          "type": "uint256"
        },
        {
          "internalType": "address",
          "name": "requester",
          "type": "address"
        }
      ],
      "stateMutability": "view",
      "type": "function"
    },
    {
      "inputs": [
        {
          "internalType": "address",
          "name": "from",
          "type": "address"
        },
        {
          "internalType": "address",
          "name": "to",
          "type": "address"
        },
        {
          "internalType": "uint256",
          "name": "tokenId",
          "type": "uint256"
        }
      ],
      "name": "safeTransferFrom",
      "outputs": [],
      "stateMutability": "nonpayable",
      "type": "function"
    },
    {
      "inputs": [
        {
          "internalType": "address",
          "name": "from",
          "type": "address"
        },
        {
          "internalType": "address",
          "name": "to",
          "type": "address"
        },
        {
          "internalType": "uint256",
          "name": "tokenId",
          "type": "uint256"
        },
        {
          "internalType": "bytes",
          "name": "data",
          "type": "bytes"
        }
      ],
      "name": "safeTransferFrom",
      "outputs": [],
      "stateMutability": "nonpayable",
      "type": "function"
    },
    {
      "inputs": [
        {
          "internalType": "bytes4",
          "name": "",
          "type": "bytes4"
        }
      ],
      "name": "selectorImplementation",
      "outputs": [
        {
          "internalType": "address",
          "name": "",
          "type": "address"
        }
      ],
      "stateMutability": "view",
      "type": "function"
    },
    {
      "inputs": [
        {
          "internalType": "address",
          "name": "operator",
          "type": "address"
        },
        {
          "internalType": "bool",
          "name": "approved",
          "type": "bool"
        }
      ],
      "name": "setApprovalForAll",
      "outputs": [],
      "stateMutability": "nonpayable",
      "type": "function"
    },
    {
      "inputs": [],
      "name": "setApprovalForMarketplace",
      "outputs": [],
      "stateMutability": "nonpayable",
      "type": "function"
    },
    {
      "inputs": [
        {
          "internalType": "uint256",
          "name": "_CommonGemsCooldownPeriod",
          "type": "uint256"
        },
        {
          "internalType": "uint256",
          "name": "_RareGemsCooldownPeriod",
          "type": "uint256"
        },
        {
          "internalType": "uint256",
          "name": "_UniqueGemsCooldownPeriod",
          "type": "uint256"
        },
        {
          "internalType": "uint256",
          "name": "_EpicGemsCooldownPeriod",
          "type": "uint256"
        },
        {
          "internalType": "uint256",
          "name": "_LegendaryGemsCooldownPeriod",
          "type": "uint256"
        },
        {
          "internalType": "uint256",
          "name": "_MythicGemsCooldownPeriod",
          "type": "uint256"
        }
      ],
      "name": "setGemsCooldownPeriods",
      "outputs": [],
      "stateMutability": "nonpayable",
      "type": "function"
    },
    {
      "inputs": [
        {
          "internalType": "uint256",
          "name": "_CommonGemsMiningPeriod",
          "type": "uint256"
        },
        {
          "internalType": "uint256",
          "name": "_RareGemsMiningPeriod",
          "type": "uint256"
        },
        {
          "internalType": "uint256",
          "name": "_UniqueGemsMiningPeriod",
          "type": "uint256"
        },
        {
          "internalType": "uint256",
          "name": "_EpicGemsMiningPeriod",
          "type": "uint256"
        },
        {
          "internalType": "uint256",
          "name": "_LegendaryGemsMiningPeriod",
          "type": "uint256"
        },
        {
          "internalType": "uint256",
          "name": "_MythicGemsMiningPeriod",
          "type": "uint256"
        }
      ],
      "name": "setGemsMiningPeriods",
      "outputs": [],
      "stateMutability": "nonpayable",
      "type": "function"
    },
    {
      "inputs": [
        {
          "internalType": "uint256",
          "name": "_CommonGemsValue",
          "type": "uint256"
        },
        {
          "internalType": "uint256",
          "name": "_RareGemsValue",
          "type": "uint256"
        },
        {
          "internalType": "uint256",
          "name": "_UniqueGemsValue",
          "type": "uint256"
        },
        {
          "internalType": "uint256",
          "name": "_EpicGemsValue",
          "type": "uint256"
        },
        {
          "internalType": "uint256",
          "name": "_LegendaryGemsValue",
          "type": "uint256"
        },
        {
          "internalType": "uint256",
          "name": "_MythicGemsValue",
          "type": "uint256"
        }
      ],
      "name": "setGemsValue",
      "outputs": [],
      "stateMutability": "nonpayable",
      "type": "function"
    },
    {
      "inputs": [
        {
          "internalType": "uint256",
          "name": "_tokenId",
          "type": "uint256"
        },
        {
          "internalType": "bool",
          "name": "_isLocked",
          "type": "bool"
        }
      ],
      "name": "setIsLocked",
      "outputs": [],
      "stateMutability": "nonpayable",
      "type": "function"
    },
    {
      "inputs": [
        {
          "internalType": "address",
          "name": "_marketplace",
          "type": "address"
        }
      ],
      "name": "setMarketPlaceAddress",
      "outputs": [],
      "stateMutability": "nonpayable",
      "type": "function"
    },
    {
      "inputs": [
        {
          "internalType": "uint8",
          "name": "_numberOfSolidColors",
          "type": "uint8"
        }
      ],
      "name": "setNumberOfSolidColors",
      "outputs": [],
      "stateMutability": "nonpayable",
      "type": "function"
    },
    {
      "inputs": [
        {
          "internalType": "uint256",
          "name": "tokenId",
          "type": "uint256"
        },
        {
          "internalType": "string",
          "name": "_tokenURI",
          "type": "string"
        }
      ],
      "name": "setTokenURI",
      "outputs": [],
      "stateMutability": "nonpayable",
      "type": "function"
    },
    {
      "inputs": [
        {
          "internalType": "uint256",
          "name": "_CommonminingTry",
          "type": "uint256"
        },
        {
          "internalType": "uint256",
          "name": "_RareminingTry",
          "type": "uint256"
        },
        {
          "internalType": "uint256",
          "name": "_UniqueminingTry",
          "type": "uint256"
        },
        {
          "internalType": "uint256",
          "name": "_EpicminingTry",
          "type": "uint256"
        },
        {
          "internalType": "uint256",
          "name": "_LegendaryminingTry",
          "type": "uint256"
        },
        {
          "internalType": "uint256",
          "name": "_MythicminingTry",
          "type": "uint256"
        }
      ],
      "name": "setminingTrys",
      "outputs": [],
      "stateMutability": "nonpayable",
      "type": "function"
    },
    {
      "inputs": [
        {
          "internalType": "uint256",
          "name": "_tokenId",
          "type": "uint256"
        }
      ],
      "name": "startMiningGEM",
      "outputs": [
        {
          "internalType": "bool",
          "name": "",
          "type": "bool"
        }
      ],
      "stateMutability": "nonpayable",
      "type": "function"
    },
    {
      "inputs": [
        {
          "internalType": "bytes4",
          "name": "interfaceId",
          "type": "bytes4"
        }
      ],
      "name": "supportsInterface",
      "outputs": [
        {
          "internalType": "bool",
          "name": "",
          "type": "bool"
        }
      ],
      "stateMutability": "view",
      "type": "function"
    },
    {
      "inputs": [],
      "name": "symbol",
      "outputs": [
        {
          "internalType": "string",
          "name": "",
          "type": "string"
        }
      ],
      "stateMutability": "view",
      "type": "function"
    },
    {
      "inputs": [
        {
          "internalType": "address",
          "name": "",
          "type": "address"
        }
      ],
      "name": "tokenMiningByUser",
      "outputs": [
        {
          "internalType": "uint256",
          "name": "",
          "type": "uint256"
        }
      ],
      "stateMutability": "view",
      "type": "function"
    },
    {
      "inputs": [
        {
          "internalType": "uint256",
          "name": "",
          "type": "uint256"
        }
      ],
      "name": "tokenReadyToMine",
      "outputs": [
        {
          "internalType": "bool",
          "name": "",
          "type": "bool"
        }
      ],
      "stateMutability": "view",
      "type": "function"
    },
    {
      "inputs": [
        {
          "internalType": "uint256",
          "name": "tokenId",
          "type": "uint256"
        }
      ],
      "name": "tokenURI",
      "outputs": [
        {
          "internalType": "string",
          "name": "",
          "type": "string"
        }
      ],
      "stateMutability": "view",
      "type": "function"
    },
    {
      "inputs": [
        {
          "internalType": "address",
          "name": "_owner",
          "type": "address"
        }
      ],
      "name": "tokensOfOwner",
      "outputs": [
        {
          "internalType": "uint256[]",
          "name": "ownerTokens",
          "type": "uint256[]"
        }
      ],
      "stateMutability": "view",
      "type": "function"
    },
    {
      "inputs": [],
      "name": "ton",
      "outputs": [
        {
          "internalType": "address",
          "name": "",
          "type": "address"
        }
      ],
      "stateMutability": "view",
      "type": "function"
    },
    {
      "inputs": [],
      "name": "totalSupply",
      "outputs": [
        {
          "internalType": "uint256",
          "name": "",
          "type": "uint256"
        }
      ],
      "stateMutability": "view",
      "type": "function"
    },
    {
      "inputs": [
        {
          "internalType": "address",
          "name": "newAdmin",
          "type": "address"
        }
      ],
      "name": "transferAdmin",
      "outputs": [],
      "stateMutability": "nonpayable",
      "type": "function"
    },
    {
      "inputs": [
        {
          "internalType": "address",
          "name": "from",
          "type": "address"
        },
        {
          "internalType": "address",
          "name": "to",
          "type": "address"
        },
        {
          "internalType": "uint256",
          "name": "tokenId",
          "type": "uint256"
        }
      ],
      "name": "transferFrom",
      "outputs": [],
      "stateMutability": "nonpayable",
      "type": "function"
    },
    {
      "inputs": [
        {
          "internalType": "address",
          "name": "newAdmin",
          "type": "address"
        }
      ],
      "name": "transferOwnership",
      "outputs": [],
      "stateMutability": "nonpayable",
      "type": "function"
    },
    {
      "inputs": [],
      "name": "treasury",
      "outputs": [
        {
          "internalType": "address",
          "name": "",
          "type": "address"
        }
      ],
      "stateMutability": "view",
      "type": "function"
    },
    {
      "inputs": [],
      "name": "unpause",
      "outputs": [],
      "stateMutability": "nonpayable",
      "type": "function"
    },
    {
      "inputs": [
        {
          "internalType": "address",
          "name": "",
          "type": "address"
        },
        {
          "internalType": "uint256",
          "name": "",
          "type": "uint256"
        }
      ],
      "name": "userMiningStartTime",
      "outputs": [
        {
          "internalType": "uint256",
          "name": "",
          "type": "uint256"
        }
      ],
      "stateMutability": "view",
      "type": "function"
    },
    {
      "inputs": [
        {
          "internalType": "address",
          "name": "",
          "type": "address"
        },
        {
          "internalType": "uint256",
          "name": "",
          "type": "uint256"
        }
      ],
      "name": "userMiningToken",
      "outputs": [
        {
          "internalType": "bool",
          "name": "",
          "type": "bool"
        }
      ],
      "stateMutability": "view",
      "type": "function"
    },
    {
      "inputs": [],
      "name": "wston",
      "outputs": [
        {
          "internalType": "address",
          "name": "",
          "type": "address"
        }
      ],
      "stateMutability": "view",
      "type": "function"
    }
  ],
  "bytecode": "0x60a03461034b57601f601f196001600160401b03617b6b3881900384810184168601838111878210176103355786928291604052833960209586918101031261034b57516001600160a01b038116939084900361034b5761005e610350565b92600a845269546f6b616d616b47454d60b01b8685015261007d610350565b90600382526247454d60e81b87830152845190848211610335576000918254966001978881811c9116801561032b575b8b821014610317579081878493116102c9575b508a9087831160011461026b578592610260575b5050600019600383901b1c191690871b1782555b825194851161024c5785548681811c91168015610242575b8982101461022e578481116101eb575b508793851160011461018b5750839495965092610180575b5050600019600383901b1c191690821b1781555b81608052603a5561014c3361036f565b50603580546001600160a01b03191691909117905560405161776a90816104018239608051818181612bf30152613abe0152f35b015190503880610128565b8493929193169685845280842093905b8882106101d457505083859697106101bb575b505050811b01815561013c565b015160001960f88460031b161c191690553880806101ae565b80878596829496860151815501950193019061019b565b8683528883208580880160051c8201928b8910610225575b0160051c019087905b82811061021a575050610110565b84815501879061020c565b92508192610203565b634e487b7160e01b83526022600452602483fd5b90607f1690610100565b634e487b7160e01b82526041600452602482fd5b0151905038806100d4565b90848a9416918680528c8720928d88905b8282106102b25750508411610299575b505050811b0182556100e8565b015160001960f88460031b161c1916905538808061028c565b8385015186558d979095019493840193018e61027c565b9091508480528a85208780850160051c8201928d861061030e575b918b91869594930160051c01915b8281106103005750506100c0565b8781558594508b91016102f2565b925081926102e4565b634e487b7160e01b85526022600452602485fd5b90607f16906100ad565b634e487b7160e01b600052604160045260246000fd5b600080fd5b60408051919082016001600160401b0381118382101761033557604052565b6001600160a01b031660008181527f619fcd35f40c77da8aa64d5f98c1fed669135ecc4f245ce6667721b157f7098f602052604081205490919060ff166103fc5781805260396020526040822081835260205260408220600160ff1982541617905533917f2f8788117e7eff1d82e926ec794901d17c78024a50270940304540a733656f0d8180a4600190565b509056fe608080604052600436101561001357600080fd5b600090813560e01c90816301ffc9a71461556857508063034294f814615547578063038a7e05146109eb5780630491fd3e146154ac57806304e41a0b1461548e57806306fdde03146153de578063081812fc146153a15780630922f51314615380578063095ea7b31461529d5780630c7254a0146152665780630de32a97146152485780630ff1ac67146145ac5780631008ef781461458e578063139b63f31461457057806315341f2b14614476578063162094c41461443a578063166b35c914613fba5780631785f53c1461440c57806318160ddd146143f15780631885cbbe146143d357806318898f3614610a265780631d0e0aac146142ba5780631da0fc9c14613fd8578063201832c014613fba57806323b872dd14613d88578063248a9ca314613d5b57806324d7806c14613d14578063274f245514613985578063276a28a3146139545780632bbbe94d14610bf15780632f2ff15d146139165780633092afd5146138d0578063331580581461381557806333d608f1146137f757806333fcb64814612f4657806336568abe14612efe57806336b17e13146109a057806337ed11db14612bdf578063389ed26714612bb65780633b19e84a146129af5780633ec7af4a146128db5780633f4ba83a14612b2f5780633fb310a514610df157806342842e0e14612b015780634d723a7514612abb57806350d2a27614612a76578063550d01a314612a3757806358bf3e6514610a445780635badbe4c14612a195780635bbffab6146129fb5780635c975abb146129d85780635fcf94d11461181557806361d027b3146129af57806361f7f6d7146128f957806362751738146128db5780636352211e146128aa57806363a8fd8914612884578063676f79f1146128415780636b1a96fa1461280e5780636c106fea14610aa457806370480275146127b557806370a0823114610b57578063715018a61461277757806371b57c471461274e578063724188bc1461272d57806375829def1461271157806377f7e499146126f35780637866369b146126c45780637fe6fde51461242c5780638456cb59146123a25780638462151c1461237d5780638796ba8c1461232b5780638964f0c1146107a45780638d41fe30146107865780638f32d59b146122f25780638fddb065146122d457806391d148541461228857806395d89b41146121c257806397125c401461218f578063975781b714611907578063983b2d561461189b578063986502751461188157806398a2c65d14610ceb5780639a66af6214611833578063a0b2d41b14611815578063a168fa89146117a3578063a1770a7d1461175a578063a1c527261461170b578063a217fddf146116ef578063a22cb4651461164e578063a8ce886e146115fb578063aa271e1a146115a3578063aa723bb714611346578063aae31df31461126d578063abc8c7af14611244578063ad0d3d3f146111f5578063ad6caa4714611120578063aff2a463146110a2578063b78417b014611084578063b88d4fde14610fad578063b911135f14610f7a578063bb4a250914610e0f578063bc36b2ee14610df1578063bd11f69d14610d9e578063c138907214610d65578063c28fb6b714610d27578063c4d2fcae14610d09578063c61a46c514610ceb578063c87b56dd14610c1a578063cc48b94714610bf1578063cc98ef9614610b90578063cec21acb14610b57578063cfbd488514610aeb578063d11a57ec14610ac2578063d1bd7e0614610aa4578063d547741f14610a62578063d55486d314610a44578063d62c990f14610a26578063d7a4649514610a08578063dc0515d6146109eb578063e4b7fddf146109cd578063e7a523c0146109a0578063e985e9c51461094c578063ecc5e06f14610901578063efa2cc29146108e3578063f2fde38b146107c2578063f66f9e34146107a4578063f7c0794d14610786578063f99a6bb514610631578063ff198a1d146105e25763ffbccde4146105c257600080fd5b346105df57806003193601126105df576020601754604051908152f35b80fd5b50346105df576105f136615675565b948680959295949394526039602052604087203360005260205261061c60ff604060002054166159d4565b601d55601e55601f5560205560215560225580f35b50346105df57602080600319360112610782576004359061065760ff6016541615615995565b61066233151561625a565b818352600f8152604083205483906001600160a01b03903390821603610782576106c28391600861069287615874565b500154906106a087336174ef565b6033541690604051948580948193630169dc3160e01b8352336004840161631d565b03925af190811561077757849161074a575b5015610714575061070e7f65aff8e0552d208dfaf55b1280e55553b7dba628290897ff43c8f086d5dbfd2a916040519182913390836164e8565b0390a180f35b6064906040519062461bcd60e51b82526004820152600f60248201526e1d1c985b9cd9995c8819985a5b1959608a1b6044820152fd5b61076a9150823d8411610770575b6107628183615736565b810190616305565b386106d4565b503d610758565b6040513d86823e3d90fd5b5080fd5b50346105df57806003193601126105df576020601a54604051908152f35b50346105df57806003193601126105df576020601e54604051908152f35b50346105df57602090816003193601126105df576107de615649565b818052603983526040822033600052835261080060ff604060002054166159d4565b818052603983526040822033600052835261082260ff604060002054166159d4565b6001600160a01b03811680156108a3573314610865576039829383610858945252610853600160408520015461694b565b61698f565b50610862336163d5565b80f35b60405162461bcd60e51b815260048101849052601660248201527520b1b1b2b9b9b4b136329d1039b0b6b29030b236b4b760511b6044820152606490fd5b60405162461bcd60e51b815260048101859052601860248201527741636365737369626c653a207a65726f206164647265737360401b6044820152606490fd5b50346105df57806003193601126105df576020602c54604051908152f35b50346105df5760203660031901126105df5761093460406109489260ff61092661576e565b168152600b602052206158e3565b604051918291602083526020830190615609565b0390f35b50346105df5760403660031901126105df57610966615649565b604061097061565f565b9260018060a01b0380931681526005602052209116600052602052602060ff604060002054166040519015158152f35b50346105df57806003193601126105df5760315460405160089190911c6001600160a01b03168152602090f35b50346105df57806003193601126105df576020602e54604051908152f35b50346105df57806003193601126105df5760208054604051908152f35b50346105df57806003193601126105df576020602754604051908152f35b50346105df57806003193601126105df576020601f54604051908152f35b50346105df57806003193601126105df576020601d54604051908152f35b50346105df5760403660031901126105df57610aa0600435610a8261565f565b908084526039602052610a9b600160408620015461694b565b6171f2565b5080f35b50346105df57806003193601126105df576020601854604051908152f35b50346105df57806003193601126105df5760206040516000805160206177158339815191528152f35b50346105df5760203660031901126105df57610aa0610b08615649565b82805260396020526040832033600052602052610b2c60ff604060002054166159d4565b60008051602061771583398151915283526039602052610b52600160408520015461694b565b617103565b50346105df5760203660031901126105df576020906040906001600160a01b03610b7f615649565b168152601083522054604051908152f35b50346105df5760203660031901126105df57610baa615649565b81805260396020526040822033600052602052610bce60ff604060002054166159d4565b603480546001600160a01b0319166001600160a01b039290921691909117905580f35b50346105df57806003193601126105df576032546040516001600160a01b039091168152602090f35b50346105df57602090816003193601126105df57600435808252600f83526040909120546001600160a01b031615610c8e57610c5581616638565b5060005260068152610c6a60406000206158e3565b906000604051610c7981615700565b52610948604051928284938452830190615609565b60405162461bcd60e51b815260048101839052602f60248201527f4552433732314d657461646174613a2055524920717565727920666f72206e6f60448201526e3732bc34b9ba32b73a103a37b5b2b760891b6064820152608490fd5b50346105df57806003193601126105df576020601954604051908152f35b50346105df57806003193601126105df576020602354604051908152f35b50346105df57806003193601126105df5760335461094890610d51906001600160a01b0316616501565b6040519182916020835260208301906157fc565b50346105df5760203660031901126105df576020906040906001600160a01b03610d8d615649565b168152601183522054604051908152f35b50346105df5760203660031901126105df5760043590600a548210156105df57600a6000526109486109347fc65a7bb8d6351c1cf70c95a316cc6a92839c986682d98bc35f958f4883f9d2a884016158e3565b50346105df57806003193601126105df576020602254604051908152f35b50346105df576101203660031901126105df57610e2a615649565b610e3261565f565b6001600160a01b0360443581811693919290849003610f755784805260396020526040852033600052602052610e6f60ff604060002054166159d4565b603154838160081c16610f305760325492848416610ef157610100600160a81b0360089190911b16610100600160a81b031991909116176031559091166001600160a01b03199182161760325560338054909116919091179055606435601d55608435601e5560a435601f5560c43560205560e4356021556101043560225580f35b60405162461bcd60e51b81526020600482015260176024820152761d1bdb88185b1c9958591e481a5b9a5d1a585b1a5e9959604a1b6044820152606490fd5b60405162461bcd60e51b815260206004820152601e60248201527f746974616e7773746f6e20616c726561647920696e697469616c697a656400006044820152606490fd5b600080fd5b50346105df5760203660031901126105df57602090600435815260368252604060018060a01b0391205416604051908152f35b50346105df5760803660031901126105df57610fc7615649565b610fcf61565f565b6044356064356001600160401b0381116110755736602382011215611075576110029036906024816004013591016157a7565b9161101260ff6016541615615995565b61101d8233866172ec565b303b15611075576040516323b872dd60e01b8152859081818061104587878b600485016162a2565b038183305af1801561107957611061575b5050610862936173ab565b61106a906156b7565b611075578438611056565b8480fd5b6040513d84823e3d90fd5b50346105df57806003193601126105df576020602a54604051908152f35b50346105df5760203660031901126105df576110bc61576e565b9060ff80600954169216918210156110e5576040816109489361093493526008602052206158e3565b60405162461bcd60e51b8152602060048201526013602482015272496e646578206f7574206f6620626f756e647360681b6044820152606490fd5b50346105df57602090816003193601126105df5760076111e460043561114b60ff6016541615615995565b808452600f855261116960018060a01b036040862054163314616462565b611186600160ff8561117a85615874565b500154161515146162c4565b338452601285526040842081855285526111ab600160ff60408720541615151461649e565b33845260128552604084208185528552604084209360ff1994858154169055338152601386526040812082825286526040812055615874565b500190815416905560405160018152f35b50346105df5761120436615675565b948680959295949394526039602052604087203360005260205261122f60ff604060002054166159d4565b602955602a55602b55602c55602d55602e5580f35b50346105df57806003193601126105df576034546040516001600160a01b039091168152602090f35b50346105df5760203660031901126105df5760408160c09260a08351611292816156ca565b82815282602082015282858201528260608201528260808201520152600435815260156020522060046040516112c7816156ca565b8254928382526001810154602083019060ff81161515825260ff604085019160081c16151581526002830154916060850192835260a060038501549460808701958652600180831b03978891015416950194855260405196875251151560208701525115156040860152516060850152516080840152511660a0820152f35b50346105df5760203660031901126105df576004358161014060405161136b8161569b565b828152826020820152604051611380816156e5565b608036823760408201526040516113968161571b565b604036823760608201528260808201528260a08201528260c08201528260e08201528261010082015260606101208201520152600754811015611569576113dc90615874565b5090600a604051926113ed8461569b565b8054845261140560ff60018301541660208601615eed565b611411600282016165e4565b604085015261142260038201616619565b606085015260048101546080850152600581015460a0850152600681015460c085015260ff600782015416151560e0850152600881015461010085015261146b600982016158e3565b6101208501520154610140830152604051918291602083528151602084015261149c60208301516040850190615988565b604082015181606085015b6004821061154c5750505060608201519060e084015b6002821061152f57505050608081015161012083015260a081015161014083015260c081015161016083015260e081015115156101808301526101008101516101a08301526101208101516101406115246101e092836101c0870152610200860190615609565b920151908301520390f35b825160ff16815285945060209283019260019290920191016114bd565b825160ff16815286955060209283019260019290920191016114a7565b60405162461bcd60e51b815260206004820152601260248201527111d95b48191bd95cc81b9bdd08195e1a5cdd60721b6044820152606490fd5b50346105df5760203660031901126105df5760406115bf615649565b9160008051602061771583398151915281526039602052209060018060a01b0316600052602052602060ff604060002054166040519015158152f35b50346105df5760203660031901126105df5760043590600d548210156105df57600d6000526109486109347fd7b6990105719101dabeb77144f2a3385c8033acd3af97e9423a695e81ad1eb584016158e3565b50346105df5760403660031901126105df57611668615649565b611670615865565b6001600160a01b039091169081156116d6573360005260056020526040600020826000526020526116a5816040600020615f24565b60405190151581527f17307eab39ab6107e8899845ad3d59bd9653f200f220920489ca2b5937696c3160203392a380f35b604051630b61174360e31b815260048101839052602490fd5b50346105df57806003193601126105df57602090604051908152f35b50346105df5761171a36615675565b948680959295949394526039602052604087203360005260205261174560ff604060002054166159d4565b601755601855601955601a55601b55601c5580f35b50346105df5760403660031901126105df5760209060ff906040906001600160a01b03611785615649565b16815260128452818120602435825284522054166040519015158152f35b50346105df5760203660031901126105df57604060c0916004358152601560205220805490600181015490600281015460ff600383015492600460018060a01b0391015416936040519586528181161515602087015260081c16151560408501526060840152608083015260a0820152f35b50346105df57806003193601126105df576020602154604051908152f35b50346105df5760203660031901126105df5760ff61184f61576e565b8280526039602052604083203360005260205261187282604060002054166159d4565b1660ff19603154161760315580f35b50346105df57806003193601126105df57610862336163f1565b50346105df5760203660031901126105df57610aa06118b8615649565b828052603960205260408320336000526020526118dc60ff604060002054166159d4565b60008051602061771583398151915283526039602052611902600160408520015461694b565b6169fc565b50346105df576101003660031901126105df57600660043510156105df573660431215610f755760405161193a8161571b565b606481368211610f75576024905b828210612177575050503660831215610f7557604051611967816156e5565b60e481368211610f75576064905b82821061215f5750505060e4356001600160401b03811161215b5761199e9036906004016157de565b916119b460018060a01b03603354163314615a2c565b6119c360ff6016541615615995565b60ff8251166119db602084019160ff83511690615b0d565b906119ef604085019260ff84511690615b0d565b611a02606086019160ff83511690615b0d565b92600435611d585792611a4460089360ff93611a4b96858a51169260018414938415611d4d575b5083611d28575b5082611d03575b5081611ce0575b50615b2e565b1610615b91565b6029549060235493601d54926017545b611a658242615ee0565b9060405190611a738261569b565b8982526020820192611a8760043585615eed565b88604084015286606084015260808301528860a083015260c08201528860e0820152856101008201528361012082015288610140820152600754600160401b811015611cca57806001611add9201600755615874565b929092611cb45781518355516006811015611c9e5760ff80196001850154169116176001830155604081015160009060005b60048110611c7f5750506002830155606081015160009060005b60028110611c60575050600a916101409160038501556080810151600485015560a0810151600585015560c08101516006850155611b7060e0820151151560078601615f24565b6101008101516008850155611b8d61012082015160098601615f35565b0151910155600754600019810196908711611c4c5786611bac81615874565b505563ffffffff87168703611c4857927f5ea0402f9a8785c25ad31fd3e0e81f8c2b4ca231668cc82cd03fa34ea1f0ce3c9492611c3d9288979560408b8a60209d52600f8d528181203360018060a01b031982541617905533815260108d5220611c16815461616a565b9055611c228933616673565b611c2c838a616878565b6040519687963395600435896161cf565b0390a2604051908152f35b8780fd5b634e487b7160e01b88526011600452602488fd5b90916020611c766001928460ff87511691615f10565b93019101611b29565b90916020611c956001928460ff87511691615f10565b93019101611b0f565b634e487b7160e01b600052602160045260246000fd5b634e487b7160e01b600052600060045260246000fd5b634e487b7160e01b600052604160045260246000fd5b849150511660018114908115611cf8575b5038611a3e565b600291501438611cf1565b85919250511660018114908115611d1d575b509038611a37565b600291501438611d15565b86919350511660018114908115611d42575b509138611a30565b600291501438611d3a565b600214935038611a29565b600435600103611e2f5792611d9c600c9360ff93611da396858a51169260028414938415611e24575b5083611dff575b5082611dda575b5081611db7575b50615bd7565b1610615c38565b602a549060245493601e5492601854611a5b565b849150511660028114908115611dcf575b5038611d96565b600391501438611dc8565b85919250511660028114908115611df4575b509038611d8f565b600391501438611dec565b86919350511660028114908115611e19575b509138611d88565b600391501438611e11565b600314935038611d81565b600435600203611f065792611e7360109360ff93611e7a96858a51169260038414938415611efb575b5083611ed6575b5082611eb1575b5081611e8e575b50615c7e565b1610615ce1565b602b549060255493601f5492601954611a5b565b849150511660038114908115611ea6575b5038611e6d565b600491501438611e9f565b85919250511660038114908115611ecb575b509038611e66565b600491501438611ec3565b86919350511660038114908115611ef0575b509138611e5f565b600491501438611ee8565b600414935038611e58565b600435600303611fdd5792611f4a60149360ff93611f5196858a51169260048414938415611fd2575b5083611fad575b5082611f88575b5081611f65575b50615d27565b1610615d88565b602c54906026549360205492601a54611a5b565b849150511660048114908115611f7d575b5038611f44565b600591501438611f76565b85919250511660048114908115611fa2575b509038611f3d565b600591501438611f9a565b86919350511660048114908115611fc7575b509138611f36565b600591501438611fbf565b600514935038611f2f565b60048035036120b3579261202060189360ff9361202796858a511692600584149384156120a8575b5083612083575b508261205e575b508161203b575b50615dd1565b1610615e37565b602d54906027549360215492601b54611a5b565b849150511660058114908115612053575b503861201a565b60069150143861204c565b85919250511660058114908115612078575b509038612013565b600691501438612070565b8691935051166005811490811561209d575b50913861200c565b600691501438612095565b600614935038612005565b9250600435600503612127576120e692600660ff875116149283612118575b5082612109575b50816120fa575b50615e82565b602e54906028549360225492601c54611a5b565b5160ff166006149050386120e0565b5160ff166006149150386120d9565b5160ff166006149250386120d2565b60405162461bcd60e51b815260206004820152600c60248201526b77726f6e672052617269747960a01b6044820152606490fd5b8380fd5b6020809161216c8461577e565b815201910190611975565b602080916121848461577e565b815201910190611948565b50346105df5760203660031901126105df576020906004358152600f8252604060018060a01b0391205416604051908152f35b50346105df57806003193601126105df576040516000600182600154926121e8846158a9565b9283835260209485600182169182600014612268575050600114612228575b5061221492500383615736565b610948604051928284938452830190615609565b849150600160005281600020906000915b858310612250575050612214935082010185612207565b80548389018501528794508693909201918101612239565b60ff19168582015261221495151560051b85010192508791506122079050565b50346105df5760403660031901126105df5760406122a461565f565b9160043581526039602052209060018060a01b0316600052602052602060ff604060002054166040519015158152f35b50346105df57806003193601126105df576020602d54604051908152f35b50346105df57806003193601126105df5780806040925260396020522033600052602052602060ff604060002054166040519015158152f35b50346105df5760203660031901126105df57600435602f5481101561078257602f6000527fa813484aef6fb598f9f753daf162068ff39ccea4075cb95e1a30f86995b5b7ee0154604051908152602090f35b50346105df5760203660031901126105df57610948610d5161239d615649565b616501565b50346105df57806003193601126105df576000805160206176958339815191528152603960205260408120336000526020526123e560ff6040600020541661640a565b60016016546123f760ff821615615995565b60ff1916176016557f62e78cea01bee320cd4e420270b5ea74000d11b0c9f74754ebdbfc544b05a2586020604051338152a180f35b50346105df57602090816003193601126105df5760043561245260ff6016541615615995565b61245b81616638565b6001600160a01b0392906124729084163314616462565b338152601284526040812082825284526001926124998460ff60408520541615151461649e565b6124aa8460ff600761117a87615874565b600a6124b584615874565b50015490818352601586528460ff8160408620015460081c1615150361266a57908591338452601283526040842085855283526040842060ff199081815416905533855260138452604085208686528452846040812055600761251787615874565b50018054821690558285526015845260408520600301548015612636579185949391600761254761257f95615874565b50019081541690556033541690845260158352600360408520015460405194858094819363048dbcef60e41b8352336004840161631d565b03925af190811561107957916125c27f97b363697f59781efcf0539a3eeabceea1e3b444e248009d3730fa6a26db9c24949261260d948391612619575b50616338565b600a6125cd83615874565b5001556125f16125eb60ff866125e285615874565b50015416617257565b42615ee0565b60046125fc83615874565b5001556040519182913390836164e8565b0390a15b604051908152f35b6126309150883d8a11610770576107628183615736565b386125bc565b5050505090507f87c3badc36a4b7c7f2331493a7998c2f9c414769a1bc588ef4b4c7ef302aeb5191604051908152a1612611565b60405162461bcd60e51b815260048101879052602c60248201527f796f75206e65656420746f2063616c6c207069636b4d696e656447454d20667560448201526b1b98dd1a5bdb88199a5c9cdd60a21b6064820152608490fd5b50346105df5760203660031901126105df5760ff60406020926004358152601484522054166040519015158152f35b50346105df57806003193601126105df576020602954604051908152f35b50346105df57602090816003193601126105df57610800615649565b50346105df57806003193601126105df57602060ff60315416604051908152f35b50346105df57806003193601126105df576035546040516001600160a01b039091168152602090f35b50346105df57806003193601126105df57808052603960205260408120336000526020526127ac60ff604060002054166159d4565b610862336163d5565b50346105df5760203660031901126105df57610aa06127d2615649565b828052603960205260408320336000526020526127f660ff604060002054166159d4565b8280526039602052610853600160408520015461694b565b50346105df5760203660031901126105df5761093460406109489260ff61283361576e565b1681526008602052206158e3565b50346105df5760403660031901126105df576020906040906001600160a01b03612869615649565b16815260138352818120602435825283522054604051908152f35b50346105df57806003193601126105df57602060ff60355460a01c166040519015158152f35b50346105df5760203660031901126105df5760206128c9600435616638565b6040516001600160a01b039091168152f35b50346105df57806003193601126105df576020601c54604051908152f35b50346105df5760203660031901126105df57600435906007548210156105df5761297b61292583615874565b5080546129a460ff600184015416926004810154926005820154600683015460ff60078501541690600885015492600a612961600988016158e3565b960154976040519a8b9a610120978c5260208c0190615988565b60408a015260608901526080880152151560a087015260c08601528060e0860152840190615609565b906101008301520390f35b50346105df57806003193601126105df576033546040516001600160a01b039091168152602090f35b50346105df57806003193601126105df57602060ff601654166040519015158152f35b50346105df57806003193601126105df576020602654604051908152f35b50346105df57806003193601126105df576020603054604051908152f35b50346105df5760203660031901126105df5760209060ff906040906001600160a01b03612a62615649565b168152603784522054166040519015158152f35b50346105df5760203660031901126105df5760043563ffffffff60e01b81168091036107825790602091815260388252604060018060a01b0391205416604051908152f35b50346105df5760403660031901126105df57610862612ad8615865565b612aed60018060a01b03603454163314615a2c565b6007612afa600435615874565b5001615f24565b50346105df57612b1036615830565b60405191612b1d83615700565b84835261101260ff6016541615615995565b50346105df57806003193601126105df57600080516020617695833981519152815260396020526040812033600052602052612b7260ff6040600020541661640a565b601654612b8260ff821615615995565b60ff19166016557f5db9ee0a495bf2e6ff9c91a7834c1ba4fdd244a5e8aa4e537bd38aeae4b073aa6020604051338152a180f35b50346105df57806003193601126105df5760206040516000805160206176958339815191528152f35b50346105df5760403660031901126105df577f00000000000000000000000000000000000000000000000000000000000000006001600160a01b031633819003612ee057506004358152601560205260ff60016040832001541615612ea85760043581526015602052612c796002612c72604084206001810161010061ff00198254161790556024358382015554615874565b50016165e4565b60ff81511660ff6020830151169160ff6060816040840151169201511691612cbc8593612cb760075494612cb7612caf87615a8e565b988a96615b0d565b615b0d565b855b838110612dbb5750505050612cd281615a8e565b91835b828110612d9c5750507fdd6ebb40766c50572c78f680f70ff043535bc04e71ac56a352f7c3df1e11ec516040518281526040602082015280612d1a60408201866157fc565b0390a1801580612d8357612d6f57612d59600792612d5f926024350690612d418282615ac0565b51600435875260156020526003604088200155615ac0565b51615874565b5001805460ff1916600117905580f35b634e487b7160e01b83526012600452602483fd5b5050506004358152601560205280600360408220015580f35b80612da960019284615ac0565b51612db48287615ac0565b5201612cd5565b612e06612dec60ff6002612dce85615874565b5001541660ff6002612ddf86615874565b50015460081c1690615b0d565b60ff6002612df985615874565b50015460101c1690615b0d565b60ff612e29612e1484615874565b509282600281881695015460181c1690615b0d565b161080612e84575b80612e6c575b612e44575b600101612cbe565b93916001808092612e5488615874565b5054612e60828b615ac0565b52019301949050612e3c565b5060ff6007612e7a83615874565b5001541615612e37565b50808752600f60205260408720546033546001600160a01b03908116911614612e31565b60405162461bcd60e51b815260206004820152601060248201526f52657175657374206e6f74206d61646560801b6044820152606490fd5b6044906040519063073e64fd60e21b82523360048301526024820152fd5b50346105df5760403660031901126105df57612f1861565f565b336001600160a01b03821603612f3457610aa0906004356171f2565b60405163334bd91960e11b8152600490fd5b50346105df5760803660031901126105df576004356001600160401b038111610782573660238201121561078257806004013590612f8382615757565b91612f916040519384615736565b8083526024602084019160051b8301019136831161107557602401905b8282106137e757505050600690600660243510156137e3573660631215610f7557604051612fdb8161571b565b608481368211610f75576044905b8282106137cb5750505061300260ff6016541615615995565b61300d33151561625a565b60ff8151169160ff60208301511691600095602435156000146136da57613037600284511461637f565b601e54966024549660185498602a5498939199949290995b6040519a61305c8c6156e5565b6080368d37839a84975b89518910156132e457613079898b615ac0565b518652600f6020526040862054336001600160a01b03909116036132b35760ff60076130a8612d598c8e615ac0565b5001541661326f578460ff60016130c2612d598d8f615ac0565b500154169061325b578481101561325b5760243503613222578d606060ff613185818e6131738f806130fa612d59612d599386615ac0565b5093856131118160028098015416828d5116615b0d565b168a528561313b8b826020818a61312b612d598a8a615ac0565b50015460081c1692015116615b0d565b1660208b0152856131688b826040818a613158612d598a8a615ac0565b50015460101c1692015116615b0d565b1660408b0152615ac0565b50015460181c16828486015116615b0d565b16910152855b8a51811015613216578d156131a3575b60010161318b565b8c9d50808c91828f8e6131b68f82615ac0565b51936131c191615ac0565b516131cb93616af4565b9e8f926001936131df575b5050905061319b565b7fca7a2fe4405fb5bae2732ff63f6d1976dec8ed09ba2fae7003a209e26154b08f9160409182519182526020820152a18d8d6131d6565b50600190980197613066565b60405162461bcd60e51b815260206004820152601160248201527077726f6e67207261726974792047656d7360781b6044820152606490fd5b634e487b7160e01b87526021600452602487fd5b60405162461bcd60e51b815260206004820152601c60248201527b47656d20697320666f722073616c65206f72206973206d696e696e6760201b6044820152606490fd5b60405162461bcd60e51b81526020600482015260096024820152683737ba1037bbb732b960b91b6044820152606490fd5b9391969250948c89958d1561369657805b875181101561331b578061331561330e6001938b615ac0565b51336174ef565b016132f5565b5086888a600185511685526001602086015116602086015260016040860151166040860152600160608601511660608601526040519761335a896156e5565b6080368a3784886136825760243561362c57506002965b855b60ff811660048110156133b45760ff918c836133a9846133a38f8f61339b6001998792615ad4565b511690615b0d565b93615ad4565b911690520116613373565b5050899596508a898960ff89511660ff6133cd83615ae5565b161480613611575b806135f6575b806135db575b6135be575b506135aa5760ff6133f8602435615ae5565b169460068610156135965761340d9042615ee0565b926040519361341b8561569b565b89855261342b8760208701615eed565b886040860152836060860152608085015260a084015260c08301528660e0830152610100838184015260405161346081615700565b88815261012084015261347a61014093898582015261603a565b600754600019810197908811613582578761349481615874565b505563ffffffff8816880361357e577fb008433c5118253ef92bed2a1bd3b95470d4c373e1c4b9586459e65204efa8c496949261354d9694926135686135709361352f8d61351a60209f8f8091526020600f9052604083203360018060a01b031982541617905533835260206010905260408320613512815461616a565b905533616673565b6040519061352782615700565b81528d616878565b61355e6040519a8b9a8f8c61016091829133815201528c01906157fc565b988d60408c015260608b0190615988565b60808901906161a4565b860190616179565b8301520390a1604051908152f35b8880fd5b634e487b7160e01b89526011600452602489fd5b634e487b7160e01b89526021600452602489fd5b634e487b7160e01b88526021600452602488fd5b60ff168089528060208a01528060408a01526060890152896133e6565b5060ff60608a01511660ff6135ef83615ae5565b16146133e1565b5060ff60408a01511660ff61360a83615ae5565b16146133db565b5060ff60208a01511660ff61362583615ae5565b16146133d5565b6000985060243560010361364457506003965b613371565b6024356002036136575750600496613371565b6000985060243560030361366e5750600596613371565b9660046024350361363f5760069750613371565b634e487b7160e01b86526021600452602486fd5b60405162461bcd60e51b815260206004820152601c60248201527b1d1a1a5cc818dbdb1bdc8818d85b89dd081899481bd89d185a5b995960221b6044820152606490fd5b60243560010361370e576136f1600384511461637f565b601f54966025549660195498602b545b989391999492909961304f565b6000965060243560020361373d57613729600484511461637f565b6020549660265496601a5498602c54613701565b60243560030361376857613754600584511461637f565b6021549660275496601b5498602d54613701565b6000965060243560040361379757613783600684511461637f565b6022549660285496601c5498602e54613701565b60405162461bcd60e51b815260206004820152600c60248201526b77726f6e672072617269747960a01b6044820152606490fd5b602080916137d88461577e565b815201910190612fe9565b8280fd5b8135815260209182019101612fae565b50346105df57806003193601126105df576020604051620334508152f35b50346105df5760403660031901126105df5761388a81613833615649565b8180526020928391603983526040842033600052835261385a60ff604060002054166159d4565b60335460405163048dbcef60e41b81529485936001600160a01b039092169284928391602435906004840161631d565b03925af19081156138c5576138a59293916138ae5750616338565b60405160018152f35b6126309150833d8511610770576107628183615736565b6040513d85823e3d90fd5b50346105df5760203660031901126105df576108626138ed615649565b8280526039602052604083203360005260205261391160ff604060002054166159d4565b6163f1565b50346105df5760403660031901126105df57610aa060043561393661565f565b90808452603960205261394f600160408620015461694b565b616a8b565b50346105df5760203660031901126105df57602060ff6007613977600435615874565b500154166040519015158152f35b50602080600319360112610782576004356139a560ff6016541615615995565b6002603a5414613d02576002603a556139bd81616638565b6001600160a01b0390811633148015613cdf575b15613c9d5733845260138352604084208285528352613a02604085205460056139f985615874565b50015490615ee0565b421115613c585760079293613a2c613a1984615874565b5060ff60019687920154161515146162c4565b81613a3684616638565b168152601285526040812083825285528360ff604083205416151503613c225760405191606083018381106001600160401b03821117613c0e5760405281835263ffffffff868401938385526040810190620334508252604051956309160b1560e11b875261ffff8092511660048801525116602486015251166044840152858360648134857f0000000000000000000000000000000000000000000000000000000000000000165af1928315611079578293613bdf575b5082600a613afb86615874565b5001558282526015865260408220848155858101805460ff19168717905560040180546001600160a01b03191633179055603080548601905560355416803b15610782578180916024604051809481936324adeca760e11b83528860048401525af18015611079576003604080957fd8d282938b8a25adfd1ff3df570c529f147b9700ff1a12712d2a2f737cfff5149795600a95613bb795613bd0575b50908086613ba589615874565b500155815260158a5220015492615874565b500154825191825285820152a180603a55604051908152f35b613bd9906156b7565b38613b98565b9092508581813d8311613c07575b613bf78183615736565b8101031261078257519138613aee565b503d613bed565b634e487b7160e01b83526041600452602483fd5b60405162461bcd60e51b815260048101869052600e60248201526d67656d206e6f74206d696e696e6760901b6044820152606490fd5b60405162461bcd60e51b815260048101849052601d60248201527f6d696e696e6720706572696f6420686173206e6f7420656c61707365640000006044820152606490fd5b60405162461bcd60e51b815260048101849052601a6024820152793737ba1023a2a69037bbb732b91037b9103737ba1030b236b4b760311b6044820152606490fd5b5083805260398352604084203385528352600160ff6040862054161515146139d1565b604051633ee5aeb560e01b8152600490fd5b50346105df5760203660031901126105df5760ff6040602092613d35615649565b818052603985528282206001600160a01b03909116825284522054604051911615158152f35b50346105df5760203660031901126105df5760016040602092600435815260398452200154604051908152f35b50346105df57613d9736615830565b9291613da860ff6016541615615995565b6001600160a01b038281169081156110755780831691828114613fb65760ff6007613dd289615874565b50015416613f81578282613de589616638565b1603613f3c578690613e006125eb60ff60016125e286615874565b6004613e0b84615874565b5001558087526020926010845260408820613e26815461616a565b9055828852600f84526002604089209160018060a01b0319928484825416179055868a526010865260408a20613e5c8154616295565b9055848a5281865260408a2054169433613f2c575b85613f0b575b838a526003815260408a2060018154019055848a5252816040892091825416179055826000805160206176b58339815191528880a4818103613ee757505061070e7f85d07a7616aea29f5d972fd9100b991c224490bd49b737377d908f66f34d9afd9394604051938493846162a2565b6064925085604051926364283d7b60e01b8452600484015260248301526044820152fd5b613f1485617656565b858a526003815260408a208054600019019055613e77565b613f378533886172ec565b613e71565b60405162461bcd60e51b815260206004820152601d60248201527f73656e646572206973206e6f742074686520746f6b656e206f776e65720000006044820152606490fd5b60405162461bcd60e51b815260206004820152600d60248201526c11d95b481a5cc81b1bd8dad959609a1b6044820152606490fd5b8580fd5b50346105df57806003193601126105df576020601b54604051908152f35b50346105df57602090816003193601126105df5760043590613fff60ff6016541615615995565b61400a33151561625a565b336001600160a01b0361401c84616638565b160361428557600461402d83615874565b50015442106142345760ff600761404384615874565b500154166141de5760ff600161405884615874565b5001541660068110156141ca571561418657600661407583615874565b50015415614137577fcfdb0da0eda7e72692cc304e4e58d2543a70ce5269931e91e02337cbff2a1ef19160809133815260128552604081208282528552604081209060ff199160018382541617905533815260138652604081208382528652604042912055600160076140e784615874565b50019182541617905560066140fb82615874565b50016141078154616295565b9055600661411482615874565b50015460405191825233858301524260408301526060820152a160405160018152f35b60405162461bcd60e51b815260048101849052602160248201527f6e6f206d696e696e6720706f776572206c65667420666f7220746861742047456044820152604d60f81b6064820152608490fd5b60405162461bcd60e51b815260048101849052601c60248201527b726172697479206d757374206265206174206c65617374205241524560201b6044820152606490fd5b634e487b7160e01b82526021600452602482fd5b60405162461bcd60e51b815260048101849052602860248201527f47656d206973206c697374656420666f722073616c65206f7220616c7265616460448201526779206d696e696e6760c01b6064820152608490fd5b60405162461bcd60e51b815260048101849052602360248201527f47656d20636f6f6c646f776e20706572696f6420686173206e6f7420656c61706044820152621cd95960ea1b6064820152608490fd5b60405162461bcd60e51b815260048101849052600d60248201526c3737ba1033b2b69037bbb732b960991b6044820152606490fd5b50346105df5760203660031901126105df576004356001600160401b038111610782576142eb9036906004016157de565b6142fc6142f7336165b9565b6159d4565b60ff600c54168252600b6020526143168160408420615f35565b600d54600160401b811015613c0e576001810180600d558110156143bf57600d83526143659082907fd7b6990105719101dabeb77144f2a3385c8033acd3af97e9423a695e81ad1eb501615f35565b7fd961fa20561746b8576d7b504b0bc57067c67db2ce13bd9866d451bec5985f4b6143b9600c549260ff61439a818616616237565b16809460ff191617600c55604051918291602083526020830190615609565b0390a280f35b634e487b7160e01b83526032600452602483fd5b50346105df57806003193601126105df576020602b54604051908152f35b50346105df57806003193601126105df576020612611616248565b50346105df5760203660031901126105df57610862614429615649565b6144356142f7336165b9565b6163d5565b50346105df5760403660031901126105df576024356001600160401b0381116107825761446e6108629136906004016157de565b600435616878565b50346105df5760203660031901126105df576004356001600160401b038111610782576144a79036906004016157de565b6144b36142f7336165b9565b60ff60095416825260086020526144cd8160408420615f35565b600a54600160401b811015613c0e576001810180600a558110156143bf57600a835261451c9082907fc65a7bb8d6351c1cf70c95a316cc6a92839c986682d98bc35f958f4883f9d2a801615f35565b7fe4d2864ec291f6f11cb3363fa1bd2a4d5ff49a2cfdf4bf7dfe3b90a26b8c776f6143b96009549260ff614551818616616237565b16809460ff191617600955604051918291602083526020830190615609565b50346105df57806003193601126105df576020602854604051908152f35b50346105df57806003193601126105df576020601754604051908152f35b50346105df5760803660031901126105df576004356001600160401b038082116137e357366023830112156137e35781600401356145e981615757565b926145f76040519485615736565b8184526024602085019260051b82010190368211613fb657602401915b81831061522f575050506024359181831161215b573660238401121561215b5782600401359261464384615757565b936146516040519586615736565b8085526024602086019160061b8301019136831161522b57602401905b8282106151ce5750505060443582811161107557366023820112156110755780600401359061469c82615757565b916146aa6040519384615736565b8083526024602084019160071b83010191368311611c4857602401905b82821061517557505050606435838111613fb65736602382011215613fb6578060040135936146f585615757565b946147036040519687615736565b8086526024602087019160051b8401019136831161357e5760248401915b83831061514957505050505061474260018060a01b03603354163314615a2c565b61475160ff6016541615615995565b81518451809114908161513e575b5080615133575b156150df576147758251615a8e565b928594869087918897895b87518110156150c9576147d56147c76147b98960ff60206147af87836147a68287615ac0565b51511694615ac0565b5101511690615b0d565b60ff60406147af868d615ac0565b60ff60606147af858c615ac0565b6147e76147e2838b615ac0565b615b21565b6006811015614c455715614fad575b6148036147e2838b615ac0565b6006811015614c4557600114614e91575b6148216147e2838b615ac0565b6006811015614c4557600214614d75575b61483f6147e2838b615ac0565b6006811015614c4557600314614c59575b61485d6147e2838b615ac0565b6006811015614c4557600414614b0c575b5061487c6147e2828a615ac0565b6006811015614af857600514614a58575b6149218b61489e6147e2848c615ac0565b886148a9858c615ac0565b516148b4868a615ac0565b51906148e76148cd886148c78b42615ee0565b95615ac0565b5194604051966148dc8861569b565b875260208701615eed565b6040850152606084015260808301528560a08301528c60c08301528d60e0830152876101008301526101208201528c61014082015261603a565b60075480600019810111614a44578b919060001980820163ffffffff168203016137e357887f5ea0402f9a8785c25ad31fd3e0e81f8c2b4ca231668cc82cd03fa34ea1f0ce3c8989614a2c8a8f88614a0e81614a0781614a0160019f828f986149f1614a159a8f846149f69160406147e2986149a06000198701615874565b50600019870163ffffffff81169091558152600f602090815282822080546001600160a01b031916339081179091558252601090522080546149e19061616a565b90556149f1600019850133616673565b615ac0565b519060001901616878565b96615ac0565b5199615ac0565b5195615ac0565b518a8c6040519687966000198c019a3396896161cf565b0390a260001901614a3d828c615ac0565b5201614780565b634e487b7160e01b8c52601160045260248cfd5b809950600693945060ff9250614a6f915086615ac0565b5151161480614add575b80614ac2575b80614aa2575b614a8e90615e82565b602e549060285460225492601c549861488d565b50614a8e600660ff6060614ab68a88615ac0565b51015116149050614a85565b50600660ff6040614ad38987615ac0565b5101511614614a7f565b50600660ff6020614aee8987615ac0565b5101511614614a79565b634e487b7160e01b8c52602160045260248cfd5b909950614b519394506018925060ff9150600582614b2a8c8a615ac0565b515116148015614c29575b612020908b81614be8575b81614ba7575b81614b665750615dd1565b602d549060275460215492601b54983861486e565b600591506060614b7786928c615ac0565b51015116148b8115614b8b575b508b61201a565b600691506060614b9c86928c615ac0565b51015116148b614b84565b600591506040614bb886928c615ac0565b51015116148b8115614bcc575b508b614b46565b600691506040614bdd86928c615ac0565b51015116148b614bc5565b600591506020614bf986928c615ac0565b51015116148b8115614c0d575b508b614b40565b600691506020614c1e86928c615ac0565b51015116148b614c06565b50612020600683614c3a8d8b615ac0565b515116149050614b35565b634e487b7160e01b8d52602160045260248dfd5b995093505050600460ff614c6d8487615ac0565b515116148015614d5d575b80614d27575b80614cf1575b80614cb6575b614c9390615d27565b614ca2601460ff891610615d88565b602c546026549060205493601a5499614850565b50600460ff6060614cc78588615ac0565b510151161480614c8a5750614c93600560ff6060614ce58689615ac0565b51015116149050614c8a565b50600460ff6040614d028588615ac0565b510151161480614c845750600560ff6040614d1d8588615ac0565b5101511614614c84565b50600460ff6020614d388588615ac0565b510151161480614c7e5750600560ff6020614d538588615ac0565b5101511614614c7e565b50600560ff614d6c8487615ac0565b51511614614c78565b995093505050600360ff614d898487615ac0565b515116148015614e79575b80614e43575b80614e0d575b80614dd2575b614daf90615c7e565b614dbe601060ff891610615ce1565b602b5460255490601f549360195499614832565b50600360ff6060614de38588615ac0565b510151161480614da65750614daf600460ff6060614e018689615ac0565b51015116149050614da6565b50600360ff6040614e1e8588615ac0565b510151161480614da05750600460ff6040614e398588615ac0565b5101511614614da0565b50600360ff6020614e548588615ac0565b510151161480614d9a5750600460ff6020614e6f8588615ac0565b5101511614614d9a565b50600460ff614e888487615ac0565b51511614614d94565b995093505050600260ff614ea58487615ac0565b515116148015614f95575b80614f5f575b80614f29575b80614eee575b614ecb90615bd7565b614eda600c60ff891610615c38565b602a5460245490601e549360185499614814565b50600260ff6060614eff8588615ac0565b510151161480614ec25750614ecb600360ff6060614f1d8689615ac0565b51015116149050614ec2565b50600260ff6040614f3a8588615ac0565b510151161480614ebc5750600360ff6040614f558588615ac0565b5101511614614ebc565b50600260ff6020614f708588615ac0565b510151161480614eb65750600360ff6020614f8b8588615ac0565b5101511614614eb6565b50600360ff614fa48487615ac0565b51511614614eb0565b995093505050600160ff614fc18487615ac0565b5151161480156150b1575b8061507b575b80615045575b8061500a575b614fe790615b2e565b614ff6600860ff891610615b91565b60295460235490601d5493601754996147f6565b50600160ff606061501b8588615ac0565b510151161480614fde5750614fe7600260ff60606150398689615ac0565b51015116149050614fde565b50600160ff60406150568588615ac0565b510151161480614fd85750600260ff60406150718588615ac0565b5101511614614fd8565b50600160ff602061508c8588615ac0565b510151161480614fd25750600260ff60206150a78588615ac0565b5101511614614fd2565b50600260ff6150c08487615ac0565b51511614614fcc565b604051602080825281906109489082018c6157fc565b60405162461bcd60e51b815260206004820152602660248201527f496e70757420617272617973206d7573742068617665207468652073616d65206044820152650d8cadccee8d60d31b6064820152608490fd5b508051835114614766565b90508151143861475f565b8235828111615171576020916151668392602436918a01016157de565b815201920191614721565b8a80fd5b36601f83011215611c485760405161518c816156e5565b80608084013681116151715784915b8183106151b6575050508160209160809352019101906146c7565b602080916151c38561577e565b81520192019161519b565b36601f8301121561522b576040516151e58161571b565b80604084013681116152275784915b81831061520f5750505081602091604093520191019061466e565b6020809161521c8561577e565b8152019201916151f4565b8980fd5b8680fd5b8235600681101561522b57815260209283019201614614565b50346105df57806003193601126105df576020602454604051908152f35b50346105df5761527536615675565b946152886142f7959295949394336165b9565b60235560245560255560265560275560285580f35b50346105df5760403660031901126105df576152b7615649565b6024356152c381616638565b3315158061536d575b80615342575b61532a576001600160a01b039283169282918491167f8c5be1e5ebec7d5bd14f71427d1e84f3dd0314c0f7b2291e5b200ac8c7c3b9258680a4825260046020526040822080546001600160a01b031916909117905580f35b60405163a9fbf51f60e01b8152336004820152602490fd5b506001600160a01b038116845260056020908152604080862033875290915284205460ff16156152d2565b506001600160a01b0381163314156152cc565b50346105df57806003193601126105df57602060ff600c5416604051908152f35b50346105df5760203660031901126105df576020906004356153c281616638565b50815260048252604060018060a01b0391205416604051908152f35b50346105df57806003193601126105df57604051908082825491615401836158a9565b928383526020946001918660018216918260001461546c575050600114615431575b505061221492500383615736565b908592508180528282205b85831061545457505061221493508201013880615423565b8054838901850152879450869390920191810161543c565b925093505061221494915060ff191682840152151560051b8201013880615423565b50346105df57806003193601126105df576020602554604051908152f35b50346105df57806003193601126105df576154cc60ff6016541615615995565b6034546001600160a01b0316801561552f5733825260056020526040822081835260205260408220600160ff19825416179055604051600181527f17307eab39ab6107e8899845ad3d59bd9653f200f220920489ca2b5937696c3160203392a380f35b60249060405190630b61174360e31b82526004820152fd5b50346105df57806003193601126105df57602060ff60095416604051908152f35b9050346107825760203660031901126107825760043563ffffffff60e01b81168091036137e35760209250637965db0b60e01b81149081156155ac575b5015158152f35b632483248360e11b8114915081156155c6575b50386155a5565b6380ac58cd60e01b8114915081156155f8575b81156155e7575b50386155bf565b6301ffc9a760e01b149050386155e0565b635b5e139f60e01b811491506155d9565b919082519283825260005b848110615635575050826000602080949584010152601f8019910116010190565b602081830181015184830182015201615614565b600435906001600160a01b0382168203610f7557565b602435906001600160a01b0382168203610f7557565b60c0906003190112610f7557600435906024359060443590606435906084359060a43590565b61016081019081106001600160401b03821117611cca57604052565b6001600160401b038111611cca57604052565b60c081019081106001600160401b03821117611cca57604052565b608081019081106001600160401b03821117611cca57604052565b602081019081106001600160401b03821117611cca57604052565b604081019081106001600160401b03821117611cca57604052565b90601f801991011681019081106001600160401b03821117611cca57604052565b6001600160401b038111611cca5760051b60200190565b6004359060ff82168203610f7557565b359060ff82168203610f7557565b6001600160401b038111611cca57601f01601f191660200190565b9291926157b38261578c565b916157c16040519384615736565b829481845281830111610f75578281602093846000960137010152565b9080601f83011215610f75578160206157f9933591016157a7565b90565b90815180825260208080930193019160005b82811061581c575050505090565b83518552938101939281019260010161580e565b6060906003190112610f75576001600160a01b03906004358281168103610f7557916024359081168103610f75579060443590565b602435908115158203610f7557565b600754811015615893576007600052600b602060002091020190600090565b634e487b7160e01b600052603260045260246000fd5b90600182811c921680156158d9575b60208310146158c357565b634e487b7160e01b600052602260045260246000fd5b91607f16916158b8565b906040519182600082546158f6816158a9565b908184526020946001916001811690816000146159665750600114615927575b50505061592592500383615736565b565b600090815285812095935091905b81831061594e5750506159259350820101388080615916565b85548884018501529485019487945091830191615935565b9250505061592594925060ff191682840152151560051b820101388080615916565b906006821015611c9e5752565b1561599c57565b60405162461bcd60e51b815260206004820152601060248201526f14185d5cd8589b194e881c185d5cd95960821b6044820152606490fd5b156159db57565b60405162461bcd60e51b815260206004820152602360248201527f41757468436f6e74726f6c3a2043616c6c6572206973206e6f7420616e20616460448201526236b4b760e91b6064820152608490fd5b15615a3357565b60405162461bcd60e51b815260206004820152602d60248201527f66756e6374696f6e2063616c6c61626c652066726f6d2074726561737572792060448201526c636f6e7472616374206f6e6c7960981b6064820152608490fd5b90615a9882615757565b615aa56040519182615736565b8281528092615ab6601f1991615757565b0190602036910137565b80518210156158935760209160051b010190565b9060048110156158935760051b0190565b60ff60019116019060ff8211615af757565b634e487b7160e01b600052601160045260246000fd5b9060ff8091169116019060ff8211615af757565b516006811015611c9e5790565b15615b3557565b60405162461bcd60e51b815260206004820152602e60248201527f416c6c207175616472616e7473206d7573742062652031206f72203220666f7260448201526d20434f4d4d4f4e2072617269747960901b6064820152608490fd5b15615b9857565b60405162461bcd60e51b8152602060048201526017602482015276191919191034b9902920a922903737ba1021a7a6a6a7a760491b6044820152606490fd5b15615bde57565b60405162461bcd60e51b815260206004820152602c60248201527f416c6c207175616472616e7473206d7573742062652032206f72203320666f7260448201526b20524152452072617269747960a01b6064820152608490fd5b15615c3f57565b60405162461bcd60e51b81526020600482015260176024820152763333333320697320554e49515545206e6f74205241524560481b6044820152606490fd5b15615c8557565b60405162461bcd60e51b815260206004820152602e60248201527f416c6c207175616472616e7473206d7573742062652033206f72203420666f7260448201526d20554e495155452072617269747960901b6064820152608490fd5b15615ce857565b60405162461bcd60e51b8152602060048201526017602482015276343434342069732045504943206e6f7420554e4951554560481b6044820152606490fd5b15615d2e57565b60405162461bcd60e51b815260206004820152602c60248201527f416c6c207175616472616e7473206d7573742062652034206f72203520666f7260448201526b20455049432072617269747960a01b6064820152608490fd5b15615d8f57565b60405162461bcd60e51b815260206004820152601a60248201527935353535206973204c4547454e44415259206e6f74204550494360301b6044820152606490fd5b15615dd857565b60405162461bcd60e51b815260206004820152603160248201527f416c6c207175616472616e7473206d7573742062652035206f72203620666f72604482015270204c4547454e444152592072617269747960781b6064820152608490fd5b15615e3e57565b60405162461bcd60e51b815260206004820152601c60248201527b36363636206973204d5954484943206e6f74204c4547454e4441525960201b6044820152606490fd5b15615e8957565b60405162461bcd60e51b815260206004820152602960248201527f416c6c207175616472616e7473206d757374206265203620666f72204d59544860448201526849432072617269747960b81b6064820152608490fd5b91908201809211615af757565b6006821015611c9e5752565b818110615f04575050565b60008155600101615ef9565b9060ff809160031b9316831b921b19161790565b9060ff801983541691151516179055565b91909182516001600160401b038111611cca57615f5282546158a9565b601f8111615ffd575b50602080601f8311600114615f98575081929394600092615f8d575b50508160011b916000199060031b1c1916179055565b015190503880615f77565b90601f19831695846000526020600020926000905b888210615fe557505083600195969710615fcc575b505050811b019055565b015160001960f88460031b161c19169055388080615fc2565b80600185968294968601518155019501930190615fad565b61602a90836000526020600020601f840160051c81019160208510616030575b601f0160051c0190615ef9565b38615f5b565b909150819061601d565b60075490600160401b821015611cca5761605c60019260018101600755615874565b929092611cb457815183556001830190602080840151926006841015611c9e5760ff9291921981541660ff8095161790556002604085015160009060005b6004811061614757505060028701556060850151926000946000905b83821061612457505050505050600a916101409160038501556080810151600485015560a0810151600585015560c0810151600685015561610060e0820151151560078601615f24565b610100810151600885015561611d61012082015160098601615f35565b0151910155565b909192938361613a87988585859a511691615f10565b97019594939201906160b6565b9091938561615d82979596848a87511691615f10565b930191019493929461609a565b6000198114615af75760010190565b6000915b6002831061618a57505050565b60019060ff8351168152602080910192019201919061617d565b6000915b600483106161b557505050565b60019060ff835116815260208091019201920191906161a8565b969361620c906162279692946161fd61016099959c9b9c6161f38c61018099615988565b60208c0190616179565b60608a015260808901906161a4565b61010087015261012086015280610140860152840190615609565b6001600160a01b03909416910152565b60ff1660ff8114615af75760010190565b6007546000198101908111615af75790565b1561626157565b60405162461bcd60e51b815260206004820152600c60248201526b7a65726f206164647265737360a01b6044820152606490fd5b8015615af7576000190190565b6001600160a01b03918216815291166020820152604081019190915260600190565b156162cb57565b60405162461bcd60e51b815260206004820152601260248201527147656d73206973206e6f74206d696e696e6760701b6044820152606490fd5b90816020910312610f7557518015158103610f755790565b6001600160a01b039091168152602081019190915260400190565b1561633f57565b60405162461bcd60e51b81526020600482015260186024820152773330b4b632b2103a37903a3930b739b332b9103a37b5b2b760411b6044820152606490fd5b1561638657565b60405162461bcd60e51b815260206004820152602160248201527f77726f6e67206e756d626572206f662047656d7320746f20626520666f7267656044820152601960fa1b6064820152608490fd5b336001600160a01b03821603612f34576163ee9061718b565b50565b336001600160a01b03821603612f34576163ee90617103565b1561641157565b60405162461bcd60e51b815260206004820152602360248201527f41757468436f6e74726f6c3a2043616c6c6572206973206e6f7420612070617560448201526239b2b960e91b6064820152608490fd5b1561646957565b60405162461bcd60e51b815260206004820152600d60248201526c3737ba1023a2a69037bbb732b960991b6044820152606490fd5b156164a557565b60405162461bcd60e51b815260206004820152601b60248201527a75736572206973206e6f74206d696e696e6720746869732047656d60281b6044820152606490fd5b9081526001600160a01b03909116602082015260400190565b60018060a01b038091166000918183526020916010602052604090604085205480156000146165455750505050506040519061653c82615700565b80825236813790565b61655490969592939496615a8e565b9361655d616248565b938360015b868111156165765750959750505050505050565b808252600f8a528484848420541614616598575b6165939061616a565b616562565b946165b181876165ab616593948c615ac0565b5261616a565b95905061658a565b6001600160a01b031660009081526000805160206176f5833981519152602052604090205460ff1690565b9060ff60405192548181168452818160081c166020850152818160101c16604085015260181c166060830152615925826156e5565b9060ff6040519254818116845260081c1660208301526159258261571b565b6000818152600260205260409020546001600160a01b031690811561665b575090565b60249060405190637e27328960e01b82526004820152fd5b604080519261668184615700565b60008085526001600160a01b03948486169491929185156168605782845260209660028852858520541683878215159283616840575b81885260038b528888208054600101905582885260028b5288882080546001600160a01b031916831790556000805160206176b58339815191528880a4616828573b616706575b505050505050565b85616744918596979894955180938192630a85bd0160e11b968784523360048501528960248501526044840152608060648401526084830190615609565b0381878a5af18491816167e8575b506167b1575050503d6000146167a9573d61676c8161578c565b9061677984519283615736565b81528091853d92013e5b805193846167a3578251633250574960e11b815260048101859052602490fd5b84925001fd5b506060616783565b919550915063ffffffff60e01b16036167d15750503880808080806166fe565b602492505190633250574960e11b82526004820152fd5b9091508781813d8311616821575b6168008183615736565b8101031261107557516001600160e01b031981168103611075579038616752565b503d6167f6565b84516339e3563760e11b815260048101859052602490fd5b61684983617656565b80885260038b5288882080546000190190556166b7565b8451633250574960e11b815260048101859052602490fd5b906001600160a01b0361688a83616638565b1633148015616920575b156168dc57816168d36020927ff8e1a15aba9398e019f0b49df1a4fde98ee17ae345cb5f6b5e2c27f5033e8ce794600052600684526040600020615f35565b604051908152a1565b60405162461bcd60e51b815260206004820152601c60248201527b6e6f7420616c6c6f77656420746f2073657420746f6b656e2055524960201b6044820152606490fd5b503360009081526000805160206176f5833981519152602052604090205460ff161515600114616894565b80600052603960205260406000203360005260205260ff60406000205416156169715750565b6044906040519063e2517d3f60e01b82523360048301526024820152fd5b6001600160a01b031660008181526000805160206176f5833981519152602052604081205490919060ff166169f85781805260396020526040822081835260205260408220600160ff1982541617905533916000805160206176758339815191528180a4600190565b5090565b6001600160a01b031660008181527fd95d3dc5c767da187ebe3a592bd812474f819339762f3240e44b62d8c6f837e160205260408120549091906000805160206177158339815191529060ff16616a865780835260396020526040832082845260205260408320600160ff19825416179055600080516020617675833981519152339380a4600190565b505090565b906000918083526039602052604083209160018060a01b03169182845260205260ff60408420541615600014616a865780835260396020526040832082845260205260408320600160ff19825416179055600080516020617675833981519152339380a4600190565b6000949391908181146170f9576003616b0f616b1692615874565b5001616619565b9260ff90616b336003616b0f846020818a51169901511695615874565b948260208188511697015116918482148080916170f0575b806170e7575b6170c15780806170b8575b616df25780159081806170af575b8061709d575b8015617073575b61701c57819081617012575b81616ff6575b8115616fc3575b50616eab578080616ea1575b80616e76575b616e52578080616e48575b80616e16575b616d46575b80616d3c575b80616d32575b80616d28575b80616d1e575b80616d14575b616be35750505050505050565b83949596979850929091921690808214968780616d08575b8815616ced575b508715616cd1575b8715616cb5575b8715616c99575b8715616c7c575b508615616c5b575b508515616c37575b505050505090565b149350909183616c4f575b5050503880808080616c2f565b16149050388080616c42565b9095508186149081616c70575b509438616c27565b90508285161438616c68565b909650811480616c8e575b9538616c1f565b508383861614616c87565b809750821480616caa575b96616c18565b508084871614616ca4565b965084821480616cc6575b96616c11565b508284871614616cc0565b965084821480616ce2575b96616c0a565b508684871614616cdc565b90975080616cfd575b9638616c02565b508284871614616cf6565b87861682149850616bfb565b5082851415616bd6565b5082821415616bd0565b5086851415616bca565b5086821415616bc4565b5082871415616bbe565b9890929691828114600014616d85575050508192939495965016938285149485616d79575b8515616c3757505050505090565b84831682149550616d6b565b91969091808203616db3575050508192939495965016938285149485616d79578515616c3757505050505090565b9490969198828214600014616de5575050508192939495965016938285149485616d79578515616c3757505050505090565b8782969398949203616bb8575b509150939495965081925016938285149485616d79578515616c3757505050505090565b508783148015616e3f575b8015616e36575b80616bb35750838614616bb3565b50878614616e28565b50838314616e21565b5083881415616bad565b509150939450819295965016938285149485616d79578515616c3757505050505090565b5087831480616e98575b80616ba257508383148015616ba25750878614616ba2565b50838614616e80565b5083881415616b9c565b909291979850959495600014616f4c57508116938585149586616f40575b8615616f24575b8615616f07575b508515616ee657505050505090565b161492509082616efd575b50503880808080616c2f565b1490503880616ef1565b9095508186161480616f1b575b9438616ed7565b50828414616f14565b955082851480616f35575b95616ed0565b508382821614616f2f565b81831685149650616ec9565b93959250811693828514958680616fb7575b8715616f9c575b508615616f7b57508515616ee657505050505090565b90955082828716149081616f92575b509438616ed7565b9050841438616f8a565b90965080616fac575b9538616f65565b508382821614616fa5565b82841682149750616f5e565b905080616fec575b80616fd7575b38616b90565b50878314158015616fd1575083831415616fd1565b5083881415616fcb565b90508884141580617008575b90616b89565b5088871415617002565b8986149150616b83565b50849791939295969899506000146170565750501692818414948561704a575b8515616ee657505050505090565b8181168414955061703c565b935093501692818414948561704a578515616ee657505050505090565b508080617093575b8015616b77575083891480616b775750838514616b77565b508489141561707b565b5088841480616b705750888714616b70565b50848914616b6a565b50838814616b5c565b5091509294508193959650161492836170db575b50505090565b161490503880806170d5565b50878314616b51565b50838814616b4b565b5060009450505050565b6001600160a01b031660008181527fd95d3dc5c767da187ebe3a592bd812474f819339762f3240e44b62d8c6f837e160205260408120549091906000805160206177158339815191529060ff1615616a86578083526039602052604083208284526020526040832060ff1981541690556000805160206176d5833981519152339380a4600190565b6001600160a01b031660008181526000805160206176f5833981519152602052604081205490919060ff16156169f8578180526039602052604082208183526020526040822060ff19815416905533916000805160206176d58339815191528180a4600190565b906000918083526039602052604083209160018060a01b03169182845260205260ff604084205416600014616a86578083526039602052604083208284526020526040832060ff1981541690556000805160206176d5833981519152339380a4600190565b6006811015611c9e5780156172e557600181146172de57600281146172d757600381146172d057600481146172c9576005146172c35760405162461bcd60e51b815260206004820152600e60248201526d496e76616c69642072617269747960901b6044820152606490fd5b602e5490565b50602d5490565b50602c5490565b50602b5490565b50602a5490565b5060295490565b6001600160a01b0390828216801515908161734c575b501561730e5750505050565b1661732c57604051637e27328960e01b815260048101839052602490fd5b61734860405192839263177e802f60e01b84526004840161631d565b0390fd5b82841680821492508215617384575b50811561736a575b5038617302565b905084600052600460205282604060002054161438617363565b909150600052600560205260406000208160005260205260ff60406000205416903861735b565b813b6173b8575b50505050565b604051630a85bd0160e11b8082523360048301526001600160a01b03928316602483015260448201949094526080606482015260209592909116939092908390617406906084830190615609565b039285816000958187895af18491816174af575b5061747a575050503d600014617472573d6174348161578c565b906174426040519283615736565b81528091843d92013e5b8051928361746d57604051633250574960e11b815260048101849052602490fd5b019050fd5b50606061744c565b919450915063ffffffff60e01b16036174975750388080806173b2565b60249060405190633250574960e11b82526004820152fd5b9091508681813d83116174e8575b6174c78183615736565b8101031261107557516001600160e01b03198116810361107557903861741a565b503d6174bd565b6174f882615874565b919091611cb457600a91600092818480935582600182015582600382016175228160028501615ef9565b617530600484018092615ef9565b55826005820155826006820155826007820155826008820155826009820161755881546158a9565b80617619575b505050015560018060a01b0380911682526010602052826040928381206175858154616295565b9055818152600f6020528381209260018060a01b0319938481541690556002602052848220541680159384156175f8575b83835260026020528583209081541690556000805160206176b58339815191528280a46175e1575050565b602492505190637e27328960e01b82526004820152fd5b61760184617656565b818352600360205285832080546000190190556175b6565b82601f8211600114617631575050555b82388061755e565b909180825261764f601f60208420940160051c840160018501615ef9565b5555617629565b600090815260046020526040902080546001600160a01b031916905556fe2f8788117e7eff1d82e926ec794901d17c78024a50270940304540a733656f0dfcb9fcbfa83b897fb2d5cf4b58962164105c1e71489a37ef3ae0db3fdce576f6ddf252ad1be2c89b69c2b068fc378daa952ba7f163c4a11628f55a4df523b3eff6391f5c32d9c69d2a47ea670b442974b53935d1edc7fd64eb21e047a839171b619fcd35f40c77da8aa64d5f98c1fed669135ecc4f245ce6667721b157f7098f06aa03964db1f7257357ef09714a5f0ca3633723df419e97015e0c7a3e83edb7a264697066735822122054146ffb1dcc93f72ea7d9bf71dbc9bdbc5459ea92655638d2c4f1a551d6903664736f6c63430008190033",
  "linkReferences": {},
  "deployedLinkReferences": {}
}