{
  "_format": "hh-sol-artifact-1",
  "contractName": "GemFactory",
  "sourceName": "src/L2/GemFactory.sol",
  "abi": [
    {
      "inputs": [
        {
          "internalType": "address",
          "name": "coordinator",
          "type": "address"
        }
      ],
      "stateMutability": "nonpayable",
      "type": "constructor"
    },
    {
      "inputs": [],
      "name": "AccessControlBadConfirmation",
      "type": "error"
    },
    {
      "inputs": [
        {
          "internalType": "address",
          "name": "account",
          "type": "address"
        },
        {
          "internalType": "bytes32",
          "name": "neededRole",
          "type": "bytes32"
        }
      ],
      "name": "AccessControlUnauthorizedAccount",
      "type": "error"
    },
    {
      "inputs": [
        {
          "internalType": "address",
          "name": "sender",
          "type": "address"
        },
        {
          "internalType": "uint256",
          "name": "tokenId",
          "type": "uint256"
        },
        {
          "internalType": "address",
          "name": "owner",
          "type": "address"
        }
      ],
      "name": "ERC721IncorrectOwner",
      "type": "error"
    },
    {
      "inputs": [
        {
          "internalType": "address",
          "name": "operator",
          "type": "address"
        },
        {
          "internalType": "uint256",
          "name": "tokenId",
          "type": "uint256"
        }
      ],
      "name": "ERC721InsufficientApproval",
      "type": "error"
    },
    {
      "inputs": [
        {
          "internalType": "address",
          "name": "approver",
          "type": "address"
        }
      ],
      "name": "ERC721InvalidApprover",
      "type": "error"
    },
    {
      "inputs": [
        {
          "internalType": "address",
          "name": "operator",
          "type": "address"
        }
      ],
      "name": "ERC721InvalidOperator",
      "type": "error"
    },
    {
      "inputs": [
        {
          "internalType": "address",
          "name": "owner",
          "type": "address"
        }
      ],
      "name": "ERC721InvalidOwner",
      "type": "error"
    },
    {
      "inputs": [
        {
          "internalType": "address",
          "name": "receiver",
          "type": "address"
        }
      ],
      "name": "ERC721InvalidReceiver",
      "type": "error"
    },
    {
      "inputs": [
        {
          "internalType": "address",
          "name": "sender",
          "type": "address"
        }
      ],
      "name": "ERC721InvalidSender",
      "type": "error"
    },
    {
      "inputs": [
        {
          "internalType": "uint256",
          "name": "tokenId",
          "type": "uint256"
        }
      ],
      "name": "ERC721NonexistentToken",
      "type": "error"
    },
    {
      "inputs": [
        {
          "internalType": "address",
          "name": "have",
          "type": "address"
        },
        {
          "internalType": "address",
          "name": "want",
          "type": "address"
        }
      ],
      "name": "OnlyCoordinatorCanFulfill",
      "type": "error"
    },
    {
      "inputs": [],
      "name": "ReentrancyGuardReentrantCall",
      "type": "error"
    },
    {
      "anonymous": false,
      "inputs": [
        {
          "indexed": true,
          "internalType": "address",
          "name": "owner",
          "type": "address"
        },
        {
          "indexed": true,
          "internalType": "address",
          "name": "approved",
          "type": "address"
        },
        {
          "indexed": true,
          "internalType": "uint256",
          "name": "tokenId",
          "type": "uint256"
        }
      ],
      "name": "Approval",
      "type": "event"
    },
    {
      "anonymous": false,
      "inputs": [
        {
          "indexed": true,
          "internalType": "address",
          "name": "owner",
          "type": "address"
        },
        {
          "indexed": true,
          "internalType": "address",
          "name": "operator",
          "type": "address"
        },
        {
          "indexed": false,
          "internalType": "bool",
          "name": "approved",
          "type": "bool"
        }
      ],
      "name": "ApprovalForAll",
      "type": "event"
    },
    {
      "anonymous": false,
      "inputs": [
        {
          "indexed": true,
          "internalType": "uint8",
          "name": "id",
          "type": "uint8"
        },
        {
          "indexed": false,
          "internalType": "string",
          "name": "backgroundColor",
          "type": "string"
        }
      ],
      "name": "BackgroundColorAdded",
      "type": "event"
    },
    {
      "anonymous": false,
      "inputs": [
        {
          "indexed": false,
          "internalType": "uint256",
          "name": "_fromTokenId",
          "type": "uint256"
        },
        {
          "indexed": false,
          "internalType": "uint256",
          "name": "_toTokenId",
          "type": "uint256"
        }
      ],
      "name": "BatchMetadataUpdate",
      "type": "event"
    },
    {
      "anonymous": false,
      "inputs": [
        {
          "indexed": true,
          "internalType": "uint8",
          "name": "id",
          "type": "uint8"
        },
        {
          "indexed": false,
          "internalType": "string",
          "name": "color",
          "type": "string"
        }
      ],
      "name": "ColorAdded",
      "type": "event"
    },
    {
      "anonymous": false,
      "inputs": [
        {
          "indexed": false,
          "internalType": "uint8",
          "name": "color_0",
          "type": "uint8"
        },
        {
          "indexed": false,
          "internalType": "uint8",
          "name": "color_1",
          "type": "uint8"
        }
      ],
      "name": "ColorValidated",
      "type": "event"
    },
    {
      "anonymous": false,
      "inputs": [
        {
          "indexed": false,
          "internalType": "uint256",
          "name": "gemCount",
          "type": "uint256"
        },
        {
          "indexed": false,
          "internalType": "uint256[]",
          "name": "tokenIds",
          "type": "uint256[]"
        }
      ],
      "name": "CountGemsByQuadrant",
      "type": "event"
    },
    {
      "anonymous": false,
      "inputs": [
        {
          "indexed": true,
          "internalType": "uint256",
          "name": "tokenId",
          "type": "uint256"
        },
        {
          "indexed": false,
          "internalType": "enum GemFactoryStorage.Rarity",
          "name": "rarity",
          "type": "uint8"
        },
        {
          "indexed": false,
          "internalType": "uint8[2]",
          "name": "color",
          "type": "uint8[2]"
        },
        {
          "indexed": false,
          "internalType": "uint256",
          "name": "value",
          "type": "uint256"
        },
        {
          "indexed": false,
          "internalType": "uint8[4]",
          "name": "quadrants",
          "type": "uint8[4]"
        },
        {
          "indexed": false,
          "internalType": "uint256",
          "name": "miningPeriod",
          "type": "uint256"
        },
        {
          "indexed": false,
          "internalType": "uint256",
          "name": "cooldownPeriod",
          "type": "uint256"
        },
        {
          "indexed": false,
          "internalType": "string",
          "name": "tokenURI",
          "type": "string"
        },
        {
          "indexed": false,
          "internalType": "address",
          "name": "owner",
          "type": "address"
        }
      ],
      "name": "Created",
      "type": "event"
    },
    {
      "anonymous": false,
      "inputs": [
        {
          "indexed": false,
          "internalType": "address",
          "name": "gemOwner",
          "type": "address"
        },
        {
          "indexed": false,
          "internalType": "uint256[]",
          "name": "gemsTokenIds",
          "type": "uint256[]"
        },
        {
          "indexed": false,
          "internalType": "uint256",
          "name": "newGemCreatedId",
          "type": "uint256"
        },
        {
          "indexed": false,
          "internalType": "enum GemFactoryStorage.Rarity",
          "name": "newRarity",
          "type": "uint8"
        },
        {
          "indexed": false,
          "internalType": "uint8[4]",
          "name": "forgedQuadrants",
          "type": "uint8[4]"
        },
        {
          "indexed": false,
          "internalType": "uint8[2]",
          "name": "color",
          "type": "uint8[2]"
        },
        {
          "indexed": false,
          "internalType": "uint256",
          "name": "newValue",
          "type": "uint256"
        }
      ],
      "name": "GemForged",
      "type": "event"
    },
    {
      "anonymous": false,
      "inputs": [
        {
          "indexed": false,
          "internalType": "uint256",
          "name": "_tokenId",
          "type": "uint256"
        },
        {
          "indexed": false,
          "internalType": "address",
          "name": "_from",
          "type": "address"
        }
      ],
      "name": "GemMelted",
      "type": "event"
    },
    {
      "anonymous": false,
      "inputs": [
        {
          "indexed": false,
          "internalType": "uint256",
          "name": "tokenId",
          "type": "uint256"
        },
        {
          "indexed": false,
          "internalType": "address",
          "name": "miner",
          "type": "address"
        }
      ],
      "name": "GemMiningClaimed",
      "type": "event"
    },
    {
      "anonymous": false,
      "inputs": [
        {
          "indexed": false,
          "internalType": "uint256",
          "name": "tokenId",
          "type": "uint256"
        },
        {
          "indexed": false,
          "internalType": "address",
          "name": "miner",
          "type": "address"
        },
        {
          "indexed": false,
          "internalType": "uint256",
          "name": "startMiningTime",
          "type": "uint256"
        },
        {
          "indexed": false,
          "internalType": "uint256",
          "name": "newminingTry",
          "type": "uint256"
        }
      ],
      "name": "GemMiningStarted",
      "type": "event"
    },
    {
      "anonymous": false,
      "inputs": [
        {
          "indexed": false,
          "internalType": "uint256",
          "name": "_tokenId",
          "type": "uint256"
        }
      ],
      "name": "MetadataUpdate",
      "type": "event"
    },
    {
      "anonymous": false,
      "inputs": [
        {
          "indexed": false,
          "internalType": "uint256",
          "name": "tokenId",
          "type": "uint256"
        }
      ],
      "name": "NoGemAvailable",
      "type": "event"
    },
    {
      "anonymous": false,
      "inputs": [
        {
          "indexed": false,
          "internalType": "address",
          "name": "account",
          "type": "address"
        }
      ],
      "name": "Paused",
      "type": "event"
    },
    {
      "anonymous": false,
      "inputs": [
        {
          "indexed": false,
          "internalType": "uint256",
          "name": "chosenTokenId",
          "type": "uint256"
        },
        {
          "indexed": false,
          "internalType": "uint256",
          "name": "requestNumber",
          "type": "uint256"
        }
      ],
      "name": "RandomGemSelected",
      "type": "event"
    },
    {
      "anonymous": false,
      "inputs": [
        {
          "indexed": true,
          "internalType": "bytes32",
          "name": "role",
          "type": "bytes32"
        },
        {
          "indexed": true,
          "internalType": "bytes32",
          "name": "previousAdminRole",
          "type": "bytes32"
        },
        {
          "indexed": true,
          "internalType": "bytes32",
          "name": "newAdminRole",
          "type": "bytes32"
        }
      ],
      "name": "RoleAdminChanged",
      "type": "event"
    },
    {
      "anonymous": false,
      "inputs": [
        {
          "indexed": true,
          "internalType": "bytes32",
          "name": "role",
          "type": "bytes32"
        },
        {
          "indexed": true,
          "internalType": "address",
          "name": "account",
          "type": "address"
        },
        {
          "indexed": true,
          "internalType": "address",
          "name": "sender",
          "type": "address"
        }
      ],
      "name": "RoleGranted",
      "type": "event"
    },
    {
      "anonymous": false,
      "inputs": [
        {
          "indexed": true,
          "internalType": "bytes32",
          "name": "role",
          "type": "bytes32"
        },
        {
          "indexed": true,
          "internalType": "address",
          "name": "account",
          "type": "address"
        },
        {
          "indexed": true,
          "internalType": "address",
          "name": "sender",
          "type": "address"
        }
      ],
      "name": "RoleRevoked",
      "type": "event"
    },
    {
      "anonymous": false,
      "inputs": [
        {
          "indexed": true,
          "internalType": "address",
          "name": "from",
          "type": "address"
        },
        {
          "indexed": true,
          "internalType": "address",
          "name": "to",
          "type": "address"
        },
        {
          "indexed": true,
          "internalType": "uint256",
          "name": "tokenId",
          "type": "uint256"
        }
      ],
      "name": "Transfer",
      "type": "event"
    },
    {
      "anonymous": false,
      "inputs": [
        {
          "indexed": false,
          "internalType": "address",
          "name": "from",
          "type": "address"
        },
        {
          "indexed": false,
          "internalType": "address",
          "name": "to",
          "type": "address"
        },
        {
          "indexed": false,
          "internalType": "uint256",
          "name": "tokenId",
          "type": "uint256"
        }
      ],
      "name": "TransferGEM",
      "type": "event"
    },
    {
      "anonymous": false,
      "inputs": [
        {
          "indexed": false,
          "internalType": "address",
          "name": "account",
          "type": "address"
        }
      ],
      "name": "Unpaused",
      "type": "event"
    },
    {
      "inputs": [],
      "name": "ADMIN_ROLE",
      "outputs": [
        {
          "internalType": "bytes32",
          "name": "",
          "type": "bytes32"
        }
      ],
      "stateMutability": "view",
      "type": "function"
    },
    {
      "inputs": [],
      "name": "CALLBACK_GAS_LIMIT",
      "outputs": [
        {
          "internalType": "uint32",
          "name": "",
          "type": "uint32"
        }
      ],
      "stateMutability": "view",
      "type": "function"
    },
    {
      "inputs": [],
      "name": "CommonGemsCooldownPeriod",
      "outputs": [
        {
          "internalType": "uint256",
          "name": "",
          "type": "uint256"
        }
      ],
      "stateMutability": "view",
      "type": "function"
    },
    {
      "inputs": [],
      "name": "CommonGemsMiningPeriod",
      "outputs": [
        {
          "internalType": "uint256",
          "name": "",
          "type": "uint256"
        }
      ],
      "stateMutability": "view",
      "type": "function"
    },
    {
      "inputs": [],
      "name": "CommonGemsValue",
      "outputs": [
        {
          "internalType": "uint256",
          "name": "",
          "type": "uint256"
        }
      ],
      "stateMutability": "view",
      "type": "function"
    },
    {
      "inputs": [],
      "name": "CommonminingTry",
      "outputs": [
        {
          "internalType": "uint256",
          "name": "",
          "type": "uint256"
        }
      ],
      "stateMutability": "view",
      "type": "function"
    },
    {
      "inputs": [],
      "name": "DEFAULT_ADMIN_ROLE",
      "outputs": [
        {
          "internalType": "bytes32",
          "name": "",
          "type": "bytes32"
        }
      ],
      "stateMutability": "view",
      "type": "function"
    },
    {
      "inputs": [],
      "name": "EpicGemsCooldownPeriod",
      "outputs": [
        {
          "internalType": "uint256",
          "name": "",
          "type": "uint256"
        }
      ],
      "stateMutability": "view",
      "type": "function"
    },
    {
      "inputs": [],
      "name": "EpicGemsMiningPeriod",
      "outputs": [
        {
          "internalType": "uint256",
          "name": "",
          "type": "uint256"
        }
      ],
      "stateMutability": "view",
      "type": "function"
    },
    {
      "inputs": [],
      "name": "EpicGemsValue",
      "outputs": [
        {
          "internalType": "uint256",
          "name": "",
          "type": "uint256"
        }
      ],
      "stateMutability": "view",
      "type": "function"
    },
    {
      "inputs": [],
      "name": "EpicminingTry",
      "outputs": [
        {
          "internalType": "uint256",
          "name": "",
          "type": "uint256"
        }
      ],
      "stateMutability": "view",
      "type": "function"
    },
    {
      "inputs": [
        {
          "internalType": "uint256",
          "name": "",
          "type": "uint256"
        }
      ],
      "name": "GEMIndexToOwner",
      "outputs": [
        {
          "internalType": "address",
          "name": "",
          "type": "address"
        }
      ],
      "stateMutability": "view",
      "type": "function"
    },
    {
      "inputs": [
        {
          "internalType": "uint256",
          "name": "",
          "type": "uint256"
        }
      ],
      "name": "Gems",
      "outputs": [
        {
          "internalType": "uint256",
          "name": "tokenId",
          "type": "uint256"
        },
        {
          "internalType": "enum GemFactoryStorage.Rarity",
          "name": "rarity",
          "type": "uint8"
        },
        {
          "internalType": "uint256",
          "name": "gemCooldownPeriod",
          "type": "uint256"
        },
        {
          "internalType": "uint256",
          "name": "miningPeriod",
          "type": "uint256"
        },
        {
          "internalType": "uint256",
          "name": "miningTry",
          "type": "uint256"
        },
        {
          "internalType": "bool",
          "name": "isLocked",
          "type": "bool"
        },
        {
          "internalType": "uint256",
          "name": "value",
          "type": "uint256"
        },
        {
          "internalType": "string",
          "name": "tokenURI",
          "type": "string"
        },
        {
          "internalType": "uint256",
          "name": "randomRequestId",
          "type": "uint256"
        }
      ],
      "stateMutability": "view",
      "type": "function"
    },
    {
      "inputs": [],
      "name": "LegendaryGemsCooldownPeriod",
      "outputs": [
        {
          "internalType": "uint256",
          "name": "",
          "type": "uint256"
        }
      ],
      "stateMutability": "view",
      "type": "function"
    },
    {
      "inputs": [],
      "name": "LegendaryGemsMiningPeriod",
      "outputs": [
        {
          "internalType": "uint256",
          "name": "",
          "type": "uint256"
        }
      ],
      "stateMutability": "view",
      "type": "function"
    },
    {
      "inputs": [],
      "name": "LegendaryGemsValue",
      "outputs": [
        {
          "internalType": "uint256",
          "name": "",
          "type": "uint256"
        }
      ],
      "stateMutability": "view",
      "type": "function"
    },
    {
      "inputs": [],
      "name": "LegendaryminingTry",
      "outputs": [
        {
          "internalType": "uint256",
          "name": "",
          "type": "uint256"
        }
      ],
      "stateMutability": "view",
      "type": "function"
    },
    {
      "inputs": [],
      "name": "MythicGemsCooldownPeriod",
      "outputs": [
        {
          "internalType": "uint256",
          "name": "",
          "type": "uint256"
        }
      ],
      "stateMutability": "view",
      "type": "function"
    },
    {
      "inputs": [],
      "name": "MythicGemsMiningPeriod",
      "outputs": [
        {
          "internalType": "uint256",
          "name": "",
          "type": "uint256"
        }
      ],
      "stateMutability": "view",
      "type": "function"
    },
    {
      "inputs": [],
      "name": "MythicGemsValue",
      "outputs": [
        {
          "internalType": "uint256",
          "name": "",
          "type": "uint256"
        }
      ],
      "stateMutability": "view",
      "type": "function"
    },
    {
      "inputs": [],
      "name": "MythicminingTry",
      "outputs": [
        {
          "internalType": "uint256",
          "name": "",
          "type": "uint256"
        }
      ],
      "stateMutability": "view",
      "type": "function"
    },
    {
      "inputs": [],
      "name": "PAUSE_ROLE",
      "outputs": [
        {
          "internalType": "bytes32",
          "name": "",
          "type": "bytes32"
        }
      ],
      "stateMutability": "view",
      "type": "function"
    },
    {
      "inputs": [],
      "name": "RareGemsCooldownPeriod",
      "outputs": [
        {
          "internalType": "uint256",
          "name": "",
          "type": "uint256"
        }
      ],
      "stateMutability": "view",
      "type": "function"
    },
    {
      "inputs": [],
      "name": "RareGemsMiningPeriod",
      "outputs": [
        {
          "internalType": "uint256",
          "name": "",
          "type": "uint256"
        }
      ],
      "stateMutability": "view",
      "type": "function"
    },
    {
      "inputs": [],
      "name": "RareGemsValue",
      "outputs": [
        {
          "internalType": "uint256",
          "name": "",
          "type": "uint256"
        }
      ],
      "stateMutability": "view",
      "type": "function"
    },
    {
      "inputs": [],
      "name": "RareminingTry",
      "outputs": [
        {
          "internalType": "uint256",
          "name": "",
          "type": "uint256"
        }
      ],
      "stateMutability": "view",
      "type": "function"
    },
    {
      "inputs": [],
      "name": "UniqueGemsCooldownPeriod",
      "outputs": [
        {
          "internalType": "uint256",
          "name": "",
          "type": "uint256"
        }
      ],
      "stateMutability": "view",
      "type": "function"
    },
    {
      "inputs": [],
      "name": "UniqueGemsMiningPeriod",
      "outputs": [
        {
          "internalType": "uint256",
          "name": "",
          "type": "uint256"
        }
      ],
      "stateMutability": "view",
      "type": "function"
    },
    {
      "inputs": [],
      "name": "UniqueGemsValue",
      "outputs": [
        {
          "internalType": "uint256",
          "name": "",
          "type": "uint256"
        }
      ],
      "stateMutability": "view",
      "type": "function"
    },
    {
      "inputs": [],
      "name": "UniqueminingTry",
      "outputs": [
        {
          "internalType": "uint256",
          "name": "",
          "type": "uint256"
        }
      ],
      "stateMutability": "view",
      "type": "function"
    },
    {
      "inputs": [
        {
          "internalType": "address",
          "name": "account",
          "type": "address"
        }
      ],
      "name": "addAdmin",
      "outputs": [],
      "stateMutability": "nonpayable",
      "type": "function"
    },
    {
      "inputs": [
        {
          "internalType": "string",
          "name": "_backgroundColor",
          "type": "string"
        }
      ],
      "name": "addBackgroundColor",
      "outputs": [],
      "stateMutability": "nonpayable",
      "type": "function"
    },
    {
      "inputs": [
        {
          "internalType": "string",
          "name": "_color",
          "type": "string"
        }
      ],
      "name": "addColor",
      "outputs": [],
      "stateMutability": "nonpayable",
      "type": "function"
    },
    {
      "inputs": [
        {
          "internalType": "address",
          "name": "account",
          "type": "address"
        }
      ],
      "name": "addPauser",
      "outputs": [],
      "stateMutability": "nonpayable",
      "type": "function"
    },
    {
      "inputs": [
        {
          "internalType": "address",
          "name": "_to",
          "type": "address"
        },
        {
          "internalType": "uint256",
          "name": "_tokenId",
          "type": "uint256"
        }
      ],
      "name": "adminTransferGEM",
      "outputs": [
        {
          "internalType": "bool",
          "name": "",
          "type": "bool"
        }
      ],
      "stateMutability": "nonpayable",
      "type": "function"
    },
    {
      "inputs": [
        {
          "internalType": "address",
          "name": "",
          "type": "address"
        }
      ],
      "name": "aliveImplementation",
      "outputs": [
        {
          "internalType": "bool",
          "name": "",
          "type": "bool"
        }
      ],
      "stateMutability": "view",
      "type": "function"
    },
    {
      "inputs": [
        {
          "internalType": "address",
          "name": "to",
          "type": "address"
        },
        {
          "internalType": "uint256",
          "name": "tokenId",
          "type": "uint256"
        }
      ],
      "name": "approve",
      "outputs": [],
      "stateMutability": "nonpayable",
      "type": "function"
    },
    {
      "inputs": [
        {
          "internalType": "uint256",
          "name": "",
          "type": "uint256"
        }
      ],
      "name": "backgroundColors",
      "outputs": [
        {
          "internalType": "string",
          "name": "",
          "type": "string"
        }
      ],
      "stateMutability": "view",
      "type": "function"
    },
    {
      "inputs": [
        {
          "internalType": "address",
          "name": "_owner",
          "type": "address"
        }
      ],
      "name": "balanceOf",
      "outputs": [
        {
          "internalType": "uint256",
          "name": "count",
          "type": "uint256"
        }
      ],
      "stateMutability": "view",
      "type": "function"
    },
    {
      "inputs": [
        {
          "internalType": "uint256",
          "name": "_tokenId",
          "type": "uint256"
        }
      ],
      "name": "cancelMining",
      "outputs": [
        {
          "internalType": "bool",
          "name": "",
          "type": "bool"
        }
      ],
      "stateMutability": "nonpayable",
      "type": "function"
    },
    {
      "inputs": [
        {
          "internalType": "uint256",
          "name": "_tokenId",
          "type": "uint256"
        }
      ],
      "name": "claimMinedGEM",
      "outputs": [
        {
          "internalType": "bool",
          "name": "",
          "type": "bool"
        }
      ],
      "stateMutability": "nonpayable",
      "type": "function"
    },
    {
      "inputs": [
        {
          "internalType": "uint256",
          "name": "",
          "type": "uint256"
        }
      ],
      "name": "colors",
      "outputs": [
        {
          "internalType": "string",
          "name": "",
          "type": "string"
        }
      ],
      "stateMutability": "view",
      "type": "function"
    },
    {
      "inputs": [
        {
          "internalType": "enum GemFactoryStorage.Rarity",
          "name": "_rarity",
          "type": "uint8"
        },
        {
          "internalType": "uint8[2]",
          "name": "_color",
          "type": "uint8[2]"
        },
        {
          "internalType": "uint8[4]",
          "name": "_quadrants",
          "type": "uint8[4]"
        },
        {
          "internalType": "string",
          "name": "_tokenURI",
          "type": "string"
        }
      ],
      "name": "createGEM",
      "outputs": [
        {
          "internalType": "uint256",
          "name": "",
          "type": "uint256"
        }
      ],
      "stateMutability": "nonpayable",
      "type": "function"
    },
    {
      "inputs": [
        {
          "internalType": "enum GemFactoryStorage.Rarity[]",
          "name": "_rarities",
          "type": "uint8[]"
        },
        {
          "internalType": "uint8[2][]",
          "name": "_colors",
          "type": "uint8[2][]"
        },
        {
          "internalType": "uint8[4][]",
          "name": "_quadrants",
          "type": "uint8[4][]"
        },
        {
          "internalType": "string[]",
          "name": "_tokenURIs",
          "type": "string[]"
        }
      ],
      "name": "createGEMPool",
      "outputs": [
        {
          "internalType": "uint256[]",
          "name": "",
          "type": "uint256[]"
        }
      ],
      "stateMutability": "nonpayable",
      "type": "function"
    },
    {
      "inputs": [
        {
          "internalType": "uint8",
          "name": "",
          "type": "uint8"
        }
      ],
      "name": "customBackgroundColors",
      "outputs": [
        {
          "internalType": "string",
          "name": "",
          "type": "string"
        }
      ],
      "stateMutability": "view",
      "type": "function"
    },
    {
      "inputs": [],
      "name": "customBackgroundColorsCount",
      "outputs": [
        {
          "internalType": "uint8",
          "name": "",
          "type": "uint8"
        }
      ],
      "stateMutability": "view",
      "type": "function"
    },
    {
      "inputs": [
        {
          "internalType": "uint8",
          "name": "",
          "type": "uint8"
        }
      ],
      "name": "customColors",
      "outputs": [
        {
          "internalType": "string",
          "name": "",
          "type": "string"
        }
      ],
      "stateMutability": "view",
      "type": "function"
    },
    {
      "inputs": [],
      "name": "customColorsCount",
      "outputs": [
        {
          "internalType": "uint8",
          "name": "",
          "type": "uint8"
        }
      ],
      "stateMutability": "view",
      "type": "function"
    },
    {
      "inputs": [],
      "name": "drbcoordinator",
      "outputs": [
        {
          "internalType": "address",
          "name": "",
          "type": "address"
        }
      ],
      "stateMutability": "view",
      "type": "function"
    },
    {
      "inputs": [
        {
          "internalType": "uint256[]",
          "name": "_tokenIds",
          "type": "uint256[]"
        },
        {
          "internalType": "enum GemFactoryStorage.Rarity",
          "name": "_rarity",
          "type": "uint8"
        },
        {
          "internalType": "uint8[2]",
          "name": "_color",
          "type": "uint8[2]"
        }
      ],
      "name": "forgeTokens",
      "outputs": [
        {
          "internalType": "uint256",
          "name": "newGemId",
          "type": "uint256"
        }
      ],
      "stateMutability": "nonpayable",
      "type": "function"
    },
    {
      "inputs": [
        {
          "internalType": "uint256",
          "name": "tokenId",
          "type": "uint256"
        }
      ],
      "name": "getApproved",
      "outputs": [
        {
          "internalType": "address",
          "name": "",
          "type": "address"
        }
      ],
      "stateMutability": "view",
      "type": "function"
    },
    {
      "inputs": [],
      "name": "getCommonValue",
      "outputs": [
        {
          "internalType": "uint256",
          "name": "",
          "type": "uint256"
        }
      ],
      "stateMutability": "view",
      "type": "function"
    },
    {
      "inputs": [],
      "name": "getCommonminingTry",
      "outputs": [
        {
          "internalType": "uint256",
          "name": "",
          "type": "uint256"
        }
      ],
      "stateMutability": "view",
      "type": "function"
    },
    {
      "inputs": [
        {
          "internalType": "uint8",
          "name": "_index",
          "type": "uint8"
        }
      ],
      "name": "getCustomColor",
      "outputs": [
        {
          "internalType": "string",
          "name": "",
          "type": "string"
        }
      ],
      "stateMutability": "view",
      "type": "function"
    },
    {
      "inputs": [],
      "name": "getEpicValue",
      "outputs": [
        {
          "internalType": "uint256",
          "name": "",
          "type": "uint256"
        }
      ],
      "stateMutability": "view",
      "type": "function"
    },
    {
      "inputs": [],
      "name": "getEpicminingTry",
      "outputs": [
        {
          "internalType": "uint256",
          "name": "",
          "type": "uint256"
        }
      ],
      "stateMutability": "view",
      "type": "function"
    },
    {
      "inputs": [
        {
          "internalType": "uint256",
          "name": "_tokenId",
          "type": "uint256"
        }
      ],
      "name": "getGem",
      "outputs": [
        {
          "components": [
            {
              "internalType": "uint256",
              "name": "tokenId",
              "type": "uint256"
            },
            {
              "internalType": "enum GemFactoryStorage.Rarity",
              "name": "rarity",
              "type": "uint8"
            },
            {
              "internalType": "uint8[4]",
              "name": "quadrants",
              "type": "uint8[4]"
            },
            {
              "internalType": "uint8[2]",
              "name": "color",
              "type": "uint8[2]"
            },
            {
              "internalType": "uint256",
              "name": "gemCooldownPeriod",
              "type": "uint256"
            },
            {
              "internalType": "uint256",
              "name": "miningPeriod",
              "type": "uint256"
            },
            {
              "internalType": "uint256",
              "name": "miningTry",
              "type": "uint256"
            },
            {
              "internalType": "bool",
              "name": "isLocked",
              "type": "bool"
            },
            {
              "internalType": "uint256",
              "name": "value",
              "type": "uint256"
            },
            {
              "internalType": "string",
              "name": "tokenURI",
              "type": "string"
            },
            {
              "internalType": "uint256",
              "name": "randomRequestId",
              "type": "uint256"
            }
          ],
          "internalType": "struct GemFactoryStorage.Gem",
          "name": "",
          "type": "tuple"
        }
      ],
      "stateMutability": "view",
      "type": "function"
    },
    {
      "inputs": [],
      "name": "getGemList",
      "outputs": [
        {
          "components": [
            {
              "internalType": "uint256",
              "name": "tokenId",
              "type": "uint256"
            },
            {
              "internalType": "enum GemFactoryStorage.Rarity",
              "name": "rarity",
              "type": "uint8"
            },
            {
              "internalType": "uint8[4]",
              "name": "quadrants",
              "type": "uint8[4]"
            },
            {
              "internalType": "uint8[2]",
              "name": "color",
              "type": "uint8[2]"
            },
            {
              "internalType": "uint256",
              "name": "gemCooldownPeriod",
              "type": "uint256"
            },
            {
              "internalType": "uint256",
              "name": "miningPeriod",
              "type": "uint256"
            },
            {
              "internalType": "uint256",
              "name": "miningTry",
              "type": "uint256"
            },
            {
              "internalType": "bool",
              "name": "isLocked",
              "type": "bool"
            },
            {
              "internalType": "uint256",
              "name": "value",
              "type": "uint256"
            },
            {
              "internalType": "string",
              "name": "tokenURI",
              "type": "string"
            },
            {
              "internalType": "uint256",
              "name": "randomRequestId",
              "type": "uint256"
            }
          ],
          "internalType": "struct GemFactoryStorage.Gem[]",
          "name": "",
          "type": "tuple[]"
        }
      ],
      "stateMutability": "view",
      "type": "function"
    },
    {
      "inputs": [],
      "name": "getGemListAvailableForRandomPack",
      "outputs": [
        {
          "internalType": "uint256",
          "name": "",
          "type": "uint256"
        },
        {
          "internalType": "uint256[]",
          "name": "",
          "type": "uint256[]"
        }
      ],
      "stateMutability": "view",
      "type": "function"
    },
    {
      "inputs": [],
      "name": "getGemsSupplyTotalValue",
      "outputs": [
        {
          "internalType": "uint256",
          "name": "totalValue",
          "type": "uint256"
        }
      ],
      "stateMutability": "view",
      "type": "function"
    },
    {
      "inputs": [],
      "name": "getLegendaryValue",
      "outputs": [
        {
          "internalType": "uint256",
          "name": "",
          "type": "uint256"
        }
      ],
      "stateMutability": "view",
      "type": "function"
    },
    {
      "inputs": [],
      "name": "getLegendaryminingTry",
      "outputs": [
        {
          "internalType": "uint256",
          "name": "",
          "type": "uint256"
        }
      ],
      "stateMutability": "view",
      "type": "function"
    },
    {
      "inputs": [],
      "name": "getMythicValue",
      "outputs": [
        {
          "internalType": "uint256",
          "name": "",
          "type": "uint256"
        }
      ],
      "stateMutability": "view",
      "type": "function"
    },
    {
      "inputs": [],
      "name": "getMythicminingTry",
      "outputs": [
        {
          "internalType": "uint256",
          "name": "",
          "type": "uint256"
        }
      ],
      "stateMutability": "view",
      "type": "function"
    },
    {
      "inputs": [
        {
          "internalType": "uint256",
          "name": "_requestId",
          "type": "uint256"
        }
      ],
      "name": "getRandomRequest",
      "outputs": [
        {
          "components": [
            {
              "internalType": "uint256",
              "name": "tokenId",
              "type": "uint256"
            },
            {
              "internalType": "bool",
              "name": "requested",
              "type": "bool"
            },
            {
              "internalType": "bool",
              "name": "fulfilled",
              "type": "bool"
            },
            {
              "internalType": "uint256",
              "name": "randomWord",
              "type": "uint256"
            },
            {
              "internalType": "uint256",
              "name": "chosenTokenId",
              "type": "uint256"
            },
            {
              "internalType": "address",
              "name": "requester",
              "type": "address"
            }
          ],
          "internalType": "struct GemFactoryStorage.RequestStatus",
          "name": "",
          "type": "tuple"
        }
      ],
      "stateMutability": "view",
      "type": "function"
    },
    {
      "inputs": [],
      "name": "getRareValue",
      "outputs": [
        {
          "internalType": "uint256",
          "name": "",
          "type": "uint256"
        }
      ],
      "stateMutability": "view",
      "type": "function"
    },
    {
      "inputs": [],
      "name": "getRareminingTry",
      "outputs": [
        {
          "internalType": "uint256",
          "name": "",
          "type": "uint256"
        }
      ],
      "stateMutability": "view",
      "type": "function"
    },
    {
      "inputs": [
        {
          "internalType": "bytes32",
          "name": "role",
          "type": "bytes32"
        }
      ],
      "name": "getRoleAdmin",
      "outputs": [
        {
          "internalType": "bytes32",
          "name": "",
          "type": "bytes32"
        }
      ],
      "stateMutability": "view",
      "type": "function"
    },
    {
      "inputs": [],
      "name": "getTon",
      "outputs": [
        {
          "internalType": "address",
          "name": "",
          "type": "address"
        }
      ],
      "stateMutability": "view",
      "type": "function"
    },
    {
      "inputs": [],
      "name": "getTreasury",
      "outputs": [
        {
          "internalType": "address",
          "name": "",
          "type": "address"
        }
      ],
      "stateMutability": "view",
      "type": "function"
    },
    {
      "inputs": [],
      "name": "getUniqueValue",
      "outputs": [
        {
          "internalType": "uint256",
          "name": "",
          "type": "uint256"
        }
      ],
      "stateMutability": "view",
      "type": "function"
    },
    {
      "inputs": [],
      "name": "getUniqueminingTry",
      "outputs": [
        {
          "internalType": "uint256",
          "name": "",
          "type": "uint256"
        }
      ],
      "stateMutability": "view",
      "type": "function"
    },
    {
      "inputs": [
        {
          "internalType": "enum GemFactoryStorage.Rarity",
          "name": "_rarity",
          "type": "uint8"
        }
      ],
      "name": "getValueBasedOnRarity",
      "outputs": [
        {
          "internalType": "uint256",
          "name": "value",
          "type": "uint256"
        }
      ],
      "stateMutability": "view",
      "type": "function"
    },
    {
      "inputs": [],
      "name": "getWston",
      "outputs": [
        {
          "internalType": "address",
          "name": "",
          "type": "address"
        }
      ],
      "stateMutability": "view",
      "type": "function"
    },
    {
      "inputs": [
        {
          "internalType": "bytes32",
          "name": "role",
          "type": "bytes32"
        },
        {
          "internalType": "address",
          "name": "account",
          "type": "address"
        }
      ],
      "name": "grantRole",
      "outputs": [],
      "stateMutability": "nonpayable",
      "type": "function"
    },
    {
      "inputs": [
        {
          "internalType": "bytes32",
          "name": "role",
          "type": "bytes32"
        },
        {
          "internalType": "address",
          "name": "account",
          "type": "address"
        }
      ],
      "name": "hasRole",
      "outputs": [
        {
          "internalType": "bool",
          "name": "",
          "type": "bool"
        }
      ],
      "stateMutability": "view",
      "type": "function"
    },
    {
      "inputs": [
        {
          "internalType": "address",
          "name": "_wston",
          "type": "address"
        },
        {
          "internalType": "address",
          "name": "_ton",
          "type": "address"
        },
        {
          "internalType": "address",
          "name": "_treasury",
          "type": "address"
        },
        {
          "internalType": "uint256",
          "name": "_CommonGemsValue",
          "type": "uint256"
        },
        {
          "internalType": "uint256",
          "name": "_RareGemsValue",
          "type": "uint256"
        },
        {
          "internalType": "uint256",
          "name": "_UniqueGemsValue",
          "type": "uint256"
        },
        {
          "internalType": "uint256",
          "name": "_EpicGemsValue",
          "type": "uint256"
        },
        {
          "internalType": "uint256",
          "name": "_LegendaryGemsValue",
          "type": "uint256"
        },
        {
          "internalType": "uint256",
          "name": "_MythicGemsValue",
          "type": "uint256"
        }
      ],
      "name": "initialize",
      "outputs": [],
      "stateMutability": "nonpayable",
      "type": "function"
    },
    {
      "inputs": [
        {
          "internalType": "address",
          "name": "account",
          "type": "address"
        }
      ],
      "name": "isAdmin",
      "outputs": [
        {
          "internalType": "bool",
          "name": "",
          "type": "bool"
        }
      ],
      "stateMutability": "view",
      "type": "function"
    },
    {
      "inputs": [
        {
          "internalType": "address",
          "name": "owner",
          "type": "address"
        },
        {
          "internalType": "address",
          "name": "operator",
          "type": "address"
        }
      ],
      "name": "isApprovedForAll",
      "outputs": [
        {
          "internalType": "bool",
          "name": "",
          "type": "bool"
        }
      ],
      "stateMutability": "view",
      "type": "function"
    },
    {
      "inputs": [],
      "name": "isOwner",
      "outputs": [
        {
          "internalType": "bool",
          "name": "",
          "type": "bool"
        }
      ],
      "stateMutability": "view",
      "type": "function"
    },
    {
      "inputs": [
        {
          "internalType": "uint256",
          "name": "_tokenId",
          "type": "uint256"
        }
      ],
      "name": "isTokenLocked",
      "outputs": [
        {
          "internalType": "bool",
          "name": "",
          "type": "bool"
        }
      ],
      "stateMutability": "view",
      "type": "function"
    },
    {
      "inputs": [],
      "name": "marketplace",
      "outputs": [
        {
          "internalType": "address",
          "name": "",
          "type": "address"
        }
      ],
      "stateMutability": "view",
      "type": "function"
    },
    {
      "inputs": [
        {
          "internalType": "uint256",
          "name": "_tokenId",
          "type": "uint256"
        }
      ],
      "name": "meltGEM",
      "outputs": [],
      "stateMutability": "nonpayable",
      "type": "function"
    },
    {
      "inputs": [],
      "name": "name",
      "outputs": [
        {
          "internalType": "string",
          "name": "",
          "type": "string"
        }
      ],
      "stateMutability": "view",
      "type": "function"
    },
    {
      "inputs": [],
      "name": "numberOfSolidColors",
      "outputs": [
        {
          "internalType": "uint8",
          "name": "",
          "type": "uint8"
        }
      ],
      "stateMutability": "view",
      "type": "function"
    },
    {
      "inputs": [
        {
          "internalType": "uint256",
          "name": "tokenId",
          "type": "uint256"
        }
      ],
      "name": "ownerOf",
      "outputs": [
        {
          "internalType": "address",
          "name": "",
          "type": "address"
        }
      ],
      "stateMutability": "view",
      "type": "function"
    },
    {
      "inputs": [
        {
          "internalType": "address",
          "name": "",
          "type": "address"
        }
      ],
      "name": "ownershipTokenCount",
      "outputs": [
        {
          "internalType": "uint256",
          "name": "",
          "type": "uint256"
        }
      ],
      "stateMutability": "view",
      "type": "function"
    },
    {
      "inputs": [],
      "name": "pause",
      "outputs": [],
      "stateMutability": "nonpayable",
      "type": "function"
    },
    {
      "inputs": [],
      "name": "pauseProxy",
      "outputs": [
        {
          "internalType": "bool",
          "name": "",
          "type": "bool"
        }
      ],
      "stateMutability": "view",
      "type": "function"
    },
    {
      "inputs": [],
      "name": "paused",
      "outputs": [
        {
          "internalType": "bool",
          "name": "",
          "type": "bool"
        }
      ],
      "stateMutability": "view",
      "type": "function"
    },
    {
      "inputs": [
        {
          "internalType": "uint256",
          "name": "_tokenId",
          "type": "uint256"
        }
      ],
      "name": "pickMinedGEM",
      "outputs": [
        {
          "internalType": "bool",
          "name": "",
          "type": "bool"
        }
      ],
      "stateMutability": "payable",
      "type": "function"
    },
    {
      "inputs": [],
      "name": "preMintedGemsAvailable",
      "outputs": [
        {
          "internalType": "uint256[]",
          "name": "GemsAvailable",
          "type": "uint256[]"
        }
      ],
      "stateMutability": "view",
      "type": "function"
    },
    {
      "inputs": [
        {
          "internalType": "uint256",
          "name": "",
          "type": "uint256"
        }
      ],
      "name": "proxyImplementation",
      "outputs": [
        {
          "internalType": "address",
          "name": "",
          "type": "address"
        }
      ],
      "stateMutability": "view",
      "type": "function"
    },
    {
      "inputs": [],
      "name": "randomPack",
      "outputs": [
        {
          "internalType": "address",
          "name": "",
          "type": "address"
        }
      ],
      "stateMutability": "view",
      "type": "function"
    },
    {
      "inputs": [
        {
          "internalType": "uint256",
          "name": "requestId",
          "type": "uint256"
        },
        {
          "internalType": "uint256",
          "name": "randomWord",
          "type": "uint256"
        }
      ],
      "name": "rawFulfillRandomWords",
      "outputs": [],
      "stateMutability": "nonpayable",
      "type": "function"
    },
    {
      "inputs": [
        {
          "internalType": "address",
          "name": "account",
          "type": "address"
        }
      ],
      "name": "removeAdmin",
      "outputs": [],
      "stateMutability": "nonpayable",
      "type": "function"
    },
    {
      "inputs": [
        {
          "internalType": "address",
          "name": "account",
          "type": "address"
        }
      ],
      "name": "removePauser",
      "outputs": [],
      "stateMutability": "nonpayable",
      "type": "function"
    },
    {
      "inputs": [],
      "name": "renounceOwnership",
      "outputs": [],
      "stateMutability": "nonpayable",
      "type": "function"
    },
    {
      "inputs": [
        {
          "internalType": "bytes32",
          "name": "role",
          "type": "bytes32"
        },
        {
          "internalType": "address",
          "name": "callerConfirmation",
          "type": "address"
        }
      ],
      "name": "renounceRole",
      "outputs": [],
      "stateMutability": "nonpayable",
      "type": "function"
    },
    {
      "inputs": [],
      "name": "requestCount",
      "outputs": [
        {
          "internalType": "uint256",
          "name": "",
          "type": "uint256"
        }
      ],
      "stateMutability": "view",
      "type": "function"
    },
    {
      "inputs": [
        {
          "internalType": "uint256",
          "name": "",
          "type": "uint256"
        }
      ],
      "name": "requestIds",
      "outputs": [
        {
          "internalType": "uint256",
          "name": "",
          "type": "uint256"
        }
      ],
      "stateMutability": "view",
      "type": "function"
    },
    {
      "inputs": [
        {
          "internalType": "bytes32",
          "name": "role",
          "type": "bytes32"
        },
        {
          "internalType": "address",
          "name": "account",
          "type": "address"
        }
      ],
      "name": "revokeRole",
      "outputs": [],
      "stateMutability": "nonpayable",
      "type": "function"
    },
    {
      "inputs": [
        {
          "internalType": "uint256",
          "name": "",
          "type": "uint256"
        }
      ],
      "name": "s_requests",
      "outputs": [
        {
          "internalType": "uint256",
          "name": "tokenId",
          "type": "uint256"
        },
        {
          "internalType": "bool",
          "name": "requested",
          "type": "bool"
        },
        {
          "internalType": "bool",
          "name": "fulfilled",
          "type": "bool"
        },
        {
          "internalType": "uint256",
          "name": "randomWord",
          "type": "uint256"
        },
        {
          "internalType": "uint256",
          "name": "chosenTokenId",
          "type": "uint256"
        },
        {
          "internalType": "address",
          "name": "requester",
          "type": "address"
        }
      ],
      "stateMutability": "view",
      "type": "function"
    },
    {
      "inputs": [
        {
          "internalType": "address",
          "name": "from",
          "type": "address"
        },
        {
          "internalType": "address",
          "name": "to",
          "type": "address"
        },
        {
          "internalType": "uint256",
          "name": "tokenId",
          "type": "uint256"
        }
      ],
      "name": "safeTransferFrom",
      "outputs": [],
      "stateMutability": "nonpayable",
      "type": "function"
    },
    {
      "inputs": [
        {
          "internalType": "address",
          "name": "from",
          "type": "address"
        },
        {
          "internalType": "address",
          "name": "to",
          "type": "address"
        },
        {
          "internalType": "uint256",
          "name": "tokenId",
          "type": "uint256"
        },
        {
          "internalType": "bytes",
          "name": "data",
          "type": "bytes"
        }
      ],
      "name": "safeTransferFrom",
      "outputs": [],
      "stateMutability": "nonpayable",
      "type": "function"
    },
    {
      "inputs": [
        {
          "internalType": "bytes4",
          "name": "",
          "type": "bytes4"
        }
      ],
      "name": "selectorImplementation",
      "outputs": [
        {
          "internalType": "address",
          "name": "",
          "type": "address"
        }
      ],
      "stateMutability": "view",
      "type": "function"
    },
    {
      "inputs": [
        {
          "internalType": "address",
          "name": "operator",
          "type": "address"
        },
        {
          "internalType": "bool",
          "name": "approved",
          "type": "bool"
        }
      ],
      "name": "setApprovalForAll",
      "outputs": [],
      "stateMutability": "nonpayable",
      "type": "function"
    },
    {
      "inputs": [],
      "name": "setApprovalForMarketplace",
      "outputs": [],
      "stateMutability": "nonpayable",
      "type": "function"
    },
    {
      "inputs": [
        {
          "internalType": "uint256",
          "name": "_CommonGemsCooldownPeriod",
          "type": "uint256"
        },
        {
          "internalType": "uint256",
          "name": "_RareGemsCooldownPeriod",
          "type": "uint256"
        },
        {
          "internalType": "uint256",
          "name": "_UniqueGemsCooldownPeriod",
          "type": "uint256"
        },
        {
          "internalType": "uint256",
          "name": "_EpicGemsCooldownPeriod",
          "type": "uint256"
        },
        {
          "internalType": "uint256",
          "name": "_LegendaryGemsCooldownPeriod",
          "type": "uint256"
        },
        {
          "internalType": "uint256",
          "name": "_MythicGemsCooldownPeriod",
          "type": "uint256"
        }
      ],
      "name": "setGemsCooldownPeriods",
      "outputs": [],
      "stateMutability": "nonpayable",
      "type": "function"
    },
    {
      "inputs": [
        {
          "internalType": "uint256",
          "name": "_CommonGemsMiningPeriod",
          "type": "uint256"
        },
        {
          "internalType": "uint256",
          "name": "_RareGemsMiningPeriod",
          "type": "uint256"
        },
        {
          "internalType": "uint256",
          "name": "_UniqueGemsMiningPeriod",
          "type": "uint256"
        },
        {
          "internalType": "uint256",
          "name": "_EpicGemsMiningPeriod",
          "type": "uint256"
        },
        {
          "internalType": "uint256",
          "name": "_LegendaryGemsMiningPeriod",
          "type": "uint256"
        },
        {
          "internalType": "uint256",
          "name": "_MythicGemsMiningPeriod",
          "type": "uint256"
        }
      ],
      "name": "setGemsMiningPeriods",
      "outputs": [],
      "stateMutability": "nonpayable",
      "type": "function"
    },
    {
      "inputs": [
        {
          "internalType": "uint256",
          "name": "_CommonGemsValue",
          "type": "uint256"
        },
        {
          "internalType": "uint256",
          "name": "_RareGemsValue",
          "type": "uint256"
        },
        {
          "internalType": "uint256",
          "name": "_UniqueGemsValue",
          "type": "uint256"
        },
        {
          "internalType": "uint256",
          "name": "_EpicGemsValue",
          "type": "uint256"
        },
        {
          "internalType": "uint256",
          "name": "_LegendaryGemsValue",
          "type": "uint256"
        },
        {
          "internalType": "uint256",
          "name": "_MythicGemsValue",
          "type": "uint256"
        }
      ],
      "name": "setGemsValue",
      "outputs": [],
      "stateMutability": "nonpayable",
      "type": "function"
    },
    {
      "inputs": [
        {
          "internalType": "uint256",
          "name": "_tokenId",
          "type": "uint256"
        },
        {
          "internalType": "bool",
          "name": "_isLocked",
          "type": "bool"
        }
      ],
      "name": "setIsLocked",
      "outputs": [],
      "stateMutability": "nonpayable",
      "type": "function"
    },
    {
      "inputs": [
        {
          "internalType": "address",
          "name": "_marketplace",
          "type": "address"
        }
      ],
      "name": "setMarketPlaceAddress",
      "outputs": [],
      "stateMutability": "nonpayable",
      "type": "function"
    },
    {
      "inputs": [
        {
          "internalType": "uint8",
          "name": "_numberOfSolidColors",
          "type": "uint8"
        }
      ],
      "name": "setNumberOfSolidColors",
      "outputs": [],
      "stateMutability": "nonpayable",
      "type": "function"
    },
    {
      "inputs": [
        {
          "internalType": "address",
          "name": "_randomPack",
          "type": "address"
        }
      ],
      "name": "setRandomPack",
      "outputs": [],
      "stateMutability": "nonpayable",
      "type": "function"
    },
    {
      "inputs": [
        {
          "internalType": "uint256",
          "name": "tokenId",
          "type": "uint256"
        },
        {
          "internalType": "string",
          "name": "_tokenURI",
          "type": "string"
        }
      ],
      "name": "setTokenURI",
      "outputs": [],
      "stateMutability": "nonpayable",
      "type": "function"
    },
    {
      "inputs": [
        {
          "internalType": "uint256",
          "name": "_CommonminingTry",
          "type": "uint256"
        },
        {
          "internalType": "uint256",
          "name": "_RareminingTry",
          "type": "uint256"
        },
        {
          "internalType": "uint256",
          "name": "_UniqueminingTry",
          "type": "uint256"
        },
        {
          "internalType": "uint256",
          "name": "_EpicminingTry",
          "type": "uint256"
        },
        {
          "internalType": "uint256",
          "name": "_LegendaryminingTry",
          "type": "uint256"
        },
        {
          "internalType": "uint256",
          "name": "_MythicminingTry",
          "type": "uint256"
        }
      ],
      "name": "setminingTrys",
      "outputs": [],
      "stateMutability": "nonpayable",
      "type": "function"
    },
    {
      "inputs": [
        {
          "internalType": "uint256",
          "name": "_tokenId",
          "type": "uint256"
        }
      ],
      "name": "startMiningGEM",
      "outputs": [
        {
          "internalType": "bool",
          "name": "",
          "type": "bool"
        }
      ],
      "stateMutability": "nonpayable",
      "type": "function"
    },
    {
      "inputs": [
        {
          "internalType": "bytes4",
          "name": "interfaceId",
          "type": "bytes4"
        }
      ],
      "name": "supportsInterface",
      "outputs": [
        {
          "internalType": "bool",
          "name": "",
          "type": "bool"
        }
      ],
      "stateMutability": "view",
      "type": "function"
    },
    {
      "inputs": [],
      "name": "symbol",
      "outputs": [
        {
          "internalType": "string",
          "name": "",
          "type": "string"
        }
      ],
      "stateMutability": "view",
      "type": "function"
    },
    {
      "inputs": [
        {
          "internalType": "address",
          "name": "",
          "type": "address"
        }
      ],
      "name": "tokenMiningByUser",
      "outputs": [
        {
          "internalType": "uint256",
          "name": "",
          "type": "uint256"
        }
      ],
      "stateMutability": "view",
      "type": "function"
    },
    {
      "inputs": [
        {
          "internalType": "uint256",
          "name": "",
          "type": "uint256"
        }
      ],
      "name": "tokenReadyToMine",
      "outputs": [
        {
          "internalType": "bool",
          "name": "",
          "type": "bool"
        }
      ],
      "stateMutability": "view",
      "type": "function"
    },
    {
      "inputs": [
        {
          "internalType": "uint256",
          "name": "tokenId",
          "type": "uint256"
        }
      ],
      "name": "tokenURI",
      "outputs": [
        {
          "internalType": "string",
          "name": "",
          "type": "string"
        }
      ],
      "stateMutability": "view",
      "type": "function"
    },
    {
      "inputs": [
        {
          "internalType": "address",
          "name": "_owner",
          "type": "address"
        }
      ],
      "name": "tokensOfOwner",
      "outputs": [
        {
          "internalType": "uint256[]",
          "name": "ownerTokens",
          "type": "uint256[]"
        }
      ],
      "stateMutability": "view",
      "type": "function"
    },
    {
      "inputs": [],
      "name": "ton",
      "outputs": [
        {
          "internalType": "address",
          "name": "",
          "type": "address"
        }
      ],
      "stateMutability": "view",
      "type": "function"
    },
    {
      "inputs": [],
      "name": "totalSupply",
      "outputs": [
        {
          "internalType": "uint256",
          "name": "",
          "type": "uint256"
        }
      ],
      "stateMutability": "view",
      "type": "function"
    },
    {
      "inputs": [
        {
          "internalType": "address",
          "name": "newAdmin",
          "type": "address"
        }
      ],
      "name": "transferAdmin",
      "outputs": [],
      "stateMutability": "nonpayable",
      "type": "function"
    },
    {
      "inputs": [
        {
          "internalType": "address",
          "name": "from",
          "type": "address"
        },
        {
          "internalType": "address",
          "name": "to",
          "type": "address"
        },
        {
          "internalType": "uint256",
          "name": "tokenId",
          "type": "uint256"
        }
      ],
      "name": "transferFrom",
      "outputs": [],
      "stateMutability": "nonpayable",
      "type": "function"
    },
    {
      "inputs": [
        {
          "internalType": "address",
          "name": "newAdmin",
          "type": "address"
        }
      ],
      "name": "transferOwnership",
      "outputs": [],
      "stateMutability": "nonpayable",
      "type": "function"
    },
    {
      "inputs": [],
      "name": "treasury",
      "outputs": [
        {
          "internalType": "address",
          "name": "",
          "type": "address"
        }
      ],
      "stateMutability": "view",
      "type": "function"
    },
    {
      "inputs": [],
      "name": "unpause",
      "outputs": [],
      "stateMutability": "nonpayable",
      "type": "function"
    },
    {
      "inputs": [
        {
          "internalType": "address",
          "name": "",
          "type": "address"
        },
        {
          "internalType": "uint256",
          "name": "",
          "type": "uint256"
        }
      ],
      "name": "userMiningStartTime",
      "outputs": [
        {
          "internalType": "uint256",
          "name": "",
          "type": "uint256"
        }
      ],
      "stateMutability": "view",
      "type": "function"
    },
    {
      "inputs": [
        {
          "internalType": "address",
          "name": "",
          "type": "address"
        },
        {
          "internalType": "uint256",
          "name": "",
          "type": "uint256"
        }
      ],
      "name": "userMiningToken",
      "outputs": [
        {
          "internalType": "bool",
          "name": "",
          "type": "bool"
        }
      ],
      "stateMutability": "view",
      "type": "function"
    },
    {
      "inputs": [],
      "name": "wston",
      "outputs": [
        {
          "internalType": "address",
          "name": "",
          "type": "address"
        }
      ],
      "stateMutability": "view",
      "type": "function"
    }
  ],
  "bytecode": "0x60a03461034857601f601f196001600160401b036177963881900384810184168601838111878210176103325786928291604052833960209586918101031261034857516001600160a01b03811693908490036103485761005e61034d565b92600784526623b2b6a9aa27a760c91b8685015261007a61034d565b90600382526247454d60e81b87830152845190848211610332576000918254966001978881811c91168015610328575b8b821014610314579081878493116102c6575b508a9087831160011461026857859261025d575b5050600019600383901b1c191690871b1782555b82519485116102495785548681811c9116801561023f575b8982101461022b578481116101e8575b5087938511600114610188575083949596509261017d575b5050600019600383901b1c191690821b1781555b81608052603b556101493361036c565b50603580546001600160a01b03191691909117905560405161739890816103fe823960805181818161301d0152613cb80152f35b015190503880610125565b8493929193169685845280842093905b8882106101d157505083859697106101b8575b505050811b018155610139565b015160001960f88460031b161c191690553880806101ab565b808785968294968601518155019501930190610198565b8683528883208580880160051c8201928b8910610222575b0160051c019087905b82811061021757505061010d565b848155018790610209565b92508192610200565b634e487b7160e01b83526022600452602483fd5b90607f16906100fd565b634e487b7160e01b82526041600452602482fd5b0151905038806100d1565b90848a9416918680528c8720928d88905b8282106102af5750508411610296575b505050811b0182556100e5565b015160001960f88460031b161c19169055388080610289565b8385015186558d979095019493840193018e610279565b9091508480528a85208780850160051c8201928d861061030b575b918b91869594930160051c01915b8281106102fd5750506100bd565b8781558594508b91016102ef565b925081926102e1565b634e487b7160e01b85526022600452602485fd5b90607f16906100aa565b634e487b7160e01b600052604160045260246000fd5b600080fd5b60408051919082016001600160401b0381118382101761033257604052565b6001600160a01b031660008181527f489cb750909c17c66c5ce6e12fc66200b1268a56adfccc87a74969633bf57069602052604081205490919060ff166103f957818052603a6020526040822081835260205260408220600160ff1982541617905533917f2f8788117e7eff1d82e926ec794901d17c78024a50270940304540a733656f0d8180a4600190565b509056fe61018080604052600436101561001457600080fd5b600090813560e01c90816301ffc9a714615af957508063034294f814615ad8578063038a7e0514610bd25780630491fd3e14615a3d57806304e41a0b14615a1f57806306fdde031461596f578063081812fc146159325780630922f51314615911578063095ea7b31461582e5780630b513d991461576b5780630c7254a0146157145780630de32a97146156f65780630ff1ac67146147fa5780631008ef78146147dc578063139b63f3146147be57806315341f2b146146a4578063162094c414614668578063166b35c9146141d25780631785f53c1461463b57806318160ddd146146205780631885cbbe1461460257806318898f3614610c0d5780631d0e0aac146144ce5780631da0fc9c146141f0578063201832c0146141d257806323b872dd14613f9e578063248a9ca314613f7157806324d7806c14613f1c578063274f245514613b88578063276a28a314613b575780632b8cd09414613a705780632bbbe94d14610d6c5780632f2ff15d14613a32578063331580581461394e57806333d608f11461393057806333fcb6481461335e57806336568abe1461332857806336b17e1314610b8757806337ed11db14613009578063389ed26714612fe05780633b19e84a14612d645780633ec7af4a14612c905780633f4ba83a14612f595780633fb310a514610f6c57806342842e0e14612f2b5780634cbe436014612edf5780634d723a7514612e995780634ec741b414612e7057806350d2a27614612e2b578063550d01a314612dec57806358bf3e6514610c2b5780635badbe4c14612dce5780635bbffab614612db05780635c975abb14612d8d5780635fcf94d11461180057806361d027b314612d6457806361f7f6d714612cae5780636275173814612c905780636352211e14612c5f57806363a8fd8914612c39578063676f79f114612bf65780636b1a96fa14612bc35780636b2c0f5514612b735780636c106fea14610c8b5780637048027514612b2557806370a0823114610ca9578063715018a614612b0057806371b57c4714612ad7578063724188bc14612ab657806375829def14612a9c57806375b238fc14612a7357806377f7e49914612a555780637866369b14612a265780637fe6fde51461279257806382dc1ec4146126fd5780638456cb59146126735780638462151c1461264e5780638796ba8c146125fc5780638964f0c1146109215780638d41fe30146109035780638f32d59b146125d75780638fddb065146125b957806391d148541461256d57806395d89b41146124a757806397125c4014612474578063975781b71461189557806398a2c65d14610e665780639a66af621461181e578063a0b2d41b14611800578063a168fa891461178e578063a1770a7d14611745578063a1c52726146116cd578063a217fddf146116b1578063a22cb46514611610578063a8ce886e146115bd578063aa723bb7146114cd578063aae31df3146113f4578063abc8c7af146113cb578063ad0d3d3f14611353578063ad6caa4714611282578063aff2a46314611204578063b78417b0146111e6578063b88d4fde1461110f578063b911135f146110dc578063bb4a250914610f8a578063bc36b2ee14610f6c578063bd11f69d14610f19578063c138907214610ee0578063c28fb6b714610ea2578063c4d2fcae14610e84578063c61a46c514610e66578063c87b56dd14610d95578063cc48b94714610d6c578063cc98ef9614610ce2578063cec21acb14610ca9578063d1bd7e0614610c8b578063d547741f14610c49578063d55486d314610c2b578063d62c990f14610c0d578063d7a4649514610bef578063dc0515d614610bd2578063e4b7fddf14610bb4578063e7a523c014610b87578063e985e9c514610b33578063ecc5e06f14610aec578063ed8c247214610a62578063efa2cc2914610a44578063f2fde38b1461093f578063f66f9e3414610921578063f7c0794d14610903578063f99a6bb51461076f578063fea90d021461067c578063ff198a1d146106045763ffbccde4146105e457600080fd5b346106015780600319360112610601576020601754604051908152f35b80fd5b50346106015761061336615c06565b946000805160206172e38339815191528795929594939452603a602052604087203360005260205260ff604060002054168015610669575b61065490616091565b601d55601e55601f5560205560215560225580f35b5061065461067561676c565b905061064b565b5034610601578060031936011261060157806007805461069b81616134565b603354909285916001600160a01b0390811690835b85811061070d578888886106c382616134565b925b8281106106ee5750506106ea6040519283928352604060208401526040830190615d8d565b0390f35b806106fb60019284616166565b516107068287616166565b52016106c5565b808952600f602052828260408b2054161480610758575b610731575b6001016106b0565b969360019061073f89615f3e565b505461074b828a616166565b5294810197940193610729565b5060ff8461076583615f3e565b5001541615610724565b5034610601576020806003193601126108ff576004359061079560ff6016541615616052565b6107a0331515616311565b818352600f8152604083205483906001600160a01b039033908216036108ff5761083f839160086107d087615f3e565b500154906107e66107e088615f3e565b90616aaf565b6107ef33615f24565b6107f981546168ee565b9055868552600f84526040852080546001600160a01b031916905561081d876171eb565b6033541690604051948580948193630169dc3160e01b835233600484016164da565b03925af19081156108f45784916108c7575b5015610891575061088b7f65aff8e0552d208dfaf55b1280e55553b7dba628290897ff43c8f086d5dbfd2a9160405191829133908361668c565b0390a180f35b6064906040519062461bcd60e51b82526004820152600f60248201526e1d1c985b9cd9995c8819985a5b1959608a1b6044820152fd5b6108e79150823d84116108ed575b6108df8183615cc7565b8101906164c2565b38610851565b503d6108d5565b6040513d86823e3d90fd5b5080fd5b50346106015780600319360112610601576020601a54604051908152f35b50346106015780600319360112610601576020601e54604051908152f35b503461060157602036600319011261060157610959615bda565b61096961096461676c565b6162a7565b61097461096461676c565b6001600160a01b0381168015610a045733146109c6576109b9906000805160206172e38339815191528352603a6020526109b460016040852001546168fb565b61693f565b506109c333616592565b80f35b60405162461bcd60e51b815260206004820152601660248201527520b1b1b2b9b9b4b136329d1039b0b6b29030b236b4b760511b6044820152606490fd5b60405162461bcd60e51b815260206004820152601860248201527741636365737369626c653a207a65726f206164647265737360401b6044820152606490fd5b50346106015780600319360112610601576020602c54604051908152f35b503461060157602036600319011261060157610a7c615bda565b6000805160206172e38339815191528252603a602052604082203360005260205260ff604060002054168015610ad9575b610ab690616091565b603680546001600160a01b0319166001600160a01b039290921691909117905580f35b50610ab6610ae561676c565b9050610aad565b503461060157602036600319011261060157610b1f60406106ea9260ff610b11615cff565b168152600b60205220615fad565b604051918291602083526020830190615b9a565b503461060157604036600319011261060157610b4d615bda565b6040610b57615bf0565b9260018060a01b0380931681526005602052209116600052602052602060ff604060002054166040519015158152f35b503461060157806003193601126106015760315460405160089190911c6001600160a01b03168152602090f35b50346106015780600319360112610601576020602e54604051908152f35b503461060157806003193601126106015760208054604051908152f35b50346106015780600319360112610601576020602754604051908152f35b50346106015780600319360112610601576020601f54604051908152f35b50346106015780600319360112610601576020601d54604051908152f35b503461060157604036600319011261060157610c87600435610c69615bf0565b90808452603a602052610c8260016040862001546168fb565b616ed4565b5080f35b50346106015780600319360112610601576020601854604051908152f35b5034610601576020366003190112610601576020906040906001600160a01b03610cd1615bda565b168152601083522054604051908152f35b503461060157602036600319011261060157610cfc615bda565b6000805160206172e38339815191528252603a602052604082203360005260205260ff604060002054168015610d59575b610d3690616091565b603480546001600160a01b0319166001600160a01b039290921691909117905580f35b50610d36610d6561676c565b9050610d2d565b50346106015780600319360112610601576032546040516001600160a01b039091168152602090f35b5034610601576020908160031936011261060157600435808252600f83526040909120546001600160a01b031615610e0957610dd0816167e0565b5060005260068152610de56040600020615fad565b906000604051610df481615c91565b526106ea604051928284938452830190615b9a565b60405162461bcd60e51b815260048101839052602f60248201527f4552433732314d657461646174613a2055524920717565727920666f72206e6f60448201526e3732bc34b9ba32b73a103a37b5b2b760891b6064820152608490fd5b50346106015780600319360112610601576020601954604051908152f35b50346106015780600319360112610601576020602354604051908152f35b50346106015780600319360112610601576033546106ea90610ecc906001600160a01b03166166b4565b604051918291602083526020830190615d8d565b5034610601576020366003190112610601576020906040906001600160a01b03610f08615bda565b168152601183522054604051908152f35b50346106015760203660031901126106015760043590600a5482101561060157600a6000526106ea610b1f7fc65a7bb8d6351c1cf70c95a316cc6a92839c986682d98bc35f958f4883f9d2a88401615fad565b50346106015780600319360112610601576020602254604051908152f35b50346106015761012036600319011261060157610fa5615bda565b610fad615bf0565b6001600160a01b03604435818116939192908490036110d757610fd161096461676c565b603154838160081c16611092576032549284841661105357610100600160a81b0360089190911b16610100600160a81b031991909116176031559091166001600160a01b03199182161760325560338054909116919091179055606435601d55608435601e5560a435601f5560c43560205560e4356021556101043560225580f35b60405162461bcd60e51b81526020600482015260176024820152761d1bdb88185b1c9958591e481a5b9a5d1a585b1a5e9959604a1b6044820152606490fd5b60405162461bcd60e51b815260206004820152601e60248201527f746974616e7773746f6e20616c726561647920696e697469616c697a656400006044820152606490fd5b600080fd5b503461060157602036600319011261060157602090600435815260378252604060018060a01b0391205416604051908152f35b503461060157608036600319011261060157611129615bda565b611131615bf0565b6044356064356001600160401b0381116111d757366023820112156111d757611164903690602481600401359101615d38565b9161117460ff6016541615616052565b61117f823386616fe8565b303b156111d7576040516323b872dd60e01b815285908181806111a787878b6004850161634c565b038183305af180156111db576111c3575b50506109c3936170a7565b6111cc90615c2c565b6111d75784386111b8565b8480fd5b6040513d84823e3d90fd5b50346106015780600319360112610601576020602a54604051908152f35b50346106015760203660031901126106015761121e615cff565b9060ff8060095416921691821015611247576040816106ea93610b1f9352600860205220615fad565b60405162461bcd60e51b8152602060048201526013602482015272496e646578206f7574206f6620626f756e647360681b6044820152606490fd5b503461060157602090816003193601126106015760076113426004356112ad60ff6016541615616052565b808452600f85526112cb60018060a01b036040862054163314616606565b6112e8600160ff856112dc85615f3e565b5001541615151461637b565b3384526012855260408420818552855261130d600160ff604087205416151514616642565b61131633615ef0565b8185528552604084209360ff199485815416905561133333615f0a565b82825286526040812055615f3e565b500190815416905560405160018152f35b50346106015761136236615c06565b946000805160206172e38339815191528795929594939452603a602052604087203360005260205260ff6040600020541680156113b8575b6113a390616091565b602955602a55602b55602c55602d55602e5580f35b506113a36113c461676c565b905061139a565b50346106015780600319360112610601576034546040516001600160a01b039091168152602090f35b50346106015760203660031901126106015760408160c09260a0835161141981615c5b565b828152826020820152828582015282606082015282608082015201526004358152601560205220600460405161144e81615c5b565b8254928382526001810154602083019060ff81161515825260ff604085019160081c16151581526002830154916060850192835260a060038501549460808701958652600180831b03978891015416950194855260405196875251151560208701525115156040860152516060850152516080840152511660a0820152f35b503461060157602036600319011261060157600435906101406040516114f281615c3f565b82815282602082015260405161150781615c76565b6080368237604082015260405161151d81615cac565b604036823760608201528260808201528260a08201528260c08201528260e082015282610100820152606061012082015201526007548110156115835761156f6115696106ea92615f3e565b5061640e565b604051918291602083526020830190615e03565b60405162461bcd60e51b815260206004820152601260248201527111d95b48191bd95cc81b9bdd08195e1a5cdd60721b6044820152606490fd5b50346106015760203660031901126106015760043590600d5482101561060157600d6000526106ea610b1f7fd7b6990105719101dabeb77144f2a3385c8033acd3af97e9423a695e81ad1eb58401615fad565b50346106015760403660031901126106015761162a615bda565b611632615ee1565b6001600160a01b03909116908115611698573360005260056020526040600020826000526020526116678160406000206163bc565b60405190151581527f17307eab39ab6107e8899845ad3d59bd9653f200f220920489ca2b5937696c3160203392a380f35b604051630b61174360e31b815260048101839052602490fd5b5034610601578060031936011261060157602090604051908152f35b5034610601576116dc36615c06565b946000805160206172e38339815191528795929594939452603a602052604087203360005260205260ff604060002054168015611732575b61171d90616091565b601755601855601955601a55601b55601c5580f35b5061171d61173e61676c565b9050611714565b50346106015760403660031901126106015760209060ff906040906001600160a01b03611770615bda565b16815260128452818120602435825284522054166040519015158152f35b503461060157602036600319011261060157604060c0916004358152601560205220805490600181015490600281015460ff600383015492600460018060a01b0391015416936040519586528181161515602087015260081c16151560408501526060840152608083015260a0820152f35b50346106015780600319360112610601576020602154604051908152f35b50346106015760203660031901126106015760ff61183a615cff565b6000805160206172e38339815191528352603a602052604083203360005260205281604060002054168015611882575b61187390616091565b1660ff19603154161760315580f35b5061187361188e61676c565b905061186a565b50346106015761010036600319011261060157600660043510156106015736604312156110d757604051906118c982615cac565b816064923684116110d7576024905b84821061245c57505036608312156110d757604051916118f783615c76565b60e4833682116110d75785905b8282106124445750505060e435906001600160401b038211610601575061192f903690600401615d6f565b9261194560018060a01b036033541633146160d2565b61195460ff6016541615616052565b60ff83511661196c602085019160ff835116906167cc565b90611980604086019260ff845116906167cc565b611993606087019160ff835116906167cc565b92600435611da45760ff8751169260018414938415611d99575b5083611d73575b5082611d4d575b5081611d29575b5015611cce5760ff600891161015611c92575060295460235492601d546017545b6119ed844261636e565b90604051906119fb82615c3f565b600082526020820192611a10600435856163cd565b85604084015287606084015260808301528760a083015260c0820152600060e082015282610100820152876101208201526000610140820152600754600160401b811015611c7c57806001611a689201600755615f3e565b929092611c665781518355516006811015611c505760ff80196001850154169116176001830155604081015160009060005b60048110611c315750506002830155606081015160009060005b60028110611c12575050600a916101409160038501556080810151600485015560a0810151600585015560c08101516006850155611afb60e08201511515600786016163bc565b6101008101516008850155611b1861012082015160098601616191565b0151910155600754600019810195908611611bfc57602096869560008051602061734383398151915295611bea9388611b5081615f3e565b50556000898152600f8c526040902080546001600160a01b03191633908117909155611b7b90615f24565b611b8581546166a5565b9055611b918933616b54565b611b9b848a61681b565b611bcf604051978897611bc061018096611bb78b600435615df6565b8f8b019061653c565b60608901526080880190616567565b61010086015261012085015280610140850152830190615b9a565b336101608301520390a2604051908152f35b634e487b7160e01b600052601160045260246000fd5b90916020611c286001928460ff87511691616f39565b93019101611ab4565b90916020611c476001928460ff87511691616f39565b93019101611a9a565b634e487b7160e01b600052602160045260246000fd5b634e487b7160e01b600052600060045260246000fd5b634e487b7160e01b600052604160045260246000fd5b60405162461bcd60e51b8152602060048201526017602482015276191919191034b9902920a922903737ba1021a7a6a6a7a760491b6044820152fd5b60405162461bcd60e51b815260206004820152602e60248201527f416c6c207175616472616e7473206d7573742062652031206f72203220666f7260448201526d20434f4d4d4f4e2072617269747960901b81840152608490fd5b60ff9150511660018114908115611d42575b50386119c2565b600291501438611d3b565b60ff919250511660018114908115611d68575b5090386119bb565b600291501438611d60565b60ff919350511660018114908115611d8e575b5091386119b4565b600291501438611d86565b6002149350386119ad565b600435600103611f0a5760ff8751169260028414938415611eff575b5083611ed9575b5082611eb3575b5081611e8f575b5015611e365760ff600c91161015611dfa5750602a5460245492601e546018546119e3565b60405162461bcd60e51b81526020600482015260176024820152763333333320697320554e49515545206e6f74205241524560481b6044820152fd5b60405162461bcd60e51b815260206004820152602c60248201527f416c6c207175616472616e7473206d7573742062652032206f72203320666f7260448201526b20524152452072617269747960a01b81840152608490fd5b60ff9150511660028114908115611ea8575b5038611dd5565b600391501438611ea1565b60ff919250511660028114908115611ece575b509038611dce565b600391501438611ec6565b60ff919350511660028114908115611ef4575b509138611dc7565b600391501438611eec565b600314935038611dc0565b6004356002036120725760ff8751169260038414938415612067575b5083612041575b508261201b575b5081611ff7575b5015611f9c5760ff601091161015611f605750602b5460255492601f546019546119e3565b60405162461bcd60e51b8152602060048201526017602482015276343434342069732045504943206e6f7420554e4951554560481b6044820152fd5b60405162461bcd60e51b815260206004820152602e60248201527f416c6c207175616472616e7473206d7573742062652033206f72203420666f7260448201526d20554e495155452072617269747960901b81840152608490fd5b60ff9150511660038114908115612010575b5038611f3b565b600491501438612009565b60ff919250511660038114908115612036575b509038611f34565b60049150143861202e565b60ff91935051166003811490811561205c575b509138611f2d565b600491501438612054565b600414935038611f26565b6004356003036121db5760ff87511692600484149384156121d0575b50836121aa575b5082612184575b5081612160575b50156121075760ff6014911610156120c85750602c5460265492602054601a546119e3565b60405162461bcd60e51b815260206004820152601a60248201527935353535206973204c4547454e44415259206e6f74204550494360301b6044820152fd5b60405162461bcd60e51b815260206004820152602c60248201527f416c6c207175616472616e7473206d7573742062652034206f72203520666f7260448201526b20455049432072617269747960a01b81840152608490fd5b60ff9150511660048114908115612179575b50386120a3565b600591501438612172565b60ff91925051166004811490811561219f575b50903861209c565b600591501438612197565b60ff9193505116600481149081156121c5575b509138612095565b6005915014386121bd565b60051493503861208e565b600480350361234a5760ff875116926005841493841561233f575b5083612319575b50826122f3575b50816122cf575b50156122715760ff6018911610156122305750602d5460275492602154601b546119e3565b60405162461bcd60e51b815260206004820152601c60248201527b36363636206973204d5954484943206e6f74204c4547454e4441525960201b6044820152fd5b60405162461bcd60e51b815260206004820152603160248201527f416c6c207175616472616e7473206d7573742062652035206f72203620666f72604482015270204c4547454e444152592072617269747960781b81840152608490fd5b60ff91505116600581149081156122e8575b503861220b565b6006915014386122e1565b60ff91925051166005811490811561230e575b509038612204565b600691501438612306565b60ff919350511660058114908115612334575b5091386121fd565b60069150143861232c565b6006149350386121f6565b9192509060043560050361241157600660ff875116149283612402575b50826123f3575b50816123e4575b501561238e5750602e5460285492602254601c546119e3565b6084906849432072617269747960b81b6040519162461bcd60e51b835260206004840152602960248401527f416c6c207175616472616e7473206d757374206265203620666f72204d5954486044840152820152fd5b5160ff16600614905038612375565b5160ff1660061491503861236e565b5160ff16600614925038612367565b60405162461bcd60e51b815260206004820152600c60248201526b77726f6e672052617269747960a01b60448201528490fd5b6020809161245184615d0f565b815201910190611904565b6020809161246984615d0f565b8152019101906118d8565b5034610601576020366003190112610601576020906004358152600f8252604060018060a01b0391205416604051908152f35b50346106015780600319360112610601576040516000600182600154926124cd84615f73565b928383526020948560018216918260001461254d57505060011461250d575b506124f992500383615cc7565b6106ea604051928284938452830190615b9a565b849150600160005281600020906000915b8583106125355750506124f99350820101856124ec565b8054838901850152879450869390920191810161251e565b60ff1916858201526124f995151560051b85010192508791506124ec9050565b5034610601576040366003190112610601576040612589615bf0565b916004358152603a602052209060018060a01b0316600052602052602060ff604060002054166040519015158152f35b50346106015780600319360112610601576020602d54604051908152f35b503461060157806003193601126106015760206125f261676c565b6040519015158152f35b503461060157602036600319011261060157600435602f548110156108ff57602f6000527fa813484aef6fb598f9f753daf162068ff39ccea4075cb95e1a30f86995b5b7ee0154604051908152602090f35b5034610601576020366003190112610601576106ea610ecc61266e615bda565b6166b4565b50346106015780600319360112610601576000805160206172c38339815191528152603a60205260408120336000526020526126b660ff604060002054166165ae565b60016016546126c860ff821615616052565b60ff1916176016557f62e78cea01bee320cd4e420270b5ea74000d11b0c9f74754ebdbfc544b05a2586020604051338152a180f35b503461060157602036600319011261060157610c8761271a615bda565b6000805160206172e38339815191528352603a602052604083203360005260205260ff60406000205416801561277f575b61275490616091565b6000805160206172c38339815191528352603a60205261277a60016040852001546168fb565b6169bc565b5061275461278b61676c565b905061274b565b50346106015760209081600319360112610601576004356127b860ff6016541615616052565b6127c1816167e0565b6001600160a01b0392906127d89084163314616606565b338152601284526040812082825284526001926127ff8460ff604085205416151514616642565b6128108460ff60076112dc87615f3e565b600a61281b84615f3e565b50015490818352601586528460ff8160408620015460081c161515036129cc5790859161284733615ef0565b85855283526040842060ff199081815416905561286333615f0a565b8686528452846040812055600761287987615f3e565b5001805482169055828552601584526040852060030154801561299857918594939160076128a96128e195615f3e565b50019081541690556033541690845260158352600360408520015460405194858094819363048dbcef60e41b835233600484016164da565b03925af19081156111db57916129247f97b363697f59781efcf0539a3eeabceea1e3b444e248009d3730fa6a26db9c24949261296f94839161297b575b506164f5565b600a61292f83615f3e565b50015561295361294d60ff8661294485615f3e565b50015416616f4d565b4261636e565b600461295e83615f3e565b50015560405191829133908361668c565b0390a15b604051908152f35b6129929150883d8a116108ed576108df8183615cc7565b3861291e565b5050505090507f87c3badc36a4b7c7f2331493a7998c2f9c414769a1bc588ef4b4c7ef302aeb5191604051908152a1612973565b60405162461bcd60e51b815260048101879052602c60248201527f796f75206e65656420746f2063616c6c207069636b4d696e656447454d20667560448201526b1b98dd1a5bdb88199a5c9cdd60a21b6064820152608490fd5b50346106015760203660031901126106015760ff60406020926004358152601484522054166040519015158152f35b50346106015780600319360112610601576020602954604051908152f35b503461060157806003193601126106015760206040516000805160206172e38339815191528152f35b503461060157602036600319011261060157610969615bda565b5034610601578060031936011261060157602060ff60315416604051908152f35b50346106015780600319360112610601576035546040516001600160a01b039091168152602090f35b5034610601578060031936011261060157612b1c61096461676c565b610c8733616de1565b503461060157602036600319011261060157610c87612b42615bda565b612b4d61096461676c565b6000805160206172e38339815191528352603a6020526109b460016040852001546168fb565b503461060157602036600319011261060157612b8d615bda565b612b9861096461676c565b336001600160a01b03821603612bb157610c8790616d59565b60405163334bd91960e11b8152600490fd5b503461060157602036600319011261060157610b1f60406106ea9260ff612be8615cff565b168152600860205220615fad565b5034610601576040366003190112610601576020906040906001600160a01b03612c1e615bda565b16815260138352818120602435825283522054604051908152f35b5034610601578060031936011261060157602060ff60365460a01c166040519015158152f35b5034610601576020366003190112610601576020612c7e6004356167e0565b6040516001600160a01b039091168152f35b50346106015780600319360112610601576020601c54604051908152f35b5034610601576020366003190112610601576004359060075482101561060157612d30612cda83615f3e565b508054612d5960ff600184015416926004810154926005820154600683015460ff60078501541690600885015492600a612d1660098801615fad565b960154976040519a8b9a610120978c5260208c0190615df6565b60408a015260608901526080880152151560a087015260c08601528060e0860152840190615b9a565b906101008301520390f35b50346106015780600319360112610601576033546040516001600160a01b039091168152602090f35b5034610601578060031936011261060157602060ff601654166040519015158152f35b50346106015780600319360112610601576020602654604051908152f35b50346106015780600319360112610601576020603054604051908152f35b50346106015760203660031901126106015760209060ff906040906001600160a01b03612e17615bda565b168152603884522054166040519015158152f35b50346106015760203660031901126106015760043563ffffffff60e01b81168091036108ff5790602091815260398252604060018060a01b0391205416604051908152f35b50346106015780600319360112610601576036546040516001600160a01b039091168152602090f35b5034610601576040366003190112610601576109c3612eb6615ee1565b612ecb60018060a01b036034541633146160d2565b6007612ed8600435615f3e565b50016163bc565b5034610601578060031936011261060157806007545b808310612f0757602082604051908152f35b90612f226001916008612f1986615f3e565b5001549061636e565b92019190612ef5565b503461060157612f3a36615dc1565b60405191612f4783615c91565b84835261117460ff6016541615616052565b50346106015780600319360112610601576000805160206172c38339815191528152603a6020526040812033600052602052612f9c60ff604060002054166165ae565b601654612fac60ff821615616052565b60ff19166016557f5db9ee0a495bf2e6ff9c91a7834c1ba4fdd244a5e8aa4e537bd38aeae4b073aa6020604051338152a180f35b503461060157806003193601126106015760206040516000805160206172c38339815191528152f35b5034610601576040366003190112610601577f00000000000000000000000000000000000000000000000000000000000000006001600160a01b03163381900361330a57506004358152601560205260ff600160408320015416156132d257600435815260156020526130a3600261309c604084206001810161010061ff00198254161790556024358382015554615f3e565b50016163d9565b60ff81511660ff6020830151169160ff60608160408401511692015116916130e685936130e1600754946130e16130d987616134565b988a966167cc565b6167cc565b855b8381106131e557505050506130fc81616134565b91835b8281106131c65750507fdd6ebb40766c50572c78f680f70ff043535bc04e71ac56a352f7c3df1e11ec5160405182815260406020820152806131446040820186615d8d565b0390a18015806131ad576131995761318360079261318992602435069061316b8282616166565b51600435875260156020526003604088200155616166565b51615f3e565b5001805460ff1916600117905580f35b634e487b7160e01b83526012600452602483fd5b5050506004358152601560205280600360408220015580f35b806131d360019284616166565b516131de8287616166565b52016130ff565b61323061321660ff60026131f885615f3e565b5001541660ff600261320986615f3e565b50015460081c16906167cc565b60ff600261322385615f3e565b50015460101c16906167cc565b60ff61325361323e84615f3e565b509282600281881695015460181c16906167cc565b1610806132ae575b80613296575b61326e575b6001016130e8565b9391600180809261327e88615f3e565b505461328a828b616166565b52019301949050613266565b5060ff60076132a483615f3e565b5001541615613261565b50808752600f60205260408720546033546001600160a01b0390811691161461325b565b60405162461bcd60e51b815260206004820152601060248201526f52657175657374206e6f74206d61646560801b6044820152606490fd5b6044906040519063073e64fd60e21b82523360048301526024820152fd5b503461060157604036600319011261060157613342615bf0565b336001600160a01b03821603612bb157610c8790600435616ed4565b503461060157608036600319011261060157600435906001600160401b03821161060157366023830112156106015781600401359161339c83615ce8565b926133aa6040519485615cc7565b80845260246020850191826101005260051b830101913683116138c657602401905b82821061392057505050600660243510156106015736606312156110d757604051906133f782615cac565b6084823682116110d7576044905b8282106139085750505061341e60ff6016541615616052565b601e54601f546020546101205260215461016052602254602454602554602654602754602854906018549260195494601a5496601b5498601c549a602a549c602b54608052602c5460c052602d5461014052602e5460e05260405160a05260a05161028060a05101106001600160401b0361028060a051011117611c7c5761028060a0510160405260a05152602060a051015261012051604060a051015261016051606060a0510152608060a051015260a08051015260c060a051015260e060a051015261010060a051015261012060a051015261014060a051015261016060a051015261018060a05101526101a060a05101526101c060a05101526101e060a051015260805161020060a051015260c05161022060a05101526101405161024060a051015260e05161026060a0510152608060405161355d81615c76565b3690376040516341264bff60e01b815260076004820152600f602482015260106044820152336064820152610380608482015283516103848201819052610100516103a4830191845b8181106138f2575050506135bf60a48301602435615df6565b81848460c483015b600282106138d557505050806101409260a05151610104830152602060a0510151610124830152604060a0510151610144830152606060a0510151610164830152608060a051015161018483015260a0805101516101a483015260c060a05101516101c483015260e060a05101516101e483015261010060a051015161020483015261012060a05101516102248301528360a051015161024483015261016060a051015161026483015261018060a05101516102848301526101a060a05101516102a48301526101c060a05101516102c48301526101e060a05101516102e483015261020060a051015161030483015261022060a051015161032483015261024060a051015161034483015261026060a0510151610364830152038173__$c8413349dc071733da103ffe8c54b86872$__5af49081156111db578291839184928586928794613818575b50865b895181101561378357806137306107e06131836001948e616166565b33895260106020526040892061374681546168ee565b9055613752818c616166565b518952600f60205260408920828060a01b0319815416905561377d613777828d616166565b516171eb565b01613714565b509260008051602061734383398151915294926137ed8798936101a0966137de60209c6137b08c33616b54565b6137c86040516137bf81615c91565b8981528d61681b565b6137d5604051809a615df6565b8d89019061653c565b60608701526080860190616567565b61010084015261012083015261018061014083015261018082015233610160820152a2604051908152f35b955050505050506101403d610140116138ce575b6138368183615cc7565b810190610140818303126138ca5780519082603f820112156138c6576040519261385f84615c76565b839060a08301116111d75760208201905b60a0830182106138a857505060a08101519160068310156111d75760c082015160e08301516101009093015191949192919038613711565b815160ff811681036138c257815260209182019101613870565b8680fd5b8380fd5b8280fd5b503d61382c565b8293506020809160ff6001949551168152019301910184926135c7565b82518452602093840193909201916001016135a6565b6020809161391584615d0f565b815201910190613405565b81358152602091820191016133cc565b50346106015780600319360112610601576020604051620334508152f35b5034610601576040366003190112610601576139d98161396c615bda565b6000805160206172e383398151915282526020928391603a83526040842033600052835260ff604060002054168015613a1f575b6139a990616091565b60335460405163048dbcef60e41b81529485936001600160a01b03909216928492839160243590600484016164da565b03925af1908115613a14576139f49293916139fd57506164f5565b60405160018152f35b6129929150833d85116108ed576108df8183615cc7565b6040513d85823e3d90fd5b506139a9613a2b61676c565b90506139a0565b503461060157604036600319011261060157610c87600435613a52615bf0565b90808452603a602052613a6b60016040862001546168fb565b616a46565b5034610601578060031936011261060157600754613a8d81615ce8565b90613a9b6040519283615cc7565b8082526007835260209283830191817fa66cc928b5edb82af9bd49922954155ab7b0942694bea4ce44661d9a8736c688845b838310613b325750505050604051928484019085855251809152604084019460408260051b8601019392955b828710613b065785850386f35b909192938280613b22600193603f198a82030186528851615e03565b9601920196019592919092613af9565b600b88600192613b45859b9a989b61640e565b81520192019201919096939596613acd565b503461060157602036600319011261060157602060ff6007613b7a600435615f3e565b500154166040519015158152f35b506020806003193601126108ff57600435613ba860ff6016541615616052565b6002603b5414613f0a576002603b55613bc0816167e0565b6001600160a01b0390811633148015613ed9575b15613e975733845260138352604084208285528352613bfc60408520546005612f1985615f3e565b421115613e525760079293613c26613c1384615f3e565b5060ff600196879201541615151461637b565b81613c30846167e0565b168152601285526040812083825285528360ff604083205416151503613e1c5760405191606083018381106001600160401b03821117613e085760405281835263ffffffff868401938385526040810190620334508252604051956309160b1560e11b875261ffff8092511660048801525116602486015251166044840152858360648134857f0000000000000000000000000000000000000000000000000000000000000000165af19283156111db578293613dd9575b5082600a613cf586615f3e565b5001558282526015865260408220848155858101805460ff19168717905560040180546001600160a01b03191633179055603080548601905560355416803b156108ff578180916024604051809481936324adeca760e11b83528860048401525af180156111db576003604080957fd8d282938b8a25adfd1ff3df570c529f147b9700ff1a12712d2a2f737cfff5149795600a95613db195613dca575b50908086613d9f89615f3e565b500155815260158a5220015492615f3e565b500154825191825285820152a180603b55604051908152f35b613dd390615c2c565b38613d92565b9092508581813d8311613e01575b613df18183615cc7565b810103126108ff57519138613ce8565b503d613de7565b634e487b7160e01b83526041600452602483fd5b60405162461bcd60e51b815260048101869052600e60248201526d67656d206e6f74206d696e696e6760901b6044820152606490fd5b60405162461bcd60e51b815260048101849052601d60248201527f6d696e696e6720706572696f6420686173206e6f7420656c61707365640000006044820152606490fd5b60405162461bcd60e51b815260048101849052601a6024820152793737ba1023a2a69037bbb732b91037b9103737ba1030b236b4b760311b6044820152606490fd5b506000805160206172e38339815191528452603a8352604084203385528352600160ff604086205416151514613bd4565b604051633ee5aeb560e01b8152600490fd5b50346106015760203660031901126106015760ff6040602092613f3d615bda565b6000805160206172e38339815191528252603a85528282206001600160a01b03909116825284522054604051911615158152f35b503461060157602036600319011261060157600160406020926004358152603a8452200154604051908152f35b503461060157613fad36615dc1565b9291613fbe60ff6016541615616052565b6001600160a01b038281169081156111d757808316918281146141ce5760ff6007613fe889615f3e565b50015416614199578282613ffb896167e0565b160361415457869061401661294d60ff600161294486615f3e565b600461402184615f3e565b50015561402d86615f24565b61403781546166a5565b9055818752600f6020526040872080546001600160a01b031990811683179091559261406286615f24565b61406c81546168ee565b905582885260026020526040882054169233614144575b83614122575b818852600360205260408820600181540190558288526002602052816040892091825416179055826000805160206173038339815191528880a48181036140fe57505061088b7f85d07a7616aea29f5d972fd9100b991c224490bd49b737377d908f66f34d9afd93946040519384938461634c565b6064925085604051926364283d7b60e01b8452600484015260248301526044820152fd5b61412b83617264565b8388526003602052604088208054600019019055614089565b61414f833386616fe8565b614083565b60405162461bcd60e51b815260206004820152601d60248201527f73656e646572206973206e6f742074686520746f6b656e206f776e65720000006044820152606490fd5b60405162461bcd60e51b815260206004820152600d60248201526c11d95b481a5cc81b1bd8dad959609a1b6044820152606490fd5b8580fd5b50346106015780600319360112610601576020601b54604051908152f35b50346106015760209081600319360112610601576004359061421760ff6016541615616052565b614222331515616311565b336001600160a01b03614234846167e0565b160361449957600461424583615f3e565b50015442106144485760ff600761425b84615f3e565b500154166143f25760ff600161427084615f3e565b5001541660068110156143de571561439a57600661428d83615f3e565b5001541561434b577fcfdb0da0eda7e72692cc304e4e58d2543a70ce5269931e91e02337cbff2a1ef1916080916142c333615ef0565b8282528552604081209060ff19916001838254161790556142e333615f0a565b8382528652604042912055600160076142fb84615f3e565b500191825416179055600661430f82615f3e565b500161431b81546168ee565b9055600661432882615f3e565b50015460405191825233858301524260408301526060820152a160405160018152f35b60405162461bcd60e51b815260048101849052602160248201527f6e6f206d696e696e6720706f776572206c65667420666f7220746861742047456044820152604d60f81b6064820152608490fd5b60405162461bcd60e51b815260048101849052601c60248201527b726172697479206d757374206265206174206c65617374205241524560201b6044820152606490fd5b634e487b7160e01b82526021600452602482fd5b60405162461bcd60e51b815260048101849052602860248201527f47656d206973206c697374656420666f722073616c65206f7220616c7265616460448201526779206d696e696e6760c01b6064820152608490fd5b60405162461bcd60e51b815260048101849052602360248201527f47656d20636f6f6c646f776e20706572696f6420686173206e6f7420656c61706044820152621cd95960ea1b6064820152608490fd5b60405162461bcd60e51b815260048101849052600d60248201526c3737ba1033b2b69037bbb732b960991b6044820152606490fd5b5034610601576020366003190112610601576004356001600160401b0381116108ff576144ff903690600401615d6f565b614508336167a1565b80156145ef575b61451890616091565b60ff600c54168252600b6020526145328160408420616191565b600d54600160401b811015613e08576001810180600d558110156145db57600d83526145819082907fd7b6990105719101dabeb77144f2a3385c8033acd3af97e9423a695e81ad1eb501616191565b7fd961fa20561746b8576d7b504b0bc57067c67db2ce13bd9866d451bec5985f4b6145d5600c549260ff6145b6818616616296565b16809460ff191617600c55604051918291602083526020830190615b9a565b0390a280f35b634e487b7160e01b83526032600452602483fd5b506145186145fb61676c565b905061450f565b50346106015780600319360112610601576020602b54604051908152f35b503461060157806003193601126106015760206129736162ff565b5034610601576020366003190112610601576109c3614658615bda565b61466361096461676c565b616592565b5034610601576040366003190112610601576024356001600160401b0381116108ff5761469c6109c3913690600401615d6f565b60043561681b565b5034610601576020366003190112610601576004356001600160401b0381116108ff576146d5903690600401615d6f565b6146de336167a1565b80156147ab575b6146ee90616091565b60ff60095416825260086020526147088160408420616191565b600a54600160401b811015613e08576001810180600a558110156145db57600a83526147579082907fc65a7bb8d6351c1cf70c95a316cc6a92839c986682d98bc35f958f4883f9d2a801616191565b7fe4d2864ec291f6f11cb3363fa1bd2a4d5ff49a2cfdf4bf7dfe3b90a26b8c776f6145d56009549260ff61478c818616616296565b16809460ff191617600955604051918291602083526020830190615b9a565b506146ee6147b761676c565b90506146e5565b50346106015780600319360112610601576020602854604051908152f35b50346106015780600319360112610601576020601754604051908152f35b5034610601576080366003190112610601576004356001600160401b0381116108ff57366023820112156108ff57806004013561483681615ce8565b916148446040519384615cc7565b8183526024602084019260051b820101903682116111d757602401915b8183106156dd575050506024356001600160401b0381116138ca57366023820112156138ca5780600401359061489682615ce8565b916148a46040519384615cc7565b8083526024602084019160061b830101913683116141ce57602401905b82821061568057505050604435926001600160401b03841161060157366023850112156106015783600401356148f681615ce8565b946149046040519687615cc7565b81865260208601903660248460071b830101116138c65760248101915b60248460071b830101831061562657505050506001600160401b036064351161060157366023606435011215610601576064356004013561496181615ce8565b9061496f6040519283615cc7565b80825260208201903660248260051b6064350101116138c657602460643501915b60248260051b606435010183106155f3575050506149b960018060a01b036033541633146160d2565b6149c860ff6016541615616052565b8351835180911490816155e8575b50806155dd575b15615589576149ef8493959451616134565b94825b845181101561557357614a058186616166565b51600681101561555f57614a198284616166565b51614a248389616166565b5191614a308487616166565b5190614a4760018060a01b036033541633146160d2565b614a5660ff6016541615616052565b614a8e614a80614a7260ff87511660ff602089015116906167cc565b60ff604088015116906167cc565b60ff606087015116906167cc565b81614ebc5760ff8551166001808214918215614eb1575b5081614e8a575b81614e63575b81614e3d575b5015614de15760ff600891161015614da257602954602354601d54956017545b614ae2844261636e565b9060405191614af083615c3f565b8d8352614b0087602085016163cd565b83604084015288606084015260808301528360a083015260c08201528b60e082015287610100820152856101208201528b610140820152600754600160401b811015614d8e57806001614b569201600755615f3e565b919091614d7a578051825560208101516006811015614d665760ff801960018501541691161760018301558c6040820151815b60048110614d4757505060028301558c6060820151815b60028110614d285750509e9f9d9e600a916101409160038501556080810151600485015560a0810151600585015560c08101516006850155614beb60e08201511515600786016163bc565b6101008101516008850155614c0861012082015160098601616191565b01519101556007549687600019810111614d14579287969592614cce6000805160206173438339815191529693614ce9968f604090614c4d60019f9e60001901615f3e565b508d6000190190556000198d018152600f60205220338e8060a01b0319825416179055614c7933615f24565b614c8381546166a5565b9055614c936000198c0133616b54565b614ca1876000198d0161681b565b614cbf6040519a614cb58c61018099615df6565b60208c019061653c565b60608a01526080890190616567565b61010087015261012086015280610140860152840190615b9a565b9133610160820152806000198501930390a260001901614d098288616166565b5201959493956149f2565b634e487b7160e01b8c52601160045260248cfd5b90916020614d3e6001928460ff87511691616f39565b93019101614ba0565b90916020614d5d6001928460ff87511691616f39565b93019101614b89565b634e487b7160e01b8e52602160045260248efd5b634e487b7160e01b8d5260048d905260248dfd5b634e487b7160e01b8d52604160045260248dfd5b60405162461bcd60e51b8152602060048201526017602482015276191919191034b9902920a922903737ba1021a7a6a6a7a760491b6044820152606490fd5b60405162461bcd60e51b815260206004820152602e60248201527f416c6c207175616472616e7473206d7573742062652031206f72203220666f7260448201526d20434f4d4d4f4e2072617269747960901b6064820152608490fd5b606087015160ff1690811491508115614e58575b5038614ab8565b600291501438614e51565b905060ff604087015116818114908115614e7f575b5090614ab2565b600291501438614e78565b905060ff602087015116818114908115614ea6575b5090614aac565b600291501438614e9f565b600214915038614aa5565b600182036150255760ff855116600280821491821561501a575b5081614ff3575b81614fcc575b81614fa6575b5015614f4c5760ff600c91161015614f0d57602a54602454601e5495601854614ad8565b60405162461bcd60e51b81526020600482015260176024820152763333333320697320554e49515545206e6f74205241524560481b6044820152606490fd5b60405162461bcd60e51b815260206004820152602c60248201527f416c6c207175616472616e7473206d7573742062652032206f72203320666f7260448201526b20524152452072617269747960a01b6064820152608490fd5b606087015160ff1690811491508115614fc1575b5038614ee9565b600391501438614fba565b905060ff604087015116818114908115614fe8575b5090614ee3565b600391501438614fe1565b905060ff60208701511681811490811561500f575b5090614edd565b600391501438615008565b600314915038614ed6565b600282036151905760ff8551166003808214918215615185575b508161515e575b81615137575b81615111575b50156150b55760ff60109116101561507657602b54602554601f5495601954614ad8565b60405162461bcd60e51b8152602060048201526017602482015276343434342069732045504943206e6f7420554e4951554560481b6044820152606490fd5b60405162461bcd60e51b815260206004820152602e60248201527f416c6c207175616472616e7473206d7573742062652033206f72203420666f7260448201526d20554e495155452072617269747960901b6064820152608490fd5b606087015160ff169081149150811561512c575b5038615052565b600491501438615125565b905060ff604087015116818114908115615153575b509061504c565b60049150143861514c565b905060ff60208701511681811490811561517a575b5090615046565b600491501438615173565b60041491503861503f565b600382036152f85760ff855116600481149081156152ed575b50806152c7575b806152a1575b8061527b575b156152215760ff6014911610156151df57602c5460265460205495601a54614ad8565b60405162461bcd60e51b815260206004820152601a60248201527935353535206973204c4547454e44415259206e6f74204550494360301b6044820152606490fd5b60405162461bcd60e51b815260206004820152602c60248201527f416c6c207175616472616e7473206d7573742062652034206f72203520666f7260448201526b20455049432072617269747960a01b6064820152608490fd5b5060ff60608601511660048114908115615296575b506151bc565b600591501438615290565b5060ff604086015116600481149081156152bc575b506151b6565b6005915014386152b6565b5060ff602086015116600481149081156152e2575b506151b0565b6005915014386152dc565b6005915014386151a9565b600482036154675760ff8551166005811490811561545c575b5080615436575b80615410575b806153ea575b1561538b5760ff60189116101561534757602d5460275460215495601b54614ad8565b60405162461bcd60e51b815260206004820152601c60248201527b36363636206973204d5954484943206e6f74204c4547454e4441525960201b6044820152606490fd5b60405162461bcd60e51b815260206004820152603160248201527f416c6c207175616472616e7473206d7573742062652035206f72203620666f72604482015270204c4547454e444152592072617269747960781b6064820152608490fd5b5060ff60608601511660058114908115615405575b50615324565b6006915014386153ff565b5060ff6040860151166005811490811561542b575b5061531e565b600691501438615425565b5060ff60208601511660058114908115615451575b50615318565b60069150143861544b565b600691501438615311565b506005810361552b57600660ff855116148061551a575b80615509575b806154f8575b156154a157602e5460285460225495601c54614ad8565b60405162461bcd60e51b815260206004820152602960248201527f416c6c207175616472616e7473206d757374206265203620666f72204d59544860448201526849432072617269747960b81b6064820152608490fd5b50600660ff6060860151161461548a565b50600660ff60408601511614615484565b50600660ff6020860151161461547e565b60405162461bcd60e51b815260206004820152600c60248201526b77726f6e672052617269747960a01b6044820152606490fd5b634e487b7160e01b85526021600452602485fd5b604051602080825281906106ea9082018a615d8d565b60405162461bcd60e51b815260206004820152602660248201527f496e70757420617272617973206d7573742068617665207468652073616d65206044820152650d8cadccee8d60d31b6064820152608490fd5b5084518151146149dd565b9050855114386149d6565b6001600160401b038335116111d757602080602492615619368588356064350101615d6f565b8152019301929050614990565b36601f840112156111d75760405161563d81615c76565b803660808601116138c25784905b608086018210615668575050815260809290920191602001614921565b6020809161567584615d0f565b81520191019061564b565b36601f830112156141ce5760405161569781615cac565b80604084013681116156d95784915b8183106156c1575050508160209160409352019101906148c1565b602080916156ce85615d0f565b8152019201916156a6565b8880fd5b823560068110156141ce57815260209283019201614861565b50346106015780600319360112610601576020602454604051908152f35b50346106015761572336615c06565b94615733949194939293336167a1565b8015615758575b61574390616091565b60235560245560255560265560275560285580f35b5061574361576461676c565b905061573a565b50346106015760203660031901126106015760043590600682101561060157508061579e57506020601d54604051908152f35b600181036157b157506020601e54612973565b600281036157c457506020601f54612973565b600381036157d6575060208054612973565b600481036157e957506020602154612973565b6005036157fa576020602254612973565b60405162461bcd60e51b815260206004820152600c60248201526b77726f6e672072617269747960a01b6044820152606490fd5b503461060157604036600319011261060157615848615bda565b602435615854816167e0565b331515806158fe575b806158d3575b6158bb576001600160a01b039283169282918491167f8c5be1e5ebec7d5bd14f71427d1e84f3dd0314c0f7b2291e5b200ac8c7c3b9258680a4825260046020526040822080546001600160a01b031916909117905580f35b60405163a9fbf51f60e01b8152336004820152602490fd5b506001600160a01b038116845260056020908152604080862033875290915284205460ff1615615863565b506001600160a01b03811633141561585d565b5034610601578060031936011261060157602060ff600c5416604051908152f35b503461060157602036600319011261060157602090600435615953816167e0565b50815260048252604060018060a01b0391205416604051908152f35b503461060157806003193601126106015760405190808282549161599283615f73565b92838352602094600191866001821691826000146159fd5750506001146159c2575b50506124f992500383615cc7565b908592508180528282205b8583106159e55750506124f9935082010138806159b4565b805483890185015287945086939092019181016159cd565b92509350506124f994915060ff191682840152151560051b82010138806159b4565b50346106015780600319360112610601576020602554604051908152f35b5034610601578060031936011261060157615a5d60ff6016541615616052565b6034546001600160a01b03168015615ac05733825260056020526040822081835260205260408220600160ff19825416179055604051600181527f17307eab39ab6107e8899845ad3d59bd9653f200f220920489ca2b5937696c3160203392a380f35b60249060405190630b61174360e31b82526004820152fd5b5034610601578060031936011261060157602060ff60095416604051908152f35b9050346108ff5760203660031901126108ff5760043563ffffffff60e01b81168091036138ca5760209250637965db0b60e01b8114908115615b3d575b5015158152f35b632483248360e11b811491508115615b57575b5038615b36565b6380ac58cd60e01b811491508115615b89575b8115615b78575b5038615b50565b6301ffc9a760e01b14905038615b71565b635b5e139f60e01b81149150615b6a565b919082519283825260005b848110615bc6575050826000602080949584010152601f8019910116010190565b602081830181015184830182015201615ba5565b600435906001600160a01b03821682036110d757565b602435906001600160a01b03821682036110d757565b60c09060031901126110d757600435906024359060443590606435906084359060a43590565b6001600160401b038111611c7c57604052565b61016081019081106001600160401b03821117611c7c57604052565b60c081019081106001600160401b03821117611c7c57604052565b608081019081106001600160401b03821117611c7c57604052565b602081019081106001600160401b03821117611c7c57604052565b604081019081106001600160401b03821117611c7c57604052565b90601f801991011681019081106001600160401b03821117611c7c57604052565b6001600160401b038111611c7c5760051b60200190565b6004359060ff821682036110d757565b359060ff821682036110d757565b6001600160401b038111611c7c57601f01601f191660200190565b929192615d4482615d1d565b91615d526040519384615cc7565b8294818452818301116110d7578281602093846000960137010152565b9080601f830112156110d757816020615d8a93359101615d38565b90565b90815180825260208080930193019160005b828110615dad575050505090565b835185529381019392810192600101615d9f565b60609060031901126110d7576001600160a01b039060043582811681036110d7579160243590811681036110d7579060443590565b906006821015611c505752565b906101e0825182526020615e1d8185015182850190615df6565b6040840151604084016000905b8360048310615eca5750505050606084015190600060c085015b60028210615eb257505050506101c090615ea9608085015191610100928386015260a0860151610120908187015260c087015193610140948588015260e0880151151561016088015287015161018087015286015190806101a0870152850190615b9a565b93015191015290565b828060019260ff875116815201940191019092615e44565b8060019260ff865116815201930191019091615e2a565b6024359081151582036110d757565b6001600160a01b0316600090815260126020526040902090565b6001600160a01b0316600090815260136020526040902090565b6001600160a01b0316600090815260106020526040902090565b600754811015615f5d576007600052600b602060002091020190600090565b634e487b7160e01b600052603260045260246000fd5b90600182811c92168015615fa3575b6020831014615f8d57565b634e487b7160e01b600052602260045260246000fd5b91607f1691615f82565b90604051918260008254615fc081615f73565b908184526020946001916001811690816000146160305750600114615ff1575b505050615fef92500383615cc7565b565b600090815285812095935091905b818310616018575050615fef9350820101388080615fe0565b85548884018501529485019487945091830191615fff565b92505050615fef94925060ff191682840152151560051b820101388080615fe0565b1561605957565b60405162461bcd60e51b815260206004820152601060248201526f14185d5cd8589b194e881c185d5cd95960821b6044820152606490fd5b1561609857565b60405162461bcd60e51b81526020600482015260126024820152713737ba1027bbb732b91037b91020b236b4b760711b6044820152606490fd5b156160d957565b60405162461bcd60e51b815260206004820152602d60248201527f66756e6374696f6e2063616c6c61626c652066726f6d2074726561737572792060448201526c636f6e7472616374206f6e6c7960981b6064820152608490fd5b9061613e82615ce8565b61614b6040519182615cc7565b828152809261615c601f1991615ce8565b0190602036910137565b8051821015615f5d5760209160051b010190565b818110616185575050565b6000815560010161617a565b91909182516001600160401b038111611c7c576161ae8254615f73565b601f8111616259575b50602080601f83116001146161f45750819293946000926161e9575b50508160011b916000199060031b1c1916179055565b0151905038806161d3565b90601f19831695846000526020600020926000905b88821061624157505083600195969710616228575b505050811b019055565b015160001960f88460031b161c1916905538808061621e565b80600185968294968601518155019501930190616209565b61628690836000526020600020601f840160051c8101916020851061628c575b601f0160051c019061617a565b386161b7565b9091508190616279565b60ff1660ff8114611bfc5760010190565b156162ae57565b60405162461bcd60e51b8152602060048201526024808201527f41757468436f6e74726f6c3a2043616c6c6572206973206e6f7420746865206f6044820152633bb732b960e11b6064820152608490fd5b6007546000198101908111611bfc5790565b1561631857565b60405162461bcd60e51b815260206004820152600c60248201526b7a65726f206164647265737360a01b6044820152606490fd5b6001600160a01b03918216815291166020820152604081019190915260600190565b91908201809211611bfc57565b1561638257565b60405162461bcd60e51b815260206004820152601260248201527147656d73206973206e6f74206d696e696e6760701b6044820152606490fd5b9060ff801983541691151516179055565b6006821015611c505752565b9060ff60405192548181168452818160081c166020850152818160101c16604085015260181c166060830152615fef82615c76565b9060405161641b81615c3f565b610140600a82948054845261643a60ff600183015416602086016163cd565b616446600282016163d9565b604085015260405160ff6003830154818116835260081c16602082015261646c81615cac565b606085015260048101546080850152600581015460a0850152600681015460c085015260ff600782015416151560e085015260088101546101008501526164b560098201615fad565b6101208501520154910152565b908160209103126110d7575180151581036110d75790565b6001600160a01b039091168152602081019190915260400190565b156164fc57565b60405162461bcd60e51b81526020600482015260186024820152773330b4b632b2103a37903a3930b739b332b9103a37b5b2b760411b6044820152606490fd5b6000915b6002831061654d57505050565b60019060ff83511681526020809101920192019190616540565b6000915b6004831061657857505050565b60019060ff8351168152602080910192019201919061656b565b336001600160a01b03821603612bb1576165ab90616e5e565b50565b156165b557565b60405162461bcd60e51b815260206004820152602360248201527f41757468436f6e74726f6c3a2043616c6c6572206973206e6f7420612070617560448201526239b2b960e91b6064820152608490fd5b1561660d57565b60405162461bcd60e51b815260206004820152600d60248201526c3737ba1023a2a69037bbb732b960991b6044820152606490fd5b1561664957565b60405162461bcd60e51b815260206004820152601b60248201527a75736572206973206e6f74206d696e696e6720746869732047656d60281b6044820152606490fd5b9081526001600160a01b03909116602082015260400190565b6000198114611bfc5760010190565b60018060a01b038091166000918183526020916010602052604090604085205480156000146166f8575050505050604051906166ef82615c91565b80825236813790565b61670790969592939496616134565b936167106162ff565b938360015b868111156167295750959750505050505050565b808252600f8a52848484842054161461674b575b616746906166a5565b616715565b94616764818761675e616746948c616166565b526166a5565b95905061673d565b3360009081527f489cb750909c17c66c5ce6e12fc66200b1268a56adfccc87a74969633bf57069602052604090205460ff1690565b6001600160a01b031660009081526000805160206172a3833981519152602052604090205460ff1690565b9060ff8091169116019060ff8211611bfc57565b6000818152600260205260409020546001600160a01b0316908115616803575090565b60249060405190637e27328960e01b82526004820152fd5b906001600160a01b0361682d836167e0565b16331480156168c3575b1561687f57816168766020927ff8e1a15aba9398e019f0b49df1a4fde98ee17ae345cb5f6b5e2c27f5033e8ce794600052600684526040600020616191565b604051908152a1565b60405162461bcd60e51b815260206004820152601c60248201527b6e6f7420616c6c6f77656420746f2073657420746f6b656e2055524960201b6044820152606490fd5b503360009081526000805160206172a3833981519152602052604090205460ff161515600114616837565b8015611bfc576000190190565b80600052603a60205260406000203360005260205260ff60406000205416156169215750565b6044906040519063e2517d3f60e01b82523360048301526024820152fd5b6001600160a01b031660008181526000805160206172a383398151915260205260408120549091906000805160206172e38339815191529060ff166169b757808352603a6020526040832082845260205260408320600160ff19825416179055600080516020617283833981519152339380a4600190565b505090565b6001600160a01b031660008181527fc3e7f7030e2b5e93229767c75293162bace57ab459b2158e709794c3a02a893260205260408120549091906000805160206172c38339815191529060ff166169b757808352603a6020526040832082845260205260408320600160ff19825416179055600080516020617283833981519152339380a4600190565b90600091808352603a602052604083209160018060a01b03169182845260205260ff604084205416156000146169b757808352603a6020526040832082845260205260408320600160ff19825416179055600080516020617283833981519152339380a4600190565b90611c6657600a6000918281558260018201558260038201616ad4816002850161617a565b616ae260048401809261617a565b558260058201558260068201558260078201558260088201558260098201616b0a8154615f73565b80616b17575b5050500155565b82601f8211600114616b2f575050555b823880616b10565b9091808252616b4d601f60208420940160051c84016001850161617a565b5555616b27565b6040805192616b6284615c91565b60008085526001600160a01b0394848616949192918515616d415782845260209660028852858520541683878215159283616d21575b81885260038b528888208054600101905582885260028b5288882080546001600160a01b031916831790556000805160206173038339815191528880a4616d09573b616be7575b505050505050565b85616c25918596979894955180938192630a85bd0160e11b968784523360048501528960248501526044840152608060648401526084830190615b9a565b0381878a5af1849181616cc9575b50616c92575050503d600014616c8a573d616c4d81615d1d565b90616c5a84519283615cc7565b81528091853d92013e5b80519384616c84578251633250574960e11b815260048101859052602490fd5b84925001fd5b506060616c64565b919550915063ffffffff60e01b1603616cb2575050388080808080616bdf565b602492505190633250574960e11b82526004820152fd5b9091508781813d8311616d02575b616ce18183615cc7565b810103126111d757516001600160e01b0319811681036111d7579038616c33565b503d616cd7565b84516339e3563760e11b815260048101859052602490fd5b616d2a83617264565b80885260038b528888208054600019019055616b98565b8451633250574960e11b815260048101859052602490fd5b6001600160a01b031660008181527fc3e7f7030e2b5e93229767c75293162bace57ab459b2158e709794c3a02a893260205260408120549091906000805160206172c38339815191529060ff16156169b757808352603a602052604083208284526020526040832060ff198154169055600080516020617323833981519152339380a4600190565b6001600160a01b031660008181527f489cb750909c17c66c5ce6e12fc66200b1268a56adfccc87a74969633bf57069602052604081205490919060ff1615616e5a57818052603a602052604082208183526020526040822060ff19815416905533916000805160206173238339815191528180a4600190565b5090565b6001600160a01b031660008181526000805160206172a383398151915260205260408120549091906000805160206172e38339815191529060ff16156169b757808352603a602052604083208284526020526040832060ff198154169055600080516020617323833981519152339380a4600190565b90600091808352603a602052604083209160018060a01b03169182845260205260ff6040842054166000146169b757808352603a602052604083208284526020526040832060ff198154169055600080516020617323833981519152339380a4600190565b9060ff809160031b9316831b921b19161790565b6006811015611c50578015616fe05760018114616fd85760028114616fd05760038114616fc85760048114616fc057600514616fb95760405162461bcd60e51b815260206004820152600e60248201526d496e76616c69642072617269747960901b6044820152606490fd5b6207e90090565b506206978090565b506205460090565b506203f48090565b506202a30090565b506201518090565b6001600160a01b03908282168015159081617048575b501561700a5750505050565b1661702857604051637e27328960e01b815260048101839052602490fd5b61704460405192839263177e802f60e01b8452600484016164da565b0390fd5b82841680821492508215617080575b508115617066575b5038616ffe565b90508460005260046020528260406000205416143861705f565b909150600052600560205260406000208160005260205260ff604060002054169038617057565b813b6170b4575b50505050565b604051630a85bd0160e11b8082523360048301526001600160a01b03928316602483015260448201949094526080606482015260209592909116939092908390617102906084830190615b9a565b039285816000958187895af18491816171ab575b50617176575050503d60001461716e573d61713081615d1d565b9061713e6040519283615cc7565b81528091843d92013e5b8051928361716957604051633250574960e11b815260048101849052602490fd5b019050fd5b506060617148565b919450915063ffffffff60e01b16036171935750388080806170ae565b60249060405190633250574960e11b82526004820152fd5b9091508681813d83116171e4575b6171c38183615cc7565b810103126111d757516001600160e01b0319811681036111d7579038617116565b503d6171b9565b6000818152600260205260408120546001600160a01b031680159183918315617242575b82825260026020526040822080546001600160a01b03191690556000805160206173038339815191528280a46168035750565b61724b83617264565b808252600360205260408220805460001901905561720f565b600090815260046020526040902080546001600160a01b031916905556fe2f8788117e7eff1d82e926ec794901d17c78024a50270940304540a733656f0daaf8c8a7989d91242822056a65a27834ab391db017cf998782abb499a10e90bdfcb9fcbfa83b897fb2d5cf4b58962164105c1e71489a37ef3ae0db3fdce576f6df8b4c520ffe197c5343c6f5aec59570151ef9a492f2c624fd45ddde6135ec42ddf252ad1be2c89b69c2b068fc378daa952ba7f163c4a11628f55a4df523b3eff6391f5c32d9c69d2a47ea670b442974b53935d1edc7fd64eb21e047a839171b5ea0402f9a8785c25ad31fd3e0e81f8c2b4ca231668cc82cd03fa34ea1f0ce3ca264697066735822122082d426693ee0016415fa44d55c61f3ba038a1a432f899a0bae3d40d8f4b5f81064736f6c63430008190033",
  "linkReferences": {
    "src/libraries/ForgeLibrary.sol": {
      "ForgeLibrary": [
        {
          "length": 20,
          "start": 15075
        }
      ]
    }
  },
  "deployedLinkReferences": {
    "src/libraries/ForgeLibrary.sol": {
      "ForgeLibrary": [
        {
          "length": 20,
          "start": 14053
        }
      ]
    }
  }
}