{
  "_format": "hh-sol-artifact-1",
  "contractName": "GemFactory",
  "sourceName": "src/L2/GemFactory.sol",
  "abi": [
    {
      "inputs": [
        {
          "internalType": "address",
          "name": "coordinator",
          "type": "address"
        }
      ],
      "stateMutability": "nonpayable",
      "type": "constructor"
    },
    {
      "inputs": [],
      "name": "AccessControlBadConfirmation",
      "type": "error"
    },
    {
      "inputs": [
        {
          "internalType": "address",
          "name": "account",
          "type": "address"
        },
        {
          "internalType": "bytes32",
          "name": "neededRole",
          "type": "bytes32"
        }
      ],
      "name": "AccessControlUnauthorizedAccount",
      "type": "error"
    },
    {
      "inputs": [
        {
          "internalType": "address",
          "name": "sender",
          "type": "address"
        },
        {
          "internalType": "uint256",
          "name": "tokenId",
          "type": "uint256"
        },
        {
          "internalType": "address",
          "name": "owner",
          "type": "address"
        }
      ],
      "name": "ERC721IncorrectOwner",
      "type": "error"
    },
    {
      "inputs": [
        {
          "internalType": "address",
          "name": "operator",
          "type": "address"
        },
        {
          "internalType": "uint256",
          "name": "tokenId",
          "type": "uint256"
        }
      ],
      "name": "ERC721InsufficientApproval",
      "type": "error"
    },
    {
      "inputs": [
        {
          "internalType": "address",
          "name": "approver",
          "type": "address"
        }
      ],
      "name": "ERC721InvalidApprover",
      "type": "error"
    },
    {
      "inputs": [
        {
          "internalType": "address",
          "name": "operator",
          "type": "address"
        }
      ],
      "name": "ERC721InvalidOperator",
      "type": "error"
    },
    {
      "inputs": [
        {
          "internalType": "address",
          "name": "owner",
          "type": "address"
        }
      ],
      "name": "ERC721InvalidOwner",
      "type": "error"
    },
    {
      "inputs": [
        {
          "internalType": "address",
          "name": "receiver",
          "type": "address"
        }
      ],
      "name": "ERC721InvalidReceiver",
      "type": "error"
    },
    {
      "inputs": [
        {
          "internalType": "address",
          "name": "sender",
          "type": "address"
        }
      ],
      "name": "ERC721InvalidSender",
      "type": "error"
    },
    {
      "inputs": [
        {
          "internalType": "uint256",
          "name": "tokenId",
          "type": "uint256"
        }
      ],
      "name": "ERC721NonexistentToken",
      "type": "error"
    },
    {
      "inputs": [
        {
          "internalType": "address",
          "name": "have",
          "type": "address"
        },
        {
          "internalType": "address",
          "name": "want",
          "type": "address"
        }
      ],
      "name": "OnlyCoordinatorCanFulfill",
      "type": "error"
    },
    {
      "inputs": [],
      "name": "ReentrancyGuardReentrantCall",
      "type": "error"
    },
    {
      "anonymous": false,
      "inputs": [
        {
          "indexed": true,
          "internalType": "address",
          "name": "owner",
          "type": "address"
        },
        {
          "indexed": true,
          "internalType": "address",
          "name": "approved",
          "type": "address"
        },
        {
          "indexed": true,
          "internalType": "uint256",
          "name": "tokenId",
          "type": "uint256"
        }
      ],
      "name": "Approval",
      "type": "event"
    },
    {
      "anonymous": false,
      "inputs": [
        {
          "indexed": true,
          "internalType": "address",
          "name": "owner",
          "type": "address"
        },
        {
          "indexed": true,
          "internalType": "address",
          "name": "operator",
          "type": "address"
        },
        {
          "indexed": false,
          "internalType": "bool",
          "name": "approved",
          "type": "bool"
        }
      ],
      "name": "ApprovalForAll",
      "type": "event"
    },
    {
      "anonymous": false,
      "inputs": [
        {
          "indexed": true,
          "internalType": "uint8",
          "name": "id",
          "type": "uint8"
        },
        {
          "indexed": false,
          "internalType": "string",
          "name": "backgroundColor",
          "type": "string"
        }
      ],
      "name": "BackgroundColorAdded",
      "type": "event"
    },
    {
      "anonymous": false,
      "inputs": [
        {
          "indexed": false,
          "internalType": "uint256",
          "name": "_fromTokenId",
          "type": "uint256"
        },
        {
          "indexed": false,
          "internalType": "uint256",
          "name": "_toTokenId",
          "type": "uint256"
        }
      ],
      "name": "BatchMetadataUpdate",
      "type": "event"
    },
    {
      "anonymous": false,
      "inputs": [
        {
          "indexed": true,
          "internalType": "uint8",
          "name": "id",
          "type": "uint8"
        },
        {
          "indexed": false,
          "internalType": "string",
          "name": "color",
          "type": "string"
        }
      ],
      "name": "ColorAdded",
      "type": "event"
    },
    {
      "anonymous": false,
      "inputs": [
        {
          "indexed": false,
          "internalType": "uint8",
          "name": "color_0",
          "type": "uint8"
        },
        {
          "indexed": false,
          "internalType": "uint8",
          "name": "color_1",
          "type": "uint8"
        }
      ],
      "name": "ColorValidated",
      "type": "event"
    },
    {
      "anonymous": false,
      "inputs": [
        {
          "indexed": false,
          "internalType": "uint256",
          "name": "gemCount",
          "type": "uint256"
        },
        {
          "indexed": false,
          "internalType": "uint256[]",
          "name": "tokenIds",
          "type": "uint256[]"
        }
      ],
      "name": "CountGemsByQuadrant",
      "type": "event"
    },
    {
      "anonymous": false,
      "inputs": [
        {
          "indexed": true,
          "internalType": "uint256",
          "name": "tokenId",
          "type": "uint256"
        },
        {
          "indexed": false,
          "internalType": "enum GemFactoryStorage.Rarity",
          "name": "rarity",
          "type": "uint8"
        },
        {
          "indexed": false,
          "internalType": "uint8[2]",
          "name": "color",
          "type": "uint8[2]"
        },
        {
          "indexed": false,
          "internalType": "uint256",
          "name": "value",
          "type": "uint256"
        },
        {
          "indexed": false,
          "internalType": "uint8[4]",
          "name": "quadrants",
          "type": "uint8[4]"
        },
        {
          "indexed": false,
          "internalType": "uint256",
          "name": "miningPeriod",
          "type": "uint256"
        },
        {
          "indexed": false,
          "internalType": "uint256",
          "name": "cooldownPeriod",
          "type": "uint256"
        },
        {
          "indexed": false,
          "internalType": "string",
          "name": "tokenURI",
          "type": "string"
        },
        {
          "indexed": false,
          "internalType": "address",
          "name": "owner",
          "type": "address"
        }
      ],
      "name": "Created",
      "type": "event"
    },
    {
      "anonymous": false,
      "inputs": [
        {
          "indexed": false,
          "internalType": "address",
          "name": "gemOwner",
          "type": "address"
        },
        {
          "indexed": false,
          "internalType": "uint256[]",
          "name": "gemsTokenIds",
          "type": "uint256[]"
        },
        {
          "indexed": false,
          "internalType": "uint256",
          "name": "newGemCreatedId",
          "type": "uint256"
        },
        {
          "indexed": false,
          "internalType": "enum GemFactoryStorage.Rarity",
          "name": "newRarity",
          "type": "uint8"
        },
        {
          "indexed": false,
          "internalType": "uint8[4]",
          "name": "forgedQuadrants",
          "type": "uint8[4]"
        },
        {
          "indexed": false,
          "internalType": "uint8[2]",
          "name": "color",
          "type": "uint8[2]"
        },
        {
          "indexed": false,
          "internalType": "uint256",
          "name": "newValue",
          "type": "uint256"
        }
      ],
      "name": "GemForged",
      "type": "event"
    },
    {
      "anonymous": false,
      "inputs": [
        {
          "indexed": false,
          "internalType": "uint256",
          "name": "_tokenId",
          "type": "uint256"
        },
        {
          "indexed": false,
          "internalType": "address",
          "name": "_from",
          "type": "address"
        }
      ],
      "name": "GemMelted",
      "type": "event"
    },
    {
      "anonymous": false,
      "inputs": [
        {
          "indexed": false,
          "internalType": "uint256",
          "name": "tokenId",
          "type": "uint256"
        },
        {
          "indexed": false,
          "internalType": "address",
          "name": "miner",
          "type": "address"
        }
      ],
      "name": "GemMiningClaimed",
      "type": "event"
    },
    {
      "anonymous": false,
      "inputs": [
        {
          "indexed": false,
          "internalType": "uint256",
          "name": "tokenId",
          "type": "uint256"
        },
        {
          "indexed": false,
          "internalType": "address",
          "name": "miner",
          "type": "address"
        },
        {
          "indexed": false,
          "internalType": "uint256",
          "name": "startMiningTime",
          "type": "uint256"
        },
        {
          "indexed": false,
          "internalType": "uint256",
          "name": "newminingTry",
          "type": "uint256"
        }
      ],
      "name": "GemMiningStarted",
      "type": "event"
    },
    {
      "anonymous": false,
      "inputs": [
        {
          "indexed": false,
          "internalType": "uint256",
          "name": "_tokenId",
          "type": "uint256"
        }
      ],
      "name": "MetadataUpdate",
      "type": "event"
    },
    {
      "anonymous": false,
      "inputs": [
        {
          "indexed": false,
          "internalType": "uint256",
          "name": "tokenId",
          "type": "uint256"
        }
      ],
      "name": "NoGemAvailable",
      "type": "event"
    },
    {
      "anonymous": false,
      "inputs": [
        {
          "indexed": false,
          "internalType": "address",
          "name": "account",
          "type": "address"
        }
      ],
      "name": "Paused",
      "type": "event"
    },
    {
      "anonymous": false,
      "inputs": [
        {
          "indexed": false,
          "internalType": "uint256",
          "name": "tokenId",
          "type": "uint256"
        },
        {
          "indexed": false,
          "internalType": "uint256",
          "name": "requestNumber",
          "type": "uint256"
        }
      ],
      "name": "RandomGemRequested",
      "type": "event"
    },
    {
      "anonymous": false,
      "inputs": [
        {
          "indexed": true,
          "internalType": "bytes32",
          "name": "role",
          "type": "bytes32"
        },
        {
          "indexed": true,
          "internalType": "bytes32",
          "name": "previousAdminRole",
          "type": "bytes32"
        },
        {
          "indexed": true,
          "internalType": "bytes32",
          "name": "newAdminRole",
          "type": "bytes32"
        }
      ],
      "name": "RoleAdminChanged",
      "type": "event"
    },
    {
      "anonymous": false,
      "inputs": [
        {
          "indexed": true,
          "internalType": "bytes32",
          "name": "role",
          "type": "bytes32"
        },
        {
          "indexed": true,
          "internalType": "address",
          "name": "account",
          "type": "address"
        },
        {
          "indexed": true,
          "internalType": "address",
          "name": "sender",
          "type": "address"
        }
      ],
      "name": "RoleGranted",
      "type": "event"
    },
    {
      "anonymous": false,
      "inputs": [
        {
          "indexed": true,
          "internalType": "bytes32",
          "name": "role",
          "type": "bytes32"
        },
        {
          "indexed": true,
          "internalType": "address",
          "name": "account",
          "type": "address"
        },
        {
          "indexed": true,
          "internalType": "address",
          "name": "sender",
          "type": "address"
        }
      ],
      "name": "RoleRevoked",
      "type": "event"
    },
    {
      "anonymous": false,
      "inputs": [
        {
          "indexed": true,
          "internalType": "address",
          "name": "from",
          "type": "address"
        },
        {
          "indexed": true,
          "internalType": "address",
          "name": "to",
          "type": "address"
        },
        {
          "indexed": true,
          "internalType": "uint256",
          "name": "tokenId",
          "type": "uint256"
        }
      ],
      "name": "Transfer",
      "type": "event"
    },
    {
      "anonymous": false,
      "inputs": [
        {
          "indexed": false,
          "internalType": "address",
          "name": "from",
          "type": "address"
        },
        {
          "indexed": false,
          "internalType": "address",
          "name": "to",
          "type": "address"
        },
        {
          "indexed": false,
          "internalType": "uint256",
          "name": "tokenId",
          "type": "uint256"
        }
      ],
      "name": "TransferGEM",
      "type": "event"
    },
    {
      "anonymous": false,
      "inputs": [
        {
          "indexed": false,
          "internalType": "address",
          "name": "account",
          "type": "address"
        }
      ],
      "name": "Unpaused",
      "type": "event"
    },
    {
      "inputs": [],
      "name": "ADMIN_ROLE",
      "outputs": [
        {
          "internalType": "bytes32",
          "name": "",
          "type": "bytes32"
        }
      ],
      "stateMutability": "view",
      "type": "function"
    },
    {
      "inputs": [],
      "name": "CALLBACK_GAS_LIMIT",
      "outputs": [
        {
          "internalType": "uint32",
          "name": "",
          "type": "uint32"
        }
      ],
      "stateMutability": "view",
      "type": "function"
    },
    {
      "inputs": [],
      "name": "CommonGemsCooldownPeriod",
      "outputs": [
        {
          "internalType": "uint256",
          "name": "",
          "type": "uint256"
        }
      ],
      "stateMutability": "view",
      "type": "function"
    },
    {
      "inputs": [],
      "name": "CommonGemsMiningPeriod",
      "outputs": [
        {
          "internalType": "uint256",
          "name": "",
          "type": "uint256"
        }
      ],
      "stateMutability": "view",
      "type": "function"
    },
    {
      "inputs": [],
      "name": "CommonGemsValue",
      "outputs": [
        {
          "internalType": "uint256",
          "name": "",
          "type": "uint256"
        }
      ],
      "stateMutability": "view",
      "type": "function"
    },
    {
      "inputs": [],
      "name": "CommonminingTry",
      "outputs": [
        {
          "internalType": "uint256",
          "name": "",
          "type": "uint256"
        }
      ],
      "stateMutability": "view",
      "type": "function"
    },
    {
      "inputs": [],
      "name": "DEFAULT_ADMIN_ROLE",
      "outputs": [
        {
          "internalType": "bytes32",
          "name": "",
          "type": "bytes32"
        }
      ],
      "stateMutability": "view",
      "type": "function"
    },
    {
      "inputs": [],
      "name": "EpicGemsCooldownPeriod",
      "outputs": [
        {
          "internalType": "uint256",
          "name": "",
          "type": "uint256"
        }
      ],
      "stateMutability": "view",
      "type": "function"
    },
    {
      "inputs": [],
      "name": "EpicGemsMiningPeriod",
      "outputs": [
        {
          "internalType": "uint256",
          "name": "",
          "type": "uint256"
        }
      ],
      "stateMutability": "view",
      "type": "function"
    },
    {
      "inputs": [],
      "name": "EpicGemsValue",
      "outputs": [
        {
          "internalType": "uint256",
          "name": "",
          "type": "uint256"
        }
      ],
      "stateMutability": "view",
      "type": "function"
    },
    {
      "inputs": [],
      "name": "EpicminingTry",
      "outputs": [
        {
          "internalType": "uint256",
          "name": "",
          "type": "uint256"
        }
      ],
      "stateMutability": "view",
      "type": "function"
    },
    {
      "inputs": [
        {
          "internalType": "uint256",
          "name": "",
          "type": "uint256"
        }
      ],
      "name": "GEMIndexToOwner",
      "outputs": [
        {
          "internalType": "address",
          "name": "",
          "type": "address"
        }
      ],
      "stateMutability": "view",
      "type": "function"
    },
    {
      "inputs": [
        {
          "internalType": "uint256",
          "name": "",
          "type": "uint256"
        }
      ],
      "name": "Gems",
      "outputs": [
        {
          "internalType": "uint256",
          "name": "tokenId",
          "type": "uint256"
        },
        {
          "internalType": "enum GemFactoryStorage.Rarity",
          "name": "rarity",
          "type": "uint8"
        },
        {
          "internalType": "uint256",
          "name": "gemCooldownPeriod",
          "type": "uint256"
        },
        {
          "internalType": "uint256",
          "name": "miningPeriod",
          "type": "uint256"
        },
        {
          "internalType": "uint256",
          "name": "miningTry",
          "type": "uint256"
        },
        {
          "internalType": "bool",
          "name": "isLocked",
          "type": "bool"
        },
        {
          "internalType": "uint256",
          "name": "value",
          "type": "uint256"
        },
        {
          "internalType": "string",
          "name": "tokenURI",
          "type": "string"
        },
        {
          "internalType": "uint256",
          "name": "randomRequestId",
          "type": "uint256"
        }
      ],
      "stateMutability": "view",
      "type": "function"
    },
    {
      "inputs": [],
      "name": "LegendaryGemsCooldownPeriod",
      "outputs": [
        {
          "internalType": "uint256",
          "name": "",
          "type": "uint256"
        }
      ],
      "stateMutability": "view",
      "type": "function"
    },
    {
      "inputs": [],
      "name": "LegendaryGemsMiningPeriod",
      "outputs": [
        {
          "internalType": "uint256",
          "name": "",
          "type": "uint256"
        }
      ],
      "stateMutability": "view",
      "type": "function"
    },
    {
      "inputs": [],
      "name": "LegendaryGemsValue",
      "outputs": [
        {
          "internalType": "uint256",
          "name": "",
          "type": "uint256"
        }
      ],
      "stateMutability": "view",
      "type": "function"
    },
    {
      "inputs": [],
      "name": "LegendaryminingTry",
      "outputs": [
        {
          "internalType": "uint256",
          "name": "",
          "type": "uint256"
        }
      ],
      "stateMutability": "view",
      "type": "function"
    },
    {
      "inputs": [],
      "name": "MythicGemsCooldownPeriod",
      "outputs": [
        {
          "internalType": "uint256",
          "name": "",
          "type": "uint256"
        }
      ],
      "stateMutability": "view",
      "type": "function"
    },
    {
      "inputs": [],
      "name": "MythicGemsMiningPeriod",
      "outputs": [
        {
          "internalType": "uint256",
          "name": "",
          "type": "uint256"
        }
      ],
      "stateMutability": "view",
      "type": "function"
    },
    {
      "inputs": [],
      "name": "MythicGemsValue",
      "outputs": [
        {
          "internalType": "uint256",
          "name": "",
          "type": "uint256"
        }
      ],
      "stateMutability": "view",
      "type": "function"
    },
    {
      "inputs": [],
      "name": "MythicminingTry",
      "outputs": [
        {
          "internalType": "uint256",
          "name": "",
          "type": "uint256"
        }
      ],
      "stateMutability": "view",
      "type": "function"
    },
    {
      "inputs": [],
      "name": "PAUSE_ROLE",
      "outputs": [
        {
          "internalType": "bytes32",
          "name": "",
          "type": "bytes32"
        }
      ],
      "stateMutability": "view",
      "type": "function"
    },
    {
      "inputs": [],
      "name": "RareGemsCooldownPeriod",
      "outputs": [
        {
          "internalType": "uint256",
          "name": "",
          "type": "uint256"
        }
      ],
      "stateMutability": "view",
      "type": "function"
    },
    {
      "inputs": [],
      "name": "RareGemsMiningPeriod",
      "outputs": [
        {
          "internalType": "uint256",
          "name": "",
          "type": "uint256"
        }
      ],
      "stateMutability": "view",
      "type": "function"
    },
    {
      "inputs": [],
      "name": "RareGemsValue",
      "outputs": [
        {
          "internalType": "uint256",
          "name": "",
          "type": "uint256"
        }
      ],
      "stateMutability": "view",
      "type": "function"
    },
    {
      "inputs": [],
      "name": "RareminingTry",
      "outputs": [
        {
          "internalType": "uint256",
          "name": "",
          "type": "uint256"
        }
      ],
      "stateMutability": "view",
      "type": "function"
    },
    {
      "inputs": [],
      "name": "UniqueGemsCooldownPeriod",
      "outputs": [
        {
          "internalType": "uint256",
          "name": "",
          "type": "uint256"
        }
      ],
      "stateMutability": "view",
      "type": "function"
    },
    {
      "inputs": [],
      "name": "UniqueGemsMiningPeriod",
      "outputs": [
        {
          "internalType": "uint256",
          "name": "",
          "type": "uint256"
        }
      ],
      "stateMutability": "view",
      "type": "function"
    },
    {
      "inputs": [],
      "name": "UniqueGemsValue",
      "outputs": [
        {
          "internalType": "uint256",
          "name": "",
          "type": "uint256"
        }
      ],
      "stateMutability": "view",
      "type": "function"
    },
    {
      "inputs": [],
      "name": "UniqueminingTry",
      "outputs": [
        {
          "internalType": "uint256",
          "name": "",
          "type": "uint256"
        }
      ],
      "stateMutability": "view",
      "type": "function"
    },
    {
      "inputs": [
        {
          "internalType": "address",
          "name": "account",
          "type": "address"
        }
      ],
      "name": "addAdmin",
      "outputs": [],
      "stateMutability": "nonpayable",
      "type": "function"
    },
    {
      "inputs": [
        {
          "internalType": "string",
          "name": "_backgroundColor",
          "type": "string"
        }
      ],
      "name": "addBackgroundColor",
      "outputs": [],
      "stateMutability": "nonpayable",
      "type": "function"
    },
    {
      "inputs": [
        {
          "internalType": "string",
          "name": "_color",
          "type": "string"
        }
      ],
      "name": "addColor",
      "outputs": [],
      "stateMutability": "nonpayable",
      "type": "function"
    },
    {
      "inputs": [
        {
          "internalType": "address",
          "name": "account",
          "type": "address"
        }
      ],
      "name": "addPauser",
      "outputs": [],
      "stateMutability": "nonpayable",
      "type": "function"
    },
    {
      "inputs": [
        {
          "internalType": "address",
          "name": "_to",
          "type": "address"
        },
        {
          "internalType": "uint256",
          "name": "_tokenId",
          "type": "uint256"
        }
      ],
      "name": "adminTransferGEM",
      "outputs": [
        {
          "internalType": "bool",
          "name": "",
          "type": "bool"
        }
      ],
      "stateMutability": "nonpayable",
      "type": "function"
    },
    {
      "inputs": [
        {
          "internalType": "address",
          "name": "",
          "type": "address"
        }
      ],
      "name": "aliveImplementation",
      "outputs": [
        {
          "internalType": "bool",
          "name": "",
          "type": "bool"
        }
      ],
      "stateMutability": "view",
      "type": "function"
    },
    {
      "inputs": [
        {
          "internalType": "address",
          "name": "to",
          "type": "address"
        },
        {
          "internalType": "uint256",
          "name": "tokenId",
          "type": "uint256"
        }
      ],
      "name": "approve",
      "outputs": [],
      "stateMutability": "nonpayable",
      "type": "function"
    },
    {
      "inputs": [
        {
          "internalType": "uint256",
          "name": "",
          "type": "uint256"
        }
      ],
      "name": "backgroundColors",
      "outputs": [
        {
          "internalType": "string",
          "name": "",
          "type": "string"
        }
      ],
      "stateMutability": "view",
      "type": "function"
    },
    {
      "inputs": [
        {
          "internalType": "address",
          "name": "_owner",
          "type": "address"
        }
      ],
      "name": "balanceOf",
      "outputs": [
        {
          "internalType": "uint256",
          "name": "count",
          "type": "uint256"
        }
      ],
      "stateMutability": "view",
      "type": "function"
    },
    {
      "inputs": [
        {
          "internalType": "uint256",
          "name": "_tokenId",
          "type": "uint256"
        }
      ],
      "name": "cancelMining",
      "outputs": [
        {
          "internalType": "bool",
          "name": "",
          "type": "bool"
        }
      ],
      "stateMutability": "nonpayable",
      "type": "function"
    },
    {
      "inputs": [
        {
          "internalType": "uint256",
          "name": "",
          "type": "uint256"
        }
      ],
      "name": "colors",
      "outputs": [
        {
          "internalType": "string",
          "name": "",
          "type": "string"
        }
      ],
      "stateMutability": "view",
      "type": "function"
    },
    {
      "inputs": [
        {
          "internalType": "enum GemFactoryStorage.Rarity",
          "name": "_rarity",
          "type": "uint8"
        },
        {
          "internalType": "uint8[2]",
          "name": "_color",
          "type": "uint8[2]"
        },
        {
          "internalType": "uint8[4]",
          "name": "_quadrants",
          "type": "uint8[4]"
        },
        {
          "internalType": "string",
          "name": "_tokenURI",
          "type": "string"
        }
      ],
      "name": "createGEM",
      "outputs": [
        {
          "internalType": "uint256",
          "name": "",
          "type": "uint256"
        }
      ],
      "stateMutability": "nonpayable",
      "type": "function"
    },
    {
      "inputs": [
        {
          "internalType": "enum GemFactoryStorage.Rarity[]",
          "name": "_rarities",
          "type": "uint8[]"
        },
        {
          "internalType": "uint8[2][]",
          "name": "_colors",
          "type": "uint8[2][]"
        },
        {
          "internalType": "uint8[4][]",
          "name": "_quadrants",
          "type": "uint8[4][]"
        },
        {
          "internalType": "string[]",
          "name": "_tokenURIs",
          "type": "string[]"
        }
      ],
      "name": "createGEMPool",
      "outputs": [
        {
          "internalType": "uint256[]",
          "name": "",
          "type": "uint256[]"
        }
      ],
      "stateMutability": "nonpayable",
      "type": "function"
    },
    {
      "inputs": [
        {
          "internalType": "uint8",
          "name": "",
          "type": "uint8"
        }
      ],
      "name": "customBackgroundColors",
      "outputs": [
        {
          "internalType": "string",
          "name": "",
          "type": "string"
        }
      ],
      "stateMutability": "view",
      "type": "function"
    },
    {
      "inputs": [],
      "name": "customBackgroundColorsCount",
      "outputs": [
        {
          "internalType": "uint8",
          "name": "",
          "type": "uint8"
        }
      ],
      "stateMutability": "view",
      "type": "function"
    },
    {
      "inputs": [
        {
          "internalType": "uint8",
          "name": "",
          "type": "uint8"
        }
      ],
      "name": "customColors",
      "outputs": [
        {
          "internalType": "string",
          "name": "",
          "type": "string"
        }
      ],
      "stateMutability": "view",
      "type": "function"
    },
    {
      "inputs": [],
      "name": "customColorsCount",
      "outputs": [
        {
          "internalType": "uint8",
          "name": "",
          "type": "uint8"
        }
      ],
      "stateMutability": "view",
      "type": "function"
    },
    {
      "inputs": [],
      "name": "drbcoordinator",
      "outputs": [
        {
          "internalType": "address",
          "name": "",
          "type": "address"
        }
      ],
      "stateMutability": "view",
      "type": "function"
    },
    {
      "inputs": [
        {
          "internalType": "uint256[]",
          "name": "_tokenIds",
          "type": "uint256[]"
        },
        {
          "internalType": "enum GemFactoryStorage.Rarity",
          "name": "_rarity",
          "type": "uint8"
        },
        {
          "internalType": "uint8[2]",
          "name": "_color",
          "type": "uint8[2]"
        }
      ],
      "name": "forgeTokens",
      "outputs": [
        {
          "internalType": "uint256",
          "name": "newGemId",
          "type": "uint256"
        }
      ],
      "stateMutability": "nonpayable",
      "type": "function"
    },
    {
      "inputs": [
        {
          "internalType": "uint256",
          "name": "tokenId",
          "type": "uint256"
        }
      ],
      "name": "getApproved",
      "outputs": [
        {
          "internalType": "address",
          "name": "",
          "type": "address"
        }
      ],
      "stateMutability": "view",
      "type": "function"
    },
    {
      "inputs": [],
      "name": "getCommonValue",
      "outputs": [
        {
          "internalType": "uint256",
          "name": "",
          "type": "uint256"
        }
      ],
      "stateMutability": "view",
      "type": "function"
    },
    {
      "inputs": [],
      "name": "getCommonminingTry",
      "outputs": [
        {
          "internalType": "uint256",
          "name": "",
          "type": "uint256"
        }
      ],
      "stateMutability": "view",
      "type": "function"
    },
    {
      "inputs": [
        {
          "internalType": "uint8",
          "name": "_index",
          "type": "uint8"
        }
      ],
      "name": "getCustomColor",
      "outputs": [
        {
          "internalType": "string",
          "name": "",
          "type": "string"
        }
      ],
      "stateMutability": "view",
      "type": "function"
    },
    {
      "inputs": [],
      "name": "getEpicValue",
      "outputs": [
        {
          "internalType": "uint256",
          "name": "",
          "type": "uint256"
        }
      ],
      "stateMutability": "view",
      "type": "function"
    },
    {
      "inputs": [],
      "name": "getEpicminingTry",
      "outputs": [
        {
          "internalType": "uint256",
          "name": "",
          "type": "uint256"
        }
      ],
      "stateMutability": "view",
      "type": "function"
    },
    {
      "inputs": [
        {
          "internalType": "uint256",
          "name": "_tokenId",
          "type": "uint256"
        }
      ],
      "name": "getGem",
      "outputs": [
        {
          "components": [
            {
              "internalType": "uint256",
              "name": "tokenId",
              "type": "uint256"
            },
            {
              "internalType": "enum GemFactoryStorage.Rarity",
              "name": "rarity",
              "type": "uint8"
            },
            {
              "internalType": "uint8[4]",
              "name": "quadrants",
              "type": "uint8[4]"
            },
            {
              "internalType": "uint8[2]",
              "name": "color",
              "type": "uint8[2]"
            },
            {
              "internalType": "uint256",
              "name": "gemCooldownPeriod",
              "type": "uint256"
            },
            {
              "internalType": "uint256",
              "name": "miningPeriod",
              "type": "uint256"
            },
            {
              "internalType": "uint256",
              "name": "miningTry",
              "type": "uint256"
            },
            {
              "internalType": "bool",
              "name": "isLocked",
              "type": "bool"
            },
            {
              "internalType": "uint256",
              "name": "value",
              "type": "uint256"
            },
            {
              "internalType": "string",
              "name": "tokenURI",
              "type": "string"
            },
            {
              "internalType": "uint256",
              "name": "randomRequestId",
              "type": "uint256"
            }
          ],
          "internalType": "struct GemFactoryStorage.Gem",
          "name": "",
          "type": "tuple"
        }
      ],
      "stateMutability": "view",
      "type": "function"
    },
    {
      "inputs": [],
      "name": "getGemList",
      "outputs": [
        {
          "components": [
            {
              "internalType": "uint256",
              "name": "tokenId",
              "type": "uint256"
            },
            {
              "internalType": "enum GemFactoryStorage.Rarity",
              "name": "rarity",
              "type": "uint8"
            },
            {
              "internalType": "uint8[4]",
              "name": "quadrants",
              "type": "uint8[4]"
            },
            {
              "internalType": "uint8[2]",
              "name": "color",
              "type": "uint8[2]"
            },
            {
              "internalType": "uint256",
              "name": "gemCooldownPeriod",
              "type": "uint256"
            },
            {
              "internalType": "uint256",
              "name": "miningPeriod",
              "type": "uint256"
            },
            {
              "internalType": "uint256",
              "name": "miningTry",
              "type": "uint256"
            },
            {
              "internalType": "bool",
              "name": "isLocked",
              "type": "bool"
            },
            {
              "internalType": "uint256",
              "name": "value",
              "type": "uint256"
            },
            {
              "internalType": "string",
              "name": "tokenURI",
              "type": "string"
            },
            {
              "internalType": "uint256",
              "name": "randomRequestId",
              "type": "uint256"
            }
          ],
          "internalType": "struct GemFactoryStorage.Gem[]",
          "name": "",
          "type": "tuple[]"
        }
      ],
      "stateMutability": "view",
      "type": "function"
    },
    {
      "inputs": [],
      "name": "getGemListAvailableForRandomPack",
      "outputs": [
        {
          "internalType": "uint256",
          "name": "",
          "type": "uint256"
        },
        {
          "internalType": "uint256[]",
          "name": "",
          "type": "uint256[]"
        }
      ],
      "stateMutability": "view",
      "type": "function"
    },
    {
      "inputs": [],
      "name": "getGemsSupplyTotalValue",
      "outputs": [
        {
          "internalType": "uint256",
          "name": "totalValue",
          "type": "uint256"
        }
      ],
      "stateMutability": "view",
      "type": "function"
    },
    {
      "inputs": [],
      "name": "getLegendaryValue",
      "outputs": [
        {
          "internalType": "uint256",
          "name": "",
          "type": "uint256"
        }
      ],
      "stateMutability": "view",
      "type": "function"
    },
    {
      "inputs": [],
      "name": "getLegendaryminingTry",
      "outputs": [
        {
          "internalType": "uint256",
          "name": "",
          "type": "uint256"
        }
      ],
      "stateMutability": "view",
      "type": "function"
    },
    {
      "inputs": [],
      "name": "getMythicValue",
      "outputs": [
        {
          "internalType": "uint256",
          "name": "",
          "type": "uint256"
        }
      ],
      "stateMutability": "view",
      "type": "function"
    },
    {
      "inputs": [],
      "name": "getMythicminingTry",
      "outputs": [
        {
          "internalType": "uint256",
          "name": "",
          "type": "uint256"
        }
      ],
      "stateMutability": "view",
      "type": "function"
    },
    {
      "inputs": [
        {
          "internalType": "uint256",
          "name": "_requestId",
          "type": "uint256"
        }
      ],
      "name": "getRandomRequest",
      "outputs": [
        {
          "components": [
            {
              "internalType": "uint256",
              "name": "tokenId",
              "type": "uint256"
            },
            {
              "internalType": "bool",
              "name": "requested",
              "type": "bool"
            },
            {
              "internalType": "bool",
              "name": "fulfilled",
              "type": "bool"
            },
            {
              "internalType": "uint256",
              "name": "randomWord",
              "type": "uint256"
            },
            {
              "internalType": "uint256",
              "name": "chosenTokenId",
              "type": "uint256"
            },
            {
              "internalType": "address",
              "name": "requester",
              "type": "address"
            }
          ],
          "internalType": "struct GemFactoryStorage.RequestStatus",
          "name": "",
          "type": "tuple"
        }
      ],
      "stateMutability": "view",
      "type": "function"
    },
    {
      "inputs": [],
      "name": "getRareValue",
      "outputs": [
        {
          "internalType": "uint256",
          "name": "",
          "type": "uint256"
        }
      ],
      "stateMutability": "view",
      "type": "function"
    },
    {
      "inputs": [],
      "name": "getRareminingTry",
      "outputs": [
        {
          "internalType": "uint256",
          "name": "",
          "type": "uint256"
        }
      ],
      "stateMutability": "view",
      "type": "function"
    },
    {
      "inputs": [
        {
          "internalType": "bytes32",
          "name": "role",
          "type": "bytes32"
        }
      ],
      "name": "getRoleAdmin",
      "outputs": [
        {
          "internalType": "bytes32",
          "name": "",
          "type": "bytes32"
        }
      ],
      "stateMutability": "view",
      "type": "function"
    },
    {
      "inputs": [],
      "name": "getTon",
      "outputs": [
        {
          "internalType": "address",
          "name": "",
          "type": "address"
        }
      ],
      "stateMutability": "view",
      "type": "function"
    },
    {
      "inputs": [],
      "name": "getTreasury",
      "outputs": [
        {
          "internalType": "address",
          "name": "",
          "type": "address"
        }
      ],
      "stateMutability": "view",
      "type": "function"
    },
    {
      "inputs": [],
      "name": "getUniqueValue",
      "outputs": [
        {
          "internalType": "uint256",
          "name": "",
          "type": "uint256"
        }
      ],
      "stateMutability": "view",
      "type": "function"
    },
    {
      "inputs": [],
      "name": "getUniqueminingTry",
      "outputs": [
        {
          "internalType": "uint256",
          "name": "",
          "type": "uint256"
        }
      ],
      "stateMutability": "view",
      "type": "function"
    },
    {
      "inputs": [
        {
          "internalType": "enum GemFactoryStorage.Rarity",
          "name": "_rarity",
          "type": "uint8"
        }
      ],
      "name": "getValueBasedOnRarity",
      "outputs": [
        {
          "internalType": "uint256",
          "name": "value",
          "type": "uint256"
        }
      ],
      "stateMutability": "view",
      "type": "function"
    },
    {
      "inputs": [],
      "name": "getWston",
      "outputs": [
        {
          "internalType": "address",
          "name": "",
          "type": "address"
        }
      ],
      "stateMutability": "view",
      "type": "function"
    },
    {
      "inputs": [
        {
          "internalType": "bytes32",
          "name": "role",
          "type": "bytes32"
        },
        {
          "internalType": "address",
          "name": "account",
          "type": "address"
        }
      ],
      "name": "grantRole",
      "outputs": [],
      "stateMutability": "nonpayable",
      "type": "function"
    },
    {
      "inputs": [
        {
          "internalType": "bytes32",
          "name": "role",
          "type": "bytes32"
        },
        {
          "internalType": "address",
          "name": "account",
          "type": "address"
        }
      ],
      "name": "hasRole",
      "outputs": [
        {
          "internalType": "bool",
          "name": "",
          "type": "bool"
        }
      ],
      "stateMutability": "view",
      "type": "function"
    },
    {
      "inputs": [
        {
          "internalType": "address",
          "name": "_wston",
          "type": "address"
        },
        {
          "internalType": "address",
          "name": "_ton",
          "type": "address"
        },
        {
          "internalType": "address",
          "name": "_treasury",
          "type": "address"
        },
        {
          "internalType": "uint256",
          "name": "_CommonGemsValue",
          "type": "uint256"
        },
        {
          "internalType": "uint256",
          "name": "_RareGemsValue",
          "type": "uint256"
        },
        {
          "internalType": "uint256",
          "name": "_UniqueGemsValue",
          "type": "uint256"
        },
        {
          "internalType": "uint256",
          "name": "_EpicGemsValue",
          "type": "uint256"
        },
        {
          "internalType": "uint256",
          "name": "_LegendaryGemsValue",
          "type": "uint256"
        },
        {
          "internalType": "uint256",
          "name": "_MythicGemsValue",
          "type": "uint256"
        }
      ],
      "name": "initialize",
      "outputs": [],
      "stateMutability": "nonpayable",
      "type": "function"
    },
    {
      "inputs": [
        {
          "internalType": "address",
          "name": "account",
          "type": "address"
        }
      ],
      "name": "isAdmin",
      "outputs": [
        {
          "internalType": "bool",
          "name": "",
          "type": "bool"
        }
      ],
      "stateMutability": "view",
      "type": "function"
    },
    {
      "inputs": [
        {
          "internalType": "address",
          "name": "owner",
          "type": "address"
        },
        {
          "internalType": "address",
          "name": "operator",
          "type": "address"
        }
      ],
      "name": "isApprovedForAll",
      "outputs": [
        {
          "internalType": "bool",
          "name": "",
          "type": "bool"
        }
      ],
      "stateMutability": "view",
      "type": "function"
    },
    {
      "inputs": [],
      "name": "isOwner",
      "outputs": [
        {
          "internalType": "bool",
          "name": "",
          "type": "bool"
        }
      ],
      "stateMutability": "view",
      "type": "function"
    },
    {
      "inputs": [
        {
          "internalType": "uint256",
          "name": "_tokenId",
          "type": "uint256"
        }
      ],
      "name": "isTokenLocked",
      "outputs": [
        {
          "internalType": "bool",
          "name": "",
          "type": "bool"
        }
      ],
      "stateMutability": "view",
      "type": "function"
    },
    {
      "inputs": [],
      "name": "marketplace",
      "outputs": [
        {
          "internalType": "address",
          "name": "",
          "type": "address"
        }
      ],
      "stateMutability": "view",
      "type": "function"
    },
    {
      "inputs": [
        {
          "internalType": "uint256",
          "name": "_tokenId",
          "type": "uint256"
        }
      ],
      "name": "meltGEM",
      "outputs": [],
      "stateMutability": "nonpayable",
      "type": "function"
    },
    {
      "inputs": [],
      "name": "name",
      "outputs": [
        {
          "internalType": "string",
          "name": "",
          "type": "string"
        }
      ],
      "stateMutability": "view",
      "type": "function"
    },
    {
      "inputs": [],
      "name": "numberOfSolidColors",
      "outputs": [
        {
          "internalType": "uint8",
          "name": "",
          "type": "uint8"
        }
      ],
      "stateMutability": "view",
      "type": "function"
    },
    {
      "inputs": [
        {
          "internalType": "uint256",
          "name": "tokenId",
          "type": "uint256"
        }
      ],
      "name": "ownerOf",
      "outputs": [
        {
          "internalType": "address",
          "name": "",
          "type": "address"
        }
      ],
      "stateMutability": "view",
      "type": "function"
    },
    {
      "inputs": [
        {
          "internalType": "address",
          "name": "",
          "type": "address"
        }
      ],
      "name": "ownershipTokenCount",
      "outputs": [
        {
          "internalType": "uint256",
          "name": "",
          "type": "uint256"
        }
      ],
      "stateMutability": "view",
      "type": "function"
    },
    {
      "inputs": [],
      "name": "pause",
      "outputs": [],
      "stateMutability": "nonpayable",
      "type": "function"
    },
    {
      "inputs": [],
      "name": "pauseProxy",
      "outputs": [
        {
          "internalType": "bool",
          "name": "",
          "type": "bool"
        }
      ],
      "stateMutability": "view",
      "type": "function"
    },
    {
      "inputs": [],
      "name": "paused",
      "outputs": [
        {
          "internalType": "bool",
          "name": "",
          "type": "bool"
        }
      ],
      "stateMutability": "view",
      "type": "function"
    },
    {
      "inputs": [
        {
          "internalType": "uint256",
          "name": "_tokenId",
          "type": "uint256"
        }
      ],
      "name": "pickMinedGEM",
      "outputs": [
        {
          "internalType": "uint256",
          "name": "",
          "type": "uint256"
        }
      ],
      "stateMutability": "payable",
      "type": "function"
    },
    {
      "inputs": [],
      "name": "preMintedGemsAvailable",
      "outputs": [
        {
          "internalType": "uint256[]",
          "name": "GemsAvailable",
          "type": "uint256[]"
        }
      ],
      "stateMutability": "view",
      "type": "function"
    },
    {
      "inputs": [
        {
          "internalType": "uint256",
          "name": "",
          "type": "uint256"
        }
      ],
      "name": "proxyImplementation",
      "outputs": [
        {
          "internalType": "address",
          "name": "",
          "type": "address"
        }
      ],
      "stateMutability": "view",
      "type": "function"
    },
    {
      "inputs": [],
      "name": "randomPack",
      "outputs": [
        {
          "internalType": "address",
          "name": "",
          "type": "address"
        }
      ],
      "stateMutability": "view",
      "type": "function"
    },
    {
      "inputs": [
        {
          "internalType": "uint256",
          "name": "requestId",
          "type": "uint256"
        },
        {
          "internalType": "uint256",
          "name": "randomWord",
          "type": "uint256"
        }
      ],
      "name": "rawFulfillRandomWords",
      "outputs": [],
      "stateMutability": "nonpayable",
      "type": "function"
    },
    {
      "inputs": [
        {
          "internalType": "address",
          "name": "account",
          "type": "address"
        }
      ],
      "name": "removeAdmin",
      "outputs": [],
      "stateMutability": "nonpayable",
      "type": "function"
    },
    {
      "inputs": [
        {
          "internalType": "address",
          "name": "account",
          "type": "address"
        }
      ],
      "name": "removePauser",
      "outputs": [],
      "stateMutability": "nonpayable",
      "type": "function"
    },
    {
      "inputs": [],
      "name": "renounceOwnership",
      "outputs": [],
      "stateMutability": "nonpayable",
      "type": "function"
    },
    {
      "inputs": [
        {
          "internalType": "bytes32",
          "name": "role",
          "type": "bytes32"
        },
        {
          "internalType": "address",
          "name": "callerConfirmation",
          "type": "address"
        }
      ],
      "name": "renounceRole",
      "outputs": [],
      "stateMutability": "nonpayable",
      "type": "function"
    },
    {
      "inputs": [],
      "name": "requestCount",
      "outputs": [
        {
          "internalType": "uint256",
          "name": "",
          "type": "uint256"
        }
      ],
      "stateMutability": "view",
      "type": "function"
    },
    {
      "inputs": [
        {
          "internalType": "uint256",
          "name": "",
          "type": "uint256"
        }
      ],
      "name": "requestIds",
      "outputs": [
        {
          "internalType": "uint256",
          "name": "",
          "type": "uint256"
        }
      ],
      "stateMutability": "view",
      "type": "function"
    },
    {
      "inputs": [
        {
          "internalType": "bytes32",
          "name": "role",
          "type": "bytes32"
        },
        {
          "internalType": "address",
          "name": "account",
          "type": "address"
        }
      ],
      "name": "revokeRole",
      "outputs": [],
      "stateMutability": "nonpayable",
      "type": "function"
    },
    {
      "inputs": [
        {
          "internalType": "uint256",
          "name": "",
          "type": "uint256"
        }
      ],
      "name": "s_requests",
      "outputs": [
        {
          "internalType": "uint256",
          "name": "tokenId",
          "type": "uint256"
        },
        {
          "internalType": "bool",
          "name": "requested",
          "type": "bool"
        },
        {
          "internalType": "bool",
          "name": "fulfilled",
          "type": "bool"
        },
        {
          "internalType": "uint256",
          "name": "randomWord",
          "type": "uint256"
        },
        {
          "internalType": "uint256",
          "name": "chosenTokenId",
          "type": "uint256"
        },
        {
          "internalType": "address",
          "name": "requester",
          "type": "address"
        }
      ],
      "stateMutability": "view",
      "type": "function"
    },
    {
      "inputs": [
        {
          "internalType": "address",
          "name": "from",
          "type": "address"
        },
        {
          "internalType": "address",
          "name": "to",
          "type": "address"
        },
        {
          "internalType": "uint256",
          "name": "tokenId",
          "type": "uint256"
        }
      ],
      "name": "safeTransferFrom",
      "outputs": [],
      "stateMutability": "nonpayable",
      "type": "function"
    },
    {
      "inputs": [
        {
          "internalType": "address",
          "name": "from",
          "type": "address"
        },
        {
          "internalType": "address",
          "name": "to",
          "type": "address"
        },
        {
          "internalType": "uint256",
          "name": "tokenId",
          "type": "uint256"
        },
        {
          "internalType": "bytes",
          "name": "data",
          "type": "bytes"
        }
      ],
      "name": "safeTransferFrom",
      "outputs": [],
      "stateMutability": "nonpayable",
      "type": "function"
    },
    {
      "inputs": [
        {
          "internalType": "bytes4",
          "name": "",
          "type": "bytes4"
        }
      ],
      "name": "selectorImplementation",
      "outputs": [
        {
          "internalType": "address",
          "name": "",
          "type": "address"
        }
      ],
      "stateMutability": "view",
      "type": "function"
    },
    {
      "inputs": [
        {
          "internalType": "address",
          "name": "operator",
          "type": "address"
        },
        {
          "internalType": "bool",
          "name": "approved",
          "type": "bool"
        }
      ],
      "name": "setApprovalForAll",
      "outputs": [],
      "stateMutability": "nonpayable",
      "type": "function"
    },
    {
      "inputs": [],
      "name": "setApprovalForMarketplace",
      "outputs": [],
      "stateMutability": "nonpayable",
      "type": "function"
    },
    {
      "inputs": [
        {
          "internalType": "uint256",
          "name": "_CommonGemsCooldownPeriod",
          "type": "uint256"
        },
        {
          "internalType": "uint256",
          "name": "_RareGemsCooldownPeriod",
          "type": "uint256"
        },
        {
          "internalType": "uint256",
          "name": "_UniqueGemsCooldownPeriod",
          "type": "uint256"
        },
        {
          "internalType": "uint256",
          "name": "_EpicGemsCooldownPeriod",
          "type": "uint256"
        },
        {
          "internalType": "uint256",
          "name": "_LegendaryGemsCooldownPeriod",
          "type": "uint256"
        },
        {
          "internalType": "uint256",
          "name": "_MythicGemsCooldownPeriod",
          "type": "uint256"
        }
      ],
      "name": "setGemsCooldownPeriods",
      "outputs": [],
      "stateMutability": "nonpayable",
      "type": "function"
    },
    {
      "inputs": [
        {
          "internalType": "uint256",
          "name": "_CommonGemsMiningPeriod",
          "type": "uint256"
        },
        {
          "internalType": "uint256",
          "name": "_RareGemsMiningPeriod",
          "type": "uint256"
        },
        {
          "internalType": "uint256",
          "name": "_UniqueGemsMiningPeriod",
          "type": "uint256"
        },
        {
          "internalType": "uint256",
          "name": "_EpicGemsMiningPeriod",
          "type": "uint256"
        },
        {
          "internalType": "uint256",
          "name": "_LegendaryGemsMiningPeriod",
          "type": "uint256"
        },
        {
          "internalType": "uint256",
          "name": "_MythicGemsMiningPeriod",
          "type": "uint256"
        }
      ],
      "name": "setGemsMiningPeriods",
      "outputs": [],
      "stateMutability": "nonpayable",
      "type": "function"
    },
    {
      "inputs": [
        {
          "internalType": "uint256",
          "name": "_CommonGemsValue",
          "type": "uint256"
        },
        {
          "internalType": "uint256",
          "name": "_RareGemsValue",
          "type": "uint256"
        },
        {
          "internalType": "uint256",
          "name": "_UniqueGemsValue",
          "type": "uint256"
        },
        {
          "internalType": "uint256",
          "name": "_EpicGemsValue",
          "type": "uint256"
        },
        {
          "internalType": "uint256",
          "name": "_LegendaryGemsValue",
          "type": "uint256"
        },
        {
          "internalType": "uint256",
          "name": "_MythicGemsValue",
          "type": "uint256"
        }
      ],
      "name": "setGemsValue",
      "outputs": [],
      "stateMutability": "nonpayable",
      "type": "function"
    },
    {
      "inputs": [
        {
          "internalType": "uint256",
          "name": "_tokenId",
          "type": "uint256"
        },
        {
          "internalType": "bool",
          "name": "_isLocked",
          "type": "bool"
        }
      ],
      "name": "setIsLocked",
      "outputs": [],
      "stateMutability": "nonpayable",
      "type": "function"
    },
    {
      "inputs": [
        {
          "internalType": "address",
          "name": "_marketplace",
          "type": "address"
        }
      ],
      "name": "setMarketPlaceAddress",
      "outputs": [],
      "stateMutability": "nonpayable",
      "type": "function"
    },
    {
      "inputs": [
        {
          "internalType": "uint8",
          "name": "_numberOfSolidColors",
          "type": "uint8"
        }
      ],
      "name": "setNumberOfSolidColors",
      "outputs": [],
      "stateMutability": "nonpayable",
      "type": "function"
    },
    {
      "inputs": [
        {
          "internalType": "address",
          "name": "_randomPack",
          "type": "address"
        }
      ],
      "name": "setRandomPack",
      "outputs": [],
      "stateMutability": "nonpayable",
      "type": "function"
    },
    {
      "inputs": [
        {
          "internalType": "uint256",
          "name": "tokenId",
          "type": "uint256"
        },
        {
          "internalType": "string",
          "name": "_tokenURI",
          "type": "string"
        }
      ],
      "name": "setTokenURI",
      "outputs": [],
      "stateMutability": "nonpayable",
      "type": "function"
    },
    {
      "inputs": [
        {
          "internalType": "uint256",
          "name": "_CommonminingTry",
          "type": "uint256"
        },
        {
          "internalType": "uint256",
          "name": "_RareminingTry",
          "type": "uint256"
        },
        {
          "internalType": "uint256",
          "name": "_UniqueminingTry",
          "type": "uint256"
        },
        {
          "internalType": "uint256",
          "name": "_EpicminingTry",
          "type": "uint256"
        },
        {
          "internalType": "uint256",
          "name": "_LegendaryminingTry",
          "type": "uint256"
        },
        {
          "internalType": "uint256",
          "name": "_MythicminingTry",
          "type": "uint256"
        }
      ],
      "name": "setminingTrys",
      "outputs": [],
      "stateMutability": "nonpayable",
      "type": "function"
    },
    {
      "inputs": [
        {
          "internalType": "uint256",
          "name": "_tokenId",
          "type": "uint256"
        }
      ],
      "name": "startMiningGEM",
      "outputs": [
        {
          "internalType": "bool",
          "name": "",
          "type": "bool"
        }
      ],
      "stateMutability": "nonpayable",
      "type": "function"
    },
    {
      "inputs": [
        {
          "internalType": "bytes4",
          "name": "interfaceId",
          "type": "bytes4"
        }
      ],
      "name": "supportsInterface",
      "outputs": [
        {
          "internalType": "bool",
          "name": "",
          "type": "bool"
        }
      ],
      "stateMutability": "view",
      "type": "function"
    },
    {
      "inputs": [],
      "name": "symbol",
      "outputs": [
        {
          "internalType": "string",
          "name": "",
          "type": "string"
        }
      ],
      "stateMutability": "view",
      "type": "function"
    },
    {
      "inputs": [
        {
          "internalType": "address",
          "name": "",
          "type": "address"
        }
      ],
      "name": "tokenMiningByUser",
      "outputs": [
        {
          "internalType": "uint256",
          "name": "",
          "type": "uint256"
        }
      ],
      "stateMutability": "view",
      "type": "function"
    },
    {
      "inputs": [
        {
          "internalType": "uint256",
          "name": "",
          "type": "uint256"
        }
      ],
      "name": "tokenReadyToMine",
      "outputs": [
        {
          "internalType": "bool",
          "name": "",
          "type": "bool"
        }
      ],
      "stateMutability": "view",
      "type": "function"
    },
    {
      "inputs": [
        {
          "internalType": "uint256",
          "name": "tokenId",
          "type": "uint256"
        }
      ],
      "name": "tokenURI",
      "outputs": [
        {
          "internalType": "string",
          "name": "",
          "type": "string"
        }
      ],
      "stateMutability": "view",
      "type": "function"
    },
    {
      "inputs": [
        {
          "internalType": "address",
          "name": "_owner",
          "type": "address"
        }
      ],
      "name": "tokensOfOwner",
      "outputs": [
        {
          "internalType": "uint256[]",
          "name": "ownerTokens",
          "type": "uint256[]"
        }
      ],
      "stateMutability": "view",
      "type": "function"
    },
    {
      "inputs": [],
      "name": "ton",
      "outputs": [
        {
          "internalType": "address",
          "name": "",
          "type": "address"
        }
      ],
      "stateMutability": "view",
      "type": "function"
    },
    {
      "inputs": [],
      "name": "totalSupply",
      "outputs": [
        {
          "internalType": "uint256",
          "name": "",
          "type": "uint256"
        }
      ],
      "stateMutability": "view",
      "type": "function"
    },
    {
      "inputs": [
        {
          "internalType": "address",
          "name": "newAdmin",
          "type": "address"
        }
      ],
      "name": "transferAdmin",
      "outputs": [],
      "stateMutability": "nonpayable",
      "type": "function"
    },
    {
      "inputs": [
        {
          "internalType": "address",
          "name": "from",
          "type": "address"
        },
        {
          "internalType": "address",
          "name": "to",
          "type": "address"
        },
        {
          "internalType": "uint256",
          "name": "tokenId",
          "type": "uint256"
        }
      ],
      "name": "transferFrom",
      "outputs": [],
      "stateMutability": "nonpayable",
      "type": "function"
    },
    {
      "inputs": [
        {
          "internalType": "address",
          "name": "newAdmin",
          "type": "address"
        }
      ],
      "name": "transferOwnership",
      "outputs": [],
      "stateMutability": "nonpayable",
      "type": "function"
    },
    {
      "inputs": [],
      "name": "treasury",
      "outputs": [
        {
          "internalType": "address",
          "name": "",
          "type": "address"
        }
      ],
      "stateMutability": "view",
      "type": "function"
    },
    {
      "inputs": [],
      "name": "unpause",
      "outputs": [],
      "stateMutability": "nonpayable",
      "type": "function"
    },
    {
      "inputs": [
        {
          "internalType": "address",
          "name": "",
          "type": "address"
        },
        {
          "internalType": "uint256",
          "name": "",
          "type": "uint256"
        }
      ],
      "name": "userMiningStartTime",
      "outputs": [
        {
          "internalType": "uint256",
          "name": "",
          "type": "uint256"
        }
      ],
      "stateMutability": "view",
      "type": "function"
    },
    {
      "inputs": [
        {
          "internalType": "address",
          "name": "",
          "type": "address"
        },
        {
          "internalType": "uint256",
          "name": "",
          "type": "uint256"
        }
      ],
      "name": "userMiningToken",
      "outputs": [
        {
          "internalType": "bool",
          "name": "",
          "type": "bool"
        }
      ],
      "stateMutability": "view",
      "type": "function"
    },
    {
      "inputs": [],
      "name": "wston",
      "outputs": [
        {
          "internalType": "address",
          "name": "",
          "type": "address"
        }
      ],
      "stateMutability": "view",
      "type": "function"
    }
  ],
  "bytecode": "0x60a03461034857601f601f196001600160401b0361770a3881900384810184168601838111878210176103325786928291604052833960209586918101031261034857516001600160a01b03811693908490036103485761005e61034d565b92600784526623b2b6a9aa27a760c91b8685015261007a61034d565b90600382526247454d60e81b87830152845190848211610332576000918254966001978881811c91168015610328575b8b821014610314579081878493116102c6575b508a9087831160011461026857859261025d575b5050600019600383901b1c191690871b1782555b82519485116102495785548681811c9116801561023f575b8982101461022b578481116101e8575b5087938511600114610188575083949596509261017d575b5050600019600383901b1c191690821b1781555b81608052603b556101493361036c565b50603580546001600160a01b03191691909117905560405161730c90816103fe8239608051818181612eb60152613ce20152f35b015190503880610125565b8493929193169685845280842093905b8882106101d157505083859697106101b8575b505050811b018155610139565b015160001960f88460031b161c191690553880806101ab565b808785968294968601518155019501930190610198565b8683528883208580880160051c8201928b8910610222575b0160051c019087905b82811061021757505061010d565b848155018790610209565b92508192610200565b634e487b7160e01b83526022600452602483fd5b90607f16906100fd565b634e487b7160e01b82526041600452602482fd5b0151905038806100d1565b90848a9416918680528c8720928d88905b8282106102af5750508411610296575b505050811b0182556100e5565b015160001960f88460031b161c19169055388080610289565b8385015186558d979095019493840193018e610279565b9091508480528a85208780850160051c8201928d861061030b575b918b91869594930160051c01915b8281106102fd5750506100bd565b8781558594508b91016102ef565b925081926102e1565b634e487b7160e01b85526022600452602485fd5b90607f16906100aa565b634e487b7160e01b600052604160045260246000fd5b600080fd5b60408051919082016001600160401b0381118382101761033257604052565b6001600160a01b031660008181527f489cb750909c17c66c5ce6e12fc66200b1268a56adfccc87a74969633bf57069602052604081205490919060ff166103f957818052603a6020526040822081835260205260408220600160ff1982541617905533917f2f8788117e7eff1d82e926ec794901d17c78024a50270940304540a733656f0d8180a4600190565b509056fe61018080604052600436101561001457600080fd5b600090813560e01c90816301ffc9a714615af357508063034294f814615ad2578063038a7e0514610bc75780630491fd3e14615a3757806304e41a0b14615a1957806306fdde0314615969578063081812fc1461592c5780630922f5131461590b578063095ea7b3146158285780630b513d99146157655780630c7254a01461570e5780630de32a97146156f05780630ff1ac67146147f45780631008ef78146147d6578063139b63f3146147b857806315341f2b1461469e578063162094c414614662578063166b35c9146141c45780631785f53c1461463557806318160ddd146146125780631885cbbe146145f457806318898f3614610c025780631d0e0aac146144c05780631da0fc9c146141e2578063201832c0146141c457806323b872dd14613f90578063248a9ca314613f6357806324d7806c14613f0e578063274f245514613baf578063276a28a314613b7e5780632b8cd09414613a975780632bbbe94d14610d615780632f2ff15d14613a59578063331580581461398257806333d608f11461396457806333fcb6481461337c57806336568abe1461334657806336b17e1314610b7c57806337ed11db14612ea2578063389ed26714612e795780633b19e84a14612b8d5780633ec7af4a14612ab95780633f4ba83a14612df45780633fb310a514610f6157806342842e0e14612d545780634cbe436014612d085780634d723a7514612cc25780634ec741b414612c9957806350d2a27614612c54578063550d01a314612c1557806358bf3e6514610c205780635badbe4c14612bf75780635bbffab614612bd95780635c975abb14612bb65780635fcf94d1146118bd57806361d027b314612b8d57806361f7f6d714612ad75780636275173814612ab95780636352211e14612a8857806363a8fd8914612a62578063676f79f114612a1f5780636b1a96fa146129ec5780636b2c0f551461299c5780636c106fea14610c80578063704802751461294e57806370a0823114610c9e578063715018a61461292957806371b57c4714612900578063724188bc146128df57806375829def146128c557806375b238fc1461289c57806377f7e4991461287e5780637866369b1461284f57806382dc1ec4146127ba5780638456cb59146127305780638462151c1461270b5780638796ba8c146126b95780638964f0c1146109165780638d41fe30146108f85780638f32d59b146126945780638fddb0651461267657806391d148541461262a57806395d89b411461256457806397125c4014612531578063975781b71461195257806398a2c65d14610e5b5780639a66af62146118db578063a0b2d41b146118bd578063a168fa891461184b578063a1770a7d14611802578063a1c527261461178a578063a217fddf1461176e578063a22cb465146116cd578063a8ce886e1461167a578063aa723bb71461158a578063aae31df3146114b1578063abc8c7af14611488578063ad0d3d3f14611410578063ad6caa4714611277578063aff2a463146111f9578063b78417b0146111db578063b88d4fde14611104578063b911135f146110d1578063bb4a250914610f7f578063bc36b2ee14610f61578063bd11f69d14610f0e578063c138907214610ed5578063c28fb6b714610e97578063c4d2fcae14610e79578063c61a46c514610e5b578063c87b56dd14610d8a578063cc48b94714610d61578063cc98ef9614610cd7578063cec21acb14610c9e578063d1bd7e0614610c80578063d547741f14610c3e578063d55486d314610c20578063d62c990f14610c02578063d7a4649514610be4578063dc0515d614610bc7578063e4b7fddf14610ba9578063e7a523c014610b7c578063e985e9c514610b28578063ecc5e06f14610ae1578063ed8c247214610a57578063efa2cc2914610a39578063f2fde38b14610934578063f66f9e3414610916578063f7c0794d146108f8578063f99a6bb514610764578063fea90d0214610671578063ff198a1d146105f95763ffbccde4146105d957600080fd5b346105f657806003193601126105f6576020601754604051908152f35b80fd5b50346105f65761060836615c00565b946000805160206172578339815191528795929594939452603a602052604087203360005260205260ff60406000205416801561065e575b6106499061608b565b601d55601e55601f5560205560215560225580f35b5061064961066a6166c7565b9050610640565b50346105f657806003193601126105f65780600780546106908161612e565b603354909285916001600160a01b0390811690835b858110610702578888886106b88261612e565b925b8281106106e35750506106df6040519283928352604060208401526040830190615d87565b0390f35b806106f060019284616160565b516106fb8287616160565b52016106ba565b808952600f602052828260408b205416148061074d575b610726575b6001016106a5565b969360019061073489615f38565b5054610740828a616160565b529481019794019361071e565b5060ff8461075a83615f38565b5001541615610719565b50346105f6576020806003193601126108f4576004359061078a60ff601654161561604c565b61079533151561630b565b818352600f8152604083205483906001600160a01b039033908216036108f457610834839160086107c587615f38565b500154906107db6107d588615f38565b90616a23565b6107e433615f1e565b6107ee8154616862565b9055868552600f84526040852080546001600160a01b0319169055610812876170c4565b6033541690604051948580948193630169dc3160e01b835233600484016164d4565b03925af19081156108e95784916108bc575b501561088657506108807f65aff8e0552d208dfaf55b1280e55553b7dba628290897ff43c8f086d5dbfd2a9160405191829133908361673b565b0390a180f35b6064906040519062461bcd60e51b82526004820152600f60248201526e1d1c985b9cd9995c8819985a5b1959608a1b6044820152fd5b6108dc9150823d84116108e2575b6108d48183615cc1565b8101906164bc565b38610846565b503d6108ca565b6040513d86823e3d90fd5b5080fd5b50346105f657806003193601126105f6576020601a54604051908152f35b50346105f657806003193601126105f6576020601e54604051908152f35b50346105f65760203660031901126105f65761094e615bd4565b61095e6109596166c7565b6162a1565b6109696109596166c7565b6001600160a01b03811680156109f95733146109bb576109ae906000805160206172578339815191528352603a6020526109a9600160408520015461686f565b6168b3565b506109b83361658c565b80f35b60405162461bcd60e51b815260206004820152601660248201527520b1b1b2b9b9b4b136329d1039b0b6b29030b236b4b760511b6044820152606490fd5b60405162461bcd60e51b815260206004820152601860248201527741636365737369626c653a207a65726f206164647265737360401b6044820152606490fd5b50346105f657806003193601126105f6576020602c54604051908152f35b50346105f65760203660031901126105f657610a71615bd4565b6000805160206172578339815191528252603a602052604082203360005260205260ff604060002054168015610ace575b610aab9061608b565b603680546001600160a01b0319166001600160a01b039290921691909117905580f35b50610aab610ada6166c7565b9050610aa2565b50346105f65760203660031901126105f657610b1460406106df9260ff610b06615cf9565b168152600b60205220615fa7565b604051918291602083526020830190615b94565b50346105f65760403660031901126105f657610b42615bd4565b6040610b4c615bea565b9260018060a01b0380931681526005602052209116600052602052602060ff604060002054166040519015158152f35b50346105f657806003193601126105f65760315460405160089190911c6001600160a01b03168152602090f35b50346105f657806003193601126105f6576020602e54604051908152f35b50346105f657806003193601126105f65760208054604051908152f35b50346105f657806003193601126105f6576020602754604051908152f35b50346105f657806003193601126105f6576020601f54604051908152f35b50346105f657806003193601126105f6576020601d54604051908152f35b50346105f65760403660031901126105f657610c7c600435610c5e615bea565b90808452603a602052610c77600160408620015461686f565b616e48565b5080f35b50346105f657806003193601126105f6576020601854604051908152f35b50346105f65760203660031901126105f6576020906040906001600160a01b03610cc6615bd4565b168152601083522054604051908152f35b50346105f65760203660031901126105f657610cf1615bd4565b6000805160206172578339815191528252603a602052604082203360005260205260ff604060002054168015610d4e575b610d2b9061608b565b603480546001600160a01b0319166001600160a01b039290921691909117905580f35b50610d2b610d5a6166c7565b9050610d22565b50346105f657806003193601126105f6576032546040516001600160a01b039091168152602090f35b50346105f657602090816003193601126105f657600435808252600f83526040909120546001600160a01b031615610dfe57610dc581616754565b5060005260068152610dda6040600020615fa7565b906000604051610de981615c8b565b526106df604051928284938452830190615b94565b60405162461bcd60e51b815260048101839052602f60248201527f4552433732314d657461646174613a2055524920717565727920666f72206e6f60448201526e3732bc34b9ba32b73a103a37b5b2b760891b6064820152608490fd5b50346105f657806003193601126105f6576020601954604051908152f35b50346105f657806003193601126105f6576020602354604051908152f35b50346105f657806003193601126105f6576033546106df90610ec1906001600160a01b031661660f565b604051918291602083526020830190615d87565b50346105f65760203660031901126105f6576020906040906001600160a01b03610efd615bd4565b168152601183522054604051908152f35b50346105f65760203660031901126105f65760043590600a548210156105f657600a6000526106df610b147fc65a7bb8d6351c1cf70c95a316cc6a92839c986682d98bc35f958f4883f9d2a88401615fa7565b50346105f657806003193601126105f6576020602254604051908152f35b50346105f6576101203660031901126105f657610f9a615bd4565b610fa2615bea565b6001600160a01b03604435818116939192908490036110cc57610fc66109596166c7565b603154838160081c16611087576032549284841661104857610100600160a81b0360089190911b16610100600160a81b031991909116176031559091166001600160a01b03199182161760325560338054909116919091179055606435601d55608435601e5560a435601f5560c43560205560e4356021556101043560225580f35b60405162461bcd60e51b81526020600482015260176024820152761d1bdb88185b1c9958591e481a5b9a5d1a585b1a5e9959604a1b6044820152606490fd5b60405162461bcd60e51b815260206004820152601e60248201527f746974616e7773746f6e20616c726561647920696e697469616c697a656400006044820152606490fd5b600080fd5b50346105f65760203660031901126105f657602090600435815260378252604060018060a01b0391205416604051908152f35b50346105f65760803660031901126105f65761111e615bd4565b611126615bea565b6044356064356001600160401b0381116111cc57366023820112156111cc57611159903690602481600401359101615d32565b9161116960ff601654161561604c565b611174823386616ec1565b303b156111cc576040516323b872dd60e01b8152859081818061119c87878b60048501616346565b038183305af180156111d0576111b8575b50506109b893616f80565b6111c190615c26565b6111cc5784386111ad565b8480fd5b6040513d84823e3d90fd5b50346105f657806003193601126105f6576020602a54604051908152f35b50346105f65760203660031901126105f657611213615cf9565b9060ff806009541692169182101561123c576040816106df93610b149352600860205220615fa7565b60405162461bcd60e51b8152602060048201526013602482015272496e646578206f7574206f6620626f756e647360681b6044820152606490fd5b50346105f657602090816003193601126105f65760043561129d60ff601654161561604c565b808252600f835260408220546001600160a01b031633036113db576112d6600160ff60076112ca85615f38565b50015416151514616375565b33825260128352604082208183528352600160ff60408420541615150361139857600a61130282615f38565b5001546113555761134460079161131833615eea565b8185528552604084209360ff199485815416905561133533615f04565b82825286526040812055615f38565b500190815416905560405160018152f35b60405162461bcd60e51b815260048101849052601b60248201527a616c72656164792063616c6c6564207069636b4d696e656447454d60281b6044820152606490fd5b60405162461bcd60e51b815260048101849052601b60248201527a75736572206973206e6f74206d696e696e6720746869732047656d60281b6044820152606490fd5b60405162461bcd60e51b815260048101849052600d60248201526c3737ba1023a2a69037bbb732b960991b6044820152606490fd5b50346105f65761141f36615c00565b946000805160206172578339815191528795929594939452603a602052604087203360005260205260ff604060002054168015611475575b6114609061608b565b602955602a55602b55602c55602d55602e5580f35b506114606114816166c7565b9050611457565b50346105f657806003193601126105f6576034546040516001600160a01b039091168152602090f35b50346105f65760203660031901126105f65760408160c09260a083516114d681615c55565b828152826020820152828582015282606082015282608082015201526004358152601560205220600460405161150b81615c55565b8254928382526001810154602083019060ff81161515825260ff604085019160081c16151581526002830154916060850192835260a060038501549460808701958652600180831b03978891015416950194855260405196875251151560208701525115156040860152516060850152516080840152511660a0820152f35b50346105f65760203660031901126105f657600435906101406040516115af81615c39565b8281528260208201526040516115c481615c70565b608036823760408201526040516115da81615ca6565b604036823760608201528260808201528260a08201528260c08201528260e082015282610100820152606061012082015201526007548110156116405761162c6116266106df92615f38565b50616408565b604051918291602083526020830190615dfd565b60405162461bcd60e51b815260206004820152601260248201527111d95b48191bd95cc81b9bdd08195e1a5cdd60721b6044820152606490fd5b50346105f65760203660031901126105f65760043590600d548210156105f657600d6000526106df610b147fd7b6990105719101dabeb77144f2a3385c8033acd3af97e9423a695e81ad1eb58401615fa7565b50346105f65760403660031901126105f6576116e7615bd4565b6116ef615edb565b6001600160a01b03909116908115611755573360005260056020526040600020826000526020526117248160406000206163b6565b60405190151581527f17307eab39ab6107e8899845ad3d59bd9653f200f220920489ca2b5937696c3160203392a380f35b604051630b61174360e31b815260048101839052602490fd5b50346105f657806003193601126105f657602090604051908152f35b50346105f65761179936615c00565b946000805160206172578339815191528795929594939452603a602052604087203360005260205260ff6040600020541680156117ef575b6117da9061608b565b601755601855601955601a55601b55601c5580f35b506117da6117fb6166c7565b90506117d1565b50346105f65760403660031901126105f65760209060ff906040906001600160a01b0361182d615bd4565b16815260128452818120602435825284522054166040519015158152f35b50346105f65760203660031901126105f657604060c0916004358152601560205220805490600181015490600281015460ff600383015492600460018060a01b0391015416936040519586528181161515602087015260081c16151560408501526060840152608083015260a0820152f35b50346105f657806003193601126105f6576020602154604051908152f35b50346105f65760203660031901126105f65760ff6118f7615cf9565b6000805160206172578339815191528352603a60205260408320336000526020528160406000205416801561193f575b6119309061608b565b1660ff19603154161760315580f35b5061193061194b6166c7565b9050611927565b50346105f6576101003660031901126105f657600660043510156105f65736604312156110cc576040519061198682615ca6565b816064923684116110cc576024905b84821061251957505036608312156110cc57604051916119b483615c70565b60e4833682116110cc5785905b8282106125015750505060e435906001600160401b0382116105f657506119ec903690600401615d69565b92611a0260018060a01b036033541633146160cc565b611a1160ff601654161561604c565b60ff835116611a29602085019160ff83511690616727565b90611a3d604086019260ff84511690616727565b611a50606087019160ff83511690616727565b92600435611e615760ff8751169260018414938415611e56575b5083611e30575b5082611e0a575b5081611de6575b5015611d8b5760ff600891161015611d4f575060295460235492601d546017545b611aaa8442616368565b9060405190611ab882615c39565b600082526020820192611acd600435856163c7565b85604084015287606084015260808301528760a083015260c0820152600060e082015282610100820152876101208201526000610140820152600754600160401b811015611d3957806001611b259201600755615f38565b929092611d235781518355516006811015611d0d5760ff80196001850154169116176001830155604081015160009060005b60048110611cee5750506002830155606081015160009060005b60028110611ccf575050600a916101409160038501556080810151600485015560a0810151600585015560c08101516006850155611bb860e08201511515600786016163b6565b6101008101516008850155611bd56101208201516009860161618b565b0151910155600754600019810195908611611cb95760209686956000805160206172b783398151915295611ca79388611c0d81615f38565b50556000898152600f8c526040902080546001600160a01b03191633908117909155611c3890615f1e565b611c428154616600565b9055611c4e8933616ac8565b611c58848a61678f565b611c8c604051978897611c7d61018096611c748b600435615df0565b8f8b0190616536565b60608901526080880190616561565b61010086015261012085015280610140850152830190615b94565b336101608301520390a2604051908152f35b634e487b7160e01b600052601160045260246000fd5b90916020611ce56001928460ff87511691616ead565b93019101611b71565b90916020611d046001928460ff87511691616ead565b93019101611b57565b634e487b7160e01b600052602160045260246000fd5b634e487b7160e01b600052600060045260246000fd5b634e487b7160e01b600052604160045260246000fd5b60405162461bcd60e51b8152602060048201526017602482015276191919191034b9902920a922903737ba1021a7a6a6a7a760491b6044820152fd5b60405162461bcd60e51b815260206004820152602e60248201527f416c6c207175616472616e7473206d7573742062652031206f72203220666f7260448201526d20434f4d4d4f4e2072617269747960901b81840152608490fd5b60ff9150511660018114908115611dff575b5038611a7f565b600291501438611df8565b60ff919250511660018114908115611e25575b509038611a78565b600291501438611e1d565b60ff919350511660018114908115611e4b575b509138611a71565b600291501438611e43565b600214935038611a6a565b600435600103611fc75760ff8751169260028414938415611fbc575b5083611f96575b5082611f70575b5081611f4c575b5015611ef35760ff600c91161015611eb75750602a5460245492601e54601854611aa0565b60405162461bcd60e51b81526020600482015260176024820152763333333320697320554e49515545206e6f74205241524560481b6044820152fd5b60405162461bcd60e51b815260206004820152602c60248201527f416c6c207175616472616e7473206d7573742062652032206f72203320666f7260448201526b20524152452072617269747960a01b81840152608490fd5b60ff9150511660028114908115611f65575b5038611e92565b600391501438611f5e565b60ff919250511660028114908115611f8b575b509038611e8b565b600391501438611f83565b60ff919350511660028114908115611fb1575b509138611e84565b600391501438611fa9565b600314935038611e7d565b60043560020361212f5760ff8751169260038414938415612124575b50836120fe575b50826120d8575b50816120b4575b50156120595760ff60109116101561201d5750602b5460255492601f54601954611aa0565b60405162461bcd60e51b8152602060048201526017602482015276343434342069732045504943206e6f7420554e4951554560481b6044820152fd5b60405162461bcd60e51b815260206004820152602e60248201527f416c6c207175616472616e7473206d7573742062652033206f72203420666f7260448201526d20554e495155452072617269747960901b81840152608490fd5b60ff91505116600381149081156120cd575b5038611ff8565b6004915014386120c6565b60ff9192505116600381149081156120f3575b509038611ff1565b6004915014386120eb565b60ff919350511660038114908115612119575b509138611fea565b600491501438612111565b600414935038611fe3565b6004356003036122985760ff875116926004841493841561228d575b5083612267575b5082612241575b508161221d575b50156121c45760ff6014911610156121855750602c5460265492602054601a54611aa0565b60405162461bcd60e51b815260206004820152601a60248201527935353535206973204c4547454e44415259206e6f74204550494360301b6044820152fd5b60405162461bcd60e51b815260206004820152602c60248201527f416c6c207175616472616e7473206d7573742062652034206f72203520666f7260448201526b20455049432072617269747960a01b81840152608490fd5b60ff9150511660048114908115612236575b5038612160565b60059150143861222f565b60ff91925051166004811490811561225c575b509038612159565b600591501438612254565b60ff919350511660048114908115612282575b509138612152565b60059150143861227a565b60051493503861214b565b60048035036124075760ff87511692600584149384156123fc575b50836123d6575b50826123b0575b508161238c575b501561232e5760ff6018911610156122ed5750602d5460275492602154601b54611aa0565b60405162461bcd60e51b815260206004820152601c60248201527b36363636206973204d5954484943206e6f74204c4547454e4441525960201b6044820152fd5b60405162461bcd60e51b815260206004820152603160248201527f416c6c207175616472616e7473206d7573742062652035206f72203620666f72604482015270204c4547454e444152592072617269747960781b81840152608490fd5b60ff91505116600581149081156123a5575b50386122c8565b60069150143861239e565b60ff9192505116600581149081156123cb575b5090386122c1565b6006915014386123c3565b60ff9193505116600581149081156123f1575b5091386122ba565b6006915014386123e9565b6006149350386122b3565b919250906004356005036124ce57600660ff8751161492836124bf575b50826124b0575b50816124a1575b501561244b5750602e5460285492602254601c54611aa0565b6084906849432072617269747960b81b6040519162461bcd60e51b835260206004840152602960248401527f416c6c207175616472616e7473206d757374206265203620666f72204d5954486044840152820152fd5b5160ff16600614905038612432565b5160ff1660061491503861242b565b5160ff16600614925038612424565b60405162461bcd60e51b815260206004820152600c60248201526b77726f6e672052617269747960a01b60448201528490fd5b6020809161250e84615d09565b8152019101906119c1565b6020809161252684615d09565b815201910190611995565b50346105f65760203660031901126105f6576020906004358152600f8252604060018060a01b0391205416604051908152f35b50346105f657806003193601126105f65760405160006001826001549261258a84615f6d565b928383526020948560018216918260001461260a5750506001146125ca575b506125b692500383615cc1565b6106df604051928284938452830190615b94565b849150600160005281600020906000915b8583106125f25750506125b69350820101856125a9565b805483890185015287945086939092019181016125db565b60ff1916858201526125b695151560051b85010192508791506125a99050565b50346105f65760403660031901126105f6576040612646615bea565b916004358152603a602052209060018060a01b0316600052602052602060ff604060002054166040519015158152f35b50346105f657806003193601126105f6576020602d54604051908152f35b50346105f657806003193601126105f65760206126af6166c7565b6040519015158152f35b50346105f65760203660031901126105f657600435602f548110156108f457602f6000527fa813484aef6fb598f9f753daf162068ff39ccea4075cb95e1a30f86995b5b7ee0154604051908152602090f35b50346105f65760203660031901126105f6576106df610ec161272b615bd4565b61660f565b50346105f657806003193601126105f6576000805160206172378339815191528152603a602052604081203360005260205261277360ff604060002054166165a8565b600160165461278560ff82161561604c565b60ff1916176016557f62e78cea01bee320cd4e420270b5ea74000d11b0c9f74754ebdbfc544b05a2586020604051338152a180f35b50346105f65760203660031901126105f657610c7c6127d7615bd4565b6000805160206172578339815191528352603a602052604083203360005260205260ff60406000205416801561283c575b6128119061608b565b6000805160206172378339815191528352603a602052612837600160408520015461686f565b616930565b506128116128486166c7565b9050612808565b50346105f65760203660031901126105f65760ff60406020926004358152601484522054166040519015158152f35b50346105f657806003193601126105f6576020602954604051908152f35b50346105f657806003193601126105f65760206040516000805160206172578339815191528152f35b50346105f65760203660031901126105f65761095e615bd4565b50346105f657806003193601126105f657602060ff60315416604051908152f35b50346105f657806003193601126105f6576035546040516001600160a01b039091168152602090f35b50346105f657806003193601126105f6576129456109596166c7565b610c7c33616d55565b50346105f65760203660031901126105f657610c7c61296b615bd4565b6129766109596166c7565b6000805160206172578339815191528352603a6020526109a9600160408520015461686f565b50346105f65760203660031901126105f6576129b6615bd4565b6129c16109596166c7565b336001600160a01b038216036129da57610c7c90616ccd565b60405163334bd91960e11b8152600490fd5b50346105f65760203660031901126105f657610b1460406106df9260ff612a11615cf9565b168152600860205220615fa7565b50346105f65760403660031901126105f6576020906040906001600160a01b03612a47615bd4565b16815260138352818120602435825283522054604051908152f35b50346105f657806003193601126105f657602060ff60365460a01c166040519015158152f35b50346105f65760203660031901126105f6576020612aa7600435616754565b6040516001600160a01b039091168152f35b50346105f657806003193601126105f6576020601c54604051908152f35b50346105f65760203660031901126105f657600435906007548210156105f657612b59612b0383615f38565b508054612b8260ff600184015416926004810154926005820154600683015460ff60078501541690600885015492600a612b3f60098801615fa7565b960154976040519a8b9a610120978c5260208c0190615df0565b60408a015260608901526080880152151560a087015260c08601528060e0860152840190615b94565b906101008301520390f35b50346105f657806003193601126105f6576033546040516001600160a01b039091168152602090f35b50346105f657806003193601126105f657602060ff601654166040519015158152f35b50346105f657806003193601126105f6576020602654604051908152f35b50346105f657806003193601126105f6576020603054604051908152f35b50346105f65760203660031901126105f65760209060ff906040906001600160a01b03612c40615bd4565b168152603884522054166040519015158152f35b50346105f65760203660031901126105f65760043563ffffffff60e01b81168091036108f45790602091815260398252604060018060a01b0391205416604051908152f35b50346105f657806003193601126105f6576036546040516001600160a01b039091168152602090f35b50346105f65760403660031901126105f6576109b8612cdf615edb565b612cf460018060a01b036034541633146160cc565b6007612d01600435615f38565b50016163b6565b50346105f657806003193601126105f657806007545b808310612d3057602082604051908152f35b90612d4b6001916008612d4286615f38565b50015490616368565b92019190612d1e565b50346105f657612d6336615dbb565b60409392935191612d7383615c8b565b838352612d8560ff601654161561604c565b612d90823387616ec1565b303b15612df0576040516323b872dd60e01b8152848180612db686868b60048501616346565b038183305af18015612de557612dd2575b506109b89394616f80565b93612ddf6109b895615c26565b93612dc7565b6040513d87823e3d90fd5b8380fd5b50346105f657806003193601126105f6576000805160206172378339815191528152603a60205260408120338252602052612e3560ff6040832054166165a8565b601654612e4560ff82161561604c565b60ff19166016557f5db9ee0a495bf2e6ff9c91a7834c1ba4fdd244a5e8aa4e537bd38aeae4b073aa6020604051338152a180f35b50346105f657806003193601126105f65760206040516000805160206172378339815191528152f35b50346105f65760403660031901126105f6577f00000000000000000000000000000000000000000000000000000000000000006001600160a01b03163381900361332857506004358152601560205260ff600160408320015416156132f05760043581526015602052604081206001810161010061ff0019825416179055602435600282015554612f3e6002612f3783615f38565b50016163d3565b60ff81511660ff6020830151169160ff6060816040840151169201511691612f818693612f7c60075494612f7c612f748761612e565b988b96616727565b616727565b865b8381106132035750505050612f978161612e565b91845b8281106131e45750507fdd6ebb40766c50572c78f680f70ff043535bc04e71ac56a352f7c3df1e11ec516040518281526040602082015280612fdf6040820186615d87565b0390a18015806131a15761318d576131149291613000916024350690616160565b51600435845260156020526003604085200155600761301e82615f38565b500160ff199081815416905583600a61303684615f38565b5001556004358452601560205261306961306360ff600161305a6040892054615f38565b5001541661715b565b42616368565b600461307484615f38565b5001556001600160a01b0361308883616754565b1684526012602052604084208285526020526040842090815416905560018060a01b036130b482616754565b16835260136020908152604080852083865282528085208590556033546004803587526015845282872080820154600390910154935163048dbcef60e41b81529687946001600160a01b039485169486948b9486949392169084016164d4565b03925af190811561318257613155610880927f97b363697f59781efcf0539a3eeabceea1e3b444e248009d3730fa6a26db9c24948691613163575b506164ef565b60405191829133908361673b565b61317c915060203d6020116108e2576108d48183615cc1565b3861314f565b6040513d85823e3d90fd5b634e487b7160e01b84526012600452602484fd5b50505060207f87c3badc36a4b7c7f2331493a7998c2f9c414769a1bc588ef4b4c7ef302aeb5191600435845260158252836003604082200155604051908152a180f35b806131f160019284616160565b516131fc8287616160565b5201612f9a565b61324e61323460ff600261321685615f38565b5001541660ff600261322786615f38565b50015460081c1690616727565b60ff600261324185615f38565b50015460101c1690616727565b60ff61327161325c84615f38565b509282600281881695015460181c1690616727565b1610806132cc575b806132b4575b61328c575b600101612f83565b9391600180809261329c88615f38565b50546132a8828b616160565b52019301949050613284565b5060ff60076132c283615f38565b500154161561327f565b50808852600f60205260408820546033546001600160a01b03908116911614613279565b60405162461bcd60e51b815260206004820152601060248201526f52657175657374206e6f74206d61646560801b6044820152606490fd5b6044906040519063073e64fd60e21b82523360048301526024820152fd5b50346105f65760403660031901126105f657613360615bea565b336001600160a01b038216036129da57610c7c90600435616e48565b50346105f65760803660031901126105f657600435906001600160401b0382116105f657366023830112156105f6578160040135916133ba83615ce2565b926133c86040519485615cc1565b80845260246020850191826101005260051b83010191368311612df057602401905b82821061395457505050600660243510156105f65736606312156105f6576040519061341582615ca6565b6084823682116138ea576044905b82821061393c5750505061343c60ff601654161561604c565b601e5461012052601f5461016052602054602154602254602454602554602654602754602854906018549260195494601a5496601b5498601c549a602a549c602b54608052602c5460c052602d5461014052602e5460e05260405160a05260a05161028060a05101106001600160401b0361028060a0510111176139285761028060a051016040526101205160a0515261016051602060a0510152604060a0510152606060a0510152608060a051015260a08051015260c060a051015260e060a051015261010060a051015261012060a051015261014060a051015261016060a051015261018060a05101526101a060a05101526101c060a05101526101e060a051015260805161020060a051015260c05161022060a05101526101405161024060a051015260e05161026060a0510152608060405161357b81615c70565b3690376040516341264bff60e01b815260076004820152600f602482015260106044820152336064820152610380608482015283516103848201819052610100516103a4830191845b818110613912575050506135dd60a48301602435615df0565b81848460c483015b600282106138f557505050806101409260a05151610104830152602060a0510151610124830152604060a0510151610144830152606060a0510151610164830152608060a051015161018483015260a0805101516101a483015260c060a05101516101c483015260e060a05101516101e483015261010060a051015161020483015261012060a05101516102248301528360a051015161024483015261016060a051015161026483015261018060a05101516102848301526101a060a05101516102a48301526101c060a05101516102c48301526101e060a05101516102e483015261020060a051015161030483015261022060a051015161032483015261024060a051015161034483015261026060a0510151610364830152038173__$c8413349dc071733da103ffe8c54b86872$__5af49081156111d057829183918492858692879461383c575b50865b89518110156137a757806137546107d561374e6001948e616160565b51615f38565b33895260106020526040892061376a8154616862565b9055613776818c616160565b518952600f60205260408920828060a01b031981541690556137a161379b828d616160565b516170c4565b01613732565b50926000805160206172b783398151915294926138118798936101a09661380260209c6137d48c33616ac8565b6137ec6040516137e381615c8b565b8981528d61678f565b6137f9604051809a615df0565b8d890190616536565b60608701526080860190616561565b61010084015261012083015261018061014083015261018082015233610160820152a2604051908152f35b955050505050506101403d610140116138ee575b61385a8183615cc1565b810190610140818303126138ea5780519082603f82011215612df0576040519261388384615c70565b839060a08301116111cc5760208201905b60a0830182106138cc57505060a08101519160068310156111cc5760c082015160e0830151610100909301519194919291903861372f565b815160ff811681036138e657815260209182019101613894565b8680fd5b8280fd5b503d613850565b8293506020809160ff6001949551168152019301910184926135e5565b82518452602093840193909201916001016135c4565b634e487b7160e01b8f52604160045260248ffd5b6020809161394984615d09565b815201910190613423565b81358152602091820191016133ea565b50346105f657806003193601126105f6576020604051620334508152f35b50346105f65760403660031901126105f657613a0b816139a0615bd4565b60008051602061725783398151915282526020928391603a835260408420338552835260ff6040852054168015613a46575b6139db9061608b565b60335460405163048dbcef60e41b81529485936001600160a01b03909216928492839160243590600484016164d4565b03925af190811561318257613a26929391613a2f57506164ef565b60405160018152f35b61317c9150833d85116108e2576108d48183615cc1565b506139db613a526166c7565b90506139d2565b50346105f65760403660031901126105f657610c7c600435613a79615bea565b90808452603a602052613a92600160408620015461686f565b6169ba565b50346105f657806003193601126105f657600754613ab481615ce2565b90613ac26040519283615cc1565b8082526007835260209283830191817fa66cc928b5edb82af9bd49922954155ab7b0942694bea4ce44661d9a8736c688845b838310613b595750505050604051928484019085855251809152604084019460408260051b8601019392955b828710613b2d5785850386f35b909192938280613b49600193603f198a82030186528851615dfd565b9601920196019592919092613b20565b600b88600192613b6c859b9a989b616408565b81520192019201919096939596613af4565b50346105f65760203660031901126105f657602060ff6007613ba1600435615f38565b500154166040519015158152f35b50602090816003193601126105f657600435613bd060ff601654161561604c565b6002603b5414613efc576002603b55613be881616754565b6001600160a01b039290831633148015613ecb575b15613e895733815260138452604081208282528452613c2560408220546005612d4285615f38565b4210613e445790600791613c4e613c3b83615f38565b5060ff6001958692015416151514616375565b83613c5883616754565b168152601285526040812082825285528260ff604083205416151503613e0e57604051606081018181106001600160401b03821117613dfa579086916040528281526064828201848152604083019762033450895263ffffffff604051998a9586946309160b1560e11b865261ffff809251166004870152511660248501525116604483015234907f0000000000000000000000000000000000000000000000000000000000000000165af1938415613ded578194613d9e575b508160046040809387600a613d477f92f40ca7d6cff5022608e05da6b963f9ac5a227ea2da740f7d35831bb78c285d98615f38565b5001558781526015895220828155858101805460ff1916871790550180546001600160a01b031916331790556030805485019055600a613d8682615f38565b500154825191825286820152a1603b55604051908152f35b9093508481813d8311613de6575b613db68183615cc1565b81010312612df05751927f92f40ca7d6cff5022608e05da6b963f9ac5a227ea2da740f7d35831bb78c285d613d12565b503d613dac565b50604051903d90823e3d90fd5b634e487b7160e01b83526041600452602483fd5b60405162461bcd60e51b815260048101869052600e60248201526d67656d206e6f74206d696e696e6760901b6044820152606490fd5b60405162461bcd60e51b815260048101859052601d60248201527f6d696e696e6720706572696f6420686173206e6f7420656c61707365640000006044820152606490fd5b60405162461bcd60e51b815260048101859052601a6024820152793737ba1023a2a69037bbb732b91037b9103737ba1030b236b4b760311b6044820152606490fd5b506000805160206172578339815191528152603a8452604081203382528452600160ff604083205416151514613bfd565b604051633ee5aeb560e01b8152600490fd5b50346105f65760203660031901126105f65760ff6040602092613f2f615bd4565b6000805160206172578339815191528252603a85528282206001600160a01b03909116825284522054604051911615158152f35b50346105f65760203660031901126105f657600160406020926004358152603a8452200154604051908152f35b50346105f657613f9f36615dbb565b9291613fb060ff601654161561604c565b6001600160a01b038281169081156111cc57808316918281146141c05760ff6007613fda89615f38565b5001541661418b578282613fed89616754565b160361414657869061400861306360ff600161305a86615f38565b600461401384615f38565b50015561401f86615f1e565b6140298154616600565b9055818752600f6020526040872080546001600160a01b031990811683179091559261405486615f1e565b61405e8154616862565b905582885260026020526040882054169233614136575b83614114575b818852600360205260408820600181540190558288526002602052816040892091825416179055826000805160206172778339815191528880a48181036140f05750506108807f85d07a7616aea29f5d972fd9100b991c224490bd49b737377d908f66f34d9afd939460405193849384616346565b6064925085604051926364283d7b60e01b8452600484015260248301526044820152fd5b61411d8361713d565b838852600360205260408820805460001901905561407b565b614141833386616ec1565b614075565b60405162461bcd60e51b815260206004820152601d60248201527f73656e646572206973206e6f742074686520746f6b656e206f776e65720000006044820152606490fd5b60405162461bcd60e51b815260206004820152600d60248201526c11d95b481a5cc81b1bd8dad959609a1b6044820152606490fd5b8580fd5b50346105f657806003193601126105f6576020601b54604051908152f35b50346105f657602090816003193601126105f6576004359061420960ff601654161561604c565b61421433151561630b565b336001600160a01b0361422684616754565b160361448b57600461423783615f38565b500154421061443a5760ff600761424d84615f38565b500154166143e45760ff600161426284615f38565b5001541660068110156143d0571561438c57600661427f83615f38565b5001541561433d577fcfdb0da0eda7e72692cc304e4e58d2543a70ce5269931e91e02337cbff2a1ef1916080916142b533615eea565b8282528552604081209060ff19916001838254161790556142d533615f04565b8382528652604042912055600160076142ed84615f38565b500191825416179055600661430182615f38565b500161430d8154616862565b9055600661431a82615f38565b50015460405191825233858301524260408301526060820152a160405160018152f35b60405162461bcd60e51b815260048101849052602160248201527f6e6f206d696e696e6720706f776572206c65667420666f7220746861742047456044820152604d60f81b6064820152608490fd5b60405162461bcd60e51b815260048101849052601c60248201527b726172697479206d757374206265206174206c65617374205241524560201b6044820152606490fd5b634e487b7160e01b82526021600452602482fd5b60405162461bcd60e51b815260048101849052602860248201527f47656d206973206c697374656420666f722073616c65206f7220616c7265616460448201526779206d696e696e6760c01b6064820152608490fd5b60405162461bcd60e51b815260048101849052602360248201527f47656d20636f6f6c646f776e20706572696f6420686173206e6f7420656c61706044820152621cd95960ea1b6064820152608490fd5b60405162461bcd60e51b815260048101849052600d60248201526c3737ba1033b2b69037bbb732b960991b6044820152606490fd5b50346105f65760203660031901126105f6576004356001600160401b0381116108f4576144f1903690600401615d69565b6144fa336166fc565b80156145e1575b61450a9061608b565b60ff600c54168252600b602052614524816040842061618b565b600d54600160401b811015613dfa576001810180600d558110156145cd57600d83526145739082907fd7b6990105719101dabeb77144f2a3385c8033acd3af97e9423a695e81ad1eb50161618b565b7fd961fa20561746b8576d7b504b0bc57067c67db2ce13bd9866d451bec5985f4b6145c7600c549260ff6145a8818616616290565b16809460ff191617600c55604051918291602083526020830190615b94565b0390a280f35b634e487b7160e01b83526032600452602483fd5b5061450a6145ed6166c7565b9050614501565b50346105f657806003193601126105f6576020602b54604051908152f35b50346105f657806003193601126105f657602061462d6162f9565b604051908152f35b50346105f65760203660031901126105f6576109b8614652615bd4565b61465d6109596166c7565b61658c565b50346105f65760403660031901126105f6576024356001600160401b0381116108f4576146966109b8913690600401615d69565b60043561678f565b50346105f65760203660031901126105f6576004356001600160401b0381116108f4576146cf903690600401615d69565b6146d8336166fc565b80156147a5575b6146e89061608b565b60ff6009541682526008602052614702816040842061618b565b600a54600160401b811015613dfa576001810180600a558110156145cd57600a83526147519082907fc65a7bb8d6351c1cf70c95a316cc6a92839c986682d98bc35f958f4883f9d2a80161618b565b7fe4d2864ec291f6f11cb3363fa1bd2a4d5ff49a2cfdf4bf7dfe3b90a26b8c776f6145c76009549260ff614786818616616290565b16809460ff191617600955604051918291602083526020830190615b94565b506146e86147b16166c7565b90506146df565b50346105f657806003193601126105f6576020602854604051908152f35b50346105f657806003193601126105f6576020601754604051908152f35b50346105f65760803660031901126105f6576004356001600160401b0381116108f457366023820112156108f457806004013561483081615ce2565b9161483e6040519384615cc1565b8183526024602084019260051b820101903682116111cc57602401915b8183106156d7575050506024356001600160401b0381116138ea57366023820112156138ea5780600401359061489082615ce2565b9161489e6040519384615cc1565b8083526024602084019160061b830101913683116141c057602401905b82821061567a57505050604435926001600160401b0384116105f657366023850112156105f65783600401356148f081615ce2565b946148fe6040519687615cc1565b81865260208601903660248460071b83010111612df05760248101915b60248460071b830101831061562057505050506001600160401b03606435116105f6573660236064350112156105f6576064356004013561495b81615ce2565b906149696040519283615cc1565b80825260208201903660248260051b606435010111612df057602460643501915b60248260051b606435010183106155ed575050506149b360018060a01b036033541633146160cc565b6149c260ff601654161561604c565b8351835180911490816155e2575b50806155d7575b15615583576149e9849395945161612e565b94825b845181101561556d576149ff8186616160565b51600681101561555957614a138284616160565b51614a1e8389616160565b5191614a2a8487616160565b5190614a4160018060a01b036033541633146160cc565b614a5060ff601654161561604c565b614a88614a7a614a6c60ff87511660ff60208901511690616727565b60ff60408801511690616727565b60ff60608701511690616727565b81614eb65760ff8551166001808214918215614eab575b5081614e84575b81614e5d575b81614e37575b5015614ddb5760ff600891161015614d9c57602954602354601d54956017545b614adc8442616368565b9060405191614aea83615c39565b8d8352614afa87602085016163c7565b83604084015288606084015260808301528360a083015260c08201528b60e082015287610100820152856101208201528b610140820152600754600160401b811015614d8857806001614b509201600755615f38565b919091614d74578051825560208101516006811015614d605760ff801960018501541691161760018301558c6040820151815b60048110614d4157505060028301558c6060820151815b60028110614d225750509e9f9d9e600a916101409160038501556080810151600485015560a0810151600585015560c08101516006850155614be560e08201511515600786016163b6565b6101008101516008850155614c026101208201516009860161618b565b01519101556007549687600019810111614d0e579287969592614cc86000805160206172b78339815191529693614ce3968f604090614c4760019f9e60001901615f38565b508d6000190190556000198d018152600f60205220338e8060a01b0319825416179055614c7333615f1e565b614c7d8154616600565b9055614c8d6000198c0133616ac8565b614c9b876000198d0161678f565b614cb96040519a614caf8c61018099615df0565b60208c0190616536565b60608a01526080890190616561565b61010087015261012086015280610140860152840190615b94565b9133610160820152806000198501930390a260001901614d038288616160565b5201959493956149ec565b634e487b7160e01b8c52601160045260248cfd5b90916020614d386001928460ff87511691616ead565b93019101614b9a565b90916020614d576001928460ff87511691616ead565b93019101614b83565b634e487b7160e01b8e52602160045260248efd5b634e487b7160e01b8d5260048d905260248dfd5b634e487b7160e01b8d52604160045260248dfd5b60405162461bcd60e51b8152602060048201526017602482015276191919191034b9902920a922903737ba1021a7a6a6a7a760491b6044820152606490fd5b60405162461bcd60e51b815260206004820152602e60248201527f416c6c207175616472616e7473206d7573742062652031206f72203220666f7260448201526d20434f4d4d4f4e2072617269747960901b6064820152608490fd5b606087015160ff1690811491508115614e52575b5038614ab2565b600291501438614e4b565b905060ff604087015116818114908115614e79575b5090614aac565b600291501438614e72565b905060ff602087015116818114908115614ea0575b5090614aa6565b600291501438614e99565b600214915038614a9f565b6001820361501f5760ff8551166002808214918215615014575b5081614fed575b81614fc6575b81614fa0575b5015614f465760ff600c91161015614f0757602a54602454601e5495601854614ad2565b60405162461bcd60e51b81526020600482015260176024820152763333333320697320554e49515545206e6f74205241524560481b6044820152606490fd5b60405162461bcd60e51b815260206004820152602c60248201527f416c6c207175616472616e7473206d7573742062652032206f72203320666f7260448201526b20524152452072617269747960a01b6064820152608490fd5b606087015160ff1690811491508115614fbb575b5038614ee3565b600391501438614fb4565b905060ff604087015116818114908115614fe2575b5090614edd565b600391501438614fdb565b905060ff602087015116818114908115615009575b5090614ed7565b600391501438615002565b600314915038614ed0565b6002820361518a5760ff855116600380821491821561517f575b5081615158575b81615131575b8161510b575b50156150af5760ff60109116101561507057602b54602554601f5495601954614ad2565b60405162461bcd60e51b8152602060048201526017602482015276343434342069732045504943206e6f7420554e4951554560481b6044820152606490fd5b60405162461bcd60e51b815260206004820152602e60248201527f416c6c207175616472616e7473206d7573742062652033206f72203420666f7260448201526d20554e495155452072617269747960901b6064820152608490fd5b606087015160ff1690811491508115615126575b503861504c565b60049150143861511f565b905060ff60408701511681811490811561514d575b5090615046565b600491501438615146565b905060ff602087015116818114908115615174575b5090615040565b60049150143861516d565b600414915038615039565b600382036152f25760ff855116600481149081156152e7575b50806152c1575b8061529b575b80615275575b1561521b5760ff6014911610156151d957602c5460265460205495601a54614ad2565b60405162461bcd60e51b815260206004820152601a60248201527935353535206973204c4547454e44415259206e6f74204550494360301b6044820152606490fd5b60405162461bcd60e51b815260206004820152602c60248201527f416c6c207175616472616e7473206d7573742062652034206f72203520666f7260448201526b20455049432072617269747960a01b6064820152608490fd5b5060ff60608601511660048114908115615290575b506151b6565b60059150143861528a565b5060ff604086015116600481149081156152b6575b506151b0565b6005915014386152b0565b5060ff602086015116600481149081156152dc575b506151aa565b6005915014386152d6565b6005915014386151a3565b600482036154615760ff85511660058114908115615456575b5080615430575b8061540a575b806153e4575b156153855760ff60189116101561534157602d5460275460215495601b54614ad2565b60405162461bcd60e51b815260206004820152601c60248201527b36363636206973204d5954484943206e6f74204c4547454e4441525960201b6044820152606490fd5b60405162461bcd60e51b815260206004820152603160248201527f416c6c207175616472616e7473206d7573742062652035206f72203620666f72604482015270204c4547454e444152592072617269747960781b6064820152608490fd5b5060ff606086015116600581149081156153ff575b5061531e565b6006915014386153f9565b5060ff60408601511660058114908115615425575b50615318565b60069150143861541f565b5060ff6020860151166005811490811561544b575b50615312565b600691501438615445565b60069150143861530b565b506005810361552557600660ff8551161480615514575b80615503575b806154f2575b1561549b57602e5460285460225495601c54614ad2565b60405162461bcd60e51b815260206004820152602960248201527f416c6c207175616472616e7473206d757374206265203620666f72204d59544860448201526849432072617269747960b81b6064820152608490fd5b50600660ff60608601511614615484565b50600660ff6040860151161461547e565b50600660ff60208601511614615478565b60405162461bcd60e51b815260206004820152600c60248201526b77726f6e672052617269747960a01b6044820152606490fd5b634e487b7160e01b85526021600452602485fd5b604051602080825281906106df9082018a615d87565b60405162461bcd60e51b815260206004820152602660248201527f496e70757420617272617973206d7573742068617665207468652073616d65206044820152650d8cadccee8d60d31b6064820152608490fd5b5084518151146149d7565b9050855114386149d0565b6001600160401b038335116111cc57602080602492615613368588356064350101615d69565b815201930192905061498a565b36601f840112156111cc5760405161563781615c70565b803660808601116138e65784905b60808601821061566257505081526080929092019160200161491b565b6020809161566f84615d09565b815201910190615645565b36601f830112156141c05760405161569181615ca6565b80604084013681116156d35784915b8183106156bb575050508160209160409352019101906148bb565b602080916156c885615d09565b8152019201916156a0565b8880fd5b823560068110156141c05781526020928301920161485b565b50346105f657806003193601126105f6576020602454604051908152f35b50346105f65761571d36615c00565b9461572d949194939293336166fc565b8015615752575b61573d9061608b565b60235560245560255560265560275560285580f35b5061573d61575e6166c7565b9050615734565b50346105f65760203660031901126105f6576004359060068210156105f657508061579857506020601d54604051908152f35b600181036157ab57506020601e5461462d565b600281036157be57506020601f5461462d565b600381036157d057506020805461462d565b600481036157e35750602060215461462d565b6005036157f457602060225461462d565b60405162461bcd60e51b815260206004820152600c60248201526b77726f6e672072617269747960a01b6044820152606490fd5b50346105f65760403660031901126105f657615842615bd4565b60243561584e81616754565b331515806158f8575b806158cd575b6158b5576001600160a01b039283169282918491167f8c5be1e5ebec7d5bd14f71427d1e84f3dd0314c0f7b2291e5b200ac8c7c3b9258680a4825260046020526040822080546001600160a01b031916909117905580f35b60405163a9fbf51f60e01b8152336004820152602490fd5b506001600160a01b038116845260056020908152604080862033875290915284205460ff161561585d565b506001600160a01b038116331415615857565b50346105f657806003193601126105f657602060ff600c5416604051908152f35b50346105f65760203660031901126105f65760209060043561594d81616754565b50815260048252604060018060a01b0391205416604051908152f35b50346105f657806003193601126105f65760405190808282549161598c83615f6d565b92838352602094600191866001821691826000146159f75750506001146159bc575b50506125b692500383615cc1565b908592508180528282205b8583106159df5750506125b6935082010138806159ae565b805483890185015287945086939092019181016159c7565b92509350506125b694915060ff191682840152151560051b82010138806159ae565b50346105f657806003193601126105f6576020602554604051908152f35b50346105f657806003193601126105f657615a5760ff601654161561604c565b6034546001600160a01b03168015615aba5733825260056020526040822081835260205260408220600160ff19825416179055604051600181527f17307eab39ab6107e8899845ad3d59bd9653f200f220920489ca2b5937696c3160203392a380f35b60249060405190630b61174360e31b82526004820152fd5b50346105f657806003193601126105f657602060ff60095416604051908152f35b9050346108f45760203660031901126108f45760043563ffffffff60e01b81168091036138ea5760209250637965db0b60e01b8114908115615b37575b5015158152f35b632483248360e11b811491508115615b51575b5038615b30565b6380ac58cd60e01b811491508115615b83575b8115615b72575b5038615b4a565b6301ffc9a760e01b14905038615b6b565b635b5e139f60e01b81149150615b64565b919082519283825260005b848110615bc0575050826000602080949584010152601f8019910116010190565b602081830181015184830182015201615b9f565b600435906001600160a01b03821682036110cc57565b602435906001600160a01b03821682036110cc57565b60c09060031901126110cc57600435906024359060443590606435906084359060a43590565b6001600160401b038111611d3957604052565b61016081019081106001600160401b03821117611d3957604052565b60c081019081106001600160401b03821117611d3957604052565b608081019081106001600160401b03821117611d3957604052565b602081019081106001600160401b03821117611d3957604052565b604081019081106001600160401b03821117611d3957604052565b90601f801991011681019081106001600160401b03821117611d3957604052565b6001600160401b038111611d395760051b60200190565b6004359060ff821682036110cc57565b359060ff821682036110cc57565b6001600160401b038111611d3957601f01601f191660200190565b929192615d3e82615d17565b91615d4c6040519384615cc1565b8294818452818301116110cc578281602093846000960137010152565b9080601f830112156110cc57816020615d8493359101615d32565b90565b90815180825260208080930193019160005b828110615da7575050505090565b835185529381019392810192600101615d99565b60609060031901126110cc576001600160a01b039060043582811681036110cc579160243590811681036110cc579060443590565b906006821015611d0d5752565b906101e0825182526020615e178185015182850190615df0565b6040840151604084016000905b8360048310615ec45750505050606084015190600060c085015b60028210615eac57505050506101c090615ea3608085015191610100928386015260a0860151610120908187015260c087015193610140948588015260e0880151151561016088015287015161018087015286015190806101a0870152850190615b94565b93015191015290565b828060019260ff875116815201940191019092615e3e565b8060019260ff865116815201930191019091615e24565b6024359081151582036110cc57565b6001600160a01b0316600090815260126020526040902090565b6001600160a01b0316600090815260136020526040902090565b6001600160a01b0316600090815260106020526040902090565b600754811015615f57576007600052600b602060002091020190600090565b634e487b7160e01b600052603260045260246000fd5b90600182811c92168015615f9d575b6020831014615f8757565b634e487b7160e01b600052602260045260246000fd5b91607f1691615f7c565b90604051918260008254615fba81615f6d565b9081845260209460019160018116908160001461602a5750600114615feb575b505050615fe992500383615cc1565b565b600090815285812095935091905b818310616012575050615fe99350820101388080615fda565b85548884018501529485019487945091830191615ff9565b92505050615fe994925060ff191682840152151560051b820101388080615fda565b1561605357565b60405162461bcd60e51b815260206004820152601060248201526f14185d5cd8589b194e881c185d5cd95960821b6044820152606490fd5b1561609257565b60405162461bcd60e51b81526020600482015260126024820152713737ba1027bbb732b91037b91020b236b4b760711b6044820152606490fd5b156160d357565b60405162461bcd60e51b815260206004820152602d60248201527f66756e6374696f6e2063616c6c61626c652066726f6d2074726561737572792060448201526c636f6e7472616374206f6e6c7960981b6064820152608490fd5b9061613882615ce2565b6161456040519182615cc1565b8281528092616156601f1991615ce2565b0190602036910137565b8051821015615f575760209160051b010190565b81811061617f575050565b60008155600101616174565b91909182516001600160401b038111611d39576161a88254615f6d565b601f8111616253575b50602080601f83116001146161ee5750819293946000926161e3575b50508160011b916000199060031b1c1916179055565b0151905038806161cd565b90601f19831695846000526020600020926000905b88821061623b57505083600195969710616222575b505050811b019055565b015160001960f88460031b161c19169055388080616218565b80600185968294968601518155019501930190616203565b61628090836000526020600020601f840160051c81019160208510616286575b601f0160051c0190616174565b386161b1565b9091508190616273565b60ff1660ff8114611cb95760010190565b156162a857565b60405162461bcd60e51b8152602060048201526024808201527f41757468436f6e74726f6c3a2043616c6c6572206973206e6f7420746865206f6044820152633bb732b960e11b6064820152608490fd5b6007546000198101908111611cb95790565b1561631257565b60405162461bcd60e51b815260206004820152600c60248201526b7a65726f206164647265737360a01b6044820152606490fd5b6001600160a01b03918216815291166020820152604081019190915260600190565b91908201809211611cb957565b1561637c57565b60405162461bcd60e51b815260206004820152601260248201527147656d73206973206e6f74206d696e696e6760701b6044820152606490fd5b9060ff801983541691151516179055565b6006821015611d0d5752565b9060ff60405192548181168452818160081c166020850152818160101c16604085015260181c166060830152615fe982615c70565b9060405161641581615c39565b610140600a82948054845261643460ff600183015416602086016163c7565b616440600282016163d3565b604085015260405160ff6003830154818116835260081c16602082015261646681615ca6565b606085015260048101546080850152600581015460a0850152600681015460c085015260ff600782015416151560e085015260088101546101008501526164af60098201615fa7565b6101208501520154910152565b908160209103126110cc575180151581036110cc5790565b6001600160a01b039091168152602081019190915260400190565b156164f657565b60405162461bcd60e51b81526020600482015260186024820152773330b4b632b2103a37903a3930b739b332b9103a37b5b2b760411b6044820152606490fd5b6000915b6002831061654757505050565b60019060ff8351168152602080910192019201919061653a565b6000915b6004831061657257505050565b60019060ff83511681526020809101920192019190616565565b336001600160a01b038216036129da576165a590616dd2565b50565b156165af57565b60405162461bcd60e51b815260206004820152602360248201527f41757468436f6e74726f6c3a2043616c6c6572206973206e6f7420612070617560448201526239b2b960e91b6064820152608490fd5b6000198114611cb95760010190565b60018060a01b038091166000918183526020916010602052604090604085205480156000146166535750505050506040519061664a82615c8b565b80825236813790565b6166629096959293949661612e565b9361666b6162f9565b938360015b868111156166845750959750505050505050565b808252600f8a5284848484205416146166a6575b6166a190616600565b616670565b946166bf81876166b96166a1948c616160565b52616600565b959050616698565b3360009081527f489cb750909c17c66c5ce6e12fc66200b1268a56adfccc87a74969633bf57069602052604090205460ff1690565b6001600160a01b03166000908152600080516020617217833981519152602052604090205460ff1690565b9060ff8091169116019060ff8211611cb957565b9081526001600160a01b03909116602082015260400190565b6000818152600260205260409020546001600160a01b0316908115616777575090565b60249060405190637e27328960e01b82526004820152fd5b906001600160a01b036167a183616754565b1633148015616837575b156167f357816167ea6020927ff8e1a15aba9398e019f0b49df1a4fde98ee17ae345cb5f6b5e2c27f5033e8ce79460005260068452604060002061618b565b604051908152a1565b60405162461bcd60e51b815260206004820152601c60248201527b6e6f7420616c6c6f77656420746f2073657420746f6b656e2055524960201b6044820152606490fd5b50336000908152600080516020617217833981519152602052604090205460ff1615156001146167ab565b8015611cb9576000190190565b80600052603a60205260406000203360005260205260ff60406000205416156168955750565b6044906040519063e2517d3f60e01b82523360048301526024820152fd5b6001600160a01b0316600081815260008051602061721783398151915260205260408120549091906000805160206172578339815191529060ff1661692b57808352603a6020526040832082845260205260408320600160ff198254161790556000805160206171f7833981519152339380a4600190565b505090565b6001600160a01b031660008181527fc3e7f7030e2b5e93229767c75293162bace57ab459b2158e709794c3a02a893260205260408120549091906000805160206172378339815191529060ff1661692b57808352603a6020526040832082845260205260408320600160ff198254161790556000805160206171f7833981519152339380a4600190565b90600091808352603a602052604083209160018060a01b03169182845260205260ff6040842054161560001461692b57808352603a6020526040832082845260205260408320600160ff198254161790556000805160206171f7833981519152339380a4600190565b90611d2357600a6000918281558260018201558260038201616a488160028501616174565b616a56600484018092616174565b558260058201558260068201558260078201558260088201558260098201616a7e8154615f6d565b80616a8b575b5050500155565b82601f8211600114616aa3575050555b823880616a84565b9091808252616ac1601f60208420940160051c840160018501616174565b5555616a9b565b6040805192616ad684615c8b565b60008085526001600160a01b0394848616949192918515616cb55782845260209660028852858520541683878215159283616c95575b81885260038b528888208054600101905582885260028b5288882080546001600160a01b031916831790556000805160206172778339815191528880a4616c7d573b616b5b575b505050505050565b85616b99918596979894955180938192630a85bd0160e11b968784523360048501528960248501526044840152608060648401526084830190615b94565b0381878a5af1849181616c3d575b50616c06575050503d600014616bfe573d616bc181615d17565b90616bce84519283615cc1565b81528091853d92013e5b80519384616bf8578251633250574960e11b815260048101859052602490fd5b84925001fd5b506060616bd8565b919550915063ffffffff60e01b1603616c26575050388080808080616b53565b602492505190633250574960e11b82526004820152fd5b9091508781813d8311616c76575b616c558183615cc1565b810103126111cc57516001600160e01b0319811681036111cc579038616ba7565b503d616c4b565b84516339e3563760e11b815260048101859052602490fd5b616c9e8361713d565b80885260038b528888208054600019019055616b0c565b8451633250574960e11b815260048101859052602490fd5b6001600160a01b031660008181527fc3e7f7030e2b5e93229767c75293162bace57ab459b2158e709794c3a02a893260205260408120549091906000805160206172378339815191529060ff161561692b57808352603a602052604083208284526020526040832060ff198154169055600080516020617297833981519152339380a4600190565b6001600160a01b031660008181527f489cb750909c17c66c5ce6e12fc66200b1268a56adfccc87a74969633bf57069602052604081205490919060ff1615616dce57818052603a602052604082208183526020526040822060ff19815416905533916000805160206172978339815191528180a4600190565b5090565b6001600160a01b0316600081815260008051602061721783398151915260205260408120549091906000805160206172578339815191529060ff161561692b57808352603a602052604083208284526020526040832060ff198154169055600080516020617297833981519152339380a4600190565b90600091808352603a602052604083209160018060a01b03169182845260205260ff60408420541660001461692b57808352603a602052604083208284526020526040832060ff198154169055600080516020617297833981519152339380a4600190565b9060ff809160031b9316831b921b19161790565b6001600160a01b03908282168015159081616f21575b5015616ee35750505050565b16616f0157604051637e27328960e01b815260048101839052602490fd5b616f1d60405192839263177e802f60e01b8452600484016164d4565b0390fd5b82841680821492508215616f59575b508115616f3f575b5038616ed7565b905084600052600460205282604060002054161438616f38565b909150600052600560205260406000208160005260205260ff604060002054169038616f30565b813b616f8d575b50505050565b604051630a85bd0160e11b8082523360048301526001600160a01b03928316602483015260448201949094526080606482015260209592909116939092908390616fdb906084830190615b94565b039285816000958187895af1849181617084575b5061704f575050503d600014617047573d61700981615d17565b906170176040519283615cc1565b81528091843d92013e5b8051928361704257604051633250574960e11b815260048101849052602490fd5b019050fd5b506060617021565b919450915063ffffffff60e01b160361706c575038808080616f87565b60249060405190633250574960e11b82526004820152fd5b9091508681813d83116170bd575b61709c8183615cc1565b810103126111cc57516001600160e01b0319811681036111cc579038616fef565b503d617092565b6000818152600260205260408120546001600160a01b03168015918391831561711b575b82825260026020526040822080546001600160a01b03191690556000805160206172778339815191528280a46167775750565b6171248361713d565b80825260036020526040822080546000190190556170e8565b600090815260046020526040902080546001600160a01b0319169055565b6006811015611d0d5780156171ee57600181146171e657600281146171de57600381146171d657600481146171ce576005146171c75760405162461bcd60e51b815260206004820152600e60248201526d496e76616c69642072617269747960901b6044820152606490fd5b6207e90090565b506206978090565b506205460090565b506203f48090565b506202a30090565b50620151809056fe2f8788117e7eff1d82e926ec794901d17c78024a50270940304540a733656f0daaf8c8a7989d91242822056a65a27834ab391db017cf998782abb499a10e90bdfcb9fcbfa83b897fb2d5cf4b58962164105c1e71489a37ef3ae0db3fdce576f6df8b4c520ffe197c5343c6f5aec59570151ef9a492f2c624fd45ddde6135ec42ddf252ad1be2c89b69c2b068fc378daa952ba7f163c4a11628f55a4df523b3eff6391f5c32d9c69d2a47ea670b442974b53935d1edc7fd64eb21e047a839171b5ea0402f9a8785c25ad31fd3e0e81f8c2b4ca231668cc82cd03fa34ea1f0ce3ca26469706673582212202d359659f165f573a3a68b53123ba0b700975429f1695fdcd6d70a1b8c6ee31464736f6c63430008190033",
  "linkReferences": {
    "src/libraries/ForgeLibrary.sol": {
      "ForgeLibrary": [
        {
          "length": 20,
          "start": 15105
        }
      ]
    }
  },
  "deployedLinkReferences": {
    "src/libraries/ForgeLibrary.sol": {
      "ForgeLibrary": [
        {
          "length": 20,
          "start": 14083
        }
      ]
    }
  }
}