{
  "_format": "hh-sol-artifact-1",
  "contractName": "GemFactory",
  "sourceName": "src/L2/GemFactory.sol",
  "abi": [
    {
      "inputs": [],
      "name": "AddressZero",
      "type": "error"
    },
    {
      "inputs": [],
      "name": "ColorNotExist",
      "type": "error"
    },
    {
      "inputs": [],
      "name": "CooldownPeriodNotElapsed",
      "type": "error"
    },
    {
      "inputs": [
        {
          "internalType": "address",
          "name": "sender",
          "type": "address"
        },
        {
          "internalType": "uint256",
          "name": "tokenId",
          "type": "uint256"
        },
        {
          "internalType": "address",
          "name": "owner",
          "type": "address"
        }
      ],
      "name": "ERC721IncorrectOwner",
      "type": "error"
    },
    {
      "inputs": [
        {
          "internalType": "address",
          "name": "operator",
          "type": "address"
        },
        {
          "internalType": "uint256",
          "name": "tokenId",
          "type": "uint256"
        }
      ],
      "name": "ERC721InsufficientApproval",
      "type": "error"
    },
    {
      "inputs": [
        {
          "internalType": "address",
          "name": "approver",
          "type": "address"
        }
      ],
      "name": "ERC721InvalidApprover",
      "type": "error"
    },
    {
      "inputs": [
        {
          "internalType": "address",
          "name": "operator",
          "type": "address"
        }
      ],
      "name": "ERC721InvalidOperator",
      "type": "error"
    },
    {
      "inputs": [
        {
          "internalType": "address",
          "name": "owner",
          "type": "address"
        }
      ],
      "name": "ERC721InvalidOwner",
      "type": "error"
    },
    {
      "inputs": [
        {
          "internalType": "address",
          "name": "receiver",
          "type": "address"
        }
      ],
      "name": "ERC721InvalidReceiver",
      "type": "error"
    },
    {
      "inputs": [
        {
          "internalType": "address",
          "name": "sender",
          "type": "address"
        }
      ],
      "name": "ERC721InvalidSender",
      "type": "error"
    },
    {
      "inputs": [
        {
          "internalType": "uint256",
          "name": "tokenId",
          "type": "uint256"
        }
      ],
      "name": "ERC721NonexistentToken",
      "type": "error"
    },
    {
      "inputs": [],
      "name": "FailedToSendEthBack",
      "type": "error"
    },
    {
      "inputs": [],
      "name": "GemAlreadyPicked",
      "type": "error"
    },
    {
      "inputs": [],
      "name": "GemIsLocked",
      "type": "error"
    },
    {
      "inputs": [],
      "name": "GemIsNotLocked",
      "type": "error"
    },
    {
      "inputs": [],
      "name": "InvalidInitialization",
      "type": "error"
    },
    {
      "inputs": [
        {
          "internalType": "uint8",
          "name": "quadrant",
          "type": "uint8"
        },
        {
          "internalType": "uint8",
          "name": "value",
          "type": "uint8"
        }
      ],
      "name": "InvalidQuadrant",
      "type": "error"
    },
    {
      "inputs": [],
      "name": "InvalidSumOfQuadrants",
      "type": "error"
    },
    {
      "inputs": [],
      "name": "MiningPeriodNotElapsed",
      "type": "error"
    },
    {
      "inputs": [],
      "name": "MismatchedArrayLengths",
      "type": "error"
    },
    {
      "inputs": [
        {
          "internalType": "uint8",
          "name": "quadrantIndex",
          "type": "uint8"
        },
        {
          "internalType": "uint8",
          "name": "expectedValue1",
          "type": "uint8"
        },
        {
          "internalType": "uint8",
          "name": "expectedValue2",
          "type": "uint8"
        }
      ],
      "name": "NewGemInvalidQuadrant",
      "type": "error"
    },
    {
      "inputs": [],
      "name": "NoMiningTryLeft",
      "type": "error"
    },
    {
      "inputs": [],
      "name": "NotGemOwner",
      "type": "error"
    },
    {
      "inputs": [],
      "name": "NotInitializing",
      "type": "error"
    },
    {
      "inputs": [],
      "name": "NotMining",
      "type": "error"
    },
    {
      "inputs": [
        {
          "internalType": "address",
          "name": "owner",
          "type": "address"
        }
      ],
      "name": "OwnableInvalidOwner",
      "type": "error"
    },
    {
      "inputs": [
        {
          "internalType": "address",
          "name": "account",
          "type": "address"
        }
      ],
      "name": "OwnableUnauthorizedAccount",
      "type": "error"
    },
    {
      "inputs": [],
      "name": "ReentrancyGuardReentrantCall",
      "type": "error"
    },
    {
      "inputs": [],
      "name": "RequestNotMade",
      "type": "error"
    },
    {
      "inputs": [],
      "name": "SameSenderAndRecipient",
      "type": "error"
    },
    {
      "inputs": [
        {
          "internalType": "uint8",
          "name": "sum",
          "type": "uint8"
        },
        {
          "internalType": "string",
          "name": "rarity",
          "type": "string"
        }
      ],
      "name": "SumOfQuadrantsTooHigh",
      "type": "error"
    },
    {
      "inputs": [],
      "name": "TransferFailed",
      "type": "error"
    },
    {
      "inputs": [],
      "name": "WrongRarity",
      "type": "error"
    },
    {
      "anonymous": false,
      "inputs": [
        {
          "indexed": true,
          "internalType": "address",
          "name": "owner",
          "type": "address"
        },
        {
          "indexed": true,
          "internalType": "address",
          "name": "approved",
          "type": "address"
        },
        {
          "indexed": true,
          "internalType": "uint256",
          "name": "tokenId",
          "type": "uint256"
        }
      ],
      "name": "Approval",
      "type": "event"
    },
    {
      "anonymous": false,
      "inputs": [
        {
          "indexed": true,
          "internalType": "address",
          "name": "owner",
          "type": "address"
        },
        {
          "indexed": true,
          "internalType": "address",
          "name": "operator",
          "type": "address"
        },
        {
          "indexed": false,
          "internalType": "bool",
          "name": "approved",
          "type": "bool"
        }
      ],
      "name": "ApprovalForAll",
      "type": "event"
    },
    {
      "anonymous": false,
      "inputs": [
        {
          "indexed": true,
          "internalType": "uint8",
          "name": "id",
          "type": "uint8"
        },
        {
          "indexed": false,
          "internalType": "string",
          "name": "backgroundColor",
          "type": "string"
        }
      ],
      "name": "BackgroundColorAdded",
      "type": "event"
    },
    {
      "anonymous": false,
      "inputs": [
        {
          "indexed": false,
          "internalType": "uint256",
          "name": "_fromTokenId",
          "type": "uint256"
        },
        {
          "indexed": false,
          "internalType": "uint256",
          "name": "_toTokenId",
          "type": "uint256"
        }
      ],
      "name": "BatchMetadataUpdate",
      "type": "event"
    },
    {
      "anonymous": false,
      "inputs": [
        {
          "indexed": true,
          "internalType": "uint8",
          "name": "id",
          "type": "uint8"
        },
        {
          "indexed": false,
          "internalType": "string",
          "name": "color",
          "type": "string"
        }
      ],
      "name": "ColorAdded",
      "type": "event"
    },
    {
      "anonymous": false,
      "inputs": [
        {
          "indexed": false,
          "internalType": "uint8",
          "name": "color_0",
          "type": "uint8"
        },
        {
          "indexed": false,
          "internalType": "uint8",
          "name": "color_1",
          "type": "uint8"
        }
      ],
      "name": "ColorValidated",
      "type": "event"
    },
    {
      "anonymous": false,
      "inputs": [
        {
          "indexed": false,
          "internalType": "uint256",
          "name": "gemCount",
          "type": "uint256"
        },
        {
          "indexed": false,
          "internalType": "uint256[]",
          "name": "tokenIds",
          "type": "uint256[]"
        }
      ],
      "name": "CountGemsByQuadrant",
      "type": "event"
    },
    {
      "anonymous": false,
      "inputs": [
        {
          "indexed": true,
          "internalType": "uint256",
          "name": "tokenId",
          "type": "uint256"
        },
        {
          "indexed": false,
          "internalType": "enum GemFactoryStorage.Rarity",
          "name": "rarity",
          "type": "uint8"
        },
        {
          "indexed": false,
          "internalType": "uint8[2]",
          "name": "color",
          "type": "uint8[2]"
        },
        {
          "indexed": false,
          "internalType": "uint256",
          "name": "value",
          "type": "uint256"
        },
        {
          "indexed": false,
          "internalType": "uint8[4]",
          "name": "quadrants",
          "type": "uint8[4]"
        },
        {
          "indexed": false,
          "internalType": "uint32",
          "name": "miningPeriod",
          "type": "uint32"
        },
        {
          "indexed": false,
          "internalType": "uint256",
          "name": "cooldownDueDate",
          "type": "uint256"
        },
        {
          "indexed": false,
          "internalType": "string",
          "name": "tokenURI",
          "type": "string"
        },
        {
          "indexed": false,
          "internalType": "address",
          "name": "owner",
          "type": "address"
        }
      ],
      "name": "Created",
      "type": "event"
    },
    {
      "anonymous": false,
      "inputs": [
        {
          "indexed": false,
          "internalType": "uint256",
          "name": "amount",
          "type": "uint256"
        }
      ],
      "name": "EthSentBack",
      "type": "event"
    },
    {
      "anonymous": false,
      "inputs": [
        {
          "indexed": false,
          "internalType": "address",
          "name": "gemOwner",
          "type": "address"
        },
        {
          "indexed": false,
          "internalType": "uint256[]",
          "name": "gemsTokenIds",
          "type": "uint256[]"
        },
        {
          "indexed": false,
          "internalType": "uint256",
          "name": "newGemCreatedId",
          "type": "uint256"
        },
        {
          "indexed": false,
          "internalType": "enum GemFactoryStorage.Rarity",
          "name": "newRarity",
          "type": "uint8"
        },
        {
          "indexed": false,
          "internalType": "uint8[4]",
          "name": "forgedQuadrants",
          "type": "uint8[4]"
        },
        {
          "indexed": false,
          "internalType": "uint8[2]",
          "name": "color",
          "type": "uint8[2]"
        },
        {
          "indexed": false,
          "internalType": "uint256",
          "name": "newValue",
          "type": "uint256"
        }
      ],
      "name": "GemForged",
      "type": "event"
    },
    {
      "anonymous": false,
      "inputs": [
        {
          "indexed": false,
          "internalType": "uint256",
          "name": "_tokenId",
          "type": "uint256"
        },
        {
          "indexed": false,
          "internalType": "address",
          "name": "_from",
          "type": "address"
        }
      ],
      "name": "GemMelted",
      "type": "event"
    },
    {
      "anonymous": false,
      "inputs": [
        {
          "indexed": false,
          "internalType": "uint256",
          "name": "tokenId",
          "type": "uint256"
        },
        {
          "indexed": false,
          "internalType": "address",
          "name": "miner",
          "type": "address"
        }
      ],
      "name": "GemMiningClaimed",
      "type": "event"
    },
    {
      "anonymous": false,
      "inputs": [
        {
          "indexed": false,
          "internalType": "uint256",
          "name": "tokenId",
          "type": "uint256"
        },
        {
          "indexed": false,
          "internalType": "address",
          "name": "miner",
          "type": "address"
        },
        {
          "indexed": false,
          "internalType": "uint256",
          "name": "startMiningTime",
          "type": "uint256"
        },
        {
          "indexed": false,
          "internalType": "uint256",
          "name": "newminingTry",
          "type": "uint256"
        }
      ],
      "name": "GemMiningStarted",
      "type": "event"
    },
    {
      "anonymous": false,
      "inputs": [
        {
          "indexed": false,
          "internalType": "uint32",
          "name": "RareGemsCooldownPeriod",
          "type": "uint32"
        },
        {
          "indexed": false,
          "internalType": "uint32",
          "name": "UniqueGemsCooldownPeriod",
          "type": "uint32"
        },
        {
          "indexed": false,
          "internalType": "uint32",
          "name": "EpicGemsCooldownPeriod",
          "type": "uint32"
        },
        {
          "indexed": false,
          "internalType": "uint32",
          "name": "LegendaryGemsCooldownPeriod",
          "type": "uint32"
        },
        {
          "indexed": false,
          "internalType": "uint32",
          "name": "MythicGemsCooldownPeriod",
          "type": "uint32"
        }
      ],
      "name": "GemsCoolDownPeriodModified",
      "type": "event"
    },
    {
      "anonymous": false,
      "inputs": [
        {
          "indexed": false,
          "internalType": "uint32",
          "name": "RareGemsMiningPeriod",
          "type": "uint32"
        },
        {
          "indexed": false,
          "internalType": "uint32",
          "name": "UniqueGemsMiningPeriod",
          "type": "uint32"
        },
        {
          "indexed": false,
          "internalType": "uint32",
          "name": "EpicGemsMiningPeriod",
          "type": "uint32"
        },
        {
          "indexed": false,
          "internalType": "uint32",
          "name": "LegendaryGemsMiningPeriod",
          "type": "uint32"
        },
        {
          "indexed": false,
          "internalType": "uint32",
          "name": "MythicGemsMiningPeriod",
          "type": "uint32"
        }
      ],
      "name": "GemsMiningPeriodModified",
      "type": "event"
    },
    {
      "anonymous": false,
      "inputs": [
        {
          "indexed": false,
          "internalType": "uint8",
          "name": "RareGemsMiningTry",
          "type": "uint8"
        },
        {
          "indexed": false,
          "internalType": "uint8",
          "name": "UniqueGemsMiningTry",
          "type": "uint8"
        },
        {
          "indexed": false,
          "internalType": "uint8",
          "name": "EpicGemsMiningTry",
          "type": "uint8"
        },
        {
          "indexed": false,
          "internalType": "uint8",
          "name": "LegendaryGemsMiningTry",
          "type": "uint8"
        },
        {
          "indexed": false,
          "internalType": "uint8",
          "name": "MythicGemsMiningTry",
          "type": "uint8"
        }
      ],
      "name": "GemsMiningTryModified",
      "type": "event"
    },
    {
      "anonymous": false,
      "inputs": [
        {
          "indexed": false,
          "internalType": "uint256",
          "name": "CommonGemsValue",
          "type": "uint256"
        },
        {
          "indexed": false,
          "internalType": "uint256",
          "name": "RareGemsValue",
          "type": "uint256"
        },
        {
          "indexed": false,
          "internalType": "uint256",
          "name": "UniqueGemsValue",
          "type": "uint256"
        },
        {
          "indexed": false,
          "internalType": "uint256",
          "name": "EpicGemsValue",
          "type": "uint256"
        },
        {
          "indexed": false,
          "internalType": "uint256",
          "name": "LegendaryValue",
          "type": "uint256"
        },
        {
          "indexed": false,
          "internalType": "uint256",
          "name": "MythicValue",
          "type": "uint256"
        }
      ],
      "name": "GemsValueModified",
      "type": "event"
    },
    {
      "anonymous": false,
      "inputs": [
        {
          "indexed": false,
          "internalType": "uint64",
          "name": "version",
          "type": "uint64"
        }
      ],
      "name": "Initialized",
      "type": "event"
    },
    {
      "anonymous": false,
      "inputs": [
        {
          "indexed": false,
          "internalType": "uint256",
          "name": "_tokenId",
          "type": "uint256"
        }
      ],
      "name": "MetadataUpdate",
      "type": "event"
    },
    {
      "anonymous": false,
      "inputs": [
        {
          "indexed": false,
          "internalType": "uint256",
          "name": "_tokenId",
          "type": "uint256"
        },
        {
          "indexed": false,
          "internalType": "address",
          "name": "owner",
          "type": "address"
        },
        {
          "indexed": false,
          "internalType": "uint256",
          "name": "timestamp",
          "type": "uint256"
        }
      ],
      "name": "MiningCancelled",
      "type": "event"
    },
    {
      "anonymous": false,
      "inputs": [
        {
          "indexed": false,
          "internalType": "uint256",
          "name": "tokenId",
          "type": "uint256"
        }
      ],
      "name": "NoGemAvailable",
      "type": "event"
    },
    {
      "anonymous": false,
      "inputs": [
        {
          "indexed": true,
          "internalType": "address",
          "name": "previousOwner",
          "type": "address"
        },
        {
          "indexed": true,
          "internalType": "address",
          "name": "newOwner",
          "type": "address"
        }
      ],
      "name": "OwnershipTransferred",
      "type": "event"
    },
    {
      "anonymous": false,
      "inputs": [
        {
          "indexed": false,
          "internalType": "address",
          "name": "account",
          "type": "address"
        }
      ],
      "name": "Paused",
      "type": "event"
    },
    {
      "anonymous": false,
      "inputs": [
        {
          "indexed": false,
          "internalType": "uint256",
          "name": "tokenId",
          "type": "uint256"
        },
        {
          "indexed": false,
          "internalType": "uint256",
          "name": "requestNumber",
          "type": "uint256"
        }
      ],
      "name": "RandomGemRequested",
      "type": "event"
    },
    {
      "anonymous": false,
      "inputs": [
        {
          "indexed": true,
          "internalType": "address",
          "name": "from",
          "type": "address"
        },
        {
          "indexed": true,
          "internalType": "address",
          "name": "to",
          "type": "address"
        },
        {
          "indexed": true,
          "internalType": "uint256",
          "name": "tokenId",
          "type": "uint256"
        }
      ],
      "name": "Transfer",
      "type": "event"
    },
    {
      "anonymous": false,
      "inputs": [
        {
          "indexed": false,
          "internalType": "address",
          "name": "from",
          "type": "address"
        },
        {
          "indexed": false,
          "internalType": "address",
          "name": "to",
          "type": "address"
        },
        {
          "indexed": false,
          "internalType": "uint256",
          "name": "tokenId",
          "type": "uint256"
        }
      ],
      "name": "TransferGEM",
      "type": "event"
    },
    {
      "anonymous": false,
      "inputs": [
        {
          "indexed": false,
          "internalType": "address",
          "name": "account",
          "type": "address"
        }
      ],
      "name": "Unpaused",
      "type": "event"
    },
    {
      "inputs": [],
      "name": "CALLBACK_GAS_LIMIT",
      "outputs": [
        {
          "internalType": "uint32",
          "name": "",
          "type": "uint32"
        }
      ],
      "stateMutability": "view",
      "type": "function"
    },
    {
      "inputs": [
        {
          "internalType": "uint256",
          "name": "",
          "type": "uint256"
        }
      ],
      "name": "GEMIndexToOwner",
      "outputs": [
        {
          "internalType": "address",
          "name": "",
          "type": "address"
        }
      ],
      "stateMutability": "view",
      "type": "function"
    },
    {
      "inputs": [
        {
          "internalType": "uint256",
          "name": "",
          "type": "uint256"
        }
      ],
      "name": "Gems",
      "outputs": [
        {
          "internalType": "uint256",
          "name": "tokenId",
          "type": "uint256"
        },
        {
          "internalType": "uint256",
          "name": "value",
          "type": "uint256"
        },
        {
          "internalType": "uint256",
          "name": "gemCooldownPeriod",
          "type": "uint256"
        },
        {
          "internalType": "uint256",
          "name": "randomRequestId",
          "type": "uint256"
        },
        {
          "internalType": "enum GemFactoryStorage.Rarity",
          "name": "rarity",
          "type": "uint8"
        },
        {
          "internalType": "uint32",
          "name": "miningPeriod",
          "type": "uint32"
        },
        {
          "internalType": "uint8",
          "name": "miningTry",
          "type": "uint8"
        },
        {
          "internalType": "bool",
          "name": "isLocked",
          "type": "bool"
        },
        {
          "internalType": "string",
          "name": "tokenURI",
          "type": "string"
        }
      ],
      "stateMutability": "view",
      "type": "function"
    },
    {
      "inputs": [
        {
          "internalType": "string",
          "name": "_colorName",
          "type": "string"
        },
        {
          "internalType": "uint8",
          "name": "_index1",
          "type": "uint8"
        },
        {
          "internalType": "uint8",
          "name": "_index2",
          "type": "uint8"
        }
      ],
      "name": "addColor",
      "outputs": [],
      "stateMutability": "nonpayable",
      "type": "function"
    },
    {
      "inputs": [
        {
          "internalType": "address",
          "name": "",
          "type": "address"
        }
      ],
      "name": "aliveImplementation",
      "outputs": [
        {
          "internalType": "bool",
          "name": "",
          "type": "bool"
        }
      ],
      "stateMutability": "view",
      "type": "function"
    },
    {
      "inputs": [
        {
          "internalType": "address",
          "name": "to",
          "type": "address"
        },
        {
          "internalType": "uint256",
          "name": "tokenId",
          "type": "uint256"
        }
      ],
      "name": "approve",
      "outputs": [],
      "stateMutability": "nonpayable",
      "type": "function"
    },
    {
      "inputs": [
        {
          "internalType": "address",
          "name": "_owner",
          "type": "address"
        }
      ],
      "name": "balanceOf",
      "outputs": [
        {
          "internalType": "uint256",
          "name": "count",
          "type": "uint256"
        }
      ],
      "stateMutability": "view",
      "type": "function"
    },
    {
      "inputs": [
        {
          "internalType": "uint8",
          "name": "",
          "type": "uint8"
        },
        {
          "internalType": "uint8",
          "name": "",
          "type": "uint8"
        }
      ],
      "name": "colorName",
      "outputs": [
        {
          "internalType": "string",
          "name": "",
          "type": "string"
        }
      ],
      "stateMutability": "view",
      "type": "function"
    },
    {
      "inputs": [
        {
          "internalType": "uint256",
          "name": "",
          "type": "uint256"
        },
        {
          "internalType": "uint256",
          "name": "",
          "type": "uint256"
        }
      ],
      "name": "colors",
      "outputs": [
        {
          "internalType": "uint8",
          "name": "",
          "type": "uint8"
        }
      ],
      "stateMutability": "view",
      "type": "function"
    },
    {
      "inputs": [],
      "name": "colorsCount",
      "outputs": [
        {
          "internalType": "uint8",
          "name": "",
          "type": "uint8"
        }
      ],
      "stateMutability": "view",
      "type": "function"
    },
    {
      "inputs": [
        {
          "internalType": "enum GemFactoryStorage.Rarity",
          "name": "_rarity",
          "type": "uint8"
        },
        {
          "internalType": "uint8[2]",
          "name": "_color",
          "type": "uint8[2]"
        },
        {
          "internalType": "uint8[4]",
          "name": "_quadrants",
          "type": "uint8[4]"
        },
        {
          "internalType": "string",
          "name": "_tokenURI",
          "type": "string"
        }
      ],
      "name": "createGEM",
      "outputs": [
        {
          "internalType": "uint256",
          "name": "",
          "type": "uint256"
        }
      ],
      "stateMutability": "nonpayable",
      "type": "function"
    },
    {
      "inputs": [
        {
          "internalType": "enum GemFactoryStorage.Rarity[]",
          "name": "_rarities",
          "type": "uint8[]"
        },
        {
          "internalType": "uint8[2][]",
          "name": "_colors",
          "type": "uint8[2][]"
        },
        {
          "internalType": "uint8[4][]",
          "name": "_quadrants",
          "type": "uint8[4][]"
        },
        {
          "internalType": "string[]",
          "name": "_tokenURIs",
          "type": "string[]"
        }
      ],
      "name": "createGEMPool",
      "outputs": [
        {
          "internalType": "uint256[]",
          "name": "",
          "type": "uint256[]"
        }
      ],
      "stateMutability": "nonpayable",
      "type": "function"
    },
    {
      "inputs": [],
      "name": "getAirdropAddress",
      "outputs": [
        {
          "internalType": "address",
          "name": "",
          "type": "address"
        }
      ],
      "stateMutability": "view",
      "type": "function"
    },
    {
      "inputs": [
        {
          "internalType": "uint256",
          "name": "tokenId",
          "type": "uint256"
        }
      ],
      "name": "getApproved",
      "outputs": [
        {
          "internalType": "address",
          "name": "",
          "type": "address"
        }
      ],
      "stateMutability": "view",
      "type": "function"
    },
    {
      "inputs": [
        {
          "internalType": "uint8",
          "name": "_index1",
          "type": "uint8"
        },
        {
          "internalType": "uint8",
          "name": "_index2",
          "type": "uint8"
        }
      ],
      "name": "getColorName",
      "outputs": [
        {
          "internalType": "string",
          "name": "",
          "type": "string"
        }
      ],
      "stateMutability": "view",
      "type": "function"
    },
    {
      "inputs": [],
      "name": "getCommonGemsValue",
      "outputs": [
        {
          "internalType": "uint256",
          "name": "",
          "type": "uint256"
        }
      ],
      "stateMutability": "view",
      "type": "function"
    },
    {
      "inputs": [],
      "name": "getEpicGemsCooldownPeriod",
      "outputs": [
        {
          "internalType": "uint32",
          "name": "",
          "type": "uint32"
        }
      ],
      "stateMutability": "view",
      "type": "function"
    },
    {
      "inputs": [],
      "name": "getEpicGemsMiningPeriod",
      "outputs": [
        {
          "internalType": "uint32",
          "name": "",
          "type": "uint32"
        }
      ],
      "stateMutability": "view",
      "type": "function"
    },
    {
      "inputs": [],
      "name": "getEpicGemsValue",
      "outputs": [
        {
          "internalType": "uint256",
          "name": "",
          "type": "uint256"
        }
      ],
      "stateMutability": "view",
      "type": "function"
    },
    {
      "inputs": [],
      "name": "getEpicminingTry",
      "outputs": [
        {
          "internalType": "uint8",
          "name": "",
          "type": "uint8"
        }
      ],
      "stateMutability": "view",
      "type": "function"
    },
    {
      "inputs": [
        {
          "internalType": "uint256",
          "name": "tokenId",
          "type": "uint256"
        }
      ],
      "name": "getGem",
      "outputs": [
        {
          "components": [
            {
              "internalType": "uint256",
              "name": "tokenId",
              "type": "uint256"
            },
            {
              "internalType": "uint256",
              "name": "value",
              "type": "uint256"
            },
            {
              "internalType": "uint256",
              "name": "gemCooldownPeriod",
              "type": "uint256"
            },
            {
              "internalType": "uint256",
              "name": "randomRequestId",
              "type": "uint256"
            },
            {
              "internalType": "enum GemFactoryStorage.Rarity",
              "name": "rarity",
              "type": "uint8"
            },
            {
              "internalType": "uint32",
              "name": "miningPeriod",
              "type": "uint32"
            },
            {
              "internalType": "uint8",
              "name": "miningTry",
              "type": "uint8"
            },
            {
              "internalType": "bool",
              "name": "isLocked",
              "type": "bool"
            },
            {
              "internalType": "uint8[4]",
              "name": "quadrants",
              "type": "uint8[4]"
            },
            {
              "internalType": "uint8[2]",
              "name": "color",
              "type": "uint8[2]"
            },
            {
              "internalType": "string",
              "name": "tokenURI",
              "type": "string"
            }
          ],
          "internalType": "struct GemFactoryStorage.Gem",
          "name": "",
          "type": "tuple"
        }
      ],
      "stateMutability": "view",
      "type": "function"
    },
    {
      "inputs": [],
      "name": "getGemListAvailableForRandomPack",
      "outputs": [
        {
          "internalType": "uint256",
          "name": "",
          "type": "uint256"
        },
        {
          "internalType": "uint256[]",
          "name": "",
          "type": "uint256[]"
        }
      ],
      "stateMutability": "view",
      "type": "function"
    },
    {
      "inputs": [],
      "name": "getGemsSupplyTotalValue",
      "outputs": [
        {
          "internalType": "uint256",
          "name": "totalValue",
          "type": "uint256"
        }
      ],
      "stateMutability": "view",
      "type": "function"
    },
    {
      "inputs": [],
      "name": "getLegendaryGemsCooldownPeriod",
      "outputs": [
        {
          "internalType": "uint32",
          "name": "",
          "type": "uint32"
        }
      ],
      "stateMutability": "view",
      "type": "function"
    },
    {
      "inputs": [],
      "name": "getLegendaryGemsMiningPeriod",
      "outputs": [
        {
          "internalType": "uint32",
          "name": "",
          "type": "uint32"
        }
      ],
      "stateMutability": "view",
      "type": "function"
    },
    {
      "inputs": [],
      "name": "getLegendaryGemsValue",
      "outputs": [
        {
          "internalType": "uint256",
          "name": "",
          "type": "uint256"
        }
      ],
      "stateMutability": "view",
      "type": "function"
    },
    {
      "inputs": [],
      "name": "getLegendaryminingTry",
      "outputs": [
        {
          "internalType": "uint8",
          "name": "",
          "type": "uint8"
        }
      ],
      "stateMutability": "view",
      "type": "function"
    },
    {
      "inputs": [],
      "name": "getMarketPlaceAddress",
      "outputs": [
        {
          "internalType": "address",
          "name": "",
          "type": "address"
        }
      ],
      "stateMutability": "view",
      "type": "function"
    },
    {
      "inputs": [],
      "name": "getMythicGemsCooldownPeriod",
      "outputs": [
        {
          "internalType": "uint32",
          "name": "",
          "type": "uint32"
        }
      ],
      "stateMutability": "view",
      "type": "function"
    },
    {
      "inputs": [],
      "name": "getMythicGemsMiningPeriod",
      "outputs": [
        {
          "internalType": "uint32",
          "name": "",
          "type": "uint32"
        }
      ],
      "stateMutability": "view",
      "type": "function"
    },
    {
      "inputs": [],
      "name": "getMythicGemsValue",
      "outputs": [
        {
          "internalType": "uint256",
          "name": "",
          "type": "uint256"
        }
      ],
      "stateMutability": "view",
      "type": "function"
    },
    {
      "inputs": [],
      "name": "getMythicminingTry",
      "outputs": [
        {
          "internalType": "uint8",
          "name": "",
          "type": "uint8"
        }
      ],
      "stateMutability": "view",
      "type": "function"
    },
    {
      "inputs": [
        {
          "internalType": "address",
          "name": "_user",
          "type": "address"
        }
      ],
      "name": "getOwnershipTokenCount",
      "outputs": [
        {
          "internalType": "uint256",
          "name": "",
          "type": "uint256"
        }
      ],
      "stateMutability": "view",
      "type": "function"
    },
    {
      "inputs": [
        {
          "internalType": "uint256",
          "name": "_requestId",
          "type": "uint256"
        }
      ],
      "name": "getRandomRequest",
      "outputs": [
        {
          "components": [
            {
              "internalType": "uint256",
              "name": "tokenId",
              "type": "uint256"
            },
            {
              "internalType": "uint256",
              "name": "randomWord",
              "type": "uint256"
            },
            {
              "internalType": "uint256",
              "name": "chosenTokenId",
              "type": "uint256"
            },
            {
              "internalType": "address",
              "name": "requester",
              "type": "address"
            },
            {
              "internalType": "bool",
              "name": "requested",
              "type": "bool"
            },
            {
              "internalType": "bool",
              "name": "fulfilled",
              "type": "bool"
            }
          ],
          "internalType": "struct GemFactoryStorage.RequestStatus",
          "name": "",
          "type": "tuple"
        }
      ],
      "stateMutability": "view",
      "type": "function"
    },
    {
      "inputs": [],
      "name": "getRareGemsCooldownPeriod",
      "outputs": [
        {
          "internalType": "uint32",
          "name": "",
          "type": "uint32"
        }
      ],
      "stateMutability": "view",
      "type": "function"
    },
    {
      "inputs": [],
      "name": "getRareGemsMiningPeriod",
      "outputs": [
        {
          "internalType": "uint32",
          "name": "",
          "type": "uint32"
        }
      ],
      "stateMutability": "view",
      "type": "function"
    },
    {
      "inputs": [],
      "name": "getRareGemsValue",
      "outputs": [
        {
          "internalType": "uint256",
          "name": "",
          "type": "uint256"
        }
      ],
      "stateMutability": "view",
      "type": "function"
    },
    {
      "inputs": [],
      "name": "getRareminingTry",
      "outputs": [
        {
          "internalType": "uint8",
          "name": "",
          "type": "uint8"
        }
      ],
      "stateMutability": "view",
      "type": "function"
    },
    {
      "inputs": [],
      "name": "getRequestCount",
      "outputs": [
        {
          "internalType": "uint256",
          "name": "",
          "type": "uint256"
        }
      ],
      "stateMutability": "view",
      "type": "function"
    },
    {
      "inputs": [],
      "name": "getRequestIds",
      "outputs": [
        {
          "internalType": "uint256[]",
          "name": "",
          "type": "uint256[]"
        }
      ],
      "stateMutability": "view",
      "type": "function"
    },
    {
      "inputs": [],
      "name": "getTonAddress",
      "outputs": [
        {
          "internalType": "address",
          "name": "",
          "type": "address"
        }
      ],
      "stateMutability": "view",
      "type": "function"
    },
    {
      "inputs": [],
      "name": "getTreasuryAddress",
      "outputs": [
        {
          "internalType": "address",
          "name": "",
          "type": "address"
        }
      ],
      "stateMutability": "view",
      "type": "function"
    },
    {
      "inputs": [],
      "name": "getUniqueGemsCooldownPeriod",
      "outputs": [
        {
          "internalType": "uint32",
          "name": "",
          "type": "uint32"
        }
      ],
      "stateMutability": "view",
      "type": "function"
    },
    {
      "inputs": [],
      "name": "getUniqueGemsMiningPeriod",
      "outputs": [
        {
          "internalType": "uint32",
          "name": "",
          "type": "uint32"
        }
      ],
      "stateMutability": "view",
      "type": "function"
    },
    {
      "inputs": [],
      "name": "getUniqueGemsValue",
      "outputs": [
        {
          "internalType": "uint256",
          "name": "",
          "type": "uint256"
        }
      ],
      "stateMutability": "view",
      "type": "function"
    },
    {
      "inputs": [],
      "name": "getUniqueminingTry",
      "outputs": [
        {
          "internalType": "uint8",
          "name": "",
          "type": "uint8"
        }
      ],
      "stateMutability": "view",
      "type": "function"
    },
    {
      "inputs": [
        {
          "internalType": "enum GemFactoryStorage.Rarity",
          "name": "_rarity",
          "type": "uint8"
        }
      ],
      "name": "getValueBasedOnRarity",
      "outputs": [
        {
          "internalType": "uint256",
          "name": "value",
          "type": "uint256"
        }
      ],
      "stateMutability": "view",
      "type": "function"
    },
    {
      "inputs": [],
      "name": "getWstonAddress",
      "outputs": [
        {
          "internalType": "address",
          "name": "",
          "type": "address"
        }
      ],
      "stateMutability": "view",
      "type": "function"
    },
    {
      "inputs": [
        {
          "internalType": "address",
          "name": "_owner",
          "type": "address"
        },
        {
          "internalType": "address",
          "name": "_wston",
          "type": "address"
        },
        {
          "internalType": "address",
          "name": "_ton",
          "type": "address"
        },
        {
          "internalType": "address",
          "name": "_treasury",
          "type": "address"
        }
      ],
      "name": "initialize",
      "outputs": [],
      "stateMutability": "nonpayable",
      "type": "function"
    },
    {
      "inputs": [
        {
          "internalType": "address",
          "name": "owner",
          "type": "address"
        },
        {
          "internalType": "address",
          "name": "operator",
          "type": "address"
        }
      ],
      "name": "isApprovedForAll",
      "outputs": [
        {
          "internalType": "bool",
          "name": "",
          "type": "bool"
        }
      ],
      "stateMutability": "view",
      "type": "function"
    },
    {
      "inputs": [
        {
          "internalType": "uint256",
          "name": "_tokenId",
          "type": "uint256"
        }
      ],
      "name": "isTokenLocked",
      "outputs": [
        {
          "internalType": "bool",
          "name": "",
          "type": "bool"
        }
      ],
      "stateMutability": "view",
      "type": "function"
    },
    {
      "inputs": [
        {
          "internalType": "uint256",
          "name": "_tokenId",
          "type": "uint256"
        }
      ],
      "name": "meltGEM",
      "outputs": [],
      "stateMutability": "nonpayable",
      "type": "function"
    },
    {
      "inputs": [],
      "name": "name",
      "outputs": [
        {
          "internalType": "string",
          "name": "",
          "type": "string"
        }
      ],
      "stateMutability": "view",
      "type": "function"
    },
    {
      "inputs": [],
      "name": "owner",
      "outputs": [
        {
          "internalType": "address",
          "name": "",
          "type": "address"
        }
      ],
      "stateMutability": "view",
      "type": "function"
    },
    {
      "inputs": [
        {
          "internalType": "uint256",
          "name": "tokenId",
          "type": "uint256"
        }
      ],
      "name": "ownerOf",
      "outputs": [
        {
          "internalType": "address",
          "name": "",
          "type": "address"
        }
      ],
      "stateMutability": "view",
      "type": "function"
    },
    {
      "inputs": [
        {
          "internalType": "address",
          "name": "",
          "type": "address"
        }
      ],
      "name": "ownershipTokenCount",
      "outputs": [
        {
          "internalType": "uint256",
          "name": "",
          "type": "uint256"
        }
      ],
      "stateMutability": "view",
      "type": "function"
    },
    {
      "inputs": [],
      "name": "pause",
      "outputs": [],
      "stateMutability": "nonpayable",
      "type": "function"
    },
    {
      "inputs": [],
      "name": "pauseProxy",
      "outputs": [
        {
          "internalType": "bool",
          "name": "",
          "type": "bool"
        }
      ],
      "stateMutability": "view",
      "type": "function"
    },
    {
      "inputs": [],
      "name": "paused",
      "outputs": [
        {
          "internalType": "bool",
          "name": "",
          "type": "bool"
        }
      ],
      "stateMutability": "view",
      "type": "function"
    },
    {
      "inputs": [],
      "name": "preMintedGemsAvailable",
      "outputs": [
        {
          "internalType": "uint256[]",
          "name": "GemsAvailable",
          "type": "uint256[]"
        }
      ],
      "stateMutability": "view",
      "type": "function"
    },
    {
      "inputs": [
        {
          "internalType": "uint256",
          "name": "",
          "type": "uint256"
        }
      ],
      "name": "proxyImplementation",
      "outputs": [
        {
          "internalType": "address",
          "name": "",
          "type": "address"
        }
      ],
      "stateMutability": "view",
      "type": "function"
    },
    {
      "inputs": [],
      "name": "renounceOwnership",
      "outputs": [],
      "stateMutability": "nonpayable",
      "type": "function"
    },
    {
      "inputs": [
        {
          "internalType": "uint256",
          "name": "",
          "type": "uint256"
        }
      ],
      "name": "s_requests",
      "outputs": [
        {
          "internalType": "uint256",
          "name": "tokenId",
          "type": "uint256"
        },
        {
          "internalType": "uint256",
          "name": "randomWord",
          "type": "uint256"
        },
        {
          "internalType": "uint256",
          "name": "chosenTokenId",
          "type": "uint256"
        },
        {
          "internalType": "address",
          "name": "requester",
          "type": "address"
        },
        {
          "internalType": "bool",
          "name": "requested",
          "type": "bool"
        },
        {
          "internalType": "bool",
          "name": "fulfilled",
          "type": "bool"
        }
      ],
      "stateMutability": "view",
      "type": "function"
    },
    {
      "inputs": [
        {
          "internalType": "address",
          "name": "from",
          "type": "address"
        },
        {
          "internalType": "address",
          "name": "to",
          "type": "address"
        },
        {
          "internalType": "uint256",
          "name": "tokenId",
          "type": "uint256"
        }
      ],
      "name": "safeTransferFrom",
      "outputs": [],
      "stateMutability": "nonpayable",
      "type": "function"
    },
    {
      "inputs": [
        {
          "internalType": "address",
          "name": "from",
          "type": "address"
        },
        {
          "internalType": "address",
          "name": "to",
          "type": "address"
        },
        {
          "internalType": "uint256",
          "name": "tokenId",
          "type": "uint256"
        },
        {
          "internalType": "bytes",
          "name": "data",
          "type": "bytes"
        }
      ],
      "name": "safeTransferFrom",
      "outputs": [],
      "stateMutability": "nonpayable",
      "type": "function"
    },
    {
      "inputs": [
        {
          "internalType": "bytes4",
          "name": "",
          "type": "bytes4"
        }
      ],
      "name": "selectorImplementation",
      "outputs": [
        {
          "internalType": "address",
          "name": "",
          "type": "address"
        }
      ],
      "stateMutability": "view",
      "type": "function"
    },
    {
      "inputs": [
        {
          "internalType": "address",
          "name": "_airdrop",
          "type": "address"
        }
      ],
      "name": "setAirdrop",
      "outputs": [],
      "stateMutability": "nonpayable",
      "type": "function"
    },
    {
      "inputs": [
        {
          "internalType": "address",
          "name": "operator",
          "type": "address"
        },
        {
          "internalType": "bool",
          "name": "approved",
          "type": "bool"
        }
      ],
      "name": "setApprovalForAll",
      "outputs": [],
      "stateMutability": "nonpayable",
      "type": "function"
    },
    {
      "inputs": [
        {
          "internalType": "uint32",
          "name": "_RareGemsCooldownPeriod",
          "type": "uint32"
        },
        {
          "internalType": "uint32",
          "name": "_UniqueGemsCooldownPeriod",
          "type": "uint32"
        },
        {
          "internalType": "uint32",
          "name": "_EpicGemsCooldownPeriod",
          "type": "uint32"
        },
        {
          "internalType": "uint32",
          "name": "_LegendaryGemsCooldownPeriod",
          "type": "uint32"
        },
        {
          "internalType": "uint32",
          "name": "_MythicGemsCooldownPeriod",
          "type": "uint32"
        }
      ],
      "name": "setGemsCooldownPeriods",
      "outputs": [],
      "stateMutability": "nonpayable",
      "type": "function"
    },
    {
      "inputs": [
        {
          "internalType": "uint32",
          "name": "_RareGemsMiningPeriod",
          "type": "uint32"
        },
        {
          "internalType": "uint32",
          "name": "_UniqueGemsMiningPeriod",
          "type": "uint32"
        },
        {
          "internalType": "uint32",
          "name": "_EpicGemsMiningPeriod",
          "type": "uint32"
        },
        {
          "internalType": "uint32",
          "name": "_LegendaryGemsMiningPeriod",
          "type": "uint32"
        },
        {
          "internalType": "uint32",
          "name": "_MythicGemsMiningPeriod",
          "type": "uint32"
        }
      ],
      "name": "setGemsMiningPeriods",
      "outputs": [],
      "stateMutability": "nonpayable",
      "type": "function"
    },
    {
      "inputs": [
        {
          "internalType": "uint256",
          "name": "_CommonGemsValue",
          "type": "uint256"
        },
        {
          "internalType": "uint256",
          "name": "_RareGemsValue",
          "type": "uint256"
        },
        {
          "internalType": "uint256",
          "name": "_UniqueGemsValue",
          "type": "uint256"
        },
        {
          "internalType": "uint256",
          "name": "_EpicGemsValue",
          "type": "uint256"
        },
        {
          "internalType": "uint256",
          "name": "_LegendaryGemsValue",
          "type": "uint256"
        },
        {
          "internalType": "uint256",
          "name": "_MythicGemsValue",
          "type": "uint256"
        }
      ],
      "name": "setGemsValue",
      "outputs": [],
      "stateMutability": "nonpayable",
      "type": "function"
    },
    {
      "inputs": [
        {
          "internalType": "uint256",
          "name": "_tokenId",
          "type": "uint256"
        },
        {
          "internalType": "bool",
          "name": "_isLocked",
          "type": "bool"
        }
      ],
      "name": "setIsLocked",
      "outputs": [],
      "stateMutability": "nonpayable",
      "type": "function"
    },
    {
      "inputs": [
        {
          "internalType": "address",
          "name": "_marketplace",
          "type": "address"
        }
      ],
      "name": "setMarketPlaceAddress",
      "outputs": [],
      "stateMutability": "nonpayable",
      "type": "function"
    },
    {
      "inputs": [
        {
          "internalType": "uint8",
          "name": "_RareminingTry",
          "type": "uint8"
        },
        {
          "internalType": "uint8",
          "name": "_UniqueminingTry",
          "type": "uint8"
        },
        {
          "internalType": "uint8",
          "name": "_EpicminingTry",
          "type": "uint8"
        },
        {
          "internalType": "uint8",
          "name": "_LegendaryminingTry",
          "type": "uint8"
        },
        {
          "internalType": "uint8",
          "name": "_MythicminingTry",
          "type": "uint8"
        }
      ],
      "name": "setMiningTries",
      "outputs": [],
      "stateMutability": "nonpayable",
      "type": "function"
    },
    {
      "inputs": [
        {
          "internalType": "uint256",
          "name": "tokenId",
          "type": "uint256"
        },
        {
          "internalType": "string",
          "name": "_tokenURI",
          "type": "string"
        }
      ],
      "name": "setTokenURI",
      "outputs": [],
      "stateMutability": "nonpayable",
      "type": "function"
    },
    {
      "inputs": [
        {
          "internalType": "address",
          "name": "_treasury",
          "type": "address"
        }
      ],
      "name": "setTreasury",
      "outputs": [],
      "stateMutability": "nonpayable",
      "type": "function"
    },
    {
      "inputs": [
        {
          "internalType": "bytes4",
          "name": "interfaceId",
          "type": "bytes4"
        }
      ],
      "name": "supportsInterface",
      "outputs": [
        {
          "internalType": "bool",
          "name": "",
          "type": "bool"
        }
      ],
      "stateMutability": "view",
      "type": "function"
    },
    {
      "inputs": [],
      "name": "symbol",
      "outputs": [
        {
          "internalType": "string",
          "name": "",
          "type": "string"
        }
      ],
      "stateMutability": "view",
      "type": "function"
    },
    {
      "inputs": [
        {
          "internalType": "address",
          "name": "",
          "type": "address"
        }
      ],
      "name": "tokenMiningByUser",
      "outputs": [
        {
          "internalType": "uint256",
          "name": "",
          "type": "uint256"
        }
      ],
      "stateMutability": "view",
      "type": "function"
    },
    {
      "inputs": [
        {
          "internalType": "uint256",
          "name": "",
          "type": "uint256"
        }
      ],
      "name": "tokenReadyToMine",
      "outputs": [
        {
          "internalType": "bool",
          "name": "",
          "type": "bool"
        }
      ],
      "stateMutability": "view",
      "type": "function"
    },
    {
      "inputs": [
        {
          "internalType": "uint256",
          "name": "tokenId",
          "type": "uint256"
        }
      ],
      "name": "tokenURI",
      "outputs": [
        {
          "internalType": "string",
          "name": "",
          "type": "string"
        }
      ],
      "stateMutability": "view",
      "type": "function"
    },
    {
      "inputs": [
        {
          "internalType": "address",
          "name": "_owner",
          "type": "address"
        }
      ],
      "name": "tokensOfOwner",
      "outputs": [
        {
          "internalType": "uint256[]",
          "name": "ownerTokens",
          "type": "uint256[]"
        }
      ],
      "stateMutability": "view",
      "type": "function"
    },
    {
      "inputs": [],
      "name": "totalSupply",
      "outputs": [
        {
          "internalType": "uint256",
          "name": "",
          "type": "uint256"
        }
      ],
      "stateMutability": "view",
      "type": "function"
    },
    {
      "inputs": [
        {
          "internalType": "address",
          "name": "from",
          "type": "address"
        },
        {
          "internalType": "address",
          "name": "to",
          "type": "address"
        },
        {
          "internalType": "uint256",
          "name": "tokenId",
          "type": "uint256"
        }
      ],
      "name": "transferFrom",
      "outputs": [],
      "stateMutability": "nonpayable",
      "type": "function"
    },
    {
      "inputs": [
        {
          "internalType": "address",
          "name": "newOwner",
          "type": "address"
        }
      ],
      "name": "transferOwnership",
      "outputs": [],
      "stateMutability": "nonpayable",
      "type": "function"
    },
    {
      "inputs": [],
      "name": "unpause",
      "outputs": [],
      "stateMutability": "nonpayable",
      "type": "function"
    },
    {
      "inputs": [
        {
          "internalType": "address",
          "name": "",
          "type": "address"
        },
        {
          "internalType": "uint256",
          "name": "",
          "type": "uint256"
        }
      ],
      "name": "userMiningStartTime",
      "outputs": [
        {
          "internalType": "uint256",
          "name": "",
          "type": "uint256"
        }
      ],
      "stateMutability": "view",
      "type": "function"
    },
    {
      "inputs": [
        {
          "internalType": "address",
          "name": "",
          "type": "address"
        },
        {
          "internalType": "uint256",
          "name": "",
          "type": "uint256"
        }
      ],
      "name": "userMiningToken",
      "outputs": [
        {
          "internalType": "bool",
          "name": "",
          "type": "bool"
        }
      ],
      "stateMutability": "view",
      "type": "function"
    }
  ],
  "bytecode": "0x60808060405234601a576001601e556156b890816100208239f35b600080fdfe608080604052600436101561001357600080fd5b60003560e01c90816301ffc9a7146143a657508063044bc7791461437d57806304e9fd7e14612d4857806306fdde03146142de578063081812fc14614293578063093ba92b1461426f578063095ea7b3146141885780630a8ce2101461416a5780630b513d99146140a95780630ff1ac67146132ed578063162094c4146132b2578063166b35c91461328f57806318160ddd1461326c5780631aac071d1461319a5780631c8802541461317357806323b872dd146130ef578063276a28a3146130bd57806333d5efdb1461309657806333d608f114613078578063356edf74146130575780633d007e571461302e5780633ec7af4a1461300a5780633f4ba83a14612fae5780633fad183414612f9057806342842e0e14612f625780634cbe436014612f155780634d723a7514612e4f57806350d2a27614612e0a578063550d01a314612dcb5780635c975abb14612da85780635f2d002314612d4857806361f7f6d714612c965780636352211e14612c6657806363a8fd8914612c43578063676f79f114612bfb578063694eaa4014612bd25780636ae638d014612ba95780636c106fea14612b8557806370a08231146113d4578063715018a614612b1b57806372820dbc14612ad857806377207e3714612ab15780637866369b14612a805780638456cb5914612a215780638462151c146129fd578063864ccaac146129d65780638d41fe30146129b25780638da5cb5b1461297c5780638e80a1651461278457806395d89b411461269c57806397125c4014612668578063975781b7146117e657806397d88628146117c85780639d3415f6146117aa578063a168fa8914611739578063a1770a7d146116ec578063a20fa9e9146116ce578063a22cb4651461162e578063aa723bb71461152d578063aae31df314611452578063ac33a273146113d9578063b4f6eae4146113d4578063b88d4fde146112b1578063b911135f1461127d578063bad39efd14611256578063c0c2fd9914611238578063c1389072146111fe578063c28fb6b7146111c0578063c61a46c51461119c578063c68a538514611175578063c87b56dd14611086578063cc98ef9614611043578063cec21acb14611009578063e002460414610fe0578063e0dd8f1b14610fb9578063e316dc1314610f9b578063e985e9c514610f4d578063ea2b7b4314610e9b578063f0f4426014610e58578063f2a6094d14610e32578063f2fde38b14610e0c578063f317d7dd14610dbb578063f41c472914610cdc578063f8c8765e14610842578063f99a6bb514610592578063fb2504351461056b578063fea90d02146104745763ff198a1d146103e757600080fd5b3461046f5760c036600319011261046f577f6474c0fa1cc494f92527db3b4306654db98a8ff14de99d615b7e445e0266ef4360c060043560a435608435606435604435602435610435614faa565b856011558060125581601355826014558360155584601655604051958652602086015260408501526060840152608083015260a0820152a1005b600080fd5b3461046f57600036600319011261046f5760045460006104938261493a565b9160008060018060a01b0380601b5416915b8481106105035786866104b78161493a565b9160005b8281106104e45750506104e06040519283928352604060208401526040830190614605565b0390f35b806104f16001928461496c565b516104fc828761496c565b52016104bb565b8060005260086020528282604060002054161480610550575b610529575b6001016104a5565b94926001906105378761483c565b5054610543828a61496c565b5293810195930192610521565b5060ff600461055e8361483c565b50015460301c161561051c565b3461046f57600036600319011261046f57602063ffffffff600f5460501c16604051908152f35b3461046f5760208060031936011261046f57600435906105b760ff600f5416156148fb565b33156108305760008281526008825260409020546001600160a01b0390339082160361081e5760016105e88461483c565b500154906105f58461483c565b610808576000815560006001820155600060028201556000600382015560006004820155610638600760068301926106308460058301614ab3565b018092614ab3565b610642815461475d565b90816107cb575b50506106543361470a565b61065e8154614fe3565b9055600084815260088452604080822080546001600160a01b0319908116909155600080516020615643833981519152808752918320548416801593889390929085156107ad575b8484528852604083209081541690556000805160206156238339815191528280a4610794576106f56000928492601b541690604051948580948193630169dc3160e01b83523360048401614dc1565b03925af190811561078857600091610752575b5015610740577f65aff8e0552d208dfaf55b1280e55553b7dba628290897ff43c8f086d5dbfd2a9160409182519182523390820152a1005b6040516312171d8360e31b8152600490fd5b90508181813d8311610781575b610769818361455d565b8101031261046f5751801515810361046f5783610708565b503d61075f565b6040513d6000823e3d90fd5b604051637e27328960e01b815260048101859052602490fd5b6107b685615416565b6107bf83614724565b841981540190556106a6565b81601f600093116001146107e35750555b8480610649565b908083918252610801601f888420940160051c840160018501614ab3565b55556107dc565b634e487b7160e01b600052600060045260246000fd5b6040516302b327b560e41b8152600490fd5b604051639fabe1c160e01b8152600490fd5b3461046f57608036600319011261046f5761085b6144a9565b6108636144bf565b6044356001600160a01b038116810361046f57606435916001600160a01b038316830361046f577ff0c57e16840df040f15088dc2f81fe391c3923bec73e23a9662efc9c229c6a00928354926001600160401b03841680159081610ccc575b6001149081610cc2575b159081610cb9575b50610ca75760016001600160401b0319851617855560ff8460401c1615610c8c575b6040519561090387614527565b600787526623b2b6a9aa27a760c91b60208801526040519661092488614527565b600388526247454d60e81b602089015261093c6155a1565b6109446155a1565b8051906001600160401b038211610b6c5761096d6000805160206155e38339815191525461475d565b601f8111610c30575b50602090601f8311600114610b8d5761099a929160009183610b82575b5050614aca565b6000805160206155e3833981519152555b86516001600160401b038111610b6c577f80bb2b638cc20bc4d0a60d66940f3ab4a00c1d7b313497ca82fb0b4ab0079301906109e7825461475d565b601f8111610b2f575b506020601f8211600114610ac05781610a33949392610a1b9260ff9b9c600092610ab5575050614aca565b90555b610a266155a1565b610a2e6155a1565b614d30565b601980546001600160a01b03199081166001600160a01b0395861617909155601a8054821692851692909217909155601b80549091169190921617905560401c1615610a7b57005b805460ff60401b19169055604051600181527fc7f505b2f371ae2175ee4913f4499e1f2633a7b5936321eed1cdaeb6115181d290602090a1005b015190508c80610993565b601f198216998360005260206000209a60005b818110610b1757509a6001928492610a3397969560ff9d9e10610afe575b505050811b019055610a1e565b015160001960f88460031b161c191690558b8080610af1565b838301518d556001909c019b60209384019301610ad3565b610b5c90836000526020600020601f840160051c81019160208510610b62575b601f0160051c0190614ab3565b896109f0565b9091508190610b4f565b634e487b7160e01b600052604160045260246000fd5b015190508a80610993565b6000805160206155e3833981519152600090815292917f37c58c799b6609234b945e882912ee9ad34948a1dfaa20a97485e1a7752bbf81915b601f1984168510610c15576001945083601f19811610610bfc575b505050811b016000805160206155e3833981519152556109ab565b015160001960f88460031b161c19169055898080610be1565b81810151835560209485019460019093019290910190610bc6565b6000805160206155e3833981519152600052610c86907f37c58c799b6609234b945e882912ee9ad34948a1dfaa20a97485e1a7752bbf81601f850160051c81019160208610610b6257601f0160051c0190614ab3565b89610976565b6001600160481b031984166001600160401b011785556108f6565b60405163f92ee8a960e01b8152600490fd5b905015876108d4565b303b1591506108cc565b604086901c60ff161591506108c2565b3461046f5760a036600319011261046f57610cf561442b565b610cfd61443b565b610d0561444b565b916064359260ff841680850361046f5760843560ff81169283820361046f5760ff60a09681937f06b36b7c2517dbb6d0fec68beba3c915efebf56980628b2181e3fcd96920910e99610d55614faa565b600f54918460281b9060281b169161ff008a60081b169065ffffffffff0019161762ff00008460101b161763ff0000008660181b1617908460201b9060201b161717600f55816040519716875216602086015216604084015260608301526080820152a1005b3461046f57604036600319011261046f576004356024359060075481101561046f57610de69061487e565b5090600281101561046f5760ff6020928260051c015460f86040519360031b161c168152f35b3461046f57602036600319011261046f57610e30610e286144a9565b610a2e614faa565b005b3461046f57600036600319011261046f57602060105463ffffffff60405191831c168152f35b3461046f57602036600319011261046f57610e716144a9565b610e79614faa565b601b80546001600160a01b0319166001600160a01b0392909216919091179055005b3461046f577f12db92c8c4542eebc521c0180f8ce8d4c77dad4fcfb9f9f9c1c8b31e0b9cd811610f48610ecd36614639565b91610ed9959395614faa565b600f805463ffffffff60b01b60b086901b1663ffffffff60301b603089901b16600160301b600160d01b03199092169190911763ffffffff60501b60508a901b161763ffffffff60701b607085901b161763ffffffff60901b609086901b161717905560405195869586614992565b0390a1005b3461046f57604036600319011261046f57610f666144a9565b610f77610f716144bf565b916146d1565b9060018060a01b0316600052602052602060ff604060002054166040519015158152f35b3461046f57600036600319011261046f576020601154604051908152f35b3461046f57600036600319011261046f57602063ffffffff600f5460b01c16604051908152f35b3461046f57600036600319011261046f57601b546040516001600160a01b039091168152602090f35b3461046f57602036600319011261046f576001600160a01b0361102a6144a9565b1660005260096020526020604060002054604051908152f35b3461046f57602036600319011261046f5761105c6144a9565b611064614faa565b601c80546001600160a01b0319166001600160a01b0392909216919091179055005b3461046f5760208060031936011261046f5760043560008181526008835260409020546001600160a01b031615611118576110c081614ddc565b506000527f0542a41881ee128a365a727b282c86fa859579490b9bb45aab8503648c8e790081526110f46040600020614797565b9060006040516111038161450c565b526104e0604051928284938452830190614469565b60405162461bcd60e51b815260048101839052602f60248201527f4552433732314d657461646174613a2055524920717565727920666f72206e6f60448201526e3732bc34b9ba32b73a103a37b5b2b760891b6064820152608490fd5b3461046f57600036600319011261046f57602063ffffffff600f5460901c16604051908152f35b3461046f57600036600319011261046f57602060ff600f5460101c16604051908152f35b3461046f57600036600319011261046f57601b546104e0906111ea906001600160a01b03166149fb565b604051918291602083526020830190614605565b3461046f57602036600319011261046f576001600160a01b0361121f6144a9565b16600052600a6020526020604060002054604051908152f35b3461046f57600036600319011261046f576020601654604051908152f35b3461046f57600036600319011261046f57602063ffffffff60105460601c16604051908152f35b3461046f57602036600319011261046f576004356000526001602052602060018060a01b0360406000205416604051908152f35b3461046f57608036600319011261046f576112ca6144a9565b6112d26144bf565b604435916064356001600160401b03811161046f573660238201121561046f576113069036906024816004013591016145b0565b61131560ff600f5416156148fb565b6001600160a01b03838116908316146113c25760ff60046113358661483c565b50015460301c166113b05783611387610f48926113747f85d07a7616aea29f5d972fd9100b991c224490bd49b737377d908f66f34d9afd978787614ff0565b61137f83878761507d565b828686615330565b604051938493846001600160a01b03918216815291166020820152604081019190915260600190565b604051635399ebf560e01b8152600490fd5b604051636879d8a360e01b8152600490fd5b611009565b3461046f57600036600319011261046f57604051601780548083526000918252602080840193927fc624b66cc0138b8fabc209247f72d758e1cf3343756d543badbf24212bed8c1592915b82821061143b576104e0856111ea8189038261455d565b835486529485019460019384019390910190611424565b3461046f57602036600319011261046f57600060a0604051611473816144d5565b8281528260208201528260408201528260608201528260808201520152600435600052600e60205260c06040600020604051906114af826144d5565b8054918281526001820154916020820192835260036002820154916040840192835201549260018060a01b03916060840191838616835260ff60a060808701968289831c1615158852019660a81c161515865260405196875251602087015251604086015251166060840152511515608083015251151560a0820152f35b3461046f5760208060031936011261046f5761154a600435614b43565b604051908282528051838301528281015160408301526040810151606083015260608101516080830152611586608082015160a0840190614871565b63ffffffff60a08201511660c083015260c081015160ff80911660e084015260e082015161010090151581850152820151610120908185016000905b87600483106116185750505050820151600094906101a085015b600287106116015785806104e06101408801516101e080840152610200830190614469565b8280600192868551168152019201960195906115dc565b80600192878651168152019301910190916115c2565b3461046f57604036600319011261046f576116476144a9565b61164f6146c2565b6001600160a01b039091169081156116b55761166a336146d1565b8260005260205260406000209015159060ff1981541660ff83161790556040519081527f17307eab39ab6107e8899845ad3d59bd9653f200f220920489ca2b5937696c3160203392a3005b604051630b61174360e31b815260048101839052602490fd5b3461046f57600036600319011261046f576020601354604051908152f35b3461046f57604036600319011261046f576001600160a01b0361170d6144a9565b16600052600b6020526040600020602435600052602052602060ff604060002054166040519015158152f35b3461046f57602036600319011261046f57600435600052600e60205260c0604060002060ff81549160018101549060036002820154910154916040519485526020850152604084015260018060a01b0381166060840152818160a01c161515608084015260a81c16151560a0820152f35b3461046f57600036600319011261046f576020601554604051908152f35b3461046f57600036600319011261046f576020601454604051908152f35b3461046f5761010036600319011261046f576006600435101561046f57366043121561046f5760405161181881614527565b803660641161046f576024905b606482106126505782366083121561046f576040519061184482614542565b60e48236821161046f576064905b8282106126385750505060e4356001600160401b03811161046f5761187b9036906004016145e7565b9061189160018060a01b03601b54163314614899565b600f546118a160ff8216156148fb565b60ff82511660ff6020840151169060005260056020526040600020906000526020526118d160406000205461475d565b156126265761190e6119006118f260ff87511660ff60208901511690614b23565b60ff60408801511690614b23565b60ff60608701511690614b23565b90600435611ed3575060ff845116600190818114159081611ec7575b50611ea15760ff602086015116818114159081611e95575b50611e705760ff604086015116818114159081611e64575b50611e3e5760ff606086015116818114159081611e32575b50611e0c575060ff166008811015611dd757506011549160008061199d63ffffffff825b16426149c2565b9160ff604051916119ad836144f0565b60008352876020840152846040840152600060608401526119d360043560808501614b37565b63ffffffff841660a08401521660c0820152600060e0820152866101008201528461012082015283610140820152600454600160401b811015610b6c57806001611a20920160045561483c565b919091610808578051825560208101516001830155604081015160028301556060810151600383015560808101516006811015611dc157600483015460ff64ffffffff0060a085015160081b1692169064ffffffffff191617176004830155611a9360ff60c08301511660048401614da4565b611aa660e08201511515600484016149cf565b61010081015160009060005b60048110611da257505090610140916005840155611ad861012082015160068501614af1565b01518051906001600160401b038211610b6c57611af8600784015461475d565b601f8111611d6d575b50602090601f8311600114611cff579180611b2792600794600092611cf4575050614aca565b9101555b6004549485600019810111611cde57611b47600019870161483c565b50600019870190819055600090815260086020526040902080546001600160a01b03191633908117909155611b7b9061470a565b611b8581546149ec565b9055604051611b938161450c565b600081523315611cc5576001600160a01b03611bb36000198901336154ff565b16611cac57611bc7906000198801336151fc565b611bd5846000198801614e24565b60405194611be586600435614871565b6000602087015b60028210611c935750505060608501526000608085015b60048210611c7a57602087877fdbe8d26d6591d9d42991ba1e5d305c9c7a01553997a8bf0794d0cee986ce2a80611c5c898963ffffffff8a16610100860152610120850152610180610140850152610180840190614469565b9133610160820152806000198501930390a260405190600019018152f35b60208060019260ff8b5116815201980191019096611c03565b60208060019260ff865116815201930191019091611bec565b6040516339e3563760e11b815260006004820152602490fd5b604051633250574960e11b815260006004820152602490fd5b634e487b7160e01b600052601160045260246000fd5b015190508b80610993565b90601f198316916007850160005260206000209260005b818110611d5557509160019391856007969410611d3c575b505050811b01910155611b2b565b015160001960f88460031b161c191690558a8080611d2e565b92936020600181928786015181550195019301611d16565b611d9c90600785016000526020600020601f850160051c81019160208610610b6257601f0160051c0190614ab3565b89611b01565b90916020611db86001928460ff87511691614add565b93019101611ab2565b634e487b7160e01b600052602160045260246000fd5b60849060405190634967af1f60e11b8252600482015260406024820152600660448201526521a7a6a6a7a760d11b6064820152fd5b606490604051906358be4af360e11b825260036004830152602482015260026044820152fd5b60029150141586611972565b606490604051906358be4af360e11b825260026004830152602482015260026044820152fd5b6002915014158661195a565b606490604051906358be4af360e11b8252806004830152602482015260026044820152fd5b60029150141586611942565b606490604051906358be4af360e11b825260006004830152602482015260026044820152fd5b6002915014158661192a565b92906004356001036120735760ff855116600290818114159081612067575b506120415760ff602087015116818114159081612035575b5061200f5760ff604087015116818114159081612003575b50611fde5760ff606087015116818114159081611fd2575b50611fac575060ff16600c811015611f79575063ffffffff8360d01c1663ffffffff8460301c1661199d63ffffffff60ff6012549760081c1693611996565b60849060405190634967af1f60e11b825260048201526040602482015260046044820152635241524560e01b6064820152fd5b606490604051906358be4af360e11b825260036004830152602482015260036044820152fd5b60039150141587611f3a565b606490604051906358be4af360e11b8252806004830152602482015260036044820152fd5b60039150141587611f22565b606490604051906358be4af360e11b825260016004830152602482015260036044820152fd5b60039150141587611f0a565b606490604051906358be4af360e11b825260006004830152602482015260036044820152fd5b60039150141587611ef2565b6004356002036122135760ff85511660038114159081612207575b506121e15760ff602086015116600381141590816121d5575b506121af5760ff604086015116600381141590816121a3575b5061217d5760ff60608601511660038114159081612171575b5061214b5760ff166010811015612116575063ffffffff6010541663ffffffff8460501c1661199d63ffffffff60ff6013549760101c1693611996565b60849060405190634967af1f60e11b82526004820152604060248201526006604482015265554e4951554560d01b6064820152fd5b60646040516358be4af360e11b8152600360048201526003602482015260046044820152fd5b600491501415866120d9565b60646040516358be4af360e11b8152600260048201526003602482015260046044820152fd5b600491501415866120c0565b60646040516358be4af360e11b8152600160048201526003602482015260046044820152fd5b600491501415866120a7565b60646040516358be4af360e11b8152600060048201526003602482015260046044820152fd5b6004915014158661208e565b6004356003036123b45760ff855116600481141590816123a8575b506123825760ff60208601511660048114159081612376575b506123505760ff60408601511660048114159081612344575b5061231e5760ff60608601511660048114159081612312575b506122ec5760ff1660148110156122b9575063ffffffff60105460201c1663ffffffff8460701c1661199d63ffffffff60ff6014549760181c1693611996565b60849060405190634967af1f60e11b825260048201526040602482015260046044820152634550494360e01b6064820152fd5b60646040516358be4af360e11b8152600360048201526004602482015260056044820152fd5b60059150141586612279565b60646040516358be4af360e11b8152600260048201526004602482015260056044820152fd5b60059150141586612260565b60646040516358be4af360e11b8152600160048201526004602482015260056044820152fd5b60059150141586612247565b60646040516358be4af360e11b8152600060048201526004602482015260056044820152fd5b6005915014158661222e565b600480350361255d5760ff85511660058114159081612551575b5061252a5760ff6020860151166005811415908161251e575b506124f75760ff604086015116600581141590816124eb575b506124c45760ff606086015116600581141590816124b8575b506124915760ff166018811015612459575063ffffffff60105460401c1663ffffffff8460901c1661199d63ffffffff60ff6015549760201c1693611996565b60849060405190634967af1f60e11b825260048201526040602482015260096044820152684c4547454e4441525960b81b6064820152fd5b6040516358be4af360e11b8152600360048201526005602482015260066044820152606490fd5b60069150141586612419565b6040516358be4af360e11b8152600260048201526005602482015260066044820152606490fd5b60069150141586612400565b6040516358be4af360e11b8152600160048201526005602482015260066044820152606490fd5b600691501415866123e7565b6040516358be4af360e11b8152600060048201526005602482015260066044820152606490fd5b600691501415866123ce565b5060043560050361261457600660ff85511614801590612602575b80156125f0575b80156125de575b6125b85763ffffffff60105460601c1663ffffffff8460b01c1661199d63ffffffff60ff6016549760281c1693611996565b60646040516358be4af360e11b8152600060048201526006602482015260066044820152fd5b50600660ff6060860151161415612586565b50600660ff604086015116141561257f565b50600660ff6020860151161415612578565b60405163036cae1f60e31b8152600490fd5b604051634441919d60e11b8152600490fd5b602080916126458461445b565b815201910190611852565b6020809161265d8461445b565b815201910190611825565b3461046f57602036600319011261046f576004356000526008602052602060018060a01b0360406000205416604051908152f35b3461046f57600036600319011261046f576040517f80bb2b638cc20bc4d0a60d66940f3ab4a00c1d7b313497ca82fb0b4ab007930180548260006126df8361475d565b9283835260209460019186600182169182600014612762575050600114612723575b505061270f9250038361455d565b6104e0604051928284938452830190614469565b85925060005281600020906000915b85831061274a57505061270f93508201018580612701565b80548389018501528794508693909201918101612732565b925093505061270f94915060ff191682840152151560051b8201018580612701565b3461046f57606036600319011261046f576001600160401b0360043581811161046f576127b59036906004016145e7565b906127be61443b565b9060ff6127c961444b565b926127d2614faa565b1691826000526020926005845260ff604060002092169182600052845260406000208551848111610b6c57612807825461475d565b601f811161294c575b5085601f82116001146128e7579080612831926000916128dc575b50614aca565b90555b60405192604084019084821090821117610b6c57604052825282820152600754600160401b811015610b6c57806001612870920160075561487e565b9190916108085761288091614af1565b6006549160ff83169160ff8314611cde5760ff60017fe4d2864ec291f6f11cb3363fa1bd2a4d5ff49a2cfdf4bf7dfe3b90a26b8c776f940116809460ff1916176006556128d7604051928284938452830190614469565b0390a2005b90508801518961282b565b601f1982169083600052876000209160005b898b83831061293757505050908360019493921061291e575b5050811b019055612834565b89015160001960f88460031b161c191690558880612912565b840151855560019094019392830192016128f9565b612976908360005287600020601f840160051c810191898510610b6257601f0160051c0190614ab3565b87612810565b3461046f57600036600319011261046f57600080516020615603833981519152546040516001600160a01b039091168152602090f35b3461046f57600036600319011261046f57602060ff600f5460181c16604051908152f35b3461046f57600036600319011261046f57602063ffffffff600f5460301c16604051908152f35b3461046f57602036600319011261046f576104e06111ea612a1c6144a9565b6149fb565b3461046f57600036600319011261046f57612a3a614faa565b6001600f54612a4c60ff8216156148fb565b60ff191617600f557f62e78cea01bee320cd4e420270b5ea74000d11b0c9f74754ebdbfc544b05a2586020604051338152a1005b3461046f57602036600319011261046f57600435600052600d602052602060ff604060002054166040519015158152f35b3461046f57600036600319011261046f57602063ffffffff60105460401c16604051908152f35b3461046f57602036600319011261046f57612af16144a9565b612af9614faa565b601d80546001600160a01b0319166001600160a01b0392909216919091179055005b3461046f57600036600319011261046f57612b34614faa565b60008051602061560383398151915280546001600160a01b031981169091556000906001600160a01b03167f8be0079c531659141344cd1fd0a4f28419497f9722a3daafe3b4186f6b6457e08280a3005b3461046f57600036600319011261046f57602060ff600f5460081c16604051908152f35b3461046f57600036600319011261046f57601a546040516001600160a01b039091168152602090f35b3461046f57600036600319011261046f57601c546040516001600160a01b039091168152602090f35b3461046f57604036600319011261046f576001600160a01b03612c1c6144a9565b16600052600c60205260406000206024356000526020526020604060002054604051908152f35b3461046f57600036600319011261046f57602060ff600054166040519015158152f35b3461046f57602036600319011261046f576020612c84600435614ddc565b6040516001600160a01b039091168152f35b3461046f57602036600319011261046f5760043560045481101561046f57612cbd9061483c565b508054906104e060018201549160028101549360ff600383015492612ce9600760048301549201614797565b93604051978897610120958952602089015260408801526060870152612d1460808701838316614871565b63ffffffff8160081c1660a0870152818160281c1660c087015260301c16151560e085015280610100850152830190614469565b3461046f57604036600319011261046f57612d6161442b565b60ff612d6b61443b565b9116600052600560205260ff604060002091166000526020526104e0612d946040600020614797565b604051918291602083526020830190614469565b3461046f57600036600319011261046f57602060ff600f54166040519015158152f35b3461046f57602036600319011261046f576001600160a01b03612dec6144a9565b166000526002602052602060ff604060002054166040519015158152f35b3461046f57602036600319011261046f5760043563ffffffff60e01b811680910361046f576000526003602052602060018060a01b0360406000205416604051908152f35b3461046f57604036600319011261046f57612e686146c2565b601d54336001600160a01b0391821614908115612f07575b5015612e9d57610e30906004612e96813561483c565b50016149cf565b608460405162461bcd60e51b815260206004820152604060248201527f66756e6374696f6e2063616c6c61626c652066726f6d20746865206d61726b6560448201527f74706c616365206f722061697264726f7020636f6e747261637473206f6e6c796064820152fd5b9050601c5416331482612e80565b3461046f57600036600319011261046f576000806004545b808310612f3f57602082604051908152f35b90612f5960019182612f508661483c565b500154906149c2565b92019190612f2d565b3461046f57612f703661468d565b91604051612f7d8161450c565b6000815261131560ff600f5416156148fb565b3461046f57600036600319011261046f576020601854604051908152f35b3461046f57600036600319011261046f57612fc7614faa565b600f54612fd760ff8216156148fb565b60ff1916600f557f5db9ee0a495bf2e6ff9c91a7834c1ba4fdd244a5e8aa4e537bd38aeae4b073aa6020604051338152a1005b3461046f57600036600319011261046f57602060ff600f5460281c16604051908152f35b3461046f57600036600319011261046f57601d546040516001600160a01b039091168152602090f35b3461046f57600036600319011261046f57602060ff60065416604051908152f35b3461046f57600036600319011261046f576020604051620334508152f35b3461046f57600036600319011261046f57602063ffffffff600f5460701c16604051908152f35b3461046f57602036600319011261046f57602060ff60046130de813561483c565b50015460301c166040519015158152f35b3461046f576130fd3661468d565b9161310d60ff600f5416156148fb565b6001600160a01b03828116908216146113c25760ff600461312d8561483c565b50015460301c166113b057610f48836131687f85d07a7616aea29f5d972fd9100b991c224490bd49b737377d908f66f34d9afd958585614ff0565b61138781858561507d565b3461046f57600036600319011261046f57602063ffffffff600f5460d01c16604051908152f35b3461046f577f3b286e7240533ee960e022a65587f2b49f2264d9390fe4d81a57a23f1054d8b9610f486131cc36614639565b90949291936131d9614faa565b600f805463ffffffff60d01b60d093841b1663ffffffff60d01b1990911617908190556010805463ffffffff60601b606095861b1663ffffffff9687166001600160801b0319909216821763ffffffff60201b60209a8b1b161763ffffffff60401b60409b8c1b1617179182905588519889989583901c8716969083901c8116959290921c8216939092901c1686614992565b3461046f57600036600319011261046f576020613287614980565b604051908152f35b3461046f57600036600319011261046f576020600f5460ff60405191831c168152f35b3461046f57604036600319011261046f576024356001600160401b03811161046f576132e5610e309136906004016145e7565b600435614e24565b3461046f57608036600319011261046f576004356001600160401b03811161046f573660238201121561046f5780600401356133288161457e565b91613336604051938461455d565b8183526024602084019260051b8201019036821161046f57602401915b81831061409057602435846001600160401b03821161046f573660238301121561046f5781600401356133858161457e565b92613393604051948561455d565b8184526024602085019260061b8201019036821161046f57602401915b81831061403757505050604435916001600160401b03831161046f573660238401121561046f578260040135926133e68461457e565b936133f4604051958661455d565b80855260208501913660248360071b8301011161046f5760248101925b60248360071b8301018410613fdd57505050506001600160401b036064351161046f5736602360643501121561046f576134506064356004013561457e565b61345d604051918261455d565b606435600401358152602081013660246064356004013560051b60643501011161046f57602460643501905b60246064356004013560051b60643501018210613fac5750506134b760018060a01b03601b54163314614899565b6134c660ff600f5416156148fb565b82518251811490811591613fa0575b8115613f94575b50613f82576134eb835161493a565b9160005b8451811015613f6c57613502818661496c565b516006811015611dc157613516828461496c565b5190613522838961496c565b5161352d848761496c565b519061354460018060a01b03601b54163314614899565b600f5461355460ff8216156148fb565b60ff85511660ff60208701511690600052600560205260406000209060005260205261358460406000205461475d565b15612626576135c16135b36135a560ff85511660ff60208701511690614b23565b60ff60408601511690614b23565b60ff60608501511690614b23565b9084613af7575060ff82511660018114159081613aeb575b50613ac45760ff60208301511660018114159081613ab8575b50613a925760ff60408301511660018114159081613a86575b50613a615760ff60608301511660018114159081613a55575b50613a2e5760ff166008811015611dd75750601154600091829161364883426149c2565b9360ff60405191613658836144f0565b600083528360208401528660408401526000606084015261367c8960808501614b37565b63ffffffff861660a08401521660c0820152600060e0820152826101008201528761012082015285610140820152600454600160401b811015610b6c578060016136c9920160045561483c565b919091610808578051825560208101516001830155604081015160028301556060810151600383015560808101516006811015611dc157600483015460ff64ffffffff0060a085015160081b1692169064ffffffffff19161717600483015561373c60ff60c08301511660048401614da4565b61374f60e08201511515600484016149cf565b61010081015160009060005b60048110613a0f5750509061014091600584015561378161012082015160068501614af1565b01518051906001600160401b038211610b6c576137a1600784015461475d565b601f81116139da575b50602090601f831160011461396c5791806137d092600794600092613961575050614aca565b9101555b6004549687600019810111611cde576137f0600019890161483c565b50600019890190819055600090815260086020526040902080546001600160a01b031916339081179091556138249061470a565b61382e81546149ec565b905560405161383c8161450c565b600081523315611cc5576001600160a01b0361385c6000198b01336154ff565b16611cac57613870906000198a01336151fc565b61387e866000198a01614e24565b61388b6040518098614871565b600090602088015b60028310613948575050506060860152600090608086015b6004831061392f575050506001959493927fdbe8d26d6591d9d42991ba1e5d305c9c7a01553997a8bf0794d0cee986ce2a809263ffffffff6139089316610100860152610120850152610180610140850152610180840190614469565b9133610160820152806000198501930390a260001901613928828761496c565b52016134ef565b60208060019260ff8551168152019201920191906138ab565b60208060019260ff855116815201920192019190613893565b015190503880610993565b90601f198316916007850160005260206000209260005b8181106139c2575091600193918560079694106139a9575b505050811b019101556137d4565b015160001960f88460031b161c1916905538808061399b565b92936020600181928786015181550195019301613983565b613a0990600785016000526020600020601f850160051c81019160208610610b6257601f0160051c0190614ab3565b386137aa565b90916020613a256001928460ff87511691614add565b9301910161375b565b6040516358be4af360e11b8152600360048201526001602482015260026044820152606490fd5b6002915014158c613624565b60646040516358be4af360e11b81526002806004830152600160248301526044820152fd5b6002915014158c61360b565b60646040516358be4af360e11b8152600160048201526001602482015260026044820152fd5b6002915014158c6135f2565b6040516358be4af360e11b8152600060048201526001602482015260026044820152606490fd5b6002915014158c6135d9565b9060018503613c625760ff83511660028114159081613c56575b50613c2f5760ff60208401511660028114159081613c23575b50613bfc5760ff60408401511660028114159081613bf0575b50613bca5760ff60608401511660028114159081613bbe575b50613b995760ff16600c811015611f79575063ffffffff91828260d01c16928260301c169161364863ffffffff60ff6012549360081c1695611996565b60646040516358be4af360e11b81526003806004830152600260248301526044820152fd5b6003915014158d613b5c565b60646040516358be4af360e11b8152600260048201526002602482015260036044820152fd5b6003915014158d613b43565b6040516358be4af360e11b8152600160048201526002602482015260036044820152606490fd5b6003915014158d613b2a565b6040516358be4af360e11b8152600060048201526002602482015260036044820152606490fd5b6003915014158d613b11565b60028503613d355760ff83511660038114159081613d29575b506121e15760ff60208401511660038114159081613d1d575b506121af5760ff60408401511660038114159081613d11575b5061217d5760ff60608401511660038114159081613d05575b5061214b5760ff166010811015612116575063ffffffff601054169163ffffffff8260501c169161364863ffffffff60ff6013549360101c1695611996565b6004915014158d613cc6565b6004915014158d613cad565b6004915014158d613c94565b6004915014158d613c7b565b60038503613e0b5760ff83511660048114159081613dff575b506123825760ff60208401511660048114159081613df3575b506123505760ff60408401511660048114159081613de7575b5061231e5760ff60608401511660048114159081613ddb575b506122ec5760ff1660148110156122b9575063ffffffff60105460201c169163ffffffff8260701c169161364863ffffffff60ff6014549360181c1695611996565b6005915014158d613d99565b6005915014158d613d80565b6005915014158d613d67565b6005915014158d613d4e565b60048503613ede5760ff83511660058114159081613ed2575b5061252a5760ff60208401511660058114159081613ec6575b506124f75760ff60408401511660058114159081613eba575b506124c45760ff60608401511660058114159081613eae575b506124915760ff166018811015612459575063ffffffff918260105460401c16928260901c169161364863ffffffff60ff6015549360201c1695611996565b6006915014158d613e6f565b6006915014158d613e56565b6006915014158d613e3d565b6006915014158d613e24565b506005840361261457600660ff83511614801590613f5a575b8015613f48575b8015613f36575b6125b85763ffffffff918260105460601c16928260b01c169161364863ffffffff60ff6016549360281c1695611996565b50600660ff6060840151161415613f05565b50600660ff6040840151161415613efe565b50600660ff6020840151161415613ef7565b604051602080825281906104e090820187614605565b604051632b477e7160e11b8152600490fd5b905081511415856134dc565b855181141591506134d5565b81356001600160401b03811161046f57602091613fd283926024369160643501016145e7565b815201910190613489565b36601f8501121561046f57604051613ff481614542565b8036608087011161046f5785905b60808701821061401f575050815260809390930192602001613411565b6020809161402c8461445b565b815201910190614002565b36601f8401121561046f5760405161404e81614527565b806040850136811161046f5785915b818310614078575050508160209160409352019201916133b0565b602080916140858561445b565b81520192019161405d565b8235600681101561046f57815260209283019201613353565b3461046f57602036600319011261046f57600435600681101561046f57806140d957506020601154604051908152f35b600181036140ec57506020601254613287565b600281036140ff57506020601354613287565b6003810361411257506020601454613287565b6004810361412557506020601554613287565b600503614136576020601654613287565b60405162461bcd60e51b815260206004820152600c60248201526b77726f6e672072617269747960a01b6044820152606490fd5b3461046f57600036600319011261046f576020601254604051908152f35b3461046f57604036600319011261046f576141a16144a9565b6024356141ad81614ddc565b3315158061425c575b8061423c575b614224576001600160a01b039283169282918491167f8c5be1e5ebec7d5bd14f71427d1e84f3dd0314c0f7b2291e5b200ac8c7c3b925600080a460009081526000805160206156638339815191526020526040902080546001600160a01b0319169091179055005b60405163a9fbf51f60e01b8152336004820152602490fd5b50614246816146d1565b3360005260205260ff60406000205416156141bc565b506001600160a01b0381163314156141b6565b3461046f57600036600319011261046f57602063ffffffff60105416604051908152f35b3461046f57602036600319011261046f576004356142b081614ddc565b50600052600080516020615663833981519152602052602060018060a01b0360406000205416604051908152f35b3461046f57600036600319011261046f576040516000805160206155e3833981519152805482600061430f8361475d565b928383526020946001918660018216918260001461276257505060011461433e57505061270f9250038361455d565b85925060005281600020906000915b85831061436557505061270f93508201018580612701565b8054838901850152879450869390920191810161434d565b3461046f57600036600319011261046f576019546040516001600160a01b039091168152602090f35b3461046f57602036600319011261046f576004359063ffffffff60e01b821680920361046f57602091632483248360e11b81149081156143e8575b5015158152f35b6380ac58cd60e01b81149150811561441a575b8115614409575b50836143e1565b6301ffc9a760e01b14905083614402565b635b5e139f60e01b811491506143fb565b6004359060ff8216820361046f57565b6024359060ff8216820361046f57565b6044359060ff8216820361046f57565b359060ff8216820361046f57565b919082519283825260005b848110614495575050826000602080949584010152601f8019910116010190565b602081830181015184830182015201614474565b600435906001600160a01b038216820361046f57565b602435906001600160a01b038216820361046f57565b60c081019081106001600160401b03821117610b6c57604052565b61016081019081106001600160401b03821117610b6c57604052565b602081019081106001600160401b03821117610b6c57604052565b604081019081106001600160401b03821117610b6c57604052565b608081019081106001600160401b03821117610b6c57604052565b90601f801991011681019081106001600160401b03821117610b6c57604052565b6001600160401b038111610b6c5760051b60200190565b6001600160401b038111610b6c57601f01601f191660200190565b9291926145bc82614595565b916145ca604051938461455d565b82948184528183011161046f578281602093846000960137010152565b9080601f8301121561046f57816020614602933591016145b0565b90565b90815180825260208080930193019160005b828110614625575050505090565b835185529381019392810192600101614617565b60a090600319011261046f5763ffffffff600435818116810361046f5791602435828116810361046f5791604435818116810361046f5791606435828116810361046f5791608435908116810361046f5790565b606090600319011261046f576001600160a01b0390600435828116810361046f5791602435908116810361046f579060443590565b60243590811515820361046f57565b6001600160a01b031660009081527f80bb2b638cc20bc4d0a60d66940f3ab4a00c1d7b313497ca82fb0b4ab00793056020526040902090565b6001600160a01b0316600090815260096020526040902090565b6001600160a01b031660009081527f80bb2b638cc20bc4d0a60d66940f3ab4a00c1d7b313497ca82fb0b4ab00793036020526040902090565b90600182811c9216801561478d575b602083101461477757565b634e487b7160e01b600052602260045260246000fd5b91607f169161476c565b906040519182600082546147aa8161475d565b9081845260209460019160018116908160001461481a57506001146147db575b5050506147d99250038361455d565b565b600090815285812095935091905b8183106148025750506147d993508201013880806147ca565b855488840185015294850194879450918301916147e9565b925050506147d994925060ff191682840152151560051b8201013880806147ca565b60045481101561485b57600460005260206000209060031b0190600090565b634e487b7160e01b600052603260045260246000fd5b906006821015611dc15752565b60075481101561485b57600760005260206000200190600090565b156148a057565b60405162461bcd60e51b815260206004820152602d60248201527f66756e6374696f6e2063616c6c61626c652066726f6d2074726561737572792060448201526c636f6e7472616374206f6e6c7960981b6064820152608490fd5b1561490257565b60405162461bcd60e51b815260206004820152601060248201526f14185d5cd8589b194e881c185d5cd95960821b6044820152606490fd5b906149448261457e565b614951604051918261455d565b8281528092614962601f199161457e565b0190602036910137565b805182101561485b5760209160051b010190565b6004546000198101908111611cde5790565b63ffffffff9182168152918116602083015291821660408201529181166060830152909116608082015260a00190565b91908201809211611cde57565b805460ff60301b191691151560301b60ff60301b16919091179055565b6000198114611cde5760010190565b60018060a01b03809116600091818352602091600960205260409060408520548015600014614a3f57505050505060405190614a368261450c565b80825236813790565b614a4e9096959293949661493a565b93614a57614980565b938360015b86811115614a705750959750505050505050565b80825260088a528484848420541614614a92575b614a8d906149ec565b614a5c565b94614aab8187614aa5614a8d948c61496c565b526149ec565b959050614a84565b818110614abe575050565b60008155600101614ab3565b8160011b916000199060031b1c19161790565b9060ff809160031b9316831b921b19161790565b60009160005b60028110614b0457505055565b90926020614b1a6001928460ff88511691614add565b94019101614af7565b9060ff8091169116019060ff8211611cde57565b6006821015611dc15752565b604091825191614b52836144f0565b60009283815260208460208301528486830152606085606084015260809580608085015260a0928160a086015260c0928260c087015260e08360e0880152610100908b51614b9f81614542565b608036823782890152610120948c51614bb781614527565b8d368237868a01526060610140809a01529a6004996004549c5b8d8110614c32578e5162461bcd60e51b815260206004820152602d60248201527f47656d2077697468207468652073706563696669656420746f6b656e4964206460448201526c1bd95cc81b9bdd08195e1a5cdd609a1b6064820152608490fd5b81614c3c8261483c565b505414614c4b57600101614bd1565b614d299b9d50614cad9593915091614c6860079b9d9f959361483c565b509985519e8f90614c78826144f0565b8c54825260018d01548a83015260028d01548883015260038d0154878301528c01549a8b9260ff998a95868616908501614b37565b63ffffffff60089d8e1c1690830152838360281c1691015260301c161515908d01528251918460058a0154818116855281818b1c1688860152818160101c168686015260181c1690830152614d0182614542565b8b0152519360068601549082821686521c1690830152614d2082614527565b86015201614797565b9082015290565b6001600160a01b03908116908115614d8b5760008051602061560383398151915280546001600160a01b031981168417909155167f8be0079c531659141344cd1fd0a4f28419497f9722a3daafe3b4186f6b6457e0600080a3565b604051631e4fbdf760e01b815260006004820152602490fd5b805460ff60281b191660289290921b60ff60281b16919091179055565b6001600160a01b039091168152602081019190915260400190565b600081815260008051602061564383398151915260205260409020546001600160a01b0316908115614e0c575090565b60249060405190637e27328960e01b82526004820152fd5b9091906001600160a01b03614e3882614ddc565b16330361081e576000908082526020917f0542a41881ee128a365a727b282c86fa859579490b9bb45aab8503648c8e7900835260408120908551956001600160401b038711614f9657614e8b835461475d565b601f8111614f68575b508491601f8811600114614ee45796614ed89281927ff8e1a15aba9398e019f0b49df1a4fde98ee17ae345cb5f6b5e2c27f5033e8ce7989992613961575050614aca565b90555b604051908152a1565b9190601f198816848452868420935b818110614f5157509160019391897ff8e1a15aba9398e019f0b49df1a4fde98ee17ae345cb5f6b5e2c27f5033e8ce7999a9410614f38575b505050811b019055614edb565b015160001960f88460031b161c19169055388080614f2b565b929387600181928786015181550195019301614ef3565b614f9090848452868420601f8a0160051c810191888b10610b6257601f0160051c0190614ab3565b38614e94565b634e487b7160e01b82526041600452602482fd5b600080516020615603833981519152546001600160a01b03163303614fcb57565b60405163118cdaa760e01b8152336004820152602490fd5b8015611cde576000190190565b906040929161501761501160ff60046150088761483c565b50015416615441565b426149c2565b60026150228561483c565b5001556001600160a01b0391821660008181526009602052858120805491959161504b906149ec565b9055845260086020528484209060018060a01b03198254161790551681526009602052206150798154614fe3565b9055565b6001600160a01b0382811693918415611cc55782600095818752600080516020615643833981519152958660205260409785898220541697889233151580615151575b50906150e060008051602061562383398151915293928561513257614724565b8054600101905585825260205289812080546001600160a01b0319168517905580a416928383036151115750505050565b6064945051926364283d7b60e01b8452600484015260248301526044820152fd5b61513b88615416565b61514486614724565b8054600019019055614724565b91935091939450806151ad575b1561516f57918791879493386150c0565b88878961518c576024915190637e27328960e01b82526004820152fd5b905163177e802f60e01b81529081906151a9903360048401614dc1565b0390fd5b5033881480156151e0575b8061515e575086835260008051602061566383398151915260205233868a852054161461515e565b506151ea886146d1565b33845260205260ff89842054166151b8565b803b61520757505050565b926152509360018060a01b031692604051630a85bd0160e11b91828252336004830152600094856024840152604483015260806064830152818060209889936084830190614469565b038187895af18491816152ec575b506152be575050503d6000146152b6573d61527881614595565b90615286604051928361455d565b81528091843d92013e5b805192836152b157604051633250574960e11b815260048101849052602490fd5b019050fd5b506060615290565b919450915063ffffffff60e01b16036152d45750565b60249060405190633250574960e11b82526004820152fd5b9091508681813d8311615329575b615304818361455d565b8101031261532557516001600160e01b03198116810361532557903861525e565b8480fd5b503d6152fa565b813b61533d575b50505050565b604051630a85bd0160e11b8082523360048301526001600160a01b0392831660248301526044820194909452608060648201526020959290911693909290839061538b906084830190614469565b039285816000958187895af18491816153d6575b506153b9575050503d6000146152b6573d61527881614595565b919450915063ffffffff60e01b16036152d4575038808080615337565b9091508681813d831161540f575b6153ee818361455d565b8101031261532557516001600160e01b03198116810361532557903861539f565b503d6153e4565b60009081526000805160206156638339815191526020526040902080546001600160a01b0319169055565b6006811015611dc15780156154f957600181146154e957600281146154dc57600381146154cc57600481146154bc576005146154ad5760405162461bcd60e51b815260206004820152600e60248201526d496e76616c69642072617269747960901b6044820152606490fd5b63ffffffff60105460601c1690565b5063ffffffff60105460401c1690565b5063ffffffff60105460201c1690565b5063ffffffff6010541690565b5063ffffffff600f5460d01c1690565b50600090565b6000828152600080516020615643833981519152602081905260408220546001600160a01b0390811694939285926000805160206156238339815191529284615582575b8516948561556c575b508582526020526040812080546001600160a01b0319168517905580a490565b61557590614724565b600181540190553861554c565b61558b87615416565b61559485614724565b8054600019019055615543565b60ff7ff0c57e16840df040f15088dc2f81fe391c3923bec73e23a9662efc9c229c6a005460401c16156155d057565b604051631afcd79f60e31b8152600490fdfe80bb2b638cc20bc4d0a60d66940f3ab4a00c1d7b313497ca82fb0b4ab00793009016d09d72d40fdae2fd8ceac6b6234c7706214fd39c1cd1e609a0528c199300ddf252ad1be2c89b69c2b068fc378daa952ba7f163c4a11628f55a4df523b3ef80bb2b638cc20bc4d0a60d66940f3ab4a00c1d7b313497ca82fb0b4ab007930280bb2b638cc20bc4d0a60d66940f3ab4a00c1d7b313497ca82fb0b4ab0079304a264697066735822122089f7bf80d634a7178563cc7ff5fd6c98c53e7f92fbfcc7cd9d4cc3423a29572664736f6c63430008190033",
  "linkReferences": {},
  "deployedLinkReferences": {}
}