{
  "_format": "hh-sol-artifact-1",
  "contractName": "GemFactory",
  "sourceName": "src/L2/GemFactory.sol",
  "abi": [
    {
      "inputs": [],
      "name": "AddressZero",
      "type": "error"
    },
    {
      "inputs": [],
      "name": "AddressZero",
      "type": "error"
    },
    {
      "inputs": [],
      "name": "ColorNotExist",
      "type": "error"
    },
    {
      "inputs": [],
      "name": "CooldownPeriodNotElapsed",
      "type": "error"
    },
    {
      "inputs": [
        {
          "internalType": "address",
          "name": "sender",
          "type": "address"
        },
        {
          "internalType": "uint256",
          "name": "tokenId",
          "type": "uint256"
        },
        {
          "internalType": "address",
          "name": "owner",
          "type": "address"
        }
      ],
      "name": "ERC721IncorrectOwner",
      "type": "error"
    },
    {
      "inputs": [
        {
          "internalType": "address",
          "name": "operator",
          "type": "address"
        },
        {
          "internalType": "uint256",
          "name": "tokenId",
          "type": "uint256"
        }
      ],
      "name": "ERC721InsufficientApproval",
      "type": "error"
    },
    {
      "inputs": [
        {
          "internalType": "address",
          "name": "approver",
          "type": "address"
        }
      ],
      "name": "ERC721InvalidApprover",
      "type": "error"
    },
    {
      "inputs": [
        {
          "internalType": "address",
          "name": "operator",
          "type": "address"
        }
      ],
      "name": "ERC721InvalidOperator",
      "type": "error"
    },
    {
      "inputs": [
        {
          "internalType": "address",
          "name": "owner",
          "type": "address"
        }
      ],
      "name": "ERC721InvalidOwner",
      "type": "error"
    },
    {
      "inputs": [
        {
          "internalType": "address",
          "name": "receiver",
          "type": "address"
        }
      ],
      "name": "ERC721InvalidReceiver",
      "type": "error"
    },
    {
      "inputs": [
        {
          "internalType": "address",
          "name": "sender",
          "type": "address"
        }
      ],
      "name": "ERC721InvalidSender",
      "type": "error"
    },
    {
      "inputs": [
        {
          "internalType": "uint256",
          "name": "tokenId",
          "type": "uint256"
        }
      ],
      "name": "ERC721NonexistentToken",
      "type": "error"
    },
    {
      "inputs": [],
      "name": "FailedToSendEthBack",
      "type": "error"
    },
    {
      "inputs": [],
      "name": "GemAlreadyPicked",
      "type": "error"
    },
    {
      "inputs": [],
      "name": "GemIsLocked",
      "type": "error"
    },
    {
      "inputs": [],
      "name": "GemIsLocked",
      "type": "error"
    },
    {
      "inputs": [],
      "name": "GemIsNotLocked",
      "type": "error"
    },
    {
      "inputs": [],
      "name": "InvalidInitialization",
      "type": "error"
    },
    {
      "inputs": [
        {
          "internalType": "uint8",
          "name": "quadrant",
          "type": "uint8"
        },
        {
          "internalType": "uint8",
          "name": "value",
          "type": "uint8"
        }
      ],
      "name": "InvalidQuadrant",
      "type": "error"
    },
    {
      "inputs": [],
      "name": "InvalidSumOfQuadrants",
      "type": "error"
    },
    {
      "inputs": [],
      "name": "MiningPeriodNotElapsed",
      "type": "error"
    },
    {
      "inputs": [],
      "name": "MismatchedArrayLengths",
      "type": "error"
    },
    {
      "inputs": [
        {
          "internalType": "uint8",
          "name": "quadrantIndex",
          "type": "uint8"
        },
        {
          "internalType": "uint8",
          "name": "expectedValue1",
          "type": "uint8"
        },
        {
          "internalType": "uint8",
          "name": "expectedValue2",
          "type": "uint8"
        }
      ],
      "name": "NewGemInvalidQuadrant",
      "type": "error"
    },
    {
      "inputs": [],
      "name": "NoMiningTryLeft",
      "type": "error"
    },
    {
      "inputs": [],
      "name": "NotGemOwner",
      "type": "error"
    },
    {
      "inputs": [],
      "name": "NotGemOwner",
      "type": "error"
    },
    {
      "inputs": [],
      "name": "NotInitializing",
      "type": "error"
    },
    {
      "inputs": [],
      "name": "NotMining",
      "type": "error"
    },
    {
      "inputs": [],
      "name": "NotValidColor",
      "type": "error"
    },
    {
      "inputs": [
        {
          "internalType": "address",
          "name": "have",
          "type": "address"
        },
        {
          "internalType": "address",
          "name": "want",
          "type": "address"
        }
      ],
      "name": "OnlyCoordinatorCanFulfill",
      "type": "error"
    },
    {
      "inputs": [
        {
          "internalType": "address",
          "name": "owner",
          "type": "address"
        }
      ],
      "name": "OwnableInvalidOwner",
      "type": "error"
    },
    {
      "inputs": [
        {
          "internalType": "address",
          "name": "account",
          "type": "address"
        }
      ],
      "name": "OwnableUnauthorizedAccount",
      "type": "error"
    },
    {
      "inputs": [],
      "name": "ReentrancyGuardReentrantCall",
      "type": "error"
    },
    {
      "inputs": [],
      "name": "RequestNotMade",
      "type": "error"
    },
    {
      "inputs": [],
      "name": "SameSenderAndRecipient",
      "type": "error"
    },
    {
      "inputs": [
        {
          "internalType": "uint8",
          "name": "sum",
          "type": "uint8"
        },
        {
          "internalType": "string",
          "name": "rarity",
          "type": "string"
        }
      ],
      "name": "SumOfQuadrantsTooHigh",
      "type": "error"
    },
    {
      "inputs": [],
      "name": "TransferFailed",
      "type": "error"
    },
    {
      "inputs": [],
      "name": "WrongNumberOfGemToBeForged",
      "type": "error"
    },
    {
      "inputs": [],
      "name": "WrongRarity",
      "type": "error"
    },
    {
      "inputs": [],
      "name": "WrongRarity",
      "type": "error"
    },
    {
      "anonymous": false,
      "inputs": [
        {
          "indexed": true,
          "internalType": "address",
          "name": "owner",
          "type": "address"
        },
        {
          "indexed": true,
          "internalType": "address",
          "name": "approved",
          "type": "address"
        },
        {
          "indexed": true,
          "internalType": "uint256",
          "name": "tokenId",
          "type": "uint256"
        }
      ],
      "name": "Approval",
      "type": "event"
    },
    {
      "anonymous": false,
      "inputs": [
        {
          "indexed": true,
          "internalType": "address",
          "name": "owner",
          "type": "address"
        },
        {
          "indexed": true,
          "internalType": "address",
          "name": "operator",
          "type": "address"
        },
        {
          "indexed": false,
          "internalType": "bool",
          "name": "approved",
          "type": "bool"
        }
      ],
      "name": "ApprovalForAll",
      "type": "event"
    },
    {
      "anonymous": false,
      "inputs": [
        {
          "indexed": true,
          "internalType": "uint8",
          "name": "id",
          "type": "uint8"
        },
        {
          "indexed": false,
          "internalType": "string",
          "name": "backgroundColor",
          "type": "string"
        }
      ],
      "name": "BackgroundColorAdded",
      "type": "event"
    },
    {
      "anonymous": false,
      "inputs": [
        {
          "indexed": false,
          "internalType": "uint256",
          "name": "_fromTokenId",
          "type": "uint256"
        },
        {
          "indexed": false,
          "internalType": "uint256",
          "name": "_toTokenId",
          "type": "uint256"
        }
      ],
      "name": "BatchMetadataUpdate",
      "type": "event"
    },
    {
      "anonymous": false,
      "inputs": [
        {
          "indexed": true,
          "internalType": "uint8",
          "name": "id",
          "type": "uint8"
        },
        {
          "indexed": false,
          "internalType": "string",
          "name": "color",
          "type": "string"
        }
      ],
      "name": "ColorAdded",
      "type": "event"
    },
    {
      "anonymous": false,
      "inputs": [
        {
          "indexed": false,
          "internalType": "uint8",
          "name": "color_0",
          "type": "uint8"
        },
        {
          "indexed": false,
          "internalType": "uint8",
          "name": "color_1",
          "type": "uint8"
        }
      ],
      "name": "ColorValidated",
      "type": "event"
    },
    {
      "anonymous": false,
      "inputs": [
        {
          "indexed": false,
          "internalType": "uint8",
          "name": "color0",
          "type": "uint8"
        },
        {
          "indexed": false,
          "internalType": "uint8",
          "name": "color1",
          "type": "uint8"
        }
      ],
      "name": "ColorValidated",
      "type": "event"
    },
    {
      "anonymous": false,
      "inputs": [
        {
          "indexed": false,
          "internalType": "uint256",
          "name": "gemCount",
          "type": "uint256"
        },
        {
          "indexed": false,
          "internalType": "uint256[]",
          "name": "tokenIds",
          "type": "uint256[]"
        }
      ],
      "name": "CountGemsByQuadrant",
      "type": "event"
    },
    {
      "anonymous": false,
      "inputs": [
        {
          "indexed": true,
          "internalType": "uint256",
          "name": "tokenId",
          "type": "uint256"
        },
        {
          "indexed": false,
          "internalType": "enum GemFactoryStorage.Rarity",
          "name": "rarity",
          "type": "uint8"
        },
        {
          "indexed": false,
          "internalType": "uint8[2]",
          "name": "color",
          "type": "uint8[2]"
        },
        {
          "indexed": false,
          "internalType": "uint256",
          "name": "value",
          "type": "uint256"
        },
        {
          "indexed": false,
          "internalType": "uint8[4]",
          "name": "quadrants",
          "type": "uint8[4]"
        },
        {
          "indexed": false,
          "internalType": "uint32",
          "name": "miningPeriod",
          "type": "uint32"
        },
        {
          "indexed": false,
          "internalType": "uint256",
          "name": "cooldownDueDate",
          "type": "uint256"
        },
        {
          "indexed": false,
          "internalType": "string",
          "name": "tokenURI",
          "type": "string"
        },
        {
          "indexed": false,
          "internalType": "address",
          "name": "owner",
          "type": "address"
        }
      ],
      "name": "Created",
      "type": "event"
    },
    {
      "anonymous": false,
      "inputs": [
        {
          "indexed": false,
          "internalType": "uint256",
          "name": "amount",
          "type": "uint256"
        }
      ],
      "name": "EthSentBack",
      "type": "event"
    },
    {
      "anonymous": false,
      "inputs": [
        {
          "indexed": false,
          "internalType": "address",
          "name": "gemOwner",
          "type": "address"
        },
        {
          "indexed": false,
          "internalType": "uint256[]",
          "name": "gemsTokenIds",
          "type": "uint256[]"
        },
        {
          "indexed": false,
          "internalType": "uint256",
          "name": "newGemCreatedId",
          "type": "uint256"
        },
        {
          "indexed": false,
          "internalType": "enum GemFactoryStorage.Rarity",
          "name": "newRarity",
          "type": "uint8"
        },
        {
          "indexed": false,
          "internalType": "uint8[4]",
          "name": "forgedQuadrants",
          "type": "uint8[4]"
        },
        {
          "indexed": false,
          "internalType": "uint8[2]",
          "name": "color",
          "type": "uint8[2]"
        },
        {
          "indexed": false,
          "internalType": "uint256",
          "name": "newValue",
          "type": "uint256"
        }
      ],
      "name": "GemForged",
      "type": "event"
    },
    {
      "anonymous": false,
      "inputs": [
        {
          "indexed": false,
          "internalType": "uint256",
          "name": "_tokenId",
          "type": "uint256"
        },
        {
          "indexed": false,
          "internalType": "address",
          "name": "_from",
          "type": "address"
        }
      ],
      "name": "GemMelted",
      "type": "event"
    },
    {
      "anonymous": false,
      "inputs": [
        {
          "indexed": false,
          "internalType": "uint256",
          "name": "tokenId",
          "type": "uint256"
        },
        {
          "indexed": false,
          "internalType": "address",
          "name": "miner",
          "type": "address"
        }
      ],
      "name": "GemMiningClaimed",
      "type": "event"
    },
    {
      "anonymous": false,
      "inputs": [
        {
          "indexed": false,
          "internalType": "uint256",
          "name": "tokenId",
          "type": "uint256"
        },
        {
          "indexed": false,
          "internalType": "address",
          "name": "miner",
          "type": "address"
        },
        {
          "indexed": false,
          "internalType": "uint256",
          "name": "startMiningTime",
          "type": "uint256"
        },
        {
          "indexed": false,
          "internalType": "uint256",
          "name": "newminingTry",
          "type": "uint256"
        }
      ],
      "name": "GemMiningStarted",
      "type": "event"
    },
    {
      "anonymous": false,
      "inputs": [
        {
          "indexed": false,
          "internalType": "uint32",
          "name": "RareGemsCooldownPeriod",
          "type": "uint32"
        },
        {
          "indexed": false,
          "internalType": "uint32",
          "name": "UniqueGemsCooldownPeriod",
          "type": "uint32"
        },
        {
          "indexed": false,
          "internalType": "uint32",
          "name": "EpicGemsCooldownPeriod",
          "type": "uint32"
        },
        {
          "indexed": false,
          "internalType": "uint32",
          "name": "LegendaryGemsCooldownPeriod",
          "type": "uint32"
        },
        {
          "indexed": false,
          "internalType": "uint32",
          "name": "MythicGemsCooldownPeriod",
          "type": "uint32"
        }
      ],
      "name": "GemsCoolDownPeriodModified",
      "type": "event"
    },
    {
      "anonymous": false,
      "inputs": [
        {
          "indexed": false,
          "internalType": "uint32",
          "name": "RareGemsMiningPeriod",
          "type": "uint32"
        },
        {
          "indexed": false,
          "internalType": "uint32",
          "name": "UniqueGemsMiningPeriod",
          "type": "uint32"
        },
        {
          "indexed": false,
          "internalType": "uint32",
          "name": "EpicGemsMiningPeriod",
          "type": "uint32"
        },
        {
          "indexed": false,
          "internalType": "uint32",
          "name": "LegendaryGemsMiningPeriod",
          "type": "uint32"
        },
        {
          "indexed": false,
          "internalType": "uint32",
          "name": "MythicGemsMiningPeriod",
          "type": "uint32"
        }
      ],
      "name": "GemsMiningPeriodModified",
      "type": "event"
    },
    {
      "anonymous": false,
      "inputs": [
        {
          "indexed": false,
          "internalType": "uint8",
          "name": "RareGemsMiningTry",
          "type": "uint8"
        },
        {
          "indexed": false,
          "internalType": "uint8",
          "name": "UniqueGemsMiningTry",
          "type": "uint8"
        },
        {
          "indexed": false,
          "internalType": "uint8",
          "name": "EpicGemsMiningTry",
          "type": "uint8"
        },
        {
          "indexed": false,
          "internalType": "uint8",
          "name": "LegendaryGemsMiningTry",
          "type": "uint8"
        },
        {
          "indexed": false,
          "internalType": "uint8",
          "name": "MythicGemsMiningTry",
          "type": "uint8"
        }
      ],
      "name": "GemsMiningTryModified",
      "type": "event"
    },
    {
      "anonymous": false,
      "inputs": [
        {
          "indexed": false,
          "internalType": "uint256",
          "name": "CommonGemsValue",
          "type": "uint256"
        },
        {
          "indexed": false,
          "internalType": "uint256",
          "name": "RareGemsValue",
          "type": "uint256"
        },
        {
          "indexed": false,
          "internalType": "uint256",
          "name": "UniqueGemsValue",
          "type": "uint256"
        },
        {
          "indexed": false,
          "internalType": "uint256",
          "name": "EpicGemsValue",
          "type": "uint256"
        },
        {
          "indexed": false,
          "internalType": "uint256",
          "name": "LegendaryValue",
          "type": "uint256"
        },
        {
          "indexed": false,
          "internalType": "uint256",
          "name": "MythicValue",
          "type": "uint256"
        }
      ],
      "name": "GemsValueModified",
      "type": "event"
    },
    {
      "anonymous": false,
      "inputs": [
        {
          "indexed": false,
          "internalType": "uint64",
          "name": "version",
          "type": "uint64"
        }
      ],
      "name": "Initialized",
      "type": "event"
    },
    {
      "anonymous": false,
      "inputs": [
        {
          "indexed": false,
          "internalType": "uint256",
          "name": "_tokenId",
          "type": "uint256"
        }
      ],
      "name": "MetadataUpdate",
      "type": "event"
    },
    {
      "anonymous": false,
      "inputs": [
        {
          "indexed": false,
          "internalType": "uint256",
          "name": "_tokenId",
          "type": "uint256"
        },
        {
          "indexed": false,
          "internalType": "address",
          "name": "owner",
          "type": "address"
        },
        {
          "indexed": false,
          "internalType": "uint256",
          "name": "timestamp",
          "type": "uint256"
        }
      ],
      "name": "MiningCancelled",
      "type": "event"
    },
    {
      "anonymous": false,
      "inputs": [
        {
          "indexed": false,
          "internalType": "uint256",
          "name": "tokenId",
          "type": "uint256"
        }
      ],
      "name": "NoGemAvailable",
      "type": "event"
    },
    {
      "anonymous": false,
      "inputs": [
        {
          "indexed": true,
          "internalType": "address",
          "name": "previousOwner",
          "type": "address"
        },
        {
          "indexed": true,
          "internalType": "address",
          "name": "newOwner",
          "type": "address"
        }
      ],
      "name": "OwnershipTransferred",
      "type": "event"
    },
    {
      "anonymous": false,
      "inputs": [
        {
          "indexed": false,
          "internalType": "address",
          "name": "account",
          "type": "address"
        }
      ],
      "name": "Paused",
      "type": "event"
    },
    {
      "anonymous": false,
      "inputs": [
        {
          "indexed": false,
          "internalType": "uint256",
          "name": "tokenId",
          "type": "uint256"
        },
        {
          "indexed": false,
          "internalType": "uint256",
          "name": "requestNumber",
          "type": "uint256"
        }
      ],
      "name": "RandomGemRequested",
      "type": "event"
    },
    {
      "anonymous": false,
      "inputs": [
        {
          "indexed": true,
          "internalType": "address",
          "name": "from",
          "type": "address"
        },
        {
          "indexed": true,
          "internalType": "address",
          "name": "to",
          "type": "address"
        },
        {
          "indexed": true,
          "internalType": "uint256",
          "name": "tokenId",
          "type": "uint256"
        }
      ],
      "name": "Transfer",
      "type": "event"
    },
    {
      "anonymous": false,
      "inputs": [
        {
          "indexed": false,
          "internalType": "address",
          "name": "from",
          "type": "address"
        },
        {
          "indexed": false,
          "internalType": "address",
          "name": "to",
          "type": "address"
        },
        {
          "indexed": false,
          "internalType": "uint256",
          "name": "tokenId",
          "type": "uint256"
        }
      ],
      "name": "TransferGEM",
      "type": "event"
    },
    {
      "anonymous": false,
      "inputs": [
        {
          "indexed": false,
          "internalType": "address",
          "name": "account",
          "type": "address"
        }
      ],
      "name": "Unpaused",
      "type": "event"
    },
    {
      "inputs": [],
      "name": "CALLBACK_GAS_LIMIT",
      "outputs": [
        {
          "internalType": "uint32",
          "name": "",
          "type": "uint32"
        }
      ],
      "stateMutability": "view",
      "type": "function"
    },
    {
      "inputs": [
        {
          "internalType": "uint256",
          "name": "",
          "type": "uint256"
        }
      ],
      "name": "GEMIndexToOwner",
      "outputs": [
        {
          "internalType": "address",
          "name": "",
          "type": "address"
        }
      ],
      "stateMutability": "view",
      "type": "function"
    },
    {
      "inputs": [
        {
          "internalType": "uint256",
          "name": "",
          "type": "uint256"
        }
      ],
      "name": "Gems",
      "outputs": [
        {
          "internalType": "uint256",
          "name": "tokenId",
          "type": "uint256"
        },
        {
          "internalType": "uint256",
          "name": "value",
          "type": "uint256"
        },
        {
          "internalType": "uint256",
          "name": "gemCooldownPeriod",
          "type": "uint256"
        },
        {
          "internalType": "uint256",
          "name": "randomRequestId",
          "type": "uint256"
        },
        {
          "internalType": "enum GemFactoryStorage.Rarity",
          "name": "rarity",
          "type": "uint8"
        },
        {
          "internalType": "uint32",
          "name": "miningPeriod",
          "type": "uint32"
        },
        {
          "internalType": "uint8",
          "name": "miningTry",
          "type": "uint8"
        },
        {
          "internalType": "bool",
          "name": "isLocked",
          "type": "bool"
        },
        {
          "internalType": "string",
          "name": "tokenURI",
          "type": "string"
        }
      ],
      "stateMutability": "view",
      "type": "function"
    },
    {
      "inputs": [
        {
          "internalType": "string",
          "name": "_colorName",
          "type": "string"
        },
        {
          "internalType": "uint8",
          "name": "_index1",
          "type": "uint8"
        },
        {
          "internalType": "uint8",
          "name": "_index2",
          "type": "uint8"
        }
      ],
      "name": "addColor",
      "outputs": [],
      "stateMutability": "nonpayable",
      "type": "function"
    },
    {
      "inputs": [
        {
          "internalType": "address",
          "name": "",
          "type": "address"
        }
      ],
      "name": "aliveImplementation",
      "outputs": [
        {
          "internalType": "bool",
          "name": "",
          "type": "bool"
        }
      ],
      "stateMutability": "view",
      "type": "function"
    },
    {
      "inputs": [
        {
          "internalType": "address",
          "name": "to",
          "type": "address"
        },
        {
          "internalType": "uint256",
          "name": "tokenId",
          "type": "uint256"
        }
      ],
      "name": "approve",
      "outputs": [],
      "stateMutability": "nonpayable",
      "type": "function"
    },
    {
      "inputs": [
        {
          "internalType": "address",
          "name": "_owner",
          "type": "address"
        }
      ],
      "name": "balanceOf",
      "outputs": [
        {
          "internalType": "uint256",
          "name": "count",
          "type": "uint256"
        }
      ],
      "stateMutability": "view",
      "type": "function"
    },
    {
      "inputs": [
        {
          "internalType": "uint256",
          "name": "_tokenId",
          "type": "uint256"
        }
      ],
      "name": "cancelMining",
      "outputs": [
        {
          "internalType": "bool",
          "name": "",
          "type": "bool"
        }
      ],
      "stateMutability": "nonpayable",
      "type": "function"
    },
    {
      "inputs": [
        {
          "internalType": "uint8",
          "name": "",
          "type": "uint8"
        },
        {
          "internalType": "uint8",
          "name": "",
          "type": "uint8"
        }
      ],
      "name": "colorName",
      "outputs": [
        {
          "internalType": "string",
          "name": "",
          "type": "string"
        }
      ],
      "stateMutability": "view",
      "type": "function"
    },
    {
      "inputs": [
        {
          "internalType": "uint256",
          "name": "",
          "type": "uint256"
        },
        {
          "internalType": "uint256",
          "name": "",
          "type": "uint256"
        }
      ],
      "name": "colors",
      "outputs": [
        {
          "internalType": "uint8",
          "name": "",
          "type": "uint8"
        }
      ],
      "stateMutability": "view",
      "type": "function"
    },
    {
      "inputs": [],
      "name": "colorsCount",
      "outputs": [
        {
          "internalType": "uint8",
          "name": "",
          "type": "uint8"
        }
      ],
      "stateMutability": "view",
      "type": "function"
    },
    {
      "inputs": [
        {
          "internalType": "enum GemFactoryStorage.Rarity",
          "name": "_rarity",
          "type": "uint8"
        },
        {
          "internalType": "uint8[2]",
          "name": "_color",
          "type": "uint8[2]"
        },
        {
          "internalType": "uint8[4]",
          "name": "_quadrants",
          "type": "uint8[4]"
        },
        {
          "internalType": "string",
          "name": "_tokenURI",
          "type": "string"
        }
      ],
      "name": "createGEM",
      "outputs": [
        {
          "internalType": "uint256",
          "name": "",
          "type": "uint256"
        }
      ],
      "stateMutability": "nonpayable",
      "type": "function"
    },
    {
      "inputs": [
        {
          "internalType": "enum GemFactoryStorage.Rarity[]",
          "name": "_rarities",
          "type": "uint8[]"
        },
        {
          "internalType": "uint8[2][]",
          "name": "_colors",
          "type": "uint8[2][]"
        },
        {
          "internalType": "uint8[4][]",
          "name": "_quadrants",
          "type": "uint8[4][]"
        },
        {
          "internalType": "string[]",
          "name": "_tokenURIs",
          "type": "string[]"
        }
      ],
      "name": "createGEMPool",
      "outputs": [
        {
          "internalType": "uint256[]",
          "name": "",
          "type": "uint256[]"
        }
      ],
      "stateMutability": "nonpayable",
      "type": "function"
    },
    {
      "inputs": [
        {
          "internalType": "uint256[]",
          "name": "_tokenIds",
          "type": "uint256[]"
        },
        {
          "internalType": "enum GemFactoryStorage.Rarity",
          "name": "_rarity",
          "type": "uint8"
        },
        {
          "internalType": "uint8[2]",
          "name": "_color",
          "type": "uint8[2]"
        }
      ],
      "name": "forgeTokens",
      "outputs": [
        {
          "internalType": "uint256",
          "name": "newGemId",
          "type": "uint256"
        }
      ],
      "stateMutability": "nonpayable",
      "type": "function"
    },
    {
      "inputs": [],
      "name": "getAirdropAddress",
      "outputs": [
        {
          "internalType": "address",
          "name": "",
          "type": "address"
        }
      ],
      "stateMutability": "view",
      "type": "function"
    },
    {
      "inputs": [
        {
          "internalType": "uint256",
          "name": "tokenId",
          "type": "uint256"
        }
      ],
      "name": "getApproved",
      "outputs": [
        {
          "internalType": "address",
          "name": "",
          "type": "address"
        }
      ],
      "stateMutability": "view",
      "type": "function"
    },
    {
      "inputs": [
        {
          "internalType": "uint8",
          "name": "_index1",
          "type": "uint8"
        },
        {
          "internalType": "uint8",
          "name": "_index2",
          "type": "uint8"
        }
      ],
      "name": "getColorName",
      "outputs": [
        {
          "internalType": "string",
          "name": "",
          "type": "string"
        }
      ],
      "stateMutability": "view",
      "type": "function"
    },
    {
      "inputs": [],
      "name": "getCommonGemsValue",
      "outputs": [
        {
          "internalType": "uint256",
          "name": "",
          "type": "uint256"
        }
      ],
      "stateMutability": "view",
      "type": "function"
    },
    {
      "inputs": [],
      "name": "getEpicGemsCooldownPeriod",
      "outputs": [
        {
          "internalType": "uint32",
          "name": "",
          "type": "uint32"
        }
      ],
      "stateMutability": "view",
      "type": "function"
    },
    {
      "inputs": [],
      "name": "getEpicGemsMiningPeriod",
      "outputs": [
        {
          "internalType": "uint32",
          "name": "",
          "type": "uint32"
        }
      ],
      "stateMutability": "view",
      "type": "function"
    },
    {
      "inputs": [],
      "name": "getEpicGemsValue",
      "outputs": [
        {
          "internalType": "uint256",
          "name": "",
          "type": "uint256"
        }
      ],
      "stateMutability": "view",
      "type": "function"
    },
    {
      "inputs": [],
      "name": "getEpicminingTry",
      "outputs": [
        {
          "internalType": "uint8",
          "name": "",
          "type": "uint8"
        }
      ],
      "stateMutability": "view",
      "type": "function"
    },
    {
      "inputs": [
        {
          "internalType": "uint256",
          "name": "tokenId",
          "type": "uint256"
        }
      ],
      "name": "getGem",
      "outputs": [
        {
          "components": [
            {
              "internalType": "uint256",
              "name": "tokenId",
              "type": "uint256"
            },
            {
              "internalType": "uint256",
              "name": "value",
              "type": "uint256"
            },
            {
              "internalType": "uint256",
              "name": "gemCooldownPeriod",
              "type": "uint256"
            },
            {
              "internalType": "uint256",
              "name": "randomRequestId",
              "type": "uint256"
            },
            {
              "internalType": "enum GemFactoryStorage.Rarity",
              "name": "rarity",
              "type": "uint8"
            },
            {
              "internalType": "uint32",
              "name": "miningPeriod",
              "type": "uint32"
            },
            {
              "internalType": "uint8",
              "name": "miningTry",
              "type": "uint8"
            },
            {
              "internalType": "bool",
              "name": "isLocked",
              "type": "bool"
            },
            {
              "internalType": "uint8[4]",
              "name": "quadrants",
              "type": "uint8[4]"
            },
            {
              "internalType": "uint8[2]",
              "name": "color",
              "type": "uint8[2]"
            },
            {
              "internalType": "string",
              "name": "tokenURI",
              "type": "string"
            }
          ],
          "internalType": "struct GemFactoryStorage.Gem",
          "name": "",
          "type": "tuple"
        }
      ],
      "stateMutability": "view",
      "type": "function"
    },
    {
      "inputs": [],
      "name": "getGemListAvailableForRandomPack",
      "outputs": [
        {
          "internalType": "uint256",
          "name": "",
          "type": "uint256"
        },
        {
          "internalType": "uint256[]",
          "name": "",
          "type": "uint256[]"
        }
      ],
      "stateMutability": "view",
      "type": "function"
    },
    {
      "inputs": [],
      "name": "getGemsSupplyTotalValue",
      "outputs": [
        {
          "internalType": "uint256",
          "name": "totalValue",
          "type": "uint256"
        }
      ],
      "stateMutability": "view",
      "type": "function"
    },
    {
      "inputs": [],
      "name": "getLegendaryGemsCooldownPeriod",
      "outputs": [
        {
          "internalType": "uint32",
          "name": "",
          "type": "uint32"
        }
      ],
      "stateMutability": "view",
      "type": "function"
    },
    {
      "inputs": [],
      "name": "getLegendaryGemsMiningPeriod",
      "outputs": [
        {
          "internalType": "uint32",
          "name": "",
          "type": "uint32"
        }
      ],
      "stateMutability": "view",
      "type": "function"
    },
    {
      "inputs": [],
      "name": "getLegendaryGemsValue",
      "outputs": [
        {
          "internalType": "uint256",
          "name": "",
          "type": "uint256"
        }
      ],
      "stateMutability": "view",
      "type": "function"
    },
    {
      "inputs": [],
      "name": "getLegendaryminingTry",
      "outputs": [
        {
          "internalType": "uint8",
          "name": "",
          "type": "uint8"
        }
      ],
      "stateMutability": "view",
      "type": "function"
    },
    {
      "inputs": [],
      "name": "getMarketPlaceAddress",
      "outputs": [
        {
          "internalType": "address",
          "name": "",
          "type": "address"
        }
      ],
      "stateMutability": "view",
      "type": "function"
    },
    {
      "inputs": [],
      "name": "getMythicGemsCooldownPeriod",
      "outputs": [
        {
          "internalType": "uint32",
          "name": "",
          "type": "uint32"
        }
      ],
      "stateMutability": "view",
      "type": "function"
    },
    {
      "inputs": [],
      "name": "getMythicGemsMiningPeriod",
      "outputs": [
        {
          "internalType": "uint32",
          "name": "",
          "type": "uint32"
        }
      ],
      "stateMutability": "view",
      "type": "function"
    },
    {
      "inputs": [],
      "name": "getMythicGemsValue",
      "outputs": [
        {
          "internalType": "uint256",
          "name": "",
          "type": "uint256"
        }
      ],
      "stateMutability": "view",
      "type": "function"
    },
    {
      "inputs": [],
      "name": "getMythicminingTry",
      "outputs": [
        {
          "internalType": "uint8",
          "name": "",
          "type": "uint8"
        }
      ],
      "stateMutability": "view",
      "type": "function"
    },
    {
      "inputs": [
        {
          "internalType": "address",
          "name": "_user",
          "type": "address"
        }
      ],
      "name": "getOwnershipTokenCount",
      "outputs": [
        {
          "internalType": "uint256",
          "name": "",
          "type": "uint256"
        }
      ],
      "stateMutability": "view",
      "type": "function"
    },
    {
      "inputs": [
        {
          "internalType": "uint256",
          "name": "_requestId",
          "type": "uint256"
        }
      ],
      "name": "getRandomRequest",
      "outputs": [
        {
          "components": [
            {
              "internalType": "uint256",
              "name": "tokenId",
              "type": "uint256"
            },
            {
              "internalType": "uint256",
              "name": "randomWord",
              "type": "uint256"
            },
            {
              "internalType": "uint256",
              "name": "chosenTokenId",
              "type": "uint256"
            },
            {
              "internalType": "address",
              "name": "requester",
              "type": "address"
            },
            {
              "internalType": "bool",
              "name": "requested",
              "type": "bool"
            },
            {
              "internalType": "bool",
              "name": "fulfilled",
              "type": "bool"
            }
          ],
          "internalType": "struct GemFactoryStorage.RequestStatus",
          "name": "",
          "type": "tuple"
        }
      ],
      "stateMutability": "view",
      "type": "function"
    },
    {
      "inputs": [],
      "name": "getRareGemsCooldownPeriod",
      "outputs": [
        {
          "internalType": "uint32",
          "name": "",
          "type": "uint32"
        }
      ],
      "stateMutability": "view",
      "type": "function"
    },
    {
      "inputs": [],
      "name": "getRareGemsMiningPeriod",
      "outputs": [
        {
          "internalType": "uint32",
          "name": "",
          "type": "uint32"
        }
      ],
      "stateMutability": "view",
      "type": "function"
    },
    {
      "inputs": [],
      "name": "getRareGemsValue",
      "outputs": [
        {
          "internalType": "uint256",
          "name": "",
          "type": "uint256"
        }
      ],
      "stateMutability": "view",
      "type": "function"
    },
    {
      "inputs": [],
      "name": "getRareminingTry",
      "outputs": [
        {
          "internalType": "uint8",
          "name": "",
          "type": "uint8"
        }
      ],
      "stateMutability": "view",
      "type": "function"
    },
    {
      "inputs": [],
      "name": "getRequestCount",
      "outputs": [
        {
          "internalType": "uint256",
          "name": "",
          "type": "uint256"
        }
      ],
      "stateMutability": "view",
      "type": "function"
    },
    {
      "inputs": [],
      "name": "getRequestIds",
      "outputs": [
        {
          "internalType": "uint256[]",
          "name": "",
          "type": "uint256[]"
        }
      ],
      "stateMutability": "view",
      "type": "function"
    },
    {
      "inputs": [],
      "name": "getTonAddress",
      "outputs": [
        {
          "internalType": "address",
          "name": "",
          "type": "address"
        }
      ],
      "stateMutability": "view",
      "type": "function"
    },
    {
      "inputs": [],
      "name": "getTreasuryAddress",
      "outputs": [
        {
          "internalType": "address",
          "name": "",
          "type": "address"
        }
      ],
      "stateMutability": "view",
      "type": "function"
    },
    {
      "inputs": [],
      "name": "getUniqueGemsCooldownPeriod",
      "outputs": [
        {
          "internalType": "uint32",
          "name": "",
          "type": "uint32"
        }
      ],
      "stateMutability": "view",
      "type": "function"
    },
    {
      "inputs": [],
      "name": "getUniqueGemsMiningPeriod",
      "outputs": [
        {
          "internalType": "uint32",
          "name": "",
          "type": "uint32"
        }
      ],
      "stateMutability": "view",
      "type": "function"
    },
    {
      "inputs": [],
      "name": "getUniqueGemsValue",
      "outputs": [
        {
          "internalType": "uint256",
          "name": "",
          "type": "uint256"
        }
      ],
      "stateMutability": "view",
      "type": "function"
    },
    {
      "inputs": [],
      "name": "getUniqueminingTry",
      "outputs": [
        {
          "internalType": "uint8",
          "name": "",
          "type": "uint8"
        }
      ],
      "stateMutability": "view",
      "type": "function"
    },
    {
      "inputs": [
        {
          "internalType": "enum GemFactoryStorage.Rarity",
          "name": "_rarity",
          "type": "uint8"
        }
      ],
      "name": "getValueBasedOnRarity",
      "outputs": [
        {
          "internalType": "uint256",
          "name": "value",
          "type": "uint256"
        }
      ],
      "stateMutability": "view",
      "type": "function"
    },
    {
      "inputs": [],
      "name": "getWstonAddress",
      "outputs": [
        {
          "internalType": "address",
          "name": "",
          "type": "address"
        }
      ],
      "stateMutability": "view",
      "type": "function"
    },
    {
      "inputs": [
        {
          "internalType": "address",
          "name": "_coordinator",
          "type": "address"
        },
        {
          "internalType": "address",
          "name": "_owner",
          "type": "address"
        },
        {
          "internalType": "address",
          "name": "_wston",
          "type": "address"
        },
        {
          "internalType": "address",
          "name": "_ton",
          "type": "address"
        },
        {
          "internalType": "address",
          "name": "_treasury",
          "type": "address"
        }
      ],
      "name": "initialize",
      "outputs": [],
      "stateMutability": "nonpayable",
      "type": "function"
    },
    {
      "inputs": [
        {
          "internalType": "address",
          "name": "owner",
          "type": "address"
        },
        {
          "internalType": "address",
          "name": "operator",
          "type": "address"
        }
      ],
      "name": "isApprovedForAll",
      "outputs": [
        {
          "internalType": "bool",
          "name": "",
          "type": "bool"
        }
      ],
      "stateMutability": "view",
      "type": "function"
    },
    {
      "inputs": [
        {
          "internalType": "uint256",
          "name": "_tokenId",
          "type": "uint256"
        }
      ],
      "name": "isTokenLocked",
      "outputs": [
        {
          "internalType": "bool",
          "name": "",
          "type": "bool"
        }
      ],
      "stateMutability": "view",
      "type": "function"
    },
    {
      "inputs": [
        {
          "internalType": "uint256",
          "name": "_tokenId",
          "type": "uint256"
        }
      ],
      "name": "meltGEM",
      "outputs": [],
      "stateMutability": "nonpayable",
      "type": "function"
    },
    {
      "inputs": [],
      "name": "name",
      "outputs": [
        {
          "internalType": "string",
          "name": "",
          "type": "string"
        }
      ],
      "stateMutability": "view",
      "type": "function"
    },
    {
      "inputs": [],
      "name": "owner",
      "outputs": [
        {
          "internalType": "address",
          "name": "",
          "type": "address"
        }
      ],
      "stateMutability": "view",
      "type": "function"
    },
    {
      "inputs": [
        {
          "internalType": "uint256",
          "name": "tokenId",
          "type": "uint256"
        }
      ],
      "name": "ownerOf",
      "outputs": [
        {
          "internalType": "address",
          "name": "",
          "type": "address"
        }
      ],
      "stateMutability": "view",
      "type": "function"
    },
    {
      "inputs": [
        {
          "internalType": "address",
          "name": "",
          "type": "address"
        }
      ],
      "name": "ownershipTokenCount",
      "outputs": [
        {
          "internalType": "uint256",
          "name": "",
          "type": "uint256"
        }
      ],
      "stateMutability": "view",
      "type": "function"
    },
    {
      "inputs": [],
      "name": "pause",
      "outputs": [],
      "stateMutability": "nonpayable",
      "type": "function"
    },
    {
      "inputs": [],
      "name": "pauseProxy",
      "outputs": [
        {
          "internalType": "bool",
          "name": "",
          "type": "bool"
        }
      ],
      "stateMutability": "view",
      "type": "function"
    },
    {
      "inputs": [],
      "name": "paused",
      "outputs": [
        {
          "internalType": "bool",
          "name": "",
          "type": "bool"
        }
      ],
      "stateMutability": "view",
      "type": "function"
    },
    {
      "inputs": [
        {
          "internalType": "uint256",
          "name": "_tokenId",
          "type": "uint256"
        }
      ],
      "name": "pickMinedGEM",
      "outputs": [
        {
          "internalType": "uint256",
          "name": "",
          "type": "uint256"
        }
      ],
      "stateMutability": "payable",
      "type": "function"
    },
    {
      "inputs": [],
      "name": "preMintedGemsAvailable",
      "outputs": [
        {
          "internalType": "uint256[]",
          "name": "GemsAvailable",
          "type": "uint256[]"
        }
      ],
      "stateMutability": "view",
      "type": "function"
    },
    {
      "inputs": [
        {
          "internalType": "uint256",
          "name": "",
          "type": "uint256"
        }
      ],
      "name": "proxyImplementation",
      "outputs": [
        {
          "internalType": "address",
          "name": "",
          "type": "address"
        }
      ],
      "stateMutability": "view",
      "type": "function"
    },
    {
      "inputs": [
        {
          "internalType": "uint256",
          "name": "requestId",
          "type": "uint256"
        },
        {
          "internalType": "uint256",
          "name": "randomWord",
          "type": "uint256"
        }
      ],
      "name": "rawFulfillRandomWords",
      "outputs": [],
      "stateMutability": "nonpayable",
      "type": "function"
    },
    {
      "inputs": [],
      "name": "renounceOwnership",
      "outputs": [],
      "stateMutability": "nonpayable",
      "type": "function"
    },
    {
      "inputs": [
        {
          "internalType": "uint256",
          "name": "",
          "type": "uint256"
        }
      ],
      "name": "s_requests",
      "outputs": [
        {
          "internalType": "uint256",
          "name": "tokenId",
          "type": "uint256"
        },
        {
          "internalType": "uint256",
          "name": "randomWord",
          "type": "uint256"
        },
        {
          "internalType": "uint256",
          "name": "chosenTokenId",
          "type": "uint256"
        },
        {
          "internalType": "address",
          "name": "requester",
          "type": "address"
        },
        {
          "internalType": "bool",
          "name": "requested",
          "type": "bool"
        },
        {
          "internalType": "bool",
          "name": "fulfilled",
          "type": "bool"
        }
      ],
      "stateMutability": "view",
      "type": "function"
    },
    {
      "inputs": [
        {
          "internalType": "address",
          "name": "from",
          "type": "address"
        },
        {
          "internalType": "address",
          "name": "to",
          "type": "address"
        },
        {
          "internalType": "uint256",
          "name": "tokenId",
          "type": "uint256"
        }
      ],
      "name": "safeTransferFrom",
      "outputs": [],
      "stateMutability": "nonpayable",
      "type": "function"
    },
    {
      "inputs": [
        {
          "internalType": "address",
          "name": "from",
          "type": "address"
        },
        {
          "internalType": "address",
          "name": "to",
          "type": "address"
        },
        {
          "internalType": "uint256",
          "name": "tokenId",
          "type": "uint256"
        },
        {
          "internalType": "bytes",
          "name": "data",
          "type": "bytes"
        }
      ],
      "name": "safeTransferFrom",
      "outputs": [],
      "stateMutability": "nonpayable",
      "type": "function"
    },
    {
      "inputs": [
        {
          "internalType": "bytes4",
          "name": "",
          "type": "bytes4"
        }
      ],
      "name": "selectorImplementation",
      "outputs": [
        {
          "internalType": "address",
          "name": "",
          "type": "address"
        }
      ],
      "stateMutability": "view",
      "type": "function"
    },
    {
      "inputs": [
        {
          "internalType": "address",
          "name": "_airdrop",
          "type": "address"
        }
      ],
      "name": "setAirdrop",
      "outputs": [],
      "stateMutability": "nonpayable",
      "type": "function"
    },
    {
      "inputs": [
        {
          "internalType": "address",
          "name": "operator",
          "type": "address"
        },
        {
          "internalType": "bool",
          "name": "approved",
          "type": "bool"
        }
      ],
      "name": "setApprovalForAll",
      "outputs": [],
      "stateMutability": "nonpayable",
      "type": "function"
    },
    {
      "inputs": [
        {
          "internalType": "uint32",
          "name": "_RareGemsCooldownPeriod",
          "type": "uint32"
        },
        {
          "internalType": "uint32",
          "name": "_UniqueGemsCooldownPeriod",
          "type": "uint32"
        },
        {
          "internalType": "uint32",
          "name": "_EpicGemsCooldownPeriod",
          "type": "uint32"
        },
        {
          "internalType": "uint32",
          "name": "_LegendaryGemsCooldownPeriod",
          "type": "uint32"
        },
        {
          "internalType": "uint32",
          "name": "_MythicGemsCooldownPeriod",
          "type": "uint32"
        }
      ],
      "name": "setGemsCooldownPeriods",
      "outputs": [],
      "stateMutability": "nonpayable",
      "type": "function"
    },
    {
      "inputs": [
        {
          "internalType": "uint32",
          "name": "_RareGemsMiningPeriod",
          "type": "uint32"
        },
        {
          "internalType": "uint32",
          "name": "_UniqueGemsMiningPeriod",
          "type": "uint32"
        },
        {
          "internalType": "uint32",
          "name": "_EpicGemsMiningPeriod",
          "type": "uint32"
        },
        {
          "internalType": "uint32",
          "name": "_LegendaryGemsMiningPeriod",
          "type": "uint32"
        },
        {
          "internalType": "uint32",
          "name": "_MythicGemsMiningPeriod",
          "type": "uint32"
        }
      ],
      "name": "setGemsMiningPeriods",
      "outputs": [],
      "stateMutability": "nonpayable",
      "type": "function"
    },
    {
      "inputs": [
        {
          "internalType": "uint256",
          "name": "_CommonGemsValue",
          "type": "uint256"
        },
        {
          "internalType": "uint256",
          "name": "_RareGemsValue",
          "type": "uint256"
        },
        {
          "internalType": "uint256",
          "name": "_UniqueGemsValue",
          "type": "uint256"
        },
        {
          "internalType": "uint256",
          "name": "_EpicGemsValue",
          "type": "uint256"
        },
        {
          "internalType": "uint256",
          "name": "_LegendaryGemsValue",
          "type": "uint256"
        },
        {
          "internalType": "uint256",
          "name": "_MythicGemsValue",
          "type": "uint256"
        }
      ],
      "name": "setGemsValue",
      "outputs": [],
      "stateMutability": "nonpayable",
      "type": "function"
    },
    {
      "inputs": [
        {
          "internalType": "uint256",
          "name": "_tokenId",
          "type": "uint256"
        },
        {
          "internalType": "bool",
          "name": "_isLocked",
          "type": "bool"
        }
      ],
      "name": "setIsLocked",
      "outputs": [],
      "stateMutability": "nonpayable",
      "type": "function"
    },
    {
      "inputs": [
        {
          "internalType": "address",
          "name": "_marketplace",
          "type": "address"
        }
      ],
      "name": "setMarketPlaceAddress",
      "outputs": [],
      "stateMutability": "nonpayable",
      "type": "function"
    },
    {
      "inputs": [
        {
          "internalType": "uint8",
          "name": "_RareminingTry",
          "type": "uint8"
        },
        {
          "internalType": "uint8",
          "name": "_UniqueminingTry",
          "type": "uint8"
        },
        {
          "internalType": "uint8",
          "name": "_EpicminingTry",
          "type": "uint8"
        },
        {
          "internalType": "uint8",
          "name": "_LegendaryminingTry",
          "type": "uint8"
        },
        {
          "internalType": "uint8",
          "name": "_MythicminingTry",
          "type": "uint8"
        }
      ],
      "name": "setMiningTries",
      "outputs": [],
      "stateMutability": "nonpayable",
      "type": "function"
    },
    {
      "inputs": [
        {
          "internalType": "uint256",
          "name": "tokenId",
          "type": "uint256"
        },
        {
          "internalType": "string",
          "name": "_tokenURI",
          "type": "string"
        }
      ],
      "name": "setTokenURI",
      "outputs": [],
      "stateMutability": "nonpayable",
      "type": "function"
    },
    {
      "inputs": [
        {
          "internalType": "address",
          "name": "_treasury",
          "type": "address"
        }
      ],
      "name": "setTreasury",
      "outputs": [],
      "stateMutability": "nonpayable",
      "type": "function"
    },
    {
      "inputs": [
        {
          "internalType": "uint256",
          "name": "_tokenId",
          "type": "uint256"
        }
      ],
      "name": "startMiningGEM",
      "outputs": [
        {
          "internalType": "bool",
          "name": "",
          "type": "bool"
        }
      ],
      "stateMutability": "nonpayable",
      "type": "function"
    },
    {
      "inputs": [
        {
          "internalType": "bytes4",
          "name": "interfaceId",
          "type": "bytes4"
        }
      ],
      "name": "supportsInterface",
      "outputs": [
        {
          "internalType": "bool",
          "name": "",
          "type": "bool"
        }
      ],
      "stateMutability": "view",
      "type": "function"
    },
    {
      "inputs": [],
      "name": "symbol",
      "outputs": [
        {
          "internalType": "string",
          "name": "",
          "type": "string"
        }
      ],
      "stateMutability": "view",
      "type": "function"
    },
    {
      "inputs": [
        {
          "internalType": "address",
          "name": "",
          "type": "address"
        }
      ],
      "name": "tokenMiningByUser",
      "outputs": [
        {
          "internalType": "uint256",
          "name": "",
          "type": "uint256"
        }
      ],
      "stateMutability": "view",
      "type": "function"
    },
    {
      "inputs": [
        {
          "internalType": "uint256",
          "name": "",
          "type": "uint256"
        }
      ],
      "name": "tokenReadyToMine",
      "outputs": [
        {
          "internalType": "bool",
          "name": "",
          "type": "bool"
        }
      ],
      "stateMutability": "view",
      "type": "function"
    },
    {
      "inputs": [
        {
          "internalType": "uint256",
          "name": "tokenId",
          "type": "uint256"
        }
      ],
      "name": "tokenURI",
      "outputs": [
        {
          "internalType": "string",
          "name": "",
          "type": "string"
        }
      ],
      "stateMutability": "view",
      "type": "function"
    },
    {
      "inputs": [
        {
          "internalType": "address",
          "name": "_owner",
          "type": "address"
        }
      ],
      "name": "tokensOfOwner",
      "outputs": [
        {
          "internalType": "uint256[]",
          "name": "ownerTokens",
          "type": "uint256[]"
        }
      ],
      "stateMutability": "view",
      "type": "function"
    },
    {
      "inputs": [],
      "name": "totalSupply",
      "outputs": [
        {
          "internalType": "uint256",
          "name": "",
          "type": "uint256"
        }
      ],
      "stateMutability": "view",
      "type": "function"
    },
    {
      "inputs": [
        {
          "internalType": "address",
          "name": "from",
          "type": "address"
        },
        {
          "internalType": "address",
          "name": "to",
          "type": "address"
        },
        {
          "internalType": "uint256",
          "name": "tokenId",
          "type": "uint256"
        }
      ],
      "name": "transferFrom",
      "outputs": [],
      "stateMutability": "nonpayable",
      "type": "function"
    },
    {
      "inputs": [
        {
          "internalType": "address",
          "name": "newOwner",
          "type": "address"
        }
      ],
      "name": "transferOwnership",
      "outputs": [],
      "stateMutability": "nonpayable",
      "type": "function"
    },
    {
      "inputs": [],
      "name": "unpause",
      "outputs": [],
      "stateMutability": "nonpayable",
      "type": "function"
    },
    {
      "inputs": [
        {
          "internalType": "address",
          "name": "",
          "type": "address"
        },
        {
          "internalType": "uint256",
          "name": "",
          "type": "uint256"
        }
      ],
      "name": "userMiningStartTime",
      "outputs": [
        {
          "internalType": "uint256",
          "name": "",
          "type": "uint256"
        }
      ],
      "stateMutability": "view",
      "type": "function"
    },
    {
      "inputs": [
        {
          "internalType": "address",
          "name": "",
          "type": "address"
        },
        {
          "internalType": "uint256",
          "name": "",
          "type": "uint256"
        }
      ],
      "name": "userMiningToken",
      "outputs": [
        {
          "internalType": "bool",
          "name": "",
          "type": "bool"
        }
      ],
      "stateMutability": "view",
      "type": "function"
    }
  ],
  "bytecode": "0x60808060405234601a576001601f556172b390816100208239f35b600080fdfe608080604052600436101561001357600080fd5b60003560e01c90816301ffc9a71461543757508063044bc7791461540e57806304e9fd7e1461262557806306fdde031461536f578063081812fc14615324578063093ba92b14615300578063095ea7b3146152195780630a8ce210146151fb5780630b513d991461516e5780630ff1ac67146146545780631459457a1461415a578063162094c41461411f578063166b35c9146140fc57806318160ddd146140d95780631aac071d146140075780631c88025414613fe05780631da0fc9c14613e4057806323b872dd14613dbc578063274f245514613a95578063276a28a314613a6357806333d5efdb14613a3c57806333d608f114613a1e57806333fcb64814612e30578063356edf7414612e0f57806337ed11db146129345780633d007e571461290b5780633ec7af4a146128e75780633f4ba83a1461288b5780633fad18341461286d57806342842e0e1461283f5780634cbe4360146127f25780634d723a751461272c57806350d2a276146126e7578063550d01a3146126a85780635c975abb146126855780635f2d00231461262557806361f7f6d7146125735780636352211e1461254357806363a8fd8914612520578063676f79f1146124d8578063694eaa40146124af5780636ae638d0146124865780636c106fea1461246257806370a0823114610e45578063715018a6146123f857806372820dbc146123b557806377207e371461238e5780637866369b1461235d5780638456cb59146122fe5780638462151c146122da578063864ccaac146122b35780638d41fe301461228f5780638da5cb5b146122595780638e80a1651461202a57806395d89b4114611f5457806397125c4014611f20578063975781b7146113aa57806397d886281461138c5780639d3415f61461136e578063a168fa89146112fd578063a1770a7d146112b0578063a20fa9e914611292578063a22cb465146111f2578063aa723bb7146110f1578063aae31df314611016578063ac33a27314610f9d578063ad6caa4714610e4a578063b4f6eae414610e45578063b88d4fde14610d22578063b911135f14610cee578063bad39efd14610cc7578063c0c2fd9914610ca9578063c138907214610c6f578063c28fb6b714610c31578063c61a46c514610c0d578063c68a538514610be6578063c87b56dd14610af7578063cc98ef9614610ab4578063cec21acb14610a7a578063e002460414610a51578063e0dd8f1b14610a2a578063e316dc1314610a0c578063e985e9c5146109be578063ea2b7b4314610911578063f0f44260146108ce578063f2a6094d146108a8578063f2fde38b1461087d578063f317d7dd14610835578063f41c472914610756578063f99a6bb5146105c9578063fb250435146105a2578063fea90d02146104ab5763ff198a1d1461041e57600080fd5b346104a65760c03660031901126104a6577f6474c0fa1cc494f92527db3b4306654db98a8ff14de99d615b7e445e0266ef4360c060043560a43560843560643560443560243561046c6161a8565b856011558060125581601355826014558360155584601655604051958652602086015260408501526060840152608083015260a0820152a1005b600080fd5b346104a65760003660031901126104a65760045460006104ca82615a30565b9160008060018060a01b0380601b5416915b84811061053a5786866104ee81615a30565b9160005b82811061051b57505061051760405192839283526040602084015260408301906156b1565b0390f35b8061052860019284615a62565b516105338287615a62565b52016104f2565b8060005260086020528282604060002054161480610587575b610560575b6001016104dc565b949260019061056e87615932565b505461057a828a615a62565b5293810195930192610558565b5060ff600461059583615932565b50015460301c1615610553565b346104a65760003660031901126104a657602063ffffffff600f5460501c16604051908152f35b346104a6576020806003193601126104a657600435906105ee60ff600f5416156159f1565b33156107445760008281526008825260409020546001600160a01b039033908216036107325781610695600092600161062687615932565b5001549061063c61063688615932565b90616643565b610645336157c7565b61064f81546161e1565b9055868552600884526040852080546001600160a01b0319169055610673876169d5565b601b541690604051948580948193630169dc3160e01b83523360048401615f9b565b03925af1918215610726576000926106f9575b5050156106e7576106e27f65aff8e0552d208dfaf55b1280e55553b7dba628290897ff43c8f086d5dbfd2a91604051918291339083615fb6565b0390a1005b6040516312171d8360e31b8152600490fd5b6107189250803d1061071f575b6107108183615609565b810190615f83565b82806106a8565b503d610706565b6040513d6000823e3d90fd5b6040516302b327b560e41b8152600490fd5b604051639fabe1c160e01b8152600490fd5b346104a65760a03660031901126104a65761076f6154bc565b6107776154cc565b61077f6154dc565b916064359260ff84168085036104a65760843560ff8116928382036104a65760ff60a09681937f06b36b7c2517dbb6d0fec68beba3c915efebf56980628b2181e3fcd96920910e996107cf6161a8565b600f54918460281b9060281b169161ff008a60081b169065ffffffffff0019161762ff00008460101b161763ff0000008660181b1617908460201b9060201b161717600f55816040519716875216602086015216604084015260608301526080820152a1005b346104a6576108433661576e565b906007548110156104a65761085790615974565b509060028110156104a65760ff6020928260051c015460f86040519360031b161c168152f35b346104a65760203660031901126104a6576108a661089961553a565b6108a16161a8565b615ef2565b005b346104a65760003660031901126104a657602060105463ffffffff60405191831c168152f35b346104a65760203660031901126104a6576108e761553a565b6108ef6161a8565b601b80546001600160a01b0319166001600160a01b0392909216919091179055005b346104a6577f12db92c8c4542eebc521c0180f8ce8d4c77dad4fcfb9f9f9c1c8b31e0b9cd8116106e2610943366156e5565b9161094f9593956161a8565b600f805463ffffffff60b01b60b086901b1663ffffffff60301b603089901b16600160301b600160d01b03199092169190911763ffffffff60501b60508a901b161763ffffffff60701b607085901b161763ffffffff60901b609086901b161717905560405195869586615a95565b346104a65760403660031901126104a6576109d761553a565b6109e86109e2615550565b916157e1565b9060018060a01b0316600052602052602060ff604060002054166040519015158152f35b346104a65760003660031901126104a6576020601154604051908152f35b346104a65760003660031901126104a657602063ffffffff600f5460b01c16604051908152f35b346104a65760003660031901126104a657601b546040516001600160a01b039091168152602090f35b346104a65760203660031901126104a6576001600160a01b03610a9b61553a565b1660005260096020526020604060002054604051908152f35b346104a65760203660031901126104a657610acd61553a565b610ad56161a8565b601c80546001600160a01b0319166001600160a01b0392909216919091179055005b346104a6576020806003193601126104a65760043560008181526008835260409020546001600160a01b031615610b8957610b3181615fcf565b506000527f0542a41881ee128a365a727b282c86fa859579490b9bb45aab8503648c8e79008152610b65604060002061588d565b906000604051610b74816155ee565b526105176040519282849384528301906154fa565b60405162461bcd60e51b815260048101839052602f60248201527f4552433732314d657461646174613a2055524920717565727920666f72206e6f60448201526e3732bc34b9ba32b73a103a37b5b2b760891b6064820152608490fd5b346104a65760003660031901126104a657602063ffffffff600f5460901c16604051908152f35b346104a65760003660031901126104a657602060ff600f5460101c16604051908152f35b346104a65760003660031901126104a657601b5461051790610c5b906001600160a01b0316615b84565b6040519182916020835260208301906156b1565b346104a65760203660031901126104a6576001600160a01b03610c9061553a565b16600052600a6020526020604060002054604051908152f35b346104a65760003660031901126104a6576020601654604051908152f35b346104a65760003660031901126104a657602063ffffffff60105460601c16604051908152f35b346104a65760203660031901126104a6576004356000526001602052602060018060a01b0360406000205416604051908152f35b346104a65760803660031901126104a657610d3b61553a565b610d43615550565b604435916064356001600160401b0381116104a657366023820112156104a657610d7790369060248160040135910161565c565b610d8660ff600f5416156159f1565b6001600160a01b0383811690831614610e335760ff6004610da686615932565b50015460301c16610e215783610df86106e292610de57f85d07a7616aea29f5d972fd9100b991c224490bd49b737377d908f66f34d9afd9787876161ee565b610df083878761626c565b8286866168bc565b604051938493846001600160a01b03918216815291166020820152604081019190915260600190565b604051635399ebf560e01b8152600490fd5b604051636879d8a360e01b8152600490fd5b610a7a565b346104a6576020806003193601126104a657600435610e6e60ff600f5416156159f1565b60008181526008835260409020546001600160a01b0316330361073257600160ff6004610e9a84615932565b50015460301c16151503610f8c5733600052600b82526040600020816000528252600160ff60406000205416151503610f7a576003610ed882615932565b500154610f685760607fca17641f3c9a2465d959a125078cfc9df9fe8f8f67f9a9a4b4a7e22ae7c6e9aa91610f0c33615793565b816000528452604060002060ff198154169055610f28336157ad565b816000528452600060408120556004610f4082615932565b5001805460ff60301b191690556040805191825233858301524290820152a160405160018152f35b604051635e288c1960e11b8152600490fd5b60405163126552f960e01b8152600490fd5b604051622a569d60e11b8152600490fd5b346104a65760003660031901126104a657604051601780548083526000918252602080840193927fc624b66cc0138b8fabc209247f72d758e1cf3343756d543badbf24212bed8c1592915b828210610fff5761051785610c5b81890382615609565b835486529485019460019384019390910190610fe8565b346104a65760203660031901126104a657600060a06040516110378161559d565b8281528260208201528260408201528260608201528260808201520152600435600052600e60205260c06040600020604051906110738261559d565b8054918281526001820154916020820192835260036002820154916040840192835201549260018060a01b03916060840191838616835260ff60a060808701968289831c1615158852019660a81c161515865260405196875251602087015251604086015251166060840152511515608083015251151560a0820152f35b346104a6576020806003193601126104a65761110e600435615d43565b60405190828252805183830152828101516040830152604081015160608301526060810151608083015261114a608082015160a0840190615967565b63ffffffff60a08201511660c083015260c081015160ff80911660e084015260e082015161010090151581850152820151610120908185016000905b87600483106111dc5750505050820151600094906101a085015b600287106111c55785806105176101408801516101e0808401526102008301906154fa565b8280600192868551168152019201960195906111a0565b8060019287865116815201930191019091611186565b346104a65760403660031901126104a65761120b61553a565b611213615784565b6001600160a01b039091169081156112795761122e336157e1565b8260005260205260406000209015159060ff1981541660ff83161790556040519081527f17307eab39ab6107e8899845ad3d59bd9653f200f220920489ca2b5937696c3160203392a3005b604051630b61174360e31b815260048101839052602490fd5b346104a65760003660031901126104a6576020601354604051908152f35b346104a65760403660031901126104a6576001600160a01b036112d161553a565b16600052600b6020526040600020602435600052602052602060ff604060002054166040519015158152f35b346104a65760203660031901126104a657600435600052600e60205260c0604060002060ff81549160018101549060036002820154910154916040519485526020850152604084015260018060a01b0381166060840152818160a01c161515608084015260a81c16151560a0820152f35b346104a65760003660031901126104a6576020601554604051908152f35b346104a65760003660031901126104a6576020601454604051908152f35b346104a6576101003660031901126104a657600660043510156104a65736604312156104a6576040516113dc816155b8565b80366064116104a6576024905b60648210611f08578236608312156104a657604051611407816155d3565b60e4813682116104a6576064905b828210611ef05750505060e4356001600160401b0381116104a65761143e903690600401615693565b61145360018060a01b03601b5416331461598f565b600f5461146360ff8216156159f1565b60ff84511660ff602086015116906000526005602052604060002090600052602052611493604060002054615853565b15611ede576114d06114c26114b460ff86511660ff60208801511690615ccf565b60ff60408701511690615ccf565b60ff60608601511690615ccf565b906004356117be575060ff8351166001908181141590816117b2575b5061178c5760ff602085015116818114159081611780575b5061175b5760ff60408501511681811415908161174f575b506117295760ff60608501511681811415908161171d575b506116f7575060ff1660088110156116c25750600080916011549060005b60ff61156563ffffffff80961642615ac5565b946040519661157388615581565b600088528560208901528660408901526000606089015261159960043560808a01615ce3565b16918260a08801521660c0860152600060e0860152856101008601526101209187838701526115cf61014096828882015261642c565b6004546000198101979088116116ac5760209888976000805160206171be833981519152976116779661169a966116868e96611656898f8061161081615932565b5055600081815260088c526040902080546001600160a01b0319163390811790915561163b906157c7565b6116458154615b75565b905561165181336166cc565b616017565b6040519b8c9b8c986101809a8a6116708d9c600435615967565b0190615b2d565b60608c015260808b0190615b02565b6101008901528701528501528301906154fa565b336101608301520390a2604051908152f35b634e487b7160e01b600052601160045260246000fd5b60849060405190634967af1f60e11b8252600482015260406024820152600660448201526521a7a6a6a7a760d11b6064820152fd5b606490604051906358be4af360e11b825260036004830152602482015260026044820152fd5b60029150141586611534565b606490604051906358be4af360e11b825260026004830152602482015260026044820152fd5b6002915014158661151c565b606490604051906358be4af360e11b8252806004830152602482015260026044820152fd5b60029150141586611504565b606490604051906358be4af360e11b825260006004830152602482015260026044820152fd5b600291501415866114ec565b906004356001036119535760ff845116600290818114159081611947575b506119215760ff602086015116818114159081611915575b506118ef5760ff6040860151168181141590816118e3575b506118be5760ff6060860151168181141590816118b2575b5061188c575060ff16600c811015611859575063ffffffff90818160d01c16918160301c169260ff6012549260081c16611552565b60849060405190634967af1f60e11b825260048201526040602482015260046044820152635241524560e01b6064820152fd5b606490604051906358be4af360e11b825260036004830152602482015260036044820152fd5b60039150141587611824565b606490604051906358be4af360e11b8252806004830152602482015260036044820152fd5b6003915014158761180c565b606490604051906358be4af360e11b825260016004830152602482015260036044820152fd5b600391501415876117f4565b606490604051906358be4af360e11b825260006004830152602482015260036044820152fd5b600391501415876117dc565b600435600203611ae95760ff84511660038114159081611add575b50611ab75760ff60208501511660038114159081611aab575b50611a855760ff60408501511660038114159081611a79575b50611a535760ff60608501511660038114159081611a47575b50611a215760ff1660108110156119ec575063ffffffff908160105416918160501c169260ff6013549260101c16611552565b60849060405190634967af1f60e11b82526004820152604060248201526006604482015265554e4951554560d01b6064820152fd5b60646040516358be4af360e11b8152600360048201526003602482015260046044820152fd5b600491501415866119b9565b60646040516358be4af360e11b8152600260048201526003602482015260046044820152fd5b600491501415866119a0565b60646040516358be4af360e11b8152600160048201526003602482015260046044820152fd5b60049150141586611987565b60646040516358be4af360e11b8152600060048201526003602482015260046044820152fd5b6004915014158661196e565b600435600303611c805760ff84511660048114159081611c74575b50611c4e5760ff60208501511660048114159081611c42575b50611c1c5760ff60408501511660048114159081611c10575b50611bea5760ff60608501511660048114159081611bde575b50611bb85760ff166014811015611b85575063ffffffff908160105460201c16918160701c169260ff6014549260181c16611552565b60849060405190634967af1f60e11b825260048201526040602482015260046044820152634550494360e01b6064820152fd5b60646040516358be4af360e11b8152600360048201526004602482015260056044820152fd5b60059150141586611b4f565b60646040516358be4af360e11b8152600260048201526004602482015260056044820152fd5b60059150141586611b36565b60646040516358be4af360e11b8152600160048201526004602482015260056044820152fd5b60059150141586611b1d565b60646040516358be4af360e11b8152600060048201526004602482015260056044820152fd5b60059150141586611b04565b6004803503611e1f5760ff84511660058114159081611e13575b50611dec5760ff60208501511660058114159081611de0575b50611db95760ff60408501511660058114159081611dad575b50611d865760ff60608501511660058114159081611d7a575b50611d535760ff166018811015611d1b575063ffffffff908160105460401c16918160901c169260ff6015549260201c16611552565b60849060405190634967af1f60e11b825260048201526040602482015260096044820152684c4547454e4441525960b81b6064820152fd5b6040516358be4af360e11b8152600360048201526005602482015260066044820152606490fd5b60069150141586611ce5565b6040516358be4af360e11b8152600260048201526005602482015260066044820152606490fd5b60069150141586611ccc565b6040516358be4af360e11b8152600160048201526005602482015260066044820152606490fd5b60069150141586611cb3565b6040516358be4af360e11b8152600060048201526005602482015260066044820152606490fd5b60069150141586611c9a565b50600435600503611ecc57600660ff84511614801590611eba575b8015611ea8575b8015611e96575b611e705763ffffffff908160105460601c16918160b01c169260ff6016549260281c16611552565b60646040516358be4af360e11b8152600060048201526006602482015260066044820152fd5b50600660ff6060850151161415611e48565b50600660ff6040850151161415611e41565b50600660ff6020850151161415611e3a565b60405163036cae1f60e31b8152600490fd5b604051634441919d60e11b8152600490fd5b60208091611efd846154ec565b815201910190611415565b60208091611f15846154ec565b8152019101906113e9565b346104a65760203660031901126104a6576004356000526008602052602060018060a01b0360406000205416604051908152f35b346104a65760003660031901126104a65760405160008051602061725e8339815191528054826000611f8583615853565b9283835260209460019186600182169182600014612008575050600114611fc9575b5050611fb592500383615609565b6105176040519282849384528301906154fa565b85925060005281600020906000915b858310611ff0575050611fb593508201018580611fa7565b80548389018501528794508693909201918101611fd8565b9250935050611fb594915060ff191682840152151560051b8201018580611fa7565b346104a65760603660031901126104a6576001600160401b036004358181116104a65761205b903690600401615693565b906120646154cc565b9060ff61206f6154dc565b926120786161a8565b1691826000526020926005845260ff604060002092169182600052845260406000208551848111612198576120ad8254615853565b601f811161221e575b5085601f82116001146121b95790806120d7926000916121ae575b50615c53565b90555b6040519260408401908482109082111761219857604052825282820152600754600160401b811015612198578060016121169201600755615974565b9190916121825761212691615c7a565b6006549160ff83169160ff83146116ac5760ff60017fe4d2864ec291f6f11cb3363fa1bd2a4d5ff49a2cfdf4bf7dfe3b90a26b8c776f940116809460ff19161760065561217d6040519282849384528301906154fa565b0390a2005b634e487b7160e01b600052600060045260246000fd5b634e487b7160e01b600052604160045260246000fd5b9050880151896120d1565b601f1982169083600052876000209160005b898b8383106122095750505090836001949392106121f0575b5050811b0190556120da565b89015160001960f88460031b161c1916905588806121e4565b840151855560019094019392830192016121cb565b612249908360005287600020601f840160051c81019189851061224f575b601f0160051c0190615c3c565b876120b6565b909150819061223c565b346104a65760003660031901126104a65760008051602061719e833981519152546040516001600160a01b039091168152602090f35b346104a65760003660031901126104a657602060ff600f5460181c16604051908152f35b346104a65760003660031901126104a657602063ffffffff600f5460301c16604051908152f35b346104a65760203660031901126104a657610517610c5b6122f961553a565b615b84565b346104a65760003660031901126104a6576123176161a8565b6001600f5461232960ff8216156159f1565b60ff191617600f557f62e78cea01bee320cd4e420270b5ea74000d11b0c9f74754ebdbfc544b05a2586020604051338152a1005b346104a65760203660031901126104a657600435600052600d602052602060ff604060002054166040519015158152f35b346104a65760003660031901126104a657602063ffffffff60105460401c16604051908152f35b346104a65760203660031901126104a6576123ce61553a565b6123d66161a8565b601d80546001600160a01b0319166001600160a01b0392909216919091179055005b346104a65760003660031901126104a6576124116161a8565b60008051602061719e83398151915280546001600160a01b031981169091556000906001600160a01b03167f8be0079c531659141344cd1fd0a4f28419497f9722a3daafe3b4186f6b6457e08280a3005b346104a65760003660031901126104a657602060ff600f5460081c16604051908152f35b346104a65760003660031901126104a657601a546040516001600160a01b039091168152602090f35b346104a65760003660031901126104a657601c546040516001600160a01b039091168152602090f35b346104a65760403660031901126104a6576001600160a01b036124f961553a565b16600052600c60205260406000206024356000526020526020604060002054604051908152f35b346104a65760003660031901126104a657602060ff600054166040519015158152f35b346104a65760203660031901126104a6576020612561600435615fcf565b6040516001600160a01b039091168152f35b346104a65760203660031901126104a6576004356004548110156104a65761259a90615932565b5080549061051760018201549160028101549360ff6003830154926125c660076004830154920161588d565b936040519788976101209589526020890152604088015260608701526125f160808701838316615967565b63ffffffff8160081c1660a0870152818160281c1660c087015260301c16151560e0850152806101008501528301906154fa565b346104a65760403660031901126104a65761263e6154bc565b60ff6126486154cc565b9116600052600560205260ff60406000209116600052602052610517612671604060002061588d565b6040519182916020835260208301906154fa565b346104a65760003660031901126104a657602060ff600f54166040519015158152f35b346104a65760203660031901126104a6576001600160a01b036126c961553a565b166000526002602052602060ff604060002054166040519015158152f35b346104a65760203660031901126104a65760043563ffffffff60e01b81168091036104a6576000526003602052602060018060a01b0360406000205416604051908152f35b346104a65760403660031901126104a657612745615784565b601d54336001600160a01b03918216149081156127e4575b501561277a576108a69060046127738135615932565b5001615b58565b608460405162461bcd60e51b815260206004820152604060248201527f66756e6374696f6e2063616c6c61626c652066726f6d20746865206d61726b6560448201527f74706c616365206f722061697264726f7020636f6e747261637473206f6e6c796064820152fd5b9050601c541633148261275d565b346104a65760003660031901126104a6576000806004545b80831061281c57602082604051908152f35b906128366001918261282d86615932565b50015490615ac5565b9201919061280a565b346104a65761284d36615739565b9160405161285a816155ee565b60008152610d8660ff600f5416156159f1565b346104a65760003660031901126104a6576020601854604051908152f35b346104a65760003660031901126104a6576128a46161a8565b600f546128b460ff8216156159f1565b60ff1916600f557f5db9ee0a495bf2e6ff9c91a7834c1ba4fdd244a5e8aa4e537bd38aeae4b073aa6020604051338152a1005b346104a65760003660031901126104a657602060ff600f5460281c16604051908152f35b346104a65760003660031901126104a657601d546040516001600160a01b039091168152602090f35b346104a6576129423661576e565b601e549091906001600160a01b031633819003612df1575080600052600e60205260ff60036040600020015460a01c1615612ddf576000818152600e6020526040902060038101805460ff60a81b1916600160a81b1790556001810183905554916129b860056129b185615932565b5001615cef565b9160ff8351169160ff6020850151169360ff60608160408401511692015116936129ff6000956129fa600454946129fa6129f187615a30565b9a600096615ccf565b615ccf565b60005b838110612ce55750505050612a1683615a30565b9360005b848110612cc65750507fdd6ebb40766c50572c78f680f70ff043535bc04e71ac56a352f7c3df1e11ec516040518481526040602082015280612a5f60408201886156b1565b0390a1821580612c8257612c6c57612bc193602093612a7f920690615a62565b5181600052600e83526002604060002001556004612a9c85615932565b5001805460ff60301b1916905560006003612ab686615932565b50015580600052600e8252612ae8612ae260ff6004612ad9604060002054615932565b50015416616ab0565b42615ac5565b6002612af386615932565b5001556001600160a01b03612b0785615fcf565b166000908152600b8352604080822086835284529020805460ff191690556001600160a01b03612b3685615fcf565b16600052600c825260406000208460005282526000604081205580600052600e82526004612b6b600260406000200154615932565b5001805460ff60281b19169055601b546000918252600e835260408083206003810154600290910154915163048dbcef60e41b81529586946001600160a01b039485169486949193859392911660048401615f9b565b03925af190811561072657600091612c4d575b5015612c0d576106e27f97b363697f59781efcf0539a3eeabceea1e3b444e248009d3730fa6a26db9c2491604051918291339083615fb6565b60405162461bcd60e51b81526020600482015260186024820152773330b4b632b2103a37903a3930b739b332b9103a37b5b2b760411b6044820152606490fd5b612c66915060203d60201161071f576107108183615609565b82612bd4565b634e487b7160e01b600052601260045260246000fd5b5050602092507f87c3badc36a4b7c7f2331493a7998c2f9c414769a1bc588ef4b4c7ef302aeb51939150600052600e825260006002604082200155604051908152a1005b80612cd360019284615a62565b51612cde8289615a62565b5201612a1a565b60ff6005612cf283615932565b50015416612d33612d196005612d0785615932565b5001549260ff600894851c1690615ccf565b60ff6005612d2686615932565b50015460101c1690615ccf565b60ff612d56612d4185615932565b509282600581891695015460181c1690615ccf565b16109081612db6575b5080612d9b575b612d73575b600101612a02565b95916001808092612d838a615932565b5054612d8f828d615a62565b52019301969050612d6b565b5060ff6004612da983615932565b50015460301c1615612d66565b60008381526020919091526040902054601b546001600160a01b0390811691161490508a612d5f565b6040516392b8197960e01b8152600490fd5b6044906040519063073e64fd60e21b82523360048301526024820152fd5b346104a65760003660031901126104a657602060ff60065416604051908152f35b346104a65760803660031901126104a6576004356001600160401b0381116104a657366023820112156104a657806004013590612e6c8261562a565b91612e7a6040519384615609565b8083526024602084019160051b830101913683116104a657602401905b828210613a0e5783600660243510156104a65736606312156104a657604051612ebf816155b8565b6084813682116104a6576044905b8282106139f657505050600f5490612ee860ff8316156159f1565b601254916013549060145493601554916016546010549360405197886102808101106001600160401b036102808b0111176121985763ffffffff9687956102808b016040528a5260208a0152604089015260608801526080870152818160301c1660a0870152818160501c1660c0870152818160701c1660e0870152818160901c16610100870152818160b01c1661012087015260ff8160081c1661014087015260ff8160101c1661016087015260ff8160181c1661018087015260ff8160201c166101a087015260ff8160281c166101c087015260d01c166101e0850152818116610200850152818160201c16610220850152818160401c1661024085015260601c166102608301526080604051613000816155d3565b36903760405192613010846155d3565b60803685373315610744576000926024356138a557600282510361389357805160a08201516101408301516101e09093015163ffffffff9182169691169260ff16905b60405197613060896155d3565b6080368a376000976000955b87518710156132515761307f8789615a62565b5160005260086020523360018060a01b0360406000205416036107325760ff60046130b36130ad8a8c615a62565b51615932565b50015460301c16610e21578360ff60046130d06130ad8b8d615a62565b500154169061323b57600681101561323b5760243503611ecc5760ff61318f8c82606081600561317f8f8f818561311f81876131126130ad876130ad99615a62565b50015416828c5116615ccf565b1689528561314881876131356130ad8787615a62565b50015460081c168260208d015116615ccf565b1660208a01528561317481876131616130ad8787615a62565b50015460101c168260408d015116615ccf565b1660408a0152615a62565b50015460181c1692015116615ccf565b1660608c015260005b885181101561322f578a156131b0575b600101613198565b995060016131e18b8b6131ce6131c68c8e615a62565b51928d615a62565b5160ff6020818451169301511692616b6e565b9a8b6131ef575b90506131a8565b7fca7a2fe4405fb5bae2732ff63f6d1976dec8ed09ba2fae7003a209e26154b08f60408c60ff6020818351169201511682519182526020820152a16131e8565b5060019096019561306c565b634e487b7160e01b600052602160045260246000fd5b83908b898b89898f15613881578451600190811686526020860180518216905260408601805182169052606086018051909116905260008761323b5760243561382257506002955b60005b60ff811660048110156132dd5760ff918c836132d2846132cc8e848f6001996132c491615cac565b511690615ccf565b93615cac565b91169052011661329c565b5050888a898960ff83511660ff6132f383615cbd565b161480613807575b806137ec575b806137d1575b6137b4575b5061323b5760ff61331e602435615cbd565b1693600685101561323b5760ff61333b63ffffffff861642615ac5565b916040519261334984615581565b6000845288602085015260408401526000606084015261336c8760808501615ce3565b63ffffffff851660a08401521660c0820152600060e0820152816101008201528661012082015260405161339f816155ee565b60008152610140820152600454600160401b811015612198578060016133c89201600455615932565b91909161218257805182556020810151600183015560408101516002830155606081015160038301556080810151600681101561323b57600483015460ff64ffffffff0060a085015160081b1692169064ffffffffff19161717600483015561343b60ff60c08301511660048401615f66565b61344e60e0820151151560048401615b58565b61010081015160009060005b600481106137955750509061014091600584015561348061012082015160068501615c7a565b01518051906001600160401b038211612198576134a06007840154615853565b601f8111613760575b50602090601f83116001146136f05791806134d0926007946000926136e5575b5050615c53565b9101555b60045494856000198101116116ac576134f06000198701615932565b506000198781019182905563ffffffff9091168703016104a6576000198601600090815260086020526040902080546001600160a01b03191633908117909155613539906157c7565b6135438154615b75565b90557fb008433c5118253ef92bed2a1bd3b95470d4c373e1c4b9586459e65204efa8c460405133815261016060208201528061358361016082018c6156b1565b6000198a01604083015261359a606083018a615967565b6135a76080830187615b02565b6135b561010083018c615b2d565b846101408301520390a160005b885181101561363557806135de6106366130ad6001948d615a62565b33600052600960205260406000206135f681546161e1565b9055613602818b615a62565b5160005260086020526040600020828060a01b0319815416905561362f613629828c615a62565b516169d5565b016135c2565b509161369a63ffffffff949392859361368b60209a6136586000198c01336166cc565b613675604051613667816155ee565b600081526000198d01616017565b613682604051809b615967565b8b8a0190615b2d565b60608801526080870190615b02565b16610100840152166101208201526101806101408201526000610180820152336101608201526000805160206171be8339815191526101a0600019840192a260405190600019018152f35b015190508c806134c9565b906007840160005260206000209160005b601f19851681106137485750918391600193600795601f1981161061372f575b505050811b019101556134d4565b015160001960f88460031b161c191690558b8080613721565b91926020600181928685015181550194019201613701565b61378f90600785016000526020600020601f850160051c8101916020861061224f57601f0160051c0190615c3c565b8a6134a9565b909160206137ab6001928460ff87511691615c66565b9301910161345a565b60ff1680835280602084015280604084015260608301528861330c565b5060ff60608401511660ff6137e583615cbd565b1614613307565b5060ff60408401511660ff61380083615cbd565b1614613301565b5060ff60208401511660ff61381b83615cbd565b16146132fb565b6000975060243560010361383a57506003955b613299565b600097506024356002036138515750600495613299565b600097506024356003036138685750600595613299565b6000975095600319602435016138355760069650613299565b60405163d80d319f60e01b8152600490fd5b604051638c0673f560e01b8152600490fd5b600093506024356001036138f05760038251036138935760208101519363ffffffff60c0830151169563ffffffff61020060ff6101608601511694015116965b959196929096613053565b600093506024356002036139345760048251036138935760408101519363ffffffff60e0830151169563ffffffff61022060ff6101808601511694015116966138e5565b600093506024356003036139795760058251036138935760608101519363ffffffff610100830151169563ffffffff61024060ff6101a08601511694015116966138e5565b600093506024356004036139be5760068251036138935760808101519363ffffffff610120830151169563ffffffff61026060ff6101c08601511694015116966138e5565b60405162461bcd60e51b815260206004820152600c60248201526b77726f6e672072617269747960a01b6044820152606490fd5b0390fd5b60208091613a03846154ec565b815201910190612ecd565b8135815260209182019101612e97565b346104a65760003660031901126104a6576020604051620334508152f35b346104a65760003660031901126104a657602063ffffffff600f5460701c16604051908152f35b346104a65760203660031901126104a657602060ff6004613a848135615932565b50015460301c166040519015158152f35b6020806003193601126104a657600435613ab460ff600f5416156159f1565b6002601f5414613daa576002601f55613acc81615fcf565b6001600160a01b039033908216036107325733600052600c83526040600020826000528352613b1760406000205463ffffffff6004613b0a86615932565b50015460081c1690615ac5565b4210613d985760ff6004613b2a84615932565b50015460301c1615610f8c5780613b4083615fcf565b16600052600b83526040600020826000528352600160ff60406000205416151503610f7a57601e541690613baa60405192613b7a84615566565b600084526000858501528462033450948560408201526040518094819263a6c278f360e01b835260048301616400565b0381845afa938415610726578592600095613d65575b50849291613c009160405190613bd582615566565b6000825260008583015260408201526040519687809481936309160b1560e11b835260048301616400565b03925af192831561072657600093613d36575b50826003613c2084615932565b5001556000838152600e85526040902082815560030180546001600160a81b0319163317600160a01b179055601880546001019055348110613ca7575b506040816003613c8d7f92f40ca7d6cff5022608e05da6b963f9ac5a227ea2da740f7d35831bb78c285d94615932565b500154825191825285820152a16001601f55604051908152f35b6000808080613cb68534615a76565b335af1613cc1615ad2565b5015613d24577f92f40ca7d6cff5022608e05da6b963f9ac5a227ea2da740f7d35831bb78c285d917f27468d49151596d3863ccb02e3911b3146a62533facd0765451ba556bb4fd9c885613d1760409434615a76565b8451908152a19150613c5d565b604051631e53f7e560e11b8152600490fd5b9092508381813d8311613d5e575b613d4e8183615609565b810103126104a657519184613c13565b503d613d44565b9194509181813d8111613d91575b613d7d8183615609565b810103126104a65751928491613c00613bc0565b503d613d73565b6040516334ced31760e11b8152600490fd5b604051633ee5aeb560e01b8152600490fd5b346104a657613dca36615739565b91613dda60ff600f5416156159f1565b6001600160a01b0382811690821614610e335760ff6004613dfa85615932565b50015460301c16610e21576106e283613e357f85d07a7616aea29f5d972fd9100b991c224490bd49b737377d908f66f34d9afd9585856161ee565b610df881858561626c565b346104a65760203660031901126104a65760043560ff90613e6582600f5416156159f1565b331561074457336001600160a01b03613e7d83615fcf565b1603610732576002613e8e82615932565b5001544210613fce57816004613ea383615932565b50015460301c16610e2157816004613eba83615932565b50015416600681101561323b5715611ecc57816004613ed883615932565b50015460281c1615613fbc57613eed33615793565b816000526020526040600020600160ff19825416179055613f0d336157ad565b81600052602052426040600020556004613f2682615932565b5001805460ff60301b1916600160301b1790556004613f4482615932565b50019082825460281c169283156116ac57613f876080937fcfdb0da0eda7e72692cc304e4e58d2543a70ce5269931e91e02337cbff2a1ef1956000190190615f66565b6004613f9283615932565b50015460281c166040519182523360208301524260408301526060820152a1602060405160018152f35b60405163bc758f1b60e01b8152600490fd5b604051634a448f3760e01b8152600490fd5b346104a65760003660031901126104a657602063ffffffff600f5460d01c16604051908152f35b346104a6577f3b286e7240533ee960e022a65587f2b49f2264d9390fe4d81a57a23f1054d8b96106e2614039366156e5565b90949291936140466161a8565b600f805463ffffffff60d01b60d093841b1663ffffffff60d01b1990911617908190556010805463ffffffff60601b606095861b1663ffffffff9687166001600160801b0319909216821763ffffffff60201b60209a8b1b161763ffffffff60401b60409b8c1b1617179182905588519889989583901c8716969083901c8116959290921c8216939092901c1686615a95565b346104a65760003660031901126104a65760206140f4615a83565b604051908152f35b346104a65760003660031901126104a6576020600f5460ff60405191831c168152f35b346104a65760403660031901126104a6576024356001600160401b0381116104a6576141526108a6913690600401615693565b600435616017565b346104a65760a03660031901126104a65761417361553a565b61417b615550565b90604435906001600160a01b03821682036104a6576064356001600160a01b03811681036104a657608435906001600160a01b03821682036104a65760008051602061723e83398151915254936001600160401b03851680159081614644575b600114908161463a575b159081614631575b5061461f5760016001600160401b031986161760008051602061723e8339815191525560ff8560401c16156145f6575b6040519561422a876155b8565b600787526623b2b6a9aa27a760c91b60208801526040519661424b886155b8565b600388526247454d60e81b6020890152614263616a81565b61426b616a81565b8051906001600160401b0382116121985761429460008051602061717e83398151915254615853565b601f811161459a575b50602090601f83116001146144f7576142c09291600091836144ec575050615c53565b60008051602061717e833981519152555b86516001600160401b038111612198576142f960008051602061725e83398151915254615853565b601f8111614490575b506020601f8211600114614405578161436b939261432b9260ff9b6000926143fa575050615c53565b60008051602061725e833981519152555b601e80546001600160a01b03979097166001600160a01b0319978816179055614363616a81565b6108a1616a81565b6019805485166001600160a01b03928316179055601a8054851692821692909217909155601b8054909316911617905560401c16156143a657005b60ff60401b1960008051602061723e833981519152541660008051602061723e833981519152557fc7f505b2f371ae2175ee4913f4499e1f2633a7b5936321eed1cdaeb6115181d2602060405160018152a1005b015190508b806134c9565b60008051602061725e83398151915260005260206000209860005b601f198416811061447857509160ff9960019261436b959483601f1981161061445f575b505050811b0160008051602061725e8339815191525561433c565b015160001960f88460031b161c191690558a8080614444565b828201518b556001909a019960209283019201614420565b60008051602061725e8339815191526000526144e6907ff4bad0a69248f59680a4f2b3000328cec71a413447c96781cfe5996daa8c456e601f840160051c8101916020851061224f57601f0160051c0190615c3c565b88614302565b015190508a806134c9565b60008051602061717e833981519152600090815292917f37c58c799b6609234b945e882912ee9ad34948a1dfaa20a97485e1a7752bbf81915b601f198416851061457f576001945083601f19811610614566575b505050811b0160008051602061717e833981519152556142d1565b015160001960f88460031b161c1916905589808061454b565b81810151835560209485019460019093019290910190614530565b60008051602061717e8339815191526000526145f0907f37c58c799b6609234b945e882912ee9ad34948a1dfaa20a97485e1a7752bbf81601f850160051c8101916020861061224f57601f0160051c0190615c3c565b8961429d565b6001600160481b031985166001600160401b011760008051602061723e8339815191525561421d565b60405163f92ee8a960e01b8152600490fd5b905015876141ed565b303b1591506141e5565b604087901c60ff161591506141db565b346104a65760803660031901126104a6576001600160401b036004358181116104a657366023820112156104a65780600401356146908161562a565b9161469e6040519384615609565b8183526024602084019260051b820101903682116104a657602401915b81831061515557505050602435918083116104a657366023840112156104a65782600401356146e98161562a565b936146f76040519586615609565b8185526024602086019260061b820101903682116104a657602401915b8183106150fc575050506044358181116104a657366023820112156104a65780600401356147418161562a565b9161474f6040519384615609565b8183526024602084019260071b820101903682116104a657602401915b8183106150a357505050606435918083116104a657366023840112156104a657826004013561479a8161562a565b936147a86040519586615609565b8185526024602086019260051b820101913683116104a65760248201905b83821061507b5750505050506147e760018060a01b03601b5416331461598f565b6147f660ff600f5416156159f1565b8251845181149081159161506f575b8115615063575b506150515761481b8351615a30565b9160005b845181101561503b576148328186615a62565b5190600682101561323b576148478188615a62565b51916148538286615a62565b519261485f8386615a62565b5161487560018060a01b03601b5416331461598f565b600f5461488560ff8216156159f1565b60ff83511660ff6020850151169060005260056020526040600020906000526020526148b5604060002054615853565b15611ede576148f26148e46148d660ff89511660ff60208b01511690615ccf565b60ff60408a01511690615ccf565b60ff60608901511690615ccf565b9084614bb8575060ff86511660018114159081614bac575b50614b855760ff60208701511660018114159081614b79575b50614b535760ff60408701511660018114159081614b47575b50614b225760ff60608701511660018114159081614b16575b50614aef5760ff1660088110156116c257506011546000938492906149eb61498463ffffffff865b1642615ac5565b9660ff6040519161499483615581565b60008352866020840152896040840152600060608401526149b88560808501615ce3565b63ffffffff881660a08401521660c0820152600060e082015289610100820152866101208201528361014082015261642c565b60045495866000198101116116ac5763ffffffff6000805160206171be83398151915295614aac60019b614ac897614a266000198d01615932565b506000198d0190556000198c0160005260086020526040600020338f8060a01b0319825416179055614a57336157c7565b614a618154615b75565b9055614a716000198d01336166cc565b614a7f886000198e01616017565b614a9d6040519b614a938d6101809a615967565b60208d0190615b2d565b60608b015260808a0190615b02565b16610100870152610120860152806101408601528401906154fa565b9133610160820152806000198501930390a260001901614ae88287615a62565b520161481f565b6040516358be4af360e11b8152600360048201526001602482015260026044820152606490fd5b6002915014158c614955565b60646040516358be4af360e11b81526002806004830152600160248301526044820152fd5b6002915014158c61493c565b60646040516358be4af360e11b8152600160048201526001602482015260026044820152fd5b6002915014158c614923565b6040516358be4af360e11b8152600060048201526001602482015260026044820152606490fd5b6002915014158c61490a565b90600185939514600014614d2b5760ff87511660028114159081614d1f575b50614cf85760ff60208801511660028114159081614cec575b50614cc55760ff60408801511660028114159081614cb9575b50614c935760ff60608801511660028114159081614c87575b50614c625760ff16600c811015611859575063ffffffff93848260d01c16948260301c16926149eb61498463ffffffff60ff6012549660081c169861497d565b60646040516358be4af360e11b81526003806004830152600260248301526044820152fd5b6003915014158d614c22565b60646040516358be4af360e11b8152600260048201526002602482015260036044820152fd5b6003915014158d614c09565b6040516358be4af360e11b8152600160048201526002602482015260036044820152606490fd5b6003915014158d614bf0565b6040516358be4af360e11b8152600060048201526002602482015260036044820152606490fd5b6003915014158d614bd7565b60028303614dfe5760ff87511660038114159081614df2575b50611ab75760ff60208801511660038114159081614de6575b50611a855760ff60408801511660038114159081614dda575b50611a535760ff60608801511660038114159081614dce575b50611a215760ff1660108110156119ec575063ffffffff938460105416948260501c16926149eb61498463ffffffff60ff6013549660101c169861497d565b6004915014158d614d8f565b6004915014158d614d76565b6004915014158d614d5d565b6004915014158d614d44565b60038303614ed45760ff87511660048114159081614ec8575b50611c4e5760ff60208801511660048114159081614ebc575b50611c1c5760ff60408801511660048114159081614eb0575b50611bea5760ff60608801511660048114159081614ea4575b50611bb85760ff166014811015611b85575063ffffffff938460105460201c16948260701c16926149eb61498463ffffffff60ff6014549660181c169861497d565b6005915014158d614e62565b6005915014158d614e49565b6005915014158d614e30565b6005915014158d614e17565b60048303614faa5760ff87511660058114159081614f9e575b50611dec5760ff60208801511660058114159081614f92575b50611db95760ff60408801511660058114159081614f86575b50611d865760ff60608801511660058114159081614f7a575b50611d535760ff166018811015611d1b575063ffffffff938460105460401c16948260901c16926149eb61498463ffffffff60ff6015549660201c169861497d565b6006915014158d614f38565b6006915014158d614f1f565b6006915014158d614f06565b6006915014158d614eed565b5060058203611ecc57600660ff87511614801590615029575b8015615017575b8015615005575b611e705763ffffffff938460105460601c16948260b01c16926149eb61498463ffffffff60ff6016549660281c169861497d565b50600660ff6060880151161415614fd1565b50600660ff6040880151161415614fca565b50600660ff6020880151161415614fc3565b60405160208082528190610517908201876156b1565b604051632b477e7160e11b8152600490fd5b9050825114158561480c565b82518114159150614805565b81358581116104a657602091615098839260243691880101615693565b8152019101906147c6565b36601f840112156104a6576040516150ba816155d3565b80608085013681116104a65785915b8183106150e45750505081602091608093520192019161476c565b602080916150f1856154ec565b8152019201916150c9565b36601f840112156104a657604051615113816155b8565b80604085013681116104a65785915b81831061513d57505050816020916040935201920191614714565b6020809161514a856154ec565b815201920191615122565b823560068110156104a6578152602092830192016146bb565b346104a65760203660031901126104a65760043560068110156104a6578061519e57506020601154604051908152f35b600181036151b1575060206012546140f4565b600281036151c4575060206013546140f4565b600381036151d7575060206014546140f4565b600481036151ea575060206015546140f4565b6005036139be5760206016546140f4565b346104a65760003660031901126104a6576020601254604051908152f35b346104a65760403660031901126104a65761523261553a565b60243561523e81615fcf565b331515806152ed575b806152cd575b6152b5576001600160a01b039283169282918491167f8c5be1e5ebec7d5bd14f71427d1e84f3dd0314c0f7b2291e5b200ac8c7c3b925600080a4600090815260008051602061721e8339815191526020526040902080546001600160a01b0319169091179055005b60405163a9fbf51f60e01b8152336004820152602490fd5b506152d7816157e1565b3360005260205260ff604060002054161561524d565b506001600160a01b038116331415615247565b346104a65760003660031901126104a657602063ffffffff60105416604051908152f35b346104a65760203660031901126104a65760043561534181615fcf565b5060005260008051602061721e833981519152602052602060018060a01b0360406000205416604051908152f35b346104a65760003660031901126104a65760405160008051602061717e83398151915280548260006153a083615853565b92838352602094600191866001821691826000146120085750506001146153cf575050611fb592500383615609565b85925060005281600020906000915b8583106153f6575050611fb593508201018580611fa7565b805483890185015287945086939092019181016153de565b346104a65760003660031901126104a6576019546040516001600160a01b039091168152602090f35b346104a65760203660031901126104a6576004359063ffffffff60e01b82168092036104a657602091632483248360e11b8114908115615479575b5015158152f35b6380ac58cd60e01b8114915081156154ab575b811561549a575b5083615472565b6301ffc9a760e01b14905083615493565b635b5e139f60e01b8114915061548c565b6004359060ff821682036104a657565b6024359060ff821682036104a657565b6044359060ff821682036104a657565b359060ff821682036104a657565b919082519283825260005b848110615526575050826000602080949584010152601f8019910116010190565b602081830181015184830182015201615505565b600435906001600160a01b03821682036104a657565b602435906001600160a01b03821682036104a657565b606081019081106001600160401b0382111761219857604052565b61016081019081106001600160401b0382111761219857604052565b60c081019081106001600160401b0382111761219857604052565b604081019081106001600160401b0382111761219857604052565b608081019081106001600160401b0382111761219857604052565b602081019081106001600160401b0382111761219857604052565b90601f801991011681019081106001600160401b0382111761219857604052565b6001600160401b0381116121985760051b60200190565b6001600160401b03811161219857601f01601f191660200190565b92919261566882615641565b916156766040519384615609565b8294818452818301116104a6578281602093846000960137010152565b9080601f830112156104a6578160206156ae9335910161565c565b90565b90815180825260208080930193019160005b8281106156d1575050505090565b8351855293810193928101926001016156c3565b60a09060031901126104a65763ffffffff60043581811681036104a6579160243582811681036104a6579160443581811681036104a6579160643582811681036104a6579160843590811681036104a65790565b60609060031901126104a6576001600160a01b039060043582811681036104a6579160243590811681036104a6579060443590565b60409060031901126104a6576004359060243590565b6024359081151582036104a657565b6001600160a01b03166000908152600b6020526040902090565b6001600160a01b03166000908152600c6020526040902090565b6001600160a01b0316600090815260096020526040902090565b6001600160a01b031660009081527f80bb2b638cc20bc4d0a60d66940f3ab4a00c1d7b313497ca82fb0b4ab00793056020526040902090565b6001600160a01b031660009081527f80bb2b638cc20bc4d0a60d66940f3ab4a00c1d7b313497ca82fb0b4ab00793036020526040902090565b90600182811c92168015615883575b602083101461586d57565b634e487b7160e01b600052602260045260246000fd5b91607f1691615862565b906040519182600082546158a081615853565b9081845260209460019160018116908160001461591057506001146158d1575b5050506158cf92500383615609565b565b600090815285812095935091905b8183106158f85750506158cf93508201013880806158c0565b855488840185015294850194879450918301916158df565b925050506158cf94925060ff191682840152151560051b8201013880806158c0565b60045481101561595157600460005260206000209060031b0190600090565b634e487b7160e01b600052603260045260246000fd5b90600682101561323b5752565b60075481101561595157600760005260206000200190600090565b1561599657565b60405162461bcd60e51b815260206004820152602d60248201527f66756e6374696f6e2063616c6c61626c652066726f6d2074726561737572792060448201526c636f6e7472616374206f6e6c7960981b6064820152608490fd5b156159f857565b60405162461bcd60e51b815260206004820152601060248201526f14185d5cd8589b194e881c185d5cd95960821b6044820152606490fd5b90615a3a8261562a565b615a476040519182615609565b8281528092615a58601f199161562a565b0190602036910137565b80518210156159515760209160051b010190565b919082039182116116ac57565b60045460001981019081116116ac5790565b63ffffffff9182168152918116602083015291821660408201529181166060830152909116608082015260a00190565b919082018092116116ac57565b3d15615afd573d90615ae382615641565b91615af16040519384615609565b82523d6000602084013e565b606090565b6000915b60048310615b1357505050565b60019060ff83511681526020809101920192019190615b06565b6000915b60028310615b3e57505050565b60019060ff83511681526020809101920192019190615b31565b805460ff60301b191691151560301b60ff60301b16919091179055565b60001981146116ac5760010190565b60018060a01b03809116600091818352602091600960205260409060408520548015600014615bc857505050505060405190615bbf826155ee565b80825236813790565b615bd790969592939496615a30565b93615be0615a83565b938360015b86811115615bf95750959750505050505050565b80825260088a528484848420541614615c1b575b615c1690615b75565b615be5565b94615c348187615c2e615c16948c615a62565b52615b75565b959050615c0d565b818110615c47575050565b60008155600101615c3c565b8160011b916000199060031b1c19161790565b9060ff809160031b9316831b921b19161790565b60009160005b60028110615c8d57505055565b90926020615ca36001928460ff88511691615c66565b94019101615c80565b9060048110156159515760051b0190565b60ff60019116019060ff82116116ac57565b9060ff8091169116019060ff82116116ac57565b600682101561323b5752565b9060ff60405192548181168452818160081c166020850152818160101c16604085015260181c1660608301526158cf826155d3565b9060ff6040519254818116845260081c1660208301526158cf826155b8565b604090815192615d5284615581565b60009384815260208560208301528585830152606095806060840152608081608085015260a08260a086015260c0918360c087015260e0918460e0880152610100938a51615d9f816155d3565b608036823785890152610120958b51615db7816155b8565b8c368237878a01526060610140809a0152996004906004549b5b8c8110615e32578d5162461bcd60e51b815260206004820152602d60248201527f47656d2077697468207468652073706563696669656420746f6b656e4964206460448201526c1bd95cc81b9bdd08195e1a5cdd609a1b6064820152608490fd5b81615e3c82615932565b505414615e4b57600101615dd1565b60079a9c50615eeb9b9e9150615e6090615932565b50988d519d8e91615e7083615581565b8b54835260018c01549083015260028b01549101526003890154908d015287015491615ea38c60ff958686169101615ce3565b63ffffffff8360081c16908c0152828260281c16908b015260301c16151590880152615ed160058401615cef565b90870152615ee160068301615d24565b908601520161588d565b9082015290565b6001600160a01b03908116908115615f4d5760008051602061719e83398151915280546001600160a01b031981168417909155167f8be0079c531659141344cd1fd0a4f28419497f9722a3daafe3b4186f6b6457e0600080a3565b604051631e4fbdf760e01b815260006004820152602490fd5b805460ff60281b191660289290921b60ff60281b16919091179055565b908160209103126104a6575180151581036104a65790565b6001600160a01b039091168152602081019190915260400190565b9081526001600160a01b03909116602082015260400190565b60008181526000805160206171fe83398151915260205260409020546001600160a01b0316908115615fff575090565b60249060405190637e27328960e01b82526004820152fd5b9091906001600160a01b0361602b82615fcf565b163303610732576000908082526020917f0542a41881ee128a365a727b282c86fa859579490b9bb45aab8503648c8e7900835260408120908551956001600160401b0387116161945761607e8354615853565b601f8111616166575b508491601f88116001146160e257966160cb9281927ff8e1a15aba9398e019f0b49df1a4fde98ee17ae345cb5f6b5e2c27f5033e8ce79899926160d7575050615c53565b90555b604051908152a1565b0151905038806134c9565b9190601f198816848452868420935b81811061614f57509160019391897ff8e1a15aba9398e019f0b49df1a4fde98ee17ae345cb5f6b5e2c27f5033e8ce7999a9410616136575b505050811b0190556160ce565b015160001960f88460031b161c19169055388080616129565b9293876001819287860151815501950193016160f1565b61618e90848452868420601f8a0160051c810191888b1061224f57601f0160051c0190615c3c565b38616087565b634e487b7160e01b82526041600452602482fd5b60008051602061719e833981519152546001600160a01b031633036161c957565b60405163118cdaa760e01b8152336004820152602490fd5b80156116ac576000190190565b9060409291616206612ae260ff6004612ad987615932565b600261621185615932565b5001556001600160a01b0391821660008181526009602052858120805491959161623a90615b75565b9055845260086020528484209060018060a01b031982541617905516815260096020522061626881546161e1565b9055565b6001600160a01b03828116939184156163e757826000958187526000805160206171fe833981519152958660205260409785898220541697889233151580616340575b50906162cf6000805160206171de8339815191529392856163215761581a565b8054600101905585825260205289812080546001600160a01b0319168517905580a416928383036163005750505050565b6064945051926364283d7b60e01b8452600484015260248301526044820152fd5b61632a88616a56565b6163338661581a565b805460001901905561581a565b9193509193945080616398575b1561635e57918791879493386162af565b88878961637b576024915190637e27328960e01b82526004820152fd5b905163177e802f60e01b81529081906139f2903360048401615f9b565b5033881480156163cb575b8061634d575086835260008051602061721e83398151915260205233868a852054161461634d565b506163d5886157e1565b33845260205260ff89842054166163a3565b604051633250574960e11b815260006004820152602490fd5b919091604063ffffffff81606084019561ffff8082511686526020820151166020860152015116910152565b6004805490600160401b8210156165e75761644d6001928381018355615932565b61662f578351815560209081850151848201556040850151600282015560608501516003820155828101608086015190600682101561661a57806164ce91549260ff9360ff64ffffffff0060a08c015160081b1692169064ffffffffff1916171781556164c160ff60c08a01511682615f66565b60e0880151151590615b58565b61010086015160009160005b87868883106165fc57505050505081600791600561014094015561650661012088015160068301615c7a565b01940151928351926001600160401b0384116165e757506165278554615853565b601f81116165b7575b5081601f84116001146165535750508190616268936000926160d7575050615c53565b91909383601f1981168760005284600020946000905b8883831061659d5750505010616584575b505050811b019055565b015160001960f88460031b161c1916905538808061657a565b858701518855909601959485019487935090810190616569565b6165e1908660005283600020601f860160051c81019185871061224f57601f0160051c0190615c3c565b38616530565b604190634e487b7160e01b6000525260246000fd5b909192939461661090848688511691615c66565b94019291016164da565b602185634e487b7160e01b6000525260246000fd5b600082634e487b7160e01b82525260246000fd5b90612182576000908181558160018201558160028201558160038201558160048201556166856007600683019261667d8460058301615c3c565b018092615c3c565b61668f8154615853565b8061669957505050565b82601f82116001146166aa57505055565b90918082526166c8601f60208420940160051c840160018501615c3c565b5555565b60408051926166da846155ee565b60008085526001600160a01b03948486169485156168a4578383526000805160206171fe8339815191528487602099838b5288872054168015159384616885575b6167248661581a565b805460010190558388528b5288872080546001600160a01b031916831790556000805160206171de8339815191528780a461686d573b616767575b505050505050565b856167a49185969798955180938192630a85bd0160e11b9788845233600485015287602485015260448401526080606484015260848301906154fa565b0381858a5af190829082616822575b50506167ea575050506167c4615ad2565b805193846167e4578251633250574960e11b815260048101859052602490fd5b84925001fd5b9194506001600160e01b03199091160361680b57505038808080808061675f565b602492505190633250574960e11b82526004820152fd5b909192508781813d8311616866575b61683b8183615609565b810103126168625751906001600160e01b03198216820361685f57509038806167b3565b80fd5b5080fd5b503d616831565b84516339e3563760e11b815260048101849052602490fd5b61688e84616a56565b6168978261581a565b805460001901905561671b565b8451633250574960e11b815260048101849052602490fd5b9190803b6168cb575b50505050565b61690d60018060a01b0380921694604051938493630a85bd0160e11b9687865233600487015216602485015260448401526080606484015260848301906154fa565b03906020816000938185885af19082908261698c575b505061695b5782616932615ad2565b805191908261695457604051633250574960e11b815260048101839052602490fd5b9050602001fd5b6001600160e01b031916036169745750388080806168c5565b60249060405190633250574960e11b82526004820152fd5b909192506020813d6020116169cd575b816169a960209383615609565b810103126168625751906001600160e01b03198216820361685f5750903880616923565b3d915061699c565b6000818152816000805160206171fe833981519152918260205260018060a01b036040822054168015938415616a37575b8383526020526040822080546001600160a01b03191690556000805160206171de8339815191528280a4615fff5750565b616a4084616a56565b616a498261581a565b8054600019019055616a06565b600090815260008051602061721e8339815191526020526040902080546001600160a01b0319169055565b60ff60008051602061723e8339815191525460401c1615616a9e57565b604051631afcd79f60e31b8152600490fd5b600681101561323b578015616b685760018114616b585760028114616b4b5760038114616b3b5760048114616b2b57600514616b1c5760405162461bcd60e51b815260206004820152600e60248201526d496e76616c69642072617269747960901b6044820152606490fd5b63ffffffff60105460601c1690565b5063ffffffff60105460401c1690565b5063ffffffff60105460201c1690565b5063ffffffff6010541690565b5063ffffffff600f5460d01c1690565b50600090565b600094939190818114617173576006616b89616b9092615932565b5001615d24565b9260ff90616bad6006616b89846020818a51169901511695615932565b9482602081885116970151169184821480809161716a575b80617161575b61713b578080617132575b616e6c578015908180617129575b80617117575b80156170ed575b6170965781908161708c575b81617070575b811561703d575b50616f25578080616f1b575b80616ef0575b616ecc578080616ec2575b80616e90575b616dc0575b80616db6575b80616dac575b80616da2575b80616d98575b80616d8e575b616c5d5750505050505050565b83949596979850929091921690808214968780616d82575b8815616d67575b508715616d4b575b8715616d2f575b8715616d13575b8715616cf6575b508615616cd5575b508515616cb1575b505050505090565b149350909183616cc9575b5050503880808080616ca9565b16149050388080616cbc565b9095508186149081616cea575b509438616ca1565b90508285161438616ce2565b909650811480616d08575b9538616c99565b508383861614616d01565b809750821480616d24575b96616c92565b508084871614616d1e565b965084821480616d40575b96616c8b565b508284871614616d3a565b965084821480616d5c575b96616c84565b508684871614616d56565b90975080616d77575b9638616c7c565b508284871614616d70565b87861682149850616c75565b5082851415616c50565b5082821415616c4a565b5086851415616c44565b5086821415616c3e565b5082871415616c38565b9890929691828114600014616dff575050508192939495965016938285149485616df3575b8515616cb157505050505090565b84831682149550616de5565b91969091808203616e2d575050508192939495965016938285149485616df3578515616cb157505050505090565b9490969198828214600014616e5f575050508192939495965016938285149485616df3578515616cb157505050505090565b8782969398949203616c32575b509150939495965081925016938285149485616df3578515616cb157505050505090565b508783148015616eb9575b8015616eb0575b80616c2d5750838614616c2d565b50878614616ea2565b50838314616e9b565b5083881415616c27565b509150939450819295965016938285149485616df3578515616cb157505050505090565b5087831480616f12575b80616c1c57508383148015616c1c5750878614616c1c565b50838614616efa565b5083881415616c16565b909291979850959495600014616fc657508116938585149586616fba575b8615616f9e575b8615616f81575b508515616f6057505050505090565b161492509082616f77575b50503880808080616ca9565b1490503880616f6b565b9095508186161480616f95575b9438616f51565b50828414616f8e565b955082851480616faf575b95616f4a565b508382821614616fa9565b81831685149650616f43565b93959250811693828514958680617031575b8715617016575b508615616ff557508515616f6057505050505090565b9095508282871614908161700c575b509438616f51565b9050841438617004565b90965080617026575b9538616fdf565b50838282161461701f565b82841682149750616fd8565b905080617066575b80617051575b38616c0a565b5087831415801561704b57508383141561704b565b5083881415617045565b90508884141580617082575b90616c03565b508887141561707c565b8986149150616bfd565b50849791939295969899506000146170d0575050169281841494856170c4575b8515616f6057505050505090565b818116841495506170b6565b93509350169281841494856170c4578515616f6057505050505090565b50808061710d575b8015616bf1575083891480616bf15750838514616bf1565b50848914156170f5565b5088841480616bea5750888714616bea565b50848914616be4565b50838814616bd6565b509150929450819395965016149283617155575b50505090565b1614905038808061714f565b50878314616bcb565b50838814616bc5565b506000945050505056fe80bb2b638cc20bc4d0a60d66940f3ab4a00c1d7b313497ca82fb0b4ab00793009016d09d72d40fdae2fd8ceac6b6234c7706214fd39c1cd1e609a0528c199300dbe8d26d6591d9d42991ba1e5d305c9c7a01553997a8bf0794d0cee986ce2a80ddf252ad1be2c89b69c2b068fc378daa952ba7f163c4a11628f55a4df523b3ef80bb2b638cc20bc4d0a60d66940f3ab4a00c1d7b313497ca82fb0b4ab007930280bb2b638cc20bc4d0a60d66940f3ab4a00c1d7b313497ca82fb0b4ab0079304f0c57e16840df040f15088dc2f81fe391c3923bec73e23a9662efc9c229c6a0080bb2b638cc20bc4d0a60d66940f3ab4a00c1d7b313497ca82fb0b4ab0079301a2646970667358221220af3c5be08299b681df301698ff03db7d82e141867488eb4c552dbdda9920225964736f6c63430008190033",
  "linkReferences": {},
  "deployedLinkReferences": {}
}