{
  "_format": "hh-sol-artifact-1",
  "contractName": "GemFactory",
  "sourceName": "src/L2/GemFactory.sol",
  "abi": [
    {
      "inputs": [
        {
          "internalType": "address",
          "name": "coordinator",
          "type": "address"
        }
      ],
      "stateMutability": "nonpayable",
      "type": "constructor"
    },
    {
      "inputs": [],
      "name": "AccessControlBadConfirmation",
      "type": "error"
    },
    {
      "inputs": [
        {
          "internalType": "address",
          "name": "account",
          "type": "address"
        },
        {
          "internalType": "bytes32",
          "name": "neededRole",
          "type": "bytes32"
        }
      ],
      "name": "AccessControlUnauthorizedAccount",
      "type": "error"
    },
    {
      "inputs": [
        {
          "internalType": "address",
          "name": "sender",
          "type": "address"
        },
        {
          "internalType": "uint256",
          "name": "tokenId",
          "type": "uint256"
        },
        {
          "internalType": "address",
          "name": "owner",
          "type": "address"
        }
      ],
      "name": "ERC721IncorrectOwner",
      "type": "error"
    },
    {
      "inputs": [
        {
          "internalType": "address",
          "name": "operator",
          "type": "address"
        },
        {
          "internalType": "uint256",
          "name": "tokenId",
          "type": "uint256"
        }
      ],
      "name": "ERC721InsufficientApproval",
      "type": "error"
    },
    {
      "inputs": [
        {
          "internalType": "address",
          "name": "approver",
          "type": "address"
        }
      ],
      "name": "ERC721InvalidApprover",
      "type": "error"
    },
    {
      "inputs": [
        {
          "internalType": "address",
          "name": "operator",
          "type": "address"
        }
      ],
      "name": "ERC721InvalidOperator",
      "type": "error"
    },
    {
      "inputs": [
        {
          "internalType": "address",
          "name": "owner",
          "type": "address"
        }
      ],
      "name": "ERC721InvalidOwner",
      "type": "error"
    },
    {
      "inputs": [
        {
          "internalType": "address",
          "name": "receiver",
          "type": "address"
        }
      ],
      "name": "ERC721InvalidReceiver",
      "type": "error"
    },
    {
      "inputs": [
        {
          "internalType": "address",
          "name": "sender",
          "type": "address"
        }
      ],
      "name": "ERC721InvalidSender",
      "type": "error"
    },
    {
      "inputs": [
        {
          "internalType": "uint256",
          "name": "tokenId",
          "type": "uint256"
        }
      ],
      "name": "ERC721NonexistentToken",
      "type": "error"
    },
    {
      "inputs": [
        {
          "internalType": "address",
          "name": "have",
          "type": "address"
        },
        {
          "internalType": "address",
          "name": "want",
          "type": "address"
        }
      ],
      "name": "OnlyCoordinatorCanFulfill",
      "type": "error"
    },
    {
      "inputs": [],
      "name": "ReentrancyGuardReentrantCall",
      "type": "error"
    },
    {
      "anonymous": false,
      "inputs": [
        {
          "indexed": true,
          "internalType": "address",
          "name": "owner",
          "type": "address"
        },
        {
          "indexed": true,
          "internalType": "address",
          "name": "approved",
          "type": "address"
        },
        {
          "indexed": true,
          "internalType": "uint256",
          "name": "tokenId",
          "type": "uint256"
        }
      ],
      "name": "Approval",
      "type": "event"
    },
    {
      "anonymous": false,
      "inputs": [
        {
          "indexed": true,
          "internalType": "address",
          "name": "owner",
          "type": "address"
        },
        {
          "indexed": true,
          "internalType": "address",
          "name": "operator",
          "type": "address"
        },
        {
          "indexed": false,
          "internalType": "bool",
          "name": "approved",
          "type": "bool"
        }
      ],
      "name": "ApprovalForAll",
      "type": "event"
    },
    {
      "anonymous": false,
      "inputs": [
        {
          "indexed": true,
          "internalType": "uint8",
          "name": "id",
          "type": "uint8"
        },
        {
          "indexed": false,
          "internalType": "string",
          "name": "backgroundColor",
          "type": "string"
        }
      ],
      "name": "BackgroundColorAdded",
      "type": "event"
    },
    {
      "anonymous": false,
      "inputs": [
        {
          "indexed": false,
          "internalType": "uint256",
          "name": "_fromTokenId",
          "type": "uint256"
        },
        {
          "indexed": false,
          "internalType": "uint256",
          "name": "_toTokenId",
          "type": "uint256"
        }
      ],
      "name": "BatchMetadataUpdate",
      "type": "event"
    },
    {
      "anonymous": false,
      "inputs": [
        {
          "indexed": true,
          "internalType": "uint8",
          "name": "id",
          "type": "uint8"
        },
        {
          "indexed": false,
          "internalType": "string",
          "name": "color",
          "type": "string"
        }
      ],
      "name": "ColorAdded",
      "type": "event"
    },
    {
      "anonymous": false,
      "inputs": [
        {
          "indexed": false,
          "internalType": "uint8",
          "name": "color_0",
          "type": "uint8"
        },
        {
          "indexed": false,
          "internalType": "uint8",
          "name": "color_1",
          "type": "uint8"
        }
      ],
      "name": "ColorValidated",
      "type": "event"
    },
    {
      "anonymous": false,
      "inputs": [
        {
          "indexed": false,
          "internalType": "uint256",
          "name": "gemCount",
          "type": "uint256"
        },
        {
          "indexed": false,
          "internalType": "uint256[]",
          "name": "tokenIds",
          "type": "uint256[]"
        }
      ],
      "name": "CountGemsByQuadrant",
      "type": "event"
    },
    {
      "anonymous": false,
      "inputs": [
        {
          "indexed": true,
          "internalType": "uint256",
          "name": "tokenId",
          "type": "uint256"
        },
        {
          "indexed": false,
          "internalType": "enum GemFactoryStorage.Rarity",
          "name": "rarity",
          "type": "uint8"
        },
        {
          "indexed": false,
          "internalType": "uint8[2]",
          "name": "color",
          "type": "uint8[2]"
        },
        {
          "indexed": false,
          "internalType": "uint256",
          "name": "value",
          "type": "uint256"
        },
        {
          "indexed": false,
          "internalType": "uint8[4]",
          "name": "quadrants",
          "type": "uint8[4]"
        },
        {
          "indexed": false,
          "internalType": "uint256",
          "name": "miningPeriod",
          "type": "uint256"
        },
        {
          "indexed": false,
          "internalType": "uint256",
          "name": "cooldownPeriod",
          "type": "uint256"
        },
        {
          "indexed": false,
          "internalType": "string",
          "name": "tokenURI",
          "type": "string"
        },
        {
          "indexed": false,
          "internalType": "address",
          "name": "owner",
          "type": "address"
        }
      ],
      "name": "Created",
      "type": "event"
    },
    {
      "anonymous": false,
      "inputs": [
        {
          "indexed": false,
          "internalType": "address",
          "name": "gemOwner",
          "type": "address"
        },
        {
          "indexed": false,
          "internalType": "uint256[]",
          "name": "gemsTokenIds",
          "type": "uint256[]"
        },
        {
          "indexed": false,
          "internalType": "uint256",
          "name": "newGemCreatedId",
          "type": "uint256"
        },
        {
          "indexed": false,
          "internalType": "enum GemFactoryStorage.Rarity",
          "name": "newRarity",
          "type": "uint8"
        },
        {
          "indexed": false,
          "internalType": "uint8[4]",
          "name": "forgedQuadrants",
          "type": "uint8[4]"
        },
        {
          "indexed": false,
          "internalType": "uint8[2]",
          "name": "color",
          "type": "uint8[2]"
        },
        {
          "indexed": false,
          "internalType": "uint256",
          "name": "newValue",
          "type": "uint256"
        }
      ],
      "name": "GemForged",
      "type": "event"
    },
    {
      "anonymous": false,
      "inputs": [
        {
          "indexed": false,
          "internalType": "uint256",
          "name": "_tokenId",
          "type": "uint256"
        },
        {
          "indexed": false,
          "internalType": "address",
          "name": "_from",
          "type": "address"
        }
      ],
      "name": "GemMelted",
      "type": "event"
    },
    {
      "anonymous": false,
      "inputs": [
        {
          "indexed": false,
          "internalType": "uint256",
          "name": "tokenId",
          "type": "uint256"
        },
        {
          "indexed": false,
          "internalType": "address",
          "name": "miner",
          "type": "address"
        }
      ],
      "name": "GemMiningClaimed",
      "type": "event"
    },
    {
      "anonymous": false,
      "inputs": [
        {
          "indexed": false,
          "internalType": "uint256",
          "name": "tokenId",
          "type": "uint256"
        },
        {
          "indexed": false,
          "internalType": "address",
          "name": "miner",
          "type": "address"
        },
        {
          "indexed": false,
          "internalType": "uint256",
          "name": "startMiningTime",
          "type": "uint256"
        },
        {
          "indexed": false,
          "internalType": "uint256",
          "name": "newminingTry",
          "type": "uint256"
        }
      ],
      "name": "GemMiningStarted",
      "type": "event"
    },
    {
      "anonymous": false,
      "inputs": [
        {
          "indexed": false,
          "internalType": "uint256",
          "name": "_tokenId",
          "type": "uint256"
        }
      ],
      "name": "MetadataUpdate",
      "type": "event"
    },
    {
      "anonymous": false,
      "inputs": [
        {
          "indexed": false,
          "internalType": "uint256",
          "name": "tokenId",
          "type": "uint256"
        }
      ],
      "name": "NoGemAvailable",
      "type": "event"
    },
    {
      "anonymous": false,
      "inputs": [
        {
          "indexed": false,
          "internalType": "address",
          "name": "account",
          "type": "address"
        }
      ],
      "name": "Paused",
      "type": "event"
    },
    {
      "anonymous": false,
      "inputs": [
        {
          "indexed": false,
          "internalType": "uint256",
          "name": "chosenTokenId",
          "type": "uint256"
        },
        {
          "indexed": false,
          "internalType": "uint256",
          "name": "requestNumber",
          "type": "uint256"
        }
      ],
      "name": "RandomGemSelected",
      "type": "event"
    },
    {
      "anonymous": false,
      "inputs": [
        {
          "indexed": true,
          "internalType": "bytes32",
          "name": "role",
          "type": "bytes32"
        },
        {
          "indexed": true,
          "internalType": "bytes32",
          "name": "previousAdminRole",
          "type": "bytes32"
        },
        {
          "indexed": true,
          "internalType": "bytes32",
          "name": "newAdminRole",
          "type": "bytes32"
        }
      ],
      "name": "RoleAdminChanged",
      "type": "event"
    },
    {
      "anonymous": false,
      "inputs": [
        {
          "indexed": true,
          "internalType": "bytes32",
          "name": "role",
          "type": "bytes32"
        },
        {
          "indexed": true,
          "internalType": "address",
          "name": "account",
          "type": "address"
        },
        {
          "indexed": true,
          "internalType": "address",
          "name": "sender",
          "type": "address"
        }
      ],
      "name": "RoleGranted",
      "type": "event"
    },
    {
      "anonymous": false,
      "inputs": [
        {
          "indexed": true,
          "internalType": "bytes32",
          "name": "role",
          "type": "bytes32"
        },
        {
          "indexed": true,
          "internalType": "address",
          "name": "account",
          "type": "address"
        },
        {
          "indexed": true,
          "internalType": "address",
          "name": "sender",
          "type": "address"
        }
      ],
      "name": "RoleRevoked",
      "type": "event"
    },
    {
      "anonymous": false,
      "inputs": [
        {
          "indexed": true,
          "internalType": "address",
          "name": "from",
          "type": "address"
        },
        {
          "indexed": true,
          "internalType": "address",
          "name": "to",
          "type": "address"
        },
        {
          "indexed": true,
          "internalType": "uint256",
          "name": "tokenId",
          "type": "uint256"
        }
      ],
      "name": "Transfer",
      "type": "event"
    },
    {
      "anonymous": false,
      "inputs": [
        {
          "indexed": false,
          "internalType": "address",
          "name": "from",
          "type": "address"
        },
        {
          "indexed": false,
          "internalType": "address",
          "name": "to",
          "type": "address"
        },
        {
          "indexed": false,
          "internalType": "uint256",
          "name": "tokenId",
          "type": "uint256"
        }
      ],
      "name": "TransferGEM",
      "type": "event"
    },
    {
      "anonymous": false,
      "inputs": [
        {
          "indexed": false,
          "internalType": "address",
          "name": "account",
          "type": "address"
        }
      ],
      "name": "Unpaused",
      "type": "event"
    },
    {
      "inputs": [],
      "name": "ADMIN_ROLE",
      "outputs": [
        {
          "internalType": "bytes32",
          "name": "",
          "type": "bytes32"
        }
      ],
      "stateMutability": "view",
      "type": "function"
    },
    {
      "inputs": [],
      "name": "CALLBACK_GAS_LIMIT",
      "outputs": [
        {
          "internalType": "uint32",
          "name": "",
          "type": "uint32"
        }
      ],
      "stateMutability": "view",
      "type": "function"
    },
    {
      "inputs": [],
      "name": "CommonGemsCooldownPeriod",
      "outputs": [
        {
          "internalType": "uint256",
          "name": "",
          "type": "uint256"
        }
      ],
      "stateMutability": "view",
      "type": "function"
    },
    {
      "inputs": [],
      "name": "CommonGemsMiningPeriod",
      "outputs": [
        {
          "internalType": "uint256",
          "name": "",
          "type": "uint256"
        }
      ],
      "stateMutability": "view",
      "type": "function"
    },
    {
      "inputs": [],
      "name": "CommonGemsValue",
      "outputs": [
        {
          "internalType": "uint256",
          "name": "",
          "type": "uint256"
        }
      ],
      "stateMutability": "view",
      "type": "function"
    },
    {
      "inputs": [],
      "name": "CommonminingTry",
      "outputs": [
        {
          "internalType": "uint256",
          "name": "",
          "type": "uint256"
        }
      ],
      "stateMutability": "view",
      "type": "function"
    },
    {
      "inputs": [],
      "name": "DEFAULT_ADMIN_ROLE",
      "outputs": [
        {
          "internalType": "bytes32",
          "name": "",
          "type": "bytes32"
        }
      ],
      "stateMutability": "view",
      "type": "function"
    },
    {
      "inputs": [],
      "name": "EpicGemsCooldownPeriod",
      "outputs": [
        {
          "internalType": "uint256",
          "name": "",
          "type": "uint256"
        }
      ],
      "stateMutability": "view",
      "type": "function"
    },
    {
      "inputs": [],
      "name": "EpicGemsMiningPeriod",
      "outputs": [
        {
          "internalType": "uint256",
          "name": "",
          "type": "uint256"
        }
      ],
      "stateMutability": "view",
      "type": "function"
    },
    {
      "inputs": [],
      "name": "EpicGemsValue",
      "outputs": [
        {
          "internalType": "uint256",
          "name": "",
          "type": "uint256"
        }
      ],
      "stateMutability": "view",
      "type": "function"
    },
    {
      "inputs": [],
      "name": "EpicminingTry",
      "outputs": [
        {
          "internalType": "uint256",
          "name": "",
          "type": "uint256"
        }
      ],
      "stateMutability": "view",
      "type": "function"
    },
    {
      "inputs": [
        {
          "internalType": "uint256",
          "name": "",
          "type": "uint256"
        }
      ],
      "name": "GEMIndexToOwner",
      "outputs": [
        {
          "internalType": "address",
          "name": "",
          "type": "address"
        }
      ],
      "stateMutability": "view",
      "type": "function"
    },
    {
      "inputs": [
        {
          "internalType": "uint256",
          "name": "",
          "type": "uint256"
        }
      ],
      "name": "Gems",
      "outputs": [
        {
          "internalType": "uint256",
          "name": "tokenId",
          "type": "uint256"
        },
        {
          "internalType": "enum GemFactoryStorage.Rarity",
          "name": "rarity",
          "type": "uint8"
        },
        {
          "internalType": "uint256",
          "name": "gemCooldownPeriod",
          "type": "uint256"
        },
        {
          "internalType": "uint256",
          "name": "miningPeriod",
          "type": "uint256"
        },
        {
          "internalType": "uint256",
          "name": "miningTry",
          "type": "uint256"
        },
        {
          "internalType": "bool",
          "name": "isLocked",
          "type": "bool"
        },
        {
          "internalType": "uint256",
          "name": "value",
          "type": "uint256"
        },
        {
          "internalType": "string",
          "name": "tokenURI",
          "type": "string"
        },
        {
          "internalType": "uint256",
          "name": "randomRequestId",
          "type": "uint256"
        }
      ],
      "stateMutability": "view",
      "type": "function"
    },
    {
      "inputs": [],
      "name": "LegendaryGemsCooldownPeriod",
      "outputs": [
        {
          "internalType": "uint256",
          "name": "",
          "type": "uint256"
        }
      ],
      "stateMutability": "view",
      "type": "function"
    },
    {
      "inputs": [],
      "name": "LegendaryGemsMiningPeriod",
      "outputs": [
        {
          "internalType": "uint256",
          "name": "",
          "type": "uint256"
        }
      ],
      "stateMutability": "view",
      "type": "function"
    },
    {
      "inputs": [],
      "name": "LegendaryGemsValue",
      "outputs": [
        {
          "internalType": "uint256",
          "name": "",
          "type": "uint256"
        }
      ],
      "stateMutability": "view",
      "type": "function"
    },
    {
      "inputs": [],
      "name": "LegendaryminingTry",
      "outputs": [
        {
          "internalType": "uint256",
          "name": "",
          "type": "uint256"
        }
      ],
      "stateMutability": "view",
      "type": "function"
    },
    {
      "inputs": [],
      "name": "MythicGemsCooldownPeriod",
      "outputs": [
        {
          "internalType": "uint256",
          "name": "",
          "type": "uint256"
        }
      ],
      "stateMutability": "view",
      "type": "function"
    },
    {
      "inputs": [],
      "name": "MythicGemsMiningPeriod",
      "outputs": [
        {
          "internalType": "uint256",
          "name": "",
          "type": "uint256"
        }
      ],
      "stateMutability": "view",
      "type": "function"
    },
    {
      "inputs": [],
      "name": "MythicGemsValue",
      "outputs": [
        {
          "internalType": "uint256",
          "name": "",
          "type": "uint256"
        }
      ],
      "stateMutability": "view",
      "type": "function"
    },
    {
      "inputs": [],
      "name": "MythicminingTry",
      "outputs": [
        {
          "internalType": "uint256",
          "name": "",
          "type": "uint256"
        }
      ],
      "stateMutability": "view",
      "type": "function"
    },
    {
      "inputs": [],
      "name": "PAUSE_ROLE",
      "outputs": [
        {
          "internalType": "bytes32",
          "name": "",
          "type": "bytes32"
        }
      ],
      "stateMutability": "view",
      "type": "function"
    },
    {
      "inputs": [],
      "name": "RareGemsCooldownPeriod",
      "outputs": [
        {
          "internalType": "uint256",
          "name": "",
          "type": "uint256"
        }
      ],
      "stateMutability": "view",
      "type": "function"
    },
    {
      "inputs": [],
      "name": "RareGemsMiningPeriod",
      "outputs": [
        {
          "internalType": "uint256",
          "name": "",
          "type": "uint256"
        }
      ],
      "stateMutability": "view",
      "type": "function"
    },
    {
      "inputs": [],
      "name": "RareGemsValue",
      "outputs": [
        {
          "internalType": "uint256",
          "name": "",
          "type": "uint256"
        }
      ],
      "stateMutability": "view",
      "type": "function"
    },
    {
      "inputs": [],
      "name": "RareminingTry",
      "outputs": [
        {
          "internalType": "uint256",
          "name": "",
          "type": "uint256"
        }
      ],
      "stateMutability": "view",
      "type": "function"
    },
    {
      "inputs": [],
      "name": "UniqueGemsCooldownPeriod",
      "outputs": [
        {
          "internalType": "uint256",
          "name": "",
          "type": "uint256"
        }
      ],
      "stateMutability": "view",
      "type": "function"
    },
    {
      "inputs": [],
      "name": "UniqueGemsMiningPeriod",
      "outputs": [
        {
          "internalType": "uint256",
          "name": "",
          "type": "uint256"
        }
      ],
      "stateMutability": "view",
      "type": "function"
    },
    {
      "inputs": [],
      "name": "UniqueGemsValue",
      "outputs": [
        {
          "internalType": "uint256",
          "name": "",
          "type": "uint256"
        }
      ],
      "stateMutability": "view",
      "type": "function"
    },
    {
      "inputs": [],
      "name": "UniqueminingTry",
      "outputs": [
        {
          "internalType": "uint256",
          "name": "",
          "type": "uint256"
        }
      ],
      "stateMutability": "view",
      "type": "function"
    },
    {
      "inputs": [
        {
          "internalType": "address",
          "name": "account",
          "type": "address"
        }
      ],
      "name": "addAdmin",
      "outputs": [],
      "stateMutability": "nonpayable",
      "type": "function"
    },
    {
      "inputs": [
        {
          "internalType": "string",
          "name": "_backgroundColor",
          "type": "string"
        }
      ],
      "name": "addBackgroundColor",
      "outputs": [],
      "stateMutability": "nonpayable",
      "type": "function"
    },
    {
      "inputs": [
        {
          "internalType": "string",
          "name": "_color",
          "type": "string"
        }
      ],
      "name": "addColor",
      "outputs": [],
      "stateMutability": "nonpayable",
      "type": "function"
    },
    {
      "inputs": [
        {
          "internalType": "address",
          "name": "account",
          "type": "address"
        }
      ],
      "name": "addPauser",
      "outputs": [],
      "stateMutability": "nonpayable",
      "type": "function"
    },
    {
      "inputs": [
        {
          "internalType": "address",
          "name": "_to",
          "type": "address"
        },
        {
          "internalType": "uint256",
          "name": "_tokenId",
          "type": "uint256"
        }
      ],
      "name": "adminTransferGEM",
      "outputs": [
        {
          "internalType": "bool",
          "name": "",
          "type": "bool"
        }
      ],
      "stateMutability": "nonpayable",
      "type": "function"
    },
    {
      "inputs": [
        {
          "internalType": "address",
          "name": "",
          "type": "address"
        }
      ],
      "name": "aliveImplementation",
      "outputs": [
        {
          "internalType": "bool",
          "name": "",
          "type": "bool"
        }
      ],
      "stateMutability": "view",
      "type": "function"
    },
    {
      "inputs": [
        {
          "internalType": "address",
          "name": "to",
          "type": "address"
        },
        {
          "internalType": "uint256",
          "name": "tokenId",
          "type": "uint256"
        }
      ],
      "name": "approve",
      "outputs": [],
      "stateMutability": "nonpayable",
      "type": "function"
    },
    {
      "inputs": [
        {
          "internalType": "uint256",
          "name": "",
          "type": "uint256"
        }
      ],
      "name": "backgroundColors",
      "outputs": [
        {
          "internalType": "string",
          "name": "",
          "type": "string"
        }
      ],
      "stateMutability": "view",
      "type": "function"
    },
    {
      "inputs": [
        {
          "internalType": "address",
          "name": "_owner",
          "type": "address"
        }
      ],
      "name": "balanceOf",
      "outputs": [
        {
          "internalType": "uint256",
          "name": "count",
          "type": "uint256"
        }
      ],
      "stateMutability": "view",
      "type": "function"
    },
    {
      "inputs": [
        {
          "internalType": "uint256",
          "name": "_tokenId",
          "type": "uint256"
        }
      ],
      "name": "cancelMining",
      "outputs": [
        {
          "internalType": "bool",
          "name": "",
          "type": "bool"
        }
      ],
      "stateMutability": "nonpayable",
      "type": "function"
    },
    {
      "inputs": [
        {
          "internalType": "uint256",
          "name": "_tokenId",
          "type": "uint256"
        }
      ],
      "name": "claimMinedGEM",
      "outputs": [
        {
          "internalType": "bool",
          "name": "",
          "type": "bool"
        }
      ],
      "stateMutability": "nonpayable",
      "type": "function"
    },
    {
      "inputs": [
        {
          "internalType": "uint256",
          "name": "",
          "type": "uint256"
        }
      ],
      "name": "colors",
      "outputs": [
        {
          "internalType": "string",
          "name": "",
          "type": "string"
        }
      ],
      "stateMutability": "view",
      "type": "function"
    },
    {
      "inputs": [
        {
          "internalType": "enum GemFactoryStorage.Rarity",
          "name": "_rarity",
          "type": "uint8"
        },
        {
          "internalType": "uint8[2]",
          "name": "_color",
          "type": "uint8[2]"
        },
        {
          "internalType": "uint8[4]",
          "name": "_quadrants",
          "type": "uint8[4]"
        },
        {
          "internalType": "string",
          "name": "_tokenURI",
          "type": "string"
        }
      ],
      "name": "createGEM",
      "outputs": [
        {
          "internalType": "uint256",
          "name": "",
          "type": "uint256"
        }
      ],
      "stateMutability": "nonpayable",
      "type": "function"
    },
    {
      "inputs": [
        {
          "internalType": "enum GemFactoryStorage.Rarity[]",
          "name": "_rarities",
          "type": "uint8[]"
        },
        {
          "internalType": "uint8[2][]",
          "name": "_colors",
          "type": "uint8[2][]"
        },
        {
          "internalType": "uint8[4][]",
          "name": "_quadrants",
          "type": "uint8[4][]"
        },
        {
          "internalType": "string[]",
          "name": "_tokenURIs",
          "type": "string[]"
        }
      ],
      "name": "createGEMPool",
      "outputs": [
        {
          "internalType": "uint256[]",
          "name": "",
          "type": "uint256[]"
        }
      ],
      "stateMutability": "nonpayable",
      "type": "function"
    },
    {
      "inputs": [
        {
          "internalType": "uint8",
          "name": "",
          "type": "uint8"
        }
      ],
      "name": "customBackgroundColors",
      "outputs": [
        {
          "internalType": "string",
          "name": "",
          "type": "string"
        }
      ],
      "stateMutability": "view",
      "type": "function"
    },
    {
      "inputs": [],
      "name": "customBackgroundColorsCount",
      "outputs": [
        {
          "internalType": "uint8",
          "name": "",
          "type": "uint8"
        }
      ],
      "stateMutability": "view",
      "type": "function"
    },
    {
      "inputs": [
        {
          "internalType": "uint8",
          "name": "",
          "type": "uint8"
        }
      ],
      "name": "customColors",
      "outputs": [
        {
          "internalType": "string",
          "name": "",
          "type": "string"
        }
      ],
      "stateMutability": "view",
      "type": "function"
    },
    {
      "inputs": [],
      "name": "customColorsCount",
      "outputs": [
        {
          "internalType": "uint8",
          "name": "",
          "type": "uint8"
        }
      ],
      "stateMutability": "view",
      "type": "function"
    },
    {
      "inputs": [],
      "name": "drbcoordinator",
      "outputs": [
        {
          "internalType": "address",
          "name": "",
          "type": "address"
        }
      ],
      "stateMutability": "view",
      "type": "function"
    },
    {
      "inputs": [
        {
          "internalType": "uint256[]",
          "name": "_tokenIds",
          "type": "uint256[]"
        },
        {
          "internalType": "enum GemFactoryStorage.Rarity",
          "name": "_rarity",
          "type": "uint8"
        },
        {
          "internalType": "uint8[2]",
          "name": "_color",
          "type": "uint8[2]"
        }
      ],
      "name": "forgeTokens",
      "outputs": [
        {
          "internalType": "uint256",
          "name": "newGemId",
          "type": "uint256"
        }
      ],
      "stateMutability": "nonpayable",
      "type": "function"
    },
    {
      "inputs": [
        {
          "internalType": "uint256",
          "name": "tokenId",
          "type": "uint256"
        }
      ],
      "name": "getApproved",
      "outputs": [
        {
          "internalType": "address",
          "name": "",
          "type": "address"
        }
      ],
      "stateMutability": "view",
      "type": "function"
    },
    {
      "inputs": [],
      "name": "getCommonValue",
      "outputs": [
        {
          "internalType": "uint256",
          "name": "",
          "type": "uint256"
        }
      ],
      "stateMutability": "view",
      "type": "function"
    },
    {
      "inputs": [],
      "name": "getCommonminingTry",
      "outputs": [
        {
          "internalType": "uint256",
          "name": "",
          "type": "uint256"
        }
      ],
      "stateMutability": "view",
      "type": "function"
    },
    {
      "inputs": [
        {
          "internalType": "uint8",
          "name": "_index",
          "type": "uint8"
        }
      ],
      "name": "getCustomColor",
      "outputs": [
        {
          "internalType": "string",
          "name": "",
          "type": "string"
        }
      ],
      "stateMutability": "view",
      "type": "function"
    },
    {
      "inputs": [],
      "name": "getEpicValue",
      "outputs": [
        {
          "internalType": "uint256",
          "name": "",
          "type": "uint256"
        }
      ],
      "stateMutability": "view",
      "type": "function"
    },
    {
      "inputs": [],
      "name": "getEpicminingTry",
      "outputs": [
        {
          "internalType": "uint256",
          "name": "",
          "type": "uint256"
        }
      ],
      "stateMutability": "view",
      "type": "function"
    },
    {
      "inputs": [
        {
          "internalType": "uint256",
          "name": "_tokenId",
          "type": "uint256"
        }
      ],
      "name": "getGem",
      "outputs": [
        {
          "components": [
            {
              "internalType": "uint256",
              "name": "tokenId",
              "type": "uint256"
            },
            {
              "internalType": "enum GemFactoryStorage.Rarity",
              "name": "rarity",
              "type": "uint8"
            },
            {
              "internalType": "uint8[4]",
              "name": "quadrants",
              "type": "uint8[4]"
            },
            {
              "internalType": "uint8[2]",
              "name": "color",
              "type": "uint8[2]"
            },
            {
              "internalType": "uint256",
              "name": "gemCooldownPeriod",
              "type": "uint256"
            },
            {
              "internalType": "uint256",
              "name": "miningPeriod",
              "type": "uint256"
            },
            {
              "internalType": "uint256",
              "name": "miningTry",
              "type": "uint256"
            },
            {
              "internalType": "bool",
              "name": "isLocked",
              "type": "bool"
            },
            {
              "internalType": "uint256",
              "name": "value",
              "type": "uint256"
            },
            {
              "internalType": "string",
              "name": "tokenURI",
              "type": "string"
            },
            {
              "internalType": "uint256",
              "name": "randomRequestId",
              "type": "uint256"
            }
          ],
          "internalType": "struct GemFactoryStorage.Gem",
          "name": "",
          "type": "tuple"
        }
      ],
      "stateMutability": "view",
      "type": "function"
    },
    {
      "inputs": [],
      "name": "getLegendaryValue",
      "outputs": [
        {
          "internalType": "uint256",
          "name": "",
          "type": "uint256"
        }
      ],
      "stateMutability": "view",
      "type": "function"
    },
    {
      "inputs": [],
      "name": "getLegendaryminingTry",
      "outputs": [
        {
          "internalType": "uint256",
          "name": "",
          "type": "uint256"
        }
      ],
      "stateMutability": "view",
      "type": "function"
    },
    {
      "inputs": [],
      "name": "getMythicValue",
      "outputs": [
        {
          "internalType": "uint256",
          "name": "",
          "type": "uint256"
        }
      ],
      "stateMutability": "view",
      "type": "function"
    },
    {
      "inputs": [],
      "name": "getMythicminingTry",
      "outputs": [
        {
          "internalType": "uint256",
          "name": "",
          "type": "uint256"
        }
      ],
      "stateMutability": "view",
      "type": "function"
    },
    {
      "inputs": [
        {
          "internalType": "uint256",
          "name": "_requestId",
          "type": "uint256"
        }
      ],
      "name": "getRandomRequest",
      "outputs": [
        {
          "components": [
            {
              "internalType": "uint256",
              "name": "tokenId",
              "type": "uint256"
            },
            {
              "internalType": "bool",
              "name": "requested",
              "type": "bool"
            },
            {
              "internalType": "bool",
              "name": "fulfilled",
              "type": "bool"
            },
            {
              "internalType": "uint256",
              "name": "randomWord",
              "type": "uint256"
            },
            {
              "internalType": "uint256",
              "name": "chosenTokenId",
              "type": "uint256"
            },
            {
              "internalType": "address",
              "name": "requester",
              "type": "address"
            }
          ],
          "internalType": "struct GemFactoryStorage.RequestStatus",
          "name": "",
          "type": "tuple"
        }
      ],
      "stateMutability": "view",
      "type": "function"
    },
    {
      "inputs": [],
      "name": "getRareValue",
      "outputs": [
        {
          "internalType": "uint256",
          "name": "",
          "type": "uint256"
        }
      ],
      "stateMutability": "view",
      "type": "function"
    },
    {
      "inputs": [],
      "name": "getRareminingTry",
      "outputs": [
        {
          "internalType": "uint256",
          "name": "",
          "type": "uint256"
        }
      ],
      "stateMutability": "view",
      "type": "function"
    },
    {
      "inputs": [
        {
          "internalType": "bytes32",
          "name": "role",
          "type": "bytes32"
        }
      ],
      "name": "getRoleAdmin",
      "outputs": [
        {
          "internalType": "bytes32",
          "name": "",
          "type": "bytes32"
        }
      ],
      "stateMutability": "view",
      "type": "function"
    },
    {
      "inputs": [],
      "name": "getTon",
      "outputs": [
        {
          "internalType": "address",
          "name": "",
          "type": "address"
        }
      ],
      "stateMutability": "view",
      "type": "function"
    },
    {
      "inputs": [],
      "name": "getTreasury",
      "outputs": [
        {
          "internalType": "address",
          "name": "",
          "type": "address"
        }
      ],
      "stateMutability": "view",
      "type": "function"
    },
    {
      "inputs": [],
      "name": "getUniqueValue",
      "outputs": [
        {
          "internalType": "uint256",
          "name": "",
          "type": "uint256"
        }
      ],
      "stateMutability": "view",
      "type": "function"
    },
    {
      "inputs": [],
      "name": "getUniqueminingTry",
      "outputs": [
        {
          "internalType": "uint256",
          "name": "",
          "type": "uint256"
        }
      ],
      "stateMutability": "view",
      "type": "function"
    },
    {
      "inputs": [],
      "name": "getWston",
      "outputs": [
        {
          "internalType": "address",
          "name": "",
          "type": "address"
        }
      ],
      "stateMutability": "view",
      "type": "function"
    },
    {
      "inputs": [
        {
          "internalType": "bytes32",
          "name": "role",
          "type": "bytes32"
        },
        {
          "internalType": "address",
          "name": "account",
          "type": "address"
        }
      ],
      "name": "grantRole",
      "outputs": [],
      "stateMutability": "nonpayable",
      "type": "function"
    },
    {
      "inputs": [
        {
          "internalType": "bytes32",
          "name": "role",
          "type": "bytes32"
        },
        {
          "internalType": "address",
          "name": "account",
          "type": "address"
        }
      ],
      "name": "hasRole",
      "outputs": [
        {
          "internalType": "bool",
          "name": "",
          "type": "bool"
        }
      ],
      "stateMutability": "view",
      "type": "function"
    },
    {
      "inputs": [
        {
          "internalType": "address",
          "name": "_wston",
          "type": "address"
        },
        {
          "internalType": "address",
          "name": "_ton",
          "type": "address"
        },
        {
          "internalType": "address",
          "name": "_treasury",
          "type": "address"
        },
        {
          "internalType": "uint256",
          "name": "_CommonGemsValue",
          "type": "uint256"
        },
        {
          "internalType": "uint256",
          "name": "_RareGemsValue",
          "type": "uint256"
        },
        {
          "internalType": "uint256",
          "name": "_UniqueGemsValue",
          "type": "uint256"
        },
        {
          "internalType": "uint256",
          "name": "_EpicGemsValue",
          "type": "uint256"
        },
        {
          "internalType": "uint256",
          "name": "_LegendaryGemsValue",
          "type": "uint256"
        },
        {
          "internalType": "uint256",
          "name": "_MythicGemsValue",
          "type": "uint256"
        }
      ],
      "name": "initialize",
      "outputs": [],
      "stateMutability": "nonpayable",
      "type": "function"
    },
    {
      "inputs": [
        {
          "internalType": "address",
          "name": "account",
          "type": "address"
        }
      ],
      "name": "isAdmin",
      "outputs": [
        {
          "internalType": "bool",
          "name": "",
          "type": "bool"
        }
      ],
      "stateMutability": "view",
      "type": "function"
    },
    {
      "inputs": [
        {
          "internalType": "address",
          "name": "owner",
          "type": "address"
        },
        {
          "internalType": "address",
          "name": "operator",
          "type": "address"
        }
      ],
      "name": "isApprovedForAll",
      "outputs": [
        {
          "internalType": "bool",
          "name": "",
          "type": "bool"
        }
      ],
      "stateMutability": "view",
      "type": "function"
    },
    {
      "inputs": [],
      "name": "isOwner",
      "outputs": [
        {
          "internalType": "bool",
          "name": "",
          "type": "bool"
        }
      ],
      "stateMutability": "view",
      "type": "function"
    },
    {
      "inputs": [
        {
          "internalType": "uint256",
          "name": "_tokenId",
          "type": "uint256"
        }
      ],
      "name": "isTokenLocked",
      "outputs": [
        {
          "internalType": "bool",
          "name": "",
          "type": "bool"
        }
      ],
      "stateMutability": "view",
      "type": "function"
    },
    {
      "inputs": [],
      "name": "marketplace",
      "outputs": [
        {
          "internalType": "address",
          "name": "",
          "type": "address"
        }
      ],
      "stateMutability": "view",
      "type": "function"
    },
    {
      "inputs": [
        {
          "internalType": "uint256",
          "name": "_tokenId",
          "type": "uint256"
        }
      ],
      "name": "meltGEM",
      "outputs": [],
      "stateMutability": "nonpayable",
      "type": "function"
    },
    {
      "inputs": [],
      "name": "name",
      "outputs": [
        {
          "internalType": "string",
          "name": "",
          "type": "string"
        }
      ],
      "stateMutability": "view",
      "type": "function"
    },
    {
      "inputs": [],
      "name": "numberOfSolidColors",
      "outputs": [
        {
          "internalType": "uint8",
          "name": "",
          "type": "uint8"
        }
      ],
      "stateMutability": "view",
      "type": "function"
    },
    {
      "inputs": [
        {
          "internalType": "uint256",
          "name": "tokenId",
          "type": "uint256"
        }
      ],
      "name": "ownerOf",
      "outputs": [
        {
          "internalType": "address",
          "name": "",
          "type": "address"
        }
      ],
      "stateMutability": "view",
      "type": "function"
    },
    {
      "inputs": [
        {
          "internalType": "address",
          "name": "",
          "type": "address"
        }
      ],
      "name": "ownershipTokenCount",
      "outputs": [
        {
          "internalType": "uint256",
          "name": "",
          "type": "uint256"
        }
      ],
      "stateMutability": "view",
      "type": "function"
    },
    {
      "inputs": [],
      "name": "pause",
      "outputs": [],
      "stateMutability": "nonpayable",
      "type": "function"
    },
    {
      "inputs": [],
      "name": "pauseProxy",
      "outputs": [
        {
          "internalType": "bool",
          "name": "",
          "type": "bool"
        }
      ],
      "stateMutability": "view",
      "type": "function"
    },
    {
      "inputs": [],
      "name": "paused",
      "outputs": [
        {
          "internalType": "bool",
          "name": "",
          "type": "bool"
        }
      ],
      "stateMutability": "view",
      "type": "function"
    },
    {
      "inputs": [
        {
          "internalType": "uint256",
          "name": "_tokenId",
          "type": "uint256"
        }
      ],
      "name": "pickMinedGEM",
      "outputs": [
        {
          "internalType": "bool",
          "name": "",
          "type": "bool"
        }
      ],
      "stateMutability": "payable",
      "type": "function"
    },
    {
      "inputs": [],
      "name": "preMintedGemsAvailable",
      "outputs": [
        {
          "internalType": "uint256[]",
          "name": "GemsAvailable",
          "type": "uint256[]"
        }
      ],
      "stateMutability": "view",
      "type": "function"
    },
    {
      "inputs": [
        {
          "internalType": "uint256",
          "name": "",
          "type": "uint256"
        }
      ],
      "name": "proxyImplementation",
      "outputs": [
        {
          "internalType": "address",
          "name": "",
          "type": "address"
        }
      ],
      "stateMutability": "view",
      "type": "function"
    },
    {
      "inputs": [
        {
          "internalType": "uint256",
          "name": "requestId",
          "type": "uint256"
        },
        {
          "internalType": "uint256",
          "name": "randomWord",
          "type": "uint256"
        }
      ],
      "name": "rawFulfillRandomWords",
      "outputs": [],
      "stateMutability": "nonpayable",
      "type": "function"
    },
    {
      "inputs": [
        {
          "internalType": "address",
          "name": "account",
          "type": "address"
        }
      ],
      "name": "removeAdmin",
      "outputs": [],
      "stateMutability": "nonpayable",
      "type": "function"
    },
    {
      "inputs": [
        {
          "internalType": "address",
          "name": "account",
          "type": "address"
        }
      ],
      "name": "removePauser",
      "outputs": [],
      "stateMutability": "nonpayable",
      "type": "function"
    },
    {
      "inputs": [],
      "name": "renounceOwnership",
      "outputs": [],
      "stateMutability": "nonpayable",
      "type": "function"
    },
    {
      "inputs": [
        {
          "internalType": "bytes32",
          "name": "role",
          "type": "bytes32"
        },
        {
          "internalType": "address",
          "name": "callerConfirmation",
          "type": "address"
        }
      ],
      "name": "renounceRole",
      "outputs": [],
      "stateMutability": "nonpayable",
      "type": "function"
    },
    {
      "inputs": [],
      "name": "requestCount",
      "outputs": [
        {
          "internalType": "uint256",
          "name": "",
          "type": "uint256"
        }
      ],
      "stateMutability": "view",
      "type": "function"
    },
    {
      "inputs": [
        {
          "internalType": "uint256",
          "name": "",
          "type": "uint256"
        }
      ],
      "name": "requestIds",
      "outputs": [
        {
          "internalType": "uint256",
          "name": "",
          "type": "uint256"
        }
      ],
      "stateMutability": "view",
      "type": "function"
    },
    {
      "inputs": [
        {
          "internalType": "bytes32",
          "name": "role",
          "type": "bytes32"
        },
        {
          "internalType": "address",
          "name": "account",
          "type": "address"
        }
      ],
      "name": "revokeRole",
      "outputs": [],
      "stateMutability": "nonpayable",
      "type": "function"
    },
    {
      "inputs": [
        {
          "internalType": "uint256",
          "name": "",
          "type": "uint256"
        }
      ],
      "name": "s_requests",
      "outputs": [
        {
          "internalType": "uint256",
          "name": "tokenId",
          "type": "uint256"
        },
        {
          "internalType": "bool",
          "name": "requested",
          "type": "bool"
        },
        {
          "internalType": "bool",
          "name": "fulfilled",
          "type": "bool"
        },
        {
          "internalType": "uint256",
          "name": "randomWord",
          "type": "uint256"
        },
        {
          "internalType": "uint256",
          "name": "chosenTokenId",
          "type": "uint256"
        },
        {
          "internalType": "address",
          "name": "requester",
          "type": "address"
        }
      ],
      "stateMutability": "view",
      "type": "function"
    },
    {
      "inputs": [
        {
          "internalType": "address",
          "name": "from",
          "type": "address"
        },
        {
          "internalType": "address",
          "name": "to",
          "type": "address"
        },
        {
          "internalType": "uint256",
          "name": "tokenId",
          "type": "uint256"
        }
      ],
      "name": "safeTransferFrom",
      "outputs": [],
      "stateMutability": "nonpayable",
      "type": "function"
    },
    {
      "inputs": [
        {
          "internalType": "address",
          "name": "from",
          "type": "address"
        },
        {
          "internalType": "address",
          "name": "to",
          "type": "address"
        },
        {
          "internalType": "uint256",
          "name": "tokenId",
          "type": "uint256"
        },
        {
          "internalType": "bytes",
          "name": "data",
          "type": "bytes"
        }
      ],
      "name": "safeTransferFrom",
      "outputs": [],
      "stateMutability": "nonpayable",
      "type": "function"
    },
    {
      "inputs": [
        {
          "internalType": "bytes4",
          "name": "",
          "type": "bytes4"
        }
      ],
      "name": "selectorImplementation",
      "outputs": [
        {
          "internalType": "address",
          "name": "",
          "type": "address"
        }
      ],
      "stateMutability": "view",
      "type": "function"
    },
    {
      "inputs": [
        {
          "internalType": "address",
          "name": "operator",
          "type": "address"
        },
        {
          "internalType": "bool",
          "name": "approved",
          "type": "bool"
        }
      ],
      "name": "setApprovalForAll",
      "outputs": [],
      "stateMutability": "nonpayable",
      "type": "function"
    },
    {
      "inputs": [],
      "name": "setApprovalForMarketplace",
      "outputs": [],
      "stateMutability": "nonpayable",
      "type": "function"
    },
    {
      "inputs": [
        {
          "internalType": "uint256",
          "name": "_CommonGemsCooldownPeriod",
          "type": "uint256"
        },
        {
          "internalType": "uint256",
          "name": "_RareGemsCooldownPeriod",
          "type": "uint256"
        },
        {
          "internalType": "uint256",
          "name": "_UniqueGemsCooldownPeriod",
          "type": "uint256"
        },
        {
          "internalType": "uint256",
          "name": "_EpicGemsCooldownPeriod",
          "type": "uint256"
        },
        {
          "internalType": "uint256",
          "name": "_LegendaryGemsCooldownPeriod",
          "type": "uint256"
        },
        {
          "internalType": "uint256",
          "name": "_MythicGemsCooldownPeriod",
          "type": "uint256"
        }
      ],
      "name": "setGemsCooldownPeriods",
      "outputs": [],
      "stateMutability": "nonpayable",
      "type": "function"
    },
    {
      "inputs": [
        {
          "internalType": "uint256",
          "name": "_CommonGemsMiningPeriod",
          "type": "uint256"
        },
        {
          "internalType": "uint256",
          "name": "_RareGemsMiningPeriod",
          "type": "uint256"
        },
        {
          "internalType": "uint256",
          "name": "_UniqueGemsMiningPeriod",
          "type": "uint256"
        },
        {
          "internalType": "uint256",
          "name": "_EpicGemsMiningPeriod",
          "type": "uint256"
        },
        {
          "internalType": "uint256",
          "name": "_LegendaryGemsMiningPeriod",
          "type": "uint256"
        },
        {
          "internalType": "uint256",
          "name": "_MythicGemsMiningPeriod",
          "type": "uint256"
        }
      ],
      "name": "setGemsMiningPeriods",
      "outputs": [],
      "stateMutability": "nonpayable",
      "type": "function"
    },
    {
      "inputs": [
        {
          "internalType": "uint256",
          "name": "_CommonGemsValue",
          "type": "uint256"
        },
        {
          "internalType": "uint256",
          "name": "_RareGemsValue",
          "type": "uint256"
        },
        {
          "internalType": "uint256",
          "name": "_UniqueGemsValue",
          "type": "uint256"
        },
        {
          "internalType": "uint256",
          "name": "_EpicGemsValue",
          "type": "uint256"
        },
        {
          "internalType": "uint256",
          "name": "_LegendaryGemsValue",
          "type": "uint256"
        },
        {
          "internalType": "uint256",
          "name": "_MythicGemsValue",
          "type": "uint256"
        }
      ],
      "name": "setGemsValue",
      "outputs": [],
      "stateMutability": "nonpayable",
      "type": "function"
    },
    {
      "inputs": [
        {
          "internalType": "uint256",
          "name": "_tokenId",
          "type": "uint256"
        },
        {
          "internalType": "bool",
          "name": "_isLocked",
          "type": "bool"
        }
      ],
      "name": "setIsLocked",
      "outputs": [],
      "stateMutability": "nonpayable",
      "type": "function"
    },
    {
      "inputs": [
        {
          "internalType": "address",
          "name": "_marketplace",
          "type": "address"
        }
      ],
      "name": "setMarketPlaceAddress",
      "outputs": [],
      "stateMutability": "nonpayable",
      "type": "function"
    },
    {
      "inputs": [
        {
          "internalType": "uint8",
          "name": "_numberOfSolidColors",
          "type": "uint8"
        }
      ],
      "name": "setNumberOfSolidColors",
      "outputs": [],
      "stateMutability": "nonpayable",
      "type": "function"
    },
    {
      "inputs": [
        {
          "internalType": "uint256",
          "name": "tokenId",
          "type": "uint256"
        },
        {
          "internalType": "string",
          "name": "_tokenURI",
          "type": "string"
        }
      ],
      "name": "setTokenURI",
      "outputs": [],
      "stateMutability": "nonpayable",
      "type": "function"
    },
    {
      "inputs": [
        {
          "internalType": "uint256",
          "name": "_CommonminingTry",
          "type": "uint256"
        },
        {
          "internalType": "uint256",
          "name": "_RareminingTry",
          "type": "uint256"
        },
        {
          "internalType": "uint256",
          "name": "_UniqueminingTry",
          "type": "uint256"
        },
        {
          "internalType": "uint256",
          "name": "_EpicminingTry",
          "type": "uint256"
        },
        {
          "internalType": "uint256",
          "name": "_LegendaryminingTry",
          "type": "uint256"
        },
        {
          "internalType": "uint256",
          "name": "_MythicminingTry",
          "type": "uint256"
        }
      ],
      "name": "setminingTrys",
      "outputs": [],
      "stateMutability": "nonpayable",
      "type": "function"
    },
    {
      "inputs": [
        {
          "internalType": "uint256",
          "name": "_tokenId",
          "type": "uint256"
        }
      ],
      "name": "startMiningGEM",
      "outputs": [
        {
          "internalType": "bool",
          "name": "",
          "type": "bool"
        }
      ],
      "stateMutability": "nonpayable",
      "type": "function"
    },
    {
      "inputs": [
        {
          "internalType": "bytes4",
          "name": "interfaceId",
          "type": "bytes4"
        }
      ],
      "name": "supportsInterface",
      "outputs": [
        {
          "internalType": "bool",
          "name": "",
          "type": "bool"
        }
      ],
      "stateMutability": "view",
      "type": "function"
    },
    {
      "inputs": [],
      "name": "symbol",
      "outputs": [
        {
          "internalType": "string",
          "name": "",
          "type": "string"
        }
      ],
      "stateMutability": "view",
      "type": "function"
    },
    {
      "inputs": [
        {
          "internalType": "address",
          "name": "",
          "type": "address"
        }
      ],
      "name": "tokenMiningByUser",
      "outputs": [
        {
          "internalType": "uint256",
          "name": "",
          "type": "uint256"
        }
      ],
      "stateMutability": "view",
      "type": "function"
    },
    {
      "inputs": [
        {
          "internalType": "uint256",
          "name": "",
          "type": "uint256"
        }
      ],
      "name": "tokenReadyToMine",
      "outputs": [
        {
          "internalType": "bool",
          "name": "",
          "type": "bool"
        }
      ],
      "stateMutability": "view",
      "type": "function"
    },
    {
      "inputs": [
        {
          "internalType": "uint256",
          "name": "tokenId",
          "type": "uint256"
        }
      ],
      "name": "tokenURI",
      "outputs": [
        {
          "internalType": "string",
          "name": "",
          "type": "string"
        }
      ],
      "stateMutability": "view",
      "type": "function"
    },
    {
      "inputs": [
        {
          "internalType": "address",
          "name": "_owner",
          "type": "address"
        }
      ],
      "name": "tokensOfOwner",
      "outputs": [
        {
          "internalType": "uint256[]",
          "name": "ownerTokens",
          "type": "uint256[]"
        }
      ],
      "stateMutability": "view",
      "type": "function"
    },
    {
      "inputs": [],
      "name": "ton",
      "outputs": [
        {
          "internalType": "address",
          "name": "",
          "type": "address"
        }
      ],
      "stateMutability": "view",
      "type": "function"
    },
    {
      "inputs": [],
      "name": "totalSupply",
      "outputs": [
        {
          "internalType": "uint256",
          "name": "",
          "type": "uint256"
        }
      ],
      "stateMutability": "view",
      "type": "function"
    },
    {
      "inputs": [
        {
          "internalType": "address",
          "name": "newAdmin",
          "type": "address"
        }
      ],
      "name": "transferAdmin",
      "outputs": [],
      "stateMutability": "nonpayable",
      "type": "function"
    },
    {
      "inputs": [
        {
          "internalType": "address",
          "name": "from",
          "type": "address"
        },
        {
          "internalType": "address",
          "name": "to",
          "type": "address"
        },
        {
          "internalType": "uint256",
          "name": "tokenId",
          "type": "uint256"
        }
      ],
      "name": "transferFrom",
      "outputs": [],
      "stateMutability": "nonpayable",
      "type": "function"
    },
    {
      "inputs": [
        {
          "internalType": "address",
          "name": "newAdmin",
          "type": "address"
        }
      ],
      "name": "transferOwnership",
      "outputs": [],
      "stateMutability": "nonpayable",
      "type": "function"
    },
    {
      "inputs": [],
      "name": "treasury",
      "outputs": [
        {
          "internalType": "address",
          "name": "",
          "type": "address"
        }
      ],
      "stateMutability": "view",
      "type": "function"
    },
    {
      "inputs": [],
      "name": "unpause",
      "outputs": [],
      "stateMutability": "nonpayable",
      "type": "function"
    },
    {
      "inputs": [
        {
          "internalType": "address",
          "name": "",
          "type": "address"
        },
        {
          "internalType": "uint256",
          "name": "",
          "type": "uint256"
        }
      ],
      "name": "userMiningStartTime",
      "outputs": [
        {
          "internalType": "uint256",
          "name": "",
          "type": "uint256"
        }
      ],
      "stateMutability": "view",
      "type": "function"
    },
    {
      "inputs": [
        {
          "internalType": "address",
          "name": "",
          "type": "address"
        },
        {
          "internalType": "uint256",
          "name": "",
          "type": "uint256"
        }
      ],
      "name": "userMiningToken",
      "outputs": [
        {
          "internalType": "bool",
          "name": "",
          "type": "bool"
        }
      ],
      "stateMutability": "view",
      "type": "function"
    },
    {
      "inputs": [],
      "name": "wston",
      "outputs": [
        {
          "internalType": "address",
          "name": "",
          "type": "address"
        }
      ],
      "stateMutability": "view",
      "type": "function"
    }
  ],
  "bytecode": "0x60a03461034b57601f601f196001600160401b03617c7e3881900384810184168601838111878210176103355786928291604052833960209586918101031261034b57516001600160a01b038116939084900361034b5761005e610350565b92600a845269546f6b616d616b47454d60b01b8685015261007d610350565b90600382526247454d60e81b87830152845190848211610335576000918254966001978881811c9116801561032b575b8b821014610317579081878493116102c9575b508a9087831160011461026b578592610260575b5050600019600383901b1c191690871b1782555b825194851161024c5785548681811c91168015610242575b8982101461022e578481116101eb575b508793851160011461018b5750839495965092610180575b5050600019600383901b1c191690821b1781555b81608052603a5561014c3361036f565b50603580546001600160a01b03191691909117905560405161787d90816104018239608051818181612bcb0152613a670152f35b015190503880610128565b8493929193169685845280842093905b8882106101d457505083859697106101bb575b505050811b01815561013c565b015160001960f88460031b161c191690553880806101ae565b80878596829496860151815501950193019061019b565b8683528883208580880160051c8201928b8910610225575b0160051c019087905b82811061021a575050610110565b84815501879061020c565b92508192610203565b634e487b7160e01b83526022600452602483fd5b90607f1690610100565b634e487b7160e01b82526041600452602482fd5b0151905038806100d4565b90848a9416918680528c8720928d88905b8282106102b25750508411610299575b505050811b0182556100e8565b015160001960f88460031b161c1916905538808061028c565b8385015186558d979095019493840193018e61027c565b9091508480528a85208780850160051c8201928d861061030e575b918b91869594930160051c01915b8281106103005750506100c0565b8781558594508b91016102f2565b925081926102e4565b634e487b7160e01b85526022600452602485fd5b90607f16906100ad565b634e487b7160e01b600052604160045260246000fd5b600080fd5b60408051919082016001600160401b0381118382101761033557604052565b6001600160a01b031660008181527f619fcd35f40c77da8aa64d5f98c1fed669135ecc4f245ce6667721b157f7098f602052604081205490919060ff166103fc5781805260396020526040822081835260205260408220600160ff1982541617905533917f2f8788117e7eff1d82e926ec794901d17c78024a50270940304540a733656f0d8180a4600190565b509056fe608080604052600436101561001357600080fd5b600090813560e01c90816301ffc9a71461558757508063034294f814615566578063038a7e05146109d75780630491fd3e146154cb57806304e41a0b146154ad57806306fdde03146153fd578063081812fc146153c05780630922f5131461539f578063095ea7b3146152bc5780630c7254a0146152655780630de32a97146152475780630ff1ac67146145ab5780631008ef781461458d578063139b63f31461456f57806315341f2b14614455578063162094c414614419578063166b35c914613f7f5780631785f53c146143ec57806318160ddd146143d15780631885cbbe146143b357806318898f3614610a125780631d0e0aac1461427f5780631da0fc9c14613f9d578063201832c014613f7f57806323b872dd14613d4d578063248a9ca314613d2057806324d7806c14613ccb578063274f24551461392e578063276a28a3146138fd5780632bbbe94d14610b715780632f2ff15d146138bf57806333158058146137db57806333d608f1146137bd57806333fcb64814612f0c57806336568abe14612ed657806336b17e131461098c57806337ed11db14612bb7578063389ed26714612b8e5780633b19e84a146129875780633ec7af4a146128b35780633f4ba83a14612b075780633fb310a514610d7157806342842e0e14612ad95780634d723a7514612a9357806350d2a27614612a4e578063550d01a314612a0f57806358bf3e6514610a305780635badbe4c146129f15780635bbffab6146129d35780635c975abb146129b05780635fcf94d11461177657806361d027b31461298757806361f7f6d7146128d157806362751738146128b35780636352211e1461288257806363a8fd891461285c578063676f79f1146128195780636b1a96fa146127e65780636b2c0f55146127965780636c106fea14610a90578063704802751461274857806370a0823114610aae578063715018a61461272357806371b57c47146126fa578063724188bc146126d957806375829def146126bf57806375b238fc1461269657806377f7e499146126785780637866369b146126495780637fe6fde5146123b157806382dc1ec41461231c5780638456cb59146122925780638462151c1461226d5780638796ba8c1461221b5780638964f0c1146107ac5780638d41fe301461078e5780638f32d59b146121f65780638fddb065146121d857806391d148541461218c57806395d89b41146120c657806397125c4014612093578063975781b71461180b57806398a2c65d14610c6b5780639a66af6214611794578063a0b2d41b14611776578063a168fa8914611704578063a1770a7d146116bb578063a1c5272614611643578063a217fddf14611627578063a22cb46514611586578063a8ce886e14611533578063aa723bb7146112d6578063aae31df3146111fd578063abc8c7af146111d4578063ad0d3d3f1461115c578063ad6caa4714611087578063aff2a46314611009578063b78417b014610feb578063b88d4fde14610f14578063b911135f14610ee1578063bb4a250914610d8f578063bc36b2ee14610d71578063bd11f69d14610d1e578063c138907214610ce5578063c28fb6b714610ca7578063c4d2fcae14610c89578063c61a46c514610c6b578063c87b56dd14610b9a578063cc48b94714610b71578063cc98ef9614610ae7578063cec21acb14610aae578063d1bd7e0614610a90578063d547741f14610a4e578063d55486d314610a30578063d62c990f14610a12578063d7a46495146109f4578063dc0515d6146109d7578063e4b7fddf146109b9578063e7a523c01461098c578063e985e9c514610938578063ecc5e06f146108ed578063efa2cc29146108cf578063f2fde38b146107ca578063f66f9e34146107ac578063f7c0794d1461078e578063f99a6bb514610639578063ff198a1d146105c15763ffbccde4146105a157600080fd5b346105be57806003193601126105be576020601754604051908152f35b80fd5b50346105be576105d036615694565b946000805160206177c883398151915287959295949394526039602052604087203360005260205260ff604060002054168015610626575b610611906159f3565b601d55601e55601f5560205560215560225580f35b50610611610632616600565b9050610608565b50346105be5760208060031936011261078a576004359061065f60ff60165416156159b4565b61066a3315156162ba565b818352600f8152604083205483906001600160a01b0390339082160361078a576106ca8391600861069a87615893565b500154906106a88733617602565b6033541690604051948580948193630169dc3160e01b8352336004840161637d565b03925af190811561077f578491610752575b501561071c57506107167f65aff8e0552d208dfaf55b1280e55553b7dba628290897ff43c8f086d5dbfd2a9160405191829133908361652f565b0390a180f35b6064906040519062461bcd60e51b82526004820152600f60248201526e1d1c985b9cd9995c8819985a5b1959608a1b6044820152fd5b6107729150823d8411610778575b61076a8183615755565b810190616365565b386106dc565b503d610760565b6040513d86823e3d90fd5b5080fd5b50346105be57806003193601126105be576020601a54604051908152f35b50346105be57806003193601126105be576020601e54604051908152f35b50346105be5760203660031901126105be576107e4615668565b6107f46107ef616600565b616250565b6107ff6107ef616600565b6001600160a01b038116801561088f57331461085157610844906000805160206177c88339815191528352603960205261083f60016040852001546169c7565b616a0b565b5061084e33616435565b80f35b60405162461bcd60e51b815260206004820152601660248201527520b1b1b2b9b9b4b136329d1039b0b6b29030b236b4b760511b6044820152606490fd5b60405162461bcd60e51b815260206004820152601860248201527741636365737369626c653a207a65726f206164647265737360401b6044820152606490fd5b50346105be57806003193601126105be576020602c54604051908152f35b50346105be5760203660031901126105be5761092060406109349260ff61091261578d565b168152600b60205220615902565b604051918291602083526020830190615628565b0390f35b50346105be5760403660031901126105be57610952615668565b604061095c61567e565b9260018060a01b0380931681526005602052209116600052602052602060ff604060002054166040519015158152f35b50346105be57806003193601126105be5760315460405160089190911c6001600160a01b03168152602090f35b50346105be57806003193601126105be576020602e54604051908152f35b50346105be57806003193601126105be5760208054604051908152f35b50346105be57806003193601126105be576020602754604051908152f35b50346105be57806003193601126105be576020601f54604051908152f35b50346105be57806003193601126105be576020601d54604051908152f35b50346105be5760403660031901126105be57610a8c600435610a6e61567e565b908084526039602052610a8760016040862001546169c7565b617305565b5080f35b50346105be57806003193601126105be576020601854604051908152f35b50346105be5760203660031901126105be576020906040906001600160a01b03610ad6615668565b168152601083522054604051908152f35b50346105be5760203660031901126105be57610b01615668565b6000805160206177c883398151915282526039602052604082203360005260205260ff604060002054168015610b5e575b610b3b906159f3565b603480546001600160a01b0319166001600160a01b039290921691909117905580f35b50610b3b610b6a616600565b9050610b32565b50346105be57806003193601126105be576032546040516001600160a01b039091168152602090f35b50346105be57602090816003193601126105be57600435808252600f83526040909120546001600160a01b031615610c0e57610bd5816166b4565b5060005260068152610bea6040600020615902565b906000604051610bf98161571f565b52610934604051928284938452830190615628565b60405162461bcd60e51b815260048101839052602f60248201527f4552433732314d657461646174613a2055524920717565727920666f72206e6f60448201526e3732bc34b9ba32b73a103a37b5b2b760891b6064820152608490fd5b50346105be57806003193601126105be576020601954604051908152f35b50346105be57806003193601126105be576020602354604051908152f35b50346105be57806003193601126105be5760335461093490610cd1906001600160a01b0316616548565b60405191829160208352602083019061581b565b50346105be5760203660031901126105be576020906040906001600160a01b03610d0d615668565b168152601183522054604051908152f35b50346105be5760203660031901126105be5760043590600a548210156105be57600a6000526109346109207fc65a7bb8d6351c1cf70c95a316cc6a92839c986682d98bc35f958f4883f9d2a88401615902565b50346105be57806003193601126105be576020602254604051908152f35b50346105be576101203660031901126105be57610daa615668565b610db261567e565b6001600160a01b0360443581811693919290849003610edc57610dd66107ef616600565b603154838160081c16610e975760325492848416610e5857610100600160a81b0360089190911b16610100600160a81b031991909116176031559091166001600160a01b03199182161760325560338054909116919091179055606435601d55608435601e5560a435601f5560c43560205560e4356021556101043560225580f35b60405162461bcd60e51b81526020600482015260176024820152761d1bdb88185b1c9958591e481a5b9a5d1a585b1a5e9959604a1b6044820152606490fd5b60405162461bcd60e51b815260206004820152601e60248201527f746974616e7773746f6e20616c726561647920696e697469616c697a656400006044820152606490fd5b600080fd5b50346105be5760203660031901126105be57602090600435815260368252604060018060a01b0391205416604051908152f35b50346105be5760803660031901126105be57610f2e615668565b610f3661567e565b6044356064356001600160401b038111610fdc5736602382011215610fdc57610f699036906024816004013591016157c6565b91610f7960ff60165416156159b4565b610f848233866173ff565b303b15610fdc576040516323b872dd60e01b81528590818180610fac87878b60048501616302565b038183305af18015610fe057610fc8575b505061084e936174be565b610fd1906156d6565b610fdc578438610fbd565b8480fd5b6040513d84823e3d90fd5b50346105be57806003193601126105be576020602a54604051908152f35b50346105be5760203660031901126105be5761102361578d565b9060ff806009541692169182101561104c57604081610934936109209352600860205220615902565b60405162461bcd60e51b8152602060048201526013602482015272496e646578206f7574206f6620626f756e647360681b6044820152606490fd5b50346105be57602090816003193601126105be57600761114b6004356110b260ff60165416156159b4565b808452600f85526110d060018060a01b0360408620541633146164a9565b6110ed600160ff856110e185615893565b50015416151514616324565b33845260128552604084208185528552611112600160ff6040872054161515146164e5565b33845260128552604084208185528552604084209360ff1994858154169055338152601386526040812082825286526040812055615893565b500190815416905560405160018152f35b50346105be5761116b36615694565b946000805160206177c883398151915287959295949394526039602052604087203360005260205260ff6040600020541680156111c1575b6111ac906159f3565b602955602a55602b55602c55602d55602e5580f35b506111ac6111cd616600565b90506111a3565b50346105be57806003193601126105be576034546040516001600160a01b039091168152602090f35b50346105be5760203660031901126105be5760408160c09260a08351611222816156e9565b8281528260208201528285820152826060820152826080820152015260043581526015602052206004604051611257816156e9565b8254928382526001810154602083019060ff81161515825260ff604085019160081c16151581526002830154916060850192835260a060038501549460808701958652600180831b03978891015416950194855260405196875251151560208701525115156040860152516060850152516080840152511660a0820152f35b50346105be5760203660031901126105be57600435816101406040516112fb816156ba565b82815282602082015260405161131081615704565b608036823760408201526040516113268161573a565b604036823760608201528260808201528260a08201528260c08201528260e082015282610100820152606061012082015201526007548110156114f95761136c90615893565b5090600a6040519261137d846156ba565b8054845261139560ff60018301541660208601615ef5565b6113a160028201616660565b60408501526113b260038201616695565b606085015260048101546080850152600581015460a0850152600681015460c085015260ff600782015416151560e085015260088101546101008501526113fb60098201615902565b6101208501520154610140830152604051918291602083528151602084015261142c602083015160408501906159a7565b604082015181606085015b600482106114dc5750505060608201519060e084015b600282106114bf57505050608081015161012083015260a081015161014083015260c081015161016083015260e081015115156101808301526101008101516101a08301526101208101516101406114b46101e092836101c0870152610200860190615628565b920151908301520390f35b825160ff168152859450602092830192600192909201910161144d565b825160ff1681528695506020928301926001929092019101611437565b60405162461bcd60e51b815260206004820152601260248201527111d95b48191bd95cc81b9bdd08195e1a5cdd60721b6044820152606490fd5b50346105be5760203660031901126105be5760043590600d548210156105be57600d6000526109346109207fd7b6990105719101dabeb77144f2a3385c8033acd3af97e9423a695e81ad1eb58401615902565b50346105be5760403660031901126105be576115a0615668565b6115a8615884565b6001600160a01b0390911690811561160e573360005260056020526040600020826000526020526115dd816040600020615f2c565b60405190151581527f17307eab39ab6107e8899845ad3d59bd9653f200f220920489ca2b5937696c3160203392a380f35b604051630b61174360e31b815260048101839052602490fd5b50346105be57806003193601126105be57602090604051908152f35b50346105be5761165236615694565b946000805160206177c883398151915287959295949394526039602052604087203360005260205260ff6040600020541680156116a8575b611693906159f3565b601755601855601955601a55601b55601c5580f35b506116936116b4616600565b905061168a565b50346105be5760403660031901126105be5760209060ff906040906001600160a01b036116e6615668565b16815260128452818120602435825284522054166040519015158152f35b50346105be5760203660031901126105be57604060c0916004358152601560205220805490600181015490600281015460ff600383015492600460018060a01b0391015416936040519586528181161515602087015260081c16151560408501526060840152608083015260a0820152f35b50346105be57806003193601126105be576020602154604051908152f35b50346105be5760203660031901126105be5760ff6117b061578d565b6000805160206177c8833981519152835260396020526040832033600052602052816040600020541680156117f8575b6117e9906159f3565b1660ff19603154161760315580f35b506117e9611804616600565b90506117e0565b50346105be576101003660031901126105be57600660043510156105be573660431215610edc5760405161183e8161573a565b606481368211610edc576024905b82821061207b575050503660831215610edc5760405161186b81615704565b60e481368211610edc576064905b8282106120635750505060e4356001600160401b03811161205f576118a29036906004016157fd565b916118b860018060a01b03603354163314615a34565b6118c760ff60165416156159b4565b60ff8251166118df602084019160ff83511690615b15565b906118f3604085019260ff84511690615b15565b611906606086019160ff83511690615b15565b92600435611c5c579261194860089360ff9361194f96858a51169260018414938415611c51575b5083611c2c575b5082611c07575b5081611be4575b50615b36565b1610615b99565b6029549060235493601d54926017545b6119698242615ee8565b9060405190611977826156ba565b898252602082019261198b60043585615ef5565b88604084015286606084015260808301528860a083015260c08201528860e0820152856101008201528361012082015288610140820152600754600160401b811015611bce578060016119e19201600755615893565b929092611bb85781518355516006811015611ba25760ff80196001850154169116176001830155604081015160009060005b60048110611b835750506002830155606081015160009060005b60028110611b64575050600a916101409160038501556080810151600485015560a0810151600585015560c08101516006850155611a7460e0820151151560078601615f2c565b6101008101516008850155611a9161012082015160098601615f3d565b0151910155600754600019810196908711611b505786611ab081615893565b505563ffffffff87168703611b4c57927f5ea0402f9a8785c25ad31fd3e0e81f8c2b4ca231668cc82cd03fa34ea1f0ce3c9492611b419288979560408b8a60209d52600f8d528181203360018060a01b031982541617905533815260108d5220611b1a8154616172565b9055611b2689336166ef565b611b30838a6168f4565b6040519687963395600435896161d7565b0390a2604051908152f35b8780fd5b634e487b7160e01b88526011600452602488fd5b90916020611b7a6001928460ff87511691615f18565b93019101611a2d565b90916020611b996001928460ff87511691615f18565b93019101611a13565b634e487b7160e01b600052602160045260246000fd5b634e487b7160e01b600052600060045260246000fd5b634e487b7160e01b600052604160045260246000fd5b849150511660018114908115611bfc575b5038611942565b600291501438611bf5565b85919250511660018114908115611c21575b50903861193b565b600291501438611c19565b86919350511660018114908115611c46575b509138611934565b600291501438611c3e565b60021493503861192d565b600435600103611d335792611ca0600c9360ff93611ca796858a51169260028414938415611d28575b5083611d03575b5082611cde575b5081611cbb575b50615bdf565b1610615c40565b602a549060245493601e549260185461195f565b849150511660028114908115611cd3575b5038611c9a565b600391501438611ccc565b85919250511660028114908115611cf8575b509038611c93565b600391501438611cf0565b86919350511660028114908115611d1d575b509138611c8c565b600391501438611d15565b600314935038611c85565b600435600203611e0a5792611d7760109360ff93611d7e96858a51169260038414938415611dff575b5083611dda575b5082611db5575b5081611d92575b50615c86565b1610615ce9565b602b549060255493601f549260195461195f565b849150511660038114908115611daa575b5038611d71565b600491501438611da3565b85919250511660038114908115611dcf575b509038611d6a565b600491501438611dc7565b86919350511660038114908115611df4575b509138611d63565b600491501438611dec565b600414935038611d5c565b600435600303611ee15792611e4e60149360ff93611e5596858a51169260048414938415611ed6575b5083611eb1575b5082611e8c575b5081611e69575b50615d2f565b1610615d90565b602c54906026549360205492601a5461195f565b849150511660048114908115611e81575b5038611e48565b600591501438611e7a565b85919250511660048114908115611ea6575b509038611e41565b600591501438611e9e565b86919350511660048114908115611ecb575b509138611e3a565b600591501438611ec3565b600514935038611e33565b6004803503611fb75792611f2460189360ff93611f2b96858a51169260058414938415611fac575b5083611f87575b5082611f62575b5081611f3f575b50615dd9565b1610615e3f565b602d54906027549360215492601b5461195f565b849150511660058114908115611f57575b5038611f1e565b600691501438611f50565b85919250511660058114908115611f7c575b509038611f17565b600691501438611f74565b86919350511660058114908115611fa1575b509138611f10565b600691501438611f99565b600614935038611f09565b925060043560050361202b57611fea92600660ff87511614928361201c575b508261200d575b5081611ffe575b50615e8a565b602e54906028549360225492601c5461195f565b5160ff16600614905038611fe4565b5160ff16600614915038611fdd565b5160ff16600614925038611fd6565b60405162461bcd60e51b815260206004820152600c60248201526b77726f6e672052617269747960a01b6044820152606490fd5b8380fd5b602080916120708461579d565b815201910190611879565b602080916120888461579d565b81520191019061184c565b50346105be5760203660031901126105be576020906004358152600f8252604060018060a01b0391205416604051908152f35b50346105be57806003193601126105be576040516000600182600154926120ec846158c8565b928383526020948560018216918260001461216c57505060011461212c575b5061211892500383615755565b610934604051928284938452830190615628565b849150600160005281600020906000915b85831061215457505061211893508201018561210b565b8054838901850152879450869390920191810161213d565b60ff19168582015261211895151560051b850101925087915061210b9050565b50346105be5760403660031901126105be5760406121a861567e565b9160043581526039602052209060018060a01b0316600052602052602060ff604060002054166040519015158152f35b50346105be57806003193601126105be576020602d54604051908152f35b50346105be57806003193601126105be576020612211616600565b6040519015158152f35b50346105be5760203660031901126105be57600435602f5481101561078a57602f6000527fa813484aef6fb598f9f753daf162068ff39ccea4075cb95e1a30f86995b5b7ee0154604051908152602090f35b50346105be5760203660031901126105be57610934610cd161228d615668565b616548565b50346105be57806003193601126105be576000805160206177a88339815191528152603960205260408120336000526020526122d560ff60406000205416616451565b60016016546122e760ff8216156159b4565b60ff1916176016557f62e78cea01bee320cd4e420270b5ea74000d11b0c9f74754ebdbfc544b05a2586020604051338152a180f35b50346105be5760203660031901126105be57610a8c612339615668565b6000805160206177c883398151915283526039602052604083203360005260205260ff60406000205416801561239e575b612373906159f3565b6000805160206177a88339815191528352603960205261239960016040852001546169c7565b616a88565b506123736123aa616600565b905061236a565b50346105be57602090816003193601126105be576004356123d760ff60165416156159b4565b6123e0816166b4565b6001600160a01b0392906123f790841633146164a9565b3381526012845260408120828252845260019261241e8460ff6040852054161515146164e5565b61242f8460ff60076110e187615893565b600a61243a84615893565b50015490818352601586528460ff8160408620015460081c161515036125ef57908591338452601283526040842085855283526040842060ff199081815416905533855260138452604085208686528452846040812055600761249c87615893565b500180548216905582855260158452604085206003015480156125bb57918594939160076124cc61250495615893565b50019081541690556033541690845260158352600360408520015460405194858094819363048dbcef60e41b8352336004840161637d565b03925af1908115610fe057916125477f97b363697f59781efcf0539a3eeabceea1e3b444e248009d3730fa6a26db9c24949261259294839161259e575b50616398565b600a61255283615893565b50015561257661257060ff8661256785615893565b5001541661736a565b42615ee8565b600461258183615893565b50015560405191829133908361652f565b0390a15b604051908152f35b6125b59150883d8a116107785761076a8183615755565b38612541565b5050505090507f87c3badc36a4b7c7f2331493a7998c2f9c414769a1bc588ef4b4c7ef302aeb5191604051908152a1612596565b60405162461bcd60e51b815260048101879052602c60248201527f796f75206e65656420746f2063616c6c207069636b4d696e656447454d20667560448201526b1b98dd1a5bdb88199a5c9cdd60a21b6064820152608490fd5b50346105be5760203660031901126105be5760ff60406020926004358152601484522054166040519015158152f35b50346105be57806003193601126105be576020602954604051908152f35b50346105be57806003193601126105be5760206040516000805160206177c88339815191528152f35b50346105be5760203660031901126105be576107f4615668565b50346105be57806003193601126105be57602060ff60315416604051908152f35b50346105be57806003193601126105be576035546040516001600160a01b039091168152602090f35b50346105be57806003193601126105be5761273f6107ef616600565b610a8c33617212565b50346105be5760203660031901126105be57610a8c612765615668565b6127706107ef616600565b6000805160206177c88339815191528352603960205261083f60016040852001546169c7565b50346105be5760203660031901126105be576127b0615668565b6127bb6107ef616600565b336001600160a01b038216036127d457610a8c9061718a565b60405163334bd91960e11b8152600490fd5b50346105be5760203660031901126105be5761092060406109349260ff61280b61578d565b168152600860205220615902565b50346105be5760403660031901126105be576020906040906001600160a01b03612841615668565b16815260138352818120602435825283522054604051908152f35b50346105be57806003193601126105be57602060ff60355460a01c166040519015158152f35b50346105be5760203660031901126105be5760206128a16004356166b4565b6040516001600160a01b039091168152f35b50346105be57806003193601126105be576020601c54604051908152f35b50346105be5760203660031901126105be57600435906007548210156105be576129536128fd83615893565b50805461297c60ff600184015416926004810154926005820154600683015460ff60078501541690600885015492600a61293960098801615902565b960154976040519a8b9a610120978c5260208c01906159a7565b60408a015260608901526080880152151560a087015260c08601528060e0860152840190615628565b906101008301520390f35b50346105be57806003193601126105be576033546040516001600160a01b039091168152602090f35b50346105be57806003193601126105be57602060ff601654166040519015158152f35b50346105be57806003193601126105be576020602654604051908152f35b50346105be57806003193601126105be576020603054604051908152f35b50346105be5760203660031901126105be5760209060ff906040906001600160a01b03612a3a615668565b168152603784522054166040519015158152f35b50346105be5760203660031901126105be5760043563ffffffff60e01b811680910361078a5790602091815260388252604060018060a01b0391205416604051908152f35b50346105be5760403660031901126105be5761084e612ab0615884565b612ac560018060a01b03603454163314615a34565b6007612ad2600435615893565b5001615f2c565b50346105be57612ae83661584f565b60405191612af58361571f565b848352610f7960ff60165416156159b4565b50346105be57806003193601126105be576000805160206177a8833981519152815260396020526040812033600052602052612b4a60ff60406000205416616451565b601654612b5a60ff8216156159b4565b60ff19166016557f5db9ee0a495bf2e6ff9c91a7834c1ba4fdd244a5e8aa4e537bd38aeae4b073aa6020604051338152a180f35b50346105be57806003193601126105be5760206040516000805160206177a88339815191528152f35b50346105be5760403660031901126105be577f00000000000000000000000000000000000000000000000000000000000000006001600160a01b031633819003612eb857506004358152601560205260ff60016040832001541615612e805760043581526015602052612c516002612c4a604084206001810161010061ff00198254161790556024358382015554615893565b5001616660565b60ff81511660ff6020830151169160ff6060816040840151169201511691612c948593612c8f60075494612c8f612c8787615a96565b988a96615b15565b615b15565b855b838110612d935750505050612caa81615a96565b91835b828110612d745750507fdd6ebb40766c50572c78f680f70ff043535bc04e71ac56a352f7c3df1e11ec516040518281526040602082015280612cf2604082018661581b565b0390a1801580612d5b57612d4757612d31600792612d37926024350690612d198282615ac8565b51600435875260156020526003604088200155615ac8565b51615893565b5001805460ff1916600117905580f35b634e487b7160e01b83526012600452602483fd5b5050506004358152601560205280600360408220015580f35b80612d8160019284615ac8565b51612d8c8287615ac8565b5201612cad565b612dde612dc460ff6002612da685615893565b5001541660ff6002612db786615893565b50015460081c1690615b15565b60ff6002612dd185615893565b50015460101c1690615b15565b60ff612e01612dec84615893565b509282600281881695015460181c1690615b15565b161080612e5c575b80612e44575b612e1c575b600101612c96565b93916001808092612e2c88615893565b5054612e38828b615ac8565b52019301949050612e14565b5060ff6007612e5283615893565b5001541615612e0f565b50808752600f60205260408720546033546001600160a01b03908116911614612e09565b60405162461bcd60e51b815260206004820152601060248201526f52657175657374206e6f74206d61646560801b6044820152606490fd5b6044906040519063073e64fd60e21b82523360048301526024820152fd5b50346105be5760403660031901126105be57612ef061567e565b336001600160a01b038216036127d457610a8c90600435617305565b50346105be5760803660031901126105be576004356001600160401b03811161078a573660238201121561078a57806004013590612f4982615776565b91612f576040519384615755565b8083526024602084019160051b83010191368311610fdc57602401905b8282106137ad57505050600690600660243510156137a9573660631215610edc57604051612fa18161573a565b608481368211610edc576044905b82821061379157505050612fc860ff60165416156159b4565b612fd33315156162ba565b60ff8151169160ff60208301511691600095602435156000146136a057612ffd60028451146163df565b601e54966024549660185498602a5498939199949290995b6040519a6130228c615704565b6080368d37839a84975b89518910156132aa5761303f898b615ac8565b518652600f6020526040862054336001600160a01b03909116036132795760ff600761306e612d318c8e615ac8565b50015416613235578460ff6001613088612d318d8f615ac8565b5001541690613221578481101561322157602435036131e8578d606060ff61314b818e6131398f806130c0612d31612d319386615ac8565b5093856130d78160028098015416828d5116615b15565b168a52856131018b826020818a6130f1612d318a8a615ac8565b50015460081c1692015116615b15565b1660208b01528561312e8b826040818a61311e612d318a8a615ac8565b50015460101c1692015116615b15565b1660408b0152615ac8565b50015460181c16828486015116615b15565b16910152855b8a518110156131dc578d15613169575b600101613151565b8c9d50808c91828f8e61317c8f82615ac8565b519361318791615ac8565b5161319193616b7b565b9e8f926001936131a5575b50509050613161565b7fca7a2fe4405fb5bae2732ff63f6d1976dec8ed09ba2fae7003a209e26154b08f9160409182519182526020820152a18d8d61319c565b5060019098019761302c565b60405162461bcd60e51b815260206004820152601160248201527077726f6e67207261726974792047656d7360781b6044820152606490fd5b634e487b7160e01b87526021600452602487fd5b60405162461bcd60e51b815260206004820152601c60248201527b47656d20697320666f722073616c65206f72206973206d696e696e6760201b6044820152606490fd5b60405162461bcd60e51b81526020600482015260096024820152683737ba1037bbb732b960b91b6044820152606490fd5b9391969250948c89958d1561365c57805b87518110156132e157806132db6132d46001938b615ac8565b5133617602565b016132bb565b5086888a600185511685526001602086015116602086015260016040860151166040860152600160608601511660608601526040519761332089615704565b6080368a378488613648576024356135f257506002965b855b60ff8116600481101561337a5760ff918c8361336f846133698f8f6133616001998792615adc565b511690615b15565b93615adc565b911690520116613339565b5050899596508a898960ff89511660ff61339383615aed565b1614806135d7575b806135bc575b806135a1575b613584575b506135705760ff6133be602435615aed565b1694600686101561355c576133d39042615ee8565b92604051936133e1856156ba565b8985526133f18760208701615ef5565b886040860152836060860152608085015260a084015260c08301528660e083015261010083818401526040516134268161571f565b888152610120840152613440610140938985820152616042565b600754600019810197908811613548578761345a81615893565b505563ffffffff88168803613544577fb008433c5118253ef92bed2a1bd3b95470d4c373e1c4b9586459e65204efa8c496949261351396949261352e613536936134f58d6134e060209f8f8091526020600f9052604083203360018060a01b0319825416179055338352602060109052604083206134d88154616172565b9055336166ef565b604051906134ed8261571f565b81528d6168f4565b6135246040519a8b9a8f8c61016091829133815201528c019061581b565b988d60408c015260608b01906159a7565b60808901906161ac565b860190616181565b8301520390a1604051908152f35b8880fd5b634e487b7160e01b89526011600452602489fd5b634e487b7160e01b89526021600452602489fd5b634e487b7160e01b88526021600452602488fd5b60ff168089528060208a01528060408a01526060890152896133ac565b5060ff60608a01511660ff6135b583615aed565b16146133a7565b5060ff60408a01511660ff6135d083615aed565b16146133a1565b5060ff60208a01511660ff6135eb83615aed565b161461339b565b6000985060243560010361360a57506003965b613337565b60243560020361361d5750600496613337565b600098506024356003036136345750600596613337565b966004602435036136055760069750613337565b634e487b7160e01b86526021600452602486fd5b60405162461bcd60e51b815260206004820152601c60248201527b1d1a1a5cc818dbdb1bdc8818d85b89dd081899481bd89d185a5b995960221b6044820152606490fd5b6024356001036136d4576136b760038451146163df565b601f54966025549660195498602b545b9893919994929099613015565b60009650602435600203613703576136ef60048451146163df565b6020549660265496601a5498602c546136c7565b60243560030361372e5761371a60058451146163df565b6021549660275496601b5498602d546136c7565b6000965060243560040361375d5761374960068451146163df565b6022549660285496601c5498602e546136c7565b60405162461bcd60e51b815260206004820152600c60248201526b77726f6e672072617269747960a01b6044820152606490fd5b6020809161379e8461579d565b815201910190612faf565b8280fd5b8135815260209182019101612f74565b50346105be57806003193601126105be576020604051620334508152f35b50346105be5760403660031901126105be57613866816137f9615668565b6000805160206177c883398151915282526020928391603983526040842033600052835260ff6040600020541680156138ac575b613836906159f3565b60335460405163048dbcef60e41b81529485936001600160a01b039092169284928391602435906004840161637d565b03925af19081156138a15761388192939161388a5750616398565b60405160018152f35b6125b59150833d85116107785761076a8183615755565b6040513d85823e3d90fd5b506138366138b8616600565b905061382d565b50346105be5760403660031901126105be57610a8c6004356138df61567e565b9080845260396020526138f860016040862001546169c7565b616b12565b50346105be5760203660031901126105be57602060ff6007613920600435615893565b500154166040519015158152f35b5060208060031936011261078a5760043561394e60ff60165416156159b4565b6002603a5414613cb9576002603a55613966816166b4565b6001600160a01b0390811633148015613c88575b15613c4657338452601383526040842082855283526139ab604085205460056139a285615893565b50015490615ee8565b421115613c0157600792936139d56139c284615893565b5060ff6001968792015416151514616324565b816139df846166b4565b168152601285526040812083825285528360ff604083205416151503613bcb5760405191606083018381106001600160401b03821117613bb75760405281835263ffffffff868401938385526040810190620334508252604051956309160b1560e11b875261ffff8092511660048801525116602486015251166044840152858360648134857f0000000000000000000000000000000000000000000000000000000000000000165af1928315610fe0578293613b88575b5082600a613aa486615893565b5001558282526015865260408220848155858101805460ff19168717905560040180546001600160a01b03191633179055603080548601905560355416803b1561078a578180916024604051809481936324adeca760e11b83528860048401525af18015610fe0576003604080957fd8d282938b8a25adfd1ff3df570c529f147b9700ff1a12712d2a2f737cfff5149795600a95613b6095613b79575b50908086613b4e89615893565b500155815260158a5220015492615893565b500154825191825285820152a180603a55604051908152f35b613b82906156d6565b38613b41565b9092508581813d8311613bb0575b613ba08183615755565b8101031261078a57519138613a97565b503d613b96565b634e487b7160e01b83526041600452602483fd5b60405162461bcd60e51b815260048101869052600e60248201526d67656d206e6f74206d696e696e6760901b6044820152606490fd5b60405162461bcd60e51b815260048101849052601d60248201527f6d696e696e6720706572696f6420686173206e6f7420656c61707365640000006044820152606490fd5b60405162461bcd60e51b815260048101849052601a6024820152793737ba1023a2a69037bbb732b91037b9103737ba1030b236b4b760311b6044820152606490fd5b506000805160206177c8833981519152845260398352604084203385528352600160ff60408620541615151461397a565b604051633ee5aeb560e01b8152600490fd5b50346105be5760203660031901126105be5760ff6040602092613cec615668565b6000805160206177c88339815191528252603985528282206001600160a01b03909116825284522054604051911615158152f35b50346105be5760203660031901126105be5760016040602092600435815260398452200154604051908152f35b50346105be57613d5c3661584f565b9291613d6d60ff60165416156159b4565b6001600160a01b03828116908115610fdc5780831691828114613f7b5760ff6007613d9789615893565b50015416613f46578282613daa896166b4565b1603613f01578690613dc561257060ff600161256786615893565b6004613dd084615893565b5001558087526020926010845260408820613deb8154616172565b9055828852600f84526002604089209160018060a01b0319928484825416179055868a526010865260408a20613e2181546162f5565b9055848a5281865260408a2054169433613ef1575b85613ed0575b838a526003815260408a2060018154019055848a5252816040892091825416179055826000805160206178088339815191528880a4818103613eac5750506107167f85d07a7616aea29f5d972fd9100b991c224490bd49b737377d908f66f34d9afd939460405193849384616302565b6064925085604051926364283d7b60e01b8452600484015260248301526044820152fd5b613ed985617769565b858a526003815260408a208054600019019055613e3c565b613efc8533886173ff565b613e36565b60405162461bcd60e51b815260206004820152601d60248201527f73656e646572206973206e6f742074686520746f6b656e206f776e65720000006044820152606490fd5b60405162461bcd60e51b815260206004820152600d60248201526c11d95b481a5cc81b1bd8dad959609a1b6044820152606490fd5b8580fd5b50346105be57806003193601126105be576020601b54604051908152f35b50346105be57602090816003193601126105be5760043590613fc460ff60165416156159b4565b613fcf3315156162ba565b336001600160a01b03613fe1846166b4565b160361424a576004613ff283615893565b50015442106141f95760ff600761400884615893565b500154166141a35760ff600161401d84615893565b50015416600681101561418f571561414b57600661403a83615893565b500154156140fc577fcfdb0da0eda7e72692cc304e4e58d2543a70ce5269931e91e02337cbff2a1ef19160809133815260128552604081208282528552604081209060ff199160018382541617905533815260138652604081208382528652604042912055600160076140ac84615893565b50019182541617905560066140c082615893565b50016140cc81546162f5565b905560066140d982615893565b50015460405191825233858301524260408301526060820152a160405160018152f35b60405162461bcd60e51b815260048101849052602160248201527f6e6f206d696e696e6720706f776572206c65667420666f7220746861742047456044820152604d60f81b6064820152608490fd5b60405162461bcd60e51b815260048101849052601c60248201527b726172697479206d757374206265206174206c65617374205241524560201b6044820152606490fd5b634e487b7160e01b82526021600452602482fd5b60405162461bcd60e51b815260048101849052602860248201527f47656d206973206c697374656420666f722073616c65206f7220616c7265616460448201526779206d696e696e6760c01b6064820152608490fd5b60405162461bcd60e51b815260048101849052602360248201527f47656d20636f6f6c646f776e20706572696f6420686173206e6f7420656c61706044820152621cd95960ea1b6064820152608490fd5b60405162461bcd60e51b815260048101849052600d60248201526c3737ba1033b2b69037bbb732b960991b6044820152606490fd5b50346105be5760203660031901126105be576004356001600160401b03811161078a576142b09036906004016157fd565b6142b933616635565b80156143a0575b6142c9906159f3565b60ff600c54168252600b6020526142e38160408420615f3d565b600d54600160401b811015613bb7576001810180600d5581101561438c57600d83526143329082907fd7b6990105719101dabeb77144f2a3385c8033acd3af97e9423a695e81ad1eb501615f3d565b7fd961fa20561746b8576d7b504b0bc57067c67db2ce13bd9866d451bec5985f4b614386600c549260ff61436781861661623f565b16809460ff191617600c55604051918291602083526020830190615628565b0390a280f35b634e487b7160e01b83526032600452602483fd5b506142c96143ac616600565b90506142c0565b50346105be57806003193601126105be576020602b54604051908152f35b50346105be57806003193601126105be5760206125966162a8565b50346105be5760203660031901126105be5761084e614409615668565b6144146107ef616600565b616435565b50346105be5760403660031901126105be576024356001600160401b03811161078a5761444d61084e9136906004016157fd565b6004356168f4565b50346105be5760203660031901126105be576004356001600160401b03811161078a576144869036906004016157fd565b61448f33616635565b801561455c575b61449f906159f3565b60ff60095416825260086020526144b98160408420615f3d565b600a54600160401b811015613bb7576001810180600a5581101561438c57600a83526145089082907fc65a7bb8d6351c1cf70c95a316cc6a92839c986682d98bc35f958f4883f9d2a801615f3d565b7fe4d2864ec291f6f11cb3363fa1bd2a4d5ff49a2cfdf4bf7dfe3b90a26b8c776f6143866009549260ff61453d81861661623f565b16809460ff191617600955604051918291602083526020830190615628565b5061449f614568616600565b9050614496565b50346105be57806003193601126105be576020602854604051908152f35b50346105be57806003193601126105be576020601754604051908152f35b50346105be5760803660031901126105be576004356001600160401b038082116137a957366023830112156137a95781600401356145e881615776565b926145f66040519485615755565b8184526024602085019260051b82010190368211613f7b57602401915b81831061522e575050506024359181831161205f573660238401121561205f5782600401359261464284615776565b936146506040519586615755565b8085526024602086019160061b8301019136831161522a57602401905b8282106151cd57505050604435828111610fdc5736602382011215610fdc5780600401359061469b82615776565b916146a96040519384615755565b8083526024602084019160071b83010191368311611b4c57602401905b82821061517457505050606435838111613f7b5736602382011215613f7b578060040135936146f485615776565b946147026040519687615755565b8086526024602087019160051b840101913683116135445760248401915b83831061514857505050505061474160018060a01b03603354163314615a34565b61475060ff60165416156159b4565b81518451809114908161513d575b5080615132575b156150de576147748251615a96565b928594869087918897895b87518110156150c8576147d46147c66147b88960ff60206147ae87836147a58287615ac8565b51511694615ac8565b5101511690615b15565b60ff60406147ae868d615ac8565b60ff60606147ae858c615ac8565b6147e66147e1838b615ac8565b615b29565b6006811015614c445715614fac575b6148026147e1838b615ac8565b6006811015614c4457600114614e90575b6148206147e1838b615ac8565b6006811015614c4457600214614d74575b61483e6147e1838b615ac8565b6006811015614c4457600314614c58575b61485c6147e1838b615ac8565b6006811015614c4457600414614b0b575b5061487b6147e1828a615ac8565b6006811015614af757600514614a57575b6149208b61489d6147e1848c615ac8565b886148a8858c615ac8565b516148b3868a615ac8565b51906148e66148cc886148c68b42615ee8565b95615ac8565b5194604051966148db886156ba565b875260208701615ef5565b6040850152606084015260808301528560a08301528c60c08301528d60e0830152876101008301526101208201528c610140820152616042565b60075480600019810111614a43578b919060001980820163ffffffff168203016137a957887f5ea0402f9a8785c25ad31fd3e0e81f8c2b4ca231668cc82cd03fa34ea1f0ce3c8989614a2b8a8f88614a0d81614a0681614a0060019f828f986149f0614a149a8f846149f59160406147e19861499f6000198701615893565b50600019870163ffffffff81169091558152600f602090815282822080546001600160a01b031916339081179091558252601090522080546149e090616172565b90556149f06000198501336166ef565b615ac8565b5190600019016168f4565b96615ac8565b5199615ac8565b5195615ac8565b518a8c6040519687966000198c019a3396896161d7565b0390a260001901614a3c828c615ac8565b520161477f565b634e487b7160e01b8c52601160045260248cfd5b809950600693945060ff9250614a6e915086615ac8565b5151161480614adc575b80614ac1575b80614aa1575b614a8d90615e8a565b602e549060285460225492601c549861488c565b50614a8d600660ff6060614ab58a88615ac8565b51015116149050614a84565b50600660ff6040614ad28987615ac8565b5101511614614a7e565b50600660ff6020614aed8987615ac8565b5101511614614a78565b634e487b7160e01b8c52602160045260248cfd5b909950614b509394506018925060ff9150600582614b298c8a615ac8565b515116148015614c28575b611f24908b81614be7575b81614ba6575b81614b655750615dd9565b602d549060275460215492601b54983861486d565b600591506060614b7686928c615ac8565b51015116148b8115614b8a575b508b611f1e565b600691506060614b9b86928c615ac8565b51015116148b614b83565b600591506040614bb786928c615ac8565b51015116148b8115614bcb575b508b614b45565b600691506040614bdc86928c615ac8565b51015116148b614bc4565b600591506020614bf886928c615ac8565b51015116148b8115614c0c575b508b614b3f565b600691506020614c1d86928c615ac8565b51015116148b614c05565b50611f24600683614c398d8b615ac8565b515116149050614b34565b634e487b7160e01b8d52602160045260248dfd5b995093505050600460ff614c6c8487615ac8565b515116148015614d5c575b80614d26575b80614cf0575b80614cb5575b614c9290615d2f565b614ca1601460ff891610615d90565b602c546026549060205493601a549961484f565b50600460ff6060614cc68588615ac8565b510151161480614c895750614c92600560ff6060614ce48689615ac8565b51015116149050614c89565b50600460ff6040614d018588615ac8565b510151161480614c835750600560ff6040614d1c8588615ac8565b5101511614614c83565b50600460ff6020614d378588615ac8565b510151161480614c7d5750600560ff6020614d528588615ac8565b5101511614614c7d565b50600560ff614d6b8487615ac8565b51511614614c77565b995093505050600360ff614d888487615ac8565b515116148015614e78575b80614e42575b80614e0c575b80614dd1575b614dae90615c86565b614dbd601060ff891610615ce9565b602b5460255490601f549360195499614831565b50600360ff6060614de28588615ac8565b510151161480614da55750614dae600460ff6060614e008689615ac8565b51015116149050614da5565b50600360ff6040614e1d8588615ac8565b510151161480614d9f5750600460ff6040614e388588615ac8565b5101511614614d9f565b50600360ff6020614e538588615ac8565b510151161480614d995750600460ff6020614e6e8588615ac8565b5101511614614d99565b50600460ff614e878487615ac8565b51511614614d93565b995093505050600260ff614ea48487615ac8565b515116148015614f94575b80614f5e575b80614f28575b80614eed575b614eca90615bdf565b614ed9600c60ff891610615c40565b602a5460245490601e549360185499614813565b50600260ff6060614efe8588615ac8565b510151161480614ec15750614eca600360ff6060614f1c8689615ac8565b51015116149050614ec1565b50600260ff6040614f398588615ac8565b510151161480614ebb5750600360ff6040614f548588615ac8565b5101511614614ebb565b50600260ff6020614f6f8588615ac8565b510151161480614eb55750600360ff6020614f8a8588615ac8565b5101511614614eb5565b50600360ff614fa38487615ac8565b51511614614eaf565b995093505050600160ff614fc08487615ac8565b5151161480156150b0575b8061507a575b80615044575b80615009575b614fe690615b36565b614ff5600860ff891610615b99565b60295460235490601d5493601754996147f5565b50600160ff606061501a8588615ac8565b510151161480614fdd5750614fe6600260ff60606150388689615ac8565b51015116149050614fdd565b50600160ff60406150558588615ac8565b510151161480614fd75750600260ff60406150708588615ac8565b5101511614614fd7565b50600160ff602061508b8588615ac8565b510151161480614fd15750600260ff60206150a68588615ac8565b5101511614614fd1565b50600260ff6150bf8487615ac8565b51511614614fcb565b604051602080825281906109349082018c61581b565b60405162461bcd60e51b815260206004820152602660248201527f496e70757420617272617973206d7573742068617665207468652073616d65206044820152650d8cadccee8d60d31b6064820152608490fd5b508051835114614765565b90508151143861475e565b8235828111615170576020916151658392602436918a01016157fd565b815201920191614720565b8a80fd5b36601f83011215611b4c5760405161518b81615704565b80608084013681116151705784915b8183106151b5575050508160209160809352019101906146c6565b602080916151c28561579d565b81520192019161519a565b36601f8301121561522a576040516151e48161573a565b80604084013681116152265784915b81831061520e5750505081602091604093520191019061466d565b6020809161521b8561579d565b8152019201916151f3565b8980fd5b8680fd5b8235600681101561522a57815260209283019201614613565b50346105be57806003193601126105be576020602454604051908152f35b50346105be5761527436615694565b9461528494919493929333616635565b80156152a9575b615294906159f3565b60235560245560255560265560275560285580f35b506152946152b5616600565b905061528b565b50346105be5760403660031901126105be576152d6615668565b6024356152e2816166b4565b3315158061538c575b80615361575b615349576001600160a01b039283169282918491167f8c5be1e5ebec7d5bd14f71427d1e84f3dd0314c0f7b2291e5b200ac8c7c3b9258680a4825260046020526040822080546001600160a01b031916909117905580f35b60405163a9fbf51f60e01b8152336004820152602490fd5b506001600160a01b038116845260056020908152604080862033875290915284205460ff16156152f1565b506001600160a01b0381163314156152eb565b50346105be57806003193601126105be57602060ff600c5416604051908152f35b50346105be5760203660031901126105be576020906004356153e1816166b4565b50815260048252604060018060a01b0391205416604051908152f35b50346105be57806003193601126105be57604051908082825491615420836158c8565b928383526020946001918660018216918260001461548b575050600114615450575b505061211892500383615755565b908592508180528282205b85831061547357505061211893508201013880615442565b8054838901850152879450869390920191810161545b565b925093505061211894915060ff191682840152151560051b8201013880615442565b50346105be57806003193601126105be576020602554604051908152f35b50346105be57806003193601126105be576154eb60ff60165416156159b4565b6034546001600160a01b0316801561554e5733825260056020526040822081835260205260408220600160ff19825416179055604051600181527f17307eab39ab6107e8899845ad3d59bd9653f200f220920489ca2b5937696c3160203392a380f35b60249060405190630b61174360e31b82526004820152fd5b50346105be57806003193601126105be57602060ff60095416604051908152f35b90503461078a57602036600319011261078a5760043563ffffffff60e01b81168091036137a95760209250637965db0b60e01b81149081156155cb575b5015158152f35b632483248360e11b8114915081156155e5575b50386155c4565b6380ac58cd60e01b811491508115615617575b8115615606575b50386155de565b6301ffc9a760e01b149050386155ff565b635b5e139f60e01b811491506155f8565b919082519283825260005b848110615654575050826000602080949584010152601f8019910116010190565b602081830181015184830182015201615633565b600435906001600160a01b0382168203610edc57565b602435906001600160a01b0382168203610edc57565b60c0906003190112610edc57600435906024359060443590606435906084359060a43590565b61016081019081106001600160401b03821117611bce57604052565b6001600160401b038111611bce57604052565b60c081019081106001600160401b03821117611bce57604052565b608081019081106001600160401b03821117611bce57604052565b602081019081106001600160401b03821117611bce57604052565b604081019081106001600160401b03821117611bce57604052565b90601f801991011681019081106001600160401b03821117611bce57604052565b6001600160401b038111611bce5760051b60200190565b6004359060ff82168203610edc57565b359060ff82168203610edc57565b6001600160401b038111611bce57601f01601f191660200190565b9291926157d2826157ab565b916157e06040519384615755565b829481845281830111610edc578281602093846000960137010152565b9080601f83011215610edc57816020615818933591016157c6565b90565b90815180825260208080930193019160005b82811061583b575050505090565b83518552938101939281019260010161582d565b6060906003190112610edc576001600160a01b03906004358281168103610edc57916024359081168103610edc579060443590565b602435908115158203610edc57565b6007548110156158b2576007600052600b602060002091020190600090565b634e487b7160e01b600052603260045260246000fd5b90600182811c921680156158f8575b60208310146158e257565b634e487b7160e01b600052602260045260246000fd5b91607f16916158d7565b90604051918260008254615915816158c8565b908184526020946001916001811690816000146159855750600114615946575b50505061594492500383615755565b565b600090815285812095935091905b81831061596d5750506159449350820101388080615935565b85548884018501529485019487945091830191615954565b9250505061594494925060ff191682840152151560051b820101388080615935565b906006821015611ba25752565b156159bb57565b60405162461bcd60e51b815260206004820152601060248201526f14185d5cd8589b194e881c185d5cd95960821b6044820152606490fd5b156159fa57565b60405162461bcd60e51b81526020600482015260126024820152713737ba1027bbb732b91037b91020b236b4b760711b6044820152606490fd5b15615a3b57565b60405162461bcd60e51b815260206004820152602d60248201527f66756e6374696f6e2063616c6c61626c652066726f6d2074726561737572792060448201526c636f6e7472616374206f6e6c7960981b6064820152608490fd5b90615aa082615776565b615aad6040519182615755565b8281528092615abe601f1991615776565b0190602036910137565b80518210156158b25760209160051b010190565b9060048110156158b25760051b0190565b60ff60019116019060ff8211615aff57565b634e487b7160e01b600052601160045260246000fd5b9060ff8091169116019060ff8211615aff57565b516006811015611ba25790565b15615b3d57565b60405162461bcd60e51b815260206004820152602e60248201527f416c6c207175616472616e7473206d7573742062652031206f72203220666f7260448201526d20434f4d4d4f4e2072617269747960901b6064820152608490fd5b15615ba057565b60405162461bcd60e51b8152602060048201526017602482015276191919191034b9902920a922903737ba1021a7a6a6a7a760491b6044820152606490fd5b15615be657565b60405162461bcd60e51b815260206004820152602c60248201527f416c6c207175616472616e7473206d7573742062652032206f72203320666f7260448201526b20524152452072617269747960a01b6064820152608490fd5b15615c4757565b60405162461bcd60e51b81526020600482015260176024820152763333333320697320554e49515545206e6f74205241524560481b6044820152606490fd5b15615c8d57565b60405162461bcd60e51b815260206004820152602e60248201527f416c6c207175616472616e7473206d7573742062652033206f72203420666f7260448201526d20554e495155452072617269747960901b6064820152608490fd5b15615cf057565b60405162461bcd60e51b8152602060048201526017602482015276343434342069732045504943206e6f7420554e4951554560481b6044820152606490fd5b15615d3657565b60405162461bcd60e51b815260206004820152602c60248201527f416c6c207175616472616e7473206d7573742062652034206f72203520666f7260448201526b20455049432072617269747960a01b6064820152608490fd5b15615d9757565b60405162461bcd60e51b815260206004820152601a60248201527935353535206973204c4547454e44415259206e6f74204550494360301b6044820152606490fd5b15615de057565b60405162461bcd60e51b815260206004820152603160248201527f416c6c207175616472616e7473206d7573742062652035206f72203620666f72604482015270204c4547454e444152592072617269747960781b6064820152608490fd5b15615e4657565b60405162461bcd60e51b815260206004820152601c60248201527b36363636206973204d5954484943206e6f74204c4547454e4441525960201b6044820152606490fd5b15615e9157565b60405162461bcd60e51b815260206004820152602960248201527f416c6c207175616472616e7473206d757374206265203620666f72204d59544860448201526849432072617269747960b81b6064820152608490fd5b91908201809211615aff57565b6006821015611ba25752565b818110615f0c575050565b60008155600101615f01565b9060ff809160031b9316831b921b19161790565b9060ff801983541691151516179055565b91909182516001600160401b038111611bce57615f5a82546158c8565b601f8111616005575b50602080601f8311600114615fa0575081929394600092615f95575b50508160011b916000199060031b1c1916179055565b015190503880615f7f565b90601f19831695846000526020600020926000905b888210615fed57505083600195969710615fd4575b505050811b019055565b015160001960f88460031b161c19169055388080615fca565b80600185968294968601518155019501930190615fb5565b61603290836000526020600020601f840160051c81019160208510616038575b601f0160051c0190615f01565b38615f63565b9091508190616025565b60075490600160401b821015611bce5761606460019260018101600755615893565b929092611bb857815183556001830190602080840151926006841015611ba25760ff9291921981541660ff8095161790556002604085015160009060005b6004811061614f57505060028701556060850151926000946000905b83821061612c57505050505050600a916101409160038501556080810151600485015560a0810151600585015560c0810151600685015561610860e0820151151560078601615f2c565b610100810151600885015561612561012082015160098601615f3d565b0151910155565b909192938361614287988585859a511691615f18565b97019594939201906160be565b9091938561616582979596848a87511691615f18565b93019101949392946160a2565b6000198114615aff5760010190565b6000915b6002831061619257505050565b60019060ff83511681526020809101920192019190616185565b6000915b600483106161bd57505050565b60019060ff835116815260208091019201920191906161b0565b96936162149061622f96929461620561016099959c9b9c6161fb8c610180996159a7565b60208c0190616181565b60608a015260808901906161ac565b61010087015261012086015280610140860152840190615628565b6001600160a01b03909416910152565b60ff1660ff8114615aff5760010190565b1561625757565b60405162461bcd60e51b8152602060048201526024808201527f41757468436f6e74726f6c3a2043616c6c6572206973206e6f7420746865206f6044820152633bb732b960e11b6064820152608490fd5b6007546000198101908111615aff5790565b156162c157565b60405162461bcd60e51b815260206004820152600c60248201526b7a65726f206164647265737360a01b6044820152606490fd5b8015615aff576000190190565b6001600160a01b03918216815291166020820152604081019190915260600190565b1561632b57565b60405162461bcd60e51b815260206004820152601260248201527147656d73206973206e6f74206d696e696e6760701b6044820152606490fd5b90816020910312610edc57518015158103610edc5790565b6001600160a01b039091168152602081019190915260400190565b1561639f57565b60405162461bcd60e51b81526020600482015260186024820152773330b4b632b2103a37903a3930b739b332b9103a37b5b2b760411b6044820152606490fd5b156163e657565b60405162461bcd60e51b815260206004820152602160248201527f77726f6e67206e756d626572206f662047656d7320746f20626520666f7267656044820152601960fa1b6064820152608490fd5b336001600160a01b038216036127d45761644e9061728f565b50565b1561645857565b60405162461bcd60e51b815260206004820152602360248201527f41757468436f6e74726f6c3a2043616c6c6572206973206e6f7420612070617560448201526239b2b960e91b6064820152608490fd5b156164b057565b60405162461bcd60e51b815260206004820152600d60248201526c3737ba1023a2a69037bbb732b960991b6044820152606490fd5b156164ec57565b60405162461bcd60e51b815260206004820152601b60248201527a75736572206973206e6f74206d696e696e6720746869732047656d60281b6044820152606490fd5b9081526001600160a01b03909116602082015260400190565b60018060a01b0380911660009181835260209160106020526040906040852054801560001461658c575050505050604051906165838261571f565b80825236813790565b61659b90969592939496615a96565b936165a46162a8565b938360015b868111156165bd5750959750505050505050565b808252600f8a5284848484205416146165df575b6165da90616172565b6165a9565b946165f881876165f26165da948c615ac8565b52616172565b9590506165d1565b3360009081527f619fcd35f40c77da8aa64d5f98c1fed669135ecc4f245ce6667721b157f7098f602052604090205460ff1690565b6001600160a01b031660009081526000805160206177e8833981519152602052604090205460ff1690565b9060ff60405192548181168452818160081c166020850152818160101c16604085015260181c16606083015261594482615704565b9060ff6040519254818116845260081c1660208301526159448261573a565b6000818152600260205260409020546001600160a01b03169081156166d7575090565b60249060405190637e27328960e01b82526004820152fd5b60408051926166fd8461571f565b60008085526001600160a01b03948486169491929185156168dc57828452602096600288528585205416838782151592836168bc575b81885260038b528888208054600101905582885260028b5288882080546001600160a01b031916831790556000805160206178088339815191528880a46168a4573b616782575b505050505050565b856167c0918596979894955180938192630a85bd0160e11b968784523360048501528960248501526044840152608060648401526084830190615628565b0381878a5af1849181616864575b5061682d575050503d600014616825573d6167e8816157ab565b906167f584519283615755565b81528091853d92013e5b8051938461681f578251633250574960e11b815260048101859052602490fd5b84925001fd5b5060606167ff565b919550915063ffffffff60e01b160361684d57505038808080808061677a565b602492505190633250574960e11b82526004820152fd5b9091508781813d831161689d575b61687c8183615755565b81010312610fdc57516001600160e01b031981168103610fdc5790386167ce565b503d616872565b84516339e3563760e11b815260048101859052602490fd5b6168c583617769565b80885260038b528888208054600019019055616733565b8451633250574960e11b815260048101859052602490fd5b906001600160a01b03616906836166b4565b163314801561699c575b15616958578161694f6020927ff8e1a15aba9398e019f0b49df1a4fde98ee17ae345cb5f6b5e2c27f5033e8ce794600052600684526040600020615f3d565b604051908152a1565b60405162461bcd60e51b815260206004820152601c60248201527b6e6f7420616c6c6f77656420746f2073657420746f6b656e2055524960201b6044820152606490fd5b503360009081526000805160206177e8833981519152602052604090205460ff161515600114616910565b80600052603960205260406000203360005260205260ff60406000205416156169ed5750565b6044906040519063e2517d3f60e01b82523360048301526024820152fd5b6001600160a01b031660008181526000805160206177e883398151915260205260408120549091906000805160206177c88339815191529060ff16616a835780835260396020526040832082845260205260408320600160ff19825416179055600080516020617788833981519152339380a4600190565b505090565b6001600160a01b031660008181527f88360b3aa8e0010357cf320d5247dfcce92fae5ff69af7cc9aedd6dc4338486160205260408120549091906000805160206177a88339815191529060ff16616a835780835260396020526040832082845260205260408320600160ff19825416179055600080516020617788833981519152339380a4600190565b906000918083526039602052604083209160018060a01b03169182845260205260ff60408420541615600014616a835780835260396020526040832082845260205260408320600160ff19825416179055600080516020617788833981519152339380a4600190565b600094939190818114617180576003616b96616b9d92615893565b5001616695565b9260ff90616bba6003616b96846020818a51169901511695615893565b94826020818851169701511691848214808091617177575b8061716e575b61714857808061713f575b616e79578015908180617136575b80617124575b80156170fa575b6170a357819081617099575b8161707d575b811561704a575b50616f32578080616f28575b80616efd575b616ed9578080616ecf575b80616e9d575b616dcd575b80616dc3575b80616db9575b80616daf575b80616da5575b80616d9b575b616c6a5750505050505050565b83949596979850929091921690808214968780616d8f575b8815616d74575b508715616d58575b8715616d3c575b8715616d20575b8715616d03575b508615616ce2575b508515616cbe575b505050505090565b149350909183616cd6575b5050503880808080616cb6565b16149050388080616cc9565b9095508186149081616cf7575b509438616cae565b90508285161438616cef565b909650811480616d15575b9538616ca6565b508383861614616d0e565b809750821480616d31575b96616c9f565b508084871614616d2b565b965084821480616d4d575b96616c98565b508284871614616d47565b965084821480616d69575b96616c91565b508684871614616d63565b90975080616d84575b9638616c89565b508284871614616d7d565b87861682149850616c82565b5082851415616c5d565b5082821415616c57565b5086851415616c51565b5086821415616c4b565b5082871415616c45565b9890929691828114600014616e0c575050508192939495965016938285149485616e00575b8515616cbe57505050505090565b84831682149550616df2565b91969091808203616e3a575050508192939495965016938285149485616e00578515616cbe57505050505090565b9490969198828214600014616e6c575050508192939495965016938285149485616e00578515616cbe57505050505090565b8782969398949203616c3f575b509150939495965081925016938285149485616e00578515616cbe57505050505090565b508783148015616ec6575b8015616ebd575b80616c3a5750838614616c3a565b50878614616eaf565b50838314616ea8565b5083881415616c34565b509150939450819295965016938285149485616e00578515616cbe57505050505090565b5087831480616f1f575b80616c2957508383148015616c295750878614616c29565b50838614616f07565b5083881415616c23565b909291979850959495600014616fd357508116938585149586616fc7575b8615616fab575b8615616f8e575b508515616f6d57505050505090565b161492509082616f84575b50503880808080616cb6565b1490503880616f78565b9095508186161480616fa2575b9438616f5e565b50828414616f9b565b955082851480616fbc575b95616f57565b508382821614616fb6565b81831685149650616f50565b9395925081169382851495868061703e575b8715617023575b50861561700257508515616f6d57505050505090565b90955082828716149081617019575b509438616f5e565b9050841438617011565b90965080617033575b9538616fec565b50838282161461702c565b82841682149750616fe5565b905080617073575b8061705e575b38616c17565b50878314158015617058575083831415617058565b5083881415617052565b9050888414158061708f575b90616c10565b5088871415617089565b8986149150616c0a565b50849791939295969899506000146170dd575050169281841494856170d1575b8515616f6d57505050505090565b818116841495506170c3565b93509350169281841494856170d1578515616f6d57505050505090565b50808061711a575b8015616bfe575083891480616bfe5750838514616bfe565b5084891415617102565b5088841480616bf75750888714616bf7565b50848914616bf1565b50838814616be3565b509150929450819395965016149283617162575b50505090565b1614905038808061715c565b50878314616bd8565b50838814616bd2565b5060009450505050565b6001600160a01b031660008181527f88360b3aa8e0010357cf320d5247dfcce92fae5ff69af7cc9aedd6dc4338486160205260408120549091906000805160206177a88339815191529060ff1615616a83578083526039602052604083208284526020526040832060ff198154169055600080516020617828833981519152339380a4600190565b6001600160a01b031660008181527f619fcd35f40c77da8aa64d5f98c1fed669135ecc4f245ce6667721b157f7098f602052604081205490919060ff161561728b578180526039602052604082208183526020526040822060ff19815416905533916000805160206178288339815191528180a4600190565b5090565b6001600160a01b031660008181526000805160206177e883398151915260205260408120549091906000805160206177c88339815191529060ff1615616a83578083526039602052604083208284526020526040832060ff198154169055600080516020617828833981519152339380a4600190565b906000918083526039602052604083209160018060a01b03169182845260205260ff604084205416600014616a83578083526039602052604083208284526020526040832060ff198154169055600080516020617828833981519152339380a4600190565b6006811015611ba25780156173f857600181146173f157600281146173ea57600381146173e357600481146173dc576005146173d65760405162461bcd60e51b815260206004820152600e60248201526d496e76616c69642072617269747960901b6044820152606490fd5b602e5490565b50602d5490565b50602c5490565b50602b5490565b50602a5490565b5060295490565b6001600160a01b0390828216801515908161745f575b50156174215750505050565b1661743f57604051637e27328960e01b815260048101839052602490fd5b61745b60405192839263177e802f60e01b84526004840161637d565b0390fd5b82841680821492508215617497575b50811561747d575b5038617415565b905084600052600460205282604060002054161438617476565b909150600052600560205260406000208160005260205260ff60406000205416903861746e565b813b6174cb575b50505050565b604051630a85bd0160e11b8082523360048301526001600160a01b03928316602483015260448201949094526080606482015260209592909116939092908390617519906084830190615628565b039285816000958187895af18491816175c2575b5061758d575050503d600014617585573d617547816157ab565b906175556040519283615755565b81528091843d92013e5b8051928361758057604051633250574960e11b815260048101849052602490fd5b019050fd5b50606061755f565b919450915063ffffffff60e01b16036175aa5750388080806174c5565b60249060405190633250574960e11b82526004820152fd5b9091508681813d83116175fb575b6175da8183615755565b81010312610fdc57516001600160e01b031981168103610fdc57903861752d565b503d6175d0565b61760b82615893565b919091611bb857600a91600092818480935582600182015582600382016176358160028501615f01565b617643600484018092615f01565b55826005820155826006820155826007820155826008820155826009820161766b81546158c8565b8061772c575b505050015560018060a01b03809116825260106020528260409283812061769881546162f5565b9055818152600f6020528381209260018060a01b03199384815416905560026020528482205416801593841561770b575b83835260026020528583209081541690556000805160206178088339815191528280a46176f4575050565b602492505190637e27328960e01b82526004820152fd5b61771484617769565b818352600360205285832080546000190190556176c9565b82601f8211600114617744575050555b823880617671565b9091808252617762601f60208420940160051c840160018501615f01565b555561773c565b600090815260046020526040902080546001600160a01b031916905556fe2f8788117e7eff1d82e926ec794901d17c78024a50270940304540a733656f0dfcb9fcbfa83b897fb2d5cf4b58962164105c1e71489a37ef3ae0db3fdce576f6df8b4c520ffe197c5343c6f5aec59570151ef9a492f2c624fd45ddde6135ec42732f2b376ed2f601db102e4f6c923f550b170b528f99ffbce6f2c7e1f8dbe998ddf252ad1be2c89b69c2b068fc378daa952ba7f163c4a11628f55a4df523b3eff6391f5c32d9c69d2a47ea670b442974b53935d1edc7fd64eb21e047a839171ba2646970667358221220ab7557d187e30a1f68d5542a500892efead3d40836bcd5c3a6ba01f956f0085264736f6c63430008190033",
  "linkReferences": {},
  "deployedLinkReferences": {}
}