{
  "_format": "hh-sol-artifact-1",
  "contractName": "MockTON",
  "sourceName": "src/L2/Mock/MockTON.sol",
  "abi": [
    {
      "inputs": [
        {
          "internalType": "address",
          "name": "_l2Bridge",
          "type": "address"
        },
        {
          "internalType": "address",
          "name": "_l1Token",
          "type": "address"
        },
        {
          "internalType": "string",
          "name": "_name",
          "type": "string"
        },
        {
          "internalType": "string",
          "name": "_symbol",
          "type": "string"
        }
      ],
      "stateMutability": "nonpayable",
      "type": "constructor"
    },
    {
      "inputs": [
        {
          "internalType": "address",
          "name": "spender",
          "type": "address"
        },
        {
          "internalType": "uint256",
          "name": "allowance",
          "type": "uint256"
        },
        {
          "internalType": "uint256",
          "name": "needed",
          "type": "uint256"
        }
      ],
      "name": "ERC20InsufficientAllowance",
      "type": "error"
    },
    {
      "inputs": [
        {
          "internalType": "address",
          "name": "sender",
          "type": "address"
        },
        {
          "internalType": "uint256",
          "name": "balance",
          "type": "uint256"
        },
        {
          "internalType": "uint256",
          "name": "needed",
          "type": "uint256"
        }
      ],
      "name": "ERC20InsufficientBalance",
      "type": "error"
    },
    {
      "inputs": [
        {
          "internalType": "address",
          "name": "approver",
          "type": "address"
        }
      ],
      "name": "ERC20InvalidApprover",
      "type": "error"
    },
    {
      "inputs": [
        {
          "internalType": "address",
          "name": "receiver",
          "type": "address"
        }
      ],
      "name": "ERC20InvalidReceiver",
      "type": "error"
    },
    {
      "inputs": [
        {
          "internalType": "address",
          "name": "sender",
          "type": "address"
        }
      ],
      "name": "ERC20InvalidSender",
      "type": "error"
    },
    {
      "inputs": [
        {
          "internalType": "address",
          "name": "spender",
          "type": "address"
        }
      ],
      "name": "ERC20InvalidSpender",
      "type": "error"
    },
    {
      "anonymous": false,
      "inputs": [
        {
          "indexed": true,
          "internalType": "address",
          "name": "owner",
          "type": "address"
        },
        {
          "indexed": true,
          "internalType": "address",
          "name": "spender",
          "type": "address"
        },
        {
          "indexed": false,
          "internalType": "uint256",
          "name": "value",
          "type": "uint256"
        }
      ],
      "name": "Approval",
      "type": "event"
    },
    {
      "anonymous": false,
      "inputs": [
        {
          "indexed": true,
          "internalType": "address",
          "name": "_account",
          "type": "address"
        },
        {
          "indexed": false,
          "internalType": "uint256",
          "name": "_amount",
          "type": "uint256"
        }
      ],
      "name": "Burn",
      "type": "event"
    },
    {
      "anonymous": false,
      "inputs": [
        {
          "indexed": true,
          "internalType": "address",
          "name": "_account",
          "type": "address"
        },
        {
          "indexed": false,
          "internalType": "uint256",
          "name": "_amount",
          "type": "uint256"
        }
      ],
      "name": "Mint",
      "type": "event"
    },
    {
      "anonymous": false,
      "inputs": [
        {
          "indexed": true,
          "internalType": "address",
          "name": "from",
          "type": "address"
        },
        {
          "indexed": true,
          "internalType": "address",
          "name": "to",
          "type": "address"
        },
        {
          "indexed": false,
          "internalType": "uint256",
          "name": "value",
          "type": "uint256"
        }
      ],
      "name": "Transfer",
      "type": "event"
    },
    {
      "inputs": [
        {
          "internalType": "address",
          "name": "owner",
          "type": "address"
        },
        {
          "internalType": "address",
          "name": "spender",
          "type": "address"
        }
      ],
      "name": "allowance",
      "outputs": [
        {
          "internalType": "uint256",
          "name": "",
          "type": "uint256"
        }
      ],
      "stateMutability": "view",
      "type": "function"
    },
    {
      "inputs": [
        {
          "internalType": "address",
          "name": "spender",
          "type": "address"
        },
        {
          "internalType": "uint256",
          "name": "value",
          "type": "uint256"
        }
      ],
      "name": "approve",
      "outputs": [
        {
          "internalType": "bool",
          "name": "",
          "type": "bool"
        }
      ],
      "stateMutability": "nonpayable",
      "type": "function"
    },
    {
      "inputs": [
        {
          "internalType": "address",
          "name": "account",
          "type": "address"
        }
      ],
      "name": "balanceOf",
      "outputs": [
        {
          "internalType": "uint256",
          "name": "",
          "type": "uint256"
        }
      ],
      "stateMutability": "view",
      "type": "function"
    },
    {
      "inputs": [
        {
          "internalType": "address",
          "name": "_from",
          "type": "address"
        },
        {
          "internalType": "uint256",
          "name": "_amount",
          "type": "uint256"
        }
      ],
      "name": "burn",
      "outputs": [],
      "stateMutability": "nonpayable",
      "type": "function"
    },
    {
      "inputs": [],
      "name": "decimals",
      "outputs": [
        {
          "internalType": "uint8",
          "name": "",
          "type": "uint8"
        }
      ],
      "stateMutability": "pure",
      "type": "function"
    },
    {
      "inputs": [],
      "name": "l1Token",
      "outputs": [
        {
          "internalType": "address",
          "name": "",
          "type": "address"
        }
      ],
      "stateMutability": "view",
      "type": "function"
    },
    {
      "inputs": [],
      "name": "l2Bridge",
      "outputs": [
        {
          "internalType": "address",
          "name": "",
          "type": "address"
        }
      ],
      "stateMutability": "view",
      "type": "function"
    },
    {
      "inputs": [
        {
          "internalType": "address",
          "name": "_to",
          "type": "address"
        },
        {
          "internalType": "uint256",
          "name": "_amount",
          "type": "uint256"
        }
      ],
      "name": "mint",
      "outputs": [],
      "stateMutability": "nonpayable",
      "type": "function"
    },
    {
      "inputs": [],
      "name": "name",
      "outputs": [
        {
          "internalType": "string",
          "name": "",
          "type": "string"
        }
      ],
      "stateMutability": "view",
      "type": "function"
    },
    {
      "inputs": [
        {
          "internalType": "bytes4",
          "name": "_interfaceId",
          "type": "bytes4"
        }
      ],
      "name": "supportsInterface",
      "outputs": [
        {
          "internalType": "bool",
          "name": "",
          "type": "bool"
        }
      ],
      "stateMutability": "pure",
      "type": "function"
    },
    {
      "inputs": [],
      "name": "symbol",
      "outputs": [
        {
          "internalType": "string",
          "name": "",
          "type": "string"
        }
      ],
      "stateMutability": "view",
      "type": "function"
    },
    {
      "inputs": [],
      "name": "totalSupply",
      "outputs": [
        {
          "internalType": "uint256",
          "name": "",
          "type": "uint256"
        }
      ],
      "stateMutability": "view",
      "type": "function"
    },
    {
      "inputs": [
        {
          "internalType": "address",
          "name": "to",
          "type": "address"
        },
        {
          "internalType": "uint256",
          "name": "value",
          "type": "uint256"
        }
      ],
      "name": "transfer",
      "outputs": [
        {
          "internalType": "bool",
          "name": "",
          "type": "bool"
        }
      ],
      "stateMutability": "nonpayable",
      "type": "function"
    },
    {
      "inputs": [
        {
          "internalType": "address",
          "name": "from",
          "type": "address"
        },
        {
          "internalType": "address",
          "name": "to",
          "type": "address"
        },
        {
          "internalType": "uint256",
          "name": "value",
          "type": "uint256"
        }
      ],
      "name": "transferFrom",
      "outputs": [
        {
          "internalType": "bool",
          "name": "",
          "type": "bool"
        }
      ],
      "stateMutability": "nonpayable",
      "type": "function"
    }
  ],
  "bytecode": "0x60806040523461033357610d268038038061001981610338565b9283398101608082820312610333576100318261035d565b9060209061004082850161035d565b604085015190946001600160401b03918281116103335783610063918301610371565b9260608201518381116103335761007a9201610371565b825182811161023f576003918254916001958684811c94168015610329575b88851014610313578190601f948581116102c2575b50889085831160011461026057600092610255575b505060001982861b1c191690861b1783555b805193841161023f5760049586548681811c91168015610235575b82821014610220578381116101da575b50809285116001146101715750938394918492600095610166575b50501b92600019911b1c19161790555b600580546001600160a01b039384166001600160a01b0319918216179091556006805492909316911617905560405161094990816103dd8239f35b01519350388061011b565b92919084601f1981168860005285600020956000905b898383106101c057505050106101a6575b50505050811b01905561012b565b01519060f884600019921b161c1916905538808080610198565b858701518955909701969485019488935090810190610187565b87600052816000208480880160051c820192848910610217575b0160051c019087905b82811061020b575050610100565b600081550187906101fd565b925081926101f4565b602288634e487b7160e01b6000525260246000fd5b90607f16906100f0565b634e487b7160e01b600052604160045260246000fd5b0151905038806100c3565b90889350601f19831691876000528a6000209260005b8c8282106102ac5750508411610294575b505050811b0183556100d5565b015160001983881b60f8161c19169055388080610287565b8385015186558c97909501949384019301610276565b90915085600052886000208580850160051c8201928b861061030a575b918a91869594930160051c01915b8281106102fb5750506100ae565b600081558594508a91016102ed565b925081926102df565b634e487b7160e01b600052602260045260246000fd5b93607f1693610099565b600080fd5b6040519190601f01601f191682016001600160401b0381118382101761023f57604052565b51906001600160a01b038216820361033357565b919080601f840112156103335782516001600160401b03811161023f576020906103a3601f8201601f19168301610338565b928184528282870101116103335760005b8181106103c957508260009394955001015290565b85810183015184820184015282016103b456fe608060408181526004918236101561001657600080fd5b600092833560e01c91826301ffc9a7146107065750816306fdde0314610648578163095ea7b31461059e57816318160ddd1461057f57816323b872dd14610496578163313ce5671461047a57816340c10f19146103aa57816370a082311461037357816395d89b41146102705781639dc29fac1461018a57508063a9059cbb1461015a578063ae1f6aaf14610132578063c01e1bd61461010a5763dd62ed3e146100bf57600080fd5b34610106578060031936011261010657806020926100db6107a2565b6100e36107bd565b6001600160a01b0391821683526001865283832091168252845220549051908152f35b5080fd5b503461010657816003193601126101065760055490516001600160a01b039091168152602090f35b503461010657816003193601126101065760065490516001600160a01b039091168152602090f35b50346101065780600319360112610106576020906101836101796107a2565b602435903361083c565b5160018152f35b90503461026c578160031936011261026c576101a46107a2565b916024359160018060a01b036101bf816006541633146107d3565b84169384156102565784865285602052828620549184831061023757505091602091817fcc16f5dbb4873280815c1ee09dbd06736cffcc184412cf7a71a0fdb75d397ca5948688528785520381872055816002540360025585856000805160206108f4833981519152858451868152a351908152a280f35b6102528584865194859463391434e360e21b8652850161081e565b0390fd5b50846024925191634b637e8f60e11b8352820152fd5b8280fd5b83833461010657816003193601126101065780519082845460018160011c9060018316928315610369575b60209384841081146103565783885290811561033a5750600114610302575b505050829003601f01601f19168201926001600160401b038411838510176102ef57508291826102eb925282610759565b0390f35b634e487b7160e01b815260418552602490fd5b919250868652828620918387935b83851061032657505050508301018580806102ba565b805488860183015293019284908201610310565b60ff1916878501525050151560051b84010190508580806102ba565b634e487b7160e01b895260228a52602489fd5b91607f169161029b565b5050346101065760203660031901126101065760209181906001600160a01b0361039b6107a2565b16815280845220549051908152f35b9190503461026c578060031936011261026c576103c56107a2565b60065460243592916001600160a01b03916103e390831633146107d3565b1692831561046557600254908382018092116104525750916020917f0f6798a560793a54c3bcfe86a93cde1e73087d944c0ea20544137d41213968859360025584865285835280862082815401905584866000805160206108f4833981519152858451868152a351908152a280f35b634e487b7160e01b865260119052602485fd5b84602492519163ec442f0560e01b8352820152fd5b5050346101065781600319360112610106576020905160128152f35b9050823461057c57606036600319011261057c576104b26107a2565b6104ba6107bd565b916044359360018060a01b0383168083526001602052868320338452602052868320549160001983036104f6575b60208861018389898961083c565b86831061055e57811561054757331561053057508252600160209081528683203384528152918690209085900390558290610183876104e8565b8751634a1406b160e11b8152908101849052602490fd5b875163e602df0560e01b8152908101849052602490fd5b9050610252868851938493637dc7a0d960e11b85523390850161081e565b80fd5b5050346101065781600319360112610106576020906002549051908152f35b90503461026c578160031936011261026c576105b86107a2565b602435903315610631576001600160a01b031691821561061a57508083602095338152600187528181208582528752205582519081527f8c5be1e5ebec7d5bd14f71427d1e84f3dd0314c0f7b2291e5b200ac8c7c3b925843392a35160018152f35b8351634a1406b160e11b8152908101859052602490fd5b835163e602df0560e01b8152808401869052602490fd5b8383346101065781600319360112610106578051908260035460018160011c90600183169283156106fc575b60209384841081146103565783885290811561033a57506001146106c357505050829003601f01601f19168201926001600160401b038411838510176102ef57508291826102eb925282610759565b91925060038652828620918387935b8385106106e857505050508301018580806102ba565b8054888601830152930192849082016106d2565b91607f1691610674565b84913461026c57602036600319011261026c573563ffffffff60e01b811680910361026c57602092506301ffc9a760e01b8114908115610748575b5015158152f35b631d1d8b6360e01b14905083610741565b6020808252825181830181905290939260005b82811061078e57505060409293506000838284010152601f8019910116010190565b81810186015184820160400152850161076c565b600435906001600160a01b03821682036107b857565b600080fd5b602435906001600160a01b03821682036107b857565b156107da57565b606460405162461bcd60e51b815260206004820152602060248201527f4f6e6c79204c32204272696467652063616e206d696e7420616e64206275726e6044820152fd5b604091949392606082019560018060a01b0316825260208201520152565b916001600160a01b038084169283156108da57169283156108c157600090838252816020526040822054908382106108a4575091604082826000805160206108f4833981519152958760209652828652038282205586815220818154019055604051908152a3565b6102528460405193849363391434e360e21b85526004850161081e565b60405163ec442f0560e01b815260006004820152602490fd5b604051634b637e8f60e11b815260006004820152602490fdfeddf252ad1be2c89b69c2b068fc378daa952ba7f163c4a11628f55a4df523b3efa2646970667358221220ecc44086abe412aea17b5a392b5e7b2d89c15a16fad9d31463859988e6dab51964736f6c63430008190033",
  "linkReferences": {},
  "deployedLinkReferences": {}
}