{
  "_format": "hh-sol-artifact-1",
  "contractName": "SeigToken",
  "sourceName": "src/L1/Mock/token/SeigToken.sol",
  "abi": [
    {
      "inputs": [],
      "stateMutability": "nonpayable",
      "type": "constructor"
    },
    {
      "inputs": [
        {
          "internalType": "address",
          "name": "owner",
          "type": "address"
        }
      ],
      "name": "OwnableInvalidOwner",
      "type": "error"
    },
    {
      "inputs": [
        {
          "internalType": "address",
          "name": "account",
          "type": "address"
        }
      ],
      "name": "OwnableUnauthorizedAccount",
      "type": "error"
    },
    {
      "anonymous": false,
      "inputs": [
        {
          "indexed": true,
          "internalType": "address",
          "name": "previousOwner",
          "type": "address"
        },
        {
          "indexed": true,
          "internalType": "address",
          "name": "newOwner",
          "type": "address"
        }
      ],
      "name": "OwnershipTransferred",
      "type": "event"
    },
    {
      "inputs": [
        {
          "internalType": "address",
          "name": "spender",
          "type": "address"
        },
        {
          "internalType": "uint256",
          "name": "amount",
          "type": "uint256"
        },
        {
          "internalType": "bytes",
          "name": "data",
          "type": "bytes"
        }
      ],
      "name": "approveAndCall",
      "outputs": [
        {
          "internalType": "bool",
          "name": "",
          "type": "bool"
        }
      ],
      "stateMutability": "nonpayable",
      "type": "function"
    },
    {
      "inputs": [],
      "name": "callbackEnabled",
      "outputs": [
        {
          "internalType": "bool",
          "name": "",
          "type": "bool"
        }
      ],
      "stateMutability": "view",
      "type": "function"
    },
    {
      "inputs": [
        {
          "internalType": "bool",
          "name": "_callbackEnabled",
          "type": "bool"
        }
      ],
      "name": "enableCallback",
      "outputs": [],
      "stateMutability": "nonpayable",
      "type": "function"
    },
    {
      "inputs": [],
      "name": "owner",
      "outputs": [
        {
          "internalType": "address",
          "name": "",
          "type": "address"
        }
      ],
      "stateMutability": "view",
      "type": "function"
    },
    {
      "inputs": [],
      "name": "renounceOwnership",
      "outputs": [],
      "stateMutability": "nonpayable",
      "type": "function"
    },
    {
      "inputs": [],
      "name": "seigManager",
      "outputs": [
        {
          "internalType": "contract ISeigManager",
          "name": "",
          "type": "address"
        }
      ],
      "stateMutability": "view",
      "type": "function"
    },
    {
      "inputs": [
        {
          "internalType": "contract ISeigManager",
          "name": "_seigManager",
          "type": "address"
        }
      ],
      "name": "setSeigManager",
      "outputs": [],
      "stateMutability": "nonpayable",
      "type": "function"
    },
    {
      "inputs": [
        {
          "internalType": "address",
          "name": "newOwner",
          "type": "address"
        }
      ],
      "name": "transferOwnership",
      "outputs": [],
      "stateMutability": "nonpayable",
      "type": "function"
    }
  ],
  "bytecode": "0x608080604052346096573315608057600080546001600160a01b031980821633908117845560405193736e1734ac57e76fcd7fd66266ae0c2547db3a713a936001600160a01b0316907f8be0079c531659141344cd1fd0a4f28419497f9722a3daafe3b4186f6b6457e09080a3600154161760015561062f908161009c8239f35b631e4fbdf760e01b815260006004820152602490fd5b600080fdfe6080604052600436101561001257600080fd5b6000803560e01c9081633113ed5c1461009a5750806363380113146100955780636fb7f55814610090578063715018a61461008b5780637657f20a146100865780638da5cb5b14610081578063cae9ca511461007c5763f2fde38b1461007757600080fd5b61030f565b610273565b6101f3565b6101ac565b610140565b610117565b6100f1565b346100df5760203660031901126100df576004356100b7816100e2565b6100bf610454565b6002805460ff60a01b191691151560a01b60ff60a01b1691909117905580f35b80fd5b801515036100ec57565b600080fd5b346100ec5760003660031901126100ec57602060ff60025460a01c166040519015158152f35b346100ec5760003660031901126100ec576002546040516001600160a01b039091168152602090f35b346100ec576000806003193601126100df5761015a610454565b80546001600160a01b03198116825581906001600160a01b03167f8be0079c531659141344cd1fd0a4f28419497f9722a3daafe3b4186f6b6457e08280a380f35b6001600160a01b038116036100ec57565b346100ec5760203660031901126100ec576004356101c98161019b565b6101d1610454565b600280546001600160a01b0319166001600160a01b0392909216919091179055005b346100ec5760003660031901126100ec576000546040516001600160a01b039091168152602090f35b634e487b7160e01b600052604160045260246000fd5b90601f801991011681019081106001600160401b0382111761025357604052565b61021c565b6001600160401b03811161025357601f01601f191660200190565b346100ec5760603660031901126100ec576004356102908161019b565b6044356001600160401b0381116100ec57366023820112156100ec578060040135916102bb83610258565b906102c96040519283610232565b83825236602485850101116100ec57600060208561030b9660246102f997018387013784010152602435906103a2565b60405190151581529081906020820190565b0390f35b346100ec5760203660031901126100ec5760043561032c8161019b565b610334610454565b6001600160a01b03908116801561038257600080546001600160a01b03198116831782559092167f8be0079c531659141344cd1fd0a4f28419497f9722a3daafe3b4186f6b6457e08380a380f35b604051631e4fbdf760e01b815260006004820152602490fd5b156100ec57565b60015460405163095ea7b360e01b81526001600160a01b03808416600483015260248201859052909493929160209186916044918391600091165af193841561044857600094610405575b506103fa6104009461039b565b3361054d565b600190565b93506020843d602011610440575b8161042060209383610232565b810103126100ec576103fa6104009451610439816100e2565b94506103ed565b3d9150610413565b6040513d6000823e3d90fd5b6000546001600160a01b0316330361046857565b60405163118cdaa760e01b8152336004820152602490fd5b919082519283825260005b8481106104ac575050826000602080949584010152601f8019910116010190565b60208183018101518483018201520161048b565b156104c85750565b60405162461bcd60e51b8152602060048201529081906104ec906024830190610480565b0390fd5b156104f757565b60405162461bcd60e51b815260206004820152602860248201527f45524332304f6e417070726f76653a206661696c656420746f2063616c6c206f6044820152676e417070726f766560c01b6064820152608490fd5b6000918291826105eb966105ae6020976105a06040519384928b840197632139e50b60e11b895260018060a01b0380911660248601528916604485015260648401526080608484015260a4830190610480565b03601f198101835282610232565b51925af13d156105ed576105e43d6105c581610258565b906105d36040519283610232565b81529182903d60008684013e6104c0565b01516104f0565b565b6105e4606080926104c056fea26469706673582212201636f2dd535fe9951c7c542b9eb7887571de8c88f6b35bd0f94fc9eb82f43a9264736f6c63430008190033",
  "linkReferences": {},
  "deployedLinkReferences": {}
}