{
  "_format": "hh-sol-artifact-1",
  "contractName": "WstonSwapPool",
  "sourceName": "src/L2/WstonSwapPool.sol",
  "abi": [
    {
      "inputs": [
        {
          "internalType": "address",
          "name": "_ton",
          "type": "address"
        },
        {
          "internalType": "address",
          "name": "_wston",
          "type": "address"
        },
        {
          "internalType": "uint256",
          "name": "_initialStakingIndex",
          "type": "uint256"
        },
        {
          "internalType": "address",
          "name": "_treasury",
          "type": "address"
        },
        {
          "internalType": "uint256",
          "name": "_feeRate",
          "type": "uint256"
        }
      ],
      "stateMutability": "nonpayable",
      "type": "constructor"
    },
    {
      "inputs": [
        {
          "internalType": "address",
          "name": "owner",
          "type": "address"
        }
      ],
      "name": "OwnableInvalidOwner",
      "type": "error"
    },
    {
      "inputs": [
        {
          "internalType": "address",
          "name": "account",
          "type": "address"
        }
      ],
      "name": "OwnableUnauthorizedAccount",
      "type": "error"
    },
    {
      "inputs": [],
      "name": "ReentrancyGuardReentrantCall",
      "type": "error"
    },
    {
      "anonymous": false,
      "inputs": [
        {
          "indexed": false,
          "internalType": "uint256",
          "name": "tonFees",
          "type": "uint256"
        },
        {
          "indexed": false,
          "internalType": "uint256",
          "name": "wstonFees",
          "type": "uint256"
        }
      ],
      "name": "FeesCollected",
      "type": "event"
    },
    {
      "anonymous": false,
      "inputs": [
        {
          "indexed": true,
          "internalType": "address",
          "name": "user",
          "type": "address"
        },
        {
          "indexed": false,
          "internalType": "uint256",
          "name": "tonAmount",
          "type": "uint256"
        },
        {
          "indexed": false,
          "internalType": "uint256",
          "name": "wstonAmount",
          "type": "uint256"
        }
      ],
      "name": "LiquidityAdded",
      "type": "event"
    },
    {
      "anonymous": false,
      "inputs": [
        {
          "indexed": true,
          "internalType": "address",
          "name": "user",
          "type": "address"
        },
        {
          "indexed": false,
          "internalType": "uint256",
          "name": "tonAmount",
          "type": "uint256"
        },
        {
          "indexed": false,
          "internalType": "uint256",
          "name": "wstonAmount",
          "type": "uint256"
        }
      ],
      "name": "LiquidityRemoved",
      "type": "event"
    },
    {
      "anonymous": false,
      "inputs": [
        {
          "indexed": true,
          "internalType": "address",
          "name": "previousOwner",
          "type": "address"
        },
        {
          "indexed": true,
          "internalType": "address",
          "name": "newOwner",
          "type": "address"
        }
      ],
      "name": "OwnershipTransferred",
      "type": "event"
    },
    {
      "anonymous": false,
      "inputs": [
        {
          "indexed": false,
          "internalType": "uint256",
          "name": "newIndex",
          "type": "uint256"
        }
      ],
      "name": "StakingIndexUpdated",
      "type": "event"
    },
    {
      "anonymous": false,
      "inputs": [
        {
          "indexed": true,
          "internalType": "address",
          "name": "user",
          "type": "address"
        },
        {
          "indexed": false,
          "internalType": "uint256",
          "name": "tonAmount",
          "type": "uint256"
        },
        {
          "indexed": false,
          "internalType": "uint256",
          "name": "wstonAmount",
          "type": "uint256"
        }
      ],
      "name": "Swap",
      "type": "event"
    },
    {
      "inputs": [],
      "name": "DECIMALS",
      "outputs": [
        {
          "internalType": "uint256",
          "name": "",
          "type": "uint256"
        }
      ],
      "stateMutability": "view",
      "type": "function"
    },
    {
      "inputs": [],
      "name": "FEE_RATE_DIVIDER",
      "outputs": [
        {
          "internalType": "uint256",
          "name": "",
          "type": "uint256"
        }
      ],
      "stateMutability": "view",
      "type": "function"
    },
    {
      "inputs": [
        {
          "internalType": "uint256",
          "name": "tonAmount",
          "type": "uint256"
        },
        {
          "internalType": "uint256",
          "name": "wstonAmount",
          "type": "uint256"
        }
      ],
      "name": "addLiquidity",
      "outputs": [],
      "stateMutability": "nonpayable",
      "type": "function"
    },
    {
      "inputs": [],
      "name": "feeRate",
      "outputs": [
        {
          "internalType": "uint256",
          "name": "",
          "type": "uint256"
        }
      ],
      "stateMutability": "view",
      "type": "function"
    },
    {
      "inputs": [
        {
          "internalType": "address",
          "name": "lp",
          "type": "address"
        }
      ],
      "name": "getLpShares",
      "outputs": [
        {
          "internalType": "uint256",
          "name": "",
          "type": "uint256"
        }
      ],
      "stateMutability": "view",
      "type": "function"
    },
    {
      "inputs": [],
      "name": "getStakingIndex",
      "outputs": [
        {
          "internalType": "uint256",
          "name": "",
          "type": "uint256"
        }
      ],
      "stateMutability": "view",
      "type": "function"
    },
    {
      "inputs": [],
      "name": "getTonReserve",
      "outputs": [
        {
          "internalType": "uint256",
          "name": "",
          "type": "uint256"
        }
      ],
      "stateMutability": "view",
      "type": "function"
    },
    {
      "inputs": [],
      "name": "getTotalShares",
      "outputs": [
        {
          "internalType": "uint256",
          "name": "",
          "type": "uint256"
        }
      ],
      "stateMutability": "view",
      "type": "function"
    },
    {
      "inputs": [],
      "name": "getWstonReserve",
      "outputs": [
        {
          "internalType": "uint256",
          "name": "",
          "type": "uint256"
        }
      ],
      "stateMutability": "view",
      "type": "function"
    },
    {
      "inputs": [
        {
          "internalType": "uint256",
          "name": "",
          "type": "uint256"
        }
      ],
      "name": "lpAddresses",
      "outputs": [
        {
          "internalType": "address",
          "name": "",
          "type": "address"
        }
      ],
      "stateMutability": "view",
      "type": "function"
    },
    {
      "inputs": [
        {
          "internalType": "address",
          "name": "",
          "type": "address"
        }
      ],
      "name": "lpShares",
      "outputs": [
        {
          "internalType": "uint256",
          "name": "",
          "type": "uint256"
        }
      ],
      "stateMutability": "view",
      "type": "function"
    },
    {
      "inputs": [],
      "name": "owner",
      "outputs": [
        {
          "internalType": "address",
          "name": "",
          "type": "address"
        }
      ],
      "stateMutability": "view",
      "type": "function"
    },
    {
      "inputs": [
        {
          "internalType": "uint256",
          "name": "shares",
          "type": "uint256"
        }
      ],
      "name": "removeLiquidity",
      "outputs": [],
      "stateMutability": "nonpayable",
      "type": "function"
    },
    {
      "inputs": [],
      "name": "renounceOwnership",
      "outputs": [],
      "stateMutability": "nonpayable",
      "type": "function"
    },
    {
      "inputs": [],
      "name": "stakingIndex",
      "outputs": [
        {
          "internalType": "uint256",
          "name": "",
          "type": "uint256"
        }
      ],
      "stateMutability": "view",
      "type": "function"
    },
    {
      "inputs": [
        {
          "internalType": "uint256",
          "name": "tonAmount",
          "type": "uint256"
        }
      ],
      "name": "swapTONforWSTON",
      "outputs": [],
      "stateMutability": "nonpayable",
      "type": "function"
    },
    {
      "inputs": [
        {
          "internalType": "uint256",
          "name": "wstonAmount",
          "type": "uint256"
        }
      ],
      "name": "swapWSTONforTON",
      "outputs": [],
      "stateMutability": "nonpayable",
      "type": "function"
    },
    {
      "inputs": [],
      "name": "ton",
      "outputs": [
        {
          "internalType": "address",
          "name": "",
          "type": "address"
        }
      ],
      "stateMutability": "view",
      "type": "function"
    },
    {
      "inputs": [],
      "name": "tonReserve",
      "outputs": [
        {
          "internalType": "uint256",
          "name": "",
          "type": "uint256"
        }
      ],
      "stateMutability": "view",
      "type": "function"
    },
    {
      "inputs": [],
      "name": "totalShares",
      "outputs": [
        {
          "internalType": "uint256",
          "name": "",
          "type": "uint256"
        }
      ],
      "stateMutability": "view",
      "type": "function"
    },
    {
      "inputs": [
        {
          "internalType": "address",
          "name": "newOwner",
          "type": "address"
        }
      ],
      "name": "transferOwnership",
      "outputs": [],
      "stateMutability": "nonpayable",
      "type": "function"
    },
    {
      "inputs": [],
      "name": "treasury",
      "outputs": [
        {
          "internalType": "address",
          "name": "",
          "type": "address"
        }
      ],
      "stateMutability": "view",
      "type": "function"
    },
    {
      "inputs": [
        {
          "internalType": "uint256",
          "name": "newIndex",
          "type": "uint256"
        }
      ],
      "name": "updateStakingIndex",
      "outputs": [],
      "stateMutability": "nonpayable",
      "type": "function"
    },
    {
      "inputs": [],
      "name": "wston",
      "outputs": [
        {
          "internalType": "address",
          "name": "",
          "type": "address"
        }
      ],
      "stateMutability": "view",
      "type": "function"
    },
    {
      "inputs": [],
      "name": "wstonReserve",
      "outputs": [
        {
          "internalType": "uint256",
          "name": "",
          "type": "uint256"
        }
      ],
      "stateMutability": "view",
      "type": "function"
    }
  ],
  "bytecode": "0x60803461011357601f61159538819003918201601f19168301916001600160401b038311848410176101185780849260a094604052833981010312610113576100478161012e565b6100536020830161012e565b9060408301519060806100686060860161012e565b9401519233156100fa57600080546001600160a01b03198082163390811784556040519891956001600160a01b039592948694859391908416907f8be0079c531659141344cd1fd0a4f28419497f9722a3daafe3b4186f6b6457e09080a36001805516856002541617600255168360035416176003551690600454161760045560055560085561145290816101438239f35b604051631e4fbdf760e01b815260006004820152602490fd5b600080fd5b634e487b7160e01b600052604160045260246000fd5b51906001600160a01b03821682036101135756fe608060408181526004908136101561001657600080fd5b600092833560e01c9081630183513914610f0a575080630d727e2b14610c275780630fa40a1214610c0a5780631bbc46ac14610a985780632e0f262514610be457806330f5085914610b7d57806336b17e1314610bbb5780633806223214610b9c5780633a98ef39146101c75780635074e0c814610b7d57806361d027b314610b55578063715018a614610afb5780637cad7e7c14610ab757806385ffa3de14610a985780638da5cb5b14610a70578063978bbdb914610a515780639c8f9f23146109175780639cd441da14610579578063a2681f0d146102f1578063c109a6dc146101ea578063caa78a861461024d578063cc48b94714610224578063d464017a146101ea578063d5002f2e146101c75763f2fde38b1461013757600080fd5b346101c35760203660031901126101c3576001600160a01b038235818116939192908490036101bf576101686113f0565b83156101a957505082546001600160a01b0319811683178455167f8be0079c531659141344cd1fd0a4f28419497f9722a3daafe3b4186f6b6457e08380a380f35b51631e4fbdf760e01b8152908101849052602490fd5b8480fd5b8280fd5b8382346101e657816003193601126101e657602090600b549051908152f35b5080fd5b5090346101c35760203660031901126101c357356001600160a01b038116908190036101c357828291602094526009845220549051908152f35b8382346101e657816003193601126101e65760025490516001600160a01b039091168152602090f35b50346101c35760203660031901126101c35781359161026a6113f0565b60055483106102a55750816020917f30ce0c4920695ae7b30f6304002cac26f3bffd83b1b84b281d4495ec83956c499360055551908152a180f35b6020608492519162461bcd60e51b8352820152602160248201527f63616e6e6f7420646563726561736520746865207374616b696e6720696e64656044820152600f60fb1b6064820152fd5b508290346101e657602090816003193601126101c357833561031161109c565b6003548251636eb1769f60e11b81526001600160a01b0391821694919082818061033e30338d8401610f8f565b0381895afa801561056f578490889061053a575b61035e92501015610fa9565b83516370a0823160e01b8082523389830152919083816024818a5afa801561053057859089906104fb575b61039592501015610fed565b633b9aca00676765c793fa10079d601b1b6103b26005548761102f565b0404956127106103c46008548961102f565b04986103d08a89611082565b938584600254169160248a5180948193825230878301525afa9081156104f1579089918b916104bc575b501061047b5750610469927f77f92a1b6a1a11de8ca49515ad4c1fad45632dd3442167d74b90b304a3c7a7589798999261043b876104469430903390611120565b3390600254166111b4565b6104528460075461108f565b60075561046187600654611082565b6006556112f6565b82519485528401523392a26001805580f35b865162461bcd60e51b8152908101859052601b60248201527a1513d38818985b185b98d9481d1bdbc81b1bddc81a5b881c1bdbdb602a1b6044820152606490fd5b809250878092503d83116104ea575b6104d58183610f57565b810103126104e6578890518c6103fa565b8980fd5b503d6104cb565b88513d8c823e3d90fd5b50508381813d8311610529575b6105128183610f57565b8101031261052557846103959151610389565b8780fd5b503d610508565b86513d8a823e3d90fd5b50508281813d8311610568575b6105518183610f57565b81010312610564578361035e9151610352565b8680fd5b503d610547565b85513d89823e3d90fd5b508290346101e657806003193601126101e65782359060246105cd81359161059f61109c565b60018060a01b039081600254168551636eb1769f60e11b908181528a81806020988993309033908401610f8f565b0381865afa80156104f15789908b906108e6575b6105ed92501015610fa9565b61060c858b8660035416938a5193849283928352309033908401610f8f565b0381855afa9081156104f1579087918b916108b5575b50106108795786516370a0823160e01b808252338c8301529086818681875afa90811561086f5787928b8e9388938f91610830575b5090610664911015610fed565b8a519485938492835233908301525afa908115610826579086918a916107f1575b50106107b757866106999130903390611120565b6106a98430338560035416611120565b338752600983528487205415610745575b5050907fac1d76749e5447b7b16f5ab61447e1bd502f3bb4807af3b28e620d1700a6ee4592916107126106f3633b9aca0084048761108f565b3388526009835284882061070882825461108f565b9055600b5461108f565b600b556107218560065461108f565b6006556107308260075461108f565b60075582519485528401523392a26001805580f35b600a5497600160401b8910156107a657505061078a8760017fac1d76749e5447b7b16f5ab61447e1bd502f3bb4807af3b28e620d1700a6ee4597989901600a55610f26565b819291549060031b9133831b921b1916179055859493876106ba565b634e487b7160e01b88526041905286fd5b855162461bcd60e51b8152808a01859052601581840152745753544f4e2062616c616e636520746f6f206c6f7760581b6044820152606490fd5b809250868092503d831161081f575b61080a8183610f57565b8101031261081b578590518b610685565b8880fd5b503d610800565b87513d8b823e3d90fd5b9450505092905081813d8311610868575b61084b8183610f57565b81010312610864578487926106648c8f94519091610657565b8a80fd5b503d610841565b89513d8d823e3d90fd5b865162461bcd60e51b8152808b01869052601781850152765753544f4e20616c6c6f77616e636520746f6f206c6f7760481b6044820152606490fd5b809250878092503d83116108df575b6108ce8183610f57565b810103126104e6578690518c610622565b503d6108c4565b50508581813d8311610910575b6108fd8183610f57565b810103126104e657886105ed91516105e1565b503d6108f3565b50346101c35760203660031901126101c35781359161093461109c565b3384526009602052828285205410610a1657507f96cd817c6329656790ef8fba7675405193677d39619571282f5e21f3a98cd059906109756006548461102f565b926109bc61099b610989600b548097611078565b956109966007548561102f565b611078565b9133875260096020528387206109b2828254611082565b9055600b54611082565b600b556109cb84600654611082565b6006556109da81600754611082565b600755610a028160018060a01b036109f7873383600254166111b4565b3390600354166111b4565b815193845260208401523392a26001805580f35b6020606492519162461bcd60e51b83528201526016602482015275496e73756666696369656e74204c502073686172657360501b6044820152fd5b8382346101e657816003193601126101e6576020906008549051908152f35b8382346101e657816003193601126101e657905490516001600160a01b039091168152602090f35b8382346101e657816003193601126101e6576020906007549051908152f35b5090346101c35760203660031901126101c3573591600a54831015610af85750610ae2602092610f26565b905491519160018060a01b039160031b1c168152f35b80fd5b8334610af85780600319360112610af857610b146113f0565b80546001600160a01b03198116825581906001600160a01b03167f8be0079c531659141344cd1fd0a4f28419497f9722a3daafe3b4186f6b6457e08280a380f35b5090346101c357826003193601126101c3575490516001600160a01b03909116815260209150f35b8382346101e657816003193601126101e6576020906005549051908152f35b8382346101e657816003193601126101e6576020906006549051908152f35b8382346101e657816003193601126101e65760035490516001600160a01b039091168152602090f35b8382346101e657816003193601126101e65751676765c793fa10079d601b1b8152602090f35b8382346101e657816003193601126101e657602090516127108152f35b508290346101e657602090816003193601126101c35783548435926001600160a01b039182163303610eb257610c5b61109c565b8160025416918351636eb1769f60e11b8152828180610c7d30338d8401610f8f565b0381875afa801561056f5786908890610e81575b610c9d92501015610fa9565b83516370a0823160e01b808252338983015291908381602481885afa80156105305787908990610e50575b610cd492501015610fed565b633b9aca00808702908782041487151715610e3d576a0c097ce7bc90715b34b9f160241b870290808204676765c793fa10079d601b1b1490151715610e3d57600554610d1f91611078565b93612710610d2f6008548761102f565b0498610d3b8a87611082565b938584600354169160248a5180948193825230878301525afa9081156104f1579087918b91610e0c575b5010610dc9575061046992879899926109f77f77f92a1b6a1a11de8ca49515ad4c1fad45632dd3442167d74b90b304a3c7a75899610da69430903390611120565b610db28760065461108f565b600655610dc184600754611082565b600755611200565b865162461bcd60e51b8152908101859052601d60248201527f5753544f4e2062616c616e636520746f6f206c6f7720696e20706f6f6c0000006044820152606490fd5b809250878092503d8311610e36575b610e258183610f57565b810103126104e6578690518c610d65565b503d610e1b565b634e487b7160e01b885260118952602488fd5b50508381813d8311610e7a575b610e678183610f57565b810103126105255786610cd49151610cc8565b503d610e5d565b50508281813d8311610eab575b610e988183610f57565b810103126105645785610c9d9151610c91565b503d610e8e565b8560849184519162461bcd60e51b8352820152602d60248201527f66756e6374696f6e2063616c6c61626c652066726f6d2074726561737572792060448201526c636f6e7472616374206f6e6c7960981b6064820152fd5b8490346101e657816003193601126101e6576020906006548152f35b600a54811015610f4157600a60005260206000200190600090565b634e487b7160e01b600052603260045260246000fd5b90601f8019910116810190811067ffffffffffffffff821117610f7957604052565b634e487b7160e01b600052604160045260246000fd5b6001600160a01b0391821681529116602082015260400190565b15610fb057565b60405162461bcd60e51b8152602060048201526015602482015274544f4e20616c6c6f77616e636520746f6f206c6f7760581b6044820152606490fd5b15610ff457565b60405162461bcd60e51b8152602060048201526013602482015272544f4e2062616c616e636520746f6f206c6f7760681b6044820152606490fd5b8181029291811591840414171561104257565b634e487b7160e01b600052601160045260246000fd5b1561106257600090565b634e487b7160e01b600052601260045260246000fd5b8115611062570490565b9190820391821161104257565b9190820180921161104257565b6002600154146110ad576002600155565b604051633ee5aeb560e01b8152600490fd5b908160209103126110d7575180151581036110d75790565b600080fd5b156110e357565b60405162461bcd60e51b8152602060048201526015602482015274151bdad95b881d1c985b9cd9995c8819985a5b1959605a1b6044820152606490fd5b6040516323b872dd60e01b81526001600160a01b03928316600482015292821660248401526044830193909352909160209183916064918391600091165af180156111a85761117791600091611179575b506110dc565b565b61119b915060203d6020116111a1575b6111938183610f57565b8101906110bf565b38611171565b503d611189565b6040513d6000823e3d90fd5b60405163a9059cbb60e01b81526001600160a01b039283166004820152602481019390935260209183916044918391600091165af180156111a8576111779160009161117957506110dc565b90600b91600b54156112f15760005b600a548110156112ba5761122281610f26565b9054600391821b1c6001600160a01b03908116600081815260096020526040902054919392919081158015611260575b50505050600191500161120f565b6001171561104257600194611283895461099661127c82611058565b958a61102f565b92806112a5575b5082156112525761129c9354166111b4565b38808080611252565b6112b4908383600254166111b4565b3861128a565b507f49d512bf9cb224241c05691e73eb9fab078cf350c7dbcbcf66788f1fc0cc8b0b919250604090815190600082526020820152a1565b509050565b90600b91600b54156112f15760005b600a548110156113b95761131881610f26565b9054600391821b1c6001600160a01b0390811660008181526009602052604090205491939291801591908215611357575b505050506001915001611305565b611361908761102f565b9461136e89548097611078565b926001171561104257611382600196611058565b92806113a4575b5082156113495761139b9354166111b4565b38808080611349565b6113b3908383600254166111b4565b38611389565b507f49d512bf9cb224241c05691e73eb9fab078cf350c7dbcbcf66788f1fc0cc8b0b919250604090815190815260006020820152a1565b6000546001600160a01b0316330361140457565b60405163118cdaa760e01b8152336004820152602490fdfea2646970667358221220dc44fa21376dfccf7a7677199ac69576f973829027c70e56702ed4e36e7f794a64736f6c63430008190033",
  "linkReferences": {},
  "deployedLinkReferences": {}
}