{
  "_format": "hh-sol-artifact-1",
  "contractName": "WstonSwapPool",
  "sourceName": "src/L2/WstonSwapPool.sol",
  "abi": [
    {
      "inputs": [
        {
          "internalType": "address",
          "name": "_ton",
          "type": "address"
        },
        {
          "internalType": "address",
          "name": "_wston",
          "type": "address"
        },
        {
          "internalType": "uint256",
          "name": "_initialStakingIndex",
          "type": "uint256"
        },
        {
          "internalType": "address",
          "name": "_treasury",
          "type": "address"
        },
        {
          "internalType": "uint256",
          "name": "_feeRate",
          "type": "uint256"
        }
      ],
      "stateMutability": "nonpayable",
      "type": "constructor"
    },
    {
      "inputs": [
        {
          "internalType": "address",
          "name": "owner",
          "type": "address"
        }
      ],
      "name": "OwnableInvalidOwner",
      "type": "error"
    },
    {
      "inputs": [
        {
          "internalType": "address",
          "name": "account",
          "type": "address"
        }
      ],
      "name": "OwnableUnauthorizedAccount",
      "type": "error"
    },
    {
      "inputs": [],
      "name": "ReentrancyGuardReentrantCall",
      "type": "error"
    },
    {
      "anonymous": false,
      "inputs": [
        {
          "indexed": false,
          "internalType": "uint256",
          "name": "tonFees",
          "type": "uint256"
        },
        {
          "indexed": false,
          "internalType": "uint256",
          "name": "wstonFees",
          "type": "uint256"
        }
      ],
      "name": "FeesCollected",
      "type": "event"
    },
    {
      "anonymous": false,
      "inputs": [
        {
          "indexed": true,
          "internalType": "address",
          "name": "user",
          "type": "address"
        },
        {
          "indexed": false,
          "internalType": "uint256",
          "name": "tonAmount",
          "type": "uint256"
        },
        {
          "indexed": false,
          "internalType": "uint256",
          "name": "wstonAmount",
          "type": "uint256"
        }
      ],
      "name": "LiquidityAdded",
      "type": "event"
    },
    {
      "anonymous": false,
      "inputs": [
        {
          "indexed": true,
          "internalType": "address",
          "name": "user",
          "type": "address"
        },
        {
          "indexed": false,
          "internalType": "uint256",
          "name": "tonAmount",
          "type": "uint256"
        },
        {
          "indexed": false,
          "internalType": "uint256",
          "name": "wstonAmount",
          "type": "uint256"
        }
      ],
      "name": "LiquidityRemoved",
      "type": "event"
    },
    {
      "anonymous": false,
      "inputs": [
        {
          "indexed": true,
          "internalType": "address",
          "name": "previousOwner",
          "type": "address"
        },
        {
          "indexed": true,
          "internalType": "address",
          "name": "newOwner",
          "type": "address"
        }
      ],
      "name": "OwnershipTransferred",
      "type": "event"
    },
    {
      "anonymous": false,
      "inputs": [
        {
          "indexed": false,
          "internalType": "uint256",
          "name": "newIndex",
          "type": "uint256"
        }
      ],
      "name": "StakingIndexUpdated",
      "type": "event"
    },
    {
      "anonymous": false,
      "inputs": [
        {
          "indexed": true,
          "internalType": "address",
          "name": "user",
          "type": "address"
        },
        {
          "indexed": false,
          "internalType": "uint256",
          "name": "tonAmount",
          "type": "uint256"
        },
        {
          "indexed": false,
          "internalType": "uint256",
          "name": "wstonAmount",
          "type": "uint256"
        }
      ],
      "name": "Swap",
      "type": "event"
    },
    {
      "inputs": [],
      "name": "DECIMALS",
      "outputs": [
        {
          "internalType": "uint256",
          "name": "",
          "type": "uint256"
        }
      ],
      "stateMutability": "view",
      "type": "function"
    },
    {
      "inputs": [],
      "name": "FEE_RATE_DIVIDER",
      "outputs": [
        {
          "internalType": "uint256",
          "name": "",
          "type": "uint256"
        }
      ],
      "stateMutability": "view",
      "type": "function"
    },
    {
      "inputs": [
        {
          "internalType": "uint256",
          "name": "tonAmount",
          "type": "uint256"
        },
        {
          "internalType": "uint256",
          "name": "wstonAmount",
          "type": "uint256"
        }
      ],
      "name": "addLiquidity",
      "outputs": [],
      "stateMutability": "nonpayable",
      "type": "function"
    },
    {
      "inputs": [],
      "name": "feeRate",
      "outputs": [
        {
          "internalType": "uint256",
          "name": "",
          "type": "uint256"
        }
      ],
      "stateMutability": "view",
      "type": "function"
    },
    {
      "inputs": [
        {
          "internalType": "address",
          "name": "lp",
          "type": "address"
        }
      ],
      "name": "getLpShares",
      "outputs": [
        {
          "internalType": "uint256",
          "name": "",
          "type": "uint256"
        }
      ],
      "stateMutability": "view",
      "type": "function"
    },
    {
      "inputs": [],
      "name": "getTonReserve",
      "outputs": [
        {
          "internalType": "uint256",
          "name": "",
          "type": "uint256"
        }
      ],
      "stateMutability": "view",
      "type": "function"
    },
    {
      "inputs": [],
      "name": "getTotalShares",
      "outputs": [
        {
          "internalType": "uint256",
          "name": "",
          "type": "uint256"
        }
      ],
      "stateMutability": "view",
      "type": "function"
    },
    {
      "inputs": [],
      "name": "getWstonReserve",
      "outputs": [
        {
          "internalType": "uint256",
          "name": "",
          "type": "uint256"
        }
      ],
      "stateMutability": "view",
      "type": "function"
    },
    {
      "inputs": [
        {
          "internalType": "uint256",
          "name": "",
          "type": "uint256"
        }
      ],
      "name": "lpAddresses",
      "outputs": [
        {
          "internalType": "address",
          "name": "",
          "type": "address"
        }
      ],
      "stateMutability": "view",
      "type": "function"
    },
    {
      "inputs": [
        {
          "internalType": "address",
          "name": "",
          "type": "address"
        }
      ],
      "name": "lpShares",
      "outputs": [
        {
          "internalType": "uint256",
          "name": "",
          "type": "uint256"
        }
      ],
      "stateMutability": "view",
      "type": "function"
    },
    {
      "inputs": [],
      "name": "owner",
      "outputs": [
        {
          "internalType": "address",
          "name": "",
          "type": "address"
        }
      ],
      "stateMutability": "view",
      "type": "function"
    },
    {
      "inputs": [
        {
          "internalType": "uint256",
          "name": "shares",
          "type": "uint256"
        }
      ],
      "name": "removeLiquidity",
      "outputs": [],
      "stateMutability": "nonpayable",
      "type": "function"
    },
    {
      "inputs": [],
      "name": "renounceOwnership",
      "outputs": [],
      "stateMutability": "nonpayable",
      "type": "function"
    },
    {
      "inputs": [],
      "name": "stakingIndex",
      "outputs": [
        {
          "internalType": "uint256",
          "name": "",
          "type": "uint256"
        }
      ],
      "stateMutability": "view",
      "type": "function"
    },
    {
      "inputs": [
        {
          "internalType": "uint256",
          "name": "tonAmount",
          "type": "uint256"
        }
      ],
      "name": "swapTONforWSTON",
      "outputs": [],
      "stateMutability": "nonpayable",
      "type": "function"
    },
    {
      "inputs": [
        {
          "internalType": "uint256",
          "name": "wstonAmount",
          "type": "uint256"
        }
      ],
      "name": "swapWSTONforTON",
      "outputs": [],
      "stateMutability": "nonpayable",
      "type": "function"
    },
    {
      "inputs": [],
      "name": "ton",
      "outputs": [
        {
          "internalType": "address",
          "name": "",
          "type": "address"
        }
      ],
      "stateMutability": "view",
      "type": "function"
    },
    {
      "inputs": [],
      "name": "tonReserve",
      "outputs": [
        {
          "internalType": "uint256",
          "name": "",
          "type": "uint256"
        }
      ],
      "stateMutability": "view",
      "type": "function"
    },
    {
      "inputs": [],
      "name": "totalShares",
      "outputs": [
        {
          "internalType": "uint256",
          "name": "",
          "type": "uint256"
        }
      ],
      "stateMutability": "view",
      "type": "function"
    },
    {
      "inputs": [
        {
          "internalType": "address",
          "name": "newOwner",
          "type": "address"
        }
      ],
      "name": "transferOwnership",
      "outputs": [],
      "stateMutability": "nonpayable",
      "type": "function"
    },
    {
      "inputs": [],
      "name": "treasury",
      "outputs": [
        {
          "internalType": "address",
          "name": "",
          "type": "address"
        }
      ],
      "stateMutability": "view",
      "type": "function"
    },
    {
      "inputs": [
        {
          "internalType": "uint256",
          "name": "_feeRate",
          "type": "uint256"
        }
      ],
      "name": "updateFeeRate",
      "outputs": [],
      "stateMutability": "nonpayable",
      "type": "function"
    },
    {
      "inputs": [
        {
          "internalType": "uint256",
          "name": "newIndex",
          "type": "uint256"
        }
      ],
      "name": "updateStakingIndex",
      "outputs": [],
      "stateMutability": "nonpayable",
      "type": "function"
    },
    {
      "inputs": [],
      "name": "wston",
      "outputs": [
        {
          "internalType": "address",
          "name": "",
          "type": "address"
        }
      ],
      "stateMutability": "view",
      "type": "function"
    },
    {
      "inputs": [],
      "name": "wstonReserve",
      "outputs": [
        {
          "internalType": "uint256",
          "name": "",
          "type": "uint256"
        }
      ],
      "stateMutability": "view",
      "type": "function"
    }
  ],
  "bytecode": "0x60803461011357601f6115c838819003918201601f19168301916001600160401b038311848410176101185780849260a094604052833981010312610113576100478161012e565b6100536020830161012e565b9060408301519060806100686060860161012e565b9401519233156100fa57600080546001600160a01b03198082163390811784556040519891956001600160a01b039592948694859391908416907f8be0079c531659141344cd1fd0a4f28419497f9722a3daafe3b4186f6b6457e09080a36001805516856002541617600255168360035416176003551690600454161760045560055560085561148590816101438239f35b604051631e4fbdf760e01b815260006004820152602490fd5b600080fd5b634e487b7160e01b600052604160045260246000fd5b51906001600160a01b03821682036101135756fe608060408181526004908136101561001657600080fd5b600092833560e01c9081630183513914610f3d575080630d727e2b14610c545780630fa40a1214610c375780631bbc46ac14610aa35780632e0f262514610c1157806330f5085914610bf257806336b17e1314610bc95780633806223214610baa5780633a98ef39146101c757806361d027b314610b82578063715018a614610b285780637b84fda514610b065780637cad7e7c14610ac257806385ffa3de14610aa35780638da5cb5b14610a7b578063978bbdb914610a5c5780639c8f9f23146109225780639cd441da14610584578063a2681f0d146102fc578063c109a6dc146101ea578063caa78a861461024d578063cc48b94714610224578063d464017a146101ea578063d5002f2e146101c75763f2fde38b1461013757600080fd5b346101c35760203660031901126101c3576001600160a01b038235818116939192908490036101bf57610168611400565b83156101a957505082546001600160a01b0319811683178455167f8be0079c531659141344cd1fd0a4f28419497f9722a3daafe3b4186f6b6457e08380a380f35b51631e4fbdf760e01b8152908101849052602490fd5b8480fd5b8280fd5b8382346101e657816003193601126101e657602090600b549051908152f35b5080fd5b5090346101c35760203660031901126101c357356001600160a01b038116908190036101c357828291602094526009845220549051908152f35b8382346101e657816003193601126101e65760025490516001600160a01b039091168152602090f35b50346101c35760203660031901126101c35781359161026a611400565b676765c793fa10079d601b1b83106102ae5750816020917f30ce0c4920695ae7b30f6304002cac26f3bffd83b1b84b281d4495ec83956c499360055551908152a180f35b6020608492519162461bcd60e51b8352820152602360248201527f7374616b696e6720696e6465782063616e6e6f74206265206c657373207468616044820152626e203160e81b6064820152fd5b508290346101e657602090816003193601126101c357833561031c61142c565b6003548251636eb1769f60e11b81526001600160a01b0391821694919082818061034930338d8401610fc2565b0381895afa801561057a5784908890610545575b61036992501015610fdc565b83516370a0823160e01b8082523389830152919083816024818a5afa801561053b5785908990610506575b6103a092501015611020565b633b9aca00676765c793fa10079d601b1b6103bd60055487611062565b0404956127106103cf60085489611062565b04986103db8a896110b5565b938584600254169160248a5180948193825230878301525afa9081156104fc579089918b916104c7575b50106104865750610474927f77f92a1b6a1a11de8ca49515ad4c1fad45632dd3442167d74b90b304a3c7a75897989992610446876104519430903390611130565b3390600254166111c4565b61045d846007546110c2565b60075561046c876006546110b5565b600655611306565b82519485528401523392a26001805580f35b865162461bcd60e51b8152908101859052601b60248201527a1513d38818985b185b98d9481d1bdbc81b1bddc81a5b881c1bdbdb602a1b6044820152606490fd5b809250878092503d83116104f5575b6104e08183610f8a565b810103126104f1578890518c610405565b8980fd5b503d6104d6565b88513d8c823e3d90fd5b50508381813d8311610534575b61051d8183610f8a565b8101031261053057846103a09151610394565b8780fd5b503d610513565b86513d8a823e3d90fd5b50508281813d8311610573575b61055c8183610f8a565b8101031261056f5783610369915161035d565b8680fd5b503d610552565b85513d89823e3d90fd5b508290346101e657806003193601126101e65782359060246105d88135916105aa61142c565b60018060a01b039081600254168551636eb1769f60e11b908181528a81806020988993309033908401610fc2565b0381865afa80156104fc5789908b906108f1575b6105f892501015610fdc565b610617858b8660035416938a5193849283928352309033908401610fc2565b0381855afa9081156104fc579087918b916108c0575b50106108845786516370a0823160e01b808252338c8301529086818681875afa90811561087a5787928b8e9388938f9161083b575b509061066f911015611020565b8a519485938492835233908301525afa908115610831579086918a916107fc575b50106107c257866106a49130903390611130565b6106b48430338560035416611130565b338752600983528487205415610750575b5050907fac1d76749e5447b7b16f5ab61447e1bd502f3bb4807af3b28e620d1700a6ee45929161071d6106fe633b9aca008404876110c2565b338852600983528488206107138282546110c2565b9055600b546110c2565b600b5561072c856006546110c2565b60065561073b826007546110c2565b60075582519485528401523392a26001805580f35b600a5497600160401b8910156107b15750506107958760017fac1d76749e5447b7b16f5ab61447e1bd502f3bb4807af3b28e620d1700a6ee4597989901600a55610f59565b819291549060031b9133831b921b1916179055859493876106c5565b634e487b7160e01b88526041905286fd5b855162461bcd60e51b8152808a01859052601581840152745753544f4e2062616c616e636520746f6f206c6f7760581b6044820152606490fd5b809250868092503d831161082a575b6108158183610f8a565b81010312610826578590518b610690565b8880fd5b503d61080b565b87513d8b823e3d90fd5b9450505092905081813d8311610873575b6108568183610f8a565b8101031261086f5784879261066f8c8f94519091610662565b8a80fd5b503d61084c565b89513d8d823e3d90fd5b865162461bcd60e51b8152808b01869052601781850152765753544f4e20616c6c6f77616e636520746f6f206c6f7760481b6044820152606490fd5b809250878092503d83116108ea575b6108d98183610f8a565b810103126104f1578690518c61062d565b503d6108cf565b50508581813d831161091b575b6109088183610f8a565b810103126104f157886105f891516105ec565b503d6108fe565b50346101c35760203660031901126101c35781359161093f61142c565b3384526009602052828285205410610a2157507f96cd817c6329656790ef8fba7675405193677d39619571282f5e21f3a98cd0599061098060065484611062565b926109c76109a6610994600b5480976110ab565b956109a160075485611062565b6110ab565b9133875260096020528387206109bd8282546110b5565b9055600b546110b5565b600b556109d6846006546110b5565b6006556109e5816007546110b5565b600755610a0d8160018060a01b03610a02873383600254166111c4565b3390600354166111c4565b815193845260208401523392a26001805580f35b6020606492519162461bcd60e51b83528201526016602482015275496e73756666696369656e74204c502073686172657360501b6044820152fd5b8382346101e657816003193601126101e6576020906008549051908152f35b8382346101e657816003193601126101e657905490516001600160a01b039091168152602090f35b8382346101e657816003193601126101e6576020906007549051908152f35b5090346101c35760203660031901126101c3573591600a54831015610b035750610aed602092610f59565b905491519160018060a01b039160031b1c168152f35b80fd5b5050346101e65760203660031901126101e657610b21611400565b3560085580f35b8334610b035780600319360112610b0357610b41611400565b80546001600160a01b03198116825581906001600160a01b03167f8be0079c531659141344cd1fd0a4f28419497f9722a3daafe3b4186f6b6457e08280a380f35b5090346101c357826003193601126101c3575490516001600160a01b03909116815260209150f35b8382346101e657816003193601126101e6576020906006549051908152f35b8382346101e657816003193601126101e65760035490516001600160a01b039091168152602090f35b8382346101e657816003193601126101e6576020906005549051908152f35b8382346101e657816003193601126101e65751676765c793fa10079d601b1b8152602090f35b8382346101e657816003193601126101e657602090516127108152f35b508290346101e657602090816003193601126101c35783548435926001600160a01b039182163303610ee5578160025416918351636eb1769f60e11b8152828180610ca230338d8401610fc2565b0381875afa801561057a5786908890610eb4575b610cc292501015610fdc565b83516370a0823160e01b808252338983015291908381602481885afa801561053b5787908990610e83575b610cf992501015611020565b633b9aca00808702908782041487151715610e70576a0c097ce7bc90715b34b9f160241b870290808204676765c793fa10079d601b1b1490151715610e7057600554610d44916110ab565b93612710610d5460085487611062565b0498610d608a876110b5565b938584600354169160248a5180948193825230878301525afa9081156104fc579087918b91610e3f575b5010610dfc5750610dee9287989992610a027f77f92a1b6a1a11de8ca49515ad4c1fad45632dd3442167d74b90b304a3c7a75899610dcb9430903390611130565b610dd7876006546110c2565b600655610de6846007546110b5565b600755611210565b82519485528401523392a280f35b865162461bcd60e51b8152908101859052601d60248201527f5753544f4e2062616c616e636520746f6f206c6f7720696e20706f6f6c0000006044820152606490fd5b809250878092503d8311610e69575b610e588183610f8a565b810103126104f1578690518c610d8a565b503d610e4e565b634e487b7160e01b885260118952602488fd5b50508381813d8311610ead575b610e9a8183610f8a565b810103126105305786610cf99151610ced565b503d610e90565b50508281813d8311610ede575b610ecb8183610f8a565b8101031261056f5785610cc29151610cb6565b503d610ec1565b8560849184519162461bcd60e51b8352820152602d60248201527f66756e6374696f6e2063616c6c61626c652066726f6d2074726561737572792060448201526c636f6e7472616374206f6e6c7960981b6064820152fd5b8490346101e657816003193601126101e6576020906006548152f35b600a54811015610f7457600a60005260206000200190600090565b634e487b7160e01b600052603260045260246000fd5b90601f8019910116810190811067ffffffffffffffff821117610fac57604052565b634e487b7160e01b600052604160045260246000fd5b6001600160a01b0391821681529116602082015260400190565b15610fe357565b60405162461bcd60e51b8152602060048201526015602482015274544f4e20616c6c6f77616e636520746f6f206c6f7760581b6044820152606490fd5b1561102757565b60405162461bcd60e51b8152602060048201526013602482015272544f4e2062616c616e636520746f6f206c6f7760681b6044820152606490fd5b8181029291811591840414171561107557565b634e487b7160e01b600052601160045260246000fd5b1561109557600090565b634e487b7160e01b600052601260045260246000fd5b8115611095570490565b9190820391821161107557565b9190820180921161107557565b908160209103126110e7575180151581036110e75790565b600080fd5b156110f357565b60405162461bcd60e51b8152602060048201526015602482015274151bdad95b881d1c985b9cd9995c8819985a5b1959605a1b6044820152606490fd5b6040516323b872dd60e01b81526001600160a01b03928316600482015292821660248401526044830193909352909160209183916064918391600091165af180156111b85761118791600091611189575b506110ec565b565b6111ab915060203d6020116111b1575b6111a38183610f8a565b8101906110cf565b38611181565b503d611199565b6040513d6000823e3d90fd5b60405163a9059cbb60e01b81526001600160a01b039283166004820152602481019390935260209183916044918391600091165af180156111b8576111879160009161118957506110ec565b90600b91600b54156113015760005b600a548110156112ca5761123281610f59565b9054600391821b1c6001600160a01b03908116600081815260096020526040902054919392919081158015611270575b50505050600191500161121f565b600117156110755760019461129389546109a161128c8261108b565b958a611062565b92806112b5575b508215611262576112ac9354166111c4565b38808080611262565b6112c4908383600254166111c4565b3861129a565b507f49d512bf9cb224241c05691e73eb9fab078cf350c7dbcbcf66788f1fc0cc8b0b919250604090815190600082526020820152a1565b509050565b90600b91600b54156113015760005b600a548110156113c95761132881610f59565b9054600391821b1c6001600160a01b0390811660008181526009602052604090205491939291801591908215611367575b505050506001915001611315565b6113719087611062565b9461137e895480976110ab565b92600117156110755761139260019661108b565b92806113b4575b508215611359576113ab9354166111c4565b38808080611359565b6113c3908383600254166111c4565b38611399565b507f49d512bf9cb224241c05691e73eb9fab078cf350c7dbcbcf66788f1fc0cc8b0b919250604090815190815260006020820152a1565b6000546001600160a01b0316330361141457565b60405163118cdaa760e01b8152336004820152602490fd5b60026001541461143d576002600155565b604051633ee5aeb560e01b8152600490fdfea26469706673582212208ab44727444e3bf072e0e3b4c1df34afa703870e935b4eac282958bd8133a56264736f6c63430008190033",
  "linkReferences": {},
  "deployedLinkReferences": {}
}