{
  "_format": "hh-sol-artifact-1",
  "contractName": "WstonSwapPool",
  "sourceName": "src/L2/WstonSwapPool.sol",
  "abi": [
    {
      "inputs": [
        {
          "internalType": "address",
          "name": "_ton",
          "type": "address"
        },
        {
          "internalType": "address",
          "name": "_wston",
          "type": "address"
        },
        {
          "internalType": "uint256",
          "name": "_initialStakingIndex",
          "type": "uint256"
        },
        {
          "internalType": "address",
          "name": "_treasury",
          "type": "address"
        },
        {
          "internalType": "uint256",
          "name": "_feeRate",
          "type": "uint256"
        }
      ],
      "stateMutability": "nonpayable",
      "type": "constructor"
    },
    {
      "inputs": [
        {
          "internalType": "address",
          "name": "owner",
          "type": "address"
        }
      ],
      "name": "OwnableInvalidOwner",
      "type": "error"
    },
    {
      "inputs": [
        {
          "internalType": "address",
          "name": "account",
          "type": "address"
        }
      ],
      "name": "OwnableUnauthorizedAccount",
      "type": "error"
    },
    {
      "inputs": [],
      "name": "ReentrancyGuardReentrantCall",
      "type": "error"
    },
    {
      "anonymous": false,
      "inputs": [
        {
          "indexed": false,
          "internalType": "uint256",
          "name": "tonFees",
          "type": "uint256"
        },
        {
          "indexed": false,
          "internalType": "uint256",
          "name": "wstonFees",
          "type": "uint256"
        }
      ],
      "name": "FeesCollected",
      "type": "event"
    },
    {
      "anonymous": false,
      "inputs": [
        {
          "indexed": true,
          "internalType": "address",
          "name": "user",
          "type": "address"
        },
        {
          "indexed": false,
          "internalType": "uint256",
          "name": "tonAmount",
          "type": "uint256"
        },
        {
          "indexed": false,
          "internalType": "uint256",
          "name": "wstonAmount",
          "type": "uint256"
        }
      ],
      "name": "LiquidityAdded",
      "type": "event"
    },
    {
      "anonymous": false,
      "inputs": [
        {
          "indexed": true,
          "internalType": "address",
          "name": "user",
          "type": "address"
        },
        {
          "indexed": false,
          "internalType": "uint256",
          "name": "tonAmount",
          "type": "uint256"
        },
        {
          "indexed": false,
          "internalType": "uint256",
          "name": "wstonAmount",
          "type": "uint256"
        }
      ],
      "name": "LiquidityRemoved",
      "type": "event"
    },
    {
      "anonymous": false,
      "inputs": [
        {
          "indexed": true,
          "internalType": "address",
          "name": "previousOwner",
          "type": "address"
        },
        {
          "indexed": true,
          "internalType": "address",
          "name": "newOwner",
          "type": "address"
        }
      ],
      "name": "OwnershipTransferred",
      "type": "event"
    },
    {
      "anonymous": false,
      "inputs": [
        {
          "indexed": false,
          "internalType": "uint256",
          "name": "newIndex",
          "type": "uint256"
        }
      ],
      "name": "StakingIndexUpdated",
      "type": "event"
    },
    {
      "anonymous": false,
      "inputs": [
        {
          "indexed": true,
          "internalType": "address",
          "name": "user",
          "type": "address"
        },
        {
          "indexed": false,
          "internalType": "uint256",
          "name": "tonAmount",
          "type": "uint256"
        },
        {
          "indexed": false,
          "internalType": "uint256",
          "name": "wstonAmount",
          "type": "uint256"
        }
      ],
      "name": "Swap",
      "type": "event"
    },
    {
      "inputs": [],
      "name": "DECIMALS",
      "outputs": [
        {
          "internalType": "uint256",
          "name": "",
          "type": "uint256"
        }
      ],
      "stateMutability": "view",
      "type": "function"
    },
    {
      "inputs": [],
      "name": "FEE_RATE_DIVIDER",
      "outputs": [
        {
          "internalType": "uint256",
          "name": "",
          "type": "uint256"
        }
      ],
      "stateMutability": "view",
      "type": "function"
    },
    {
      "inputs": [
        {
          "internalType": "uint256",
          "name": "tonAmount",
          "type": "uint256"
        },
        {
          "internalType": "uint256",
          "name": "wstonAmount",
          "type": "uint256"
        }
      ],
      "name": "addLiquidity",
      "outputs": [],
      "stateMutability": "nonpayable",
      "type": "function"
    },
    {
      "inputs": [],
      "name": "feeRate",
      "outputs": [
        {
          "internalType": "uint256",
          "name": "",
          "type": "uint256"
        }
      ],
      "stateMutability": "view",
      "type": "function"
    },
    {
      "inputs": [
        {
          "internalType": "address",
          "name": "lp",
          "type": "address"
        }
      ],
      "name": "getLpShares",
      "outputs": [
        {
          "internalType": "uint256",
          "name": "",
          "type": "uint256"
        }
      ],
      "stateMutability": "view",
      "type": "function"
    },
    {
      "inputs": [],
      "name": "getStakingIndex",
      "outputs": [
        {
          "internalType": "uint256",
          "name": "",
          "type": "uint256"
        }
      ],
      "stateMutability": "view",
      "type": "function"
    },
    {
      "inputs": [],
      "name": "getTonReserve",
      "outputs": [
        {
          "internalType": "uint256",
          "name": "",
          "type": "uint256"
        }
      ],
      "stateMutability": "view",
      "type": "function"
    },
    {
      "inputs": [],
      "name": "getTotalShares",
      "outputs": [
        {
          "internalType": "uint256",
          "name": "",
          "type": "uint256"
        }
      ],
      "stateMutability": "view",
      "type": "function"
    },
    {
      "inputs": [],
      "name": "getWstonReserve",
      "outputs": [
        {
          "internalType": "uint256",
          "name": "",
          "type": "uint256"
        }
      ],
      "stateMutability": "view",
      "type": "function"
    },
    {
      "inputs": [
        {
          "internalType": "uint256",
          "name": "",
          "type": "uint256"
        }
      ],
      "name": "lpAddresses",
      "outputs": [
        {
          "internalType": "address",
          "name": "",
          "type": "address"
        }
      ],
      "stateMutability": "view",
      "type": "function"
    },
    {
      "inputs": [
        {
          "internalType": "address",
          "name": "",
          "type": "address"
        }
      ],
      "name": "lpShares",
      "outputs": [
        {
          "internalType": "uint256",
          "name": "",
          "type": "uint256"
        }
      ],
      "stateMutability": "view",
      "type": "function"
    },
    {
      "inputs": [],
      "name": "owner",
      "outputs": [
        {
          "internalType": "address",
          "name": "",
          "type": "address"
        }
      ],
      "stateMutability": "view",
      "type": "function"
    },
    {
      "inputs": [
        {
          "internalType": "uint256",
          "name": "shares",
          "type": "uint256"
        }
      ],
      "name": "removeLiquidity",
      "outputs": [],
      "stateMutability": "nonpayable",
      "type": "function"
    },
    {
      "inputs": [],
      "name": "renounceOwnership",
      "outputs": [],
      "stateMutability": "nonpayable",
      "type": "function"
    },
    {
      "inputs": [],
      "name": "stakingIndex",
      "outputs": [
        {
          "internalType": "uint256",
          "name": "",
          "type": "uint256"
        }
      ],
      "stateMutability": "view",
      "type": "function"
    },
    {
      "inputs": [
        {
          "internalType": "uint256",
          "name": "tonAmount",
          "type": "uint256"
        }
      ],
      "name": "swapTONforWSTON",
      "outputs": [],
      "stateMutability": "nonpayable",
      "type": "function"
    },
    {
      "inputs": [
        {
          "internalType": "uint256",
          "name": "wstonAmount",
          "type": "uint256"
        }
      ],
      "name": "swapWSTONforTON",
      "outputs": [],
      "stateMutability": "nonpayable",
      "type": "function"
    },
    {
      "inputs": [],
      "name": "ton",
      "outputs": [
        {
          "internalType": "address",
          "name": "",
          "type": "address"
        }
      ],
      "stateMutability": "view",
      "type": "function"
    },
    {
      "inputs": [],
      "name": "tonReserve",
      "outputs": [
        {
          "internalType": "uint256",
          "name": "",
          "type": "uint256"
        }
      ],
      "stateMutability": "view",
      "type": "function"
    },
    {
      "inputs": [],
      "name": "totalShares",
      "outputs": [
        {
          "internalType": "uint256",
          "name": "",
          "type": "uint256"
        }
      ],
      "stateMutability": "view",
      "type": "function"
    },
    {
      "inputs": [
        {
          "internalType": "address",
          "name": "newOwner",
          "type": "address"
        }
      ],
      "name": "transferOwnership",
      "outputs": [],
      "stateMutability": "nonpayable",
      "type": "function"
    },
    {
      "inputs": [],
      "name": "treasury",
      "outputs": [
        {
          "internalType": "address",
          "name": "",
          "type": "address"
        }
      ],
      "stateMutability": "view",
      "type": "function"
    },
    {
      "inputs": [
        {
          "internalType": "uint256",
          "name": "newIndex",
          "type": "uint256"
        }
      ],
      "name": "updateStakingIndex",
      "outputs": [],
      "stateMutability": "nonpayable",
      "type": "function"
    },
    {
      "inputs": [],
      "name": "wston",
      "outputs": [
        {
          "internalType": "address",
          "name": "",
          "type": "address"
        }
      ],
      "stateMutability": "view",
      "type": "function"
    },
    {
      "inputs": [],
      "name": "wstonReserve",
      "outputs": [
        {
          "internalType": "uint256",
          "name": "",
          "type": "uint256"
        }
      ],
      "stateMutability": "view",
      "type": "function"
    }
  ],
  "bytecode": "0x60803461011357601f61154738819003918201601f19168301916001600160401b038311848410176101185780849260a094604052833981010312610113576100478161012e565b6100536020830161012e565b9060408301519060806100686060860161012e565b9401519233156100fa57600080546001600160a01b03198082163390811784556040519891956001600160a01b039592948694859391908416907f8be0079c531659141344cd1fd0a4f28419497f9722a3daafe3b4186f6b6457e09080a36001805516856002541617600255168360035416176003551690600454161760045560055560085561140490816101438239f35b604051631e4fbdf760e01b815260006004820152602490fd5b600080fd5b634e487b7160e01b600052604160045260246000fd5b51906001600160a01b03821682036101135756fe608060408181526004908136101561001657600080fd5b600092833560e01c9081630183513914610edf575080630d727e2b14610c045780630fa40a1214610be75780631bbc46ac14610a755780632e0f262514610bc157806330f5085914610b5a57806336b17e1314610b985780633806223214610b795780633a98ef39146101c75780635074e0c814610b5a57806361d027b314610b32578063715018a614610ad85780637cad7e7c14610a9457806385ffa3de14610a755780638da5cb5b14610a4d578063978bbdb914610a2e5780639c8f9f23146109005780639cd441da1461056e578063a2681f0d146102f1578063c109a6dc146101ea578063caa78a861461024d578063cc48b94714610224578063d464017a146101ea578063d5002f2e146101c75763f2fde38b1461013757600080fd5b346101c35760203660031901126101c3576001600160a01b038235818116939192908490036101bf576101686113a2565b83156101a957505082546001600160a01b0319811683178455167f8be0079c531659141344cd1fd0a4f28419497f9722a3daafe3b4186f6b6457e08380a380f35b51631e4fbdf760e01b8152908101849052602490fd5b8480fd5b8280fd5b8382346101e657816003193601126101e657602090600b549051908152f35b5080fd5b5090346101c35760203660031901126101c357356001600160a01b038116908190036101c357828291602094526009845220549051908152f35b8382346101e657816003193601126101e65760025490516001600160a01b039091168152602090f35b50346101c35760203660031901126101c35781359161026a6113a2565b60055483106102a55750816020917f30ce0c4920695ae7b30f6304002cac26f3bffd83b1b84b281d4495ec83956c499360055551908152a180f35b6020608492519162461bcd60e51b8352820152602160248201527f63616e6e6f7420646563726561736520746865207374616b696e6720696e64656044820152600f60fb1b6064820152fd5b508290346101e657602090816003193601126101c3576003548151636eb1769f60e11b81526001600160a01b039182169386359290918281806103373033838e01610f64565b0381895afa8015610564578490889061052f575b61035792501015610f7e565b83516370a0823160e01b8082523389830152919083816024818a5afa801561052557859089906104f0575b61038e92501015610fc2565b633b9aca00676765c793fa10079d601b1b6103ab60055487611004565b0404956127106103bd60085489611004565b04986103c98a89611057565b938584600254169160248a5180948193825230878301525afa9081156104e6579089918b916104b1575b50106104705750610462927f77f92a1b6a1a11de8ca49515ad4c1fad45632dd3442167d74b90b304a3c7a758979899926104348761043f94309033906110d2565b339060025416611166565b61044b84600754611064565b60075561045a87600654611057565b6006556112a8565b82519485528401523392a280f35b865162461bcd60e51b8152908101859052601b60248201527a1513d38818985b185b98d9481d1bdbc81b1bddc81a5b881c1bdbdb602a1b6044820152606490fd5b809250878092503d83116104df575b6104ca8183610f2c565b810103126104db578890518c6103f3565b8980fd5b503d6104c0565b88513d8c823e3d90fd5b50508381813d831161051e575b6105078183610f2c565b8101031261051a578461038e9151610382565b8780fd5b503d6104fd565b86513d8a823e3d90fd5b50508281813d831161055d575b6105468183610f2c565b810103126105595783610357915161034b565b8680fd5b503d61053c565b85513d89823e3d90fd5b508290346101e657806003193601126101e65782359060246105ba81359160018060a01b039081600254168551636eb1769f60e11b908181528a81806020988993309033908401610f64565b0381865afa80156104e65789908b906108cf575b6105da92501015610f7e565b6105f9858b8660035416938a5193849283928352309033908401610f64565b0381855afa9081156104e6579087918b9161089e575b50106108625786516370a0823160e01b808252338c8301529086818681875afa9081156108585787928b8e9388938f91610819575b5090610651911015610fc2565b8a519485938492835233908301525afa90811561080f579086918a916107da575b50106107a0578661068691309033906110d2565b61069684303385600354166110d2565b33875260098352848720541561072e575b5050907fac1d76749e5447b7b16f5ab61447e1bd502f3bb4807af3b28e620d1700a6ee4592916106ff6106e0633b9aca00840487611064565b338852600983528488206106f5828254611064565b9055600b54611064565b600b5561070e85600654611064565b60065561071d82600754611064565b60075582519485528401523392a280f35b600a5497600160401b89101561078f5750506107738760017fac1d76749e5447b7b16f5ab61447e1bd502f3bb4807af3b28e620d1700a6ee4597989901600a55610efb565b819291549060031b9133831b921b1916179055859493876106a7565b634e487b7160e01b88526041905286fd5b855162461bcd60e51b8152808a01859052601581840152745753544f4e2062616c616e636520746f6f206c6f7760581b6044820152606490fd5b809250868092503d8311610808575b6107f38183610f2c565b81010312610804578590518b610672565b8880fd5b503d6107e9565b87513d8b823e3d90fd5b9450505092905081813d8311610851575b6108348183610f2c565b8101031261084d578487926106518c8f94519091610644565b8a80fd5b503d61082a565b89513d8d823e3d90fd5b865162461bcd60e51b8152808b01869052601781850152765753544f4e20616c6c6f77616e636520746f6f206c6f7760481b6044820152606490fd5b809250878092503d83116108c8575b6108b78183610f2c565b810103126104db578690518c61060f565b503d6108ad565b50508581813d83116108f9575b6108e68183610f2c565b810103126104db57886105da91516105ce565b503d6108dc565b50346101c35760203660031901126101c35781359133845260096020528282852054106109f357507f96cd817c6329656790ef8fba7675405193677d39619571282f5e21f3a98cd0599061095660065484611004565b9261099d61097c61096a600b54809761104d565b9561097760075485611004565b61104d565b913387526009602052838720610993828254611057565b9055600b54611057565b600b556109ac84600654611057565b6006556109bb81600754611057565b6007556109e38160018060a01b036109d887338360025416611166565b339060035416611166565b815193845260208401523392a280f35b6020606492519162461bcd60e51b83528201526016602482015275496e73756666696369656e74204c502073686172657360501b6044820152fd5b8382346101e657816003193601126101e6576020906008549051908152f35b8382346101e657816003193601126101e657905490516001600160a01b039091168152602090f35b8382346101e657816003193601126101e6576020906007549051908152f35b5090346101c35760203660031901126101c3573591600a54831015610ad55750610abf602092610efb565b905491519160018060a01b039160031b1c168152f35b80fd5b8334610ad55780600319360112610ad557610af16113a2565b80546001600160a01b03198116825581906001600160a01b03167f8be0079c531659141344cd1fd0a4f28419497f9722a3daafe3b4186f6b6457e08280a380f35b5090346101c357826003193601126101c3575490516001600160a01b03909116815260209150f35b8382346101e657816003193601126101e6576020906005549051908152f35b8382346101e657816003193601126101e6576020906006549051908152f35b8382346101e657816003193601126101e65760035490516001600160a01b039091168152602090f35b8382346101e657816003193601126101e65751676765c793fa10079d601b1b8152602090f35b8382346101e657816003193601126101e657602090516127108152f35b508290346101e657602090816003193601126101c35783548435926001600160a01b039182163303610e87578160025416918351636eb1769f60e11b8152828180610c5230338d8401610f64565b0381875afa80156105645786908890610e56575b610c7292501015610f7e565b83516370a0823160e01b808252338983015291908381602481885afa80156105255787908990610e25575b610ca992501015610fc2565b633b9aca00808702908782041487151715610e12576a0c097ce7bc90715b34b9f160241b870290808204676765c793fa10079d601b1b1490151715610e1257600554610cf49161104d565b93612710610d0460085487611004565b0498610d108a87611057565b938584600354169160248a5180948193825230878301525afa9081156104e6579087918b91610de1575b5010610d9e575061046292879899926109d87f77f92a1b6a1a11de8ca49515ad4c1fad45632dd3442167d74b90b304a3c7a75899610d7b94309033906110d2565b610d8787600654611064565b600655610d9684600754611057565b6007556111b2565b865162461bcd60e51b8152908101859052601d60248201527f5753544f4e2062616c616e636520746f6f206c6f7720696e20706f6f6c0000006044820152606490fd5b809250878092503d8311610e0b575b610dfa8183610f2c565b810103126104db578690518c610d3a565b503d610df0565b634e487b7160e01b885260118952602488fd5b50508381813d8311610e4f575b610e3c8183610f2c565b8101031261051a5786610ca99151610c9d565b503d610e32565b50508281813d8311610e80575b610e6d8183610f2c565b810103126105595785610c729151610c66565b503d610e63565b8560849184519162461bcd60e51b8352820152602d60248201527f66756e6374696f6e2063616c6c61626c652066726f6d2074726561737572792060448201526c636f6e7472616374206f6e6c7960981b6064820152fd5b8490346101e657816003193601126101e6576020906006548152f35b600a54811015610f1657600a60005260206000200190600090565b634e487b7160e01b600052603260045260246000fd5b90601f8019910116810190811067ffffffffffffffff821117610f4e57604052565b634e487b7160e01b600052604160045260246000fd5b6001600160a01b0391821681529116602082015260400190565b15610f8557565b60405162461bcd60e51b8152602060048201526015602482015274544f4e20616c6c6f77616e636520746f6f206c6f7760581b6044820152606490fd5b15610fc957565b60405162461bcd60e51b8152602060048201526013602482015272544f4e2062616c616e636520746f6f206c6f7760681b6044820152606490fd5b8181029291811591840414171561101757565b634e487b7160e01b600052601160045260246000fd5b1561103757600090565b634e487b7160e01b600052601260045260246000fd5b8115611037570490565b9190820391821161101757565b9190820180921161101757565b90816020910312611089575180151581036110895790565b600080fd5b1561109557565b60405162461bcd60e51b8152602060048201526015602482015274151bdad95b881d1c985b9cd9995c8819985a5b1959605a1b6044820152606490fd5b6040516323b872dd60e01b81526001600160a01b03928316600482015292821660248401526044830193909352909160209183916064918391600091165af1801561115a576111299160009161112b575b5061108e565b565b61114d915060203d602011611153575b6111458183610f2c565b810190611071565b38611123565b503d61113b565b6040513d6000823e3d90fd5b60405163a9059cbb60e01b81526001600160a01b039283166004820152602481019390935260209183916044918391600091165af1801561115a576111299160009161112b575061108e565b90600b91600b54156112a35760005b600a5481101561126c576111d481610efb565b9054600391821b1c6001600160a01b03908116600081815260096020526040902054919392919081158015611212575b5050505060019150016111c1565b6001171561101757600194611235895461097761122e8261102d565b958a611004565b9280611257575b5082156112045761124e935416611166565b38808080611204565b61126690838360025416611166565b3861123c565b507f49d512bf9cb224241c05691e73eb9fab078cf350c7dbcbcf66788f1fc0cc8b0b919250604090815190600082526020820152a1565b509050565b90600b91600b54156112a35760005b600a5481101561136b576112ca81610efb565b9054600391821b1c6001600160a01b0390811660008181526009602052604090205491939291801591908215611309575b5050505060019150016112b7565b6113139087611004565b946113208954809761104d565b92600117156110175761133460019661102d565b9280611356575b5082156112fb5761134d935416611166565b388080806112fb565b61136590838360025416611166565b3861133b565b507f49d512bf9cb224241c05691e73eb9fab078cf350c7dbcbcf66788f1fc0cc8b0b919250604090815190815260006020820152a1565b6000546001600160a01b031633036113b657565b60405163118cdaa760e01b8152336004820152602490fdfea26469706673582212208d1ab27335078b80f018fe4ad1c23fe078c2439b81cd560f9873f913f4f91aa364736f6c63430008190033",
  "linkReferences": {},
  "deployedLinkReferences": {}
}