{
  "_format": "hh-sol-artifact-1",
  "contractName": "Candidate",
  "sourceName": "src/L1/Mock/Candidate.sol",
  "abi": [
    {
      "inputs": [],
      "name": "AccessControlBadConfirmation",
      "type": "error"
    },
    {
      "inputs": [
        {
          "internalType": "address",
          "name": "account",
          "type": "address"
        },
        {
          "internalType": "bytes32",
          "name": "neededRole",
          "type": "bytes32"
        }
      ],
      "name": "AccessControlUnauthorizedAccount",
      "type": "error"
    },
    {
      "anonymous": false,
      "inputs": [
        {
          "indexed": true,
          "internalType": "bytes32",
          "name": "role",
          "type": "bytes32"
        },
        {
          "indexed": true,
          "internalType": "bytes32",
          "name": "previousAdminRole",
          "type": "bytes32"
        },
        {
          "indexed": true,
          "internalType": "bytes32",
          "name": "newAdminRole",
          "type": "bytes32"
        }
      ],
      "name": "RoleAdminChanged",
      "type": "event"
    },
    {
      "anonymous": false,
      "inputs": [
        {
          "indexed": true,
          "internalType": "bytes32",
          "name": "role",
          "type": "bytes32"
        },
        {
          "indexed": true,
          "internalType": "address",
          "name": "account",
          "type": "address"
        },
        {
          "indexed": true,
          "internalType": "address",
          "name": "sender",
          "type": "address"
        }
      ],
      "name": "RoleGranted",
      "type": "event"
    },
    {
      "anonymous": false,
      "inputs": [
        {
          "indexed": true,
          "internalType": "bytes32",
          "name": "role",
          "type": "bytes32"
        },
        {
          "indexed": true,
          "internalType": "address",
          "name": "account",
          "type": "address"
        },
        {
          "indexed": true,
          "internalType": "address",
          "name": "sender",
          "type": "address"
        }
      ],
      "name": "RoleRevoked",
      "type": "event"
    },
    {
      "anonymous": false,
      "inputs": [
        {
          "indexed": false,
          "internalType": "address",
          "name": "from",
          "type": "address"
        },
        {
          "indexed": false,
          "internalType": "address",
          "name": "to",
          "type": "address"
        },
        {
          "indexed": false,
          "internalType": "uint256",
          "name": "amount",
          "type": "uint256"
        }
      ],
      "name": "TransferCoinage",
      "type": "event"
    },
    {
      "inputs": [],
      "name": "DEFAULT_ADMIN_ROLE",
      "outputs": [
        {
          "internalType": "bytes32",
          "name": "",
          "type": "bytes32"
        }
      ],
      "stateMutability": "view",
      "type": "function"
    },
    {
      "inputs": [],
      "name": "MINTER_ROLE",
      "outputs": [
        {
          "internalType": "bytes32",
          "name": "",
          "type": "bytes32"
        }
      ],
      "stateMutability": "view",
      "type": "function"
    },
    {
      "inputs": [
        {
          "internalType": "address",
          "name": "account",
          "type": "address"
        }
      ],
      "name": "addAdmin",
      "outputs": [],
      "stateMutability": "nonpayable",
      "type": "function"
    },
    {
      "inputs": [
        {
          "internalType": "address",
          "name": "",
          "type": "address"
        }
      ],
      "name": "aliveImplementation",
      "outputs": [
        {
          "internalType": "bool",
          "name": "",
          "type": "bool"
        }
      ],
      "stateMutability": "view",
      "type": "function"
    },
    {
      "inputs": [],
      "name": "candidate",
      "outputs": [
        {
          "internalType": "address",
          "name": "",
          "type": "address"
        }
      ],
      "stateMutability": "view",
      "type": "function"
    },
    {
      "inputs": [
        {
          "internalType": "uint256",
          "name": "_agendaID",
          "type": "uint256"
        },
        {
          "internalType": "uint256",
          "name": "_vote",
          "type": "uint256"
        },
        {
          "internalType": "string",
          "name": "_comment",
          "type": "string"
        }
      ],
      "name": "castVote",
      "outputs": [],
      "stateMutability": "nonpayable",
      "type": "function"
    },
    {
      "inputs": [
        {
          "internalType": "uint256",
          "name": "_memberIndex",
          "type": "uint256"
        }
      ],
      "name": "changeMember",
      "outputs": [
        {
          "internalType": "bool",
          "name": "",
          "type": "bool"
        }
      ],
      "stateMutability": "nonpayable",
      "type": "function"
    },
    {
      "inputs": [
        {
          "internalType": "address",
          "name": "_operator",
          "type": "address"
        }
      ],
      "name": "changeOperator",
      "outputs": [],
      "stateMutability": "nonpayable",
      "type": "function"
    },
    {
      "inputs": [],
      "name": "claimActivityReward",
      "outputs": [],
      "stateMutability": "nonpayable",
      "type": "function"
    },
    {
      "inputs": [],
      "name": "committee",
      "outputs": [
        {
          "internalType": "address",
          "name": "",
          "type": "address"
        }
      ],
      "stateMutability": "view",
      "type": "function"
    },
    {
      "inputs": [],
      "name": "currentFork",
      "outputs": [
        {
          "internalType": "uint256",
          "name": "",
          "type": "uint256"
        }
      ],
      "stateMutability": "pure",
      "type": "function"
    },
    {
      "inputs": [
        {
          "internalType": "bytes32",
          "name": "role",
          "type": "bytes32"
        }
      ],
      "name": "getRoleAdmin",
      "outputs": [
        {
          "internalType": "bytes32",
          "name": "",
          "type": "bytes32"
        }
      ],
      "stateMutability": "view",
      "type": "function"
    },
    {
      "inputs": [
        {
          "internalType": "bytes32",
          "name": "role",
          "type": "bytes32"
        },
        {
          "internalType": "address",
          "name": "account",
          "type": "address"
        }
      ],
      "name": "grantRole",
      "outputs": [],
      "stateMutability": "nonpayable",
      "type": "function"
    },
    {
      "inputs": [
        {
          "internalType": "bytes32",
          "name": "role",
          "type": "bytes32"
        },
        {
          "internalType": "address",
          "name": "account",
          "type": "address"
        }
      ],
      "name": "hasRole",
      "outputs": [
        {
          "internalType": "bool",
          "name": "",
          "type": "bool"
        }
      ],
      "stateMutability": "view",
      "type": "function"
    },
    {
      "inputs": [
        {
          "internalType": "address",
          "name": "_candidate",
          "type": "address"
        },
        {
          "internalType": "bool",
          "name": "_isLayer2Candidate",
          "type": "bool"
        },
        {
          "internalType": "string",
          "name": "_memo",
          "type": "string"
        },
        {
          "internalType": "address",
          "name": "_committee",
          "type": "address"
        },
        {
          "internalType": "address",
          "name": "_seigManager",
          "type": "address"
        }
      ],
      "name": "initialize",
      "outputs": [],
      "stateMutability": "nonpayable",
      "type": "function"
    },
    {
      "inputs": [
        {
          "internalType": "address",
          "name": "account",
          "type": "address"
        }
      ],
      "name": "isAdmin",
      "outputs": [
        {
          "internalType": "bool",
          "name": "",
          "type": "bool"
        }
      ],
      "stateMutability": "view",
      "type": "function"
    },
    {
      "inputs": [],
      "name": "isCandidateContract",
      "outputs": [
        {
          "internalType": "bool",
          "name": "",
          "type": "bool"
        }
      ],
      "stateMutability": "pure",
      "type": "function"
    },
    {
      "inputs": [],
      "name": "isCandidateFwContract",
      "outputs": [
        {
          "internalType": "bool",
          "name": "",
          "type": "bool"
        }
      ],
      "stateMutability": "pure",
      "type": "function"
    },
    {
      "inputs": [],
      "name": "isLayer2",
      "outputs": [
        {
          "internalType": "bool",
          "name": "",
          "type": "bool"
        }
      ],
      "stateMutability": "pure",
      "type": "function"
    },
    {
      "inputs": [],
      "name": "isLayer2Candidate",
      "outputs": [
        {
          "internalType": "bool",
          "name": "",
          "type": "bool"
        }
      ],
      "stateMutability": "view",
      "type": "function"
    },
    {
      "inputs": [],
      "name": "isOwner",
      "outputs": [
        {
          "internalType": "bool",
          "name": "",
          "type": "bool"
        }
      ],
      "stateMutability": "view",
      "type": "function"
    },
    {
      "inputs": [
        {
          "internalType": "uint256",
          "name": "",
          "type": "uint256"
        }
      ],
      "name": "lastEpoch",
      "outputs": [
        {
          "internalType": "uint256",
          "name": "",
          "type": "uint256"
        }
      ],
      "stateMutability": "pure",
      "type": "function"
    },
    {
      "inputs": [],
      "name": "memo",
      "outputs": [
        {
          "internalType": "string",
          "name": "",
          "type": "string"
        }
      ],
      "stateMutability": "view",
      "type": "function"
    },
    {
      "inputs": [],
      "name": "operator",
      "outputs": [
        {
          "internalType": "address",
          "name": "",
          "type": "address"
        }
      ],
      "stateMutability": "view",
      "type": "function"
    },
    {
      "inputs": [],
      "name": "pauseProxy",
      "outputs": [
        {
          "internalType": "bool",
          "name": "",
          "type": "bool"
        }
      ],
      "stateMutability": "view",
      "type": "function"
    },
    {
      "inputs": [
        {
          "internalType": "uint256",
          "name": "",
          "type": "uint256"
        }
      ],
      "name": "proxyImplementation",
      "outputs": [
        {
          "internalType": "address",
          "name": "",
          "type": "address"
        }
      ],
      "stateMutability": "view",
      "type": "function"
    },
    {
      "inputs": [
        {
          "internalType": "address",
          "name": "account",
          "type": "address"
        }
      ],
      "name": "removeAdmin",
      "outputs": [],
      "stateMutability": "nonpayable",
      "type": "function"
    },
    {
      "inputs": [],
      "name": "renounceOwnership",
      "outputs": [],
      "stateMutability": "nonpayable",
      "type": "function"
    },
    {
      "inputs": [
        {
          "internalType": "bytes32",
          "name": "role",
          "type": "bytes32"
        },
        {
          "internalType": "address",
          "name": "callerConfirmation",
          "type": "address"
        }
      ],
      "name": "renounceRole",
      "outputs": [],
      "stateMutability": "nonpayable",
      "type": "function"
    },
    {
      "inputs": [],
      "name": "retireMember",
      "outputs": [
        {
          "internalType": "bool",
          "name": "",
          "type": "bool"
        }
      ],
      "stateMutability": "nonpayable",
      "type": "function"
    },
    {
      "inputs": [
        {
          "internalType": "bytes32",
          "name": "role",
          "type": "bytes32"
        },
        {
          "internalType": "address",
          "name": "account",
          "type": "address"
        }
      ],
      "name": "revokeRole",
      "outputs": [],
      "stateMutability": "nonpayable",
      "type": "function"
    },
    {
      "inputs": [],
      "name": "seigManager",
      "outputs": [
        {
          "internalType": "address",
          "name": "",
          "type": "address"
        }
      ],
      "stateMutability": "view",
      "type": "function"
    },
    {
      "inputs": [
        {
          "internalType": "bytes4",
          "name": "",
          "type": "bytes4"
        }
      ],
      "name": "selectorImplementation",
      "outputs": [
        {
          "internalType": "address",
          "name": "",
          "type": "address"
        }
      ],
      "stateMutability": "view",
      "type": "function"
    },
    {
      "inputs": [
        {
          "internalType": "address",
          "name": "_committee",
          "type": "address"
        }
      ],
      "name": "setCommittee",
      "outputs": [],
      "stateMutability": "nonpayable",
      "type": "function"
    },
    {
      "inputs": [
        {
          "internalType": "string",
          "name": "_memo",
          "type": "string"
        }
      ],
      "name": "setMemo",
      "outputs": [],
      "stateMutability": "nonpayable",
      "type": "function"
    },
    {
      "inputs": [
        {
          "internalType": "address",
          "name": "_seigManager",
          "type": "address"
        }
      ],
      "name": "setSeigManager",
      "outputs": [],
      "stateMutability": "nonpayable",
      "type": "function"
    },
    {
      "inputs": [
        {
          "internalType": "address",
          "name": "_account",
          "type": "address"
        }
      ],
      "name": "stakedOf",
      "outputs": [
        {
          "internalType": "uint256",
          "name": "amount",
          "type": "uint256"
        }
      ],
      "stateMutability": "view",
      "type": "function"
    },
    {
      "inputs": [
        {
          "internalType": "bytes4",
          "name": "interfaceId",
          "type": "bytes4"
        }
      ],
      "name": "supportsInterface",
      "outputs": [
        {
          "internalType": "bool",
          "name": "",
          "type": "bool"
        }
      ],
      "stateMutability": "view",
      "type": "function"
    },
    {
      "inputs": [],
      "name": "totalStaked",
      "outputs": [
        {
          "internalType": "uint256",
          "name": "totalsupply",
          "type": "uint256"
        }
      ],
      "stateMutability": "view",
      "type": "function"
    },
    {
      "inputs": [
        {
          "internalType": "address",
          "name": "newAdmin",
          "type": "address"
        }
      ],
      "name": "transferAdmin",
      "outputs": [],
      "stateMutability": "nonpayable",
      "type": "function"
    },
    {
      "inputs": [
        {
          "internalType": "address",
          "name": "newAdmin",
          "type": "address"
        }
      ],
      "name": "transferOwnership",
      "outputs": [],
      "stateMutability": "nonpayable",
      "type": "function"
    },
    {
      "inputs": [],
      "name": "updateSeigniorage",
      "outputs": [
        {
          "internalType": "bool",
          "name": "",
          "type": "bool"
        }
      ],
      "stateMutability": "nonpayable",
      "type": "function"
    }
  ],
  "bytecode": "0x608080604052346051576301ffc9a760e01b60005260046020527f9fe05126d2d9ecf60592e254dead906a4b2e492f36cca727682c38e9008c6ac1805460ff19166001179055611b3690816100578239f35b600080fdfe60406080815260048036101561001457600080fd5b600091823560e01c806301ffc9a7146113ee57806306394c9b146113d457806311e4c914146113b757806311f19e04146112b15780631785f53c1461126d578063183d2d1c14611251578063248a9ca31461122657806324d7806c146111e057806324f99b1e146110a357806325d6086114610f845780632f2ff15d14610f5c5780633007097014610d4d57806336568abe14610d0657806350d2a27614610cc2578063550d01a314610c84578063570ca73514610b3a57806358c3b87014610b8957806363a8fd8914610b675780636c8381f814610b3a5780636fb7f55814610b115780637048027514610ab9578063715018a614610a7c57806375829def14610a40578063764a7856146109405780637657f20a146108f557806377ff21c414610624578063817b1cd214610866578063882eed2c14610624578381638bf7a3ab146106e3575080638f32d59b146106ae57806391d14854146106685780639b63826814610644578063a217fddf14610629578063acb4c06114610624578063af500ba314610584578063b911135f14610551578063bddae40e146104e957838163c4ef9c00146103b557508063d53913931461037a578063d547741f1461033c578063d864e7401461030f5763f2fde38b146101f257600080fd5b3461030b576020806003193601126103075761020c611466565b928480526005825282852033600052825261022d60ff8460002054166116ba565b8480526005825282852033600052825261024d60ff8460002054166116ba565b6001600160a01b03841680156102ca573314610290575060016102839392600561027e9387805252852001546117dc565b611820565b5061028d336117ae565b80f35b915162461bcd60e51b815291820152601660248201527520b1b1b2b9b9b4b136329d1039b0b6b29030b236b4b760511b6044820152606490fd5b50915162461bcd60e51b815291820152601860248201527741636365737369626c653a207a65726f206164647265737360401b6044820152606490fd5b8380fd5b8280fd5b83823461033857816003193601126103385760095490516001600160a01b039091168152602090f35b5080fd5b503461030b578060031936011261030b576103769135610371600161035f61147c565b938387526005602052862001546117dc565b6119b8565b5080f35b838234610338578160031936011261033857602090517ff0887ba65ee2024ea881d91b74c2450ef19e1557f03bed3ea9f16b037cbe2dc98152f35b929050346104e557826003193601126104e55760075460ff8116156104c557825163570ca73560e01b8152906001600160a01b039060209083908590829060081c85165afa9182156104bb579161041a9160209493879261048c575b50163314611637565b600954835162313be760ea1b8152948592918391906001600160a01b03165af19182156104825760209392610453575b50519015158152f35b610474919250833d851161047b575b61046c81836114e8565b8101906116a2565b903861044a565b503d610462565b81513d85823e3d90fd5b6104ad919250853d87116104b4575b6104a581836114e8565b810190611618565b9038610411565b503d61049b565b84513d87823e3d90fd5b602091906104e09060081c6001600160a01b031633146115ac565b61041a565b5050fd5b8382346103385760203660031901126103385761052660ff610509611466565b9284805260056020528085203360005260205260002054166116ba565b6001600160a01b031661053a811515611767565b600980546001600160a01b03191691909117905580f35b50903461030b57602036600319011261030b5735825260016020908152918190205490516001600160a01b039091168152f35b50829034610338576020928360031936011261030b57836105a3611466565b6001600160a01b0390602490826105b8611a2f565b16865195869485936370a0823160e01b855216908301525afa92831561061957926105e5575b5051908152f35b9091508281813d8311610612575b6105fd81836114e8565b8101031261060d575190836105de565b600080fd5b503d6105f3565b8251903d90823e3d90fd5b611543565b83823461033857816003193601126103385751908152602090f35b83823461033857816003193601126103385760209060ff6007541690519015158152f35b50903461030b578160031936011261030b578160209361068661147c565b9235815260058552209060018060a01b0316600052825260ff81600020541690519015158152f35b83823461033857816003193601126103385780828060209452600584522033600052825260ff81600020541690519015158152f35b808484346104e557826003193601126104e55760075460ff81168381156108475750825163570ca73560e01b81526001600160a01b036020828781600888901c85165afa91821561083d57916107469187959493899261081c5750163314611637565b1561080957825163570ca73560e01b815291602091839190829060081c6001600160a01b03165afa9081156107ff5784916107e0575b505b6009546001600160a01b03908116803b156107dc5785928360249286519788958694636becff2760e01b865216908401525af19081156107d357506107c05750f35b6107c9906114bf565b6107d05780f35b80fd5b513d84823e3d90fd5b8580fd5b6107f9915060203d6020116104b4576104a581836114e8565b8561077c565b82513d86823e3d90fd5b60081c6001600160a01b0316905061077e565b61083691925060203d6020116104b4576104a581836114e8565b908a610411565b85513d89823e3d90fd5b9190610861600883901c6001600160a01b031633146115ac565b610746565b5082903461033857816003193601126103385760206001600160a01b0361088b611a2f565b168251948580926318160ddd60e01b82525afa9182156108ea57916108b5575b6020925051908152f35b90506020823d6020116108e2575b816108d0602093836114e8565b8101031261060d5760209151906108ab565b3d91506108c3565b9051903d90823e3d90fd5b8382346103385760203660031901126103385761091560ff610509611466565b6001600160a01b0316610929811515611767565b600a80546001600160a01b03191691909117905580f35b5091346107d057806003193601126107d057600a546001600160a01b031680156109fd576020829184865180948193633b253c2b60e11b83525af19182156109f257916109d3575b5015610998576020825160018152f35b6020606492519162461bcd60e51b835282015260166024820152756661696c20757064617465536569676e696f7261676560501b6044820152fd5b6109ec915060203d60201161047b5761046c81836114e8565b38610988565b8451903d90823e3d90fd5b835162461bcd60e51b8152602081850152601e60248201527f43616e6469646174653a20536569674d616e61676572206973207a65726f00006044820152606490fd5b503461030b5760208060031936011261030757610a5b611466565b928480526005825282852033600052825261024d60ff8460002054166116ba565b83823461033857816003193601126103385760ff610ab09183805260056020528084203360005260205260002054166116ba565b61028d336117ae565b838234610338576020366003190112610338576103769061027e6001610add611466565b92858052600560205280862033600052602052610b0060ff8260002054166116ba565b8580526005602052852001546117dc565b838234610338578160031936011261033857600a5490516001600160a01b039091168152602090f35b838234610338578160031936011261033857600754905160089190911c6001600160a01b03168152602090f35b83823461033857816003193601126103385760ff602092541690519015158152f35b83823461033857816003193601126103385780518260085482610bab82611509565b958682526020968793600190600181169081600014610c635750600114610c25575b5050610bdf92509593929503826114e8565b82519382859384528251928382860152825b848110610c0f57505050828201840152601f01601f19168101030190f35b8181018301518882018801528795508201610bf1565b600886528486209492508591905b818310610c4b575088945050820101610bdf88610bcd565b85548884018501529485019487945091830191610c33565b915050610bdf94925060ff191682840152151560051b820101869288610bcd565b8382346103385760203660031901126103385760209160ff9082906001600160a01b03610caf611466565b1681526002855220541690519015158152f35b50903461030b57602036600319011261030b573563ffffffff60e01b811680910361030b57825260036020908152918190205490516001600160a01b039091168152f35b50829034610338578060031936011261033857610d2161147c565b90336001600160a01b03831603610d3e57506103769192356119b8565b5163334bd91960e11b81528390fd5b508290346103385760a036600319011261033857610d69611466565b906024359182151580930361030757604435946001600160401b03938487116107dc57366023880112156107dc578682013592858411610f4957602093601f19955198610dbd8688601f850116018b6114e8565b818a523660248383010111610f45578189926024889301838d01378a0101526001600160a01b039160643583811692919083900361060d576084359380851680950361060d57821615801590610f3c575b8015610f33575b610e1e90611767565b60ff600754911691610100600160a81b039060081b169060018060a81b031916171760075560018060a01b031990816009541617600955600a541617600a558551938411610f205750610e7b83610e76600854611509565b611711565b8091601f8411600114610ebe57505081908394610ead9492610eb3575b50508160011b916000199060031b1c19161790565b60085580f35b015190508480610e98565b839291921694600885528285209285905b878210610f08575050836001959610610eef575b505050811b0160085580f35b015160001960f88460031b161c19169055838080610ee3565b80600185968294968601518155019501930190610ecf565b634e487b7160e01b855260419052602484fd5b50831515610e15565b50821515610e0e565b8880fd5b634e487b7160e01b875260418352602487fd5b503461030b578060031936011261030b576103769135610f7f600161035f61147c565b6118ad565b5082346107d05760209182600319360112610338578335936001600160401b0380861161030757610fdc610fbf60ff95969736908501611492565b9590948780526005895280882033600052895260002054166116ba565b83116110905750610ff282610e76600854611509565b8293601f831160011461102d575082938291610ead94926110225750508160011b916000199060031b1c19161790565b013590508480610e98565b90601f19831694600885528285209285905b87821061107857505083600195961061105e57505050811b0160085580f35b0135600019600384901b60f8161c19169055838080610ee3565b8060018496829495870135815501950192019061103f565b634e487b7160e01b845260419052602483fd5b503461030b57606036600319011261030b57826044356001600160401b038111610338576110d49036908501611492565b939060075460ff81166000146111c457845163570ca73560e01b8152906001600160a01b039060209083908690829060081c85165afa9182156111ba5790611126929186926111a05750163314611637565b6009546001600160a01b031690813b1561030757836084879487519889968795869363127ccd8f60e11b8552803590850152602435602485015260606044850152816064850152848401378181018301849052601f01601f191681010301925af19081156107d35750611197575080f35b61028d906114bf565b6104ad91925060203d6020116104b4576104a581836114e8565b86513d87823e3d90fd5b6111db9060081c6001600160a01b031633146115ac565b611126565b8382346103385760203660031901126103385760ff81602093611201611466565b818052600586528282206001600160a01b039091168252855220549151911615158152f35b50903461030b57602036600319011261030b5781602093600192358152600585522001549051908152f35b8382346103385781600319360112610338576020905160018152f35b8382346103385760203660031901126103385761028d906112ac60ff611291611466565b928580526005602052808620338752602052852054166116ba565b6117ae565b50829034610338576020928360031936011261030b57836007548460ff82166000146113995750835163570ca73560e01b8152916001600160a01b039183908590829060081c85165afa9182156104bb57869286949261131a92869261137a5750163314611637565b600954845163047c678160e21b81528235928101929092529092839160249183916001600160a01b03165af1928315610619579261135b5750519015158152f35b611373919250833d851161047b5761046c81836114e8565b908361044a565b611392919250853d87116104b4576104a581836114e8565b9089610411565b92906113b29060081c6001600160a01b031633146115ac565b61131a565b838234610338576020366003190112610338576020905160018152f35b83346107d05760203660031901126107d057610376611466565b50903461030b57602036600319011261030b57359063ffffffff60e01b8216918281036103075760ff8285856020975260068752205416928315611437575b5050519015158152f35b919250637965db0b60e01b909114908115611456575b5090388061142d565b611460915061155f565b3861144d565b600435906001600160a01b038216820361060d57565b602435906001600160a01b038216820361060d57565b9181601f8401121561060d578235916001600160401b03831161060d576020838186019501011161060d57565b6001600160401b0381116114d257604052565b634e487b7160e01b600052604160045260246000fd5b90601f801991011681019081106001600160401b038211176114d257604052565b90600182811c92168015611539575b602083101461152357565b634e487b7160e01b600052602260045260246000fd5b91607f1691611518565b3461060d57600036600319011261060d57602060405160018152f35b6001600160e01b0319811660008181526006602052604090205460ff169190821561158957505090565b637965db0b60e01b149150811561159f575b5090565b6115a9915061155f565b90565b156115b357565b60405162461bcd60e51b815260206004820152603760248201527f43616e6469646174653a2073656e646572206973206e6f74207468652063616e604482015276191a59185d19481bd9881d1a1a5cc818dbdb9d1c9858dd604a1b6064820152608490fd5b9081602091031261060d57516001600160a01b038116810361060d5790565b1561163e57565b60405162461bcd60e51b815260206004820152603660248201527f43616e6469646174653a2073656e646572206973206e6f7420746865206f70656044820152751c985d1bdc881bd9881d1a1a5cc818dbdb9d1c9858dd60521b6064820152608490fd5b9081602091031261060d5751801515810361060d5790565b156116c157565b60405162461bcd60e51b815260206004820152602260248201527f41636365737369626c653a2043616c6c6572206973206e6f7420616e2061646d60448201526134b760f11b6064820152608490fd5b601f811161171d575050565b60009060086000526020600020906020601f850160051c8301941061175d575b601f0160051c01915b82811061175257505050565b818155600101611746565b909250829061173d565b1561176e57565b60405162461bcd60e51b815260206004820152601860248201527743616e6469646174653a20696e707574206973207a65726f60401b6044820152606490fd5b336001600160a01b038216036117ca576117c79061192d565b50565b60405163334bd91960e11b8152600490fd5b80600052600560205260406000203360005260205260ff60406000205416156118025750565b6044906040519063e2517d3f60e01b82523360048301526024820152fd5b6001600160a01b031660008181527f05b8ccbb9d4d8fb16ea74ce3c29a41f1b461fbdaff4714a0d9a8eb05499746bc602052604081205490919060ff1661159b5781805260056020526040822081835260205260408220600160ff1982541617905533917f2f8788117e7eff1d82e926ec794901d17c78024a50270940304540a733656f0d8180a4600190565b906000918083526005602052604083209160018060a01b03169182845260205260ff604084205416156000146119285780835260056020526040832082845260205260408320600160ff198254161790557f2f8788117e7eff1d82e926ec794901d17c78024a50270940304540a733656f0d339380a4600190565b505090565b6001600160a01b031660008181527f05b8ccbb9d4d8fb16ea74ce3c29a41f1b461fbdaff4714a0d9a8eb05499746bc602052604081205490919060ff161561159b578180526005602052604082208183526020526040822060ff19815416905533917ff6391f5c32d9c69d2a47ea670b442974b53935d1edc7fd64eb21e047a839171b8180a4600190565b906000918083526005602052604083209160018060a01b03169182845260205260ff604084205416600014611928578083526005602052604083208284526020526040832060ff1981541690557ff6391f5c32d9c69d2a47ea670b442974b53935d1edc7fd64eb21e047a839171b339380a4600190565b60075460ff811615611af95760081c6001600160a01b03165b6001600160a01b039081168015611ab757602082600a541691602460405180948193634c063c1960e01b835260048301525afa908115611aab57600091611a8e57501690565b611aa7915060203d6020116104b4576104a581836114e8565b1690565b6040513d6000823e3d90fd5b60405162461bcd60e51b815260206004820152601a60248201527943616e6469646174653a20636f696e616765206973207a65726f60301b6044820152606490fd5b5030611a4856fea2646970667358221220d34234e186da24969dc6ad04594c4d0dea194c16f30b341aa455e9412b98d6ac64736f6c63430008190033",
  "linkReferences": {},
  "deployedLinkReferences": {}
}