{
  "_format": "hh-sol-artifact-1",
  "contractName": "Candidate",
  "sourceName": "src/L1/Mock/Candidate.sol",
  "abi": [
    {
      "inputs": [],
      "name": "AccessControlBadConfirmation",
      "type": "error"
    },
    {
      "inputs": [
        {
          "internalType": "address",
          "name": "account",
          "type": "address"
        },
        {
          "internalType": "bytes32",
          "name": "neededRole",
          "type": "bytes32"
        }
      ],
      "name": "AccessControlUnauthorizedAccount",
      "type": "error"
    },
    {
      "anonymous": false,
      "inputs": [
        {
          "indexed": true,
          "internalType": "bytes32",
          "name": "role",
          "type": "bytes32"
        },
        {
          "indexed": true,
          "internalType": "bytes32",
          "name": "previousAdminRole",
          "type": "bytes32"
        },
        {
          "indexed": true,
          "internalType": "bytes32",
          "name": "newAdminRole",
          "type": "bytes32"
        }
      ],
      "name": "RoleAdminChanged",
      "type": "event"
    },
    {
      "anonymous": false,
      "inputs": [
        {
          "indexed": true,
          "internalType": "bytes32",
          "name": "role",
          "type": "bytes32"
        },
        {
          "indexed": true,
          "internalType": "address",
          "name": "account",
          "type": "address"
        },
        {
          "indexed": true,
          "internalType": "address",
          "name": "sender",
          "type": "address"
        }
      ],
      "name": "RoleGranted",
      "type": "event"
    },
    {
      "anonymous": false,
      "inputs": [
        {
          "indexed": true,
          "internalType": "bytes32",
          "name": "role",
          "type": "bytes32"
        },
        {
          "indexed": true,
          "internalType": "address",
          "name": "account",
          "type": "address"
        },
        {
          "indexed": true,
          "internalType": "address",
          "name": "sender",
          "type": "address"
        }
      ],
      "name": "RoleRevoked",
      "type": "event"
    },
    {
      "anonymous": false,
      "inputs": [
        {
          "indexed": false,
          "internalType": "address",
          "name": "from",
          "type": "address"
        },
        {
          "indexed": false,
          "internalType": "address",
          "name": "to",
          "type": "address"
        },
        {
          "indexed": false,
          "internalType": "uint256",
          "name": "amount",
          "type": "uint256"
        }
      ],
      "name": "TransferCoinage",
      "type": "event"
    },
    {
      "inputs": [],
      "name": "DEFAULT_ADMIN_ROLE",
      "outputs": [
        {
          "internalType": "bytes32",
          "name": "",
          "type": "bytes32"
        }
      ],
      "stateMutability": "view",
      "type": "function"
    },
    {
      "inputs": [],
      "name": "MINTER_ROLE",
      "outputs": [
        {
          "internalType": "bytes32",
          "name": "",
          "type": "bytes32"
        }
      ],
      "stateMutability": "view",
      "type": "function"
    },
    {
      "inputs": [
        {
          "internalType": "address",
          "name": "account",
          "type": "address"
        }
      ],
      "name": "addAdmin",
      "outputs": [],
      "stateMutability": "nonpayable",
      "type": "function"
    },
    {
      "inputs": [
        {
          "internalType": "address",
          "name": "",
          "type": "address"
        }
      ],
      "name": "aliveImplementation",
      "outputs": [
        {
          "internalType": "bool",
          "name": "",
          "type": "bool"
        }
      ],
      "stateMutability": "view",
      "type": "function"
    },
    {
      "inputs": [],
      "name": "candidate",
      "outputs": [
        {
          "internalType": "address",
          "name": "",
          "type": "address"
        }
      ],
      "stateMutability": "view",
      "type": "function"
    },
    {
      "inputs": [
        {
          "internalType": "uint256",
          "name": "_agendaID",
          "type": "uint256"
        },
        {
          "internalType": "uint256",
          "name": "_vote",
          "type": "uint256"
        },
        {
          "internalType": "string",
          "name": "_comment",
          "type": "string"
        }
      ],
      "name": "castVote",
      "outputs": [],
      "stateMutability": "nonpayable",
      "type": "function"
    },
    {
      "inputs": [
        {
          "internalType": "uint256",
          "name": "_memberIndex",
          "type": "uint256"
        }
      ],
      "name": "changeMember",
      "outputs": [
        {
          "internalType": "bool",
          "name": "",
          "type": "bool"
        }
      ],
      "stateMutability": "nonpayable",
      "type": "function"
    },
    {
      "inputs": [
        {
          "internalType": "address",
          "name": "_operator",
          "type": "address"
        }
      ],
      "name": "changeOperator",
      "outputs": [],
      "stateMutability": "nonpayable",
      "type": "function"
    },
    {
      "inputs": [],
      "name": "claimActivityReward",
      "outputs": [],
      "stateMutability": "nonpayable",
      "type": "function"
    },
    {
      "inputs": [],
      "name": "committee",
      "outputs": [
        {
          "internalType": "address",
          "name": "",
          "type": "address"
        }
      ],
      "stateMutability": "view",
      "type": "function"
    },
    {
      "inputs": [],
      "name": "currentFork",
      "outputs": [
        {
          "internalType": "uint256",
          "name": "",
          "type": "uint256"
        }
      ],
      "stateMutability": "pure",
      "type": "function"
    },
    {
      "inputs": [
        {
          "internalType": "bytes32",
          "name": "role",
          "type": "bytes32"
        }
      ],
      "name": "getRoleAdmin",
      "outputs": [
        {
          "internalType": "bytes32",
          "name": "",
          "type": "bytes32"
        }
      ],
      "stateMutability": "view",
      "type": "function"
    },
    {
      "inputs": [
        {
          "internalType": "bytes32",
          "name": "role",
          "type": "bytes32"
        },
        {
          "internalType": "address",
          "name": "account",
          "type": "address"
        }
      ],
      "name": "grantRole",
      "outputs": [],
      "stateMutability": "nonpayable",
      "type": "function"
    },
    {
      "inputs": [
        {
          "internalType": "bytes32",
          "name": "role",
          "type": "bytes32"
        },
        {
          "internalType": "address",
          "name": "account",
          "type": "address"
        }
      ],
      "name": "hasRole",
      "outputs": [
        {
          "internalType": "bool",
          "name": "",
          "type": "bool"
        }
      ],
      "stateMutability": "view",
      "type": "function"
    },
    {
      "inputs": [
        {
          "internalType": "address",
          "name": "_candidate",
          "type": "address"
        },
        {
          "internalType": "bool",
          "name": "_isLayer2Candidate",
          "type": "bool"
        },
        {
          "internalType": "string",
          "name": "_memo",
          "type": "string"
        },
        {
          "internalType": "address",
          "name": "_committee",
          "type": "address"
        },
        {
          "internalType": "address",
          "name": "_seigManager",
          "type": "address"
        }
      ],
      "name": "initialize",
      "outputs": [],
      "stateMutability": "nonpayable",
      "type": "function"
    },
    {
      "inputs": [
        {
          "internalType": "address",
          "name": "account",
          "type": "address"
        }
      ],
      "name": "isAdmin",
      "outputs": [
        {
          "internalType": "bool",
          "name": "",
          "type": "bool"
        }
      ],
      "stateMutability": "view",
      "type": "function"
    },
    {
      "inputs": [],
      "name": "isCandidateContract",
      "outputs": [
        {
          "internalType": "bool",
          "name": "",
          "type": "bool"
        }
      ],
      "stateMutability": "pure",
      "type": "function"
    },
    {
      "inputs": [],
      "name": "isCandidateFwContract",
      "outputs": [
        {
          "internalType": "bool",
          "name": "",
          "type": "bool"
        }
      ],
      "stateMutability": "pure",
      "type": "function"
    },
    {
      "inputs": [],
      "name": "isLayer2",
      "outputs": [
        {
          "internalType": "bool",
          "name": "",
          "type": "bool"
        }
      ],
      "stateMutability": "pure",
      "type": "function"
    },
    {
      "inputs": [],
      "name": "isLayer2Candidate",
      "outputs": [
        {
          "internalType": "bool",
          "name": "",
          "type": "bool"
        }
      ],
      "stateMutability": "view",
      "type": "function"
    },
    {
      "inputs": [],
      "name": "isOwner",
      "outputs": [
        {
          "internalType": "bool",
          "name": "",
          "type": "bool"
        }
      ],
      "stateMutability": "view",
      "type": "function"
    },
    {
      "inputs": [
        {
          "internalType": "uint256",
          "name": "",
          "type": "uint256"
        }
      ],
      "name": "lastEpoch",
      "outputs": [
        {
          "internalType": "uint256",
          "name": "",
          "type": "uint256"
        }
      ],
      "stateMutability": "pure",
      "type": "function"
    },
    {
      "inputs": [],
      "name": "memo",
      "outputs": [
        {
          "internalType": "string",
          "name": "",
          "type": "string"
        }
      ],
      "stateMutability": "view",
      "type": "function"
    },
    {
      "inputs": [],
      "name": "operator",
      "outputs": [
        {
          "internalType": "address",
          "name": "",
          "type": "address"
        }
      ],
      "stateMutability": "view",
      "type": "function"
    },
    {
      "inputs": [],
      "name": "pauseProxy",
      "outputs": [
        {
          "internalType": "bool",
          "name": "",
          "type": "bool"
        }
      ],
      "stateMutability": "view",
      "type": "function"
    },
    {
      "inputs": [
        {
          "internalType": "uint256",
          "name": "",
          "type": "uint256"
        }
      ],
      "name": "proxyImplementation",
      "outputs": [
        {
          "internalType": "address",
          "name": "",
          "type": "address"
        }
      ],
      "stateMutability": "view",
      "type": "function"
    },
    {
      "inputs": [
        {
          "internalType": "address",
          "name": "account",
          "type": "address"
        }
      ],
      "name": "removeAdmin",
      "outputs": [],
      "stateMutability": "nonpayable",
      "type": "function"
    },
    {
      "inputs": [],
      "name": "renounceOwnership",
      "outputs": [],
      "stateMutability": "nonpayable",
      "type": "function"
    },
    {
      "inputs": [
        {
          "internalType": "bytes32",
          "name": "role",
          "type": "bytes32"
        },
        {
          "internalType": "address",
          "name": "callerConfirmation",
          "type": "address"
        }
      ],
      "name": "renounceRole",
      "outputs": [],
      "stateMutability": "nonpayable",
      "type": "function"
    },
    {
      "inputs": [],
      "name": "retireMember",
      "outputs": [
        {
          "internalType": "bool",
          "name": "",
          "type": "bool"
        }
      ],
      "stateMutability": "nonpayable",
      "type": "function"
    },
    {
      "inputs": [
        {
          "internalType": "bytes32",
          "name": "role",
          "type": "bytes32"
        },
        {
          "internalType": "address",
          "name": "account",
          "type": "address"
        }
      ],
      "name": "revokeRole",
      "outputs": [],
      "stateMutability": "nonpayable",
      "type": "function"
    },
    {
      "inputs": [],
      "name": "seigManager",
      "outputs": [
        {
          "internalType": "address",
          "name": "",
          "type": "address"
        }
      ],
      "stateMutability": "view",
      "type": "function"
    },
    {
      "inputs": [
        {
          "internalType": "bytes4",
          "name": "",
          "type": "bytes4"
        }
      ],
      "name": "selectorImplementation",
      "outputs": [
        {
          "internalType": "address",
          "name": "",
          "type": "address"
        }
      ],
      "stateMutability": "view",
      "type": "function"
    },
    {
      "inputs": [
        {
          "internalType": "address",
          "name": "_committee",
          "type": "address"
        }
      ],
      "name": "setCommittee",
      "outputs": [],
      "stateMutability": "nonpayable",
      "type": "function"
    },
    {
      "inputs": [
        {
          "internalType": "string",
          "name": "_memo",
          "type": "string"
        }
      ],
      "name": "setMemo",
      "outputs": [],
      "stateMutability": "nonpayable",
      "type": "function"
    },
    {
      "inputs": [
        {
          "internalType": "address",
          "name": "_seigManager",
          "type": "address"
        }
      ],
      "name": "setSeigManager",
      "outputs": [],
      "stateMutability": "nonpayable",
      "type": "function"
    },
    {
      "inputs": [
        {
          "internalType": "address",
          "name": "_account",
          "type": "address"
        }
      ],
      "name": "stakedOf",
      "outputs": [
        {
          "internalType": "uint256",
          "name": "amount",
          "type": "uint256"
        }
      ],
      "stateMutability": "view",
      "type": "function"
    },
    {
      "inputs": [
        {
          "internalType": "bytes4",
          "name": "interfaceId",
          "type": "bytes4"
        }
      ],
      "name": "supportsInterface",
      "outputs": [
        {
          "internalType": "bool",
          "name": "",
          "type": "bool"
        }
      ],
      "stateMutability": "view",
      "type": "function"
    },
    {
      "inputs": [],
      "name": "totalStaked",
      "outputs": [
        {
          "internalType": "uint256",
          "name": "totalsupply",
          "type": "uint256"
        }
      ],
      "stateMutability": "view",
      "type": "function"
    },
    {
      "inputs": [
        {
          "internalType": "address",
          "name": "newAdmin",
          "type": "address"
        }
      ],
      "name": "transferAdmin",
      "outputs": [],
      "stateMutability": "nonpayable",
      "type": "function"
    },
    {
      "inputs": [
        {
          "internalType": "address",
          "name": "newAdmin",
          "type": "address"
        }
      ],
      "name": "transferOwnership",
      "outputs": [],
      "stateMutability": "nonpayable",
      "type": "function"
    },
    {
      "inputs": [],
      "name": "updateSeigniorage",
      "outputs": [
        {
          "internalType": "bool",
          "name": "",
          "type": "bool"
        }
      ],
      "stateMutability": "nonpayable",
      "type": "function"
    }
  ],
  "bytecode": "0x60808060405234601557611ab6908161001b8239f35b600080fdfe608060409080825260048036101561001657600080fd5b600091823560e01c90816301ffc9a7146113bd5750806306394c9b146113a357806311e4c9141461138657806311f19e04146112bf5780631785f53c1461127c578063183d2d1c14611260578063248a9ca31461123557806324d7806c146111ee57806324f99b1e146110a957806325d6086114610f8a5780632f2ff15d14610f5e5780633007097014610d4157806336568abe14610cfb57806350d2a27614610cb6578063550d01a314610c78578063570ca73514610b2e57806358c3b87014610b7d57806363a8fd8914610b5b5780636c8381f814610b2e5780636fb7f55814610b055780637048027514610aaf578063715018a614610a7257806375829def14610a36578063764a7856146109365780637657f20a146108ea57806377ff21c414610621578063817b1cd21461085c578063882eed2c146106215780638bf7a3ab146106e05780638f32d59b146106ab57806391d14854146106655780639b63826814610641578063a217fddf14610626578063acb4c06114610621578063af500ba314610582578063b911135f1461054e578063bddae40e146104e7578063c4ef9c00146103b2578063d539139314610377578063d547741f14610337578063d864e7401461030e5763f2fde38b146101f257600080fd5b3461030a57602090816003193601126103065761020d61142f565b9183805281815284842033600052815261022d60ff866000205416611636565b83805281815284842033600052815261024c60ff866000205416611636565b6001600160a01b03831680156102c857331461028d57839461027b926001928661028097525285200154611758565b61179c565b5061028a3361172a565b80f35b845162461bcd60e51b815291820152601660248201527520b1b1b2b9b9b4b136329d1039b0b6b29030b236b4b760511b604482015260649150fd5b855162461bcd60e51b8152808401839052601860248201527741636365737369626c653a207a65726f206164647265737360401b6044820152606490fd5b8280fd5b5080fd5b82843461030a578160031936011261030a5760085490516001600160a01b039091168152602090f35b508290346103065781600319360112610306576103739161036e600183359261035e611445565b9484885260205286200154611758565b611938565b5080f35b82843461030a578160031936011261030a57602090517ff0887ba65ee2024ea881d91b74c2450ef19e1557f03bed3ea9f16b037cbe2dc98152f35b50918192346104e357826003193601126104e35760065460ff8116156104c357825163570ca73560e01b8152906001600160a01b039060209083908590829060081c85165afa9182156104b957916104189160209493879261048a575b501633146115b3565b600854835162313be760ea1b8152948592918391906001600160a01b03165af19182156104805760209392610451575b50519015158152f35b610472919250833d8511610479575b61046a81836114b1565b81019061161e565b9038610448565b503d610460565b81513d85823e3d90fd5b6104ab919250853d87116104b2575b6104a381836114b1565b810190611594565b903861040f565b503d610499565b84513d87823e3d90fd5b602091906104de9060081c6001600160a01b03163314611528565b610418565b5050fd5b5082346103065760203660031901126103065760ff6105239161050861142f565b93858052602052808520336000526020526000205416611636565b6001600160a01b03166105378115156116e3565b600880546001600160a01b03191691909117905580f35b508290346103065760203660031901126103065735825260016020908152918190205490516001600160a01b039091168152f35b50913461030a576020928360031936011261030657836105a061142f565b6001600160a01b0390602490826105b56119af565b16865195869485936370a0823160e01b855216908301525afa92831561061657926105e2575b5051908152f35b9091508281813d831161060f575b6105fa81836114b1565b8101031261060a575190386105db565b600080fd5b503d6105f0565b8251903d90823e3d90fd5b61150c565b82843461030a578160031936011261030a5751908152602090f35b82843461030a578160031936011261030a5760209060ff6006541690519015158152f35b5082903461030657816003193601126103065781602093610684611445565b92803582528552209060018060a01b0316600052825260ff81600020541690519015158152f35b50829034610306578260031936011261030657828291816020955284522033600052825260ff81600020541690519015158152f35b508192346104e357826003193601126104e35760065460ff811683811561083d5750825163570ca73560e01b81526001600160a01b036020828781600888901c85165afa91821561083357916107439187959493899261081957501633146115b3565b1561080657825163570ca73560e01b815291602091839190829060081c6001600160a01b03165afa9081156107fc5784916107dd575b505b6008546001600160a01b03908116803b156107d95785928360249286519788958694636becff2760e01b865216908401525af19081156107d057506107bd5750f35b6107c690611488565b6107cd5780f35b80fd5b513d84823e3d90fd5b8580fd5b6107f6915060203d6020116104b2576104a381836114b1565b38610779565b82513d86823e3d90fd5b60081c6001600160a01b0316905061077b565b6104ab91925060203d6020116104b2576104a381836114b1565b85513d89823e3d90fd5b9190610857600883901c6001600160a01b03163314611528565b610743565b50913461030a578160031936011261030a5760206001600160a01b036108806119af565b168251948580926318160ddd60e01b82525afa9182156108df57916108aa575b6020925051908152f35b90506020823d6020116108d7575b816108c5602093836114b1565b8101031261060a5760209151906108a0565b3d91506108b8565b9051903d90823e3d90fd5b5082346103065760203660031901126103065760ff61090b9161050861142f565b6001600160a01b031661091f8115156116e3565b600980546001600160a01b03191691909117905580f35b5090346107cd57806003193601126107cd576009546001600160a01b031680156109f3576020829184865180948193633b253c2b60e11b83525af19182156109e857916109c9575b501561098e576020825160018152f35b6020606492519162461bcd60e51b835282015260166024820152756661696c20757064617465536569676e696f7261676560501b6044820152fd5b6109e2915060203d6020116104795761046a81836114b1565b3861097e565b8451903d90823e3d90fd5b835162461bcd60e51b8152602081850152601e60248201527f43616e6469646174653a20536569674d616e61676572206973207a65726f00006044820152606490fd5b503461030a576020908160031936011261030657610a5261142f565b9183805281815284842033600052815261024c60ff866000205416611636565b50829034610306578260031936011261030657610aa69160ff91848052602052808420336000526020526000205416611636565b61028a3361172a565b508290346103065760203660031901126103065761027b600161037393610ad461142f565b938680528060205281872033600052602052610af660ff836000205416611636565b86805260205285200154611758565b82843461030a578160031936011261030a5760095490516001600160a01b039091168152602090f35b82843461030a578160031936011261030a57600654905160089190911c6001600160a01b03168152602090f35b82843461030a578160031936011261030a5760ff602092541690519015158152f35b82843461030a578160031936011261030a5780518260075482610b9f826114d2565b958682526020968793600190600181169081600014610c575750600114610c19575b5050610bd392509593929503826114b1565b82519382859384528251928382860152825b848110610c0357505050828201840152601f01601f19168101030190f35b8181018301518882018801528795508201610be5565b600786528486209492508591905b818310610c3f575088945050820101610bd388610bc1565b85548884018501529485019487945091830191610c27565b915050610bd394925060ff191682840152151560051b820101869288610bc1565b82843461030a57602036600319011261030a5760209160ff9082906001600160a01b03610ca361142f565b1681526002855220541690519015158152f35b50829034610306576020366003190112610306573563ffffffff60e01b811680910361030657825260036020908152918190205490516001600160a01b039091168152f35b50913461030a578060031936011261030a57610d15611445565b90336001600160a01b03831603610d325750610373919235611938565b5163334bd91960e11b81528390fd5b50913461030a5760a036600319011261030a57610d5c61142f565b9060243591821515809303610f5a57604435946001600160401b03938487116107d957366023880112156107d9578682013592858411610f4757602093601f19955198610db08688601f850116018b6114b1565b818a523660248383010111610f43578189926024889301838d01378a0101526001600160a01b039160643583811692919083900361060a576084359380851680950361060a57821615801590610f3a575b8015610f31575b610e11906116e3565b600680546001600160a81b031916600893841b610100600160a81b03161760ff9290921691909117905580546001600160a01b03199081169092179055600980549091169190911790558551938411610f1e5750610e7983610e746007546114d2565b61168d565b8091601f8411600114610ebc57505081908394610eab9492610eb1575b50508160011b916000199060031b1c19161790565b60075580f35b015190503880610e96565b839291921694600785528285209285905b878210610f06575050836001959610610eed575b505050811b0160075580f35b015160001960f88460031b161c19169055388080610ee1565b80600185968294968601518155019501930190610ecd565b634e487b7160e01b855260419052602484fd5b50831515610e08565b50821515610e01565b8880fd5b634e487b7160e01b875260418352602487fd5b8380fd5b5082903461030657816003193601126103065761037391610f85600183359261035e611445565b61182d565b509190346107cd576020918260031936011261030a578335936001600160401b03808611610f5a57610fe2610fc660ff9596973690850161145b565b9590948780528489528088203360005289526000205416611636565b83116110965750610ff882610e746007546114d2565b8293601f8311600114611033575082938291610eab94926110285750508160011b916000199060031b1c19161790565b013590503880610e96565b90601f19831694600785528285209285905b87821061107e57505083600195961061106457505050811b0160075580f35b0135600019600384901b60f8161c19169055388080610ee1565b80600184968294958701358155019501920190611045565b634e487b7160e01b845260419052602483fd5b50823461030657606036600319011261030657826044356001600160401b03811161030a576110db903690850161145b565b939060065460ff81166000146111d257845163570ca73560e01b8152906001600160a01b039060209083908690829060081c85165afa9182156111c8579061112d929186926111a757501633146115b3565b6008546001600160a01b031690813b15610f5a57836084879487519889968795869363127ccd8f60e11b8552803590850152602435602485015260606044850152816064850152848401378181018301849052601f01601f191681010301925af19081156107d0575061119e575080f35b61028a90611488565b6111c191925060203d6020116104b2576104a381836114b1565b908961040f565b86513d87823e3d90fd5b6111e99060081c6001600160a01b03163314611528565b61112d565b50829034610306576020366003190112610306578160209360ff9261121161142f565b8280529086528282206001600160a01b039091168252855220549151911615158152f35b5082903461030657602036600319011261030657816020938260019335825285522001549051908152f35b82843461030a578160031936011261030a576020905160018152f35b50829034610306576020366003190112610306576112ba60ff61028a936112a161142f565b9386805260205280862033875260205285205416611636565b61172a565b50913461030a576020928360031936011261030657836006548460ff82166000146113685750835163570ca73560e01b8152916001600160a01b039183908590829060081c85165afa9182156104b957869286949261132792869261048a57501633146115b3565b600854845163047c678160e21b81528235928101929092529092839160249183916001600160a01b03165af192831561061657926104515750519015158152f35b92906113819060081c6001600160a01b03163314611528565b611327565b82843461030a57602036600319011261030a576020905160018152f35b82346107cd5760203660031901126107cd5761037361142f565b9184915034610f5a576020366003190112610f5a57359063ffffffff60e01b8216809203610f5a5760ff9084836020965260058652205416908115611404575b5015158152f35b637965db0b60e01b81149150811561141e575b50836113fd565b6301ffc9a760e01b14905083611417565b600435906001600160a01b038216820361060a57565b602435906001600160a01b038216820361060a57565b9181601f8401121561060a578235916001600160401b03831161060a576020838186019501011161060a57565b6001600160401b03811161149b57604052565b634e487b7160e01b600052604160045260246000fd5b90601f801991011681019081106001600160401b0382111761149b57604052565b90600182811c92168015611502575b60208310146114ec57565b634e487b7160e01b600052602260045260246000fd5b91607f16916114e1565b3461060a57600036600319011261060a57602060405160018152f35b1561152f57565b60405162461bcd60e51b815260206004820152603760248201527f43616e6469646174653a2073656e646572206973206e6f74207468652063616e604482015276191a59185d19481bd9881d1a1a5cc818dbdb9d1c9858dd604a1b6064820152608490fd5b9081602091031261060a57516001600160a01b038116810361060a5790565b156115ba57565b60405162461bcd60e51b815260206004820152603660248201527f43616e6469646174653a2073656e646572206973206e6f7420746865206f70656044820152751c985d1bdc881bd9881d1a1a5cc818dbdb9d1c9858dd60521b6064820152608490fd5b9081602091031261060a5751801515810361060a5790565b1561163d57565b60405162461bcd60e51b815260206004820152602260248201527f41636365737369626c653a2043616c6c6572206973206e6f7420616e2061646d60448201526134b760f11b6064820152608490fd5b601f8111611699575050565b60009060076000526020600020906020601f850160051c830194106116d9575b601f0160051c01915b8281106116ce57505050565b8181556001016116c2565b90925082906116b9565b156116ea57565b60405162461bcd60e51b815260206004820152601860248201527743616e6469646174653a20696e707574206973207a65726f60401b6044820152606490fd5b336001600160a01b0382160361174657611743906118ad565b50565b60405163334bd91960e11b8152600490fd5b80600052600460205260406000203360005260205260ff604060002054161561177e5750565b6044906040519063e2517d3f60e01b82523360048301526024820152fd5b6001600160a01b031660008181527f17ef568e3e12ab5b9c7254a8d58478811de00f9e6eb34345acd53bf8fd09d3ec602052604081205490919060ff166118295781805260046020526040822081835260205260408220600160ff1982541617905533917f2f8788117e7eff1d82e926ec794901d17c78024a50270940304540a733656f0d8180a4600190565b5090565b906000918083526004602052604083209160018060a01b03169182845260205260ff604084205416156000146118a85780835260046020526040832082845260205260408320600160ff198254161790557f2f8788117e7eff1d82e926ec794901d17c78024a50270940304540a733656f0d339380a4600190565b505090565b6001600160a01b031660008181527f17ef568e3e12ab5b9c7254a8d58478811de00f9e6eb34345acd53bf8fd09d3ec602052604081205490919060ff1615611829578180526004602052604082208183526020526040822060ff19815416905533917ff6391f5c32d9c69d2a47ea670b442974b53935d1edc7fd64eb21e047a839171b8180a4600190565b906000918083526004602052604083209160018060a01b03169182845260205260ff6040842054166000146118a8578083526004602052604083208284526020526040832060ff1981541690557ff6391f5c32d9c69d2a47ea670b442974b53935d1edc7fd64eb21e047a839171b339380a4600190565b60065460ff811615611a795760081c6001600160a01b03165b6001600160a01b039081168015611a37576020826009541691602460405180948193634c063c1960e01b835260048301525afa908115611a2b57600091611a0e57501690565b611a27915060203d6020116104b2576104a381836114b1565b1690565b6040513d6000823e3d90fd5b60405162461bcd60e51b815260206004820152601a60248201527943616e6469646174653a20636f696e616765206973207a65726f60301b6044820152606490fd5b50306119c856fea264697066735822122060b599a0020b4e6d1a597c085979c2ec6e2cd1c6f16ac4c39de4073ccdc4d3a064736f6c63430008190033",
  "linkReferences": {},
  "deployedLinkReferences": {}
}