{
  "_format": "hh-sol-artifact-1",
  "contractName": "Proxy",
  "sourceName": "src/proxy/Proxy.sol",
  "abi": [
    {
      "inputs": [],
      "stateMutability": "nonpayable",
      "type": "constructor"
    },
    {
      "inputs": [],
      "name": "AccessControlBadConfirmation",
      "type": "error"
    },
    {
      "inputs": [
        {
          "internalType": "address",
          "name": "account",
          "type": "address"
        },
        {
          "internalType": "bytes32",
          "name": "neededRole",
          "type": "bytes32"
        }
      ],
      "name": "AccessControlUnauthorizedAccount",
      "type": "error"
    },
    {
      "inputs": [],
      "name": "SameAdmin",
      "type": "error"
    },
    {
      "inputs": [],
      "name": "ZeroAddress",
      "type": "error"
    },
    {
      "anonymous": false,
      "inputs": [
        {
          "indexed": true,
          "internalType": "bytes32",
          "name": "role",
          "type": "bytes32"
        },
        {
          "indexed": true,
          "internalType": "bytes32",
          "name": "previousAdminRole",
          "type": "bytes32"
        },
        {
          "indexed": true,
          "internalType": "bytes32",
          "name": "newAdminRole",
          "type": "bytes32"
        }
      ],
      "name": "RoleAdminChanged",
      "type": "event"
    },
    {
      "anonymous": false,
      "inputs": [
        {
          "indexed": true,
          "internalType": "bytes32",
          "name": "role",
          "type": "bytes32"
        },
        {
          "indexed": true,
          "internalType": "address",
          "name": "account",
          "type": "address"
        },
        {
          "indexed": true,
          "internalType": "address",
          "name": "sender",
          "type": "address"
        }
      ],
      "name": "RoleGranted",
      "type": "event"
    },
    {
      "anonymous": false,
      "inputs": [
        {
          "indexed": true,
          "internalType": "bytes32",
          "name": "role",
          "type": "bytes32"
        },
        {
          "indexed": true,
          "internalType": "address",
          "name": "account",
          "type": "address"
        },
        {
          "indexed": true,
          "internalType": "address",
          "name": "sender",
          "type": "address"
        }
      ],
      "name": "RoleRevoked",
      "type": "event"
    },
    {
      "anonymous": false,
      "inputs": [
        {
          "indexed": true,
          "internalType": "address",
          "name": "impl",
          "type": "address"
        },
        {
          "indexed": false,
          "internalType": "bool",
          "name": "alive",
          "type": "bool"
        }
      ],
      "name": "SetAliveImplementation",
      "type": "event"
    },
    {
      "anonymous": false,
      "inputs": [
        {
          "indexed": true,
          "internalType": "bytes4",
          "name": "selector",
          "type": "bytes4"
        },
        {
          "indexed": true,
          "internalType": "address",
          "name": "impl",
          "type": "address"
        }
      ],
      "name": "SetSelectorImplementation",
      "type": "event"
    },
    {
      "anonymous": false,
      "inputs": [
        {
          "indexed": true,
          "internalType": "address",
          "name": "implementation",
          "type": "address"
        }
      ],
      "name": "Upgraded",
      "type": "event"
    },
    {
      "stateMutability": "payable",
      "type": "fallback"
    },
    {
      "inputs": [],
      "name": "ADMIN_ROLE",
      "outputs": [
        {
          "internalType": "bytes32",
          "name": "",
          "type": "bytes32"
        }
      ],
      "stateMutability": "view",
      "type": "function"
    },
    {
      "inputs": [],
      "name": "DEFAULT_ADMIN_ROLE",
      "outputs": [
        {
          "internalType": "bytes32",
          "name": "",
          "type": "bytes32"
        }
      ],
      "stateMutability": "view",
      "type": "function"
    },
    {
      "inputs": [],
      "name": "PAUSE_ROLE",
      "outputs": [
        {
          "internalType": "bytes32",
          "name": "",
          "type": "bytes32"
        }
      ],
      "stateMutability": "view",
      "type": "function"
    },
    {
      "inputs": [
        {
          "internalType": "address",
          "name": "account",
          "type": "address"
        }
      ],
      "name": "addAdmin",
      "outputs": [],
      "stateMutability": "nonpayable",
      "type": "function"
    },
    {
      "inputs": [
        {
          "internalType": "address",
          "name": "account",
          "type": "address"
        }
      ],
      "name": "addPauser",
      "outputs": [],
      "stateMutability": "nonpayable",
      "type": "function"
    },
    {
      "inputs": [
        {
          "internalType": "address",
          "name": "",
          "type": "address"
        }
      ],
      "name": "aliveImplementation",
      "outputs": [
        {
          "internalType": "bool",
          "name": "",
          "type": "bool"
        }
      ],
      "stateMutability": "view",
      "type": "function"
    },
    {
      "inputs": [
        {
          "internalType": "bytes32",
          "name": "role",
          "type": "bytes32"
        }
      ],
      "name": "getRoleAdmin",
      "outputs": [
        {
          "internalType": "bytes32",
          "name": "",
          "type": "bytes32"
        }
      ],
      "stateMutability": "view",
      "type": "function"
    },
    {
      "inputs": [
        {
          "internalType": "bytes4",
          "name": "_selector",
          "type": "bytes4"
        }
      ],
      "name": "getSelectorImplementation2",
      "outputs": [
        {
          "internalType": "address",
          "name": "impl",
          "type": "address"
        }
      ],
      "stateMutability": "view",
      "type": "function"
    },
    {
      "inputs": [
        {
          "internalType": "bytes32",
          "name": "role",
          "type": "bytes32"
        },
        {
          "internalType": "address",
          "name": "account",
          "type": "address"
        }
      ],
      "name": "grantRole",
      "outputs": [],
      "stateMutability": "nonpayable",
      "type": "function"
    },
    {
      "inputs": [
        {
          "internalType": "bytes32",
          "name": "role",
          "type": "bytes32"
        },
        {
          "internalType": "address",
          "name": "account",
          "type": "address"
        }
      ],
      "name": "hasRole",
      "outputs": [
        {
          "internalType": "bool",
          "name": "",
          "type": "bool"
        }
      ],
      "stateMutability": "view",
      "type": "function"
    },
    {
      "inputs": [],
      "name": "implementation",
      "outputs": [
        {
          "internalType": "address",
          "name": "",
          "type": "address"
        }
      ],
      "stateMutability": "view",
      "type": "function"
    },
    {
      "inputs": [
        {
          "internalType": "uint256",
          "name": "_index",
          "type": "uint256"
        }
      ],
      "name": "implementation2",
      "outputs": [
        {
          "internalType": "address",
          "name": "",
          "type": "address"
        }
      ],
      "stateMutability": "view",
      "type": "function"
    },
    {
      "inputs": [
        {
          "internalType": "address",
          "name": "account",
          "type": "address"
        }
      ],
      "name": "isAdmin",
      "outputs": [
        {
          "internalType": "bool",
          "name": "",
          "type": "bool"
        }
      ],
      "stateMutability": "view",
      "type": "function"
    },
    {
      "inputs": [],
      "name": "isOwner",
      "outputs": [
        {
          "internalType": "bool",
          "name": "",
          "type": "bool"
        }
      ],
      "stateMutability": "view",
      "type": "function"
    },
    {
      "inputs": [],
      "name": "pauseProxy",
      "outputs": [
        {
          "internalType": "bool",
          "name": "",
          "type": "bool"
        }
      ],
      "stateMutability": "view",
      "type": "function"
    },
    {
      "inputs": [
        {
          "internalType": "uint256",
          "name": "",
          "type": "uint256"
        }
      ],
      "name": "proxyImplementation",
      "outputs": [
        {
          "internalType": "address",
          "name": "",
          "type": "address"
        }
      ],
      "stateMutability": "view",
      "type": "function"
    },
    {
      "inputs": [
        {
          "internalType": "address",
          "name": "account",
          "type": "address"
        }
      ],
      "name": "removeAdmin",
      "outputs": [],
      "stateMutability": "nonpayable",
      "type": "function"
    },
    {
      "inputs": [
        {
          "internalType": "address",
          "name": "account",
          "type": "address"
        }
      ],
      "name": "removePauser",
      "outputs": [],
      "stateMutability": "nonpayable",
      "type": "function"
    },
    {
      "inputs": [],
      "name": "renounceOwnership",
      "outputs": [],
      "stateMutability": "nonpayable",
      "type": "function"
    },
    {
      "inputs": [
        {
          "internalType": "bytes32",
          "name": "role",
          "type": "bytes32"
        },
        {
          "internalType": "address",
          "name": "callerConfirmation",
          "type": "address"
        }
      ],
      "name": "renounceRole",
      "outputs": [],
      "stateMutability": "nonpayable",
      "type": "function"
    },
    {
      "inputs": [
        {
          "internalType": "bytes32",
          "name": "role",
          "type": "bytes32"
        },
        {
          "internalType": "address",
          "name": "account",
          "type": "address"
        }
      ],
      "name": "revokeRole",
      "outputs": [],
      "stateMutability": "nonpayable",
      "type": "function"
    },
    {
      "inputs": [
        {
          "internalType": "bytes4",
          "name": "",
          "type": "bytes4"
        }
      ],
      "name": "selectorImplementation",
      "outputs": [
        {
          "internalType": "address",
          "name": "",
          "type": "address"
        }
      ],
      "stateMutability": "view",
      "type": "function"
    },
    {
      "inputs": [
        {
          "internalType": "address",
          "name": "newImplementation",
          "type": "address"
        },
        {
          "internalType": "bool",
          "name": "_alive",
          "type": "bool"
        }
      ],
      "name": "setAliveImplementation2",
      "outputs": [],
      "stateMutability": "nonpayable",
      "type": "function"
    },
    {
      "inputs": [
        {
          "internalType": "address",
          "name": "newImplementation",
          "type": "address"
        },
        {
          "internalType": "uint256",
          "name": "_index",
          "type": "uint256"
        },
        {
          "internalType": "bool",
          "name": "_alive",
          "type": "bool"
        }
      ],
      "name": "setImplementation2",
      "outputs": [],
      "stateMutability": "nonpayable",
      "type": "function"
    },
    {
      "inputs": [
        {
          "internalType": "bool",
          "name": "_pause",
          "type": "bool"
        }
      ],
      "name": "setProxyPause",
      "outputs": [],
      "stateMutability": "nonpayable",
      "type": "function"
    },
    {
      "inputs": [
        {
          "internalType": "bytes4[]",
          "name": "_selectors",
          "type": "bytes4[]"
        },
        {
          "internalType": "address",
          "name": "_imp",
          "type": "address"
        }
      ],
      "name": "setSelectorImplementations2",
      "outputs": [],
      "stateMutability": "nonpayable",
      "type": "function"
    },
    {
      "inputs": [
        {
          "internalType": "bytes4",
          "name": "interfaceId",
          "type": "bytes4"
        }
      ],
      "name": "supportsInterface",
      "outputs": [
        {
          "internalType": "bool",
          "name": "",
          "type": "bool"
        }
      ],
      "stateMutability": "view",
      "type": "function"
    },
    {
      "inputs": [
        {
          "internalType": "address",
          "name": "newAdmin",
          "type": "address"
        }
      ],
      "name": "transferAdmin",
      "outputs": [],
      "stateMutability": "nonpayable",
      "type": "function"
    },
    {
      "inputs": [
        {
          "internalType": "address",
          "name": "newAdmin",
          "type": "address"
        }
      ],
      "name": "transferOwnership",
      "outputs": [],
      "stateMutability": "nonpayable",
      "type": "function"
    },
    {
      "inputs": [
        {
          "internalType": "address",
          "name": "impl",
          "type": "address"
        }
      ],
      "name": "upgradeTo",
      "outputs": [],
      "stateMutability": "nonpayable",
      "type": "function"
    },
    {
      "stateMutability": "payable",
      "type": "receive"
    }
  ],
  "bytecode": "0x608060405234605b576301ffc9a760e01b60005260046020527f9fe05126d2d9ecf60592e254dead906a4b2e492f36cca727682c38e9008c6ac1805460ff19166001179055604b336060565b5060405161139490816100f18239f35b600080fd5b6001600160a01b031660008181527f05b8ccbb9d4d8fb16ea74ce3c29a41f1b461fbdaff4714a0d9a8eb05499746bc602052604081205490919060ff1660ec5781805260056020526040822081835260205260408220600160ff1982541617905533917f2f8788117e7eff1d82e926ec794901d17c78024a50270940304540a733656f0d8180a4600190565b509056fe60806040526004361015610018575b3661124357610e5d565b60003560e01c806301ffc9a7146101f35780631785f53c146101ee578063248a9ca3146101e957806324d7806c146101e45780632f2ff15d146101df57806336568abe146101da5780633659cfe6146101d5578063389ed267146101d05780634a5df50f146101cb57806350d2a276146101c6578063550d01a3146101c15780635c60da1b146101bc5780635cc797d8146101b757806363a8fd89146101b25780636b2c0f55146101ad57806370480275146101a8578063715018a6146101a357806375829def1461019e57806375b238fc146101995780637cb00d25146101945780637cd5f6631461018f57806382dc1ec41461018a5780638b8f4a65146101715780638d4fdb40146101855780638f32d59b1461018057806391d148541461017b578063a217fddf14610176578063b911135f14610171578063d547741f1461016c5763f2fde38b0361000e57610be2565b610ba3565b610acb565b610b87565b610b53565b610b38565b610aff565b6109f5565b610958565b61091c565b6108f3565b610844565b61081f565b6107b1565b610774565b610751565b610718565b6106e4565b6106a5565b61062e565b610493565b61046a565b6103a0565b610359565b61031a565b6102ce565b61029f565b61026c565b61020f565b6001600160e01b031981160361020a57565b600080fd5b3461020a57602036600319011261020a576020610236600435610231816101f8565b610e99565b6040519015158152f35b600435906001600160a01b038216820361020a57565b602435906001600160a01b038216820361020a57565b3461020a57602036600319011261020a5761029d610288610240565b610298610293610e28565b610c06565b610c5e565b005b3461020a57602036600319011261020a5760043560005260056020526020600160406000200154604051908152f35b3461020a57602036600319011261020a57602060ff61030e6102ee610240565b60008051602061131f83398151915260005260058452604060002061068e565b54166040519015158152f35b3461020a57604036600319011261020a5761029d600435610339610256565b90806000526005602052610354600160406000200154610ec2565b610fde565b3461020a57604036600319011261020a57610372610256565b336001600160a01b0382160361038e5761029d9060043561115f565b60405163334bd91960e11b8152600490fd5b3461020a57602036600319011261020a576103b9610240565b6103c4610293610e28565b6001600160a01b038116801561043557600080805260016020526000805160206112df83398151915254909261040e91610409906001600160a01b0316841415610c7a565b611179565b7fbc7cd75a20ee27fd9adebab32041f755214dbc6bffa90cc0225b39da2e5c2d3b8280a280f35b60405162461bcd60e51b815260206004820152600d60248201526c696e707574206973207a65726f60981b6044820152606490fd5b3461020a57600036600319011261020a5760206040516000805160206112ff8339815191528152f35b3461020a57604036600319011261020a5760043567ffffffffffffffff80821161020a573660238301121561020a57816004013590811161020a576024820191602436918360051b01011161020a576104ea610256565b916104f6610293610e28565b81156105d1579061051861051361050c85610674565b5460ff1690565b610cb2565b6001600160a01b0391838316919060005b82811061053257005b8061056d858761056561055861055361054e6001988b8b610cf9565b610d1f565b610615565b546001600160a01b031690565b161415610d2c565b6105878761058261055361054e858989610cf9565b610d78565b846105a661059961054e848888610cf9565b6001600160e01b03191690565b7f14ebc1c32aa68f4d766e89f3e546cee249f7df25183fc10ab1568d91c2ce9b7b600080a301610529565b606460405162461bcd60e51b815260206004820152602060248201527f50726f78793a205f73656c6563746f727327732073697a65206973207a65726f6044820152fd5b63ffffffff60e01b166000526003602052604060002090565b3461020a57602036600319011261020a5760043561064b816101f8565b63ffffffff60e01b166000526003602052602060018060a01b0360406000205416604051908152f35b6001600160a01b0316600090815260026020526040902090565b9060018060a01b0316600052602052604060002090565b3461020a57602036600319011261020a576001600160a01b036106c6610240565b166000526002602052602060ff604060002054166040519015158152f35b3461020a576000806003193601126107155780806020925260018252604060018060a01b0391205416604051908152f35b80fd5b3461020a57604036600319011261020a57610731610240565b602435801515810361020a5761029d9161074c610293610e28565b6111ef565b3461020a57600036600319011261020a57602060ff600054166040519015158152f35b3461020a57602036600319011261020a5761078d610240565b610798610293610e28565b336001600160a01b0382160361038e5761029d90610ff8565b3461020a57602036600319011261020a5761029d6107cd610240565b6107d8610293610e28565b60008051602061131f83398151915260005260056020527f09f04f5809d5be59813a33617d16f069caae874a6b34f03139f63d934daddae75461081a90610ec2565b610f03565b3461020a57600036600319011261020a5761083b610293610e28565b61029d33611097565b3461020a57602036600319011261020a5761085d610240565b610868610293610e28565b6001600160a01b03811680156108e15733146108cf5760008051602061131f83398151915260005260056020527f09f04f5809d5be59813a33617d16f069caae874a6b34f03139f63d934daddae7546108c5919061081a90610ec2565b5061029d33610c5e565b6040516309cd70b960e21b8152600490fd5b60405163d92e233d60e01b8152600490fd5b3461020a57600036600319011261020a57602060405160008051602061131f8339815191528152f35b3461020a57602036600319011261020a5760043580151580910361020a57610945610293610e28565b60ff801960005416911617600055600080f35b3461020a57606036600319011261020a57610971610240565b604435801515810361020a57610988610293610e28565b813b156109b25761029d9181156111ef57602435600052600160205261074c816040600020610d78565b60405162461bcd60e51b815260206004820152601b60248201527a50726f78793a206e6f7420636f6e7472616374206164647265737360281b6044820152606490fd5b3461020a57602036600319011261020a57610a0e610240565b60008051602061131f833981519152600090815260056020529060ff610a423360008051602061133f83398151915261068e565b54168015610abd575b15610a8357610a7f906000805160206112ff83398151915283526005602052610a7a6001604085200154610ec2565b610f98565b5080f35b60405162461bcd60e51b81526020600482015260126024820152713737ba1027bbb732b91037b91020b236b4b760711b6044820152606490fd5b50610ac6610e28565b610a4b565b3461020a57602036600319011261020a576004356000526001602052602060018060a01b0360406000205416604051908152f35b3461020a57602036600319011261020a576020610b26600435610b21816101f8565b610d97565b6040516001600160a01b039091168152f35b3461020a57600036600319011261020a576020610236610e28565b3461020a57604036600319011261020a57602060ff61030e610b73610256565b60043560005260058452604060002061068e565b3461020a57600036600319011261020a57602060405160008152f35b3461020a57604036600319011261020a5761029d600435610bc2610256565b90806000526005602052610bdd600160406000200154610ec2565b61115f565b3461020a57602036600319011261020a57610bfb610240565b61085d610293610e28565b15610c0d57565b60405162461bcd60e51b8152602060048201526024808201527f41757468436f6e74726f6c3a2043616c6c6572206973206e6f7420746865206f6044820152633bb732b960e11b6064820152608490fd5b336001600160a01b0382160361038e57610c779061112b565b50565b15610c8157565b60405162461bcd60e51b815260206004820152600960248201526839b0b6b29030b2323960b91b6044820152606490fd5b15610cb957565b60405162461bcd60e51b815260206004820152601860248201527750726f78793a205f696d70206973206e6f7420616c69766560401b6044820152606490fd5b9190811015610d095760051b0190565b634e487b7160e01b600052603260045260246000fd5b35610d29816101f8565b90565b15610d3357565b60405162461bcd60e51b815260206004820152601d60248201527f4c69717569646974795661756c7450726f78793a2073616d6520696d700000006044820152606490fd5b80546001600160a01b0319166001600160a01b03909216919091179055565b6001600160e01b031981166000908152600360205260409020546001600160a01b0391908216610de457506000805260016020526000805160206112df833981519152541690565b541690565b60ff610dfa83610df384610615565b5416610674565b541615610e0a57610ddf90610615565b506000805260016020526000805160206112df833981519152541690565b60008052600560205260ff610ddf337f05b8ccbb9d4d8fb16ea74ce3c29a41f1b461fbdaff4714a0d9a8eb05499746bc61068e565b60405162461bcd60e51b815260206004820152601460248201527331b0b73737ba103932b1b2b4bb329022ba3432b960611b6044820152606490fd5b6001600160e01b03198116637965db0b60e01b14908115610eb8575090565b610d299150610e99565b80600052600560205260ff610edb33604060002061068e565b541615610ee55750565b6044906040519063e2517d3f60e01b82523360048301526024820152fd5b60008051602061131f833981519152600081815260056020529060ff610f378460008051602061133f83398151915261068e565b5416610f92578082526005602052610f52836040842061068e565b805460ff1916600117905533926001600160a01b0316917f2f8788117e7eff1d82e926ec794901d17c78024a50270940304540a733656f0d9080a4600190565b50905090565b6000805160206112ff833981519152600081815260056020529060ff610f37847f787f97f3270d439d97068e73d6d75a066b24f84c342661f177d4e43e00e9f51361068e565b600090808252600560205260ff610f37846040852061068e565b6000805160206112ff833981519152600081815260056020529060ff61103e847f787f97f3270d439d97068e73d6d75a066b24f84c342661f177d4e43e00e9f51361068e565b541615610f9257808252600560205261105a836040842061068e565b805460ff1916905533926001600160a01b0316917ff6391f5c32d9c69d2a47ea670b442974b53935d1edc7fd64eb21e047a839171b9080a4600190565b6000808052600560205260ff6110cd837f05b8ccbb9d4d8fb16ea74ce3c29a41f1b461fbdaff4714a0d9a8eb05499746bc61068e565b5416156111265780805260056020526110e9826040832061068e565b805460ff1916905533916001600160a01b0316907ff6391f5c32d9c69d2a47ea670b442974b53935d1edc7fd64eb21e047a839171b8180a4600190565b905090565b60008051602061131f833981519152600081815260056020529060ff61103e8460008051602061133f83398151915261068e565b600090808252600560205260ff61103e846040852061068e565b803b156109b2576000805260016020526111a1816000805160206112df833981519152610d78565b60018060a01b03168060005260026020526040600020600160ff198254161790557f72558d9bfba4210f9ef095c782589484151f6d90f7a81bb3cb9b33efc695d324602060405160018152a2565b60207f72558d9bfba4210f9ef095c782589484151f6d90f7a81bb3cb9b33efc695d3249160018060a01b031692836000526002825260406000209015159060ff1981541660ff8316179055604051908152a2565b600061125981356001600160e01b031916610d97565b6001600160a01b0381161515806112d2575b1561128d57818091368280378136915af43d82803e15611289573d90f35b3d90fd5b60405162461bcd60e51b815260206004820152601d60248201527f50726f78793a20696d706c204f522070726f78792069732066616c73650000006044820152606490fd5b5060ff8254161561126b56fea6eef7e35abe7026729641147f7915573c7e97b47efa546f5f6e3230263bcb49fcb9fcbfa83b897fb2d5cf4b58962164105c1e71489a37ef3ae0db3fdce576f6df8b4c520ffe197c5343c6f5aec59570151ef9a492f2c624fd45ddde6135ec4209f04f5809d5be59813a33617d16f069caae874a6b34f03139f63d934daddae6a2646970667358221220744c13fdd2a8a1c5f115a8f65baedaaf9cba8572d020d0cd5e93a37b8b9b140164736f6c63430008190033",
  "linkReferences": {},
  "deployedLinkReferences": {}
}