{
  "_format": "hh-sol-artifact-1",
  "contractName": "AccessibleCommon",
  "sourceName": "src/L1/Mock/common/AccessibleCommon.sol",
  "abi": [
    {
      "inputs": [],
      "name": "AccessControlBadConfirmation",
      "type": "error"
    },
    {
      "inputs": [
        {
          "internalType": "address",
          "name": "account",
          "type": "address"
        },
        {
          "internalType": "bytes32",
          "name": "neededRole",
          "type": "bytes32"
        }
      ],
      "name": "AccessControlUnauthorizedAccount",
      "type": "error"
    },
    {
      "anonymous": false,
      "inputs": [
        {
          "indexed": true,
          "internalType": "bytes32",
          "name": "role",
          "type": "bytes32"
        },
        {
          "indexed": true,
          "internalType": "bytes32",
          "name": "previousAdminRole",
          "type": "bytes32"
        },
        {
          "indexed": true,
          "internalType": "bytes32",
          "name": "newAdminRole",
          "type": "bytes32"
        }
      ],
      "name": "RoleAdminChanged",
      "type": "event"
    },
    {
      "anonymous": false,
      "inputs": [
        {
          "indexed": true,
          "internalType": "bytes32",
          "name": "role",
          "type": "bytes32"
        },
        {
          "indexed": true,
          "internalType": "address",
          "name": "account",
          "type": "address"
        },
        {
          "indexed": true,
          "internalType": "address",
          "name": "sender",
          "type": "address"
        }
      ],
      "name": "RoleGranted",
      "type": "event"
    },
    {
      "anonymous": false,
      "inputs": [
        {
          "indexed": true,
          "internalType": "bytes32",
          "name": "role",
          "type": "bytes32"
        },
        {
          "indexed": true,
          "internalType": "address",
          "name": "account",
          "type": "address"
        },
        {
          "indexed": true,
          "internalType": "address",
          "name": "sender",
          "type": "address"
        }
      ],
      "name": "RoleRevoked",
      "type": "event"
    },
    {
      "inputs": [],
      "name": "DEFAULT_ADMIN_ROLE",
      "outputs": [
        {
          "internalType": "bytes32",
          "name": "",
          "type": "bytes32"
        }
      ],
      "stateMutability": "view",
      "type": "function"
    },
    {
      "inputs": [],
      "name": "MINTER_ROLE",
      "outputs": [
        {
          "internalType": "bytes32",
          "name": "",
          "type": "bytes32"
        }
      ],
      "stateMutability": "view",
      "type": "function"
    },
    {
      "inputs": [
        {
          "internalType": "address",
          "name": "account",
          "type": "address"
        }
      ],
      "name": "addAdmin",
      "outputs": [],
      "stateMutability": "nonpayable",
      "type": "function"
    },
    {
      "inputs": [
        {
          "internalType": "bytes32",
          "name": "role",
          "type": "bytes32"
        }
      ],
      "name": "getRoleAdmin",
      "outputs": [
        {
          "internalType": "bytes32",
          "name": "",
          "type": "bytes32"
        }
      ],
      "stateMutability": "view",
      "type": "function"
    },
    {
      "inputs": [
        {
          "internalType": "bytes32",
          "name": "role",
          "type": "bytes32"
        },
        {
          "internalType": "address",
          "name": "account",
          "type": "address"
        }
      ],
      "name": "grantRole",
      "outputs": [],
      "stateMutability": "nonpayable",
      "type": "function"
    },
    {
      "inputs": [
        {
          "internalType": "bytes32",
          "name": "role",
          "type": "bytes32"
        },
        {
          "internalType": "address",
          "name": "account",
          "type": "address"
        }
      ],
      "name": "hasRole",
      "outputs": [
        {
          "internalType": "bool",
          "name": "",
          "type": "bool"
        }
      ],
      "stateMutability": "view",
      "type": "function"
    },
    {
      "inputs": [
        {
          "internalType": "address",
          "name": "account",
          "type": "address"
        }
      ],
      "name": "isAdmin",
      "outputs": [
        {
          "internalType": "bool",
          "name": "",
          "type": "bool"
        }
      ],
      "stateMutability": "view",
      "type": "function"
    },
    {
      "inputs": [],
      "name": "isOwner",
      "outputs": [
        {
          "internalType": "bool",
          "name": "",
          "type": "bool"
        }
      ],
      "stateMutability": "view",
      "type": "function"
    },
    {
      "inputs": [
        {
          "internalType": "address",
          "name": "account",
          "type": "address"
        }
      ],
      "name": "removeAdmin",
      "outputs": [],
      "stateMutability": "nonpayable",
      "type": "function"
    },
    {
      "inputs": [],
      "name": "renounceOwnership",
      "outputs": [],
      "stateMutability": "nonpayable",
      "type": "function"
    },
    {
      "inputs": [
        {
          "internalType": "bytes32",
          "name": "role",
          "type": "bytes32"
        },
        {
          "internalType": "address",
          "name": "callerConfirmation",
          "type": "address"
        }
      ],
      "name": "renounceRole",
      "outputs": [],
      "stateMutability": "nonpayable",
      "type": "function"
    },
    {
      "inputs": [
        {
          "internalType": "bytes32",
          "name": "role",
          "type": "bytes32"
        },
        {
          "internalType": "address",
          "name": "account",
          "type": "address"
        }
      ],
      "name": "revokeRole",
      "outputs": [],
      "stateMutability": "nonpayable",
      "type": "function"
    },
    {
      "inputs": [
        {
          "internalType": "bytes4",
          "name": "interfaceId",
          "type": "bytes4"
        }
      ],
      "name": "supportsInterface",
      "outputs": [
        {
          "internalType": "bool",
          "name": "",
          "type": "bool"
        }
      ],
      "stateMutability": "view",
      "type": "function"
    },
    {
      "inputs": [
        {
          "internalType": "address",
          "name": "newAdmin",
          "type": "address"
        }
      ],
      "name": "transferAdmin",
      "outputs": [],
      "stateMutability": "nonpayable",
      "type": "function"
    },
    {
      "inputs": [
        {
          "internalType": "address",
          "name": "newAdmin",
          "type": "address"
        }
      ],
      "name": "transferOwnership",
      "outputs": [],
      "stateMutability": "nonpayable",
      "type": "function"
    }
  ],
  "bytecode": "0x608080604052346051576301ffc9a760e01b60009081526020527f67be87c3ff9960ca1e9cfac5cab2ff4747269cf9ed20c9b7306235ac35a491c5805460ff1916600117905561088990816100578239f35b600080fdfe608060408181526004908136101561001657600080fd5b600092833560e01c90816301ffc9a7146104de575080631785f53c1461049a578063248a9ca31461047057806324d7806c1461042a5780632f2ff15d1461040257806336568abe146103bb5780637048027514610367578063715018a61461032c57806375829def146102f25780638f32d59b146102bf57806391d1485414610278578063a217fddf1461025d578063d53913931461021e578063d547741f146101e15763f2fde38b146100c957600080fd5b346101dd576020806003193601126101d9576100e361051a565b9284805260018252828520338652825261010260ff848720541661054b565b84805260018252828520338652825261012060ff848720541661054b565b6001600160a01b038416801561019c573314610162575060016101559392816101509387805252852001546105fc565b610640565b5061015f336105a2565b80f35b915162461bcd60e51b815291820152601660248201527520b1b1b2b9b9b4b136329d1039b0b6b29030b236b4b760511b6044820152606490fd5b50915162461bcd60e51b815291820152601860248201527741636365737369626c653a207a65726f206164647265737360401b6044820152606490fd5b8380fd5b8280fd5b50346101dd57806003193601126101dd5761021a91356102156001610204610535565b9383875281602052862001546105fc565b6107dc565b5080f35b838234610259578160031936011261025957602090517ff0887ba65ee2024ea881d91b74c2450ef19e1557f03bed3ea9f16b037cbe2dc98152f35b5080fd5b83823461025957816003193601126102595751908152602090f35b5090346101dd57816003193601126101dd578160209360ff92610299610535565b90358252600186528282206001600160a01b039091168252855220549151911615158152f35b83823461025957816003193601126102595760ff8183806020955260018552818120338252855220541690519015158152f35b50346101dd576020806003193601126101d95761030d61051a565b9284805260018252828520338652825261012060ff848720541661054b565b83823461025957816003193601126102595760ff61035e9183805260016020528084203385526020528320541661054b565b61015f336105a2565b8382346102595760203660031901126102595761021a90610150600161038b61051a565b92858052816020528086203387526020526103ab60ff828820541661054b565b85805281602052852001546105fc565b508290346102595780600319360112610259576103d6610535565b90336001600160a01b038316036103f3575061021a9192356107dc565b5163334bd91960e11b81528390fd5b50346101dd57806003193601126101dd5761021a91356104256001610204610535565b6106d1565b8382346102595760203660031901126102595760ff8160209361044b61051a565b818052600186528282206001600160a01b039091168252855220549151911615158152f35b5090346101dd5760203660031901126101dd57816020936001923581528285522001549051908152f35b8382346102595760203660031901126102595761015f906104d960ff6104be61051a565b9285805260016020528086203387526020528520541661054b565b6105a2565b849084346101dd5760203660031901126101dd5735916001600160e01b03198316830361051757506105116020926105d0565b15158152f35b80fd5b600435906001600160a01b038216820361053057565b600080fd5b602435906001600160a01b038216820361053057565b1561055257565b60405162461bcd60e51b815260206004820152602260248201527f41636365737369626c653a2043616c6c6572206973206e6f7420616e2061646d60448201526134b760f11b6064820152608490fd5b336001600160a01b038216036105be576105bb90610751565b50565b60405163334bd91960e11b8152600490fd5b6001600160e01b03198116637965db0b60e01b149081156105ef575090565b6105f991506105d0565b90565b80600052600160205260406000203360005260205260ff60406000205416156106225750565b6044906040519063e2517d3f60e01b82523360048301526024820152fd5b6001600160a01b031660008181527fa6eef7e35abe7026729641147f7915573c7e97b47efa546f5f6e3230263bcb49602052604081205490919060ff166106cd5781805260016020526040822081835260205260408220600160ff1982541617905533917f2f8788117e7eff1d82e926ec794901d17c78024a50270940304540a733656f0d8180a4600190565b5090565b906000918083526001602052604083209160018060a01b03169182845260205260ff6040842054161560001461074c5780835260016020526040832082845260205260408320600160ff198254161790557f2f8788117e7eff1d82e926ec794901d17c78024a50270940304540a733656f0d339380a4600190565b505090565b6001600160a01b031660008181527fa6eef7e35abe7026729641147f7915573c7e97b47efa546f5f6e3230263bcb49602052604081205490919060ff16156106cd578180526001602052604082208183526020526040822060ff19815416905533917ff6391f5c32d9c69d2a47ea670b442974b53935d1edc7fd64eb21e047a839171b8180a4600190565b906000918083526001602052604083209160018060a01b03169182845260205260ff60408420541660001461074c578083526001602052604083208284526020526040832060ff1981541690557ff6391f5c32d9c69d2a47ea670b442974b53935d1edc7fd64eb21e047a839171b339380a460019056fea2646970667358221220eb772585af7c4047e0ee844633f8eb5cc18f5148d74b25b1b482b2dbaae7402164736f6c63430008190033",
  "linkReferences": {},
  "deployedLinkReferences": {}
}