{
  "_format": "hh-sol-artifact-1",
  "contractName": "ProxyCoinage",
  "sourceName": "src/L1/Mock/proxy/ProxyCoinage.sol",
  "abi": [
    {
      "inputs": [],
      "stateMutability": "nonpayable",
      "type": "constructor"
    },
    {
      "inputs": [],
      "name": "AccessControlBadConfirmation",
      "type": "error"
    },
    {
      "inputs": [
        {
          "internalType": "address",
          "name": "account",
          "type": "address"
        },
        {
          "internalType": "bytes32",
          "name": "neededRole",
          "type": "bytes32"
        }
      ],
      "name": "AccessControlUnauthorizedAccount",
      "type": "error"
    },
    {
      "anonymous": false,
      "inputs": [
        {
          "indexed": true,
          "internalType": "bytes32",
          "name": "role",
          "type": "bytes32"
        },
        {
          "indexed": true,
          "internalType": "bytes32",
          "name": "previousAdminRole",
          "type": "bytes32"
        },
        {
          "indexed": true,
          "internalType": "bytes32",
          "name": "newAdminRole",
          "type": "bytes32"
        }
      ],
      "name": "RoleAdminChanged",
      "type": "event"
    },
    {
      "anonymous": false,
      "inputs": [
        {
          "indexed": true,
          "internalType": "bytes32",
          "name": "role",
          "type": "bytes32"
        },
        {
          "indexed": true,
          "internalType": "address",
          "name": "account",
          "type": "address"
        },
        {
          "indexed": true,
          "internalType": "address",
          "name": "sender",
          "type": "address"
        }
      ],
      "name": "RoleGranted",
      "type": "event"
    },
    {
      "anonymous": false,
      "inputs": [
        {
          "indexed": true,
          "internalType": "bytes32",
          "name": "role",
          "type": "bytes32"
        },
        {
          "indexed": true,
          "internalType": "address",
          "name": "account",
          "type": "address"
        },
        {
          "indexed": true,
          "internalType": "address",
          "name": "sender",
          "type": "address"
        }
      ],
      "name": "RoleRevoked",
      "type": "event"
    },
    {
      "anonymous": false,
      "inputs": [
        {
          "indexed": true,
          "internalType": "address",
          "name": "impl",
          "type": "address"
        },
        {
          "indexed": false,
          "internalType": "bool",
          "name": "alive",
          "type": "bool"
        }
      ],
      "name": "SetAliveImplementation",
      "type": "event"
    },
    {
      "anonymous": false,
      "inputs": [
        {
          "indexed": true,
          "internalType": "bytes4",
          "name": "selector",
          "type": "bytes4"
        },
        {
          "indexed": true,
          "internalType": "address",
          "name": "impl",
          "type": "address"
        }
      ],
      "name": "SetSelectorImplementation",
      "type": "event"
    },
    {
      "anonymous": false,
      "inputs": [
        {
          "indexed": true,
          "internalType": "address",
          "name": "implementation",
          "type": "address"
        }
      ],
      "name": "Upgraded",
      "type": "event"
    },
    {
      "stateMutability": "payable",
      "type": "fallback"
    },
    {
      "inputs": [],
      "name": "DEFAULT_ADMIN_ROLE",
      "outputs": [
        {
          "internalType": "bytes32",
          "name": "",
          "type": "bytes32"
        }
      ],
      "stateMutability": "view",
      "type": "function"
    },
    {
      "inputs": [],
      "name": "MINTER_ROLE",
      "outputs": [
        {
          "internalType": "bytes32",
          "name": "",
          "type": "bytes32"
        }
      ],
      "stateMutability": "view",
      "type": "function"
    },
    {
      "inputs": [],
      "name": "OPERATOR_ROLE",
      "outputs": [
        {
          "internalType": "bytes32",
          "name": "",
          "type": "bytes32"
        }
      ],
      "stateMutability": "view",
      "type": "function"
    },
    {
      "inputs": [
        {
          "internalType": "address",
          "name": "account",
          "type": "address"
        }
      ],
      "name": "addAdmin",
      "outputs": [],
      "stateMutability": "nonpayable",
      "type": "function"
    },
    {
      "inputs": [
        {
          "internalType": "address",
          "name": "account",
          "type": "address"
        }
      ],
      "name": "addMinter",
      "outputs": [],
      "stateMutability": "nonpayable",
      "type": "function"
    },
    {
      "inputs": [
        {
          "internalType": "address",
          "name": "account",
          "type": "address"
        }
      ],
      "name": "addOperator",
      "outputs": [],
      "stateMutability": "nonpayable",
      "type": "function"
    },
    {
      "inputs": [
        {
          "internalType": "address",
          "name": "",
          "type": "address"
        }
      ],
      "name": "aliveImplementation",
      "outputs": [
        {
          "internalType": "bool",
          "name": "",
          "type": "bool"
        }
      ],
      "stateMutability": "view",
      "type": "function"
    },
    {
      "inputs": [
        {
          "internalType": "bytes32",
          "name": "role",
          "type": "bytes32"
        }
      ],
      "name": "getRoleAdmin",
      "outputs": [
        {
          "internalType": "bytes32",
          "name": "",
          "type": "bytes32"
        }
      ],
      "stateMutability": "view",
      "type": "function"
    },
    {
      "inputs": [
        {
          "internalType": "bytes4",
          "name": "_selector",
          "type": "bytes4"
        }
      ],
      "name": "getSelectorImplementation2",
      "outputs": [
        {
          "internalType": "address",
          "name": "impl",
          "type": "address"
        }
      ],
      "stateMutability": "view",
      "type": "function"
    },
    {
      "inputs": [
        {
          "internalType": "bytes32",
          "name": "role",
          "type": "bytes32"
        },
        {
          "internalType": "address",
          "name": "account",
          "type": "address"
        }
      ],
      "name": "grantRole",
      "outputs": [],
      "stateMutability": "nonpayable",
      "type": "function"
    },
    {
      "inputs": [
        {
          "internalType": "bytes32",
          "name": "role",
          "type": "bytes32"
        },
        {
          "internalType": "address",
          "name": "account",
          "type": "address"
        }
      ],
      "name": "hasRole",
      "outputs": [
        {
          "internalType": "bool",
          "name": "",
          "type": "bool"
        }
      ],
      "stateMutability": "view",
      "type": "function"
    },
    {
      "inputs": [],
      "name": "implementation",
      "outputs": [
        {
          "internalType": "address",
          "name": "",
          "type": "address"
        }
      ],
      "stateMutability": "view",
      "type": "function"
    },
    {
      "inputs": [
        {
          "internalType": "uint256",
          "name": "_index",
          "type": "uint256"
        }
      ],
      "name": "implementation2",
      "outputs": [
        {
          "internalType": "address",
          "name": "",
          "type": "address"
        }
      ],
      "stateMutability": "view",
      "type": "function"
    },
    {
      "inputs": [
        {
          "internalType": "address",
          "name": "account",
          "type": "address"
        }
      ],
      "name": "isAdmin",
      "outputs": [
        {
          "internalType": "bool",
          "name": "",
          "type": "bool"
        }
      ],
      "stateMutability": "view",
      "type": "function"
    },
    {
      "inputs": [
        {
          "internalType": "address",
          "name": "account",
          "type": "address"
        }
      ],
      "name": "isMinter",
      "outputs": [
        {
          "internalType": "bool",
          "name": "",
          "type": "bool"
        }
      ],
      "stateMutability": "view",
      "type": "function"
    },
    {
      "inputs": [
        {
          "internalType": "address",
          "name": "account",
          "type": "address"
        }
      ],
      "name": "isOperator",
      "outputs": [
        {
          "internalType": "bool",
          "name": "",
          "type": "bool"
        }
      ],
      "stateMutability": "view",
      "type": "function"
    },
    {
      "inputs": [],
      "name": "isOwner",
      "outputs": [
        {
          "internalType": "bool",
          "name": "",
          "type": "bool"
        }
      ],
      "stateMutability": "view",
      "type": "function"
    },
    {
      "inputs": [],
      "name": "pauseProxy",
      "outputs": [
        {
          "internalType": "bool",
          "name": "",
          "type": "bool"
        }
      ],
      "stateMutability": "view",
      "type": "function"
    },
    {
      "inputs": [
        {
          "internalType": "uint256",
          "name": "",
          "type": "uint256"
        }
      ],
      "name": "proxyImplementation",
      "outputs": [
        {
          "internalType": "address",
          "name": "",
          "type": "address"
        }
      ],
      "stateMutability": "view",
      "type": "function"
    },
    {
      "inputs": [
        {
          "internalType": "address",
          "name": "account",
          "type": "address"
        }
      ],
      "name": "removeAdmin",
      "outputs": [],
      "stateMutability": "nonpayable",
      "type": "function"
    },
    {
      "inputs": [
        {
          "internalType": "address",
          "name": "account",
          "type": "address"
        }
      ],
      "name": "removeMinter",
      "outputs": [],
      "stateMutability": "nonpayable",
      "type": "function"
    },
    {
      "inputs": [
        {
          "internalType": "address",
          "name": "account",
          "type": "address"
        }
      ],
      "name": "removeOperator",
      "outputs": [],
      "stateMutability": "nonpayable",
      "type": "function"
    },
    {
      "inputs": [],
      "name": "renounceMinter",
      "outputs": [],
      "stateMutability": "nonpayable",
      "type": "function"
    },
    {
      "inputs": [],
      "name": "renounceOperator",
      "outputs": [],
      "stateMutability": "nonpayable",
      "type": "function"
    },
    {
      "inputs": [],
      "name": "renounceOwnership",
      "outputs": [],
      "stateMutability": "nonpayable",
      "type": "function"
    },
    {
      "inputs": [
        {
          "internalType": "bytes32",
          "name": "role",
          "type": "bytes32"
        },
        {
          "internalType": "address",
          "name": "callerConfirmation",
          "type": "address"
        }
      ],
      "name": "renounceRole",
      "outputs": [],
      "stateMutability": "nonpayable",
      "type": "function"
    },
    {
      "inputs": [
        {
          "internalType": "address",
          "name": "account",
          "type": "address"
        }
      ],
      "name": "revokeMinter",
      "outputs": [],
      "stateMutability": "nonpayable",
      "type": "function"
    },
    {
      "inputs": [
        {
          "internalType": "address",
          "name": "account",
          "type": "address"
        }
      ],
      "name": "revokeOperator",
      "outputs": [],
      "stateMutability": "nonpayable",
      "type": "function"
    },
    {
      "inputs": [
        {
          "internalType": "bytes32",
          "name": "role",
          "type": "bytes32"
        },
        {
          "internalType": "address",
          "name": "account",
          "type": "address"
        }
      ],
      "name": "revokeRole",
      "outputs": [],
      "stateMutability": "nonpayable",
      "type": "function"
    },
    {
      "inputs": [
        {
          "internalType": "bytes4",
          "name": "",
          "type": "bytes4"
        }
      ],
      "name": "selectorImplementation",
      "outputs": [
        {
          "internalType": "address",
          "name": "",
          "type": "address"
        }
      ],
      "stateMutability": "view",
      "type": "function"
    },
    {
      "inputs": [
        {
          "internalType": "address",
          "name": "newImplementation",
          "type": "address"
        },
        {
          "internalType": "bool",
          "name": "_alive",
          "type": "bool"
        }
      ],
      "name": "setAliveImplementation2",
      "outputs": [],
      "stateMutability": "nonpayable",
      "type": "function"
    },
    {
      "inputs": [
        {
          "internalType": "address",
          "name": "newImplementation",
          "type": "address"
        },
        {
          "internalType": "uint256",
          "name": "_index",
          "type": "uint256"
        },
        {
          "internalType": "bool",
          "name": "_alive",
          "type": "bool"
        }
      ],
      "name": "setImplementation2",
      "outputs": [],
      "stateMutability": "nonpayable",
      "type": "function"
    },
    {
      "inputs": [
        {
          "internalType": "bool",
          "name": "_pause",
          "type": "bool"
        }
      ],
      "name": "setProxyPause",
      "outputs": [],
      "stateMutability": "nonpayable",
      "type": "function"
    },
    {
      "inputs": [
        {
          "internalType": "bytes4[]",
          "name": "_selectors",
          "type": "bytes4[]"
        },
        {
          "internalType": "address",
          "name": "_imp",
          "type": "address"
        }
      ],
      "name": "setSelectorImplementations2",
      "outputs": [],
      "stateMutability": "nonpayable",
      "type": "function"
    },
    {
      "inputs": [
        {
          "internalType": "bytes4",
          "name": "interfaceId",
          "type": "bytes4"
        }
      ],
      "name": "supportsInterface",
      "outputs": [
        {
          "internalType": "bool",
          "name": "",
          "type": "bool"
        }
      ],
      "stateMutability": "view",
      "type": "function"
    },
    {
      "inputs": [
        {
          "internalType": "address",
          "name": "newAdmin",
          "type": "address"
        }
      ],
      "name": "transferAdmin",
      "outputs": [],
      "stateMutability": "nonpayable",
      "type": "function"
    },
    {
      "inputs": [
        {
          "internalType": "address",
          "name": "newAdmin",
          "type": "address"
        }
      ],
      "name": "transferOwnership",
      "outputs": [],
      "stateMutability": "nonpayable",
      "type": "function"
    },
    {
      "inputs": [
        {
          "internalType": "address",
          "name": "impl",
          "type": "address"
        }
      ],
      "name": "upgradeTo",
      "outputs": [],
      "stateMutability": "nonpayable",
      "type": "function"
    },
    {
      "stateMutability": "payable",
      "type": "receive"
    }
  ],
  "bytecode": "0x6080604052346100f0576301ffc9a760e01b600090815260046020527f9fe05126d2d9ecf60592e254dead906a4b2e492f36cca727682c38e9008c6ac1805460ff19166001179055610050336100f5565b507ff0887ba65ee2024ea881d91b74c2450ef19e1557f03bed3ea9f16b037cbe2dc98082526005602052816001604082200181815491557fbd79b86ffe0ab8e8776151514217cd7cacd52c909f66475c3af44e129f0b00ff92838380a47f523a704056dcd17bcf83bed8b68c59416dac1119be77755efe3bde0a64e46e0c808352600160408420019183835493558380a460405161178a90816101878239f35b600080fd5b6001600160a01b031660008181527f05b8ccbb9d4d8fb16ea74ce3c29a41f1b461fbdaff4714a0d9a8eb05499746bc602052604081205490919060ff166101825781805260056020526040822081835260205260408220600160ff1982541617905533917f2f8788117e7eff1d82e926ec794901d17c78024a50270940304540a733656f0d8180a4600190565b509056fe60806040526004361015610018575b36611639576111ce565b60003560e01c806301ffc9a7146102735780631785f53c1461026e578063248a9ca31461026957806324d7806c146102645780632ab6f8db1461025f5780632f2ff15d1461025a5780633092afd51461025557806336568abe146102505780633659cfe61461024b5780634a5df50f1461024657806350d2a27614610241578063550d01a31461023c5780635c60da1b146102375780635cc797d81461023257806363a8fd891461022d5780636d70f7ae146102285780637048027514610223578063715018a61461021e57806375829def146102195780637cb00d25146102145780637cd5f6631461020f5780638b8f4a65146101dd5780638d4fdb401461020a5780638f32d59b1461020557806391d1485414610200578063983b2d56146101fb57806398650275146101f65780639870d7fe146101f1578063a217fddf146101ec578063aa271e1a146101e7578063ac8a584a146101e2578063b911135f146101dd578063cfbd4885146101d8578063d5391393146101d3578063d547741f146101ce578063f2fde38b146101c9578063f5b541a6146101c45763fad8b32a0361000e57610ee2565b610eb9565b610e3f565b610e00565b610dd7565b610d67565b610afe565b610d20565b610ce0565b610cc4565b610c54565b610c3a565b610bca565b610b96565b610b6b565b610b32565b610a8f565b610a3a565b610955565b61091d565b6108b7565b610877565b610854565b610800565b6107cc565b61078d565b610730565b61056a565b610490565b610449565b610402565b6103c3565b6103a9565b61036b565b61033c565b6102ec565b61028f565b6001600160e01b031981160361028a57565b600080fd5b3461028a57602036600319011261028a5760206102b66004356102b181610278565b61120a565b6040519015158152f35b600435906001600160a01b038216820361028a57565b602435906001600160a01b038216820361028a57565b3461028a57602036600319011261028a5761033a6103086102c0565b60008052600560205261033560ff61032e33600080516020611735833981519152610776565b5416610f52565b610fe6565b005b3461028a57602036600319011261028a5760043560005260056020526020600160406000200154604051908152f35b3461028a57602036600319011261028a57602060ff61039d61038b6102c0565b60008052600584526040600020610776565b54166040519015158152f35b3461028a57600036600319011261028a5761033a33610fff565b3461028a57604036600319011261028a5761033a6004356103e26102d6565b908060005260056020526103fd600160406000200154611233565b6113e0565b3461028a57602036600319011261028a5761033a61041e6102c0565b60008052600560205261044460ff61032e33600080516020611735833981519152610776565b611018565b3461028a57604036600319011261028a576104626102d6565b336001600160a01b0382160361047e5761033a9060043561155c565b60405163334bd91960e11b8152600490fd5b3461028a57602036600319011261028a576104a96102c0565b60008080526005602052906104d160ff61032e33600080516020611735833981519152610776565b6001600160a01b038116908115610535578280526001602052604083205461050e9190610509906001600160a01b0316841415611031565b611576565b7fbc7cd75a20ee27fd9adebab32041f755214dbc6bffa90cc0225b39da2e5c2d3b8280a280f35b60405162461bcd60e51b815260206004820152600d60248201526c696e707574206973207a65726f60981b6044820152606490fd5b3461028a57604036600319011261028a5767ffffffffffffffff60043581811161028a573660238201121561028a57806004013591821161028a576024810190602436918460051b01011161028a576105c16102d6565b60008080526005602052926105e960ff61032e33600080516020611735833981519152610776565b80156106ec5761061f61061a61061384959460018060a01b03166000526002602052604060002090565b5460ff1690565b611069565b6001600160a01b03928084169290855b83811061063a578680f35b80610689868861068161067461065b6106566001988c8c6110b0565b6110d6565b63ffffffff60e01b166000526003602052604060002090565b546001600160a01b031690565b1614156110e3565b6106a38361069e61065b610656858a8a6110b0565b61112f565b856106c26106b56106568489896110b0565b6001600160e01b03191690565b7f14ebc1c32aa68f4d766e89f3e546cee249f7df25183fc10ab1568d91c2ce9b7b8a80a30161062f565b606460405162461bcd60e51b815260206004820152602060248201527f50726f78793a205f73656c6563746f727327732073697a65206973207a65726f6044820152fd5b3461028a57602036600319011261028a5760043561074d81610278565b63ffffffff60e01b166000526003602052602060018060a01b0360406000205416604051908152f35b9060018060a01b0316600052602052604060002090565b3461028a57602036600319011261028a576001600160a01b036107ae6102c0565b166000526002602052602060ff604060002054166040519015158152f35b3461028a576000806003193601126107fd5780806020925260018252604060018060a01b0391205416604051908152f35b80fd5b3461028a57604036600319011261028a576108196102c0565b602435801515810361028a5760008052600560205261033a9161084f60ff61032e33600080516020611735833981519152610776565b6115e5565b3461028a57600036600319011261028a57602060ff600054166040519015158152f35b3461028a57602036600319011261028a57602060ff61039d6108976102c0565b600080516020611715833981519152600052600584526040600020610776565b3461028a57602036600319011261028a576108d06102c0565b6000808052600560205290610919906108fc60ff61032e33600080516020611735833981519152610776565b82805260056020526109146001604085200154611233565b611274565b5080f35b3461028a576000806003193601126107fd57808052600560205261094960ff61032e3360408520610776565b61095233610fe6565b80f35b3461028a57602036600319011261028a5761096e6102c0565b60008052600560205261099460ff61032e33600080516020611735833981519152610776565b6001600160a01b03811680156109fa5733146109bc576109b390610faa565b61033a33610fe6565b60405162461bcd60e51b815260206004820152601660248201527520b1b1b2b9b9b4b136329d1039b0b6b29030b236b4b760511b6044820152606490fd5b60405162461bcd60e51b815260206004820152601860248201527741636365737369626c653a207a65726f206164647265737360401b6044820152606490fd5b3461028a57602036600319011261028a5760043580151580910361028a576000808052600560205290610a8060ff61032e33600080516020611735833981519152610776565b60ff8019835416911617815580f35b3461028a57606036600319011261028a57610aa86102c0565b604435801515810361028a576000808052600560205291610952919081610ae260ff61032e33600080516020611735833981519152610776565b156115e5576024358452600160205261084f816040862061112f565b3461028a57602036600319011261028a576004356000526001602052602060018060a01b0360406000205416604051908152f35b3461028a57602036600319011261028a576020610b59600435610b5481610278565b61114e565b6040516001600160a01b039091168152f35b3461028a576000806003193601126107fd5760ff61039d828060209452600584526040339120610776565b3461028a57604036600319011261028a57602060ff61039d610bb66102d6565b600435600052600584526040600020610776565b3461028a57602036600319011261028a57610be36102c0565b600080805260056020529061091990610c0f60ff61032e33600080516020611735833981519152610776565b6000805160206116f583398151915283526005602052610c356001604085200154611233565b6112f3565b3461028a57600036600319011261028a5761033a33611018565b3461028a57602036600319011261028a57610c6d6102c0565b600080805260056020529061091990610c9960ff61032e33600080516020611735833981519152610776565b60008051602061171583398151915283526005602052610cbf6001604085200154611233565b61139a565b3461028a57600036600319011261028a57602060405160008152f35b3461028a57602036600319011261028a57602060ff61039d610d006102c0565b6000805160206116f5833981519152600052600584526040600020610776565b3461028a57602036600319011261028a5761033a610d3c6102c0565b600080526005602052610d6260ff61032e33600080516020611735833981519152610776565b610fff565b3461028a57602036600319011261028a57610d806102c0565b600080805260056020529061091990610dac60ff61032e33600080516020611735833981519152610776565b6000805160206116f583398151915283526005602052610dd26001604085200154611233565b6113fa565b3461028a57600036600319011261028a5760206040516000805160206116f58339815191528152f35b3461028a57604036600319011261028a5761033a600435610e1f6102d6565b90806000526005602052610e3a600160406000200154611233565b61155c565b3461028a57602036600319011261028a57610e586102c0565b6000808052600560205290610e8060ff61032e33600080516020611735833981519152610776565b8180526005602052610e9a60ff61032e3360408620610776565b6001600160a01b03811680156109fa5733146109bc5761094990610faa565b3461028a57600036600319011261028a5760206040516000805160206117158339815191528152f35b3461028a57602036600319011261028a57610efb6102c0565b600080805260056020529061091990610f2760ff61032e33600080516020611735833981519152610776565b60008051602061171583398151915283526005602052610f4d6001604085200154611233565b611499565b15610f5957565b60405162461bcd60e51b815260206004820152602360248201527f41757468436f6e74726f6c3a2043616c6c6572206973206e6f7420616e20616460448201526236b4b760e91b6064820152608490fd5b6000805260056020527f05b8ccbb9d4d8fb16ea74ce3c29a41f1b461fbdaff4714a0d9a8eb05499746bd54610fe3919061091490611233565b50565b336001600160a01b0382160361047e57610fe3906114df565b336001600160a01b0382160361047e57610fe390611499565b336001600160a01b0382160361047e57610fe3906113fa565b1561103857565b60405162461bcd60e51b815260206004820152600960248201526839b0b6b29030b2323960b91b6044820152606490fd5b1561107057565b60405162461bcd60e51b815260206004820152601860248201527750726f78793a205f696d70206973206e6f7420616c69766560401b6044820152606490fd5b91908110156110c05760051b0190565b634e487b7160e01b600052603260045260246000fd5b356110e081610278565b90565b156110ea57565b60405162461bcd60e51b815260206004820152601d60248201527f4c69717569646974795661756c7450726f78793a2073616d6520696d700000006044820152606490fd5b80546001600160a01b0319166001600160a01b03909216919091179055565b6001600160e01b0319166000908152600360205260409020546001600160a01b039081168061119557506000805260016020526000805160206116d5833981519152541690565b80600052600260205260ff604060002054166111c957506000805260016020526000805160206116d5833981519152541690565b905090565b60405162461bcd60e51b815260206004820152601460248201527331b0b73737ba103932b1b2b4bb329022ba3432b960611b6044820152606490fd5b6001600160e01b03198116637965db0b60e01b14908115611229575090565b6110e0915061120a565b80600052600560205260ff61124c336040600020610776565b5416156112565750565b6044906040519063e2517d3f60e01b82523360048301526024820152fd5b6000808052600560205260ff61129883600080516020611735833981519152610776565b54166111c95780805260056020526112b38260408320610776565b805460ff1916600117905533916001600160a01b0316907f2f8788117e7eff1d82e926ec794901d17c78024a50270940304540a733656f0d8180a4600190565b6000805160206116f5833981519152600081815260056020529060ff611339847fca0a2f641ec05ca23127d994cf03ffc453db616acae0b86cb56bb95304d06854610776565b54166113945780825260056020526113548360408420610776565b805460ff1916600117905533926001600160a01b0316917f2f8788117e7eff1d82e926ec794901d17c78024a50270940304540a733656f0d9080a4600190565b50905090565b600080516020611715833981519152600081815260056020529060ff611339847f02634a7c777b8129955fe1824eee49ef19dfa96f2f4cb63212492c3d84eb58e6610776565b600090808252600560205260ff6113398460408520610776565b6000805160206116f5833981519152600081815260056020529060ff611440847fca0a2f641ec05ca23127d994cf03ffc453db616acae0b86cb56bb95304d06854610776565b54161561139457808252600560205261145c8360408420610776565b805460ff1916905533926001600160a01b0316917ff6391f5c32d9c69d2a47ea670b442974b53935d1edc7fd64eb21e047a839171b9080a4600190565b600080516020611715833981519152600081815260056020529060ff611440847f02634a7c777b8129955fe1824eee49ef19dfa96f2f4cb63212492c3d84eb58e6610776565b6000808052600560205260ff61150383600080516020611735833981519152610776565b5416156111c957808052600560205261151f8260408320610776565b805460ff1916905533916001600160a01b0316907ff6391f5c32d9c69d2a47ea670b442974b53935d1edc7fd64eb21e047a839171b8180a4600190565b600090808252600560205260ff6114408460408520610776565b600080526001602052611597816000805160206116d583398151915261112f565b60018060a01b03168060005260026020526040600020600160ff198254161790557f72558d9bfba4210f9ef095c782589484151f6d90f7a81bb3cb9b33efc695d324602060405160018152a2565b60207f72558d9bfba4210f9ef095c782589484151f6d90f7a81bb3cb9b33efc695d3249160018060a01b031692836000526002825260406000209015159060ff1981541660ff8316179055604051908152a2565b600061164f81356001600160e01b03191661114e565b6001600160a01b0381161515806116c8575b1561168357818091368280378136915af43d82803e1561167f573d90f35b3d90fd5b60405162461bcd60e51b815260206004820152601d60248201527f50726f78793a20696d706c204f522070726f78792069732066616c73650000006044820152606490fd5b5060ff8254161561166156fea6eef7e35abe7026729641147f7915573c7e97b47efa546f5f6e3230263bcb49f0887ba65ee2024ea881d91b74c2450ef19e1557f03bed3ea9f16b037cbe2dc9523a704056dcd17bcf83bed8b68c59416dac1119be77755efe3bde0a64e46e0c05b8ccbb9d4d8fb16ea74ce3c29a41f1b461fbdaff4714a0d9a8eb05499746bca2646970667358221220a6e5587e725cd45bde6b643299fcc090204f6d72cba4081f6f4b604a388b748664736f6c63430008190033",
  "linkReferences": {},
  "deployedLinkReferences": {}
}