{
  "_format": "hh-sol-artifact-1",
  "contractName": "ProxyCoinage",
  "sourceName": "src/L1/Mock/proxy/ProxyCoinage.sol",
  "abi": [
    {
      "inputs": [],
      "stateMutability": "nonpayable",
      "type": "constructor"
    },
    {
      "inputs": [],
      "name": "AccessControlBadConfirmation",
      "type": "error"
    },
    {
      "inputs": [
        {
          "internalType": "address",
          "name": "account",
          "type": "address"
        },
        {
          "internalType": "bytes32",
          "name": "neededRole",
          "type": "bytes32"
        }
      ],
      "name": "AccessControlUnauthorizedAccount",
      "type": "error"
    },
    {
      "anonymous": false,
      "inputs": [
        {
          "indexed": true,
          "internalType": "bytes32",
          "name": "role",
          "type": "bytes32"
        },
        {
          "indexed": true,
          "internalType": "bytes32",
          "name": "previousAdminRole",
          "type": "bytes32"
        },
        {
          "indexed": true,
          "internalType": "bytes32",
          "name": "newAdminRole",
          "type": "bytes32"
        }
      ],
      "name": "RoleAdminChanged",
      "type": "event"
    },
    {
      "anonymous": false,
      "inputs": [
        {
          "indexed": true,
          "internalType": "bytes32",
          "name": "role",
          "type": "bytes32"
        },
        {
          "indexed": true,
          "internalType": "address",
          "name": "account",
          "type": "address"
        },
        {
          "indexed": true,
          "internalType": "address",
          "name": "sender",
          "type": "address"
        }
      ],
      "name": "RoleGranted",
      "type": "event"
    },
    {
      "anonymous": false,
      "inputs": [
        {
          "indexed": true,
          "internalType": "bytes32",
          "name": "role",
          "type": "bytes32"
        },
        {
          "indexed": true,
          "internalType": "address",
          "name": "account",
          "type": "address"
        },
        {
          "indexed": true,
          "internalType": "address",
          "name": "sender",
          "type": "address"
        }
      ],
      "name": "RoleRevoked",
      "type": "event"
    },
    {
      "anonymous": false,
      "inputs": [
        {
          "indexed": true,
          "internalType": "address",
          "name": "impl",
          "type": "address"
        },
        {
          "indexed": false,
          "internalType": "bool",
          "name": "alive",
          "type": "bool"
        }
      ],
      "name": "SetAliveImplementation",
      "type": "event"
    },
    {
      "anonymous": false,
      "inputs": [
        {
          "indexed": true,
          "internalType": "bytes4",
          "name": "selector",
          "type": "bytes4"
        },
        {
          "indexed": true,
          "internalType": "address",
          "name": "impl",
          "type": "address"
        }
      ],
      "name": "SetSelectorImplementation",
      "type": "event"
    },
    {
      "anonymous": false,
      "inputs": [
        {
          "indexed": true,
          "internalType": "address",
          "name": "implementation",
          "type": "address"
        }
      ],
      "name": "Upgraded",
      "type": "event"
    },
    {
      "stateMutability": "payable",
      "type": "fallback"
    },
    {
      "inputs": [],
      "name": "DEFAULT_ADMIN_ROLE",
      "outputs": [
        {
          "internalType": "bytes32",
          "name": "",
          "type": "bytes32"
        }
      ],
      "stateMutability": "view",
      "type": "function"
    },
    {
      "inputs": [],
      "name": "MINTER_ROLE",
      "outputs": [
        {
          "internalType": "bytes32",
          "name": "",
          "type": "bytes32"
        }
      ],
      "stateMutability": "view",
      "type": "function"
    },
    {
      "inputs": [],
      "name": "OPERATOR_ROLE",
      "outputs": [
        {
          "internalType": "bytes32",
          "name": "",
          "type": "bytes32"
        }
      ],
      "stateMutability": "view",
      "type": "function"
    },
    {
      "inputs": [
        {
          "internalType": "address",
          "name": "account",
          "type": "address"
        }
      ],
      "name": "addAdmin",
      "outputs": [],
      "stateMutability": "nonpayable",
      "type": "function"
    },
    {
      "inputs": [
        {
          "internalType": "address",
          "name": "account",
          "type": "address"
        }
      ],
      "name": "addMinter",
      "outputs": [],
      "stateMutability": "nonpayable",
      "type": "function"
    },
    {
      "inputs": [
        {
          "internalType": "address",
          "name": "account",
          "type": "address"
        }
      ],
      "name": "addOperator",
      "outputs": [],
      "stateMutability": "nonpayable",
      "type": "function"
    },
    {
      "inputs": [
        {
          "internalType": "address",
          "name": "",
          "type": "address"
        }
      ],
      "name": "aliveImplementation",
      "outputs": [
        {
          "internalType": "bool",
          "name": "",
          "type": "bool"
        }
      ],
      "stateMutability": "view",
      "type": "function"
    },
    {
      "inputs": [
        {
          "internalType": "bytes32",
          "name": "role",
          "type": "bytes32"
        }
      ],
      "name": "getRoleAdmin",
      "outputs": [
        {
          "internalType": "bytes32",
          "name": "",
          "type": "bytes32"
        }
      ],
      "stateMutability": "view",
      "type": "function"
    },
    {
      "inputs": [
        {
          "internalType": "bytes4",
          "name": "_selector",
          "type": "bytes4"
        }
      ],
      "name": "getSelectorImplementation2",
      "outputs": [
        {
          "internalType": "address",
          "name": "impl",
          "type": "address"
        }
      ],
      "stateMutability": "view",
      "type": "function"
    },
    {
      "inputs": [
        {
          "internalType": "bytes32",
          "name": "role",
          "type": "bytes32"
        },
        {
          "internalType": "address",
          "name": "account",
          "type": "address"
        }
      ],
      "name": "grantRole",
      "outputs": [],
      "stateMutability": "nonpayable",
      "type": "function"
    },
    {
      "inputs": [
        {
          "internalType": "bytes32",
          "name": "role",
          "type": "bytes32"
        },
        {
          "internalType": "address",
          "name": "account",
          "type": "address"
        }
      ],
      "name": "hasRole",
      "outputs": [
        {
          "internalType": "bool",
          "name": "",
          "type": "bool"
        }
      ],
      "stateMutability": "view",
      "type": "function"
    },
    {
      "inputs": [],
      "name": "implementation",
      "outputs": [
        {
          "internalType": "address",
          "name": "",
          "type": "address"
        }
      ],
      "stateMutability": "view",
      "type": "function"
    },
    {
      "inputs": [
        {
          "internalType": "uint256",
          "name": "_index",
          "type": "uint256"
        }
      ],
      "name": "implementation2",
      "outputs": [
        {
          "internalType": "address",
          "name": "",
          "type": "address"
        }
      ],
      "stateMutability": "view",
      "type": "function"
    },
    {
      "inputs": [
        {
          "internalType": "address",
          "name": "account",
          "type": "address"
        }
      ],
      "name": "isAdmin",
      "outputs": [
        {
          "internalType": "bool",
          "name": "",
          "type": "bool"
        }
      ],
      "stateMutability": "view",
      "type": "function"
    },
    {
      "inputs": [
        {
          "internalType": "address",
          "name": "account",
          "type": "address"
        }
      ],
      "name": "isMinter",
      "outputs": [
        {
          "internalType": "bool",
          "name": "",
          "type": "bool"
        }
      ],
      "stateMutability": "view",
      "type": "function"
    },
    {
      "inputs": [
        {
          "internalType": "address",
          "name": "account",
          "type": "address"
        }
      ],
      "name": "isOperator",
      "outputs": [
        {
          "internalType": "bool",
          "name": "",
          "type": "bool"
        }
      ],
      "stateMutability": "view",
      "type": "function"
    },
    {
      "inputs": [],
      "name": "isOwner",
      "outputs": [
        {
          "internalType": "bool",
          "name": "",
          "type": "bool"
        }
      ],
      "stateMutability": "view",
      "type": "function"
    },
    {
      "inputs": [],
      "name": "pauseProxy",
      "outputs": [
        {
          "internalType": "bool",
          "name": "",
          "type": "bool"
        }
      ],
      "stateMutability": "view",
      "type": "function"
    },
    {
      "inputs": [
        {
          "internalType": "uint256",
          "name": "",
          "type": "uint256"
        }
      ],
      "name": "proxyImplementation",
      "outputs": [
        {
          "internalType": "address",
          "name": "",
          "type": "address"
        }
      ],
      "stateMutability": "view",
      "type": "function"
    },
    {
      "inputs": [
        {
          "internalType": "address",
          "name": "account",
          "type": "address"
        }
      ],
      "name": "removeAdmin",
      "outputs": [],
      "stateMutability": "nonpayable",
      "type": "function"
    },
    {
      "inputs": [
        {
          "internalType": "address",
          "name": "account",
          "type": "address"
        }
      ],
      "name": "removeMinter",
      "outputs": [],
      "stateMutability": "nonpayable",
      "type": "function"
    },
    {
      "inputs": [
        {
          "internalType": "address",
          "name": "account",
          "type": "address"
        }
      ],
      "name": "removeOperator",
      "outputs": [],
      "stateMutability": "nonpayable",
      "type": "function"
    },
    {
      "inputs": [],
      "name": "renounceMinter",
      "outputs": [],
      "stateMutability": "nonpayable",
      "type": "function"
    },
    {
      "inputs": [],
      "name": "renounceOperator",
      "outputs": [],
      "stateMutability": "nonpayable",
      "type": "function"
    },
    {
      "inputs": [],
      "name": "renounceOwnership",
      "outputs": [],
      "stateMutability": "nonpayable",
      "type": "function"
    },
    {
      "inputs": [
        {
          "internalType": "bytes32",
          "name": "role",
          "type": "bytes32"
        },
        {
          "internalType": "address",
          "name": "callerConfirmation",
          "type": "address"
        }
      ],
      "name": "renounceRole",
      "outputs": [],
      "stateMutability": "nonpayable",
      "type": "function"
    },
    {
      "inputs": [
        {
          "internalType": "address",
          "name": "account",
          "type": "address"
        }
      ],
      "name": "revokeMinter",
      "outputs": [],
      "stateMutability": "nonpayable",
      "type": "function"
    },
    {
      "inputs": [
        {
          "internalType": "address",
          "name": "account",
          "type": "address"
        }
      ],
      "name": "revokeOperator",
      "outputs": [],
      "stateMutability": "nonpayable",
      "type": "function"
    },
    {
      "inputs": [
        {
          "internalType": "bytes32",
          "name": "role",
          "type": "bytes32"
        },
        {
          "internalType": "address",
          "name": "account",
          "type": "address"
        }
      ],
      "name": "revokeRole",
      "outputs": [],
      "stateMutability": "nonpayable",
      "type": "function"
    },
    {
      "inputs": [
        {
          "internalType": "bytes4",
          "name": "",
          "type": "bytes4"
        }
      ],
      "name": "selectorImplementation",
      "outputs": [
        {
          "internalType": "address",
          "name": "",
          "type": "address"
        }
      ],
      "stateMutability": "view",
      "type": "function"
    },
    {
      "inputs": [
        {
          "internalType": "address",
          "name": "newImplementation",
          "type": "address"
        },
        {
          "internalType": "bool",
          "name": "_alive",
          "type": "bool"
        }
      ],
      "name": "setAliveImplementation2",
      "outputs": [],
      "stateMutability": "nonpayable",
      "type": "function"
    },
    {
      "inputs": [
        {
          "internalType": "address",
          "name": "newImplementation",
          "type": "address"
        },
        {
          "internalType": "uint256",
          "name": "_index",
          "type": "uint256"
        },
        {
          "internalType": "bool",
          "name": "_alive",
          "type": "bool"
        }
      ],
      "name": "setImplementation2",
      "outputs": [],
      "stateMutability": "nonpayable",
      "type": "function"
    },
    {
      "inputs": [
        {
          "internalType": "bool",
          "name": "_pause",
          "type": "bool"
        }
      ],
      "name": "setProxyPause",
      "outputs": [],
      "stateMutability": "nonpayable",
      "type": "function"
    },
    {
      "inputs": [
        {
          "internalType": "bytes4[]",
          "name": "_selectors",
          "type": "bytes4[]"
        },
        {
          "internalType": "address",
          "name": "_imp",
          "type": "address"
        }
      ],
      "name": "setSelectorImplementations2",
      "outputs": [],
      "stateMutability": "nonpayable",
      "type": "function"
    },
    {
      "inputs": [
        {
          "internalType": "bytes4",
          "name": "interfaceId",
          "type": "bytes4"
        }
      ],
      "name": "supportsInterface",
      "outputs": [
        {
          "internalType": "bool",
          "name": "",
          "type": "bool"
        }
      ],
      "stateMutability": "view",
      "type": "function"
    },
    {
      "inputs": [
        {
          "internalType": "address",
          "name": "newAdmin",
          "type": "address"
        }
      ],
      "name": "transferAdmin",
      "outputs": [],
      "stateMutability": "nonpayable",
      "type": "function"
    },
    {
      "inputs": [
        {
          "internalType": "address",
          "name": "newAdmin",
          "type": "address"
        }
      ],
      "name": "transferOwnership",
      "outputs": [],
      "stateMutability": "nonpayable",
      "type": "function"
    },
    {
      "inputs": [
        {
          "internalType": "address",
          "name": "impl",
          "type": "address"
        }
      ],
      "name": "upgradeTo",
      "outputs": [],
      "stateMutability": "nonpayable",
      "type": "function"
    },
    {
      "stateMutability": "payable",
      "type": "receive"
    }
  ],
  "bytecode": "0x6080604052346100d257610012336100d7565b507ff0887ba65ee2024ea881d91b74c2450ef19e1557f03bed3ea9f16b037cbe2dc9600081815260046020527fc8eb82122b0a761efb0e99f166311d3c9fc899bad9a87f4be6a6aaea831ff0e380549082905590917fbd79b86ffe0ab8e8776151514217cd7cacd52c909f66475c3af44e129f0b00ff918391838380a47f523a704056dcd17bcf83bed8b68c59416dac1119be77755efe3bde0a64e46e0c808352600160408420019183835493558380a460405161178690816101698239f35b600080fd5b6001600160a01b031660008181527f17ef568e3e12ab5b9c7254a8d58478811de00f9e6eb34345acd53bf8fd09d3ec602052604081205490919060ff166101645781805260046020526040822081835260205260408220600160ff1982541617905533917f2f8788117e7eff1d82e926ec794901d17c78024a50270940304540a733656f0d8180a4600190565b509056fe60806040526004361015610018575b36611635576111f3565b60003560e01c806301ffc9a7146102735780631785f53c1461026e578063248a9ca31461026957806324d7806c146102645780632ab6f8db1461025f5780632f2ff15d1461025a5780633092afd51461025557806336568abe146102505780633659cfe61461024b5780634a5df50f1461024657806350d2a27614610241578063550d01a31461023c5780635c60da1b146102375780635cc797d81461023257806363a8fd891461022d5780636d70f7ae146102285780637048027514610223578063715018a61461021e57806375829def146102195780637cb00d25146102145780637cd5f6631461020f5780638b8f4a65146101dd5780638d4fdb401461020a5780638f32d59b1461020557806391d1485414610200578063983b2d56146101fb57806398650275146101f65780639870d7fe146101f1578063a217fddf146101ec578063aa271e1a146101e7578063ac8a584a146101e2578063b911135f146101dd578063cfbd4885146101d8578063d5391393146101d3578063d547741f146101ce578063f2fde38b146101c9578063f5b541a6146101c45763fad8b32a0361000e57610f07565b610ede565b610e64565b610e25565b610dfc565b610d8c565b610b23565b610d45565b610d05565b610ce9565b610c79565b610c5f565b610bef565b610bbb565b610b90565b610b57565b610ab4565b610a5f565b61097a565b610942565b6108dc565b61089c565b610879565b610825565b6107f1565b6107b2565b610755565b61058f565b6104b5565b61046e565b610427565b6103e8565b6103ce565b610390565b610361565b610311565b61028f565b6001600160e01b031981160361028a57565b600080fd5b3461028a57602036600319011261028a5760206004356102ae81610278565b63ffffffff60e01b16637965db0b60e01b81149081156102d4575b506040519015158152f35b6301ffc9a760e01b149050386102c9565b600435906001600160a01b038216820361028a57565b602435906001600160a01b038216820361028a57565b3461028a57602036600319011261028a5761035f61032d6102e5565b60008052600460205261035a60ff610353336000805160206116f183398151915261079b565b5416610f77565b61100b565b005b3461028a57602036600319011261028a5760043560005260046020526020600160406000200154604051908152f35b3461028a57602036600319011261028a57602060ff6103c26103b06102e5565b6000805260048452604060002061079b565b54166040519015158152f35b3461028a57600036600319011261028a5761035f33611024565b3461028a57604036600319011261028a5761035f6004356104076102fb565b9080600052600460205261042260016040600020015461122f565b6113dc565b3461028a57602036600319011261028a5761035f6104436102e5565b60008052600460205261046960ff610353336000805160206116f183398151915261079b565b61103d565b3461028a57604036600319011261028a576104876102fb565b336001600160a01b038216036104a35761035f90600435611558565b60405163334bd91960e11b8152600490fd5b3461028a57602036600319011261028a576104ce6102e5565b60008080526004602052906104f660ff610353336000805160206116f183398151915261079b565b6001600160a01b03811690811561055a5782805260016020526040832054610533919061052e906001600160a01b0316841415611056565b611572565b7fbc7cd75a20ee27fd9adebab32041f755214dbc6bffa90cc0225b39da2e5c2d3b8280a280f35b60405162461bcd60e51b815260206004820152600d60248201526c696e707574206973207a65726f60981b6044820152606490fd5b3461028a57604036600319011261028a5767ffffffffffffffff60043581811161028a573660238201121561028a57806004013591821161028a576024810190602436918460051b01011161028a576105e66102fb565b600080805260046020529261060e60ff610353336000805160206116f183398151915261079b565b80156107115761064461063f61063884959460018060a01b03166000526002602052604060002090565b5460ff1690565b61108e565b6001600160a01b03928084169290855b83811061065f578680f35b806106ae86886106a661069961068061067b6001988c8c6110d5565b6110fb565b63ffffffff60e01b166000526003602052604060002090565b546001600160a01b031690565b161415611108565b6106c8836106c361068061067b858a8a6110d5565b611154565b856106e76106da61067b8489896110d5565b6001600160e01b03191690565b7f14ebc1c32aa68f4d766e89f3e546cee249f7df25183fc10ab1568d91c2ce9b7b8a80a301610654565b606460405162461bcd60e51b815260206004820152602060248201527f50726f78793a205f73656c6563746f727327732073697a65206973207a65726f6044820152fd5b3461028a57602036600319011261028a5760043561077281610278565b63ffffffff60e01b166000526003602052602060018060a01b0360406000205416604051908152f35b9060018060a01b0316600052602052604060002090565b3461028a57602036600319011261028a576001600160a01b036107d36102e5565b166000526002602052602060ff604060002054166040519015158152f35b3461028a576000806003193601126108225780806020925260018252604060018060a01b0391205416604051908152f35b80fd5b3461028a57604036600319011261028a5761083e6102e5565b602435801515810361028a5760008052600460205261035f9161087460ff610353336000805160206116f183398151915261079b565b6115e1565b3461028a57600036600319011261028a57602060ff600054166040519015158152f35b3461028a57602036600319011261028a57602060ff6103c26108bc6102e5565b60008051602061173183398151915260005260048452604060002061079b565b3461028a57602036600319011261028a576108f56102e5565b600080805260046020529061093e9061092160ff610353336000805160206116f183398151915261079b565b8280526004602052610939600160408520015461122f565b611270565b5080f35b3461028a5760008060031936011261082257808052600460205261096e60ff610353336040852061079b565b6109773361100b565b80f35b3461028a57602036600319011261028a576109936102e5565b6000805260046020526109b960ff610353336000805160206116f183398151915261079b565b6001600160a01b0381168015610a1f5733146109e1576109d890610fcf565b61035f3361100b565b60405162461bcd60e51b815260206004820152601660248201527520b1b1b2b9b9b4b136329d1039b0b6b29030b236b4b760511b6044820152606490fd5b60405162461bcd60e51b815260206004820152601860248201527741636365737369626c653a207a65726f206164647265737360401b6044820152606490fd5b3461028a57602036600319011261028a5760043580151580910361028a576000808052600460205290610aa560ff610353336000805160206116f183398151915261079b565b60ff8019835416911617815580f35b3461028a57606036600319011261028a57610acd6102e5565b604435801515810361028a576000808052600460205291610977919081610b0760ff610353336000805160206116f183398151915261079b565b156115e157602435845260016020526108748160408620611154565b3461028a57602036600319011261028a576004356000526001602052602060018060a01b0360406000205416604051908152f35b3461028a57602036600319011261028a576020610b7e600435610b7981610278565b611173565b6040516001600160a01b039091168152f35b3461028a576000806003193601126108225760ff6103c282806020945260048452604033912061079b565b3461028a57604036600319011261028a57602060ff6103c2610bdb6102fb565b60043560005260048452604060002061079b565b3461028a57602036600319011261028a57610c086102e5565b600080805260046020529061093e90610c3460ff610353336000805160206116f183398151915261079b565b60008051602061171183398151915283526004602052610c5a600160408520015461122f565b6112ef565b3461028a57600036600319011261028a5761035f3361103d565b3461028a57602036600319011261028a57610c926102e5565b600080805260046020529061093e90610cbe60ff610353336000805160206116f183398151915261079b565b60008051602061173183398151915283526004602052610ce4600160408520015461122f565b611396565b3461028a57600036600319011261028a57602060405160008152f35b3461028a57602036600319011261028a57602060ff6103c2610d256102e5565b60008051602061171183398151915260005260048452604060002061079b565b3461028a57602036600319011261028a5761035f610d616102e5565b600080526004602052610d8760ff610353336000805160206116f183398151915261079b565b611024565b3461028a57602036600319011261028a57610da56102e5565b600080805260046020529061093e90610dd160ff610353336000805160206116f183398151915261079b565b60008051602061171183398151915283526004602052610df7600160408520015461122f565b6113f6565b3461028a57600036600319011261028a5760206040516000805160206117118339815191528152f35b3461028a57604036600319011261028a5761035f600435610e446102fb565b90806000526004602052610e5f60016040600020015461122f565b611558565b3461028a57602036600319011261028a57610e7d6102e5565b6000808052600460205290610ea560ff610353336000805160206116f183398151915261079b565b8180526004602052610ebf60ff610353336040862061079b565b6001600160a01b0381168015610a1f5733146109e15761096e90610fcf565b3461028a57600036600319011261028a5760206040516000805160206117318339815191528152f35b3461028a57602036600319011261028a57610f206102e5565b600080805260046020529061093e90610f4c60ff610353336000805160206116f183398151915261079b565b60008051602061173183398151915283526004602052610f72600160408520015461122f565b611495565b15610f7e57565b60405162461bcd60e51b815260206004820152602360248201527f41757468436f6e74726f6c3a2043616c6c6572206973206e6f7420616e20616460448201526236b4b760e91b6064820152608490fd5b6000805260046020527f17ef568e3e12ab5b9c7254a8d58478811de00f9e6eb34345acd53bf8fd09d3ed5461100891906109399061122f565b50565b336001600160a01b038216036104a357611008906114db565b336001600160a01b038216036104a35761100890611495565b336001600160a01b038216036104a357611008906113f6565b1561105d57565b60405162461bcd60e51b815260206004820152600960248201526839b0b6b29030b2323960b91b6044820152606490fd5b1561109557565b60405162461bcd60e51b815260206004820152601860248201527750726f78793a205f696d70206973206e6f7420616c69766560401b6044820152606490fd5b91908110156110e55760051b0190565b634e487b7160e01b600052603260045260246000fd5b3561110581610278565b90565b1561110f57565b60405162461bcd60e51b815260206004820152601d60248201527f4c69717569646974795661756c7450726f78793a2073616d6520696d700000006044820152606490fd5b80546001600160a01b0319166001600160a01b03909216919091179055565b6001600160e01b0319166000908152600360205260409020546001600160a01b03908116806111ba57506000805260016020526000805160206116d1833981519152541690565b80600052600260205260ff604060002054166111ee57506000805260016020526000805160206116d1833981519152541690565b905090565b60405162461bcd60e51b815260206004820152601460248201527331b0b73737ba103932b1b2b4bb329022ba3432b960611b6044820152606490fd5b80600052600460205260ff61124833604060002061079b565b5416156112525750565b6044906040519063e2517d3f60e01b82523360048301526024820152fd5b6000808052600460205260ff611294836000805160206116f183398151915261079b565b54166111ee5780805260046020526112af826040832061079b565b805460ff1916600117905533916001600160a01b0316907f2f8788117e7eff1d82e926ec794901d17c78024a50270940304540a733656f0d8180a4600190565b600080516020611711833981519152600081815260046020529060ff611335847fc8eb82122b0a761efb0e99f166311d3c9fc899bad9a87f4be6a6aaea831ff0e261079b565b5416611390578082526004602052611350836040842061079b565b805460ff1916600117905533926001600160a01b0316917f2f8788117e7eff1d82e926ec794901d17c78024a50270940304540a733656f0d9080a4600190565b50905090565b600080516020611731833981519152600081815260046020529060ff611335847fd040eb565e09a47b48cd8067d32ca1f9075290bcdf8bb7535df4a4d0830da9f461079b565b600090808252600460205260ff611335846040852061079b565b600080516020611711833981519152600081815260046020529060ff61143c847fc8eb82122b0a761efb0e99f166311d3c9fc899bad9a87f4be6a6aaea831ff0e261079b565b541615611390578082526004602052611458836040842061079b565b805460ff1916905533926001600160a01b0316917ff6391f5c32d9c69d2a47ea670b442974b53935d1edc7fd64eb21e047a839171b9080a4600190565b600080516020611731833981519152600081815260046020529060ff61143c847fd040eb565e09a47b48cd8067d32ca1f9075290bcdf8bb7535df4a4d0830da9f461079b565b6000808052600460205260ff6114ff836000805160206116f183398151915261079b565b5416156111ee57808052600460205261151b826040832061079b565b805460ff1916905533916001600160a01b0316907ff6391f5c32d9c69d2a47ea670b442974b53935d1edc7fd64eb21e047a839171b8180a4600190565b600090808252600460205260ff61143c846040852061079b565b600080526001602052611593816000805160206116d1833981519152611154565b60018060a01b03168060005260026020526040600020600160ff198254161790557f72558d9bfba4210f9ef095c782589484151f6d90f7a81bb3cb9b33efc695d324602060405160018152a2565b60207f72558d9bfba4210f9ef095c782589484151f6d90f7a81bb3cb9b33efc695d3249160018060a01b031692836000526002825260406000209015159060ff1981541660ff8316179055604051908152a2565b600061164b81356001600160e01b031916611173565b6001600160a01b0381161515806116c4575b1561167f57818091368280378136915af43d82803e1561167b573d90f35b3d90fd5b60405162461bcd60e51b815260206004820152601d60248201527f50726f78793a20696d706c204f522070726f78792069732066616c73650000006044820152606490fd5b5060ff8254161561165d56fea6eef7e35abe7026729641147f7915573c7e97b47efa546f5f6e3230263bcb4917ef568e3e12ab5b9c7254a8d58478811de00f9e6eb34345acd53bf8fd09d3ecf0887ba65ee2024ea881d91b74c2450ef19e1557f03bed3ea9f16b037cbe2dc9523a704056dcd17bcf83bed8b68c59416dac1119be77755efe3bde0a64e46e0ca2646970667358221220c63c7095b20fb6df8a4d589d5b3f084d2a48c96f2657ee79f7f6464e7231f94864736f6c63430008190033",
  "linkReferences": {},
  "deployedLinkReferences": {}
}