{
  "_format": "hh-sol-artifact-1",
  "contractName": "L1WrappedStakedTONFactoryProxy",
  "sourceName": "src/L1/L1WrappedStakedTONFactoryProxy.sol",
  "abi": [
    {
      "inputs": [],
      "name": "AccessControlBadConfirmation",
      "type": "error"
    },
    {
      "inputs": [
        {
          "internalType": "address",
          "name": "account",
          "type": "address"
        },
        {
          "internalType": "bytes32",
          "name": "neededRole",
          "type": "bytes32"
        }
      ],
      "name": "AccessControlUnauthorizedAccount",
      "type": "error"
    },
    {
      "inputs": [],
      "name": "AlreadyInitialized",
      "type": "error"
    },
    {
      "inputs": [],
      "name": "NotContractOwner",
      "type": "error"
    },
    {
      "inputs": [],
      "name": "SameAdmin",
      "type": "error"
    },
    {
      "inputs": [],
      "name": "ZeroAddress",
      "type": "error"
    },
    {
      "anonymous": false,
      "inputs": [
        {
          "indexed": false,
          "internalType": "address",
          "name": "newImplementation",
          "type": "address"
        }
      ],
      "name": "L1WrappedStakedTONContractUgraded",
      "type": "event"
    },
    {
      "anonymous": false,
      "inputs": [
        {
          "indexed": true,
          "internalType": "bytes32",
          "name": "role",
          "type": "bytes32"
        },
        {
          "indexed": true,
          "internalType": "bytes32",
          "name": "previousAdminRole",
          "type": "bytes32"
        },
        {
          "indexed": true,
          "internalType": "bytes32",
          "name": "newAdminRole",
          "type": "bytes32"
        }
      ],
      "name": "RoleAdminChanged",
      "type": "event"
    },
    {
      "anonymous": false,
      "inputs": [
        {
          "indexed": true,
          "internalType": "bytes32",
          "name": "role",
          "type": "bytes32"
        },
        {
          "indexed": true,
          "internalType": "address",
          "name": "account",
          "type": "address"
        },
        {
          "indexed": true,
          "internalType": "address",
          "name": "sender",
          "type": "address"
        }
      ],
      "name": "RoleGranted",
      "type": "event"
    },
    {
      "anonymous": false,
      "inputs": [
        {
          "indexed": true,
          "internalType": "bytes32",
          "name": "role",
          "type": "bytes32"
        },
        {
          "indexed": true,
          "internalType": "address",
          "name": "account",
          "type": "address"
        },
        {
          "indexed": true,
          "internalType": "address",
          "name": "sender",
          "type": "address"
        }
      ],
      "name": "RoleRevoked",
      "type": "event"
    },
    {
      "anonymous": false,
      "inputs": [
        {
          "indexed": true,
          "internalType": "address",
          "name": "impl",
          "type": "address"
        },
        {
          "indexed": false,
          "internalType": "bool",
          "name": "alive",
          "type": "bool"
        }
      ],
      "name": "SetAliveImplementation",
      "type": "event"
    },
    {
      "anonymous": false,
      "inputs": [
        {
          "indexed": true,
          "internalType": "bytes4",
          "name": "selector",
          "type": "bytes4"
        },
        {
          "indexed": true,
          "internalType": "address",
          "name": "impl",
          "type": "address"
        }
      ],
      "name": "SetSelectorImplementation",
      "type": "event"
    },
    {
      "anonymous": false,
      "inputs": [
        {
          "indexed": true,
          "internalType": "address",
          "name": "implementation",
          "type": "address"
        }
      ],
      "name": "Upgraded",
      "type": "event"
    },
    {
      "anonymous": false,
      "inputs": [
        {
          "indexed": true,
          "internalType": "address",
          "name": "wston",
          "type": "address"
        },
        {
          "indexed": true,
          "internalType": "address",
          "name": "layer2Address",
          "type": "address"
        }
      ],
      "name": "WSTONTokenCreated",
      "type": "event"
    },
    {
      "stateMutability": "payable",
      "type": "fallback"
    },
    {
      "inputs": [],
      "name": "ADMIN_ROLE",
      "outputs": [
        {
          "internalType": "bytes32",
          "name": "",
          "type": "bytes32"
        }
      ],
      "stateMutability": "view",
      "type": "function"
    },
    {
      "inputs": [],
      "name": "DEFAULT_ADMIN_ROLE",
      "outputs": [
        {
          "internalType": "bytes32",
          "name": "",
          "type": "bytes32"
        }
      ],
      "stateMutability": "view",
      "type": "function"
    },
    {
      "inputs": [],
      "name": "PAUSE_ROLE",
      "outputs": [
        {
          "internalType": "bytes32",
          "name": "",
          "type": "bytes32"
        }
      ],
      "stateMutability": "view",
      "type": "function"
    },
    {
      "inputs": [
        {
          "internalType": "address",
          "name": "account",
          "type": "address"
        }
      ],
      "name": "addAdmin",
      "outputs": [],
      "stateMutability": "nonpayable",
      "type": "function"
    },
    {
      "inputs": [
        {
          "internalType": "address",
          "name": "account",
          "type": "address"
        }
      ],
      "name": "addPauser",
      "outputs": [],
      "stateMutability": "nonpayable",
      "type": "function"
    },
    {
      "inputs": [
        {
          "internalType": "address",
          "name": "",
          "type": "address"
        }
      ],
      "name": "aliveImplementation",
      "outputs": [
        {
          "internalType": "bool",
          "name": "",
          "type": "bool"
        }
      ],
      "stateMutability": "view",
      "type": "function"
    },
    {
      "inputs": [
        {
          "internalType": "bytes32",
          "name": "role",
          "type": "bytes32"
        }
      ],
      "name": "getRoleAdmin",
      "outputs": [
        {
          "internalType": "bytes32",
          "name": "",
          "type": "bytes32"
        }
      ],
      "stateMutability": "view",
      "type": "function"
    },
    {
      "inputs": [
        {
          "internalType": "bytes4",
          "name": "_selector",
          "type": "bytes4"
        }
      ],
      "name": "getSelectorImplementation2",
      "outputs": [
        {
          "internalType": "address",
          "name": "impl",
          "type": "address"
        }
      ],
      "stateMutability": "view",
      "type": "function"
    },
    {
      "inputs": [
        {
          "internalType": "bytes32",
          "name": "role",
          "type": "bytes32"
        },
        {
          "internalType": "address",
          "name": "account",
          "type": "address"
        }
      ],
      "name": "grantRole",
      "outputs": [],
      "stateMutability": "nonpayable",
      "type": "function"
    },
    {
      "inputs": [
        {
          "internalType": "bytes32",
          "name": "role",
          "type": "bytes32"
        },
        {
          "internalType": "address",
          "name": "account",
          "type": "address"
        }
      ],
      "name": "hasRole",
      "outputs": [
        {
          "internalType": "bool",
          "name": "",
          "type": "bool"
        }
      ],
      "stateMutability": "view",
      "type": "function"
    },
    {
      "inputs": [],
      "name": "implementation",
      "outputs": [
        {
          "internalType": "address",
          "name": "",
          "type": "address"
        }
      ],
      "stateMutability": "view",
      "type": "function"
    },
    {
      "inputs": [
        {
          "internalType": "uint256",
          "name": "_index",
          "type": "uint256"
        }
      ],
      "name": "implementation2",
      "outputs": [
        {
          "internalType": "address",
          "name": "",
          "type": "address"
        }
      ],
      "stateMutability": "view",
      "type": "function"
    },
    {
      "inputs": [
        {
          "internalType": "address",
          "name": "account",
          "type": "address"
        }
      ],
      "name": "isAdmin",
      "outputs": [
        {
          "internalType": "bool",
          "name": "",
          "type": "bool"
        }
      ],
      "stateMutability": "view",
      "type": "function"
    },
    {
      "inputs": [],
      "name": "isOwner",
      "outputs": [
        {
          "internalType": "bool",
          "name": "",
          "type": "bool"
        }
      ],
      "stateMutability": "view",
      "type": "function"
    },
    {
      "inputs": [],
      "name": "l1ton",
      "outputs": [
        {
          "internalType": "address",
          "name": "",
          "type": "address"
        }
      ],
      "stateMutability": "view",
      "type": "function"
    },
    {
      "inputs": [],
      "name": "l1wton",
      "outputs": [
        {
          "internalType": "address",
          "name": "",
          "type": "address"
        }
      ],
      "stateMutability": "view",
      "type": "function"
    },
    {
      "inputs": [],
      "name": "pauseProxy",
      "outputs": [
        {
          "internalType": "bool",
          "name": "",
          "type": "bool"
        }
      ],
      "stateMutability": "view",
      "type": "function"
    },
    {
      "inputs": [
        {
          "internalType": "uint256",
          "name": "",
          "type": "uint256"
        }
      ],
      "name": "proxyImplementation",
      "outputs": [
        {
          "internalType": "address",
          "name": "",
          "type": "address"
        }
      ],
      "stateMutability": "view",
      "type": "function"
    },
    {
      "inputs": [
        {
          "internalType": "address",
          "name": "account",
          "type": "address"
        }
      ],
      "name": "removeAdmin",
      "outputs": [],
      "stateMutability": "nonpayable",
      "type": "function"
    },
    {
      "inputs": [
        {
          "internalType": "address",
          "name": "account",
          "type": "address"
        }
      ],
      "name": "removePauser",
      "outputs": [],
      "stateMutability": "nonpayable",
      "type": "function"
    },
    {
      "inputs": [],
      "name": "renounceOwnership",
      "outputs": [],
      "stateMutability": "nonpayable",
      "type": "function"
    },
    {
      "inputs": [
        {
          "internalType": "bytes32",
          "name": "role",
          "type": "bytes32"
        },
        {
          "internalType": "address",
          "name": "callerConfirmation",
          "type": "address"
        }
      ],
      "name": "renounceRole",
      "outputs": [],
      "stateMutability": "nonpayable",
      "type": "function"
    },
    {
      "inputs": [
        {
          "internalType": "bytes32",
          "name": "role",
          "type": "bytes32"
        },
        {
          "internalType": "address",
          "name": "account",
          "type": "address"
        }
      ],
      "name": "revokeRole",
      "outputs": [],
      "stateMutability": "nonpayable",
      "type": "function"
    },
    {
      "inputs": [
        {
          "internalType": "bytes4",
          "name": "",
          "type": "bytes4"
        }
      ],
      "name": "selectorImplementation",
      "outputs": [
        {
          "internalType": "address",
          "name": "",
          "type": "address"
        }
      ],
      "stateMutability": "view",
      "type": "function"
    },
    {
      "inputs": [
        {
          "internalType": "address",
          "name": "newImplementation",
          "type": "address"
        },
        {
          "internalType": "bool",
          "name": "_alive",
          "type": "bool"
        }
      ],
      "name": "setAliveImplementation2",
      "outputs": [],
      "stateMutability": "nonpayable",
      "type": "function"
    },
    {
      "inputs": [
        {
          "internalType": "address",
          "name": "newImplementation",
          "type": "address"
        },
        {
          "internalType": "uint256",
          "name": "_index",
          "type": "uint256"
        },
        {
          "internalType": "bool",
          "name": "_alive",
          "type": "bool"
        }
      ],
      "name": "setImplementation2",
      "outputs": [],
      "stateMutability": "nonpayable",
      "type": "function"
    },
    {
      "inputs": [
        {
          "internalType": "bool",
          "name": "_pause",
          "type": "bool"
        }
      ],
      "name": "setProxyPause",
      "outputs": [],
      "stateMutability": "nonpayable",
      "type": "function"
    },
    {
      "inputs": [
        {
          "internalType": "bytes4[]",
          "name": "_selectors",
          "type": "bytes4[]"
        },
        {
          "internalType": "address",
          "name": "_imp",
          "type": "address"
        }
      ],
      "name": "setSelectorImplementations2",
      "outputs": [],
      "stateMutability": "nonpayable",
      "type": "function"
    },
    {
      "inputs": [
        {
          "internalType": "bytes4",
          "name": "interfaceId",
          "type": "bytes4"
        }
      ],
      "name": "supportsInterface",
      "outputs": [
        {
          "internalType": "bool",
          "name": "",
          "type": "bool"
        }
      ],
      "stateMutability": "view",
      "type": "function"
    },
    {
      "inputs": [
        {
          "internalType": "address",
          "name": "newAdmin",
          "type": "address"
        }
      ],
      "name": "transferAdmin",
      "outputs": [],
      "stateMutability": "nonpayable",
      "type": "function"
    },
    {
      "inputs": [
        {
          "internalType": "address",
          "name": "newAdmin",
          "type": "address"
        }
      ],
      "name": "transferOwnership",
      "outputs": [],
      "stateMutability": "nonpayable",
      "type": "function"
    },
    {
      "inputs": [
        {
          "internalType": "address",
          "name": "impl",
          "type": "address"
        }
      ],
      "name": "upgradeTo",
      "outputs": [],
      "stateMutability": "nonpayable",
      "type": "function"
    },
    {
      "inputs": [],
      "name": "wstonImplementation",
      "outputs": [
        {
          "internalType": "address",
          "name": "",
          "type": "address"
        }
      ],
      "stateMutability": "view",
      "type": "function"
    },
    {
      "stateMutability": "payable",
      "type": "receive"
    }
  ],
  "bytecode": "0x608060405234605b576301ffc9a760e01b60005260046020527f9fe05126d2d9ecf60592e254dead906a4b2e492f36cca727682c38e9008c6ac1805460ff19166001179055604b336060565b5060405161143f90816100f18239f35b600080fd5b6001600160a01b031660008181527f05b8ccbb9d4d8fb16ea74ce3c29a41f1b461fbdaff4714a0d9a8eb05499746bc602052604081205490919060ff1660ec5781805260056020526040822081835260205260408220600160ff1982541617905533917f2f8788117e7eff1d82e926ec794901d17c78024a50270940304540a733656f0d8180a4600190565b509056fe60806040526004361015610018575b366112ee57610f08565b60003560e01c806301ffc9a71461022357806315a327d31461021e5780631785f53c146102195780631d03a00914610214578063248a9ca31461020f57806324d7806c1461020a5780632f2ff15d1461020557806336568abe146102005780633659cfe6146101fb578063389ed267146101f65780634a5df50f146101f157806350d2a276146101ec578063550d01a3146101e75780635c60da1b146101e25780635cc797d8146101dd57806363a8fd89146101d85780636b2c0f55146101d357806370480275146101ce578063715018a6146101c957806375829def146101c457806375b238fc146101bf5780637cb00d25146101ba5780637cd5f663146101b557806382dc1ec4146101b05780638b8f4a65146101975780638d4fdb40146101ab5780638f32d59b146101a657806391d14854146101a1578063a217fddf1461019c578063b911135f14610197578063d21bae6614610192578063d547741f1461018d5763f2fde38b0361000e57610c8d565b610c4e565b610c25565b610b4d565b610c09565b610bd5565b610bba565b610b81565b610a77565b6109da565b61099e565b610975565b6108c6565b6108a1565b610833565b6107f6565b6107d3565b61079a565b610766565b610727565b6106b0565b610515565b6104ec565b610422565b6103db565b61039c565b610350565b610321565b6102f8565b6102c5565b610270565b61023f565b6001600160e01b031981160361023a57565b600080fd5b3461023a57602036600319011261023a57602061026660043561026181610228565b610f44565b6040519015158152f35b3461023a57600036600319011261023a576007546040516001600160a01b039091168152602090f35b600435906001600160a01b038216820361023a57565b602435906001600160a01b038216820361023a57565b3461023a57602036600319011261023a576102f66102e1610299565b6102f16102ec610ed3565b610cb1565b610d09565b005b3461023a57600036600319011261023a576008546040516001600160a01b039091168152602090f35b3461023a57602036600319011261023a5760043560005260056020526020600160406000200154604051908152f35b3461023a57602036600319011261023a57602060ff610390610370610299565b6000805160206113ca833981519152600052600584526040600020610710565b54166040519015158152f35b3461023a57604036600319011261023a576102f66004356103bb6102af565b908060005260056020526103d6600160406000200154610f6d565b611089565b3461023a57604036600319011261023a576103f46102af565b336001600160a01b03821603610410576102f69060043561120a565b60405163334bd91960e11b8152600490fd5b3461023a57602036600319011261023a5761043b610299565b6104466102ec610ed3565b6001600160a01b03811680156104b7576000808052600160205260008051602061138a8339815191525490926104909161048b906001600160a01b0316841415610d25565b611224565b7fbc7cd75a20ee27fd9adebab32041f755214dbc6bffa90cc0225b39da2e5c2d3b8280a280f35b60405162461bcd60e51b815260206004820152600d60248201526c696e707574206973207a65726f60981b6044820152606490fd5b3461023a57600036600319011261023a5760206040516000805160206113aa8339815191528152f35b3461023a57604036600319011261023a5760043567ffffffffffffffff80821161023a573660238301121561023a57816004013590811161023a576024820191602436918360051b01011161023a5761056c6102af565b916105786102ec610ed3565b8115610653579061059a61059561058e856106f6565b5460ff1690565b610d5d565b6001600160a01b0391838316919060005b8281106105b457005b806105ef85876105e76105da6105d56105d06001988b8b610da4565b610dca565b610697565b546001600160a01b031690565b161415610dd7565b610609876106046105d56105d0858989610da4565b610e23565b8461062861061b6105d0848888610da4565b6001600160e01b03191690565b7f14ebc1c32aa68f4d766e89f3e546cee249f7df25183fc10ab1568d91c2ce9b7b600080a3016105ab565b606460405162461bcd60e51b815260206004820152602060248201527f50726f78793a205f73656c6563746f727327732073697a65206973207a65726f6044820152fd5b63ffffffff60e01b166000526003602052604060002090565b3461023a57602036600319011261023a576004356106cd81610228565b63ffffffff60e01b166000526003602052602060018060a01b0360406000205416604051908152f35b6001600160a01b0316600090815260026020526040902090565b9060018060a01b0316600052602052604060002090565b3461023a57602036600319011261023a576001600160a01b03610748610299565b166000526002602052602060ff604060002054166040519015158152f35b3461023a576000806003193601126107975780806020925260018252604060018060a01b0391205416604051908152f35b80fd5b3461023a57604036600319011261023a576107b3610299565b602435801515810361023a576102f6916107ce6102ec610ed3565b61129a565b3461023a57600036600319011261023a57602060ff600054166040519015158152f35b3461023a57602036600319011261023a5761080f610299565b61081a6102ec610ed3565b336001600160a01b03821603610410576102f6906110a3565b3461023a57602036600319011261023a576102f661084f610299565b61085a6102ec610ed3565b6000805160206113ca83398151915260005260056020527f09f04f5809d5be59813a33617d16f069caae874a6b34f03139f63d934daddae75461089c90610f6d565b610fae565b3461023a57600036600319011261023a576108bd6102ec610ed3565b6102f633611142565b3461023a57602036600319011261023a576108df610299565b6108ea6102ec610ed3565b6001600160a01b0381168015610963573314610951576000805160206113ca83398151915260005260056020527f09f04f5809d5be59813a33617d16f069caae874a6b34f03139f63d934daddae754610947919061089c90610f6d565b506102f633610d09565b6040516309cd70b960e21b8152600490fd5b60405163d92e233d60e01b8152600490fd5b3461023a57600036600319011261023a5760206040516000805160206113ca8339815191528152f35b3461023a57602036600319011261023a5760043580151580910361023a576109c76102ec610ed3565b60ff801960005416911617600055600080f35b3461023a57606036600319011261023a576109f3610299565b604435801515810361023a57610a0a6102ec610ed3565b813b15610a34576102f691811561129a5760243560005260016020526107ce816040600020610e23565b60405162461bcd60e51b815260206004820152601b60248201527a50726f78793a206e6f7420636f6e7472616374206164647265737360281b6044820152606490fd5b3461023a57602036600319011261023a57610a90610299565b6000805160206113ca833981519152600090815260056020529060ff610ac4336000805160206113ea833981519152610710565b54168015610b3f575b15610b0557610b01906000805160206113aa83398151915283526005602052610afc6001604085200154610f6d565b611043565b5080f35b60405162461bcd60e51b81526020600482015260126024820152713737ba1027bbb732b91037b91020b236b4b760711b6044820152606490fd5b50610b48610ed3565b610acd565b3461023a57602036600319011261023a576004356000526001602052602060018060a01b0360406000205416604051908152f35b3461023a57602036600319011261023a576020610ba8600435610ba381610228565b610e42565b6040516001600160a01b039091168152f35b3461023a57600036600319011261023a576020610266610ed3565b3461023a57604036600319011261023a57602060ff610390610bf56102af565b600435600052600584526040600020610710565b3461023a57600036600319011261023a57602060405160008152f35b3461023a57600036600319011261023a576006546040516001600160a01b039091168152602090f35b3461023a57604036600319011261023a576102f6600435610c6d6102af565b90806000526005602052610c88600160406000200154610f6d565b61120a565b3461023a57602036600319011261023a57610ca6610299565b6108df6102ec610ed3565b15610cb857565b60405162461bcd60e51b8152602060048201526024808201527f41757468436f6e74726f6c3a2043616c6c6572206973206e6f7420746865206f6044820152633bb732b960e11b6064820152608490fd5b336001600160a01b0382160361041057610d22906111d6565b50565b15610d2c57565b60405162461bcd60e51b815260206004820152600960248201526839b0b6b29030b2323960b91b6044820152606490fd5b15610d6457565b60405162461bcd60e51b815260206004820152601860248201527750726f78793a205f696d70206973206e6f7420616c69766560401b6044820152606490fd5b9190811015610db45760051b0190565b634e487b7160e01b600052603260045260246000fd5b35610dd481610228565b90565b15610dde57565b60405162461bcd60e51b815260206004820152601d60248201527f4c69717569646974795661756c7450726f78793a2073616d6520696d700000006044820152606490fd5b80546001600160a01b0319166001600160a01b03909216919091179055565b6001600160e01b031981166000908152600360205260409020546001600160a01b0391908216610e8f575060008052600160205260008051602061138a833981519152541690565b541690565b60ff610ea583610e9e84610697565b54166106f6565b541615610eb557610e8a90610697565b5060008052600160205260008051602061138a833981519152541690565b60008052600560205260ff610e8a337f05b8ccbb9d4d8fb16ea74ce3c29a41f1b461fbdaff4714a0d9a8eb05499746bc610710565b60405162461bcd60e51b815260206004820152601460248201527331b0b73737ba103932b1b2b4bb329022ba3432b960611b6044820152606490fd5b6001600160e01b03198116637965db0b60e01b14908115610f63575090565b610dd49150610f44565b80600052600560205260ff610f86336040600020610710565b541615610f905750565b6044906040519063e2517d3f60e01b82523360048301526024820152fd5b6000805160206113ca833981519152600081815260056020529060ff610fe2846000805160206113ea833981519152610710565b541661103d578082526005602052610ffd8360408420610710565b805460ff1916600117905533926001600160a01b0316917f2f8788117e7eff1d82e926ec794901d17c78024a50270940304540a733656f0d9080a4600190565b50905090565b6000805160206113aa833981519152600081815260056020529060ff610fe2847f787f97f3270d439d97068e73d6d75a066b24f84c342661f177d4e43e00e9f513610710565b600090808252600560205260ff610fe28460408520610710565b6000805160206113aa833981519152600081815260056020529060ff6110e9847f787f97f3270d439d97068e73d6d75a066b24f84c342661f177d4e43e00e9f513610710565b54161561103d5780825260056020526111058360408420610710565b805460ff1916905533926001600160a01b0316917ff6391f5c32d9c69d2a47ea670b442974b53935d1edc7fd64eb21e047a839171b9080a4600190565b6000808052600560205260ff611178837f05b8ccbb9d4d8fb16ea74ce3c29a41f1b461fbdaff4714a0d9a8eb05499746bc610710565b5416156111d15780805260056020526111948260408320610710565b805460ff1916905533916001600160a01b0316907ff6391f5c32d9c69d2a47ea670b442974b53935d1edc7fd64eb21e047a839171b8180a4600190565b905090565b6000805160206113ca833981519152600081815260056020529060ff6110e9846000805160206113ea833981519152610710565b600090808252600560205260ff6110e98460408520610710565b803b15610a345760008052600160205261124c8160008051602061138a833981519152610e23565b60018060a01b03168060005260026020526040600020600160ff198254161790557f72558d9bfba4210f9ef095c782589484151f6d90f7a81bb3cb9b33efc695d324602060405160018152a2565b60207f72558d9bfba4210f9ef095c782589484151f6d90f7a81bb3cb9b33efc695d3249160018060a01b031692836000526002825260406000209015159060ff1981541660ff8316179055604051908152a2565b600061130481356001600160e01b031916610e42565b6001600160a01b03811615158061137d575b1561133857818091368280378136915af43d82803e15611334573d90f35b3d90fd5b60405162461bcd60e51b815260206004820152601d60248201527f50726f78793a20696d706c204f522070726f78792069732066616c73650000006044820152606490fd5b5060ff8254161561131656fea6eef7e35abe7026729641147f7915573c7e97b47efa546f5f6e3230263bcb49fcb9fcbfa83b897fb2d5cf4b58962164105c1e71489a37ef3ae0db3fdce576f6df8b4c520ffe197c5343c6f5aec59570151ef9a492f2c624fd45ddde6135ec4209f04f5809d5be59813a33617d16f069caae874a6b34f03139f63d934daddae6a26469706673582212201fa3ef7bc5b5ebaecac6f9478da0880ed3f0ccc1444d002bdb01c152856a7c9c64736f6c63430008190033",
  "linkReferences": {},
  "deployedLinkReferences": {}
}