{
  "_format": "hh-sol-artifact-1",
  "contractName": "RefactorCoinageSnapshotProxy",
  "sourceName": "src/L1/Mock/proxy/RefactorCoinageSnapshotProxy.sol",
  "abi": [
    {
      "inputs": [],
      "name": "AccessControlBadConfirmation",
      "type": "error"
    },
    {
      "inputs": [
        {
          "internalType": "address",
          "name": "account",
          "type": "address"
        },
        {
          "internalType": "bytes32",
          "name": "neededRole",
          "type": "bytes32"
        }
      ],
      "name": "AccessControlUnauthorizedAccount",
      "type": "error"
    },
    {
      "anonymous": false,
      "inputs": [
        {
          "indexed": true,
          "internalType": "bytes32",
          "name": "role",
          "type": "bytes32"
        },
        {
          "indexed": true,
          "internalType": "bytes32",
          "name": "previousAdminRole",
          "type": "bytes32"
        },
        {
          "indexed": true,
          "internalType": "bytes32",
          "name": "newAdminRole",
          "type": "bytes32"
        }
      ],
      "name": "RoleAdminChanged",
      "type": "event"
    },
    {
      "anonymous": false,
      "inputs": [
        {
          "indexed": true,
          "internalType": "bytes32",
          "name": "role",
          "type": "bytes32"
        },
        {
          "indexed": true,
          "internalType": "address",
          "name": "account",
          "type": "address"
        },
        {
          "indexed": true,
          "internalType": "address",
          "name": "sender",
          "type": "address"
        }
      ],
      "name": "RoleGranted",
      "type": "event"
    },
    {
      "anonymous": false,
      "inputs": [
        {
          "indexed": true,
          "internalType": "bytes32",
          "name": "role",
          "type": "bytes32"
        },
        {
          "indexed": true,
          "internalType": "address",
          "name": "account",
          "type": "address"
        },
        {
          "indexed": true,
          "internalType": "address",
          "name": "sender",
          "type": "address"
        }
      ],
      "name": "RoleRevoked",
      "type": "event"
    },
    {
      "anonymous": false,
      "inputs": [
        {
          "indexed": true,
          "internalType": "address",
          "name": "impl",
          "type": "address"
        },
        {
          "indexed": false,
          "internalType": "bool",
          "name": "alive",
          "type": "bool"
        }
      ],
      "name": "SetAliveImplementation",
      "type": "event"
    },
    {
      "anonymous": false,
      "inputs": [
        {
          "indexed": true,
          "internalType": "bytes4",
          "name": "selector",
          "type": "bytes4"
        },
        {
          "indexed": true,
          "internalType": "address",
          "name": "impl",
          "type": "address"
        }
      ],
      "name": "SetSelectorImplementation",
      "type": "event"
    },
    {
      "anonymous": false,
      "inputs": [
        {
          "indexed": true,
          "internalType": "address",
          "name": "implementation",
          "type": "address"
        }
      ],
      "name": "Upgraded",
      "type": "event"
    },
    {
      "stateMutability": "payable",
      "type": "fallback"
    },
    {
      "inputs": [],
      "name": "DEFAULT_ADMIN_ROLE",
      "outputs": [
        {
          "internalType": "bytes32",
          "name": "",
          "type": "bytes32"
        }
      ],
      "stateMutability": "view",
      "type": "function"
    },
    {
      "inputs": [],
      "name": "MINTER_ROLE",
      "outputs": [
        {
          "internalType": "bytes32",
          "name": "",
          "type": "bytes32"
        }
      ],
      "stateMutability": "view",
      "type": "function"
    },
    {
      "inputs": [],
      "name": "OPERATOR_ROLE",
      "outputs": [
        {
          "internalType": "bytes32",
          "name": "",
          "type": "bytes32"
        }
      ],
      "stateMutability": "view",
      "type": "function"
    },
    {
      "inputs": [],
      "name": "REFACTOR_BOUNDARY",
      "outputs": [
        {
          "internalType": "uint256",
          "name": "",
          "type": "uint256"
        }
      ],
      "stateMutability": "view",
      "type": "function"
    },
    {
      "inputs": [],
      "name": "REFACTOR_DIVIDER",
      "outputs": [
        {
          "internalType": "uint256",
          "name": "",
          "type": "uint256"
        }
      ],
      "stateMutability": "view",
      "type": "function"
    },
    {
      "inputs": [
        {
          "internalType": "address",
          "name": "",
          "type": "address"
        },
        {
          "internalType": "address",
          "name": "",
          "type": "address"
        }
      ],
      "name": "_allowances",
      "outputs": [
        {
          "internalType": "uint256",
          "name": "",
          "type": "uint256"
        }
      ],
      "stateMutability": "view",
      "type": "function"
    },
    {
      "inputs": [
        {
          "internalType": "address",
          "name": "",
          "type": "address"
        },
        {
          "internalType": "uint256",
          "name": "",
          "type": "uint256"
        }
      ],
      "name": "accountBalanceIds",
      "outputs": [
        {
          "internalType": "uint256",
          "name": "",
          "type": "uint256"
        }
      ],
      "stateMutability": "view",
      "type": "function"
    },
    {
      "inputs": [
        {
          "internalType": "address",
          "name": "",
          "type": "address"
        },
        {
          "internalType": "uint256",
          "name": "",
          "type": "uint256"
        }
      ],
      "name": "accountBalanceSnapshots",
      "outputs": [
        {
          "internalType": "uint256",
          "name": "balance",
          "type": "uint256"
        },
        {
          "internalType": "uint256",
          "name": "refactoredCount",
          "type": "uint256"
        }
      ],
      "stateMutability": "view",
      "type": "function"
    },
    {
      "inputs": [
        {
          "internalType": "address",
          "name": "account",
          "type": "address"
        }
      ],
      "name": "addAdmin",
      "outputs": [],
      "stateMutability": "nonpayable",
      "type": "function"
    },
    {
      "inputs": [
        {
          "internalType": "address",
          "name": "account",
          "type": "address"
        }
      ],
      "name": "addMinter",
      "outputs": [],
      "stateMutability": "nonpayable",
      "type": "function"
    },
    {
      "inputs": [
        {
          "internalType": "address",
          "name": "account",
          "type": "address"
        }
      ],
      "name": "addOperator",
      "outputs": [],
      "stateMutability": "nonpayable",
      "type": "function"
    },
    {
      "inputs": [
        {
          "internalType": "address",
          "name": "",
          "type": "address"
        }
      ],
      "name": "aliveImplementation",
      "outputs": [
        {
          "internalType": "bool",
          "name": "",
          "type": "bool"
        }
      ],
      "stateMutability": "view",
      "type": "function"
    },
    {
      "inputs": [
        {
          "internalType": "uint256",
          "name": "",
          "type": "uint256"
        }
      ],
      "name": "factorSnapshotIds",
      "outputs": [
        {
          "internalType": "uint256",
          "name": "",
          "type": "uint256"
        }
      ],
      "stateMutability": "view",
      "type": "function"
    },
    {
      "inputs": [
        {
          "internalType": "uint256",
          "name": "",
          "type": "uint256"
        }
      ],
      "name": "factorSnapshots",
      "outputs": [
        {
          "internalType": "uint256",
          "name": "factor",
          "type": "uint256"
        },
        {
          "internalType": "uint256",
          "name": "refactorCount",
          "type": "uint256"
        }
      ],
      "stateMutability": "view",
      "type": "function"
    },
    {
      "inputs": [
        {
          "internalType": "bytes32",
          "name": "role",
          "type": "bytes32"
        }
      ],
      "name": "getRoleAdmin",
      "outputs": [
        {
          "internalType": "bytes32",
          "name": "",
          "type": "bytes32"
        }
      ],
      "stateMutability": "view",
      "type": "function"
    },
    {
      "inputs": [
        {
          "internalType": "bytes4",
          "name": "_selector",
          "type": "bytes4"
        }
      ],
      "name": "getSelectorImplementation2",
      "outputs": [
        {
          "internalType": "address",
          "name": "impl",
          "type": "address"
        }
      ],
      "stateMutability": "view",
      "type": "function"
    },
    {
      "inputs": [
        {
          "internalType": "bytes32",
          "name": "role",
          "type": "bytes32"
        },
        {
          "internalType": "address",
          "name": "account",
          "type": "address"
        }
      ],
      "name": "grantRole",
      "outputs": [],
      "stateMutability": "nonpayable",
      "type": "function"
    },
    {
      "inputs": [
        {
          "internalType": "bytes32",
          "name": "role",
          "type": "bytes32"
        },
        {
          "internalType": "address",
          "name": "account",
          "type": "address"
        }
      ],
      "name": "hasRole",
      "outputs": [
        {
          "internalType": "bool",
          "name": "",
          "type": "bool"
        }
      ],
      "stateMutability": "view",
      "type": "function"
    },
    {
      "inputs": [],
      "name": "implementation",
      "outputs": [
        {
          "internalType": "address",
          "name": "",
          "type": "address"
        }
      ],
      "stateMutability": "view",
      "type": "function"
    },
    {
      "inputs": [
        {
          "internalType": "uint256",
          "name": "_index",
          "type": "uint256"
        }
      ],
      "name": "implementation2",
      "outputs": [
        {
          "internalType": "address",
          "name": "",
          "type": "address"
        }
      ],
      "stateMutability": "view",
      "type": "function"
    },
    {
      "inputs": [
        {
          "internalType": "address",
          "name": "account",
          "type": "address"
        }
      ],
      "name": "isAdmin",
      "outputs": [
        {
          "internalType": "bool",
          "name": "",
          "type": "bool"
        }
      ],
      "stateMutability": "view",
      "type": "function"
    },
    {
      "inputs": [
        {
          "internalType": "address",
          "name": "account",
          "type": "address"
        }
      ],
      "name": "isMinter",
      "outputs": [
        {
          "internalType": "bool",
          "name": "",
          "type": "bool"
        }
      ],
      "stateMutability": "view",
      "type": "function"
    },
    {
      "inputs": [
        {
          "internalType": "address",
          "name": "account",
          "type": "address"
        }
      ],
      "name": "isOperator",
      "outputs": [
        {
          "internalType": "bool",
          "name": "",
          "type": "bool"
        }
      ],
      "stateMutability": "view",
      "type": "function"
    },
    {
      "inputs": [],
      "name": "isOwner",
      "outputs": [
        {
          "internalType": "bool",
          "name": "",
          "type": "bool"
        }
      ],
      "stateMutability": "view",
      "type": "function"
    },
    {
      "inputs": [],
      "name": "lastSnapshotId",
      "outputs": [
        {
          "internalType": "uint256",
          "name": "",
          "type": "uint256"
        }
      ],
      "stateMutability": "view",
      "type": "function"
    },
    {
      "inputs": [],
      "name": "name",
      "outputs": [
        {
          "internalType": "string",
          "name": "",
          "type": "string"
        }
      ],
      "stateMutability": "view",
      "type": "function"
    },
    {
      "inputs": [],
      "name": "pauseProxy",
      "outputs": [
        {
          "internalType": "bool",
          "name": "",
          "type": "bool"
        }
      ],
      "stateMutability": "view",
      "type": "function"
    },
    {
      "inputs": [
        {
          "internalType": "uint256",
          "name": "",
          "type": "uint256"
        }
      ],
      "name": "proxyImplementation",
      "outputs": [
        {
          "internalType": "address",
          "name": "",
          "type": "address"
        }
      ],
      "stateMutability": "view",
      "type": "function"
    },
    {
      "inputs": [
        {
          "internalType": "address",
          "name": "account",
          "type": "address"
        }
      ],
      "name": "removeAdmin",
      "outputs": [],
      "stateMutability": "nonpayable",
      "type": "function"
    },
    {
      "inputs": [
        {
          "internalType": "address",
          "name": "account",
          "type": "address"
        }
      ],
      "name": "removeMinter",
      "outputs": [],
      "stateMutability": "nonpayable",
      "type": "function"
    },
    {
      "inputs": [
        {
          "internalType": "address",
          "name": "account",
          "type": "address"
        }
      ],
      "name": "removeOperator",
      "outputs": [],
      "stateMutability": "nonpayable",
      "type": "function"
    },
    {
      "inputs": [],
      "name": "renounceMinter",
      "outputs": [],
      "stateMutability": "nonpayable",
      "type": "function"
    },
    {
      "inputs": [],
      "name": "renounceOperator",
      "outputs": [],
      "stateMutability": "nonpayable",
      "type": "function"
    },
    {
      "inputs": [],
      "name": "renounceOwnership",
      "outputs": [],
      "stateMutability": "nonpayable",
      "type": "function"
    },
    {
      "inputs": [
        {
          "internalType": "bytes32",
          "name": "role",
          "type": "bytes32"
        },
        {
          "internalType": "address",
          "name": "callerConfirmation",
          "type": "address"
        }
      ],
      "name": "renounceRole",
      "outputs": [],
      "stateMutability": "nonpayable",
      "type": "function"
    },
    {
      "inputs": [
        {
          "internalType": "address",
          "name": "account",
          "type": "address"
        }
      ],
      "name": "revokeMinter",
      "outputs": [],
      "stateMutability": "nonpayable",
      "type": "function"
    },
    {
      "inputs": [
        {
          "internalType": "address",
          "name": "account",
          "type": "address"
        }
      ],
      "name": "revokeOperator",
      "outputs": [],
      "stateMutability": "nonpayable",
      "type": "function"
    },
    {
      "inputs": [
        {
          "internalType": "bytes32",
          "name": "role",
          "type": "bytes32"
        },
        {
          "internalType": "address",
          "name": "account",
          "type": "address"
        }
      ],
      "name": "revokeRole",
      "outputs": [],
      "stateMutability": "nonpayable",
      "type": "function"
    },
    {
      "inputs": [],
      "name": "seigManager",
      "outputs": [
        {
          "internalType": "address",
          "name": "",
          "type": "address"
        }
      ],
      "stateMutability": "view",
      "type": "function"
    },
    {
      "inputs": [
        {
          "internalType": "bytes4",
          "name": "",
          "type": "bytes4"
        }
      ],
      "name": "selectorImplementation",
      "outputs": [
        {
          "internalType": "address",
          "name": "",
          "type": "address"
        }
      ],
      "stateMutability": "view",
      "type": "function"
    },
    {
      "inputs": [
        {
          "internalType": "address",
          "name": "newImplementation",
          "type": "address"
        },
        {
          "internalType": "bool",
          "name": "_alive",
          "type": "bool"
        }
      ],
      "name": "setAliveImplementation2",
      "outputs": [],
      "stateMutability": "nonpayable",
      "type": "function"
    },
    {
      "inputs": [
        {
          "internalType": "address",
          "name": "newImplementation",
          "type": "address"
        },
        {
          "internalType": "uint256",
          "name": "_index",
          "type": "uint256"
        },
        {
          "internalType": "bool",
          "name": "_alive",
          "type": "bool"
        }
      ],
      "name": "setImplementation2",
      "outputs": [],
      "stateMutability": "nonpayable",
      "type": "function"
    },
    {
      "inputs": [
        {
          "internalType": "bool",
          "name": "_pause",
          "type": "bool"
        }
      ],
      "name": "setProxyPause",
      "outputs": [],
      "stateMutability": "nonpayable",
      "type": "function"
    },
    {
      "inputs": [
        {
          "internalType": "bytes4[]",
          "name": "_selectors",
          "type": "bytes4[]"
        },
        {
          "internalType": "address",
          "name": "_imp",
          "type": "address"
        }
      ],
      "name": "setSelectorImplementations2",
      "outputs": [],
      "stateMutability": "nonpayable",
      "type": "function"
    },
    {
      "inputs": [
        {
          "internalType": "bytes4",
          "name": "interfaceId",
          "type": "bytes4"
        }
      ],
      "name": "supportsInterface",
      "outputs": [
        {
          "internalType": "bool",
          "name": "",
          "type": "bool"
        }
      ],
      "stateMutability": "view",
      "type": "function"
    },
    {
      "inputs": [],
      "name": "symbol",
      "outputs": [
        {
          "internalType": "string",
          "name": "",
          "type": "string"
        }
      ],
      "stateMutability": "view",
      "type": "function"
    },
    {
      "inputs": [
        {
          "internalType": "uint256",
          "name": "",
          "type": "uint256"
        }
      ],
      "name": "totalSupplySnapshotIds",
      "outputs": [
        {
          "internalType": "uint256",
          "name": "",
          "type": "uint256"
        }
      ],
      "stateMutability": "view",
      "type": "function"
    },
    {
      "inputs": [
        {
          "internalType": "uint256",
          "name": "",
          "type": "uint256"
        }
      ],
      "name": "totalSupplySnapshots",
      "outputs": [
        {
          "internalType": "uint256",
          "name": "balance",
          "type": "uint256"
        },
        {
          "internalType": "uint256",
          "name": "refactoredCount",
          "type": "uint256"
        }
      ],
      "stateMutability": "view",
      "type": "function"
    },
    {
      "inputs": [
        {
          "internalType": "address",
          "name": "newAdmin",
          "type": "address"
        }
      ],
      "name": "transferAdmin",
      "outputs": [],
      "stateMutability": "nonpayable",
      "type": "function"
    },
    {
      "inputs": [
        {
          "internalType": "address",
          "name": "newAdmin",
          "type": "address"
        }
      ],
      "name": "transferOwnership",
      "outputs": [],
      "stateMutability": "nonpayable",
      "type": "function"
    },
    {
      "inputs": [
        {
          "internalType": "address",
          "name": "impl",
          "type": "address"
        }
      ],
      "name": "upgradeTo",
      "outputs": [],
      "stateMutability": "nonpayable",
      "type": "function"
    },
    {
      "stateMutability": "payable",
      "type": "receive"
    }
  ],
  "bytecode": "0x6080604052346100f0576301ffc9a760e01b600090815260046020527f9fe05126d2d9ecf60592e254dead906a4b2e492f36cca727682c38e9008c6ac1805460ff19166001179055610050336100f5565b507ff0887ba65ee2024ea881d91b74c2450ef19e1557f03bed3ea9f16b037cbe2dc98082526005602052816001604082200181815491557fbd79b86ffe0ab8e8776151514217cd7cacd52c909f66475c3af44e129f0b00ff92838380a47f523a704056dcd17bcf83bed8b68c59416dac1119be77755efe3bde0a64e46e0c808352600160408420019183835493558380a4604051611d5c90816101878239f35b600080fd5b6001600160a01b031660008181527f05b8ccbb9d4d8fb16ea74ce3c29a41f1b461fbdaff4714a0d9a8eb05499746bc602052604081205490919060ff166101825781805260056020526040822081835260205260408220600160ff1982541617905533917f2f8788117e7eff1d82e926ec794901d17c78024a50270940304540a733656f0d8180a4600190565b509056fe60806040526004361015610018575b36611c0b576117a0565b60003560e01c8062d87a9c1461034257806301ffc9a71461033d578063024c2ddd146103385780630461fdc51461033357806306fdde031461032e5780631785f53c14610329578063248a9ca31461032457806324d7806c1461031f5780632ab6f8db1461031a5780632f2ff15d146103155780633092afd51461031057806336568abe1461030b5780633659cfe6146103065780634a5df50f1461030157806350d2a276146102fc578063550d01a3146102f757806356fabf68146102f25780635c60da1b146102ed5780635cc797d8146102e85780635deaecec146102e3578063614db8b2146102de57806363a8fd89146102d957806369f499b1146102d45780636d70f7ae146102cf5780636fb7f558146102ca57806370480275146102c5578063715018a6146102c057806375829def146102bb5780637cb00d25146102b65780637cd5f663146102b1578063837afbc0146102ac5780638b8f4a651461026b5780638d4fdb40146102a75780638f32d59b146102a257806391d148541461029d57806395d89b4114610298578063983b2d5614610293578063986502751461028e5780639870d7fe14610289578063a217fddf14610284578063aa271e1a1461027f578063ac8a584a1461027a578063b7c246d714610275578063b7d78b1a14610270578063b911135f1461026b578063cfbd488514610266578063d539139314610261578063d547741f1461025c578063f2fde38b14610257578063f5b541a6146102525763fad8b32a0361000e576114b4565b61148b565b611411565b6113d2565b6113a9565b611339565b610f9e565b6112f4565b6112cd565b611286565b611246565b61122a565b6111ba565b6111a0565b611130565b61106a565b611036565b61100b565b610fd2565b610f80565b610f11565b610ebc565b610dd7565b610d9f565b610d39565b610d10565b610cd0565b610c7c565b610c59565b610c08565b610bc3565b610b6f565b610b3e565b610aed565b610aae565b610a68565b6108a3565b6107c9565b610782565b61073b565b6106fc565b6106e2565b6106a4565b610675565b610625565b61051a565b610435565b6103e9565b610375565b3461035e57600036600319011261035e57602060405160028152f35b600080fd5b6001600160e01b031981160361035e57565b3461035e57602036600319011261035e57602061039c60043561039781610363565b6117dc565b6040519015158152f35b600435906001600160a01b038216820361035e57565b602435906001600160a01b038216820361035e57565b9060018060a01b0316600052602052604060002090565b3461035e57604036600319011261035e57602061042c6104076103a6565b61040f6103bc565b6001600160a01b03909116600090815260098452604090206103d2565b54604051908152f35b3461035e57604036600319011261035e576001600160a01b036104566103a6565b16600052600f6020526040600020602435600052602052604060002060018154910154906104966040519283928360209093929193604081019481520152565b0390f35b90601f801991011681019081106001600160401b038211176104bb57604052565b634e487b7160e01b600052604160045260246000fd5b6020808252825181830181905290939260005b82811061050657505060409293506000838284010152601f8019910116010190565b8181018601518482016040015285016104e4565b3461035e57600080600319360112610622576040519080600754906001918060011c9260018216928315610618575b6020926020861085146106045785885260208801949081156105e3575060011461058a575b6104968761057e8189038261049a565b604051918291826104d1565b600760005294509192917fa66cc928b5edb82af9bd49922954155ab7b0942694bea4ce44661d9a8736c6885b8386106105d2575050509101905061057e82610496388061056e565b8054858701529482019481016105b6565b60ff191685525050505090151560051b01905061057e82610496388061056e565b634e487b7160e01b82526022600452602482fd5b93607f1693610549565b80fd5b3461035e57602036600319011261035e576106736106416103a6565b60008052600560205261066e60ff61066733600080516020611d078339815191526103d2565b5416611524565b6115b8565b005b3461035e57602036600319011261035e5760043560005260056020526020600160406000200154604051908152f35b3461035e57602036600319011261035e57602060ff6106d66106c46103a6565b600080526005845260406000206103d2565b54166040519015158152f35b3461035e57600036600319011261035e57610673336115d1565b3461035e57604036600319011261035e5761067360043561071b6103bc565b90806000526005602052610736600160406000200154611805565b6119b2565b3461035e57602036600319011261035e576106736107576103a6565b60008052600560205261077d60ff61066733600080516020611d078339815191526103d2565b6115ea565b3461035e57604036600319011261035e5761079b6103bc565b336001600160a01b038216036107b75761067390600435611b2e565b60405163334bd91960e11b8152600490fd5b3461035e57602036600319011261035e576107e26103a6565b600080805260056020529061080a60ff61066733600080516020611d078339815191526103d2565b6001600160a01b03811690811561086e57828052600160205260408320546108479190610842906001600160a01b0316841415611603565b611b48565b7fbc7cd75a20ee27fd9adebab32041f755214dbc6bffa90cc0225b39da2e5c2d3b8280a280f35b60405162461bcd60e51b815260206004820152600d60248201526c696e707574206973207a65726f60981b6044820152606490fd5b3461035e57604036600319011261035e576001600160401b0360043581811161035e573660238201121561035e57806004013591821161035e576024810190602436918460051b01011161035e576108f96103bc565b600080805260056020529261092160ff61066733600080516020611d078339815191526103d2565b8015610a245761095761095261094b84959460018060a01b03166000526002602052604060002090565b5460ff1690565b61163b565b6001600160a01b03928084169290855b838110610972578680f35b806109c186886109b96109ac61099361098e6001988c8c611682565b6116a8565b63ffffffff60e01b166000526003602052604060002090565b546001600160a01b031690565b1614156116b5565b6109db836109d661099361098e858a8a611682565b611701565b856109fa6109ed61098e848989611682565b6001600160e01b03191690565b7f14ebc1c32aa68f4d766e89f3e546cee249f7df25183fc10ab1568d91c2ce9b7b8a80a301610967565b606460405162461bcd60e51b815260206004820152602060248201527f50726f78793a205f73656c6563746f727327732073697a65206973207a65726f6044820152fd5b3461035e57602036600319011261035e57600435610a8581610363565b63ffffffff60e01b166000526003602052602060018060a01b0360406000205416604051908152f35b3461035e57602036600319011261035e576001600160a01b03610acf6103a6565b166000526002602052602060ff604060002054166040519015158152f35b3461035e57602036600319011261035e57600435600c5481101561035e57600c6000527fdf6966c971051c3d54ec59162606531493a51404a002842f56009d7e5cf4a8c70154604051908152602090f35b3461035e576000806003193601126106225780806020925260018252604060018060a01b0391205416604051908152f35b3461035e57604036600319011261035e57610b886103a6565b602435801515810361035e5760008052600560205261067391610bbe60ff61066733600080516020611d078339815191526103d2565b611bb7565b3461035e57602036600319011261035e57600435600052600d602052604060002060018154910154906104966040519283928360209093929193604081019481520152565b3461035e57602036600319011261035e57600435600a5481101561035e57600a6000527fc65a7bb8d6351c1cf70c95a316cc6a92839c986682d98bc35f958f4883f9d2a80154604051908152602090f35b3461035e57600036600319011261035e57602060ff600054166040519015158152f35b3461035e57604036600319011261035e57610c956103a6565b6001600160a01b03166000908152600e6020526040812080546024359190821015610ccc5782526020918290200154604051908152f35b8280fd5b3461035e57602036600319011261035e57602060ff6106d6610cf06103a6565b600080516020611ce78339815191526000526005845260406000206103d2565b3461035e57600036600319011261035e576006546040516001600160a01b039091168152602090f35b3461035e57602036600319011261035e57610d526103a6565b6000808052600560205290610d9b90610d7e60ff61066733600080516020611d078339815191526103d2565b8280526005602052610d966001604085200154611805565b611846565b5080f35b3461035e57600080600319360112610622578080526005602052610dcb60ff61066733604085206103d2565b610dd4336115b8565b80f35b3461035e57602036600319011261035e57610df06103a6565b600080526005602052610e1660ff61066733600080516020611d078339815191526103d2565b6001600160a01b0381168015610e7c573314610e3e57610e359061157c565b610673336115b8565b60405162461bcd60e51b815260206004820152601660248201527520b1b1b2b9b9b4b136329d1039b0b6b29030b236b4b760511b6044820152606490fd5b60405162461bcd60e51b815260206004820152601860248201527741636365737369626c653a207a65726f206164647265737360401b6044820152606490fd5b3461035e57602036600319011261035e5760043580151580910361035e576000808052600560205290610f0260ff61066733600080516020611d078339815191526103d2565b60ff8019835416911617815580f35b3461035e57606036600319011261035e57610f2a6103a6565b604435801515810361035e576000808052600560205291610dd4919081610f6460ff61066733600080516020611d078339815191526103d2565b15611bb75760243584526001602052610bbe8160408620611701565b3461035e57600036600319011261035e576020601054604051908152f35b3461035e57602036600319011261035e576004356000526001602052602060018060a01b0360406000205416604051908152f35b3461035e57602036600319011261035e576020610ff9600435610ff481610363565b611720565b6040516001600160a01b039091168152f35b3461035e576000806003193601126106225760ff6106d68280602094526005845260403391206103d2565b3461035e57604036600319011261035e57602060ff6106d66110566103bc565b6004356000526005845260406000206103d2565b3461035e57600080600319360112610622576040519080600854906001918060011c9260018216928315611126575b6020926020861085146106045785885260208801949081156105e357506001146110cd576104968761057e8189038261049a565b600860005294509192917ff3f7a9fe364faab93b216da50a3214154f22a0a2b415b23a84c8169e8b636ee35b838610611115575050509101905061057e82610496388061056e565b8054858701529482019481016110f9565b93607f1693611099565b3461035e57602036600319011261035e576111496103a6565b6000808052600560205290610d9b9061117560ff61066733600080516020611d078339815191526103d2565b600080516020611cc78339815191528352600560205261119b6001604085200154611805565b6118c5565b3461035e57600036600319011261035e57610673336115ea565b3461035e57602036600319011261035e576111d36103a6565b6000808052600560205290610d9b906111ff60ff61066733600080516020611d078339815191526103d2565b600080516020611ce7833981519152835260056020526112256001604085200154611805565b61196c565b3461035e57600036600319011261035e57602060405160008152f35b3461035e57602036600319011261035e57602060ff6106d66112666103a6565b600080516020611cc78339815191526000526005845260406000206103d2565b3461035e57602036600319011261035e576106736112a26103a6565b6000805260056020526112c860ff61066733600080516020611d078339815191526103d2565b6115d1565b3461035e57600036600319011261035e5760206040516b204fce5e3e250261100000008152f35b3461035e57602036600319011261035e57600435600052600b602052604060002060018154910154906104966040519283928360209093929193604081019481520152565b3461035e57602036600319011261035e576113526103a6565b6000808052600560205290610d9b9061137e60ff61066733600080516020611d078339815191526103d2565b600080516020611cc7833981519152835260056020526113a46001604085200154611805565b6119cc565b3461035e57600036600319011261035e576020604051600080516020611cc78339815191528152f35b3461035e57604036600319011261035e576106736004356113f16103bc565b9080600052600560205261140c600160406000200154611805565b611b2e565b3461035e57602036600319011261035e5761142a6103a6565b600080805260056020529061145260ff61066733600080516020611d078339815191526103d2565b818052600560205261146c60ff61066733604086206103d2565b6001600160a01b0381168015610e7c573314610e3e57610dcb9061157c565b3461035e57600036600319011261035e576020604051600080516020611ce78339815191528152f35b3461035e57602036600319011261035e576114cd6103a6565b6000808052600560205290610d9b906114f960ff61066733600080516020611d078339815191526103d2565b600080516020611ce78339815191528352600560205261151f6001604085200154611805565b611a6b565b1561152b57565b60405162461bcd60e51b815260206004820152602360248201527f41757468436f6e74726f6c3a2043616c6c6572206973206e6f7420616e20616460448201526236b4b760e91b6064820152608490fd5b6000805260056020527f05b8ccbb9d4d8fb16ea74ce3c29a41f1b461fbdaff4714a0d9a8eb05499746bd546115b59190610d9690611805565b50565b336001600160a01b038216036107b7576115b590611ab1565b336001600160a01b038216036107b7576115b590611a6b565b336001600160a01b038216036107b7576115b5906119cc565b1561160a57565b60405162461bcd60e51b815260206004820152600960248201526839b0b6b29030b2323960b91b6044820152606490fd5b1561164257565b60405162461bcd60e51b815260206004820152601860248201527750726f78793a205f696d70206973206e6f7420616c69766560401b6044820152606490fd5b91908110156116925760051b0190565b634e487b7160e01b600052603260045260246000fd5b356116b281610363565b90565b156116bc57565b60405162461bcd60e51b815260206004820152601d60248201527f4c69717569646974795661756c7450726f78793a2073616d6520696d700000006044820152606490fd5b80546001600160a01b0319166001600160a01b03909216919091179055565b6001600160e01b0319166000908152600360205260409020546001600160a01b03908116806117675750600080526001602052600080516020611ca7833981519152541690565b80600052600260205260ff6040600020541661179b5750600080526001602052600080516020611ca7833981519152541690565b905090565b60405162461bcd60e51b815260206004820152601460248201527331b0b73737ba103932b1b2b4bb329022ba3432b960611b6044820152606490fd5b6001600160e01b03198116637965db0b60e01b149081156117fb575090565b6116b291506117dc565b80600052600560205260ff61181e3360406000206103d2565b5416156118285750565b6044906040519063e2517d3f60e01b82523360048301526024820152fd5b6000808052600560205260ff61186a83600080516020611d078339815191526103d2565b541661179b57808052600560205261188582604083206103d2565b805460ff1916600117905533916001600160a01b0316907f2f8788117e7eff1d82e926ec794901d17c78024a50270940304540a733656f0d8180a4600190565b600080516020611cc7833981519152600081815260056020529060ff61190b847fca0a2f641ec05ca23127d994cf03ffc453db616acae0b86cb56bb95304d068546103d2565b541661196657808252600560205261192683604084206103d2565b805460ff1916600117905533926001600160a01b0316917f2f8788117e7eff1d82e926ec794901d17c78024a50270940304540a733656f0d9080a4600190565b50905090565b600080516020611ce7833981519152600081815260056020529060ff61190b847f02634a7c777b8129955fe1824eee49ef19dfa96f2f4cb63212492c3d84eb58e66103d2565b600090808252600560205260ff61190b84604085206103d2565b600080516020611cc7833981519152600081815260056020529060ff611a12847fca0a2f641ec05ca23127d994cf03ffc453db616acae0b86cb56bb95304d068546103d2565b541615611966578082526005602052611a2e83604084206103d2565b805460ff1916905533926001600160a01b0316917ff6391f5c32d9c69d2a47ea670b442974b53935d1edc7fd64eb21e047a839171b9080a4600190565b600080516020611ce7833981519152600081815260056020529060ff611a12847f02634a7c777b8129955fe1824eee49ef19dfa96f2f4cb63212492c3d84eb58e66103d2565b6000808052600560205260ff611ad583600080516020611d078339815191526103d2565b54161561179b578080526005602052611af182604083206103d2565b805460ff1916905533916001600160a01b0316907ff6391f5c32d9c69d2a47ea670b442974b53935d1edc7fd64eb21e047a839171b8180a4600190565b600090808252600560205260ff611a1284604085206103d2565b600080526001602052611b6981600080516020611ca7833981519152611701565b60018060a01b03168060005260026020526040600020600160ff198254161790557f72558d9bfba4210f9ef095c782589484151f6d90f7a81bb3cb9b33efc695d324602060405160018152a2565b60207f72558d9bfba4210f9ef095c782589484151f6d90f7a81bb3cb9b33efc695d3249160018060a01b031692836000526002825260406000209015159060ff1981541660ff8316179055604051908152a2565b6000611c2181356001600160e01b031916611720565b6001600160a01b038116151580611c9a575b15611c5557818091368280378136915af43d82803e15611c51573d90f35b3d90fd5b60405162461bcd60e51b815260206004820152601d60248201527f50726f78793a20696d706c204f522070726f78792069732066616c73650000006044820152606490fd5b5060ff82541615611c3356fea6eef7e35abe7026729641147f7915573c7e97b47efa546f5f6e3230263bcb49f0887ba65ee2024ea881d91b74c2450ef19e1557f03bed3ea9f16b037cbe2dc9523a704056dcd17bcf83bed8b68c59416dac1119be77755efe3bde0a64e46e0c05b8ccbb9d4d8fb16ea74ce3c29a41f1b461fbdaff4714a0d9a8eb05499746bca26469706673582212203e14b04d029c3292b400c9283ecd0c75fee3d479f982fc90cc4535a67815641864736f6c63430008190033",
  "linkReferences": {},
  "deployedLinkReferences": {}
}