{
  "_format": "hh-sol-artifact-1",
  "contractName": "RefactorCoinageSnapshotProxy",
  "sourceName": "src/L1/Mock/proxy/RefactorCoinageSnapshotProxy.sol",
  "abi": [
    {
      "inputs": [],
      "name": "AccessControlBadConfirmation",
      "type": "error"
    },
    {
      "inputs": [
        {
          "internalType": "address",
          "name": "account",
          "type": "address"
        },
        {
          "internalType": "bytes32",
          "name": "neededRole",
          "type": "bytes32"
        }
      ],
      "name": "AccessControlUnauthorizedAccount",
      "type": "error"
    },
    {
      "anonymous": false,
      "inputs": [
        {
          "indexed": true,
          "internalType": "bytes32",
          "name": "role",
          "type": "bytes32"
        },
        {
          "indexed": true,
          "internalType": "bytes32",
          "name": "previousAdminRole",
          "type": "bytes32"
        },
        {
          "indexed": true,
          "internalType": "bytes32",
          "name": "newAdminRole",
          "type": "bytes32"
        }
      ],
      "name": "RoleAdminChanged",
      "type": "event"
    },
    {
      "anonymous": false,
      "inputs": [
        {
          "indexed": true,
          "internalType": "bytes32",
          "name": "role",
          "type": "bytes32"
        },
        {
          "indexed": true,
          "internalType": "address",
          "name": "account",
          "type": "address"
        },
        {
          "indexed": true,
          "internalType": "address",
          "name": "sender",
          "type": "address"
        }
      ],
      "name": "RoleGranted",
      "type": "event"
    },
    {
      "anonymous": false,
      "inputs": [
        {
          "indexed": true,
          "internalType": "bytes32",
          "name": "role",
          "type": "bytes32"
        },
        {
          "indexed": true,
          "internalType": "address",
          "name": "account",
          "type": "address"
        },
        {
          "indexed": true,
          "internalType": "address",
          "name": "sender",
          "type": "address"
        }
      ],
      "name": "RoleRevoked",
      "type": "event"
    },
    {
      "anonymous": false,
      "inputs": [
        {
          "indexed": true,
          "internalType": "address",
          "name": "impl",
          "type": "address"
        },
        {
          "indexed": false,
          "internalType": "bool",
          "name": "alive",
          "type": "bool"
        }
      ],
      "name": "SetAliveImplementation",
      "type": "event"
    },
    {
      "anonymous": false,
      "inputs": [
        {
          "indexed": true,
          "internalType": "bytes4",
          "name": "selector",
          "type": "bytes4"
        },
        {
          "indexed": true,
          "internalType": "address",
          "name": "impl",
          "type": "address"
        }
      ],
      "name": "SetSelectorImplementation",
      "type": "event"
    },
    {
      "anonymous": false,
      "inputs": [
        {
          "indexed": true,
          "internalType": "address",
          "name": "implementation",
          "type": "address"
        }
      ],
      "name": "Upgraded",
      "type": "event"
    },
    {
      "stateMutability": "payable",
      "type": "fallback"
    },
    {
      "inputs": [],
      "name": "DEFAULT_ADMIN_ROLE",
      "outputs": [
        {
          "internalType": "bytes32",
          "name": "",
          "type": "bytes32"
        }
      ],
      "stateMutability": "view",
      "type": "function"
    },
    {
      "inputs": [],
      "name": "MINTER_ROLE",
      "outputs": [
        {
          "internalType": "bytes32",
          "name": "",
          "type": "bytes32"
        }
      ],
      "stateMutability": "view",
      "type": "function"
    },
    {
      "inputs": [],
      "name": "OPERATOR_ROLE",
      "outputs": [
        {
          "internalType": "bytes32",
          "name": "",
          "type": "bytes32"
        }
      ],
      "stateMutability": "view",
      "type": "function"
    },
    {
      "inputs": [],
      "name": "REFACTOR_BOUNDARY",
      "outputs": [
        {
          "internalType": "uint256",
          "name": "",
          "type": "uint256"
        }
      ],
      "stateMutability": "view",
      "type": "function"
    },
    {
      "inputs": [],
      "name": "REFACTOR_DIVIDER",
      "outputs": [
        {
          "internalType": "uint256",
          "name": "",
          "type": "uint256"
        }
      ],
      "stateMutability": "view",
      "type": "function"
    },
    {
      "inputs": [
        {
          "internalType": "address",
          "name": "",
          "type": "address"
        },
        {
          "internalType": "address",
          "name": "",
          "type": "address"
        }
      ],
      "name": "_allowances",
      "outputs": [
        {
          "internalType": "uint256",
          "name": "",
          "type": "uint256"
        }
      ],
      "stateMutability": "view",
      "type": "function"
    },
    {
      "inputs": [
        {
          "internalType": "address",
          "name": "",
          "type": "address"
        },
        {
          "internalType": "uint256",
          "name": "",
          "type": "uint256"
        }
      ],
      "name": "accountBalanceIds",
      "outputs": [
        {
          "internalType": "uint256",
          "name": "",
          "type": "uint256"
        }
      ],
      "stateMutability": "view",
      "type": "function"
    },
    {
      "inputs": [
        {
          "internalType": "address",
          "name": "",
          "type": "address"
        },
        {
          "internalType": "uint256",
          "name": "",
          "type": "uint256"
        }
      ],
      "name": "accountBalanceSnapshots",
      "outputs": [
        {
          "internalType": "uint256",
          "name": "balance",
          "type": "uint256"
        },
        {
          "internalType": "uint256",
          "name": "refactoredCount",
          "type": "uint256"
        }
      ],
      "stateMutability": "view",
      "type": "function"
    },
    {
      "inputs": [
        {
          "internalType": "address",
          "name": "account",
          "type": "address"
        }
      ],
      "name": "addAdmin",
      "outputs": [],
      "stateMutability": "nonpayable",
      "type": "function"
    },
    {
      "inputs": [
        {
          "internalType": "address",
          "name": "account",
          "type": "address"
        }
      ],
      "name": "addMinter",
      "outputs": [],
      "stateMutability": "nonpayable",
      "type": "function"
    },
    {
      "inputs": [
        {
          "internalType": "address",
          "name": "account",
          "type": "address"
        }
      ],
      "name": "addOperator",
      "outputs": [],
      "stateMutability": "nonpayable",
      "type": "function"
    },
    {
      "inputs": [
        {
          "internalType": "address",
          "name": "",
          "type": "address"
        }
      ],
      "name": "aliveImplementation",
      "outputs": [
        {
          "internalType": "bool",
          "name": "",
          "type": "bool"
        }
      ],
      "stateMutability": "view",
      "type": "function"
    },
    {
      "inputs": [
        {
          "internalType": "uint256",
          "name": "",
          "type": "uint256"
        }
      ],
      "name": "factorSnapshotIds",
      "outputs": [
        {
          "internalType": "uint256",
          "name": "",
          "type": "uint256"
        }
      ],
      "stateMutability": "view",
      "type": "function"
    },
    {
      "inputs": [
        {
          "internalType": "uint256",
          "name": "",
          "type": "uint256"
        }
      ],
      "name": "factorSnapshots",
      "outputs": [
        {
          "internalType": "uint256",
          "name": "factor",
          "type": "uint256"
        },
        {
          "internalType": "uint256",
          "name": "refactorCount",
          "type": "uint256"
        }
      ],
      "stateMutability": "view",
      "type": "function"
    },
    {
      "inputs": [
        {
          "internalType": "bytes32",
          "name": "role",
          "type": "bytes32"
        }
      ],
      "name": "getRoleAdmin",
      "outputs": [
        {
          "internalType": "bytes32",
          "name": "",
          "type": "bytes32"
        }
      ],
      "stateMutability": "view",
      "type": "function"
    },
    {
      "inputs": [
        {
          "internalType": "bytes4",
          "name": "_selector",
          "type": "bytes4"
        }
      ],
      "name": "getSelectorImplementation2",
      "outputs": [
        {
          "internalType": "address",
          "name": "impl",
          "type": "address"
        }
      ],
      "stateMutability": "view",
      "type": "function"
    },
    {
      "inputs": [
        {
          "internalType": "bytes32",
          "name": "role",
          "type": "bytes32"
        },
        {
          "internalType": "address",
          "name": "account",
          "type": "address"
        }
      ],
      "name": "grantRole",
      "outputs": [],
      "stateMutability": "nonpayable",
      "type": "function"
    },
    {
      "inputs": [
        {
          "internalType": "bytes32",
          "name": "role",
          "type": "bytes32"
        },
        {
          "internalType": "address",
          "name": "account",
          "type": "address"
        }
      ],
      "name": "hasRole",
      "outputs": [
        {
          "internalType": "bool",
          "name": "",
          "type": "bool"
        }
      ],
      "stateMutability": "view",
      "type": "function"
    },
    {
      "inputs": [],
      "name": "implementation",
      "outputs": [
        {
          "internalType": "address",
          "name": "",
          "type": "address"
        }
      ],
      "stateMutability": "view",
      "type": "function"
    },
    {
      "inputs": [
        {
          "internalType": "uint256",
          "name": "_index",
          "type": "uint256"
        }
      ],
      "name": "implementation2",
      "outputs": [
        {
          "internalType": "address",
          "name": "",
          "type": "address"
        }
      ],
      "stateMutability": "view",
      "type": "function"
    },
    {
      "inputs": [
        {
          "internalType": "address",
          "name": "account",
          "type": "address"
        }
      ],
      "name": "isAdmin",
      "outputs": [
        {
          "internalType": "bool",
          "name": "",
          "type": "bool"
        }
      ],
      "stateMutability": "view",
      "type": "function"
    },
    {
      "inputs": [
        {
          "internalType": "address",
          "name": "account",
          "type": "address"
        }
      ],
      "name": "isMinter",
      "outputs": [
        {
          "internalType": "bool",
          "name": "",
          "type": "bool"
        }
      ],
      "stateMutability": "view",
      "type": "function"
    },
    {
      "inputs": [
        {
          "internalType": "address",
          "name": "account",
          "type": "address"
        }
      ],
      "name": "isOperator",
      "outputs": [
        {
          "internalType": "bool",
          "name": "",
          "type": "bool"
        }
      ],
      "stateMutability": "view",
      "type": "function"
    },
    {
      "inputs": [],
      "name": "isOwner",
      "outputs": [
        {
          "internalType": "bool",
          "name": "",
          "type": "bool"
        }
      ],
      "stateMutability": "view",
      "type": "function"
    },
    {
      "inputs": [],
      "name": "lastSnapshotId",
      "outputs": [
        {
          "internalType": "uint256",
          "name": "",
          "type": "uint256"
        }
      ],
      "stateMutability": "view",
      "type": "function"
    },
    {
      "inputs": [],
      "name": "name",
      "outputs": [
        {
          "internalType": "string",
          "name": "",
          "type": "string"
        }
      ],
      "stateMutability": "view",
      "type": "function"
    },
    {
      "inputs": [],
      "name": "pauseProxy",
      "outputs": [
        {
          "internalType": "bool",
          "name": "",
          "type": "bool"
        }
      ],
      "stateMutability": "view",
      "type": "function"
    },
    {
      "inputs": [
        {
          "internalType": "uint256",
          "name": "",
          "type": "uint256"
        }
      ],
      "name": "proxyImplementation",
      "outputs": [
        {
          "internalType": "address",
          "name": "",
          "type": "address"
        }
      ],
      "stateMutability": "view",
      "type": "function"
    },
    {
      "inputs": [
        {
          "internalType": "address",
          "name": "account",
          "type": "address"
        }
      ],
      "name": "removeAdmin",
      "outputs": [],
      "stateMutability": "nonpayable",
      "type": "function"
    },
    {
      "inputs": [
        {
          "internalType": "address",
          "name": "account",
          "type": "address"
        }
      ],
      "name": "removeMinter",
      "outputs": [],
      "stateMutability": "nonpayable",
      "type": "function"
    },
    {
      "inputs": [
        {
          "internalType": "address",
          "name": "account",
          "type": "address"
        }
      ],
      "name": "removeOperator",
      "outputs": [],
      "stateMutability": "nonpayable",
      "type": "function"
    },
    {
      "inputs": [],
      "name": "renounceMinter",
      "outputs": [],
      "stateMutability": "nonpayable",
      "type": "function"
    },
    {
      "inputs": [],
      "name": "renounceOperator",
      "outputs": [],
      "stateMutability": "nonpayable",
      "type": "function"
    },
    {
      "inputs": [],
      "name": "renounceOwnership",
      "outputs": [],
      "stateMutability": "nonpayable",
      "type": "function"
    },
    {
      "inputs": [
        {
          "internalType": "bytes32",
          "name": "role",
          "type": "bytes32"
        },
        {
          "internalType": "address",
          "name": "callerConfirmation",
          "type": "address"
        }
      ],
      "name": "renounceRole",
      "outputs": [],
      "stateMutability": "nonpayable",
      "type": "function"
    },
    {
      "inputs": [
        {
          "internalType": "address",
          "name": "account",
          "type": "address"
        }
      ],
      "name": "revokeMinter",
      "outputs": [],
      "stateMutability": "nonpayable",
      "type": "function"
    },
    {
      "inputs": [
        {
          "internalType": "address",
          "name": "account",
          "type": "address"
        }
      ],
      "name": "revokeOperator",
      "outputs": [],
      "stateMutability": "nonpayable",
      "type": "function"
    },
    {
      "inputs": [
        {
          "internalType": "bytes32",
          "name": "role",
          "type": "bytes32"
        },
        {
          "internalType": "address",
          "name": "account",
          "type": "address"
        }
      ],
      "name": "revokeRole",
      "outputs": [],
      "stateMutability": "nonpayable",
      "type": "function"
    },
    {
      "inputs": [],
      "name": "seigManager",
      "outputs": [
        {
          "internalType": "address",
          "name": "",
          "type": "address"
        }
      ],
      "stateMutability": "view",
      "type": "function"
    },
    {
      "inputs": [
        {
          "internalType": "bytes4",
          "name": "",
          "type": "bytes4"
        }
      ],
      "name": "selectorImplementation",
      "outputs": [
        {
          "internalType": "address",
          "name": "",
          "type": "address"
        }
      ],
      "stateMutability": "view",
      "type": "function"
    },
    {
      "inputs": [
        {
          "internalType": "address",
          "name": "newImplementation",
          "type": "address"
        },
        {
          "internalType": "bool",
          "name": "_alive",
          "type": "bool"
        }
      ],
      "name": "setAliveImplementation2",
      "outputs": [],
      "stateMutability": "nonpayable",
      "type": "function"
    },
    {
      "inputs": [
        {
          "internalType": "address",
          "name": "newImplementation",
          "type": "address"
        },
        {
          "internalType": "uint256",
          "name": "_index",
          "type": "uint256"
        },
        {
          "internalType": "bool",
          "name": "_alive",
          "type": "bool"
        }
      ],
      "name": "setImplementation2",
      "outputs": [],
      "stateMutability": "nonpayable",
      "type": "function"
    },
    {
      "inputs": [
        {
          "internalType": "bool",
          "name": "_pause",
          "type": "bool"
        }
      ],
      "name": "setProxyPause",
      "outputs": [],
      "stateMutability": "nonpayable",
      "type": "function"
    },
    {
      "inputs": [
        {
          "internalType": "bytes4[]",
          "name": "_selectors",
          "type": "bytes4[]"
        },
        {
          "internalType": "address",
          "name": "_imp",
          "type": "address"
        }
      ],
      "name": "setSelectorImplementations2",
      "outputs": [],
      "stateMutability": "nonpayable",
      "type": "function"
    },
    {
      "inputs": [
        {
          "internalType": "bytes4",
          "name": "interfaceId",
          "type": "bytes4"
        }
      ],
      "name": "supportsInterface",
      "outputs": [
        {
          "internalType": "bool",
          "name": "",
          "type": "bool"
        }
      ],
      "stateMutability": "view",
      "type": "function"
    },
    {
      "inputs": [],
      "name": "symbol",
      "outputs": [
        {
          "internalType": "string",
          "name": "",
          "type": "string"
        }
      ],
      "stateMutability": "view",
      "type": "function"
    },
    {
      "inputs": [
        {
          "internalType": "uint256",
          "name": "",
          "type": "uint256"
        }
      ],
      "name": "totalSupplySnapshotIds",
      "outputs": [
        {
          "internalType": "uint256",
          "name": "",
          "type": "uint256"
        }
      ],
      "stateMutability": "view",
      "type": "function"
    },
    {
      "inputs": [
        {
          "internalType": "uint256",
          "name": "",
          "type": "uint256"
        }
      ],
      "name": "totalSupplySnapshots",
      "outputs": [
        {
          "internalType": "uint256",
          "name": "balance",
          "type": "uint256"
        },
        {
          "internalType": "uint256",
          "name": "refactoredCount",
          "type": "uint256"
        }
      ],
      "stateMutability": "view",
      "type": "function"
    },
    {
      "inputs": [
        {
          "internalType": "address",
          "name": "newAdmin",
          "type": "address"
        }
      ],
      "name": "transferAdmin",
      "outputs": [],
      "stateMutability": "nonpayable",
      "type": "function"
    },
    {
      "inputs": [
        {
          "internalType": "address",
          "name": "newAdmin",
          "type": "address"
        }
      ],
      "name": "transferOwnership",
      "outputs": [],
      "stateMutability": "nonpayable",
      "type": "function"
    },
    {
      "inputs": [
        {
          "internalType": "address",
          "name": "impl",
          "type": "address"
        }
      ],
      "name": "upgradeTo",
      "outputs": [],
      "stateMutability": "nonpayable",
      "type": "function"
    },
    {
      "stateMutability": "payable",
      "type": "receive"
    }
  ],
  "bytecode": "0x6080604052346100d257610012336100d7565b507ff0887ba65ee2024ea881d91b74c2450ef19e1557f03bed3ea9f16b037cbe2dc9600081815260046020527fc8eb82122b0a761efb0e99f166311d3c9fc899bad9a87f4be6a6aaea831ff0e380549082905590917fbd79b86ffe0ab8e8776151514217cd7cacd52c909f66475c3af44e129f0b00ff918391838380a47f523a704056dcd17bcf83bed8b68c59416dac1119be77755efe3bde0a64e46e0c808352600160408420019183835493558380a4604051611d5890816101698239f35b600080fd5b6001600160a01b031660008181527f17ef568e3e12ab5b9c7254a8d58478811de00f9e6eb34345acd53bf8fd09d3ec602052604081205490919060ff166101645781805260046020526040822081835260205260408220600160ff1982541617905533917f2f8788117e7eff1d82e926ec794901d17c78024a50270940304540a733656f0d8180a4600190565b509056fe60806040526004361015610018575b36611c07576117c5565b60003560e01c8062d87a9c1461034257806301ffc9a71461033d578063024c2ddd146103385780630461fdc51461033357806306fdde031461032e5780631785f53c14610329578063248a9ca31461032457806324d7806c1461031f5780632ab6f8db1461031a5780632f2ff15d146103155780633092afd51461031057806336568abe1461030b5780633659cfe6146103065780634a5df50f1461030157806350d2a276146102fc578063550d01a3146102f757806356fabf68146102f25780635c60da1b146102ed5780635cc797d8146102e85780635deaecec146102e3578063614db8b2146102de57806363a8fd89146102d957806369f499b1146102d45780636d70f7ae146102cf5780636fb7f558146102ca57806370480275146102c5578063715018a6146102c057806375829def146102bb5780637cb00d25146102b65780637cd5f663146102b1578063837afbc0146102ac5780638b8f4a651461026b5780638d4fdb40146102a75780638f32d59b146102a257806391d148541461029d57806395d89b4114610298578063983b2d5614610293578063986502751461028e5780639870d7fe14610289578063a217fddf14610284578063aa271e1a1461027f578063ac8a584a1461027a578063b7c246d714610275578063b7d78b1a14610270578063b911135f1461026b578063cfbd488514610266578063d539139314610261578063d547741f1461025c578063f2fde38b14610257578063f5b541a6146102525763fad8b32a0361000e576114d9565b6114b0565b611436565b6113f7565b6113ce565b61135e565b610fc3565b611319565b6112f2565b6112ab565b61126b565b61124f565b6111df565b6111c5565b611155565b61108f565b61105b565b611030565b610ff7565b610fa5565b610f36565b610ee1565b610dfc565b610dc4565b610d5e565b610d35565b610cf5565b610ca1565b610c7e565b610c2d565b610be8565b610b94565b610b63565b610b12565b610ad3565b610a8d565b6108c8565b6107ee565b6107a7565b610760565b610721565b610707565b6106c9565b61069a565b61064a565b61053f565b61045a565b61040e565b610375565b3461035e57600036600319011261035e57602060405160028152f35b600080fd5b6001600160e01b031981160361035e57565b3461035e57602036600319011261035e57602060043561039481610363565b63ffffffff60e01b16637965db0b60e01b81149081156103ba575b506040519015158152f35b6301ffc9a760e01b149050386103af565b600435906001600160a01b038216820361035e57565b602435906001600160a01b038216820361035e57565b9060018060a01b0316600052602052604060002090565b3461035e57604036600319011261035e57602061045161042c6103cb565b6104346103e1565b6001600160a01b03909116600090815260088452604090206103f7565b54604051908152f35b3461035e57604036600319011261035e576001600160a01b0361047b6103cb565b16600052600e6020526040600020602435600052602052604060002060018154910154906104bb6040519283928360209093929193604081019481520152565b0390f35b90601f801991011681019081106001600160401b038211176104e057604052565b634e487b7160e01b600052604160045260246000fd5b6020808252825181830181905290939260005b82811061052b57505060409293506000838284010152601f8019910116010190565b818101860151848201604001528501610509565b3461035e57600080600319360112610647576040519080600654906001918060011c926001821692831561063d575b60209260208610851461062957858852602088019490811561060857506001146105af575b6104bb876105a3818903826104bf565b604051918291826104f6565b600660005294509192917ff652222313e28459528d920b65115c16c04f3efc82aaedc97be59f3f377c0d3f5b8386106105f757505050910190506105a3826104bb3880610593565b8054858701529482019481016105db565b60ff191685525050505090151560051b0190506105a3826104bb3880610593565b634e487b7160e01b82526022600452602482fd5b93607f169361056e565b80fd5b3461035e57602036600319011261035e576106986106666103cb565b60008052600460205261069360ff61068c33600080516020611cc38339815191526103f7565b5416611549565b6115dd565b005b3461035e57602036600319011261035e5760043560005260046020526020600160406000200154604051908152f35b3461035e57602036600319011261035e57602060ff6106fb6106e96103cb565b600080526004845260406000206103f7565b54166040519015158152f35b3461035e57600036600319011261035e57610698336115f6565b3461035e57604036600319011261035e576106986004356107406103e1565b9080600052600460205261075b600160406000200154611801565b6119ae565b3461035e57602036600319011261035e5761069861077c6103cb565b6000805260046020526107a260ff61068c33600080516020611cc38339815191526103f7565b61160f565b3461035e57604036600319011261035e576107c06103e1565b336001600160a01b038216036107dc5761069890600435611b2a565b60405163334bd91960e11b8152600490fd5b3461035e57602036600319011261035e576108076103cb565b600080805260046020529061082f60ff61068c33600080516020611cc38339815191526103f7565b6001600160a01b038116908115610893578280526001602052604083205461086c9190610867906001600160a01b0316841415611628565b611b44565b7fbc7cd75a20ee27fd9adebab32041f755214dbc6bffa90cc0225b39da2e5c2d3b8280a280f35b60405162461bcd60e51b815260206004820152600d60248201526c696e707574206973207a65726f60981b6044820152606490fd5b3461035e57604036600319011261035e576001600160401b0360043581811161035e573660238201121561035e57806004013591821161035e576024810190602436918460051b01011161035e5761091e6103e1565b600080805260046020529261094660ff61068c33600080516020611cc38339815191526103f7565b8015610a495761097c61097761097084959460018060a01b03166000526002602052604060002090565b5460ff1690565b611660565b6001600160a01b03928084169290855b838110610997578680f35b806109e686886109de6109d16109b86109b36001988c8c6116a7565b6116cd565b63ffffffff60e01b166000526003602052604060002090565b546001600160a01b031690565b1614156116da565b610a00836109fb6109b86109b3858a8a6116a7565b611726565b85610a1f610a126109b38489896116a7565b6001600160e01b03191690565b7f14ebc1c32aa68f4d766e89f3e546cee249f7df25183fc10ab1568d91c2ce9b7b8a80a30161098c565b606460405162461bcd60e51b815260206004820152602060248201527f50726f78793a205f73656c6563746f727327732073697a65206973207a65726f6044820152fd5b3461035e57602036600319011261035e57600435610aaa81610363565b63ffffffff60e01b166000526003602052602060018060a01b0360406000205416604051908152f35b3461035e57602036600319011261035e576001600160a01b03610af46103cb565b166000526002602052602060ff604060002054166040519015158152f35b3461035e57602036600319011261035e57600435600b5481101561035e57600b6000527f0175b7a638427703f0dbe7bb9bbf987a2551717b34e79f33b5b1008d1fa01db90154604051908152602090f35b3461035e576000806003193601126106475780806020925260018252604060018060a01b0391205416604051908152f35b3461035e57604036600319011261035e57610bad6103cb565b602435801515810361035e5760008052600460205261069891610be360ff61068c33600080516020611cc38339815191526103f7565b611bb3565b3461035e57602036600319011261035e57600435600052600c602052604060002060018154910154906104bb6040519283928360209093929193604081019481520152565b3461035e57602036600319011261035e5760043560095481101561035e5760096000527f6e1540171b6c0c960b71a7020d9f60077f6af931a8bbf590da0223dacf75c7af0154604051908152602090f35b3461035e57600036600319011261035e57602060ff600054166040519015158152f35b3461035e57604036600319011261035e57610cba6103cb565b6001600160a01b03166000908152600d6020526040812080546024359190821015610cf15782526020918290200154604051908152f35b8280fd5b3461035e57602036600319011261035e57602060ff6106fb610d156103cb565b600080516020611d038339815191526000526004845260406000206103f7565b3461035e57600036600319011261035e576005546040516001600160a01b039091168152602090f35b3461035e57602036600319011261035e57610d776103cb565b6000808052600460205290610dc090610da360ff61068c33600080516020611cc38339815191526103f7565b8280526004602052610dbb6001604085200154611801565b611842565b5080f35b3461035e57600080600319360112610647578080526004602052610df060ff61068c33604085206103f7565b610df9336115dd565b80f35b3461035e57602036600319011261035e57610e156103cb565b600080526004602052610e3b60ff61068c33600080516020611cc38339815191526103f7565b6001600160a01b0381168015610ea1573314610e6357610e5a906115a1565b610698336115dd565b60405162461bcd60e51b815260206004820152601660248201527520b1b1b2b9b9b4b136329d1039b0b6b29030b236b4b760511b6044820152606490fd5b60405162461bcd60e51b815260206004820152601860248201527741636365737369626c653a207a65726f206164647265737360401b6044820152606490fd5b3461035e57602036600319011261035e5760043580151580910361035e576000808052600460205290610f2760ff61068c33600080516020611cc38339815191526103f7565b60ff8019835416911617815580f35b3461035e57606036600319011261035e57610f4f6103cb565b604435801515810361035e576000808052600460205291610df9919081610f8960ff61068c33600080516020611cc38339815191526103f7565b15611bb35760243584526001602052610be38160408620611726565b3461035e57600036600319011261035e576020600f54604051908152f35b3461035e57602036600319011261035e576004356000526001602052602060018060a01b0360406000205416604051908152f35b3461035e57602036600319011261035e57602061101e60043561101981610363565b611745565b6040516001600160a01b039091168152f35b3461035e576000806003193601126106475760ff6106fb8280602094526004845260403391206103f7565b3461035e57604036600319011261035e57602060ff6106fb61107b6103e1565b6004356000526004845260406000206103f7565b3461035e57600080600319360112610647576040519080600754906001918060011c926001821692831561114b575b60209260208610851461062957858852602088019490811561060857506001146110f2576104bb876105a3818903826104bf565b600760005294509192917fa66cc928b5edb82af9bd49922954155ab7b0942694bea4ce44661d9a8736c6885b83861061113a57505050910190506105a3826104bb3880610593565b80548587015294820194810161111e565b93607f16936110be565b3461035e57602036600319011261035e5761116e6103cb565b6000808052600460205290610dc09061119a60ff61068c33600080516020611cc38339815191526103f7565b600080516020611ce3833981519152835260046020526111c06001604085200154611801565b6118c1565b3461035e57600036600319011261035e576106983361160f565b3461035e57602036600319011261035e576111f86103cb565b6000808052600460205290610dc09061122460ff61068c33600080516020611cc38339815191526103f7565b600080516020611d038339815191528352600460205261124a6001604085200154611801565b611968565b3461035e57600036600319011261035e57602060405160008152f35b3461035e57602036600319011261035e57602060ff6106fb61128b6103cb565b600080516020611ce38339815191526000526004845260406000206103f7565b3461035e57602036600319011261035e576106986112c76103cb565b6000805260046020526112ed60ff61068c33600080516020611cc38339815191526103f7565b6115f6565b3461035e57600036600319011261035e5760206040516b204fce5e3e250261100000008152f35b3461035e57602036600319011261035e57600435600052600a602052604060002060018154910154906104bb6040519283928360209093929193604081019481520152565b3461035e57602036600319011261035e576113776103cb565b6000808052600460205290610dc0906113a360ff61068c33600080516020611cc38339815191526103f7565b600080516020611ce3833981519152835260046020526113c96001604085200154611801565b6119c8565b3461035e57600036600319011261035e576020604051600080516020611ce38339815191528152f35b3461035e57604036600319011261035e576106986004356114166103e1565b90806000526004602052611431600160406000200154611801565b611b2a565b3461035e57602036600319011261035e5761144f6103cb565b600080805260046020529061147760ff61068c33600080516020611cc38339815191526103f7565b818052600460205261149160ff61068c33604086206103f7565b6001600160a01b0381168015610ea1573314610e6357610df0906115a1565b3461035e57600036600319011261035e576020604051600080516020611d038339815191528152f35b3461035e57602036600319011261035e576114f26103cb565b6000808052600460205290610dc09061151e60ff61068c33600080516020611cc38339815191526103f7565b600080516020611d03833981519152835260046020526115446001604085200154611801565b611a67565b1561155057565b60405162461bcd60e51b815260206004820152602360248201527f41757468436f6e74726f6c3a2043616c6c6572206973206e6f7420616e20616460448201526236b4b760e91b6064820152608490fd5b6000805260046020527f17ef568e3e12ab5b9c7254a8d58478811de00f9e6eb34345acd53bf8fd09d3ed546115da9190610dbb90611801565b50565b336001600160a01b038216036107dc576115da90611aad565b336001600160a01b038216036107dc576115da90611a67565b336001600160a01b038216036107dc576115da906119c8565b1561162f57565b60405162461bcd60e51b815260206004820152600960248201526839b0b6b29030b2323960b91b6044820152606490fd5b1561166757565b60405162461bcd60e51b815260206004820152601860248201527750726f78793a205f696d70206973206e6f7420616c69766560401b6044820152606490fd5b91908110156116b75760051b0190565b634e487b7160e01b600052603260045260246000fd5b356116d781610363565b90565b156116e157565b60405162461bcd60e51b815260206004820152601d60248201527f4c69717569646974795661756c7450726f78793a2073616d6520696d700000006044820152606490fd5b80546001600160a01b0319166001600160a01b03909216919091179055565b6001600160e01b0319166000908152600360205260409020546001600160a01b039081168061178c5750600080526001602052600080516020611ca3833981519152541690565b80600052600260205260ff604060002054166117c05750600080526001602052600080516020611ca3833981519152541690565b905090565b60405162461bcd60e51b815260206004820152601460248201527331b0b73737ba103932b1b2b4bb329022ba3432b960611b6044820152606490fd5b80600052600460205260ff61181a3360406000206103f7565b5416156118245750565b6044906040519063e2517d3f60e01b82523360048301526024820152fd5b6000808052600460205260ff61186683600080516020611cc38339815191526103f7565b54166117c057808052600460205261188182604083206103f7565b805460ff1916600117905533916001600160a01b0316907f2f8788117e7eff1d82e926ec794901d17c78024a50270940304540a733656f0d8180a4600190565b600080516020611ce3833981519152600081815260046020529060ff611907847fc8eb82122b0a761efb0e99f166311d3c9fc899bad9a87f4be6a6aaea831ff0e26103f7565b541661196257808252600460205261192283604084206103f7565b805460ff1916600117905533926001600160a01b0316917f2f8788117e7eff1d82e926ec794901d17c78024a50270940304540a733656f0d9080a4600190565b50905090565b600080516020611d03833981519152600081815260046020529060ff611907847fd040eb565e09a47b48cd8067d32ca1f9075290bcdf8bb7535df4a4d0830da9f46103f7565b600090808252600460205260ff61190784604085206103f7565b600080516020611ce3833981519152600081815260046020529060ff611a0e847fc8eb82122b0a761efb0e99f166311d3c9fc899bad9a87f4be6a6aaea831ff0e26103f7565b541615611962578082526004602052611a2a83604084206103f7565b805460ff1916905533926001600160a01b0316917ff6391f5c32d9c69d2a47ea670b442974b53935d1edc7fd64eb21e047a839171b9080a4600190565b600080516020611d03833981519152600081815260046020529060ff611a0e847fd040eb565e09a47b48cd8067d32ca1f9075290bcdf8bb7535df4a4d0830da9f46103f7565b6000808052600460205260ff611ad183600080516020611cc38339815191526103f7565b5416156117c0578080526004602052611aed82604083206103f7565b805460ff1916905533916001600160a01b0316907ff6391f5c32d9c69d2a47ea670b442974b53935d1edc7fd64eb21e047a839171b8180a4600190565b600090808252600460205260ff611a0e84604085206103f7565b600080526001602052611b6581600080516020611ca3833981519152611726565b60018060a01b03168060005260026020526040600020600160ff198254161790557f72558d9bfba4210f9ef095c782589484151f6d90f7a81bb3cb9b33efc695d324602060405160018152a2565b60207f72558d9bfba4210f9ef095c782589484151f6d90f7a81bb3cb9b33efc695d3249160018060a01b031692836000526002825260406000209015159060ff1981541660ff8316179055604051908152a2565b6000611c1d81356001600160e01b031916611745565b6001600160a01b038116151580611c96575b15611c5157818091368280378136915af43d82803e15611c4d573d90f35b3d90fd5b60405162461bcd60e51b815260206004820152601d60248201527f50726f78793a20696d706c204f522070726f78792069732066616c73650000006044820152606490fd5b5060ff82541615611c2f56fea6eef7e35abe7026729641147f7915573c7e97b47efa546f5f6e3230263bcb4917ef568e3e12ab5b9c7254a8d58478811de00f9e6eb34345acd53bf8fd09d3ecf0887ba65ee2024ea881d91b74c2450ef19e1557f03bed3ea9f16b037cbe2dc9523a704056dcd17bcf83bed8b68c59416dac1119be77755efe3bde0a64e46e0ca26469706673582212205cc14b2eb4b332815ddf7f2f0b1b40fb13bb7cfd07d2b278961285376815863164736f6c63430008190033",
  "linkReferences": {},
  "deployedLinkReferences": {}
}