{
  "_format": "hh-sol-artifact-1",
  "contractName": "L1WrappedStakedTONProxy",
  "sourceName": "src/L1/L1WrappedStakedTONProxy.sol",
  "abi": [
    {
      "inputs": [],
      "name": "AccessControlBadConfirmation",
      "type": "error"
    },
    {
      "inputs": [
        {
          "internalType": "address",
          "name": "account",
          "type": "address"
        },
        {
          "internalType": "bytes32",
          "name": "neededRole",
          "type": "bytes32"
        }
      ],
      "name": "AccessControlUnauthorizedAccount",
      "type": "error"
    },
    {
      "inputs": [],
      "name": "DepositFailed",
      "type": "error"
    },
    {
      "inputs": [
        {
          "internalType": "uint256",
          "name": "amount",
          "type": "uint256"
        }
      ],
      "name": "FailedToSwapFromTONToWTON",
      "type": "error"
    },
    {
      "inputs": [
        {
          "internalType": "address",
          "name": "requestor",
          "type": "address"
        }
      ],
      "name": "NoClaimableAmount",
      "type": "error"
    },
    {
      "inputs": [],
      "name": "NoRequestToProcess",
      "type": "error"
    },
    {
      "inputs": [],
      "name": "NotEnoughFunds",
      "type": "error"
    },
    {
      "inputs": [],
      "name": "RequestAlreadyProcessed",
      "type": "error"
    },
    {
      "inputs": [],
      "name": "SameAdmin",
      "type": "error"
    },
    {
      "inputs": [],
      "name": "WithdrawalDelayNotElapsed",
      "type": "error"
    },
    {
      "inputs": [],
      "name": "WrontAmount",
      "type": "error"
    },
    {
      "inputs": [],
      "name": "ZeroAddress",
      "type": "error"
    },
    {
      "anonymous": false,
      "inputs": [
        {
          "indexed": true,
          "internalType": "address",
          "name": "owner",
          "type": "address"
        },
        {
          "indexed": true,
          "internalType": "address",
          "name": "spender",
          "type": "address"
        },
        {
          "indexed": false,
          "internalType": "uint256",
          "name": "value",
          "type": "uint256"
        }
      ],
      "name": "DebugAllowance",
      "type": "event"
    },
    {
      "anonymous": false,
      "inputs": [
        {
          "indexed": true,
          "internalType": "address",
          "name": "account",
          "type": "address"
        },
        {
          "indexed": false,
          "internalType": "uint256",
          "name": "balance",
          "type": "uint256"
        }
      ],
      "name": "DebugBalance",
      "type": "event"
    },
    {
      "anonymous": false,
      "inputs": [
        {
          "indexed": false,
          "internalType": "address",
          "name": "to",
          "type": "address"
        },
        {
          "indexed": false,
          "internalType": "bool",
          "name": "token",
          "type": "bool"
        },
        {
          "indexed": false,
          "internalType": "uint256",
          "name": "amount",
          "type": "uint256"
        },
        {
          "indexed": false,
          "internalType": "uint256",
          "name": "wstonAmount",
          "type": "uint256"
        },
        {
          "indexed": false,
          "internalType": "uint256",
          "name": "depositTime",
          "type": "uint256"
        },
        {
          "indexed": false,
          "internalType": "uint256",
          "name": "depositBlockNumber",
          "type": "uint256"
        }
      ],
      "name": "Deposited",
      "type": "event"
    },
    {
      "anonymous": false,
      "inputs": [
        {
          "indexed": false,
          "internalType": "address",
          "name": "account",
          "type": "address"
        }
      ],
      "name": "Paused",
      "type": "event"
    },
    {
      "anonymous": false,
      "inputs": [
        {
          "indexed": true,
          "internalType": "bytes32",
          "name": "role",
          "type": "bytes32"
        },
        {
          "indexed": true,
          "internalType": "bytes32",
          "name": "previousAdminRole",
          "type": "bytes32"
        },
        {
          "indexed": true,
          "internalType": "bytes32",
          "name": "newAdminRole",
          "type": "bytes32"
        }
      ],
      "name": "RoleAdminChanged",
      "type": "event"
    },
    {
      "anonymous": false,
      "inputs": [
        {
          "indexed": true,
          "internalType": "bytes32",
          "name": "role",
          "type": "bytes32"
        },
        {
          "indexed": true,
          "internalType": "address",
          "name": "account",
          "type": "address"
        },
        {
          "indexed": true,
          "internalType": "address",
          "name": "sender",
          "type": "address"
        }
      ],
      "name": "RoleGranted",
      "type": "event"
    },
    {
      "anonymous": false,
      "inputs": [
        {
          "indexed": true,
          "internalType": "bytes32",
          "name": "role",
          "type": "bytes32"
        },
        {
          "indexed": true,
          "internalType": "address",
          "name": "account",
          "type": "address"
        },
        {
          "indexed": true,
          "internalType": "address",
          "name": "sender",
          "type": "address"
        }
      ],
      "name": "RoleRevoked",
      "type": "event"
    },
    {
      "anonymous": false,
      "inputs": [],
      "name": "SeigniorageUpdated",
      "type": "event"
    },
    {
      "anonymous": false,
      "inputs": [
        {
          "indexed": true,
          "internalType": "address",
          "name": "impl",
          "type": "address"
        },
        {
          "indexed": false,
          "internalType": "bool",
          "name": "alive",
          "type": "bool"
        }
      ],
      "name": "SetAliveImplementation",
      "type": "event"
    },
    {
      "anonymous": false,
      "inputs": [
        {
          "indexed": true,
          "internalType": "bytes4",
          "name": "selector",
          "type": "bytes4"
        },
        {
          "indexed": true,
          "internalType": "address",
          "name": "impl",
          "type": "address"
        }
      ],
      "name": "SetSelectorImplementation",
      "type": "event"
    },
    {
      "anonymous": false,
      "inputs": [
        {
          "indexed": false,
          "internalType": "uint256",
          "name": "stakingIndex",
          "type": "uint256"
        }
      ],
      "name": "StakingIndexUpdated",
      "type": "event"
    },
    {
      "anonymous": false,
      "inputs": [
        {
          "indexed": false,
          "internalType": "address",
          "name": "account",
          "type": "address"
        }
      ],
      "name": "Unpaused",
      "type": "event"
    },
    {
      "anonymous": false,
      "inputs": [
        {
          "indexed": true,
          "internalType": "address",
          "name": "implementation",
          "type": "address"
        }
      ],
      "name": "Upgraded",
      "type": "event"
    },
    {
      "anonymous": false,
      "inputs": [
        {
          "indexed": false,
          "internalType": "address",
          "name": "_to",
          "type": "address"
        },
        {
          "indexed": false,
          "internalType": "uint256",
          "name": "amount",
          "type": "uint256"
        }
      ],
      "name": "WithdrawalProcessed",
      "type": "event"
    },
    {
      "anonymous": false,
      "inputs": [
        {
          "indexed": true,
          "internalType": "address",
          "name": "_to",
          "type": "address"
        },
        {
          "indexed": false,
          "internalType": "uint256",
          "name": "amount",
          "type": "uint256"
        }
      ],
      "name": "WithdrawalRequested",
      "type": "event"
    },
    {
      "stateMutability": "payable",
      "type": "fallback"
    },
    {
      "inputs": [],
      "name": "ADMIN_ROLE",
      "outputs": [
        {
          "internalType": "bytes32",
          "name": "",
          "type": "bytes32"
        }
      ],
      "stateMutability": "view",
      "type": "function"
    },
    {
      "inputs": [],
      "name": "DECIMALS",
      "outputs": [
        {
          "internalType": "uint256",
          "name": "",
          "type": "uint256"
        }
      ],
      "stateMutability": "view",
      "type": "function"
    },
    {
      "inputs": [],
      "name": "DEFAULT_ADMIN_ROLE",
      "outputs": [
        {
          "internalType": "bytes32",
          "name": "",
          "type": "bytes32"
        }
      ],
      "stateMutability": "view",
      "type": "function"
    },
    {
      "inputs": [],
      "name": "PAUSE_ROLE",
      "outputs": [
        {
          "internalType": "bytes32",
          "name": "",
          "type": "bytes32"
        }
      ],
      "stateMutability": "view",
      "type": "function"
    },
    {
      "inputs": [
        {
          "internalType": "address",
          "name": "account",
          "type": "address"
        }
      ],
      "name": "addAdmin",
      "outputs": [],
      "stateMutability": "nonpayable",
      "type": "function"
    },
    {
      "inputs": [
        {
          "internalType": "address",
          "name": "account",
          "type": "address"
        }
      ],
      "name": "addPauser",
      "outputs": [],
      "stateMutability": "nonpayable",
      "type": "function"
    },
    {
      "inputs": [
        {
          "internalType": "address",
          "name": "",
          "type": "address"
        }
      ],
      "name": "aliveImplementation",
      "outputs": [
        {
          "internalType": "bool",
          "name": "",
          "type": "bool"
        }
      ],
      "stateMutability": "view",
      "type": "function"
    },
    {
      "inputs": [
        {
          "internalType": "bytes32",
          "name": "role",
          "type": "bytes32"
        }
      ],
      "name": "getRoleAdmin",
      "outputs": [
        {
          "internalType": "bytes32",
          "name": "",
          "type": "bytes32"
        }
      ],
      "stateMutability": "view",
      "type": "function"
    },
    {
      "inputs": [
        {
          "internalType": "bytes4",
          "name": "_selector",
          "type": "bytes4"
        }
      ],
      "name": "getSelectorImplementation2",
      "outputs": [
        {
          "internalType": "address",
          "name": "impl",
          "type": "address"
        }
      ],
      "stateMutability": "view",
      "type": "function"
    },
    {
      "inputs": [
        {
          "internalType": "bytes32",
          "name": "role",
          "type": "bytes32"
        },
        {
          "internalType": "address",
          "name": "account",
          "type": "address"
        }
      ],
      "name": "grantRole",
      "outputs": [],
      "stateMutability": "nonpayable",
      "type": "function"
    },
    {
      "inputs": [
        {
          "internalType": "bytes32",
          "name": "role",
          "type": "bytes32"
        },
        {
          "internalType": "address",
          "name": "account",
          "type": "address"
        }
      ],
      "name": "hasRole",
      "outputs": [
        {
          "internalType": "bool",
          "name": "",
          "type": "bool"
        }
      ],
      "stateMutability": "view",
      "type": "function"
    },
    {
      "inputs": [],
      "name": "implementation",
      "outputs": [
        {
          "internalType": "address",
          "name": "",
          "type": "address"
        }
      ],
      "stateMutability": "view",
      "type": "function"
    },
    {
      "inputs": [
        {
          "internalType": "uint256",
          "name": "_index",
          "type": "uint256"
        }
      ],
      "name": "implementation2",
      "outputs": [
        {
          "internalType": "address",
          "name": "",
          "type": "address"
        }
      ],
      "stateMutability": "view",
      "type": "function"
    },
    {
      "inputs": [
        {
          "internalType": "address",
          "name": "account",
          "type": "address"
        }
      ],
      "name": "isAdmin",
      "outputs": [
        {
          "internalType": "bool",
          "name": "",
          "type": "bool"
        }
      ],
      "stateMutability": "view",
      "type": "function"
    },
    {
      "inputs": [],
      "name": "isOwner",
      "outputs": [
        {
          "internalType": "bool",
          "name": "",
          "type": "bool"
        }
      ],
      "stateMutability": "view",
      "type": "function"
    },
    {
      "inputs": [],
      "name": "lastSeigBlock",
      "outputs": [
        {
          "internalType": "uint256",
          "name": "",
          "type": "uint256"
        }
      ],
      "stateMutability": "view",
      "type": "function"
    },
    {
      "inputs": [],
      "name": "layer2Address",
      "outputs": [
        {
          "internalType": "address",
          "name": "",
          "type": "address"
        }
      ],
      "stateMutability": "view",
      "type": "function"
    },
    {
      "inputs": [],
      "name": "pauseProxy",
      "outputs": [
        {
          "internalType": "bool",
          "name": "",
          "type": "bool"
        }
      ],
      "stateMutability": "view",
      "type": "function"
    },
    {
      "inputs": [
        {
          "internalType": "uint256",
          "name": "",
          "type": "uint256"
        }
      ],
      "name": "proxyImplementation",
      "outputs": [
        {
          "internalType": "address",
          "name": "",
          "type": "address"
        }
      ],
      "stateMutability": "view",
      "type": "function"
    },
    {
      "inputs": [
        {
          "internalType": "address",
          "name": "account",
          "type": "address"
        }
      ],
      "name": "removeAdmin",
      "outputs": [],
      "stateMutability": "nonpayable",
      "type": "function"
    },
    {
      "inputs": [
        {
          "internalType": "address",
          "name": "account",
          "type": "address"
        }
      ],
      "name": "removePauser",
      "outputs": [],
      "stateMutability": "nonpayable",
      "type": "function"
    },
    {
      "inputs": [],
      "name": "renounceOwnership",
      "outputs": [],
      "stateMutability": "nonpayable",
      "type": "function"
    },
    {
      "inputs": [
        {
          "internalType": "bytes32",
          "name": "role",
          "type": "bytes32"
        },
        {
          "internalType": "address",
          "name": "callerConfirmation",
          "type": "address"
        }
      ],
      "name": "renounceRole",
      "outputs": [],
      "stateMutability": "nonpayable",
      "type": "function"
    },
    {
      "inputs": [
        {
          "internalType": "bytes32",
          "name": "role",
          "type": "bytes32"
        },
        {
          "internalType": "address",
          "name": "account",
          "type": "address"
        }
      ],
      "name": "revokeRole",
      "outputs": [],
      "stateMutability": "nonpayable",
      "type": "function"
    },
    {
      "inputs": [
        {
          "internalType": "bytes4",
          "name": "",
          "type": "bytes4"
        }
      ],
      "name": "selectorImplementation",
      "outputs": [
        {
          "internalType": "address",
          "name": "",
          "type": "address"
        }
      ],
      "stateMutability": "view",
      "type": "function"
    },
    {
      "inputs": [
        {
          "internalType": "address",
          "name": "newImplementation",
          "type": "address"
        },
        {
          "internalType": "bool",
          "name": "_alive",
          "type": "bool"
        }
      ],
      "name": "setAliveImplementation2",
      "outputs": [],
      "stateMutability": "nonpayable",
      "type": "function"
    },
    {
      "inputs": [
        {
          "internalType": "address",
          "name": "newImplementation",
          "type": "address"
        },
        {
          "internalType": "uint256",
          "name": "_index",
          "type": "uint256"
        },
        {
          "internalType": "bool",
          "name": "_alive",
          "type": "bool"
        }
      ],
      "name": "setImplementation2",
      "outputs": [],
      "stateMutability": "nonpayable",
      "type": "function"
    },
    {
      "inputs": [
        {
          "internalType": "bool",
          "name": "_pause",
          "type": "bool"
        }
      ],
      "name": "setProxyPause",
      "outputs": [],
      "stateMutability": "nonpayable",
      "type": "function"
    },
    {
      "inputs": [
        {
          "internalType": "bytes4[]",
          "name": "_selectors",
          "type": "bytes4[]"
        },
        {
          "internalType": "address",
          "name": "_imp",
          "type": "address"
        }
      ],
      "name": "setSelectorImplementations2",
      "outputs": [],
      "stateMutability": "nonpayable",
      "type": "function"
    },
    {
      "inputs": [
        {
          "internalType": "bytes4",
          "name": "interfaceId",
          "type": "bytes4"
        }
      ],
      "name": "supportsInterface",
      "outputs": [
        {
          "internalType": "bool",
          "name": "",
          "type": "bool"
        }
      ],
      "stateMutability": "view",
      "type": "function"
    },
    {
      "inputs": [],
      "name": "ton",
      "outputs": [
        {
          "internalType": "address",
          "name": "",
          "type": "address"
        }
      ],
      "stateMutability": "view",
      "type": "function"
    },
    {
      "inputs": [],
      "name": "totalStakedAmount",
      "outputs": [
        {
          "internalType": "uint256",
          "name": "",
          "type": "uint256"
        }
      ],
      "stateMutability": "view",
      "type": "function"
    },
    {
      "inputs": [],
      "name": "totalWstonMinted",
      "outputs": [
        {
          "internalType": "uint256",
          "name": "",
          "type": "uint256"
        }
      ],
      "stateMutability": "view",
      "type": "function"
    },
    {
      "inputs": [
        {
          "internalType": "address",
          "name": "newAdmin",
          "type": "address"
        }
      ],
      "name": "transferAdmin",
      "outputs": [],
      "stateMutability": "nonpayable",
      "type": "function"
    },
    {
      "inputs": [
        {
          "internalType": "address",
          "name": "newAdmin",
          "type": "address"
        }
      ],
      "name": "transferOwnership",
      "outputs": [],
      "stateMutability": "nonpayable",
      "type": "function"
    },
    {
      "inputs": [
        {
          "internalType": "address",
          "name": "impl",
          "type": "address"
        }
      ],
      "name": "upgradeTo",
      "outputs": [],
      "stateMutability": "nonpayable",
      "type": "function"
    },
    {
      "inputs": [
        {
          "internalType": "address",
          "name": "",
          "type": "address"
        },
        {
          "internalType": "uint256",
          "name": "",
          "type": "uint256"
        }
      ],
      "name": "withdrawalRequests",
      "outputs": [
        {
          "internalType": "uint256",
          "name": "withdrawableBlockNumber",
          "type": "uint256"
        },
        {
          "internalType": "uint256",
          "name": "amount",
          "type": "uint256"
        },
        {
          "internalType": "bool",
          "name": "processed",
          "type": "bool"
        }
      ],
      "stateMutability": "view",
      "type": "function"
    },
    {
      "inputs": [],
      "name": "wton",
      "outputs": [
        {
          "internalType": "address",
          "name": "",
          "type": "address"
        }
      ],
      "stateMutability": "view",
      "type": "function"
    },
    {
      "stateMutability": "payable",
      "type": "receive"
    }
  ],
  "bytecode": "0x608060405234605b576301ffc9a760e01b60005260046020527f9fe05126d2d9ecf60592e254dead906a4b2e492f36cca727682c38e9008c6ac1805460ff19166001179055604b336060565b5060405161159a90816100f18239f35b600080fd5b6001600160a01b031660008181527f05b8ccbb9d4d8fb16ea74ce3c29a41f1b461fbdaff4714a0d9a8eb05499746bc602052604081205490919060ff1660ec5781805260056020526040822081835260205260408220600160ff1982541617905533917f2f8788117e7eff1d82e926ec794901d17c78024a50270940304540a733656f0d8180a4600190565b509056fe60806040526004361015610018575b3661144957611063565b60003560e01c806301ffc9a7146102735780631785f53c1461026e578063248a9ca31461026957806324d7806c146102645780632e0f26251461025f5780632f2ff15d1461025a57806336568abe146102555780633659cfe614610250578063389ed2671461024b5780634a5df50f146102465780634d3d629f146102415780634e5a23281461023c57806350d2a27614610237578063550d01a314610232578063567e98f91461022d5780635c60da1b146102285780635cc797d81461022357806363a8fd891461021e57806363b07568146102195780636b2c0f5514610214578063704802751461020f578063715018a61461020a57806375829def1461020557806375b238fc146102005780637cb00d25146101fb5780637cd5f663146101f657806382dc1ec4146101f15780638b8f4a65146101d35780638d4fdb40146101ec5780638d62d949146101e75780638f32d59b146101e257806391d14854146101dd578063a217fddf146101d8578063b911135f146101d3578063cc48b947146101ce578063d547741f146101c9578063f2fde38b146101c45763f35c89e80361000e57610dee565b610dca565b610d8b565b610d62565b610c61565b610d46565b610d12565b610cf7565b610cce565b610c95565b610b8b565b610aee565b610ab2565b610a89565b6109da565b6109b5565b610947565b61090a565b6108ec565b6108c9565b610890565b61085c565b61083e565b6107ff565b6107b9565b61071a565b6106bc565b61053a565b610511565b610447565b610400565b6103c1565b61039a565b61034e565b61031f565b6102ec565b61028f565b6001600160e01b031981160361028a57565b600080fd5b3461028a57602036600319011261028a5760206102b66004356102b181610278565b61109f565b6040519015158152f35b600435906001600160a01b038216820361028a57565b602435906001600160a01b038216820361028a57565b3461028a57602036600319011261028a5761031d6103086102c0565b61031861031361102e565b610e0c565b610e64565b005b3461028a57602036600319011261028a5760043560005260056020526020600160406000200154604051908152f35b3461028a57602036600319011261028a57602060ff61038e61036e6102c0565b600080516020611525833981519152600052600584526040600020610703565b54166040519015158152f35b3461028a57600036600319011261028a57604051676765c793fa10079d601b1b8152602090f35b3461028a57604036600319011261028a5761031d6004356103e06102d6565b908060005260056020526103fb6001604060002001546110c8565b6111e4565b3461028a57604036600319011261028a576104196102d6565b336001600160a01b038216036104355761031d90600435611365565b60405163334bd91960e11b8152600490fd5b3461028a57602036600319011261028a576104606102c0565b61046b61031361102e565b6001600160a01b03811680156104dc57600080805260016020526000805160206114e58339815191525490926104b5916104b0906001600160a01b0316841415610e80565b61137f565b7fbc7cd75a20ee27fd9adebab32041f755214dbc6bffa90cc0225b39da2e5c2d3b8280a280f35b60405162461bcd60e51b815260206004820152600d60248201526c696e707574206973207a65726f60981b6044820152606490fd5b3461028a57600036600319011261028a5760206040516000805160206115058339815191528152f35b3461028a57604036600319011261028a5760043567ffffffffffffffff80821161028a573660238301121561028a57816004013590811161028a576024820191602436918360051b01011161028a576105916102d6565b9161059d61031361102e565b811561067857906105bf6105ba6105b3856106e9565b5460ff1690565b610eb8565b6001600160a01b0391838316919060005b8281106105d957005b80610614858761060c6105ff6105fa6105f56001988b8b610eff565b610f25565b6107a0565b546001600160a01b031690565b161415610f32565b61062e876106296105fa6105f5858989610eff565b610f7e565b8461064d6106406105f5848888610eff565b6001600160e01b03191690565b7f14ebc1c32aa68f4d766e89f3e546cee249f7df25183fc10ab1568d91c2ce9b7b600080a3016105d0565b606460405162461bcd60e51b815260206004820152602060248201527f50726f78793a205f73656c6563746f727327732073697a65206973207a65726f6044820152fd5b3461028a57600036600319011261028a5760065460405160089190911c6001600160a01b03168152602090f35b6001600160a01b0316600090815260026020526040902090565b9060018060a01b0316600052602052604060002090565b3461028a57604036600319011261028a576107336102c0565b6001600160a01b03166000908152600f60205260408120805460243592919083101561079c57816020916003935220910201805461079860ff600260018501549401541660405193849384919260409194936060840195845260208401521515910152565b0390f35b5080fd5b63ffffffff60e01b166000526003602052604060002090565b3461028a57602036600319011261028a576004356107d681610278565b63ffffffff60e01b166000526003602052602060018060a01b0360406000205416604051908152f35b3461028a57602036600319011261028a576001600160a01b036108206102c0565b166000526002602052602060ff604060002054166040519015158152f35b3461028a57600036600319011261028a576020600b54604051908152f35b3461028a5760008060031936011261088d5780806020925260018252604060018060a01b0391205416604051908152f35b80fd5b3461028a57604036600319011261028a576108a96102c0565b602435801515810361028a5761031d916108c461031361102e565b6113f5565b3461028a57600036600319011261028a57602060ff600054166040519015158152f35b3461028a57600036600319011261028a576020600c54604051908152f35b3461028a57602036600319011261028a576109236102c0565b61092e61031361102e565b336001600160a01b038216036104355761031d906111fe565b3461028a57602036600319011261028a5761031d6109636102c0565b61096e61031361102e565b60008051602061152583398151915260005260056020527f09f04f5809d5be59813a33617d16f069caae874a6b34f03139f63d934daddae7546109b0906110c8565b611109565b3461028a57600036600319011261028a576109d161031361102e565b61031d3361129d565b3461028a57602036600319011261028a576109f36102c0565b6109fe61031361102e565b6001600160a01b0381168015610a77573314610a655760008051602061152583398151915260005260056020527f09f04f5809d5be59813a33617d16f069caae874a6b34f03139f63d934daddae754610a5b91906109b0906110c8565b5061031d33610e64565b6040516309cd70b960e21b8152600490fd5b60405163d92e233d60e01b8152600490fd5b3461028a57600036600319011261028a5760206040516000805160206115258339815191528152f35b3461028a57602036600319011261028a5760043580151580910361028a57610adb61031361102e565b60ff801960005416911617600055600080f35b3461028a57606036600319011261028a57610b076102c0565b604435801515810361028a57610b1e61031361102e565b813b15610b485761031d9181156113f55760243560005260016020526108c4816040600020610f7e565b60405162461bcd60e51b815260206004820152601b60248201527a50726f78793a206e6f7420636f6e7472616374206164647265737360281b6044820152606490fd5b3461028a57602036600319011261028a57610ba46102c0565b600080516020611525833981519152600090815260056020529060ff610bd833600080516020611545833981519152610703565b54168015610c53575b15610c1957610c159060008051602061150583398151915283526005602052610c1060016040852001546110c8565b61119e565b5080f35b60405162461bcd60e51b81526020600482015260126024820152713737ba1027bbb732b91037b91020b236b4b760711b6044820152606490fd5b50610c5c61102e565b610be1565b3461028a57602036600319011261028a576004356000526001602052602060018060a01b0360406000205416604051908152f35b3461028a57602036600319011261028a576020610cbc600435610cb781610278565b610f9d565b6040516001600160a01b039091168152f35b3461028a57600036600319011261028a576007546040516001600160a01b039091168152602090f35b3461028a57600036600319011261028a5760206102b661102e565b3461028a57604036600319011261028a57602060ff61038e610d326102d6565b600435600052600584526040600020610703565b3461028a57600036600319011261028a57602060405160008152f35b3461028a57600036600319011261028a576008546040516001600160a01b039091168152602090f35b3461028a57604036600319011261028a5761031d600435610daa6102d6565b90806000526005602052610dc56001604060002001546110c8565b611365565b3461028a57602036600319011261028a57610de36102c0565b6109f361031361102e565b3461028a57600036600319011261028a576020600e54604051908152f35b15610e1357565b60405162461bcd60e51b8152602060048201526024808201527f41757468436f6e74726f6c3a2043616c6c6572206973206e6f7420746865206f6044820152633bb732b960e11b6064820152608490fd5b336001600160a01b0382160361043557610e7d90611331565b50565b15610e8757565b60405162461bcd60e51b815260206004820152600960248201526839b0b6b29030b2323960b91b6044820152606490fd5b15610ebf57565b60405162461bcd60e51b815260206004820152601860248201527750726f78793a205f696d70206973206e6f7420616c69766560401b6044820152606490fd5b9190811015610f0f5760051b0190565b634e487b7160e01b600052603260045260246000fd5b35610f2f81610278565b90565b15610f3957565b60405162461bcd60e51b815260206004820152601d60248201527f4c69717569646974795661756c7450726f78793a2073616d6520696d700000006044820152606490fd5b80546001600160a01b0319166001600160a01b03909216919091179055565b6001600160e01b031981166000908152600360205260409020546001600160a01b0391908216610fea57506000805260016020526000805160206114e5833981519152541690565b541690565b60ff61100083610ff9846107a0565b54166106e9565b54161561101057610fe5906107a0565b506000805260016020526000805160206114e5833981519152541690565b60008052600560205260ff610fe5337f05b8ccbb9d4d8fb16ea74ce3c29a41f1b461fbdaff4714a0d9a8eb05499746bc610703565b60405162461bcd60e51b815260206004820152601460248201527331b0b73737ba103932b1b2b4bb329022ba3432b960611b6044820152606490fd5b6001600160e01b03198116637965db0b60e01b149081156110be575090565b610f2f915061109f565b80600052600560205260ff6110e1336040600020610703565b5416156110eb5750565b6044906040519063e2517d3f60e01b82523360048301526024820152fd5b600080516020611525833981519152600081815260056020529060ff61113d84600080516020611545833981519152610703565b54166111985780825260056020526111588360408420610703565b805460ff1916600117905533926001600160a01b0316917f2f8788117e7eff1d82e926ec794901d17c78024a50270940304540a733656f0d9080a4600190565b50905090565b600080516020611505833981519152600081815260056020529060ff61113d847f787f97f3270d439d97068e73d6d75a066b24f84c342661f177d4e43e00e9f513610703565b600090808252600560205260ff61113d8460408520610703565b600080516020611505833981519152600081815260056020529060ff611244847f787f97f3270d439d97068e73d6d75a066b24f84c342661f177d4e43e00e9f513610703565b5416156111985780825260056020526112608360408420610703565b805460ff1916905533926001600160a01b0316917ff6391f5c32d9c69d2a47ea670b442974b53935d1edc7fd64eb21e047a839171b9080a4600190565b6000808052600560205260ff6112d3837f05b8ccbb9d4d8fb16ea74ce3c29a41f1b461fbdaff4714a0d9a8eb05499746bc610703565b54161561132c5780805260056020526112ef8260408320610703565b805460ff1916905533916001600160a01b0316907ff6391f5c32d9c69d2a47ea670b442974b53935d1edc7fd64eb21e047a839171b8180a4600190565b905090565b600080516020611525833981519152600081815260056020529060ff61124484600080516020611545833981519152610703565b600090808252600560205260ff6112448460408520610703565b803b15610b48576000805260016020526113a7816000805160206114e5833981519152610f7e565b60018060a01b03168060005260026020526040600020600160ff198254161790557f72558d9bfba4210f9ef095c782589484151f6d90f7a81bb3cb9b33efc695d324602060405160018152a2565b60207f72558d9bfba4210f9ef095c782589484151f6d90f7a81bb3cb9b33efc695d3249160018060a01b031692836000526002825260406000209015159060ff1981541660ff8316179055604051908152a2565b600061145f81356001600160e01b031916610f9d565b6001600160a01b0381161515806114d8575b1561149357818091368280378136915af43d82803e1561148f573d90f35b3d90fd5b60405162461bcd60e51b815260206004820152601d60248201527f50726f78793a20696d706c204f522070726f78792069732066616c73650000006044820152606490fd5b5060ff8254161561147156fea6eef7e35abe7026729641147f7915573c7e97b47efa546f5f6e3230263bcb49fcb9fcbfa83b897fb2d5cf4b58962164105c1e71489a37ef3ae0db3fdce576f6df8b4c520ffe197c5343c6f5aec59570151ef9a492f2c624fd45ddde6135ec4209f04f5809d5be59813a33617d16f069caae874a6b34f03139f63d934daddae6a26469706673582212206622cb26d7316395d3e1437c285a98f39ead06bf5e17befa8572babc4a54849c64736f6c63430008190033",
  "linkReferences": {},
  "deployedLinkReferences": {}
}