{
  "_format": "hh-sol-artifact-1",
  "contractName": "L1WrappedStakedTONProxy",
  "sourceName": "src/L1/L1WrappedStakedTONProxy.sol",
  "abi": [
    {
      "inputs": [],
      "name": "AccessControlBadConfirmation",
      "type": "error"
    },
    {
      "inputs": [
        {
          "internalType": "address",
          "name": "account",
          "type": "address"
        },
        {
          "internalType": "bytes32",
          "name": "neededRole",
          "type": "bytes32"
        }
      ],
      "name": "AccessControlUnauthorizedAccount",
      "type": "error"
    },
    {
      "anonymous": false,
      "inputs": [
        {
          "indexed": true,
          "internalType": "address",
          "name": "owner",
          "type": "address"
        },
        {
          "indexed": true,
          "internalType": "address",
          "name": "spender",
          "type": "address"
        },
        {
          "indexed": false,
          "internalType": "uint256",
          "name": "value",
          "type": "uint256"
        }
      ],
      "name": "DebugAllowance",
      "type": "event"
    },
    {
      "anonymous": false,
      "inputs": [
        {
          "indexed": true,
          "internalType": "address",
          "name": "account",
          "type": "address"
        },
        {
          "indexed": false,
          "internalType": "uint256",
          "name": "balance",
          "type": "uint256"
        }
      ],
      "name": "DebugBalance",
      "type": "event"
    },
    {
      "anonymous": false,
      "inputs": [
        {
          "indexed": false,
          "internalType": "address",
          "name": "to",
          "type": "address"
        },
        {
          "indexed": false,
          "internalType": "uint256",
          "name": "amount",
          "type": "uint256"
        },
        {
          "indexed": false,
          "internalType": "uint256",
          "name": "wstonAmount",
          "type": "uint256"
        },
        {
          "indexed": false,
          "internalType": "uint256",
          "name": "depositTime",
          "type": "uint256"
        },
        {
          "indexed": false,
          "internalType": "uint256",
          "name": "depositBlockNumber",
          "type": "uint256"
        }
      ],
      "name": "Deposited",
      "type": "event"
    },
    {
      "anonymous": false,
      "inputs": [
        {
          "indexed": false,
          "internalType": "address",
          "name": "account",
          "type": "address"
        }
      ],
      "name": "Paused",
      "type": "event"
    },
    {
      "anonymous": false,
      "inputs": [
        {
          "indexed": true,
          "internalType": "bytes32",
          "name": "role",
          "type": "bytes32"
        },
        {
          "indexed": true,
          "internalType": "bytes32",
          "name": "previousAdminRole",
          "type": "bytes32"
        },
        {
          "indexed": true,
          "internalType": "bytes32",
          "name": "newAdminRole",
          "type": "bytes32"
        }
      ],
      "name": "RoleAdminChanged",
      "type": "event"
    },
    {
      "anonymous": false,
      "inputs": [
        {
          "indexed": true,
          "internalType": "bytes32",
          "name": "role",
          "type": "bytes32"
        },
        {
          "indexed": true,
          "internalType": "address",
          "name": "account",
          "type": "address"
        },
        {
          "indexed": true,
          "internalType": "address",
          "name": "sender",
          "type": "address"
        }
      ],
      "name": "RoleGranted",
      "type": "event"
    },
    {
      "anonymous": false,
      "inputs": [
        {
          "indexed": true,
          "internalType": "bytes32",
          "name": "role",
          "type": "bytes32"
        },
        {
          "indexed": true,
          "internalType": "address",
          "name": "account",
          "type": "address"
        },
        {
          "indexed": true,
          "internalType": "address",
          "name": "sender",
          "type": "address"
        }
      ],
      "name": "RoleRevoked",
      "type": "event"
    },
    {
      "anonymous": false,
      "inputs": [
        {
          "indexed": true,
          "internalType": "address",
          "name": "impl",
          "type": "address"
        },
        {
          "indexed": false,
          "internalType": "bool",
          "name": "alive",
          "type": "bool"
        }
      ],
      "name": "SetAliveImplementation",
      "type": "event"
    },
    {
      "anonymous": false,
      "inputs": [
        {
          "indexed": true,
          "internalType": "bytes4",
          "name": "selector",
          "type": "bytes4"
        },
        {
          "indexed": true,
          "internalType": "address",
          "name": "impl",
          "type": "address"
        }
      ],
      "name": "SetSelectorImplementation",
      "type": "event"
    },
    {
      "anonymous": false,
      "inputs": [
        {
          "indexed": false,
          "internalType": "uint256",
          "name": "stakingIndex",
          "type": "uint256"
        }
      ],
      "name": "StakingIndexUpdated",
      "type": "event"
    },
    {
      "anonymous": false,
      "inputs": [
        {
          "indexed": false,
          "internalType": "address",
          "name": "account",
          "type": "address"
        }
      ],
      "name": "Unpaused",
      "type": "event"
    },
    {
      "anonymous": false,
      "inputs": [
        {
          "indexed": true,
          "internalType": "address",
          "name": "implementation",
          "type": "address"
        }
      ],
      "name": "Upgraded",
      "type": "event"
    },
    {
      "anonymous": false,
      "inputs": [
        {
          "indexed": false,
          "internalType": "address",
          "name": "_to",
          "type": "address"
        },
        {
          "indexed": false,
          "internalType": "uint256",
          "name": "amount",
          "type": "uint256"
        }
      ],
      "name": "WithdrawalProcessed",
      "type": "event"
    },
    {
      "anonymous": false,
      "inputs": [
        {
          "indexed": true,
          "internalType": "address",
          "name": "_to",
          "type": "address"
        },
        {
          "indexed": false,
          "internalType": "uint256",
          "name": "amount",
          "type": "uint256"
        }
      ],
      "name": "WithdrawalRequested",
      "type": "event"
    },
    {
      "stateMutability": "payable",
      "type": "fallback"
    },
    {
      "inputs": [],
      "name": "DECIMALS",
      "outputs": [
        {
          "internalType": "uint256",
          "name": "",
          "type": "uint256"
        }
      ],
      "stateMutability": "view",
      "type": "function"
    },
    {
      "inputs": [],
      "name": "DEFAULT_ADMIN_ROLE",
      "outputs": [
        {
          "internalType": "bytes32",
          "name": "",
          "type": "bytes32"
        }
      ],
      "stateMutability": "view",
      "type": "function"
    },
    {
      "inputs": [],
      "name": "PAUSE_ROLE",
      "outputs": [
        {
          "internalType": "bytes32",
          "name": "",
          "type": "bytes32"
        }
      ],
      "stateMutability": "view",
      "type": "function"
    },
    {
      "inputs": [],
      "name": "TREASURY_ROLE",
      "outputs": [
        {
          "internalType": "bytes32",
          "name": "",
          "type": "bytes32"
        }
      ],
      "stateMutability": "view",
      "type": "function"
    },
    {
      "inputs": [
        {
          "internalType": "address",
          "name": "account",
          "type": "address"
        }
      ],
      "name": "addAdmin",
      "outputs": [],
      "stateMutability": "nonpayable",
      "type": "function"
    },
    {
      "inputs": [
        {
          "internalType": "address",
          "name": "account",
          "type": "address"
        }
      ],
      "name": "addMinter",
      "outputs": [],
      "stateMutability": "nonpayable",
      "type": "function"
    },
    {
      "inputs": [
        {
          "internalType": "address",
          "name": "",
          "type": "address"
        }
      ],
      "name": "aliveImplementation",
      "outputs": [
        {
          "internalType": "bool",
          "name": "",
          "type": "bool"
        }
      ],
      "stateMutability": "view",
      "type": "function"
    },
    {
      "inputs": [],
      "name": "depositManager",
      "outputs": [
        {
          "internalType": "address",
          "name": "",
          "type": "address"
        }
      ],
      "stateMutability": "view",
      "type": "function"
    },
    {
      "inputs": [
        {
          "internalType": "bytes32",
          "name": "role",
          "type": "bytes32"
        }
      ],
      "name": "getRoleAdmin",
      "outputs": [
        {
          "internalType": "bytes32",
          "name": "",
          "type": "bytes32"
        }
      ],
      "stateMutability": "view",
      "type": "function"
    },
    {
      "inputs": [
        {
          "internalType": "bytes4",
          "name": "_selector",
          "type": "bytes4"
        }
      ],
      "name": "getSelectorImplementation2",
      "outputs": [
        {
          "internalType": "address",
          "name": "impl",
          "type": "address"
        }
      ],
      "stateMutability": "view",
      "type": "function"
    },
    {
      "inputs": [
        {
          "internalType": "bytes32",
          "name": "role",
          "type": "bytes32"
        },
        {
          "internalType": "address",
          "name": "account",
          "type": "address"
        }
      ],
      "name": "grantRole",
      "outputs": [],
      "stateMutability": "nonpayable",
      "type": "function"
    },
    {
      "inputs": [
        {
          "internalType": "bytes32",
          "name": "role",
          "type": "bytes32"
        },
        {
          "internalType": "address",
          "name": "account",
          "type": "address"
        }
      ],
      "name": "hasRole",
      "outputs": [
        {
          "internalType": "bool",
          "name": "",
          "type": "bool"
        }
      ],
      "stateMutability": "view",
      "type": "function"
    },
    {
      "inputs": [],
      "name": "implementation",
      "outputs": [
        {
          "internalType": "address",
          "name": "",
          "type": "address"
        }
      ],
      "stateMutability": "view",
      "type": "function"
    },
    {
      "inputs": [
        {
          "internalType": "uint256",
          "name": "_index",
          "type": "uint256"
        }
      ],
      "name": "implementation2",
      "outputs": [
        {
          "internalType": "address",
          "name": "",
          "type": "address"
        }
      ],
      "stateMutability": "view",
      "type": "function"
    },
    {
      "inputs": [
        {
          "internalType": "address",
          "name": "account",
          "type": "address"
        }
      ],
      "name": "isAdmin",
      "outputs": [
        {
          "internalType": "bool",
          "name": "",
          "type": "bool"
        }
      ],
      "stateMutability": "view",
      "type": "function"
    },
    {
      "inputs": [
        {
          "internalType": "address",
          "name": "account",
          "type": "address"
        }
      ],
      "name": "isMinter",
      "outputs": [
        {
          "internalType": "bool",
          "name": "",
          "type": "bool"
        }
      ],
      "stateMutability": "view",
      "type": "function"
    },
    {
      "inputs": [],
      "name": "isOwner",
      "outputs": [
        {
          "internalType": "bool",
          "name": "",
          "type": "bool"
        }
      ],
      "stateMutability": "view",
      "type": "function"
    },
    {
      "inputs": [],
      "name": "lastSeigBlock",
      "outputs": [
        {
          "internalType": "uint256",
          "name": "",
          "type": "uint256"
        }
      ],
      "stateMutability": "view",
      "type": "function"
    },
    {
      "inputs": [],
      "name": "layer2Address",
      "outputs": [
        {
          "internalType": "address",
          "name": "",
          "type": "address"
        }
      ],
      "stateMutability": "view",
      "type": "function"
    },
    {
      "inputs": [],
      "name": "pauseProxy",
      "outputs": [
        {
          "internalType": "bool",
          "name": "",
          "type": "bool"
        }
      ],
      "stateMutability": "view",
      "type": "function"
    },
    {
      "inputs": [
        {
          "internalType": "uint256",
          "name": "",
          "type": "uint256"
        }
      ],
      "name": "proxyImplementation",
      "outputs": [
        {
          "internalType": "address",
          "name": "",
          "type": "address"
        }
      ],
      "stateMutability": "view",
      "type": "function"
    },
    {
      "inputs": [
        {
          "internalType": "address",
          "name": "account",
          "type": "address"
        }
      ],
      "name": "removeAdmin",
      "outputs": [],
      "stateMutability": "nonpayable",
      "type": "function"
    },
    {
      "inputs": [
        {
          "internalType": "address",
          "name": "account",
          "type": "address"
        }
      ],
      "name": "removeMinter",
      "outputs": [],
      "stateMutability": "nonpayable",
      "type": "function"
    },
    {
      "inputs": [],
      "name": "renounceMinter",
      "outputs": [],
      "stateMutability": "nonpayable",
      "type": "function"
    },
    {
      "inputs": [],
      "name": "renounceOwnership",
      "outputs": [],
      "stateMutability": "nonpayable",
      "type": "function"
    },
    {
      "inputs": [
        {
          "internalType": "bytes32",
          "name": "role",
          "type": "bytes32"
        },
        {
          "internalType": "address",
          "name": "callerConfirmation",
          "type": "address"
        }
      ],
      "name": "renounceRole",
      "outputs": [],
      "stateMutability": "nonpayable",
      "type": "function"
    },
    {
      "inputs": [
        {
          "internalType": "address",
          "name": "account",
          "type": "address"
        }
      ],
      "name": "revokeMinter",
      "outputs": [],
      "stateMutability": "nonpayable",
      "type": "function"
    },
    {
      "inputs": [
        {
          "internalType": "bytes32",
          "name": "role",
          "type": "bytes32"
        },
        {
          "internalType": "address",
          "name": "account",
          "type": "address"
        }
      ],
      "name": "revokeRole",
      "outputs": [],
      "stateMutability": "nonpayable",
      "type": "function"
    },
    {
      "inputs": [],
      "name": "seigManager",
      "outputs": [
        {
          "internalType": "address",
          "name": "",
          "type": "address"
        }
      ],
      "stateMutability": "view",
      "type": "function"
    },
    {
      "inputs": [
        {
          "internalType": "bytes4",
          "name": "",
          "type": "bytes4"
        }
      ],
      "name": "selectorImplementation",
      "outputs": [
        {
          "internalType": "address",
          "name": "",
          "type": "address"
        }
      ],
      "stateMutability": "view",
      "type": "function"
    },
    {
      "inputs": [
        {
          "internalType": "address",
          "name": "newImplementation",
          "type": "address"
        },
        {
          "internalType": "bool",
          "name": "_alive",
          "type": "bool"
        }
      ],
      "name": "setAliveImplementation2",
      "outputs": [],
      "stateMutability": "nonpayable",
      "type": "function"
    },
    {
      "inputs": [
        {
          "internalType": "address",
          "name": "newImplementation",
          "type": "address"
        },
        {
          "internalType": "uint256",
          "name": "_index",
          "type": "uint256"
        },
        {
          "internalType": "bool",
          "name": "_alive",
          "type": "bool"
        }
      ],
      "name": "setImplementation2",
      "outputs": [],
      "stateMutability": "nonpayable",
      "type": "function"
    },
    {
      "inputs": [
        {
          "internalType": "bool",
          "name": "_pause",
          "type": "bool"
        }
      ],
      "name": "setProxyPause",
      "outputs": [],
      "stateMutability": "nonpayable",
      "type": "function"
    },
    {
      "inputs": [
        {
          "internalType": "bytes4[]",
          "name": "_selectors",
          "type": "bytes4[]"
        },
        {
          "internalType": "address",
          "name": "_imp",
          "type": "address"
        }
      ],
      "name": "setSelectorImplementations2",
      "outputs": [],
      "stateMutability": "nonpayable",
      "type": "function"
    },
    {
      "inputs": [],
      "name": "stakingIndex",
      "outputs": [
        {
          "internalType": "uint256",
          "name": "",
          "type": "uint256"
        }
      ],
      "stateMutability": "view",
      "type": "function"
    },
    {
      "inputs": [
        {
          "internalType": "bytes4",
          "name": "interfaceId",
          "type": "bytes4"
        }
      ],
      "name": "supportsInterface",
      "outputs": [
        {
          "internalType": "bool",
          "name": "",
          "type": "bool"
        }
      ],
      "stateMutability": "view",
      "type": "function"
    },
    {
      "inputs": [],
      "name": "totalStakedAmount",
      "outputs": [
        {
          "internalType": "uint256",
          "name": "",
          "type": "uint256"
        }
      ],
      "stateMutability": "view",
      "type": "function"
    },
    {
      "inputs": [],
      "name": "totalWstonMinted",
      "outputs": [
        {
          "internalType": "uint256",
          "name": "",
          "type": "uint256"
        }
      ],
      "stateMutability": "view",
      "type": "function"
    },
    {
      "inputs": [
        {
          "internalType": "address",
          "name": "newAdmin",
          "type": "address"
        }
      ],
      "name": "transferAdmin",
      "outputs": [],
      "stateMutability": "nonpayable",
      "type": "function"
    },
    {
      "inputs": [
        {
          "internalType": "address",
          "name": "newAdmin",
          "type": "address"
        }
      ],
      "name": "transferOwnership",
      "outputs": [],
      "stateMutability": "nonpayable",
      "type": "function"
    },
    {
      "inputs": [
        {
          "internalType": "address",
          "name": "impl",
          "type": "address"
        }
      ],
      "name": "upgradeTo",
      "outputs": [],
      "stateMutability": "nonpayable",
      "type": "function"
    },
    {
      "inputs": [
        {
          "internalType": "address",
          "name": "",
          "type": "address"
        },
        {
          "internalType": "uint256",
          "name": "",
          "type": "uint256"
        }
      ],
      "name": "withdrawalRequests",
      "outputs": [
        {
          "internalType": "uint256",
          "name": "withdrawableBlockNumber",
          "type": "uint256"
        },
        {
          "internalType": "uint256",
          "name": "amount",
          "type": "uint256"
        },
        {
          "internalType": "bool",
          "name": "processed",
          "type": "bool"
        }
      ],
      "stateMutability": "view",
      "type": "function"
    },
    {
      "inputs": [],
      "name": "wton",
      "outputs": [
        {
          "internalType": "address",
          "name": "",
          "type": "address"
        }
      ],
      "stateMutability": "view",
      "type": "function"
    },
    {
      "stateMutability": "payable",
      "type": "receive"
    }
  ],
  "bytecode": "0x608060405234610099576100123361009e565b507f06aa03964db1f7257357ef09714a5f0ca3633723df419e97015e0c7a3e83edb7600081815260046020527f97c071b0264ee03e42bebdc3ee62a0c4f285b066f1cc64dd2c88584f8acb938d805490829055604051927fbd79b86ffe0ab8e8776151514217cd7cacd52c909f66475c3af44e129f0b00ff8380a46117e290816101308239f35b600080fd5b6001600160a01b031660008181527f17ef568e3e12ab5b9c7254a8d58478811de00f9e6eb34345acd53bf8fd09d3ec602052604081205490919060ff1661012b5781805260046020526040822081835260205260408220600160ff1982541617905533917f2f8788117e7eff1d82e926ec794901d17c78024a50270940304540a733656f0d8180a4600190565b509056fe60806040526004361015610018575b366116b1576112ef565b60003560e01c806301ffc9a7146102c35780631785f53c146102be578063248a9ca3146102b957806324d7806c146102b45780632e0f2625146102af5780632f2ff15d146102aa5780633092afd5146102a557806330f50859146102a057806336568abe1461029b5780633659cfe614610296578063389ed267146102915780634a5df50f1461028c5780634d3d629f146102875780634e5a23281461028257806350d2a2761461027d578063550d01a314610278578063567e98f9146102735780635c60da1b1461026e5780635cc797d81461026957806363a8fd891461026457806363b075681461025f5780636c7ac9d81461025a5780636fb7f558146102555780637048027514610250578063715018a61461024b57806375829def146102465780637cb00d25146102415780637cd5f6631461023c5780638b8f4a651461020f5780638d4fdb40146102375780638d62d949146102325780638f32d59b1461022d57806391d1485414610228578063983b2d5614610223578063986502751461021e578063a217fddf14610219578063aa271e1a14610214578063b911135f1461020f578063cfbd48851461020a578063d11a57ec14610205578063d547741f14610200578063f2fde38b146101fb5763f35c89e80361000e5761105d565b610fe3565b610fa4565b610f7b565b610f0b565b610d30565b610ecb565b610eaf565b610e95565b610e25565b610df1565b610dc6565b610d9d565b610d64565b610c77565b610c22565b610b3d565b610b05565b610a9f565b610a76565b610a4d565b610a2f565b610a0c565b6109b8565b610984565b610966565b610927565b6108e1565b610842565b6107e4565b610645565b61060a565b610530565b6104e9565b6104cb565b610484565b610445565b61041e565b6103e0565b6103b1565b610361565b6102df565b6001600160e01b03198116036102da57565b600080fd5b346102da5760203660031901126102da5760206004356102fe816102c8565b63ffffffff60e01b16637965db0b60e01b8114908115610324575b506040519015158152f35b6301ffc9a760e01b14905038610319565b600435906001600160a01b03821682036102da57565b602435906001600160a01b03821682036102da57565b346102da5760203660031901126102da576103af61037d610335565b6000805260046020526103aa60ff6103a33360008051602061176d83398151915261082b565b541661107b565b61110f565b005b346102da5760203660031901126102da5760043560005260046020526020600160406000200154604051908152f35b346102da5760203660031901126102da57602060ff610412610400610335565b6000805260048452604060002061082b565b54166040519015158152f35b346102da5760003660031901126102da57604051676765c793fa10079d601b1b8152602090f35b346102da5760403660031901126102da576103af60043561046461034b565b9080600052600460205261047f60016040600020015461132b565b611497565b346102da5760203660031901126102da576103af6104a0610335565b6000805260046020526104c660ff6103a33360008051602061176d83398151915261082b565b611128565b346102da5760003660031901126102da576020600b54604051908152f35b346102da5760403660031901126102da5761050261034b565b336001600160a01b0382160361051e576103af906004356115cd565b60405163334bd91960e11b8152600490fd5b346102da5760203660031901126102da57610549610335565b600080805260046020529061057160ff6103a33360008051602061176d83398151915261082b565b6001600160a01b0381169081156105d557828052600160205260408320546105ae91906105a9906001600160a01b0316841415611141565b6115e7565b7fbc7cd75a20ee27fd9adebab32041f755214dbc6bffa90cc0225b39da2e5c2d3b8280a280f35b60405162461bcd60e51b815260206004820152600d60248201526c696e707574206973207a65726f60981b6044820152606490fd5b346102da5760003660031901126102da5760206040517ffcb9fcbfa83b897fb2d5cf4b58962164105c1e71489a37ef3ae0db3fdce576f68152f35b346102da5760403660031901126102da5767ffffffffffffffff6004358181116102da57366023820112156102da5780600401359182116102da576024810190602436918460051b0101116102da5761069c61034b565b60008080526004602052926106c460ff6103a33360008051602061176d83398151915261082b565b80156107a0576106e76106e26106db849594610811565b5460ff1690565b611179565b6001600160a01b03928084169290855b838110610702578680f35b8061073d868861073561072861072361071e6001988c8c6111c0565b6111e6565b6108c8565b546001600160a01b031690565b1614156111f3565b6107578361075261072361071e858a8a6111c0565b61123f565b8561077661076961071e8489896111c0565b6001600160e01b03191690565b7f14ebc1c32aa68f4d766e89f3e546cee249f7df25183fc10ab1568d91c2ce9b7b8a80a3016106f7565b606460405162461bcd60e51b815260206004820152602060248201527f50726f78793a205f73656c6563746f727327732073697a65206973207a65726f6044820152fd5b346102da5760003660031901126102da5760055460405160089190911c6001600160a01b03168152602090f35b6001600160a01b0316600090815260026020526040902090565b9060018060a01b0316600052602052604060002090565b346102da5760403660031901126102da5761085b610335565b6001600160a01b03166000908152600d6020526040812080546024359291908310156108c45781602091600393522091020180546108c060ff600260018501549401541660405193849384919260409194936060840195845260208401521515910152565b0390f35b5080fd5b63ffffffff60e01b166000526003602052604060002090565b346102da5760203660031901126102da576004356108fe816102c8565b63ffffffff60e01b166000526003602052602060018060a01b0360406000205416604051908152f35b346102da5760203660031901126102da576001600160a01b03610948610335565b166000526002602052602060ff604060002054166040519015158152f35b346102da5760003660031901126102da576020600954604051908152f35b346102da576000806003193601126109b55780806020925260018252604060018060a01b0391205416604051908152f35b80fd5b346102da5760403660031901126102da576109d1610335565b60243580151581036102da576000805260046020526103af91610a0760ff6103a33360008051602061176d83398151915261082b565b61165d565b346102da5760003660031901126102da57602060ff600054166040519015158152f35b346102da5760003660031901126102da576020600a54604051908152f35b346102da5760003660031901126102da576007546040516001600160a01b039091168152602090f35b346102da5760003660031901126102da576008546040516001600160a01b039091168152602090f35b346102da5760203660031901126102da57610ab8610335565b6000808052600460205290610b0190610ae460ff6103a33360008051602061176d83398151915261082b565b8280526004602052610afc600160408520015461132b565b61136c565b5080f35b346102da576000806003193601126109b5578080526004602052610b3160ff6103a3336040852061082b565b610b3a3361110f565b80f35b346102da5760203660031901126102da57610b56610335565b600080526004602052610b7c60ff6103a33360008051602061176d83398151915261082b565b6001600160a01b0381168015610be2573314610ba457610b9b906110d3565b6103af3361110f565b60405162461bcd60e51b815260206004820152601660248201527520b1b1b2b9b9b4b136329d1039b0b6b29030b236b4b760511b6044820152606490fd5b60405162461bcd60e51b815260206004820152601860248201527741636365737369626c653a207a65726f206164647265737360401b6044820152606490fd5b346102da5760203660031901126102da576004358015158091036102da576000808052600460205290610c6860ff6103a33360008051602061176d83398151915261082b565b60ff8019835416911617815580f35b346102da5760603660031901126102da57610c90610335565b6044359081151582036102da576000808052600460205291610cc560ff6103a33360008051602061176d83398151915261082b565b813b15610ced57610b3a91811561165d5760243584526001602052610a07816040862061123f565b60405162461bcd60e51b815260206004820152601b60248201527a50726f78793a206e6f7420636f6e7472616374206164647265737360281b6044820152606490fd5b346102da5760203660031901126102da576004356000526001602052602060018060a01b0360406000205416604051908152f35b346102da5760203660031901126102da576020610d8b600435610d86816102c8565b61125e565b6040516001600160a01b039091168152f35b346102da5760003660031901126102da576006546040516001600160a01b039091168152602090f35b346102da576000806003193601126109b55760ff61041282806020945260048452604033912061082b565b346102da5760403660031901126102da57602060ff610412610e1161034b565b60043560005260048452604060002061082b565b346102da5760203660031901126102da57610e3e610335565b6000808052600460205290610b0190610e6a60ff6103a33360008051602061176d83398151915261082b565b60008051602061178d83398151915283526004602052610e90600160408520015461132b565b6113f0565b346102da5760003660031901126102da576103af33611128565b346102da5760003660031901126102da57602060405160008152f35b346102da5760203660031901126102da57602060ff610412610eeb610335565b60008051602061178d83398151915260005260048452604060002061082b565b346102da5760203660031901126102da57610f24610335565b6000808052600460205290610b0190610f5060ff6103a33360008051602061176d83398151915261082b565b60008051602061178d83398151915283526004602052610f76600160408520015461132b565b6114b1565b346102da5760003660031901126102da57602060405160008051602061178d8339815191528152f35b346102da5760403660031901126102da576103af600435610fc361034b565b90806000526004602052610fde60016040600020015461132b565b6115cd565b346102da5760203660031901126102da57610ffc610335565b600080805260046020529061102460ff6103a33360008051602061176d83398151915261082b565b818052600460205261103e60ff6103a3336040862061082b565b6001600160a01b0381168015610be2573314610ba457610b31906110d3565b346102da5760003660031901126102da576020600c54604051908152f35b1561108257565b60405162461bcd60e51b815260206004820152602360248201527f41757468436f6e74726f6c3a2043616c6c6572206973206e6f7420616e20616460448201526236b4b760e91b6064820152608490fd5b6000805260046020527f17ef568e3e12ab5b9c7254a8d58478811de00f9e6eb34345acd53bf8fd09d3ed5461110c9190610afc9061132b565b50565b336001600160a01b0382160361051e5761110c90611550565b336001600160a01b0382160361051e5761110c906114b1565b1561114857565b60405162461bcd60e51b815260206004820152600960248201526839b0b6b29030b2323960b91b6044820152606490fd5b1561118057565b60405162461bcd60e51b815260206004820152601860248201527750726f78793a205f696d70206973206e6f7420616c69766560401b6044820152606490fd5b91908110156111d05760051b0190565b634e487b7160e01b600052603260045260246000fd5b356111f0816102c8565b90565b156111fa57565b60405162461bcd60e51b815260206004820152601d60248201527f4c69717569646974795661756c7450726f78793a2073616d6520696d700000006044820152606490fd5b80546001600160a01b0319166001600160a01b03909216919091179055565b6001600160e01b031981166000908152600360205260409020546001600160a01b03919082166112ab575060008052600160205260008051602061174d833981519152541690565b541690565b60ff6112c1836112ba846108c8565b5416610811565b5416156112d1576112a6906108c8565b5060008052600160205260008051602061174d833981519152541690565b60405162461bcd60e51b815260206004820152601460248201527331b0b73737ba103932b1b2b4bb329022ba3432b960611b6044820152606490fd5b80600052600460205260ff61134433604060002061082b565b54161561134e5750565b6044906040519063e2517d3f60e01b82523360048301526024820152fd5b6000808052600460205260ff6113908360008051602061176d83398151915261082b565b54166113eb5780805260046020526113ab826040832061082b565b805460ff1916600117905533916001600160a01b0316907f2f8788117e7eff1d82e926ec794901d17c78024a50270940304540a733656f0d8180a4600190565b905090565b60008051602061178d833981519152600081815260046020529060ff611436847f97c071b0264ee03e42bebdc3ee62a0c4f285b066f1cc64dd2c88584f8acb938c61082b565b5416611491578082526004602052611451836040842061082b565b805460ff1916600117905533926001600160a01b0316917f2f8788117e7eff1d82e926ec794901d17c78024a50270940304540a733656f0d9080a4600190565b50905090565b600090808252600460205260ff611436846040852061082b565b60008051602061178d833981519152600081815260046020529060ff6114f7847f97c071b0264ee03e42bebdc3ee62a0c4f285b066f1cc64dd2c88584f8acb938c61082b565b541615611491578082526004602052611513836040842061082b565b805460ff1916905533926001600160a01b0316917ff6391f5c32d9c69d2a47ea670b442974b53935d1edc7fd64eb21e047a839171b9080a4600190565b6000808052600460205260ff6115748360008051602061176d83398151915261082b565b5416156113eb578080526004602052611590826040832061082b565b805460ff1916905533916001600160a01b0316907ff6391f5c32d9c69d2a47ea670b442974b53935d1edc7fd64eb21e047a839171b8180a4600190565b600090808252600460205260ff6114f7846040852061082b565b803b15610ced5760008052600160205261160f8160008051602061174d83398151915261123f565b60018060a01b03168060005260026020526040600020600160ff198254161790557f72558d9bfba4210f9ef095c782589484151f6d90f7a81bb3cb9b33efc695d324602060405160018152a2565b60207f72558d9bfba4210f9ef095c782589484151f6d90f7a81bb3cb9b33efc695d3249160018060a01b031692836000526002825260406000209015159060ff1981541660ff8316179055604051908152a2565b60006116c781356001600160e01b03191661125e565b6001600160a01b038116151580611740575b156116fb57818091368280378136915af43d82803e156116f7573d90f35b3d90fd5b60405162461bcd60e51b815260206004820152601d60248201527f50726f78793a20696d706c204f522070726f78792069732066616c73650000006044820152606490fd5b5060ff825416156116d956fea6eef7e35abe7026729641147f7915573c7e97b47efa546f5f6e3230263bcb4917ef568e3e12ab5b9c7254a8d58478811de00f9e6eb34345acd53bf8fd09d3ec06aa03964db1f7257357ef09714a5f0ca3633723df419e97015e0c7a3e83edb7a2646970667358221220452833cccd2ce304d5e7b5d9928af965ec74385f130df67f204c8395c132237d64736f6c63430008190033",
  "linkReferences": {},
  "deployedLinkReferences": {}
}