{
  "_format": "hh-sol-artifact-1",
  "contractName": "AuthControlCoinage",
  "sourceName": "src/L1/Mock/common/AuthControlCoinage.sol",
  "abi": [
    {
      "inputs": [],
      "name": "AccessControlBadConfirmation",
      "type": "error"
    },
    {
      "inputs": [
        {
          "internalType": "address",
          "name": "account",
          "type": "address"
        },
        {
          "internalType": "bytes32",
          "name": "neededRole",
          "type": "bytes32"
        }
      ],
      "name": "AccessControlUnauthorizedAccount",
      "type": "error"
    },
    {
      "anonymous": false,
      "inputs": [
        {
          "indexed": true,
          "internalType": "bytes32",
          "name": "role",
          "type": "bytes32"
        },
        {
          "indexed": true,
          "internalType": "bytes32",
          "name": "previousAdminRole",
          "type": "bytes32"
        },
        {
          "indexed": true,
          "internalType": "bytes32",
          "name": "newAdminRole",
          "type": "bytes32"
        }
      ],
      "name": "RoleAdminChanged",
      "type": "event"
    },
    {
      "anonymous": false,
      "inputs": [
        {
          "indexed": true,
          "internalType": "bytes32",
          "name": "role",
          "type": "bytes32"
        },
        {
          "indexed": true,
          "internalType": "address",
          "name": "account",
          "type": "address"
        },
        {
          "indexed": true,
          "internalType": "address",
          "name": "sender",
          "type": "address"
        }
      ],
      "name": "RoleGranted",
      "type": "event"
    },
    {
      "anonymous": false,
      "inputs": [
        {
          "indexed": true,
          "internalType": "bytes32",
          "name": "role",
          "type": "bytes32"
        },
        {
          "indexed": true,
          "internalType": "address",
          "name": "account",
          "type": "address"
        },
        {
          "indexed": true,
          "internalType": "address",
          "name": "sender",
          "type": "address"
        }
      ],
      "name": "RoleRevoked",
      "type": "event"
    },
    {
      "inputs": [],
      "name": "DEFAULT_ADMIN_ROLE",
      "outputs": [
        {
          "internalType": "bytes32",
          "name": "",
          "type": "bytes32"
        }
      ],
      "stateMutability": "view",
      "type": "function"
    },
    {
      "inputs": [],
      "name": "MINTER_ROLE",
      "outputs": [
        {
          "internalType": "bytes32",
          "name": "",
          "type": "bytes32"
        }
      ],
      "stateMutability": "view",
      "type": "function"
    },
    {
      "inputs": [],
      "name": "OPERATOR_ROLE",
      "outputs": [
        {
          "internalType": "bytes32",
          "name": "",
          "type": "bytes32"
        }
      ],
      "stateMutability": "view",
      "type": "function"
    },
    {
      "inputs": [
        {
          "internalType": "address",
          "name": "account",
          "type": "address"
        }
      ],
      "name": "addAdmin",
      "outputs": [],
      "stateMutability": "nonpayable",
      "type": "function"
    },
    {
      "inputs": [
        {
          "internalType": "address",
          "name": "account",
          "type": "address"
        }
      ],
      "name": "addMinter",
      "outputs": [],
      "stateMutability": "nonpayable",
      "type": "function"
    },
    {
      "inputs": [
        {
          "internalType": "address",
          "name": "account",
          "type": "address"
        }
      ],
      "name": "addOperator",
      "outputs": [],
      "stateMutability": "nonpayable",
      "type": "function"
    },
    {
      "inputs": [
        {
          "internalType": "bytes32",
          "name": "role",
          "type": "bytes32"
        }
      ],
      "name": "getRoleAdmin",
      "outputs": [
        {
          "internalType": "bytes32",
          "name": "",
          "type": "bytes32"
        }
      ],
      "stateMutability": "view",
      "type": "function"
    },
    {
      "inputs": [
        {
          "internalType": "bytes32",
          "name": "role",
          "type": "bytes32"
        },
        {
          "internalType": "address",
          "name": "account",
          "type": "address"
        }
      ],
      "name": "grantRole",
      "outputs": [],
      "stateMutability": "nonpayable",
      "type": "function"
    },
    {
      "inputs": [
        {
          "internalType": "bytes32",
          "name": "role",
          "type": "bytes32"
        },
        {
          "internalType": "address",
          "name": "account",
          "type": "address"
        }
      ],
      "name": "hasRole",
      "outputs": [
        {
          "internalType": "bool",
          "name": "",
          "type": "bool"
        }
      ],
      "stateMutability": "view",
      "type": "function"
    },
    {
      "inputs": [
        {
          "internalType": "address",
          "name": "account",
          "type": "address"
        }
      ],
      "name": "isAdmin",
      "outputs": [
        {
          "internalType": "bool",
          "name": "",
          "type": "bool"
        }
      ],
      "stateMutability": "view",
      "type": "function"
    },
    {
      "inputs": [
        {
          "internalType": "address",
          "name": "account",
          "type": "address"
        }
      ],
      "name": "isMinter",
      "outputs": [
        {
          "internalType": "bool",
          "name": "",
          "type": "bool"
        }
      ],
      "stateMutability": "view",
      "type": "function"
    },
    {
      "inputs": [
        {
          "internalType": "address",
          "name": "account",
          "type": "address"
        }
      ],
      "name": "isOperator",
      "outputs": [
        {
          "internalType": "bool",
          "name": "",
          "type": "bool"
        }
      ],
      "stateMutability": "view",
      "type": "function"
    },
    {
      "inputs": [],
      "name": "isOwner",
      "outputs": [
        {
          "internalType": "bool",
          "name": "",
          "type": "bool"
        }
      ],
      "stateMutability": "view",
      "type": "function"
    },
    {
      "inputs": [
        {
          "internalType": "address",
          "name": "account",
          "type": "address"
        }
      ],
      "name": "removeAdmin",
      "outputs": [],
      "stateMutability": "nonpayable",
      "type": "function"
    },
    {
      "inputs": [
        {
          "internalType": "address",
          "name": "account",
          "type": "address"
        }
      ],
      "name": "removeMinter",
      "outputs": [],
      "stateMutability": "nonpayable",
      "type": "function"
    },
    {
      "inputs": [
        {
          "internalType": "address",
          "name": "account",
          "type": "address"
        }
      ],
      "name": "removeOperator",
      "outputs": [],
      "stateMutability": "nonpayable",
      "type": "function"
    },
    {
      "inputs": [],
      "name": "renounceMinter",
      "outputs": [],
      "stateMutability": "nonpayable",
      "type": "function"
    },
    {
      "inputs": [],
      "name": "renounceOperator",
      "outputs": [],
      "stateMutability": "nonpayable",
      "type": "function"
    },
    {
      "inputs": [],
      "name": "renounceOwnership",
      "outputs": [],
      "stateMutability": "nonpayable",
      "type": "function"
    },
    {
      "inputs": [
        {
          "internalType": "bytes32",
          "name": "role",
          "type": "bytes32"
        },
        {
          "internalType": "address",
          "name": "callerConfirmation",
          "type": "address"
        }
      ],
      "name": "renounceRole",
      "outputs": [],
      "stateMutability": "nonpayable",
      "type": "function"
    },
    {
      "inputs": [
        {
          "internalType": "address",
          "name": "account",
          "type": "address"
        }
      ],
      "name": "revokeMinter",
      "outputs": [],
      "stateMutability": "nonpayable",
      "type": "function"
    },
    {
      "inputs": [
        {
          "internalType": "address",
          "name": "account",
          "type": "address"
        }
      ],
      "name": "revokeOperator",
      "outputs": [],
      "stateMutability": "nonpayable",
      "type": "function"
    },
    {
      "inputs": [
        {
          "internalType": "bytes32",
          "name": "role",
          "type": "bytes32"
        },
        {
          "internalType": "address",
          "name": "account",
          "type": "address"
        }
      ],
      "name": "revokeRole",
      "outputs": [],
      "stateMutability": "nonpayable",
      "type": "function"
    },
    {
      "inputs": [
        {
          "internalType": "bytes4",
          "name": "interfaceId",
          "type": "bytes4"
        }
      ],
      "name": "supportsInterface",
      "outputs": [
        {
          "internalType": "bool",
          "name": "",
          "type": "bool"
        }
      ],
      "stateMutability": "view",
      "type": "function"
    },
    {
      "inputs": [
        {
          "internalType": "address",
          "name": "newAdmin",
          "type": "address"
        }
      ],
      "name": "transferAdmin",
      "outputs": [],
      "stateMutability": "nonpayable",
      "type": "function"
    },
    {
      "inputs": [
        {
          "internalType": "address",
          "name": "newAdmin",
          "type": "address"
        }
      ],
      "name": "transferOwnership",
      "outputs": [],
      "stateMutability": "nonpayable",
      "type": "function"
    }
  ],
  "bytecode": "0x60808060405234601557610dd6908161001b8239f35b600080fdfe608060408181526004918236101561001657600080fd5b600092833560e01c91826301ffc9a7146107bb575081631785f53c14610792578163248a9ca31461076857816324d7806c146107235781632ab6f8db146107095781632f2ff15d146106df5781633092afd5146106b657816336568abe146106705781636d70f7ae1461061d57816370480275146105c9578163715018a61461058f57816375829def146105545781638f32d59b1461052257816391d14854146104dc578163983b2d56146104b357816398650275146104965781639870d7fe1461046d578163a217fddf14610452578163aa271e1a146103ff578163ac8a584a146103bc578163cfbd488514610355578163d53913931461032c578163d547741f146102f1578163f2fde38b146101d857508063f5b541a6146101b05763fad8b32a1461014357600080fd5b346101ac5760203660031901126101ac576101a8906101a3600161016561080e565b928580528560205280862033875260205261018560ff828820541661083f565b600080516020610d61833981519152865285602052852001546108f7565b610bbe565b5080f35b5080fd5b50346101ac57816003193601126101ac5760209051600080516020610d618339815191528152f35b919050346102ed576020806003193601126102e9576101f561080e565b92848052848252828520338652825261021360ff848720541661083f565b848052848252828520338652825261023060ff848720541661083f565b6001600160a01b03841680156102ac573314610272575060016102659392856102609381805252852001546108f7565b61093b565b5061026f33610897565b80f35b915162461bcd60e51b815291820152601660248201527520b1b1b2b9b9b4b136329d1039b0b6b29030b236b4b760511b6044820152606490fd5b50915162461bcd60e51b815291820152601860248201527741636365737369626c653a207a65726f206164647265737360401b6044820152606490fd5b8380fd5b8280fd5b919050346102ed57806003193601126102ed576101a891356103276001610316610829565b9383875286602052862001546108f7565b610cbd565b5050346101ac57816003193601126101ac5760209051600080516020610d418339815191528152f35b5050346101ac5760203660031901126101ac576101a8906103b7600161037961080e565b928580528560205280862033875260205261039960ff828820541661083f565b600080516020610d41833981519152865285602052852001546108f7565b610b37565b5050346101ac5760203660031901126101ac5761026f906103fa60ff6103e061080e565b92858052856020528086203387526020528520541661083f565b6108c5565b5050346101ac5760203660031901126101ac5760ff8160209361042061080e565b600080516020610d4183398151915282528186528282206001600160a01b039091168252855220549151911615158152f35b5050346101ac57816003193601126101ac5751908152602090f35b5050346101ac5760203660031901126101ac576101a890610491600161016561080e565b610a47565b83346104b057806003193601126104b05761026f336108de565b80fd5b5050346101ac5760203660031901126101ac576101a8906104d7600161037961080e565b6109b9565b9050346102ed57816003193601126102ed578160209360ff926104fd610829565b903582528186528282206001600160a01b039091168252855220549151911615158152f35b5050346101ac57816003193601126101ac5760ff81838060209552808552818120338252855220541690519015158152f35b919050346102ed576020806003193601126102e95761057161080e565b92848052848252828520338652825261023060ff848720541661083f565b5050346101ac57816003193601126101ac5760ff6105c091838052836020528084203385526020528320541661083f565b61026f33610897565b5050346101ac5760203660031901126101ac576101a89061026060016105ed61080e565b928580528560205280862033875260205261060d60ff828820541661083f565b85805285602052852001546108f7565b5050346101ac5760203660031901126101ac5760ff8160209361063e61080e565b600080516020610d6183398151915282528186528282206001600160a01b039091168252855220549151911615158152f35b8383346101ac57806003193601126101ac5761068a610829565b90336001600160a01b038316036106a757506101a8919235610cbd565b5163334bd91960e11b81528390fd5b5050346101ac5760203660031901126101ac5761026f906106da60ff6103e061080e565b6108de565b919050346102ed57806003193601126102ed576101a891356107046001610316610829565b610ad0565b83346104b057806003193601126104b05761026f336108c5565b5050346101ac5760203660031901126101ac5760ff8160209361074461080e565b8180528186528282206001600160a01b039091168252855220549151911615158152f35b9050346102ed5760203660031901126102ed57816020936001923581528085522001549051908152f35b5050346101ac5760203660031901126101ac5761026f906107b660ff6103e061080e565b610897565b8491346102ed5760203660031901126102ed573563ffffffff60e01b81168091036102ed5760209250637965db0b60e01b81149081156107fd575b5015158152f35b6301ffc9a760e01b149050836107f6565b600435906001600160a01b038216820361082457565b600080fd5b602435906001600160a01b038216820361082457565b1561084657565b60405162461bcd60e51b815260206004820152602360248201527f41757468436f6e74726f6c3a2043616c6c6572206973206e6f7420616e20616460448201526236b4b760e91b6064820152608490fd5b336001600160a01b038216036108b3576108b090610c45565b50565b60405163334bd91960e11b8152600490fd5b336001600160a01b038216036108b3576108b090610bbe565b336001600160a01b038216036108b3576108b090610b37565b80600052600060205260406000203360005260205260ff604060002054161561091d5750565b6044906040519063e2517d3f60e01b82523360048301526024820152fd5b6001600160a01b031660008181527fad3228b676f7d3cd4284a5443f17f1962b36e491b30a40b2405849e597ba5fb5602052604081205490919060ff166109b557818052816020526040822081835260205260408220600160ff198254161790553391600080516020610d218339815191528180a4600190565b5090565b6001600160a01b031660008181527f213adc0a84cc939081f025f2b699be0ed944ae23aa7816da33f513ef6fc3cdfb6020526040812054909190600080516020610d418339815191529060ff16610a4257808352826020526040832082845260205260408320600160ff19825416179055600080516020610d21833981519152339380a4600190565b505090565b6001600160a01b031660008181527f84779ab8c2db004a3e75bfe114d2b98838cc68288e8e29039ab1b1e132f853bc6020526040812054909190600080516020610d618339815191529060ff16610a4257808352826020526040832082845260205260408320600160ff19825416179055600080516020610d21833981519152339380a4600190565b9060009180835282602052604083209160018060a01b03169182845260205260ff60408420541615600014610a4257808352826020526040832082845260205260408320600160ff19825416179055600080516020610d21833981519152339380a4600190565b6001600160a01b031660008181527f213adc0a84cc939081f025f2b699be0ed944ae23aa7816da33f513ef6fc3cdfb6020526040812054909190600080516020610d418339815191529060ff1615610a425780835282602052604083208284526020526040832060ff198154169055600080516020610d81833981519152339380a4600190565b6001600160a01b031660008181527f84779ab8c2db004a3e75bfe114d2b98838cc68288e8e29039ab1b1e132f853bc6020526040812054909190600080516020610d618339815191529060ff1615610a425780835282602052604083208284526020526040832060ff198154169055600080516020610d81833981519152339380a4600190565b6001600160a01b031660008181527fad3228b676f7d3cd4284a5443f17f1962b36e491b30a40b2405849e597ba5fb5602052604081205490919060ff16156109b55781805281602052604082208183526020526040822060ff1981541690553391600080516020610d818339815191528180a4600190565b9060009180835282602052604083209160018060a01b03169182845260205260ff604084205416600014610a425780835282602052604083208284526020526040832060ff198154169055600080516020610d81833981519152339380a460019056fe2f8788117e7eff1d82e926ec794901d17c78024a50270940304540a733656f0df0887ba65ee2024ea881d91b74c2450ef19e1557f03bed3ea9f16b037cbe2dc9523a704056dcd17bcf83bed8b68c59416dac1119be77755efe3bde0a64e46e0cf6391f5c32d9c69d2a47ea670b442974b53935d1edc7fd64eb21e047a839171ba2646970667358221220531afe86ddca2c6bed5d164f0cd31243af4fecc2d52eefa7df238abf2f86ffa464736f6c63430008190033",
  "linkReferences": {},
  "deployedLinkReferences": {}
}