{
  "_format": "hh-sol-artifact-1",
  "contractName": "AuthControlCoinage",
  "sourceName": "src/L1/Mock/common/AuthControlCoinage.sol",
  "abi": [
    {
      "inputs": [],
      "name": "AccessControlBadConfirmation",
      "type": "error"
    },
    {
      "inputs": [
        {
          "internalType": "address",
          "name": "account",
          "type": "address"
        },
        {
          "internalType": "bytes32",
          "name": "neededRole",
          "type": "bytes32"
        }
      ],
      "name": "AccessControlUnauthorizedAccount",
      "type": "error"
    },
    {
      "anonymous": false,
      "inputs": [
        {
          "indexed": true,
          "internalType": "bytes32",
          "name": "role",
          "type": "bytes32"
        },
        {
          "indexed": true,
          "internalType": "bytes32",
          "name": "previousAdminRole",
          "type": "bytes32"
        },
        {
          "indexed": true,
          "internalType": "bytes32",
          "name": "newAdminRole",
          "type": "bytes32"
        }
      ],
      "name": "RoleAdminChanged",
      "type": "event"
    },
    {
      "anonymous": false,
      "inputs": [
        {
          "indexed": true,
          "internalType": "bytes32",
          "name": "role",
          "type": "bytes32"
        },
        {
          "indexed": true,
          "internalType": "address",
          "name": "account",
          "type": "address"
        },
        {
          "indexed": true,
          "internalType": "address",
          "name": "sender",
          "type": "address"
        }
      ],
      "name": "RoleGranted",
      "type": "event"
    },
    {
      "anonymous": false,
      "inputs": [
        {
          "indexed": true,
          "internalType": "bytes32",
          "name": "role",
          "type": "bytes32"
        },
        {
          "indexed": true,
          "internalType": "address",
          "name": "account",
          "type": "address"
        },
        {
          "indexed": true,
          "internalType": "address",
          "name": "sender",
          "type": "address"
        }
      ],
      "name": "RoleRevoked",
      "type": "event"
    },
    {
      "inputs": [],
      "name": "DEFAULT_ADMIN_ROLE",
      "outputs": [
        {
          "internalType": "bytes32",
          "name": "",
          "type": "bytes32"
        }
      ],
      "stateMutability": "view",
      "type": "function"
    },
    {
      "inputs": [],
      "name": "MINTER_ROLE",
      "outputs": [
        {
          "internalType": "bytes32",
          "name": "",
          "type": "bytes32"
        }
      ],
      "stateMutability": "view",
      "type": "function"
    },
    {
      "inputs": [],
      "name": "OPERATOR_ROLE",
      "outputs": [
        {
          "internalType": "bytes32",
          "name": "",
          "type": "bytes32"
        }
      ],
      "stateMutability": "view",
      "type": "function"
    },
    {
      "inputs": [
        {
          "internalType": "address",
          "name": "account",
          "type": "address"
        }
      ],
      "name": "addAdmin",
      "outputs": [],
      "stateMutability": "nonpayable",
      "type": "function"
    },
    {
      "inputs": [
        {
          "internalType": "address",
          "name": "account",
          "type": "address"
        }
      ],
      "name": "addMinter",
      "outputs": [],
      "stateMutability": "nonpayable",
      "type": "function"
    },
    {
      "inputs": [
        {
          "internalType": "address",
          "name": "account",
          "type": "address"
        }
      ],
      "name": "addOperator",
      "outputs": [],
      "stateMutability": "nonpayable",
      "type": "function"
    },
    {
      "inputs": [
        {
          "internalType": "bytes32",
          "name": "role",
          "type": "bytes32"
        }
      ],
      "name": "getRoleAdmin",
      "outputs": [
        {
          "internalType": "bytes32",
          "name": "",
          "type": "bytes32"
        }
      ],
      "stateMutability": "view",
      "type": "function"
    },
    {
      "inputs": [
        {
          "internalType": "bytes32",
          "name": "role",
          "type": "bytes32"
        },
        {
          "internalType": "address",
          "name": "account",
          "type": "address"
        }
      ],
      "name": "grantRole",
      "outputs": [],
      "stateMutability": "nonpayable",
      "type": "function"
    },
    {
      "inputs": [
        {
          "internalType": "bytes32",
          "name": "role",
          "type": "bytes32"
        },
        {
          "internalType": "address",
          "name": "account",
          "type": "address"
        }
      ],
      "name": "hasRole",
      "outputs": [
        {
          "internalType": "bool",
          "name": "",
          "type": "bool"
        }
      ],
      "stateMutability": "view",
      "type": "function"
    },
    {
      "inputs": [
        {
          "internalType": "address",
          "name": "account",
          "type": "address"
        }
      ],
      "name": "isAdmin",
      "outputs": [
        {
          "internalType": "bool",
          "name": "",
          "type": "bool"
        }
      ],
      "stateMutability": "view",
      "type": "function"
    },
    {
      "inputs": [
        {
          "internalType": "address",
          "name": "account",
          "type": "address"
        }
      ],
      "name": "isMinter",
      "outputs": [
        {
          "internalType": "bool",
          "name": "",
          "type": "bool"
        }
      ],
      "stateMutability": "view",
      "type": "function"
    },
    {
      "inputs": [
        {
          "internalType": "address",
          "name": "account",
          "type": "address"
        }
      ],
      "name": "isOperator",
      "outputs": [
        {
          "internalType": "bool",
          "name": "",
          "type": "bool"
        }
      ],
      "stateMutability": "view",
      "type": "function"
    },
    {
      "inputs": [],
      "name": "isOwner",
      "outputs": [
        {
          "internalType": "bool",
          "name": "",
          "type": "bool"
        }
      ],
      "stateMutability": "view",
      "type": "function"
    },
    {
      "inputs": [
        {
          "internalType": "address",
          "name": "account",
          "type": "address"
        }
      ],
      "name": "removeAdmin",
      "outputs": [],
      "stateMutability": "nonpayable",
      "type": "function"
    },
    {
      "inputs": [
        {
          "internalType": "address",
          "name": "account",
          "type": "address"
        }
      ],
      "name": "removeMinter",
      "outputs": [],
      "stateMutability": "nonpayable",
      "type": "function"
    },
    {
      "inputs": [
        {
          "internalType": "address",
          "name": "account",
          "type": "address"
        }
      ],
      "name": "removeOperator",
      "outputs": [],
      "stateMutability": "nonpayable",
      "type": "function"
    },
    {
      "inputs": [],
      "name": "renounceMinter",
      "outputs": [],
      "stateMutability": "nonpayable",
      "type": "function"
    },
    {
      "inputs": [],
      "name": "renounceOperator",
      "outputs": [],
      "stateMutability": "nonpayable",
      "type": "function"
    },
    {
      "inputs": [],
      "name": "renounceOwnership",
      "outputs": [],
      "stateMutability": "nonpayable",
      "type": "function"
    },
    {
      "inputs": [
        {
          "internalType": "bytes32",
          "name": "role",
          "type": "bytes32"
        },
        {
          "internalType": "address",
          "name": "callerConfirmation",
          "type": "address"
        }
      ],
      "name": "renounceRole",
      "outputs": [],
      "stateMutability": "nonpayable",
      "type": "function"
    },
    {
      "inputs": [
        {
          "internalType": "address",
          "name": "account",
          "type": "address"
        }
      ],
      "name": "revokeMinter",
      "outputs": [],
      "stateMutability": "nonpayable",
      "type": "function"
    },
    {
      "inputs": [
        {
          "internalType": "address",
          "name": "account",
          "type": "address"
        }
      ],
      "name": "revokeOperator",
      "outputs": [],
      "stateMutability": "nonpayable",
      "type": "function"
    },
    {
      "inputs": [
        {
          "internalType": "bytes32",
          "name": "role",
          "type": "bytes32"
        },
        {
          "internalType": "address",
          "name": "account",
          "type": "address"
        }
      ],
      "name": "revokeRole",
      "outputs": [],
      "stateMutability": "nonpayable",
      "type": "function"
    },
    {
      "inputs": [
        {
          "internalType": "bytes4",
          "name": "interfaceId",
          "type": "bytes4"
        }
      ],
      "name": "supportsInterface",
      "outputs": [
        {
          "internalType": "bool",
          "name": "",
          "type": "bool"
        }
      ],
      "stateMutability": "view",
      "type": "function"
    },
    {
      "inputs": [
        {
          "internalType": "address",
          "name": "newAdmin",
          "type": "address"
        }
      ],
      "name": "transferAdmin",
      "outputs": [],
      "stateMutability": "nonpayable",
      "type": "function"
    },
    {
      "inputs": [
        {
          "internalType": "address",
          "name": "newAdmin",
          "type": "address"
        }
      ],
      "name": "transferOwnership",
      "outputs": [],
      "stateMutability": "nonpayable",
      "type": "function"
    }
  ],
  "bytecode": "0x608080604052346051576301ffc9a760e01b60009081526020527f67be87c3ff9960ca1e9cfac5cab2ff4747269cf9ed20c9b7306235ac35a491c5805460ff19166001179055610dfb90816100578239f35b600080fdfe608060408181526004918236101561001657600080fd5b600092833560e01c91826301ffc9a7146107c5575081631785f53c1461079c578163248a9ca31461077257816324d7806c1461072c5781632ab6f8db146107125781632f2ff15d146106e85781633092afd5146106bf57816336568abe146106795781636d70f7ae1461062557816370480275146105d1578163715018a61461059657816375829def1461055a5781638f32d59b1461052757816391d14854146104e0578163983b2d56146104b7578163986502751461049a5781639870d7fe14610471578163a217fddf14610456578163aa271e1a14610402578163ac8a584a146103be578163cfbd488514610357578163d53913931461032e578163d547741f146102f3578163f2fde38b146101d857508063f5b541a6146101b05763fad8b32a1461014357600080fd5b346101ac5760203660031901126101ac576101a8906101a360016101656107fd565b928580528160205280862033875260205261018560ff828820541661082e565b600080516020610d8683398151915286528160205285200154610912565b610bdf565b5080f35b5080fd5b50346101ac57816003193601126101ac5760209051600080516020610d868339815191528152f35b919050346102ef576020806003193601126102eb576101f56107fd565b9284805260018252828520338652825261021460ff848720541661082e565b84805260018252828520338652825261023260ff848720541661082e565b6001600160a01b03841680156102ae57331461027457506001610267939281610262938780525285200154610912565b610956565b5061027133610886565b80f35b915162461bcd60e51b815291820152601660248201527520b1b1b2b9b9b4b136329d1039b0b6b29030b236b4b760511b6044820152606490fd5b50915162461bcd60e51b815291820152601860248201527741636365737369626c653a207a65726f206164647265737360401b6044820152606490fd5b8380fd5b8280fd5b919050346102ef57806003193601126102ef576101a891356103296001610318610818565b938387528160205286200154610912565b610ce0565b5050346101ac57816003193601126101ac5760209051600080516020610d668339815191528152f35b5050346101ac5760203660031901126101ac576101a8906103b9600161037b6107fd565b928580528160205280862033875260205261039b60ff828820541661082e565b600080516020610d6683398151915286528160205285200154610912565b610b57565b5050346101ac5760203660031901126101ac57610271906103fd60ff6103e26107fd565b9285805260016020528086203387526020528520541661082e565b6108b4565b5050346101ac5760203660031901126101ac5760ff816020936104236107fd565b600080516020610d668339815191528252600186528282206001600160a01b039091168252855220549151911615158152f35b5050346101ac57816003193601126101ac5751908152602090f35b5050346101ac5760203660031901126101ac576101a89061049560016101656107fd565b610a64565b83346104b457806003193601126104b457610271336108cd565b80fd5b5050346101ac5760203660031901126101ac576101a8906104db600161037b6107fd565b6109d5565b9050346102ef57816003193601126102ef578160209360ff92610501610818565b90358252600186528282206001600160a01b039091168252855220549151911615158152f35b5050346101ac57816003193601126101ac5760ff8183806020955260018552818120338252855220541690519015158152f35b919050346102ef576020806003193601126102eb576105776107fd565b9284805260018252828520338652825261023260ff848720541661082e565b5050346101ac57816003193601126101ac5760ff6105c89183805260016020528084203385526020528320541661082e565b61027133610886565b5050346101ac5760203660031901126101ac576101a89061026260016105f56107fd565b928580528160205280862033875260205261061560ff828820541661082e565b8580528160205285200154610912565b5050346101ac5760203660031901126101ac5760ff816020936106466107fd565b600080516020610d868339815191528252600186528282206001600160a01b039091168252855220549151911615158152f35b8383346101ac57806003193601126101ac57610693610818565b90336001600160a01b038316036106b057506101a8919235610ce0565b5163334bd91960e11b81528390fd5b5050346101ac5760203660031901126101ac57610271906106e360ff6103e26107fd565b6108cd565b919050346102ef57806003193601126102ef576101a8913561070d6001610318610818565b610aee565b83346104b457806003193601126104b457610271336108b4565b5050346101ac5760203660031901126101ac5760ff8160209361074d6107fd565b818052600186528282206001600160a01b039091168252855220549151911615158152f35b9050346102ef5760203660031901126102ef57816020936001923581528285522001549051908152f35b5050346101ac5760203660031901126101ac57610271906107c060ff6103e26107fd565b610886565b8491346102ef5760203660031901126102ef5735916001600160e01b0319831683036104b457506107f76020926108e6565b15158152f35b600435906001600160a01b038216820361081357565b600080fd5b602435906001600160a01b038216820361081357565b1561083557565b60405162461bcd60e51b815260206004820152602360248201527f41757468436f6e74726f6c3a2043616c6c6572206973206e6f7420616e20616460448201526236b4b760e91b6064820152608490fd5b336001600160a01b038216036108a25761089f90610c67565b50565b60405163334bd91960e11b8152600490fd5b336001600160a01b038216036108a25761089f90610bdf565b336001600160a01b038216036108a25761089f90610b57565b6001600160e01b03198116637965db0b60e01b14908115610905575090565b61090f91506108e6565b90565b80600052600160205260406000203360005260205260ff60406000205416156109385750565b6044906040519063e2517d3f60e01b82523360048301526024820152fd5b6001600160a01b031660008181527fa6eef7e35abe7026729641147f7915573c7e97b47efa546f5f6e3230263bcb49602052604081205490919060ff166109d15781805260016020526040822081835260205260408220600160ff198254161790553391600080516020610d468339815191528180a4600190565b5090565b6001600160a01b031660008181527ffe36a80dee87f02e45351a65c4bd3ccefd3fc5363e679b6e4b81a8004282b3fc6020526040812054909190600080516020610d668339815191529060ff16610a5f5780835260016020526040832082845260205260408320600160ff19825416179055600080516020610d46833981519152339380a4600190565b505090565b6001600160a01b031660008181527f8ba84450219907afe912da1ddd29b6f4e773baa5c2630d42ebe0371c91fdf9ed6020526040812054909190600080516020610d868339815191529060ff16610a5f5780835260016020526040832082845260205260408320600160ff19825416179055600080516020610d46833981519152339380a4600190565b906000918083526001602052604083209160018060a01b03169182845260205260ff60408420541615600014610a5f5780835260016020526040832082845260205260408320600160ff19825416179055600080516020610d46833981519152339380a4600190565b6001600160a01b031660008181527ffe36a80dee87f02e45351a65c4bd3ccefd3fc5363e679b6e4b81a8004282b3fc6020526040812054909190600080516020610d668339815191529060ff1615610a5f578083526001602052604083208284526020526040832060ff198154169055600080516020610da6833981519152339380a4600190565b6001600160a01b031660008181527f8ba84450219907afe912da1ddd29b6f4e773baa5c2630d42ebe0371c91fdf9ed6020526040812054909190600080516020610d868339815191529060ff1615610a5f578083526001602052604083208284526020526040832060ff198154169055600080516020610da6833981519152339380a4600190565b6001600160a01b031660008181527fa6eef7e35abe7026729641147f7915573c7e97b47efa546f5f6e3230263bcb49602052604081205490919060ff16156109d1578180526001602052604082208183526020526040822060ff1981541690553391600080516020610da68339815191528180a4600190565b906000918083526001602052604083209160018060a01b03169182845260205260ff604084205416600014610a5f578083526001602052604083208284526020526040832060ff198154169055600080516020610da6833981519152339380a460019056fe2f8788117e7eff1d82e926ec794901d17c78024a50270940304540a733656f0df0887ba65ee2024ea881d91b74c2450ef19e1557f03bed3ea9f16b037cbe2dc9523a704056dcd17bcf83bed8b68c59416dac1119be77755efe3bde0a64e46e0cf6391f5c32d9c69d2a47ea670b442974b53935d1edc7fd64eb21e047a839171ba2646970667358221220266ed26a965077176ea36aa9b70a759bf0fe3a060a61480b481a8921c4a7ec3c64736f6c63430008190033",
  "linkReferences": {},
  "deployedLinkReferences": {}
}