{
  "_format": "hh-sol-artifact-1",
  "contractName": "WstonSwapPoolProxyV2",
  "sourceName": "src/L2/WstonSwapPoolProxyV2.sol",
  "abi": [
    {
      "inputs": [],
      "name": "AccessControlBadConfirmation",
      "type": "error"
    },
    {
      "inputs": [
        {
          "internalType": "address",
          "name": "account",
          "type": "address"
        },
        {
          "internalType": "bytes32",
          "name": "neededRole",
          "type": "bytes32"
        }
      ],
      "name": "AccessControlUnauthorizedAccount",
      "type": "error"
    },
    {
      "inputs": [],
      "name": "ContractTonBalanceOrAllowanceTooLow",
      "type": "error"
    },
    {
      "inputs": [
        {
          "internalType": "uint256",
          "name": "amount",
          "type": "uint256"
        }
      ],
      "name": "FailedToApproveTon",
      "type": "error"
    },
    {
      "inputs": [],
      "name": "SameAdmin",
      "type": "error"
    },
    {
      "inputs": [],
      "name": "WrongStakingIndex",
      "type": "error"
    },
    {
      "inputs": [],
      "name": "WstonAllowanceTooLow",
      "type": "error"
    },
    {
      "inputs": [],
      "name": "WstonBalanceTooLow",
      "type": "error"
    },
    {
      "inputs": [],
      "name": "ZeroAddress",
      "type": "error"
    },
    {
      "anonymous": false,
      "inputs": [
        {
          "indexed": true,
          "internalType": "bytes32",
          "name": "role",
          "type": "bytes32"
        },
        {
          "indexed": true,
          "internalType": "bytes32",
          "name": "previousAdminRole",
          "type": "bytes32"
        },
        {
          "indexed": true,
          "internalType": "bytes32",
          "name": "newAdminRole",
          "type": "bytes32"
        }
      ],
      "name": "RoleAdminChanged",
      "type": "event"
    },
    {
      "anonymous": false,
      "inputs": [
        {
          "indexed": true,
          "internalType": "bytes32",
          "name": "role",
          "type": "bytes32"
        },
        {
          "indexed": true,
          "internalType": "address",
          "name": "account",
          "type": "address"
        },
        {
          "indexed": true,
          "internalType": "address",
          "name": "sender",
          "type": "address"
        }
      ],
      "name": "RoleGranted",
      "type": "event"
    },
    {
      "anonymous": false,
      "inputs": [
        {
          "indexed": true,
          "internalType": "bytes32",
          "name": "role",
          "type": "bytes32"
        },
        {
          "indexed": true,
          "internalType": "address",
          "name": "account",
          "type": "address"
        },
        {
          "indexed": true,
          "internalType": "address",
          "name": "sender",
          "type": "address"
        }
      ],
      "name": "RoleRevoked",
      "type": "event"
    },
    {
      "anonymous": false,
      "inputs": [
        {
          "indexed": true,
          "internalType": "address",
          "name": "impl",
          "type": "address"
        },
        {
          "indexed": false,
          "internalType": "bool",
          "name": "alive",
          "type": "bool"
        }
      ],
      "name": "SetAliveImplementation",
      "type": "event"
    },
    {
      "anonymous": false,
      "inputs": [
        {
          "indexed": true,
          "internalType": "bytes4",
          "name": "selector",
          "type": "bytes4"
        },
        {
          "indexed": true,
          "internalType": "address",
          "name": "impl",
          "type": "address"
        }
      ],
      "name": "SetSelectorImplementation",
      "type": "event"
    },
    {
      "anonymous": false,
      "inputs": [
        {
          "indexed": false,
          "internalType": "uint256",
          "name": "newIndex",
          "type": "uint256"
        }
      ],
      "name": "StakingIndexUpdated",
      "type": "event"
    },
    {
      "anonymous": false,
      "inputs": [
        {
          "indexed": true,
          "internalType": "address",
          "name": "user",
          "type": "address"
        },
        {
          "indexed": false,
          "internalType": "uint256",
          "name": "tonAmount",
          "type": "uint256"
        },
        {
          "indexed": false,
          "internalType": "uint256",
          "name": "wstonAmount",
          "type": "uint256"
        }
      ],
      "name": "SwappedWstonForTon",
      "type": "event"
    },
    {
      "anonymous": false,
      "inputs": [
        {
          "indexed": true,
          "internalType": "address",
          "name": "implementation",
          "type": "address"
        }
      ],
      "name": "Upgraded",
      "type": "event"
    },
    {
      "stateMutability": "payable",
      "type": "fallback"
    },
    {
      "inputs": [],
      "name": "ADMIN_ROLE",
      "outputs": [
        {
          "internalType": "bytes32",
          "name": "",
          "type": "bytes32"
        }
      ],
      "stateMutability": "view",
      "type": "function"
    },
    {
      "inputs": [],
      "name": "DECIMALS",
      "outputs": [
        {
          "internalType": "uint256",
          "name": "",
          "type": "uint256"
        }
      ],
      "stateMutability": "view",
      "type": "function"
    },
    {
      "inputs": [],
      "name": "DEFAULT_ADMIN_ROLE",
      "outputs": [
        {
          "internalType": "bytes32",
          "name": "",
          "type": "bytes32"
        }
      ],
      "stateMutability": "view",
      "type": "function"
    },
    {
      "inputs": [],
      "name": "PAUSE_ROLE",
      "outputs": [
        {
          "internalType": "bytes32",
          "name": "",
          "type": "bytes32"
        }
      ],
      "stateMutability": "view",
      "type": "function"
    },
    {
      "inputs": [
        {
          "internalType": "address",
          "name": "account",
          "type": "address"
        }
      ],
      "name": "addAdmin",
      "outputs": [],
      "stateMutability": "nonpayable",
      "type": "function"
    },
    {
      "inputs": [
        {
          "internalType": "address",
          "name": "account",
          "type": "address"
        }
      ],
      "name": "addPauser",
      "outputs": [],
      "stateMutability": "nonpayable",
      "type": "function"
    },
    {
      "inputs": [
        {
          "internalType": "address",
          "name": "",
          "type": "address"
        }
      ],
      "name": "aliveImplementation",
      "outputs": [
        {
          "internalType": "bool",
          "name": "",
          "type": "bool"
        }
      ],
      "stateMutability": "view",
      "type": "function"
    },
    {
      "inputs": [
        {
          "internalType": "bytes32",
          "name": "role",
          "type": "bytes32"
        }
      ],
      "name": "getRoleAdmin",
      "outputs": [
        {
          "internalType": "bytes32",
          "name": "",
          "type": "bytes32"
        }
      ],
      "stateMutability": "view",
      "type": "function"
    },
    {
      "inputs": [
        {
          "internalType": "bytes4",
          "name": "_selector",
          "type": "bytes4"
        }
      ],
      "name": "getSelectorImplementation2",
      "outputs": [
        {
          "internalType": "address",
          "name": "impl",
          "type": "address"
        }
      ],
      "stateMutability": "view",
      "type": "function"
    },
    {
      "inputs": [
        {
          "internalType": "bytes32",
          "name": "role",
          "type": "bytes32"
        },
        {
          "internalType": "address",
          "name": "account",
          "type": "address"
        }
      ],
      "name": "grantRole",
      "outputs": [],
      "stateMutability": "nonpayable",
      "type": "function"
    },
    {
      "inputs": [
        {
          "internalType": "bytes32",
          "name": "role",
          "type": "bytes32"
        },
        {
          "internalType": "address",
          "name": "account",
          "type": "address"
        }
      ],
      "name": "hasRole",
      "outputs": [
        {
          "internalType": "bool",
          "name": "",
          "type": "bool"
        }
      ],
      "stateMutability": "view",
      "type": "function"
    },
    {
      "inputs": [],
      "name": "implementation",
      "outputs": [
        {
          "internalType": "address",
          "name": "",
          "type": "address"
        }
      ],
      "stateMutability": "view",
      "type": "function"
    },
    {
      "inputs": [
        {
          "internalType": "uint256",
          "name": "_index",
          "type": "uint256"
        }
      ],
      "name": "implementation2",
      "outputs": [
        {
          "internalType": "address",
          "name": "",
          "type": "address"
        }
      ],
      "stateMutability": "view",
      "type": "function"
    },
    {
      "inputs": [
        {
          "internalType": "address",
          "name": "account",
          "type": "address"
        }
      ],
      "name": "isAdmin",
      "outputs": [
        {
          "internalType": "bool",
          "name": "",
          "type": "bool"
        }
      ],
      "stateMutability": "view",
      "type": "function"
    },
    {
      "inputs": [],
      "name": "isOwner",
      "outputs": [
        {
          "internalType": "bool",
          "name": "",
          "type": "bool"
        }
      ],
      "stateMutability": "view",
      "type": "function"
    },
    {
      "inputs": [],
      "name": "pauseProxy",
      "outputs": [
        {
          "internalType": "bool",
          "name": "",
          "type": "bool"
        }
      ],
      "stateMutability": "view",
      "type": "function"
    },
    {
      "inputs": [],
      "name": "paused",
      "outputs": [
        {
          "internalType": "bool",
          "name": "",
          "type": "bool"
        }
      ],
      "stateMutability": "view",
      "type": "function"
    },
    {
      "inputs": [
        {
          "internalType": "uint256",
          "name": "",
          "type": "uint256"
        }
      ],
      "name": "proxyImplementation",
      "outputs": [
        {
          "internalType": "address",
          "name": "",
          "type": "address"
        }
      ],
      "stateMutability": "view",
      "type": "function"
    },
    {
      "inputs": [
        {
          "internalType": "address",
          "name": "account",
          "type": "address"
        }
      ],
      "name": "removeAdmin",
      "outputs": [],
      "stateMutability": "nonpayable",
      "type": "function"
    },
    {
      "inputs": [
        {
          "internalType": "address",
          "name": "account",
          "type": "address"
        }
      ],
      "name": "removePauser",
      "outputs": [],
      "stateMutability": "nonpayable",
      "type": "function"
    },
    {
      "inputs": [],
      "name": "renounceOwnership",
      "outputs": [],
      "stateMutability": "nonpayable",
      "type": "function"
    },
    {
      "inputs": [
        {
          "internalType": "bytes32",
          "name": "role",
          "type": "bytes32"
        },
        {
          "internalType": "address",
          "name": "callerConfirmation",
          "type": "address"
        }
      ],
      "name": "renounceRole",
      "outputs": [],
      "stateMutability": "nonpayable",
      "type": "function"
    },
    {
      "inputs": [
        {
          "internalType": "bytes32",
          "name": "role",
          "type": "bytes32"
        },
        {
          "internalType": "address",
          "name": "account",
          "type": "address"
        }
      ],
      "name": "revokeRole",
      "outputs": [],
      "stateMutability": "nonpayable",
      "type": "function"
    },
    {
      "inputs": [
        {
          "internalType": "bytes4",
          "name": "",
          "type": "bytes4"
        }
      ],
      "name": "selectorImplementation",
      "outputs": [
        {
          "internalType": "address",
          "name": "",
          "type": "address"
        }
      ],
      "stateMutability": "view",
      "type": "function"
    },
    {
      "inputs": [
        {
          "internalType": "address",
          "name": "newImplementation",
          "type": "address"
        },
        {
          "internalType": "bool",
          "name": "_alive",
          "type": "bool"
        }
      ],
      "name": "setAliveImplementation2",
      "outputs": [],
      "stateMutability": "nonpayable",
      "type": "function"
    },
    {
      "inputs": [
        {
          "internalType": "address",
          "name": "newImplementation",
          "type": "address"
        },
        {
          "internalType": "uint256",
          "name": "_index",
          "type": "uint256"
        },
        {
          "internalType": "bool",
          "name": "_alive",
          "type": "bool"
        }
      ],
      "name": "setImplementation2",
      "outputs": [],
      "stateMutability": "nonpayable",
      "type": "function"
    },
    {
      "inputs": [
        {
          "internalType": "bool",
          "name": "_pause",
          "type": "bool"
        }
      ],
      "name": "setProxyPause",
      "outputs": [],
      "stateMutability": "nonpayable",
      "type": "function"
    },
    {
      "inputs": [
        {
          "internalType": "bytes4[]",
          "name": "_selectors",
          "type": "bytes4[]"
        },
        {
          "internalType": "address",
          "name": "_imp",
          "type": "address"
        }
      ],
      "name": "setSelectorImplementations2",
      "outputs": [],
      "stateMutability": "nonpayable",
      "type": "function"
    },
    {
      "inputs": [],
      "name": "stakingIndex",
      "outputs": [
        {
          "internalType": "uint256",
          "name": "",
          "type": "uint256"
        }
      ],
      "stateMutability": "view",
      "type": "function"
    },
    {
      "inputs": [
        {
          "internalType": "bytes4",
          "name": "interfaceId",
          "type": "bytes4"
        }
      ],
      "name": "supportsInterface",
      "outputs": [
        {
          "internalType": "bool",
          "name": "",
          "type": "bool"
        }
      ],
      "stateMutability": "view",
      "type": "function"
    },
    {
      "inputs": [],
      "name": "ton",
      "outputs": [
        {
          "internalType": "address",
          "name": "",
          "type": "address"
        }
      ],
      "stateMutability": "view",
      "type": "function"
    },
    {
      "inputs": [
        {
          "internalType": "address",
          "name": "newAdmin",
          "type": "address"
        }
      ],
      "name": "transferAdmin",
      "outputs": [],
      "stateMutability": "nonpayable",
      "type": "function"
    },
    {
      "inputs": [
        {
          "internalType": "address",
          "name": "newAdmin",
          "type": "address"
        }
      ],
      "name": "transferOwnership",
      "outputs": [],
      "stateMutability": "nonpayable",
      "type": "function"
    },
    {
      "inputs": [],
      "name": "treasury",
      "outputs": [
        {
          "internalType": "address",
          "name": "",
          "type": "address"
        }
      ],
      "stateMutability": "view",
      "type": "function"
    },
    {
      "inputs": [
        {
          "internalType": "address",
          "name": "impl",
          "type": "address"
        }
      ],
      "name": "upgradeTo",
      "outputs": [],
      "stateMutability": "nonpayable",
      "type": "function"
    },
    {
      "inputs": [],
      "name": "wston",
      "outputs": [
        {
          "internalType": "address",
          "name": "",
          "type": "address"
        }
      ],
      "stateMutability": "view",
      "type": "function"
    },
    {
      "stateMutability": "payable",
      "type": "receive"
    }
  ],
  "bytecode": "0x608060405234605b576301ffc9a760e01b60005260046020527f9fe05126d2d9ecf60592e254dead906a4b2e492f36cca727682c38e9008c6ac1805460ff19166001179055604b336060565b506040516114da90816100f18239f35b600080fd5b6001600160a01b031660008181527f05b8ccbb9d4d8fb16ea74ce3c29a41f1b461fbdaff4714a0d9a8eb05499746bc602052604081205490919060ff1660ec5781805260056020526040822081835260205260408220600160ff1982541617905533917f2f8788117e7eff1d82e926ec794901d17c78024a50270940304540a733656f0d8180a4600190565b509056fe60806040526004361015610018575b3661138957610fa3565b60003560e01c806301ffc9a7146102535780631785f53c1461024e578063248a9ca31461024957806324d7806c146102445780632e0f26251461023f5780632f2ff15d1461023a57806330f508591461023557806336568abe146102305780633659cfe61461022b57806336b17e1314610226578063389ed267146102215780634a5df50f1461021c57806350d2a27614610217578063550d01a3146102125780635c60da1b1461020d5780635c975abb146102085780635cc797d81461020357806361d027b3146101fe57806363a8fd89146101f95780636b2c0f55146101f457806370480275146101ef578063715018a6146101ea57806375829def146101e557806375b238fc146101e05780637cb00d25146101db5780637cd5f663146101d657806382dc1ec4146101d15780638b8f4a65146101b85780638d4fdb40146101cc5780638f32d59b146101c757806391d14854146101c2578063a217fddf146101bd578063b911135f146101b8578063cc48b947146101b3578063d547741f146101ae5763f2fde38b0361000e57610d28565b610ce9565b610cc0565b610be8565b610ca4565b610c70565b610c55565b610c1c565b610b12565b610a75565b610a39565b610a10565b610961565b61093c565b6108ce565b610891565b61086e565b610845565b61080c565b6107e6565b6107b2565b610773565b6106fc565b610561565b610538565b61050f565b610445565b6103fe565b6103e0565b6103a1565b61037a565b61032e565b6102ff565b6102cc565b61026f565b6001600160e01b031981160361026a57565b600080fd5b3461026a57602036600319011261026a57602061029660043561029181610258565b610fdf565b6040519015158152f35b600435906001600160a01b038216820361026a57565b602435906001600160a01b038216820361026a57565b3461026a57602036600319011261026a576102fd6102e86102a0565b6102f86102f3610f6e565b610d4c565b610da4565b005b3461026a57602036600319011261026a5760043560005260056020526020600160406000200154604051908152f35b3461026a57602036600319011261026a57602060ff61036e61034e6102a0565b60008051602061146583398151915260005260058452604060002061075c565b54166040519015158152f35b3461026a57600036600319011261026a57604051676765c793fa10079d601b1b8152602090f35b3461026a57604036600319011261026a576102fd6004356103c06102b6565b908060005260056020526103db600160406000200154611008565b611124565b3461026a57600036600319011261026a576020600954604051908152f35b3461026a57604036600319011261026a576104176102b6565b336001600160a01b03821603610433576102fd906004356112a5565b60405163334bd91960e11b8152600490fd5b3461026a57602036600319011261026a5761045e6102a0565b6104696102f3610f6e565b6001600160a01b03811680156104da57600080805260016020526000805160206114258339815191525490926104b3916104ae906001600160a01b0316841415610dc0565b6112bf565b7fbc7cd75a20ee27fd9adebab32041f755214dbc6bffa90cc0225b39da2e5c2d3b8280a280f35b60405162461bcd60e51b815260206004820152600d60248201526c696e707574206973207a65726f60981b6044820152606490fd5b3461026a57600036600319011261026a576007546040516001600160a01b039091168152602090f35b3461026a57600036600319011261026a5760206040516000805160206114458339815191528152f35b3461026a57604036600319011261026a5760043567ffffffffffffffff80821161026a573660238301121561026a57816004013590811161026a576024820191602436918360051b01011161026a576105b86102b6565b916105c46102f3610f6e565b811561069f57906105e66105e16105da85610742565b5460ff1690565b610df8565b6001600160a01b0391838316919060005b82811061060057005b8061063b858761063361062661062161061c6001988b8b610e3f565b610e65565b6106e3565b546001600160a01b031690565b161415610e72565b6106558761065061062161061c858989610e3f565b610ebe565b8461067461066761061c848888610e3f565b6001600160e01b03191690565b7f14ebc1c32aa68f4d766e89f3e546cee249f7df25183fc10ab1568d91c2ce9b7b600080a3016105f7565b606460405162461bcd60e51b815260206004820152602060248201527f50726f78793a205f73656c6563746f727327732073697a65206973207a65726f6044820152fd5b63ffffffff60e01b166000526003602052604060002090565b3461026a57602036600319011261026a5760043561071981610258565b63ffffffff60e01b166000526003602052602060018060a01b0360406000205416604051908152f35b6001600160a01b0316600090815260026020526040902090565b9060018060a01b0316600052602052604060002090565b3461026a57602036600319011261026a576001600160a01b036107946102a0565b166000526002602052602060ff604060002054166040519015158152f35b3461026a576000806003193601126107e35780806020925260018252604060018060a01b0391205416604051908152f35b80fd5b3461026a57600036600319011261026a57602060ff600a5460081c166040519015158152f35b3461026a57604036600319011261026a576108256102a0565b602435801515810361026a576102fd916108406102f3610f6e565b611335565b3461026a57600036600319011261026a576008546040516001600160a01b039091168152602090f35b3461026a57600036600319011261026a57602060ff600054166040519015158152f35b3461026a57602036600319011261026a576108aa6102a0565b6108b56102f3610f6e565b336001600160a01b03821603610433576102fd9061113e565b3461026a57602036600319011261026a576102fd6108ea6102a0565b6108f56102f3610f6e565b60008051602061146583398151915260005260056020527f09f04f5809d5be59813a33617d16f069caae874a6b34f03139f63d934daddae75461093790611008565b611049565b3461026a57600036600319011261026a576109586102f3610f6e565b6102fd336111dd565b3461026a57602036600319011261026a5761097a6102a0565b6109856102f3610f6e565b6001600160a01b03811680156109fe5733146109ec5760008051602061146583398151915260005260056020527f09f04f5809d5be59813a33617d16f069caae874a6b34f03139f63d934daddae7546109e2919061093790611008565b506102fd33610da4565b6040516309cd70b960e21b8152600490fd5b60405163d92e233d60e01b8152600490fd5b3461026a57600036600319011261026a5760206040516000805160206114658339815191528152f35b3461026a57602036600319011261026a5760043580151580910361026a57610a626102f3610f6e565b60ff801960005416911617600055600080f35b3461026a57606036600319011261026a57610a8e6102a0565b604435801515810361026a57610aa56102f3610f6e565b813b15610acf576102fd918115611335576024356000526001602052610840816040600020610ebe565b60405162461bcd60e51b815260206004820152601b60248201527a50726f78793a206e6f7420636f6e7472616374206164647265737360281b6044820152606490fd5b3461026a57602036600319011261026a57610b2b6102a0565b600080516020611465833981519152600090815260056020529060ff610b5f3360008051602061148583398151915261075c565b54168015610bda575b15610ba057610b9c9060008051602061144583398151915283526005602052610b976001604085200154611008565b6110de565b5080f35b60405162461bcd60e51b81526020600482015260126024820152713737ba1027bbb732b91037b91020b236b4b760711b6044820152606490fd5b50610be3610f6e565b610b68565b3461026a57602036600319011261026a576004356000526001602052602060018060a01b0360406000205416604051908152f35b3461026a57602036600319011261026a576020610c43600435610c3e81610258565b610edd565b6040516001600160a01b039091168152f35b3461026a57600036600319011261026a576020610296610f6e565b3461026a57604036600319011261026a57602060ff61036e610c906102b6565b60043560005260058452604060002061075c565b3461026a57600036600319011261026a57602060405160008152f35b3461026a57600036600319011261026a576006546040516001600160a01b039091168152602090f35b3461026a57604036600319011261026a576102fd600435610d086102b6565b90806000526005602052610d23600160406000200154611008565b6112a5565b3461026a57602036600319011261026a57610d416102a0565b61097a6102f3610f6e565b15610d5357565b60405162461bcd60e51b8152602060048201526024808201527f41757468436f6e74726f6c3a2043616c6c6572206973206e6f7420746865206f6044820152633bb732b960e11b6064820152608490fd5b336001600160a01b0382160361043357610dbd90611271565b50565b15610dc757565b60405162461bcd60e51b815260206004820152600960248201526839b0b6b29030b2323960b91b6044820152606490fd5b15610dff57565b60405162461bcd60e51b815260206004820152601860248201527750726f78793a205f696d70206973206e6f7420616c69766560401b6044820152606490fd5b9190811015610e4f5760051b0190565b634e487b7160e01b600052603260045260246000fd5b35610e6f81610258565b90565b15610e7957565b60405162461bcd60e51b815260206004820152601d60248201527f4c69717569646974795661756c7450726f78793a2073616d6520696d700000006044820152606490fd5b80546001600160a01b0319166001600160a01b03909216919091179055565b6001600160e01b031981166000908152600360205260409020546001600160a01b0391908216610f2a5750600080526001602052600080516020611425833981519152541690565b541690565b60ff610f4083610f39846106e3565b5416610742565b541615610f5057610f25906106e3565b50600080526001602052600080516020611425833981519152541690565b60008052600560205260ff610f25337f05b8ccbb9d4d8fb16ea74ce3c29a41f1b461fbdaff4714a0d9a8eb05499746bc61075c565b60405162461bcd60e51b815260206004820152601460248201527331b0b73737ba103932b1b2b4bb329022ba3432b960611b6044820152606490fd5b6001600160e01b03198116637965db0b60e01b14908115610ffe575090565b610e6f9150610fdf565b80600052600560205260ff61102133604060002061075c565b54161561102b5750565b6044906040519063e2517d3f60e01b82523360048301526024820152fd5b600080516020611465833981519152600081815260056020529060ff61107d8460008051602061148583398151915261075c565b54166110d8578082526005602052611098836040842061075c565b805460ff1916600117905533926001600160a01b0316917f2f8788117e7eff1d82e926ec794901d17c78024a50270940304540a733656f0d9080a4600190565b50905090565b600080516020611445833981519152600081815260056020529060ff61107d847f787f97f3270d439d97068e73d6d75a066b24f84c342661f177d4e43e00e9f51361075c565b600090808252600560205260ff61107d846040852061075c565b600080516020611445833981519152600081815260056020529060ff611184847f787f97f3270d439d97068e73d6d75a066b24f84c342661f177d4e43e00e9f51361075c565b5416156110d85780825260056020526111a0836040842061075c565b805460ff1916905533926001600160a01b0316917ff6391f5c32d9c69d2a47ea670b442974b53935d1edc7fd64eb21e047a839171b9080a4600190565b6000808052600560205260ff611213837f05b8ccbb9d4d8fb16ea74ce3c29a41f1b461fbdaff4714a0d9a8eb05499746bc61075c565b54161561126c57808052600560205261122f826040832061075c565b805460ff1916905533916001600160a01b0316907ff6391f5c32d9c69d2a47ea670b442974b53935d1edc7fd64eb21e047a839171b8180a4600190565b905090565b600080516020611465833981519152600081815260056020529060ff6111848460008051602061148583398151915261075c565b600090808252600560205260ff611184846040852061075c565b803b15610acf576000805260016020526112e781600080516020611425833981519152610ebe565b60018060a01b03168060005260026020526040600020600160ff198254161790557f72558d9bfba4210f9ef095c782589484151f6d90f7a81bb3cb9b33efc695d324602060405160018152a2565b60207f72558d9bfba4210f9ef095c782589484151f6d90f7a81bb3cb9b33efc695d3249160018060a01b031692836000526002825260406000209015159060ff1981541660ff8316179055604051908152a2565b600061139f81356001600160e01b031916610edd565b6001600160a01b038116151580611418575b156113d357818091368280378136915af43d82803e156113cf573d90f35b3d90fd5b60405162461bcd60e51b815260206004820152601d60248201527f50726f78793a20696d706c204f522070726f78792069732066616c73650000006044820152606490fd5b5060ff825416156113b156fea6eef7e35abe7026729641147f7915573c7e97b47efa546f5f6e3230263bcb49fcb9fcbfa83b897fb2d5cf4b58962164105c1e71489a37ef3ae0db3fdce576f6df8b4c520ffe197c5343c6f5aec59570151ef9a492f2c624fd45ddde6135ec4209f04f5809d5be59813a33617d16f069caae874a6b34f03139f63d934daddae6a2646970667358221220f6af39c3ef01ea50e7aac2e3b3bd1c299d0a666e887a0225bf00a36291e2175f64736f6c63430008190033",
  "linkReferences": {},
  "deployedLinkReferences": {}
}