{
  "_format": "hh-sol-artifact-1",
  "contractName": "RefactorCoinageSnapshotStorage",
  "sourceName": "src/L1/Mock/proxy/RefactorCoinageSnapshotStorage.sol",
  "abi": [
    {
      "inputs": [],
      "name": "REFACTOR_BOUNDARY",
      "outputs": [
        {
          "internalType": "uint256",
          "name": "",
          "type": "uint256"
        }
      ],
      "stateMutability": "view",
      "type": "function"
    },
    {
      "inputs": [],
      "name": "REFACTOR_DIVIDER",
      "outputs": [
        {
          "internalType": "uint256",
          "name": "",
          "type": "uint256"
        }
      ],
      "stateMutability": "view",
      "type": "function"
    },
    {
      "inputs": [
        {
          "internalType": "address",
          "name": "",
          "type": "address"
        },
        {
          "internalType": "address",
          "name": "",
          "type": "address"
        }
      ],
      "name": "_allowances",
      "outputs": [
        {
          "internalType": "uint256",
          "name": "",
          "type": "uint256"
        }
      ],
      "stateMutability": "view",
      "type": "function"
    },
    {
      "inputs": [
        {
          "internalType": "address",
          "name": "",
          "type": "address"
        },
        {
          "internalType": "uint256",
          "name": "",
          "type": "uint256"
        }
      ],
      "name": "accountBalanceIds",
      "outputs": [
        {
          "internalType": "uint256",
          "name": "",
          "type": "uint256"
        }
      ],
      "stateMutability": "view",
      "type": "function"
    },
    {
      "inputs": [
        {
          "internalType": "address",
          "name": "",
          "type": "address"
        },
        {
          "internalType": "uint256",
          "name": "",
          "type": "uint256"
        }
      ],
      "name": "accountBalanceSnapshots",
      "outputs": [
        {
          "internalType": "uint256",
          "name": "balance",
          "type": "uint256"
        },
        {
          "internalType": "uint256",
          "name": "refactoredCount",
          "type": "uint256"
        }
      ],
      "stateMutability": "view",
      "type": "function"
    },
    {
      "inputs": [
        {
          "internalType": "uint256",
          "name": "",
          "type": "uint256"
        }
      ],
      "name": "factorSnapshotIds",
      "outputs": [
        {
          "internalType": "uint256",
          "name": "",
          "type": "uint256"
        }
      ],
      "stateMutability": "view",
      "type": "function"
    },
    {
      "inputs": [
        {
          "internalType": "uint256",
          "name": "",
          "type": "uint256"
        }
      ],
      "name": "factorSnapshots",
      "outputs": [
        {
          "internalType": "uint256",
          "name": "factor",
          "type": "uint256"
        },
        {
          "internalType": "uint256",
          "name": "refactorCount",
          "type": "uint256"
        }
      ],
      "stateMutability": "view",
      "type": "function"
    },
    {
      "inputs": [],
      "name": "lastSnapshotId",
      "outputs": [
        {
          "internalType": "uint256",
          "name": "",
          "type": "uint256"
        }
      ],
      "stateMutability": "view",
      "type": "function"
    },
    {
      "inputs": [],
      "name": "name",
      "outputs": [
        {
          "internalType": "string",
          "name": "",
          "type": "string"
        }
      ],
      "stateMutability": "view",
      "type": "function"
    },
    {
      "inputs": [],
      "name": "seigManager",
      "outputs": [
        {
          "internalType": "address",
          "name": "",
          "type": "address"
        }
      ],
      "stateMutability": "view",
      "type": "function"
    },
    {
      "inputs": [],
      "name": "symbol",
      "outputs": [
        {
          "internalType": "string",
          "name": "",
          "type": "string"
        }
      ],
      "stateMutability": "view",
      "type": "function"
    },
    {
      "inputs": [
        {
          "internalType": "uint256",
          "name": "",
          "type": "uint256"
        }
      ],
      "name": "totalSupplySnapshotIds",
      "outputs": [
        {
          "internalType": "uint256",
          "name": "",
          "type": "uint256"
        }
      ],
      "stateMutability": "view",
      "type": "function"
    },
    {
      "inputs": [
        {
          "internalType": "uint256",
          "name": "",
          "type": "uint256"
        }
      ],
      "name": "totalSupplySnapshots",
      "outputs": [
        {
          "internalType": "uint256",
          "name": "balance",
          "type": "uint256"
        },
        {
          "internalType": "uint256",
          "name": "refactoredCount",
          "type": "uint256"
        }
      ],
      "stateMutability": "view",
      "type": "function"
    }
  ],
  "bytecode": "0x60808060405234601557610550908161001b8239f35b600080fdfe6080604081815260048036101561001557600080fd5b600092833560e01c908162d87a9c1461049b57508063024c2ddd146104475780630461fdc5146103fb57806306fdde031461033c57806356fabf681461030d5780635deaecec146102dc578063614db8b2146102ad57806369f499b11461025d5780636fb7f55814610235578063837afbc01461021657806395d89b4114610110578063b7c246d7146100e55763b7d78b1a146100b157600080fd5b346100e15760203660031901126100e1579181923581526005602052206001815491015482519182526020820152f35b8280fd5b50503461010c578160031936011261010c57602090516b204fce5e3e250261100000008152f35b5080fd5b5091903461010c578160031936011261010c578051908260025460018160011c906001831692831561020c575b60209384841081146101f9578388529081156101dd57506001146101a4575b505050829003601f01601f19168201926001600160401b03841183851017610191575082918261018d9252826104d1565b0390f35b634e487b7160e01b815260418552602490fd5b91925060028652828620918387935b8385106101c9575050505083010138808061015c565b8054888601830152930192849082016101b3565b60ff1916878501525050151560051b840101905038808061015c565b634e487b7160e01b895260228a52602489fd5b91607f169161013d565b50503461010c578160031936011261010c57602090600a549051908152f35b50503461010c578160031936011261010c57905490516001600160a01b039091168152602090f35b50503461010c578060031936011261010c576102776104b6565b6001600160a01b031682526008602052808220805460243591908210156102a957835260209283902001549051908152f35b8380fd5b50346100e15760203660031901126100e15780359080548210156102a957835260209283902001549051908152f35b50346100e15760203660031901126100e1579181923581526007602052206001815491015482519182526020820152f35b50346100e15760203660031901126100e157356006548110156100e15760208360068295522001549051908152f35b5091903461010c578160031936011261010c578051908260018054908160011c90600183169283156103f1575b60209384841081146101f9578388529081156101dd57506001146103b857505050829003601f01601f19168201926001600160401b03841183851017610191575082918261018d9252826104d1565b91925060018652828620918387935b8385106103dd575050505083010138808061015c565b8054888601830152930192849082016103c7565b91607f1691610369565b50503461010c578060031936011261010c579081906001600160a01b036104206104b6565b16815260096020528181206024358252602052206001815491015482519182526020820152f35b50503461010c578060031936011261010c576104616104b6565b6001600160a01b036024358181169290839003610497579160209491849316825260038552828220908252845220549051908152f35b8480fd5b84903461010c578160031936011261010c5780600260209252f35b600435906001600160a01b03821682036104cc57565b600080fd5b6020808252825181830181905290939260005b82811061050657505060409293506000838284010152601f8019910116010190565b8181018601518482016040015285016104e456fea26469706673582212206399bfc6f0f4830517673f601c65154c4040c7637b2ee6ed5c086c40e107366964736f6c63430008190033",
  "linkReferences": {},
  "deployedLinkReferences": {}
}