{
  "_format": "hh-sol-artifact-1",
  "contractName": "GemFactoryProxy",
  "sourceName": "src/L2/GemFactoryProxy.sol",
  "abi": [
    {
      "inputs": [],
      "name": "AccessControlBadConfirmation",
      "type": "error"
    },
    {
      "inputs": [
        {
          "internalType": "address",
          "name": "account",
          "type": "address"
        },
        {
          "internalType": "bytes32",
          "name": "neededRole",
          "type": "bytes32"
        }
      ],
      "name": "AccessControlUnauthorizedAccount",
      "type": "error"
    },
    {
      "anonymous": false,
      "inputs": [
        {
          "indexed": true,
          "internalType": "uint8",
          "name": "id",
          "type": "uint8"
        },
        {
          "indexed": false,
          "internalType": "string",
          "name": "backgroundColor",
          "type": "string"
        }
      ],
      "name": "BackgroundColorAdded",
      "type": "event"
    },
    {
      "anonymous": false,
      "inputs": [
        {
          "indexed": true,
          "internalType": "uint8",
          "name": "id",
          "type": "uint8"
        },
        {
          "indexed": false,
          "internalType": "string",
          "name": "color",
          "type": "string"
        }
      ],
      "name": "ColorAdded",
      "type": "event"
    },
    {
      "anonymous": false,
      "inputs": [
        {
          "indexed": false,
          "internalType": "uint8",
          "name": "color_0",
          "type": "uint8"
        },
        {
          "indexed": false,
          "internalType": "uint8",
          "name": "color_1",
          "type": "uint8"
        }
      ],
      "name": "ColorValidated",
      "type": "event"
    },
    {
      "anonymous": false,
      "inputs": [
        {
          "indexed": true,
          "internalType": "uint256",
          "name": "tokenId",
          "type": "uint256"
        },
        {
          "indexed": false,
          "internalType": "enum GemFactoryStorage.Rarity",
          "name": "rarity",
          "type": "uint8"
        },
        {
          "indexed": false,
          "internalType": "uint8[2]",
          "name": "color",
          "type": "uint8[2]"
        },
        {
          "indexed": false,
          "internalType": "uint256",
          "name": "value",
          "type": "uint256"
        },
        {
          "indexed": false,
          "internalType": "uint8[4]",
          "name": "quadrants",
          "type": "uint8[4]"
        },
        {
          "indexed": false,
          "internalType": "uint256",
          "name": "miningPeriod",
          "type": "uint256"
        },
        {
          "indexed": false,
          "internalType": "uint256",
          "name": "cooldownPeriod",
          "type": "uint256"
        },
        {
          "indexed": false,
          "internalType": "string",
          "name": "tokenURI",
          "type": "string"
        },
        {
          "indexed": false,
          "internalType": "address",
          "name": "owner",
          "type": "address"
        }
      ],
      "name": "Created",
      "type": "event"
    },
    {
      "anonymous": false,
      "inputs": [
        {
          "indexed": false,
          "internalType": "address",
          "name": "gemOwner",
          "type": "address"
        },
        {
          "indexed": false,
          "internalType": "uint256[]",
          "name": "gemsTokenIds",
          "type": "uint256[]"
        },
        {
          "indexed": false,
          "internalType": "uint256",
          "name": "newGemCreatedId",
          "type": "uint256"
        },
        {
          "indexed": false,
          "internalType": "enum GemFactoryStorage.Rarity",
          "name": "newRarity",
          "type": "uint8"
        },
        {
          "indexed": false,
          "internalType": "uint8[4]",
          "name": "forgedQuadrants",
          "type": "uint8[4]"
        },
        {
          "indexed": false,
          "internalType": "uint8[2]",
          "name": "color",
          "type": "uint8[2]"
        },
        {
          "indexed": false,
          "internalType": "uint256",
          "name": "newValue",
          "type": "uint256"
        }
      ],
      "name": "GemForged",
      "type": "event"
    },
    {
      "anonymous": false,
      "inputs": [
        {
          "indexed": false,
          "internalType": "uint256",
          "name": "_tokenId",
          "type": "uint256"
        },
        {
          "indexed": false,
          "internalType": "address",
          "name": "_from",
          "type": "address"
        }
      ],
      "name": "GemMelted",
      "type": "event"
    },
    {
      "anonymous": false,
      "inputs": [
        {
          "indexed": false,
          "internalType": "uint256",
          "name": "tokenId",
          "type": "uint256"
        },
        {
          "indexed": false,
          "internalType": "address",
          "name": "miner",
          "type": "address"
        }
      ],
      "name": "GemMiningClaimed",
      "type": "event"
    },
    {
      "anonymous": false,
      "inputs": [
        {
          "indexed": false,
          "internalType": "uint256",
          "name": "tokenId",
          "type": "uint256"
        },
        {
          "indexed": false,
          "internalType": "address",
          "name": "miner",
          "type": "address"
        },
        {
          "indexed": false,
          "internalType": "uint256",
          "name": "startMiningTime",
          "type": "uint256"
        },
        {
          "indexed": false,
          "internalType": "uint256",
          "name": "newminingTry",
          "type": "uint256"
        }
      ],
      "name": "GemMiningStarted",
      "type": "event"
    },
    {
      "anonymous": false,
      "inputs": [
        {
          "indexed": false,
          "internalType": "uint256",
          "name": "tokenId",
          "type": "uint256"
        }
      ],
      "name": "NoGemAvailable",
      "type": "event"
    },
    {
      "anonymous": false,
      "inputs": [
        {
          "indexed": false,
          "internalType": "address",
          "name": "account",
          "type": "address"
        }
      ],
      "name": "Paused",
      "type": "event"
    },
    {
      "anonymous": false,
      "inputs": [
        {
          "indexed": false,
          "internalType": "uint256",
          "name": "chosenTokenId",
          "type": "uint256"
        },
        {
          "indexed": false,
          "internalType": "uint256",
          "name": "requestNumber",
          "type": "uint256"
        }
      ],
      "name": "RandomGemSelected",
      "type": "event"
    },
    {
      "anonymous": false,
      "inputs": [
        {
          "indexed": true,
          "internalType": "bytes32",
          "name": "role",
          "type": "bytes32"
        },
        {
          "indexed": true,
          "internalType": "bytes32",
          "name": "previousAdminRole",
          "type": "bytes32"
        },
        {
          "indexed": true,
          "internalType": "bytes32",
          "name": "newAdminRole",
          "type": "bytes32"
        }
      ],
      "name": "RoleAdminChanged",
      "type": "event"
    },
    {
      "anonymous": false,
      "inputs": [
        {
          "indexed": true,
          "internalType": "bytes32",
          "name": "role",
          "type": "bytes32"
        },
        {
          "indexed": true,
          "internalType": "address",
          "name": "account",
          "type": "address"
        },
        {
          "indexed": true,
          "internalType": "address",
          "name": "sender",
          "type": "address"
        }
      ],
      "name": "RoleGranted",
      "type": "event"
    },
    {
      "anonymous": false,
      "inputs": [
        {
          "indexed": true,
          "internalType": "bytes32",
          "name": "role",
          "type": "bytes32"
        },
        {
          "indexed": true,
          "internalType": "address",
          "name": "account",
          "type": "address"
        },
        {
          "indexed": true,
          "internalType": "address",
          "name": "sender",
          "type": "address"
        }
      ],
      "name": "RoleRevoked",
      "type": "event"
    },
    {
      "anonymous": false,
      "inputs": [
        {
          "indexed": true,
          "internalType": "address",
          "name": "impl",
          "type": "address"
        },
        {
          "indexed": false,
          "internalType": "bool",
          "name": "alive",
          "type": "bool"
        }
      ],
      "name": "SetAliveImplementation",
      "type": "event"
    },
    {
      "anonymous": false,
      "inputs": [
        {
          "indexed": true,
          "internalType": "bytes4",
          "name": "selector",
          "type": "bytes4"
        },
        {
          "indexed": true,
          "internalType": "address",
          "name": "impl",
          "type": "address"
        }
      ],
      "name": "SetSelectorImplementation",
      "type": "event"
    },
    {
      "anonymous": false,
      "inputs": [
        {
          "indexed": false,
          "internalType": "address",
          "name": "from",
          "type": "address"
        },
        {
          "indexed": false,
          "internalType": "address",
          "name": "to",
          "type": "address"
        },
        {
          "indexed": false,
          "internalType": "uint256",
          "name": "tokenId",
          "type": "uint256"
        }
      ],
      "name": "TransferGEM",
      "type": "event"
    },
    {
      "anonymous": false,
      "inputs": [
        {
          "indexed": false,
          "internalType": "address",
          "name": "account",
          "type": "address"
        }
      ],
      "name": "Unpaused",
      "type": "event"
    },
    {
      "anonymous": false,
      "inputs": [
        {
          "indexed": true,
          "internalType": "address",
          "name": "implementation",
          "type": "address"
        }
      ],
      "name": "Upgraded",
      "type": "event"
    },
    {
      "stateMutability": "payable",
      "type": "fallback"
    },
    {
      "inputs": [],
      "name": "ADMIN_ROLE",
      "outputs": [
        {
          "internalType": "bytes32",
          "name": "",
          "type": "bytes32"
        }
      ],
      "stateMutability": "view",
      "type": "function"
    },
    {
      "inputs": [],
      "name": "CALLBACK_GAS_LIMIT",
      "outputs": [
        {
          "internalType": "uint32",
          "name": "",
          "type": "uint32"
        }
      ],
      "stateMutability": "view",
      "type": "function"
    },
    {
      "inputs": [],
      "name": "CommonGemsCooldownPeriod",
      "outputs": [
        {
          "internalType": "uint256",
          "name": "",
          "type": "uint256"
        }
      ],
      "stateMutability": "view",
      "type": "function"
    },
    {
      "inputs": [],
      "name": "CommonGemsMiningPeriod",
      "outputs": [
        {
          "internalType": "uint256",
          "name": "",
          "type": "uint256"
        }
      ],
      "stateMutability": "view",
      "type": "function"
    },
    {
      "inputs": [],
      "name": "CommonGemsValue",
      "outputs": [
        {
          "internalType": "uint256",
          "name": "",
          "type": "uint256"
        }
      ],
      "stateMutability": "view",
      "type": "function"
    },
    {
      "inputs": [],
      "name": "CommonminingTry",
      "outputs": [
        {
          "internalType": "uint256",
          "name": "",
          "type": "uint256"
        }
      ],
      "stateMutability": "view",
      "type": "function"
    },
    {
      "inputs": [],
      "name": "DEFAULT_ADMIN_ROLE",
      "outputs": [
        {
          "internalType": "bytes32",
          "name": "",
          "type": "bytes32"
        }
      ],
      "stateMutability": "view",
      "type": "function"
    },
    {
      "inputs": [],
      "name": "EpicGemsCooldownPeriod",
      "outputs": [
        {
          "internalType": "uint256",
          "name": "",
          "type": "uint256"
        }
      ],
      "stateMutability": "view",
      "type": "function"
    },
    {
      "inputs": [],
      "name": "EpicGemsMiningPeriod",
      "outputs": [
        {
          "internalType": "uint256",
          "name": "",
          "type": "uint256"
        }
      ],
      "stateMutability": "view",
      "type": "function"
    },
    {
      "inputs": [],
      "name": "EpicGemsValue",
      "outputs": [
        {
          "internalType": "uint256",
          "name": "",
          "type": "uint256"
        }
      ],
      "stateMutability": "view",
      "type": "function"
    },
    {
      "inputs": [],
      "name": "EpicminingTry",
      "outputs": [
        {
          "internalType": "uint256",
          "name": "",
          "type": "uint256"
        }
      ],
      "stateMutability": "view",
      "type": "function"
    },
    {
      "inputs": [
        {
          "internalType": "uint256",
          "name": "",
          "type": "uint256"
        }
      ],
      "name": "GEMIndexToOwner",
      "outputs": [
        {
          "internalType": "address",
          "name": "",
          "type": "address"
        }
      ],
      "stateMutability": "view",
      "type": "function"
    },
    {
      "inputs": [
        {
          "internalType": "uint256",
          "name": "",
          "type": "uint256"
        }
      ],
      "name": "Gems",
      "outputs": [
        {
          "internalType": "uint256",
          "name": "tokenId",
          "type": "uint256"
        },
        {
          "internalType": "enum GemFactoryStorage.Rarity",
          "name": "rarity",
          "type": "uint8"
        },
        {
          "internalType": "uint256",
          "name": "gemCooldownPeriod",
          "type": "uint256"
        },
        {
          "internalType": "uint256",
          "name": "miningPeriod",
          "type": "uint256"
        },
        {
          "internalType": "uint256",
          "name": "miningTry",
          "type": "uint256"
        },
        {
          "internalType": "bool",
          "name": "isLocked",
          "type": "bool"
        },
        {
          "internalType": "uint256",
          "name": "value",
          "type": "uint256"
        },
        {
          "internalType": "string",
          "name": "tokenURI",
          "type": "string"
        },
        {
          "internalType": "uint256",
          "name": "randomRequestId",
          "type": "uint256"
        }
      ],
      "stateMutability": "view",
      "type": "function"
    },
    {
      "inputs": [],
      "name": "LegendaryGemsCooldownPeriod",
      "outputs": [
        {
          "internalType": "uint256",
          "name": "",
          "type": "uint256"
        }
      ],
      "stateMutability": "view",
      "type": "function"
    },
    {
      "inputs": [],
      "name": "LegendaryGemsMiningPeriod",
      "outputs": [
        {
          "internalType": "uint256",
          "name": "",
          "type": "uint256"
        }
      ],
      "stateMutability": "view",
      "type": "function"
    },
    {
      "inputs": [],
      "name": "LegendaryGemsValue",
      "outputs": [
        {
          "internalType": "uint256",
          "name": "",
          "type": "uint256"
        }
      ],
      "stateMutability": "view",
      "type": "function"
    },
    {
      "inputs": [],
      "name": "LegendaryminingTry",
      "outputs": [
        {
          "internalType": "uint256",
          "name": "",
          "type": "uint256"
        }
      ],
      "stateMutability": "view",
      "type": "function"
    },
    {
      "inputs": [],
      "name": "MythicGemsCooldownPeriod",
      "outputs": [
        {
          "internalType": "uint256",
          "name": "",
          "type": "uint256"
        }
      ],
      "stateMutability": "view",
      "type": "function"
    },
    {
      "inputs": [],
      "name": "MythicGemsMiningPeriod",
      "outputs": [
        {
          "internalType": "uint256",
          "name": "",
          "type": "uint256"
        }
      ],
      "stateMutability": "view",
      "type": "function"
    },
    {
      "inputs": [],
      "name": "MythicGemsValue",
      "outputs": [
        {
          "internalType": "uint256",
          "name": "",
          "type": "uint256"
        }
      ],
      "stateMutability": "view",
      "type": "function"
    },
    {
      "inputs": [],
      "name": "MythicminingTry",
      "outputs": [
        {
          "internalType": "uint256",
          "name": "",
          "type": "uint256"
        }
      ],
      "stateMutability": "view",
      "type": "function"
    },
    {
      "inputs": [],
      "name": "PAUSE_ROLE",
      "outputs": [
        {
          "internalType": "bytes32",
          "name": "",
          "type": "bytes32"
        }
      ],
      "stateMutability": "view",
      "type": "function"
    },
    {
      "inputs": [],
      "name": "RareGemsCooldownPeriod",
      "outputs": [
        {
          "internalType": "uint256",
          "name": "",
          "type": "uint256"
        }
      ],
      "stateMutability": "view",
      "type": "function"
    },
    {
      "inputs": [],
      "name": "RareGemsMiningPeriod",
      "outputs": [
        {
          "internalType": "uint256",
          "name": "",
          "type": "uint256"
        }
      ],
      "stateMutability": "view",
      "type": "function"
    },
    {
      "inputs": [],
      "name": "RareGemsValue",
      "outputs": [
        {
          "internalType": "uint256",
          "name": "",
          "type": "uint256"
        }
      ],
      "stateMutability": "view",
      "type": "function"
    },
    {
      "inputs": [],
      "name": "RareminingTry",
      "outputs": [
        {
          "internalType": "uint256",
          "name": "",
          "type": "uint256"
        }
      ],
      "stateMutability": "view",
      "type": "function"
    },
    {
      "inputs": [],
      "name": "UniqueGemsCooldownPeriod",
      "outputs": [
        {
          "internalType": "uint256",
          "name": "",
          "type": "uint256"
        }
      ],
      "stateMutability": "view",
      "type": "function"
    },
    {
      "inputs": [],
      "name": "UniqueGemsMiningPeriod",
      "outputs": [
        {
          "internalType": "uint256",
          "name": "",
          "type": "uint256"
        }
      ],
      "stateMutability": "view",
      "type": "function"
    },
    {
      "inputs": [],
      "name": "UniqueGemsValue",
      "outputs": [
        {
          "internalType": "uint256",
          "name": "",
          "type": "uint256"
        }
      ],
      "stateMutability": "view",
      "type": "function"
    },
    {
      "inputs": [],
      "name": "UniqueminingTry",
      "outputs": [
        {
          "internalType": "uint256",
          "name": "",
          "type": "uint256"
        }
      ],
      "stateMutability": "view",
      "type": "function"
    },
    {
      "inputs": [
        {
          "internalType": "address",
          "name": "account",
          "type": "address"
        }
      ],
      "name": "addAdmin",
      "outputs": [],
      "stateMutability": "nonpayable",
      "type": "function"
    },
    {
      "inputs": [
        {
          "internalType": "address",
          "name": "account",
          "type": "address"
        }
      ],
      "name": "addPauser",
      "outputs": [],
      "stateMutability": "nonpayable",
      "type": "function"
    },
    {
      "inputs": [
        {
          "internalType": "address",
          "name": "",
          "type": "address"
        }
      ],
      "name": "aliveImplementation",
      "outputs": [
        {
          "internalType": "bool",
          "name": "",
          "type": "bool"
        }
      ],
      "stateMutability": "view",
      "type": "function"
    },
    {
      "inputs": [
        {
          "internalType": "uint256",
          "name": "",
          "type": "uint256"
        }
      ],
      "name": "backgroundColors",
      "outputs": [
        {
          "internalType": "string",
          "name": "",
          "type": "string"
        }
      ],
      "stateMutability": "view",
      "type": "function"
    },
    {
      "inputs": [
        {
          "internalType": "uint256",
          "name": "",
          "type": "uint256"
        }
      ],
      "name": "colors",
      "outputs": [
        {
          "internalType": "string",
          "name": "",
          "type": "string"
        }
      ],
      "stateMutability": "view",
      "type": "function"
    },
    {
      "inputs": [
        {
          "internalType": "uint8",
          "name": "",
          "type": "uint8"
        }
      ],
      "name": "customBackgroundColors",
      "outputs": [
        {
          "internalType": "string",
          "name": "",
          "type": "string"
        }
      ],
      "stateMutability": "view",
      "type": "function"
    },
    {
      "inputs": [],
      "name": "customBackgroundColorsCount",
      "outputs": [
        {
          "internalType": "uint8",
          "name": "",
          "type": "uint8"
        }
      ],
      "stateMutability": "view",
      "type": "function"
    },
    {
      "inputs": [
        {
          "internalType": "uint8",
          "name": "",
          "type": "uint8"
        }
      ],
      "name": "customColors",
      "outputs": [
        {
          "internalType": "string",
          "name": "",
          "type": "string"
        }
      ],
      "stateMutability": "view",
      "type": "function"
    },
    {
      "inputs": [],
      "name": "customColorsCount",
      "outputs": [
        {
          "internalType": "uint8",
          "name": "",
          "type": "uint8"
        }
      ],
      "stateMutability": "view",
      "type": "function"
    },
    {
      "inputs": [],
      "name": "drbcoordinator",
      "outputs": [
        {
          "internalType": "address",
          "name": "",
          "type": "address"
        }
      ],
      "stateMutability": "view",
      "type": "function"
    },
    {
      "inputs": [
        {
          "internalType": "bytes32",
          "name": "role",
          "type": "bytes32"
        }
      ],
      "name": "getRoleAdmin",
      "outputs": [
        {
          "internalType": "bytes32",
          "name": "",
          "type": "bytes32"
        }
      ],
      "stateMutability": "view",
      "type": "function"
    },
    {
      "inputs": [
        {
          "internalType": "bytes4",
          "name": "_selector",
          "type": "bytes4"
        }
      ],
      "name": "getSelectorImplementation2",
      "outputs": [
        {
          "internalType": "address",
          "name": "impl",
          "type": "address"
        }
      ],
      "stateMutability": "view",
      "type": "function"
    },
    {
      "inputs": [
        {
          "internalType": "bytes32",
          "name": "role",
          "type": "bytes32"
        },
        {
          "internalType": "address",
          "name": "account",
          "type": "address"
        }
      ],
      "name": "grantRole",
      "outputs": [],
      "stateMutability": "nonpayable",
      "type": "function"
    },
    {
      "inputs": [
        {
          "internalType": "bytes32",
          "name": "role",
          "type": "bytes32"
        },
        {
          "internalType": "address",
          "name": "account",
          "type": "address"
        }
      ],
      "name": "hasRole",
      "outputs": [
        {
          "internalType": "bool",
          "name": "",
          "type": "bool"
        }
      ],
      "stateMutability": "view",
      "type": "function"
    },
    {
      "inputs": [],
      "name": "implementation",
      "outputs": [
        {
          "internalType": "address",
          "name": "",
          "type": "address"
        }
      ],
      "stateMutability": "view",
      "type": "function"
    },
    {
      "inputs": [
        {
          "internalType": "uint256",
          "name": "_index",
          "type": "uint256"
        }
      ],
      "name": "implementation2",
      "outputs": [
        {
          "internalType": "address",
          "name": "",
          "type": "address"
        }
      ],
      "stateMutability": "view",
      "type": "function"
    },
    {
      "inputs": [
        {
          "internalType": "address",
          "name": "account",
          "type": "address"
        }
      ],
      "name": "isAdmin",
      "outputs": [
        {
          "internalType": "bool",
          "name": "",
          "type": "bool"
        }
      ],
      "stateMutability": "view",
      "type": "function"
    },
    {
      "inputs": [],
      "name": "isOwner",
      "outputs": [
        {
          "internalType": "bool",
          "name": "",
          "type": "bool"
        }
      ],
      "stateMutability": "view",
      "type": "function"
    },
    {
      "inputs": [],
      "name": "marketplace",
      "outputs": [
        {
          "internalType": "address",
          "name": "",
          "type": "address"
        }
      ],
      "stateMutability": "view",
      "type": "function"
    },
    {
      "inputs": [],
      "name": "numberOfSolidColors",
      "outputs": [
        {
          "internalType": "uint8",
          "name": "",
          "type": "uint8"
        }
      ],
      "stateMutability": "view",
      "type": "function"
    },
    {
      "inputs": [
        {
          "internalType": "address",
          "name": "",
          "type": "address"
        }
      ],
      "name": "ownershipTokenCount",
      "outputs": [
        {
          "internalType": "uint256",
          "name": "",
          "type": "uint256"
        }
      ],
      "stateMutability": "view",
      "type": "function"
    },
    {
      "inputs": [],
      "name": "pauseProxy",
      "outputs": [
        {
          "internalType": "bool",
          "name": "",
          "type": "bool"
        }
      ],
      "stateMutability": "view",
      "type": "function"
    },
    {
      "inputs": [],
      "name": "paused",
      "outputs": [
        {
          "internalType": "bool",
          "name": "",
          "type": "bool"
        }
      ],
      "stateMutability": "view",
      "type": "function"
    },
    {
      "inputs": [
        {
          "internalType": "uint256",
          "name": "",
          "type": "uint256"
        }
      ],
      "name": "proxyImplementation",
      "outputs": [
        {
          "internalType": "address",
          "name": "",
          "type": "address"
        }
      ],
      "stateMutability": "view",
      "type": "function"
    },
    {
      "inputs": [
        {
          "internalType": "address",
          "name": "account",
          "type": "address"
        }
      ],
      "name": "removeAdmin",
      "outputs": [],
      "stateMutability": "nonpayable",
      "type": "function"
    },
    {
      "inputs": [
        {
          "internalType": "address",
          "name": "account",
          "type": "address"
        }
      ],
      "name": "removePauser",
      "outputs": [],
      "stateMutability": "nonpayable",
      "type": "function"
    },
    {
      "inputs": [],
      "name": "renounceOwnership",
      "outputs": [],
      "stateMutability": "nonpayable",
      "type": "function"
    },
    {
      "inputs": [
        {
          "internalType": "bytes32",
          "name": "role",
          "type": "bytes32"
        },
        {
          "internalType": "address",
          "name": "callerConfirmation",
          "type": "address"
        }
      ],
      "name": "renounceRole",
      "outputs": [],
      "stateMutability": "nonpayable",
      "type": "function"
    },
    {
      "inputs": [],
      "name": "requestCount",
      "outputs": [
        {
          "internalType": "uint256",
          "name": "",
          "type": "uint256"
        }
      ],
      "stateMutability": "view",
      "type": "function"
    },
    {
      "inputs": [
        {
          "internalType": "uint256",
          "name": "",
          "type": "uint256"
        }
      ],
      "name": "requestIds",
      "outputs": [
        {
          "internalType": "uint256",
          "name": "",
          "type": "uint256"
        }
      ],
      "stateMutability": "view",
      "type": "function"
    },
    {
      "inputs": [
        {
          "internalType": "bytes32",
          "name": "role",
          "type": "bytes32"
        },
        {
          "internalType": "address",
          "name": "account",
          "type": "address"
        }
      ],
      "name": "revokeRole",
      "outputs": [],
      "stateMutability": "nonpayable",
      "type": "function"
    },
    {
      "inputs": [
        {
          "internalType": "uint256",
          "name": "",
          "type": "uint256"
        }
      ],
      "name": "s_requests",
      "outputs": [
        {
          "internalType": "uint256",
          "name": "tokenId",
          "type": "uint256"
        },
        {
          "internalType": "bool",
          "name": "requested",
          "type": "bool"
        },
        {
          "internalType": "bool",
          "name": "fulfilled",
          "type": "bool"
        },
        {
          "internalType": "uint256",
          "name": "randomWord",
          "type": "uint256"
        },
        {
          "internalType": "uint256",
          "name": "chosenTokenId",
          "type": "uint256"
        },
        {
          "internalType": "address",
          "name": "requester",
          "type": "address"
        }
      ],
      "stateMutability": "view",
      "type": "function"
    },
    {
      "inputs": [
        {
          "internalType": "bytes4",
          "name": "",
          "type": "bytes4"
        }
      ],
      "name": "selectorImplementation",
      "outputs": [
        {
          "internalType": "address",
          "name": "",
          "type": "address"
        }
      ],
      "stateMutability": "view",
      "type": "function"
    },
    {
      "inputs": [
        {
          "internalType": "address",
          "name": "newImplementation",
          "type": "address"
        },
        {
          "internalType": "bool",
          "name": "_alive",
          "type": "bool"
        }
      ],
      "name": "setAliveImplementation2",
      "outputs": [],
      "stateMutability": "nonpayable",
      "type": "function"
    },
    {
      "inputs": [
        {
          "internalType": "address",
          "name": "newImplementation",
          "type": "address"
        },
        {
          "internalType": "uint256",
          "name": "_index",
          "type": "uint256"
        },
        {
          "internalType": "bool",
          "name": "_alive",
          "type": "bool"
        }
      ],
      "name": "setImplementation2",
      "outputs": [],
      "stateMutability": "nonpayable",
      "type": "function"
    },
    {
      "inputs": [
        {
          "internalType": "bool",
          "name": "_pause",
          "type": "bool"
        }
      ],
      "name": "setProxyPause",
      "outputs": [],
      "stateMutability": "nonpayable",
      "type": "function"
    },
    {
      "inputs": [
        {
          "internalType": "bytes4[]",
          "name": "_selectors",
          "type": "bytes4[]"
        },
        {
          "internalType": "address",
          "name": "_imp",
          "type": "address"
        }
      ],
      "name": "setSelectorImplementations2",
      "outputs": [],
      "stateMutability": "nonpayable",
      "type": "function"
    },
    {
      "inputs": [
        {
          "internalType": "bytes4",
          "name": "interfaceId",
          "type": "bytes4"
        }
      ],
      "name": "supportsInterface",
      "outputs": [
        {
          "internalType": "bool",
          "name": "",
          "type": "bool"
        }
      ],
      "stateMutability": "view",
      "type": "function"
    },
    {
      "inputs": [
        {
          "internalType": "address",
          "name": "",
          "type": "address"
        }
      ],
      "name": "tokenMiningByUser",
      "outputs": [
        {
          "internalType": "uint256",
          "name": "",
          "type": "uint256"
        }
      ],
      "stateMutability": "view",
      "type": "function"
    },
    {
      "inputs": [
        {
          "internalType": "uint256",
          "name": "",
          "type": "uint256"
        }
      ],
      "name": "tokenReadyToMine",
      "outputs": [
        {
          "internalType": "bool",
          "name": "",
          "type": "bool"
        }
      ],
      "stateMutability": "view",
      "type": "function"
    },
    {
      "inputs": [],
      "name": "ton",
      "outputs": [
        {
          "internalType": "address",
          "name": "",
          "type": "address"
        }
      ],
      "stateMutability": "view",
      "type": "function"
    },
    {
      "inputs": [
        {
          "internalType": "address",
          "name": "newAdmin",
          "type": "address"
        }
      ],
      "name": "transferAdmin",
      "outputs": [],
      "stateMutability": "nonpayable",
      "type": "function"
    },
    {
      "inputs": [
        {
          "internalType": "address",
          "name": "newAdmin",
          "type": "address"
        }
      ],
      "name": "transferOwnership",
      "outputs": [],
      "stateMutability": "nonpayable",
      "type": "function"
    },
    {
      "inputs": [],
      "name": "treasury",
      "outputs": [
        {
          "internalType": "address",
          "name": "",
          "type": "address"
        }
      ],
      "stateMutability": "view",
      "type": "function"
    },
    {
      "inputs": [
        {
          "internalType": "address",
          "name": "impl",
          "type": "address"
        }
      ],
      "name": "upgradeTo",
      "outputs": [],
      "stateMutability": "nonpayable",
      "type": "function"
    },
    {
      "inputs": [
        {
          "internalType": "address",
          "name": "",
          "type": "address"
        },
        {
          "internalType": "uint256",
          "name": "",
          "type": "uint256"
        }
      ],
      "name": "userMiningStartTime",
      "outputs": [
        {
          "internalType": "uint256",
          "name": "",
          "type": "uint256"
        }
      ],
      "stateMutability": "view",
      "type": "function"
    },
    {
      "inputs": [
        {
          "internalType": "address",
          "name": "",
          "type": "address"
        },
        {
          "internalType": "uint256",
          "name": "",
          "type": "uint256"
        }
      ],
      "name": "userMiningToken",
      "outputs": [
        {
          "internalType": "bool",
          "name": "",
          "type": "bool"
        }
      ],
      "stateMutability": "view",
      "type": "function"
    },
    {
      "inputs": [],
      "name": "wston",
      "outputs": [
        {
          "internalType": "address",
          "name": "",
          "type": "address"
        }
      ],
      "stateMutability": "view",
      "type": "function"
    },
    {
      "stateMutability": "payable",
      "type": "receive"
    }
  ],
  "bytecode": "0x608060405234601f57600f336024565b5060405161210890816100b58239f35b600080fd5b6001600160a01b031660008181527f17ef568e3e12ab5b9c7254a8d58478811de00f9e6eb34345acd53bf8fd09d3ec602052604081205490919060ff1660b05781805260046020526040822081835260205260408220600160ff1982541617905533917f2f8788117e7eff1d82e926ec794901d17c78024a50270940304540a733656f0d8180a4600190565b509056fe60806040526004361015610018575b36611fb757611bfa565b60003560e01c806301ffc9a7146104f3578063034294f8146104ee578063038a7e05146104e957806304e41a0b146104e45780630922f513146104df5780630de32a97146104da578063139b63f3146104d55780631785f53c146104d05780631885cbbe146104cb57806318898f36146104c6578063201832c0146104c1578063248a9ca3146104bc57806324d7806c146104b75780632f2ff15d146104b257806333d608f1146104ad57806336568abe146104a85780633659cfe6146104a357806336b17e131461049e578063389ed267146104995780633fb310a5146104945780634a5df50f1461048f57806350d2a2761461048a578063550d01a31461048557806358bf3e65146104805780635badbe4c1461047b5780635bbffab6146104765780635c60da1b146104715780635c975abb1461046c5780635cc797d81461046757806361d027b31461046257806361f7f6d71461045d578063627517381461045857806363a8fd8914610453578063676f79f11461044e5780636b1a96fa146104495780636b2c0f5514610444578063704802751461043f578063715018a61461043a57806371b57c4714610435578063724188bc1461043057806375829def1461042b57806375b238fc1461042657806377f7e499146104215780637866369b1461041c5780637cb00d25146104175780637cd5f6631461041257806382dc1ec41461040d5780638796ba8c146104085780638b8f4a65146103c25780638d4fdb40146104035780638f32d59b146103fe5780638fddb065146103f957806391d14854146103f457806397125c40146103ef57806398a2c65d146103ea578063a0b2d41b146103e5578063a168fa89146103e0578063a1770a7d146103db578063a217fddf146103d6578063a8ce886e146103d1578063abc8c7af146103cc578063b78417b0146103c7578063b911135f146103c2578063bd11f69d146103bd578063c1389072146103b8578063c4d2fcae146103b3578063cc48b947146103ae578063cec21acb146103a9578063d1bd7e06146103a4578063d547741f1461039f578063d7a464951461039a578063e4b7fddf14610395578063ecc5e06f14610390578063efa2cc291461038b578063f2fde38b14610386578063f66f9e3414610381578063f7c0794d1461037c5763ffbccde40361000e5761193e565b611920565b611902565b6118de565b6118c0565b611897565b611879565b61185b565b61181c565b6117fe565b6117c4565b61179b565b61177d565b611743565b6116f1565b611428565b6116d3565b6116aa565b611658565b61163c565b6115ef565b61157c565b61155e565b611540565b61150c565b6114d8565b6114ba565b611495565b61145c565b6113d7565b611301565b611264565b611228565b6111f7565b6111d9565b6111b0565b6110e6565b6110c5565b61109c565b611077565b611009565b610fcc565b610f8f565b610f2b565b610f08565b610eea565b610e62565b610c6e565b610c35565b610c12565b610bde565b610bc0565b610ba2565b610b84565b610b45565b610ace565b610934565b610917565b6108ee565b6108c1565b6107f7565b6107b0565b610792565b610753565b610707565b6106d8565b6106ba565b61069c565b61067e565b61064b565b610601565b6105e3565b6105c2565b6105a4565b610586565b610565565b61050f565b6001600160e01b031981160361050a57565b600080fd5b3461050a57602036600319011261050a57602060043561052e816104f8565b63ffffffff60e01b16637965db0b60e01b8114908115610554575b506040519015158152f35b6301ffc9a760e01b14905038610549565b3461050a57600036600319011261050a57602060ff60075416604051908152f35b3461050a57600036600319011261050a576020601e54604051908152f35b3461050a57600036600319011261050a576020602354604051908152f35b3461050a57600036600319011261050a57602060ff600a5416604051908152f35b3461050a57600036600319011261050a576020602254604051908152f35b3461050a57600036600319011261050a576020602654604051908152f35b600435906001600160a01b038216820361050a57565b602435906001600160a01b038216820361050a57565b3461050a57602036600319011261050a5761067c61066761061f565b610677610672611bc5565b61195c565b6119fe565b005b3461050a57600036600319011261050a576020602954604051908152f35b3461050a57600036600319011261050a576020601d54604051908152f35b3461050a57600036600319011261050a576020601954604051908152f35b3461050a57602036600319011261050a5760043560005260046020526020600160406000200154604051908152f35b3461050a57602036600319011261050a57602060ff61074761072761061f565b600080516020612093833981519152600052600484526040600020610b2e565b54166040519015158152f35b3461050a57604036600319011261050a5761067c600435610772610635565b9080600052600460205261078d600160406000200154611c36565b611d52565b3461050a57600036600319011261050a576020604051620334508152f35b3461050a57604036600319011261050a576107c9610635565b336001600160a01b038216036107e55761067c90600435611ed3565b60405163334bd91960e11b8152600490fd5b3461050a57602036600319011261050a5761081061061f565b61081b610672611bc5565b6001600160a01b038116801561088c576000808052600160205260008051602061205383398151915254909261086591610860906001600160a01b0316841415611a17565b611eed565b7fbc7cd75a20ee27fd9adebab32041f755214dbc6bffa90cc0225b39da2e5c2d3b8280a280f35b60405162461bcd60e51b815260206004820152600d60248201526c696e707574206973207a65726f60981b6044820152606490fd5b3461050a57600036600319011261050a57602f5460405160089190911c6001600160a01b03168152602090f35b3461050a57600036600319011261050a5760206040516000805160206120738339815191528152f35b3461050a57600036600319011261050a5760208054604051908152f35b3461050a57604036600319011261050a576004356001600160401b0380821161050a573660238301121561050a57816004013590811161050a576024820191602436918360051b01011161050a5761098a610635565b91610996610672611bc5565b8115610a7157906109b86109b36109ac85610b14565b5460ff1690565b611a4f565b6001600160a01b0391838316919060005b8281106109d257005b80610a0d8587610a056109f86109f36109ee6001988b8b611a96565b611abc565b610ab5565b546001600160a01b031690565b161415611ac9565b610a2787610a226109f36109ee858989611a96565b611b15565b84610a46610a396109ee848888611a96565b6001600160e01b03191690565b7f14ebc1c32aa68f4d766e89f3e546cee249f7df25183fc10ab1568d91c2ce9b7b600080a3016109c9565b606460405162461bcd60e51b815260206004820152602060248201527f50726f78793a205f73656c6563746f727327732073697a65206973207a65726f6044820152fd5b63ffffffff60e01b166000526003602052604060002090565b3461050a57602036600319011261050a57600435610aeb816104f8565b63ffffffff60e01b166000526003602052602060018060a01b0360406000205416604051908152f35b6001600160a01b0316600090815260026020526040902090565b9060018060a01b0316600052602052604060002090565b3461050a57602036600319011261050a576001600160a01b03610b6661061f565b166000526002602052602060ff604060002054166040519015158152f35b3461050a57600036600319011261050a576020601b54604051908152f35b3461050a57600036600319011261050a576020602e54604051908152f35b3461050a57600036600319011261050a576020602454604051908152f35b3461050a57600080600319360112610c0f5780806020925260018252604060018060a01b0391205416604051908152f35b80fd5b3461050a57600036600319011261050a57602060ff601454166040519015158152f35b3461050a57604036600319011261050a57610c4e61061f565b602435801515810361050a5761067c91610c69610672611bc5565b611f63565b3461050a57600036600319011261050a576031546040516001600160a01b039091168152602090f35b90601f801991011681019081106001600160401b03821117610cb857604052565b634e487b7160e01b600052604160045260246000fd5b906040519060009280549360018560011c9260018716918215610dac575b602091602086108414610d98578798610d0c878a98999a60209181520190565b94908115610d775750600114610d2f575b50505050610d2d92500383610c97565b565b610d43919450959195600052602060002090565b946000935b828510610d6157505050610d2d93500138808080610d1d565b8654858501529586019588955093810193610d48565b9350505050610d2d9491925060ff19168252151560051b0138808080610d1d565b634e487b7160e01b85526022600452602485fd5b93607f1693610cec565b919082519283825260005b848110610de2575050826000602080949584010152601f8019910116010190565b602081830181015184830182015201610dc1565b999897949093969296959195610120948b526006871015610e4c5761010097610e479760208d015260408c015260608b015260808a0152151560a089015260c08801528060e0880152860190610db6565b930152565b634e487b7160e01b600052602160045260246000fd5b3461050a57602036600319011261050a5760043560055481101561050a576005600052600b60206000209102018054610ee6610ea2600184015460ff1690565b9260048101549060058101546006820154610ec1600784015460ff1690565b90600884015492600a610ed660098701610cce565b95015495604051998a998a610df6565b0390f35b3461050a57600036600319011261050a576020601a54604051908152f35b3461050a57600036600319011261050a57602060ff600054166040519015158152f35b3461050a57604036600319011261050a576001600160a01b03610f4c61061f565b16600052601160205260406000206024356000526020526020604060002054604051908152f35b602090600319011261050a5760043560ff8116810361050a5790565b3461050a5760ff610f9f36610f73565b166000526006602052610ee6610fb86040600020610cce565b604051918291602083526020830190610db6565b3461050a57602036600319011261050a57610fe561061f565b610ff0610672611bc5565b336001600160a01b038216036107e55761067c90611d6c565b3461050a57602036600319011261050a5761067c61102561061f565b611030610672611bc5565b60008051602061209383398151915260005260046020527f2fb794d17134dfdec181ddbac1babb5ab1eb140204ef4d982f294e7fc8b690235461107290611c36565b611c77565b3461050a57600036600319011261050a57611093610672611bc5565b61067c33611e0b565b3461050a57600036600319011261050a576033546040516001600160a01b039091168152602090f35b3461050a57600036600319011261050a57602060ff602f5416604051908152f35b3461050a57602036600319011261050a576110ff61061f565b61110a610672611bc5565b6001600160a01b038116801561117057331461113257611129906119b4565b61067c336119fe565b60405162461bcd60e51b815260206004820152601660248201527520b1b1b2b9b9b4b136329d1039b0b6b29030b236b4b760511b6044820152606490fd5b60405162461bcd60e51b815260206004820152601860248201527741636365737369626c653a207a65726f206164647265737360401b6044820152606490fd5b3461050a57600036600319011261050a5760206040516000805160206120938339815191528152f35b3461050a57600036600319011261050a576020602754604051908152f35b3461050a57602036600319011261050a576004356000526012602052602060ff604060002054166040519015158152f35b3461050a57602036600319011261050a5760043580151580910361050a57611251610672611bc5565b60ff801960005416911617600055600080f35b3461050a57606036600319011261050a5761127d61061f565b604435801515810361050a57611294610672611bc5565b813b156112be5761067c918115611f63576024356000526001602052610c69816040600020611b15565b60405162461bcd60e51b815260206004820152601b60248201527a50726f78793a206e6f7420636f6e7472616374206164647265737360281b6044820152606490fd5b3461050a57602036600319011261050a5761131a61061f565b600080516020612093833981519152600090815260046020529060ff61134e336000805160206120b3833981519152610b2e565b541680156113c9575b1561138f5761138b90600080516020612073833981519152835260046020526113866001604085200154611c36565b611d0c565b5080f35b60405162461bcd60e51b81526020600482015260126024820152713737ba1027bbb732b91037b91020b236b4b760711b6044820152606490fd5b506113d2611bc5565b611357565b3461050a57602036600319011261050a57600435602d5481101561050a57602d6000527f4a2cc91ee622da3bc833a54c37ffcb6f3ec23b7793efc5eaf5e71b7b406c5c060154604051908152602090f35b3461050a57602036600319011261050a576004356000526001602052602060018060a01b0360406000205416604051908152f35b3461050a57602036600319011261050a57602061148360043561147e816104f8565b611b34565b6040516001600160a01b039091168152f35b3461050a57600036600319011261050a5760206114b0611bc5565b6040519015158152f35b3461050a57600036600319011261050a576020602b54604051908152f35b3461050a57604036600319011261050a57602060ff6107476114f8610635565b600435600052600484526040600020610b2e565b3461050a57602036600319011261050a57600435600052600d602052602060018060a01b0360406000205416604051908152f35b3461050a57600036600319011261050a576020601754604051908152f35b3461050a57600036600319011261050a576020601f54604051908152f35b3461050a57602036600319011261050a57600435600052601360205260c06040600020805490600181015490600281015460ff600383015492600460018060a01b0391015416936040519586528181161515602087015260081c16151560408501526060840152608083015260a0820152f35b3461050a57604036600319011261050a576001600160a01b0361161061061f565b1660005260106020526040600020602435600052602052602060ff604060002054166040519015158152f35b3461050a57600036600319011261050a57602060405160008152f35b3461050a57602036600319011261050a57600435600b5481101561050a57600b600052610ee690610fb8907f0175b7a638427703f0dbe7bb9bbf987a2551717b34e79f33b5b1008d1fa01db901610cce565b3461050a57600036600319011261050a576032546040516001600160a01b039091168152602090f35b3461050a57600036600319011261050a576020602854604051908152f35b3461050a57602036600319011261050a5760043560085481101561050a576008600052610ee690610fb8907ff3f7a9fe364faab93b216da50a3214154f22a0a2b415b23a84c8169e8b636ee301610cce565b3461050a57602036600319011261050a576001600160a01b0361176461061f565b16600052600f6020526020604060002054604051908152f35b3461050a57600036600319011261050a576020602154604051908152f35b3461050a57600036600319011261050a576030546040516001600160a01b039091168152602090f35b3461050a57602036600319011261050a576001600160a01b036117e561061f565b16600052600e6020526020604060002054604051908152f35b3461050a57600036600319011261050a576020601654604051908152f35b3461050a57604036600319011261050a5761067c60043561183b610635565b90806000526004602052611856600160406000200154611c36565b611ed3565b3461050a57600036600319011261050a576020602554604051908152f35b3461050a57600036600319011261050a576020602c54604051908152f35b3461050a5760ff6118a736610f73565b166000526009602052610ee6610fb86040600020610cce565b3461050a57600036600319011261050a576020602a54604051908152f35b3461050a57602036600319011261050a576118f761061f565b6110ff610672611bc5565b3461050a57600036600319011261050a576020601c54604051908152f35b3461050a57600036600319011261050a576020601854604051908152f35b3461050a57600036600319011261050a576020601554604051908152f35b1561196357565b60405162461bcd60e51b8152602060048201526024808201527f41757468436f6e74726f6c3a2043616c6c6572206973206e6f7420746865206f6044820152633bb732b960e11b6064820152608490fd5b60008051602061209383398151915260005260046020527f2fb794d17134dfdec181ddbac1babb5ab1eb140204ef4d982f294e7fc8b69023546119fb919061107290611c36565b50565b336001600160a01b038216036107e5576119fb90611e9f565b15611a1e57565b60405162461bcd60e51b815260206004820152600960248201526839b0b6b29030b2323960b91b6044820152606490fd5b15611a5657565b60405162461bcd60e51b815260206004820152601860248201527750726f78793a205f696d70206973206e6f7420616c69766560401b6044820152606490fd5b9190811015611aa65760051b0190565b634e487b7160e01b600052603260045260246000fd5b35611ac6816104f8565b90565b15611ad057565b60405162461bcd60e51b815260206004820152601d60248201527f4c69717569646974795661756c7450726f78793a2073616d6520696d700000006044820152606490fd5b80546001600160a01b0319166001600160a01b03909216919091179055565b6001600160e01b031981166000908152600360205260409020546001600160a01b0391908216611b815750600080526001602052600080516020612053833981519152541690565b541690565b60ff611b9783611b9084610ab5565b5416610b14565b541615611ba757611b7c90610ab5565b50600080526001602052600080516020612053833981519152541690565b60008052600460205260ff611b7c337f17ef568e3e12ab5b9c7254a8d58478811de00f9e6eb34345acd53bf8fd09d3ec610b2e565b60405162461bcd60e51b815260206004820152601460248201527331b0b73737ba103932b1b2b4bb329022ba3432b960611b6044820152606490fd5b80600052600460205260ff611c4f336040600020610b2e565b541615611c595750565b6044906040519063e2517d3f60e01b82523360048301526024820152fd5b600080516020612093833981519152600081815260046020529060ff611cab846000805160206120b3833981519152610b2e565b5416611d06578082526004602052611cc68360408420610b2e565b805460ff1916600117905533926001600160a01b0316917f2f8788117e7eff1d82e926ec794901d17c78024a50270940304540a733656f0d9080a4600190565b50905090565b600080516020612073833981519152600081815260046020529060ff611cab847f2ed987ab732d519c59d4a2f2f586b9ca6af9f18905fa2093aceeb8d462ffc842610b2e565b600090808252600460205260ff611cab8460408520610b2e565b600080516020612073833981519152600081815260046020529060ff611db2847f2ed987ab732d519c59d4a2f2f586b9ca6af9f18905fa2093aceeb8d462ffc842610b2e565b541615611d06578082526004602052611dce8360408420610b2e565b805460ff1916905533926001600160a01b0316917ff6391f5c32d9c69d2a47ea670b442974b53935d1edc7fd64eb21e047a839171b9080a4600190565b6000808052600460205260ff611e41837f17ef568e3e12ab5b9c7254a8d58478811de00f9e6eb34345acd53bf8fd09d3ec610b2e565b541615611e9a578080526004602052611e5d8260408320610b2e565b805460ff1916905533916001600160a01b0316907ff6391f5c32d9c69d2a47ea670b442974b53935d1edc7fd64eb21e047a839171b8180a4600190565b905090565b600080516020612093833981519152600081815260046020529060ff611db2846000805160206120b3833981519152610b2e565b600090808252600460205260ff611db28460408520610b2e565b803b156112be57600080526001602052611f1581600080516020612053833981519152611b15565b60018060a01b03168060005260026020526040600020600160ff198254161790557f72558d9bfba4210f9ef095c782589484151f6d90f7a81bb3cb9b33efc695d324602060405160018152a2565b60207f72558d9bfba4210f9ef095c782589484151f6d90f7a81bb3cb9b33efc695d3249160018060a01b031692836000526002825260406000209015159060ff1981541660ff8316179055604051908152a2565b6000611fcd81356001600160e01b031916611b34565b6001600160a01b038116151580612046575b1561200157818091368280378136915af43d82803e15611ffd573d90f35b3d90fd5b60405162461bcd60e51b815260206004820152601d60248201527f50726f78793a20696d706c204f522070726f78792069732066616c73650000006044820152606490fd5b5060ff82541615611fdf56fea6eef7e35abe7026729641147f7915573c7e97b47efa546f5f6e3230263bcb49fcb9fcbfa83b897fb2d5cf4b58962164105c1e71489a37ef3ae0db3fdce576f6df8b4c520ffe197c5343c6f5aec59570151ef9a492f2c624fd45ddde6135ec422fb794d17134dfdec181ddbac1babb5ab1eb140204ef4d982f294e7fc8b69022a2646970667358221220910f15a2abf1e66e2e5976bfc37f8fe4377d5cb0d3e239b1829a918b4ba7bd7f64736f6c63430008190033",
  "linkReferences": {},
  "deployedLinkReferences": {}
}