{
  "_format": "hh-sol-artifact-1",
  "contractName": "L1WrappedStakedTON",
  "sourceName": "src/L1/L1WrappedStakedTON.sol",
  "abi": [
    {
      "inputs": [
        {
          "internalType": "address",
          "name": "_layer2Address",
          "type": "address"
        },
        {
          "internalType": "address",
          "name": "_wton",
          "type": "address"
        },
        {
          "internalType": "address",
          "name": "_depositManager",
          "type": "address"
        },
        {
          "internalType": "address",
          "name": "_seigManager",
          "type": "address"
        },
        {
          "internalType": "string",
          "name": "_name",
          "type": "string"
        },
        {
          "internalType": "string",
          "name": "_symbol",
          "type": "string"
        }
      ],
      "stateMutability": "nonpayable",
      "type": "constructor"
    },
    {
      "inputs": [
        {
          "internalType": "address",
          "name": "target",
          "type": "address"
        }
      ],
      "name": "AddressEmptyCode",
      "type": "error"
    },
    {
      "inputs": [
        {
          "internalType": "address",
          "name": "account",
          "type": "address"
        }
      ],
      "name": "AddressInsufficientBalance",
      "type": "error"
    },
    {
      "inputs": [
        {
          "internalType": "address",
          "name": "spender",
          "type": "address"
        },
        {
          "internalType": "uint256",
          "name": "allowance",
          "type": "uint256"
        },
        {
          "internalType": "uint256",
          "name": "needed",
          "type": "uint256"
        }
      ],
      "name": "ERC20InsufficientAllowance",
      "type": "error"
    },
    {
      "inputs": [
        {
          "internalType": "address",
          "name": "sender",
          "type": "address"
        },
        {
          "internalType": "uint256",
          "name": "balance",
          "type": "uint256"
        },
        {
          "internalType": "uint256",
          "name": "needed",
          "type": "uint256"
        }
      ],
      "name": "ERC20InsufficientBalance",
      "type": "error"
    },
    {
      "inputs": [
        {
          "internalType": "address",
          "name": "approver",
          "type": "address"
        }
      ],
      "name": "ERC20InvalidApprover",
      "type": "error"
    },
    {
      "inputs": [
        {
          "internalType": "address",
          "name": "receiver",
          "type": "address"
        }
      ],
      "name": "ERC20InvalidReceiver",
      "type": "error"
    },
    {
      "inputs": [
        {
          "internalType": "address",
          "name": "sender",
          "type": "address"
        }
      ],
      "name": "ERC20InvalidSender",
      "type": "error"
    },
    {
      "inputs": [
        {
          "internalType": "address",
          "name": "spender",
          "type": "address"
        }
      ],
      "name": "ERC20InvalidSpender",
      "type": "error"
    },
    {
      "inputs": [],
      "name": "FailedInnerCall",
      "type": "error"
    },
    {
      "inputs": [
        {
          "internalType": "address",
          "name": "owner",
          "type": "address"
        }
      ],
      "name": "OwnableInvalidOwner",
      "type": "error"
    },
    {
      "inputs": [
        {
          "internalType": "address",
          "name": "account",
          "type": "address"
        }
      ],
      "name": "OwnableUnauthorizedAccount",
      "type": "error"
    },
    {
      "inputs": [],
      "name": "ReentrancyGuardReentrantCall",
      "type": "error"
    },
    {
      "inputs": [
        {
          "internalType": "address",
          "name": "token",
          "type": "address"
        }
      ],
      "name": "SafeERC20FailedOperation",
      "type": "error"
    },
    {
      "anonymous": false,
      "inputs": [
        {
          "indexed": true,
          "internalType": "address",
          "name": "owner",
          "type": "address"
        },
        {
          "indexed": true,
          "internalType": "address",
          "name": "spender",
          "type": "address"
        },
        {
          "indexed": false,
          "internalType": "uint256",
          "name": "value",
          "type": "uint256"
        }
      ],
      "name": "Approval",
      "type": "event"
    },
    {
      "anonymous": false,
      "inputs": [
        {
          "indexed": true,
          "internalType": "address",
          "name": "owner",
          "type": "address"
        },
        {
          "indexed": true,
          "internalType": "address",
          "name": "spender",
          "type": "address"
        },
        {
          "indexed": false,
          "internalType": "uint256",
          "name": "value",
          "type": "uint256"
        }
      ],
      "name": "DebugAllowance",
      "type": "event"
    },
    {
      "anonymous": false,
      "inputs": [
        {
          "indexed": true,
          "internalType": "address",
          "name": "account",
          "type": "address"
        },
        {
          "indexed": false,
          "internalType": "uint256",
          "name": "balance",
          "type": "uint256"
        }
      ],
      "name": "DebugBalance",
      "type": "event"
    },
    {
      "anonymous": false,
      "inputs": [
        {
          "indexed": false,
          "internalType": "address",
          "name": "to",
          "type": "address"
        },
        {
          "indexed": false,
          "internalType": "uint256",
          "name": "amount",
          "type": "uint256"
        },
        {
          "indexed": false,
          "internalType": "uint256",
          "name": "wstonAmount",
          "type": "uint256"
        },
        {
          "indexed": false,
          "internalType": "uint256",
          "name": "depositTime",
          "type": "uint256"
        },
        {
          "indexed": false,
          "internalType": "uint256",
          "name": "depositBlockNumber",
          "type": "uint256"
        }
      ],
      "name": "Deposited",
      "type": "event"
    },
    {
      "anonymous": false,
      "inputs": [
        {
          "indexed": true,
          "internalType": "address",
          "name": "previousOwner",
          "type": "address"
        },
        {
          "indexed": true,
          "internalType": "address",
          "name": "newOwner",
          "type": "address"
        }
      ],
      "name": "OwnershipTransferred",
      "type": "event"
    },
    {
      "anonymous": false,
      "inputs": [
        {
          "indexed": false,
          "internalType": "address",
          "name": "account",
          "type": "address"
        }
      ],
      "name": "Paused",
      "type": "event"
    },
    {
      "anonymous": false,
      "inputs": [
        {
          "indexed": false,
          "internalType": "uint256",
          "name": "stakingIndex",
          "type": "uint256"
        }
      ],
      "name": "StakingIndexUpdated",
      "type": "event"
    },
    {
      "anonymous": false,
      "inputs": [
        {
          "indexed": true,
          "internalType": "address",
          "name": "from",
          "type": "address"
        },
        {
          "indexed": true,
          "internalType": "address",
          "name": "to",
          "type": "address"
        },
        {
          "indexed": false,
          "internalType": "uint256",
          "name": "value",
          "type": "uint256"
        }
      ],
      "name": "Transfer",
      "type": "event"
    },
    {
      "anonymous": false,
      "inputs": [
        {
          "indexed": false,
          "internalType": "address",
          "name": "account",
          "type": "address"
        }
      ],
      "name": "Unpaused",
      "type": "event"
    },
    {
      "anonymous": false,
      "inputs": [
        {
          "indexed": false,
          "internalType": "address",
          "name": "_to",
          "type": "address"
        },
        {
          "indexed": false,
          "internalType": "uint256",
          "name": "amount",
          "type": "uint256"
        }
      ],
      "name": "WithdrawalProcessed",
      "type": "event"
    },
    {
      "anonymous": false,
      "inputs": [
        {
          "indexed": true,
          "internalType": "address",
          "name": "_to",
          "type": "address"
        },
        {
          "indexed": false,
          "internalType": "uint256",
          "name": "amount",
          "type": "uint256"
        }
      ],
      "name": "WithdrawalRequested",
      "type": "event"
    },
    {
      "inputs": [],
      "name": "DECIMALS",
      "outputs": [
        {
          "internalType": "uint256",
          "name": "",
          "type": "uint256"
        }
      ],
      "stateMutability": "view",
      "type": "function"
    },
    {
      "inputs": [
        {
          "internalType": "address",
          "name": "owner",
          "type": "address"
        },
        {
          "internalType": "address",
          "name": "spender",
          "type": "address"
        }
      ],
      "name": "allowance",
      "outputs": [
        {
          "internalType": "uint256",
          "name": "",
          "type": "uint256"
        }
      ],
      "stateMutability": "view",
      "type": "function"
    },
    {
      "inputs": [
        {
          "internalType": "address",
          "name": "spender",
          "type": "address"
        },
        {
          "internalType": "uint256",
          "name": "value",
          "type": "uint256"
        }
      ],
      "name": "approve",
      "outputs": [
        {
          "internalType": "bool",
          "name": "",
          "type": "bool"
        }
      ],
      "stateMutability": "nonpayable",
      "type": "function"
    },
    {
      "inputs": [
        {
          "internalType": "address",
          "name": "account",
          "type": "address"
        }
      ],
      "name": "balanceOf",
      "outputs": [
        {
          "internalType": "uint256",
          "name": "",
          "type": "uint256"
        }
      ],
      "stateMutability": "view",
      "type": "function"
    },
    {
      "inputs": [],
      "name": "claimWithdrawal",
      "outputs": [],
      "stateMutability": "nonpayable",
      "type": "function"
    },
    {
      "inputs": [
        {
          "internalType": "address",
          "name": "_to",
          "type": "address"
        }
      ],
      "name": "claimWithdrawalTo",
      "outputs": [],
      "stateMutability": "nonpayable",
      "type": "function"
    },
    {
      "inputs": [],
      "name": "decimals",
      "outputs": [
        {
          "internalType": "uint8",
          "name": "",
          "type": "uint8"
        }
      ],
      "stateMutability": "view",
      "type": "function"
    },
    {
      "inputs": [
        {
          "internalType": "uint256",
          "name": "_amount",
          "type": "uint256"
        }
      ],
      "name": "depositAndGetWSTON",
      "outputs": [],
      "stateMutability": "nonpayable",
      "type": "function"
    },
    {
      "inputs": [
        {
          "internalType": "address",
          "name": "_to",
          "type": "address"
        },
        {
          "internalType": "uint256",
          "name": "_amount",
          "type": "uint256"
        }
      ],
      "name": "depositAndGetWSTONTo",
      "outputs": [],
      "stateMutability": "nonpayable",
      "type": "function"
    },
    {
      "inputs": [],
      "name": "depositManager",
      "outputs": [
        {
          "internalType": "address",
          "name": "",
          "type": "address"
        }
      ],
      "stateMutability": "view",
      "type": "function"
    },
    {
      "inputs": [
        {
          "internalType": "address",
          "name": "requester",
          "type": "address"
        }
      ],
      "name": "getLastWithdrawalRequest",
      "outputs": [
        {
          "components": [
            {
              "internalType": "uint256",
              "name": "withdrawableBlockNumber",
              "type": "uint256"
            },
            {
              "internalType": "uint256",
              "name": "amount",
              "type": "uint256"
            },
            {
              "internalType": "bool",
              "name": "processed",
              "type": "bool"
            }
          ],
          "internalType": "struct L1WrappedStakedTONStorage.WithdrawalRequest",
          "name": "",
          "type": "tuple"
        }
      ],
      "stateMutability": "view",
      "type": "function"
    },
    {
      "inputs": [],
      "name": "getTotalWSTONSupply",
      "outputs": [
        {
          "internalType": "uint256",
          "name": "",
          "type": "uint256"
        }
      ],
      "stateMutability": "view",
      "type": "function"
    },
    {
      "inputs": [
        {
          "internalType": "address",
          "name": "requester",
          "type": "address"
        },
        {
          "internalType": "uint256",
          "name": "index",
          "type": "uint256"
        }
      ],
      "name": "getWithdrawalRequest",
      "outputs": [
        {
          "components": [
            {
              "internalType": "uint256",
              "name": "withdrawableBlockNumber",
              "type": "uint256"
            },
            {
              "internalType": "uint256",
              "name": "amount",
              "type": "uint256"
            },
            {
              "internalType": "bool",
              "name": "processed",
              "type": "bool"
            }
          ],
          "internalType": "struct L1WrappedStakedTONStorage.WithdrawalRequest",
          "name": "",
          "type": "tuple"
        }
      ],
      "stateMutability": "view",
      "type": "function"
    },
    {
      "inputs": [],
      "name": "lastSeigBlock",
      "outputs": [
        {
          "internalType": "uint256",
          "name": "",
          "type": "uint256"
        }
      ],
      "stateMutability": "view",
      "type": "function"
    },
    {
      "inputs": [],
      "name": "layer2Address",
      "outputs": [
        {
          "internalType": "address",
          "name": "",
          "type": "address"
        }
      ],
      "stateMutability": "view",
      "type": "function"
    },
    {
      "inputs": [],
      "name": "name",
      "outputs": [
        {
          "internalType": "string",
          "name": "",
          "type": "string"
        }
      ],
      "stateMutability": "view",
      "type": "function"
    },
    {
      "inputs": [],
      "name": "owner",
      "outputs": [
        {
          "internalType": "address",
          "name": "",
          "type": "address"
        }
      ],
      "stateMutability": "view",
      "type": "function"
    },
    {
      "inputs": [],
      "name": "pause",
      "outputs": [],
      "stateMutability": "nonpayable",
      "type": "function"
    },
    {
      "inputs": [],
      "name": "renounceOwnership",
      "outputs": [],
      "stateMutability": "nonpayable",
      "type": "function"
    },
    {
      "inputs": [
        {
          "internalType": "uint256",
          "name": "_wstonAmount",
          "type": "uint256"
        }
      ],
      "name": "requestWithdrawal",
      "outputs": [],
      "stateMutability": "nonpayable",
      "type": "function"
    },
    {
      "inputs": [
        {
          "internalType": "address",
          "name": "_to",
          "type": "address"
        },
        {
          "internalType": "uint256",
          "name": "_wstonAmount",
          "type": "uint256"
        }
      ],
      "name": "requestWithdrawalTo",
      "outputs": [],
      "stateMutability": "nonpayable",
      "type": "function"
    },
    {
      "inputs": [],
      "name": "seigManager",
      "outputs": [
        {
          "internalType": "address",
          "name": "",
          "type": "address"
        }
      ],
      "stateMutability": "view",
      "type": "function"
    },
    {
      "inputs": [
        {
          "internalType": "address",
          "name": "_depositManager",
          "type": "address"
        }
      ],
      "name": "setDepositManagerAddress",
      "outputs": [],
      "stateMutability": "nonpayable",
      "type": "function"
    },
    {
      "inputs": [
        {
          "internalType": "address",
          "name": "_seigManager",
          "type": "address"
        }
      ],
      "name": "setSeigManagerAddress",
      "outputs": [],
      "stateMutability": "nonpayable",
      "type": "function"
    },
    {
      "inputs": [],
      "name": "stakeOf",
      "outputs": [
        {
          "internalType": "uint256",
          "name": "",
          "type": "uint256"
        }
      ],
      "stateMutability": "view",
      "type": "function"
    },
    {
      "inputs": [],
      "name": "stakingIndex",
      "outputs": [
        {
          "internalType": "uint256",
          "name": "",
          "type": "uint256"
        }
      ],
      "stateMutability": "view",
      "type": "function"
    },
    {
      "inputs": [],
      "name": "symbol",
      "outputs": [
        {
          "internalType": "string",
          "name": "",
          "type": "string"
        }
      ],
      "stateMutability": "view",
      "type": "function"
    },
    {
      "inputs": [],
      "name": "totalStakedAmount",
      "outputs": [
        {
          "internalType": "uint256",
          "name": "",
          "type": "uint256"
        }
      ],
      "stateMutability": "view",
      "type": "function"
    },
    {
      "inputs": [],
      "name": "totalSupply",
      "outputs": [
        {
          "internalType": "uint256",
          "name": "",
          "type": "uint256"
        }
      ],
      "stateMutability": "view",
      "type": "function"
    },
    {
      "inputs": [],
      "name": "totalWstonMinted",
      "outputs": [
        {
          "internalType": "uint256",
          "name": "",
          "type": "uint256"
        }
      ],
      "stateMutability": "view",
      "type": "function"
    },
    {
      "inputs": [
        {
          "internalType": "address",
          "name": "to",
          "type": "address"
        },
        {
          "internalType": "uint256",
          "name": "value",
          "type": "uint256"
        }
      ],
      "name": "transfer",
      "outputs": [
        {
          "internalType": "bool",
          "name": "",
          "type": "bool"
        }
      ],
      "stateMutability": "nonpayable",
      "type": "function"
    },
    {
      "inputs": [
        {
          "internalType": "address",
          "name": "from",
          "type": "address"
        },
        {
          "internalType": "address",
          "name": "to",
          "type": "address"
        },
        {
          "internalType": "uint256",
          "name": "value",
          "type": "uint256"
        }
      ],
      "name": "transferFrom",
      "outputs": [
        {
          "internalType": "bool",
          "name": "",
          "type": "bool"
        }
      ],
      "stateMutability": "nonpayable",
      "type": "function"
    },
    {
      "inputs": [
        {
          "internalType": "address",
          "name": "newOwner",
          "type": "address"
        }
      ],
      "name": "transferOwnership",
      "outputs": [],
      "stateMutability": "nonpayable",
      "type": "function"
    },
    {
      "inputs": [],
      "name": "unpause",
      "outputs": [],
      "stateMutability": "nonpayable",
      "type": "function"
    },
    {
      "inputs": [],
      "name": "updateSeigniorage",
      "outputs": [
        {
          "internalType": "bool",
          "name": "",
          "type": "bool"
        }
      ],
      "stateMutability": "nonpayable",
      "type": "function"
    },
    {
      "inputs": [
        {
          "internalType": "address",
          "name": "",
          "type": "address"
        },
        {
          "internalType": "uint256",
          "name": "",
          "type": "uint256"
        }
      ],
      "name": "withdrawalRequests",
      "outputs": [
        {
          "internalType": "uint256",
          "name": "withdrawableBlockNumber",
          "type": "uint256"
        },
        {
          "internalType": "uint256",
          "name": "amount",
          "type": "uint256"
        },
        {
          "internalType": "bool",
          "name": "processed",
          "type": "bool"
        }
      ],
      "stateMutability": "view",
      "type": "function"
    },
    {
      "inputs": [],
      "name": "wton",
      "outputs": [
        {
          "internalType": "address",
          "name": "",
          "type": "address"
        }
      ],
      "stateMutability": "view",
      "type": "function"
    }
  ],
  "bytecode": "0x60806040523461044f576122638038038061001981610454565b92833981019060c08183031261044f5761003281610479565b9061003f60208201610479565b9261004c60408301610479565b9061005960608401610479565b60808401519093906001600160401b03811161044f578261007b91830161048d565b60a08201519092906001600160401b03811161044f5761009b920161048d565b9033156104365760008054336001600160a01b0319821681178355916001600160a01b03909116907f8be0079c531659141344cd1fd0a4f28419497f9722a3daafe3b4186f6b6457e09080a38051906001600160401b0382116103185760045490600182811c9216801561042c575b60208310146102f85781601f8493116103bf575b50602090601f83116001146103395760009261032e575b50508160011b916000199060031b1c1916176004555b80516001600160401b03811161031857600591825490600182811c9216801561030e575b60208310146102f85781601f8493116102a7575b50602090601f831160011461024157600092610236575b50508160011b916000199060031b1c19161790555b6001601055600880546001600160a01b03199081166001600160a01b039384161782556009805482169484169490941790935560068054610100600160a81b0319169490911b610100600160a81b03169390931790925560078054909116929091169190911790556b033b2e3c9fd0803ce8000000600c55604051611d6a90816104f98239f35b01519050388061019a565b6000858152602081209350601f198516905b81811061028f5750908460019594939210610276575b505050811b0190556101af565b015160001960f88460031b161c19169055388080610269565b92936020600181928786015181550195019301610253565b909150836000526020600020601f8401851c810191602085106102ee575b90601f8594939201861c01905b8181106102df5750610183565b600081558493506001016102d2565b90915081906102c5565b634e487b7160e01b600052602260045260246000fd5b91607f169161016f565b634e487b7160e01b600052604160045260246000fd5b015190503880610135565b600460009081527f8a35acfbc15ff81a39ae7d344fd709f28e8600b4aa8c65c6b64bfe7fe36bd19b9350601f198516905b8181106103a7575090846001959493921061038e575b505050811b0160045561014b565b015160001960f88460031b161c19169055388080610380565b9293602060018192878601518155019501930161036a565b60046000529091507f8a35acfbc15ff81a39ae7d344fd709f28e8600b4aa8c65c6b64bfe7fe36bd19b601f840160051c810160208510610425575b90849392915b601f830160051c8201811061041657505061011e565b60008155859450600101610400565b50806103fa565b91607f169161010a565b604051631e4fbdf760e01b815260006004820152602490fd5b600080fd5b6040519190601f01601f191682016001600160401b0381118382101761031857604052565b51906001600160a01b038216820361044f57565b919080601f8401121561044f5782516001600160401b038111610318576020906104bf601f8201601f19168301610454565b9281845282828701011161044f5760005b8181106104e557508260009394955001015290565b85810183015184820184015282016104d056fe608060408181526004918236101561001657600080fd5b600092833560e01c91826306fdde0314610d1657508163095ea7b314610c6c578163146bb96614610c3457816318160ddd1461065f57816323b872dd14610b4a5781632aafb1f014610b165781632e0f262514610af057816330f5085914610ad1578163313ce56714610ab55781633f4ba83a14610a1f5781634d3d629f146109f25781634e5a232814610985578163567e98f91461096657816363b075681461065f5781636c7ac9d81461093d5781636e66d84a1461090c5781636fb7f558146108e357816370a08231146108ab578163715018a61461085157838263764a7856146107c2575081637ed72d16146107745781637f4649b71461072f5781638456cb59146106cf5781638d62d949146106a65781638da5cb5b1461067e5781638fb749a11461065f57816395d89b411461057c5781639ee679e8146104d5578163a9059cbb146104a4578163aa7385241461045f578163cb8550fa14610410578163d6960d12146103ec578163dd62ed3e146103a3578163e7ee1ca1146102e5578163f2847e641461026a578163f2fde38b146101df575063f35c89e8146101be57600080fd5b346101db57816003193601126101db57602090600d549051908152f35b5080fd5b905034610266576020366003190112610266576101fa610e36565b90610203611927565b6001600160a01b0391821692831561025057505082546001600160a01b0319811683178455167f8be0079c531659141344cd1fd0a4f28419497f9722a3daafe3b4186f6b6457e08380a380f35b51631e4fbdf760e01b8152908101849052602490fd5b8280fd5b5050346101db57806003193601126101db576102b96102b36102e19361028e610e36565b610296610fcc565b506001600160a01b03168152600e60205283902060243590610e67565b50610feb565b9051918291829190916040806060830194805184526020810151602085015201511515910152565b0390f35b91905034610266578060031936011261026657610300610e36565b91602060065461031360ff821615610eeb565b602460018060a01b0391826008541686519586948593635af8ced960e11b855260081c16908301525afa91821561039a57508391610366575b5061035e906103639260243590611973565b611018565b80f35b90506020813d602011610392575b8161038160209383610eca565b81010312610266575161036361034c565b3d9150610374565b513d85823e3d90fd5b5050346101db57806003193601126101db57806020926103c1610e36565b6103c9610e51565b6001600160a01b0391821683526002865283832091168252845220549051908152f35b5050346101db57816003193601126101db57602090610409611063565b9051908152f35b5050346101db5736600319011261045c5761045461044f61042f610e36565b61043e60ff6006541615610eeb565b6104466110e6565b60243590611147565b610f2a565b600160105580f35b80fd5b833461045c57602036600319011261045c57610479610e36565b610481611927565b600980546001600160a01b0319166001600160a01b039290921691909117905580f35b5050346101db57806003193601126101db576020906104ce6104c4610e36565b602435903361159c565b5160018152f35b91905034610266576020366003190112610266576006546104f960ff821615610eeb565b600880548351635af8ced960e11b81529290911c6001600160a01b039081168584015260209183916024918391165afa91821561039a57508391610548575b5061035e90610363923533611973565b90506020813d602011610574575b8161056360209383610eca565b810103126102665751610363610538565b3d9150610556565b9190503461026657826003193601126102665780519183600554906001908260011c92600181168015610655575b6020958686108214610642575084885290811561062057506001146105e5575b6102e186866105db828b0383610eca565b5191829182610ded565b929550600583528583205b82841061060d57505050826102e1946105db9282010194386105ca565b80548685018801529286019281016105f0565b60ff191687860152505050151560051b83010192506105db826102e1386105ca565b634e487b7160e01b845260229052602483fd5b93607f16936105aa565b5050346101db57816003193601126101db57602090600b549051908152f35b5050346101db57816003193601126101db57905490516001600160a01b039091168152602090f35b5050346101db57816003193601126101db5760075490516001600160a01b039091168152602090f35b5050346101db57816003193601126101db5760207f62e78cea01bee320cd4e420270b5ea74000d11b0c9f74754ebdbfc544b05a2589161070d611927565b600160065461071f60ff821615610eeb565b60ff19161760065551338152a180f35b833461045c57602036600319011261045c57610749610e36565b610751611927565b600880546001600160a01b0319166001600160a01b039290921691909117905580f35b5050346101db5760203660031901126101db576102b96102b36102e193610799610e36565b6107a1610fcc565b5060018060a01b03168152600f602052838082205491600e60205220610e67565b9150346101db57816003193601126101db576009548351633b253c2b60e11b8152926020928492909183916001600160a01b03165af1908115610845578391610816575b50156101db576020905160018152f35b610838915060203d60201161083e575b6108308183610eca565b810190610fb4565b38610806565b503d610826565b505051903d90823e3d90fd5b833461045c578060031936011261045c5761086a611927565b80546001600160a01b03198116825581906001600160a01b03167f8be0079c531659141344cd1fd0a4f28419497f9722a3daafe3b4186f6b6457e08280a380f35b5050346101db5760203660031901126101db5760209181906001600160a01b036108d3610e36565b1681526001845220549051908152f35b5050346101db57816003193601126101db5760095490516001600160a01b039091168152602090f35b833461045c578060031936011261045c5761092c60ff6006541615610eeb565b61036361093833611655565b610f76565b5050346101db57816003193601126101db5760085490516001600160a01b039091168152602090f35b5050346101db57816003193601126101db57602090600a549051908152f35b5050346101db57806003193601126101db5761099f610e36565b6001600160a01b03168252600e6020528082208054602435939084101561045c57506060926109cd91610e67565b509081549160ff60026001830154920154169082519384526020840152151590820152f35b5050346101db57816003193601126101db57600654905160089190911c6001600160a01b03168152602090f35b905034610266578260031936011261026657610a39611927565b6006549060ff821615610a7b575060ff1916600655513381527f5db9ee0a495bf2e6ff9c91a7834c1ba4fdd244a5e8aa4e537bd38aeae4b073aa90602090a180f35b606490602084519162461bcd60e51b8352820152601460248201527314185d5cd8589b194e881b9bdd081c185d5cd95960621b6044820152fd5b5050346101db57816003193601126101db5760209051601b8152f35b5050346101db57816003193601126101db57602090600c549051908152f35b5050346101db57816003193601126101db5751676765c793fa10079d601b1b8152602090f35b833461045c57602036600319011261045c57610363610938610b36610e36565b610b4560ff6006541615610eeb565b611655565b9050823461045c57606036600319011261045c57610b66610e36565b610b6e610e51565b916044359360018060a01b038316808352600260205286832033845260205286832054916000198303610baa575b6020886104ce89898961159c565b868310610c12578115610bfb573315610be4575082526002602090815286832033845281529186902090859003905582906104ce87610b9c565b8751634a1406b160e11b8152908101849052602490fd5b875163e602df0560e01b8152908101849052602490fd5b9050610c30868851938493637dc7a0d960e11b85523390850161157e565b0390fd5b8390346101db5760203660031901126101db5761044f61045491610c5d60ff6006541615610eeb565b610c656110e6565b3533611147565b905034610266578160031936011261026657610c86610e36565b602435903315610cff576001600160a01b0316918215610ce857508083602095338152600287528181208582528752205582519081527f8c5be1e5ebec7d5bd14f71427d1e84f3dd0314c0f7b2291e5b200ac8c7c3b925843392a35160018152f35b8351634a1406b160e11b8152908101859052602490fd5b835163e602df0560e01b8152808401869052602490fd5b83853461045c578060031936011261045c5780938054916001908360011c9260018516948515610de3575b6020958686108114610dd057858952908115610dac5750600114610d71575b6102e187876105db828c0383610eca565b9080949750528583205b828410610d9957505050826102e1946105db92820101948680610d60565b8054868501880152928601928101610d7b565b60ff19168887015250505050151560051b83010192506105db826102e18680610d60565b634e487b7160e01b845260228352602484fd5b93607f1693610d41565b6020808252825181830181905290939260005b828110610e2257505060409293506000838284010152601f8019910116010190565b818101860151848201604001528501610e00565b600435906001600160a01b0382168203610e4c57565b600080fd5b602435906001600160a01b0382168203610e4c57565b8054821015610e83576000526003602060002091020190600090565b634e487b7160e01b600052603260045260246000fd5b606081019081106001600160401b03821117610eb457604052565b634e487b7160e01b600052604160045260246000fd5b90601f801991011681019081106001600160401b03821117610eb457604052565b15610ef257565b60405162461bcd60e51b815260206004820152601060248201526f14185d5cd8589b194e881c185d5cd95960821b6044820152606490fd5b15610f3157565b60405162461bcd60e51b815260206004820152601f60248201527f6661696c656420746f206465706f73697420616e6420676574205753544f4e006044820152606490fd5b15610f7d57565b60405162461bcd60e51b815260206004820152600f60248201526e6661696c656420746f20636c61696d60881b6044820152606490fd5b90816020910312610e4c57518015158103610e4c5790565b60405190610fd982610e99565b60006040838281528260208201520152565b90604051610ff881610e99565b604060ff6002839580548552600181015460208601520154161515910152565b1561101f57565b60405162461bcd60e51b815260206004820152601c60248201527b19985a5b1959081d1bc81c995c5d595cdd081dda5d1a191c985dd85b60221b6044820152606490fd5b60018060a01b03602081600954169160065460081c166044604051809481936367265c3b60e11b835260048301523060248301525afa9081156110da576000916110ab575090565b90506020813d6020116110d2575b816110c660209383610eca565b81010312610e4c575190565b3d91506110b9565b6040513d6000823e3d90fd5b6002601054146110f7576002601055565b604051633ee5aeb560e01b8152600490fd5b6001600160a01b039091168152602081019190915260400190565b9190820180921161113157565b634e487b7160e01b600052601160045260246000fd5b81156115395760018060a01b03918260075416906040918251906323b872dd60e01b8252856004951695868684015260249030828501528460448501526020938481606481600080985af19081156113d057849161151c575b50156114c957600d54151580611468575b6113da575b43600d55600080516020611cf5833981519152846111d2611c1f565b80600c558851908152a1611207848683600754168460085416878c8c519687958694859363095ea7b360e01b85528401611109565b03925af180156113d05761124892869288926113b3575b5080600854169060065460081c16868b8b51968795869485936311f9fbc960e21b85528401611109565b03925af19081156113a957839161138c575b501561135957676765c793fa10079d601b1b84026b033b2e3c9fd0803ce7ffffff198582040161134757600c5461129091611953565b9561129d85600a54611124565b600a558715611333575050918593917fe3b53cd1a44fbf11535e145d80b8ef1ed6d57a73bf5daa7e939b6b01657d65499686946112de60a098600354611124565b60035581815260018352848120868154019055600080516020611d15833981519152838651888152a361131384600b54611124565b600b558251948552840152820152426060820152436080820152a1600190565b855163ec442f0560e01b8152908101839052fd5b50634e487b7160e01b82526011865290fd5b85600f6064928588519362461bcd60e51b85528401528201526e6661696c656420746f207374616b6560881b6044820152fd5b6113a39150843d861161083e576108308183610eca565b3861125a565b86513d85823e3d90fd5b6113c990843d861161083e576108308183610eca565b503861121e565b87513d86823e3d90fd5b82848260065460081c1689895180948193633b253c2b60e11b83525af19081156113d057849161144b575b506111b657855162461bcd60e51b8152808801859052601c818401527b6661696c656420746f2075706461746520736569676e696f7261676560201b6044820152606490fd5b6114629150853d871161083e576108308183610eca565b38611405565b5086848260095416885192838092631e6b913d60e31b82525afa9081156113d0578491611498575b5043116111b1565b90508481813d83116114c2575b6114af8183610eca565b810103126114be575138611490565b8380fd5b503d6114a5565b855162461bcd60e51b81528088018590526028818401527f6661696c656420746f207472616e736665722077746f6e20746f20746869732060448201526718dbdb9d1c9858dd60c21b6064820152608490fd5b6115339150853d871161083e576108308183610eca565b386111a0565b60405162461bcd60e51b815260206004820152601f60248201527f616d6f756e74206d75737420626520646966666572656e742066726f6d2030006044820152606490fd5b604091949392606082019560018060a01b0316825260208201520152565b916001600160a01b0380841692831561163c571692831561162357600090838252600160205260408220549083821061160657509160408282600080516020611d1583398151915295876020965260018652038282205586815220818154019055604051908152a3565b610c308460405193849363391434e360e21b85526004850161157e565b60405163ec442f0560e01b815260006004820152602490fd5b604051634b637e8f60e11b815260006004820152602490fd5b9060018060a01b038083169260008481526020600f815260409586832054600e8352808885205411156118eb5761169590828552600e8452888520610e67565b509060028201805460ff81166118b357835443106118735760019060ff19161790558352600f82528683208054906001820180921161185f579060019291550154938282826008541660448460065460081c168b519485938492636105226360e11b845260048401528160248401525af1908115611855578491611838575b50156102665760075416918651818084830163a9059cbb60e01b81528361173f8a8a60248401611109565b0393611753601f1995868101835282610eca565b519082885af1903d1561182a573d6001600160401b0381116118165790611799939291611789868c5193601f8401160183610eca565b81528092853d92013e5b84611c91565b80519182151592836117fd575b5050506117e657506117de7f5abb0fc89def2ee3226cc48f5621ee8e2b45f6dcc7898d2bdb5d480533c32bc093945192839283611109565b0390a1600190565b602490855190635274afe760e01b82526004820152fd5b61180d9350820181019101610fb4565b153880806117a6565b634e487b7160e01b84526041600452602484fd5b506117999150606090611793565b61184f9150833d851161083e576108308183610eca565b38611714565b88513d86823e3d90fd5b634e487b7160e01b85526011600452602485fd5b895162461bcd60e51b81526004810186905260196024820152787761697420666f72207769746864726177616c2064656c617960381b6044820152606490fd5b895162461bcd60e51b8152600481018690526011602482015270185b1c9958591e481c1c9bd8d95cdcd959607a1b6044820152606490fd5b875162461bcd60e51b81526004810184905260156024820152746e6f207265717565737420746f2070726f6365737360581b6044820152606490fd5b6000546001600160a01b0316330361193b57565b60405163118cdaa760e01b8152336004820152602490fd5b811561195d570490565b634e487b7160e01b600052601260045260246000fd5b91909160018060a01b0392838216926000848152600195602094878652604093858585205410611be8576119a5611c1f565b80600c55600080516020611cf5833981519152888751838152a180870290878204148715171561185f57676765c793fa10079d601b1b900483600854169360065460081c1693888751809263da95ebf760e01b8252818981611a0c8860049c8d8401611109565b03925af1908115611bde578691611bc1575b5015611b6057888552600e8852611a388686209243611124565b90865191611a4583610e99565b825288820190815286820186815283549093600160401b821015611b4d5790611a72918d82018155610e67565b929092611b3b579060029291518255518b820155019051151560ff801983541691161790558615611b25578683528786528383205491858310611b0a57505090837fe670e4e82118d22a1f9ee18920455ebc958bae26a90a05d31d3378788b1b0e44959493928783528886520382822055826003540360035585600080516020611d15833981519152858451868152a351908152a290565b610c308684875194859463391434e360e21b8652850161157e565b509151634b637e8f60e11b815291820152602490fd5b634e487b7160e01b8752868652602487fd5b634e487b7160e01b885260418752602488fd5b855162461bcd60e51b8152808501899052603560248201527f6661696c656420746f2072657175657374207769746864726177616c2066726f60448201527436903a3432903232b837b9b4ba1036b0b730b3b2b960591b6064820152608490fd5b611bd89150893d8b1161083e576108308183610eca565b38611a1e565b87513d88823e3d90fd5b845162461bcd60e51b815260048101889052601060248201526f6e6f7420656e6f7567682066756e647360801b6044820152606490fd5b611c27611063565b600b5480151580611c88575b15611c7e57676765c793fa10079d601b1b828102928015908404909114171561113157611c5f91611953565b80600c55600080516020611cf58339815191526020604051838152a190565b5050600c54611c5f565b50811515611c33565b90611cb85750805115611ca657805190602001fd5b604051630a12f52160e11b8152600490fd5b81511580611ceb575b611cc9575090565b604051639996b31560e01b81526001600160a01b039091166004820152602490fd5b50803b15611cc156fe30ce0c4920695ae7b30f6304002cac26f3bffd83b1b84b281d4495ec83956c49ddf252ad1be2c89b69c2b068fc378daa952ba7f163c4a11628f55a4df523b3efa264697066735822122009f5e92d3523f53cd405a594a1854d2d74decd45b38de4bbe878d41e11657a1264736f6c63430008190033",
  "linkReferences": {},
  "deployedLinkReferences": {}
}