{
  "_format": "hh-sol-artifact-1",
  "contractName": "L1WrappedStakedTON",
  "sourceName": "src/L1/L1WrappedStakedTON.sol",
  "abi": [
    {
      "inputs": [
        {
          "internalType": "address",
          "name": "_layer2Address",
          "type": "address"
        },
        {
          "internalType": "address",
          "name": "_wton",
          "type": "address"
        },
        {
          "internalType": "address",
          "name": "_depositManager",
          "type": "address"
        },
        {
          "internalType": "address",
          "name": "_seigManager",
          "type": "address"
        },
        {
          "internalType": "string",
          "name": "_name",
          "type": "string"
        },
        {
          "internalType": "string",
          "name": "_symbol",
          "type": "string"
        }
      ],
      "stateMutability": "nonpayable",
      "type": "constructor"
    },
    {
      "inputs": [
        {
          "internalType": "address",
          "name": "target",
          "type": "address"
        }
      ],
      "name": "AddressEmptyCode",
      "type": "error"
    },
    {
      "inputs": [
        {
          "internalType": "address",
          "name": "account",
          "type": "address"
        }
      ],
      "name": "AddressInsufficientBalance",
      "type": "error"
    },
    {
      "inputs": [
        {
          "internalType": "address",
          "name": "spender",
          "type": "address"
        },
        {
          "internalType": "uint256",
          "name": "allowance",
          "type": "uint256"
        },
        {
          "internalType": "uint256",
          "name": "needed",
          "type": "uint256"
        }
      ],
      "name": "ERC20InsufficientAllowance",
      "type": "error"
    },
    {
      "inputs": [
        {
          "internalType": "address",
          "name": "sender",
          "type": "address"
        },
        {
          "internalType": "uint256",
          "name": "balance",
          "type": "uint256"
        },
        {
          "internalType": "uint256",
          "name": "needed",
          "type": "uint256"
        }
      ],
      "name": "ERC20InsufficientBalance",
      "type": "error"
    },
    {
      "inputs": [
        {
          "internalType": "address",
          "name": "approver",
          "type": "address"
        }
      ],
      "name": "ERC20InvalidApprover",
      "type": "error"
    },
    {
      "inputs": [
        {
          "internalType": "address",
          "name": "receiver",
          "type": "address"
        }
      ],
      "name": "ERC20InvalidReceiver",
      "type": "error"
    },
    {
      "inputs": [
        {
          "internalType": "address",
          "name": "sender",
          "type": "address"
        }
      ],
      "name": "ERC20InvalidSender",
      "type": "error"
    },
    {
      "inputs": [
        {
          "internalType": "address",
          "name": "spender",
          "type": "address"
        }
      ],
      "name": "ERC20InvalidSpender",
      "type": "error"
    },
    {
      "inputs": [],
      "name": "FailedInnerCall",
      "type": "error"
    },
    {
      "inputs": [
        {
          "internalType": "address",
          "name": "owner",
          "type": "address"
        }
      ],
      "name": "OwnableInvalidOwner",
      "type": "error"
    },
    {
      "inputs": [
        {
          "internalType": "address",
          "name": "account",
          "type": "address"
        }
      ],
      "name": "OwnableUnauthorizedAccount",
      "type": "error"
    },
    {
      "inputs": [],
      "name": "ReentrancyGuardReentrantCall",
      "type": "error"
    },
    {
      "inputs": [
        {
          "internalType": "address",
          "name": "token",
          "type": "address"
        }
      ],
      "name": "SafeERC20FailedOperation",
      "type": "error"
    },
    {
      "anonymous": false,
      "inputs": [
        {
          "indexed": true,
          "internalType": "address",
          "name": "owner",
          "type": "address"
        },
        {
          "indexed": true,
          "internalType": "address",
          "name": "spender",
          "type": "address"
        },
        {
          "indexed": false,
          "internalType": "uint256",
          "name": "value",
          "type": "uint256"
        }
      ],
      "name": "Approval",
      "type": "event"
    },
    {
      "anonymous": false,
      "inputs": [
        {
          "indexed": true,
          "internalType": "address",
          "name": "owner",
          "type": "address"
        },
        {
          "indexed": true,
          "internalType": "address",
          "name": "spender",
          "type": "address"
        },
        {
          "indexed": false,
          "internalType": "uint256",
          "name": "value",
          "type": "uint256"
        }
      ],
      "name": "DebugAllowance",
      "type": "event"
    },
    {
      "anonymous": false,
      "inputs": [
        {
          "indexed": true,
          "internalType": "address",
          "name": "account",
          "type": "address"
        },
        {
          "indexed": false,
          "internalType": "uint256",
          "name": "balance",
          "type": "uint256"
        }
      ],
      "name": "DebugBalance",
      "type": "event"
    },
    {
      "anonymous": false,
      "inputs": [
        {
          "indexed": false,
          "internalType": "address",
          "name": "to",
          "type": "address"
        },
        {
          "indexed": false,
          "internalType": "uint256",
          "name": "amount",
          "type": "uint256"
        },
        {
          "indexed": false,
          "internalType": "uint256",
          "name": "wstonAmount",
          "type": "uint256"
        },
        {
          "indexed": false,
          "internalType": "uint256",
          "name": "depositTime",
          "type": "uint256"
        },
        {
          "indexed": false,
          "internalType": "uint256",
          "name": "depositBlockNumber",
          "type": "uint256"
        }
      ],
      "name": "Deposited",
      "type": "event"
    },
    {
      "anonymous": false,
      "inputs": [
        {
          "indexed": true,
          "internalType": "address",
          "name": "previousOwner",
          "type": "address"
        },
        {
          "indexed": true,
          "internalType": "address",
          "name": "newOwner",
          "type": "address"
        }
      ],
      "name": "OwnershipTransferred",
      "type": "event"
    },
    {
      "anonymous": false,
      "inputs": [
        {
          "indexed": false,
          "internalType": "address",
          "name": "account",
          "type": "address"
        }
      ],
      "name": "Paused",
      "type": "event"
    },
    {
      "anonymous": false,
      "inputs": [
        {
          "indexed": false,
          "internalType": "uint256",
          "name": "stakingIndex",
          "type": "uint256"
        }
      ],
      "name": "StakingIndexUpdated",
      "type": "event"
    },
    {
      "anonymous": false,
      "inputs": [
        {
          "indexed": true,
          "internalType": "address",
          "name": "from",
          "type": "address"
        },
        {
          "indexed": true,
          "internalType": "address",
          "name": "to",
          "type": "address"
        },
        {
          "indexed": false,
          "internalType": "uint256",
          "name": "value",
          "type": "uint256"
        }
      ],
      "name": "Transfer",
      "type": "event"
    },
    {
      "anonymous": false,
      "inputs": [
        {
          "indexed": false,
          "internalType": "address",
          "name": "account",
          "type": "address"
        }
      ],
      "name": "Unpaused",
      "type": "event"
    },
    {
      "anonymous": false,
      "inputs": [
        {
          "indexed": false,
          "internalType": "address",
          "name": "_to",
          "type": "address"
        },
        {
          "indexed": false,
          "internalType": "uint256",
          "name": "amount",
          "type": "uint256"
        }
      ],
      "name": "WithdrawalProcessed",
      "type": "event"
    },
    {
      "anonymous": false,
      "inputs": [
        {
          "indexed": true,
          "internalType": "address",
          "name": "_to",
          "type": "address"
        },
        {
          "indexed": false,
          "internalType": "uint256",
          "name": "amount",
          "type": "uint256"
        }
      ],
      "name": "WithdrawalRequested",
      "type": "event"
    },
    {
      "inputs": [],
      "name": "DECIMALS",
      "outputs": [
        {
          "internalType": "uint256",
          "name": "",
          "type": "uint256"
        }
      ],
      "stateMutability": "view",
      "type": "function"
    },
    {
      "inputs": [
        {
          "internalType": "address",
          "name": "owner",
          "type": "address"
        },
        {
          "internalType": "address",
          "name": "spender",
          "type": "address"
        }
      ],
      "name": "allowance",
      "outputs": [
        {
          "internalType": "uint256",
          "name": "",
          "type": "uint256"
        }
      ],
      "stateMutability": "view",
      "type": "function"
    },
    {
      "inputs": [
        {
          "internalType": "address",
          "name": "spender",
          "type": "address"
        },
        {
          "internalType": "uint256",
          "name": "value",
          "type": "uint256"
        }
      ],
      "name": "approve",
      "outputs": [
        {
          "internalType": "bool",
          "name": "",
          "type": "bool"
        }
      ],
      "stateMutability": "nonpayable",
      "type": "function"
    },
    {
      "inputs": [
        {
          "internalType": "address",
          "name": "account",
          "type": "address"
        }
      ],
      "name": "balanceOf",
      "outputs": [
        {
          "internalType": "uint256",
          "name": "",
          "type": "uint256"
        }
      ],
      "stateMutability": "view",
      "type": "function"
    },
    {
      "inputs": [],
      "name": "claimWithdrawal",
      "outputs": [],
      "stateMutability": "nonpayable",
      "type": "function"
    },
    {
      "inputs": [
        {
          "internalType": "address",
          "name": "_to",
          "type": "address"
        }
      ],
      "name": "claimWithdrawalTo",
      "outputs": [],
      "stateMutability": "nonpayable",
      "type": "function"
    },
    {
      "inputs": [],
      "name": "decimals",
      "outputs": [
        {
          "internalType": "uint8",
          "name": "",
          "type": "uint8"
        }
      ],
      "stateMutability": "view",
      "type": "function"
    },
    {
      "inputs": [
        {
          "internalType": "uint256",
          "name": "_amount",
          "type": "uint256"
        }
      ],
      "name": "depositAndGetWSTON",
      "outputs": [],
      "stateMutability": "nonpayable",
      "type": "function"
    },
    {
      "inputs": [
        {
          "internalType": "address",
          "name": "_to",
          "type": "address"
        },
        {
          "internalType": "uint256",
          "name": "_amount",
          "type": "uint256"
        }
      ],
      "name": "depositAndGetWSTONTo",
      "outputs": [],
      "stateMutability": "nonpayable",
      "type": "function"
    },
    {
      "inputs": [],
      "name": "depositManager",
      "outputs": [
        {
          "internalType": "address",
          "name": "",
          "type": "address"
        }
      ],
      "stateMutability": "view",
      "type": "function"
    },
    {
      "inputs": [
        {
          "internalType": "address",
          "name": "requester",
          "type": "address"
        }
      ],
      "name": "getLastWithdrawalRequest",
      "outputs": [
        {
          "components": [
            {
              "internalType": "uint256",
              "name": "withdrawableBlockNumber",
              "type": "uint256"
            },
            {
              "internalType": "uint256",
              "name": "amount",
              "type": "uint256"
            },
            {
              "internalType": "bool",
              "name": "processed",
              "type": "bool"
            }
          ],
          "internalType": "struct L1WrappedStakedTONStorage.WithdrawalRequest",
          "name": "",
          "type": "tuple"
        }
      ],
      "stateMutability": "view",
      "type": "function"
    },
    {
      "inputs": [],
      "name": "getStakingIndex",
      "outputs": [
        {
          "internalType": "uint256",
          "name": "",
          "type": "uint256"
        }
      ],
      "stateMutability": "view",
      "type": "function"
    },
    {
      "inputs": [],
      "name": "getTotalWSTONSupply",
      "outputs": [
        {
          "internalType": "uint256",
          "name": "",
          "type": "uint256"
        }
      ],
      "stateMutability": "view",
      "type": "function"
    },
    {
      "inputs": [
        {
          "internalType": "address",
          "name": "requester",
          "type": "address"
        },
        {
          "internalType": "uint256",
          "name": "index",
          "type": "uint256"
        }
      ],
      "name": "getWithdrawalRequest",
      "outputs": [
        {
          "components": [
            {
              "internalType": "uint256",
              "name": "withdrawableBlockNumber",
              "type": "uint256"
            },
            {
              "internalType": "uint256",
              "name": "amount",
              "type": "uint256"
            },
            {
              "internalType": "bool",
              "name": "processed",
              "type": "bool"
            }
          ],
          "internalType": "struct L1WrappedStakedTONStorage.WithdrawalRequest",
          "name": "",
          "type": "tuple"
        }
      ],
      "stateMutability": "view",
      "type": "function"
    },
    {
      "inputs": [],
      "name": "lastSeigBlock",
      "outputs": [
        {
          "internalType": "uint256",
          "name": "",
          "type": "uint256"
        }
      ],
      "stateMutability": "view",
      "type": "function"
    },
    {
      "inputs": [],
      "name": "layer2Address",
      "outputs": [
        {
          "internalType": "address",
          "name": "",
          "type": "address"
        }
      ],
      "stateMutability": "view",
      "type": "function"
    },
    {
      "inputs": [],
      "name": "name",
      "outputs": [
        {
          "internalType": "string",
          "name": "",
          "type": "string"
        }
      ],
      "stateMutability": "view",
      "type": "function"
    },
    {
      "inputs": [],
      "name": "owner",
      "outputs": [
        {
          "internalType": "address",
          "name": "",
          "type": "address"
        }
      ],
      "stateMutability": "view",
      "type": "function"
    },
    {
      "inputs": [],
      "name": "pause",
      "outputs": [],
      "stateMutability": "nonpayable",
      "type": "function"
    },
    {
      "inputs": [],
      "name": "renounceOwnership",
      "outputs": [],
      "stateMutability": "nonpayable",
      "type": "function"
    },
    {
      "inputs": [
        {
          "internalType": "uint256",
          "name": "_wstonAmount",
          "type": "uint256"
        }
      ],
      "name": "requestWithdrawal",
      "outputs": [],
      "stateMutability": "nonpayable",
      "type": "function"
    },
    {
      "inputs": [
        {
          "internalType": "address",
          "name": "_to",
          "type": "address"
        },
        {
          "internalType": "uint256",
          "name": "_wstonAmount",
          "type": "uint256"
        }
      ],
      "name": "requestWithdrawalTo",
      "outputs": [],
      "stateMutability": "nonpayable",
      "type": "function"
    },
    {
      "inputs": [],
      "name": "seigManager",
      "outputs": [
        {
          "internalType": "address",
          "name": "",
          "type": "address"
        }
      ],
      "stateMutability": "view",
      "type": "function"
    },
    {
      "inputs": [
        {
          "internalType": "address",
          "name": "_depositManager",
          "type": "address"
        }
      ],
      "name": "setDepositManagerAddress",
      "outputs": [],
      "stateMutability": "nonpayable",
      "type": "function"
    },
    {
      "inputs": [
        {
          "internalType": "address",
          "name": "_seigManager",
          "type": "address"
        }
      ],
      "name": "setSeigManagerAddress",
      "outputs": [],
      "stateMutability": "nonpayable",
      "type": "function"
    },
    {
      "inputs": [],
      "name": "stakeOf",
      "outputs": [
        {
          "internalType": "uint256",
          "name": "",
          "type": "uint256"
        }
      ],
      "stateMutability": "view",
      "type": "function"
    },
    {
      "inputs": [],
      "name": "stakingIndex",
      "outputs": [
        {
          "internalType": "uint256",
          "name": "",
          "type": "uint256"
        }
      ],
      "stateMutability": "view",
      "type": "function"
    },
    {
      "inputs": [],
      "name": "symbol",
      "outputs": [
        {
          "internalType": "string",
          "name": "",
          "type": "string"
        }
      ],
      "stateMutability": "view",
      "type": "function"
    },
    {
      "inputs": [],
      "name": "totalStakedAmount",
      "outputs": [
        {
          "internalType": "uint256",
          "name": "",
          "type": "uint256"
        }
      ],
      "stateMutability": "view",
      "type": "function"
    },
    {
      "inputs": [],
      "name": "totalSupply",
      "outputs": [
        {
          "internalType": "uint256",
          "name": "",
          "type": "uint256"
        }
      ],
      "stateMutability": "view",
      "type": "function"
    },
    {
      "inputs": [],
      "name": "totalWstonMinted",
      "outputs": [
        {
          "internalType": "uint256",
          "name": "",
          "type": "uint256"
        }
      ],
      "stateMutability": "view",
      "type": "function"
    },
    {
      "inputs": [
        {
          "internalType": "address",
          "name": "to",
          "type": "address"
        },
        {
          "internalType": "uint256",
          "name": "value",
          "type": "uint256"
        }
      ],
      "name": "transfer",
      "outputs": [
        {
          "internalType": "bool",
          "name": "",
          "type": "bool"
        }
      ],
      "stateMutability": "nonpayable",
      "type": "function"
    },
    {
      "inputs": [
        {
          "internalType": "address",
          "name": "from",
          "type": "address"
        },
        {
          "internalType": "address",
          "name": "to",
          "type": "address"
        },
        {
          "internalType": "uint256",
          "name": "value",
          "type": "uint256"
        }
      ],
      "name": "transferFrom",
      "outputs": [
        {
          "internalType": "bool",
          "name": "",
          "type": "bool"
        }
      ],
      "stateMutability": "nonpayable",
      "type": "function"
    },
    {
      "inputs": [
        {
          "internalType": "address",
          "name": "newOwner",
          "type": "address"
        }
      ],
      "name": "transferOwnership",
      "outputs": [],
      "stateMutability": "nonpayable",
      "type": "function"
    },
    {
      "inputs": [],
      "name": "unpause",
      "outputs": [],
      "stateMutability": "nonpayable",
      "type": "function"
    },
    {
      "inputs": [],
      "name": "updateSeigniorage",
      "outputs": [
        {
          "internalType": "bool",
          "name": "",
          "type": "bool"
        }
      ],
      "stateMutability": "nonpayable",
      "type": "function"
    },
    {
      "inputs": [
        {
          "internalType": "address",
          "name": "",
          "type": "address"
        },
        {
          "internalType": "uint256",
          "name": "",
          "type": "uint256"
        }
      ],
      "name": "withdrawalRequests",
      "outputs": [
        {
          "internalType": "uint256",
          "name": "withdrawableBlockNumber",
          "type": "uint256"
        },
        {
          "internalType": "uint256",
          "name": "amount",
          "type": "uint256"
        },
        {
          "internalType": "bool",
          "name": "processed",
          "type": "bool"
        }
      ],
      "stateMutability": "view",
      "type": "function"
    },
    {
      "inputs": [],
      "name": "wton",
      "outputs": [
        {
          "internalType": "address",
          "name": "",
          "type": "address"
        }
      ],
      "stateMutability": "view",
      "type": "function"
    }
  ],
  "bytecode": "0x60806040523461044f576122338038038061001981610454565b92833981019060c08183031261044f5761003281610479565b9061003f60208201610479565b9261004c60408301610479565b9061005960608401610479565b60808401519093906001600160401b03811161044f578261007b91830161048d565b60a08201519092906001600160401b03811161044f5761009b920161048d565b9033156104365760008054336001600160a01b0319821681178355916001600160a01b03909116907f8be0079c531659141344cd1fd0a4f28419497f9722a3daafe3b4186f6b6457e09080a38051906001600160401b0382116103185760045490600182811c9216801561042c575b60208310146102f85781601f8493116103bf575b50602090601f83116001146103395760009261032e575b50508160011b916000199060031b1c1916176004555b80516001600160401b03811161031857600591825490600182811c9216801561030e575b60208310146102f85781601f8493116102a7575b50602090601f831160011461024157600092610236575b50508160011b916000199060031b1c19161790555b6001601055600880546001600160a01b03199081166001600160a01b039384161782556009805482169484169490941790935560068054610100600160a81b0319169490911b610100600160a81b03169390931790925560078054909116929091169190911790556b033b2e3c9fd0803ce8000000600c55604051611d3a90816104f98239f35b01519050388061019a565b6000858152602081209350601f198516905b81811061028f5750908460019594939210610276575b505050811b0190556101af565b015160001960f88460031b161c19169055388080610269565b92936020600181928786015181550195019301610253565b909150836000526020600020601f8401851c810191602085106102ee575b90601f8594939201861c01905b8181106102df5750610183565b600081558493506001016102d2565b90915081906102c5565b634e487b7160e01b600052602260045260246000fd5b91607f169161016f565b634e487b7160e01b600052604160045260246000fd5b015190503880610135565b600460009081527f8a35acfbc15ff81a39ae7d344fd709f28e8600b4aa8c65c6b64bfe7fe36bd19b9350601f198516905b8181106103a7575090846001959493921061038e575b505050811b0160045561014b565b015160001960f88460031b161c19169055388080610380565b9293602060018192878601518155019501930161036a565b60046000529091507f8a35acfbc15ff81a39ae7d344fd709f28e8600b4aa8c65c6b64bfe7fe36bd19b601f840160051c810160208510610425575b90849392915b601f830160051c8201811061041657505061011e565b60008155859450600101610400565b50806103fa565b91607f169161010a565b604051631e4fbdf760e01b815260006004820152602490fd5b600080fd5b6040519190601f01601f191682016001600160401b0381118382101761031857604052565b51906001600160a01b038216820361044f57565b919080601f8401121561044f5782516001600160401b038111610318576020906104bf601f8201601f19168301610454565b9281845282828701011161044f5760005b8181106104e557508260009394955001015290565b85810183015184820184015282016104d056fe608060408181526004918236101561001657600080fd5b600092833560e01c91826306fdde0314610d2157508163095ea7b314610c77578163146bb96614610c3f57816318160ddd1461066a57816323b872dd14610b555781632aafb1f014610b215781632e0f262514610afb57816330f5085914610990578163313ce56714610adf5781633f4ba83a14610a495781634d3d629f14610a1c5781634e5a2328146109af5781635074e0c814610990578163567e98f91461097157816363b075681461066a5781636c7ac9d8146109485781636e66d84a146109175781636fb7f558146108ee57816370a08231146108b6578163715018a61461085c57838263764a7856146107cd575081637ed72d161461077f5781637f4649b71461073a5781638456cb59146106da5781638d62d949146106b15781638da5cb5b146106895781638fb749a11461066a57816395d89b41146105875781639ee679e8146104e0578163a9059cbb146104af578163aa7385241461046a578163cb8550fa1461041b578163d6960d12146103f7578163dd62ed3e146103ae578163e7ee1ca1146102f0578163f2847e6414610275578163f2fde38b146101ea575063f35c89e8146101c957600080fd5b346101e657816003193601126101e657602090600d549051908152f35b5080fd5b90503461027157602036600319011261027157610205610e41565b9061020e61191b565b6001600160a01b0391821692831561025b57505082546001600160a01b0319811683178455167f8be0079c531659141344cd1fd0a4f28419497f9722a3daafe3b4186f6b6457e08380a380f35b51631e4fbdf760e01b8152908101849052602490fd5b8280fd5b5050346101e657806003193601126101e6576102c46102be6102ec93610299610e41565b6102a1610fd7565b506001600160a01b03168152600e60205283902060243590610e72565b50610ff6565b9051918291829190916040806060830194805184526020810151602085015201511515910152565b0390f35b9190503461027157806003193601126102715761030b610e41565b91602060065461031e60ff821615610ef6565b602460018060a01b0391826008541686519586948593635af8ced960e11b855260081c16908301525afa9182156103a557508391610371575b506103699061036e9260243590611967565b611023565b80f35b90506020813d60201161039d575b8161038c60209383610ed5565b81010312610271575161036e610357565b3d915061037f565b513d85823e3d90fd5b5050346101e657806003193601126101e657806020926103cc610e41565b6103d4610e5c565b6001600160a01b0391821683526002865283832091168252845220549051908152f35b5050346101e657816003193601126101e65760209061041461106e565b9051908152f35b5050346101e6573660031901126104675761045f61045a61043a610e41565b61044960ff6006541615610ef6565b6104516110f1565b60243590611152565b610f35565b600160105580f35b80fd5b833461046757602036600319011261046757610484610e41565b61048c61191b565b600980546001600160a01b0319166001600160a01b039290921691909117905580f35b5050346101e657806003193601126101e6576020906104d96104cf610e41565b6024359033611590565b5160018152f35b919050346102715760203660031901126102715760065461050460ff821615610ef6565b600880548351635af8ced960e11b81529290911c6001600160a01b039081168584015260209183916024918391165afa9182156103a557508391610553575b506103699061036e923533611967565b90506020813d60201161057f575b8161056e60209383610ed5565b81010312610271575161036e610543565b3d9150610561565b9190503461027157826003193601126102715780519183600554906001908260011c92600181168015610660575b602095868610821461064d575084885290811561062b57506001146105f0575b6102ec86866105e6828b0383610ed5565b5191829182610df8565b929550600583528583205b82841061061857505050826102ec946105e69282010194386105d5565b80548685018801529286019281016105fb565b60ff191687860152505050151560051b83010192506105e6826102ec386105d5565b634e487b7160e01b845260229052602483fd5b93607f16936105b5565b5050346101e657816003193601126101e657602090600b549051908152f35b5050346101e657816003193601126101e657905490516001600160a01b039091168152602090f35b5050346101e657816003193601126101e65760075490516001600160a01b039091168152602090f35b5050346101e657816003193601126101e65760207f62e78cea01bee320cd4e420270b5ea74000d11b0c9f74754ebdbfc544b05a2589161071861191b565b600160065461072a60ff821615610ef6565b60ff19161760065551338152a180f35b833461046757602036600319011261046757610754610e41565b61075c61191b565b600880546001600160a01b0319166001600160a01b039290921691909117905580f35b5050346101e65760203660031901126101e6576102c46102be6102ec936107a4610e41565b6107ac610fd7565b5060018060a01b03168152600f602052838082205491600e60205220610e72565b9150346101e657816003193601126101e6576009548351633b253c2b60e11b8152926020928492909183916001600160a01b03165af1908115610850578391610821575b50156101e6576020905160018152f35b610843915060203d602011610849575b61083b8183610ed5565b810190610fbf565b38610811565b503d610831565b505051903d90823e3d90fd5b833461046757806003193601126104675761087561191b565b80546001600160a01b03198116825581906001600160a01b03167f8be0079c531659141344cd1fd0a4f28419497f9722a3daafe3b4186f6b6457e08280a380f35b5050346101e65760203660031901126101e65760209181906001600160a01b036108de610e41565b1681526001845220549051908152f35b5050346101e657816003193601126101e65760095490516001600160a01b039091168152602090f35b833461046757806003193601126104675761093760ff6006541615610ef6565b61036e61094333611649565b610f81565b5050346101e657816003193601126101e65760085490516001600160a01b039091168152602090f35b5050346101e657816003193601126101e657602090600a549051908152f35b5050346101e657816003193601126101e657602090600c549051908152f35b5050346101e657806003193601126101e6576109c9610e41565b6001600160a01b03168252600e6020528082208054602435939084101561046757506060926109f791610e72565b509081549160ff60026001830154920154169082519384526020840152151590820152f35b5050346101e657816003193601126101e657600654905160089190911c6001600160a01b03168152602090f35b905034610271578260031936011261027157610a6361191b565b6006549060ff821615610aa5575060ff1916600655513381527f5db9ee0a495bf2e6ff9c91a7834c1ba4fdd244a5e8aa4e537bd38aeae4b073aa90602090a180f35b606490602084519162461bcd60e51b8352820152601460248201527314185d5cd8589b194e881b9bdd081c185d5cd95960621b6044820152fd5b5050346101e657816003193601126101e65760209051601b8152f35b5050346101e657816003193601126101e65751676765c793fa10079d601b1b8152602090f35b83346104675760203660031901126104675761036e610943610b41610e41565b610b5060ff6006541615610ef6565b611649565b9050823461046757606036600319011261046757610b71610e41565b610b79610e5c565b916044359360018060a01b038316808352600260205286832033845260205286832054916000198303610bb5575b6020886104d9898989611590565b868310610c1d578115610c06573315610bef575082526002602090815286832033845281529186902090859003905582906104d987610ba7565b8751634a1406b160e11b8152908101849052602490fd5b875163e602df0560e01b8152908101849052602490fd5b9050610c3b868851938493637dc7a0d960e11b855233908501611572565b0390fd5b8390346101e65760203660031901126101e65761045a61045f91610c6860ff6006541615610ef6565b610c706110f1565b3533611152565b905034610271578160031936011261027157610c91610e41565b602435903315610d0a576001600160a01b0316918215610cf357508083602095338152600287528181208582528752205582519081527f8c5be1e5ebec7d5bd14f71427d1e84f3dd0314c0f7b2291e5b200ac8c7c3b925843392a35160018152f35b8351634a1406b160e11b8152908101859052602490fd5b835163e602df0560e01b8152808401869052602490fd5b83853461046757806003193601126104675780938054916001908360011c9260018516948515610dee575b6020958686108114610ddb57858952908115610db75750600114610d7c575b6102ec87876105e6828c0383610ed5565b9080949750528583205b828410610da457505050826102ec946105e692820101948680610d6b565b8054868501880152928601928101610d86565b60ff19168887015250505050151560051b83010192506105e6826102ec8680610d6b565b634e487b7160e01b845260228352602484fd5b93607f1693610d4c565b6020808252825181830181905290939260005b828110610e2d57505060409293506000838284010152601f8019910116010190565b818101860151848201604001528501610e0b565b600435906001600160a01b0382168203610e5757565b600080fd5b602435906001600160a01b0382168203610e5757565b8054821015610e8e576000526003602060002091020190600090565b634e487b7160e01b600052603260045260246000fd5b606081019081106001600160401b03821117610ebf57604052565b634e487b7160e01b600052604160045260246000fd5b90601f801991011681019081106001600160401b03821117610ebf57604052565b15610efd57565b60405162461bcd60e51b815260206004820152601060248201526f14185d5cd8589b194e881c185d5cd95960821b6044820152606490fd5b15610f3c57565b60405162461bcd60e51b815260206004820152601f60248201527f6661696c656420746f206465706f73697420616e6420676574205753544f4e006044820152606490fd5b15610f8857565b60405162461bcd60e51b815260206004820152600f60248201526e6661696c656420746f20636c61696d60881b6044820152606490fd5b90816020910312610e5757518015158103610e575790565b60405190610fe482610ea4565b60006040838281528260208201520152565b9060405161100381610ea4565b604060ff6002839580548552600181015460208601520154161515910152565b1561102a57565b60405162461bcd60e51b815260206004820152601c60248201527b19985a5b1959081d1bc81c995c5d595cdd081dda5d1a191c985dd85b60221b6044820152606490fd5b60018060a01b03602081600954169160065460081c166044604051809481936367265c3b60e11b835260048301523060248301525afa9081156110e5576000916110b6575090565b90506020813d6020116110dd575b816110d160209383610ed5565b81010312610e57575190565b3d91506110c4565b6040513d6000823e3d90fd5b600260105414611102576002601055565b604051633ee5aeb560e01b8152600490fd5b6001600160a01b039091168152602081019190915260400190565b9190820180921161113c57565b634e487b7160e01b600052601160045260246000fd5b811561152d5760018060a01b03918260075416906040918251906323b872dd60e01b8252856004951695868684015260249030828501528460448501526020938481606481600080985af19081156113c4578491611510575b50156114bd57600d5415158061145c575b6113ce575b43600d556111cd611bfd565b600c556111fb848683600754168460085416878c8c519687958694859363095ea7b360e01b85528401611114565b03925af180156113c45761123c92869288926113a7575b5080600854169060065460081c16868b8b51968795869485936311f9fbc960e21b85528401611114565b03925af190811561139d578391611380575b501561134d57676765c793fa10079d601b1b84026b033b2e3c9fd0803ce7ffffff198582040161133b57600c5461128491611947565b9561129185600a5461112f565b600a558715611327575050918593917fe3b53cd1a44fbf11535e145d80b8ef1ed6d57a73bf5daa7e939b6b01657d65499686946112d260a09860035461112f565b60035581815260018352848120868154019055600080516020611ce5833981519152838651888152a361130784600b5461112f565b600b558251948552840152820152426060820152436080820152a1600190565b855163ec442f0560e01b8152908101839052fd5b50634e487b7160e01b82526011865290fd5b85600f6064928588519362461bcd60e51b85528401528201526e6661696c656420746f207374616b6560881b6044820152fd5b6113979150843d86116108495761083b8183610ed5565b3861124e565b86513d85823e3d90fd5b6113bd90843d86116108495761083b8183610ed5565b5038611212565b87513d86823e3d90fd5b82848260065460081c1689895180948193633b253c2b60e11b83525af19081156113c457849161143f575b506111c157855162461bcd60e51b8152808801859052601c818401527b6661696c656420746f2075706461746520736569676e696f7261676560201b6044820152606490fd5b6114569150853d87116108495761083b8183610ed5565b386113f9565b5086848260095416885192838092631e6b913d60e31b82525afa9081156113c457849161148c575b5043116111bc565b90508481813d83116114b6575b6114a38183610ed5565b810103126114b2575138611484565b8380fd5b503d611499565b855162461bcd60e51b81528088018590526028818401527f6661696c656420746f207472616e736665722077746f6e20746f20746869732060448201526718dbdb9d1c9858dd60c21b6064820152608490fd5b6115279150853d87116108495761083b8183610ed5565b386111ab565b60405162461bcd60e51b815260206004820152601f60248201527f616d6f756e74206d75737420626520646966666572656e742066726f6d2030006044820152606490fd5b604091949392606082019560018060a01b0316825260208201520152565b916001600160a01b0380841692831561163057169283156116175760009083825260016020526040822054908382106115fa57509160408282600080516020611ce583398151915295876020965260018652038282205586815220818154019055604051908152a3565b610c3b8460405193849363391434e360e21b855260048501611572565b60405163ec442f0560e01b815260006004820152602490fd5b604051634b637e8f60e11b815260006004820152602490fd5b9060018060a01b038083169260008481526020600f815260409586832054600e8352808885205411156118df5761168990828552600e8452888520610e72565b509060028201805460ff81166118a757835443106118675760019060ff19161790558352600f825286832080549060018201809211611853579060019291550154938282826008541660448460065460081c168b519485938492636105226360e11b845260048401528160248401525af190811561184957849161182c575b50156102715760075416918651818084830163a9059cbb60e01b8152836117338a8a60248401611114565b0393611747601f1995868101835282610ed5565b519082885af1903d1561181e573d6001600160401b03811161180a579061178d93929161177d868c5193601f8401160183610ed5565b81528092853d92013e5b84611c81565b80519182151592836117f1575b5050506117da57506117d27f5abb0fc89def2ee3226cc48f5621ee8e2b45f6dcc7898d2bdb5d480533c32bc093945192839283611114565b0390a1600190565b602490855190635274afe760e01b82526004820152fd5b6118019350820181019101610fbf565b1538808061179a565b634e487b7160e01b84526041600452602484fd5b5061178d9150606090611787565b6118439150833d85116108495761083b8183610ed5565b38611708565b88513d86823e3d90fd5b634e487b7160e01b85526011600452602485fd5b895162461bcd60e51b81526004810186905260196024820152787761697420666f72207769746864726177616c2064656c617960381b6044820152606490fd5b895162461bcd60e51b8152600481018690526011602482015270185b1c9958591e481c1c9bd8d95cdcd959607a1b6044820152606490fd5b875162461bcd60e51b81526004810184905260156024820152746e6f207265717565737420746f2070726f6365737360581b6044820152606490fd5b6000546001600160a01b0316330361192f57565b60405163118cdaa760e01b8152336004820152602490fd5b8115611951570490565b634e487b7160e01b600052601260045260246000fd5b91909160018060a01b0392838216926000848152600195602094878652604093858585205410611bc657611999611bfd565b80600c5580870290878204148715171561185357676765c793fa10079d601b1b900483600854169360065460081c1693888751809263da95ebf760e01b82528189816119ea8860049c8d8401611114565b03925af1908115611bbc578691611b9f575b5015611b3e57888552600e8852611a16868620924361112f565b90865191611a2383610ea4565b825288820190815286820186815283549093600160401b821015611b2b5790611a50918d82018155610e72565b929092611b19579060029291518255518b820155019051151560ff801983541691161790558615611b03578683528786528383205491858310611ae857505090837fe670e4e82118d22a1f9ee18920455ebc958bae26a90a05d31d3378788b1b0e44959493928783528886520382822055826003540360035585600080516020611ce5833981519152858451868152a351908152a290565b610c3b8684875194859463391434e360e21b86528501611572565b509151634b637e8f60e11b815291820152602490fd5b634e487b7160e01b8752868652602487fd5b634e487b7160e01b885260418752602488fd5b855162461bcd60e51b8152808501899052603560248201527f6661696c656420746f2072657175657374207769746864726177616c2066726f60448201527436903a3432903232b837b9b4ba1036b0b730b3b2b960591b6064820152608490fd5b611bb69150893d8b116108495761083b8183610ed5565b386119fc565b87513d88823e3d90fd5b845162461bcd60e51b815260048101889052601060248201526f6e6f7420656e6f7567682066756e647360801b6044820152606490fd5b611c0561106e565b600b5480151580611c78575b15611c6e57676765c793fa10079d601b1b828102928015908404909114171561113c57611c3d91611947565b80600c557f30ce0c4920695ae7b30f6304002cac26f3bffd83b1b84b281d4495ec83956c496020604051838152a190565b5050600c54611c3d565b50811515611c11565b90611ca85750805115611c9657805190602001fd5b604051630a12f52160e11b8152600490fd5b81511580611cdb575b611cb9575090565b604051639996b31560e01b81526001600160a01b039091166004820152602490fd5b50803b15611cb156feddf252ad1be2c89b69c2b068fc378daa952ba7f163c4a11628f55a4df523b3efa264697066735822122014fe4c49925df35aeb15143404597dd96377bb73267b65799b12700c42d3755864736f6c63430008190033",
  "linkReferences": {},
  "deployedLinkReferences": {}
}