{
  "_format": "hh-sol-artifact-1",
  "contractName": "L1WrappedStakedTON",
  "sourceName": "src/L1/L1WrappedStakedTON.sol",
  "abi": [
    {
      "inputs": [],
      "stateMutability": "nonpayable",
      "type": "constructor"
    },
    {
      "inputs": [
        {
          "internalType": "address",
          "name": "target",
          "type": "address"
        }
      ],
      "name": "AddressEmptyCode",
      "type": "error"
    },
    {
      "inputs": [
        {
          "internalType": "address",
          "name": "account",
          "type": "address"
        }
      ],
      "name": "AddressInsufficientBalance",
      "type": "error"
    },
    {
      "inputs": [],
      "name": "DepositFailed",
      "type": "error"
    },
    {
      "inputs": [
        {
          "internalType": "address",
          "name": "spender",
          "type": "address"
        },
        {
          "internalType": "uint256",
          "name": "allowance",
          "type": "uint256"
        },
        {
          "internalType": "uint256",
          "name": "needed",
          "type": "uint256"
        }
      ],
      "name": "ERC20InsufficientAllowance",
      "type": "error"
    },
    {
      "inputs": [
        {
          "internalType": "address",
          "name": "sender",
          "type": "address"
        },
        {
          "internalType": "uint256",
          "name": "balance",
          "type": "uint256"
        },
        {
          "internalType": "uint256",
          "name": "needed",
          "type": "uint256"
        }
      ],
      "name": "ERC20InsufficientBalance",
      "type": "error"
    },
    {
      "inputs": [
        {
          "internalType": "address",
          "name": "approver",
          "type": "address"
        }
      ],
      "name": "ERC20InvalidApprover",
      "type": "error"
    },
    {
      "inputs": [
        {
          "internalType": "address",
          "name": "receiver",
          "type": "address"
        }
      ],
      "name": "ERC20InvalidReceiver",
      "type": "error"
    },
    {
      "inputs": [
        {
          "internalType": "address",
          "name": "sender",
          "type": "address"
        }
      ],
      "name": "ERC20InvalidSender",
      "type": "error"
    },
    {
      "inputs": [
        {
          "internalType": "address",
          "name": "spender",
          "type": "address"
        }
      ],
      "name": "ERC20InvalidSpender",
      "type": "error"
    },
    {
      "inputs": [],
      "name": "FailedInnerCall",
      "type": "error"
    },
    {
      "inputs": [
        {
          "internalType": "uint256",
          "name": "amount",
          "type": "uint256"
        }
      ],
      "name": "FailedToSwapFromTONToWTON",
      "type": "error"
    },
    {
      "inputs": [],
      "name": "InvalidInitialization",
      "type": "error"
    },
    {
      "inputs": [
        {
          "internalType": "address",
          "name": "requestor",
          "type": "address"
        }
      ],
      "name": "NoClaimableAmount",
      "type": "error"
    },
    {
      "inputs": [],
      "name": "NoRequestToProcess",
      "type": "error"
    },
    {
      "inputs": [],
      "name": "NotEnoughFunds",
      "type": "error"
    },
    {
      "inputs": [],
      "name": "NotInitializing",
      "type": "error"
    },
    {
      "inputs": [
        {
          "internalType": "address",
          "name": "owner",
          "type": "address"
        }
      ],
      "name": "OwnableInvalidOwner",
      "type": "error"
    },
    {
      "inputs": [
        {
          "internalType": "address",
          "name": "account",
          "type": "address"
        }
      ],
      "name": "OwnableUnauthorizedAccount",
      "type": "error"
    },
    {
      "inputs": [],
      "name": "ReentrancyGuardReentrantCall",
      "type": "error"
    },
    {
      "inputs": [],
      "name": "RequestAlreadyProcessed",
      "type": "error"
    },
    {
      "inputs": [
        {
          "internalType": "address",
          "name": "token",
          "type": "address"
        }
      ],
      "name": "SafeERC20FailedOperation",
      "type": "error"
    },
    {
      "inputs": [],
      "name": "WithdrawalDelayNotElapsed",
      "type": "error"
    },
    {
      "inputs": [],
      "name": "WrontAmount",
      "type": "error"
    },
    {
      "anonymous": false,
      "inputs": [
        {
          "indexed": true,
          "internalType": "address",
          "name": "owner",
          "type": "address"
        },
        {
          "indexed": true,
          "internalType": "address",
          "name": "spender",
          "type": "address"
        },
        {
          "indexed": false,
          "internalType": "uint256",
          "name": "value",
          "type": "uint256"
        }
      ],
      "name": "Approval",
      "type": "event"
    },
    {
      "anonymous": false,
      "inputs": [
        {
          "indexed": true,
          "internalType": "address",
          "name": "owner",
          "type": "address"
        },
        {
          "indexed": true,
          "internalType": "address",
          "name": "spender",
          "type": "address"
        },
        {
          "indexed": false,
          "internalType": "uint256",
          "name": "value",
          "type": "uint256"
        }
      ],
      "name": "DebugAllowance",
      "type": "event"
    },
    {
      "anonymous": false,
      "inputs": [
        {
          "indexed": true,
          "internalType": "address",
          "name": "account",
          "type": "address"
        },
        {
          "indexed": false,
          "internalType": "uint256",
          "name": "balance",
          "type": "uint256"
        }
      ],
      "name": "DebugBalance",
      "type": "event"
    },
    {
      "anonymous": false,
      "inputs": [
        {
          "indexed": false,
          "internalType": "address",
          "name": "to",
          "type": "address"
        },
        {
          "indexed": false,
          "internalType": "bool",
          "name": "token",
          "type": "bool"
        },
        {
          "indexed": false,
          "internalType": "uint256",
          "name": "amount",
          "type": "uint256"
        },
        {
          "indexed": false,
          "internalType": "uint256",
          "name": "wstonAmount",
          "type": "uint256"
        },
        {
          "indexed": false,
          "internalType": "uint256",
          "name": "depositTime",
          "type": "uint256"
        },
        {
          "indexed": false,
          "internalType": "uint256",
          "name": "depositBlockNumber",
          "type": "uint256"
        }
      ],
      "name": "Deposited",
      "type": "event"
    },
    {
      "anonymous": false,
      "inputs": [
        {
          "indexed": false,
          "internalType": "uint64",
          "name": "version",
          "type": "uint64"
        }
      ],
      "name": "Initialized",
      "type": "event"
    },
    {
      "anonymous": false,
      "inputs": [
        {
          "indexed": true,
          "internalType": "address",
          "name": "previousOwner",
          "type": "address"
        },
        {
          "indexed": true,
          "internalType": "address",
          "name": "newOwner",
          "type": "address"
        }
      ],
      "name": "OwnershipTransferred",
      "type": "event"
    },
    {
      "anonymous": false,
      "inputs": [
        {
          "indexed": false,
          "internalType": "address",
          "name": "account",
          "type": "address"
        }
      ],
      "name": "Paused",
      "type": "event"
    },
    {
      "anonymous": false,
      "inputs": [],
      "name": "SeigniorageUpdated",
      "type": "event"
    },
    {
      "anonymous": false,
      "inputs": [
        {
          "indexed": false,
          "internalType": "uint256",
          "name": "stakingIndex",
          "type": "uint256"
        }
      ],
      "name": "StakingIndexUpdated",
      "type": "event"
    },
    {
      "anonymous": false,
      "inputs": [
        {
          "indexed": true,
          "internalType": "address",
          "name": "from",
          "type": "address"
        },
        {
          "indexed": true,
          "internalType": "address",
          "name": "to",
          "type": "address"
        },
        {
          "indexed": false,
          "internalType": "uint256",
          "name": "value",
          "type": "uint256"
        }
      ],
      "name": "Transfer",
      "type": "event"
    },
    {
      "anonymous": false,
      "inputs": [
        {
          "indexed": false,
          "internalType": "address",
          "name": "account",
          "type": "address"
        }
      ],
      "name": "Unpaused",
      "type": "event"
    },
    {
      "anonymous": false,
      "inputs": [
        {
          "indexed": false,
          "internalType": "address",
          "name": "_to",
          "type": "address"
        },
        {
          "indexed": false,
          "internalType": "uint256",
          "name": "amount",
          "type": "uint256"
        }
      ],
      "name": "WithdrawalProcessed",
      "type": "event"
    },
    {
      "anonymous": false,
      "inputs": [
        {
          "indexed": true,
          "internalType": "address",
          "name": "_to",
          "type": "address"
        },
        {
          "indexed": false,
          "internalType": "uint256",
          "name": "amount",
          "type": "uint256"
        }
      ],
      "name": "WithdrawalRequested",
      "type": "event"
    },
    {
      "inputs": [],
      "name": "DECIMALS",
      "outputs": [
        {
          "internalType": "uint256",
          "name": "",
          "type": "uint256"
        }
      ],
      "stateMutability": "view",
      "type": "function"
    },
    {
      "inputs": [
        {
          "internalType": "address",
          "name": "",
          "type": "address"
        }
      ],
      "name": "aliveImplementation",
      "outputs": [
        {
          "internalType": "bool",
          "name": "",
          "type": "bool"
        }
      ],
      "stateMutability": "view",
      "type": "function"
    },
    {
      "inputs": [
        {
          "internalType": "address",
          "name": "owner",
          "type": "address"
        },
        {
          "internalType": "address",
          "name": "spender",
          "type": "address"
        }
      ],
      "name": "allowance",
      "outputs": [
        {
          "internalType": "uint256",
          "name": "",
          "type": "uint256"
        }
      ],
      "stateMutability": "view",
      "type": "function"
    },
    {
      "inputs": [
        {
          "internalType": "address",
          "name": "spender",
          "type": "address"
        },
        {
          "internalType": "uint256",
          "name": "value",
          "type": "uint256"
        }
      ],
      "name": "approve",
      "outputs": [
        {
          "internalType": "bool",
          "name": "",
          "type": "bool"
        }
      ],
      "stateMutability": "nonpayable",
      "type": "function"
    },
    {
      "inputs": [
        {
          "internalType": "address",
          "name": "account",
          "type": "address"
        }
      ],
      "name": "balanceOf",
      "outputs": [
        {
          "internalType": "uint256",
          "name": "",
          "type": "uint256"
        }
      ],
      "stateMutability": "view",
      "type": "function"
    },
    {
      "inputs": [
        {
          "internalType": "uint256",
          "name": "_index",
          "type": "uint256"
        },
        {
          "internalType": "bool",
          "name": "_token",
          "type": "bool"
        }
      ],
      "name": "claimWithdrawalIndex",
      "outputs": [],
      "stateMutability": "nonpayable",
      "type": "function"
    },
    {
      "inputs": [
        {
          "internalType": "bool",
          "name": "_token",
          "type": "bool"
        }
      ],
      "name": "claimWithdrawalTotal",
      "outputs": [],
      "stateMutability": "nonpayable",
      "type": "function"
    },
    {
      "inputs": [],
      "name": "decimals",
      "outputs": [
        {
          "internalType": "uint8",
          "name": "",
          "type": "uint8"
        }
      ],
      "stateMutability": "view",
      "type": "function"
    },
    {
      "inputs": [
        {
          "internalType": "uint256",
          "name": "_amount",
          "type": "uint256"
        },
        {
          "internalType": "bool",
          "name": "_token",
          "type": "bool"
        }
      ],
      "name": "depositWTONAndGetWSTON",
      "outputs": [],
      "stateMutability": "nonpayable",
      "type": "function"
    },
    {
      "inputs": [
        {
          "internalType": "address",
          "name": "_to",
          "type": "address"
        },
        {
          "internalType": "uint256",
          "name": "_amount",
          "type": "uint256"
        },
        {
          "internalType": "bool",
          "name": "_token",
          "type": "bool"
        }
      ],
      "name": "depositWTONAndGetWSTONTo",
      "outputs": [],
      "stateMutability": "nonpayable",
      "type": "function"
    },
    {
      "inputs": [],
      "name": "getDepositManager",
      "outputs": [
        {
          "internalType": "address",
          "name": "",
          "type": "address"
        }
      ],
      "stateMutability": "view",
      "type": "function"
    },
    {
      "inputs": [
        {
          "internalType": "address",
          "name": "requester",
          "type": "address"
        }
      ],
      "name": "getLastWithdrawalRequest",
      "outputs": [
        {
          "components": [
            {
              "internalType": "uint256",
              "name": "withdrawableBlockNumber",
              "type": "uint256"
            },
            {
              "internalType": "uint256",
              "name": "amount",
              "type": "uint256"
            },
            {
              "internalType": "bool",
              "name": "processed",
              "type": "bool"
            }
          ],
          "internalType": "struct L1WrappedStakedTONStorage.WithdrawalRequest",
          "name": "",
          "type": "tuple"
        }
      ],
      "stateMutability": "view",
      "type": "function"
    },
    {
      "inputs": [],
      "name": "getSeigManager",
      "outputs": [
        {
          "internalType": "address",
          "name": "",
          "type": "address"
        }
      ],
      "stateMutability": "view",
      "type": "function"
    },
    {
      "inputs": [],
      "name": "getStakingIndex",
      "outputs": [
        {
          "internalType": "uint256",
          "name": "",
          "type": "uint256"
        }
      ],
      "stateMutability": "view",
      "type": "function"
    },
    {
      "inputs": [
        {
          "internalType": "address",
          "name": "user",
          "type": "address"
        }
      ],
      "name": "getTotalClaimableAmountByUser",
      "outputs": [
        {
          "internalType": "uint256",
          "name": "totalClaimableAmount",
          "type": "uint256"
        }
      ],
      "stateMutability": "view",
      "type": "function"
    },
    {
      "inputs": [],
      "name": "getTotalWSTONSupply",
      "outputs": [
        {
          "internalType": "uint256",
          "name": "",
          "type": "uint256"
        }
      ],
      "stateMutability": "view",
      "type": "function"
    },
    {
      "inputs": [
        {
          "internalType": "address",
          "name": "requester",
          "type": "address"
        },
        {
          "internalType": "uint256",
          "name": "index",
          "type": "uint256"
        }
      ],
      "name": "getWithdrawalRequest",
      "outputs": [
        {
          "components": [
            {
              "internalType": "uint256",
              "name": "withdrawableBlockNumber",
              "type": "uint256"
            },
            {
              "internalType": "uint256",
              "name": "amount",
              "type": "uint256"
            },
            {
              "internalType": "bool",
              "name": "processed",
              "type": "bool"
            }
          ],
          "internalType": "struct L1WrappedStakedTONStorage.WithdrawalRequest",
          "name": "",
          "type": "tuple"
        }
      ],
      "stateMutability": "view",
      "type": "function"
    },
    {
      "inputs": [
        {
          "internalType": "address",
          "name": "_layer2Address",
          "type": "address"
        },
        {
          "internalType": "address",
          "name": "_wton",
          "type": "address"
        },
        {
          "internalType": "address",
          "name": "_ton",
          "type": "address"
        },
        {
          "internalType": "address",
          "name": "_depositManager",
          "type": "address"
        },
        {
          "internalType": "address",
          "name": "_seigManager",
          "type": "address"
        },
        {
          "internalType": "address",
          "name": "_owner",
          "type": "address"
        },
        {
          "internalType": "string",
          "name": "_name",
          "type": "string"
        },
        {
          "internalType": "string",
          "name": "_symbol",
          "type": "string"
        }
      ],
      "name": "initialize",
      "outputs": [],
      "stateMutability": "nonpayable",
      "type": "function"
    },
    {
      "inputs": [],
      "name": "lastSeigBlock",
      "outputs": [
        {
          "internalType": "uint256",
          "name": "",
          "type": "uint256"
        }
      ],
      "stateMutability": "view",
      "type": "function"
    },
    {
      "inputs": [],
      "name": "layer2Address",
      "outputs": [
        {
          "internalType": "address",
          "name": "",
          "type": "address"
        }
      ],
      "stateMutability": "view",
      "type": "function"
    },
    {
      "inputs": [],
      "name": "name",
      "outputs": [
        {
          "internalType": "string",
          "name": "",
          "type": "string"
        }
      ],
      "stateMutability": "view",
      "type": "function"
    },
    {
      "inputs": [
        {
          "internalType": "address",
          "name": "_to",
          "type": "address"
        },
        {
          "internalType": "uint256",
          "name": "_amount",
          "type": "uint256"
        },
        {
          "internalType": "bytes",
          "name": "data",
          "type": "bytes"
        }
      ],
      "name": "onApprove",
      "outputs": [
        {
          "internalType": "bool",
          "name": "",
          "type": "bool"
        }
      ],
      "stateMutability": "nonpayable",
      "type": "function"
    },
    {
      "inputs": [],
      "name": "owner",
      "outputs": [
        {
          "internalType": "address",
          "name": "",
          "type": "address"
        }
      ],
      "stateMutability": "view",
      "type": "function"
    },
    {
      "inputs": [],
      "name": "pause",
      "outputs": [],
      "stateMutability": "nonpayable",
      "type": "function"
    },
    {
      "inputs": [],
      "name": "pauseProxy",
      "outputs": [
        {
          "internalType": "bool",
          "name": "",
          "type": "bool"
        }
      ],
      "stateMutability": "view",
      "type": "function"
    },
    {
      "inputs": [
        {
          "internalType": "uint256",
          "name": "",
          "type": "uint256"
        }
      ],
      "name": "proxyImplementation",
      "outputs": [
        {
          "internalType": "address",
          "name": "",
          "type": "address"
        }
      ],
      "stateMutability": "view",
      "type": "function"
    },
    {
      "inputs": [],
      "name": "renounceOwnership",
      "outputs": [],
      "stateMutability": "nonpayable",
      "type": "function"
    },
    {
      "inputs": [
        {
          "internalType": "uint256",
          "name": "_wstonAmount",
          "type": "uint256"
        }
      ],
      "name": "requestWithdrawal",
      "outputs": [],
      "stateMutability": "nonpayable",
      "type": "function"
    },
    {
      "inputs": [
        {
          "internalType": "bytes4",
          "name": "",
          "type": "bytes4"
        }
      ],
      "name": "selectorImplementation",
      "outputs": [
        {
          "internalType": "address",
          "name": "",
          "type": "address"
        }
      ],
      "stateMutability": "view",
      "type": "function"
    },
    {
      "inputs": [
        {
          "internalType": "address",
          "name": "_depositManager",
          "type": "address"
        }
      ],
      "name": "setDepositManagerAddress",
      "outputs": [],
      "stateMutability": "nonpayable",
      "type": "function"
    },
    {
      "inputs": [
        {
          "internalType": "address",
          "name": "_seigManager",
          "type": "address"
        }
      ],
      "name": "setSeigManagerAddress",
      "outputs": [],
      "stateMutability": "nonpayable",
      "type": "function"
    },
    {
      "inputs": [],
      "name": "stakeOf",
      "outputs": [
        {
          "internalType": "uint256",
          "name": "",
          "type": "uint256"
        }
      ],
      "stateMutability": "view",
      "type": "function"
    },
    {
      "inputs": [],
      "name": "symbol",
      "outputs": [
        {
          "internalType": "string",
          "name": "",
          "type": "string"
        }
      ],
      "stateMutability": "view",
      "type": "function"
    },
    {
      "inputs": [],
      "name": "ton",
      "outputs": [
        {
          "internalType": "address",
          "name": "",
          "type": "address"
        }
      ],
      "stateMutability": "view",
      "type": "function"
    },
    {
      "inputs": [],
      "name": "totalStakedAmount",
      "outputs": [
        {
          "internalType": "uint256",
          "name": "",
          "type": "uint256"
        }
      ],
      "stateMutability": "view",
      "type": "function"
    },
    {
      "inputs": [],
      "name": "totalSupply",
      "outputs": [
        {
          "internalType": "uint256",
          "name": "",
          "type": "uint256"
        }
      ],
      "stateMutability": "view",
      "type": "function"
    },
    {
      "inputs": [],
      "name": "totalWstonMinted",
      "outputs": [
        {
          "internalType": "uint256",
          "name": "",
          "type": "uint256"
        }
      ],
      "stateMutability": "view",
      "type": "function"
    },
    {
      "inputs": [
        {
          "internalType": "address",
          "name": "to",
          "type": "address"
        },
        {
          "internalType": "uint256",
          "name": "value",
          "type": "uint256"
        }
      ],
      "name": "transfer",
      "outputs": [
        {
          "internalType": "bool",
          "name": "",
          "type": "bool"
        }
      ],
      "stateMutability": "nonpayable",
      "type": "function"
    },
    {
      "inputs": [
        {
          "internalType": "address",
          "name": "from",
          "type": "address"
        },
        {
          "internalType": "address",
          "name": "to",
          "type": "address"
        },
        {
          "internalType": "uint256",
          "name": "value",
          "type": "uint256"
        }
      ],
      "name": "transferFrom",
      "outputs": [
        {
          "internalType": "bool",
          "name": "",
          "type": "bool"
        }
      ],
      "stateMutability": "nonpayable",
      "type": "function"
    },
    {
      "inputs": [
        {
          "internalType": "address",
          "name": "newOwner",
          "type": "address"
        }
      ],
      "name": "transferOwnership",
      "outputs": [],
      "stateMutability": "nonpayable",
      "type": "function"
    },
    {
      "inputs": [],
      "name": "unpause",
      "outputs": [],
      "stateMutability": "nonpayable",
      "type": "function"
    },
    {
      "inputs": [],
      "name": "updateSeigniorage",
      "outputs": [
        {
          "internalType": "bool",
          "name": "",
          "type": "bool"
        }
      ],
      "stateMutability": "nonpayable",
      "type": "function"
    },
    {
      "inputs": [
        {
          "internalType": "address",
          "name": "",
          "type": "address"
        },
        {
          "internalType": "uint256",
          "name": "",
          "type": "uint256"
        }
      ],
      "name": "withdrawalRequests",
      "outputs": [
        {
          "internalType": "uint256",
          "name": "withdrawableBlockNumber",
          "type": "uint256"
        },
        {
          "internalType": "uint256",
          "name": "amount",
          "type": "uint256"
        },
        {
          "internalType": "bool",
          "name": "processed",
          "type": "bool"
        }
      ],
      "stateMutability": "view",
      "type": "function"
    },
    {
      "inputs": [],
      "name": "wton",
      "outputs": [
        {
          "internalType": "address",
          "name": "",
          "type": "address"
        }
      ],
      "stateMutability": "view",
      "type": "function"
    }
  ],
  "bytecode": "0x6080806040523460b95760016004557ff0c57e16840df040f15088dc2f81fe391c3923bec73e23a9662efc9c229c6a009081549060ff8260401c1660aa57506001600160401b036002600160401b0319828216016066575b6040516131e290816100bf8239f35b6001600160401b031990911681179091556040519081527fc7f505b2f371ae2175ee4913f4499e1f2633a7b5936321eed1cdaeb6115181d290602090a13880806057565b63f92ee8a960e01b8152600490fd5b600080fdfe608080604052600436101561001357600080fd5b60003560e01c90816306fdde031461229457508063095ea7b31461221357806318160ddd1461170157806323b872dd146121375780632e0f262514612110578063313ce567146120f457806331ae1f02146120cb5780633f4ba83a146120375780634d3d629f1461200a5780634e5a232814611f9a5780635074e0c814611f7c57806350d2a27614611f3757806352171bfe14611d48578063550d01a314611d09578063567e98f914611ceb5780635f4c5eae14611caf57806363a8fd8914611c8c57806363b075681461170157806370448bd414611beb57806370a0823114611ba4578063715018a614611b3a578063764a785614611abe5780637a244819146118995780637ed72d16146118205780637f4649b7146117dd5780638456cb591461177e5780638d62d949146117555780638da5cb5b1461171f5780638fb749a11461170157806395d89b411461162b5780639ee679e8146112c6578063a9059cbb146112a0578063aa7385241461125d578063b6f2059314611234578063b911135f14611200578063c40753f914611199578063cc48b94714611170578063d6960d121461114d578063dd62ed3e14611104578063ea300b1814610843578063ef090e4c146102c9578063f2847e6414610251578063f2fde38b146102265763f35c89e81461020357600080fd5b34610221576000366003190112610221576020600d54604051908152f35b600080fd5b346102215760203660031901126102215761024f610242612370565b61024a612793565b612639565b005b346102215760403660031901126102215761026a612370565b61027261257f565b5060018060a01b0316600052600e6020526102c561029f61029960243560406000206123d5565b5061252d565b604080518251815260208084015190820152918101511515908201529081906060820190565b0390f35b3461022157610100366003190112610221576102e3612370565b6102eb612386565b906044356001600160a01b038116810361022157606435906001600160a01b038216820361022157608435936001600160a01b03851685036102215760a4356001600160a01b03811690036102215760c4356001600160401b0381116102215761035990369060040161246d565b9360e4356001600160401b0381116102215761037990369060040161246d565b9560008051602061318d83398151915254956001600160401b03871680159081610833575b6001149081610829575b159081610820575b5061080e5760016001600160401b031988161760008051602061318d8339815191525560ff8760401c16156107e5575b6103e8612f3f565b6103f0612f3f565b8051906001600160401b0382116106c357819061041b60008051602061306d833981519152546124b4565b601f811161076b575b50602090601f83116001146106e4576000926106d9575b50508160011b916000199060031b1c19161760008051602061306d833981519152555b86516001600160401b0381116106c3576104866000805160206130ed833981519152546124b4565b601f8111610655575b506020601f82116001146105d157819060ff996000926105c6575b50508160011b916000199060031b1c1916176000805160206130ed833981519152555b6104d5612f3f565b6104dd612f3f565b6104e860a435612639565b600880546001600160a01b03199081166001600160a01b039788161782556009805482169388169390931790925560058054610100600160a81b0319169390911b610100600160a81b031692909217909155600680548216928516929092179091556007805490911691909216179055676765c793fa10079d601b1b600c5560401c161561057257005b60ff60401b1960008051602061318d833981519152541660008051602061318d833981519152557fc7f505b2f371ae2175ee4913f4499e1f2633a7b5936321eed1cdaeb6115181d2602060405160018152a1005b0151905089806104aa565b601f198216986000805160206130ed833981519152600052816000209960005b81811061063d57509160ff9a91846001959410610624575b505050811b016000805160206130ed833981519152556104cd565b015160001960f88460031b161c19169055898080610609565b838301518c556001909b019a602093840193016105f1565b6000805160206130ed8339815191526000527f46a2803e59a4de4e7a4c574b1243f25977ac4c77d5a1a4a609b5394cebb4a2aa601f830160051c8101602084106106bc575b601f830160051c820181106106b057505061048f565b6000815560010161069a565b508061069a565b634e487b7160e01b600052604160045260246000fd5b01519050898061043b565b925060008051602061306d83398151915260005280600020906000935b601f1984168510610750576001945083601f19811610610737575b505050811b0160008051602061306d8339815191525561045e565b015160001960f88460031b161c1916905589808061071c565b81810151835560209485019460019093019290910190610701565b60008051602061306d8339815191526000529091507f2ae08a8e29253f69ac5d979a101956ab8f8d9d7ded63fa7a83b16fc47648eab0601f840160051c8101602085106107de575b90849392915b601f830160051c820181106107cf575050610424565b600081558594506001016107b9565b50806107b3565b6001600160481b031987166001600160401b011760008051602061318d833981519152556103e0565b60405163f92ee8a960e01b8152600490fd5b905015896103b0565b303b1591506103a8565b604089901c60ff1615915061039e565b346102215760603660031901126102215761085c612370565b60448035916024916001600160401b03908335828611610221573660238701121561022157856004013592831161022157368584880101116102215760018060a01b039283600754163314908180156110f7575b156110a35760340361104a578587013560601c96603801359485918891869115610cb65716149182610cac575b50501561022157846000526020916011835260ff6040600020541615610c2b575b8315610c195782600d54151580610bb6575b610b03575b6109bb9143600d5560008051602061312d83398151915282610935612e48565b80600c55604051908152a16109518682600754168a3091612eba565b8060085416906109828160055460081c169261097460405194859287840161259e565b03601f198101845283612431565b80600754169060065416600060405180968195829463cae9ca5160e01b845260048401528b8d84015260608a8401526064830190612330565b03925af1908115610af757600091610aca575b5015610a905750633b9aca00820292633b9ac9ff1983850401610a7c57610a006109f785612f12565b94600a5461255a565b600a55610a0f84600b5461255a565b600b558415610a665750918391600160c094610a3a846000805160206130cd83398151915298612d90565b604051948552840152604083015260608201524260808201524360a0820152a15b602060405160018152f35b60405163ec442f0560e01b815260006004820152fd5b634e487b7160e01b60009081526011600452fd5b9074185c1c1c9bdd99505b9910d85b1b0819985a5b1959605a1b6064926015866040519462461bcd60e51b86526004860152840152820152fd5b610aea9150833d8511610af0575b610ae28183612431565b810190612567565b866109ce565b503d610ad8565b6040513d6000823e3d90fd5b6000908260055460081c16600460405180948193633b253c2b60e11b83525af1908115610af757600091610b99575b5015610b5757826109bb916000805160206130ad833981519152600080a19150610915565b60405162461bcd60e51b815260048101849052601c818701527b6661696c656420746f2075706461746520736569676e696f7261676560201b81840152606490fd5b610bb09150843d8611610af057610ae28183612431565b87610b32565b50600490826009541660405192838092631e6b913d60e31b82525afa8015610af7578491600091610bea575b504311610910565b82819392503d8311610c12575b610c018183612431565b810103126102215783905188610be2565b503d610bf7565b60405163396f493960e01b8152600490fd5b601054600160401b811015610c97576001810180601055811015610c8257601060009081528481209190910180546001600160a01b031916881790558681526011845260409020805460ff191660011790556108fe565b85634e487b7160e01b60005260326004526000fd5b85634e487b7160e01b60005260416004526000fd5b14905083876108dd565b16149182611040575b50501561022157846000526020916011835260ff6040600020541615610fe9575b8315610c1957600d54151580610f89575b610f1f575b43600d5560008051602061312d83398151915283610d12612e48565b80600c55604051908152a1610d2e848260065416883091612eba565b600654600854604051636eb1769f60e11b8152908316918316858280610d5886306004840161259e565b0381845afa918215610af757869388938792600091610ee9575b508411610e8b575b50505082610dac93600854169060055460081c1660006040518096819582946311f9fbc960e21b8452600484016127ec565b03925af1908115610af757600091610e6e575b5015610e3b5750610dcf82612f12565b92610ddc83600a5461255a565b600a55610deb84600b5461255a565b600b558415610a665750918391600060c094610e16846000805160206130cd83398151915298612d90565b604051948552840152604083015260608201524260808201524360a0820152a1610a5b565b906d19195c1bdcda5d0819985a5b195960921b606492600e866040519462461bcd60e51b86526004860152840152820152fd5b610e859150833d8511610af057610ae28183612431565b86610dbf565b6000949350604051948593849263095ea7b360e01b8452600484015281198c8401525af18015610af757610dac9285928792610ecc575b8194869150610d7a565b610ee290843d8611610af057610ae28183612431565b5089610ec2565b95925050925083813d8311610f18575b610f038183612431565b81010312610221578487928388955190610d72565b503d610ef9565b6000838260055460081c16600460405180948193633b253c2b60e11b83525af1908115610af757600091610f6c575b5015610b57576000805160206130ad833981519152600080a1610cf6565b610f839150843d8611610af057610ae28183612431565b87610f4e565b50600483826009541660405192838092631e6b913d60e31b82525afa908115610af757600091610fbc575b504311610cf1565b90508381813d8311610fe2575b610fd38183612431565b81010312610221575187610fb4565b503d610fc9565b601054600160401b811015610c97576001810180601055811015610c8257601060009081528481209190910180546001600160a01b031916881790558681526011845260409020805460ff19166001179055610ce0565b1490508387610cbf565b60405162461bcd60e51b815260206004820152602d818801527f496e76616c6964206f6e417070726f7665206461746120666f72204c31577261818501526c383832b229ba30b5b2b22a27a760991b6064820152608490fd5b60405162461bcd60e51b8152602060048201526028818901527f6f6e6c792061636365707420544f4e206f722057544f4e20617070726f766520818601526763616c6c6261636b60c01b6064820152608490fd5b50846006541633146108b0565b346102215760403660031901126102215761111d612370565b61112e611128612386565b9161239c565b9060018060a01b03166000526020526020604060002054604051908152f35b346102215760003660031901126102215760206111686125b8565b604051908152f35b34610221576000366003190112610221576007546040516001600160a01b039091168152602090f35b34610221576060366003190112610221576111b2612370565b6044358015158103610221576111e2916111d160ff60055416156124ee565b6111d9612807565b6024359061282a565b156111ee576001600455005b6040516379cacff160e01b8152600490fd5b34610221576020366003190112610221576004356000526001602052602060018060a01b0360406000205416604051908152f35b34610221576000366003190112610221576009546040516001600160a01b039091168152602090f35b3461022157602036600319011261022157611276612370565b61127e612793565b600980546001600160a01b0319166001600160a01b0392909216919091179055005b3461022157604036600319011261022157610a5b6112bc612370565b60243590336126cb565b346102215760208060031936011261022157600554600435916112ec60ff8316156124ee565b60088054604051635af8ced960e11b81526001600160a01b039490921c8416600483015260249190839082908490829088165afa908115610af7576000916115fe575b503360005260008051602061308d8339815191529384845285604060002054106115ec5761135b612e48565b80600c5560008051602061312d83398151915285604051838152a18087029087820414871517156115d757846113c691676765c793fa10079d601b1b9004838194600854169060055460081c16600060405180968195829463da95ebf760e01b8452600484016127ec565b03925af1908115610af7576000916115ba575b50156115585733600052600e84526113f66040600020924361255a565b906040519161140483612416565b825284820190815260006040830190815283549093600160401b821015610c975790611435916001820181556123d5565b929092611543579060029291518255516001820155019051151560ff8019835416911617905533600052600f8252604060002060018154019055331561152d575033600052818152826040600020549281841061150957927fe670e4e82118d22a1f9ee18920455ebc958bae26a90a05d31d3378788b1b0e4493336000528352036040600020557f52c63247e1f47db19d5ce0460030c497f067ca4cebf71ba98eeadabe20bace02838154039055600060405184815260008051602061316d833981519152833392a36040519283523392a2005b5060405163391434e360e21b8152908190611529908533600485016126ad565b0390fd5b604051634b637e8f60e11b815260006004820152fd5b84634e487b7160e01b60005260006004526000fd5b60405162461bcd60e51b8152600481018590526035818501527f6661696c656420746f2072657175657374207769746864726177616c2066726f60448201527436903a3432903232b837b9b4ba1036b0b730b3b2b960591b6064820152608490fd5b6115d19150853d8711610af057610ae28183612431565b876113d9565b83634e487b7160e01b60005260116004526000fd5b604051631036b5ad60e31b8152600490fd5b90508281813d8311611624575b6116158183612431565b8101031261022157518561132f565b503d61160b565b34610221576000366003190112610221576040516000805160206130ed833981519152805482600061165c836124b4565b92838352602094600191866001821691826000146116df5750506001146116a0575b505061168c92500383612431565b6102c5604051928284938452830190612330565b85925060005281600020906000915b8583106116c757505061168c9350820101858061167e565b805483890185015287945086939092019181016116af565b925093505061168c94915060ff191682840152151560051b820101858061167e565b34610221576000366003190112610221576020600b54604051908152f35b346102215760003660031901126102215760008051602061310d833981519152546040516001600160a01b039091168152602090f35b34610221576000366003190112610221576006546040516001600160a01b039091168152602090f35b3461022157600036600319011261022157611797612793565b60016005546117a960ff8216156124ee565b60ff1916176005557f62e78cea01bee320cd4e420270b5ea74000d11b0c9f74754ebdbfc544b05a2586020604051338152a1005b34610221576020366003190112610221576117f6612370565b6117fe612793565b600880546001600160a01b0319166001600160a01b0392909216919091179055005b3461022157602036600319011261022157611839612370565b61184161257f565b506001600160a01b03166000818152600f602052604090205460001981019081116118835761029961029f916102c593600052600e60205260406000206123d5565b634e487b7160e01b600052601160045260246000fd5b34610221576040366003190112610221576004356118b5612407565b906118ce60ff60055416156118c9816124ee565b6124ee565b33600052602091600e8352604060002054821015611aac5733600052600e83526118fc8260406000206123d5565b5091600160ff600285015416151514611a9a5782544310611a885761192f60029133600052600e865260406000206123d5565b5001805460ff19166001179055156119ef576001633b9aca00910154049060018060a01b0390600081836008541660448560055460081c166040519485938492636105226360e11b84526004840152600160248401525af1918215610af7576000926119d2575b50501561022157816119c060008051602061314d833981519152936119cd93339060075416612e1a565b60405191829133836127ec565b0390a1005b6119e89250803d10610af057610ae28183612431565b8380611996565b600101549060018060a01b0390600081836008541660448560055460081c166040519485938492636105226360e11b845260048401528160248401525af1918215610af757600092611a6b575b5050156102215781611a6660008051602061314d833981519152936119cd93339060065416612e1a565b6119c0565b611a819250803d10610af057610ae28183612431565b8380611a3c565b6040516378f67ae160e11b8152600490fd5b6040516329af1d3160e21b8152600490fd5b60405163e92d106b60e01b8152600490fd5b34610221576000366003190112610221576000602060018060a01b03602481600954169160055460081c16604051948593849262f0f85b60e51b845260048401525af18015610af757602091600091611b1d575b506040519015158152f35b611b349150823d8411610af057610ae28183612431565b82611b12565b3461022157600036600319011261022157611b53612793565b60008051602061310d83398151915280546001600160a01b031981169091556000906001600160a01b03167f8be0079c531659141344cd1fd0a4f28419497f9722a3daafe3b4186f6b6457e08280a3005b34610221576020366003190112610221576001600160a01b03611bc5612370565b1660005260008051602061308d8339815191526020526020604060002054604051908152f35b346102215760208060031936011261022157611c05612370565b6001600160a01b03166000818152600f60205260408120549092905b82600052600e825260406000208054821015611c815761029982611c44926123d5565b60408101511580611c76575b611c5e575b50600101611c21565b6001919483611c6f9201519061255a565b9390611c55565b504381511115611c50565b602085604051908152f35b3461022157600036600319011261022157602060ff600054166040519015158152f35b34610221576040366003190112610221576111e2611ccb612407565b611cda60ff60055416156124ee565b611ce2612807565b6004353361282a565b34610221576000366003190112610221576020600a54604051908152f35b34610221576020366003190112610221576001600160a01b03611d2a612370565b166000526002602052602060ff604060002054166040519015158152f35b346102215760208060031936011261022157600435801515810361022157611d7560ff60055416156124ee565b60009060005b3360005283600e80825260406000208054841015611e075761029984611da0926123d5565b9060408201511580611dfc575b611dbd575b505050600101611d7b565b916001939591611df1933360005282526002611ddd8860406000206123d5565b5001805460ff19168617905501519061255a565b929050838580611db2565b504382511115611dad565b505050508115611f1f5715611ead5760018060a01b0391600081846008541660448660055460081c166040519485938492636105226360e11b84526004840152600160248401525af1918215610af757600092611e90575b5050156102215760008051602061314d833981519152916119c0633b9aca006119cd93048092339060075416612e1a565b611ea69250803d10610af057610ae28183612431565b8380611e5f565b9060018060a01b0390600081836008541660448560055460081c166040519485938492636105226360e11b845260048401528160248401525af1918215610af757600092611a6b575050156102215781611a6660008051602061314d833981519152936119cd93339060065416612e1a565b6040516395ae4d3960e01b8152336004820152602490fd5b346102215760203660031901126102215760043563ffffffff60e01b8116809103610221576000526003602052602060018060a01b0360406000205416604051908152f35b34610221576000366003190112610221576020600c54604051908152f35b3461022157604036600319011261022157611fb3612370565b6001600160a01b03166000908152600e602052604090208054602435919082101561022157606091611fe4916123d5565b5080549060ff600260018301549201541690604051928352602083015215156040820152f35b346102215760003660031901126102215760055460405160089190911c6001600160a01b03168152602090f35b3461022157600036600319011261022157612050612793565b60055460ff81161561208f5760ff19166005557f5db9ee0a495bf2e6ff9c91a7834c1ba4fdd244a5e8aa4e537bd38aeae4b073aa6020604051338152a1005b60405162461bcd60e51b815260206004820152601460248201527314185d5cd8589b194e881b9bdd081c185d5cd95960621b6044820152606490fd5b34610221576000366003190112610221576008546040516001600160a01b039091168152602090f35b34610221576000366003190112610221576020604051601b8152f35b3461022157600036600319011261022157604051676765c793fa10079d601b1b8152602090f35b3461022157606036600319011261022157612150612370565b612158612386565b604435906121658361239c565b33600052602052604060002054926000198403612187575b610a5b93506126cb565b8284106121f6576001600160a01b038116156121dd5733156121c45782610a5b946121b18361239c565b336000526020520360406000205561217d565b604051634a1406b160e11b815260006004820152602490fd5b60405163e602df0560e01b815260006004820152602490fd5b604051637dc7a0d960e11b815280611529858733600485016126ad565b346102215760403660031901126102215761222c612370565b6024359033156121dd576001600160a01b03169081156121c45761224f3361239c565b82600052602052806040600020556040519081527f8c5be1e5ebec7d5bd14f71427d1e84f3dd0314c0f7b2291e5b200ac8c7c3b92560203392a3602060405160018152f35b346102215760003660031901126102215760008051602061306d83398151915280548260006122c2836124b4565b92838352602094600191866001821691826000146116df5750506001146122f157505061168c92500383612431565b85925060005281600020906000915b85831061231857505061168c9350820101858061167e565b80548389018501528794508693909201918101612300565b919082519283825260005b84811061235c575050826000602080949584010152601f8019910116010190565b60208183018101518483018201520161233b565b600435906001600160a01b038216820361022157565b602435906001600160a01b038216820361022157565b6001600160a01b031660009081527f52c63247e1f47db19d5ce0460030c497f067ca4cebf71ba98eeadabe20bace016020526040902090565b80548210156123f1576000526003602060002091020190600090565b634e487b7160e01b600052603260045260246000fd5b60243590811515820361022157565b606081019081106001600160401b038211176106c357604052565b90601f801991011681019081106001600160401b038211176106c357604052565b6001600160401b0381116106c357601f01601f191660200190565b81601f820112156102215780359061248482612452565b926124926040519485612431565b8284526020838301011161022157816000926020809301838601378301015290565b90600182811c921680156124e4575b60208310146124ce57565b634e487b7160e01b600052602260045260246000fd5b91607f16916124c3565b156124f557565b60405162461bcd60e51b815260206004820152601060248201526f14185d5cd8589b194e881c185d5cd95960821b6044820152606490fd5b9060405161253a81612416565b604060ff6002839580548552600181015460208601520154161515910152565b9190820180921161188357565b90816020910312610221575180151581036102215790565b6040519061258c82612416565b60006040838281528260208201520152565b6001600160a01b0391821681529116602082015260400190565b6009546005546040516367265c3b60e11b81529160209183916001600160a01b0390811691839182916125f491309160081c166004840161259e565b03915afa908115610af75760009161260a575090565b90506020813d602011612631575b8161262560209383612431565b81010312610221575190565b3d9150612618565b6001600160a01b039081169081156126945760008051602061310d83398151915280546001600160a01b031981168417909155167f8be0079c531659141344cd1fd0a4f28419497f9722a3daafe3b4186f6b6457e0600080a3565b604051631e4fbdf760e01b815260006004820152602490fd5b604091949392606082019560018060a01b0316825260208201520152565b916001600160a01b0380841692831561277a57169283156127615760009083825260008051602061308d833981519152806020526040832054918483106127425750828460008051602061316d833981519152959360409388602097528652038282205586815220818154019055604051908152a3565b90506115298460405193849363391434e360e21b8552600485016126ad565b60405163ec442f0560e01b815260006004820152602490fd5b604051634b637e8f60e11b815260006004820152602490fd5b60008051602061310d833981519152546001600160a01b031633036127b457565b60405163118cdaa760e01b8152336004820152602490fd5b81156127d6570490565b634e487b7160e01b600052601260045260246000fd5b6001600160a01b039091168152602081019190915260400190565b600260045414612818576002600455565b604051633ee5aeb560e01b8152600490fd5b919060018060a01b0391828416936000938585526020916011835260409360ff858820541615612d18575b8515612d0757600d54151580612ca5575b612bfc575b43600d5560008051602061312d83398151915284612887612e48565b80600c558751908152a11591838315612ad457506128ac868260065416843091612eba565b806006541681600854168651636eb1769f60e11b81528681806128d385306004840161259e565b0381865afa908115612aca579289928b9289958491612a90575b508411612a25575b5050508261292593600854169060055460081c168a89518096819582946311f9fbc960e21b8452600484016127ec565b03925af1908115612a1b5787916129fe575b50156129c95761294685612f12565b9561295386600a5461255a565b600a555b61296387600b5461255a565b600b5587156129b257509185939161298e60c0976000805160206130cd833981519152999795612d90565b8251958652159085015283015260608201524260808201524360a0820152a1600190565b60249085519063ec442f0560e01b82526004820152fd5b835162461bcd60e51b815260048101849052600e60248201526d19195c1bdcda5d0819985a5b195960921b6044820152606490fd5b612a159150843d8611610af057610ae28183612431565b38612937565b85513d89823e3d90fd5b895163095ea7b360e01b81526004810191909152600019602482015293925083916044918391905af18015612a86576129259286928992612a69575b8a91946128f5565b612a7f90843d8611610af057610ae28183612431565b5038612a61565b86513d8a823e3d90fd5b93505092509281813d8311612ac3575b612aaa8183612431565b81010312612abf5751869289928b92846128ed565b8980fd5b503d612aa0565b88513d8c823e3d90fd5b81612ae988612b449460075416863091612eba565b806008541690612b0b8160055460081c16926109748a5194859287840161259e565b806007541690600654168a895180968195829463cae9ca5160e01b845260048401528d6024840152606060448401526064830190612330565b03925af1908115612a1b578791612bdf575b5015612ba357633b9aca00850295633b9ac9ff1986880401612b8f57612b87612b7e88612f12565b97600a5461255a565b600a55612957565b634e487b7160e01b81526011600452602490fd5b835162461bcd60e51b8152600481018490526015602482015274185c1c1c9bdd99505b9910d85b1b0819985a5b1959605a1b6044820152606490fd5b612bf69150843d8611610af057610ae28183612431565b38612b56565b86848460055460081c166004885180948193633b253c2b60e11b83525af1908115612a86578891612c88575b5015612c45576000805160206130ad8339815191528780a161286b565b845162461bcd60e51b815260048101859052601c60248201527b6661696c656420746f2075706461746520736569676e696f7261676560201b6044820152606490fd5b612c9f9150853d8711610af057610ae28183612431565b38612c28565b506004848460095416875192838092631e6b913d60e31b82525afa908115612a86578891612cd6575b504311612866565b90508481813d8311612d00575b612ced8183612431565b81010312612cfc575138612cce565b8780fd5b503d612ce3565b845163396f493960e01b8152600490fd5b601054600160401b811015612d7c576001810180601055811015612d6857601088528488200180546001600160a01b0319168917905587875260118452848720805460ff19166001179055612855565b634e487b7160e01b88526032600452602488fd5b634e487b7160e01b88526041600452602488fd5b9060008051602061316d83398151915260206000927f52c63247e1f47db19d5ce0460030c497f067ca4cebf71ba98eeadabe20bace0294612dd282875461255a565b86556001600160a01b03169485158514612df6578181540390555b604051908152a3565b5084845260008051602061308d833981519152825260408420818154019055612ded565b612e41612e46939261097460405194859263a9059cbb60e01b6020850152602484016127ec565b612f6e565b565b612e506125b8565b600b5480151580612eb1575b15612ea757676765c793fa10079d601b1b828102928015908404909114171561188357612e88916127cc565b80600c5560008051602061312d8339815191526020604051838152a190565b5050600c54612e88565b50811515612e5c565b6040516323b872dd60e01b60208201526001600160a01b03928316602482015292909116604483015260648083019390935291815260a08101918183106001600160401b038411176106c357612e4692604052612f6e565b676765c793fa10079d601b1b818102918015908304909114171561188357600c54612f3c916127cc565b90565b60ff60008051602061318d8339815191525460401c1615612f5c57565b604051631afcd79f60e31b8152600490fd5b600080612fb89260018060a01b03169360208151910182865af13d15613001573d90612f9982612452565b91612fa76040519384612431565b82523d6000602084013e5b83613009565b8051908115159182612fe6575b5050612fce5750565b60249060405190635274afe760e01b82526004820152fd5b612ff99250602080918301019101612567565b153880612fc5565b606090612fb2565b90613030575080511561301e57805190602001fd5b604051630a12f52160e11b8152600490fd5b81511580613063575b613041575090565b604051639996b31560e01b81526001600160a01b039091166004820152602490fd5b50803b1561303956fe52c63247e1f47db19d5ce0460030c497f067ca4cebf71ba98eeadabe20bace0352c63247e1f47db19d5ce0460030c497f067ca4cebf71ba98eeadabe20bace00f5098c5d9dbf181d9c0d6092494a5858de094059750ccf72e28485c5480b4939c2cf288cd8c138e724d1e17ce848afd04e0d32e56883d38635d5a81523dbce0252c63247e1f47db19d5ce0460030c497f067ca4cebf71ba98eeadabe20bace049016d09d72d40fdae2fd8ceac6b6234c7706214fd39c1cd1e609a0528c19930030ce0c4920695ae7b30f6304002cac26f3bffd83b1b84b281d4495ec83956c495abb0fc89def2ee3226cc48f5621ee8e2b45f6dcc7898d2bdb5d480533c32bc0ddf252ad1be2c89b69c2b068fc378daa952ba7f163c4a11628f55a4df523b3eff0c57e16840df040f15088dc2f81fe391c3923bec73e23a9662efc9c229c6a00a26469706673582212207fd94cc2421e7c9ca32b114c182a435b3bf0774d35b3f55c854eb1787e82dd6164736f6c63430008190033",
  "linkReferences": {},
  "deployedLinkReferences": {}
}