{
  "_format": "hh-sol-artifact-1",
  "contractName": "L1WrappedStakedTON",
  "sourceName": "src/L1/L1WrappedStakedTON.sol",
  "abi": [
    {
      "inputs": [
        {
          "internalType": "address",
          "name": "target",
          "type": "address"
        }
      ],
      "name": "AddressEmptyCode",
      "type": "error"
    },
    {
      "inputs": [
        {
          "internalType": "address",
          "name": "account",
          "type": "address"
        }
      ],
      "name": "AddressInsufficientBalance",
      "type": "error"
    },
    {
      "inputs": [],
      "name": "DepositFailed",
      "type": "error"
    },
    {
      "inputs": [
        {
          "internalType": "address",
          "name": "spender",
          "type": "address"
        },
        {
          "internalType": "uint256",
          "name": "allowance",
          "type": "uint256"
        },
        {
          "internalType": "uint256",
          "name": "needed",
          "type": "uint256"
        }
      ],
      "name": "ERC20InsufficientAllowance",
      "type": "error"
    },
    {
      "inputs": [
        {
          "internalType": "address",
          "name": "sender",
          "type": "address"
        },
        {
          "internalType": "uint256",
          "name": "balance",
          "type": "uint256"
        },
        {
          "internalType": "uint256",
          "name": "needed",
          "type": "uint256"
        }
      ],
      "name": "ERC20InsufficientBalance",
      "type": "error"
    },
    {
      "inputs": [
        {
          "internalType": "address",
          "name": "approver",
          "type": "address"
        }
      ],
      "name": "ERC20InvalidApprover",
      "type": "error"
    },
    {
      "inputs": [
        {
          "internalType": "address",
          "name": "receiver",
          "type": "address"
        }
      ],
      "name": "ERC20InvalidReceiver",
      "type": "error"
    },
    {
      "inputs": [
        {
          "internalType": "address",
          "name": "sender",
          "type": "address"
        }
      ],
      "name": "ERC20InvalidSender",
      "type": "error"
    },
    {
      "inputs": [
        {
          "internalType": "address",
          "name": "spender",
          "type": "address"
        }
      ],
      "name": "ERC20InvalidSpender",
      "type": "error"
    },
    {
      "inputs": [],
      "name": "FailedInnerCall",
      "type": "error"
    },
    {
      "inputs": [
        {
          "internalType": "uint256",
          "name": "amount",
          "type": "uint256"
        }
      ],
      "name": "FailedToSwapFromTONToWTON",
      "type": "error"
    },
    {
      "inputs": [],
      "name": "InvalidInitialization",
      "type": "error"
    },
    {
      "inputs": [
        {
          "internalType": "address",
          "name": "requestor",
          "type": "address"
        }
      ],
      "name": "NoClaimableAmount",
      "type": "error"
    },
    {
      "inputs": [],
      "name": "NoRequestToProcess",
      "type": "error"
    },
    {
      "inputs": [],
      "name": "NotEnoughFunds",
      "type": "error"
    },
    {
      "inputs": [],
      "name": "NotInitializing",
      "type": "error"
    },
    {
      "inputs": [
        {
          "internalType": "address",
          "name": "owner",
          "type": "address"
        }
      ],
      "name": "OwnableInvalidOwner",
      "type": "error"
    },
    {
      "inputs": [
        {
          "internalType": "address",
          "name": "account",
          "type": "address"
        }
      ],
      "name": "OwnableUnauthorizedAccount",
      "type": "error"
    },
    {
      "inputs": [],
      "name": "ReentrancyGuardReentrantCall",
      "type": "error"
    },
    {
      "inputs": [],
      "name": "RequestAlreadyProcessed",
      "type": "error"
    },
    {
      "inputs": [
        {
          "internalType": "address",
          "name": "token",
          "type": "address"
        }
      ],
      "name": "SafeERC20FailedOperation",
      "type": "error"
    },
    {
      "inputs": [],
      "name": "WithdrawalDelayNotElapsed",
      "type": "error"
    },
    {
      "inputs": [],
      "name": "WrontAmount",
      "type": "error"
    },
    {
      "anonymous": false,
      "inputs": [
        {
          "indexed": true,
          "internalType": "address",
          "name": "owner",
          "type": "address"
        },
        {
          "indexed": true,
          "internalType": "address",
          "name": "spender",
          "type": "address"
        },
        {
          "indexed": false,
          "internalType": "uint256",
          "name": "value",
          "type": "uint256"
        }
      ],
      "name": "Approval",
      "type": "event"
    },
    {
      "anonymous": false,
      "inputs": [
        {
          "indexed": true,
          "internalType": "address",
          "name": "owner",
          "type": "address"
        },
        {
          "indexed": true,
          "internalType": "address",
          "name": "spender",
          "type": "address"
        },
        {
          "indexed": false,
          "internalType": "uint256",
          "name": "value",
          "type": "uint256"
        }
      ],
      "name": "DebugAllowance",
      "type": "event"
    },
    {
      "anonymous": false,
      "inputs": [
        {
          "indexed": true,
          "internalType": "address",
          "name": "account",
          "type": "address"
        },
        {
          "indexed": false,
          "internalType": "uint256",
          "name": "balance",
          "type": "uint256"
        }
      ],
      "name": "DebugBalance",
      "type": "event"
    },
    {
      "anonymous": false,
      "inputs": [
        {
          "indexed": false,
          "internalType": "address",
          "name": "to",
          "type": "address"
        },
        {
          "indexed": false,
          "internalType": "bool",
          "name": "token",
          "type": "bool"
        },
        {
          "indexed": false,
          "internalType": "uint256",
          "name": "amount",
          "type": "uint256"
        },
        {
          "indexed": false,
          "internalType": "uint256",
          "name": "wstonAmount",
          "type": "uint256"
        },
        {
          "indexed": false,
          "internalType": "uint256",
          "name": "depositTime",
          "type": "uint256"
        },
        {
          "indexed": false,
          "internalType": "uint256",
          "name": "depositBlockNumber",
          "type": "uint256"
        }
      ],
      "name": "Deposited",
      "type": "event"
    },
    {
      "anonymous": false,
      "inputs": [
        {
          "indexed": false,
          "internalType": "uint64",
          "name": "version",
          "type": "uint64"
        }
      ],
      "name": "Initialized",
      "type": "event"
    },
    {
      "anonymous": false,
      "inputs": [
        {
          "indexed": true,
          "internalType": "address",
          "name": "previousOwner",
          "type": "address"
        },
        {
          "indexed": true,
          "internalType": "address",
          "name": "newOwner",
          "type": "address"
        }
      ],
      "name": "OwnershipTransferred",
      "type": "event"
    },
    {
      "anonymous": false,
      "inputs": [
        {
          "indexed": false,
          "internalType": "address",
          "name": "account",
          "type": "address"
        }
      ],
      "name": "Paused",
      "type": "event"
    },
    {
      "anonymous": false,
      "inputs": [],
      "name": "SeigniorageUpdated",
      "type": "event"
    },
    {
      "anonymous": false,
      "inputs": [
        {
          "indexed": false,
          "internalType": "uint256",
          "name": "stakingIndex",
          "type": "uint256"
        }
      ],
      "name": "StakingIndexUpdated",
      "type": "event"
    },
    {
      "anonymous": false,
      "inputs": [
        {
          "indexed": true,
          "internalType": "address",
          "name": "from",
          "type": "address"
        },
        {
          "indexed": true,
          "internalType": "address",
          "name": "to",
          "type": "address"
        },
        {
          "indexed": false,
          "internalType": "uint256",
          "name": "value",
          "type": "uint256"
        }
      ],
      "name": "Transfer",
      "type": "event"
    },
    {
      "anonymous": false,
      "inputs": [
        {
          "indexed": false,
          "internalType": "address",
          "name": "account",
          "type": "address"
        }
      ],
      "name": "Unpaused",
      "type": "event"
    },
    {
      "anonymous": false,
      "inputs": [
        {
          "indexed": false,
          "internalType": "address",
          "name": "_to",
          "type": "address"
        },
        {
          "indexed": false,
          "internalType": "uint256",
          "name": "amount",
          "type": "uint256"
        }
      ],
      "name": "WithdrawalProcessed",
      "type": "event"
    },
    {
      "anonymous": false,
      "inputs": [
        {
          "indexed": true,
          "internalType": "address",
          "name": "_to",
          "type": "address"
        },
        {
          "indexed": false,
          "internalType": "uint256",
          "name": "amount",
          "type": "uint256"
        }
      ],
      "name": "WithdrawalRequested",
      "type": "event"
    },
    {
      "inputs": [],
      "name": "DECIMALS",
      "outputs": [
        {
          "internalType": "uint256",
          "name": "",
          "type": "uint256"
        }
      ],
      "stateMutability": "view",
      "type": "function"
    },
    {
      "inputs": [
        {
          "internalType": "address",
          "name": "",
          "type": "address"
        }
      ],
      "name": "aliveImplementation",
      "outputs": [
        {
          "internalType": "bool",
          "name": "",
          "type": "bool"
        }
      ],
      "stateMutability": "view",
      "type": "function"
    },
    {
      "inputs": [
        {
          "internalType": "address",
          "name": "owner",
          "type": "address"
        },
        {
          "internalType": "address",
          "name": "spender",
          "type": "address"
        }
      ],
      "name": "allowance",
      "outputs": [
        {
          "internalType": "uint256",
          "name": "",
          "type": "uint256"
        }
      ],
      "stateMutability": "view",
      "type": "function"
    },
    {
      "inputs": [
        {
          "internalType": "address",
          "name": "spender",
          "type": "address"
        },
        {
          "internalType": "uint256",
          "name": "value",
          "type": "uint256"
        }
      ],
      "name": "approve",
      "outputs": [
        {
          "internalType": "bool",
          "name": "",
          "type": "bool"
        }
      ],
      "stateMutability": "nonpayable",
      "type": "function"
    },
    {
      "inputs": [
        {
          "internalType": "address",
          "name": "account",
          "type": "address"
        }
      ],
      "name": "balanceOf",
      "outputs": [
        {
          "internalType": "uint256",
          "name": "",
          "type": "uint256"
        }
      ],
      "stateMutability": "view",
      "type": "function"
    },
    {
      "inputs": [
        {
          "internalType": "uint256",
          "name": "_index",
          "type": "uint256"
        },
        {
          "internalType": "bool",
          "name": "_token",
          "type": "bool"
        }
      ],
      "name": "claimWithdrawalIndex",
      "outputs": [],
      "stateMutability": "nonpayable",
      "type": "function"
    },
    {
      "inputs": [
        {
          "internalType": "bool",
          "name": "_token",
          "type": "bool"
        }
      ],
      "name": "claimWithdrawalTotal",
      "outputs": [],
      "stateMutability": "nonpayable",
      "type": "function"
    },
    {
      "inputs": [],
      "name": "decimals",
      "outputs": [
        {
          "internalType": "uint8",
          "name": "",
          "type": "uint8"
        }
      ],
      "stateMutability": "view",
      "type": "function"
    },
    {
      "inputs": [
        {
          "internalType": "uint256",
          "name": "_amount",
          "type": "uint256"
        },
        {
          "internalType": "bool",
          "name": "_token",
          "type": "bool"
        }
      ],
      "name": "depositWTONAndGetWSTON",
      "outputs": [],
      "stateMutability": "nonpayable",
      "type": "function"
    },
    {
      "inputs": [
        {
          "internalType": "address",
          "name": "_to",
          "type": "address"
        },
        {
          "internalType": "uint256",
          "name": "_amount",
          "type": "uint256"
        },
        {
          "internalType": "bool",
          "name": "_token",
          "type": "bool"
        }
      ],
      "name": "depositWTONAndGetWSTONTo",
      "outputs": [],
      "stateMutability": "nonpayable",
      "type": "function"
    },
    {
      "inputs": [],
      "name": "getDepositManager",
      "outputs": [
        {
          "internalType": "address",
          "name": "",
          "type": "address"
        }
      ],
      "stateMutability": "view",
      "type": "function"
    },
    {
      "inputs": [
        {
          "internalType": "address",
          "name": "requester",
          "type": "address"
        }
      ],
      "name": "getLastWithdrawalRequest",
      "outputs": [
        {
          "components": [
            {
              "internalType": "uint256",
              "name": "withdrawableBlockNumber",
              "type": "uint256"
            },
            {
              "internalType": "uint256",
              "name": "amount",
              "type": "uint256"
            },
            {
              "internalType": "bool",
              "name": "processed",
              "type": "bool"
            }
          ],
          "internalType": "struct L1WrappedStakedTONStorage.WithdrawalRequest",
          "name": "",
          "type": "tuple"
        }
      ],
      "stateMutability": "view",
      "type": "function"
    },
    {
      "inputs": [],
      "name": "getLayer2Address",
      "outputs": [
        {
          "internalType": "address",
          "name": "",
          "type": "address"
        }
      ],
      "stateMutability": "view",
      "type": "function"
    },
    {
      "inputs": [],
      "name": "getSeigManager",
      "outputs": [
        {
          "internalType": "address",
          "name": "",
          "type": "address"
        }
      ],
      "stateMutability": "view",
      "type": "function"
    },
    {
      "inputs": [],
      "name": "getStakingIndex",
      "outputs": [
        {
          "internalType": "uint256",
          "name": "",
          "type": "uint256"
        }
      ],
      "stateMutability": "view",
      "type": "function"
    },
    {
      "inputs": [],
      "name": "getTonAddress",
      "outputs": [
        {
          "internalType": "address",
          "name": "",
          "type": "address"
        }
      ],
      "stateMutability": "view",
      "type": "function"
    },
    {
      "inputs": [
        {
          "internalType": "address",
          "name": "user",
          "type": "address"
        }
      ],
      "name": "getTotalClaimableAmountByUser",
      "outputs": [
        {
          "internalType": "uint256",
          "name": "totalClaimableAmount",
          "type": "uint256"
        }
      ],
      "stateMutability": "view",
      "type": "function"
    },
    {
      "inputs": [
        {
          "internalType": "address",
          "name": "requester",
          "type": "address"
        },
        {
          "internalType": "uint256",
          "name": "index",
          "type": "uint256"
        }
      ],
      "name": "getWithdrawalRequest",
      "outputs": [
        {
          "components": [
            {
              "internalType": "uint256",
              "name": "withdrawableBlockNumber",
              "type": "uint256"
            },
            {
              "internalType": "uint256",
              "name": "amount",
              "type": "uint256"
            },
            {
              "internalType": "bool",
              "name": "processed",
              "type": "bool"
            }
          ],
          "internalType": "struct L1WrappedStakedTONStorage.WithdrawalRequest",
          "name": "",
          "type": "tuple"
        }
      ],
      "stateMutability": "view",
      "type": "function"
    },
    {
      "inputs": [
        {
          "internalType": "address",
          "name": "_user",
          "type": "address"
        }
      ],
      "name": "getWithdrawalRequestIndex",
      "outputs": [
        {
          "internalType": "uint256",
          "name": "",
          "type": "uint256"
        }
      ],
      "stateMutability": "view",
      "type": "function"
    },
    {
      "inputs": [],
      "name": "getWtonAddress",
      "outputs": [
        {
          "internalType": "address",
          "name": "",
          "type": "address"
        }
      ],
      "stateMutability": "view",
      "type": "function"
    },
    {
      "inputs": [],
      "name": "getlastSeigBlock",
      "outputs": [
        {
          "internalType": "uint256",
          "name": "",
          "type": "uint256"
        }
      ],
      "stateMutability": "view",
      "type": "function"
    },
    {
      "inputs": [
        {
          "internalType": "address",
          "name": "_layer2Address",
          "type": "address"
        },
        {
          "internalType": "address",
          "name": "_wton",
          "type": "address"
        },
        {
          "internalType": "address",
          "name": "_ton",
          "type": "address"
        },
        {
          "internalType": "address",
          "name": "_depositManager",
          "type": "address"
        },
        {
          "internalType": "address",
          "name": "_seigManager",
          "type": "address"
        },
        {
          "internalType": "address",
          "name": "_owner",
          "type": "address"
        },
        {
          "internalType": "string",
          "name": "_name",
          "type": "string"
        },
        {
          "internalType": "string",
          "name": "_symbol",
          "type": "string"
        }
      ],
      "name": "initialize",
      "outputs": [],
      "stateMutability": "nonpayable",
      "type": "function"
    },
    {
      "inputs": [],
      "name": "name",
      "outputs": [
        {
          "internalType": "string",
          "name": "",
          "type": "string"
        }
      ],
      "stateMutability": "view",
      "type": "function"
    },
    {
      "inputs": [
        {
          "internalType": "address",
          "name": "_to",
          "type": "address"
        },
        {
          "internalType": "uint256",
          "name": "_amount",
          "type": "uint256"
        },
        {
          "internalType": "bytes",
          "name": "data",
          "type": "bytes"
        }
      ],
      "name": "onApprove",
      "outputs": [
        {
          "internalType": "bool",
          "name": "",
          "type": "bool"
        }
      ],
      "stateMutability": "nonpayable",
      "type": "function"
    },
    {
      "inputs": [],
      "name": "owner",
      "outputs": [
        {
          "internalType": "address",
          "name": "",
          "type": "address"
        }
      ],
      "stateMutability": "view",
      "type": "function"
    },
    {
      "inputs": [],
      "name": "pause",
      "outputs": [],
      "stateMutability": "nonpayable",
      "type": "function"
    },
    {
      "inputs": [],
      "name": "pauseProxy",
      "outputs": [
        {
          "internalType": "bool",
          "name": "",
          "type": "bool"
        }
      ],
      "stateMutability": "view",
      "type": "function"
    },
    {
      "inputs": [
        {
          "internalType": "uint256",
          "name": "",
          "type": "uint256"
        }
      ],
      "name": "proxyImplementation",
      "outputs": [
        {
          "internalType": "address",
          "name": "",
          "type": "address"
        }
      ],
      "stateMutability": "view",
      "type": "function"
    },
    {
      "inputs": [],
      "name": "renounceOwnership",
      "outputs": [],
      "stateMutability": "nonpayable",
      "type": "function"
    },
    {
      "inputs": [
        {
          "internalType": "uint256",
          "name": "_wstonAmount",
          "type": "uint256"
        }
      ],
      "name": "requestWithdrawal",
      "outputs": [],
      "stateMutability": "nonpayable",
      "type": "function"
    },
    {
      "inputs": [
        {
          "internalType": "bytes4",
          "name": "",
          "type": "bytes4"
        }
      ],
      "name": "selectorImplementation",
      "outputs": [
        {
          "internalType": "address",
          "name": "",
          "type": "address"
        }
      ],
      "stateMutability": "view",
      "type": "function"
    },
    {
      "inputs": [
        {
          "internalType": "address",
          "name": "_depositManager",
          "type": "address"
        }
      ],
      "name": "setDepositManagerAddress",
      "outputs": [],
      "stateMutability": "nonpayable",
      "type": "function"
    },
    {
      "inputs": [
        {
          "internalType": "address",
          "name": "_seigManager",
          "type": "address"
        }
      ],
      "name": "setSeigManagerAddress",
      "outputs": [],
      "stateMutability": "nonpayable",
      "type": "function"
    },
    {
      "inputs": [],
      "name": "stakeOf",
      "outputs": [
        {
          "internalType": "uint256",
          "name": "",
          "type": "uint256"
        }
      ],
      "stateMutability": "view",
      "type": "function"
    },
    {
      "inputs": [],
      "name": "symbol",
      "outputs": [
        {
          "internalType": "string",
          "name": "",
          "type": "string"
        }
      ],
      "stateMutability": "view",
      "type": "function"
    },
    {
      "inputs": [],
      "name": "totalSupply",
      "outputs": [
        {
          "internalType": "uint256",
          "name": "",
          "type": "uint256"
        }
      ],
      "stateMutability": "view",
      "type": "function"
    },
    {
      "inputs": [
        {
          "internalType": "address",
          "name": "to",
          "type": "address"
        },
        {
          "internalType": "uint256",
          "name": "value",
          "type": "uint256"
        }
      ],
      "name": "transfer",
      "outputs": [
        {
          "internalType": "bool",
          "name": "",
          "type": "bool"
        }
      ],
      "stateMutability": "nonpayable",
      "type": "function"
    },
    {
      "inputs": [
        {
          "internalType": "address",
          "name": "from",
          "type": "address"
        },
        {
          "internalType": "address",
          "name": "to",
          "type": "address"
        },
        {
          "internalType": "uint256",
          "name": "value",
          "type": "uint256"
        }
      ],
      "name": "transferFrom",
      "outputs": [
        {
          "internalType": "bool",
          "name": "",
          "type": "bool"
        }
      ],
      "stateMutability": "nonpayable",
      "type": "function"
    },
    {
      "inputs": [
        {
          "internalType": "address",
          "name": "newOwner",
          "type": "address"
        }
      ],
      "name": "transferOwnership",
      "outputs": [],
      "stateMutability": "nonpayable",
      "type": "function"
    },
    {
      "inputs": [],
      "name": "unpause",
      "outputs": [],
      "stateMutability": "nonpayable",
      "type": "function"
    },
    {
      "inputs": [],
      "name": "updateSeigniorage",
      "outputs": [
        {
          "internalType": "bool",
          "name": "",
          "type": "bool"
        }
      ],
      "stateMutability": "nonpayable",
      "type": "function"
    }
  ],
  "bytecode": "0x60808060405234601a57600160045561310690816100208239f35b600080fdfe608080604052600436101561001357600080fd5b60003560e01c90816306fdde03146121ca57508063095ea7b31461214957806318160ddd1461211e57806323b872dd146120425780632e0f26251461201b578063313ce56714611fff57806331ae1f0214611fd65780633f0ab0ad14611fb85780633f4ba83a14611f2457806343148e5a14611eea5780635074e0c814611ecc57806350d2a27614611e8757806352171bfe14611c98578063550d01a314611c595780635a3b20bf14611c2c5780635f4c5eae14611bf057806363a8fd8914611bcd5780636ae638d014611ba457806370448bd414611b0357806370a0823114611abc578063715018a614611a52578063764a7856146119d65780637a244819146117b15780637ed72d16146117385780637f4649b7146116f55780638456cb59146116965780638da5cb5b1461166057806395d89b411461158a5780639ee679e81461124c578063a9059cbb14611226578063aa738524146111e3578063b6f20593146111ba578063b911135f14611186578063c40753f91461111f578063d6960d12146110fc578063d91714a6146110d3578063dd62ed3e1461108a578063ea300b1814610804578063ef090e4c1461028a578063f2847e64146102125763f2fde38b146101e257600080fd5b3461020d57602036600319011261020d5761020b6101fe6122a6565b6102066126c9565b61256f565b005b600080fd5b3461020d57604036600319011261020d5761022b6122a6565b6102336124b5565b5060018060a01b0316600052600c60205261028661026061025a6024356040600020612431565b50612463565b604080518251815260208084015190820152918101511515908201529081906060820190565b0390f35b3461020d5761010036600319011261020d576102a46122a6565b6102ac6122bc565b906044356001600160a01b038116810361020d57606435906001600160a01b038216820361020d57608435936001600160a01b038516850361020d5760a4356001600160a01b038116900361020d5760c4356001600160401b03811161020d5761031a903690600401612371565b9360e4356001600160401b03811161020d5761033a903690600401612371565b956000805160206130b183398151915254956001600160401b038716801590816107f4575b60011490816107ea575b1590816107e1575b506107cf5760016001600160401b03198816176000805160206130b18339815191525560ff8760401c16156107a6575b6103a9612e43565b6103b1612e43565b8051906001600160401b0382116106845781906103dc600080516020612f71833981519152546123b8565b601f811161072c575b50602090601f83116001146106a55760009261069a575b50508160011b916000199060031b1c191617600080516020612f71833981519152555b86516001600160401b03811161068457610447600080516020612ff1833981519152546123b8565b601f8111610616575b506020601f821160011461059257819060ff99600092610587575b50508160011b916000199060031b1c191617600080516020612ff1833981519152555b610496612e43565b61049e612e43565b6104a960a43561256f565b600880546001600160a01b03199081166001600160a01b039788161782556009805482169388169390931790925560058054610100600160a81b0319169390911b610100600160a81b031692909217909155600680548216928516929092179091556007805490911691909216179055676765c793fa10079d601b1b600a5560401c161561053357005b60ff60401b196000805160206130b183398151915254166000805160206130b1833981519152557fc7f505b2f371ae2175ee4913f4499e1f2633a7b5936321eed1cdaeb6115181d2602060405160018152a1005b01519050898061046b565b601f19821698600080516020612ff1833981519152600052816000209960005b8181106105fe57509160ff9a918460019594106105e5575b505050811b01600080516020612ff18339815191525561048e565b015160001960f88460031b161c191690558980806105ca565b838301518c556001909b019a602093840193016105b2565b600080516020612ff18339815191526000527f46a2803e59a4de4e7a4c574b1243f25977ac4c77d5a1a4a609b5394cebb4a2aa601f830160051c81016020841061067d575b601f830160051c82018110610671575050610450565b6000815560010161065b565b508061065b565b634e487b7160e01b600052604160045260246000fd5b0151905089806103fc565b9250600080516020612f7183398151915260005280600020906000935b601f1984168510610711576001945083601f198116106106f8575b505050811b01600080516020612f718339815191525561041f565b015160001960f88460031b161c191690558980806106dd565b818101518355602094850194600190930192909101906106c2565b600080516020612f718339815191526000529091507f2ae08a8e29253f69ac5d979a101956ab8f8d9d7ded63fa7a83b16fc47648eab0601f840160051c81016020851061079f575b90849392915b601f830160051c820181106107905750506103e5565b6000815585945060010161077a565b5080610774565b6001600160481b031987166001600160401b01176000805160206130b1833981519152556103a1565b60405163f92ee8a960e01b8152600490fd5b90501589610371565b303b159150610369565b604089901c60ff1615915061035f565b3461020d57606036600319011261020d5761081d6122a6565b60448035916024916001600160401b0390833582861161020d573660238701121561020d57856004013592831161020d573685848801011161020d5760018060a01b0392836007541633149081801561107d575b1561102957603403610fd0578587013560601c96603801359485918891869115610c5a5716149182610c50575b50501561020d5784600052602091600f835260ff6040600020541615610bcf575b8315610bbd5782600b54151580610b5a575b610aa7575b61097c9143600b55600080516020613051833981519152826108f6612d3f565b80600a55604051908152a16109128682600754168a3091612dbe565b8060085416906109438160055460081c16926109356040519485928784016124d4565b03601f198101845283612335565b80600754169060065416600060405180968195829463cae9ca5160e01b845260048401528b8d84015260608a8401526064830190612266565b03925af1908115610a9b57600091610a6e575b5015610a345750633b9aca008202633b9ac9ff1983820401610a1f576109b490612e16565b928415610a095750918391600160c0946109dd84600080516020612fd183398151915298612c99565b604051948552840152604083015260608201524260808201524360a0820152a15b602060405160018152f35b60405163ec442f0560e01b815260006004820152fd5b83634e487b7160e01b60005260116004526000fd5b9074185c1c1c9bdd99505b9910d85b1b0819985a5b1959605a1b6064926015866040519462461bcd60e51b86526004860152840152820152fd5b610a8e9150833d8511610a94575b610a868183612335565b81019061249d565b8661098f565b503d610a7c565b6040513d6000823e3d90fd5b6000908260055460081c16600460405180948193633b253c2b60e11b83525af1908115610a9b57600091610b3d575b5015610afb578261097c91600080516020612fb1833981519152600080a191506108d6565b60405162461bcd60e51b815260048101849052601c818701527b6661696c656420746f2075706461746520736569676e696f7261676560201b81840152606490fd5b610b549150843d8611610a9457610a868183612335565b87610ad6565b50600490826009541660405192838092631e6b913d60e31b82525afa8015610a9b578491600091610b8e575b5043116108d1565b82819392503d8311610bb6575b610ba58183612335565b8101031261020d5783905188610b86565b503d610b9b565b60405163396f493960e01b8152600490fd5b600e54600160401b811015610c3b576001810180600e55811015610c2657600e60009081528481209190910180546001600160a01b03191688179055868152600f845260409020805460ff191660011790556108bf565b85634e487b7160e01b60005260326004526000fd5b85634e487b7160e01b60005260416004526000fd5b149050838761089e565b16149182610fc6575b50501561020d5784600052602091600f835260ff6040600020541615610f6f575b8315610bbd57600b54151580610f0f575b610ea5575b43600b5560008051602061305183398151915283610cb6612d3f565b80600a55604051908152a1610cd2848260065416883091612dbe565b600654600854604051636eb1769f60e11b8152908316918316858280610cfc8630600484016124d4565b0381845afa918215610a9b57869388938792600091610e6f575b508411610e11575b50505082610d5093600854169060055460081c1660006040518096819582946311f9fbc960e21b845260048401612722565b03925af1908115610a9b57600091610df4575b5015610dc15750610d7382612e16565b928415610a095750918391600060c094610d9c84600080516020612fd183398151915298612c99565b604051948552840152604083015260608201524260808201524360a0820152a16109fe565b906d19195c1bdcda5d0819985a5b195960921b606492600e866040519462461bcd60e51b86526004860152840152820152fd5b610e0b9150833d8511610a9457610a868183612335565b86610d63565b6000949350604051948593849263095ea7b360e01b8452600484015281198c8401525af18015610a9b57610d509285928792610e52575b8194869150610d1e565b610e6890843d8611610a9457610a868183612335565b5089610e48565b95925050925083813d8311610e9e575b610e898183612335565b8101031261020d578487928388955190610d16565b503d610e7f565b6000838260055460081c16600460405180948193633b253c2b60e11b83525af1908115610a9b57600091610ef2575b5015610afb57600080516020612fb1833981519152600080a1610c9a565b610f099150843d8611610a9457610a868183612335565b87610ed4565b50600483826009541660405192838092631e6b913d60e31b82525afa908115610a9b57600091610f42575b504311610c95565b90508381813d8311610f68575b610f598183612335565b8101031261020d575187610f3a565b503d610f4f565b600e54600160401b811015610c3b576001810180600e55811015610c2657600e60009081528481209190910180546001600160a01b03191688179055868152600f845260409020805460ff19166001179055610c84565b1490508387610c63565b60405162461bcd60e51b815260206004820152602d818801527f496e76616c6964206f6e417070726f7665206461746120666f72204c31577261818501526c383832b229ba30b5b2b22a27a760991b6064820152608490fd5b60405162461bcd60e51b8152602060048201526028818901527f6f6e6c792061636365707420544f4e206f722057544f4e20617070726f766520818601526763616c6c6261636b60c01b6064820152608490fd5b5084600654163314610871565b3461020d57604036600319011261020d576110a36122a6565b6110b46110ae6122bc565b916122e1565b9060018060a01b03166000526020526020604060002054604051908152f35b3461020d57600036600319011261020d576006546040516001600160a01b039091168152602090f35b3461020d57600036600319011261020d5760206111176124ee565b604051908152f35b3461020d57606036600319011261020d576111386122a6565b604435801515810361020d576111689161115760ff60055416156123f2565b61115f61273d565b60243590612760565b15611174576001600455005b6040516379cacff160e01b8152600490fd5b3461020d57602036600319011261020d576004356000526001602052602060018060a01b0360406000205416604051908152f35b3461020d57600036600319011261020d576009546040516001600160a01b039091168152602090f35b3461020d57602036600319011261020d576111fc6122a6565b6112046126c9565b600980546001600160a01b0319166001600160a01b0392909216919091179055005b3461020d57604036600319011261020d576109fe6112426122a6565b6024359033612601565b3461020d5760208060031936011261020d576005546004359161127260ff8316156123f2565b60088054604051635af8ced960e11b81526001600160a01b039490921c8416600483015260249190839082908490829088165afa908115610a9b5760009161155d575b5033600052600080516020612f9183398151915293848452856040600020541061154b576112e1612d3f565b80600a5560008051602061305183398151915285604051838152a1808702908782041487151715610a1f578461134c91676765c793fa10079d601b1b9004838194600854169060055460081c16600060405180968195829463da95ebf760e01b845260048401612722565b03925af1908115610a9b5760009161152e575b50156114cc5733600052600c845261137c60406000209243612490565b906040519161138a8361231a565b825284820190815260006040830190815283549093600160401b821015610c3b57906113bb91600182018155612431565b9290926114b7579060029291518255516001820155019051151560ff8019835416911617905533600052600d825260406000206001815401905533156114a1575033600052818152826040600020549281841061147d57927fe670e4e82118d22a1f9ee18920455ebc958bae26a90a05d31d3378788b1b0e4493336000528352036040600020556000805160206130318339815191528381540390556000604051848152600080516020613091833981519152833392a36040519283523392a2005b5060405163391434e360e21b815290819061149d908533600485016125e3565b0390fd5b604051634b637e8f60e11b815260006004820152fd5b84634e487b7160e01b60005260006004526000fd5b60405162461bcd60e51b8152600481018590526035818501527f6661696c656420746f2072657175657374207769746864726177616c2066726f60448201527436903a3432903232b837b9b4ba1036b0b730b3b2b960591b6064820152608490fd5b6115459150853d8711610a9457610a868183612335565b8761135f565b604051631036b5ad60e31b8152600490fd5b90508281813d8311611583575b6115748183612335565b8101031261020d5751856112b5565b503d61156a565b3461020d57600036600319011261020d57604051600080516020612ff183398151915280548260006115bb836123b8565b928383526020946001918660018216918260001461163e5750506001146115ff575b50506115eb92500383612335565b610286604051928284938452830190612266565b85925060005281600020906000915b8583106116265750506115eb935082010185806115dd565b8054838901850152879450869390920191810161160e565b92509350506115eb94915060ff191682840152151560051b82010185806115dd565b3461020d57600036600319011261020d57600080516020613011833981519152546040516001600160a01b039091168152602090f35b3461020d57600036600319011261020d576116af6126c9565b60016005546116c160ff8216156123f2565b60ff1916176005557f62e78cea01bee320cd4e420270b5ea74000d11b0c9f74754ebdbfc544b05a2586020604051338152a1005b3461020d57602036600319011261020d5761170e6122a6565b6117166126c9565b600880546001600160a01b0319166001600160a01b0392909216919091179055005b3461020d57602036600319011261020d576117516122a6565b6117596124b5565b506001600160a01b03166000818152600d6020526040902054600019810190811161179b5761025a6102609161028693600052600c6020526040600020612431565b634e487b7160e01b600052601160045260246000fd5b3461020d57604036600319011261020d576004356117cd6122d2565b906117e660ff60055416156117e1816123f2565b6123f2565b33600052602091600c83526040600020548210156119c45733600052600c8352611814826040600020612431565b5091600160ff6002850154161515146119b257825443106119a05761184760029133600052600c86526040600020612431565b5001805460ff1916600117905515611907576001633b9aca00910154049060018060a01b0390600081836008541660448560055460081c166040519485938492636105226360e11b84526004840152600160248401525af1918215610a9b576000926118ea575b50501561020d57816118d8600080516020613071833981519152936118e593339060075416612d11565b6040519182913383612722565b0390a1005b6119009250803d10610a9457610a868183612335565b83806118ae565b600101549060018060a01b0390600081836008541660448560055460081c166040519485938492636105226360e11b845260048401528160248401525af1918215610a9b57600092611983575b50501561020d578161197e600080516020613071833981519152936118e593339060065416612d11565b6118d8565b6119999250803d10610a9457610a868183612335565b8380611954565b6040516378f67ae160e11b8152600490fd5b6040516329af1d3160e21b8152600490fd5b60405163e92d106b60e01b8152600490fd5b3461020d57600036600319011261020d576000602060018060a01b03602481600954169160055460081c16604051948593849262f0f85b60e51b845260048401525af18015610a9b57602091600091611a35575b506040519015158152f35b611a4c9150823d8411610a9457610a868183612335565b82611a2a565b3461020d57600036600319011261020d57611a6b6126c9565b60008051602061301183398151915280546001600160a01b031981169091556000906001600160a01b03167f8be0079c531659141344cd1fd0a4f28419497f9722a3daafe3b4186f6b6457e08280a3005b3461020d57602036600319011261020d576001600160a01b03611add6122a6565b16600052600080516020612f918339815191526020526020604060002054604051908152f35b3461020d5760208060031936011261020d57611b1d6122a6565b6001600160a01b03166000818152600d60205260408120549092905b82600052600c825260406000208054821015611b995761025a82611b5c92612431565b60408101511580611b8e575b611b76575b50600101611b39565b6001919483611b8792015190612490565b9390611b6d565b504381511115611b68565b602085604051908152f35b3461020d57600036600319011261020d576007546040516001600160a01b039091168152602090f35b3461020d57600036600319011261020d57602060ff600054166040519015158152f35b3461020d57604036600319011261020d57611168611c0c6122d2565b611c1b60ff60055416156123f2565b611c2361273d565b60043533612760565b3461020d57600036600319011261020d5760055460405160089190911c6001600160a01b03168152602090f35b3461020d57602036600319011261020d576001600160a01b03611c7a6122a6565b166000526002602052602060ff604060002054166040519015158152f35b3461020d5760208060031936011261020d57600435801515810361020d57611cc560ff60055416156123f2565b60009060005b3360005283600c80825260406000208054841015611d575761025a84611cf092612431565b9060408201511580611d4c575b611d0d575b505050600101611ccb565b916001939591611d41933360005282526002611d2d886040600020612431565b5001805460ff191686179055015190612490565b929050838580611d02565b504382511115611cfd565b505050508115611e6f5715611dfd5760018060a01b0391600081846008541660448660055460081c166040519485938492636105226360e11b84526004840152600160248401525af1918215610a9b57600092611de0575b50501561020d57600080516020613071833981519152916118d8633b9aca006118e593048092339060075416612d11565b611df69250803d10610a9457610a868183612335565b8380611daf565b9060018060a01b0390600081836008541660448560055460081c166040519485938492636105226360e11b845260048401528160248401525af1918215610a9b576000926119835750501561020d578161197e600080516020613071833981519152936118e593339060065416612d11565b6040516395ae4d3960e01b8152336004820152602490fd5b3461020d57602036600319011261020d5760043563ffffffff60e01b811680910361020d576000526003602052602060018060a01b0360406000205416604051908152f35b3461020d57600036600319011261020d576020600a54604051908152f35b3461020d57602036600319011261020d576001600160a01b03611f0b6122a6565b16600052600d6020526020604060002054604051908152f35b3461020d57600036600319011261020d57611f3d6126c9565b60055460ff811615611f7c5760ff19166005557f5db9ee0a495bf2e6ff9c91a7834c1ba4fdd244a5e8aa4e537bd38aeae4b073aa6020604051338152a1005b60405162461bcd60e51b815260206004820152601460248201527314185d5cd8589b194e881b9bdd081c185d5cd95960621b6044820152606490fd5b3461020d57600036600319011261020d576020600b54604051908152f35b3461020d57600036600319011261020d576008546040516001600160a01b039091168152602090f35b3461020d57600036600319011261020d576020604051601b8152f35b3461020d57600036600319011261020d57604051676765c793fa10079d601b1b8152602090f35b3461020d57606036600319011261020d5761205b6122a6565b6120636122bc565b60443590612070836122e1565b33600052602052604060002054926000198403612092575b6109fe9350612601565b828410612101576001600160a01b038116156120e85733156120cf57826109fe946120bc836122e1565b3360005260205203604060002055612088565b604051634a1406b160e11b815260006004820152602490fd5b60405163e602df0560e01b815260006004820152602490fd5b604051637dc7a0d960e11b81528061149d858733600485016125e3565b3461020d57600036600319011261020d57602060008051602061303183398151915254604051908152f35b3461020d57604036600319011261020d576121626122a6565b6024359033156120e8576001600160a01b03169081156120cf57612185336122e1565b82600052602052806040600020556040519081527f8c5be1e5ebec7d5bd14f71427d1e84f3dd0314c0f7b2291e5b200ac8c7c3b92560203392a3602060405160018152f35b3461020d57600036600319011261020d57600080516020612f7183398151915280548260006121f8836123b8565b928383526020946001918660018216918260001461163e5750506001146122275750506115eb92500383612335565b85925060005281600020906000915b85831061224e5750506115eb935082010185806115dd565b80548389018501528794508693909201918101612236565b919082519283825260005b848110612292575050826000602080949584010152601f8019910116010190565b602081830181015184830182015201612271565b600435906001600160a01b038216820361020d57565b602435906001600160a01b038216820361020d57565b60243590811515820361020d57565b6001600160a01b031660009081527f52c63247e1f47db19d5ce0460030c497f067ca4cebf71ba98eeadabe20bace016020526040902090565b606081019081106001600160401b0382111761068457604052565b90601f801991011681019081106001600160401b0382111761068457604052565b6001600160401b03811161068457601f01601f191660200190565b81601f8201121561020d5780359061238882612356565b926123966040519485612335565b8284526020838301011161020d57816000926020809301838601378301015290565b90600182811c921680156123e8575b60208310146123d257565b634e487b7160e01b600052602260045260246000fd5b91607f16916123c7565b156123f957565b60405162461bcd60e51b815260206004820152601060248201526f14185d5cd8589b194e881c185d5cd95960821b6044820152606490fd5b805482101561244d576000526003602060002091020190600090565b634e487b7160e01b600052603260045260246000fd5b906040516124708161231a565b604060ff6002839580548552600181015460208601520154161515910152565b9190820180921161179b57565b9081602091031261020d5751801515810361020d5790565b604051906124c28261231a565b60006040838281528260208201520152565b6001600160a01b0391821681529116602082015260400190565b6009546005546040516367265c3b60e11b81529160209183916001600160a01b03908116918391829161252a91309160081c16600484016124d4565b03915afa908115610a9b57600091612540575090565b90506020813d602011612567575b8161255b60209383612335565b8101031261020d575190565b3d915061254e565b6001600160a01b039081169081156125ca5760008051602061301183398151915280546001600160a01b031981168417909155167f8be0079c531659141344cd1fd0a4f28419497f9722a3daafe3b4186f6b6457e0600080a3565b604051631e4fbdf760e01b815260006004820152602490fd5b604091949392606082019560018060a01b0316825260208201520152565b916001600160a01b038084169283156126b0571692831561269757600090838252600080516020612f918339815191528060205260408320549184831061267857508284600080516020613091833981519152959360409388602097528652038282205586815220818154019055604051908152a3565b905061149d8460405193849363391434e360e21b8552600485016125e3565b60405163ec442f0560e01b815260006004820152602490fd5b604051634b637e8f60e11b815260006004820152602490fd5b600080516020613011833981519152546001600160a01b031633036126ea57565b60405163118cdaa760e01b8152336004820152602490fd5b811561270c570490565b634e487b7160e01b600052601260045260246000fd5b6001600160a01b039091168152602081019190915260400190565b60026004541461274e576002600455565b604051633ee5aeb560e01b8152600490fd5b919060018060a01b039182841693600093858552602091600f835260409360ff858820541615612c21575b8515612c1057600b54151580612bae575b612b05575b43600b55600080516020613051833981519152846127bd612d3f565b80600a558751908152a115918383156129ec57506127e2868260065416843091612dbe565b806006541681600854168651636eb1769f60e11b81528681806128098530600484016124d4565b0381865afa9081156129e2579289928b92899584916129a8575b50841161293d575b5050508261285b93600854169060055460081c168a89518096819582946311f9fbc960e21b845260048401612722565b03925af1908115612933578791612916575b50156128e15761287c85612e16565b955b87156128ca5750918593916128a660c097600080516020612fd1833981519152999795612c99565b8251958652159085015283015260608201524260808201524360a0820152a1600190565b60249085519063ec442f0560e01b82526004820152fd5b835162461bcd60e51b815260048101849052600e60248201526d19195c1bdcda5d0819985a5b195960921b6044820152606490fd5b61292d9150843d8611610a9457610a868183612335565b3861286d565b85513d89823e3d90fd5b895163095ea7b360e01b81526004810191909152600019602482015293925083916044918391905af1801561299e5761285b9286928992612981575b8a919461282b565b61299790843d8611610a9457610a868183612335565b5038612979565b86513d8a823e3d90fd5b93505092509281813d83116129db575b6129c28183612335565b810103126129d75751869289928b9284612823565b8980fd5b503d6129b8565b88513d8c823e3d90fd5b81612a0188612a5c9460075416863091612dbe565b806008541690612a238160055460081c16926109358a519485928784016124d4565b806007541690600654168a895180968195829463cae9ca5160e01b845260048401528d6024840152606060448401526064830190612266565b03925af1908115612933578791612ae8575b5015612aac57633b9aca008502633b9ac9ff1986820401612a9857612a9290612e16565b9561287e565b634e487b7160e01b87526011600452602487fd5b835162461bcd60e51b8152600481018490526015602482015274185c1c1c9bdd99505b9910d85b1b0819985a5b1959605a1b6044820152606490fd5b612aff9150843d8611610a9457610a868183612335565b38612a6e565b86848460055460081c166004885180948193633b253c2b60e11b83525af190811561299e578891612b91575b5015612b4e57600080516020612fb18339815191528780a16127a1565b845162461bcd60e51b815260048101859052601c60248201527b6661696c656420746f2075706461746520736569676e696f7261676560201b6044820152606490fd5b612ba89150853d8711610a9457610a868183612335565b38612b31565b506004848460095416875192838092631e6b913d60e31b82525afa90811561299e578891612bdf575b50431161279c565b90508481813d8311612c09575b612bf68183612335565b81010312612c05575138612bd7565b8780fd5b503d612bec565b845163396f493960e01b8152600490fd5b600e54600160401b811015612c85576001810180600e55811015612c7157600e88528488200180546001600160a01b03191689179055878752600f8452848720805460ff1916600117905561278b565b634e487b7160e01b88526032600452602488fd5b634e487b7160e01b88526041600452602488fd5b90600080516020613091833981519152602060009260008051602061303183398151915294612cc9828754612490565b86556001600160a01b03169485158514612ced578181540390555b604051908152a3565b50848452600080516020612f91833981519152825260408420818154019055612ce4565b612d38612d3d939261093560405194859263a9059cbb60e01b602085015260248401612722565b612e72565b565b612d476124ee565b6000805160206130318339815191525480151580612db5575b15612dab57676765c793fa10079d601b1b828102928015908404909114171561179b57612d8c91612702565b80600a556000805160206130518339815191526020604051838152a190565b5050600a54612d8c565b50811515612d60565b6040516323b872dd60e01b60208201526001600160a01b03928316602482015292909116604483015260648083019390935291815260a08101918183106001600160401b0384111761068457612d3d92604052612e72565b676765c793fa10079d601b1b818102918015908304909114171561179b57600a54612e4091612702565b90565b60ff6000805160206130b18339815191525460401c1615612e6057565b604051631afcd79f60e31b8152600490fd5b600080612ebc9260018060a01b03169360208151910182865af13d15612f05573d90612e9d82612356565b91612eab6040519384612335565b82523d6000602084013e5b83612f0d565b8051908115159182612eea575b5050612ed25750565b60249060405190635274afe760e01b82526004820152fd5b612efd925060208091830101910161249d565b153880612ec9565b606090612eb6565b90612f345750805115612f2257805190602001fd5b604051630a12f52160e11b8152600490fd5b81511580612f67575b612f45575090565b604051639996b31560e01b81526001600160a01b039091166004820152602490fd5b50803b15612f3d56fe52c63247e1f47db19d5ce0460030c497f067ca4cebf71ba98eeadabe20bace0352c63247e1f47db19d5ce0460030c497f067ca4cebf71ba98eeadabe20bace00f5098c5d9dbf181d9c0d6092494a5858de094059750ccf72e28485c5480b4939c2cf288cd8c138e724d1e17ce848afd04e0d32e56883d38635d5a81523dbce0252c63247e1f47db19d5ce0460030c497f067ca4cebf71ba98eeadabe20bace049016d09d72d40fdae2fd8ceac6b6234c7706214fd39c1cd1e609a0528c19930052c63247e1f47db19d5ce0460030c497f067ca4cebf71ba98eeadabe20bace0230ce0c4920695ae7b30f6304002cac26f3bffd83b1b84b281d4495ec83956c495abb0fc89def2ee3226cc48f5621ee8e2b45f6dcc7898d2bdb5d480533c32bc0ddf252ad1be2c89b69c2b068fc378daa952ba7f163c4a11628f55a4df523b3eff0c57e16840df040f15088dc2f81fe391c3923bec73e23a9662efc9c229c6a00a264697066735822122074bf30a225145499001974045b0df7223cd7b4e957465e6e78ea4d8013c8068564736f6c63430008190033",
  "linkReferences": {},
  "deployedLinkReferences": {}
}