{
  "_format": "hh-sol-artifact-1",
  "contractName": "L1WrappedStakedTON",
  "sourceName": "src/L1/L1WrappedStakedTON.sol",
  "abi": [
    {
      "inputs": [
        {
          "internalType": "address",
          "name": "target",
          "type": "address"
        }
      ],
      "name": "AddressEmptyCode",
      "type": "error"
    },
    {
      "inputs": [
        {
          "internalType": "address",
          "name": "account",
          "type": "address"
        }
      ],
      "name": "AddressInsufficientBalance",
      "type": "error"
    },
    {
      "inputs": [],
      "name": "DepositFailed",
      "type": "error"
    },
    {
      "inputs": [
        {
          "internalType": "address",
          "name": "spender",
          "type": "address"
        },
        {
          "internalType": "uint256",
          "name": "allowance",
          "type": "uint256"
        },
        {
          "internalType": "uint256",
          "name": "needed",
          "type": "uint256"
        }
      ],
      "name": "ERC20InsufficientAllowance",
      "type": "error"
    },
    {
      "inputs": [
        {
          "internalType": "address",
          "name": "sender",
          "type": "address"
        },
        {
          "internalType": "uint256",
          "name": "balance",
          "type": "uint256"
        },
        {
          "internalType": "uint256",
          "name": "needed",
          "type": "uint256"
        }
      ],
      "name": "ERC20InsufficientBalance",
      "type": "error"
    },
    {
      "inputs": [
        {
          "internalType": "address",
          "name": "approver",
          "type": "address"
        }
      ],
      "name": "ERC20InvalidApprover",
      "type": "error"
    },
    {
      "inputs": [
        {
          "internalType": "address",
          "name": "receiver",
          "type": "address"
        }
      ],
      "name": "ERC20InvalidReceiver",
      "type": "error"
    },
    {
      "inputs": [
        {
          "internalType": "address",
          "name": "sender",
          "type": "address"
        }
      ],
      "name": "ERC20InvalidSender",
      "type": "error"
    },
    {
      "inputs": [
        {
          "internalType": "address",
          "name": "spender",
          "type": "address"
        }
      ],
      "name": "ERC20InvalidSpender",
      "type": "error"
    },
    {
      "inputs": [],
      "name": "FailedInnerCall",
      "type": "error"
    },
    {
      "inputs": [
        {
          "internalType": "uint256",
          "name": "amount",
          "type": "uint256"
        }
      ],
      "name": "FailedToSwapFromTONToWTON",
      "type": "error"
    },
    {
      "inputs": [],
      "name": "InvalidInitialization",
      "type": "error"
    },
    {
      "inputs": [
        {
          "internalType": "address",
          "name": "requestor",
          "type": "address"
        }
      ],
      "name": "NoClaimableAmount",
      "type": "error"
    },
    {
      "inputs": [],
      "name": "NoRequestToProcess",
      "type": "error"
    },
    {
      "inputs": [],
      "name": "NotEnoughFunds",
      "type": "error"
    },
    {
      "inputs": [],
      "name": "NotInitializing",
      "type": "error"
    },
    {
      "inputs": [
        {
          "internalType": "address",
          "name": "owner",
          "type": "address"
        }
      ],
      "name": "OwnableInvalidOwner",
      "type": "error"
    },
    {
      "inputs": [
        {
          "internalType": "address",
          "name": "account",
          "type": "address"
        }
      ],
      "name": "OwnableUnauthorizedAccount",
      "type": "error"
    },
    {
      "inputs": [],
      "name": "ReentrancyGuardReentrantCall",
      "type": "error"
    },
    {
      "inputs": [],
      "name": "RequestAlreadyProcessed",
      "type": "error"
    },
    {
      "inputs": [
        {
          "internalType": "address",
          "name": "token",
          "type": "address"
        }
      ],
      "name": "SafeERC20FailedOperation",
      "type": "error"
    },
    {
      "inputs": [],
      "name": "WithdrawalDelayNotElapsed",
      "type": "error"
    },
    {
      "inputs": [],
      "name": "WrontAmount",
      "type": "error"
    },
    {
      "anonymous": false,
      "inputs": [
        {
          "indexed": true,
          "internalType": "address",
          "name": "owner",
          "type": "address"
        },
        {
          "indexed": true,
          "internalType": "address",
          "name": "spender",
          "type": "address"
        },
        {
          "indexed": false,
          "internalType": "uint256",
          "name": "value",
          "type": "uint256"
        }
      ],
      "name": "Approval",
      "type": "event"
    },
    {
      "anonymous": false,
      "inputs": [
        {
          "indexed": true,
          "internalType": "address",
          "name": "owner",
          "type": "address"
        },
        {
          "indexed": true,
          "internalType": "address",
          "name": "spender",
          "type": "address"
        },
        {
          "indexed": false,
          "internalType": "uint256",
          "name": "value",
          "type": "uint256"
        }
      ],
      "name": "DebugAllowance",
      "type": "event"
    },
    {
      "anonymous": false,
      "inputs": [
        {
          "indexed": true,
          "internalType": "address",
          "name": "account",
          "type": "address"
        },
        {
          "indexed": false,
          "internalType": "uint256",
          "name": "balance",
          "type": "uint256"
        }
      ],
      "name": "DebugBalance",
      "type": "event"
    },
    {
      "anonymous": false,
      "inputs": [
        {
          "indexed": false,
          "internalType": "address",
          "name": "to",
          "type": "address"
        },
        {
          "indexed": false,
          "internalType": "bool",
          "name": "token",
          "type": "bool"
        },
        {
          "indexed": false,
          "internalType": "uint256",
          "name": "amount",
          "type": "uint256"
        },
        {
          "indexed": false,
          "internalType": "uint256",
          "name": "wstonAmount",
          "type": "uint256"
        },
        {
          "indexed": false,
          "internalType": "uint256",
          "name": "depositTime",
          "type": "uint256"
        },
        {
          "indexed": false,
          "internalType": "uint256",
          "name": "depositBlockNumber",
          "type": "uint256"
        }
      ],
      "name": "Deposited",
      "type": "event"
    },
    {
      "anonymous": false,
      "inputs": [
        {
          "indexed": false,
          "internalType": "uint64",
          "name": "version",
          "type": "uint64"
        }
      ],
      "name": "Initialized",
      "type": "event"
    },
    {
      "anonymous": false,
      "inputs": [
        {
          "indexed": true,
          "internalType": "address",
          "name": "previousOwner",
          "type": "address"
        },
        {
          "indexed": true,
          "internalType": "address",
          "name": "newOwner",
          "type": "address"
        }
      ],
      "name": "OwnershipTransferred",
      "type": "event"
    },
    {
      "anonymous": false,
      "inputs": [
        {
          "indexed": false,
          "internalType": "address",
          "name": "account",
          "type": "address"
        }
      ],
      "name": "Paused",
      "type": "event"
    },
    {
      "anonymous": false,
      "inputs": [],
      "name": "SeigniorageUpdated",
      "type": "event"
    },
    {
      "anonymous": false,
      "inputs": [
        {
          "indexed": false,
          "internalType": "uint256",
          "name": "stakingIndex",
          "type": "uint256"
        }
      ],
      "name": "StakingIndexUpdated",
      "type": "event"
    },
    {
      "anonymous": false,
      "inputs": [
        {
          "indexed": true,
          "internalType": "address",
          "name": "from",
          "type": "address"
        },
        {
          "indexed": true,
          "internalType": "address",
          "name": "to",
          "type": "address"
        },
        {
          "indexed": false,
          "internalType": "uint256",
          "name": "value",
          "type": "uint256"
        }
      ],
      "name": "Transfer",
      "type": "event"
    },
    {
      "anonymous": false,
      "inputs": [
        {
          "indexed": false,
          "internalType": "address",
          "name": "account",
          "type": "address"
        }
      ],
      "name": "Unpaused",
      "type": "event"
    },
    {
      "anonymous": false,
      "inputs": [
        {
          "indexed": false,
          "internalType": "address",
          "name": "_to",
          "type": "address"
        },
        {
          "indexed": false,
          "internalType": "uint256",
          "name": "amount",
          "type": "uint256"
        }
      ],
      "name": "WithdrawalProcessed",
      "type": "event"
    },
    {
      "anonymous": false,
      "inputs": [
        {
          "indexed": true,
          "internalType": "address",
          "name": "_to",
          "type": "address"
        },
        {
          "indexed": false,
          "internalType": "uint256",
          "name": "amount",
          "type": "uint256"
        }
      ],
      "name": "WithdrawalRequested",
      "type": "event"
    },
    {
      "inputs": [],
      "name": "DECIMALS",
      "outputs": [
        {
          "internalType": "uint256",
          "name": "",
          "type": "uint256"
        }
      ],
      "stateMutability": "view",
      "type": "function"
    },
    {
      "inputs": [
        {
          "internalType": "address",
          "name": "",
          "type": "address"
        }
      ],
      "name": "aliveImplementation",
      "outputs": [
        {
          "internalType": "bool",
          "name": "",
          "type": "bool"
        }
      ],
      "stateMutability": "view",
      "type": "function"
    },
    {
      "inputs": [
        {
          "internalType": "address",
          "name": "owner",
          "type": "address"
        },
        {
          "internalType": "address",
          "name": "spender",
          "type": "address"
        }
      ],
      "name": "allowance",
      "outputs": [
        {
          "internalType": "uint256",
          "name": "",
          "type": "uint256"
        }
      ],
      "stateMutability": "view",
      "type": "function"
    },
    {
      "inputs": [
        {
          "internalType": "address",
          "name": "spender",
          "type": "address"
        },
        {
          "internalType": "uint256",
          "name": "value",
          "type": "uint256"
        }
      ],
      "name": "approve",
      "outputs": [
        {
          "internalType": "bool",
          "name": "",
          "type": "bool"
        }
      ],
      "stateMutability": "nonpayable",
      "type": "function"
    },
    {
      "inputs": [
        {
          "internalType": "address",
          "name": "account",
          "type": "address"
        }
      ],
      "name": "balanceOf",
      "outputs": [
        {
          "internalType": "uint256",
          "name": "",
          "type": "uint256"
        }
      ],
      "stateMutability": "view",
      "type": "function"
    },
    {
      "inputs": [
        {
          "internalType": "uint256",
          "name": "_index",
          "type": "uint256"
        },
        {
          "internalType": "bool",
          "name": "_token",
          "type": "bool"
        }
      ],
      "name": "claimWithdrawalIndex",
      "outputs": [],
      "stateMutability": "nonpayable",
      "type": "function"
    },
    {
      "inputs": [
        {
          "internalType": "bool",
          "name": "_token",
          "type": "bool"
        }
      ],
      "name": "claimWithdrawalTotal",
      "outputs": [],
      "stateMutability": "nonpayable",
      "type": "function"
    },
    {
      "inputs": [],
      "name": "decimals",
      "outputs": [
        {
          "internalType": "uint8",
          "name": "",
          "type": "uint8"
        }
      ],
      "stateMutability": "view",
      "type": "function"
    },
    {
      "inputs": [
        {
          "internalType": "uint256",
          "name": "_amount",
          "type": "uint256"
        },
        {
          "internalType": "bool",
          "name": "_token",
          "type": "bool"
        }
      ],
      "name": "depositWTONAndGetWSTON",
      "outputs": [],
      "stateMutability": "nonpayable",
      "type": "function"
    },
    {
      "inputs": [
        {
          "internalType": "address",
          "name": "_to",
          "type": "address"
        },
        {
          "internalType": "uint256",
          "name": "_amount",
          "type": "uint256"
        },
        {
          "internalType": "bool",
          "name": "_token",
          "type": "bool"
        }
      ],
      "name": "depositWTONAndGetWSTONTo",
      "outputs": [],
      "stateMutability": "nonpayable",
      "type": "function"
    },
    {
      "inputs": [],
      "name": "getDepositManager",
      "outputs": [
        {
          "internalType": "address",
          "name": "",
          "type": "address"
        }
      ],
      "stateMutability": "view",
      "type": "function"
    },
    {
      "inputs": [
        {
          "internalType": "address",
          "name": "requester",
          "type": "address"
        }
      ],
      "name": "getLastWithdrawalRequest",
      "outputs": [
        {
          "components": [
            {
              "internalType": "uint256",
              "name": "withdrawableBlockNumber",
              "type": "uint256"
            },
            {
              "internalType": "uint256",
              "name": "amount",
              "type": "uint256"
            },
            {
              "internalType": "bool",
              "name": "processed",
              "type": "bool"
            }
          ],
          "internalType": "struct L1WrappedStakedTONStorage.WithdrawalRequest",
          "name": "",
          "type": "tuple"
        }
      ],
      "stateMutability": "view",
      "type": "function"
    },
    {
      "inputs": [],
      "name": "getSeigManager",
      "outputs": [
        {
          "internalType": "address",
          "name": "",
          "type": "address"
        }
      ],
      "stateMutability": "view",
      "type": "function"
    },
    {
      "inputs": [],
      "name": "getStakingIndex",
      "outputs": [
        {
          "internalType": "uint256",
          "name": "",
          "type": "uint256"
        }
      ],
      "stateMutability": "view",
      "type": "function"
    },
    {
      "inputs": [
        {
          "internalType": "address",
          "name": "user",
          "type": "address"
        }
      ],
      "name": "getTotalClaimableAmountByUser",
      "outputs": [
        {
          "internalType": "uint256",
          "name": "totalClaimableAmount",
          "type": "uint256"
        }
      ],
      "stateMutability": "view",
      "type": "function"
    },
    {
      "inputs": [
        {
          "internalType": "address",
          "name": "requester",
          "type": "address"
        },
        {
          "internalType": "uint256",
          "name": "index",
          "type": "uint256"
        }
      ],
      "name": "getWithdrawalRequest",
      "outputs": [
        {
          "components": [
            {
              "internalType": "uint256",
              "name": "withdrawableBlockNumber",
              "type": "uint256"
            },
            {
              "internalType": "uint256",
              "name": "amount",
              "type": "uint256"
            },
            {
              "internalType": "bool",
              "name": "processed",
              "type": "bool"
            }
          ],
          "internalType": "struct L1WrappedStakedTONStorage.WithdrawalRequest",
          "name": "",
          "type": "tuple"
        }
      ],
      "stateMutability": "view",
      "type": "function"
    },
    {
      "inputs": [
        {
          "internalType": "address",
          "name": "_layer2Address",
          "type": "address"
        },
        {
          "internalType": "address",
          "name": "_wton",
          "type": "address"
        },
        {
          "internalType": "address",
          "name": "_ton",
          "type": "address"
        },
        {
          "internalType": "address",
          "name": "_depositManager",
          "type": "address"
        },
        {
          "internalType": "address",
          "name": "_seigManager",
          "type": "address"
        },
        {
          "internalType": "address",
          "name": "_owner",
          "type": "address"
        },
        {
          "internalType": "string",
          "name": "_name",
          "type": "string"
        },
        {
          "internalType": "string",
          "name": "_symbol",
          "type": "string"
        }
      ],
      "name": "initialize",
      "outputs": [],
      "stateMutability": "nonpayable",
      "type": "function"
    },
    {
      "inputs": [],
      "name": "lastSeigBlock",
      "outputs": [
        {
          "internalType": "uint256",
          "name": "",
          "type": "uint256"
        }
      ],
      "stateMutability": "view",
      "type": "function"
    },
    {
      "inputs": [],
      "name": "layer2Address",
      "outputs": [
        {
          "internalType": "address",
          "name": "",
          "type": "address"
        }
      ],
      "stateMutability": "view",
      "type": "function"
    },
    {
      "inputs": [],
      "name": "name",
      "outputs": [
        {
          "internalType": "string",
          "name": "",
          "type": "string"
        }
      ],
      "stateMutability": "view",
      "type": "function"
    },
    {
      "inputs": [
        {
          "internalType": "address",
          "name": "_to",
          "type": "address"
        },
        {
          "internalType": "uint256",
          "name": "_amount",
          "type": "uint256"
        },
        {
          "internalType": "bytes",
          "name": "data",
          "type": "bytes"
        }
      ],
      "name": "onApprove",
      "outputs": [
        {
          "internalType": "bool",
          "name": "",
          "type": "bool"
        }
      ],
      "stateMutability": "nonpayable",
      "type": "function"
    },
    {
      "inputs": [],
      "name": "owner",
      "outputs": [
        {
          "internalType": "address",
          "name": "",
          "type": "address"
        }
      ],
      "stateMutability": "view",
      "type": "function"
    },
    {
      "inputs": [],
      "name": "pause",
      "outputs": [],
      "stateMutability": "nonpayable",
      "type": "function"
    },
    {
      "inputs": [],
      "name": "pauseProxy",
      "outputs": [
        {
          "internalType": "bool",
          "name": "",
          "type": "bool"
        }
      ],
      "stateMutability": "view",
      "type": "function"
    },
    {
      "inputs": [
        {
          "internalType": "uint256",
          "name": "",
          "type": "uint256"
        }
      ],
      "name": "proxyImplementation",
      "outputs": [
        {
          "internalType": "address",
          "name": "",
          "type": "address"
        }
      ],
      "stateMutability": "view",
      "type": "function"
    },
    {
      "inputs": [],
      "name": "renounceOwnership",
      "outputs": [],
      "stateMutability": "nonpayable",
      "type": "function"
    },
    {
      "inputs": [
        {
          "internalType": "uint256",
          "name": "_wstonAmount",
          "type": "uint256"
        }
      ],
      "name": "requestWithdrawal",
      "outputs": [],
      "stateMutability": "nonpayable",
      "type": "function"
    },
    {
      "inputs": [
        {
          "internalType": "bytes4",
          "name": "",
          "type": "bytes4"
        }
      ],
      "name": "selectorImplementation",
      "outputs": [
        {
          "internalType": "address",
          "name": "",
          "type": "address"
        }
      ],
      "stateMutability": "view",
      "type": "function"
    },
    {
      "inputs": [
        {
          "internalType": "address",
          "name": "_depositManager",
          "type": "address"
        }
      ],
      "name": "setDepositManagerAddress",
      "outputs": [],
      "stateMutability": "nonpayable",
      "type": "function"
    },
    {
      "inputs": [
        {
          "internalType": "address",
          "name": "_seigManager",
          "type": "address"
        }
      ],
      "name": "setSeigManagerAddress",
      "outputs": [],
      "stateMutability": "nonpayable",
      "type": "function"
    },
    {
      "inputs": [],
      "name": "stakeOf",
      "outputs": [
        {
          "internalType": "uint256",
          "name": "",
          "type": "uint256"
        }
      ],
      "stateMutability": "view",
      "type": "function"
    },
    {
      "inputs": [],
      "name": "symbol",
      "outputs": [
        {
          "internalType": "string",
          "name": "",
          "type": "string"
        }
      ],
      "stateMutability": "view",
      "type": "function"
    },
    {
      "inputs": [],
      "name": "ton",
      "outputs": [
        {
          "internalType": "address",
          "name": "",
          "type": "address"
        }
      ],
      "stateMutability": "view",
      "type": "function"
    },
    {
      "inputs": [],
      "name": "totalSupply",
      "outputs": [
        {
          "internalType": "uint256",
          "name": "",
          "type": "uint256"
        }
      ],
      "stateMutability": "view",
      "type": "function"
    },
    {
      "inputs": [
        {
          "internalType": "address",
          "name": "to",
          "type": "address"
        },
        {
          "internalType": "uint256",
          "name": "value",
          "type": "uint256"
        }
      ],
      "name": "transfer",
      "outputs": [
        {
          "internalType": "bool",
          "name": "",
          "type": "bool"
        }
      ],
      "stateMutability": "nonpayable",
      "type": "function"
    },
    {
      "inputs": [
        {
          "internalType": "address",
          "name": "from",
          "type": "address"
        },
        {
          "internalType": "address",
          "name": "to",
          "type": "address"
        },
        {
          "internalType": "uint256",
          "name": "value",
          "type": "uint256"
        }
      ],
      "name": "transferFrom",
      "outputs": [
        {
          "internalType": "bool",
          "name": "",
          "type": "bool"
        }
      ],
      "stateMutability": "nonpayable",
      "type": "function"
    },
    {
      "inputs": [
        {
          "internalType": "address",
          "name": "newOwner",
          "type": "address"
        }
      ],
      "name": "transferOwnership",
      "outputs": [],
      "stateMutability": "nonpayable",
      "type": "function"
    },
    {
      "inputs": [],
      "name": "unpause",
      "outputs": [],
      "stateMutability": "nonpayable",
      "type": "function"
    },
    {
      "inputs": [],
      "name": "updateSeigniorage",
      "outputs": [
        {
          "internalType": "bool",
          "name": "",
          "type": "bool"
        }
      ],
      "stateMutability": "nonpayable",
      "type": "function"
    },
    {
      "inputs": [
        {
          "internalType": "address",
          "name": "",
          "type": "address"
        },
        {
          "internalType": "uint256",
          "name": "",
          "type": "uint256"
        }
      ],
      "name": "withdrawalRequests",
      "outputs": [
        {
          "internalType": "uint256",
          "name": "withdrawableBlockNumber",
          "type": "uint256"
        },
        {
          "internalType": "uint256",
          "name": "amount",
          "type": "uint256"
        },
        {
          "internalType": "bool",
          "name": "processed",
          "type": "bool"
        }
      ],
      "stateMutability": "view",
      "type": "function"
    },
    {
      "inputs": [],
      "name": "wton",
      "outputs": [
        {
          "internalType": "address",
          "name": "",
          "type": "address"
        }
      ],
      "stateMutability": "view",
      "type": "function"
    }
  ],
  "bytecode": "0x60808060405234601a57600160045561313c90816100208239f35b600080fdfe608080604052600436101561001357600080fd5b60003560e01c90816306fdde031461220057508063095ea7b31461217f57806318160ddd1461215457806323b872dd146120785780632e0f262514612051578063313ce5671461203557806331ae1f021461200c5780633f4ba83a14611f785780634d3d629f14611f4b5780634e5a232814611edb5780635074e0c814611ebd57806350d2a27614611e7857806352171bfe14611c89578063550d01a314611c4a5780635f4c5eae14611c0e57806363a8fd8914611beb57806370448bd414611b4a57806370a0823114611b03578063715018a614611a99578063764a785614611a1d5780637a244819146117f85780637ed72d161461177f5780637f4649b71461173c5780638456cb59146116dd5780638d62d949146116b45780638da5cb5b1461167e57806395d89b41146115a85780639ee679e81461126a578063a9059cbb14611244578063aa73852414611201578063b6f20593146111d8578063b911135f146111a4578063c40753f91461113d578063cc48b94714611114578063d6960d12146110f1578063dd62ed3e146110a8578063ea300b1814610822578063ef090e4c146102a8578063f2847e6414610230578063f2fde38b146102055763f35c89e8146101e257600080fd5b34610200576000366003190112610200576020600b54604051908152f35b600080fd5b346102005760203660031901126102005761022e6102216122dc565b6102296126ff565b6125a5565b005b34610200576040366003190112610200576102496122dc565b6102516124eb565b5060018060a01b0316600052600c6020526102a461027e6102786024356040600020612341565b50612499565b604080518251815260208084015190820152918101511515908201529081906060820190565b0390f35b3461020057610100366003190112610200576102c26122dc565b6102ca6122f2565b906044356001600160a01b038116810361020057606435906001600160a01b038216820361020057608435936001600160a01b03851685036102005760a4356001600160a01b03811690036102005760c4356001600160401b038111610200576103389036906004016123d9565b9360e4356001600160401b038111610200576103589036906004016123d9565b956000805160206130e783398151915254956001600160401b03871680159081610812575b6001149081610808575b1590816107ff575b506107ed5760016001600160401b03198816176000805160206130e78339815191525560ff8760401c16156107c4575b6103c7612e79565b6103cf612e79565b8051906001600160401b0382116106a25781906103fa600080516020612fa783398151915254612420565b601f811161074a575b50602090601f83116001146106c3576000926106b8575b50508160011b916000199060031b1c191617600080516020612fa7833981519152555b86516001600160401b0381116106a25761046560008051602061302783398151915254612420565b601f8111610634575b506020601f82116001146105b057819060ff996000926105a5575b50508160011b916000199060031b1c191617600080516020613027833981519152555b6104b4612e79565b6104bc612e79565b6104c760a4356125a5565b600880546001600160a01b03199081166001600160a01b039788161782556009805482169388169390931790925560058054610100600160a81b0319169390911b610100600160a81b031692909217909155600680548216928516929092179091556007805490911691909216179055676765c793fa10079d601b1b600a5560401c161561055157005b60ff60401b196000805160206130e783398151915254166000805160206130e7833981519152557fc7f505b2f371ae2175ee4913f4499e1f2633a7b5936321eed1cdaeb6115181d2602060405160018152a1005b015190508980610489565b601f19821698600080516020613027833981519152600052816000209960005b81811061061c57509160ff9a91846001959410610603575b505050811b01600080516020613027833981519152556104ac565b015160001960f88460031b161c191690558980806105e8565b838301518c556001909b019a602093840193016105d0565b6000805160206130278339815191526000527f46a2803e59a4de4e7a4c574b1243f25977ac4c77d5a1a4a609b5394cebb4a2aa601f830160051c81016020841061069b575b601f830160051c8201811061068f57505061046e565b60008155600101610679565b5080610679565b634e487b7160e01b600052604160045260246000fd5b01519050898061041a565b9250600080516020612fa783398151915260005280600020906000935b601f198416851061072f576001945083601f19811610610716575b505050811b01600080516020612fa78339815191525561043d565b015160001960f88460031b161c191690558980806106fb565b818101518355602094850194600190930192909101906106e0565b600080516020612fa78339815191526000529091507f2ae08a8e29253f69ac5d979a101956ab8f8d9d7ded63fa7a83b16fc47648eab0601f840160051c8101602085106107bd575b90849392915b601f830160051c820181106107ae575050610403565b60008155859450600101610798565b5080610792565b6001600160481b031987166001600160401b01176000805160206130e7833981519152556103bf565b60405163f92ee8a960e01b8152600490fd5b9050158961038f565b303b159150610387565b604089901c60ff1615915061037d565b346102005760603660031901126102005761083b6122dc565b60448035916024916001600160401b03908335828611610200573660238701121561020057856004013592831161020057368584880101116102005760018060a01b0392836007541633149081801561109b575b1561104757603403610fee578587013560601c96603801359485918891869115610c785716149182610c6e575b5050156102005784600052602091600f835260ff6040600020541615610bed575b8315610bdb5782600b54151580610b78575b610ac5575b61099a9143600b5560008051602061308783398151915282610914612d75565b80600a55604051908152a16109308682600754168a3091612df4565b8060085416906109618160055460081c169261095360405194859287840161250a565b03601f19810184528361239d565b80600754169060065416600060405180968195829463cae9ca5160e01b845260048401528b8d84015260608a840152606483019061229c565b03925af1908115610ab957600091610a8c575b5015610a525750633b9aca008202633b9ac9ff1983820401610a3d576109d290612e4c565b928415610a275750918391600160c0946109fb8460008051602061300783398151915298612ccf565b604051948552840152604083015260608201524260808201524360a0820152a15b602060405160018152f35b60405163ec442f0560e01b815260006004820152fd5b83634e487b7160e01b60005260116004526000fd5b9074185c1c1c9bdd99505b9910d85b1b0819985a5b1959605a1b6064926015866040519462461bcd60e51b86526004860152840152820152fd5b610aac9150833d8511610ab2575b610aa4818361239d565b8101906124d3565b866109ad565b503d610a9a565b6040513d6000823e3d90fd5b6000908260055460081c16600460405180948193633b253c2b60e11b83525af1908115610ab957600091610b5b575b5015610b19578261099a91600080516020612fe7833981519152600080a191506108f4565b60405162461bcd60e51b815260048101849052601c818701527b6661696c656420746f2075706461746520736569676e696f7261676560201b81840152606490fd5b610b729150843d8611610ab257610aa4818361239d565b87610af4565b50600490826009541660405192838092631e6b913d60e31b82525afa8015610ab9578491600091610bac575b5043116108ef565b82819392503d8311610bd4575b610bc3818361239d565b810103126102005783905188610ba4565b503d610bb9565b60405163396f493960e01b8152600490fd5b600e54600160401b811015610c59576001810180600e55811015610c4457600e60009081528481209190910180546001600160a01b03191688179055868152600f845260409020805460ff191660011790556108dd565b85634e487b7160e01b60005260326004526000fd5b85634e487b7160e01b60005260416004526000fd5b14905083876108bc565b16149182610fe4575b5050156102005784600052602091600f835260ff6040600020541615610f8d575b8315610bdb57600b54151580610f2d575b610ec3575b43600b5560008051602061308783398151915283610cd4612d75565b80600a55604051908152a1610cf0848260065416883091612df4565b600654600854604051636eb1769f60e11b8152908316918316858280610d1a86306004840161250a565b0381845afa918215610ab957869388938792600091610e8d575b508411610e2f575b50505082610d6e93600854169060055460081c1660006040518096819582946311f9fbc960e21b845260048401612758565b03925af1908115610ab957600091610e12575b5015610ddf5750610d9182612e4c565b928415610a275750918391600060c094610dba8460008051602061300783398151915298612ccf565b604051948552840152604083015260608201524260808201524360a0820152a1610a1c565b906d19195c1bdcda5d0819985a5b195960921b606492600e866040519462461bcd60e51b86526004860152840152820152fd5b610e299150833d8511610ab257610aa4818361239d565b86610d81565b6000949350604051948593849263095ea7b360e01b8452600484015281198c8401525af18015610ab957610d6e9285928792610e70575b8194869150610d3c565b610e8690843d8611610ab257610aa4818361239d565b5089610e66565b95925050925083813d8311610ebc575b610ea7818361239d565b81010312610200578487928388955190610d34565b503d610e9d565b6000838260055460081c16600460405180948193633b253c2b60e11b83525af1908115610ab957600091610f10575b5015610b1957600080516020612fe7833981519152600080a1610cb8565b610f279150843d8611610ab257610aa4818361239d565b87610ef2565b50600483826009541660405192838092631e6b913d60e31b82525afa908115610ab957600091610f60575b504311610cb3565b90508381813d8311610f86575b610f77818361239d565b81010312610200575187610f58565b503d610f6d565b600e54600160401b811015610c59576001810180600e55811015610c4457600e60009081528481209190910180546001600160a01b03191688179055868152600f845260409020805460ff19166001179055610ca2565b1490508387610c81565b60405162461bcd60e51b815260206004820152602d818801527f496e76616c6964206f6e417070726f7665206461746120666f72204c31577261818501526c383832b229ba30b5b2b22a27a760991b6064820152608490fd5b60405162461bcd60e51b8152602060048201526028818901527f6f6e6c792061636365707420544f4e206f722057544f4e20617070726f766520818601526763616c6c6261636b60c01b6064820152608490fd5b508460065416331461088f565b34610200576040366003190112610200576110c16122dc565b6110d26110cc6122f2565b91612308565b9060018060a01b03166000526020526020604060002054604051908152f35b3461020057600036600319011261020057602061110c612524565b604051908152f35b34610200576000366003190112610200576007546040516001600160a01b039091168152602090f35b34610200576060366003190112610200576111566122dc565b6044358015158103610200576111869161117560ff600554161561245a565b61117d612773565b60243590612796565b15611192576001600455005b6040516379cacff160e01b8152600490fd5b34610200576020366003190112610200576004356000526001602052602060018060a01b0360406000205416604051908152f35b34610200576000366003190112610200576009546040516001600160a01b039091168152602090f35b346102005760203660031901126102005761121a6122dc565b6112226126ff565b600980546001600160a01b0319166001600160a01b0392909216919091179055005b3461020057604036600319011261020057610a1c6112606122dc565b6024359033612637565b3461020057602080600319360112610200576005546004359161129060ff83161561245a565b60088054604051635af8ced960e11b81526001600160a01b039490921c8416600483015260249190839082908490829088165afa908115610ab95760009161157b575b5033600052600080516020612fc7833981519152938484528560406000205410611569576112ff612d75565b80600a5560008051602061308783398151915285604051838152a1808702908782041487151715610a3d578461136a91676765c793fa10079d601b1b9004838194600854169060055460081c16600060405180968195829463da95ebf760e01b845260048401612758565b03925af1908115610ab95760009161154c575b50156114ea5733600052600c845261139a604060002092436124c6565b90604051916113a883612382565b825284820190815260006040830190815283549093600160401b821015610c5957906113d991600182018155612341565b9290926114d5579060029291518255516001820155019051151560ff8019835416911617905533600052600d825260406000206001815401905533156114bf575033600052818152826040600020549281841061149b57927fe670e4e82118d22a1f9ee18920455ebc958bae26a90a05d31d3378788b1b0e44933360005283520360406000205560008051602061306783398151915283815403905560006040518481526000805160206130c7833981519152833392a36040519283523392a2005b5060405163391434e360e21b81529081906114bb90853360048501612619565b0390fd5b604051634b637e8f60e11b815260006004820152fd5b84634e487b7160e01b60005260006004526000fd5b60405162461bcd60e51b8152600481018590526035818501527f6661696c656420746f2072657175657374207769746864726177616c2066726f60448201527436903a3432903232b837b9b4ba1036b0b730b3b2b960591b6064820152608490fd5b6115639150853d8711610ab257610aa4818361239d565b8761137d565b604051631036b5ad60e31b8152600490fd5b90508281813d83116115a1575b611592818361239d565b810103126102005751856112d3565b503d611588565b346102005760003660031901126102005760405160008051602061302783398151915280548260006115d983612420565b928383526020946001918660018216918260001461165c57505060011461161d575b50506116099250038361239d565b6102a460405192828493845283019061229c565b85925060005281600020906000915b858310611644575050611609935082010185806115fb565b8054838901850152879450869390920191810161162c565b925093505061160994915060ff191682840152151560051b82010185806115fb565b3461020057600036600319011261020057600080516020613047833981519152546040516001600160a01b039091168152602090f35b34610200576000366003190112610200576006546040516001600160a01b039091168152602090f35b34610200576000366003190112610200576116f66126ff565b600160055461170860ff82161561245a565b60ff1916176005557f62e78cea01bee320cd4e420270b5ea74000d11b0c9f74754ebdbfc544b05a2586020604051338152a1005b34610200576020366003190112610200576117556122dc565b61175d6126ff565b600880546001600160a01b0319166001600160a01b0392909216919091179055005b34610200576020366003190112610200576117986122dc565b6117a06124eb565b506001600160a01b03166000818152600d602052604090205460001981019081116117e25761027861027e916102a493600052600c6020526040600020612341565b634e487b7160e01b600052601160045260246000fd5b3461020057604036600319011261020057600435611814612373565b9061182d60ff60055416156118288161245a565b61245a565b33600052602091600c8352604060002054821015611a0b5733600052600c835261185b826040600020612341565b5091600160ff6002850154161515146119f957825443106119e75761188e60029133600052600c86526040600020612341565b5001805460ff191660011790551561194e576001633b9aca00910154049060018060a01b0390600081836008541660448560055460081c166040519485938492636105226360e11b84526004840152600160248401525af1918215610ab957600092611931575b505015610200578161191f6000805160206130a78339815191529361192c93339060075416612d47565b6040519182913383612758565b0390a1005b6119479250803d10610ab257610aa4818361239d565b83806118f5565b600101549060018060a01b0390600081836008541660448560055460081c166040519485938492636105226360e11b845260048401528160248401525af1918215610ab9576000926119ca575b50501561020057816119c56000805160206130a78339815191529361192c93339060065416612d47565b61191f565b6119e09250803d10610ab257610aa4818361239d565b838061199b565b6040516378f67ae160e11b8152600490fd5b6040516329af1d3160e21b8152600490fd5b60405163e92d106b60e01b8152600490fd5b34610200576000366003190112610200576000602060018060a01b03602481600954169160055460081c16604051948593849262f0f85b60e51b845260048401525af18015610ab957602091600091611a7c575b506040519015158152f35b611a939150823d8411610ab257610aa4818361239d565b82611a71565b3461020057600036600319011261020057611ab26126ff565b60008051602061304783398151915280546001600160a01b031981169091556000906001600160a01b03167f8be0079c531659141344cd1fd0a4f28419497f9722a3daafe3b4186f6b6457e08280a3005b34610200576020366003190112610200576001600160a01b03611b246122dc565b16600052600080516020612fc78339815191526020526020604060002054604051908152f35b346102005760208060031936011261020057611b646122dc565b6001600160a01b03166000818152600d60205260408120549092905b82600052600c825260406000208054821015611be05761027882611ba392612341565b60408101511580611bd5575b611bbd575b50600101611b80565b6001919483611bce920151906124c6565b9390611bb4565b504381511115611baf565b602085604051908152f35b3461020057600036600319011261020057602060ff600054166040519015158152f35b3461020057604036600319011261020057611186611c2a612373565b611c3960ff600554161561245a565b611c41612773565b60043533612796565b34610200576020366003190112610200576001600160a01b03611c6b6122dc565b166000526002602052602060ff604060002054166040519015158152f35b346102005760208060031936011261020057600435801515810361020057611cb660ff600554161561245a565b60009060005b3360005283600c80825260406000208054841015611d485761027884611ce192612341565b9060408201511580611d3d575b611cfe575b505050600101611cbc565b916001939591611d32933360005282526002611d1e886040600020612341565b5001805460ff1916861790550151906124c6565b929050838580611cf3565b504382511115611cee565b505050508115611e605715611dee5760018060a01b0391600081846008541660448660055460081c166040519485938492636105226360e11b84526004840152600160248401525af1918215610ab957600092611dd1575b505015610200576000805160206130a78339815191529161191f633b9aca0061192c93048092339060075416612d47565b611de79250803d10610ab257610aa4818361239d565b8380611da0565b9060018060a01b0390600081836008541660448560055460081c166040519485938492636105226360e11b845260048401528160248401525af1918215610ab9576000926119ca5750501561020057816119c56000805160206130a78339815191529361192c93339060065416612d47565b6040516395ae4d3960e01b8152336004820152602490fd5b346102005760203660031901126102005760043563ffffffff60e01b8116809103610200576000526003602052602060018060a01b0360406000205416604051908152f35b34610200576000366003190112610200576020600a54604051908152f35b3461020057604036600319011261020057611ef46122dc565b6001600160a01b03166000908152600c602052604090208054602435919082101561020057606091611f2591612341565b5080549060ff600260018301549201541690604051928352602083015215156040820152f35b346102005760003660031901126102005760055460405160089190911c6001600160a01b03168152602090f35b3461020057600036600319011261020057611f916126ff565b60055460ff811615611fd05760ff19166005557f5db9ee0a495bf2e6ff9c91a7834c1ba4fdd244a5e8aa4e537bd38aeae4b073aa6020604051338152a1005b60405162461bcd60e51b815260206004820152601460248201527314185d5cd8589b194e881b9bdd081c185d5cd95960621b6044820152606490fd5b34610200576000366003190112610200576008546040516001600160a01b039091168152602090f35b34610200576000366003190112610200576020604051601b8152f35b3461020057600036600319011261020057604051676765c793fa10079d601b1b8152602090f35b34610200576060366003190112610200576120916122dc565b6120996122f2565b604435906120a683612308565b336000526020526040600020549260001984036120c8575b610a1c9350612637565b828410612137576001600160a01b0381161561211e5733156121055782610a1c946120f283612308565b33600052602052036040600020556120be565b604051634a1406b160e11b815260006004820152602490fd5b60405163e602df0560e01b815260006004820152602490fd5b604051637dc7a0d960e11b8152806114bb85873360048501612619565b3461020057600036600319011261020057602060008051602061306783398151915254604051908152f35b34610200576040366003190112610200576121986122dc565b60243590331561211e576001600160a01b0316908115612105576121bb33612308565b82600052602052806040600020556040519081527f8c5be1e5ebec7d5bd14f71427d1e84f3dd0314c0f7b2291e5b200ac8c7c3b92560203392a3602060405160018152f35b3461020057600036600319011261020057600080516020612fa7833981519152805482600061222e83612420565b928383526020946001918660018216918260001461165c57505060011461225d5750506116099250038361239d565b85925060005281600020906000915b858310612284575050611609935082010185806115fb565b8054838901850152879450869390920191810161226c565b919082519283825260005b8481106122c8575050826000602080949584010152601f8019910116010190565b6020818301810151848301820152016122a7565b600435906001600160a01b038216820361020057565b602435906001600160a01b038216820361020057565b6001600160a01b031660009081527f52c63247e1f47db19d5ce0460030c497f067ca4cebf71ba98eeadabe20bace016020526040902090565b805482101561235d576000526003602060002091020190600090565b634e487b7160e01b600052603260045260246000fd5b60243590811515820361020057565b606081019081106001600160401b038211176106a257604052565b90601f801991011681019081106001600160401b038211176106a257604052565b6001600160401b0381116106a257601f01601f191660200190565b81601f82011215610200578035906123f0826123be565b926123fe604051948561239d565b8284526020838301011161020057816000926020809301838601378301015290565b90600182811c92168015612450575b602083101461243a57565b634e487b7160e01b600052602260045260246000fd5b91607f169161242f565b1561246157565b60405162461bcd60e51b815260206004820152601060248201526f14185d5cd8589b194e881c185d5cd95960821b6044820152606490fd5b906040516124a681612382565b604060ff6002839580548552600181015460208601520154161515910152565b919082018092116117e257565b90816020910312610200575180151581036102005790565b604051906124f882612382565b60006040838281528260208201520152565b6001600160a01b0391821681529116602082015260400190565b6009546005546040516367265c3b60e11b81529160209183916001600160a01b03908116918391829161256091309160081c166004840161250a565b03915afa908115610ab957600091612576575090565b90506020813d60201161259d575b816125916020938361239d565b81010312610200575190565b3d9150612584565b6001600160a01b039081169081156126005760008051602061304783398151915280546001600160a01b031981168417909155167f8be0079c531659141344cd1fd0a4f28419497f9722a3daafe3b4186f6b6457e0600080a3565b604051631e4fbdf760e01b815260006004820152602490fd5b604091949392606082019560018060a01b0316825260208201520152565b916001600160a01b038084169283156126e657169283156126cd57600090838252600080516020612fc7833981519152806020526040832054918483106126ae575082846000805160206130c7833981519152959360409388602097528652038282205586815220818154019055604051908152a3565b90506114bb8460405193849363391434e360e21b855260048501612619565b60405163ec442f0560e01b815260006004820152602490fd5b604051634b637e8f60e11b815260006004820152602490fd5b600080516020613047833981519152546001600160a01b0316330361272057565b60405163118cdaa760e01b8152336004820152602490fd5b8115612742570490565b634e487b7160e01b600052601260045260246000fd5b6001600160a01b039091168152602081019190915260400190565b600260045414612784576002600455565b604051633ee5aeb560e01b8152600490fd5b919060018060a01b039182841693600093858552602091600f835260409360ff858820541615612c57575b8515612c4657600b54151580612be4575b612b3b575b43600b55600080516020613087833981519152846127f3612d75565b80600a558751908152a11591838315612a225750612818868260065416843091612df4565b806006541681600854168651636eb1769f60e11b815286818061283f85306004840161250a565b0381865afa908115612a18579289928b92899584916129de575b508411612973575b5050508261289193600854169060055460081c168a89518096819582946311f9fbc960e21b845260048401612758565b03925af190811561296957879161294c575b5015612917576128b285612e4c565b955b87156129005750918593916128dc60c097600080516020613007833981519152999795612ccf565b8251958652159085015283015260608201524260808201524360a0820152a1600190565b60249085519063ec442f0560e01b82526004820152fd5b835162461bcd60e51b815260048101849052600e60248201526d19195c1bdcda5d0819985a5b195960921b6044820152606490fd5b6129639150843d8611610ab257610aa4818361239d565b386128a3565b85513d89823e3d90fd5b895163095ea7b360e01b81526004810191909152600019602482015293925083916044918391905af180156129d45761289192869289926129b7575b8a9194612861565b6129cd90843d8611610ab257610aa4818361239d565b50386129af565b86513d8a823e3d90fd5b93505092509281813d8311612a11575b6129f8818361239d565b81010312612a0d5751869289928b9284612859565b8980fd5b503d6129ee565b88513d8c823e3d90fd5b81612a3788612a929460075416863091612df4565b806008541690612a598160055460081c16926109538a5194859287840161250a565b806007541690600654168a895180968195829463cae9ca5160e01b845260048401528d602484015260606044840152606483019061229c565b03925af1908115612969578791612b1e575b5015612ae257633b9aca008502633b9ac9ff1986820401612ace57612ac890612e4c565b956128b4565b634e487b7160e01b87526011600452602487fd5b835162461bcd60e51b8152600481018490526015602482015274185c1c1c9bdd99505b9910d85b1b0819985a5b1959605a1b6044820152606490fd5b612b359150843d8611610ab257610aa4818361239d565b38612aa4565b86848460055460081c166004885180948193633b253c2b60e11b83525af19081156129d4578891612bc7575b5015612b8457600080516020612fe78339815191528780a16127d7565b845162461bcd60e51b815260048101859052601c60248201527b6661696c656420746f2075706461746520736569676e696f7261676560201b6044820152606490fd5b612bde9150853d8711610ab257610aa4818361239d565b38612b67565b506004848460095416875192838092631e6b913d60e31b82525afa9081156129d4578891612c15575b5043116127d2565b90508481813d8311612c3f575b612c2c818361239d565b81010312612c3b575138612c0d565b8780fd5b503d612c22565b845163396f493960e01b8152600490fd5b600e54600160401b811015612cbb576001810180600e55811015612ca757600e88528488200180546001600160a01b03191689179055878752600f8452848720805460ff191660011790556127c1565b634e487b7160e01b88526032600452602488fd5b634e487b7160e01b88526041600452602488fd5b906000805160206130c7833981519152602060009260008051602061306783398151915294612cff8287546124c6565b86556001600160a01b03169485158514612d23578181540390555b604051908152a3565b50848452600080516020612fc7833981519152825260408420818154019055612d1a565b612d6e612d73939261095360405194859263a9059cbb60e01b602085015260248401612758565b612ea8565b565b612d7d612524565b6000805160206130678339815191525480151580612deb575b15612de157676765c793fa10079d601b1b82810292801590840490911417156117e257612dc291612738565b80600a556000805160206130878339815191526020604051838152a190565b5050600a54612dc2565b50811515612d96565b6040516323b872dd60e01b60208201526001600160a01b03928316602482015292909116604483015260648083019390935291815260a08101918183106001600160401b038411176106a257612d7392604052612ea8565b676765c793fa10079d601b1b81810291801590830490911417156117e257600a54612e7691612738565b90565b60ff6000805160206130e78339815191525460401c1615612e9657565b604051631afcd79f60e31b8152600490fd5b600080612ef29260018060a01b03169360208151910182865af13d15612f3b573d90612ed3826123be565b91612ee1604051938461239d565b82523d6000602084013e5b83612f43565b8051908115159182612f20575b5050612f085750565b60249060405190635274afe760e01b82526004820152fd5b612f3392506020809183010191016124d3565b153880612eff565b606090612eec565b90612f6a5750805115612f5857805190602001fd5b604051630a12f52160e11b8152600490fd5b81511580612f9d575b612f7b575090565b604051639996b31560e01b81526001600160a01b039091166004820152602490fd5b50803b15612f7356fe52c63247e1f47db19d5ce0460030c497f067ca4cebf71ba98eeadabe20bace0352c63247e1f47db19d5ce0460030c497f067ca4cebf71ba98eeadabe20bace00f5098c5d9dbf181d9c0d6092494a5858de094059750ccf72e28485c5480b4939c2cf288cd8c138e724d1e17ce848afd04e0d32e56883d38635d5a81523dbce0252c63247e1f47db19d5ce0460030c497f067ca4cebf71ba98eeadabe20bace049016d09d72d40fdae2fd8ceac6b6234c7706214fd39c1cd1e609a0528c19930052c63247e1f47db19d5ce0460030c497f067ca4cebf71ba98eeadabe20bace0230ce0c4920695ae7b30f6304002cac26f3bffd83b1b84b281d4495ec83956c495abb0fc89def2ee3226cc48f5621ee8e2b45f6dcc7898d2bdb5d480533c32bc0ddf252ad1be2c89b69c2b068fc378daa952ba7f163c4a11628f55a4df523b3eff0c57e16840df040f15088dc2f81fe391c3923bec73e23a9662efc9c229c6a00a2646970667358221220a4f0782d019a3b7808e320f6a833cbcb133d47a80e3e782e194eb386c9fbafa564736f6c63430008190033",
  "linkReferences": {},
  "deployedLinkReferences": {}
}