{
  "_format": "hh-sol-artifact-1",
  "contractName": "ProxyGemFactory",
  "sourceName": "src/proxy/ProxyGemFactory.sol",
  "abi": [
    {
      "inputs": [],
      "stateMutability": "nonpayable",
      "type": "constructor"
    },
    {
      "inputs": [],
      "name": "AccessControlBadConfirmation",
      "type": "error"
    },
    {
      "inputs": [
        {
          "internalType": "address",
          "name": "account",
          "type": "address"
        },
        {
          "internalType": "bytes32",
          "name": "neededRole",
          "type": "bytes32"
        }
      ],
      "name": "AccessControlUnauthorizedAccount",
      "type": "error"
    },
    {
      "anonymous": false,
      "inputs": [
        {
          "indexed": true,
          "internalType": "bytes32",
          "name": "role",
          "type": "bytes32"
        },
        {
          "indexed": true,
          "internalType": "bytes32",
          "name": "previousAdminRole",
          "type": "bytes32"
        },
        {
          "indexed": true,
          "internalType": "bytes32",
          "name": "newAdminRole",
          "type": "bytes32"
        }
      ],
      "name": "RoleAdminChanged",
      "type": "event"
    },
    {
      "anonymous": false,
      "inputs": [
        {
          "indexed": true,
          "internalType": "bytes32",
          "name": "role",
          "type": "bytes32"
        },
        {
          "indexed": true,
          "internalType": "address",
          "name": "account",
          "type": "address"
        },
        {
          "indexed": true,
          "internalType": "address",
          "name": "sender",
          "type": "address"
        }
      ],
      "name": "RoleGranted",
      "type": "event"
    },
    {
      "anonymous": false,
      "inputs": [
        {
          "indexed": true,
          "internalType": "bytes32",
          "name": "role",
          "type": "bytes32"
        },
        {
          "indexed": true,
          "internalType": "address",
          "name": "account",
          "type": "address"
        },
        {
          "indexed": true,
          "internalType": "address",
          "name": "sender",
          "type": "address"
        }
      ],
      "name": "RoleRevoked",
      "type": "event"
    },
    {
      "anonymous": false,
      "inputs": [
        {
          "indexed": true,
          "internalType": "address",
          "name": "impl",
          "type": "address"
        },
        {
          "indexed": false,
          "internalType": "bool",
          "name": "alive",
          "type": "bool"
        }
      ],
      "name": "SetAliveImplementation",
      "type": "event"
    },
    {
      "anonymous": false,
      "inputs": [
        {
          "indexed": true,
          "internalType": "bytes4",
          "name": "selector",
          "type": "bytes4"
        },
        {
          "indexed": true,
          "internalType": "address",
          "name": "impl",
          "type": "address"
        }
      ],
      "name": "SetSelectorImplementation",
      "type": "event"
    },
    {
      "anonymous": false,
      "inputs": [
        {
          "indexed": true,
          "internalType": "address",
          "name": "implementation",
          "type": "address"
        }
      ],
      "name": "Upgraded",
      "type": "event"
    },
    {
      "stateMutability": "payable",
      "type": "fallback"
    },
    {
      "inputs": [],
      "name": "DEFAULT_ADMIN_ROLE",
      "outputs": [
        {
          "internalType": "bytes32",
          "name": "",
          "type": "bytes32"
        }
      ],
      "stateMutability": "view",
      "type": "function"
    },
    {
      "inputs": [],
      "name": "PAUSE_ROLE",
      "outputs": [
        {
          "internalType": "bytes32",
          "name": "",
          "type": "bytes32"
        }
      ],
      "stateMutability": "view",
      "type": "function"
    },
    {
      "inputs": [],
      "name": "TREASURY_ROLE",
      "outputs": [
        {
          "internalType": "bytes32",
          "name": "",
          "type": "bytes32"
        }
      ],
      "stateMutability": "view",
      "type": "function"
    },
    {
      "inputs": [
        {
          "internalType": "address",
          "name": "account",
          "type": "address"
        }
      ],
      "name": "addAdmin",
      "outputs": [],
      "stateMutability": "nonpayable",
      "type": "function"
    },
    {
      "inputs": [
        {
          "internalType": "address",
          "name": "account",
          "type": "address"
        }
      ],
      "name": "addMinter",
      "outputs": [],
      "stateMutability": "nonpayable",
      "type": "function"
    },
    {
      "inputs": [
        {
          "internalType": "address",
          "name": "",
          "type": "address"
        }
      ],
      "name": "aliveImplementation",
      "outputs": [
        {
          "internalType": "bool",
          "name": "",
          "type": "bool"
        }
      ],
      "stateMutability": "view",
      "type": "function"
    },
    {
      "inputs": [
        {
          "internalType": "bytes32",
          "name": "role",
          "type": "bytes32"
        }
      ],
      "name": "getRoleAdmin",
      "outputs": [
        {
          "internalType": "bytes32",
          "name": "",
          "type": "bytes32"
        }
      ],
      "stateMutability": "view",
      "type": "function"
    },
    {
      "inputs": [
        {
          "internalType": "bytes4",
          "name": "_selector",
          "type": "bytes4"
        }
      ],
      "name": "getSelectorImplementation2",
      "outputs": [
        {
          "internalType": "address",
          "name": "impl",
          "type": "address"
        }
      ],
      "stateMutability": "view",
      "type": "function"
    },
    {
      "inputs": [
        {
          "internalType": "bytes32",
          "name": "role",
          "type": "bytes32"
        },
        {
          "internalType": "address",
          "name": "account",
          "type": "address"
        }
      ],
      "name": "grantRole",
      "outputs": [],
      "stateMutability": "nonpayable",
      "type": "function"
    },
    {
      "inputs": [
        {
          "internalType": "bytes32",
          "name": "role",
          "type": "bytes32"
        },
        {
          "internalType": "address",
          "name": "account",
          "type": "address"
        }
      ],
      "name": "hasRole",
      "outputs": [
        {
          "internalType": "bool",
          "name": "",
          "type": "bool"
        }
      ],
      "stateMutability": "view",
      "type": "function"
    },
    {
      "inputs": [],
      "name": "implementation",
      "outputs": [
        {
          "internalType": "address",
          "name": "",
          "type": "address"
        }
      ],
      "stateMutability": "view",
      "type": "function"
    },
    {
      "inputs": [
        {
          "internalType": "uint256",
          "name": "_index",
          "type": "uint256"
        }
      ],
      "name": "implementation2",
      "outputs": [
        {
          "internalType": "address",
          "name": "",
          "type": "address"
        }
      ],
      "stateMutability": "view",
      "type": "function"
    },
    {
      "inputs": [
        {
          "internalType": "address",
          "name": "account",
          "type": "address"
        }
      ],
      "name": "isAdmin",
      "outputs": [
        {
          "internalType": "bool",
          "name": "",
          "type": "bool"
        }
      ],
      "stateMutability": "view",
      "type": "function"
    },
    {
      "inputs": [
        {
          "internalType": "address",
          "name": "account",
          "type": "address"
        }
      ],
      "name": "isMinter",
      "outputs": [
        {
          "internalType": "bool",
          "name": "",
          "type": "bool"
        }
      ],
      "stateMutability": "view",
      "type": "function"
    },
    {
      "inputs": [],
      "name": "isOwner",
      "outputs": [
        {
          "internalType": "bool",
          "name": "",
          "type": "bool"
        }
      ],
      "stateMutability": "view",
      "type": "function"
    },
    {
      "inputs": [],
      "name": "pauseProxy",
      "outputs": [
        {
          "internalType": "bool",
          "name": "",
          "type": "bool"
        }
      ],
      "stateMutability": "view",
      "type": "function"
    },
    {
      "inputs": [
        {
          "internalType": "uint256",
          "name": "",
          "type": "uint256"
        }
      ],
      "name": "proxyImplementation",
      "outputs": [
        {
          "internalType": "address",
          "name": "",
          "type": "address"
        }
      ],
      "stateMutability": "view",
      "type": "function"
    },
    {
      "inputs": [
        {
          "internalType": "address",
          "name": "account",
          "type": "address"
        }
      ],
      "name": "removeAdmin",
      "outputs": [],
      "stateMutability": "nonpayable",
      "type": "function"
    },
    {
      "inputs": [
        {
          "internalType": "address",
          "name": "account",
          "type": "address"
        }
      ],
      "name": "removeMinter",
      "outputs": [],
      "stateMutability": "nonpayable",
      "type": "function"
    },
    {
      "inputs": [],
      "name": "renounceMinter",
      "outputs": [],
      "stateMutability": "nonpayable",
      "type": "function"
    },
    {
      "inputs": [],
      "name": "renounceOwnership",
      "outputs": [],
      "stateMutability": "nonpayable",
      "type": "function"
    },
    {
      "inputs": [
        {
          "internalType": "bytes32",
          "name": "role",
          "type": "bytes32"
        },
        {
          "internalType": "address",
          "name": "callerConfirmation",
          "type": "address"
        }
      ],
      "name": "renounceRole",
      "outputs": [],
      "stateMutability": "nonpayable",
      "type": "function"
    },
    {
      "inputs": [
        {
          "internalType": "address",
          "name": "account",
          "type": "address"
        }
      ],
      "name": "revokeMinter",
      "outputs": [],
      "stateMutability": "nonpayable",
      "type": "function"
    },
    {
      "inputs": [
        {
          "internalType": "bytes32",
          "name": "role",
          "type": "bytes32"
        },
        {
          "internalType": "address",
          "name": "account",
          "type": "address"
        }
      ],
      "name": "revokeRole",
      "outputs": [],
      "stateMutability": "nonpayable",
      "type": "function"
    },
    {
      "inputs": [
        {
          "internalType": "bytes4",
          "name": "",
          "type": "bytes4"
        }
      ],
      "name": "selectorImplementation",
      "outputs": [
        {
          "internalType": "address",
          "name": "",
          "type": "address"
        }
      ],
      "stateMutability": "view",
      "type": "function"
    },
    {
      "inputs": [
        {
          "internalType": "address",
          "name": "newImplementation",
          "type": "address"
        },
        {
          "internalType": "bool",
          "name": "_alive",
          "type": "bool"
        }
      ],
      "name": "setAliveImplementation2",
      "outputs": [],
      "stateMutability": "nonpayable",
      "type": "function"
    },
    {
      "inputs": [
        {
          "internalType": "address",
          "name": "newImplementation",
          "type": "address"
        },
        {
          "internalType": "uint256",
          "name": "_index",
          "type": "uint256"
        },
        {
          "internalType": "bool",
          "name": "_alive",
          "type": "bool"
        }
      ],
      "name": "setImplementation2",
      "outputs": [],
      "stateMutability": "nonpayable",
      "type": "function"
    },
    {
      "inputs": [
        {
          "internalType": "bool",
          "name": "_pause",
          "type": "bool"
        }
      ],
      "name": "setProxyPause",
      "outputs": [],
      "stateMutability": "nonpayable",
      "type": "function"
    },
    {
      "inputs": [
        {
          "internalType": "bytes4[]",
          "name": "_selectors",
          "type": "bytes4[]"
        },
        {
          "internalType": "address",
          "name": "_imp",
          "type": "address"
        }
      ],
      "name": "setSelectorImplementations2",
      "outputs": [],
      "stateMutability": "nonpayable",
      "type": "function"
    },
    {
      "inputs": [
        {
          "internalType": "bytes4",
          "name": "interfaceId",
          "type": "bytes4"
        }
      ],
      "name": "supportsInterface",
      "outputs": [
        {
          "internalType": "bool",
          "name": "",
          "type": "bool"
        }
      ],
      "stateMutability": "view",
      "type": "function"
    },
    {
      "inputs": [
        {
          "internalType": "address",
          "name": "newAdmin",
          "type": "address"
        }
      ],
      "name": "transferAdmin",
      "outputs": [],
      "stateMutability": "nonpayable",
      "type": "function"
    },
    {
      "inputs": [
        {
          "internalType": "address",
          "name": "newAdmin",
          "type": "address"
        }
      ],
      "name": "transferOwnership",
      "outputs": [],
      "stateMutability": "nonpayable",
      "type": "function"
    },
    {
      "inputs": [
        {
          "internalType": "address",
          "name": "impl",
          "type": "address"
        }
      ],
      "name": "upgradeTo",
      "outputs": [],
      "stateMutability": "nonpayable",
      "type": "function"
    },
    {
      "stateMutability": "payable",
      "type": "receive"
    }
  ],
  "bytecode": "0x608060405234610099576100123361009e565b507f06aa03964db1f7257357ef09714a5f0ca3633723df419e97015e0c7a3e83edb7600081815260046020527f97c071b0264ee03e42bebdc3ee62a0c4f285b066f1cc64dd2c88584f8acb938d805490829055604051927fbd79b86ffe0ab8e8776151514217cd7cacd52c909f66475c3af44e129f0b00ff8380a461157590816101308239f35b600080fd5b6001600160a01b031660008181527f17ef568e3e12ab5b9c7254a8d58478811de00f9e6eb34345acd53bf8fd09d3ec602052604081205490919060ff1661012b5781805260046020526040822081835260205260408220600160ff1982541617905533917f2f8788117e7eff1d82e926ec794901d17c78024a50270940304540a733656f0d8180a4600190565b509056fe60806040526004361015610018575b3661144457611082565b60003560e01c806301ffc9a7146102235780631785f53c1461021e578063248a9ca31461021957806324d7806c146102145780632f2ff15d1461020f5780633092afd51461020a57806336568abe146102055780633659cfe614610200578063389ed267146101fb5780634a5df50f146101f657806350d2a276146101f1578063550d01a3146101ec5780635c60da1b146101e75780635cc797d8146101e257806363a8fd89146101dd57806370480275146101d8578063715018a6146101d357806375829def146101ce5780637cb00d25146101c95780637cd5f663146101c45780638b8f4a651461019c5780638d4fdb40146101bf5780638f32d59b146101ba57806391d14854146101b5578063983b2d56146101b057806398650275146101ab578063a217fddf146101a6578063aa271e1a146101a1578063b911135f1461019c578063cfbd488514610197578063d11a57ec14610192578063d547741f1461018d5763f2fde38b0361000e57610d94565b610d55565b610d2c565b610cbc565b610b0a565b610c7c565b610c60565b610c46565b610bd6565b610ba2565b610b77565b610b3e565b610a51565b6109fc565b610917565b6108df565b610879565b610856565b610802565b6107ce565b61078f565b610718565b610560565b610525565b61044b565b610404565b6103bd565b61037e565b610340565b610311565b6102c1565b61023f565b6001600160e01b031981160361023a57565b600080fd5b3461023a57602036600319011261023a57602060043561025e81610228565b63ffffffff60e01b16637965db0b60e01b8114908115610284575b506040519015158152f35b6301ffc9a760e01b14905038610279565b600435906001600160a01b038216820361023a57565b602435906001600160a01b038216820361023a57565b3461023a57602036600319011261023a5761030f6102dd610295565b60008052600460205261030a60ff61030333600080516020611500833981519152610778565b5416610e0e565b610ea2565b005b3461023a57602036600319011261023a5760043560005260046020526020600160406000200154604051908152f35b3461023a57602036600319011261023a57602060ff610372610360610295565b60008052600484526040600020610778565b54166040519015158152f35b3461023a57604036600319011261023a5761030f60043561039d6102ab565b908060005260046020526103b86001604060002001546110be565b61122a565b3461023a57602036600319011261023a5761030f6103d9610295565b6000805260046020526103ff60ff61030333600080516020611500833981519152610778565b610ebb565b3461023a57604036600319011261023a5761041d6102ab565b336001600160a01b038216036104395761030f90600435611360565b60405163334bd91960e11b8152600490fd5b3461023a57602036600319011261023a57610464610295565b600080805260046020529061048c60ff61030333600080516020611500833981519152610778565b6001600160a01b0381169081156104f057828052600160205260408320546104c991906104c4906001600160a01b0316841415610ed4565b61137a565b7fbc7cd75a20ee27fd9adebab32041f755214dbc6bffa90cc0225b39da2e5c2d3b8280a280f35b60405162461bcd60e51b815260206004820152600d60248201526c696e707574206973207a65726f60981b6044820152606490fd5b3461023a57600036600319011261023a5760206040517ffcb9fcbfa83b897fb2d5cf4b58962164105c1e71489a37ef3ae0db3fdce576f68152f35b3461023a57604036600319011261023a5767ffffffffffffffff60043581811161023a573660238201121561023a57806004013591821161023a576024810190602436918460051b01011161023a576105b76102ab565b60008080526004602052926105df60ff61030333600080516020611500833981519152610778565b80156106bb576106026105fd6105f684959461075e565b5460ff1690565b610f0c565b6001600160a01b03928084169290855b83811061061d578680f35b80610658868861065061064361063e6106396001988c8c610f53565b610f79565b6106ff565b546001600160a01b031690565b161415610f86565b6106728361066d61063e610639858a8a610f53565b610fd2565b85610691610684610639848989610f53565b6001600160e01b03191690565b7f14ebc1c32aa68f4d766e89f3e546cee249f7df25183fc10ab1568d91c2ce9b7b8a80a301610612565b606460405162461bcd60e51b815260206004820152602060248201527f50726f78793a205f73656c6563746f727327732073697a65206973207a65726f6044820152fd5b63ffffffff60e01b166000526003602052604060002090565b3461023a57602036600319011261023a5760043561073581610228565b63ffffffff60e01b166000526003602052602060018060a01b0360406000205416604051908152f35b6001600160a01b0316600090815260026020526040902090565b9060018060a01b0316600052602052604060002090565b3461023a57602036600319011261023a576001600160a01b036107b0610295565b166000526002602052602060ff604060002054166040519015158152f35b3461023a576000806003193601126107ff5780806020925260018252604060018060a01b0391205416604051908152f35b80fd5b3461023a57604036600319011261023a5761081b610295565b602435801515810361023a5760008052600460205261030f9161085160ff61030333600080516020611500833981519152610778565b6113f0565b3461023a57600036600319011261023a57602060ff600054166040519015158152f35b3461023a57602036600319011261023a57610892610295565b60008080526004602052906108db906108be60ff61030333600080516020611500833981519152610778565b82805260046020526108d660016040852001546110be565b6110ff565b5080f35b3461023a576000806003193601126107ff57808052600460205261090b60ff6103033360408520610778565b61091433610ea2565b80f35b3461023a57602036600319011261023a57610930610295565b60008052600460205261095660ff61030333600080516020611500833981519152610778565b6001600160a01b03811680156109bc57331461097e5761097590610e66565b61030f33610ea2565b60405162461bcd60e51b815260206004820152601660248201527520b1b1b2b9b9b4b136329d1039b0b6b29030b236b4b760511b6044820152606490fd5b60405162461bcd60e51b815260206004820152601860248201527741636365737369626c653a207a65726f206164647265737360401b6044820152606490fd5b3461023a57602036600319011261023a5760043580151580910361023a576000808052600460205290610a4260ff61030333600080516020611500833981519152610778565b60ff8019835416911617815580f35b3461023a57606036600319011261023a57610a6a610295565b60443590811515820361023a576000808052600460205291610a9f60ff61030333600080516020611500833981519152610778565b813b15610ac7576109149181156113f057602435845260016020526108518160408620610fd2565b60405162461bcd60e51b815260206004820152601b60248201527a50726f78793a206e6f7420636f6e7472616374206164647265737360281b6044820152606490fd5b3461023a57602036600319011261023a576004356000526001602052602060018060a01b0360406000205416604051908152f35b3461023a57602036600319011261023a576020610b65600435610b6081610228565b610ff1565b6040516001600160a01b039091168152f35b3461023a576000806003193601126107ff5760ff610372828060209452600484526040339120610778565b3461023a57604036600319011261023a57602060ff610372610bc26102ab565b600435600052600484526040600020610778565b3461023a57602036600319011261023a57610bef610295565b60008080526004602052906108db90610c1b60ff61030333600080516020611500833981519152610778565b60008051602061152083398151915283526004602052610c4160016040852001546110be565b611183565b3461023a57600036600319011261023a5761030f33610ebb565b3461023a57600036600319011261023a57602060405160008152f35b3461023a57602036600319011261023a57602060ff610372610c9c610295565b600080516020611520833981519152600052600484526040600020610778565b3461023a57602036600319011261023a57610cd5610295565b60008080526004602052906108db90610d0160ff61030333600080516020611500833981519152610778565b60008051602061152083398151915283526004602052610d2760016040852001546110be565b611244565b3461023a57600036600319011261023a5760206040516000805160206115208339815191528152f35b3461023a57604036600319011261023a5761030f600435610d746102ab565b90806000526004602052610d8f6001604060002001546110be565b611360565b3461023a57602036600319011261023a57610dad610295565b6000808052600460205290610dd560ff61030333600080516020611500833981519152610778565b8180526004602052610def60ff6103033360408620610778565b6001600160a01b03811680156109bc57331461097e5761090b90610e66565b15610e1557565b60405162461bcd60e51b815260206004820152602360248201527f41757468436f6e74726f6c3a2043616c6c6572206973206e6f7420616e20616460448201526236b4b760e91b6064820152608490fd5b6000805260046020527f17ef568e3e12ab5b9c7254a8d58478811de00f9e6eb34345acd53bf8fd09d3ed54610e9f91906108d6906110be565b50565b336001600160a01b0382160361043957610e9f906112e3565b336001600160a01b0382160361043957610e9f90611244565b15610edb57565b60405162461bcd60e51b815260206004820152600960248201526839b0b6b29030b2323960b91b6044820152606490fd5b15610f1357565b60405162461bcd60e51b815260206004820152601860248201527750726f78793a205f696d70206973206e6f7420616c69766560401b6044820152606490fd5b9190811015610f635760051b0190565b634e487b7160e01b600052603260045260246000fd5b35610f8381610228565b90565b15610f8d57565b60405162461bcd60e51b815260206004820152601d60248201527f4c69717569646974795661756c7450726f78793a2073616d6520696d700000006044820152606490fd5b80546001600160a01b0319166001600160a01b03909216919091179055565b6001600160e01b031981166000908152600360205260409020546001600160a01b039190821661103e57506000805260016020526000805160206114e0833981519152541690565b541690565b60ff6110548361104d846106ff565b541661075e565b54161561106457611039906106ff565b506000805260016020526000805160206114e0833981519152541690565b60405162461bcd60e51b815260206004820152601460248201527331b0b73737ba103932b1b2b4bb329022ba3432b960611b6044820152606490fd5b80600052600460205260ff6110d7336040600020610778565b5416156110e15750565b6044906040519063e2517d3f60e01b82523360048301526024820152fd5b6000808052600460205260ff61112383600080516020611500833981519152610778565b541661117e57808052600460205261113e8260408320610778565b805460ff1916600117905533916001600160a01b0316907f2f8788117e7eff1d82e926ec794901d17c78024a50270940304540a733656f0d8180a4600190565b905090565b600080516020611520833981519152600081815260046020529060ff6111c9847f97c071b0264ee03e42bebdc3ee62a0c4f285b066f1cc64dd2c88584f8acb938c610778565b54166112245780825260046020526111e48360408420610778565b805460ff1916600117905533926001600160a01b0316917f2f8788117e7eff1d82e926ec794901d17c78024a50270940304540a733656f0d9080a4600190565b50905090565b600090808252600460205260ff6111c98460408520610778565b600080516020611520833981519152600081815260046020529060ff61128a847f97c071b0264ee03e42bebdc3ee62a0c4f285b066f1cc64dd2c88584f8acb938c610778565b5416156112245780825260046020526112a68360408420610778565b805460ff1916905533926001600160a01b0316917ff6391f5c32d9c69d2a47ea670b442974b53935d1edc7fd64eb21e047a839171b9080a4600190565b6000808052600460205260ff61130783600080516020611500833981519152610778565b54161561117e5780805260046020526113238260408320610778565b805460ff1916905533916001600160a01b0316907ff6391f5c32d9c69d2a47ea670b442974b53935d1edc7fd64eb21e047a839171b8180a4600190565b600090808252600460205260ff61128a8460408520610778565b803b15610ac7576000805260016020526113a2816000805160206114e0833981519152610fd2565b60018060a01b03168060005260026020526040600020600160ff198254161790557f72558d9bfba4210f9ef095c782589484151f6d90f7a81bb3cb9b33efc695d324602060405160018152a2565b60207f72558d9bfba4210f9ef095c782589484151f6d90f7a81bb3cb9b33efc695d3249160018060a01b031692836000526002825260406000209015159060ff1981541660ff8316179055604051908152a2565b600061145a81356001600160e01b031916610ff1565b6001600160a01b0381161515806114d3575b1561148e57818091368280378136915af43d82803e1561148a573d90f35b3d90fd5b60405162461bcd60e51b815260206004820152601d60248201527f50726f78793a20696d706c204f522070726f78792069732066616c73650000006044820152606490fd5b5060ff8254161561146c56fea6eef7e35abe7026729641147f7915573c7e97b47efa546f5f6e3230263bcb4917ef568e3e12ab5b9c7254a8d58478811de00f9e6eb34345acd53bf8fd09d3ec06aa03964db1f7257357ef09714a5f0ca3633723df419e97015e0c7a3e83edb7a2646970667358221220222edf75c45a873a96b59fa84aa1423ea1648334dfd58b32a8db189dc837dac564736f6c63430008190033",
  "linkReferences": {},
  "deployedLinkReferences": {}
}