{
  "_format": "hh-sol-artifact-1",
  "contractName": "L1WrappedStakedTONFactory",
  "sourceName": "src/L1/L1WrappedStakedTONFactory.sol",
  "abi": [
    {
      "inputs": [],
      "name": "AccessControlBadConfirmation",
      "type": "error"
    },
    {
      "inputs": [
        {
          "internalType": "address",
          "name": "account",
          "type": "address"
        },
        {
          "internalType": "bytes32",
          "name": "neededRole",
          "type": "bytes32"
        }
      ],
      "name": "AccessControlUnauthorizedAccount",
      "type": "error"
    },
    {
      "inputs": [],
      "name": "AlreadyInitialized",
      "type": "error"
    },
    {
      "inputs": [],
      "name": "NotContractOwner",
      "type": "error"
    },
    {
      "inputs": [],
      "name": "SameAdmin",
      "type": "error"
    },
    {
      "inputs": [],
      "name": "ZeroAddress",
      "type": "error"
    },
    {
      "anonymous": false,
      "inputs": [
        {
          "indexed": false,
          "internalType": "address",
          "name": "newImplementation",
          "type": "address"
        }
      ],
      "name": "L1WrappedStakedTONContractUgraded",
      "type": "event"
    },
    {
      "anonymous": false,
      "inputs": [
        {
          "indexed": true,
          "internalType": "bytes32",
          "name": "role",
          "type": "bytes32"
        },
        {
          "indexed": true,
          "internalType": "bytes32",
          "name": "previousAdminRole",
          "type": "bytes32"
        },
        {
          "indexed": true,
          "internalType": "bytes32",
          "name": "newAdminRole",
          "type": "bytes32"
        }
      ],
      "name": "RoleAdminChanged",
      "type": "event"
    },
    {
      "anonymous": false,
      "inputs": [
        {
          "indexed": true,
          "internalType": "bytes32",
          "name": "role",
          "type": "bytes32"
        },
        {
          "indexed": true,
          "internalType": "address",
          "name": "account",
          "type": "address"
        },
        {
          "indexed": true,
          "internalType": "address",
          "name": "sender",
          "type": "address"
        }
      ],
      "name": "RoleGranted",
      "type": "event"
    },
    {
      "anonymous": false,
      "inputs": [
        {
          "indexed": true,
          "internalType": "bytes32",
          "name": "role",
          "type": "bytes32"
        },
        {
          "indexed": true,
          "internalType": "address",
          "name": "account",
          "type": "address"
        },
        {
          "indexed": true,
          "internalType": "address",
          "name": "sender",
          "type": "address"
        }
      ],
      "name": "RoleRevoked",
      "type": "event"
    },
    {
      "anonymous": false,
      "inputs": [
        {
          "indexed": true,
          "internalType": "address",
          "name": "wston",
          "type": "address"
        },
        {
          "indexed": true,
          "internalType": "address",
          "name": "layer2Address",
          "type": "address"
        }
      ],
      "name": "WSTONTokenCreated",
      "type": "event"
    },
    {
      "inputs": [],
      "name": "ADMIN_ROLE",
      "outputs": [
        {
          "internalType": "bytes32",
          "name": "",
          "type": "bytes32"
        }
      ],
      "stateMutability": "view",
      "type": "function"
    },
    {
      "inputs": [],
      "name": "DEFAULT_ADMIN_ROLE",
      "outputs": [
        {
          "internalType": "bytes32",
          "name": "",
          "type": "bytes32"
        }
      ],
      "stateMutability": "view",
      "type": "function"
    },
    {
      "inputs": [],
      "name": "PAUSE_ROLE",
      "outputs": [
        {
          "internalType": "bytes32",
          "name": "",
          "type": "bytes32"
        }
      ],
      "stateMutability": "view",
      "type": "function"
    },
    {
      "inputs": [
        {
          "internalType": "address",
          "name": "account",
          "type": "address"
        }
      ],
      "name": "addAdmin",
      "outputs": [],
      "stateMutability": "nonpayable",
      "type": "function"
    },
    {
      "inputs": [
        {
          "internalType": "address",
          "name": "account",
          "type": "address"
        }
      ],
      "name": "addPauser",
      "outputs": [],
      "stateMutability": "nonpayable",
      "type": "function"
    },
    {
      "inputs": [
        {
          "internalType": "address",
          "name": "",
          "type": "address"
        }
      ],
      "name": "aliveImplementation",
      "outputs": [
        {
          "internalType": "bool",
          "name": "",
          "type": "bool"
        }
      ],
      "stateMutability": "view",
      "type": "function"
    },
    {
      "inputs": [
        {
          "internalType": "address",
          "name": "_layer2Address",
          "type": "address"
        },
        {
          "internalType": "address",
          "name": "_depositManager",
          "type": "address"
        },
        {
          "internalType": "address",
          "name": "_seigManager",
          "type": "address"
        },
        {
          "internalType": "string",
          "name": "_name",
          "type": "string"
        },
        {
          "internalType": "string",
          "name": "_symbol",
          "type": "string"
        }
      ],
      "name": "createWSTONToken",
      "outputs": [
        {
          "internalType": "contract L1WrappedStakedTONProxy",
          "name": "",
          "type": "address"
        }
      ],
      "stateMutability": "nonpayable",
      "type": "function"
    },
    {
      "inputs": [
        {
          "internalType": "bytes32",
          "name": "role",
          "type": "bytes32"
        }
      ],
      "name": "getRoleAdmin",
      "outputs": [
        {
          "internalType": "bytes32",
          "name": "",
          "type": "bytes32"
        }
      ],
      "stateMutability": "view",
      "type": "function"
    },
    {
      "inputs": [
        {
          "internalType": "bytes32",
          "name": "role",
          "type": "bytes32"
        },
        {
          "internalType": "address",
          "name": "account",
          "type": "address"
        }
      ],
      "name": "grantRole",
      "outputs": [],
      "stateMutability": "nonpayable",
      "type": "function"
    },
    {
      "inputs": [
        {
          "internalType": "bytes32",
          "name": "role",
          "type": "bytes32"
        },
        {
          "internalType": "address",
          "name": "account",
          "type": "address"
        }
      ],
      "name": "hasRole",
      "outputs": [
        {
          "internalType": "bool",
          "name": "",
          "type": "bool"
        }
      ],
      "stateMutability": "view",
      "type": "function"
    },
    {
      "inputs": [
        {
          "internalType": "address",
          "name": "_l1wton",
          "type": "address"
        },
        {
          "internalType": "address",
          "name": "_l1ton",
          "type": "address"
        }
      ],
      "name": "initialize",
      "outputs": [],
      "stateMutability": "nonpayable",
      "type": "function"
    },
    {
      "inputs": [
        {
          "internalType": "address",
          "name": "account",
          "type": "address"
        }
      ],
      "name": "isAdmin",
      "outputs": [
        {
          "internalType": "bool",
          "name": "",
          "type": "bool"
        }
      ],
      "stateMutability": "view",
      "type": "function"
    },
    {
      "inputs": [],
      "name": "isOwner",
      "outputs": [
        {
          "internalType": "bool",
          "name": "",
          "type": "bool"
        }
      ],
      "stateMutability": "view",
      "type": "function"
    },
    {
      "inputs": [],
      "name": "l1ton",
      "outputs": [
        {
          "internalType": "address",
          "name": "",
          "type": "address"
        }
      ],
      "stateMutability": "view",
      "type": "function"
    },
    {
      "inputs": [],
      "name": "l1wton",
      "outputs": [
        {
          "internalType": "address",
          "name": "",
          "type": "address"
        }
      ],
      "stateMutability": "view",
      "type": "function"
    },
    {
      "inputs": [],
      "name": "pauseProxy",
      "outputs": [
        {
          "internalType": "bool",
          "name": "",
          "type": "bool"
        }
      ],
      "stateMutability": "view",
      "type": "function"
    },
    {
      "inputs": [
        {
          "internalType": "uint256",
          "name": "",
          "type": "uint256"
        }
      ],
      "name": "proxyImplementation",
      "outputs": [
        {
          "internalType": "address",
          "name": "",
          "type": "address"
        }
      ],
      "stateMutability": "view",
      "type": "function"
    },
    {
      "inputs": [
        {
          "internalType": "address",
          "name": "account",
          "type": "address"
        }
      ],
      "name": "removeAdmin",
      "outputs": [],
      "stateMutability": "nonpayable",
      "type": "function"
    },
    {
      "inputs": [
        {
          "internalType": "address",
          "name": "account",
          "type": "address"
        }
      ],
      "name": "removePauser",
      "outputs": [],
      "stateMutability": "nonpayable",
      "type": "function"
    },
    {
      "inputs": [],
      "name": "renounceOwnership",
      "outputs": [],
      "stateMutability": "nonpayable",
      "type": "function"
    },
    {
      "inputs": [
        {
          "internalType": "bytes32",
          "name": "role",
          "type": "bytes32"
        },
        {
          "internalType": "address",
          "name": "callerConfirmation",
          "type": "address"
        }
      ],
      "name": "renounceRole",
      "outputs": [],
      "stateMutability": "nonpayable",
      "type": "function"
    },
    {
      "inputs": [
        {
          "internalType": "bytes32",
          "name": "role",
          "type": "bytes32"
        },
        {
          "internalType": "address",
          "name": "account",
          "type": "address"
        }
      ],
      "name": "revokeRole",
      "outputs": [],
      "stateMutability": "nonpayable",
      "type": "function"
    },
    {
      "inputs": [
        {
          "internalType": "bytes4",
          "name": "",
          "type": "bytes4"
        }
      ],
      "name": "selectorImplementation",
      "outputs": [
        {
          "internalType": "address",
          "name": "",
          "type": "address"
        }
      ],
      "stateMutability": "view",
      "type": "function"
    },
    {
      "inputs": [
        {
          "internalType": "address",
          "name": "_imp",
          "type": "address"
        }
      ],
      "name": "setWstonImplementation",
      "outputs": [],
      "stateMutability": "nonpayable",
      "type": "function"
    },
    {
      "inputs": [
        {
          "internalType": "bytes4",
          "name": "interfaceId",
          "type": "bytes4"
        }
      ],
      "name": "supportsInterface",
      "outputs": [
        {
          "internalType": "bool",
          "name": "",
          "type": "bool"
        }
      ],
      "stateMutability": "view",
      "type": "function"
    },
    {
      "inputs": [
        {
          "internalType": "address",
          "name": "newAdmin",
          "type": "address"
        }
      ],
      "name": "transferAdmin",
      "outputs": [],
      "stateMutability": "nonpayable",
      "type": "function"
    },
    {
      "inputs": [
        {
          "internalType": "address",
          "name": "newAdmin",
          "type": "address"
        }
      ],
      "name": "transferOwnership",
      "outputs": [],
      "stateMutability": "nonpayable",
      "type": "function"
    },
    {
      "inputs": [
        {
          "internalType": "address",
          "name": "wstonProxyAddress",
          "type": "address"
        },
        {
          "internalType": "address",
          "name": "newImplementation",
          "type": "address"
        }
      ],
      "name": "upgradeWstonTo",
      "outputs": [],
      "stateMutability": "nonpayable",
      "type": "function"
    },
    {
      "inputs": [],
      "name": "wstonImplementation",
      "outputs": [
        {
          "internalType": "address",
          "name": "",
          "type": "address"
        }
      ],
      "stateMutability": "view",
      "type": "function"
    }
  ],
  "bytecode": "0x608080604052346051576301ffc9a760e01b60005260046020527f9fe05126d2d9ecf60592e254dead906a4b2e492f36cca727682c38e9008c6ac1805460ff1916600117905561298b90816100578239f35b600080fdfe608060408181526004908136101561001657600080fd5b600092833560e01c90816301ffc9a714610b765750806315a327d314610b4d5780631785f53c14610b205780631d03a00914610af7578063248a9ca314610acc57806324d7806c14610a785780632f2ff15d14610a5057806336568abe14610a09578063389ed267146109e0578063485cc9551461095557806350d2a276146109115780635208e649146106bb578063550d01a31461067d57806363a8fd891461065b5780636b2c0f551461060d57806370480275146105be578063715018a61461059957806375829def1461057357806375b238fc1461054a57806381baed05146104ff57806382dc1ec41461046b5780638bd49a4f146103305780638f32d59b1461030a57806391d14854146102c4578063a217fddf146102a9578063b911135f14610276578063d21bae6614610249578063d547741f1461020b5763f2fde38b1461016357600080fd5b346102075760203660031901126102075761017c610baf565b9161018d610188610dcc565b610c80565b610198610188610dcc565b6001600160a01b03831680156101f85733146101ea5750906101d860016101dd936000805160206128f68339815191528652600560205285200154610e1b565b610ecc565b506101e733610cd8565b80f35b90516309cd70b960e21b8152fd5b50905163d92e233d60e01b8152fd5b8280fd5b50346102075780600319360112610207576102459135610240600161022e610bca565b93838752600560205286200154610e1b565b6111c5565b5080f35b83823461027257816003193601126102725760065490516001600160a01b039091168152602090f35b5080fd5b5090346102075760203660031901126102075735825260016020908152918190205490516001600160a01b039091168152f35b83823461027257816003193601126102725751908152602090f35b509034610207578160031936011261020757816020936102e2610bca565b9235815260058552209060018060a01b0316600052825260ff81600020541690519015158152f35b838234610272578160031936011261027257602090610327610dcc565b90519015158152f35b5034610207578060031936011261020757610349610baf565b610351610bca565b8251638da5cb5b60e01b81526001600160a01b0392831692906020818781875afa90811561046157908291889161041f575b5016330361040f5790829186933b1561040b57602484928387519586948593631b2ce7f360e11b855216809a8401525af18015610401576103ed575b507f279aa14d8d722d787fbebbe5d140862d29a9a4c04fb92fa9d21004435c7bbe9e6020848451908152a180f35b6103f690610be0565b6102075782386103bf565b83513d84823e3d90fd5b8380fd5b5050505163bfcafd3760e01b8152fd5b9150506020813d602011610459575b8161043b60209383610c09565b810103126104555751818116810361045557819038610383565b8680fd5b3d915061042e565b85513d89823e3d90fd5b83823461027257602036600319011261027257610245906104e7600161048f610baf565b926000805160206128f6833981519152865260056020528086203360005260205260ff81600020541680156104ec575b6104c890610d06565b6000805160206128d68339815191528652600560205285200154610e1b565b610f5b565b506104c86104f8610dcc565b90506104bf565b833461054757602036600319011261054757610519610baf565b610524610188610dcc565b600880546001600160a01b0319166001600160a01b039290921691909117905580f35b80fd5b838234610272578160031936011261027257602090516000805160206128f68339815191528152f35b50346102075760203660031901126102075761058d610baf565b91610198610188610dcc565b83346105475780600319360112610547576105b5610188610dcc565b610245336110d6565b83823461027257602036600319011261027257610245906101d860016105e2610baf565b926105ee610188610dcc565b6000805160206128f68339815191528652600560205285200154610e1b565b50903461020757602036600319011261020757610628610baf565b91610634610188610dcc565b336001600160a01b0384160361064e57836102458461104e565b5163334bd91960e11b8152fd5b83823461027257816003193601126102725760ff602092541690519015158152f35b8382346102725760203660031901126102725760209160ff9082906001600160a01b036106a8610baf565b1681526002855220541690519015158152f35b50919034610272576003199060a036830112610207576106d9610baf565b6106e1610bca565b916044359360018060a01b0392838616809603610455576001600160401b039560643587811161090d576107189036908601610c2a565b906084358881116109095786610732819236908901610c2a565b946000805160206128f68339815191528c5260056020528c8c20338d5260205260ff8d8d20541680156108f6575b61076990610d06565b1697610776891515610d47565b1697610783891515610d47565b61078e821515610d47565b8a519061168b808301918211838310176108e35790829161122b833903908af080156108d9578616978660085416893b156108b8578b51631b2ce7f360e11b8152878101919091528a81602481838e5af180156108cf576108bc575b5086600654169660075416893b156108b85761085b938996938c98969361084c938f519b8c9a8b9a633bc2439360e21b8c528b015260248a01526044890152606488015260848701523360a487015261010060c4870152610104860190610d8c565b918483030160e4850152610d8c565b038183875af180156108ae5761089a575b50817f5b269f580912912f2c48a9e34fcae47327ba565d31e351e53be7115f90a62f7f602095519480a38152f35b6108a48491610be0565b610207573861086c565b85513d86823e3d90fd5b8a80fd5b6108c8909a919a610be0565b98386107ea565b8c513d8d823e3d90fd5b8a513d8b823e3d90fd5b634e487b7160e01b8c526041885260248cfd5b50610769610902610dcc565b9050610760565b8980fd5b8880fd5b509034610207576020366003190112610207573563ffffffff60e01b811680910361020757825260036020908152918190205490516001600160a01b039091168152f35b503461020757806003193601126102075761096e610baf565b91610977610bca565b9160ff60085460a01c166109d457505061099033610e5f565b50600680546001600160a01b03199081166001600160a01b039485161790915560078054909116919092161790556008805460ff60a01b1916600160a01b17905580f35b5162dc149f60e41b8152fd5b838234610272578160031936011261027257602090516000805160206128d68339815191528152f35b50829034610272578060031936011261027257610a24610bca565b90336001600160a01b03831603610a4157506102459192356111c5565b5163334bd91960e11b81528390fd5b50346102075780600319360112610207576102459135610a73600161022e610bca565b610fe5565b8382346102725760203660031901126102725760ff81602093610a99610baf565b6000805160206128f68339815191528252600586528282206001600160a01b039091168252855220549151911615158152f35b5090346102075760203660031901126102075781602093600192358152600585522001549051908152f35b83823461027257816003193601126102725760085490516001600160a01b039091168152602090f35b8334610547576020366003190112610547576101e7610b3d610baf565b610b48610188610dcc565b610cd8565b83823461027257816003193601126102725760075490516001600160a01b039091168152602090f35b849084346102075760203660031901126102075735916001600160e01b0319831683036105475750610ba9602092610def565b15158152f35b600435906001600160a01b0382168203610bc557565b600080fd5b602435906001600160a01b0382168203610bc557565b6001600160401b038111610bf357604052565b634e487b7160e01b600052604160045260246000fd5b90601f801991011681019081106001600160401b03821117610bf357604052565b81601f82011215610bc5578035906001600160401b038211610bf35760405192610c5e601f8401601f191660200185610c09565b82845260208383010111610bc557816000926020809301838601378301015290565b15610c8757565b60405162461bcd60e51b8152602060048201526024808201527f41757468436f6e74726f6c3a2043616c6c6572206973206e6f7420746865206f6044820152633bb732b960e11b6064820152608490fd5b336001600160a01b03821603610cf457610cf19061113d565b50565b60405163334bd91960e11b8152600490fd5b15610d0d57565b60405162461bcd60e51b81526020600482015260126024820152713737ba1027bbb732b91037b91020b236b4b760711b6044820152606490fd5b15610d4e57565b60405162461bcd60e51b8152602060048201526016602482015275416464726573732063616e6e6f74206265207a65726f60501b6044820152606490fd5b919082519283825260005b848110610db8575050826000602080949584010152601f8019910116010190565b602081830181015184830182015201610d97565b336000908152600080516020612936833981519152602052604090205460ff1690565b6001600160e01b03198116637965db0b60e01b14908115610e0e575090565b610e189150610def565b90565b80600052600560205260406000203360005260205260ff6040600020541615610e415750565b6044906040519063e2517d3f60e01b82523360048301526024820152fd5b6001600160a01b03166000818152600080516020612936833981519152602052604081205490919060ff16610ec85781805260056020526040822081835260205260408220600160ff1982541617905533916000805160206128b68339815191528180a4600190565b5090565b6001600160a01b031660008181527f09f04f5809d5be59813a33617d16f069caae874a6b34f03139f63d934daddae660205260408120549091906000805160206128f68339815191529060ff16610f565780835260056020526040832082845260205260408320600160ff198254161790556000805160206128b6833981519152339380a4600190565b505090565b6001600160a01b031660008181527f787f97f3270d439d97068e73d6d75a066b24f84c342661f177d4e43e00e9f51360205260408120549091906000805160206128d68339815191529060ff16610f565780835260056020526040832082845260205260408320600160ff198254161790556000805160206128b6833981519152339380a4600190565b906000918083526005602052604083209160018060a01b03169182845260205260ff60408420541615600014610f565780835260056020526040832082845260205260408320600160ff198254161790556000805160206128b6833981519152339380a4600190565b6001600160a01b031660008181527f787f97f3270d439d97068e73d6d75a066b24f84c342661f177d4e43e00e9f51360205260408120549091906000805160206128d68339815191529060ff1615610f56578083526005602052604083208284526020526040832060ff198154169055600080516020612916833981519152339380a4600190565b6001600160a01b03166000818152600080516020612936833981519152602052604081205490919060ff1615610ec8578180526005602052604082208183526020526040822060ff19815416905533916000805160206129168339815191528180a4600190565b6001600160a01b031660008181527f09f04f5809d5be59813a33617d16f069caae874a6b34f03139f63d934daddae660205260408120549091906000805160206128f68339815191529060ff1615610f56578083526005602052604083208284526020526040832060ff198154169055600080516020612916833981519152339380a4600190565b906000918083526005602052604083209160018060a01b03169182845260205260ff604084205416600014610f56578083526005602052604083208284526020526040832060ff198154169055600080516020612916833981519152339380a460019056fe608060405234605b576301ffc9a760e01b60005260046020527f9fe05126d2d9ecf60592e254dead906a4b2e492f36cca727682c38e9008c6ac1805460ff19166001179055604b336060565b5060405161159a90816100f18239f35b600080fd5b6001600160a01b031660008181527f05b8ccbb9d4d8fb16ea74ce3c29a41f1b461fbdaff4714a0d9a8eb05499746bc602052604081205490919060ff1660ec5781805260056020526040822081835260205260408220600160ff1982541617905533917f2f8788117e7eff1d82e926ec794901d17c78024a50270940304540a733656f0d8180a4600190565b509056fe60806040526004361015610018575b3661144957611063565b60003560e01c806301ffc9a7146102735780631785f53c1461026e578063248a9ca31461026957806324d7806c146102645780632e0f26251461025f5780632f2ff15d1461025a57806336568abe146102555780633659cfe614610250578063389ed2671461024b5780634a5df50f146102465780634d3d629f146102415780634e5a23281461023c57806350d2a27614610237578063550d01a314610232578063567e98f91461022d5780635c60da1b146102285780635cc797d81461022357806363a8fd891461021e57806363b07568146102195780636b2c0f5514610214578063704802751461020f578063715018a61461020a57806375829def1461020557806375b238fc146102005780637cb00d25146101fb5780637cd5f663146101f657806382dc1ec4146101f15780638b8f4a65146101d35780638d4fdb40146101ec5780638d62d949146101e75780638f32d59b146101e257806391d14854146101dd578063a217fddf146101d8578063b911135f146101d3578063cc48b947146101ce578063d547741f146101c9578063f2fde38b146101c45763f35c89e80361000e57610dee565b610dca565b610d8b565b610d62565b610c61565b610d46565b610d12565b610cf7565b610cce565b610c95565b610b8b565b610aee565b610ab2565b610a89565b6109da565b6109b5565b610947565b61090a565b6108ec565b6108c9565b610890565b61085c565b61083e565b6107ff565b6107b9565b61071a565b6106bc565b61053a565b610511565b610447565b610400565b6103c1565b61039a565b61034e565b61031f565b6102ec565b61028f565b6001600160e01b031981160361028a57565b600080fd5b3461028a57602036600319011261028a5760206102b66004356102b181610278565b61109f565b6040519015158152f35b600435906001600160a01b038216820361028a57565b602435906001600160a01b038216820361028a57565b3461028a57602036600319011261028a5761031d6103086102c0565b61031861031361102e565b610e0c565b610e64565b005b3461028a57602036600319011261028a5760043560005260056020526020600160406000200154604051908152f35b3461028a57602036600319011261028a57602060ff61038e61036e6102c0565b600080516020611525833981519152600052600584526040600020610703565b54166040519015158152f35b3461028a57600036600319011261028a57604051676765c793fa10079d601b1b8152602090f35b3461028a57604036600319011261028a5761031d6004356103e06102d6565b908060005260056020526103fb6001604060002001546110c8565b6111e4565b3461028a57604036600319011261028a576104196102d6565b336001600160a01b038216036104355761031d90600435611365565b60405163334bd91960e11b8152600490fd5b3461028a57602036600319011261028a576104606102c0565b61046b61031361102e565b6001600160a01b03811680156104dc57600080805260016020526000805160206114e58339815191525490926104b5916104b0906001600160a01b0316841415610e80565b61137f565b7fbc7cd75a20ee27fd9adebab32041f755214dbc6bffa90cc0225b39da2e5c2d3b8280a280f35b60405162461bcd60e51b815260206004820152600d60248201526c696e707574206973207a65726f60981b6044820152606490fd5b3461028a57600036600319011261028a5760206040516000805160206115058339815191528152f35b3461028a57604036600319011261028a5760043567ffffffffffffffff80821161028a573660238301121561028a57816004013590811161028a576024820191602436918360051b01011161028a576105916102d6565b9161059d61031361102e565b811561067857906105bf6105ba6105b3856106e9565b5460ff1690565b610eb8565b6001600160a01b0391838316919060005b8281106105d957005b80610614858761060c6105ff6105fa6105f56001988b8b610eff565b610f25565b6107a0565b546001600160a01b031690565b161415610f32565b61062e876106296105fa6105f5858989610eff565b610f7e565b8461064d6106406105f5848888610eff565b6001600160e01b03191690565b7f14ebc1c32aa68f4d766e89f3e546cee249f7df25183fc10ab1568d91c2ce9b7b600080a3016105d0565b606460405162461bcd60e51b815260206004820152602060248201527f50726f78793a205f73656c6563746f727327732073697a65206973207a65726f6044820152fd5b3461028a57600036600319011261028a5760065460405160089190911c6001600160a01b03168152602090f35b6001600160a01b0316600090815260026020526040902090565b9060018060a01b0316600052602052604060002090565b3461028a57604036600319011261028a576107336102c0565b6001600160a01b03166000908152600f60205260408120805460243592919083101561079c57816020916003935220910201805461079860ff600260018501549401541660405193849384919260409194936060840195845260208401521515910152565b0390f35b5080fd5b63ffffffff60e01b166000526003602052604060002090565b3461028a57602036600319011261028a576004356107d681610278565b63ffffffff60e01b166000526003602052602060018060a01b0360406000205416604051908152f35b3461028a57602036600319011261028a576001600160a01b036108206102c0565b166000526002602052602060ff604060002054166040519015158152f35b3461028a57600036600319011261028a576020600b54604051908152f35b3461028a5760008060031936011261088d5780806020925260018252604060018060a01b0391205416604051908152f35b80fd5b3461028a57604036600319011261028a576108a96102c0565b602435801515810361028a5761031d916108c461031361102e565b6113f5565b3461028a57600036600319011261028a57602060ff600054166040519015158152f35b3461028a57600036600319011261028a576020600c54604051908152f35b3461028a57602036600319011261028a576109236102c0565b61092e61031361102e565b336001600160a01b038216036104355761031d906111fe565b3461028a57602036600319011261028a5761031d6109636102c0565b61096e61031361102e565b60008051602061152583398151915260005260056020527f09f04f5809d5be59813a33617d16f069caae874a6b34f03139f63d934daddae7546109b0906110c8565b611109565b3461028a57600036600319011261028a576109d161031361102e565b61031d3361129d565b3461028a57602036600319011261028a576109f36102c0565b6109fe61031361102e565b6001600160a01b0381168015610a77573314610a655760008051602061152583398151915260005260056020527f09f04f5809d5be59813a33617d16f069caae874a6b34f03139f63d934daddae754610a5b91906109b0906110c8565b5061031d33610e64565b6040516309cd70b960e21b8152600490fd5b60405163d92e233d60e01b8152600490fd5b3461028a57600036600319011261028a5760206040516000805160206115258339815191528152f35b3461028a57602036600319011261028a5760043580151580910361028a57610adb61031361102e565b60ff801960005416911617600055600080f35b3461028a57606036600319011261028a57610b076102c0565b604435801515810361028a57610b1e61031361102e565b813b15610b485761031d9181156113f55760243560005260016020526108c4816040600020610f7e565b60405162461bcd60e51b815260206004820152601b60248201527a50726f78793a206e6f7420636f6e7472616374206164647265737360281b6044820152606490fd5b3461028a57602036600319011261028a57610ba46102c0565b600080516020611525833981519152600090815260056020529060ff610bd833600080516020611545833981519152610703565b54168015610c53575b15610c1957610c159060008051602061150583398151915283526005602052610c1060016040852001546110c8565b61119e565b5080f35b60405162461bcd60e51b81526020600482015260126024820152713737ba1027bbb732b91037b91020b236b4b760711b6044820152606490fd5b50610c5c61102e565b610be1565b3461028a57602036600319011261028a576004356000526001602052602060018060a01b0360406000205416604051908152f35b3461028a57602036600319011261028a576020610cbc600435610cb781610278565b610f9d565b6040516001600160a01b039091168152f35b3461028a57600036600319011261028a576007546040516001600160a01b039091168152602090f35b3461028a57600036600319011261028a5760206102b661102e565b3461028a57604036600319011261028a57602060ff61038e610d326102d6565b600435600052600584526040600020610703565b3461028a57600036600319011261028a57602060405160008152f35b3461028a57600036600319011261028a576008546040516001600160a01b039091168152602090f35b3461028a57604036600319011261028a5761031d600435610daa6102d6565b90806000526005602052610dc56001604060002001546110c8565b611365565b3461028a57602036600319011261028a57610de36102c0565b6109f361031361102e565b3461028a57600036600319011261028a576020600e54604051908152f35b15610e1357565b60405162461bcd60e51b8152602060048201526024808201527f41757468436f6e74726f6c3a2043616c6c6572206973206e6f7420746865206f6044820152633bb732b960e11b6064820152608490fd5b336001600160a01b0382160361043557610e7d90611331565b50565b15610e8757565b60405162461bcd60e51b815260206004820152600960248201526839b0b6b29030b2323960b91b6044820152606490fd5b15610ebf57565b60405162461bcd60e51b815260206004820152601860248201527750726f78793a205f696d70206973206e6f7420616c69766560401b6044820152606490fd5b9190811015610f0f5760051b0190565b634e487b7160e01b600052603260045260246000fd5b35610f2f81610278565b90565b15610f3957565b60405162461bcd60e51b815260206004820152601d60248201527f4c69717569646974795661756c7450726f78793a2073616d6520696d700000006044820152606490fd5b80546001600160a01b0319166001600160a01b03909216919091179055565b6001600160e01b031981166000908152600360205260409020546001600160a01b0391908216610fea57506000805260016020526000805160206114e5833981519152541690565b541690565b60ff61100083610ff9846107a0565b54166106e9565b54161561101057610fe5906107a0565b506000805260016020526000805160206114e5833981519152541690565b60008052600560205260ff610fe5337f05b8ccbb9d4d8fb16ea74ce3c29a41f1b461fbdaff4714a0d9a8eb05499746bc610703565b60405162461bcd60e51b815260206004820152601460248201527331b0b73737ba103932b1b2b4bb329022ba3432b960611b6044820152606490fd5b6001600160e01b03198116637965db0b60e01b149081156110be575090565b610f2f915061109f565b80600052600560205260ff6110e1336040600020610703565b5416156110eb5750565b6044906040519063e2517d3f60e01b82523360048301526024820152fd5b600080516020611525833981519152600081815260056020529060ff61113d84600080516020611545833981519152610703565b54166111985780825260056020526111588360408420610703565b805460ff1916600117905533926001600160a01b0316917f2f8788117e7eff1d82e926ec794901d17c78024a50270940304540a733656f0d9080a4600190565b50905090565b600080516020611505833981519152600081815260056020529060ff61113d847f787f97f3270d439d97068e73d6d75a066b24f84c342661f177d4e43e00e9f513610703565b600090808252600560205260ff61113d8460408520610703565b600080516020611505833981519152600081815260056020529060ff611244847f787f97f3270d439d97068e73d6d75a066b24f84c342661f177d4e43e00e9f513610703565b5416156111985780825260056020526112608360408420610703565b805460ff1916905533926001600160a01b0316917ff6391f5c32d9c69d2a47ea670b442974b53935d1edc7fd64eb21e047a839171b9080a4600190565b6000808052600560205260ff6112d3837f05b8ccbb9d4d8fb16ea74ce3c29a41f1b461fbdaff4714a0d9a8eb05499746bc610703565b54161561132c5780805260056020526112ef8260408320610703565b805460ff1916905533916001600160a01b0316907ff6391f5c32d9c69d2a47ea670b442974b53935d1edc7fd64eb21e047a839171b8180a4600190565b905090565b600080516020611525833981519152600081815260056020529060ff61124484600080516020611545833981519152610703565b600090808252600560205260ff6112448460408520610703565b803b15610b48576000805260016020526113a7816000805160206114e5833981519152610f7e565b60018060a01b03168060005260026020526040600020600160ff198254161790557f72558d9bfba4210f9ef095c782589484151f6d90f7a81bb3cb9b33efc695d324602060405160018152a2565b60207f72558d9bfba4210f9ef095c782589484151f6d90f7a81bb3cb9b33efc695d3249160018060a01b031692836000526002825260406000209015159060ff1981541660ff8316179055604051908152a2565b600061145f81356001600160e01b031916610f9d565b6001600160a01b0381161515806114d8575b1561149357818091368280378136915af43d82803e1561148f573d90f35b3d90fd5b60405162461bcd60e51b815260206004820152601d60248201527f50726f78793a20696d706c204f522070726f78792069732066616c73650000006044820152606490fd5b5060ff8254161561147156fea6eef7e35abe7026729641147f7915573c7e97b47efa546f5f6e3230263bcb49fcb9fcbfa83b897fb2d5cf4b58962164105c1e71489a37ef3ae0db3fdce576f6df8b4c520ffe197c5343c6f5aec59570151ef9a492f2c624fd45ddde6135ec4209f04f5809d5be59813a33617d16f069caae874a6b34f03139f63d934daddae6a26469706673582212206622cb26d7316395d3e1437c285a98f39ead06bf5e17befa8572babc4a54849c64736f6c634300081900332f8788117e7eff1d82e926ec794901d17c78024a50270940304540a733656f0dfcb9fcbfa83b897fb2d5cf4b58962164105c1e71489a37ef3ae0db3fdce576f6df8b4c520ffe197c5343c6f5aec59570151ef9a492f2c624fd45ddde6135ec42f6391f5c32d9c69d2a47ea670b442974b53935d1edc7fd64eb21e047a839171b05b8ccbb9d4d8fb16ea74ce3c29a41f1b461fbdaff4714a0d9a8eb05499746bca2646970667358221220b86334deb647e41b683d6174ca4e9d49a4a06a2bfc9db823ab919678db00b84664736f6c63430008190033",
  "linkReferences": {},
  "deployedLinkReferences": {}
}