{
  "_format": "hh-sol-artifact-1",
  "contractName": "L1WrappedStakedTONFactory",
  "sourceName": "src/L1/L1WrappedStakedTONFactory.sol",
  "abi": [
    {
      "inputs": [],
      "name": "AccessControlBadConfirmation",
      "type": "error"
    },
    {
      "inputs": [
        {
          "internalType": "address",
          "name": "account",
          "type": "address"
        },
        {
          "internalType": "bytes32",
          "name": "neededRole",
          "type": "bytes32"
        }
      ],
      "name": "AccessControlUnauthorizedAccount",
      "type": "error"
    },
    {
      "inputs": [],
      "name": "AlreadyInitialized",
      "type": "error"
    },
    {
      "inputs": [],
      "name": "NotContractOwner",
      "type": "error"
    },
    {
      "inputs": [],
      "name": "SameAdmin",
      "type": "error"
    },
    {
      "inputs": [],
      "name": "ZeroAddress",
      "type": "error"
    },
    {
      "anonymous": false,
      "inputs": [
        {
          "indexed": false,
          "internalType": "address",
          "name": "newImplementation",
          "type": "address"
        }
      ],
      "name": "L1WrappedStakedTONContractUgraded",
      "type": "event"
    },
    {
      "anonymous": false,
      "inputs": [
        {
          "indexed": true,
          "internalType": "bytes32",
          "name": "role",
          "type": "bytes32"
        },
        {
          "indexed": true,
          "internalType": "bytes32",
          "name": "previousAdminRole",
          "type": "bytes32"
        },
        {
          "indexed": true,
          "internalType": "bytes32",
          "name": "newAdminRole",
          "type": "bytes32"
        }
      ],
      "name": "RoleAdminChanged",
      "type": "event"
    },
    {
      "anonymous": false,
      "inputs": [
        {
          "indexed": true,
          "internalType": "bytes32",
          "name": "role",
          "type": "bytes32"
        },
        {
          "indexed": true,
          "internalType": "address",
          "name": "account",
          "type": "address"
        },
        {
          "indexed": true,
          "internalType": "address",
          "name": "sender",
          "type": "address"
        }
      ],
      "name": "RoleGranted",
      "type": "event"
    },
    {
      "anonymous": false,
      "inputs": [
        {
          "indexed": true,
          "internalType": "bytes32",
          "name": "role",
          "type": "bytes32"
        },
        {
          "indexed": true,
          "internalType": "address",
          "name": "account",
          "type": "address"
        },
        {
          "indexed": true,
          "internalType": "address",
          "name": "sender",
          "type": "address"
        }
      ],
      "name": "RoleRevoked",
      "type": "event"
    },
    {
      "anonymous": false,
      "inputs": [
        {
          "indexed": true,
          "internalType": "address",
          "name": "wston",
          "type": "address"
        },
        {
          "indexed": true,
          "internalType": "address",
          "name": "layer2Address",
          "type": "address"
        }
      ],
      "name": "WSTONTokenCreated",
      "type": "event"
    },
    {
      "inputs": [],
      "name": "ADMIN_ROLE",
      "outputs": [
        {
          "internalType": "bytes32",
          "name": "",
          "type": "bytes32"
        }
      ],
      "stateMutability": "view",
      "type": "function"
    },
    {
      "inputs": [],
      "name": "DEFAULT_ADMIN_ROLE",
      "outputs": [
        {
          "internalType": "bytes32",
          "name": "",
          "type": "bytes32"
        }
      ],
      "stateMutability": "view",
      "type": "function"
    },
    {
      "inputs": [],
      "name": "PAUSE_ROLE",
      "outputs": [
        {
          "internalType": "bytes32",
          "name": "",
          "type": "bytes32"
        }
      ],
      "stateMutability": "view",
      "type": "function"
    },
    {
      "inputs": [
        {
          "internalType": "address",
          "name": "account",
          "type": "address"
        }
      ],
      "name": "addAdmin",
      "outputs": [],
      "stateMutability": "nonpayable",
      "type": "function"
    },
    {
      "inputs": [
        {
          "internalType": "address",
          "name": "account",
          "type": "address"
        }
      ],
      "name": "addPauser",
      "outputs": [],
      "stateMutability": "nonpayable",
      "type": "function"
    },
    {
      "inputs": [
        {
          "internalType": "address",
          "name": "",
          "type": "address"
        }
      ],
      "name": "aliveImplementation",
      "outputs": [
        {
          "internalType": "bool",
          "name": "",
          "type": "bool"
        }
      ],
      "stateMutability": "view",
      "type": "function"
    },
    {
      "inputs": [
        {
          "internalType": "address",
          "name": "_layer2Address",
          "type": "address"
        },
        {
          "internalType": "address",
          "name": "_depositManager",
          "type": "address"
        },
        {
          "internalType": "address",
          "name": "_seigManager",
          "type": "address"
        },
        {
          "internalType": "string",
          "name": "_name",
          "type": "string"
        },
        {
          "internalType": "string",
          "name": "_symbol",
          "type": "string"
        }
      ],
      "name": "createWSTONToken",
      "outputs": [
        {
          "internalType": "contract L1WrappedStakedTONProxy",
          "name": "",
          "type": "address"
        }
      ],
      "stateMutability": "nonpayable",
      "type": "function"
    },
    {
      "inputs": [
        {
          "internalType": "bytes32",
          "name": "role",
          "type": "bytes32"
        }
      ],
      "name": "getRoleAdmin",
      "outputs": [
        {
          "internalType": "bytes32",
          "name": "",
          "type": "bytes32"
        }
      ],
      "stateMutability": "view",
      "type": "function"
    },
    {
      "inputs": [
        {
          "internalType": "bytes32",
          "name": "role",
          "type": "bytes32"
        },
        {
          "internalType": "address",
          "name": "account",
          "type": "address"
        }
      ],
      "name": "grantRole",
      "outputs": [],
      "stateMutability": "nonpayable",
      "type": "function"
    },
    {
      "inputs": [
        {
          "internalType": "bytes32",
          "name": "role",
          "type": "bytes32"
        },
        {
          "internalType": "address",
          "name": "account",
          "type": "address"
        }
      ],
      "name": "hasRole",
      "outputs": [
        {
          "internalType": "bool",
          "name": "",
          "type": "bool"
        }
      ],
      "stateMutability": "view",
      "type": "function"
    },
    {
      "inputs": [
        {
          "internalType": "address",
          "name": "_l1wton",
          "type": "address"
        },
        {
          "internalType": "address",
          "name": "_l1ton",
          "type": "address"
        }
      ],
      "name": "initialize",
      "outputs": [],
      "stateMutability": "nonpayable",
      "type": "function"
    },
    {
      "inputs": [
        {
          "internalType": "address",
          "name": "account",
          "type": "address"
        }
      ],
      "name": "isAdmin",
      "outputs": [
        {
          "internalType": "bool",
          "name": "",
          "type": "bool"
        }
      ],
      "stateMutability": "view",
      "type": "function"
    },
    {
      "inputs": [],
      "name": "isOwner",
      "outputs": [
        {
          "internalType": "bool",
          "name": "",
          "type": "bool"
        }
      ],
      "stateMutability": "view",
      "type": "function"
    },
    {
      "inputs": [],
      "name": "l1ton",
      "outputs": [
        {
          "internalType": "address",
          "name": "",
          "type": "address"
        }
      ],
      "stateMutability": "view",
      "type": "function"
    },
    {
      "inputs": [],
      "name": "l1wton",
      "outputs": [
        {
          "internalType": "address",
          "name": "",
          "type": "address"
        }
      ],
      "stateMutability": "view",
      "type": "function"
    },
    {
      "inputs": [],
      "name": "pauseProxy",
      "outputs": [
        {
          "internalType": "bool",
          "name": "",
          "type": "bool"
        }
      ],
      "stateMutability": "view",
      "type": "function"
    },
    {
      "inputs": [
        {
          "internalType": "uint256",
          "name": "",
          "type": "uint256"
        }
      ],
      "name": "proxyImplementation",
      "outputs": [
        {
          "internalType": "address",
          "name": "",
          "type": "address"
        }
      ],
      "stateMutability": "view",
      "type": "function"
    },
    {
      "inputs": [
        {
          "internalType": "address",
          "name": "account",
          "type": "address"
        }
      ],
      "name": "removeAdmin",
      "outputs": [],
      "stateMutability": "nonpayable",
      "type": "function"
    },
    {
      "inputs": [
        {
          "internalType": "address",
          "name": "account",
          "type": "address"
        }
      ],
      "name": "removePauser",
      "outputs": [],
      "stateMutability": "nonpayable",
      "type": "function"
    },
    {
      "inputs": [],
      "name": "renounceOwnership",
      "outputs": [],
      "stateMutability": "nonpayable",
      "type": "function"
    },
    {
      "inputs": [
        {
          "internalType": "bytes32",
          "name": "role",
          "type": "bytes32"
        },
        {
          "internalType": "address",
          "name": "callerConfirmation",
          "type": "address"
        }
      ],
      "name": "renounceRole",
      "outputs": [],
      "stateMutability": "nonpayable",
      "type": "function"
    },
    {
      "inputs": [
        {
          "internalType": "bytes32",
          "name": "role",
          "type": "bytes32"
        },
        {
          "internalType": "address",
          "name": "account",
          "type": "address"
        }
      ],
      "name": "revokeRole",
      "outputs": [],
      "stateMutability": "nonpayable",
      "type": "function"
    },
    {
      "inputs": [
        {
          "internalType": "bytes4",
          "name": "",
          "type": "bytes4"
        }
      ],
      "name": "selectorImplementation",
      "outputs": [
        {
          "internalType": "address",
          "name": "",
          "type": "address"
        }
      ],
      "stateMutability": "view",
      "type": "function"
    },
    {
      "inputs": [
        {
          "internalType": "address",
          "name": "_imp",
          "type": "address"
        }
      ],
      "name": "setWstonImplementation",
      "outputs": [],
      "stateMutability": "nonpayable",
      "type": "function"
    },
    {
      "inputs": [
        {
          "internalType": "bytes4",
          "name": "interfaceId",
          "type": "bytes4"
        }
      ],
      "name": "supportsInterface",
      "outputs": [
        {
          "internalType": "bool",
          "name": "",
          "type": "bool"
        }
      ],
      "stateMutability": "view",
      "type": "function"
    },
    {
      "inputs": [
        {
          "internalType": "address",
          "name": "newAdmin",
          "type": "address"
        }
      ],
      "name": "transferAdmin",
      "outputs": [],
      "stateMutability": "nonpayable",
      "type": "function"
    },
    {
      "inputs": [
        {
          "internalType": "address",
          "name": "newAdmin",
          "type": "address"
        }
      ],
      "name": "transferOwnership",
      "outputs": [],
      "stateMutability": "nonpayable",
      "type": "function"
    },
    {
      "inputs": [
        {
          "internalType": "address",
          "name": "wstonProxyAddress",
          "type": "address"
        },
        {
          "internalType": "address",
          "name": "newImplementation",
          "type": "address"
        }
      ],
      "name": "upgradeWstonTo",
      "outputs": [],
      "stateMutability": "nonpayable",
      "type": "function"
    },
    {
      "inputs": [],
      "name": "wstonImplementation",
      "outputs": [
        {
          "internalType": "address",
          "name": "",
          "type": "address"
        }
      ],
      "stateMutability": "view",
      "type": "function"
    }
  ],
  "bytecode": "0x608080604052346051576301ffc9a760e01b60005260046020527f9fe05126d2d9ecf60592e254dead906a4b2e492f36cca727682c38e9008c6ac1805460ff191660011790556127bc90816100578239f35b600080fdfe608060408181526004908136101561001657600080fd5b600092833560e01c90816301ffc9a714610b765750806315a327d314610b4d5780631785f53c14610b205780631d03a00914610af7578063248a9ca314610acc57806324d7806c14610a785780632f2ff15d14610a5057806336568abe14610a09578063389ed267146109e0578063485cc9551461095557806350d2a276146109115780635208e649146106bb578063550d01a31461067d57806363a8fd891461065b5780636b2c0f551461060d57806370480275146105be578063715018a61461059957806375829def1461057357806375b238fc1461054a57806381baed05146104ff57806382dc1ec41461046b5780638bd49a4f146103305780638f32d59b1461030a57806391d14854146102c4578063a217fddf146102a9578063b911135f14610276578063d21bae6614610249578063d547741f1461020b5763f2fde38b1461016357600080fd5b346102075760203660031901126102075761017c610baf565b9161018d610188610dcc565b610c80565b610198610188610dcc565b6001600160a01b03831680156101f85733146101ea5750906101d860016101dd936000805160206127278339815191528652600560205285200154610e1b565b610ecc565b506101e733610cd8565b80f35b90516309cd70b960e21b8152fd5b50905163d92e233d60e01b8152fd5b8280fd5b50346102075780600319360112610207576102459135610240600161022e610bca565b93838752600560205286200154610e1b565b6111c5565b5080f35b83823461027257816003193601126102725760065490516001600160a01b039091168152602090f35b5080fd5b5090346102075760203660031901126102075735825260016020908152918190205490516001600160a01b039091168152f35b83823461027257816003193601126102725751908152602090f35b509034610207578160031936011261020757816020936102e2610bca565b9235815260058552209060018060a01b0316600052825260ff81600020541690519015158152f35b838234610272578160031936011261027257602090610327610dcc565b90519015158152f35b5034610207578060031936011261020757610349610baf565b610351610bca565b8251638da5cb5b60e01b81526001600160a01b0392831692906020818781875afa90811561046157908291889161041f575b5016330361040f5790829186933b1561040b57602484928387519586948593631b2ce7f360e11b855216809a8401525af18015610401576103ed575b507f279aa14d8d722d787fbebbe5d140862d29a9a4c04fb92fa9d21004435c7bbe9e6020848451908152a180f35b6103f690610be0565b6102075782386103bf565b83513d84823e3d90fd5b8380fd5b5050505163bfcafd3760e01b8152fd5b9150506020813d602011610459575b8161043b60209383610c09565b810103126104555751818116810361045557819038610383565b8680fd5b3d915061042e565b85513d89823e3d90fd5b83823461027257602036600319011261027257610245906104e7600161048f610baf565b92600080516020612727833981519152865260056020528086203360005260205260ff81600020541680156104ec575b6104c890610d06565b6000805160206127078339815191528652600560205285200154610e1b565b610f5b565b506104c86104f8610dcc565b90506104bf565b833461054757602036600319011261054757610519610baf565b610524610188610dcc565b600880546001600160a01b0319166001600160a01b039290921691909117905580f35b80fd5b838234610272578160031936011261027257602090516000805160206127278339815191528152f35b50346102075760203660031901126102075761058d610baf565b91610198610188610dcc565b83346105475780600319360112610547576105b5610188610dcc565b610245336110d6565b83823461027257602036600319011261027257610245906101d860016105e2610baf565b926105ee610188610dcc565b6000805160206127278339815191528652600560205285200154610e1b565b50903461020757602036600319011261020757610628610baf565b91610634610188610dcc565b336001600160a01b0384160361064e57836102458461104e565b5163334bd91960e11b8152fd5b83823461027257816003193601126102725760ff602092541690519015158152f35b8382346102725760203660031901126102725760209160ff9082906001600160a01b036106a8610baf565b1681526002855220541690519015158152f35b50919034610272576003199060a036830112610207576106d9610baf565b6106e1610bca565b916044359360018060a01b0392838616809603610455576001600160401b039560643587811161090d576107189036908601610c2a565b906084358881116109095786610732819236908901610c2a565b946000805160206127278339815191528c5260056020528c8c20338d5260205260ff8d8d20541680156108f6575b61076990610d06565b1697610776891515610d47565b1697610783891515610d47565b61078e821515610d47565b8a51906114bc808301918211838310176108e35790829161122b833903908af080156108d9578616978660085416893b156108b8578b51631b2ce7f360e11b8152878101919091528a81602481838e5af180156108cf576108bc575b5086600654169660075416893b156108b85761085b938996938c98969361084c938f519b8c9a8b9a633bc2439360e21b8c528b015260248a01526044890152606488015260848701523360a487015261010060c4870152610104860190610d8c565b918483030160e4850152610d8c565b038183875af180156108ae5761089a575b50817f5b269f580912912f2c48a9e34fcae47327ba565d31e351e53be7115f90a62f7f602095519480a38152f35b6108a48491610be0565b610207573861086c565b85513d86823e3d90fd5b8a80fd5b6108c8909a919a610be0565b98386107ea565b8c513d8d823e3d90fd5b8a513d8b823e3d90fd5b634e487b7160e01b8c526041885260248cfd5b50610769610902610dcc565b9050610760565b8980fd5b8880fd5b509034610207576020366003190112610207573563ffffffff60e01b811680910361020757825260036020908152918190205490516001600160a01b039091168152f35b503461020757806003193601126102075761096e610baf565b91610977610bca565b9160ff60085460a01c166109d457505061099033610e5f565b50600680546001600160a01b03199081166001600160a01b039485161790915560078054909116919092161790556008805460ff60a01b1916600160a01b17905580f35b5162dc149f60e41b8152fd5b838234610272578160031936011261027257602090516000805160206127078339815191528152f35b50829034610272578060031936011261027257610a24610bca565b90336001600160a01b03831603610a4157506102459192356111c5565b5163334bd91960e11b81528390fd5b50346102075780600319360112610207576102459135610a73600161022e610bca565b610fe5565b8382346102725760203660031901126102725760ff81602093610a99610baf565b6000805160206127278339815191528252600586528282206001600160a01b039091168252855220549151911615158152f35b5090346102075760203660031901126102075781602093600192358152600585522001549051908152f35b83823461027257816003193601126102725760085490516001600160a01b039091168152602090f35b8334610547576020366003190112610547576101e7610b3d610baf565b610b48610188610dcc565b610cd8565b83823461027257816003193601126102725760075490516001600160a01b039091168152602090f35b849084346102075760203660031901126102075735916001600160e01b0319831683036105475750610ba9602092610def565b15158152f35b600435906001600160a01b0382168203610bc557565b600080fd5b602435906001600160a01b0382168203610bc557565b6001600160401b038111610bf357604052565b634e487b7160e01b600052604160045260246000fd5b90601f801991011681019081106001600160401b03821117610bf357604052565b81601f82011215610bc5578035906001600160401b038211610bf35760405192610c5e601f8401601f191660200185610c09565b82845260208383010111610bc557816000926020809301838601378301015290565b15610c8757565b60405162461bcd60e51b8152602060048201526024808201527f41757468436f6e74726f6c3a2043616c6c6572206973206e6f7420746865206f6044820152633bb732b960e11b6064820152608490fd5b336001600160a01b03821603610cf457610cf19061113d565b50565b60405163334bd91960e11b8152600490fd5b15610d0d57565b60405162461bcd60e51b81526020600482015260126024820152713737ba1027bbb732b91037b91020b236b4b760711b6044820152606490fd5b15610d4e57565b60405162461bcd60e51b8152602060048201526016602482015275416464726573732063616e6e6f74206265207a65726f60501b6044820152606490fd5b919082519283825260005b848110610db8575050826000602080949584010152601f8019910116010190565b602081830181015184830182015201610d97565b336000908152600080516020612767833981519152602052604090205460ff1690565b6001600160e01b03198116637965db0b60e01b14908115610e0e575090565b610e189150610def565b90565b80600052600560205260406000203360005260205260ff6040600020541615610e415750565b6044906040519063e2517d3f60e01b82523360048301526024820152fd5b6001600160a01b03166000818152600080516020612767833981519152602052604081205490919060ff16610ec85781805260056020526040822081835260205260408220600160ff1982541617905533916000805160206126e78339815191528180a4600190565b5090565b6001600160a01b031660008181527f09f04f5809d5be59813a33617d16f069caae874a6b34f03139f63d934daddae660205260408120549091906000805160206127278339815191529060ff16610f565780835260056020526040832082845260205260408320600160ff198254161790556000805160206126e7833981519152339380a4600190565b505090565b6001600160a01b031660008181527f787f97f3270d439d97068e73d6d75a066b24f84c342661f177d4e43e00e9f51360205260408120549091906000805160206127078339815191529060ff16610f565780835260056020526040832082845260205260408320600160ff198254161790556000805160206126e7833981519152339380a4600190565b906000918083526005602052604083209160018060a01b03169182845260205260ff60408420541615600014610f565780835260056020526040832082845260205260408320600160ff198254161790556000805160206126e7833981519152339380a4600190565b6001600160a01b031660008181527f787f97f3270d439d97068e73d6d75a066b24f84c342661f177d4e43e00e9f51360205260408120549091906000805160206127078339815191529060ff1615610f56578083526005602052604083208284526020526040832060ff198154169055600080516020612747833981519152339380a4600190565b6001600160a01b03166000818152600080516020612767833981519152602052604081205490919060ff1615610ec8578180526005602052604082208183526020526040822060ff19815416905533916000805160206127478339815191528180a4600190565b6001600160a01b031660008181527f09f04f5809d5be59813a33617d16f069caae874a6b34f03139f63d934daddae660205260408120549091906000805160206127278339815191529060ff1615610f56578083526005602052604083208284526020526040832060ff198154169055600080516020612747833981519152339380a4600190565b906000918083526005602052604083209160018060a01b03169182845260205260ff604084205416600014610f56578083526005602052604083208284526020526040832060ff198154169055600080516020612747833981519152339380a460019056fe608060405234605b576301ffc9a760e01b60005260046020527f9fe05126d2d9ecf60592e254dead906a4b2e492f36cca727682c38e9008c6ac1805460ff19166001179055604b336060565b506040516113cb90816100f18239f35b600080fd5b6001600160a01b031660008181527f05b8ccbb9d4d8fb16ea74ce3c29a41f1b461fbdaff4714a0d9a8eb05499746bc602052604081205490919060ff1660ec5781805260056020526040822081835260205260408220600160ff1982541617905533917f2f8788117e7eff1d82e926ec794901d17c78024a50270940304540a733656f0d8180a4600190565b509056fe60806040526004361015610018575b3661127a57610e94565b60003560e01c806301ffc9a7146102035780631785f53c146101fe578063248a9ca3146101f957806324d7806c146101f45780632e0f2625146101ef5780632f2ff15d146101ea57806336568abe146101e55780633659cfe6146101e0578063389ed267146101db5780634a5df50f146101d657806350d2a276146101d1578063550d01a3146101cc5780635c60da1b146101c75780635cc797d8146101c257806363a8fd89146101bd5780636b2c0f55146101b857806370480275146101b3578063715018a6146101ae57806375829def146101a957806375b238fc146101a45780637cb00d251461019f5780637cd5f6631461019a57806382dc1ec4146101955780638b8f4a651461017c5780638d4fdb40146101905780638f32d59b1461018b57806391d1485414610186578063a217fddf14610181578063b911135f1461017c578063d547741f146101775763f2fde38b0361000e57610c19565b610bda565b610b02565b610bbe565b610b8a565b610b6f565b610b36565b610a2c565b61098f565b610953565b61092a565b61087b565b610856565b6107e8565b6107ab565b610788565b61074f565b61071b565b6106dc565b610665565b6104ca565b6104a1565b6103d7565b610390565b610351565b61032a565b6102de565b6102af565b61027c565b61021f565b6001600160e01b031981160361021a57565b600080fd5b3461021a57602036600319011261021a57602061024660043561024181610208565b610ed0565b6040519015158152f35b600435906001600160a01b038216820361021a57565b602435906001600160a01b038216820361021a57565b3461021a57602036600319011261021a576102ad610298610250565b6102a86102a3610e5f565b610c3d565b610c95565b005b3461021a57602036600319011261021a5760043560005260056020526020600160406000200154604051908152f35b3461021a57602036600319011261021a57602060ff61031e6102fe610250565b6000805160206113568339815191526000526005845260406000206106c5565b54166040519015158152f35b3461021a57600036600319011261021a57604051676765c793fa10079d601b1b8152602090f35b3461021a57604036600319011261021a576102ad600435610370610266565b9080600052600560205261038b600160406000200154610ef9565b611015565b3461021a57604036600319011261021a576103a9610266565b336001600160a01b038216036103c5576102ad90600435611196565b60405163334bd91960e11b8152600490fd5b3461021a57602036600319011261021a576103f0610250565b6103fb6102a3610e5f565b6001600160a01b038116801561046c576000808052600160205260008051602061131683398151915254909261044591610440906001600160a01b0316841415610cb1565b6111b0565b7fbc7cd75a20ee27fd9adebab32041f755214dbc6bffa90cc0225b39da2e5c2d3b8280a280f35b60405162461bcd60e51b815260206004820152600d60248201526c696e707574206973207a65726f60981b6044820152606490fd5b3461021a57600036600319011261021a5760206040516000805160206113368339815191528152f35b3461021a57604036600319011261021a5760043567ffffffffffffffff80821161021a573660238301121561021a57816004013590811161021a576024820191602436918360051b01011161021a57610521610266565b9161052d6102a3610e5f565b8115610608579061054f61054a610543856106ab565b5460ff1690565b610ce9565b6001600160a01b0391838316919060005b82811061056957005b806105a4858761059c61058f61058a6105856001988b8b610d30565b610d56565b61064c565b546001600160a01b031690565b161415610d63565b6105be876105b961058a610585858989610d30565b610daf565b846105dd6105d0610585848888610d30565b6001600160e01b03191690565b7f14ebc1c32aa68f4d766e89f3e546cee249f7df25183fc10ab1568d91c2ce9b7b600080a301610560565b606460405162461bcd60e51b815260206004820152602060248201527f50726f78793a205f73656c6563746f727327732073697a65206973207a65726f6044820152fd5b63ffffffff60e01b166000526003602052604060002090565b3461021a57602036600319011261021a5760043561068281610208565b63ffffffff60e01b166000526003602052602060018060a01b0360406000205416604051908152f35b6001600160a01b0316600090815260026020526040902090565b9060018060a01b0316600052602052604060002090565b3461021a57602036600319011261021a576001600160a01b036106fd610250565b166000526002602052602060ff604060002054166040519015158152f35b3461021a5760008060031936011261074c5780806020925260018252604060018060a01b0391205416604051908152f35b80fd5b3461021a57604036600319011261021a57610768610250565b602435801515810361021a576102ad916107836102a3610e5f565b611226565b3461021a57600036600319011261021a57602060ff600054166040519015158152f35b3461021a57602036600319011261021a576107c4610250565b6107cf6102a3610e5f565b336001600160a01b038216036103c5576102ad9061102f565b3461021a57602036600319011261021a576102ad610804610250565b61080f6102a3610e5f565b60008051602061135683398151915260005260056020527f09f04f5809d5be59813a33617d16f069caae874a6b34f03139f63d934daddae75461085190610ef9565b610f3a565b3461021a57600036600319011261021a576108726102a3610e5f565b6102ad336110ce565b3461021a57602036600319011261021a57610894610250565b61089f6102a3610e5f565b6001600160a01b03811680156109185733146109065760008051602061135683398151915260005260056020527f09f04f5809d5be59813a33617d16f069caae874a6b34f03139f63d934daddae7546108fc919061085190610ef9565b506102ad33610c95565b6040516309cd70b960e21b8152600490fd5b60405163d92e233d60e01b8152600490fd5b3461021a57600036600319011261021a5760206040516000805160206113568339815191528152f35b3461021a57602036600319011261021a5760043580151580910361021a5761097c6102a3610e5f565b60ff801960005416911617600055600080f35b3461021a57606036600319011261021a576109a8610250565b604435801515810361021a576109bf6102a3610e5f565b813b156109e9576102ad918115611226576024356000526001602052610783816040600020610daf565b60405162461bcd60e51b815260206004820152601b60248201527a50726f78793a206e6f7420636f6e7472616374206164647265737360281b6044820152606490fd5b3461021a57602036600319011261021a57610a45610250565b600080516020611356833981519152600090815260056020529060ff610a79336000805160206113768339815191526106c5565b54168015610af4575b15610aba57610ab69060008051602061133683398151915283526005602052610ab16001604085200154610ef9565b610fcf565b5080f35b60405162461bcd60e51b81526020600482015260126024820152713737ba1027bbb732b91037b91020b236b4b760711b6044820152606490fd5b50610afd610e5f565b610a82565b3461021a57602036600319011261021a576004356000526001602052602060018060a01b0360406000205416604051908152f35b3461021a57602036600319011261021a576020610b5d600435610b5881610208565b610dce565b6040516001600160a01b039091168152f35b3461021a57600036600319011261021a576020610246610e5f565b3461021a57604036600319011261021a57602060ff61031e610baa610266565b6004356000526005845260406000206106c5565b3461021a57600036600319011261021a57602060405160008152f35b3461021a57604036600319011261021a576102ad600435610bf9610266565b90806000526005602052610c14600160406000200154610ef9565b611196565b3461021a57602036600319011261021a57610c32610250565b6108946102a3610e5f565b15610c4457565b60405162461bcd60e51b8152602060048201526024808201527f41757468436f6e74726f6c3a2043616c6c6572206973206e6f7420746865206f6044820152633bb732b960e11b6064820152608490fd5b336001600160a01b038216036103c557610cae90611162565b50565b15610cb857565b60405162461bcd60e51b815260206004820152600960248201526839b0b6b29030b2323960b91b6044820152606490fd5b15610cf057565b60405162461bcd60e51b815260206004820152601860248201527750726f78793a205f696d70206973206e6f7420616c69766560401b6044820152606490fd5b9190811015610d405760051b0190565b634e487b7160e01b600052603260045260246000fd5b35610d6081610208565b90565b15610d6a57565b60405162461bcd60e51b815260206004820152601d60248201527f4c69717569646974795661756c7450726f78793a2073616d6520696d700000006044820152606490fd5b80546001600160a01b0319166001600160a01b03909216919091179055565b6001600160e01b031981166000908152600360205260409020546001600160a01b0391908216610e1b5750600080526001602052600080516020611316833981519152541690565b541690565b60ff610e3183610e2a8461064c565b54166106ab565b541615610e4157610e169061064c565b50600080526001602052600080516020611316833981519152541690565b60008052600560205260ff610e16337f05b8ccbb9d4d8fb16ea74ce3c29a41f1b461fbdaff4714a0d9a8eb05499746bc6106c5565b60405162461bcd60e51b815260206004820152601460248201527331b0b73737ba103932b1b2b4bb329022ba3432b960611b6044820152606490fd5b6001600160e01b03198116637965db0b60e01b14908115610eef575090565b610d609150610ed0565b80600052600560205260ff610f123360406000206106c5565b541615610f1c5750565b6044906040519063e2517d3f60e01b82523360048301526024820152fd5b600080516020611356833981519152600081815260056020529060ff610f6e846000805160206113768339815191526106c5565b5416610fc9578082526005602052610f8983604084206106c5565b805460ff1916600117905533926001600160a01b0316917f2f8788117e7eff1d82e926ec794901d17c78024a50270940304540a733656f0d9080a4600190565b50905090565b600080516020611336833981519152600081815260056020529060ff610f6e847f787f97f3270d439d97068e73d6d75a066b24f84c342661f177d4e43e00e9f5136106c5565b600090808252600560205260ff610f6e84604085206106c5565b600080516020611336833981519152600081815260056020529060ff611075847f787f97f3270d439d97068e73d6d75a066b24f84c342661f177d4e43e00e9f5136106c5565b541615610fc957808252600560205261109183604084206106c5565b805460ff1916905533926001600160a01b0316917ff6391f5c32d9c69d2a47ea670b442974b53935d1edc7fd64eb21e047a839171b9080a4600190565b6000808052600560205260ff611104837f05b8ccbb9d4d8fb16ea74ce3c29a41f1b461fbdaff4714a0d9a8eb05499746bc6106c5565b54161561115d57808052600560205261112082604083206106c5565b805460ff1916905533916001600160a01b0316907ff6391f5c32d9c69d2a47ea670b442974b53935d1edc7fd64eb21e047a839171b8180a4600190565b905090565b600080516020611356833981519152600081815260056020529060ff611075846000805160206113768339815191526106c5565b600090808252600560205260ff61107584604085206106c5565b803b156109e9576000805260016020526111d881600080516020611316833981519152610daf565b60018060a01b03168060005260026020526040600020600160ff198254161790557f72558d9bfba4210f9ef095c782589484151f6d90f7a81bb3cb9b33efc695d324602060405160018152a2565b60207f72558d9bfba4210f9ef095c782589484151f6d90f7a81bb3cb9b33efc695d3249160018060a01b031692836000526002825260406000209015159060ff1981541660ff8316179055604051908152a2565b600061129081356001600160e01b031916610dce565b6001600160a01b038116151580611309575b156112c457818091368280378136915af43d82803e156112c0573d90f35b3d90fd5b60405162461bcd60e51b815260206004820152601d60248201527f50726f78793a20696d706c204f522070726f78792069732066616c73650000006044820152606490fd5b5060ff825416156112a256fea6eef7e35abe7026729641147f7915573c7e97b47efa546f5f6e3230263bcb49fcb9fcbfa83b897fb2d5cf4b58962164105c1e71489a37ef3ae0db3fdce576f6df8b4c520ffe197c5343c6f5aec59570151ef9a492f2c624fd45ddde6135ec4209f04f5809d5be59813a33617d16f069caae874a6b34f03139f63d934daddae6a2646970667358221220c48bb572021ed278e8300a6f9ce109b4f31ddcb9e75723551a3a74752a5e31d164736f6c634300081900332f8788117e7eff1d82e926ec794901d17c78024a50270940304540a733656f0dfcb9fcbfa83b897fb2d5cf4b58962164105c1e71489a37ef3ae0db3fdce576f6df8b4c520ffe197c5343c6f5aec59570151ef9a492f2c624fd45ddde6135ec42f6391f5c32d9c69d2a47ea670b442974b53935d1edc7fd64eb21e047a839171b05b8ccbb9d4d8fb16ea74ce3c29a41f1b461fbdaff4714a0d9a8eb05499746bca2646970667358221220e13df18b5d62e3fdcdc484bc348d25f7e8ccf02c9a033e4f82faab30bb66b33264736f6c63430008190033",
  "linkReferences": {},
  "deployedLinkReferences": {}
}