{
  "_format": "hh-sol-artifact-1",
  "contractName": "AuthRole",
  "sourceName": "src/common/AuthRole.sol",
  "abi": [
    {
      "inputs": [],
      "name": "ADMIN_ROLE",
      "outputs": [
        {
          "internalType": "bytes32",
          "name": "",
          "type": "bytes32"
        }
      ],
      "stateMutability": "view",
      "type": "function"
    },
    {
      "inputs": [],
      "name": "PAUSE_ROLE",
      "outputs": [
        {
          "internalType": "bytes32",
          "name": "",
          "type": "bytes32"
        }
      ],
      "stateMutability": "view",
      "type": "function"
    }
  ],
  "bytecode": "0x6080806040523460135760e1908160198239f35b600080fdfe6080806040526004361015601257600080fd5b600090813560e01c908163389ed26714606f57506375b238fc14603457600080fd5b34606c5780600319360112606c5760206040517fdf8b4c520ffe197c5343c6f5aec59570151ef9a492f2c624fd45ddde6135ec428152f35b80fd5b90503460a7578160031936011260a757807ffcb9fcbfa83b897fb2d5cf4b58962164105c1e71489a37ef3ae0db3fdce576f660209252f35b5080fdfea2646970667358221220a4a2595b91625b2d54932be3c8d2651b25fab703ab58f9d1c3536c612883c61364736f6c63430008190033",
  "linkReferences": {},
  "deployedLinkReferences": {}
}