{
  "_format": "hh-sol-artifact-1",
  "contractName": "Treasury",
  "sourceName": "src/L2/Treasury.sol",
  "abi": [
    {
      "inputs": [
        {
          "internalType": "address",
          "name": "_wston",
          "type": "address"
        },
        {
          "internalType": "address",
          "name": "_ton",
          "type": "address"
        },
        {
          "internalType": "address",
          "name": "_gemFactory",
          "type": "address"
        }
      ],
      "stateMutability": "nonpayable",
      "type": "constructor"
    },
    {
      "inputs": [],
      "name": "AccessControlBadConfirmation",
      "type": "error"
    },
    {
      "inputs": [
        {
          "internalType": "address",
          "name": "account",
          "type": "address"
        },
        {
          "internalType": "bytes32",
          "name": "neededRole",
          "type": "bytes32"
        }
      ],
      "name": "AccessControlUnauthorizedAccount",
      "type": "error"
    },
    {
      "inputs": [
        {
          "internalType": "address",
          "name": "target",
          "type": "address"
        }
      ],
      "name": "AddressEmptyCode",
      "type": "error"
    },
    {
      "inputs": [
        {
          "internalType": "address",
          "name": "account",
          "type": "address"
        }
      ],
      "name": "AddressInsufficientBalance",
      "type": "error"
    },
    {
      "inputs": [],
      "name": "FailedInnerCall",
      "type": "error"
    },
    {
      "inputs": [],
      "name": "ReentrancyGuardReentrantCall",
      "type": "error"
    },
    {
      "inputs": [
        {
          "internalType": "address",
          "name": "token",
          "type": "address"
        }
      ],
      "name": "SafeERC20FailedOperation",
      "type": "error"
    },
    {
      "anonymous": false,
      "inputs": [
        {
          "indexed": true,
          "internalType": "bytes32",
          "name": "role",
          "type": "bytes32"
        },
        {
          "indexed": true,
          "internalType": "bytes32",
          "name": "previousAdminRole",
          "type": "bytes32"
        },
        {
          "indexed": true,
          "internalType": "bytes32",
          "name": "newAdminRole",
          "type": "bytes32"
        }
      ],
      "name": "RoleAdminChanged",
      "type": "event"
    },
    {
      "anonymous": false,
      "inputs": [
        {
          "indexed": true,
          "internalType": "bytes32",
          "name": "role",
          "type": "bytes32"
        },
        {
          "indexed": true,
          "internalType": "address",
          "name": "account",
          "type": "address"
        },
        {
          "indexed": true,
          "internalType": "address",
          "name": "sender",
          "type": "address"
        }
      ],
      "name": "RoleGranted",
      "type": "event"
    },
    {
      "anonymous": false,
      "inputs": [
        {
          "indexed": true,
          "internalType": "bytes32",
          "name": "role",
          "type": "bytes32"
        },
        {
          "indexed": true,
          "internalType": "address",
          "name": "account",
          "type": "address"
        },
        {
          "indexed": true,
          "internalType": "address",
          "name": "sender",
          "type": "address"
        }
      ],
      "name": "RoleRevoked",
      "type": "event"
    },
    {
      "inputs": [],
      "name": "ADMIN_ROLE",
      "outputs": [
        {
          "internalType": "bytes32",
          "name": "",
          "type": "bytes32"
        }
      ],
      "stateMutability": "view",
      "type": "function"
    },
    {
      "inputs": [],
      "name": "DEFAULT_ADMIN_ROLE",
      "outputs": [
        {
          "internalType": "bytes32",
          "name": "",
          "type": "bytes32"
        }
      ],
      "stateMutability": "view",
      "type": "function"
    },
    {
      "inputs": [],
      "name": "PAUSE_ROLE",
      "outputs": [
        {
          "internalType": "bytes32",
          "name": "",
          "type": "bytes32"
        }
      ],
      "stateMutability": "view",
      "type": "function"
    },
    {
      "inputs": [
        {
          "internalType": "address",
          "name": "account",
          "type": "address"
        }
      ],
      "name": "addAdmin",
      "outputs": [],
      "stateMutability": "nonpayable",
      "type": "function"
    },
    {
      "inputs": [
        {
          "internalType": "address",
          "name": "account",
          "type": "address"
        }
      ],
      "name": "addPauser",
      "outputs": [],
      "stateMutability": "nonpayable",
      "type": "function"
    },
    {
      "inputs": [],
      "name": "approveGemFactory",
      "outputs": [],
      "stateMutability": "nonpayable",
      "type": "function"
    },
    {
      "inputs": [
        {
          "internalType": "uint256",
          "name": "_tokenId",
          "type": "uint256"
        },
        {
          "internalType": "bool",
          "name": "_paymentMethod",
          "type": "bool"
        }
      ],
      "name": "buyGem",
      "outputs": [],
      "stateMutability": "nonpayable",
      "type": "function"
    },
    {
      "inputs": [
        {
          "internalType": "enum GemFactoryStorage.Rarity",
          "name": "_rarity",
          "type": "uint8"
        },
        {
          "internalType": "uint8[2]",
          "name": "_color",
          "type": "uint8[2]"
        },
        {
          "internalType": "uint8[4]",
          "name": "_quadrants",
          "type": "uint8[4]"
        },
        {
          "internalType": "string",
          "name": "_tokenURI",
          "type": "string"
        }
      ],
      "name": "createPreminedGEM",
      "outputs": [
        {
          "internalType": "uint256",
          "name": "",
          "type": "uint256"
        }
      ],
      "stateMutability": "nonpayable",
      "type": "function"
    },
    {
      "inputs": [
        {
          "internalType": "enum GemFactoryStorage.Rarity[]",
          "name": "_rarities",
          "type": "uint8[]"
        },
        {
          "internalType": "uint8[2][]",
          "name": "_colors",
          "type": "uint8[2][]"
        },
        {
          "internalType": "uint8[4][]",
          "name": "_quadrants",
          "type": "uint8[4][]"
        },
        {
          "internalType": "string[]",
          "name": "_tokenURIs",
          "type": "string[]"
        }
      ],
      "name": "createPreminedGEMPool",
      "outputs": [
        {
          "internalType": "uint256[]",
          "name": "",
          "type": "uint256[]"
        }
      ],
      "stateMutability": "nonpayable",
      "type": "function"
    },
    {
      "inputs": [],
      "name": "getGemFactoryAddress",
      "outputs": [
        {
          "internalType": "address",
          "name": "",
          "type": "address"
        }
      ],
      "stateMutability": "view",
      "type": "function"
    },
    {
      "inputs": [],
      "name": "getRandomPackAddress",
      "outputs": [
        {
          "internalType": "address",
          "name": "",
          "type": "address"
        }
      ],
      "stateMutability": "view",
      "type": "function"
    },
    {
      "inputs": [
        {
          "internalType": "bytes32",
          "name": "role",
          "type": "bytes32"
        }
      ],
      "name": "getRoleAdmin",
      "outputs": [
        {
          "internalType": "bytes32",
          "name": "",
          "type": "bytes32"
        }
      ],
      "stateMutability": "view",
      "type": "function"
    },
    {
      "inputs": [],
      "name": "getTONBalance",
      "outputs": [
        {
          "internalType": "uint256",
          "name": "",
          "type": "uint256"
        }
      ],
      "stateMutability": "view",
      "type": "function"
    },
    {
      "inputs": [],
      "name": "getWSTONBalance",
      "outputs": [
        {
          "internalType": "uint256",
          "name": "",
          "type": "uint256"
        }
      ],
      "stateMutability": "view",
      "type": "function"
    },
    {
      "inputs": [
        {
          "internalType": "bytes32",
          "name": "role",
          "type": "bytes32"
        },
        {
          "internalType": "address",
          "name": "account",
          "type": "address"
        }
      ],
      "name": "grantRole",
      "outputs": [],
      "stateMutability": "nonpayable",
      "type": "function"
    },
    {
      "inputs": [
        {
          "internalType": "bytes32",
          "name": "role",
          "type": "bytes32"
        },
        {
          "internalType": "address",
          "name": "account",
          "type": "address"
        }
      ],
      "name": "hasRole",
      "outputs": [
        {
          "internalType": "bool",
          "name": "",
          "type": "bool"
        }
      ],
      "stateMutability": "view",
      "type": "function"
    },
    {
      "inputs": [
        {
          "internalType": "address",
          "name": "account",
          "type": "address"
        }
      ],
      "name": "isAdmin",
      "outputs": [
        {
          "internalType": "bool",
          "name": "",
          "type": "bool"
        }
      ],
      "stateMutability": "view",
      "type": "function"
    },
    {
      "inputs": [],
      "name": "isOwner",
      "outputs": [
        {
          "internalType": "bool",
          "name": "",
          "type": "bool"
        }
      ],
      "stateMutability": "view",
      "type": "function"
    },
    {
      "inputs": [
        {
          "internalType": "address",
          "name": "",
          "type": "address"
        },
        {
          "internalType": "address",
          "name": "",
          "type": "address"
        },
        {
          "internalType": "uint256",
          "name": "",
          "type": "uint256"
        },
        {
          "internalType": "bytes",
          "name": "",
          "type": "bytes"
        }
      ],
      "name": "onERC721Received",
      "outputs": [
        {
          "internalType": "bytes4",
          "name": "",
          "type": "bytes4"
        }
      ],
      "stateMutability": "pure",
      "type": "function"
    },
    {
      "inputs": [
        {
          "internalType": "uint256",
          "name": "_tokenId",
          "type": "uint256"
        },
        {
          "internalType": "uint256",
          "name": "_price",
          "type": "uint256"
        }
      ],
      "name": "putGemForSale",
      "outputs": [],
      "stateMutability": "nonpayable",
      "type": "function"
    },
    {
      "inputs": [
        {
          "internalType": "uint256[]",
          "name": "tokenIds",
          "type": "uint256[]"
        },
        {
          "internalType": "uint256[]",
          "name": "prices",
          "type": "uint256[]"
        }
      ],
      "name": "putGemListForSale",
      "outputs": [],
      "stateMutability": "nonpayable",
      "type": "function"
    },
    {
      "inputs": [
        {
          "internalType": "address",
          "name": "account",
          "type": "address"
        }
      ],
      "name": "removeAdmin",
      "outputs": [],
      "stateMutability": "nonpayable",
      "type": "function"
    },
    {
      "inputs": [
        {
          "internalType": "uint256",
          "name": "_tokenId",
          "type": "uint256"
        }
      ],
      "name": "removeGemFromSale",
      "outputs": [],
      "stateMutability": "nonpayable",
      "type": "function"
    },
    {
      "inputs": [
        {
          "internalType": "address",
          "name": "account",
          "type": "address"
        }
      ],
      "name": "removePauser",
      "outputs": [],
      "stateMutability": "nonpayable",
      "type": "function"
    },
    {
      "inputs": [],
      "name": "renounceOwnership",
      "outputs": [],
      "stateMutability": "nonpayable",
      "type": "function"
    },
    {
      "inputs": [
        {
          "internalType": "bytes32",
          "name": "role",
          "type": "bytes32"
        },
        {
          "internalType": "address",
          "name": "callerConfirmation",
          "type": "address"
        }
      ],
      "name": "renounceRole",
      "outputs": [],
      "stateMutability": "nonpayable",
      "type": "function"
    },
    {
      "inputs": [
        {
          "internalType": "bytes32",
          "name": "role",
          "type": "bytes32"
        },
        {
          "internalType": "address",
          "name": "account",
          "type": "address"
        }
      ],
      "name": "revokeRole",
      "outputs": [],
      "stateMutability": "nonpayable",
      "type": "function"
    },
    {
      "inputs": [
        {
          "internalType": "address",
          "name": "_gemFactory",
          "type": "address"
        }
      ],
      "name": "setGemFactory",
      "outputs": [],
      "stateMutability": "nonpayable",
      "type": "function"
    },
    {
      "inputs": [
        {
          "internalType": "address",
          "name": "marketplace",
          "type": "address"
        }
      ],
      "name": "setMarketPlace",
      "outputs": [],
      "stateMutability": "nonpayable",
      "type": "function"
    },
    {
      "inputs": [
        {
          "internalType": "address",
          "name": "_randomPack",
          "type": "address"
        }
      ],
      "name": "setRandomPack",
      "outputs": [],
      "stateMutability": "nonpayable",
      "type": "function"
    },
    {
      "inputs": [
        {
          "internalType": "address",
          "name": "_wstonSwapPool",
          "type": "address"
        }
      ],
      "name": "setWstonSwapPool",
      "outputs": [],
      "stateMutability": "nonpayable",
      "type": "function"
    },
    {
      "inputs": [
        {
          "internalType": "bytes4",
          "name": "interfaceId",
          "type": "bytes4"
        }
      ],
      "name": "supportsInterface",
      "outputs": [
        {
          "internalType": "bool",
          "name": "",
          "type": "bool"
        }
      ],
      "stateMutability": "view",
      "type": "function"
    },
    {
      "inputs": [
        {
          "internalType": "uint256",
          "name": "tonAmount",
          "type": "uint256"
        }
      ],
      "name": "swapTONforWSTON",
      "outputs": [],
      "stateMutability": "nonpayable",
      "type": "function"
    },
    {
      "inputs": [],
      "name": "tonApproveMarketPlace",
      "outputs": [],
      "stateMutability": "nonpayable",
      "type": "function"
    },
    {
      "inputs": [],
      "name": "tonApproveWstonSwapPool",
      "outputs": [],
      "stateMutability": "nonpayable",
      "type": "function"
    },
    {
      "inputs": [
        {
          "internalType": "address",
          "name": "newAdmin",
          "type": "address"
        }
      ],
      "name": "transferAdmin",
      "outputs": [],
      "stateMutability": "nonpayable",
      "type": "function"
    },
    {
      "inputs": [
        {
          "internalType": "address",
          "name": "newAdmin",
          "type": "address"
        }
      ],
      "name": "transferOwnership",
      "outputs": [],
      "stateMutability": "nonpayable",
      "type": "function"
    },
    {
      "inputs": [
        {
          "internalType": "address",
          "name": "_to",
          "type": "address"
        },
        {
          "internalType": "uint256",
          "name": "_amount",
          "type": "uint256"
        }
      ],
      "name": "transferTON",
      "outputs": [
        {
          "internalType": "bool",
          "name": "",
          "type": "bool"
        }
      ],
      "stateMutability": "nonpayable",
      "type": "function"
    },
    {
      "inputs": [
        {
          "internalType": "address",
          "name": "_to",
          "type": "address"
        },
        {
          "internalType": "uint256",
          "name": "_tokenId",
          "type": "uint256"
        }
      ],
      "name": "transferTreasuryGEMto",
      "outputs": [
        {
          "internalType": "bool",
          "name": "",
          "type": "bool"
        }
      ],
      "stateMutability": "nonpayable",
      "type": "function"
    },
    {
      "inputs": [
        {
          "internalType": "address",
          "name": "_to",
          "type": "address"
        },
        {
          "internalType": "uint256",
          "name": "_amount",
          "type": "uint256"
        }
      ],
      "name": "transferWSTON",
      "outputs": [
        {
          "internalType": "bool",
          "name": "",
          "type": "bool"
        }
      ],
      "stateMutability": "nonpayable",
      "type": "function"
    },
    {
      "inputs": [],
      "name": "wstonApproveMarketPlace",
      "outputs": [],
      "stateMutability": "nonpayable",
      "type": "function"
    }
  ],
  "bytecode": "0x6080346100bc57601f61284b38819003918201601f19168301916001600160401b038311848410176100c1578084926060946040528339810103126100bc57610047816100d7565b61005f6040610058602085016100d7565b93016100d7565b60016000556007805460ff60a01b191690559161007b336100eb565b5060018060a01b0380928160018060a01b0319951685600254161760025516836005541617600555169060065416176006556040516126ce908161017d8239f35b600080fd5b634e487b7160e01b600052604160045260246000fd5b51906001600160a01b03821682036100bc57565b6001600160a01b031660008181527fa6eef7e35abe7026729641147f7915573c7e97b47efa546f5f6e3230263bcb49602052604081205490919060ff166101785781805260016020526040822081835260205260408220600160ff1982541617905533917f2f8788117e7eff1d82e926ec794901d17c78024a50270940304540a733656f0d8180a4600190565b509056fe6080604052600436101561001257600080fd5b6000803560e01c80630169dc31146119a757806301ffc9a71461195057806302424ed3146118b157806307db4470146118435780630d727e2b146117c3578063150b7a02146117595780631785f53c1461172c57806320e641b7146116be578063248a9ca31461169257806324d7806c1461163a5780632ede6432146115915780632f2ff15d1461155357806330568a8d1461150357806336568abe146114cd578063389ed267146114a45780633b22f11014611489578063425c7fc214610dde57806348dbcef014610d04578063520aefae14610ccb5780636b2c0f5514610c7b5780637048027514610c2d578063715018a614610c0857806375829def14610bee57806375b238fc14610bc557806379dbd79814610ac557806382dc1ec414610a305780638f32d59b14610a0b57806391005b0814610975578063912b431b146106a157806391d148541461065557806398d111b2146105965780639d541be21461056d578063a217fddf14610551578063b23a1d0d14610501578063bae77ac9146104de578063d547741f1461049c578063e614751814610448578063ec23919a1461041f578063ec7ae61d14610337578063ed8c2472146102e75763f2fde38b146101e057600080fd5b346102e45760203660031901126102e4576101f9611ab8565b61020961020461209d565b611d7b565b61021461020461209d565b6001600160a01b03811680156102a45733146102665761025990600080516020612659833981519152835260016020526102546001604085200154612201565b612245565b5061026333611e6d565b80f35b60405162461bcd60e51b815260206004820152601660248201527520b1b1b2b9b9b4b136329d1039b0b6b29030b236b4b760511b6044820152606490fd5b60405162461bcd60e51b815260206004820152601860248201527741636365737369626c653a207a65726f206164647265737360401b6044820152606490fd5b80fd5b50346102e45760203660031901126102e457610301611ab8565b61030c61020461209d565b6001600160a01b0316610320811515611e2f565b600480546001600160a01b03191691909117905580f35b50346102e45760403660031901126102e457610351611ab8565b9060406024359160008051602061265983398151915281526001602052203360005260205260ff60406000205416801561040c575b61038f90611d3a565b6001600160a01b03916103a58184161515611cff565b816103ae611e89565b106103cb576103c0926006541661213b565b602060405160018152f35b60405162461bcd60e51b8152602060048201526019602482015278556e7375666669736369656e7420544f4e2062616c616e636560381b6044820152606490fd5b5061038f61041861209d565b9050610386565b50346102e457806003193601126102e4576004546040516001600160a01b039091168152602090f35b50346102e45760203660031901126102e457610462611ab8565b61046d61020461209d565b600254906001600160a01b03906104878284161515611e2f565b6001600160a01b031990921691161760025580f35b50346102e45760403660031901126102e4576104da6004356104bc611ace565b9080845260016020526104d56001604086200154612201565b612530565b5080f35b50346102e457806003193601126102e45760206104f96120fd565b604051908152f35b50346102e45760203660031901126102e45761051b611ab8565b61052661020461209d565b6001600160a01b031661053a811515611e2f565b600780546001600160a01b03191691909117905580f35b50346102e457806003193601126102e457602090604051908152f35b50346102e457806003193601126102e4576002546040516001600160a01b039091168152602090f35b50346102e45760203660031901126102e45760008051602061265983398151915281526001602052604081203360005260205260ff604060002054168015610642575b6105e290611d3a565b60035481906001600160a01b0316803b1561063f578180916024604051809481936356d6b49360e11b835260043560048401525af18015610634576106245750f35b61062d90611ae4565b6102e45780f35b6040513d84823e3d90fd5b50fd5b506105e261064e61209d565b90506105d9565b50346102e45760403660031901126102e4576040610671611ace565b9160043581526001602052209060018060a01b0316600052602052602060ff604060002054166040519015158152f35b50346102e45761010090816003193601126102e457600435916006831015610971573660431215610880576040516106d881611b0d565b606481368211610880576024905b8282106109595750505036608312156108805760405161070581611b28565b60e481368211610880576064905b8282106109415750505060e4356001600160401b03811161093d5761073c903690600401611ba4565b6004546001600160a01b03969190871633148015610930575b801561091d575b61076590611f02565b61076d6120fd565b96600254169260405197630265f21b60e51b89526020988981600481895afa9081156109125789916108e5575b50604051630b513d9960e01b8152906107b66004830187611f66565b8a826024818a5afa9182156108da57918a9593918c99989795938792610898575b50610840936107fe61081c989796946107f76108269e9561083095611f89565b1115611fac565b60405163975781b760e01b81529b8c9a8b998a9860048a0190611f66565b6024880190612007565b6064860190612032565b60e484015261010483019061205d565b03925af191821561088c579161085a575b50604051908152f35b90508181813d8311610885575b6108718183611b43565b81010312610880575138610851565b600080fd5b503d610867565b604051903d90823e3d90fd5b998a919695939497508092503d83116108d3575b6108b68183611b43565b810103126108805796518a978a95939490939291906108406107d7565b503d6108ac565b6040513d8c823e3d90fd5b90508981813d831161090b575b6108fc8183611b43565b8101031261088057513861079a565b503d6108f2565b6040513d8b823e3d90fd5b5061076561092961209d565b905061075c565b5086600354163314610755565b8480fd5b6020809161094e84611b7b565b815201910190610713565b6020809161096684611b7b565b8152019101906106e6565b5080fd5b50346102e457806003193601126102e45761099161020461209d565b80602060018060a01b0360448160055416916109ae831515611dd3565b60035460405163095ea7b360e01b81529116600482015260001960248201529384928391905af18015610634576109e3575080f35b6104da9060203d602011610a04575b6109fc8183611b43565b810190611e17565b503d6109f2565b50346102e457806003193601126102e4576020610a2661209d565b6040519015158152f35b50346102e45760203660031901126102e4576104da610a4d611ab8565b60008051602061265983398151915283526001602052604083203360005260205260ff604060002054168015610ab2575b610a8790611d3a565b60008051602061263983398151915283526001602052610aad6001604085200154612201565b6122c2565b50610a87610abe61209d565b9050610a7e565b50346102e4578060031960403682011261063f576001600160401b03600435818111610bc057610af9903690600401611c1f565b90602435908111610bc057610b12903690600401611c1f565b60008051602061265983398151915284526001602052604084203360005260205260ff604060002054168015610bad575b610b4c90611d3a565b6003546001600160a01b0316803b1561093d57610b8d858094610b9c60405197889687958694630f3b7af360e31b8652604060048701526044860190611beb565b91848303016024850152611beb565b03925af18015610634576106245750f35b50610b4c610bb961209d565b9050610b43565b505050fd5b50346102e457806003193601126102e45760206040516000805160206126598339815191528152f35b50346102e45760203660031901126102e457610209611ab8565b50346102e457806003193601126102e457610c2461020461209d565b6104da3361243d565b50346102e45760203660031901126102e4576104da610c4a611ab8565b610c5561020461209d565b600080516020612659833981519152835260016020526102546001604085200154612201565b50346102e45760203660031901126102e457610c95611ab8565b610ca061020461209d565b336001600160a01b03821603610cb9576104da906123b5565b60405163334bd91960e11b8152600490fd5b50346102e457806003193601126102e457610ce761020461209d565b80602060018060a01b0360448160065416916109ae831515611dd3565b50346102e45760403660031901126102e457610d1e611ab8565b6002546001600160a01b03908116918391903384148015610dd1575b8015610dc4575b8015610db1575b610d5190611c7f565b833b15610dad576064908360405195869485936323b872dd60e01b855230600486015216602484015260243560448401525af1801561063457610d9957602060405160018152f35b610da38291611ae4565b6102e457806103c0565b8280fd5b50610d51610dbd61209d565b9050610d48565b5081600454163314610d41565b5081600354163314610d3a565b50346102e45760803660031901126102e457600435906001600160401b0382116102e457366023830112156102e457816004013590610e1c82611b64565b92610e2a6040519485611b43565b82845260208401906024829460051b8201019036821161124757602401915b81831061147057505050602435926001600160401b038411610971573660238501121561097157836004013590610e7f82611b64565b91610e8d6040519384611b43565b808352602083019081963660248360061b8301011161146c5760248101925b60248360061b83010184106114125750505050604435946001600160401b038611611247573660238701121561124757856004013595610eeb87611b64565b96610ef96040519889611b43565b808852602088019081923660248360071b8301011161140e5760248101925b60248360071b83010184106113b457505050506001600160401b036064351161093d5736602360643501121561093d576064356004013591610f5983611b64565b90610f676040519283611b43565b8382526020820180943660248260051b6064350101116113b057602460643501915b60248260051b606435010183106113795750505060018060a01b036004541633148015611365575b8015611352575b610fc59099969899611f02565b600254969889976001600160a01b03169690885b87518c101561108f5760208c60051b89010151600681101561107b57604051630b513d9960e01b815290611011906004830190611f66565b6020816024818d5afa908115611070578b9161103d575b5061103590600192611f89565b9b019a610fd9565b90506020813d602011611068575b8161105860209383611b43565b8101031261088057516001611028565b3d915061104b565b6040513d8d823e3d90fd5b634e487b7160e01b8b52602160045260248bfd5b8a9098979861109c6120fd565b604051630265f21b60e51b81526020816004818e5afa908115611347578d91611313575b50906107f78d9b999795936110da939d9b9997959d611f89565b604051630ff1ac6760e01b81526080600482015297516084890181905297998a9860a48a0192908b5b8181106112de575050506020906003198a84030160248b01525191828152019290895b8181106112ac575050506020906003198884030160448901525191828152019290875b81811061127e5750505060031985830301606486015251808252602082019160208260051b820101939287915b83831061124b5750505050508383809203925af19081156106345782916111b2575b604051602080825281906111ae90820185611beb565b0390f35b90503d8083833e6111c38183611b43565b810190602081830312610dad578051906001600160401b038211611247570181601f82011215610dad578051906111f982611b64565b936112076040519586611b43565b82855260208086019360051b8301019384116102e45750602001905b828210611237575050506111ae9082611198565b8151815260209182019101611223565b8380fd5b929597509295509260208061126c600193601f19868203018752895161205d565b97019301930187959389979592611176565b92949650928195975060808161129960209360019551612032565b0195019101908896949288969492611149565b92949698509281959799506040816112c960209360019551612007565b0195019101908a989694928a98969492611126565b929496989a5092819597999b506020816112fc829360019551611f66565b0195019101908c9a989694928c9a98969492611103565b90506020813d60201161133f575b8161132e60209383611b43565b8101031261088057516110da6110c0565b3d9150611321565b6040513d8f823e3d90fd5b50610fc561135e61209d565b9050610fb8565b506003546001600160a01b03163314610fb1565b6001600160401b038335116113ac5760208060249261139f368588356064350101611ba4565b8152019301929050610f89565b8980fd5b8880fd5b36601f85011215610880576040516113cb81611b28565b803660808701116108805785905b6080870182106113f6575050815260809390930192602001610f18565b6020809161140384611b7b565b8152019101906113d9565b8780fd5b36601f850112156108805760405161142981611b0d565b803660408701116108805785905b604087018210611454575050815260409390930192602001610eac565b6020809161146184611b7b565b815201910190611437565b8580fd5b8235600681101561093d57815260209283019201610e49565b50346102e457806003193601126102e45760206104f9611e89565b50346102e457806003193601126102e45760206040516000805160206126398339815191528152f35b50346102e45760403660031901126102e4576114e7611ace565b336001600160a01b03821603610cb9576104da90600435612530565b50346102e45760203660031901126102e45761151d611ab8565b61152861020461209d565b6001600160a01b031661153c811515611e2f565b600380546001600160a01b03191691909117905580f35b50346102e45760403660031901126102e4576104da600435611573611ace565b90808452600160205261158c6001604086200154612201565b61234c565b50346102e45760403660031901126102e45760008051602061265983398151915281526001602052604081203360005260205260ff604060002054168015611627575b6115dd90611d3a565b60035481906001600160a01b0316803b1561063f5781809160446040518094819363176f321960e11b8352600435600484015260243560248401525af18015610634576106245750f35b506115dd61163361209d565b90506115d4565b50346102e45760203660031901126102e4576040611656611ab8565b9160008051602061265983398151915281526001602052209060018060a01b0316600052602052602060ff604060002054166040519015158152f35b50346102e45760203660031901126102e457600160406020926004358152828452200154604051908152f35b50346102e457806003193601126102e4576116da61020461209d565b80602060018060a01b0360448160065416916116f7831515611dd3565b60075460405163095ea7b360e01b81529116600482015260001960248201529384928391905af18015610634576109e3575080f35b50346102e45760203660031901126102e457610263611749611ab8565b61175461020461209d565b611e6d565b50346102e45760803660031901126102e457611773611ab8565b5061177c611ace565b506064356001600160401b03808211610dad5736602383011215610dad578160040135908111610dad57369101602401116102e457604051630a85bd0160e11b8152602090f35b50346102e45760203660031901126102e4576117de336120d2565b8015611830575b6117ee90611d3a565b60075481906001600160a01b0316803b1561063f57818091602460405180948193630d727e2b60e01b835260043560048401525af18015610634576106245750f35b506117ee61183c61209d565b90506117e5565b50346102e457806003193601126102e45761185f61020461209d565b80602060018060a01b03604481600554169161187c831515611dd3565b60025460405163095ea7b360e01b81529116600482015260001960248201529384928391905af18015610634576109e3575080f35b50346102e45760403660031901126102e4578060243580151580910361063f576118da336120d2565b801561193d575b6118ea90611d3a565b6003546001600160a01b0316803b15611939576044839260405194859384926302424ed360e01b8452600435600485015260248401525af1801561063457611930575080f35b61026390611ae4565b5050fd5b506118ea61194961209d565b90506118e1565b50346102e45760203660031901126102e45760043563ffffffff60e01b811680910361097157602090637965db0b60e01b8114908115611996575b506040519015158152f35b6301ffc9a760e01b1490508261198b565b50346102e45760403660031901126102e4576119c1611ab8565b9060243560018060a01b0390816002541633148015611aab575b8015611a9e575b8015611a8b575b6119f290611c7f565b6002835414611a795760028355611a0c8285161515611cff565b80611a156120fd565b10611a3657600193611a2a926005541661213b565b55602060405160018152f35b60405162461bcd60e51b815260206004820152601b60248201527a556e7375666669736369656e74205753544f4e2062616c616e636560281b6044820152606490fd5b604051633ee5aeb560e01b8152600490fd5b506119f2611a9761209d565b90506119e9565b50816004541633146119e2565b50816003541633146119db565b600435906001600160a01b038216820361088057565b602435906001600160a01b038216820361088057565b6001600160401b038111611af757604052565b634e487b7160e01b600052604160045260246000fd5b604081019081106001600160401b03821117611af757604052565b608081019081106001600160401b03821117611af757604052565b90601f801991011681019081106001600160401b03821117611af757604052565b6001600160401b038111611af75760051b60200190565b359060ff8216820361088057565b6001600160401b038111611af757601f01601f191660200190565b81601f8201121561088057803590611bbb82611b89565b92611bc96040519485611b43565b8284526020838301011161088057816000926020809301838601378301015290565b90815180825260208080930193019160005b828110611c0b575050505090565b835185529381019392810192600101611bfd565b9080601f83011215610880576020908235611c3981611b64565b93611c476040519586611b43565b81855260208086019260051b82010192831161088057602001905b828210611c70575050505090565b81358152908301908301611c62565b15611c8657565b60405162461bcd60e51b815260206004820152604560248201527f63616c6c6572206973206e656974686572204f776e6572206e6f722047656d4660448201527f6163746f7279206e6f72204d61726b6574506c616365206e6f722052616e646f6064820152646d5061636b60d81b608482015260a490fd5b15611d0657565b60405162461bcd60e51b815260206004820152600c60248201526b61646472657373207a65726f60a01b6044820152606490fd5b15611d4157565b60405162461bcd60e51b81526020600482015260126024820152713737ba1027bbb732b91037b91020b236b4b760711b6044820152606490fd5b15611d8257565b60405162461bcd60e51b8152602060048201526024808201527f41757468436f6e74726f6c3a2043616c6c6572206973206e6f7420746865206f6044820152633bb732b960e11b6064820152608490fd5b15611dda57565b60405162461bcd60e51b81526020600482015260156024820152741ddcdd1bdb881859191c995cdcc81b9bdd081cd95d605a1b6044820152606490fd5b90816020910312610880575180151581036108805790565b15611e3657565b60405162461bcd60e51b815260206004820152600f60248201526e496e76616c6964206164647265737360881b6044820152606490fd5b336001600160a01b03821603610cb957611e86906124ba565b50565b6006546040516370a0823160e01b815230600482015290602090829060249082906001600160a01b03165afa908115611ef657600091611ec7575090565b90506020813d602011611eee575b81611ee260209383611b43565b81010312610880575190565b3d9150611ed5565b6040513d6000823e3d90fd5b15611f0957565b60405162461bcd60e51b815260206004820152602f60248201527f63616c6c6572206973206e656974686572206f776e6572206e6f722072616e6460448201526e1bdb541858dac818dbdb9d1c9858dd608a1b6064820152608490fd5b906006821015611f735752565b634e487b7160e01b600052602160045260246000fd5b91908201809211611f9657565b634e487b7160e01b600052601160045260246000fd5b15611fb357565b60405162461bcd60e51b815260206004820152602660248201527f4e6f7420656e6f756768205753544f4e20617661696c61626c6520696e20547260448201526565617375727960d01b6064820152608490fd5b6000915b6002831061201857505050565b60019060ff8351168152602080910192019201919061200b565b6000915b6004831061204357505050565b60019060ff83511681526020809101920192019190612036565b919082519283825260005b848110612089575050826000602080949584010152601f8019910116010190565b602081830181015184830182015201612068565b3360009081527fa6eef7e35abe7026729641147f7915573c7e97b47efa546f5f6e3230263bcb49602052604090205460ff1690565b6001600160a01b03166000908152600080516020612619833981519152602052604090205460ff1690565b6005546040516370a0823160e01b815230600482015290602090829060249082906001600160a01b03165afa908115611ef657600091611ec7575090565b91600080916121b09360405195602087019263a9059cbb60e01b845260018060a01b03809316602489015260448801526044875261217887611b28565b1694519082865af13d156121f9573d9061219182611b89565b9161219f6040519384611b43565b82523d6000602084013e5b83612595565b80519081151591826121de575b50506121c65750565b60249060405190635274afe760e01b82526004820152fd5b6121f19250602080918301019101611e17565b1538806121bd565b6060906121aa565b80600052600160205260406000203360005260205260ff60406000205416156122275750565b6044906040519063e2517d3f60e01b82523360048301526024820152fd5b6001600160a01b0316600081815260008051602061261983398151915260205260408120549091906000805160206126598339815191529060ff166122bd5780835260016020526040832082845260205260408320600160ff198254161790556000805160206125f9833981519152339380a4600190565b505090565b6001600160a01b031660008181527fe1a43b5771e30cf668ec0dc18c42d6714aff29cbb9ec47bd8eb0b81d4a8bcc1460205260408120549091906000805160206126398339815191529060ff166122bd5780835260016020526040832082845260205260408320600160ff198254161790556000805160206125f9833981519152339380a4600190565b906000918083526001602052604083209160018060a01b03169182845260205260ff604084205416156000146122bd5780835260016020526040832082845260205260408320600160ff198254161790556000805160206125f9833981519152339380a4600190565b6001600160a01b031660008181527fe1a43b5771e30cf668ec0dc18c42d6714aff29cbb9ec47bd8eb0b81d4a8bcc1460205260408120549091906000805160206126398339815191529060ff16156122bd578083526001602052604083208284526020526040832060ff198154169055600080516020612679833981519152339380a4600190565b6001600160a01b031660008181527fa6eef7e35abe7026729641147f7915573c7e97b47efa546f5f6e3230263bcb49602052604081205490919060ff16156124b6578180526001602052604082208183526020526040822060ff19815416905533916000805160206126798339815191528180a4600190565b5090565b6001600160a01b0316600081815260008051602061261983398151915260205260408120549091906000805160206126598339815191529060ff16156122bd578083526001602052604083208284526020526040832060ff198154169055600080516020612679833981519152339380a4600190565b906000918083526001602052604083209160018060a01b03169182845260205260ff6040842054166000146122bd578083526001602052604083208284526020526040832060ff198154169055600080516020612679833981519152339380a4600190565b906125bc57508051156125aa57805190602001fd5b604051630a12f52160e11b8152600490fd5b815115806125ef575b6125cd575090565b604051639996b31560e01b81526001600160a01b039091166004820152602490fd5b50803b156125c556fe2f8788117e7eff1d82e926ec794901d17c78024a50270940304540a733656f0dd52cfefb3f6fd7766669e08a03d2ceb3243383019e3a5fed2a519df30ee55b92fcb9fcbfa83b897fb2d5cf4b58962164105c1e71489a37ef3ae0db3fdce576f6df8b4c520ffe197c5343c6f5aec59570151ef9a492f2c624fd45ddde6135ec42f6391f5c32d9c69d2a47ea670b442974b53935d1edc7fd64eb21e047a839171ba2646970667358221220e6a2d444b2f6b3e562019f27977225150d65a79ce85f107ac5dfa6d6710ea95364736f6c63430008190033",
  "linkReferences": {},
  "deployedLinkReferences": {}
}