{
  "_format": "hh-sol-artifact-1",
  "contractName": "Treasury",
  "sourceName": "src/L2/Treasury.sol",
  "abi": [
    {
      "inputs": [
        {
          "internalType": "address",
          "name": "_wston",
          "type": "address"
        },
        {
          "internalType": "address",
          "name": "_ton",
          "type": "address"
        },
        {
          "internalType": "address",
          "name": "_gemFactory",
          "type": "address"
        }
      ],
      "stateMutability": "nonpayable",
      "type": "constructor"
    },
    {
      "inputs": [],
      "name": "AccessControlBadConfirmation",
      "type": "error"
    },
    {
      "inputs": [
        {
          "internalType": "address",
          "name": "account",
          "type": "address"
        },
        {
          "internalType": "bytes32",
          "name": "neededRole",
          "type": "bytes32"
        }
      ],
      "name": "AccessControlUnauthorizedAccount",
      "type": "error"
    },
    {
      "inputs": [
        {
          "internalType": "address",
          "name": "target",
          "type": "address"
        }
      ],
      "name": "AddressEmptyCode",
      "type": "error"
    },
    {
      "inputs": [
        {
          "internalType": "address",
          "name": "account",
          "type": "address"
        }
      ],
      "name": "AddressInsufficientBalance",
      "type": "error"
    },
    {
      "inputs": [],
      "name": "FailedInnerCall",
      "type": "error"
    },
    {
      "inputs": [],
      "name": "ReentrancyGuardReentrantCall",
      "type": "error"
    },
    {
      "inputs": [
        {
          "internalType": "address",
          "name": "token",
          "type": "address"
        }
      ],
      "name": "SafeERC20FailedOperation",
      "type": "error"
    },
    {
      "anonymous": false,
      "inputs": [
        {
          "indexed": true,
          "internalType": "bytes32",
          "name": "role",
          "type": "bytes32"
        },
        {
          "indexed": true,
          "internalType": "bytes32",
          "name": "previousAdminRole",
          "type": "bytes32"
        },
        {
          "indexed": true,
          "internalType": "bytes32",
          "name": "newAdminRole",
          "type": "bytes32"
        }
      ],
      "name": "RoleAdminChanged",
      "type": "event"
    },
    {
      "anonymous": false,
      "inputs": [
        {
          "indexed": true,
          "internalType": "bytes32",
          "name": "role",
          "type": "bytes32"
        },
        {
          "indexed": true,
          "internalType": "address",
          "name": "account",
          "type": "address"
        },
        {
          "indexed": true,
          "internalType": "address",
          "name": "sender",
          "type": "address"
        }
      ],
      "name": "RoleGranted",
      "type": "event"
    },
    {
      "anonymous": false,
      "inputs": [
        {
          "indexed": true,
          "internalType": "bytes32",
          "name": "role",
          "type": "bytes32"
        },
        {
          "indexed": true,
          "internalType": "address",
          "name": "account",
          "type": "address"
        },
        {
          "indexed": true,
          "internalType": "address",
          "name": "sender",
          "type": "address"
        }
      ],
      "name": "RoleRevoked",
      "type": "event"
    },
    {
      "inputs": [],
      "name": "ADMIN_ROLE",
      "outputs": [
        {
          "internalType": "bytes32",
          "name": "",
          "type": "bytes32"
        }
      ],
      "stateMutability": "view",
      "type": "function"
    },
    {
      "inputs": [],
      "name": "DEFAULT_ADMIN_ROLE",
      "outputs": [
        {
          "internalType": "bytes32",
          "name": "",
          "type": "bytes32"
        }
      ],
      "stateMutability": "view",
      "type": "function"
    },
    {
      "inputs": [],
      "name": "PAUSE_ROLE",
      "outputs": [
        {
          "internalType": "bytes32",
          "name": "",
          "type": "bytes32"
        }
      ],
      "stateMutability": "view",
      "type": "function"
    },
    {
      "inputs": [
        {
          "internalType": "address",
          "name": "account",
          "type": "address"
        }
      ],
      "name": "addAdmin",
      "outputs": [],
      "stateMutability": "nonpayable",
      "type": "function"
    },
    {
      "inputs": [
        {
          "internalType": "address",
          "name": "account",
          "type": "address"
        }
      ],
      "name": "addPauser",
      "outputs": [],
      "stateMutability": "nonpayable",
      "type": "function"
    },
    {
      "inputs": [
        {
          "internalType": "address",
          "name": "operator",
          "type": "address"
        },
        {
          "internalType": "uint256",
          "name": "_tokenId",
          "type": "uint256"
        }
      ],
      "name": "approveGem",
      "outputs": [],
      "stateMutability": "nonpayable",
      "type": "function"
    },
    {
      "inputs": [],
      "name": "approveGemFactory",
      "outputs": [],
      "stateMutability": "nonpayable",
      "type": "function"
    },
    {
      "inputs": [
        {
          "internalType": "uint256",
          "name": "amount",
          "type": "uint256"
        }
      ],
      "name": "approveWstonForMarketplace",
      "outputs": [],
      "stateMutability": "nonpayable",
      "type": "function"
    },
    {
      "inputs": [
        {
          "internalType": "uint256",
          "name": "_tokenId",
          "type": "uint256"
        },
        {
          "internalType": "bool",
          "name": "_paymentMethod",
          "type": "bool"
        }
      ],
      "name": "buyGem",
      "outputs": [],
      "stateMutability": "nonpayable",
      "type": "function"
    },
    {
      "inputs": [
        {
          "internalType": "enum GemFactoryStorage.Rarity",
          "name": "_rarity",
          "type": "uint8"
        },
        {
          "internalType": "uint8[2]",
          "name": "_color",
          "type": "uint8[2]"
        },
        {
          "internalType": "uint8[4]",
          "name": "_quadrants",
          "type": "uint8[4]"
        },
        {
          "internalType": "string",
          "name": "_tokenURI",
          "type": "string"
        }
      ],
      "name": "createPreminedGEM",
      "outputs": [
        {
          "internalType": "uint256",
          "name": "",
          "type": "uint256"
        }
      ],
      "stateMutability": "nonpayable",
      "type": "function"
    },
    {
      "inputs": [
        {
          "internalType": "enum GemFactoryStorage.Rarity[]",
          "name": "_rarities",
          "type": "uint8[]"
        },
        {
          "internalType": "uint8[2][]",
          "name": "_colors",
          "type": "uint8[2][]"
        },
        {
          "internalType": "uint8[4][]",
          "name": "_quadrants",
          "type": "uint8[4][]"
        },
        {
          "internalType": "string[]",
          "name": "_tokenURIs",
          "type": "string[]"
        }
      ],
      "name": "createPreminedGEMPool",
      "outputs": [
        {
          "internalType": "uint256[]",
          "name": "",
          "type": "uint256[]"
        }
      ],
      "stateMutability": "nonpayable",
      "type": "function"
    },
    {
      "inputs": [],
      "name": "getGemFactoryAddress",
      "outputs": [
        {
          "internalType": "address",
          "name": "",
          "type": "address"
        }
      ],
      "stateMutability": "view",
      "type": "function"
    },
    {
      "inputs": [],
      "name": "getRandomPackAddress",
      "outputs": [
        {
          "internalType": "address",
          "name": "",
          "type": "address"
        }
      ],
      "stateMutability": "view",
      "type": "function"
    },
    {
      "inputs": [
        {
          "internalType": "bytes32",
          "name": "role",
          "type": "bytes32"
        }
      ],
      "name": "getRoleAdmin",
      "outputs": [
        {
          "internalType": "bytes32",
          "name": "",
          "type": "bytes32"
        }
      ],
      "stateMutability": "view",
      "type": "function"
    },
    {
      "inputs": [],
      "name": "getTONBalance",
      "outputs": [
        {
          "internalType": "uint256",
          "name": "",
          "type": "uint256"
        }
      ],
      "stateMutability": "view",
      "type": "function"
    },
    {
      "inputs": [],
      "name": "getWSTONBalance",
      "outputs": [
        {
          "internalType": "uint256",
          "name": "",
          "type": "uint256"
        }
      ],
      "stateMutability": "view",
      "type": "function"
    },
    {
      "inputs": [
        {
          "internalType": "bytes32",
          "name": "role",
          "type": "bytes32"
        },
        {
          "internalType": "address",
          "name": "account",
          "type": "address"
        }
      ],
      "name": "grantRole",
      "outputs": [],
      "stateMutability": "nonpayable",
      "type": "function"
    },
    {
      "inputs": [
        {
          "internalType": "bytes32",
          "name": "role",
          "type": "bytes32"
        },
        {
          "internalType": "address",
          "name": "account",
          "type": "address"
        }
      ],
      "name": "hasRole",
      "outputs": [
        {
          "internalType": "bool",
          "name": "",
          "type": "bool"
        }
      ],
      "stateMutability": "view",
      "type": "function"
    },
    {
      "inputs": [
        {
          "internalType": "address",
          "name": "account",
          "type": "address"
        }
      ],
      "name": "isAdmin",
      "outputs": [
        {
          "internalType": "bool",
          "name": "",
          "type": "bool"
        }
      ],
      "stateMutability": "view",
      "type": "function"
    },
    {
      "inputs": [],
      "name": "isOwner",
      "outputs": [
        {
          "internalType": "bool",
          "name": "",
          "type": "bool"
        }
      ],
      "stateMutability": "view",
      "type": "function"
    },
    {
      "inputs": [
        {
          "internalType": "address",
          "name": "",
          "type": "address"
        },
        {
          "internalType": "address",
          "name": "",
          "type": "address"
        },
        {
          "internalType": "uint256",
          "name": "",
          "type": "uint256"
        },
        {
          "internalType": "bytes",
          "name": "",
          "type": "bytes"
        }
      ],
      "name": "onERC721Received",
      "outputs": [
        {
          "internalType": "bytes4",
          "name": "",
          "type": "bytes4"
        }
      ],
      "stateMutability": "pure",
      "type": "function"
    },
    {
      "inputs": [
        {
          "internalType": "uint256",
          "name": "_tokenId",
          "type": "uint256"
        },
        {
          "internalType": "uint256",
          "name": "_price",
          "type": "uint256"
        }
      ],
      "name": "putGemForSale",
      "outputs": [],
      "stateMutability": "nonpayable",
      "type": "function"
    },
    {
      "inputs": [
        {
          "internalType": "uint256[]",
          "name": "tokenIds",
          "type": "uint256[]"
        },
        {
          "internalType": "uint256[]",
          "name": "prices",
          "type": "uint256[]"
        }
      ],
      "name": "putGemListForSale",
      "outputs": [],
      "stateMutability": "nonpayable",
      "type": "function"
    },
    {
      "inputs": [
        {
          "internalType": "address",
          "name": "account",
          "type": "address"
        }
      ],
      "name": "removeAdmin",
      "outputs": [],
      "stateMutability": "nonpayable",
      "type": "function"
    },
    {
      "inputs": [
        {
          "internalType": "uint256",
          "name": "_tokenId",
          "type": "uint256"
        }
      ],
      "name": "removeGemFromSale",
      "outputs": [],
      "stateMutability": "nonpayable",
      "type": "function"
    },
    {
      "inputs": [
        {
          "internalType": "address",
          "name": "account",
          "type": "address"
        }
      ],
      "name": "removePauser",
      "outputs": [],
      "stateMutability": "nonpayable",
      "type": "function"
    },
    {
      "inputs": [],
      "name": "renounceOwnership",
      "outputs": [],
      "stateMutability": "nonpayable",
      "type": "function"
    },
    {
      "inputs": [
        {
          "internalType": "bytes32",
          "name": "role",
          "type": "bytes32"
        },
        {
          "internalType": "address",
          "name": "callerConfirmation",
          "type": "address"
        }
      ],
      "name": "renounceRole",
      "outputs": [],
      "stateMutability": "nonpayable",
      "type": "function"
    },
    {
      "inputs": [
        {
          "internalType": "bytes32",
          "name": "role",
          "type": "bytes32"
        },
        {
          "internalType": "address",
          "name": "account",
          "type": "address"
        }
      ],
      "name": "revokeRole",
      "outputs": [],
      "stateMutability": "nonpayable",
      "type": "function"
    },
    {
      "inputs": [
        {
          "internalType": "address",
          "name": "_gemFactory",
          "type": "address"
        }
      ],
      "name": "setGemFactory",
      "outputs": [],
      "stateMutability": "nonpayable",
      "type": "function"
    },
    {
      "inputs": [
        {
          "internalType": "address",
          "name": "marketplace",
          "type": "address"
        }
      ],
      "name": "setMarketPlace",
      "outputs": [],
      "stateMutability": "nonpayable",
      "type": "function"
    },
    {
      "inputs": [
        {
          "internalType": "address",
          "name": "_randomPack",
          "type": "address"
        }
      ],
      "name": "setRandomPack",
      "outputs": [],
      "stateMutability": "nonpayable",
      "type": "function"
    },
    {
      "inputs": [
        {
          "internalType": "address",
          "name": "_wstonSwapPool",
          "type": "address"
        }
      ],
      "name": "setWstonSwapPool",
      "outputs": [],
      "stateMutability": "nonpayable",
      "type": "function"
    },
    {
      "inputs": [
        {
          "internalType": "bytes4",
          "name": "interfaceId",
          "type": "bytes4"
        }
      ],
      "name": "supportsInterface",
      "outputs": [
        {
          "internalType": "bool",
          "name": "",
          "type": "bool"
        }
      ],
      "stateMutability": "view",
      "type": "function"
    },
    {
      "inputs": [
        {
          "internalType": "uint256",
          "name": "tonAmount",
          "type": "uint256"
        }
      ],
      "name": "swapTONforWSTON",
      "outputs": [],
      "stateMutability": "nonpayable",
      "type": "function"
    },
    {
      "inputs": [],
      "name": "tonApproveMarketPlace",
      "outputs": [],
      "stateMutability": "nonpayable",
      "type": "function"
    },
    {
      "inputs": [],
      "name": "tonApproveWstonSwapPool",
      "outputs": [],
      "stateMutability": "nonpayable",
      "type": "function"
    },
    {
      "inputs": [
        {
          "internalType": "address",
          "name": "newAdmin",
          "type": "address"
        }
      ],
      "name": "transferAdmin",
      "outputs": [],
      "stateMutability": "nonpayable",
      "type": "function"
    },
    {
      "inputs": [
        {
          "internalType": "address",
          "name": "newAdmin",
          "type": "address"
        }
      ],
      "name": "transferOwnership",
      "outputs": [],
      "stateMutability": "nonpayable",
      "type": "function"
    },
    {
      "inputs": [
        {
          "internalType": "address",
          "name": "_to",
          "type": "address"
        },
        {
          "internalType": "uint256",
          "name": "_amount",
          "type": "uint256"
        }
      ],
      "name": "transferTON",
      "outputs": [
        {
          "internalType": "bool",
          "name": "",
          "type": "bool"
        }
      ],
      "stateMutability": "nonpayable",
      "type": "function"
    },
    {
      "inputs": [
        {
          "internalType": "address",
          "name": "_to",
          "type": "address"
        },
        {
          "internalType": "uint256",
          "name": "_tokenId",
          "type": "uint256"
        }
      ],
      "name": "transferTreasuryGEMto",
      "outputs": [
        {
          "internalType": "bool",
          "name": "",
          "type": "bool"
        }
      ],
      "stateMutability": "nonpayable",
      "type": "function"
    },
    {
      "inputs": [
        {
          "internalType": "address",
          "name": "_to",
          "type": "address"
        },
        {
          "internalType": "uint256",
          "name": "_amount",
          "type": "uint256"
        }
      ],
      "name": "transferWSTON",
      "outputs": [
        {
          "internalType": "bool",
          "name": "",
          "type": "bool"
        }
      ],
      "stateMutability": "nonpayable",
      "type": "function"
    },
    {
      "inputs": [],
      "name": "wstonApproveMarketPlace",
      "outputs": [],
      "stateMutability": "nonpayable",
      "type": "function"
    }
  ],
  "bytecode": "0x6080346100bc57601f612a0c38819003918201601f19168301916001600160401b038311848410176100c1578084926060946040528339810103126100bc57610047816100d7565b61005f6040610058602085016100d7565b93016100d7565b60016000556007805460ff60a01b191690559161007b336100eb565b5060018060a01b0380928160018060a01b03199516856002541617600255168360055416176005551690600654161760065560405161288f908161017d8239f35b600080fd5b634e487b7160e01b600052604160045260246000fd5b51906001600160a01b03821682036100bc57565b6001600160a01b031660008181527fa6eef7e35abe7026729641147f7915573c7e97b47efa546f5f6e3230263bcb49602052604081205490919060ff166101785781805260016020526040822081835260205260408220600160ff1982541617905533917f2f8788117e7eff1d82e926ec794901d17c78024a50270940304540a733656f0d8180a4600190565b509056fe6080604052600436101561001257600080fd5b6000803560e01c80630169dc3114611b4857806301ffc9a714611af157806302424ed314611a5657806307db4470146119e85780630d727e2b14611968578063150b7a02146118fe5780631785f53c146118d157806320e641b714611863578063248a9ca31461183757806324d7806c146117df5780632ede6432146116c95780632f2ff15d1461168b57806330568a8d1461163b57806336568abe14611605578063389ed267146115dc5780633b22f110146115c157806340e5854814611505578063425c7fc214610e5a57806348dbcef014610d80578063520aefae14610d475780636b2c0f5514610cf75780636fcf2fc914610c915780637048027514610c43578063715018a614610c1e57806375829def14610c0457806375b238fc14610bdb57806379dbd79814610adb57806382dc1ec414610a465780638f32d59b14610a2157806391005b081461098b578063912b431b146106b757806391d148541461066b57806398d111b2146105ac5780639d541be214610583578063a217fddf14610567578063b23a1d0d14610517578063bae77ac9146104f4578063d547741f146104b2578063e61475181461045e578063ec23919a14610435578063ec7ae61d1461034d578063ed8c2472146102fd5763f2fde38b146101f657600080fd5b346102fa5760203660031901126102fa5761020f611c59565b61021f61021a612259565b611f1c565b61022a61021a612259565b6001600160a01b03811680156102ba57331461027c5761026f9060008051602061281a8339815191528352600160205261026a60016040852001546123c2565b612406565b5061027933612029565b80f35b60405162461bcd60e51b815260206004820152601660248201527520b1b1b2b9b9b4b136329d1039b0b6b29030b236b4b760511b6044820152606490fd5b60405162461bcd60e51b815260206004820152601860248201527741636365737369626c653a207a65726f206164647265737360401b6044820152606490fd5b80fd5b50346102fa5760203660031901126102fa57610317611c59565b61032261021a612259565b6001600160a01b0316610336811515611feb565b600480546001600160a01b03191691909117905580f35b50346102fa5760403660031901126102fa57610367611c59565b9060406024359160008051602061281a83398151915281526001602052203360005260205260ff604060002054168015610422575b6103a590611edb565b6001600160a01b03916103bb8184161515611ea0565b816103c4612045565b106103e1576103d692600654166122f7565b602060405160018152f35b60405162461bcd60e51b8152602060048201526019602482015278556e7375666669736369656e7420544f4e2062616c616e636560381b6044820152606490fd5b506103a561042e612259565b905061039c565b50346102fa57806003193601126102fa576004546040516001600160a01b039091168152602090f35b50346102fa5760203660031901126102fa57610478611c59565b61048361021a612259565b600254906001600160a01b039061049d8284161515611feb565b6001600160a01b031990921691161760025580f35b50346102fa5760403660031901126102fa576104f06004356104d2611c6f565b9080845260016020526104eb60016040862001546123c2565b6126f1565b5080f35b50346102fa57806003193601126102fa57602061050f6122b9565b604051908152f35b50346102fa5760203660031901126102fa57610531611c59565b61053c61021a612259565b6001600160a01b0316610550811515611feb565b600780546001600160a01b03191691909117905580f35b50346102fa57806003193601126102fa57602090604051908152f35b50346102fa57806003193601126102fa576002546040516001600160a01b039091168152602090f35b50346102fa5760203660031901126102fa5760008051602061281a83398151915281526001602052604081203360005260205260ff604060002054168015610658575b6105f890611edb565b60035481906001600160a01b0316803b15610655578180916024604051809481936356d6b49360e11b835260043560048401525af1801561064a5761063a5750f35b61064390611c85565b6102fa5780f35b6040513d84823e3d90fd5b50fd5b506105f8610664612259565b90506105ef565b50346102fa5760403660031901126102fa576040610687611c6f565b9160043581526001602052209060018060a01b0316600052602052602060ff604060002054166040519015158152f35b50346102fa5761010090816003193601126102fa57600435916006831015610987573660431215610896576040516106ee81611cae565b606481368211610896576024905b82821061096f5750505036608312156108965760405161071b81611cc9565b60e481368211610896576064905b8282106109575750505060e4356001600160401b03811161095357610752903690600401611d45565b6004546001600160a01b03969190871633148015610946575b8015610933575b61077b906120be565b6107836122b9565b96600254169260405197630265f21b60e51b89526020988981600481895afa9081156109285789916108fb575b50604051630b513d9960e01b8152906107cc6004830187612122565b8a826024818a5afa9182156108f057918a9593918c999897959387926108ae575b50610856936108146108329897969461080d61083c9e9561084695612145565b1115612168565b60405163975781b760e01b81529b8c9a8b998a9860048a0190612122565b60248801906121c3565b60648601906121ee565b60e4840152610104830190612219565b03925af19182156108a25791610870575b50604051908152f35b90508181813d831161089b575b6108878183611ce4565b81010312610896575138610867565b600080fd5b503d61087d565b604051903d90823e3d90fd5b998a919695939497508092503d83116108e9575b6108cc8183611ce4565b810103126108965796518a978a95939490939291906108566107ed565b503d6108c2565b6040513d8c823e3d90fd5b90508981813d8311610921575b6109128183611ce4565b810103126108965751386107b0565b503d610908565b6040513d8b823e3d90fd5b5061077b61093f612259565b9050610772565b508660035416331461076b565b8480fd5b6020809161096484611d1c565b815201910190610729565b6020809161097c84611d1c565b8152019101906106fc565b5080fd5b50346102fa57806003193601126102fa576109a761021a612259565b80602060018060a01b0360448160055416916109c4831515611f74565b60035460405163095ea7b360e01b81529116600482015260001960248201529384928391905af1801561064a576109f9575080f35b6104f09060203d602011610a1a575b610a128183611ce4565b810190611fb8565b503d610a08565b50346102fa57806003193601126102fa576020610a3c612259565b6040519015158152f35b50346102fa5760203660031901126102fa576104f0610a63611c59565b60008051602061281a83398151915283526001602052604083203360005260205260ff604060002054168015610ac8575b610a9d90611edb565b6000805160206127fa83398151915283526001602052610ac360016040852001546123c2565b612483565b50610a9d610ad4612259565b9050610a94565b50346102fa5780600319604036820112610655576001600160401b03600435818111610bd657610b0f903690600401611dc0565b90602435908111610bd657610b28903690600401611dc0565b60008051602061281a83398151915284526001602052604084203360005260205260ff604060002054168015610bc3575b610b6290611edb565b6003546001600160a01b0316803b1561095357610ba3858094610bb260405197889687958694630f3b7af360e31b8652604060048701526044860190611d8c565b91848303016024850152611d8c565b03925af1801561064a5761063a5750f35b50610b62610bcf612259565b9050610b59565b505050fd5b50346102fa57806003193601126102fa57602060405160008051602061281a8339815191528152f35b50346102fa5760203660031901126102fa5761021f611c59565b50346102fa57806003193601126102fa57610c3a61021a612259565b6104f0336125fe565b50346102fa5760203660031901126102fa576104f0610c60611c59565b610c6b61021a612259565b60008051602061281a8339815191528352600160205261026a60016040852001546123c2565b50346102fa5760403660031901126102fa5780610cac611c59565b610cb761021a612259565b6002546001600160a01b0316803b15610cf35760405163095ea7b360e01b81529183918391829084908290610bb2906024359060048401611fd0565b5050fd5b50346102fa5760203660031901126102fa57610d11611c59565b610d1c61021a612259565b336001600160a01b03821603610d35576104f090612576565b60405163334bd91960e11b8152600490fd5b50346102fa57806003193601126102fa57610d6361021a612259565b80602060018060a01b0360448160065416916109c4831515611f74565b50346102fa5760403660031901126102fa57610d9a611c59565b6002546001600160a01b03908116918391903384148015610e4d575b8015610e40575b8015610e2d575b610dcd90611e20565b833b15610e29576064908360405195869485936323b872dd60e01b855230600486015216602484015260243560448401525af1801561064a57610e1557602060405160018152f35b610e1f8291611c85565b6102fa57806103d6565b8280fd5b50610dcd610e39612259565b9050610dc4565b5081600454163314610dbd565b5081600354163314610db6565b50346102fa5760803660031901126102fa57600435906001600160401b0382116102fa57366023830112156102fa57816004013590610e9882611d05565b92610ea66040519485611ce4565b82845260208401906024829460051b820101903682116112c357602401915b8183106114ec57505050602435926001600160401b038411610987573660238501121561098757836004013590610efb82611d05565b91610f096040519384611ce4565b808352602083019081963660248360061b830101116114e85760248101925b60248360061b830101841061148e5750505050604435946001600160401b0386116112c357366023870112156112c357856004013595610f6787611d05565b96610f756040519889611ce4565b808852602088019081923660248360071b8301011161148a5760248101925b60248360071b830101841061143057505050506001600160401b036064351161095357366023606435011215610953576064356004013591610fd583611d05565b90610fe36040519283611ce4565b8382526020820180943660248260051b60643501011161142c57602460643501915b60248260051b606435010183106113f55750505060018060a01b0360045416331480156113e1575b80156113ce575b61104190999698996120be565b600254969889976001600160a01b03169690885b87518c101561110b5760208c60051b8901015160068110156110f757604051630b513d9960e01b81529061108d906004830190612122565b6020816024818d5afa9081156110ec578b916110b9575b506110b190600192612145565b9b019a611055565b90506020813d6020116110e4575b816110d460209383611ce4565b81010312610896575160016110a4565b3d91506110c7565b6040513d8d823e3d90fd5b634e487b7160e01b8b52602160045260248bfd5b8a909897986111186122b9565b604051630265f21b60e51b81526020816004818e5afa9081156113c3578d9161138f575b509061080d8d9b99979593611156939d9b9997959d612145565b604051630ff1ac6760e01b81526080600482015297516084890181905297998a9860a48a0192908b5b81811061135a575050506020906003198a84030160248b01525191828152019290895b818110611328575050506020906003198884030160448901525191828152019290875b8181106112fa5750505060031985830301606486015251808252602082019160208260051b820101939287915b8383106112c75750505050508383809203925af190811561064a57829161122e575b6040516020808252819061122a90820185611d8c565b0390f35b90503d8083833e61123f8183611ce4565b810190602081830312610e29578051906001600160401b0382116112c3570181601f82011215610e295780519061127582611d05565b936112836040519586611ce4565b82855260208086019360051b8301019384116102fa5750602001905b8282106112b35750505061122a9082611214565b815181526020918201910161129f565b8380fd5b92959750929550926020806112e8600193601f198682030187528951612219565b970193019301879593899795926111f2565b929496509281959750608081611315602093600195516121ee565b01950191019088969492889694926111c5565b9294969850928195979950604081611345602093600195516121c3565b0195019101908a989694928a989694926111a2565b929496989a5092819597999b50602081611378829360019551612122565b0195019101908c9a989694928c9a9896949261117f565b90506020813d6020116113bb575b816113aa60209383611ce4565b81010312610896575161115661113c565b3d915061139d565b6040513d8f823e3d90fd5b506110416113da612259565b9050611034565b506003546001600160a01b0316331461102d565b6001600160401b038335116114285760208060249261141b368588356064350101611d45565b8152019301929050611005565b8980fd5b8880fd5b36601f850112156108965760405161144781611cc9565b803660808701116108965785905b608087018210611472575050815260809390930192602001610f94565b6020809161147f84611d1c565b815201910190611455565b8780fd5b36601f85011215610896576040516114a581611cae565b803660408701116108965785905b6040870182106114d0575050815260409390930192602001610f28565b602080916114dd84611d1c565b8152019101906114b3565b8580fd5b8235600681101561095357815260209283019201610ec5565b50346102fa5760203660031901126102fa576003546001600160a01b039081163381900361156c5761155a6020918493600554169060405194858094819363095ea7b360e01b83526004359060048401611fd0565b03925af1801561064a576109f9575080f35b60405162461bcd60e51b815260206004820152602760248201527f63616c6c657220697320206e6f7420746865206d61726b6574706c61636520636044820152661bdb9d1c9858dd60ca1b6064820152608490fd5b50346102fa57806003193601126102fa57602061050f612045565b50346102fa57806003193601126102fa5760206040516000805160206127fa8339815191528152f35b50346102fa5760403660031901126102fa5761161f611c6f565b336001600160a01b03821603610d35576104f0906004356126f1565b50346102fa5760203660031901126102fa57611655611c59565b61166061021a612259565b6001600160a01b0316611674811515611feb565b600380546001600160a01b03191691909117905580f35b50346102fa5760403660031901126102fa576104f06004356116ab611c6f565b9080845260016020526116c460016040862001546123c2565b61250d565b50346102fa5760403660031901126102fa578060043560008051602061281a83398151915282526001602052604082203360005260205260ff6040600020541680156117cc575b61171990611edb565b6002546003546001600160a01b0391908216908216803b1561095357838591611759938360405180968195829463095ea7b360e01b845260048401611fd0565b03925af19081156117c15784916117ad575b50506003541690813b15610cf357829160448392604051948593849263176f321960e11b8452600484015260243560248401525af1801561064a5761063a5750f35b6117b690611c85565b610cf357823861176b565b6040513d86823e3d90fd5b506117196117d8612259565b9050611710565b50346102fa5760203660031901126102fa5760406117fb611c59565b9160008051602061281a83398151915281526001602052209060018060a01b0316600052602052602060ff604060002054166040519015158152f35b50346102fa5760203660031901126102fa57600160406020926004358152828452200154604051908152f35b50346102fa57806003193601126102fa5761187f61021a612259565b80602060018060a01b03604481600654169161189c831515611f74565b60075460405163095ea7b360e01b81529116600482015260001960248201529384928391905af1801561064a576109f9575080f35b50346102fa5760203660031901126102fa576102796118ee611c59565b6118f961021a612259565b612029565b50346102fa5760803660031901126102fa57611918611c59565b50611921611c6f565b506064356001600160401b03808211610e295736602383011215610e29578160040135908111610e2957369101602401116102fa57604051630a85bd0160e11b8152602090f35b50346102fa5760203660031901126102fa576119833361228e565b80156119d5575b61199390611edb565b60075481906001600160a01b0316803b1561065557818091602460405180948193630d727e2b60e01b835260043560048401525af1801561064a5761063a5750f35b506119936119e1612259565b905061198a565b50346102fa57806003193601126102fa57611a0461021a612259565b80602060018060a01b036044816005541691611a21831515611f74565b60025460405163095ea7b360e01b81529116600482015260001960248201529384928391905af1801561064a576109f9575080f35b50346102fa5760403660031901126102fa578060243580151580910361065557611a7f3361228e565b8015611ade575b611a8f90611edb565b6003546001600160a01b0316803b15610cf3576044839260405194859384926302424ed360e01b8452600435600485015260248401525af1801561064a57611ad5575080f35b61027990611c85565b50611a8f611aea612259565b9050611a86565b50346102fa5760203660031901126102fa5760043563ffffffff60e01b811680910361098757602090637965db0b60e01b8114908115611b37575b506040519015158152f35b6301ffc9a760e01b14905082611b2c565b50346102fa5760403660031901126102fa57611b62611c59565b9060243560018060a01b0390816002541633148015611c4c575b8015611c3f575b8015611c2c575b611b9390611e20565b6002835414611c1a5760028355611bad8285161515611ea0565b80611bb66122b9565b10611bd757600193611bcb92600554166122f7565b55602060405160018152f35b60405162461bcd60e51b815260206004820152601b60248201527a556e7375666669736369656e74205753544f4e2062616c616e636560281b6044820152606490fd5b604051633ee5aeb560e01b8152600490fd5b50611b93611c38612259565b9050611b8a565b5081600454163314611b83565b5081600354163314611b7c565b600435906001600160a01b038216820361089657565b602435906001600160a01b038216820361089657565b6001600160401b038111611c9857604052565b634e487b7160e01b600052604160045260246000fd5b604081019081106001600160401b03821117611c9857604052565b608081019081106001600160401b03821117611c9857604052565b90601f801991011681019081106001600160401b03821117611c9857604052565b6001600160401b038111611c985760051b60200190565b359060ff8216820361089657565b6001600160401b038111611c9857601f01601f191660200190565b81601f8201121561089657803590611d5c82611d2a565b92611d6a6040519485611ce4565b8284526020838301011161089657816000926020809301838601378301015290565b90815180825260208080930193019160005b828110611dac575050505090565b835185529381019392810192600101611d9e565b9080601f83011215610896576020908235611dda81611d05565b93611de86040519586611ce4565b81855260208086019260051b82010192831161089657602001905b828210611e11575050505090565b81358152908301908301611e03565b15611e2757565b60405162461bcd60e51b815260206004820152604560248201527f63616c6c6572206973206e656974686572204f776e6572206e6f722047656d4660448201527f6163746f7279206e6f72204d61726b6574506c616365206e6f722052616e646f6064820152646d5061636b60d81b608482015260a490fd5b15611ea757565b60405162461bcd60e51b815260206004820152600c60248201526b61646472657373207a65726f60a01b6044820152606490fd5b15611ee257565b60405162461bcd60e51b81526020600482015260126024820152713737ba1027bbb732b91037b91020b236b4b760711b6044820152606490fd5b15611f2357565b60405162461bcd60e51b8152602060048201526024808201527f41757468436f6e74726f6c3a2043616c6c6572206973206e6f7420746865206f6044820152633bb732b960e11b6064820152608490fd5b15611f7b57565b60405162461bcd60e51b81526020600482015260156024820152741ddcdd1bdb881859191c995cdcc81b9bdd081cd95d605a1b6044820152606490fd5b90816020910312610896575180151581036108965790565b6001600160a01b039091168152602081019190915260400190565b15611ff257565b60405162461bcd60e51b815260206004820152600f60248201526e496e76616c6964206164647265737360881b6044820152606490fd5b336001600160a01b03821603610d35576120429061267b565b50565b6006546040516370a0823160e01b815230600482015290602090829060249082906001600160a01b03165afa9081156120b257600091612083575090565b90506020813d6020116120aa575b8161209e60209383611ce4565b81010312610896575190565b3d9150612091565b6040513d6000823e3d90fd5b156120c557565b60405162461bcd60e51b815260206004820152602f60248201527f63616c6c6572206973206e656974686572206f776e6572206e6f722072616e6460448201526e1bdb541858dac818dbdb9d1c9858dd608a1b6064820152608490fd5b90600682101561212f5752565b634e487b7160e01b600052602160045260246000fd5b9190820180921161215257565b634e487b7160e01b600052601160045260246000fd5b1561216f57565b60405162461bcd60e51b815260206004820152602660248201527f4e6f7420656e6f756768205753544f4e20617661696c61626c6520696e20547260448201526565617375727960d01b6064820152608490fd5b6000915b600283106121d457505050565b60019060ff835116815260208091019201920191906121c7565b6000915b600483106121ff57505050565b60019060ff835116815260208091019201920191906121f2565b919082519283825260005b848110612245575050826000602080949584010152601f8019910116010190565b602081830181015184830182015201612224565b3360009081527fa6eef7e35abe7026729641147f7915573c7e97b47efa546f5f6e3230263bcb49602052604090205460ff1690565b6001600160a01b031660009081526000805160206127da833981519152602052604090205460ff1690565b6005546040516370a0823160e01b815230600482015290602090829060249082906001600160a01b03165afa9081156120b257600091612083575090565b600061237192819261233261232496604051978891602083019563a9059cbb60e01b875260248401611fd0565b03601f198101885287611ce4565b60018060a01b031694519082865af13d156123ba573d9061235282611d2a565b916123606040519384611ce4565b82523d6000602084013e5b83612756565b805190811515918261239f575b50506123875750565b60249060405190635274afe760e01b82526004820152fd5b6123b29250602080918301019101611fb8565b15388061237e565b60609061236b565b80600052600160205260406000203360005260205260ff60406000205416156123e85750565b6044906040519063e2517d3f60e01b82523360048301526024820152fd5b6001600160a01b031660008181526000805160206127da833981519152602052604081205490919060008051602061281a8339815191529060ff1661247e5780835260016020526040832082845260205260408320600160ff198254161790556000805160206127ba833981519152339380a4600190565b505090565b6001600160a01b031660008181527fe1a43b5771e30cf668ec0dc18c42d6714aff29cbb9ec47bd8eb0b81d4a8bcc1460205260408120549091906000805160206127fa8339815191529060ff1661247e5780835260016020526040832082845260205260408320600160ff198254161790556000805160206127ba833981519152339380a4600190565b906000918083526001602052604083209160018060a01b03169182845260205260ff6040842054161560001461247e5780835260016020526040832082845260205260408320600160ff198254161790556000805160206127ba833981519152339380a4600190565b6001600160a01b031660008181527fe1a43b5771e30cf668ec0dc18c42d6714aff29cbb9ec47bd8eb0b81d4a8bcc1460205260408120549091906000805160206127fa8339815191529060ff161561247e578083526001602052604083208284526020526040832060ff19815416905560008051602061283a833981519152339380a4600190565b6001600160a01b031660008181527fa6eef7e35abe7026729641147f7915573c7e97b47efa546f5f6e3230263bcb49602052604081205490919060ff1615612677578180526001602052604082208183526020526040822060ff198154169055339160008051602061283a8339815191528180a4600190565b5090565b6001600160a01b031660008181526000805160206127da833981519152602052604081205490919060008051602061281a8339815191529060ff161561247e578083526001602052604083208284526020526040832060ff19815416905560008051602061283a833981519152339380a4600190565b906000918083526001602052604083209160018060a01b03169182845260205260ff60408420541660001461247e578083526001602052604083208284526020526040832060ff19815416905560008051602061283a833981519152339380a4600190565b9061277d575080511561276b57805190602001fd5b604051630a12f52160e11b8152600490fd5b815115806127b0575b61278e575090565b604051639996b31560e01b81526001600160a01b039091166004820152602490fd5b50803b1561278656fe2f8788117e7eff1d82e926ec794901d17c78024a50270940304540a733656f0dd52cfefb3f6fd7766669e08a03d2ceb3243383019e3a5fed2a519df30ee55b92fcb9fcbfa83b897fb2d5cf4b58962164105c1e71489a37ef3ae0db3fdce576f6df8b4c520ffe197c5343c6f5aec59570151ef9a492f2c624fd45ddde6135ec42f6391f5c32d9c69d2a47ea670b442974b53935d1edc7fd64eb21e047a839171ba26469706673582212205fcea76d06dcc6a042da7194dc9521a0a748c35b9cc61a4592efcd46a9e22e0964736f6c63430008190033",
  "linkReferences": {},
  "deployedLinkReferences": {}
}