{
  "_format": "hh-sol-artifact-1",
  "contractName": "Treasury",
  "sourceName": "src/L2/Treasury.sol",
  "abi": [
    {
      "inputs": [],
      "name": "AccessControlBadConfirmation",
      "type": "error"
    },
    {
      "inputs": [
        {
          "internalType": "address",
          "name": "account",
          "type": "address"
        },
        {
          "internalType": "bytes32",
          "name": "neededRole",
          "type": "bytes32"
        }
      ],
      "name": "AccessControlUnauthorizedAccount",
      "type": "error"
    },
    {
      "inputs": [
        {
          "internalType": "address",
          "name": "target",
          "type": "address"
        }
      ],
      "name": "AddressEmptyCode",
      "type": "error"
    },
    {
      "inputs": [
        {
          "internalType": "address",
          "name": "account",
          "type": "address"
        }
      ],
      "name": "AddressInsufficientBalance",
      "type": "error"
    },
    {
      "inputs": [],
      "name": "FailedInnerCall",
      "type": "error"
    },
    {
      "inputs": [],
      "name": "InvalidAddress",
      "type": "error"
    },
    {
      "inputs": [],
      "name": "NotEnoughWstonAvailableInTreasury",
      "type": "error"
    },
    {
      "inputs": [],
      "name": "ReentrancyGuardReentrantCall",
      "type": "error"
    },
    {
      "inputs": [
        {
          "internalType": "address",
          "name": "token",
          "type": "address"
        }
      ],
      "name": "SafeERC20FailedOperation",
      "type": "error"
    },
    {
      "inputs": [],
      "name": "SameAdmin",
      "type": "error"
    },
    {
      "inputs": [],
      "name": "TonAddressIsNotSet",
      "type": "error"
    },
    {
      "inputs": [],
      "name": "UnsuffiscientTonBalance",
      "type": "error"
    },
    {
      "inputs": [],
      "name": "UnsuffiscientWstonBalance",
      "type": "error"
    },
    {
      "inputs": [],
      "name": "WstonAddressIsNotSet",
      "type": "error"
    },
    {
      "inputs": [],
      "name": "ZeroAddress",
      "type": "error"
    },
    {
      "anonymous": false,
      "inputs": [
        {
          "indexed": true,
          "internalType": "bytes32",
          "name": "role",
          "type": "bytes32"
        },
        {
          "indexed": true,
          "internalType": "bytes32",
          "name": "previousAdminRole",
          "type": "bytes32"
        },
        {
          "indexed": true,
          "internalType": "bytes32",
          "name": "newAdminRole",
          "type": "bytes32"
        }
      ],
      "name": "RoleAdminChanged",
      "type": "event"
    },
    {
      "anonymous": false,
      "inputs": [
        {
          "indexed": true,
          "internalType": "bytes32",
          "name": "role",
          "type": "bytes32"
        },
        {
          "indexed": true,
          "internalType": "address",
          "name": "account",
          "type": "address"
        },
        {
          "indexed": true,
          "internalType": "address",
          "name": "sender",
          "type": "address"
        }
      ],
      "name": "RoleGranted",
      "type": "event"
    },
    {
      "anonymous": false,
      "inputs": [
        {
          "indexed": true,
          "internalType": "bytes32",
          "name": "role",
          "type": "bytes32"
        },
        {
          "indexed": true,
          "internalType": "address",
          "name": "account",
          "type": "address"
        },
        {
          "indexed": true,
          "internalType": "address",
          "name": "sender",
          "type": "address"
        }
      ],
      "name": "RoleRevoked",
      "type": "event"
    },
    {
      "inputs": [],
      "name": "ADMIN_ROLE",
      "outputs": [
        {
          "internalType": "bytes32",
          "name": "",
          "type": "bytes32"
        }
      ],
      "stateMutability": "view",
      "type": "function"
    },
    {
      "inputs": [],
      "name": "DEFAULT_ADMIN_ROLE",
      "outputs": [
        {
          "internalType": "bytes32",
          "name": "",
          "type": "bytes32"
        }
      ],
      "stateMutability": "view",
      "type": "function"
    },
    {
      "inputs": [],
      "name": "PAUSE_ROLE",
      "outputs": [
        {
          "internalType": "bytes32",
          "name": "",
          "type": "bytes32"
        }
      ],
      "stateMutability": "view",
      "type": "function"
    },
    {
      "inputs": [
        {
          "internalType": "address",
          "name": "account",
          "type": "address"
        }
      ],
      "name": "addAdmin",
      "outputs": [],
      "stateMutability": "nonpayable",
      "type": "function"
    },
    {
      "inputs": [
        {
          "internalType": "address",
          "name": "account",
          "type": "address"
        }
      ],
      "name": "addPauser",
      "outputs": [],
      "stateMutability": "nonpayable",
      "type": "function"
    },
    {
      "inputs": [
        {
          "internalType": "address",
          "name": "",
          "type": "address"
        }
      ],
      "name": "aliveImplementation",
      "outputs": [
        {
          "internalType": "bool",
          "name": "",
          "type": "bool"
        }
      ],
      "stateMutability": "view",
      "type": "function"
    },
    {
      "inputs": [
        {
          "internalType": "address",
          "name": "operator",
          "type": "address"
        },
        {
          "internalType": "uint256",
          "name": "_tokenId",
          "type": "uint256"
        }
      ],
      "name": "approveGem",
      "outputs": [],
      "stateMutability": "nonpayable",
      "type": "function"
    },
    {
      "inputs": [
        {
          "internalType": "uint256",
          "name": "amount",
          "type": "uint256"
        }
      ],
      "name": "approveWstonForMarketplace",
      "outputs": [],
      "stateMutability": "nonpayable",
      "type": "function"
    },
    {
      "inputs": [
        {
          "internalType": "uint256",
          "name": "_tokenId",
          "type": "uint256"
        },
        {
          "internalType": "bool",
          "name": "_paymentMethod",
          "type": "bool"
        }
      ],
      "name": "buyGem",
      "outputs": [],
      "stateMutability": "nonpayable",
      "type": "function"
    },
    {
      "inputs": [
        {
          "internalType": "enum GemFactoryStorage.Rarity",
          "name": "_rarity",
          "type": "uint8"
        },
        {
          "internalType": "uint8[2]",
          "name": "_color",
          "type": "uint8[2]"
        },
        {
          "internalType": "uint8[4]",
          "name": "_quadrants",
          "type": "uint8[4]"
        },
        {
          "internalType": "string",
          "name": "_tokenURI",
          "type": "string"
        }
      ],
      "name": "createPreminedGEM",
      "outputs": [
        {
          "internalType": "uint256",
          "name": "",
          "type": "uint256"
        }
      ],
      "stateMutability": "nonpayable",
      "type": "function"
    },
    {
      "inputs": [
        {
          "internalType": "enum GemFactoryStorage.Rarity[]",
          "name": "_rarities",
          "type": "uint8[]"
        },
        {
          "internalType": "uint8[2][]",
          "name": "_colors",
          "type": "uint8[2][]"
        },
        {
          "internalType": "uint8[4][]",
          "name": "_quadrants",
          "type": "uint8[4][]"
        },
        {
          "internalType": "string[]",
          "name": "_tokenURIs",
          "type": "string[]"
        }
      ],
      "name": "createPreminedGEMPool",
      "outputs": [
        {
          "internalType": "uint256[]",
          "name": "",
          "type": "uint256[]"
        }
      ],
      "stateMutability": "nonpayable",
      "type": "function"
    },
    {
      "inputs": [],
      "name": "getAirdropAddress",
      "outputs": [
        {
          "internalType": "address",
          "name": "",
          "type": "address"
        }
      ],
      "stateMutability": "view",
      "type": "function"
    },
    {
      "inputs": [],
      "name": "getGemFactoryAddress",
      "outputs": [
        {
          "internalType": "address",
          "name": "",
          "type": "address"
        }
      ],
      "stateMutability": "view",
      "type": "function"
    },
    {
      "inputs": [],
      "name": "getMarketPlaceAddress",
      "outputs": [
        {
          "internalType": "address",
          "name": "",
          "type": "address"
        }
      ],
      "stateMutability": "view",
      "type": "function"
    },
    {
      "inputs": [],
      "name": "getRandomPackAddress",
      "outputs": [
        {
          "internalType": "address",
          "name": "",
          "type": "address"
        }
      ],
      "stateMutability": "view",
      "type": "function"
    },
    {
      "inputs": [
        {
          "internalType": "bytes32",
          "name": "role",
          "type": "bytes32"
        }
      ],
      "name": "getRoleAdmin",
      "outputs": [
        {
          "internalType": "bytes32",
          "name": "",
          "type": "bytes32"
        }
      ],
      "stateMutability": "view",
      "type": "function"
    },
    {
      "inputs": [],
      "name": "getSwapPoolAddress",
      "outputs": [
        {
          "internalType": "address",
          "name": "",
          "type": "address"
        }
      ],
      "stateMutability": "view",
      "type": "function"
    },
    {
      "inputs": [],
      "name": "getTONBalance",
      "outputs": [
        {
          "internalType": "uint256",
          "name": "",
          "type": "uint256"
        }
      ],
      "stateMutability": "view",
      "type": "function"
    },
    {
      "inputs": [],
      "name": "getTonAddress",
      "outputs": [
        {
          "internalType": "address",
          "name": "",
          "type": "address"
        }
      ],
      "stateMutability": "view",
      "type": "function"
    },
    {
      "inputs": [],
      "name": "getWSTONBalance",
      "outputs": [
        {
          "internalType": "uint256",
          "name": "",
          "type": "uint256"
        }
      ],
      "stateMutability": "view",
      "type": "function"
    },
    {
      "inputs": [],
      "name": "getWstonAddress",
      "outputs": [
        {
          "internalType": "address",
          "name": "",
          "type": "address"
        }
      ],
      "stateMutability": "view",
      "type": "function"
    },
    {
      "inputs": [
        {
          "internalType": "bytes32",
          "name": "role",
          "type": "bytes32"
        },
        {
          "internalType": "address",
          "name": "account",
          "type": "address"
        }
      ],
      "name": "grantRole",
      "outputs": [],
      "stateMutability": "nonpayable",
      "type": "function"
    },
    {
      "inputs": [
        {
          "internalType": "bytes32",
          "name": "role",
          "type": "bytes32"
        },
        {
          "internalType": "address",
          "name": "account",
          "type": "address"
        }
      ],
      "name": "hasRole",
      "outputs": [
        {
          "internalType": "bool",
          "name": "",
          "type": "bool"
        }
      ],
      "stateMutability": "view",
      "type": "function"
    },
    {
      "inputs": [
        {
          "internalType": "address",
          "name": "_wston",
          "type": "address"
        },
        {
          "internalType": "address",
          "name": "_ton",
          "type": "address"
        },
        {
          "internalType": "address",
          "name": "_gemFactory",
          "type": "address"
        }
      ],
      "name": "initialize",
      "outputs": [],
      "stateMutability": "nonpayable",
      "type": "function"
    },
    {
      "inputs": [
        {
          "internalType": "address",
          "name": "account",
          "type": "address"
        }
      ],
      "name": "isAdmin",
      "outputs": [
        {
          "internalType": "bool",
          "name": "",
          "type": "bool"
        }
      ],
      "stateMutability": "view",
      "type": "function"
    },
    {
      "inputs": [],
      "name": "isOwner",
      "outputs": [
        {
          "internalType": "bool",
          "name": "",
          "type": "bool"
        }
      ],
      "stateMutability": "view",
      "type": "function"
    },
    {
      "inputs": [
        {
          "internalType": "address",
          "name": "",
          "type": "address"
        },
        {
          "internalType": "address",
          "name": "",
          "type": "address"
        },
        {
          "internalType": "uint256",
          "name": "",
          "type": "uint256"
        },
        {
          "internalType": "bytes",
          "name": "",
          "type": "bytes"
        }
      ],
      "name": "onERC721Received",
      "outputs": [
        {
          "internalType": "bytes4",
          "name": "",
          "type": "bytes4"
        }
      ],
      "stateMutability": "pure",
      "type": "function"
    },
    {
      "inputs": [],
      "name": "pause",
      "outputs": [],
      "stateMutability": "nonpayable",
      "type": "function"
    },
    {
      "inputs": [],
      "name": "pauseProxy",
      "outputs": [
        {
          "internalType": "bool",
          "name": "",
          "type": "bool"
        }
      ],
      "stateMutability": "view",
      "type": "function"
    },
    {
      "inputs": [
        {
          "internalType": "uint256",
          "name": "",
          "type": "uint256"
        }
      ],
      "name": "proxyImplementation",
      "outputs": [
        {
          "internalType": "address",
          "name": "",
          "type": "address"
        }
      ],
      "stateMutability": "view",
      "type": "function"
    },
    {
      "inputs": [
        {
          "internalType": "uint256",
          "name": "_tokenId",
          "type": "uint256"
        },
        {
          "internalType": "uint256",
          "name": "_price",
          "type": "uint256"
        }
      ],
      "name": "putGemForSale",
      "outputs": [],
      "stateMutability": "nonpayable",
      "type": "function"
    },
    {
      "inputs": [
        {
          "internalType": "uint256[]",
          "name": "tokenIds",
          "type": "uint256[]"
        },
        {
          "internalType": "uint256[]",
          "name": "prices",
          "type": "uint256[]"
        }
      ],
      "name": "putGemListForSale",
      "outputs": [],
      "stateMutability": "nonpayable",
      "type": "function"
    },
    {
      "inputs": [
        {
          "internalType": "address",
          "name": "account",
          "type": "address"
        }
      ],
      "name": "removeAdmin",
      "outputs": [],
      "stateMutability": "nonpayable",
      "type": "function"
    },
    {
      "inputs": [
        {
          "internalType": "uint256",
          "name": "_tokenId",
          "type": "uint256"
        }
      ],
      "name": "removeGemFromSale",
      "outputs": [],
      "stateMutability": "nonpayable",
      "type": "function"
    },
    {
      "inputs": [
        {
          "internalType": "address",
          "name": "account",
          "type": "address"
        }
      ],
      "name": "removePauser",
      "outputs": [],
      "stateMutability": "nonpayable",
      "type": "function"
    },
    {
      "inputs": [],
      "name": "renounceOwnership",
      "outputs": [],
      "stateMutability": "nonpayable",
      "type": "function"
    },
    {
      "inputs": [
        {
          "internalType": "bytes32",
          "name": "role",
          "type": "bytes32"
        },
        {
          "internalType": "address",
          "name": "callerConfirmation",
          "type": "address"
        }
      ],
      "name": "renounceRole",
      "outputs": [],
      "stateMutability": "nonpayable",
      "type": "function"
    },
    {
      "inputs": [
        {
          "internalType": "bytes32",
          "name": "role",
          "type": "bytes32"
        },
        {
          "internalType": "address",
          "name": "account",
          "type": "address"
        }
      ],
      "name": "revokeRole",
      "outputs": [],
      "stateMutability": "nonpayable",
      "type": "function"
    },
    {
      "inputs": [
        {
          "internalType": "bytes4",
          "name": "",
          "type": "bytes4"
        }
      ],
      "name": "selectorImplementation",
      "outputs": [
        {
          "internalType": "address",
          "name": "",
          "type": "address"
        }
      ],
      "stateMutability": "view",
      "type": "function"
    },
    {
      "inputs": [
        {
          "internalType": "address",
          "name": "_airdrop",
          "type": "address"
        }
      ],
      "name": "setAirdrop",
      "outputs": [],
      "stateMutability": "nonpayable",
      "type": "function"
    },
    {
      "inputs": [
        {
          "internalType": "address",
          "name": "_gemFactory",
          "type": "address"
        }
      ],
      "name": "setGemFactory",
      "outputs": [],
      "stateMutability": "nonpayable",
      "type": "function"
    },
    {
      "inputs": [
        {
          "internalType": "address",
          "name": "marketplace",
          "type": "address"
        }
      ],
      "name": "setMarketPlace",
      "outputs": [],
      "stateMutability": "nonpayable",
      "type": "function"
    },
    {
      "inputs": [
        {
          "internalType": "address",
          "name": "_randomPack",
          "type": "address"
        }
      ],
      "name": "setRandomPack",
      "outputs": [],
      "stateMutability": "nonpayable",
      "type": "function"
    },
    {
      "inputs": [
        {
          "internalType": "address",
          "name": "_wstonSwapPool",
          "type": "address"
        }
      ],
      "name": "setWstonSwapPool",
      "outputs": [],
      "stateMutability": "nonpayable",
      "type": "function"
    },
    {
      "inputs": [
        {
          "internalType": "bytes4",
          "name": "interfaceId",
          "type": "bytes4"
        }
      ],
      "name": "supportsInterface",
      "outputs": [
        {
          "internalType": "bool",
          "name": "",
          "type": "bool"
        }
      ],
      "stateMutability": "view",
      "type": "function"
    },
    {
      "inputs": [
        {
          "internalType": "uint256",
          "name": "_amount",
          "type": "uint256"
        }
      ],
      "name": "tonApproveWstonSwapPool",
      "outputs": [
        {
          "internalType": "bool",
          "name": "",
          "type": "bool"
        }
      ],
      "stateMutability": "nonpayable",
      "type": "function"
    },
    {
      "inputs": [
        {
          "internalType": "address",
          "name": "newAdmin",
          "type": "address"
        }
      ],
      "name": "transferAdmin",
      "outputs": [],
      "stateMutability": "nonpayable",
      "type": "function"
    },
    {
      "inputs": [
        {
          "internalType": "address",
          "name": "newAdmin",
          "type": "address"
        }
      ],
      "name": "transferOwnership",
      "outputs": [],
      "stateMutability": "nonpayable",
      "type": "function"
    },
    {
      "inputs": [
        {
          "internalType": "address",
          "name": "_to",
          "type": "address"
        },
        {
          "internalType": "uint256",
          "name": "_amount",
          "type": "uint256"
        }
      ],
      "name": "transferTON",
      "outputs": [
        {
          "internalType": "bool",
          "name": "",
          "type": "bool"
        }
      ],
      "stateMutability": "nonpayable",
      "type": "function"
    },
    {
      "inputs": [
        {
          "internalType": "address",
          "name": "_to",
          "type": "address"
        },
        {
          "internalType": "uint256",
          "name": "_tokenId",
          "type": "uint256"
        }
      ],
      "name": "transferTreasuryGEMto",
      "outputs": [
        {
          "internalType": "bool",
          "name": "",
          "type": "bool"
        }
      ],
      "stateMutability": "nonpayable",
      "type": "function"
    },
    {
      "inputs": [
        {
          "internalType": "address",
          "name": "_to",
          "type": "address"
        },
        {
          "internalType": "uint256",
          "name": "_amount",
          "type": "uint256"
        }
      ],
      "name": "transferWSTON",
      "outputs": [
        {
          "internalType": "bool",
          "name": "",
          "type": "bool"
        }
      ],
      "stateMutability": "nonpayable",
      "type": "function"
    },
    {
      "inputs": [],
      "name": "unpause",
      "outputs": [],
      "stateMutability": "nonpayable",
      "type": "function"
    }
  ],
  "bytecode": "0x60808060405234606557600160048190556301ffc9a760e01b60005260056020527fc01909ce2b517f8cd3a46ae0cfde9179f9b675cf633d3d84c8226585cc73c156805460ff19169091179055600d805460ff60a01b19169055612d36908161006b8239f35b600080fdfe6080604052600436101561001257600080fd5b6000803560e01c80630169dc311461209557806301ffc9a71461206357806302424ed314611fa9578063044bc77914611f8057806312608dfb14611e92578063150b7a0214611e285780631785f53c14611dfb578063248a9ca314611dce57806324d7806c14611d765780632ede643214611c065780632f2ff15d14611bc857806330568a8d14611b3557806336568abe14611aff578063389ed26714611ad65780633b22f11014611abb5780633d007e5714611a925780633f4ba83a14611a5657806340e5854814611983578063425c7fc21461128b57806348dbcef01461119d57806350d2a27614611158578063550d01a31461111957806363a8fd89146110f7578063694eaa40146110ce5780636ae638d0146110a55780636b2c0f55146110555780636fcf2fc914610fad5780637048027514610f5f578063715018a614610f3a57806372820dbc14610ea757806375829def14610e8d57806375b238fc14610e6457806379dbd79814610c8457806382dc1ec414610bef5780638456cb5914610bad5780638f32d59b14610b88578063912b431b1461087f57806391d1485414610833578063952377f31461080a57806398d111b21461074b5780639d541be214610722578063a217fddf14610706578063b23a1d0d14610673578063b911135f14610640578063bae77ac91461061d578063c0c53b8b1461054d578063d547741f1461050b578063e614751814610477578063ec23919a1461044e578063ec7ae61d14610399578063ed8c2472146103065763f2fde38b1461025957600080fd5b3461030357602036600319011261030357610272612189565b61028261027d612674565b612444565b61028d61027d612674565b6001600160a01b03811680156102f15733146102df576102d290600080516020612ca1833981519152835260066020526102cd60016040852001546127ee565b612832565b506102dc336124b6565b80f35b6040516309cd70b960e21b8152600490fd5b60405163d92e233d60e01b8152600490fd5b80fd5b503461030357602036600319011261030357610320612189565b600080516020612ca183398151915282526006602052604082203360005260205260ff604060002054168015610386575b61035a906123d0565b610363816126d5565b600980546001600160a01b0319166001600160a01b039290921691909117905580f35b5061035a610392612674565b9050610351565b5034610303576040366003190112610303576103b3612189565b90604060243591600080516020612ca183398151915281526006602052203360005260205260ff60406000205416801561043b575b6103f1906123d0565b6103fa826126d5565b806104036124d2565b1061042957600c5461041e92906001600160a01b03166126f7565b602060405160018152f35b60405163a5a9c2b760e01b8152600490fd5b506103f1610447612674565b90506103e8565b50346103035780600319360112610303576009546040516001600160a01b039091168152602090f35b503461030357602036600319011261030357610491612189565b600080516020612ca183398151915282526006602052604082203360005260205260ff6040600020541680156104f8575b6104cb906123d0565b600754906001600160a01b03906104e38284166126d5565b6001600160a01b031990921691161760075580f35b506104cb610504612674565b90506104c2565b50346103035760403660031901126103035761054960043561052b61219f565b90808452600660205261054460016040862001546127ee565b612b98565b5080f35b503461030357606036600319011261030357610567612189565b61056f61219f565b6044356001600160a01b03818116939092918490036106185760ff600d5460a81c166105dd5782906105a03361294b565b5060018060a01b0319948560075416176007551683600b541617600b551690600c541617600c55600160a81b60ff60a81b19600d541617600d5580f35b60405162461bcd60e51b8152602060048201526013602482015272185b1c9958591e481a5b9a5d1a585b1a5e9959606a1b6044820152606490fd5b600080fd5b50346103035780600319360112610303576020610638612697565b604051908152f35b503461030357602036600319011261030357602090600435815260018252604060018060a01b0391205416604051908152f35b50346103035760203660031901126103035761068d612189565b600080516020612ca183398151915282526006602052604082203360005260205260ff6040600020541680156106f3575b6106c7906123d0565b6106d0816126d5565b600d80546001600160a01b0319166001600160a01b039290921691909117905580f35b506106c76106ff612674565b90506106be565b5034610303578060031936011261030357602090604051908152f35b50346103035780600319360112610303576007546040516001600160a01b039091168152602090f35b503461030357602036600319011261030357600080516020612ca183398151915281526006602052604081203360005260205260ff6040600020541680156107f7575b610797906123d0565b60085481906001600160a01b0316803b156107f4578180916024604051809481936356d6b49360e11b835260043560048401525af180156107e9576107d95750f35b6107e2906121b5565b6103035780f35b6040513d84823e3d90fd5b50fd5b50610797610803612674565b905061078e565b5034610303578060031936011261030357600d546040516001600160a01b039091168152602090f35b503461030357604036600319011261030357604061084f61219f565b9160043581526006602052209060018060a01b0316600052602052602060ff604060002054166040519015158152f35b5034610303576101009081600319360112610303576004356006811015610b84573660431215610618576040516108b5816121de565b606481368211610618576024905b828210610b6c57505050366083121561061857604051936108e3856121f9565b60e485368211610618576064905b828210610b545750505060e4356001600160401b038111610b505761091a903690600401612275565b9060018060a01b0395866009541633148015610b43575b8015610b30575b6109419061258a565b610949612697565b96600754169360405197630265f21b60e51b895260209889816004818a5afa908115610b25578991610af8575b50604051630b513d9960e01b815290610992600483018a6125ee565b8a826024818b5afa908115610aed578a91610abc575b6109b29250612611565b11610aaa579287949287926109dc979560405198899763975781b760e01b895260048901906125ee565b84602488015b60028210610a8a575050506064860184905b60048210610a6a57505050610a17859392849260e4840152610104830190612634565b03925af1918215610a5e5791610a31575b50604051908152f35b90508181813d8311610a57575b610a488183612214565b81010312610618575138610a28565b503d610a3e565b604051903d90823e3d90fd5b825160ff1681528b988a98508b96509283019260019290920191016109f4565b825160ff1681528c998b99508c97509283019260019290920191016109e2565b60405163f2cd224d60e01b8152600490fd5b90508a82813d8311610ae6575b610ad38183612214565b81010312610618576109b29151906109a8565b503d610ac9565b6040513d8c823e3d90fd5b90508981813d8311610b1e575b610b0f8183612214565b81010312610618575138610976565b503d610b05565b6040513d8b823e3d90fd5b50610941610b3c612674565b9050610938565b5086600854163314610931565b8480fd5b60208091610b618461224c565b8152019101906108f1565b60208091610b798461224c565b8152019101906108c3565b5080fd5b50346103035780600319360112610303576020610ba3612674565b6040519015158152f35b5034610303578060031936011261030357610bc961027d612674565b600d54610bdc60ff8260a01c161561254b565b60ff60a01b1916600160a01b17600d5580f35b503461030357602036600319011261030357610549610c0c612189565b600080516020612ca183398151915283526006602052604083203360005260205260ff604060002054168015610c71575b610c46906123d0565b600080516020612c8183398151915283526006602052610c6c60016040852001546127ee565b6128c1565b50610c46610c7d612674565b9050610c3d565b503461030357806003196040368201126107f4576001600160401b03600435818111610e5f57610cb89036906004016122f0565b90602435908111610e5f57610cd19036906004016122f0565b600080516020612ca183398151915284526006602052604084203360005260205260ff604060002054168015610e4c575b610d0b906123d0565b60075460085460405163e985e9c560e01b81526001600160a01b039283169183169060208180610d3f85306004840161249c565b0381865afa908115610e41578891610e12575b5015610db4575b505060085416803b15610b5057610d94858094610da360405197889687958694630f3b7af360e31b86526040600487015260448601906122bc565b918483030160248501526122bc565b03925af180156107e9576107d95750f35b813b15610e0e57869160448392604051948593849263a22cb46560e01b84526004840152600160248401525af1908115610e0357869115610d5957610df8906121b5565b610b50578438610d59565b6040513d88823e3d90fd5b8680fd5b610e34915060203d602011610e3a575b610e2c8183612214565b810190612411565b38610d52565b503d610e22565b6040513d8a823e3d90fd5b50610d0b610e58612674565b9050610d02565b505050fd5b50346103035780600319360112610303576020604051600080516020612ca18339815191528152f35b503461030357602036600319011261030357610282612189565b503461030357602036600319011261030357610ec1612189565b600080516020612ca183398151915282526006602052604082203360005260205260ff604060002054168015610f27575b610efb906123d0565b610f04816126d5565b600a80546001600160a01b0319166001600160a01b039290921691909117905580f35b50610efb610f33612674565b9050610ef2565b5034610303578060031936011261030357610f5661027d612674565b61054933612aa9565b503461030357602036600319011261030357610549610f7c612189565b610f8761027d612674565b600080516020612ca1833981519152835260066020526102cd60016040852001546127ee565b50346103035760403660031901126103035780610fc8612189565b600080516020612ca183398151915282526006602052604082203360005260205260ff604060002054168015611042575b611002906123d0565b6007546001600160a01b0316803b1561103e5760405163095ea7b360e01b81529183918391829084908290610da3906024359060048401612429565b5050fd5b5061100261104e612674565b9050610ff9565b50346103035760203660031901126103035761106f612189565b61107a61027d612674565b336001600160a01b038216036110935761054990612a21565b60405163334bd91960e11b8152600490fd5b5034610303578060031936011261030357600c546040516001600160a01b039091168152602090f35b50346103035780600319360112610303576008546040516001600160a01b039091168152602090f35b503461030357806003193601126103035760ff60209154166040519015158152f35b50346103035760203660031901126103035760209060ff906040906001600160a01b03611144612189565b168152600284522054166040519015158152f35b50346103035760203660031901126103035760043563ffffffff60e01b8116809103610b845790602091815260038252604060018060a01b0391205416604051908152f35b5034610303576040366003190112610303576111b7612189565b6007546001600160a01b0390811691839190338414801561127e575b8015611271575b8015611264575b8015611251575b6111f190612350565b833b1561124d576064908360405195869485936323b872dd60e01b855230600486015216602484015260243560448401525af180156107e95761123957602060405160018152f35b61124382916121b5565b610303578061041e565b8280fd5b506111f161125d612674565b90506111e8565b5081600a541633146111e1565b50816009541633146111da565b50816008541633146111d3565b503461030357608036600319011261030357600435906001600160401b0382116103035736602383011215610303578160040135906112c982612235565b926112d76040519485612214565b82845260208401906024829460051b8201019036821161170857602401915b81831061196a57505050602435926001600160401b038411610b845736602385011215610b845783600401359061132c82612235565b9161133a6040519384612214565b808352602083019081963660248360061b830101116119665760248101925b60248360061b830101841061190c57505050506001600160401b036044351161124d5736602360443501121561124d57604435600401359461139a86612235565b956113a86040519788612214565b8087526020870180913660248260071b604435010111610e0e57602460443501915b60248260071b604435010183106118b2575050506001600160401b0360643511610b5057366023606435011215610b505761140a60643560040135612235565b6114176040519182612214565b6064356004013581526020810192833660246064356004013560051b6064350101116118ae57602460643501905b60246064356004013560051b6064350101821061187a5750506009546001600160a01b031633148015611866575b8015611853575b611487909996989961258a565b600754969889976001600160a01b03169690885b87518c10156115515760208c60051b89010151600681101561153d57604051630b513d9960e01b8152906114d39060048301906125ee565b6020816024818d5afa908115611532578b916114ff575b506114f790600192612611565b9b019a61149b565b90506020813d60201161152a575b8161151a60209383612214565b81010312610618575160016114ea565b3d915061150d565b6040513d8d823e3d90fd5b634e487b7160e01b8b52602160045260248bfd5b8a909897986004611560612697565b9160208b60405193848092630265f21b60e51b82525afa8015611848578d90611814575b61158e9250612611565b11610aaa57979593918997959391604051998a98630ff1ac6760e01b8a5260848a0190608060048c01525180915260a48a0192908b5b8181106117df575050506020906003198a84030160248b01525191828152019290895b81811061178d575050506020906003198884030160448901525191828152019290875b81811061173f5750505060031985830301606486015251808252602082019160208260051b820101939287915b83831061170c5750505050508383809203925af19081156107e9578291611673575b6040516020808252819061166f908201856122bc565b0390f35b90503d8083833e6116848183612214565b81019060208183031261124d578051906001600160401b038211611708570181601f8201121561124d578051906116ba82612235565b936116c86040519586612214565b82855260208086019360051b8301019384116103035750602001905b8282106116f85750505061166f9082611659565b81518152602091820191016116e4565b8380fd5b929597509295509260208061172d600193601f198682030187528951612634565b97019301930187959389979592611637565b929496509290809597505181908a915b600483106117745750505060206080600192019501910190889694928896949261160a565b60208060019260ff85511681520192019201919061174f565b9294969850929080959799505181908c915b600283106117c657505050602060406001920195019101908a989694928a989694926115e7565b60208060019260ff85511681520192019201919061179f565b929496989a5092819597999b506020816117fd8293600195516125ee565b0195019101908c9a989694928c9a989694926115c4565b506020823d602011611840575b8161182e60209383612214565b810103126106185761158e9151611584565b3d9150611821565b6040513d8f823e3d90fd5b5061148761185f612674565b905061147a565b506008546001600160a01b03163314611473565b6001600160401b038235116118aa576020809161189f36602486356064350101612275565b815201910190611445565b8880fd5b8780fd5b36601f84011215610618576040516118c9816121f9565b803660808601116106185784905b6080860182106118f45750508152608092909201916020016113ca565b602080916119018461224c565b8152019101906118d7565b36601f8501121561061857604051611923816121de565b803660408701116106185785905b60408701821061194e575050815260409390930192602001611359565b6020809161195b8461224c565b815201910190611931565b8580fd5b82356006811015610b50578152602092830192016112f6565b5034610303576020366003190112610303576008546001600160a01b0390811633819003611a02576119d86020918493600b54169060405194858094819363095ea7b360e01b83526004359060048401612429565b03925af180156107e9576119ea575080f35b6105499060203d602011610e3a57610e2c8183612214565b60405162461bcd60e51b815260206004820152602660248201527f63616c6c6572206973206e6f7420746865206d61726b6574706c61636520636f6044820152651b9d1c9858dd60d21b6064820152608490fd5b5034610303578060031936011261030357611a7261027d612674565b600d54611a8560ff8260a01c161561254b565b60ff60a01b1916600d5580f35b5034610303578060031936011261030357600a546040516001600160a01b039091168152602090f35b503461030357806003193601126103035760206106386124d2565b50346103035780600319360112610303576020604051600080516020612c818339815191528152f35b503461030357604036600319011261030357611b1961219f565b336001600160a01b038216036110935761054990600435612b98565b503461030357602036600319011261030357611b4f612189565b600080516020612ca183398151915282526006602052604082203360005260205260ff604060002054168015611bb5575b611b89906123d0565b611b92816126d5565b600880546001600160a01b0319166001600160a01b039290921691909117905580f35b50611b89611bc1612674565b9050611b80565b503461030357604036600319011261030357610549600435611be861219f565b908084526006602052611c0160016040862001546127ee565b6129b8565b503461030357604036600319011261030357600080516020612ca183398151915281526006602052604081203360005260205260ff604060002054168015611d63575b611c52906123d0565b8060018060a01b038060075416816008541660405163e985e9c560e01b815260208180611c8385306004840161249c565b0381865afa908115611d58578591611d39575b5015611cdf575b505060085416803b156107f45781809160446040518094819363176f321960e11b8352600435600484015260243560248401525af180156107e9576107d95750f35b813b15610e5f57839160448392604051948593849263a22cb46560e01b84526004840152600160248401525af1908115611d2e57839115611c9d57611d23906121b5565b6107f4578138611c9d565b6040513d85823e3d90fd5b611d52915060203d602011610e3a57610e2c8183612214565b38611c96565b6040513d87823e3d90fd5b50611c52611d6f612674565b9050611c49565b5034610303576020366003190112610303576040611d92612189565b91600080516020612ca183398151915281526006602052209060018060a01b0316600052602052602060ff604060002054166040519015158152f35b50346103035760203660031901126103035760016040602092600435815260068452200154604051908152f35b5034610303576020366003190112610303576102dc611e18612189565b611e2361027d612674565b6124b6565b503461030357608036600319011261030357611e42612189565b50611e4b61219f565b506064356001600160401b0380821161124d573660238301121561124d57816004013590811161124d573691016024011161030357604051630a85bd0160e11b8152602090f35b5034610303576020908160031936011261030357600d546001600160a01b03908116903382148015611f72575b15611f3157611ef983928592600c541690611ed9826126d5565b60405195868094819363095ea7b360e01b83526004359060048401612429565b03925af1908115610a5e5750611f14575b5060405160018152f35b611f2a90823d8411610e3a57610e2c8183612214565b5038611f0a565b60405162461bcd60e51b815260048101859052601960248201527831b0b63632b91034b9903737ba103a34329029bbb0b83832b960391b6044820152606490fd5b50611f7b612674565b611ebf565b5034610303578060031936011261030357600b546040516001600160a01b039091168152602090f35b503461030357604036600319011261030357806024358015158091036107f457600080516020612ca1833981519152825260066020526040822033835260205260ff6040832054168015612050575b612001906123d0565b6008546001600160a01b0316803b1561103e576044839260405194859384926302424ed360e01b8452600435600485015260248401525af180156107e957612047575080f35b6102dc906121b5565b5061200161205c612674565b9050611ff8565b503461030357602036600319011261030357600435906001600160e01b031982168203610303576020610ba3836127c2565b5034610303576040366003190112610303576120af612189565b6007546001600160a01b03916024359183163314801561217c575b801561216f575b8015612162575b801561214f575b6120e890612350565b60026004541461213d576002600455612100816126d5565b81612109612697565b1061212b5761211b92600b54166126f7565b6001600455602060405160018152f35b604051638e85197360e01b8152600490fd5b604051633ee5aeb560e01b8152600490fd5b506120e861215b612674565b90506120df565b5082600a541633146120d8565b50826009541633146120d1565b50826008541633146120ca565b600435906001600160a01b038216820361061857565b602435906001600160a01b038216820361061857565b6001600160401b0381116121c857604052565b634e487b7160e01b600052604160045260246000fd5b604081019081106001600160401b038211176121c857604052565b608081019081106001600160401b038211176121c857604052565b90601f801991011681019081106001600160401b038211176121c857604052565b6001600160401b0381116121c85760051b60200190565b359060ff8216820361061857565b6001600160401b0381116121c857601f01601f191660200190565b81601f820112156106185780359061228c8261225a565b9261229a6040519485612214565b8284526020838301011161061857816000926020809301838601378301015290565b90815180825260208080930193019160005b8281106122dc575050505090565b8351855293810193928101926001016122ce565b9080601f8301121561061857602090823561230a81612235565b936123186040519586612214565b81855260208086019260051b82010192831161061857602001905b828210612341575050505090565b81358152908301908301612333565b1561235757565b60405162461bcd60e51b815260206004820152604560248201527f63616c6c6572206973206e656974686572204f776e6572206e6f722047656d4660448201527f6163746f7279206e6f72204d61726b6574506c616365206e6f722052616e646f6064820152646d5061636b60d81b608482015260a490fd5b156123d757565b60405162461bcd60e51b81526020600482015260126024820152713737ba1027bbb732b91037b91020b236b4b760711b6044820152606490fd5b90816020910312610618575180151581036106185790565b6001600160a01b039091168152602081019190915260400190565b1561244b57565b60405162461bcd60e51b8152602060048201526024808201527f41757468436f6e74726f6c3a2043616c6c6572206973206e6f7420746865206f6044820152633bb732b960e11b6064820152608490fd5b6001600160a01b0391821681529116602082015260400190565b336001600160a01b03821603611093576124cf90612b10565b50565b600c546040516370a0823160e01b815230600482015290602090829060249082906001600160a01b03165afa90811561253f57600091612510575090565b90506020813d602011612537575b8161252b60209383612214565b81010312610618575190565b3d915061251e565b6040513d6000823e3d90fd5b1561255257565b60405162461bcd60e51b815260206004820152601060248201526f14185d5cd8589b194e881c185d5cd95960821b6044820152606490fd5b1561259157565b60405162461bcd60e51b815260206004820152602f60248201527f63616c6c6572206973206e656974686572206f776e6572206e6f722072616e6460448201526e1bdb541858dac818dbdb9d1c9858dd608a1b6064820152608490fd5b9060068210156125fb5752565b634e487b7160e01b600052602160045260246000fd5b9190820180921161261e57565b634e487b7160e01b600052601160045260246000fd5b919082519283825260005b848110612660575050826000602080949584010152601f8019910116010190565b60208183018101518483018201520161263f565b336000908152600080516020612ce1833981519152602052604090205460ff1690565b600b546040516370a0823160e01b815230600482015290602090829060249082906001600160a01b03165afa90811561253f57600091612510575090565b6001600160a01b0316156126e557565b60405163e6c4247b60e01b8152600490fd5b600061277192819261273261272496604051978891602083019563a9059cbb60e01b875260248401612429565b03601f198101885287612214565b60018060a01b031694519082865af13d156127ba573d906127528261225a565b916127606040519384612214565b82523d6000602084013e5b83612bfd565b805190811515918261279f575b50506127875750565b60249060405190635274afe760e01b82526004820152fd5b6127b29250602080918301019101612411565b15388061277e565b60609061276b565b6001600160e01b03198116637965db0b60e01b149081156127e1575090565b6127eb91506127c2565b90565b80600052600660205260406000203360005260205260ff60406000205416156128145750565b6044906040519063e2517d3f60e01b82523360048301526024820152fd5b6001600160a01b031660008181527f31f4bc5980931cfff8fcc0887a354f492c853dee1983bdef4d9cb3e8a5ff876e6020526040812054909190600080516020612ca18339815191529060ff166128bc5780835260066020526040832082845260205260408320600160ff19825416179055600080516020612c61833981519152339380a4600190565b505090565b6001600160a01b031660008181527f1f8dd7b22d148f841c713baeaaa6d87f64519d51ae5db1519f67dc96623cc8d86020526040812054909190600080516020612c818339815191529060ff166128bc5780835260066020526040832082845260205260408320600160ff19825416179055600080516020612c61833981519152339380a4600190565b6001600160a01b03166000818152600080516020612ce1833981519152602052604081205490919060ff166129b45781805260066020526040822081835260205260408220600160ff198254161790553391600080516020612c618339815191528180a4600190565b5090565b906000918083526006602052604083209160018060a01b03169182845260205260ff604084205416156000146128bc5780835260066020526040832082845260205260408320600160ff19825416179055600080516020612c61833981519152339380a4600190565b6001600160a01b031660008181527f1f8dd7b22d148f841c713baeaaa6d87f64519d51ae5db1519f67dc96623cc8d86020526040812054909190600080516020612c818339815191529060ff16156128bc578083526006602052604083208284526020526040832060ff198154169055600080516020612cc1833981519152339380a4600190565b6001600160a01b03166000818152600080516020612ce1833981519152602052604081205490919060ff16156129b4578180526006602052604082208183526020526040822060ff1981541690553391600080516020612cc18339815191528180a4600190565b6001600160a01b031660008181527f31f4bc5980931cfff8fcc0887a354f492c853dee1983bdef4d9cb3e8a5ff876e6020526040812054909190600080516020612ca18339815191529060ff16156128bc578083526006602052604083208284526020526040832060ff198154169055600080516020612cc1833981519152339380a4600190565b906000918083526006602052604083209160018060a01b03169182845260205260ff6040842054166000146128bc578083526006602052604083208284526020526040832060ff198154169055600080516020612cc1833981519152339380a4600190565b90612c245750805115612c1257805190602001fd5b604051630a12f52160e11b8152600490fd5b81511580612c57575b612c35575090565b604051639996b31560e01b81526001600160a01b039091166004820152602490fd5b50803b15612c2d56fe2f8788117e7eff1d82e926ec794901d17c78024a50270940304540a733656f0dfcb9fcbfa83b897fb2d5cf4b58962164105c1e71489a37ef3ae0db3fdce576f6df8b4c520ffe197c5343c6f5aec59570151ef9a492f2c624fd45ddde6135ec42f6391f5c32d9c69d2a47ea670b442974b53935d1edc7fd64eb21e047a839171b54cdd369e4e8a8515e52ca72ec816c2101831ad1f18bf44102ed171459c9b4f8a2646970667358221220c20795fd0810082870f9797c98f9e441fa46d226b9b66d8d4c12fbf14aa99eec64736f6c63430008190033",
  "linkReferences": {},
  "deployedLinkReferences": {}
}