{
  "_format": "hh-sol-artifact-1",
  "contractName": "Treasury",
  "sourceName": "src/L2/Treasury.sol",
  "abi": [
    {
      "inputs": [],
      "name": "AccessControlBadConfirmation",
      "type": "error"
    },
    {
      "inputs": [
        {
          "internalType": "address",
          "name": "account",
          "type": "address"
        },
        {
          "internalType": "bytes32",
          "name": "neededRole",
          "type": "bytes32"
        }
      ],
      "name": "AccessControlUnauthorizedAccount",
      "type": "error"
    },
    {
      "inputs": [
        {
          "internalType": "address",
          "name": "target",
          "type": "address"
        }
      ],
      "name": "AddressEmptyCode",
      "type": "error"
    },
    {
      "inputs": [
        {
          "internalType": "address",
          "name": "account",
          "type": "address"
        }
      ],
      "name": "AddressInsufficientBalance",
      "type": "error"
    },
    {
      "inputs": [],
      "name": "FailedInnerCall",
      "type": "error"
    },
    {
      "inputs": [],
      "name": "InvalidAddress",
      "type": "error"
    },
    {
      "inputs": [],
      "name": "NotEnoughWstonAvailableInTreasury",
      "type": "error"
    },
    {
      "inputs": [],
      "name": "ReentrancyGuardReentrantCall",
      "type": "error"
    },
    {
      "inputs": [
        {
          "internalType": "address",
          "name": "token",
          "type": "address"
        }
      ],
      "name": "SafeERC20FailedOperation",
      "type": "error"
    },
    {
      "inputs": [],
      "name": "SameAdmin",
      "type": "error"
    },
    {
      "inputs": [],
      "name": "TonAddressIsNotSet",
      "type": "error"
    },
    {
      "inputs": [],
      "name": "UnsuffiscientTonBalance",
      "type": "error"
    },
    {
      "inputs": [],
      "name": "UnsuffiscientWstonBalance",
      "type": "error"
    },
    {
      "inputs": [],
      "name": "WstonAddressIsNotSet",
      "type": "error"
    },
    {
      "inputs": [],
      "name": "ZeroAddress",
      "type": "error"
    },
    {
      "anonymous": false,
      "inputs": [
        {
          "indexed": true,
          "internalType": "bytes32",
          "name": "role",
          "type": "bytes32"
        },
        {
          "indexed": true,
          "internalType": "bytes32",
          "name": "previousAdminRole",
          "type": "bytes32"
        },
        {
          "indexed": true,
          "internalType": "bytes32",
          "name": "newAdminRole",
          "type": "bytes32"
        }
      ],
      "name": "RoleAdminChanged",
      "type": "event"
    },
    {
      "anonymous": false,
      "inputs": [
        {
          "indexed": true,
          "internalType": "bytes32",
          "name": "role",
          "type": "bytes32"
        },
        {
          "indexed": true,
          "internalType": "address",
          "name": "account",
          "type": "address"
        },
        {
          "indexed": true,
          "internalType": "address",
          "name": "sender",
          "type": "address"
        }
      ],
      "name": "RoleGranted",
      "type": "event"
    },
    {
      "anonymous": false,
      "inputs": [
        {
          "indexed": true,
          "internalType": "bytes32",
          "name": "role",
          "type": "bytes32"
        },
        {
          "indexed": true,
          "internalType": "address",
          "name": "account",
          "type": "address"
        },
        {
          "indexed": true,
          "internalType": "address",
          "name": "sender",
          "type": "address"
        }
      ],
      "name": "RoleRevoked",
      "type": "event"
    },
    {
      "inputs": [],
      "name": "ADMIN_ROLE",
      "outputs": [
        {
          "internalType": "bytes32",
          "name": "",
          "type": "bytes32"
        }
      ],
      "stateMutability": "view",
      "type": "function"
    },
    {
      "inputs": [],
      "name": "DEFAULT_ADMIN_ROLE",
      "outputs": [
        {
          "internalType": "bytes32",
          "name": "",
          "type": "bytes32"
        }
      ],
      "stateMutability": "view",
      "type": "function"
    },
    {
      "inputs": [],
      "name": "PAUSE_ROLE",
      "outputs": [
        {
          "internalType": "bytes32",
          "name": "",
          "type": "bytes32"
        }
      ],
      "stateMutability": "view",
      "type": "function"
    },
    {
      "inputs": [
        {
          "internalType": "address",
          "name": "account",
          "type": "address"
        }
      ],
      "name": "addAdmin",
      "outputs": [],
      "stateMutability": "nonpayable",
      "type": "function"
    },
    {
      "inputs": [
        {
          "internalType": "address",
          "name": "account",
          "type": "address"
        }
      ],
      "name": "addPauser",
      "outputs": [],
      "stateMutability": "nonpayable",
      "type": "function"
    },
    {
      "inputs": [
        {
          "internalType": "address",
          "name": "",
          "type": "address"
        }
      ],
      "name": "aliveImplementation",
      "outputs": [
        {
          "internalType": "bool",
          "name": "",
          "type": "bool"
        }
      ],
      "stateMutability": "view",
      "type": "function"
    },
    {
      "inputs": [
        {
          "internalType": "address",
          "name": "operator",
          "type": "address"
        },
        {
          "internalType": "uint256",
          "name": "_tokenId",
          "type": "uint256"
        }
      ],
      "name": "approveGem",
      "outputs": [],
      "stateMutability": "nonpayable",
      "type": "function"
    },
    {
      "inputs": [],
      "name": "approveGemFactory",
      "outputs": [],
      "stateMutability": "nonpayable",
      "type": "function"
    },
    {
      "inputs": [
        {
          "internalType": "uint256",
          "name": "amount",
          "type": "uint256"
        }
      ],
      "name": "approveWstonForMarketplace",
      "outputs": [],
      "stateMutability": "nonpayable",
      "type": "function"
    },
    {
      "inputs": [
        {
          "internalType": "uint256",
          "name": "_tokenId",
          "type": "uint256"
        },
        {
          "internalType": "bool",
          "name": "_paymentMethod",
          "type": "bool"
        }
      ],
      "name": "buyGem",
      "outputs": [],
      "stateMutability": "nonpayable",
      "type": "function"
    },
    {
      "inputs": [
        {
          "internalType": "enum GemFactoryStorage.Rarity",
          "name": "_rarity",
          "type": "uint8"
        },
        {
          "internalType": "uint8[2]",
          "name": "_color",
          "type": "uint8[2]"
        },
        {
          "internalType": "uint8[4]",
          "name": "_quadrants",
          "type": "uint8[4]"
        },
        {
          "internalType": "string",
          "name": "_tokenURI",
          "type": "string"
        }
      ],
      "name": "createPreminedGEM",
      "outputs": [
        {
          "internalType": "uint256",
          "name": "",
          "type": "uint256"
        }
      ],
      "stateMutability": "nonpayable",
      "type": "function"
    },
    {
      "inputs": [
        {
          "internalType": "enum GemFactoryStorage.Rarity[]",
          "name": "_rarities",
          "type": "uint8[]"
        },
        {
          "internalType": "uint8[2][]",
          "name": "_colors",
          "type": "uint8[2][]"
        },
        {
          "internalType": "uint8[4][]",
          "name": "_quadrants",
          "type": "uint8[4][]"
        },
        {
          "internalType": "string[]",
          "name": "_tokenURIs",
          "type": "string[]"
        }
      ],
      "name": "createPreminedGEMPool",
      "outputs": [
        {
          "internalType": "uint256[]",
          "name": "",
          "type": "uint256[]"
        }
      ],
      "stateMutability": "nonpayable",
      "type": "function"
    },
    {
      "inputs": [],
      "name": "getAirdropAddress",
      "outputs": [
        {
          "internalType": "address",
          "name": "",
          "type": "address"
        }
      ],
      "stateMutability": "view",
      "type": "function"
    },
    {
      "inputs": [],
      "name": "getGemFactoryAddress",
      "outputs": [
        {
          "internalType": "address",
          "name": "",
          "type": "address"
        }
      ],
      "stateMutability": "view",
      "type": "function"
    },
    {
      "inputs": [],
      "name": "getMarketPlaceAddress",
      "outputs": [
        {
          "internalType": "address",
          "name": "",
          "type": "address"
        }
      ],
      "stateMutability": "view",
      "type": "function"
    },
    {
      "inputs": [],
      "name": "getRandomPackAddress",
      "outputs": [
        {
          "internalType": "address",
          "name": "",
          "type": "address"
        }
      ],
      "stateMutability": "view",
      "type": "function"
    },
    {
      "inputs": [
        {
          "internalType": "bytes32",
          "name": "role",
          "type": "bytes32"
        }
      ],
      "name": "getRoleAdmin",
      "outputs": [
        {
          "internalType": "bytes32",
          "name": "",
          "type": "bytes32"
        }
      ],
      "stateMutability": "view",
      "type": "function"
    },
    {
      "inputs": [],
      "name": "getSwapPoolAddress",
      "outputs": [
        {
          "internalType": "address",
          "name": "",
          "type": "address"
        }
      ],
      "stateMutability": "view",
      "type": "function"
    },
    {
      "inputs": [],
      "name": "getTONBalance",
      "outputs": [
        {
          "internalType": "uint256",
          "name": "",
          "type": "uint256"
        }
      ],
      "stateMutability": "view",
      "type": "function"
    },
    {
      "inputs": [],
      "name": "getTonAddress",
      "outputs": [
        {
          "internalType": "address",
          "name": "",
          "type": "address"
        }
      ],
      "stateMutability": "view",
      "type": "function"
    },
    {
      "inputs": [],
      "name": "getWSTONBalance",
      "outputs": [
        {
          "internalType": "uint256",
          "name": "",
          "type": "uint256"
        }
      ],
      "stateMutability": "view",
      "type": "function"
    },
    {
      "inputs": [],
      "name": "getWstonAddress",
      "outputs": [
        {
          "internalType": "address",
          "name": "",
          "type": "address"
        }
      ],
      "stateMutability": "view",
      "type": "function"
    },
    {
      "inputs": [
        {
          "internalType": "bytes32",
          "name": "role",
          "type": "bytes32"
        },
        {
          "internalType": "address",
          "name": "account",
          "type": "address"
        }
      ],
      "name": "grantRole",
      "outputs": [],
      "stateMutability": "nonpayable",
      "type": "function"
    },
    {
      "inputs": [
        {
          "internalType": "bytes32",
          "name": "role",
          "type": "bytes32"
        },
        {
          "internalType": "address",
          "name": "account",
          "type": "address"
        }
      ],
      "name": "hasRole",
      "outputs": [
        {
          "internalType": "bool",
          "name": "",
          "type": "bool"
        }
      ],
      "stateMutability": "view",
      "type": "function"
    },
    {
      "inputs": [
        {
          "internalType": "address",
          "name": "_wston",
          "type": "address"
        },
        {
          "internalType": "address",
          "name": "_ton",
          "type": "address"
        },
        {
          "internalType": "address",
          "name": "_gemFactory",
          "type": "address"
        }
      ],
      "name": "initialize",
      "outputs": [],
      "stateMutability": "nonpayable",
      "type": "function"
    },
    {
      "inputs": [
        {
          "internalType": "address",
          "name": "account",
          "type": "address"
        }
      ],
      "name": "isAdmin",
      "outputs": [
        {
          "internalType": "bool",
          "name": "",
          "type": "bool"
        }
      ],
      "stateMutability": "view",
      "type": "function"
    },
    {
      "inputs": [],
      "name": "isOwner",
      "outputs": [
        {
          "internalType": "bool",
          "name": "",
          "type": "bool"
        }
      ],
      "stateMutability": "view",
      "type": "function"
    },
    {
      "inputs": [
        {
          "internalType": "address",
          "name": "",
          "type": "address"
        },
        {
          "internalType": "address",
          "name": "",
          "type": "address"
        },
        {
          "internalType": "uint256",
          "name": "",
          "type": "uint256"
        },
        {
          "internalType": "bytes",
          "name": "",
          "type": "bytes"
        }
      ],
      "name": "onERC721Received",
      "outputs": [
        {
          "internalType": "bytes4",
          "name": "",
          "type": "bytes4"
        }
      ],
      "stateMutability": "pure",
      "type": "function"
    },
    {
      "inputs": [],
      "name": "pause",
      "outputs": [],
      "stateMutability": "nonpayable",
      "type": "function"
    },
    {
      "inputs": [],
      "name": "pauseProxy",
      "outputs": [
        {
          "internalType": "bool",
          "name": "",
          "type": "bool"
        }
      ],
      "stateMutability": "view",
      "type": "function"
    },
    {
      "inputs": [
        {
          "internalType": "uint256",
          "name": "",
          "type": "uint256"
        }
      ],
      "name": "proxyImplementation",
      "outputs": [
        {
          "internalType": "address",
          "name": "",
          "type": "address"
        }
      ],
      "stateMutability": "view",
      "type": "function"
    },
    {
      "inputs": [
        {
          "internalType": "uint256",
          "name": "_tokenId",
          "type": "uint256"
        },
        {
          "internalType": "uint256",
          "name": "_price",
          "type": "uint256"
        }
      ],
      "name": "putGemForSale",
      "outputs": [],
      "stateMutability": "nonpayable",
      "type": "function"
    },
    {
      "inputs": [
        {
          "internalType": "uint256[]",
          "name": "tokenIds",
          "type": "uint256[]"
        },
        {
          "internalType": "uint256[]",
          "name": "prices",
          "type": "uint256[]"
        }
      ],
      "name": "putGemListForSale",
      "outputs": [],
      "stateMutability": "nonpayable",
      "type": "function"
    },
    {
      "inputs": [
        {
          "internalType": "address",
          "name": "account",
          "type": "address"
        }
      ],
      "name": "removeAdmin",
      "outputs": [],
      "stateMutability": "nonpayable",
      "type": "function"
    },
    {
      "inputs": [
        {
          "internalType": "uint256",
          "name": "_tokenId",
          "type": "uint256"
        }
      ],
      "name": "removeGemFromSale",
      "outputs": [],
      "stateMutability": "nonpayable",
      "type": "function"
    },
    {
      "inputs": [
        {
          "internalType": "address",
          "name": "account",
          "type": "address"
        }
      ],
      "name": "removePauser",
      "outputs": [],
      "stateMutability": "nonpayable",
      "type": "function"
    },
    {
      "inputs": [],
      "name": "renounceOwnership",
      "outputs": [],
      "stateMutability": "nonpayable",
      "type": "function"
    },
    {
      "inputs": [
        {
          "internalType": "bytes32",
          "name": "role",
          "type": "bytes32"
        },
        {
          "internalType": "address",
          "name": "callerConfirmation",
          "type": "address"
        }
      ],
      "name": "renounceRole",
      "outputs": [],
      "stateMutability": "nonpayable",
      "type": "function"
    },
    {
      "inputs": [
        {
          "internalType": "bytes32",
          "name": "role",
          "type": "bytes32"
        },
        {
          "internalType": "address",
          "name": "account",
          "type": "address"
        }
      ],
      "name": "revokeRole",
      "outputs": [],
      "stateMutability": "nonpayable",
      "type": "function"
    },
    {
      "inputs": [
        {
          "internalType": "bytes4",
          "name": "",
          "type": "bytes4"
        }
      ],
      "name": "selectorImplementation",
      "outputs": [
        {
          "internalType": "address",
          "name": "",
          "type": "address"
        }
      ],
      "stateMutability": "view",
      "type": "function"
    },
    {
      "inputs": [
        {
          "internalType": "address",
          "name": "_airdrop",
          "type": "address"
        }
      ],
      "name": "setAirdrop",
      "outputs": [],
      "stateMutability": "nonpayable",
      "type": "function"
    },
    {
      "inputs": [
        {
          "internalType": "address",
          "name": "_gemFactory",
          "type": "address"
        }
      ],
      "name": "setGemFactory",
      "outputs": [],
      "stateMutability": "nonpayable",
      "type": "function"
    },
    {
      "inputs": [
        {
          "internalType": "address",
          "name": "marketplace",
          "type": "address"
        }
      ],
      "name": "setMarketPlace",
      "outputs": [],
      "stateMutability": "nonpayable",
      "type": "function"
    },
    {
      "inputs": [
        {
          "internalType": "address",
          "name": "_randomPack",
          "type": "address"
        }
      ],
      "name": "setRandomPack",
      "outputs": [],
      "stateMutability": "nonpayable",
      "type": "function"
    },
    {
      "inputs": [
        {
          "internalType": "address",
          "name": "_wstonSwapPool",
          "type": "address"
        }
      ],
      "name": "setWstonSwapPool",
      "outputs": [],
      "stateMutability": "nonpayable",
      "type": "function"
    },
    {
      "inputs": [
        {
          "internalType": "bytes4",
          "name": "interfaceId",
          "type": "bytes4"
        }
      ],
      "name": "supportsInterface",
      "outputs": [
        {
          "internalType": "bool",
          "name": "",
          "type": "bool"
        }
      ],
      "stateMutability": "view",
      "type": "function"
    },
    {
      "inputs": [
        {
          "internalType": "uint256",
          "name": "tonAmount",
          "type": "uint256"
        }
      ],
      "name": "swapTONforWSTON",
      "outputs": [],
      "stateMutability": "nonpayable",
      "type": "function"
    },
    {
      "inputs": [],
      "name": "tonApproveMarketPlace",
      "outputs": [],
      "stateMutability": "nonpayable",
      "type": "function"
    },
    {
      "inputs": [],
      "name": "tonApproveWstonSwapPool",
      "outputs": [],
      "stateMutability": "nonpayable",
      "type": "function"
    },
    {
      "inputs": [
        {
          "internalType": "address",
          "name": "newAdmin",
          "type": "address"
        }
      ],
      "name": "transferAdmin",
      "outputs": [],
      "stateMutability": "nonpayable",
      "type": "function"
    },
    {
      "inputs": [
        {
          "internalType": "address",
          "name": "newAdmin",
          "type": "address"
        }
      ],
      "name": "transferOwnership",
      "outputs": [],
      "stateMutability": "nonpayable",
      "type": "function"
    },
    {
      "inputs": [
        {
          "internalType": "address",
          "name": "_to",
          "type": "address"
        },
        {
          "internalType": "uint256",
          "name": "_amount",
          "type": "uint256"
        }
      ],
      "name": "transferTON",
      "outputs": [
        {
          "internalType": "bool",
          "name": "",
          "type": "bool"
        }
      ],
      "stateMutability": "nonpayable",
      "type": "function"
    },
    {
      "inputs": [
        {
          "internalType": "address",
          "name": "_to",
          "type": "address"
        },
        {
          "internalType": "uint256",
          "name": "_tokenId",
          "type": "uint256"
        }
      ],
      "name": "transferTreasuryGEMto",
      "outputs": [
        {
          "internalType": "bool",
          "name": "",
          "type": "bool"
        }
      ],
      "stateMutability": "nonpayable",
      "type": "function"
    },
    {
      "inputs": [
        {
          "internalType": "address",
          "name": "_to",
          "type": "address"
        },
        {
          "internalType": "uint256",
          "name": "_amount",
          "type": "uint256"
        }
      ],
      "name": "transferWSTON",
      "outputs": [
        {
          "internalType": "bool",
          "name": "",
          "type": "bool"
        }
      ],
      "stateMutability": "nonpayable",
      "type": "function"
    },
    {
      "inputs": [],
      "name": "unpause",
      "outputs": [],
      "stateMutability": "nonpayable",
      "type": "function"
    },
    {
      "inputs": [],
      "name": "wstonApproveMarketPlace",
      "outputs": [],
      "stateMutability": "nonpayable",
      "type": "function"
    }
  ],
  "bytecode": "0x60808060405234606557600160048190556301ffc9a760e01b60005260056020527fc01909ce2b517f8cd3a46ae0cfde9179f9b675cf633d3d84c8226585cc73c156805460ff19169091179055600d805460ff60a01b19169055612f3e908161006b8239f35b600080fdfe6080604052600436101561001257600080fd5b6000803560e01c80630169dc311461227657806301ffc9a71461224457806302424ed3146121a9578063044bc7791461218057806307db4470146120f35780630d727e2b14612073578063150b7a02146120095780631785f53c14611fdc57806320e641b714611f4f578063248a9ca314611f2257806324d7806c14611eca5780632ede643214611d5a5780632f2ff15d14611d1c57806330568a8d14611c8957806336568abe14611c53578063389ed26714611c2a5780633b22f11014611c0f5780633d007e5714611be65780633f4ba83a14611baa57806340e5854814611aee578063425c7fc2146113f657806348dbcef01461130857806350d2a276146112c3578063520aefae1461124a578063550d01a31461120b57806363a8fd89146111e9578063694eaa40146111c05780636ae638d0146111975780636b2c0f55146111475780636fcf2fc91461109f5780637048027514611051578063715018a61461102c57806372820dbc14610f9957806375829def14610f7f57806375b238fc14610f5657806379dbd79814610d8657806382dc1ec414610cf15780638456cb5914610caf5780638f32d59b14610c8a57806391005b0814610bb4578063912b431b146108ab57806391d148541461085f578063952377f31461083657806398d111b2146107775780639d541be21461074e578063a217fddf14610732578063b23a1d0d1461069f578063b911135f1461066c578063bae77ac914610649578063c0c53b8b14610579578063d547741f14610537578063e6147518146104a3578063ec23919a1461047a578063ec7ae61d146103c5578063ed8c2472146103325763f2fde38b1461028557600080fd5b3461032f57602036600319011261032f5761029e61236a565b6102ae6102a9612855565b612625565b6102b96102a9612855565b6001600160a01b038116801561031d57331461030b576102fe90600080516020612ea9833981519152835260066020526102f960016040852001546129fa565b612a3e565b5061030833612697565b80f35b6040516309cd70b960e21b8152600490fd5b60405163d92e233d60e01b8152600490fd5b80fd5b503461032f57602036600319011261032f5761034c61236a565b600080516020612ea983398151915282526006602052604082203360005260205260ff6040600020541680156103b2575b610386906125b1565b61038f816128e1565b600980546001600160a01b0319166001600160a01b039290921691909117905580f35b506103866103be612855565b905061037d565b503461032f57604036600319011261032f576103df61236a565b90604060243591600080516020612ea983398151915281526006602052203360005260205260ff604060002054168015610467575b61041d906125b1565b610426826128e1565b8061042f6126b3565b1061045557600c5461044a92906001600160a01b0316612903565b602060405160018152f35b60405163a5a9c2b760e01b8152600490fd5b5061041d610473612855565b9050610414565b503461032f578060031936011261032f576009546040516001600160a01b039091168152602090f35b503461032f57602036600319011261032f576104bd61236a565b600080516020612ea983398151915282526006602052604082203360005260205260ff604060002054168015610524575b6104f7906125b1565b600754906001600160a01b039061050f8284166128e1565b6001600160a01b031990921691161760075580f35b506104f7610530612855565b90506104ee565b503461032f57604036600319011261032f57610575600435610557612380565b90808452600660205261057060016040862001546129fa565b612d80565b5080f35b503461032f57606036600319011261032f5761059361236a565b61059b612380565b6044356001600160a01b03818116939092918490036106445760ff600d5460a81c166106095782906105cc33612b45565b5060018060a01b0319948560075416176007551683600b541617600b551690600c541617600c55600160a81b60ff60a81b19600d541617600d5580f35b60405162461bcd60e51b8152602060048201526013602482015272185b1c9958591e481a5b9a5d1a585b1a5e9959606a1b6044820152606490fd5b600080fd5b503461032f578060031936011261032f5760206106646128a3565b604051908152f35b503461032f57602036600319011261032f57602090600435815260018252604060018060a01b0391205416604051908152f35b503461032f57602036600319011261032f576106b961236a565b600080516020612ea983398151915282526006602052604082203360005260205260ff60406000205416801561071f575b6106f3906125b1565b6106fc816128e1565b600d80546001600160a01b0319166001600160a01b039290921691909117905580f35b506106f361072b612855565b90506106ea565b503461032f578060031936011261032f57602090604051908152f35b503461032f578060031936011261032f576007546040516001600160a01b039091168152602090f35b503461032f57602036600319011261032f57600080516020612ea983398151915281526006602052604081203360005260205260ff604060002054168015610823575b6107c3906125b1565b60085481906001600160a01b0316803b15610820578180916024604051809481936356d6b49360e11b835260043560048401525af18015610815576108055750f35b61080e90612396565b61032f5780f35b6040513d84823e3d90fd5b50fd5b506107c361082f612855565b90506107ba565b503461032f578060031936011261032f57600d546040516001600160a01b039091168152602090f35b503461032f57604036600319011261032f57604061087b612380565b9160043581526006602052209060018060a01b0316600052602052602060ff604060002054166040519015158152f35b503461032f57610100908160031936011261032f576004356006811015610bb0573660431215610644576040516108e1816123bf565b606481368211610644576024905b828210610b98575050503660831215610644576040519361090f856123da565b60e485368211610644576064905b828210610b805750505060e4356001600160401b038111610b7c57610946903690600401612456565b9060018060a01b0395866009541633148015610b6f575b8015610b5c575b61096d9061276b565b6109756128a3565b96600754169360405197630265f21b60e51b895260209889816004818a5afa908115610b51578991610b24575b50604051630b513d9960e01b8152906109be600483018a6127cf565b8a826024818b5afa908115610b19578a91610ae8575b6109de92506127f2565b11610ad657928794928792610a08979560405198899763975781b760e01b895260048901906127cf565b84602488015b60028210610ab6575050506064860184905b60048210610a9657505050610a43859392849260e4840152610104830190612815565b03925af1918215610a8a5791610a5d575b50604051908152f35b90508181813d8311610a83575b610a7481836123f5565b81010312610644575138610a54565b503d610a6a565b604051903d90823e3d90fd5b825160ff1681528b988a98508b9650928301926001929092019101610a20565b825160ff1681528c998b99508c9750928301926001929092019101610a0e565b60405163f2cd224d60e01b8152600490fd5b90508a82813d8311610b12575b610aff81836123f5565b81010312610644576109de9151906109d4565b503d610af5565b6040513d8c823e3d90fd5b90508981813d8311610b4a575b610b3b81836123f5565b810103126106445751386109a2565b503d610b31565b6040513d8b823e3d90fd5b5061096d610b68612855565b9050610964565b508660085416331461095d565b8480fd5b60208091610b8d8461242d565b81520191019061091d565b60208091610ba58461242d565b8152019101906108ef565b5080fd5b503461032f578060031936011261032f57600080516020612ea983398151915281526006602052604081203360005260205260ff604060002054168015610c77575b610bff906125b1565b80602060018060a01b03604481600b541691610c1a836128e1565b60085460405163095ea7b360e01b81529116600482015260001960248201529384928391905af1801561081557610c4f575080f35b6105759060203d602011610c70575b610c6881836123f5565b8101906125f2565b503d610c5e565b50610bff610c83612855565b9050610bf6565b503461032f578060031936011261032f576020610ca5612855565b6040519015158152f35b503461032f578060031936011261032f57610ccb6102a9612855565b600d54610cde60ff8260a01c161561272c565b60ff60a01b1916600160a01b17600d5580f35b503461032f57602036600319011261032f57610575610d0e61236a565b600080516020612ea983398151915283526006602052604083203360005260205260ff604060002054168015610d73575b610d48906125b1565b600080516020612e8983398151915283526006602052610d6e60016040852001546129fa565b612abb565b50610d48610d7f612855565b9050610d3f565b503461032f5780600319604036820112610820576001600160401b03600435818111610f5157610dba9036906004016124d1565b90602435908111610f5157610dd39036906004016124d1565b600080516020612ea983398151915284526006602052604084203360005260205260ff604060002054168015610f3e575b610e0d906125b1565b60075460085460405163e985e9c560e01b81526001600160a01b039283169183169060208180610e4185306004840161267d565b0381865afa908115610f33578891610f14575b5015610eb6575b505060085416803b15610b7c57610e96858094610ea560405197889687958694630f3b7af360e31b865260406004870152604486019061249d565b9184830301602485015261249d565b03925af18015610815576108055750f35b813b15610f1057869160448392604051948593849263a22cb46560e01b84526004840152600160248401525af1908115610f0557869115610e5b57610efa90612396565b610b7c578438610e5b565b6040513d88823e3d90fd5b8680fd5b610f2d915060203d602011610c7057610c6881836123f5565b38610e54565b6040513d8a823e3d90fd5b50610e0d610f4a612855565b9050610e04565b505050fd5b503461032f578060031936011261032f576020604051600080516020612ea98339815191528152f35b503461032f57602036600319011261032f576102ae61236a565b503461032f57602036600319011261032f57610fb361236a565b600080516020612ea983398151915282526006602052604082203360005260205260ff604060002054168015611019575b610fed906125b1565b610ff6816128e1565b600a80546001600160a01b0319166001600160a01b039290921691909117905580f35b50610fed611025612855565b9050610fe4565b503461032f578060031936011261032f576110486102a9612855565b61057533612ca3565b503461032f57602036600319011261032f5761057561106e61236a565b6110796102a9612855565b600080516020612ea9833981519152835260066020526102f960016040852001546129fa565b503461032f57604036600319011261032f57806110ba61236a565b600080516020612ea983398151915282526006602052604082203360005260205260ff604060002054168015611134575b6110f4906125b1565b6007546001600160a01b0316803b156111305760405163095ea7b360e01b81529183918391829084908290610ea590602435906004840161260a565b5050fd5b506110f4611140612855565b90506110eb565b503461032f57602036600319011261032f5761116161236a565b61116c6102a9612855565b336001600160a01b038216036111855761057590612c1b565b60405163334bd91960e11b8152600490fd5b503461032f578060031936011261032f57600c546040516001600160a01b039091168152602090f35b503461032f578060031936011261032f576008546040516001600160a01b039091168152602090f35b503461032f578060031936011261032f5760ff60209154166040519015158152f35b503461032f57602036600319011261032f5760209060ff906040906001600160a01b0361123661236a565b168152600284522054166040519015158152f35b503461032f578060031936011261032f57600080516020612ea983398151915281526006602052604081203360005260205260ff6040600020541680156112b0575b611295906125b1565b80602060018060a01b03604481600c541691610c1a836128e1565b506112956112bc612855565b905061128c565b503461032f57602036600319011261032f5760043563ffffffff60e01b8116809103610bb05790602091815260038252604060018060a01b0391205416604051908152f35b503461032f57604036600319011261032f5761132261236a565b6007546001600160a01b039081169183919033841480156113e9575b80156113dc575b80156113cf575b80156113bc575b61135c90612531565b833b156113b8576064908360405195869485936323b872dd60e01b855230600486015216602484015260243560448401525af18015610815576113a457602060405160018152f35b6113ae8291612396565b61032f578061044a565b8280fd5b5061135c6113c8612855565b9050611353565b5081600a5416331461134c565b5081600954163314611345565b508160085416331461133e565b503461032f57608036600319011261032f57600435906001600160401b03821161032f573660238301121561032f5781600401359061143482612416565b9261144260405194856123f5565b82845260208401906024829460051b8201019036821161187357602401915b818310611ad557505050602435926001600160401b038411610bb05736602385011215610bb05783600401359061149782612416565b916114a560405193846123f5565b808352602083019081963660248360061b83010111611ad15760248101925b60248360061b8301018410611a7757505050506001600160401b03604435116113b8573660236044350112156113b857604435600401359461150586612416565b9561151360405197886123f5565b8087526020870180913660248260071b604435010111610f1057602460443501915b60248260071b60443501018310611a1d575050506001600160401b0360643511610b7c57366023606435011215610b7c5761157560643560040135612416565b61158260405191826123f5565b6064356004013581526020810192833660246064356004013560051b606435010111611a1957602460643501905b60246064356004013560051b606435010182106119e55750506009546001600160a01b0316331480156119d1575b80156119be575b6115f2909996989961276b565b600754969889976001600160a01b03169690885b87518c10156116bc5760208c60051b8901015160068110156116a857604051630b513d9960e01b81529061163e9060048301906127cf565b6020816024818d5afa90811561169d578b9161166a575b50611662906001926127f2565b9b019a611606565b90506020813d602011611695575b81611685602093836123f5565b8101031261064457516001611655565b3d9150611678565b6040513d8d823e3d90fd5b634e487b7160e01b8b52602160045260248bfd5b8a9098979860046116cb6128a3565b9160208b60405193848092630265f21b60e51b82525afa80156119b3578d9061197f575b6116f992506127f2565b11610ad657979593918997959391604051998a98630ff1ac6760e01b8a5260848a0190608060048c01525180915260a48a0192908b5b81811061194a575050506020906003198a84030160248b01525191828152019290895b8181106118f8575050506020906003198884030160448901525191828152019290875b8181106118aa5750505060031985830301606486015251808252602082019160208260051b820101939287915b8383106118775750505050508383809203925af19081156108155782916117de575b604051602080825281906117da9082018561249d565b0390f35b90503d8083833e6117ef81836123f5565b8101906020818303126113b8578051906001600160401b038211611873570181601f820112156113b85780519061182582612416565b9361183360405195866123f5565b82855260208086019360051b83010193841161032f5750602001905b828210611863575050506117da90826117c4565b815181526020918201910161184f565b8380fd5b9295975092955092602080611898600193601f198682030187528951612815565b970193019301879593899795926117a2565b929496509290809597505181908a915b600483106118df57505050602060806001920195019101908896949288969492611775565b60208060019260ff8551168152019201920191906118ba565b9294969850929080959799505181908c915b6002831061193157505050602060406001920195019101908a989694928a98969492611752565b60208060019260ff85511681520192019201919061190a565b929496989a5092819597999b506020816119688293600195516127cf565b0195019101908c9a989694928c9a9896949261172f565b506020823d6020116119ab575b81611999602093836123f5565b81010312610644576116f991516116ef565b3d915061198c565b6040513d8f823e3d90fd5b506115f26119ca612855565b90506115e5565b506008546001600160a01b031633146115de565b6001600160401b03823511611a155760208091611a0a36602486356064350101612456565b8152019101906115b0565b8880fd5b8780fd5b36601f8401121561064457604051611a34816123da565b803660808601116106445784905b608086018210611a5f575050815260809290920191602001611535565b60208091611a6c8461242d565b815201910190611a42565b36601f8501121561064457604051611a8e816123bf565b803660408701116106445785905b604087018210611ab95750508152604093909301926020016114c4565b60208091611ac68461242d565b815201910190611a9c565b8580fd5b82356006811015610b7c57815260209283019201611461565b503461032f57602036600319011261032f576008546001600160a01b0390811633819003611b5557611b436020918493600b54169060405194858094819363095ea7b360e01b8352600435906004840161260a565b03925af1801561081557610c4f575080f35b60405162461bcd60e51b815260206004820152602760248201527f63616c6c657220697320206e6f7420746865206d61726b6574706c61636520636044820152661bdb9d1c9858dd60ca1b6064820152608490fd5b503461032f578060031936011261032f57611bc66102a9612855565b600d54611bd960ff8260a01c161561272c565b60ff60a01b1916600d5580f35b503461032f578060031936011261032f57600a546040516001600160a01b039091168152602090f35b503461032f578060031936011261032f5760206106646126b3565b503461032f578060031936011261032f576020604051600080516020612e898339815191528152f35b503461032f57604036600319011261032f57611c6d612380565b336001600160a01b038216036111855761057590600435612d80565b503461032f57602036600319011261032f57611ca361236a565b600080516020612ea983398151915282526006602052604082203360005260205260ff604060002054168015611d09575b611cdd906125b1565b611ce6816128e1565b600880546001600160a01b0319166001600160a01b039290921691909117905580f35b50611cdd611d15612855565b9050611cd4565b503461032f57604036600319011261032f57610575600435611d3c612380565b908084526006602052611d5560016040862001546129fa565b612bb2565b503461032f57604036600319011261032f57600080516020612ea983398151915281526006602052604081203360005260205260ff604060002054168015611eb7575b611da6906125b1565b8060018060a01b038060075416816008541660405163e985e9c560e01b815260208180611dd785306004840161267d565b0381865afa908115611eac578591611e8d575b5015611e33575b505060085416803b156108205781809160446040518094819363176f321960e11b8352600435600484015260243560248401525af18015610815576108055750f35b813b15610f5157839160448392604051948593849263a22cb46560e01b84526004840152600160248401525af1908115611e8257839115611df157611e7790612396565b610820578138611df1565b6040513d85823e3d90fd5b611ea6915060203d602011610c7057610c6881836123f5565b38611dea565b6040513d87823e3d90fd5b50611da6611ec3612855565b9050611d9d565b503461032f57602036600319011261032f576040611ee661236a565b91600080516020612ea983398151915281526006602052209060018060a01b0316600052602052602060ff604060002054166040519015158152f35b503461032f57602036600319011261032f5760016040602092600435815260068452200154604051908152f35b503461032f578060031936011261032f57611f6933612878565b8015611fc9575b611f79906125b1565b80602060018060a01b03604481600c541691611f94836128e1565b600d5460405163095ea7b360e01b81529116600482015260001960248201529384928391905af1801561081557610c4f575080f35b50611f79611fd5612855565b9050611f70565b503461032f57602036600319011261032f57610308611ff961236a565b6120046102a9612855565b612697565b503461032f57608036600319011261032f5761202361236a565b5061202c612380565b506064356001600160401b038082116113b857366023830112156113b85781600401359081116113b8573691016024011161032f57604051630a85bd0160e11b8152602090f35b503461032f57602036600319011261032f5761208e33612878565b80156120e0575b61209e906125b1565b600d5481906001600160a01b0316803b1561082057818091602460405180948193630d727e2b60e01b835260043560048401525af18015610815576108055750f35b5061209e6120ec612855565b9050612095565b503461032f578060031936011261032f5761210d33612878565b801561216d575b61211d906125b1565b80602060018060a01b03604481600b541691612138836128e1565b60075460405163095ea7b360e01b81529116600482015260001960248201529384928391905af1801561081557610c4f575080f35b5061211d612179612855565b9050612114565b503461032f578060031936011261032f57600b546040516001600160a01b039091168152602090f35b503461032f57604036600319011261032f5780602435801515809103610820576121d233612878565b8015612231575b6121e2906125b1565b6008546001600160a01b0316803b15611130576044839260405194859384926302424ed360e01b8452600435600485015260248401525af1801561081557612228575080f35b61030890612396565b506121e261223d612855565b90506121d9565b503461032f57602036600319011261032f57600435906001600160e01b03198216820361032f576020610ca5836129ce565b503461032f57604036600319011261032f5761229061236a565b6007546001600160a01b03916024359183163314801561235d575b8015612350575b8015612343575b8015612330575b6122c990612531565b60026004541461231e5760026004556122e1816128e1565b816122ea6128a3565b1061230c576122fc92600b5416612903565b6001600455602060405160018152f35b604051638e85197360e01b8152600490fd5b604051633ee5aeb560e01b8152600490fd5b506122c961233c612855565b90506122c0565b5082600a541633146122b9565b50826009541633146122b2565b50826008541633146122ab565b600435906001600160a01b038216820361064457565b602435906001600160a01b038216820361064457565b6001600160401b0381116123a957604052565b634e487b7160e01b600052604160045260246000fd5b604081019081106001600160401b038211176123a957604052565b608081019081106001600160401b038211176123a957604052565b90601f801991011681019081106001600160401b038211176123a957604052565b6001600160401b0381116123a95760051b60200190565b359060ff8216820361064457565b6001600160401b0381116123a957601f01601f191660200190565b81601f820112156106445780359061246d8261243b565b9261247b60405194856123f5565b8284526020838301011161064457816000926020809301838601378301015290565b90815180825260208080930193019160005b8281106124bd575050505090565b8351855293810193928101926001016124af565b9080601f830112156106445760209082356124eb81612416565b936124f960405195866123f5565b81855260208086019260051b82010192831161064457602001905b828210612522575050505090565b81358152908301908301612514565b1561253857565b60405162461bcd60e51b815260206004820152604560248201527f63616c6c6572206973206e656974686572204f776e6572206e6f722047656d4660448201527f6163746f7279206e6f72204d61726b6574506c616365206e6f722052616e646f6064820152646d5061636b60d81b608482015260a490fd5b156125b857565b60405162461bcd60e51b81526020600482015260126024820152713737ba1027bbb732b91037b91020b236b4b760711b6044820152606490fd5b90816020910312610644575180151581036106445790565b6001600160a01b039091168152602081019190915260400190565b1561262c57565b60405162461bcd60e51b8152602060048201526024808201527f41757468436f6e74726f6c3a2043616c6c6572206973206e6f7420746865206f6044820152633bb732b960e11b6064820152608490fd5b6001600160a01b0391821681529116602082015260400190565b336001600160a01b03821603611185576126b090612d0a565b50565b600c546040516370a0823160e01b815230600482015290602090829060249082906001600160a01b03165afa908115612720576000916126f1575090565b90506020813d602011612718575b8161270c602093836123f5565b81010312610644575190565b3d91506126ff565b6040513d6000823e3d90fd5b1561273357565b60405162461bcd60e51b815260206004820152601060248201526f14185d5cd8589b194e881c185d5cd95960821b6044820152606490fd5b1561277257565b60405162461bcd60e51b815260206004820152602f60248201527f63616c6c6572206973206e656974686572206f776e6572206e6f722072616e6460448201526e1bdb541858dac818dbdb9d1c9858dd608a1b6064820152608490fd5b9060068210156127dc5752565b634e487b7160e01b600052602160045260246000fd5b919082018092116127ff57565b634e487b7160e01b600052601160045260246000fd5b919082519283825260005b848110612841575050826000602080949584010152601f8019910116010190565b602081830181015184830182015201612820565b336000908152600080516020612ee9833981519152602052604090205460ff1690565b6001600160a01b03166000908152600080516020612e69833981519152602052604090205460ff1690565b600b546040516370a0823160e01b815230600482015290602090829060249082906001600160a01b03165afa908115612720576000916126f1575090565b6001600160a01b0316156128f157565b60405163e6c4247b60e01b8152600490fd5b600061297d92819261293e61293096604051978891602083019563a9059cbb60e01b87526024840161260a565b03601f1981018852876123f5565b60018060a01b031694519082865af13d156129c6573d9061295e8261243b565b9161296c60405193846123f5565b82523d6000602084013e5b83612de5565b80519081151591826129ab575b50506129935750565b60249060405190635274afe760e01b82526004820152fd5b6129be92506020809183010191016125f2565b15388061298a565b606090612977565b6001600160e01b03198116637965db0b60e01b149081156129ed575090565b6129f791506129ce565b90565b80600052600660205260406000203360005260205260ff6040600020541615612a205750565b6044906040519063e2517d3f60e01b82523360048301526024820152fd5b6001600160a01b03166000818152600080516020612e698339815191526020526040812054909190600080516020612ea98339815191529060ff16612ab65780835260066020526040832082845260205260408320600160ff19825416179055600080516020612e49833981519152339380a4600190565b505090565b6001600160a01b031660008181527f1f8dd7b22d148f841c713baeaaa6d87f64519d51ae5db1519f67dc96623cc8d86020526040812054909190600080516020612e898339815191529060ff16612ab65780835260066020526040832082845260205260408320600160ff19825416179055600080516020612e49833981519152339380a4600190565b6001600160a01b03166000818152600080516020612ee9833981519152602052604081205490919060ff16612bae5781805260066020526040822081835260205260408220600160ff198254161790553391600080516020612e498339815191528180a4600190565b5090565b906000918083526006602052604083209160018060a01b03169182845260205260ff60408420541615600014612ab65780835260066020526040832082845260205260408320600160ff19825416179055600080516020612e49833981519152339380a4600190565b6001600160a01b031660008181527f1f8dd7b22d148f841c713baeaaa6d87f64519d51ae5db1519f67dc96623cc8d86020526040812054909190600080516020612e898339815191529060ff1615612ab6578083526006602052604083208284526020526040832060ff198154169055600080516020612ec9833981519152339380a4600190565b6001600160a01b03166000818152600080516020612ee9833981519152602052604081205490919060ff1615612bae578180526006602052604082208183526020526040822060ff1981541690553391600080516020612ec98339815191528180a4600190565b6001600160a01b03166000818152600080516020612e698339815191526020526040812054909190600080516020612ea98339815191529060ff1615612ab6578083526006602052604083208284526020526040832060ff198154169055600080516020612ec9833981519152339380a4600190565b906000918083526006602052604083209160018060a01b03169182845260205260ff604084205416600014612ab6578083526006602052604083208284526020526040832060ff198154169055600080516020612ec9833981519152339380a4600190565b90612e0c5750805115612dfa57805190602001fd5b604051630a12f52160e11b8152600490fd5b81511580612e3f575b612e1d575090565b604051639996b31560e01b81526001600160a01b039091166004820152602490fd5b50803b15612e1556fe2f8788117e7eff1d82e926ec794901d17c78024a50270940304540a733656f0d31f4bc5980931cfff8fcc0887a354f492c853dee1983bdef4d9cb3e8a5ff876efcb9fcbfa83b897fb2d5cf4b58962164105c1e71489a37ef3ae0db3fdce576f6df8b4c520ffe197c5343c6f5aec59570151ef9a492f2c624fd45ddde6135ec42f6391f5c32d9c69d2a47ea670b442974b53935d1edc7fd64eb21e047a839171b54cdd369e4e8a8515e52ca72ec816c2101831ad1f18bf44102ed171459c9b4f8a26469706673582212203d3637155029fa0dd2274e839a8b4a6e81b2fb54183a4f4800ac9125e19598da64736f6c63430008190033",
  "linkReferences": {},
  "deployedLinkReferences": {}
}