{
  "_format": "hh-sol-artifact-1",
  "contractName": "Treasury",
  "sourceName": "src/L2/Treasury.sol",
  "abi": [
    {
      "inputs": [
        {
          "internalType": "address",
          "name": "_wston",
          "type": "address"
        },
        {
          "internalType": "address",
          "name": "_ton",
          "type": "address"
        },
        {
          "internalType": "address",
          "name": "_gemFactory",
          "type": "address"
        }
      ],
      "stateMutability": "nonpayable",
      "type": "constructor"
    },
    {
      "inputs": [],
      "name": "AccessControlBadConfirmation",
      "type": "error"
    },
    {
      "inputs": [
        {
          "internalType": "address",
          "name": "account",
          "type": "address"
        },
        {
          "internalType": "bytes32",
          "name": "neededRole",
          "type": "bytes32"
        }
      ],
      "name": "AccessControlUnauthorizedAccount",
      "type": "error"
    },
    {
      "inputs": [
        {
          "internalType": "address",
          "name": "target",
          "type": "address"
        }
      ],
      "name": "AddressEmptyCode",
      "type": "error"
    },
    {
      "inputs": [
        {
          "internalType": "address",
          "name": "account",
          "type": "address"
        }
      ],
      "name": "AddressInsufficientBalance",
      "type": "error"
    },
    {
      "inputs": [],
      "name": "FailedInnerCall",
      "type": "error"
    },
    {
      "inputs": [],
      "name": "ReentrancyGuardReentrantCall",
      "type": "error"
    },
    {
      "inputs": [
        {
          "internalType": "address",
          "name": "token",
          "type": "address"
        }
      ],
      "name": "SafeERC20FailedOperation",
      "type": "error"
    },
    {
      "anonymous": false,
      "inputs": [
        {
          "indexed": true,
          "internalType": "bytes32",
          "name": "role",
          "type": "bytes32"
        },
        {
          "indexed": true,
          "internalType": "bytes32",
          "name": "previousAdminRole",
          "type": "bytes32"
        },
        {
          "indexed": true,
          "internalType": "bytes32",
          "name": "newAdminRole",
          "type": "bytes32"
        }
      ],
      "name": "RoleAdminChanged",
      "type": "event"
    },
    {
      "anonymous": false,
      "inputs": [
        {
          "indexed": true,
          "internalType": "bytes32",
          "name": "role",
          "type": "bytes32"
        },
        {
          "indexed": true,
          "internalType": "address",
          "name": "account",
          "type": "address"
        },
        {
          "indexed": true,
          "internalType": "address",
          "name": "sender",
          "type": "address"
        }
      ],
      "name": "RoleGranted",
      "type": "event"
    },
    {
      "anonymous": false,
      "inputs": [
        {
          "indexed": true,
          "internalType": "bytes32",
          "name": "role",
          "type": "bytes32"
        },
        {
          "indexed": true,
          "internalType": "address",
          "name": "account",
          "type": "address"
        },
        {
          "indexed": true,
          "internalType": "address",
          "name": "sender",
          "type": "address"
        }
      ],
      "name": "RoleRevoked",
      "type": "event"
    },
    {
      "inputs": [],
      "name": "ADMIN_ROLE",
      "outputs": [
        {
          "internalType": "bytes32",
          "name": "",
          "type": "bytes32"
        }
      ],
      "stateMutability": "view",
      "type": "function"
    },
    {
      "inputs": [],
      "name": "DEFAULT_ADMIN_ROLE",
      "outputs": [
        {
          "internalType": "bytes32",
          "name": "",
          "type": "bytes32"
        }
      ],
      "stateMutability": "view",
      "type": "function"
    },
    {
      "inputs": [],
      "name": "PAUSE_ROLE",
      "outputs": [
        {
          "internalType": "bytes32",
          "name": "",
          "type": "bytes32"
        }
      ],
      "stateMutability": "view",
      "type": "function"
    },
    {
      "inputs": [
        {
          "internalType": "address",
          "name": "account",
          "type": "address"
        }
      ],
      "name": "addAdmin",
      "outputs": [],
      "stateMutability": "nonpayable",
      "type": "function"
    },
    {
      "inputs": [
        {
          "internalType": "address",
          "name": "account",
          "type": "address"
        }
      ],
      "name": "addPauser",
      "outputs": [],
      "stateMutability": "nonpayable",
      "type": "function"
    },
    {
      "inputs": [],
      "name": "approveGemFactory",
      "outputs": [],
      "stateMutability": "nonpayable",
      "type": "function"
    },
    {
      "inputs": [
        {
          "internalType": "uint256",
          "name": "_tokenId",
          "type": "uint256"
        },
        {
          "internalType": "bool",
          "name": "_paymentMethod",
          "type": "bool"
        }
      ],
      "name": "buyGem",
      "outputs": [],
      "stateMutability": "nonpayable",
      "type": "function"
    },
    {
      "inputs": [
        {
          "internalType": "enum GemFactoryStorage.Rarity",
          "name": "_rarity",
          "type": "uint8"
        },
        {
          "internalType": "uint8[2]",
          "name": "_color",
          "type": "uint8[2]"
        },
        {
          "internalType": "uint8[4]",
          "name": "_quadrants",
          "type": "uint8[4]"
        },
        {
          "internalType": "string",
          "name": "_tokenURI",
          "type": "string"
        }
      ],
      "name": "createPreminedGEM",
      "outputs": [
        {
          "internalType": "uint256",
          "name": "",
          "type": "uint256"
        }
      ],
      "stateMutability": "nonpayable",
      "type": "function"
    },
    {
      "inputs": [
        {
          "internalType": "enum GemFactoryStorage.Rarity[]",
          "name": "_rarities",
          "type": "uint8[]"
        },
        {
          "internalType": "uint8[2][]",
          "name": "_colors",
          "type": "uint8[2][]"
        },
        {
          "internalType": "uint8[4][]",
          "name": "_quadrants",
          "type": "uint8[4][]"
        },
        {
          "internalType": "string[]",
          "name": "_tokenURIs",
          "type": "string[]"
        }
      ],
      "name": "createPreminedGEMPool",
      "outputs": [
        {
          "internalType": "uint256[]",
          "name": "",
          "type": "uint256[]"
        }
      ],
      "stateMutability": "nonpayable",
      "type": "function"
    },
    {
      "inputs": [],
      "name": "getGemFactoryAddress",
      "outputs": [
        {
          "internalType": "address",
          "name": "",
          "type": "address"
        }
      ],
      "stateMutability": "view",
      "type": "function"
    },
    {
      "inputs": [],
      "name": "getRandomPackAddress",
      "outputs": [
        {
          "internalType": "address",
          "name": "",
          "type": "address"
        }
      ],
      "stateMutability": "view",
      "type": "function"
    },
    {
      "inputs": [
        {
          "internalType": "bytes32",
          "name": "role",
          "type": "bytes32"
        }
      ],
      "name": "getRoleAdmin",
      "outputs": [
        {
          "internalType": "bytes32",
          "name": "",
          "type": "bytes32"
        }
      ],
      "stateMutability": "view",
      "type": "function"
    },
    {
      "inputs": [],
      "name": "getTONBalance",
      "outputs": [
        {
          "internalType": "uint256",
          "name": "",
          "type": "uint256"
        }
      ],
      "stateMutability": "view",
      "type": "function"
    },
    {
      "inputs": [],
      "name": "getWSTONBalance",
      "outputs": [
        {
          "internalType": "uint256",
          "name": "",
          "type": "uint256"
        }
      ],
      "stateMutability": "view",
      "type": "function"
    },
    {
      "inputs": [
        {
          "internalType": "bytes32",
          "name": "role",
          "type": "bytes32"
        },
        {
          "internalType": "address",
          "name": "account",
          "type": "address"
        }
      ],
      "name": "grantRole",
      "outputs": [],
      "stateMutability": "nonpayable",
      "type": "function"
    },
    {
      "inputs": [
        {
          "internalType": "bytes32",
          "name": "role",
          "type": "bytes32"
        },
        {
          "internalType": "address",
          "name": "account",
          "type": "address"
        }
      ],
      "name": "hasRole",
      "outputs": [
        {
          "internalType": "bool",
          "name": "",
          "type": "bool"
        }
      ],
      "stateMutability": "view",
      "type": "function"
    },
    {
      "inputs": [
        {
          "internalType": "address",
          "name": "account",
          "type": "address"
        }
      ],
      "name": "isAdmin",
      "outputs": [
        {
          "internalType": "bool",
          "name": "",
          "type": "bool"
        }
      ],
      "stateMutability": "view",
      "type": "function"
    },
    {
      "inputs": [],
      "name": "isOwner",
      "outputs": [
        {
          "internalType": "bool",
          "name": "",
          "type": "bool"
        }
      ],
      "stateMutability": "view",
      "type": "function"
    },
    {
      "inputs": [
        {
          "internalType": "address",
          "name": "",
          "type": "address"
        },
        {
          "internalType": "address",
          "name": "",
          "type": "address"
        },
        {
          "internalType": "uint256",
          "name": "",
          "type": "uint256"
        },
        {
          "internalType": "bytes",
          "name": "",
          "type": "bytes"
        }
      ],
      "name": "onERC721Received",
      "outputs": [
        {
          "internalType": "bytes4",
          "name": "",
          "type": "bytes4"
        }
      ],
      "stateMutability": "pure",
      "type": "function"
    },
    {
      "inputs": [
        {
          "internalType": "uint256",
          "name": "_tokenId",
          "type": "uint256"
        },
        {
          "internalType": "uint256",
          "name": "_price",
          "type": "uint256"
        }
      ],
      "name": "putGemForSale",
      "outputs": [],
      "stateMutability": "nonpayable",
      "type": "function"
    },
    {
      "inputs": [
        {
          "internalType": "uint256[]",
          "name": "tokenIds",
          "type": "uint256[]"
        },
        {
          "internalType": "uint256[]",
          "name": "prices",
          "type": "uint256[]"
        }
      ],
      "name": "putGemListForSale",
      "outputs": [],
      "stateMutability": "nonpayable",
      "type": "function"
    },
    {
      "inputs": [
        {
          "internalType": "address",
          "name": "account",
          "type": "address"
        }
      ],
      "name": "removeAdmin",
      "outputs": [],
      "stateMutability": "nonpayable",
      "type": "function"
    },
    {
      "inputs": [
        {
          "internalType": "uint256",
          "name": "_tokenId",
          "type": "uint256"
        }
      ],
      "name": "removeGemFromSale",
      "outputs": [],
      "stateMutability": "nonpayable",
      "type": "function"
    },
    {
      "inputs": [
        {
          "internalType": "address",
          "name": "account",
          "type": "address"
        }
      ],
      "name": "removePauser",
      "outputs": [],
      "stateMutability": "nonpayable",
      "type": "function"
    },
    {
      "inputs": [],
      "name": "renounceOwnership",
      "outputs": [],
      "stateMutability": "nonpayable",
      "type": "function"
    },
    {
      "inputs": [
        {
          "internalType": "bytes32",
          "name": "role",
          "type": "bytes32"
        },
        {
          "internalType": "address",
          "name": "callerConfirmation",
          "type": "address"
        }
      ],
      "name": "renounceRole",
      "outputs": [],
      "stateMutability": "nonpayable",
      "type": "function"
    },
    {
      "inputs": [
        {
          "internalType": "bytes32",
          "name": "role",
          "type": "bytes32"
        },
        {
          "internalType": "address",
          "name": "account",
          "type": "address"
        }
      ],
      "name": "revokeRole",
      "outputs": [],
      "stateMutability": "nonpayable",
      "type": "function"
    },
    {
      "inputs": [
        {
          "internalType": "address",
          "name": "_gemFactory",
          "type": "address"
        }
      ],
      "name": "setGemFactory",
      "outputs": [],
      "stateMutability": "nonpayable",
      "type": "function"
    },
    {
      "inputs": [
        {
          "internalType": "address",
          "name": "marketplace",
          "type": "address"
        }
      ],
      "name": "setMarketPlace",
      "outputs": [],
      "stateMutability": "nonpayable",
      "type": "function"
    },
    {
      "inputs": [
        {
          "internalType": "address",
          "name": "_randomPack",
          "type": "address"
        }
      ],
      "name": "setRandomPack",
      "outputs": [],
      "stateMutability": "nonpayable",
      "type": "function"
    },
    {
      "inputs": [
        {
          "internalType": "address",
          "name": "_wstonSwapPool",
          "type": "address"
        }
      ],
      "name": "setWstonSwapPool",
      "outputs": [],
      "stateMutability": "nonpayable",
      "type": "function"
    },
    {
      "inputs": [
        {
          "internalType": "bytes4",
          "name": "interfaceId",
          "type": "bytes4"
        }
      ],
      "name": "supportsInterface",
      "outputs": [
        {
          "internalType": "bool",
          "name": "",
          "type": "bool"
        }
      ],
      "stateMutability": "view",
      "type": "function"
    },
    {
      "inputs": [
        {
          "internalType": "uint256",
          "name": "tonAmount",
          "type": "uint256"
        }
      ],
      "name": "swapTONforWSTON",
      "outputs": [],
      "stateMutability": "nonpayable",
      "type": "function"
    },
    {
      "inputs": [],
      "name": "tonApproveMarketPlace",
      "outputs": [],
      "stateMutability": "nonpayable",
      "type": "function"
    },
    {
      "inputs": [],
      "name": "tonApproveWstonSwapPool",
      "outputs": [],
      "stateMutability": "nonpayable",
      "type": "function"
    },
    {
      "inputs": [
        {
          "internalType": "address",
          "name": "newAdmin",
          "type": "address"
        }
      ],
      "name": "transferAdmin",
      "outputs": [],
      "stateMutability": "nonpayable",
      "type": "function"
    },
    {
      "inputs": [
        {
          "internalType": "address",
          "name": "newAdmin",
          "type": "address"
        }
      ],
      "name": "transferOwnership",
      "outputs": [],
      "stateMutability": "nonpayable",
      "type": "function"
    },
    {
      "inputs": [
        {
          "internalType": "address",
          "name": "_to",
          "type": "address"
        },
        {
          "internalType": "uint256",
          "name": "_amount",
          "type": "uint256"
        }
      ],
      "name": "transferTON",
      "outputs": [
        {
          "internalType": "bool",
          "name": "",
          "type": "bool"
        }
      ],
      "stateMutability": "nonpayable",
      "type": "function"
    },
    {
      "inputs": [
        {
          "internalType": "address",
          "name": "_to",
          "type": "address"
        },
        {
          "internalType": "uint256",
          "name": "_tokenId",
          "type": "uint256"
        }
      ],
      "name": "transferTreasuryGEMto",
      "outputs": [
        {
          "internalType": "bool",
          "name": "",
          "type": "bool"
        }
      ],
      "stateMutability": "nonpayable",
      "type": "function"
    },
    {
      "inputs": [
        {
          "internalType": "address",
          "name": "_to",
          "type": "address"
        },
        {
          "internalType": "uint256",
          "name": "_amount",
          "type": "uint256"
        }
      ],
      "name": "transferWSTON",
      "outputs": [
        {
          "internalType": "bool",
          "name": "",
          "type": "bool"
        }
      ],
      "stateMutability": "nonpayable",
      "type": "function"
    },
    {
      "inputs": [],
      "name": "wstonApproveMarketPlace",
      "outputs": [],
      "stateMutability": "nonpayable",
      "type": "function"
    }
  ],
  "bytecode": "0x6080346100bc57601f61281c38819003918201601f19168301916001600160401b038311848410176100c1578084926060946040528339810103126100bc57610047816100d7565b61005f6040610058602085016100d7565b93016100d7565b60016000556007805460ff60a01b191690559161007b336100eb565b5060018060a01b0380928160018060a01b03199516856002541617600255168360055416176005551690600654161760065560405161269f908161017d8239f35b600080fd5b634e487b7160e01b600052604160045260246000fd5b51906001600160a01b03821682036100bc57565b6001600160a01b031660008181527fa6eef7e35abe7026729641147f7915573c7e97b47efa546f5f6e3230263bcb49602052604081205490919060ff166101785781805260016020526040822081835260205260408220600160ff1982541617905533917f2f8788117e7eff1d82e926ec794901d17c78024a50270940304540a733656f0d8180a4600190565b509056fe6080604052600436101561001257600080fd5b6000803560e01c80630169dc311461197857806301ffc9a71461192157806302424ed31461188257806307db4470146118145780630d727e2b14611794578063150b7a021461172a5780631785f53c146116fd57806320e641b71461168f578063248a9ca31461166357806324d7806c1461160b5780632ede6432146115625780632f2ff15d1461152457806330568a8d146114d457806336568abe1461149e578063389ed267146114755780633b22f1101461145a578063425c7fc214610dca57806348dbcef014610cf0578063520aefae14610cb75780636b2c0f5514610c675780637048027514610c19578063715018a614610bf457806375829def14610bda57806375b238fc14610bb157806379dbd79814610ab157806382dc1ec414610a1c5780638f32d59b146109f757806391005b0814610961578063912b431b146106a157806391d148541461065557806398d111b2146105965780639d541be21461056d578063a217fddf14610551578063b23a1d0d14610501578063bae77ac9146104de578063d547741f1461049c578063e614751814610448578063ec23919a1461041f578063ec7ae61d14610337578063ed8c2472146102e75763f2fde38b146101e057600080fd5b346102e45760203660031901126102e4576101f9611a89565b61020961020461206e565b611d4c565b61021461020461206e565b6001600160a01b03811680156102a4573314610266576102599060008051602061262a8339815191528352600160205261025460016040852001546121d2565b612216565b5061026333611e3e565b80f35b60405162461bcd60e51b815260206004820152601660248201527520b1b1b2b9b9b4b136329d1039b0b6b29030b236b4b760511b6044820152606490fd5b60405162461bcd60e51b815260206004820152601860248201527741636365737369626c653a207a65726f206164647265737360401b6044820152606490fd5b80fd5b50346102e45760203660031901126102e457610301611a89565b61030c61020461206e565b6001600160a01b0316610320811515611e00565b600480546001600160a01b03191691909117905580f35b50346102e45760403660031901126102e457610351611a89565b9060406024359160008051602061262a83398151915281526001602052203360005260205260ff60406000205416801561040c575b61038f90611d0b565b6001600160a01b03916103a58184161515611cd0565b816103ae611e5a565b106103cb576103c0926006541661210c565b602060405160018152f35b60405162461bcd60e51b8152602060048201526019602482015278556e7375666669736369656e7420544f4e2062616c616e636560381b6044820152606490fd5b5061038f61041861206e565b9050610386565b50346102e457806003193601126102e4576004546040516001600160a01b039091168152602090f35b50346102e45760203660031901126102e457610462611a89565b61046d61020461206e565b600254906001600160a01b03906104878284161515611e00565b6001600160a01b031990921691161760025580f35b50346102e45760403660031901126102e4576104da6004356104bc611a9f565b9080845260016020526104d560016040862001546121d2565b612501565b5080f35b50346102e457806003193601126102e45760206104f96120ce565b604051908152f35b50346102e45760203660031901126102e45761051b611a89565b61052661020461206e565b6001600160a01b031661053a811515611e00565b600780546001600160a01b03191691909117905580f35b50346102e457806003193601126102e457602090604051908152f35b50346102e457806003193601126102e4576002546040516001600160a01b039091168152602090f35b50346102e45760203660031901126102e45760008051602061262a83398151915281526001602052604081203360005260205260ff604060002054168015610642575b6105e290611d0b565b60035481906001600160a01b0316803b1561063f578180916024604051809481936356d6b49360e11b835260043560048401525af18015610634576106245750f35b61062d90611ab5565b6102e45780f35b6040513d84823e3d90fd5b50fd5b506105e261064e61206e565b90506105d9565b50346102e45760403660031901126102e4576040610671611a9f565b9160043581526001602052209060018060a01b0316600052602052602060ff604060002054166040519015158152f35b50346102e45761010090816003193601126102e45760043591600683101561095d573660431215610879576040516106d881611ade565b606481368211610879576024905b8282106109455750505036608312156108795760405161070581611af9565b60e481368211610879576064905b82821061092d5750505060e4356001600160401b0381116109295761073c903690600401611b75565b6004546001600160a01b03969190871633148015610916575b61075e90611ed3565b6107666120ce565b96600254169260405197630265f21b60e51b89526020988981600481895afa90811561090b5789916108de575b50604051630b513d9960e01b8152906107af6004830187611f37565b8a826024818a5afa9182156108d357918a9593918c99989795938792610891575b50610839936107f7610815989796946107f061081f9e9561082995611f5a565b1115611f7d565b60405163975781b760e01b81529b8c9a8b998a9860048a0190611f37565b6024880190611fd8565b6064860190612003565b60e484015261010483019061202e565b03925af19182156108855791610853575b50604051908152f35b90508181813d831161087e575b61086a8183611b14565b8101031261087957513861084a565b600080fd5b503d610860565b604051903d90823e3d90fd5b998a919695939497508092503d83116108cc575b6108af8183611b14565b810103126108795796518a978a95939490939291906108396107d0565b503d6108a5565b6040513d8c823e3d90fd5b90508981813d8311610904575b6108f58183611b14565b81010312610879575138610793565b503d6108eb565b6040513d8b823e3d90fd5b5061075e61092261206e565b9050610755565b8480fd5b6020809161093a84611b4c565b815201910190610713565b6020809161095284611b4c565b8152019101906106e6565b5080fd5b50346102e457806003193601126102e45761097d61020461206e565b80602060018060a01b03604481600554169161099a831515611da4565b60035460405163095ea7b360e01b81529116600482015260001960248201529384928391905af18015610634576109cf575080f35b6104da9060203d6020116109f0575b6109e88183611b14565b810190611de8565b503d6109de565b50346102e457806003193601126102e4576020610a1261206e565b6040519015158152f35b50346102e45760203660031901126102e4576104da610a39611a89565b60008051602061262a83398151915283526001602052604083203360005260205260ff604060002054168015610a9e575b610a7390611d0b565b60008051602061260a83398151915283526001602052610a9960016040852001546121d2565b612293565b50610a73610aaa61206e565b9050610a6a565b50346102e4578060031960403682011261063f576001600160401b03600435818111610bac57610ae5903690600401611bf0565b90602435908111610bac57610afe903690600401611bf0565b60008051602061262a83398151915284526001602052604084203360005260205260ff604060002054168015610b99575b610b3890611d0b565b6003546001600160a01b0316803b1561092957610b79858094610b8860405197889687958694630f3b7af360e31b8652604060048701526044860190611bbc565b91848303016024850152611bbc565b03925af18015610634576106245750f35b50610b38610ba561206e565b9050610b2f565b505050fd5b50346102e457806003193601126102e457602060405160008051602061262a8339815191528152f35b50346102e45760203660031901126102e457610209611a89565b50346102e457806003193601126102e457610c1061020461206e565b6104da3361240e565b50346102e45760203660031901126102e4576104da610c36611a89565b610c4161020461206e565b60008051602061262a8339815191528352600160205261025460016040852001546121d2565b50346102e45760203660031901126102e457610c81611a89565b610c8c61020461206e565b336001600160a01b03821603610ca5576104da90612386565b60405163334bd91960e11b8152600490fd5b50346102e457806003193601126102e457610cd361020461206e565b80602060018060a01b03604481600654169161099a831515611da4565b50346102e45760403660031901126102e457610d0a611a89565b6002546001600160a01b03908116918391903384148015610dbd575b8015610db0575b8015610d9d575b610d3d90611c50565b833b15610d99576064908360405195869485936323b872dd60e01b855230600486015216602484015260243560448401525af1801561063457610d8557602060405160018152f35b610d8f8291611ab5565b6102e457806103c0565b8280fd5b50610d3d610da961206e565b9050610d34565b5081600454163314610d2d565b5081600354163314610d26565b50346102e45760803660031901126102e457600435906001600160401b0382116102e457366023830112156102e457816004013590610e0882611b35565b92610e166040519485611b14565b82845260208401906024829460051b8201019036821161122c57602401915b81831061144157505050602435926001600160401b03841161095d573660238501121561095d57836004013590610e6b82611b35565b91610e796040519384611b14565b808352602083019081963660248360061b8301011161143d5760248101925b60248360061b83010184106113e35750505050604435946001600160401b03861161122c573660238701121561122c57856004013595610ed787611b35565b96610ee56040519889611b14565b808852602088019081923660248360071b830101116113df5760248101925b60248360071b830101841061138557505050506001600160401b036064351161092957366023606435011215610929576064356004013591610f4583611b35565b90610f536040519283611b14565b8382526020820180943660248260051b60643501011161138157602460643501915b60248260051b6064350101831061134a5750505060018060a01b036004541633148015611337575b610faa9099969899611ed3565b600254969889976001600160a01b03169690885b87518c10156110745760208c60051b89010151600681101561106057604051630b513d9960e01b815290610ff6906004830190611f37565b6020816024818d5afa908115611055578b91611022575b5061101a90600192611f5a565b9b019a610fbe565b90506020813d60201161104d575b8161103d60209383611b14565b810103126108795751600161100d565b3d9150611030565b6040513d8d823e3d90fd5b634e487b7160e01b8b52602160045260248bfd5b8a909897986110816120ce565b604051630265f21b60e51b81526020816004818e5afa90811561132c578d916112f8575b50906107f08d9b999795936110bf939d9b9997959d611f5a565b604051630ff1ac6760e01b81526080600482015297516084890181905297998a9860a48a0192908b5b8181106112c3575050506020906003198a84030160248b01525191828152019290895b818110611291575050506020906003198884030160448901525191828152019290875b8181106112635750505060031985830301606486015251808252602082019160208260051b820101939287915b8383106112305750505050508383809203925af1908115610634578291611197575b6040516020808252819061119390820185611bbc565b0390f35b90503d8083833e6111a88183611b14565b810190602081830312610d99578051906001600160401b03821161122c570181601f82011215610d99578051906111de82611b35565b936111ec6040519586611b14565b82855260208086019360051b8301019384116102e45750602001905b82821061121c57505050611193908261117d565b8151815260209182019101611208565b8380fd5b9295975092955092602080611251600193601f19868203018752895161202e565b9701930193018795938997959261115b565b92949650928195975060808161127e60209360019551612003565b019501910190889694928896949261112e565b92949698509281959799506040816112ae60209360019551611fd8565b0195019101908a989694928a9896949261110b565b929496989a5092819597999b506020816112e1829360019551611f37565b0195019101908c9a989694928c9a989694926110e8565b90506020813d602011611324575b8161131360209383611b14565b8101031261087957516110bf6110a5565b3d9150611306565b6040513d8f823e3d90fd5b50610faa61134361206e565b9050610f9d565b6001600160401b0383351161137d57602080602492611370368588356064350101611b75565b8152019301929050610f75565b8980fd5b8880fd5b36601f850112156108795760405161139c81611af9565b803660808701116108795785905b6080870182106113c7575050815260809390930192602001610f04565b602080916113d484611b4c565b8152019101906113aa565b8780fd5b36601f85011215610879576040516113fa81611ade565b803660408701116108795785905b604087018210611425575050815260409390930192602001610e98565b6020809161143284611b4c565b815201910190611408565b8580fd5b8235600681101561092957815260209283019201610e35565b50346102e457806003193601126102e45760206104f9611e5a565b50346102e457806003193601126102e457602060405160008051602061260a8339815191528152f35b50346102e45760403660031901126102e4576114b8611a9f565b336001600160a01b03821603610ca5576104da90600435612501565b50346102e45760203660031901126102e4576114ee611a89565b6114f961020461206e565b6001600160a01b031661150d811515611e00565b600380546001600160a01b03191691909117905580f35b50346102e45760403660031901126102e4576104da600435611544611a9f565b90808452600160205261155d60016040862001546121d2565b61231d565b50346102e45760403660031901126102e45760008051602061262a83398151915281526001602052604081203360005260205260ff6040600020541680156115f8575b6115ae90611d0b565b60035481906001600160a01b0316803b1561063f5781809160446040518094819363176f321960e11b8352600435600484015260243560248401525af18015610634576106245750f35b506115ae61160461206e565b90506115a5565b50346102e45760203660031901126102e4576040611627611a89565b9160008051602061262a83398151915281526001602052209060018060a01b0316600052602052602060ff604060002054166040519015158152f35b50346102e45760203660031901126102e457600160406020926004358152828452200154604051908152f35b50346102e457806003193601126102e4576116ab61020461206e565b80602060018060a01b0360448160065416916116c8831515611da4565b60075460405163095ea7b360e01b81529116600482015260001960248201529384928391905af18015610634576109cf575080f35b50346102e45760203660031901126102e45761026361171a611a89565b61172561020461206e565b611e3e565b50346102e45760803660031901126102e457611744611a89565b5061174d611a9f565b506064356001600160401b03808211610d995736602383011215610d99578160040135908111610d9957369101602401116102e457604051630a85bd0160e11b8152602090f35b50346102e45760203660031901126102e4576117af336120a3565b8015611801575b6117bf90611d0b565b60075481906001600160a01b0316803b1561063f57818091602460405180948193630d727e2b60e01b835260043560048401525af18015610634576106245750f35b506117bf61180d61206e565b90506117b6565b50346102e457806003193601126102e45761183061020461206e565b80602060018060a01b03604481600554169161184d831515611da4565b60025460405163095ea7b360e01b81529116600482015260001960248201529384928391905af18015610634576109cf575080f35b50346102e45760403660031901126102e4578060243580151580910361063f576118ab336120a3565b801561190e575b6118bb90611d0b565b6003546001600160a01b0316803b1561190a576044839260405194859384926302424ed360e01b8452600435600485015260248401525af1801561063457611901575080f35b61026390611ab5565b5050fd5b506118bb61191a61206e565b90506118b2565b50346102e45760203660031901126102e45760043563ffffffff60e01b811680910361095d57602090637965db0b60e01b8114908115611967575b506040519015158152f35b6301ffc9a760e01b1490508261195c565b50346102e45760403660031901126102e457611992611a89565b9060243560018060a01b0390816002541633148015611a7c575b8015611a6f575b8015611a5c575b6119c390611c50565b6002835414611a4a57600283556119dd8285161515611cd0565b806119e66120ce565b10611a07576001936119fb926005541661210c565b55602060405160018152f35b60405162461bcd60e51b815260206004820152601b60248201527a556e7375666669736369656e74205753544f4e2062616c616e636560281b6044820152606490fd5b604051633ee5aeb560e01b8152600490fd5b506119c3611a6861206e565b90506119ba565b50816004541633146119b3565b50816003541633146119ac565b600435906001600160a01b038216820361087957565b602435906001600160a01b038216820361087957565b6001600160401b038111611ac857604052565b634e487b7160e01b600052604160045260246000fd5b604081019081106001600160401b03821117611ac857604052565b608081019081106001600160401b03821117611ac857604052565b90601f801991011681019081106001600160401b03821117611ac857604052565b6001600160401b038111611ac85760051b60200190565b359060ff8216820361087957565b6001600160401b038111611ac857601f01601f191660200190565b81601f8201121561087957803590611b8c82611b5a565b92611b9a6040519485611b14565b8284526020838301011161087957816000926020809301838601378301015290565b90815180825260208080930193019160005b828110611bdc575050505090565b835185529381019392810192600101611bce565b9080601f83011215610879576020908235611c0a81611b35565b93611c186040519586611b14565b81855260208086019260051b82010192831161087957602001905b828210611c41575050505090565b81358152908301908301611c33565b15611c5757565b60405162461bcd60e51b815260206004820152604560248201527f63616c6c6572206973206e656974686572204f776e6572206e6f722047656d4660448201527f6163746f7279206e6f72204d61726b6574506c616365206e6f722052616e646f6064820152646d5061636b60d81b608482015260a490fd5b15611cd757565b60405162461bcd60e51b815260206004820152600c60248201526b61646472657373207a65726f60a01b6044820152606490fd5b15611d1257565b60405162461bcd60e51b81526020600482015260126024820152713737ba1027bbb732b91037b91020b236b4b760711b6044820152606490fd5b15611d5357565b60405162461bcd60e51b8152602060048201526024808201527f41757468436f6e74726f6c3a2043616c6c6572206973206e6f7420746865206f6044820152633bb732b960e11b6064820152608490fd5b15611dab57565b60405162461bcd60e51b81526020600482015260156024820152741ddcdd1bdb881859191c995cdcc81b9bdd081cd95d605a1b6044820152606490fd5b90816020910312610879575180151581036108795790565b15611e0757565b60405162461bcd60e51b815260206004820152600f60248201526e496e76616c6964206164647265737360881b6044820152606490fd5b336001600160a01b03821603610ca557611e579061248b565b50565b6006546040516370a0823160e01b815230600482015290602090829060249082906001600160a01b03165afa908115611ec757600091611e98575090565b90506020813d602011611ebf575b81611eb360209383611b14565b81010312610879575190565b3d9150611ea6565b6040513d6000823e3d90fd5b15611eda57565b60405162461bcd60e51b815260206004820152602f60248201527f63616c6c6572206973206e656974686572206f776e6572206e6f722072616e6460448201526e1bdb541858dac818dbdb9d1c9858dd608a1b6064820152608490fd5b906006821015611f445752565b634e487b7160e01b600052602160045260246000fd5b91908201809211611f6757565b634e487b7160e01b600052601160045260246000fd5b15611f8457565b60405162461bcd60e51b815260206004820152602660248201527f4e6f7420656e6f756768205753544f4e20617661696c61626c6520696e20547260448201526565617375727960d01b6064820152608490fd5b6000915b60028310611fe957505050565b60019060ff83511681526020809101920192019190611fdc565b6000915b6004831061201457505050565b60019060ff83511681526020809101920192019190612007565b919082519283825260005b84811061205a575050826000602080949584010152601f8019910116010190565b602081830181015184830182015201612039565b3360009081527fa6eef7e35abe7026729641147f7915573c7e97b47efa546f5f6e3230263bcb49602052604090205460ff1690565b6001600160a01b031660009081526000805160206125ea833981519152602052604090205460ff1690565b6005546040516370a0823160e01b815230600482015290602090829060249082906001600160a01b03165afa908115611ec757600091611e98575090565b91600080916121819360405195602087019263a9059cbb60e01b845260018060a01b03809316602489015260448801526044875261214987611af9565b1694519082865af13d156121ca573d9061216282611b5a565b916121706040519384611b14565b82523d6000602084013e5b83612566565b80519081151591826121af575b50506121975750565b60249060405190635274afe760e01b82526004820152fd5b6121c29250602080918301019101611de8565b15388061218e565b60609061217b565b80600052600160205260406000203360005260205260ff60406000205416156121f85750565b6044906040519063e2517d3f60e01b82523360048301526024820152fd5b6001600160a01b031660008181526000805160206125ea833981519152602052604081205490919060008051602061262a8339815191529060ff1661228e5780835260016020526040832082845260205260408320600160ff198254161790556000805160206125ca833981519152339380a4600190565b505090565b6001600160a01b031660008181527fe1a43b5771e30cf668ec0dc18c42d6714aff29cbb9ec47bd8eb0b81d4a8bcc14602052604081205490919060008051602061260a8339815191529060ff1661228e5780835260016020526040832082845260205260408320600160ff198254161790556000805160206125ca833981519152339380a4600190565b906000918083526001602052604083209160018060a01b03169182845260205260ff6040842054161560001461228e5780835260016020526040832082845260205260408320600160ff198254161790556000805160206125ca833981519152339380a4600190565b6001600160a01b031660008181527fe1a43b5771e30cf668ec0dc18c42d6714aff29cbb9ec47bd8eb0b81d4a8bcc14602052604081205490919060008051602061260a8339815191529060ff161561228e578083526001602052604083208284526020526040832060ff19815416905560008051602061264a833981519152339380a4600190565b6001600160a01b031660008181527fa6eef7e35abe7026729641147f7915573c7e97b47efa546f5f6e3230263bcb49602052604081205490919060ff1615612487578180526001602052604082208183526020526040822060ff198154169055339160008051602061264a8339815191528180a4600190565b5090565b6001600160a01b031660008181526000805160206125ea833981519152602052604081205490919060008051602061262a8339815191529060ff161561228e578083526001602052604083208284526020526040832060ff19815416905560008051602061264a833981519152339380a4600190565b906000918083526001602052604083209160018060a01b03169182845260205260ff60408420541660001461228e578083526001602052604083208284526020526040832060ff19815416905560008051602061264a833981519152339380a4600190565b9061258d575080511561257b57805190602001fd5b604051630a12f52160e11b8152600490fd5b815115806125c0575b61259e575090565b604051639996b31560e01b81526001600160a01b039091166004820152602490fd5b50803b1561259656fe2f8788117e7eff1d82e926ec794901d17c78024a50270940304540a733656f0dd52cfefb3f6fd7766669e08a03d2ceb3243383019e3a5fed2a519df30ee55b92fcb9fcbfa83b897fb2d5cf4b58962164105c1e71489a37ef3ae0db3fdce576f6df8b4c520ffe197c5343c6f5aec59570151ef9a492f2c624fd45ddde6135ec42f6391f5c32d9c69d2a47ea670b442974b53935d1edc7fd64eb21e047a839171ba26469706673582212201fa82f7b52e5394e1c76992669e5c307355358b562892321334d695378eb41ac64736f6c63430008190033",
  "linkReferences": {},
  "deployedLinkReferences": {}
}