{
  "_format": "hh-sol-artifact-1",
  "contractName": "Treasury",
  "sourceName": "src/L2/Treasury.sol",
  "abi": [
    {
      "inputs": [
        {
          "internalType": "address",
          "name": "_wston",
          "type": "address"
        },
        {
          "internalType": "address",
          "name": "_ton",
          "type": "address"
        },
        {
          "internalType": "address",
          "name": "_gemFactory",
          "type": "address"
        }
      ],
      "stateMutability": "nonpayable",
      "type": "constructor"
    },
    {
      "inputs": [],
      "name": "AccessControlBadConfirmation",
      "type": "error"
    },
    {
      "inputs": [
        {
          "internalType": "address",
          "name": "account",
          "type": "address"
        },
        {
          "internalType": "bytes32",
          "name": "neededRole",
          "type": "bytes32"
        }
      ],
      "name": "AccessControlUnauthorizedAccount",
      "type": "error"
    },
    {
      "inputs": [
        {
          "internalType": "address",
          "name": "target",
          "type": "address"
        }
      ],
      "name": "AddressEmptyCode",
      "type": "error"
    },
    {
      "inputs": [
        {
          "internalType": "address",
          "name": "account",
          "type": "address"
        }
      ],
      "name": "AddressInsufficientBalance",
      "type": "error"
    },
    {
      "inputs": [],
      "name": "FailedInnerCall",
      "type": "error"
    },
    {
      "inputs": [],
      "name": "ReentrancyGuardReentrantCall",
      "type": "error"
    },
    {
      "inputs": [
        {
          "internalType": "address",
          "name": "token",
          "type": "address"
        }
      ],
      "name": "SafeERC20FailedOperation",
      "type": "error"
    },
    {
      "anonymous": false,
      "inputs": [
        {
          "indexed": true,
          "internalType": "bytes32",
          "name": "role",
          "type": "bytes32"
        },
        {
          "indexed": true,
          "internalType": "bytes32",
          "name": "previousAdminRole",
          "type": "bytes32"
        },
        {
          "indexed": true,
          "internalType": "bytes32",
          "name": "newAdminRole",
          "type": "bytes32"
        }
      ],
      "name": "RoleAdminChanged",
      "type": "event"
    },
    {
      "anonymous": false,
      "inputs": [
        {
          "indexed": true,
          "internalType": "bytes32",
          "name": "role",
          "type": "bytes32"
        },
        {
          "indexed": true,
          "internalType": "address",
          "name": "account",
          "type": "address"
        },
        {
          "indexed": true,
          "internalType": "address",
          "name": "sender",
          "type": "address"
        }
      ],
      "name": "RoleGranted",
      "type": "event"
    },
    {
      "anonymous": false,
      "inputs": [
        {
          "indexed": true,
          "internalType": "bytes32",
          "name": "role",
          "type": "bytes32"
        },
        {
          "indexed": true,
          "internalType": "address",
          "name": "account",
          "type": "address"
        },
        {
          "indexed": true,
          "internalType": "address",
          "name": "sender",
          "type": "address"
        }
      ],
      "name": "RoleRevoked",
      "type": "event"
    },
    {
      "inputs": [],
      "name": "DEFAULT_ADMIN_ROLE",
      "outputs": [
        {
          "internalType": "bytes32",
          "name": "",
          "type": "bytes32"
        }
      ],
      "stateMutability": "view",
      "type": "function"
    },
    {
      "inputs": [],
      "name": "PAUSE_ROLE",
      "outputs": [
        {
          "internalType": "bytes32",
          "name": "",
          "type": "bytes32"
        }
      ],
      "stateMutability": "view",
      "type": "function"
    },
    {
      "inputs": [],
      "name": "TREASURY_ROLE",
      "outputs": [
        {
          "internalType": "bytes32",
          "name": "",
          "type": "bytes32"
        }
      ],
      "stateMutability": "view",
      "type": "function"
    },
    {
      "inputs": [
        {
          "internalType": "address",
          "name": "account",
          "type": "address"
        }
      ],
      "name": "addAdmin",
      "outputs": [],
      "stateMutability": "nonpayable",
      "type": "function"
    },
    {
      "inputs": [
        {
          "internalType": "address",
          "name": "account",
          "type": "address"
        }
      ],
      "name": "addMinter",
      "outputs": [],
      "stateMutability": "nonpayable",
      "type": "function"
    },
    {
      "inputs": [],
      "name": "approveGemFactory",
      "outputs": [],
      "stateMutability": "nonpayable",
      "type": "function"
    },
    {
      "inputs": [],
      "name": "approveMarketPlace",
      "outputs": [],
      "stateMutability": "nonpayable",
      "type": "function"
    },
    {
      "inputs": [
        {
          "internalType": "enum GemFactoryStorage.Rarity",
          "name": "_rarity",
          "type": "uint8"
        },
        {
          "internalType": "uint8[2]",
          "name": "_color",
          "type": "uint8[2]"
        },
        {
          "internalType": "uint8[4]",
          "name": "_quadrants",
          "type": "uint8[4]"
        },
        {
          "internalType": "string",
          "name": "_tokenURI",
          "type": "string"
        }
      ],
      "name": "createPreminedGEM",
      "outputs": [
        {
          "internalType": "uint256",
          "name": "",
          "type": "uint256"
        }
      ],
      "stateMutability": "nonpayable",
      "type": "function"
    },
    {
      "inputs": [
        {
          "internalType": "enum GemFactoryStorage.Rarity[]",
          "name": "_rarities",
          "type": "uint8[]"
        },
        {
          "internalType": "uint8[2][]",
          "name": "_colors",
          "type": "uint8[2][]"
        },
        {
          "internalType": "uint8[4][]",
          "name": "_quadrants",
          "type": "uint8[4][]"
        },
        {
          "internalType": "string[]",
          "name": "_tokenURIs",
          "type": "string[]"
        }
      ],
      "name": "createPreminedGEMPool",
      "outputs": [
        {
          "internalType": "uint256[]",
          "name": "",
          "type": "uint256[]"
        }
      ],
      "stateMutability": "nonpayable",
      "type": "function"
    },
    {
      "inputs": [],
      "name": "getGemFactoryAddress",
      "outputs": [
        {
          "internalType": "address",
          "name": "",
          "type": "address"
        }
      ],
      "stateMutability": "view",
      "type": "function"
    },
    {
      "inputs": [
        {
          "internalType": "bytes32",
          "name": "role",
          "type": "bytes32"
        }
      ],
      "name": "getRoleAdmin",
      "outputs": [
        {
          "internalType": "bytes32",
          "name": "",
          "type": "bytes32"
        }
      ],
      "stateMutability": "view",
      "type": "function"
    },
    {
      "inputs": [],
      "name": "getTONBalance",
      "outputs": [
        {
          "internalType": "uint256",
          "name": "",
          "type": "uint256"
        }
      ],
      "stateMutability": "view",
      "type": "function"
    },
    {
      "inputs": [],
      "name": "getWSTONBalance",
      "outputs": [
        {
          "internalType": "uint256",
          "name": "",
          "type": "uint256"
        }
      ],
      "stateMutability": "view",
      "type": "function"
    },
    {
      "inputs": [
        {
          "internalType": "bytes32",
          "name": "role",
          "type": "bytes32"
        },
        {
          "internalType": "address",
          "name": "account",
          "type": "address"
        }
      ],
      "name": "grantRole",
      "outputs": [],
      "stateMutability": "nonpayable",
      "type": "function"
    },
    {
      "inputs": [
        {
          "internalType": "bytes32",
          "name": "role",
          "type": "bytes32"
        },
        {
          "internalType": "address",
          "name": "account",
          "type": "address"
        }
      ],
      "name": "hasRole",
      "outputs": [
        {
          "internalType": "bool",
          "name": "",
          "type": "bool"
        }
      ],
      "stateMutability": "view",
      "type": "function"
    },
    {
      "inputs": [
        {
          "internalType": "address",
          "name": "account",
          "type": "address"
        }
      ],
      "name": "isAdmin",
      "outputs": [
        {
          "internalType": "bool",
          "name": "",
          "type": "bool"
        }
      ],
      "stateMutability": "view",
      "type": "function"
    },
    {
      "inputs": [
        {
          "internalType": "address",
          "name": "account",
          "type": "address"
        }
      ],
      "name": "isMinter",
      "outputs": [
        {
          "internalType": "bool",
          "name": "",
          "type": "bool"
        }
      ],
      "stateMutability": "view",
      "type": "function"
    },
    {
      "inputs": [],
      "name": "isOwner",
      "outputs": [
        {
          "internalType": "bool",
          "name": "",
          "type": "bool"
        }
      ],
      "stateMutability": "view",
      "type": "function"
    },
    {
      "inputs": [
        {
          "internalType": "address",
          "name": "",
          "type": "address"
        },
        {
          "internalType": "address",
          "name": "",
          "type": "address"
        },
        {
          "internalType": "uint256",
          "name": "",
          "type": "uint256"
        },
        {
          "internalType": "bytes",
          "name": "",
          "type": "bytes"
        }
      ],
      "name": "onERC721Received",
      "outputs": [
        {
          "internalType": "bytes4",
          "name": "",
          "type": "bytes4"
        }
      ],
      "stateMutability": "pure",
      "type": "function"
    },
    {
      "inputs": [
        {
          "internalType": "address",
          "name": "account",
          "type": "address"
        }
      ],
      "name": "removeAdmin",
      "outputs": [],
      "stateMutability": "nonpayable",
      "type": "function"
    },
    {
      "inputs": [
        {
          "internalType": "address",
          "name": "account",
          "type": "address"
        }
      ],
      "name": "removeMinter",
      "outputs": [],
      "stateMutability": "nonpayable",
      "type": "function"
    },
    {
      "inputs": [],
      "name": "renounceMinter",
      "outputs": [],
      "stateMutability": "nonpayable",
      "type": "function"
    },
    {
      "inputs": [],
      "name": "renounceOwnership",
      "outputs": [],
      "stateMutability": "nonpayable",
      "type": "function"
    },
    {
      "inputs": [
        {
          "internalType": "bytes32",
          "name": "role",
          "type": "bytes32"
        },
        {
          "internalType": "address",
          "name": "callerConfirmation",
          "type": "address"
        }
      ],
      "name": "renounceRole",
      "outputs": [],
      "stateMutability": "nonpayable",
      "type": "function"
    },
    {
      "inputs": [
        {
          "internalType": "address",
          "name": "account",
          "type": "address"
        }
      ],
      "name": "revokeMinter",
      "outputs": [],
      "stateMutability": "nonpayable",
      "type": "function"
    },
    {
      "inputs": [
        {
          "internalType": "bytes32",
          "name": "role",
          "type": "bytes32"
        },
        {
          "internalType": "address",
          "name": "account",
          "type": "address"
        }
      ],
      "name": "revokeRole",
      "outputs": [],
      "stateMutability": "nonpayable",
      "type": "function"
    },
    {
      "inputs": [
        {
          "internalType": "address",
          "name": "_gemFactory",
          "type": "address"
        }
      ],
      "name": "setGemFactory",
      "outputs": [],
      "stateMutability": "nonpayable",
      "type": "function"
    },
    {
      "inputs": [
        {
          "internalType": "address",
          "name": "marketplace",
          "type": "address"
        }
      ],
      "name": "setMarketPlace",
      "outputs": [],
      "stateMutability": "nonpayable",
      "type": "function"
    },
    {
      "inputs": [
        {
          "internalType": "bytes4",
          "name": "interfaceId",
          "type": "bytes4"
        }
      ],
      "name": "supportsInterface",
      "outputs": [
        {
          "internalType": "bool",
          "name": "",
          "type": "bool"
        }
      ],
      "stateMutability": "view",
      "type": "function"
    },
    {
      "inputs": [
        {
          "internalType": "address",
          "name": "newAdmin",
          "type": "address"
        }
      ],
      "name": "transferAdmin",
      "outputs": [],
      "stateMutability": "nonpayable",
      "type": "function"
    },
    {
      "inputs": [
        {
          "internalType": "address",
          "name": "newAdmin",
          "type": "address"
        }
      ],
      "name": "transferOwnership",
      "outputs": [],
      "stateMutability": "nonpayable",
      "type": "function"
    },
    {
      "inputs": [
        {
          "internalType": "address",
          "name": "_to",
          "type": "address"
        },
        {
          "internalType": "uint256",
          "name": "_tokenId",
          "type": "uint256"
        }
      ],
      "name": "transferTreasuryGEMto",
      "outputs": [
        {
          "internalType": "bool",
          "name": "",
          "type": "bool"
        }
      ],
      "stateMutability": "nonpayable",
      "type": "function"
    },
    {
      "inputs": [
        {
          "internalType": "address",
          "name": "_to",
          "type": "address"
        },
        {
          "internalType": "uint256",
          "name": "_amount",
          "type": "uint256"
        }
      ],
      "name": "transferWSTON",
      "outputs": [
        {
          "internalType": "bool",
          "name": "",
          "type": "bool"
        }
      ],
      "stateMutability": "nonpayable",
      "type": "function"
    }
  ],
  "bytecode": "0x6080346100bc57601f611e8738819003918201601f19168301916001600160401b038311848410176100c1578084926060946040528339810103126100bc57610047816100d7565b61005f6040610058602085016100d7565b93016100d7565b60016000556005805460ff60a01b191690559161007b336100eb565b5060018060a01b0380928160018060a01b031995168560025416176002551683600454161760045516906005541617600555604051611d0a908161017d8239f35b600080fd5b634e487b7160e01b600052604160045260246000fd5b51906001600160a01b03821682036100bc57565b6001600160a01b031660008181527fa6eef7e35abe7026729641147f7915573c7e97b47efa546f5f6e3230263bcb49602052604081205490919060ff166101785781805260016020526040822081835260205260408220600160ff1982541617905533917f2f8788117e7eff1d82e926ec794901d17c78024a50270940304540a733656f0d8180a4600190565b509056fe608080604052600436101561001357600080fd5b60003560e01c9081630169dc31146113155750806301ffc9a7146112bf57806307db447014611254578063150b7a02146111eb5780631785f53c146111b9578063248a9ca31461118a57806324d7806c1461113a5780632f2ff15d146110fb57806330568a8d1461108f5780633092afd51461104557806336568abe14610ffe578063389ed26714610fc35780633b22f11014610f3a578063425c7fc2146109e657806348dbcef01461092557806370480275146108ac578063715018a61461086957806375829def1461084f5780638f32d59b14610814578063912b431b1461067d57806391d148541461063057806392450f2014610574578063983b2d56146104e857806398650275146104ce5780639d541be2146104a5578063a217fddf14610489578063aa271e1a14610439578063bae77ac914610416578063cfbd48851461038a578063d11a57ec14610361578063d547741f14610322578063e6147518146102b25763f2fde38b1461018a57600080fd5b346102ad576020806003193601126102ad576101a4611519565b600080526001825260406000203360005282526101c860ff60406000205416611684565b600080526001825260406000203360005282526101ec60ff60406000205416611684565b6001600160a01b038116801561026d57331461022f57600161022392600080525261021e6001604060002001546118f8565b61193c565b5061022d33611776565b005b60405162461bcd60e51b815260048101839052601660248201527520b1b1b2b9b9b4b136329d1039b0b6b29030b236b4b760511b6044820152606490fd5b60405162461bcd60e51b815260048101849052601860248201527741636365737369626c653a207a65726f206164647265737360401b6044820152606490fd5b600080fd5b346102ad5760203660031901126102ad576102cb611519565b336000908152600080516020611c5583398151915260205260409020546102f49060ff16611684565b600254906001600160a01b039061030e8284161515611738565b6001600160a01b0319909216911617600255005b346102ad5760403660031901126102ad5761022d60043561034161152f565b9080600052600160205261035c6001604060002001546118f8565b611b6c565b346102ad5760003660031901126102ad576020604051600080516020611cb58339815191528152f35b346102ad5760203660031901126102ad5761022d6103a6611519565b336000908152600080516020611c5583398151915260205260409020546103cf9060ff16611684565b600080516020611cb583398151915260005260016020527f5b4d914e7897397f20529357e1685df1796ccbbb6223ead0f42bdf02603eba0b54610411906118f8565b611a8f565b346102ad5760003660031901126102ad57602061043161188f565b604051908152f35b346102ad5760203660031901126102ad57610452611519565b6001600160a01b03166000908152600080516020611c75833981519152602090815260409182902054915160ff9092161515825290f35b346102ad5760003660031901126102ad57602060405160008152f35b346102ad5760003660031901126102ad576002546040516001600160a01b039091168152602090f35b346102ad5760003660031901126102ad5761022d33611792565b346102ad5760203660031901126102ad5761022d610504611519565b336000908152600080516020611c55833981519152602052604090205461052d9060ff16611684565b600080516020611cb583398151915260005260016020527f5b4d914e7897397f20529357e1685df1796ccbbb6223ead0f42bdf02603eba0b5461056f906118f8565b6119a9565b346102ad5760003660031901126102ad57336000908152600080516020611c5583398151915260205260409020546105ae9060ff16611684565b6000602060018060a01b0360448160045416916105cc8315156116dc565b60035416604051948593849263095ea7b360e01b84526004840152811960248401525af18015610624576105fc57005b61022d9060203d60201161061d575b610615818361157b565b810190611720565b503d61060b565b6040513d6000823e3d90fd5b346102ad5760403660031901126102ad5761064961152f565b600435600052600160205260406000209060018060a01b0316600052602052602060ff604060002054166040519015158152f35b346102ad57610100806003193601126102ad576004359060068210156102ad5736604312156102ad57604051906106b382611545565b6064823682116102ad576024905b8282106107fc5750505036608312156102ad57604051916106e183611560565b60e4833682116102ad576064905b8282106107e45750505060e435926001600160401b0384116102ad5761077760006107216107819636906004016115dc565b9681805261079b60209889976001895260408520338652895261074a60ff604087205416611684565b61078b60018060a01b0360025416976040519b8c9a8b998a9863975781b760e01b8a5260048a01906117ab565b60248801906117ce565b60648601906117f9565b60e4840152610104830190611824565b03925af1908115610624576000916107b7575b50604051908152f35b90508181813d83116107dd575b6107ce818361157b565b810103126102ad5751826107ae565b503d6107c4565b602080916107f1846115b3565b8152019101906106ef565b60208091610809846115b3565b8152019101906106c1565b346102ad5760003660031901126102ad57600080526001602052604060002033600052602052602060ff604060002054166040519015158152f35b346102ad576020806003193601126102ad576101c8611519565b346102ad5760003660031901126102ad57336000908152600080516020611c5583398151915260205260409020546108a39060ff16611684565b61022d33611776565b346102ad5760203660031901126102ad5761022d6108c8611519565b336000908152600080516020611c5583398151915260205260409020546108f19060ff16611684565b6000805260016020527fa6eef7e35abe7026729641147f7915573c7e97b47efa546f5f6e3230263bcb4a5461021e906118f8565b346102ad5760403660031901126102ad5761093e611519565b6002546001600160a01b03908116919033831480156109d9575b61096190611623565b823b156102ad5760646000928360405195869485936323b872dd60e01b855230600486015216602484015260243560448401525af18015610624576109ac575b602060405160018152f35b6001600160401b0381116109c357604052806109a1565b634e487b7160e01b600052604160045260246000fd5b5060035481163314610958565b346102ad5760803660031901126102ad576004356001600160401b0381116102ad57366023820112156102ad578060040135610a218161159c565b91610a2f604051938461157b565b81835260208301906024829360051b820101903682116102ad57602401915b818310610f2157505050602435906001600160401b0382116102ad57366023830112156102ad57816004013590610a848261159c565b92610a92604051948561157b565b82845260208401906024829460061b820101903682116102ad57602401915b818310610ec757505050604435906001600160401b0382116102ad57366023830112156102ad57816004013592610ae78461159c565b93610af5604051958661157b565b808552602085019081943660248360071b830101116102ad5760248101925b60248360071b8301018410610e6d57505050506001600160401b03606435116102ad573660236064350112156102ad576064356004013593610b558561159c565b92610b63604051948561157b565b8584526020840180963660248260051b6064350101116102ad57602460649a989796959493999a3501915b60248260051b60643501018310610e28575050336000908152600080516020611c558339815191526020526040902054610bcb915060ff16611684565b600254604051630ff1ac6760e01b81526080600482015296516084880181905296986001600160a01b0390911697899760a4890192919060005b818110610df9575050506020906003198984030160248a0152519182815201929060005b818110610dcd57505050602090600319878403016044880152519182815201929060005b818110610da55750505060031984830301606485015251808252602082019160208260051b82010193926000915b838310610d74578660008180890381838d5af190811561062457600091610ce3575b5060405180916020820160208352815180915260206040840192019060005b818110610cca575050500390f35b8251845285945060209384019390920191600101610cbc565b90503d806000833e610cf5818361157b565b8101906020818303126102ad578051906001600160401b0382116102ad57019080601f830112156102ad578151610d2b8161159c565b92610d39604051948561157b565b81845260208085019260051b8201019283116102ad57602001905b828210610d645750505081610c9d565b8151815260209182019101610d54565b919395509193602080610d93600193601f198682030187528951611824565b97019301930190928795949293610c7b565b9194955091926020608082610dbd60019489516117f9565b0195019101918795949392610c4d565b91949596975091926020604082610de760019489516117ce565b01950191019189979695949392610c29565b9194959697989950919260208082610e1460019489516117ab565b0195019101918b9998979695949392610c05565b6001600160401b03839b9a9495969798999b35116102ad57602080602492610e573685883560643501016115dc565b8152019301929050999796959493929899610b8e565b36601f850112156102ad57604051610e8481611560565b803660808701116102ad5785905b608087018210610eaf575050815260809390930192602001610b14565b60208091610ebc846115b3565b815201910190610e92565b36601f840112156102ad57604051610ede81611545565b803660408601116102ad5784905b604086018210610f09575050816020916040935201920191610ab1565b60208091610f16846115b3565b815201910190610eec565b823560068110156102ad57815260209283019201610a4e565b346102ad5760003660031901126102ad576005546040516370a0823160e01b815230600482015290602090829060249082906001600160a01b03165afa801561062457600090610f90575b602090604051908152f35b506020813d602011610fbb575b81610faa6020938361157b565b810103126102ad5760209051610f85565b3d9150610f9d565b346102ad5760003660031901126102ad5760206040517ffcb9fcbfa83b897fb2d5cf4b58962164105c1e71489a37ef3ae0db3fdce576f68152f35b346102ad5760403660031901126102ad5761101761152f565b336001600160a01b038216036110335761022d90600435611b6c565b60405163334bd91960e11b8152600490fd5b346102ad5760203660031901126102ad5761022d611061611519565b336000908152600080516020611c55833981519152602052604090205461108a9060ff16611684565b611792565b346102ad5760203660031901126102ad576110a8611519565b336000908152600080516020611c5583398151915260205260409020546110d19060ff16611684565b6001600160a01b03166110e5811515611738565b600380546001600160a01b031916919091179055005b346102ad5760403660031901126102ad5761022d60043561111a61152f565b908060005260016020526111356001604060002001546118f8565b611a26565b346102ad5760203660031901126102ad57611153611519565b6001600160a01b03166000908152600080516020611c55833981519152602090815260409182902054915160ff9092161515825290f35b346102ad5760203660031901126102ad5760043560005260016020526020600160406000200154604051908152f35b346102ad5760203660031901126102ad5761022d6111d5611519565b6111e66111e133611864565b611684565b611776565b346102ad5760803660031901126102ad57611204611519565b5061120d61152f565b506064356001600160401b038082116102ad57366023830112156102ad5781600401359081116102ad57369101602401116102ad57604051630a85bd0160e11b8152602090f35b346102ad5760003660031901126102ad576112716111e133611864565b6000602060018060a01b03604481600454169161128f8315156116dc565b60025416604051948593849263095ea7b360e01b84526004840152811960248401525af18015610624576105fc57005b346102ad5760203660031901126102ad5760043563ffffffff60e01b81168091036102ad57602090637965db0b60e01b8114908115611304575b506040519015158152f35b6301ffc9a760e01b149050826112f9565b346102ad5760403660031901126102ad5761132e611519565b9060249182359160ff60055460a01c166114e557506002546001600160a01b0391908216331480156114d8575b61136490611623565b6002600054146114c65760026000558116908115611493578261138561188f565b106114515760006113f6928192600454169460405190602082019263a9059cbb60e01b8452888301526044820152604481526113c081611560565b519082865af13d15611449573d906113d7826115c1565b916113e5604051938461157b565b82523d6000602084013e5b83611bd1565b805190811515918261142e575b5050611419576001600055602060405160018152f35b60405190635274afe760e01b82526004820152fd5b6114419250602080918301019101611720565b158380611403565b6060906113f0565b60405162461bcd60e51b815260206004820152601b818601527a556e7375666669736369656e74205753544f4e2062616c616e636560281b6044820152606490fd5b60405162461bcd60e51b815260206004820152600c818601526b61646472657373207a65726f60a01b6044820152606490fd5b604051633ee5aeb560e01b8152600490fd5b506003548216331461135b565b62461bcd60e51b8152602060048201526010848201526f14185d5cd8589b194e881c185d5cd95960821b6044820152606490fd5b600435906001600160a01b03821682036102ad57565b602435906001600160a01b03821682036102ad57565b604081019081106001600160401b038211176109c357604052565b608081019081106001600160401b038211176109c357604052565b90601f801991011681019081106001600160401b038211176109c357604052565b6001600160401b0381116109c35760051b60200190565b359060ff821682036102ad57565b6001600160401b0381116109c357601f01601f191660200190565b81601f820112156102ad578035906115f3826115c1565b92611601604051948561157b565b828452602083830101116102ad57816000926020809301838601378301015290565b1561162a57565b60405162461bcd60e51b815260206004820152602c60248201527f63616c6c6572206973206e6569746865722047656d466163746f7279206e6f7260448201526b204d61726b6574506c61636560a01b6064820152608490fd5b1561168b57565b60405162461bcd60e51b815260206004820152602360248201527f41757468436f6e74726f6c3a2043616c6c6572206973206e6f7420616e20616460448201526236b4b760e91b6064820152608490fd5b156116e357565b60405162461bcd60e51b81526020600482015260156024820152741ddcdd1bdb881859191c995cdcc81b9bdd081cd95d605a1b6044820152606490fd5b908160209103126102ad575180151581036102ad5790565b1561173f57565b60405162461bcd60e51b815260206004820152600f60248201526e496e76616c6964206164647265737360881b6044820152606490fd5b336001600160a01b038216036110335761178f90611b05565b50565b336001600160a01b038216036110335761178f90611a8f565b9060068210156117b85752565b634e487b7160e01b600052602160045260246000fd5b6000915b600283106117df57505050565b60019060ff835116815260208091019201920191906117d2565b6000915b6004831061180a57505050565b60019060ff835116815260208091019201920191906117fd565b919082519283825260005b848110611850575050826000602080949584010152601f8019910116010190565b60208183018101518483018201520161182f565b6001600160a01b03166000908152600080516020611c55833981519152602052604090205460ff1690565b6024602060018060a01b0360045416604051928380926370a0823160e01b82523060048301525afa908115610624576000916118c9575090565b90506020813d6020116118f0575b816118e46020938361157b565b810103126102ad575190565b3d91506118d7565b80600052600160205260406000203360005260205260ff604060002054161561191e5750565b6044906040519063e2517d3f60e01b82523360048301526024820152fd5b6001600160a01b03166000818152600080516020611c55833981519152602052604081205490919060ff166119a55781805260016020526040822081835260205260408220600160ff198254161790553391600080516020611c358339815191528180a4600190565b5090565b6001600160a01b03166000818152600080516020611c758339815191526020526040812054909190600080516020611cb58339815191529060ff16611a215780835260016020526040832082845260205260408320600160ff19825416179055600080516020611c35833981519152339380a4600190565b505090565b906000918083526001602052604083209160018060a01b03169182845260205260ff60408420541615600014611a215780835260016020526040832082845260205260408320600160ff19825416179055600080516020611c35833981519152339380a4600190565b6001600160a01b03166000818152600080516020611c758339815191526020526040812054909190600080516020611cb58339815191529060ff1615611a21578083526001602052604083208284526020526040832060ff198154169055600080516020611c95833981519152339380a4600190565b6001600160a01b03166000818152600080516020611c55833981519152602052604081205490919060ff16156119a5578180526001602052604082208183526020526040822060ff1981541690553391600080516020611c958339815191528180a4600190565b906000918083526001602052604083209160018060a01b03169182845260205260ff604084205416600014611a21578083526001602052604083208284526020526040832060ff198154169055600080516020611c95833981519152339380a4600190565b90611bf85750805115611be657805190602001fd5b604051630a12f52160e11b8152600490fd5b81511580611c2b575b611c09575090565b604051639996b31560e01b81526001600160a01b039091166004820152602490fd5b50803b15611c0156fe2f8788117e7eff1d82e926ec794901d17c78024a50270940304540a733656f0da6eef7e35abe7026729641147f7915573c7e97b47efa546f5f6e3230263bcb495b4d914e7897397f20529357e1685df1796ccbbb6223ead0f42bdf02603eba0af6391f5c32d9c69d2a47ea670b442974b53935d1edc7fd64eb21e047a839171b06aa03964db1f7257357ef09714a5f0ca3633723df419e97015e0c7a3e83edb7a26469706673582212201aebe1797b11fe19d306adffc21a46636540096321a308bd3048ea9820d856b064736f6c63430008190033",
  "linkReferences": {},
  "deployedLinkReferences": {}
}