{
  "_format": "hh-sol-artifact-1",
  "contractName": "Treasury",
  "sourceName": "src/L2/Treasury.sol",
  "abi": [
    {
      "inputs": [],
      "name": "AccessControlBadConfirmation",
      "type": "error"
    },
    {
      "inputs": [
        {
          "internalType": "address",
          "name": "account",
          "type": "address"
        },
        {
          "internalType": "bytes32",
          "name": "neededRole",
          "type": "bytes32"
        }
      ],
      "name": "AccessControlUnauthorizedAccount",
      "type": "error"
    },
    {
      "inputs": [
        {
          "internalType": "address",
          "name": "target",
          "type": "address"
        }
      ],
      "name": "AddressEmptyCode",
      "type": "error"
    },
    {
      "inputs": [
        {
          "internalType": "address",
          "name": "account",
          "type": "address"
        }
      ],
      "name": "AddressInsufficientBalance",
      "type": "error"
    },
    {
      "inputs": [],
      "name": "FailedInnerCall",
      "type": "error"
    },
    {
      "inputs": [],
      "name": "InvalidAddress",
      "type": "error"
    },
    {
      "inputs": [],
      "name": "NotEnoughWstonAvailableInTreasury",
      "type": "error"
    },
    {
      "inputs": [],
      "name": "ReentrancyGuardReentrantCall",
      "type": "error"
    },
    {
      "inputs": [
        {
          "internalType": "address",
          "name": "token",
          "type": "address"
        }
      ],
      "name": "SafeERC20FailedOperation",
      "type": "error"
    },
    {
      "inputs": [],
      "name": "SameAdmin",
      "type": "error"
    },
    {
      "inputs": [],
      "name": "TonAddressIsNotSet",
      "type": "error"
    },
    {
      "inputs": [],
      "name": "UnsuffiscientTonBalance",
      "type": "error"
    },
    {
      "inputs": [],
      "name": "UnsuffiscientWstonBalance",
      "type": "error"
    },
    {
      "inputs": [],
      "name": "WstonAddressIsNotSet",
      "type": "error"
    },
    {
      "inputs": [],
      "name": "ZeroAddress",
      "type": "error"
    },
    {
      "anonymous": false,
      "inputs": [
        {
          "indexed": true,
          "internalType": "bytes32",
          "name": "role",
          "type": "bytes32"
        },
        {
          "indexed": true,
          "internalType": "bytes32",
          "name": "previousAdminRole",
          "type": "bytes32"
        },
        {
          "indexed": true,
          "internalType": "bytes32",
          "name": "newAdminRole",
          "type": "bytes32"
        }
      ],
      "name": "RoleAdminChanged",
      "type": "event"
    },
    {
      "anonymous": false,
      "inputs": [
        {
          "indexed": true,
          "internalType": "bytes32",
          "name": "role",
          "type": "bytes32"
        },
        {
          "indexed": true,
          "internalType": "address",
          "name": "account",
          "type": "address"
        },
        {
          "indexed": true,
          "internalType": "address",
          "name": "sender",
          "type": "address"
        }
      ],
      "name": "RoleGranted",
      "type": "event"
    },
    {
      "anonymous": false,
      "inputs": [
        {
          "indexed": true,
          "internalType": "bytes32",
          "name": "role",
          "type": "bytes32"
        },
        {
          "indexed": true,
          "internalType": "address",
          "name": "account",
          "type": "address"
        },
        {
          "indexed": true,
          "internalType": "address",
          "name": "sender",
          "type": "address"
        }
      ],
      "name": "RoleRevoked",
      "type": "event"
    },
    {
      "inputs": [],
      "name": "ADMIN_ROLE",
      "outputs": [
        {
          "internalType": "bytes32",
          "name": "",
          "type": "bytes32"
        }
      ],
      "stateMutability": "view",
      "type": "function"
    },
    {
      "inputs": [],
      "name": "DEFAULT_ADMIN_ROLE",
      "outputs": [
        {
          "internalType": "bytes32",
          "name": "",
          "type": "bytes32"
        }
      ],
      "stateMutability": "view",
      "type": "function"
    },
    {
      "inputs": [],
      "name": "PAUSE_ROLE",
      "outputs": [
        {
          "internalType": "bytes32",
          "name": "",
          "type": "bytes32"
        }
      ],
      "stateMutability": "view",
      "type": "function"
    },
    {
      "inputs": [
        {
          "internalType": "address",
          "name": "account",
          "type": "address"
        }
      ],
      "name": "addAdmin",
      "outputs": [],
      "stateMutability": "nonpayable",
      "type": "function"
    },
    {
      "inputs": [
        {
          "internalType": "address",
          "name": "account",
          "type": "address"
        }
      ],
      "name": "addPauser",
      "outputs": [],
      "stateMutability": "nonpayable",
      "type": "function"
    },
    {
      "inputs": [
        {
          "internalType": "address",
          "name": "",
          "type": "address"
        }
      ],
      "name": "aliveImplementation",
      "outputs": [
        {
          "internalType": "bool",
          "name": "",
          "type": "bool"
        }
      ],
      "stateMutability": "view",
      "type": "function"
    },
    {
      "inputs": [
        {
          "internalType": "address",
          "name": "operator",
          "type": "address"
        },
        {
          "internalType": "uint256",
          "name": "_tokenId",
          "type": "uint256"
        }
      ],
      "name": "approveGem",
      "outputs": [],
      "stateMutability": "nonpayable",
      "type": "function"
    },
    {
      "inputs": [
        {
          "internalType": "uint256",
          "name": "amount",
          "type": "uint256"
        }
      ],
      "name": "approveWstonForMarketplace",
      "outputs": [],
      "stateMutability": "nonpayable",
      "type": "function"
    },
    {
      "inputs": [
        {
          "internalType": "uint256",
          "name": "_tokenId",
          "type": "uint256"
        },
        {
          "internalType": "bool",
          "name": "_paymentMethod",
          "type": "bool"
        }
      ],
      "name": "buyGem",
      "outputs": [],
      "stateMutability": "nonpayable",
      "type": "function"
    },
    {
      "inputs": [
        {
          "internalType": "enum GemFactoryStorage.Rarity",
          "name": "_rarity",
          "type": "uint8"
        },
        {
          "internalType": "uint8[2]",
          "name": "_color",
          "type": "uint8[2]"
        },
        {
          "internalType": "uint8[4]",
          "name": "_quadrants",
          "type": "uint8[4]"
        },
        {
          "internalType": "string",
          "name": "_tokenURI",
          "type": "string"
        }
      ],
      "name": "createPreminedGEM",
      "outputs": [
        {
          "internalType": "uint256",
          "name": "",
          "type": "uint256"
        }
      ],
      "stateMutability": "nonpayable",
      "type": "function"
    },
    {
      "inputs": [
        {
          "internalType": "enum GemFactoryStorage.Rarity[]",
          "name": "_rarities",
          "type": "uint8[]"
        },
        {
          "internalType": "uint8[2][]",
          "name": "_colors",
          "type": "uint8[2][]"
        },
        {
          "internalType": "uint8[4][]",
          "name": "_quadrants",
          "type": "uint8[4][]"
        },
        {
          "internalType": "string[]",
          "name": "_tokenURIs",
          "type": "string[]"
        }
      ],
      "name": "createPreminedGEMPool",
      "outputs": [
        {
          "internalType": "uint256[]",
          "name": "",
          "type": "uint256[]"
        }
      ],
      "stateMutability": "nonpayable",
      "type": "function"
    },
    {
      "inputs": [],
      "name": "getAirdropAddress",
      "outputs": [
        {
          "internalType": "address",
          "name": "",
          "type": "address"
        }
      ],
      "stateMutability": "view",
      "type": "function"
    },
    {
      "inputs": [],
      "name": "getGemFactoryAddress",
      "outputs": [
        {
          "internalType": "address",
          "name": "",
          "type": "address"
        }
      ],
      "stateMutability": "view",
      "type": "function"
    },
    {
      "inputs": [],
      "name": "getMarketPlaceAddress",
      "outputs": [
        {
          "internalType": "address",
          "name": "",
          "type": "address"
        }
      ],
      "stateMutability": "view",
      "type": "function"
    },
    {
      "inputs": [],
      "name": "getRandomPackAddress",
      "outputs": [
        {
          "internalType": "address",
          "name": "",
          "type": "address"
        }
      ],
      "stateMutability": "view",
      "type": "function"
    },
    {
      "inputs": [
        {
          "internalType": "bytes32",
          "name": "role",
          "type": "bytes32"
        }
      ],
      "name": "getRoleAdmin",
      "outputs": [
        {
          "internalType": "bytes32",
          "name": "",
          "type": "bytes32"
        }
      ],
      "stateMutability": "view",
      "type": "function"
    },
    {
      "inputs": [],
      "name": "getSwapPoolAddress",
      "outputs": [
        {
          "internalType": "address",
          "name": "",
          "type": "address"
        }
      ],
      "stateMutability": "view",
      "type": "function"
    },
    {
      "inputs": [],
      "name": "getTONBalance",
      "outputs": [
        {
          "internalType": "uint256",
          "name": "",
          "type": "uint256"
        }
      ],
      "stateMutability": "view",
      "type": "function"
    },
    {
      "inputs": [],
      "name": "getTonAddress",
      "outputs": [
        {
          "internalType": "address",
          "name": "",
          "type": "address"
        }
      ],
      "stateMutability": "view",
      "type": "function"
    },
    {
      "inputs": [],
      "name": "getWSTONBalance",
      "outputs": [
        {
          "internalType": "uint256",
          "name": "",
          "type": "uint256"
        }
      ],
      "stateMutability": "view",
      "type": "function"
    },
    {
      "inputs": [],
      "name": "getWstonAddress",
      "outputs": [
        {
          "internalType": "address",
          "name": "",
          "type": "address"
        }
      ],
      "stateMutability": "view",
      "type": "function"
    },
    {
      "inputs": [
        {
          "internalType": "bytes32",
          "name": "role",
          "type": "bytes32"
        },
        {
          "internalType": "address",
          "name": "account",
          "type": "address"
        }
      ],
      "name": "grantRole",
      "outputs": [],
      "stateMutability": "nonpayable",
      "type": "function"
    },
    {
      "inputs": [
        {
          "internalType": "bytes32",
          "name": "role",
          "type": "bytes32"
        },
        {
          "internalType": "address",
          "name": "account",
          "type": "address"
        }
      ],
      "name": "hasRole",
      "outputs": [
        {
          "internalType": "bool",
          "name": "",
          "type": "bool"
        }
      ],
      "stateMutability": "view",
      "type": "function"
    },
    {
      "inputs": [
        {
          "internalType": "address",
          "name": "_wston",
          "type": "address"
        },
        {
          "internalType": "address",
          "name": "_ton",
          "type": "address"
        },
        {
          "internalType": "address",
          "name": "_gemFactory",
          "type": "address"
        }
      ],
      "name": "initialize",
      "outputs": [],
      "stateMutability": "nonpayable",
      "type": "function"
    },
    {
      "inputs": [
        {
          "internalType": "address",
          "name": "account",
          "type": "address"
        }
      ],
      "name": "isAdmin",
      "outputs": [
        {
          "internalType": "bool",
          "name": "",
          "type": "bool"
        }
      ],
      "stateMutability": "view",
      "type": "function"
    },
    {
      "inputs": [],
      "name": "isOwner",
      "outputs": [
        {
          "internalType": "bool",
          "name": "",
          "type": "bool"
        }
      ],
      "stateMutability": "view",
      "type": "function"
    },
    {
      "inputs": [
        {
          "internalType": "address",
          "name": "",
          "type": "address"
        },
        {
          "internalType": "address",
          "name": "",
          "type": "address"
        },
        {
          "internalType": "uint256",
          "name": "",
          "type": "uint256"
        },
        {
          "internalType": "bytes",
          "name": "",
          "type": "bytes"
        }
      ],
      "name": "onERC721Received",
      "outputs": [
        {
          "internalType": "bytes4",
          "name": "",
          "type": "bytes4"
        }
      ],
      "stateMutability": "pure",
      "type": "function"
    },
    {
      "inputs": [],
      "name": "pause",
      "outputs": [],
      "stateMutability": "nonpayable",
      "type": "function"
    },
    {
      "inputs": [],
      "name": "pauseProxy",
      "outputs": [
        {
          "internalType": "bool",
          "name": "",
          "type": "bool"
        }
      ],
      "stateMutability": "view",
      "type": "function"
    },
    {
      "inputs": [
        {
          "internalType": "uint256",
          "name": "",
          "type": "uint256"
        }
      ],
      "name": "proxyImplementation",
      "outputs": [
        {
          "internalType": "address",
          "name": "",
          "type": "address"
        }
      ],
      "stateMutability": "view",
      "type": "function"
    },
    {
      "inputs": [
        {
          "internalType": "uint256",
          "name": "_tokenId",
          "type": "uint256"
        },
        {
          "internalType": "uint256",
          "name": "_price",
          "type": "uint256"
        }
      ],
      "name": "putGemForSale",
      "outputs": [],
      "stateMutability": "nonpayable",
      "type": "function"
    },
    {
      "inputs": [
        {
          "internalType": "uint256[]",
          "name": "tokenIds",
          "type": "uint256[]"
        },
        {
          "internalType": "uint256[]",
          "name": "prices",
          "type": "uint256[]"
        }
      ],
      "name": "putGemListForSale",
      "outputs": [],
      "stateMutability": "nonpayable",
      "type": "function"
    },
    {
      "inputs": [
        {
          "internalType": "address",
          "name": "account",
          "type": "address"
        }
      ],
      "name": "removeAdmin",
      "outputs": [],
      "stateMutability": "nonpayable",
      "type": "function"
    },
    {
      "inputs": [
        {
          "internalType": "uint256",
          "name": "_tokenId",
          "type": "uint256"
        }
      ],
      "name": "removeGemFromSale",
      "outputs": [],
      "stateMutability": "nonpayable",
      "type": "function"
    },
    {
      "inputs": [
        {
          "internalType": "address",
          "name": "account",
          "type": "address"
        }
      ],
      "name": "removePauser",
      "outputs": [],
      "stateMutability": "nonpayable",
      "type": "function"
    },
    {
      "inputs": [],
      "name": "renounceOwnership",
      "outputs": [],
      "stateMutability": "nonpayable",
      "type": "function"
    },
    {
      "inputs": [
        {
          "internalType": "bytes32",
          "name": "role",
          "type": "bytes32"
        },
        {
          "internalType": "address",
          "name": "callerConfirmation",
          "type": "address"
        }
      ],
      "name": "renounceRole",
      "outputs": [],
      "stateMutability": "nonpayable",
      "type": "function"
    },
    {
      "inputs": [
        {
          "internalType": "bytes32",
          "name": "role",
          "type": "bytes32"
        },
        {
          "internalType": "address",
          "name": "account",
          "type": "address"
        }
      ],
      "name": "revokeRole",
      "outputs": [],
      "stateMutability": "nonpayable",
      "type": "function"
    },
    {
      "inputs": [
        {
          "internalType": "bytes4",
          "name": "",
          "type": "bytes4"
        }
      ],
      "name": "selectorImplementation",
      "outputs": [
        {
          "internalType": "address",
          "name": "",
          "type": "address"
        }
      ],
      "stateMutability": "view",
      "type": "function"
    },
    {
      "inputs": [
        {
          "internalType": "address",
          "name": "_airdrop",
          "type": "address"
        }
      ],
      "name": "setAirdrop",
      "outputs": [],
      "stateMutability": "nonpayable",
      "type": "function"
    },
    {
      "inputs": [
        {
          "internalType": "address",
          "name": "_gemFactory",
          "type": "address"
        }
      ],
      "name": "setGemFactory",
      "outputs": [],
      "stateMutability": "nonpayable",
      "type": "function"
    },
    {
      "inputs": [
        {
          "internalType": "address",
          "name": "marketplace",
          "type": "address"
        }
      ],
      "name": "setMarketPlace",
      "outputs": [],
      "stateMutability": "nonpayable",
      "type": "function"
    },
    {
      "inputs": [
        {
          "internalType": "address",
          "name": "_randomPack",
          "type": "address"
        }
      ],
      "name": "setRandomPack",
      "outputs": [],
      "stateMutability": "nonpayable",
      "type": "function"
    },
    {
      "inputs": [
        {
          "internalType": "address",
          "name": "_wstonSwapPool",
          "type": "address"
        }
      ],
      "name": "setWstonSwapPool",
      "outputs": [],
      "stateMutability": "nonpayable",
      "type": "function"
    },
    {
      "inputs": [
        {
          "internalType": "bytes4",
          "name": "interfaceId",
          "type": "bytes4"
        }
      ],
      "name": "supportsInterface",
      "outputs": [
        {
          "internalType": "bool",
          "name": "",
          "type": "bool"
        }
      ],
      "stateMutability": "view",
      "type": "function"
    },
    {
      "inputs": [
        {
          "internalType": "uint256",
          "name": "tonAmount",
          "type": "uint256"
        }
      ],
      "name": "swapTONforWSTON",
      "outputs": [],
      "stateMutability": "nonpayable",
      "type": "function"
    },
    {
      "inputs": [
        {
          "internalType": "uint256",
          "name": "_amount",
          "type": "uint256"
        }
      ],
      "name": "tonApproveWstonSwapPool",
      "outputs": [
        {
          "internalType": "bool",
          "name": "",
          "type": "bool"
        }
      ],
      "stateMutability": "nonpayable",
      "type": "function"
    },
    {
      "inputs": [
        {
          "internalType": "address",
          "name": "newAdmin",
          "type": "address"
        }
      ],
      "name": "transferAdmin",
      "outputs": [],
      "stateMutability": "nonpayable",
      "type": "function"
    },
    {
      "inputs": [
        {
          "internalType": "address",
          "name": "newAdmin",
          "type": "address"
        }
      ],
      "name": "transferOwnership",
      "outputs": [],
      "stateMutability": "nonpayable",
      "type": "function"
    },
    {
      "inputs": [
        {
          "internalType": "address",
          "name": "_to",
          "type": "address"
        },
        {
          "internalType": "uint256",
          "name": "_amount",
          "type": "uint256"
        }
      ],
      "name": "transferTON",
      "outputs": [
        {
          "internalType": "bool",
          "name": "",
          "type": "bool"
        }
      ],
      "stateMutability": "nonpayable",
      "type": "function"
    },
    {
      "inputs": [
        {
          "internalType": "address",
          "name": "_to",
          "type": "address"
        },
        {
          "internalType": "uint256",
          "name": "_tokenId",
          "type": "uint256"
        }
      ],
      "name": "transferTreasuryGEMto",
      "outputs": [
        {
          "internalType": "bool",
          "name": "",
          "type": "bool"
        }
      ],
      "stateMutability": "nonpayable",
      "type": "function"
    },
    {
      "inputs": [
        {
          "internalType": "address",
          "name": "_to",
          "type": "address"
        },
        {
          "internalType": "uint256",
          "name": "_amount",
          "type": "uint256"
        }
      ],
      "name": "transferWSTON",
      "outputs": [
        {
          "internalType": "bool",
          "name": "",
          "type": "bool"
        }
      ],
      "stateMutability": "nonpayable",
      "type": "function"
    },
    {
      "inputs": [],
      "name": "unpause",
      "outputs": [],
      "stateMutability": "nonpayable",
      "type": "function"
    }
  ],
  "bytecode": "0x60808060405234606557600160048190556301ffc9a760e01b60005260056020527fc01909ce2b517f8cd3a46ae0cfde9179f9b675cf633d3d84c8226585cc73c156805460ff19169091179055600d805460ff60a01b19169055612dc9908161006b8239f35b600080fdfe6080604052600436101561001257600080fd5b6000803560e01c80630169dc311461210157806301ffc9a7146120cf57806302424ed314612034578063044bc7791461200b5780630d727e2b14611f8b57806312608dfb14611e9d578063150b7a0214611e335780631785f53c14611e06578063248a9ca314611dd957806324d7806c14611d815780632ede643214611c115780632f2ff15d14611bd357806330568a8d14611b4057806336568abe14611b0a578063389ed26714611ae15780633b22f11014611ac65780633d007e5714611a9d5780633f4ba83a14611a6157806340e585481461198e578063425c7fc21461129657806348dbcef0146111a857806350d2a27614611163578063550d01a31461112457806363a8fd8914611102578063694eaa40146110d95780636ae638d0146110b05780636b2c0f55146110605780636fcf2fc914610fb85780637048027514610f6a578063715018a614610f4557806372820dbc14610eb257806375829def14610e9857806375b238fc14610e6f57806379dbd79814610c8f57806382dc1ec414610bfa5780638456cb5914610bb85780638f32d59b14610b93578063912b431b1461088a57806391d148541461083e578063952377f31461081557806398d111b2146107565780639d541be21461072d578063a217fddf14610711578063b23a1d0d1461067e578063b911135f1461064b578063bae77ac914610628578063c0c53b8b14610558578063d547741f14610516578063e614751814610482578063ec23919a14610459578063ec7ae61d146103a4578063ed8c2472146103115763f2fde38b1461026457600080fd5b3461030e57602036600319011261030e5761027d6121f5565b61028d6102886126e0565b6124b0565b6102986102886126e0565b6001600160a01b03811680156102fc5733146102ea576102dd90600080516020612d34833981519152835260066020526102d86001604085200154612885565b6128c9565b506102e733612522565b80f35b6040516309cd70b960e21b8152600490fd5b60405163d92e233d60e01b8152600490fd5b80fd5b503461030e57602036600319011261030e5761032b6121f5565b600080516020612d3483398151915282526006602052604082203360005260205260ff604060002054168015610391575b6103659061243c565b61036e8161276c565b600980546001600160a01b0319166001600160a01b039290921691909117905580f35b5061036561039d6126e0565b905061035c565b503461030e57604036600319011261030e576103be6121f5565b90604060243591600080516020612d3483398151915281526006602052203360005260205260ff604060002054168015610446575b6103fc9061243c565b6104058261276c565b8061040e61253e565b1061043457600c5461042992906001600160a01b031661278e565b602060405160018152f35b60405163a5a9c2b760e01b8152600490fd5b506103fc6104526126e0565b90506103f3565b503461030e578060031936011261030e576009546040516001600160a01b039091168152602090f35b503461030e57602036600319011261030e5761049c6121f5565b600080516020612d3483398151915282526006602052604082203360005260205260ff604060002054168015610503575b6104d69061243c565b600754906001600160a01b03906104ee82841661276c565b6001600160a01b031990921691161760075580f35b506104d661050f6126e0565b90506104cd565b503461030e57604036600319011261030e5761055460043561053661220b565b90808452600660205261054f6001604086200154612885565b612c0b565b5080f35b503461030e57606036600319011261030e576105726121f5565b61057a61220b565b6044356001600160a01b03818116939092918490036106235760ff600d5460a81c166105e85782906105ab336129d0565b5060018060a01b0319948560075416176007551683600b541617600b551690600c541617600c55600160a81b60ff60a81b19600d541617600d5580f35b60405162461bcd60e51b8152602060048201526013602482015272185b1c9958591e481a5b9a5d1a585b1a5e9959606a1b6044820152606490fd5b600080fd5b503461030e578060031936011261030e57602061064361272e565b604051908152f35b503461030e57602036600319011261030e57602090600435815260018252604060018060a01b0391205416604051908152f35b503461030e57602036600319011261030e576106986121f5565b600080516020612d3483398151915282526006602052604082203360005260205260ff6040600020541680156106fe575b6106d29061243c565b6106db8161276c565b600d80546001600160a01b0319166001600160a01b039290921691909117905580f35b506106d261070a6126e0565b90506106c9565b503461030e578060031936011261030e57602090604051908152f35b503461030e578060031936011261030e576007546040516001600160a01b039091168152602090f35b503461030e57602036600319011261030e57600080516020612d3483398151915281526006602052604081203360005260205260ff604060002054168015610802575b6107a29061243c565b60085481906001600160a01b0316803b156107ff578180916024604051809481936356d6b49360e11b835260043560048401525af180156107f4576107e45750f35b6107ed90612221565b61030e5780f35b6040513d84823e3d90fd5b50fd5b506107a261080e6126e0565b9050610799565b503461030e578060031936011261030e57600d546040516001600160a01b039091168152602090f35b503461030e57604036600319011261030e57604061085a61220b565b9160043581526006602052209060018060a01b0316600052602052602060ff604060002054166040519015158152f35b503461030e57610100908160031936011261030e576004356006811015610b8f573660431215610623576040516108c08161224a565b606481368211610623576024905b828210610b7757505050366083121561062357604051936108ee85612265565b60e485368211610623576064905b828210610b5f5750505060e4356001600160401b038111610b5b576109259036906004016122e1565b9060018060a01b0395866009541633148015610b4e575b8015610b3b575b61094c906125f6565b61095461272e565b96600754169360405197630265f21b60e51b895260209889816004818a5afa908115610b30578991610b03575b50604051630b513d9960e01b81529061099d600483018a61265a565b8a826024818b5afa908115610af8578a91610ac7575b6109bd925061267d565b11610ab5579287949287926109e7979560405198899763975781b760e01b8952600489019061265a565b84602488015b60028210610a95575050506064860184905b60048210610a7557505050610a22859392849260e48401526101048301906126a0565b03925af1918215610a695791610a3c575b50604051908152f35b90508181813d8311610a62575b610a538183612280565b81010312610623575138610a33565b503d610a49565b604051903d90823e3d90fd5b825160ff1681528b988a98508b96509283019260019290920191016109ff565b825160ff1681528c998b99508c97509283019260019290920191016109ed565b60405163f2cd224d60e01b8152600490fd5b90508a82813d8311610af1575b610ade8183612280565b81010312610623576109bd9151906109b3565b503d610ad4565b6040513d8c823e3d90fd5b90508981813d8311610b29575b610b1a8183612280565b81010312610623575138610981565b503d610b10565b6040513d8b823e3d90fd5b5061094c610b476126e0565b9050610943565b508660085416331461093c565b8480fd5b60208091610b6c846122b8565b8152019101906108fc565b60208091610b84846122b8565b8152019101906108ce565b5080fd5b503461030e578060031936011261030e576020610bae6126e0565b6040519015158152f35b503461030e578060031936011261030e57610bd46102886126e0565b600d54610be760ff8260a01c16156125b7565b60ff60a01b1916600160a01b17600d5580f35b503461030e57602036600319011261030e57610554610c176121f5565b600080516020612d3483398151915283526006602052604083203360005260205260ff604060002054168015610c7c575b610c519061243c565b600080516020612d1483398151915283526006602052610c776001604085200154612885565b612946565b50610c51610c886126e0565b9050610c48565b503461030e57806003196040368201126107ff576001600160401b03600435818111610e6a57610cc390369060040161235c565b90602435908111610e6a57610cdc90369060040161235c565b600080516020612d3483398151915284526006602052604084203360005260205260ff604060002054168015610e57575b610d169061243c565b60075460085460405163e985e9c560e01b81526001600160a01b039283169183169060208180610d4a853060048401612508565b0381865afa908115610e4c578891610e1d575b5015610dbf575b505060085416803b15610b5b57610d9f858094610dae60405197889687958694630f3b7af360e31b8652604060048701526044860190612328565b91848303016024850152612328565b03925af180156107f4576107e45750f35b813b15610e1957869160448392604051948593849263a22cb46560e01b84526004840152600160248401525af1908115610e0e57869115610d6457610e0390612221565b610b5b578438610d64565b6040513d88823e3d90fd5b8680fd5b610e3f915060203d602011610e45575b610e378183612280565b81019061247d565b38610d5d565b503d610e2d565b6040513d8a823e3d90fd5b50610d16610e636126e0565b9050610d0d565b505050fd5b503461030e578060031936011261030e576020604051600080516020612d348339815191528152f35b503461030e57602036600319011261030e5761028d6121f5565b503461030e57602036600319011261030e57610ecc6121f5565b600080516020612d3483398151915282526006602052604082203360005260205260ff604060002054168015610f32575b610f069061243c565b610f0f8161276c565b600a80546001600160a01b0319166001600160a01b039290921691909117905580f35b50610f06610f3e6126e0565b9050610efd565b503461030e578060031936011261030e57610f616102886126e0565b61055433612b2e565b503461030e57602036600319011261030e57610554610f876121f5565b610f926102886126e0565b600080516020612d34833981519152835260066020526102d86001604085200154612885565b503461030e57604036600319011261030e5780610fd36121f5565b600080516020612d3483398151915282526006602052604082203360005260205260ff60406000205416801561104d575b61100d9061243c565b6007546001600160a01b0316803b156110495760405163095ea7b360e01b81529183918391829084908290610dae906024359060048401612495565b5050fd5b5061100d6110596126e0565b9050611004565b503461030e57602036600319011261030e5761107a6121f5565b6110856102886126e0565b336001600160a01b0382160361109e5761055490612aa6565b60405163334bd91960e11b8152600490fd5b503461030e578060031936011261030e57600c546040516001600160a01b039091168152602090f35b503461030e578060031936011261030e576008546040516001600160a01b039091168152602090f35b503461030e578060031936011261030e5760ff60209154166040519015158152f35b503461030e57602036600319011261030e5760209060ff906040906001600160a01b0361114f6121f5565b168152600284522054166040519015158152f35b503461030e57602036600319011261030e5760043563ffffffff60e01b8116809103610b8f5790602091815260038252604060018060a01b0391205416604051908152f35b503461030e57604036600319011261030e576111c26121f5565b6007546001600160a01b03908116918391903384148015611289575b801561127c575b801561126f575b801561125c575b6111fc906123bc565b833b15611258576064908360405195869485936323b872dd60e01b855230600486015216602484015260243560448401525af180156107f45761124457602060405160018152f35b61124e8291612221565b61030e5780610429565b8280fd5b506111fc6112686126e0565b90506111f3565b5081600a541633146111ec565b50816009541633146111e5565b50816008541633146111de565b503461030e57608036600319011261030e57600435906001600160401b03821161030e573660238301121561030e578160040135906112d4826122a1565b926112e26040519485612280565b82845260208401906024829460051b8201019036821161171357602401915b81831061197557505050602435926001600160401b038411610b8f5736602385011215610b8f57836004013590611337826122a1565b916113456040519384612280565b808352602083019081963660248360061b830101116119715760248101925b60248360061b830101841061191757505050506001600160401b0360443511611258573660236044350112156112585760443560040135946113a5866122a1565b956113b36040519788612280565b8087526020870180913660248260071b604435010111610e1957602460443501915b60248260071b604435010183106118bd575050506001600160401b0360643511610b5b57366023606435011215610b5b57611415606435600401356122a1565b6114226040519182612280565b6064356004013581526020810192833660246064356004013560051b6064350101116118b957602460643501905b60246064356004013560051b606435010182106118855750506009546001600160a01b031633148015611871575b801561185e575b61149290999698996125f6565b600754969889976001600160a01b03169690885b87518c101561155c5760208c60051b89010151600681101561154857604051630b513d9960e01b8152906114de90600483019061265a565b6020816024818d5afa90811561153d578b9161150a575b506115029060019261267d565b9b019a6114a6565b90506020813d602011611535575b8161152560209383612280565b81010312610623575160016114f5565b3d9150611518565b6040513d8d823e3d90fd5b634e487b7160e01b8b52602160045260248bfd5b8a90989798600461156b61272e565b9160208b60405193848092630265f21b60e51b82525afa8015611853578d9061181f575b611599925061267d565b11610ab557979593918997959391604051998a98630ff1ac6760e01b8a5260848a0190608060048c01525180915260a48a0192908b5b8181106117ea575050506020906003198a84030160248b01525191828152019290895b818110611798575050506020906003198884030160448901525191828152019290875b81811061174a5750505060031985830301606486015251808252602082019160208260051b820101939287915b8383106117175750505050508383809203925af19081156107f457829161167e575b6040516020808252819061167a90820185612328565b0390f35b90503d8083833e61168f8183612280565b810190602081830312611258578051906001600160401b038211611713570181601f82011215611258578051906116c5826122a1565b936116d36040519586612280565b82855260208086019360051b83010193841161030e5750602001905b8282106117035750505061167a9082611664565b81518152602091820191016116ef565b8380fd5b9295975092955092602080611738600193601f1986820301875289516126a0565b97019301930187959389979592611642565b929496509290809597505181908a915b6004831061177f57505050602060806001920195019101908896949288969492611615565b60208060019260ff85511681520192019201919061175a565b9294969850929080959799505181908c915b600283106117d157505050602060406001920195019101908a989694928a989694926115f2565b60208060019260ff8551168152019201920191906117aa565b929496989a5092819597999b5060208161180882936001955161265a565b0195019101908c9a989694928c9a989694926115cf565b506020823d60201161184b575b8161183960209383612280565b8101031261062357611599915161158f565b3d915061182c565b6040513d8f823e3d90fd5b5061149261186a6126e0565b9050611485565b506008546001600160a01b0316331461147e565b6001600160401b038235116118b557602080916118aa366024863560643501016122e1565b815201910190611450565b8880fd5b8780fd5b36601f84011215610623576040516118d481612265565b803660808601116106235784905b6080860182106118ff5750508152608092909201916020016113d5565b6020809161190c846122b8565b8152019101906118e2565b36601f850112156106235760405161192e8161224a565b803660408701116106235785905b604087018210611959575050815260409390930192602001611364565b60208091611966846122b8565b81520191019061193c565b8580fd5b82356006811015610b5b57815260209283019201611301565b503461030e57602036600319011261030e576008546001600160a01b0390811633819003611a0d576119e36020918493600b54169060405194858094819363095ea7b360e01b83526004359060048401612495565b03925af180156107f4576119f5575080f35b6105549060203d602011610e4557610e378183612280565b60405162461bcd60e51b815260206004820152602660248201527f63616c6c6572206973206e6f7420746865206d61726b6574706c61636520636f6044820152651b9d1c9858dd60d21b6064820152608490fd5b503461030e578060031936011261030e57611a7d6102886126e0565b600d54611a9060ff8260a01c16156125b7565b60ff60a01b1916600d5580f35b503461030e578060031936011261030e57600a546040516001600160a01b039091168152602090f35b503461030e578060031936011261030e57602061064361253e565b503461030e578060031936011261030e576020604051600080516020612d148339815191528152f35b503461030e57604036600319011261030e57611b2461220b565b336001600160a01b0382160361109e5761055490600435612c0b565b503461030e57602036600319011261030e57611b5a6121f5565b600080516020612d3483398151915282526006602052604082203360005260205260ff604060002054168015611bc0575b611b949061243c565b611b9d8161276c565b600880546001600160a01b0319166001600160a01b039290921691909117905580f35b50611b94611bcc6126e0565b9050611b8b565b503461030e57604036600319011261030e57610554600435611bf361220b565b908084526006602052611c0c6001604086200154612885565b612a3d565b503461030e57604036600319011261030e57600080516020612d3483398151915281526006602052604081203360005260205260ff604060002054168015611d6e575b611c5d9061243c565b8060018060a01b038060075416816008541660405163e985e9c560e01b815260208180611c8e853060048401612508565b0381865afa908115611d63578591611d44575b5015611cea575b505060085416803b156107ff5781809160446040518094819363176f321960e11b8352600435600484015260243560248401525af180156107f4576107e45750f35b813b15610e6a57839160448392604051948593849263a22cb46560e01b84526004840152600160248401525af1908115611d3957839115611ca857611d2e90612221565b6107ff578138611ca8565b6040513d85823e3d90fd5b611d5d915060203d602011610e4557610e378183612280565b38611ca1565b6040513d87823e3d90fd5b50611c5d611d7a6126e0565b9050611c54565b503461030e57602036600319011261030e576040611d9d6121f5565b91600080516020612d3483398151915281526006602052209060018060a01b0316600052602052602060ff604060002054166040519015158152f35b503461030e57602036600319011261030e5760016040602092600435815260068452200154604051908152f35b503461030e57602036600319011261030e576102e7611e236121f5565b611e2e6102886126e0565b612522565b503461030e57608036600319011261030e57611e4d6121f5565b50611e5661220b565b506064356001600160401b038082116112585736602383011215611258578160040135908111611258573691016024011161030e57604051630a85bd0160e11b8152602090f35b503461030e576020908160031936011261030e57600d546001600160a01b03908116903382148015611f7d575b15611f3c57611f0483928592600c541690611ee48261276c565b60405195868094819363095ea7b360e01b83526004359060048401612495565b03925af1908115610a695750611f1f575b5060405160018152f35b611f3590823d8411610e4557610e378183612280565b5038611f15565b60405162461bcd60e51b815260048101859052601960248201527831b0b63632b91034b9903737ba103a34329029bbb0b83832b960391b6044820152606490fd5b50611f866126e0565b611eca565b503461030e57602036600319011261030e57611fa633612703565b8015611ff8575b611fb69061243c565b600d5481906001600160a01b0316803b156107ff57818091602460405180948193630d727e2b60e01b835260043560048401525af180156107f4576107e45750f35b50611fb66120046126e0565b9050611fad565b503461030e578060031936011261030e57600b546040516001600160a01b039091168152602090f35b503461030e57604036600319011261030e57806024358015158091036107ff5761205d33612703565b80156120bc575b61206d9061243c565b6008546001600160a01b0316803b15611049576044839260405194859384926302424ed360e01b8452600435600485015260248401525af180156107f4576120b3575080f35b6102e790612221565b5061206d6120c86126e0565b9050612064565b503461030e57602036600319011261030e57600435906001600160e01b03198216820361030e576020610bae83612859565b503461030e57604036600319011261030e5761211b6121f5565b6007546001600160a01b0391602435918316331480156121e8575b80156121db575b80156121ce575b80156121bb575b612154906123bc565b6002600454146121a957600260045561216c8161276c565b8161217561272e565b106121975761218792600b541661278e565b6001600455602060405160018152f35b604051638e85197360e01b8152600490fd5b604051633ee5aeb560e01b8152600490fd5b506121546121c76126e0565b905061214b565b5082600a54163314612144565b508260095416331461213d565b5082600854163314612136565b600435906001600160a01b038216820361062357565b602435906001600160a01b038216820361062357565b6001600160401b03811161223457604052565b634e487b7160e01b600052604160045260246000fd5b604081019081106001600160401b0382111761223457604052565b608081019081106001600160401b0382111761223457604052565b90601f801991011681019081106001600160401b0382111761223457604052565b6001600160401b0381116122345760051b60200190565b359060ff8216820361062357565b6001600160401b03811161223457601f01601f191660200190565b81601f82011215610623578035906122f8826122c6565b926123066040519485612280565b8284526020838301011161062357816000926020809301838601378301015290565b90815180825260208080930193019160005b828110612348575050505090565b83518552938101939281019260010161233a565b9080601f83011215610623576020908235612376816122a1565b936123846040519586612280565b81855260208086019260051b82010192831161062357602001905b8282106123ad575050505090565b8135815290830190830161239f565b156123c357565b60405162461bcd60e51b815260206004820152604560248201527f63616c6c6572206973206e656974686572204f776e6572206e6f722047656d4660448201527f6163746f7279206e6f72204d61726b6574506c616365206e6f722052616e646f6064820152646d5061636b60d81b608482015260a490fd5b1561244357565b60405162461bcd60e51b81526020600482015260126024820152713737ba1027bbb732b91037b91020b236b4b760711b6044820152606490fd5b90816020910312610623575180151581036106235790565b6001600160a01b039091168152602081019190915260400190565b156124b757565b60405162461bcd60e51b8152602060048201526024808201527f41757468436f6e74726f6c3a2043616c6c6572206973206e6f7420746865206f6044820152633bb732b960e11b6064820152608490fd5b6001600160a01b0391821681529116602082015260400190565b336001600160a01b0382160361109e5761253b90612b95565b50565b600c546040516370a0823160e01b815230600482015290602090829060249082906001600160a01b03165afa9081156125ab5760009161257c575090565b90506020813d6020116125a3575b8161259760209383612280565b81010312610623575190565b3d915061258a565b6040513d6000823e3d90fd5b156125be57565b60405162461bcd60e51b815260206004820152601060248201526f14185d5cd8589b194e881c185d5cd95960821b6044820152606490fd5b156125fd57565b60405162461bcd60e51b815260206004820152602f60248201527f63616c6c6572206973206e656974686572206f776e6572206e6f722072616e6460448201526e1bdb541858dac818dbdb9d1c9858dd608a1b6064820152608490fd5b9060068210156126675752565b634e487b7160e01b600052602160045260246000fd5b9190820180921161268a57565b634e487b7160e01b600052601160045260246000fd5b919082519283825260005b8481106126cc575050826000602080949584010152601f8019910116010190565b6020818301810151848301820152016126ab565b336000908152600080516020612d74833981519152602052604090205460ff1690565b6001600160a01b03166000908152600080516020612cf4833981519152602052604090205460ff1690565b600b546040516370a0823160e01b815230600482015290602090829060249082906001600160a01b03165afa9081156125ab5760009161257c575090565b6001600160a01b03161561277c57565b60405163e6c4247b60e01b8152600490fd5b60006128089281926127c96127bb96604051978891602083019563a9059cbb60e01b875260248401612495565b03601f198101885287612280565b60018060a01b031694519082865af13d15612851573d906127e9826122c6565b916127f76040519384612280565b82523d6000602084013e5b83612c70565b8051908115159182612836575b505061281e5750565b60249060405190635274afe760e01b82526004820152fd5b612849925060208091830101910161247d565b153880612815565b606090612802565b6001600160e01b03198116637965db0b60e01b14908115612878575090565b6128829150612859565b90565b80600052600660205260406000203360005260205260ff60406000205416156128ab5750565b6044906040519063e2517d3f60e01b82523360048301526024820152fd5b6001600160a01b03166000818152600080516020612cf48339815191526020526040812054909190600080516020612d348339815191529060ff166129415780835260066020526040832082845260205260408320600160ff19825416179055600080516020612cd4833981519152339380a4600190565b505090565b6001600160a01b031660008181527f1f8dd7b22d148f841c713baeaaa6d87f64519d51ae5db1519f67dc96623cc8d86020526040812054909190600080516020612d148339815191529060ff166129415780835260066020526040832082845260205260408320600160ff19825416179055600080516020612cd4833981519152339380a4600190565b6001600160a01b03166000818152600080516020612d74833981519152602052604081205490919060ff16612a395781805260066020526040822081835260205260408220600160ff198254161790553391600080516020612cd48339815191528180a4600190565b5090565b906000918083526006602052604083209160018060a01b03169182845260205260ff604084205416156000146129415780835260066020526040832082845260205260408320600160ff19825416179055600080516020612cd4833981519152339380a4600190565b6001600160a01b031660008181527f1f8dd7b22d148f841c713baeaaa6d87f64519d51ae5db1519f67dc96623cc8d86020526040812054909190600080516020612d148339815191529060ff1615612941578083526006602052604083208284526020526040832060ff198154169055600080516020612d54833981519152339380a4600190565b6001600160a01b03166000818152600080516020612d74833981519152602052604081205490919060ff1615612a39578180526006602052604082208183526020526040822060ff1981541690553391600080516020612d548339815191528180a4600190565b6001600160a01b03166000818152600080516020612cf48339815191526020526040812054909190600080516020612d348339815191529060ff1615612941578083526006602052604083208284526020526040832060ff198154169055600080516020612d54833981519152339380a4600190565b906000918083526006602052604083209160018060a01b03169182845260205260ff604084205416600014612941578083526006602052604083208284526020526040832060ff198154169055600080516020612d54833981519152339380a4600190565b90612c975750805115612c8557805190602001fd5b604051630a12f52160e11b8152600490fd5b81511580612cca575b612ca8575090565b604051639996b31560e01b81526001600160a01b039091166004820152602490fd5b50803b15612ca056fe2f8788117e7eff1d82e926ec794901d17c78024a50270940304540a733656f0d31f4bc5980931cfff8fcc0887a354f492c853dee1983bdef4d9cb3e8a5ff876efcb9fcbfa83b897fb2d5cf4b58962164105c1e71489a37ef3ae0db3fdce576f6df8b4c520ffe197c5343c6f5aec59570151ef9a492f2c624fd45ddde6135ec42f6391f5c32d9c69d2a47ea670b442974b53935d1edc7fd64eb21e047a839171b54cdd369e4e8a8515e52ca72ec816c2101831ad1f18bf44102ed171459c9b4f8a2646970667358221220496d855914f55eef828be74c7ef13c5466f6b06b1570be0abf6be18c06b011ec64736f6c63430008190033",
  "linkReferences": {},
  "deployedLinkReferences": {}
}