{
  "_format": "hh-sol-artifact-1",
  "contractName": "Treasury",
  "sourceName": "src/L2/Treasury.sol",
  "abi": [
    {
      "inputs": [
        {
          "internalType": "address",
          "name": "_wston",
          "type": "address"
        },
        {
          "internalType": "address",
          "name": "_ton",
          "type": "address"
        },
        {
          "internalType": "address",
          "name": "_gemFactory",
          "type": "address"
        }
      ],
      "stateMutability": "nonpayable",
      "type": "constructor"
    },
    {
      "inputs": [],
      "name": "AccessControlBadConfirmation",
      "type": "error"
    },
    {
      "inputs": [
        {
          "internalType": "address",
          "name": "account",
          "type": "address"
        },
        {
          "internalType": "bytes32",
          "name": "neededRole",
          "type": "bytes32"
        }
      ],
      "name": "AccessControlUnauthorizedAccount",
      "type": "error"
    },
    {
      "inputs": [
        {
          "internalType": "address",
          "name": "target",
          "type": "address"
        }
      ],
      "name": "AddressEmptyCode",
      "type": "error"
    },
    {
      "inputs": [
        {
          "internalType": "address",
          "name": "account",
          "type": "address"
        }
      ],
      "name": "AddressInsufficientBalance",
      "type": "error"
    },
    {
      "inputs": [],
      "name": "FailedInnerCall",
      "type": "error"
    },
    {
      "inputs": [],
      "name": "ReentrancyGuardReentrantCall",
      "type": "error"
    },
    {
      "inputs": [
        {
          "internalType": "address",
          "name": "token",
          "type": "address"
        }
      ],
      "name": "SafeERC20FailedOperation",
      "type": "error"
    },
    {
      "anonymous": false,
      "inputs": [
        {
          "indexed": true,
          "internalType": "bytes32",
          "name": "role",
          "type": "bytes32"
        },
        {
          "indexed": true,
          "internalType": "bytes32",
          "name": "previousAdminRole",
          "type": "bytes32"
        },
        {
          "indexed": true,
          "internalType": "bytes32",
          "name": "newAdminRole",
          "type": "bytes32"
        }
      ],
      "name": "RoleAdminChanged",
      "type": "event"
    },
    {
      "anonymous": false,
      "inputs": [
        {
          "indexed": true,
          "internalType": "bytes32",
          "name": "role",
          "type": "bytes32"
        },
        {
          "indexed": true,
          "internalType": "address",
          "name": "account",
          "type": "address"
        },
        {
          "indexed": true,
          "internalType": "address",
          "name": "sender",
          "type": "address"
        }
      ],
      "name": "RoleGranted",
      "type": "event"
    },
    {
      "anonymous": false,
      "inputs": [
        {
          "indexed": true,
          "internalType": "bytes32",
          "name": "role",
          "type": "bytes32"
        },
        {
          "indexed": true,
          "internalType": "address",
          "name": "account",
          "type": "address"
        },
        {
          "indexed": true,
          "internalType": "address",
          "name": "sender",
          "type": "address"
        }
      ],
      "name": "RoleRevoked",
      "type": "event"
    },
    {
      "inputs": [],
      "name": "ADMIN_ROLE",
      "outputs": [
        {
          "internalType": "bytes32",
          "name": "",
          "type": "bytes32"
        }
      ],
      "stateMutability": "view",
      "type": "function"
    },
    {
      "inputs": [],
      "name": "DEFAULT_ADMIN_ROLE",
      "outputs": [
        {
          "internalType": "bytes32",
          "name": "",
          "type": "bytes32"
        }
      ],
      "stateMutability": "view",
      "type": "function"
    },
    {
      "inputs": [],
      "name": "PAUSE_ROLE",
      "outputs": [
        {
          "internalType": "bytes32",
          "name": "",
          "type": "bytes32"
        }
      ],
      "stateMutability": "view",
      "type": "function"
    },
    {
      "inputs": [
        {
          "internalType": "address",
          "name": "account",
          "type": "address"
        }
      ],
      "name": "addAdmin",
      "outputs": [],
      "stateMutability": "nonpayable",
      "type": "function"
    },
    {
      "inputs": [
        {
          "internalType": "address",
          "name": "account",
          "type": "address"
        }
      ],
      "name": "addPauser",
      "outputs": [],
      "stateMutability": "nonpayable",
      "type": "function"
    },
    {
      "inputs": [],
      "name": "approveGemFactory",
      "outputs": [],
      "stateMutability": "nonpayable",
      "type": "function"
    },
    {
      "inputs": [
        {
          "internalType": "uint256",
          "name": "_tokenId",
          "type": "uint256"
        },
        {
          "internalType": "bool",
          "name": "_paymentMethod",
          "type": "bool"
        }
      ],
      "name": "buyGem",
      "outputs": [],
      "stateMutability": "nonpayable",
      "type": "function"
    },
    {
      "inputs": [
        {
          "internalType": "enum GemFactoryStorage.Rarity",
          "name": "_rarity",
          "type": "uint8"
        },
        {
          "internalType": "uint8[2]",
          "name": "_color",
          "type": "uint8[2]"
        },
        {
          "internalType": "uint8[4]",
          "name": "_quadrants",
          "type": "uint8[4]"
        },
        {
          "internalType": "string",
          "name": "_tokenURI",
          "type": "string"
        }
      ],
      "name": "createPreminedGEM",
      "outputs": [
        {
          "internalType": "uint256",
          "name": "",
          "type": "uint256"
        }
      ],
      "stateMutability": "nonpayable",
      "type": "function"
    },
    {
      "inputs": [
        {
          "internalType": "enum GemFactoryStorage.Rarity[]",
          "name": "_rarities",
          "type": "uint8[]"
        },
        {
          "internalType": "uint8[2][]",
          "name": "_colors",
          "type": "uint8[2][]"
        },
        {
          "internalType": "uint8[4][]",
          "name": "_quadrants",
          "type": "uint8[4][]"
        },
        {
          "internalType": "string[]",
          "name": "_tokenURIs",
          "type": "string[]"
        }
      ],
      "name": "createPreminedGEMPool",
      "outputs": [
        {
          "internalType": "uint256[]",
          "name": "",
          "type": "uint256[]"
        }
      ],
      "stateMutability": "nonpayable",
      "type": "function"
    },
    {
      "inputs": [],
      "name": "getGemFactoryAddress",
      "outputs": [
        {
          "internalType": "address",
          "name": "",
          "type": "address"
        }
      ],
      "stateMutability": "view",
      "type": "function"
    },
    {
      "inputs": [
        {
          "internalType": "bytes32",
          "name": "role",
          "type": "bytes32"
        }
      ],
      "name": "getRoleAdmin",
      "outputs": [
        {
          "internalType": "bytes32",
          "name": "",
          "type": "bytes32"
        }
      ],
      "stateMutability": "view",
      "type": "function"
    },
    {
      "inputs": [],
      "name": "getTONBalance",
      "outputs": [
        {
          "internalType": "uint256",
          "name": "",
          "type": "uint256"
        }
      ],
      "stateMutability": "view",
      "type": "function"
    },
    {
      "inputs": [],
      "name": "getWSTONBalance",
      "outputs": [
        {
          "internalType": "uint256",
          "name": "",
          "type": "uint256"
        }
      ],
      "stateMutability": "view",
      "type": "function"
    },
    {
      "inputs": [
        {
          "internalType": "bytes32",
          "name": "role",
          "type": "bytes32"
        },
        {
          "internalType": "address",
          "name": "account",
          "type": "address"
        }
      ],
      "name": "grantRole",
      "outputs": [],
      "stateMutability": "nonpayable",
      "type": "function"
    },
    {
      "inputs": [
        {
          "internalType": "bytes32",
          "name": "role",
          "type": "bytes32"
        },
        {
          "internalType": "address",
          "name": "account",
          "type": "address"
        }
      ],
      "name": "hasRole",
      "outputs": [
        {
          "internalType": "bool",
          "name": "",
          "type": "bool"
        }
      ],
      "stateMutability": "view",
      "type": "function"
    },
    {
      "inputs": [
        {
          "internalType": "address",
          "name": "account",
          "type": "address"
        }
      ],
      "name": "isAdmin",
      "outputs": [
        {
          "internalType": "bool",
          "name": "",
          "type": "bool"
        }
      ],
      "stateMutability": "view",
      "type": "function"
    },
    {
      "inputs": [],
      "name": "isOwner",
      "outputs": [
        {
          "internalType": "bool",
          "name": "",
          "type": "bool"
        }
      ],
      "stateMutability": "view",
      "type": "function"
    },
    {
      "inputs": [
        {
          "internalType": "address",
          "name": "",
          "type": "address"
        },
        {
          "internalType": "address",
          "name": "",
          "type": "address"
        },
        {
          "internalType": "uint256",
          "name": "",
          "type": "uint256"
        },
        {
          "internalType": "bytes",
          "name": "",
          "type": "bytes"
        }
      ],
      "name": "onERC721Received",
      "outputs": [
        {
          "internalType": "bytes4",
          "name": "",
          "type": "bytes4"
        }
      ],
      "stateMutability": "pure",
      "type": "function"
    },
    {
      "inputs": [
        {
          "internalType": "uint256",
          "name": "_tokenId",
          "type": "uint256"
        },
        {
          "internalType": "uint256",
          "name": "_price",
          "type": "uint256"
        }
      ],
      "name": "putGemForSale",
      "outputs": [],
      "stateMutability": "nonpayable",
      "type": "function"
    },
    {
      "inputs": [
        {
          "internalType": "uint256[]",
          "name": "tokenIds",
          "type": "uint256[]"
        },
        {
          "internalType": "uint256[]",
          "name": "prices",
          "type": "uint256[]"
        }
      ],
      "name": "putGemListForSale",
      "outputs": [],
      "stateMutability": "nonpayable",
      "type": "function"
    },
    {
      "inputs": [
        {
          "internalType": "address",
          "name": "account",
          "type": "address"
        }
      ],
      "name": "removeAdmin",
      "outputs": [],
      "stateMutability": "nonpayable",
      "type": "function"
    },
    {
      "inputs": [
        {
          "internalType": "uint256",
          "name": "_tokenId",
          "type": "uint256"
        }
      ],
      "name": "removeGemFromSale",
      "outputs": [],
      "stateMutability": "nonpayable",
      "type": "function"
    },
    {
      "inputs": [
        {
          "internalType": "address",
          "name": "account",
          "type": "address"
        }
      ],
      "name": "removePauser",
      "outputs": [],
      "stateMutability": "nonpayable",
      "type": "function"
    },
    {
      "inputs": [],
      "name": "renounceOwnership",
      "outputs": [],
      "stateMutability": "nonpayable",
      "type": "function"
    },
    {
      "inputs": [
        {
          "internalType": "bytes32",
          "name": "role",
          "type": "bytes32"
        },
        {
          "internalType": "address",
          "name": "callerConfirmation",
          "type": "address"
        }
      ],
      "name": "renounceRole",
      "outputs": [],
      "stateMutability": "nonpayable",
      "type": "function"
    },
    {
      "inputs": [
        {
          "internalType": "bytes32",
          "name": "role",
          "type": "bytes32"
        },
        {
          "internalType": "address",
          "name": "account",
          "type": "address"
        }
      ],
      "name": "revokeRole",
      "outputs": [],
      "stateMutability": "nonpayable",
      "type": "function"
    },
    {
      "inputs": [
        {
          "internalType": "address",
          "name": "_gemFactory",
          "type": "address"
        }
      ],
      "name": "setGemFactory",
      "outputs": [],
      "stateMutability": "nonpayable",
      "type": "function"
    },
    {
      "inputs": [
        {
          "internalType": "address",
          "name": "marketplace",
          "type": "address"
        }
      ],
      "name": "setMarketPlace",
      "outputs": [],
      "stateMutability": "nonpayable",
      "type": "function"
    },
    {
      "inputs": [
        {
          "internalType": "address",
          "name": "_randomPack",
          "type": "address"
        }
      ],
      "name": "setRandomPack",
      "outputs": [],
      "stateMutability": "nonpayable",
      "type": "function"
    },
    {
      "inputs": [
        {
          "internalType": "address",
          "name": "_wstonSwapPool",
          "type": "address"
        }
      ],
      "name": "setWstonSwapPool",
      "outputs": [],
      "stateMutability": "nonpayable",
      "type": "function"
    },
    {
      "inputs": [
        {
          "internalType": "bytes4",
          "name": "interfaceId",
          "type": "bytes4"
        }
      ],
      "name": "supportsInterface",
      "outputs": [
        {
          "internalType": "bool",
          "name": "",
          "type": "bool"
        }
      ],
      "stateMutability": "view",
      "type": "function"
    },
    {
      "inputs": [
        {
          "internalType": "uint256",
          "name": "tonAmount",
          "type": "uint256"
        }
      ],
      "name": "swapTONforWSTON",
      "outputs": [],
      "stateMutability": "nonpayable",
      "type": "function"
    },
    {
      "inputs": [],
      "name": "tonApproveMarketPlace",
      "outputs": [],
      "stateMutability": "nonpayable",
      "type": "function"
    },
    {
      "inputs": [],
      "name": "tonApproveWstonSwapPool",
      "outputs": [],
      "stateMutability": "nonpayable",
      "type": "function"
    },
    {
      "inputs": [
        {
          "internalType": "address",
          "name": "newAdmin",
          "type": "address"
        }
      ],
      "name": "transferAdmin",
      "outputs": [],
      "stateMutability": "nonpayable",
      "type": "function"
    },
    {
      "inputs": [
        {
          "internalType": "address",
          "name": "newAdmin",
          "type": "address"
        }
      ],
      "name": "transferOwnership",
      "outputs": [],
      "stateMutability": "nonpayable",
      "type": "function"
    },
    {
      "inputs": [
        {
          "internalType": "address",
          "name": "_to",
          "type": "address"
        },
        {
          "internalType": "uint256",
          "name": "_amount",
          "type": "uint256"
        }
      ],
      "name": "transferTON",
      "outputs": [
        {
          "internalType": "bool",
          "name": "",
          "type": "bool"
        }
      ],
      "stateMutability": "nonpayable",
      "type": "function"
    },
    {
      "inputs": [
        {
          "internalType": "address",
          "name": "_to",
          "type": "address"
        },
        {
          "internalType": "uint256",
          "name": "_tokenId",
          "type": "uint256"
        }
      ],
      "name": "transferTreasuryGEMto",
      "outputs": [
        {
          "internalType": "bool",
          "name": "",
          "type": "bool"
        }
      ],
      "stateMutability": "nonpayable",
      "type": "function"
    },
    {
      "inputs": [
        {
          "internalType": "address",
          "name": "_to",
          "type": "address"
        },
        {
          "internalType": "uint256",
          "name": "_amount",
          "type": "uint256"
        }
      ],
      "name": "transferWSTON",
      "outputs": [
        {
          "internalType": "bool",
          "name": "",
          "type": "bool"
        }
      ],
      "stateMutability": "nonpayable",
      "type": "function"
    },
    {
      "inputs": [],
      "name": "wstonApproveMarketPlace",
      "outputs": [],
      "stateMutability": "nonpayable",
      "type": "function"
    }
  ],
  "bytecode": "0x6080346100bc57601f6127e838819003918201601f19168301916001600160401b038311848410176100c1578084926060946040528339810103126100bc57610047816100d7565b61005f6040610058602085016100d7565b93016100d7565b60016000556007805460ff60a01b191690559161007b336100eb565b5060018060a01b0380928160018060a01b03199516856002541617600255168360055416176005551690600654161760065560405161266b908161017d8239f35b600080fd5b634e487b7160e01b600052604160045260246000fd5b51906001600160a01b03821682036100bc57565b6001600160a01b031660008181527fa6eef7e35abe7026729641147f7915573c7e97b47efa546f5f6e3230263bcb49602052604081205490919060ff166101785781805260016020526040822081835260205260408220600160ff1982541617905533917f2f8788117e7eff1d82e926ec794901d17c78024a50270940304540a733656f0d8180a4600190565b509056fe6080604052600436101561001257600080fd5b6000803560e01c80630169dc311461194457806301ffc9a7146118ed57806302424ed31461184e57806307db4470146117e05780630d727e2b14611760578063150b7a02146116f65780631785f53c146116c957806320e641b71461165b578063248a9ca31461162f57806324d7806c146115d75780632ede64321461152e5780632f2ff15d146114f057806330568a8d146114a057806336568abe1461146a578063389ed267146114415780633b22f11014611426578063425c7fc214610d9657806348dbcef014610cbc578063520aefae14610c835780636b2c0f5514610c335780637048027514610be5578063715018a614610bc057806375829def14610ba657806375b238fc14610b7d57806379dbd79814610a7d57806382dc1ec4146109e85780638f32d59b146109c357806391005b081461092d578063912b431b1461066d57806391d148541461062157806398d111b2146105625780639d541be214610539578063a217fddf1461051d578063b23a1d0d146104cd578063bae77ac9146104aa578063d547741f14610468578063e614751814610414578063ec7ae61d1461032c578063ed8c2472146102dc5763f2fde38b146101d557600080fd5b346102d95760203660031901126102d9576101ee611a55565b6101fe6101f961203a565b611d18565b6102096101f961203a565b6001600160a01b038116801561029957331461025b5761024e906000805160206125f683398151915283526001602052610249600160408520015461219e565b6121e2565b5061025833611e0a565b80f35b60405162461bcd60e51b815260206004820152601660248201527520b1b1b2b9b9b4b136329d1039b0b6b29030b236b4b760511b6044820152606490fd5b60405162461bcd60e51b815260206004820152601860248201527741636365737369626c653a207a65726f206164647265737360401b6044820152606490fd5b80fd5b50346102d95760203660031901126102d9576102f6611a55565b6103016101f961203a565b6001600160a01b0316610315811515611dcc565b600480546001600160a01b03191691909117905580f35b50346102d95760403660031901126102d957610346611a55565b906040602435916000805160206125f683398151915281526001602052203360005260205260ff604060002054168015610401575b61038490611cd7565b6001600160a01b039161039a8184161515611c9c565b816103a3611e26565b106103c0576103b592600654166120d8565b602060405160018152f35b60405162461bcd60e51b8152602060048201526019602482015278556e7375666669736369656e7420544f4e2062616c616e636560381b6044820152606490fd5b5061038461040d61203a565b905061037b565b50346102d95760203660031901126102d95761042e611a55565b6104396101f961203a565b600254906001600160a01b03906104538284161515611dcc565b6001600160a01b031990921691161760025580f35b50346102d95760403660031901126102d9576104a6600435610488611a6b565b9080845260016020526104a1600160408620015461219e565b6124cd565b5080f35b50346102d957806003193601126102d95760206104c561209a565b604051908152f35b50346102d95760203660031901126102d9576104e7611a55565b6104f26101f961203a565b6001600160a01b0316610506811515611dcc565b600780546001600160a01b03191691909117905580f35b50346102d957806003193601126102d957602090604051908152f35b50346102d957806003193601126102d9576002546040516001600160a01b039091168152602090f35b50346102d95760203660031901126102d9576000805160206125f683398151915281526001602052604081203360005260205260ff60406000205416801561060e575b6105ae90611cd7565b60035481906001600160a01b0316803b1561060b578180916024604051809481936356d6b49360e11b835260043560048401525af18015610600576105f05750f35b6105f990611a81565b6102d95780f35b6040513d84823e3d90fd5b50fd5b506105ae61061a61203a565b90506105a5565b50346102d95760403660031901126102d957604061063d611a6b565b9160043581526001602052209060018060a01b0316600052602052602060ff604060002054166040519015158152f35b50346102d95761010090816003193601126102d957600435916006831015610929573660431215610845576040516106a481611aaa565b606481368211610845576024905b828210610911575050503660831215610845576040516106d181611ac5565b60e481368211610845576064905b8282106108f95750505060e4356001600160401b0381116108f557610708903690600401611b41565b6004546001600160a01b039691908716331480156108e2575b61072a90611e9f565b61073261209a565b96600254169260405197630265f21b60e51b89526020988981600481895afa9081156108d75789916108aa575b50604051630b513d9960e01b81529061077b6004830187611f03565b8a826024818a5afa91821561089f57918a9593918c9998979593879261085d575b50610805936107c36107e1989796946107bc6107eb9e956107f595611f26565b1115611f49565b60405163975781b760e01b81529b8c9a8b998a9860048a0190611f03565b6024880190611fa4565b6064860190611fcf565b60e4840152610104830190611ffa565b03925af1918215610851579161081f575b50604051908152f35b90508181813d831161084a575b6108368183611ae0565b81010312610845575138610816565b600080fd5b503d61082c565b604051903d90823e3d90fd5b998a919695939497508092503d8311610898575b61087b8183611ae0565b810103126108455796518a978a959394909392919061080561079c565b503d610871565b6040513d8c823e3d90fd5b90508981813d83116108d0575b6108c18183611ae0565b8101031261084557513861075f565b503d6108b7565b6040513d8b823e3d90fd5b5061072a6108ee61203a565b9050610721565b8480fd5b6020809161090684611b18565b8152019101906106df565b6020809161091e84611b18565b8152019101906106b2565b5080fd5b50346102d957806003193601126102d9576109496101f961203a565b80602060018060a01b036044816005541691610966831515611d70565b60035460405163095ea7b360e01b81529116600482015260001960248201529384928391905af180156106005761099b575080f35b6104a69060203d6020116109bc575b6109b48183611ae0565b810190611db4565b503d6109aa565b50346102d957806003193601126102d95760206109de61203a565b6040519015158152f35b50346102d95760203660031901126102d9576104a6610a05611a55565b6000805160206125f683398151915283526001602052604083203360005260205260ff604060002054168015610a6a575b610a3f90611cd7565b6000805160206125d683398151915283526001602052610a65600160408520015461219e565b61225f565b50610a3f610a7661203a565b9050610a36565b50346102d9578060031960403682011261060b576001600160401b03600435818111610b7857610ab1903690600401611bbc565b90602435908111610b7857610aca903690600401611bbc565b6000805160206125f683398151915284526001602052604084203360005260205260ff604060002054168015610b65575b610b0490611cd7565b6003546001600160a01b0316803b156108f557610b45858094610b5460405197889687958694630f3b7af360e31b8652604060048701526044860190611b88565b91848303016024850152611b88565b03925af18015610600576105f05750f35b50610b04610b7161203a565b9050610afb565b505050fd5b50346102d957806003193601126102d95760206040516000805160206125f68339815191528152f35b50346102d95760203660031901126102d9576101fe611a55565b50346102d957806003193601126102d957610bdc6101f961203a565b6104a6336123da565b50346102d95760203660031901126102d9576104a6610c02611a55565b610c0d6101f961203a565b6000805160206125f683398151915283526001602052610249600160408520015461219e565b50346102d95760203660031901126102d957610c4d611a55565b610c586101f961203a565b336001600160a01b03821603610c71576104a690612352565b60405163334bd91960e11b8152600490fd5b50346102d957806003193601126102d957610c9f6101f961203a565b80602060018060a01b036044816006541691610966831515611d70565b50346102d95760403660031901126102d957610cd6611a55565b6002546001600160a01b03908116918391903384148015610d89575b8015610d7c575b8015610d69575b610d0990611c1c565b833b15610d65576064908360405195869485936323b872dd60e01b855230600486015216602484015260243560448401525af1801561060057610d5157602060405160018152f35b610d5b8291611a81565b6102d957806103b5565b8280fd5b50610d09610d7561203a565b9050610d00565b5081600454163314610cf9565b5081600354163314610cf2565b50346102d95760803660031901126102d957600435906001600160401b0382116102d957366023830112156102d957816004013590610dd482611b01565b92610de26040519485611ae0565b82845260208401906024829460051b820101903682116111f857602401915b81831061140d57505050602435926001600160401b038411610929573660238501121561092957836004013590610e3782611b01565b91610e456040519384611ae0565b808352602083019081963660248360061b830101116114095760248101925b60248360061b83010184106113af5750505050604435946001600160401b0386116111f857366023870112156111f857856004013595610ea387611b01565b96610eb16040519889611ae0565b808852602088019081923660248360071b830101116113ab5760248101925b60248360071b830101841061135157505050506001600160401b03606435116108f5573660236064350112156108f5576064356004013591610f1183611b01565b90610f1f6040519283611ae0565b8382526020820180943660248260051b60643501011161134d57602460643501915b60248260051b606435010183106113165750505060018060a01b036004541633148015611303575b610f769099969899611e9f565b600254969889976001600160a01b03169690885b87518c10156110405760208c60051b89010151600681101561102c57604051630b513d9960e01b815290610fc2906004830190611f03565b6020816024818d5afa908115611021578b91610fee575b50610fe690600192611f26565b9b019a610f8a565b90506020813d602011611019575b8161100960209383611ae0565b8101031261084557516001610fd9565b3d9150610ffc565b6040513d8d823e3d90fd5b634e487b7160e01b8b52602160045260248bfd5b8a9098979861104d61209a565b604051630265f21b60e51b81526020816004818e5afa9081156112f8578d916112c4575b50906107bc8d9b9997959361108b939d9b9997959d611f26565b604051630ff1ac6760e01b81526080600482015297516084890181905297998a9860a48a0192908b5b81811061128f575050506020906003198a84030160248b01525191828152019290895b81811061125d575050506020906003198884030160448901525191828152019290875b81811061122f5750505060031985830301606486015251808252602082019160208260051b820101939287915b8383106111fc5750505050508383809203925af1908115610600578291611163575b6040516020808252819061115f90820185611b88565b0390f35b90503d8083833e6111748183611ae0565b810190602081830312610d65578051906001600160401b0382116111f8570181601f82011215610d65578051906111aa82611b01565b936111b86040519586611ae0565b82855260208086019360051b8301019384116102d95750602001905b8282106111e85750505061115f9082611149565b81518152602091820191016111d4565b8380fd5b929597509295509260208061121d600193601f198682030187528951611ffa565b97019301930187959389979592611127565b92949650928195975060808161124a60209360019551611fcf565b01950191019088969492889694926110fa565b929496985092819597995060408161127a60209360019551611fa4565b0195019101908a989694928a989694926110d7565b929496989a5092819597999b506020816112ad829360019551611f03565b0195019101908c9a989694928c9a989694926110b4565b90506020813d6020116112f0575b816112df60209383611ae0565b81010312610845575161108b611071565b3d91506112d2565b6040513d8f823e3d90fd5b50610f7661130f61203a565b9050610f69565b6001600160401b038335116113495760208060249261133c368588356064350101611b41565b8152019301929050610f41565b8980fd5b8880fd5b36601f850112156108455760405161136881611ac5565b803660808701116108455785905b608087018210611393575050815260809390930192602001610ed0565b602080916113a084611b18565b815201910190611376565b8780fd5b36601f85011215610845576040516113c681611aaa565b803660408701116108455785905b6040870182106113f1575050815260409390930192602001610e64565b602080916113fe84611b18565b8152019101906113d4565b8580fd5b823560068110156108f557815260209283019201610e01565b50346102d957806003193601126102d95760206104c5611e26565b50346102d957806003193601126102d95760206040516000805160206125d68339815191528152f35b50346102d95760403660031901126102d957611484611a6b565b336001600160a01b03821603610c71576104a6906004356124cd565b50346102d95760203660031901126102d9576114ba611a55565b6114c56101f961203a565b6001600160a01b03166114d9811515611dcc565b600380546001600160a01b03191691909117905580f35b50346102d95760403660031901126102d9576104a6600435611510611a6b565b908084526001602052611529600160408620015461219e565b6122e9565b50346102d95760403660031901126102d9576000805160206125f683398151915281526001602052604081203360005260205260ff6040600020541680156115c4575b61157a90611cd7565b60035481906001600160a01b0316803b1561060b5781809160446040518094819363176f321960e11b8352600435600484015260243560248401525af18015610600576105f05750f35b5061157a6115d061203a565b9050611571565b50346102d95760203660031901126102d95760406115f3611a55565b916000805160206125f683398151915281526001602052209060018060a01b0316600052602052602060ff604060002054166040519015158152f35b50346102d95760203660031901126102d957600160406020926004358152828452200154604051908152f35b50346102d957806003193601126102d9576116776101f961203a565b80602060018060a01b036044816006541691611694831515611d70565b60075460405163095ea7b360e01b81529116600482015260001960248201529384928391905af180156106005761099b575080f35b50346102d95760203660031901126102d9576102586116e6611a55565b6116f16101f961203a565b611e0a565b50346102d95760803660031901126102d957611710611a55565b50611719611a6b565b506064356001600160401b03808211610d655736602383011215610d65578160040135908111610d6557369101602401116102d957604051630a85bd0160e11b8152602090f35b50346102d95760203660031901126102d95761177b3361206f565b80156117cd575b61178b90611cd7565b60075481906001600160a01b0316803b1561060b57818091602460405180948193630d727e2b60e01b835260043560048401525af18015610600576105f05750f35b5061178b6117d961203a565b9050611782565b50346102d957806003193601126102d9576117fc6101f961203a565b80602060018060a01b036044816005541691611819831515611d70565b60025460405163095ea7b360e01b81529116600482015260001960248201529384928391905af180156106005761099b575080f35b50346102d95760403660031901126102d9578060243580151580910361060b576118773361206f565b80156118da575b61188790611cd7565b6003546001600160a01b0316803b156118d6576044839260405194859384926302424ed360e01b8452600435600485015260248401525af18015610600576118cd575080f35b61025890611a81565b5050fd5b506118876118e661203a565b905061187e565b50346102d95760203660031901126102d95760043563ffffffff60e01b811680910361092957602090637965db0b60e01b8114908115611933575b506040519015158152f35b6301ffc9a760e01b14905082611928565b50346102d95760403660031901126102d95761195e611a55565b9060243560018060a01b0390816002541633148015611a48575b8015611a3b575b8015611a28575b61198f90611c1c565b6002835414611a1657600283556119a98285161515611c9c565b806119b261209a565b106119d3576001936119c792600554166120d8565b55602060405160018152f35b60405162461bcd60e51b815260206004820152601b60248201527a556e7375666669736369656e74205753544f4e2062616c616e636560281b6044820152606490fd5b604051633ee5aeb560e01b8152600490fd5b5061198f611a3461203a565b9050611986565b508160045416331461197f565b5081600354163314611978565b600435906001600160a01b038216820361084557565b602435906001600160a01b038216820361084557565b6001600160401b038111611a9457604052565b634e487b7160e01b600052604160045260246000fd5b604081019081106001600160401b03821117611a9457604052565b608081019081106001600160401b03821117611a9457604052565b90601f801991011681019081106001600160401b03821117611a9457604052565b6001600160401b038111611a945760051b60200190565b359060ff8216820361084557565b6001600160401b038111611a9457601f01601f191660200190565b81601f8201121561084557803590611b5882611b26565b92611b666040519485611ae0565b8284526020838301011161084557816000926020809301838601378301015290565b90815180825260208080930193019160005b828110611ba8575050505090565b835185529381019392810192600101611b9a565b9080601f83011215610845576020908235611bd681611b01565b93611be46040519586611ae0565b81855260208086019260051b82010192831161084557602001905b828210611c0d575050505090565b81358152908301908301611bff565b15611c2357565b60405162461bcd60e51b815260206004820152604560248201527f63616c6c6572206973206e656974686572204f776e6572206e6f722047656d4660448201527f6163746f7279206e6f72204d61726b6574506c616365206e6f722052616e646f6064820152646d5061636b60d81b608482015260a490fd5b15611ca357565b60405162461bcd60e51b815260206004820152600c60248201526b61646472657373207a65726f60a01b6044820152606490fd5b15611cde57565b60405162461bcd60e51b81526020600482015260126024820152713737ba1027bbb732b91037b91020b236b4b760711b6044820152606490fd5b15611d1f57565b60405162461bcd60e51b8152602060048201526024808201527f41757468436f6e74726f6c3a2043616c6c6572206973206e6f7420746865206f6044820152633bb732b960e11b6064820152608490fd5b15611d7757565b60405162461bcd60e51b81526020600482015260156024820152741ddcdd1bdb881859191c995cdcc81b9bdd081cd95d605a1b6044820152606490fd5b90816020910312610845575180151581036108455790565b15611dd357565b60405162461bcd60e51b815260206004820152600f60248201526e496e76616c6964206164647265737360881b6044820152606490fd5b336001600160a01b03821603610c7157611e2390612457565b50565b6006546040516370a0823160e01b815230600482015290602090829060249082906001600160a01b03165afa908115611e9357600091611e64575090565b90506020813d602011611e8b575b81611e7f60209383611ae0565b81010312610845575190565b3d9150611e72565b6040513d6000823e3d90fd5b15611ea657565b60405162461bcd60e51b815260206004820152602f60248201527f63616c6c6572206973206e656974686572206f776e6572206e6f722072616e6460448201526e1bdb541858dac818dbdb9d1c9858dd608a1b6064820152608490fd5b906006821015611f105752565b634e487b7160e01b600052602160045260246000fd5b91908201809211611f3357565b634e487b7160e01b600052601160045260246000fd5b15611f5057565b60405162461bcd60e51b815260206004820152602660248201527f4e6f7420656e6f756768205753544f4e20617661696c61626c6520696e20547260448201526565617375727960d01b6064820152608490fd5b6000915b60028310611fb557505050565b60019060ff83511681526020809101920192019190611fa8565b6000915b60048310611fe057505050565b60019060ff83511681526020809101920192019190611fd3565b919082519283825260005b848110612026575050826000602080949584010152601f8019910116010190565b602081830181015184830182015201612005565b3360009081527fa6eef7e35abe7026729641147f7915573c7e97b47efa546f5f6e3230263bcb49602052604090205460ff1690565b6001600160a01b031660009081526000805160206125b6833981519152602052604090205460ff1690565b6005546040516370a0823160e01b815230600482015290602090829060249082906001600160a01b03165afa908115611e9357600091611e64575090565b916000809161214d9360405195602087019263a9059cbb60e01b845260018060a01b03809316602489015260448801526044875261211587611ac5565b1694519082865af13d15612196573d9061212e82611b26565b9161213c6040519384611ae0565b82523d6000602084013e5b83612532565b805190811515918261217b575b50506121635750565b60249060405190635274afe760e01b82526004820152fd5b61218e9250602080918301019101611db4565b15388061215a565b606090612147565b80600052600160205260406000203360005260205260ff60406000205416156121c45750565b6044906040519063e2517d3f60e01b82523360048301526024820152fd5b6001600160a01b031660008181526000805160206125b683398151915260205260408120549091906000805160206125f68339815191529060ff1661225a5780835260016020526040832082845260205260408320600160ff19825416179055600080516020612596833981519152339380a4600190565b505090565b6001600160a01b031660008181527fe1a43b5771e30cf668ec0dc18c42d6714aff29cbb9ec47bd8eb0b81d4a8bcc1460205260408120549091906000805160206125d68339815191529060ff1661225a5780835260016020526040832082845260205260408320600160ff19825416179055600080516020612596833981519152339380a4600190565b906000918083526001602052604083209160018060a01b03169182845260205260ff6040842054161560001461225a5780835260016020526040832082845260205260408320600160ff19825416179055600080516020612596833981519152339380a4600190565b6001600160a01b031660008181527fe1a43b5771e30cf668ec0dc18c42d6714aff29cbb9ec47bd8eb0b81d4a8bcc1460205260408120549091906000805160206125d68339815191529060ff161561225a578083526001602052604083208284526020526040832060ff198154169055600080516020612616833981519152339380a4600190565b6001600160a01b031660008181527fa6eef7e35abe7026729641147f7915573c7e97b47efa546f5f6e3230263bcb49602052604081205490919060ff1615612453578180526001602052604082208183526020526040822060ff19815416905533916000805160206126168339815191528180a4600190565b5090565b6001600160a01b031660008181526000805160206125b683398151915260205260408120549091906000805160206125f68339815191529060ff161561225a578083526001602052604083208284526020526040832060ff198154169055600080516020612616833981519152339380a4600190565b906000918083526001602052604083209160018060a01b03169182845260205260ff60408420541660001461225a578083526001602052604083208284526020526040832060ff198154169055600080516020612616833981519152339380a4600190565b90612559575080511561254757805190602001fd5b604051630a12f52160e11b8152600490fd5b8151158061258c575b61256a575090565b604051639996b31560e01b81526001600160a01b039091166004820152602490fd5b50803b1561256256fe2f8788117e7eff1d82e926ec794901d17c78024a50270940304540a733656f0dd52cfefb3f6fd7766669e08a03d2ceb3243383019e3a5fed2a519df30ee55b92fcb9fcbfa83b897fb2d5cf4b58962164105c1e71489a37ef3ae0db3fdce576f6df8b4c520ffe197c5343c6f5aec59570151ef9a492f2c624fd45ddde6135ec42f6391f5c32d9c69d2a47ea670b442974b53935d1edc7fd64eb21e047a839171ba2646970667358221220bdd5498c897a1e58504eaa6e593fc9289931cdff3c641d65c945b711a1ef9c6f64736f6c63430008190033",
  "linkReferences": {},
  "deployedLinkReferences": {}
}