{
  "_format": "hh-sol-artifact-1",
  "contractName": "Treasury",
  "sourceName": "src/L2/Treasury.sol",
  "abi": [
    {
      "inputs": [
        {
          "internalType": "address",
          "name": "_wston",
          "type": "address"
        },
        {
          "internalType": "address",
          "name": "_ton",
          "type": "address"
        },
        {
          "internalType": "address",
          "name": "_gemFactory",
          "type": "address"
        }
      ],
      "stateMutability": "nonpayable",
      "type": "constructor"
    },
    {
      "inputs": [],
      "name": "AccessControlBadConfirmation",
      "type": "error"
    },
    {
      "inputs": [
        {
          "internalType": "address",
          "name": "account",
          "type": "address"
        },
        {
          "internalType": "bytes32",
          "name": "neededRole",
          "type": "bytes32"
        }
      ],
      "name": "AccessControlUnauthorizedAccount",
      "type": "error"
    },
    {
      "inputs": [
        {
          "internalType": "address",
          "name": "target",
          "type": "address"
        }
      ],
      "name": "AddressEmptyCode",
      "type": "error"
    },
    {
      "inputs": [
        {
          "internalType": "address",
          "name": "account",
          "type": "address"
        }
      ],
      "name": "AddressInsufficientBalance",
      "type": "error"
    },
    {
      "inputs": [],
      "name": "FailedInnerCall",
      "type": "error"
    },
    {
      "inputs": [],
      "name": "ReentrancyGuardReentrantCall",
      "type": "error"
    },
    {
      "inputs": [
        {
          "internalType": "address",
          "name": "token",
          "type": "address"
        }
      ],
      "name": "SafeERC20FailedOperation",
      "type": "error"
    },
    {
      "anonymous": false,
      "inputs": [
        {
          "indexed": true,
          "internalType": "bytes32",
          "name": "role",
          "type": "bytes32"
        },
        {
          "indexed": true,
          "internalType": "bytes32",
          "name": "previousAdminRole",
          "type": "bytes32"
        },
        {
          "indexed": true,
          "internalType": "bytes32",
          "name": "newAdminRole",
          "type": "bytes32"
        }
      ],
      "name": "RoleAdminChanged",
      "type": "event"
    },
    {
      "anonymous": false,
      "inputs": [
        {
          "indexed": true,
          "internalType": "bytes32",
          "name": "role",
          "type": "bytes32"
        },
        {
          "indexed": true,
          "internalType": "address",
          "name": "account",
          "type": "address"
        },
        {
          "indexed": true,
          "internalType": "address",
          "name": "sender",
          "type": "address"
        }
      ],
      "name": "RoleGranted",
      "type": "event"
    },
    {
      "anonymous": false,
      "inputs": [
        {
          "indexed": true,
          "internalType": "bytes32",
          "name": "role",
          "type": "bytes32"
        },
        {
          "indexed": true,
          "internalType": "address",
          "name": "account",
          "type": "address"
        },
        {
          "indexed": true,
          "internalType": "address",
          "name": "sender",
          "type": "address"
        }
      ],
      "name": "RoleRevoked",
      "type": "event"
    },
    {
      "inputs": [],
      "name": "ADMIN_ROLE",
      "outputs": [
        {
          "internalType": "bytes32",
          "name": "",
          "type": "bytes32"
        }
      ],
      "stateMutability": "view",
      "type": "function"
    },
    {
      "inputs": [],
      "name": "DEFAULT_ADMIN_ROLE",
      "outputs": [
        {
          "internalType": "bytes32",
          "name": "",
          "type": "bytes32"
        }
      ],
      "stateMutability": "view",
      "type": "function"
    },
    {
      "inputs": [],
      "name": "PAUSE_ROLE",
      "outputs": [
        {
          "internalType": "bytes32",
          "name": "",
          "type": "bytes32"
        }
      ],
      "stateMutability": "view",
      "type": "function"
    },
    {
      "inputs": [
        {
          "internalType": "address",
          "name": "account",
          "type": "address"
        }
      ],
      "name": "addAdmin",
      "outputs": [],
      "stateMutability": "nonpayable",
      "type": "function"
    },
    {
      "inputs": [
        {
          "internalType": "address",
          "name": "account",
          "type": "address"
        }
      ],
      "name": "addPauser",
      "outputs": [],
      "stateMutability": "nonpayable",
      "type": "function"
    },
    {
      "inputs": [
        {
          "internalType": "address",
          "name": "operator",
          "type": "address"
        },
        {
          "internalType": "uint256",
          "name": "_tokenId",
          "type": "uint256"
        }
      ],
      "name": "approveGem",
      "outputs": [],
      "stateMutability": "nonpayable",
      "type": "function"
    },
    {
      "inputs": [],
      "name": "approveGemFactory",
      "outputs": [],
      "stateMutability": "nonpayable",
      "type": "function"
    },
    {
      "inputs": [
        {
          "internalType": "uint256",
          "name": "amount",
          "type": "uint256"
        }
      ],
      "name": "approveWstonForMarketplace",
      "outputs": [],
      "stateMutability": "nonpayable",
      "type": "function"
    },
    {
      "inputs": [
        {
          "internalType": "uint256",
          "name": "_tokenId",
          "type": "uint256"
        },
        {
          "internalType": "bool",
          "name": "_paymentMethod",
          "type": "bool"
        }
      ],
      "name": "buyGem",
      "outputs": [],
      "stateMutability": "nonpayable",
      "type": "function"
    },
    {
      "inputs": [
        {
          "internalType": "enum GemFactoryStorage.Rarity",
          "name": "_rarity",
          "type": "uint8"
        },
        {
          "internalType": "uint8[2]",
          "name": "_color",
          "type": "uint8[2]"
        },
        {
          "internalType": "uint8[4]",
          "name": "_quadrants",
          "type": "uint8[4]"
        },
        {
          "internalType": "string",
          "name": "_tokenURI",
          "type": "string"
        }
      ],
      "name": "createPreminedGEM",
      "outputs": [
        {
          "internalType": "uint256",
          "name": "",
          "type": "uint256"
        }
      ],
      "stateMutability": "nonpayable",
      "type": "function"
    },
    {
      "inputs": [
        {
          "internalType": "enum GemFactoryStorage.Rarity[]",
          "name": "_rarities",
          "type": "uint8[]"
        },
        {
          "internalType": "uint8[2][]",
          "name": "_colors",
          "type": "uint8[2][]"
        },
        {
          "internalType": "uint8[4][]",
          "name": "_quadrants",
          "type": "uint8[4][]"
        },
        {
          "internalType": "string[]",
          "name": "_tokenURIs",
          "type": "string[]"
        }
      ],
      "name": "createPreminedGEMPool",
      "outputs": [
        {
          "internalType": "uint256[]",
          "name": "",
          "type": "uint256[]"
        }
      ],
      "stateMutability": "nonpayable",
      "type": "function"
    },
    {
      "inputs": [],
      "name": "getGemFactoryAddress",
      "outputs": [
        {
          "internalType": "address",
          "name": "",
          "type": "address"
        }
      ],
      "stateMutability": "view",
      "type": "function"
    },
    {
      "inputs": [],
      "name": "getRandomPackAddress",
      "outputs": [
        {
          "internalType": "address",
          "name": "",
          "type": "address"
        }
      ],
      "stateMutability": "view",
      "type": "function"
    },
    {
      "inputs": [
        {
          "internalType": "bytes32",
          "name": "role",
          "type": "bytes32"
        }
      ],
      "name": "getRoleAdmin",
      "outputs": [
        {
          "internalType": "bytes32",
          "name": "",
          "type": "bytes32"
        }
      ],
      "stateMutability": "view",
      "type": "function"
    },
    {
      "inputs": [],
      "name": "getTONBalance",
      "outputs": [
        {
          "internalType": "uint256",
          "name": "",
          "type": "uint256"
        }
      ],
      "stateMutability": "view",
      "type": "function"
    },
    {
      "inputs": [],
      "name": "getWSTONBalance",
      "outputs": [
        {
          "internalType": "uint256",
          "name": "",
          "type": "uint256"
        }
      ],
      "stateMutability": "view",
      "type": "function"
    },
    {
      "inputs": [
        {
          "internalType": "bytes32",
          "name": "role",
          "type": "bytes32"
        },
        {
          "internalType": "address",
          "name": "account",
          "type": "address"
        }
      ],
      "name": "grantRole",
      "outputs": [],
      "stateMutability": "nonpayable",
      "type": "function"
    },
    {
      "inputs": [
        {
          "internalType": "bytes32",
          "name": "role",
          "type": "bytes32"
        },
        {
          "internalType": "address",
          "name": "account",
          "type": "address"
        }
      ],
      "name": "hasRole",
      "outputs": [
        {
          "internalType": "bool",
          "name": "",
          "type": "bool"
        }
      ],
      "stateMutability": "view",
      "type": "function"
    },
    {
      "inputs": [
        {
          "internalType": "address",
          "name": "account",
          "type": "address"
        }
      ],
      "name": "isAdmin",
      "outputs": [
        {
          "internalType": "bool",
          "name": "",
          "type": "bool"
        }
      ],
      "stateMutability": "view",
      "type": "function"
    },
    {
      "inputs": [],
      "name": "isOwner",
      "outputs": [
        {
          "internalType": "bool",
          "name": "",
          "type": "bool"
        }
      ],
      "stateMutability": "view",
      "type": "function"
    },
    {
      "inputs": [
        {
          "internalType": "address",
          "name": "",
          "type": "address"
        },
        {
          "internalType": "address",
          "name": "",
          "type": "address"
        },
        {
          "internalType": "uint256",
          "name": "",
          "type": "uint256"
        },
        {
          "internalType": "bytes",
          "name": "",
          "type": "bytes"
        }
      ],
      "name": "onERC721Received",
      "outputs": [
        {
          "internalType": "bytes4",
          "name": "",
          "type": "bytes4"
        }
      ],
      "stateMutability": "pure",
      "type": "function"
    },
    {
      "inputs": [
        {
          "internalType": "uint256",
          "name": "_tokenId",
          "type": "uint256"
        },
        {
          "internalType": "uint256",
          "name": "_price",
          "type": "uint256"
        }
      ],
      "name": "putGemForSale",
      "outputs": [],
      "stateMutability": "nonpayable",
      "type": "function"
    },
    {
      "inputs": [
        {
          "internalType": "uint256[]",
          "name": "tokenIds",
          "type": "uint256[]"
        },
        {
          "internalType": "uint256[]",
          "name": "prices",
          "type": "uint256[]"
        }
      ],
      "name": "putGemListForSale",
      "outputs": [],
      "stateMutability": "nonpayable",
      "type": "function"
    },
    {
      "inputs": [
        {
          "internalType": "address",
          "name": "account",
          "type": "address"
        }
      ],
      "name": "removeAdmin",
      "outputs": [],
      "stateMutability": "nonpayable",
      "type": "function"
    },
    {
      "inputs": [
        {
          "internalType": "uint256",
          "name": "_tokenId",
          "type": "uint256"
        }
      ],
      "name": "removeGemFromSale",
      "outputs": [],
      "stateMutability": "nonpayable",
      "type": "function"
    },
    {
      "inputs": [
        {
          "internalType": "address",
          "name": "account",
          "type": "address"
        }
      ],
      "name": "removePauser",
      "outputs": [],
      "stateMutability": "nonpayable",
      "type": "function"
    },
    {
      "inputs": [],
      "name": "renounceOwnership",
      "outputs": [],
      "stateMutability": "nonpayable",
      "type": "function"
    },
    {
      "inputs": [
        {
          "internalType": "bytes32",
          "name": "role",
          "type": "bytes32"
        },
        {
          "internalType": "address",
          "name": "callerConfirmation",
          "type": "address"
        }
      ],
      "name": "renounceRole",
      "outputs": [],
      "stateMutability": "nonpayable",
      "type": "function"
    },
    {
      "inputs": [
        {
          "internalType": "bytes32",
          "name": "role",
          "type": "bytes32"
        },
        {
          "internalType": "address",
          "name": "account",
          "type": "address"
        }
      ],
      "name": "revokeRole",
      "outputs": [],
      "stateMutability": "nonpayable",
      "type": "function"
    },
    {
      "inputs": [
        {
          "internalType": "address",
          "name": "_gemFactory",
          "type": "address"
        }
      ],
      "name": "setGemFactory",
      "outputs": [],
      "stateMutability": "nonpayable",
      "type": "function"
    },
    {
      "inputs": [
        {
          "internalType": "address",
          "name": "marketplace",
          "type": "address"
        }
      ],
      "name": "setMarketPlace",
      "outputs": [],
      "stateMutability": "nonpayable",
      "type": "function"
    },
    {
      "inputs": [
        {
          "internalType": "address",
          "name": "_randomPack",
          "type": "address"
        }
      ],
      "name": "setRandomPack",
      "outputs": [],
      "stateMutability": "nonpayable",
      "type": "function"
    },
    {
      "inputs": [
        {
          "internalType": "address",
          "name": "_wstonSwapPool",
          "type": "address"
        }
      ],
      "name": "setWstonSwapPool",
      "outputs": [],
      "stateMutability": "nonpayable",
      "type": "function"
    },
    {
      "inputs": [
        {
          "internalType": "bytes4",
          "name": "interfaceId",
          "type": "bytes4"
        }
      ],
      "name": "supportsInterface",
      "outputs": [
        {
          "internalType": "bool",
          "name": "",
          "type": "bool"
        }
      ],
      "stateMutability": "view",
      "type": "function"
    },
    {
      "inputs": [
        {
          "internalType": "uint256",
          "name": "tonAmount",
          "type": "uint256"
        }
      ],
      "name": "swapTONforWSTON",
      "outputs": [],
      "stateMutability": "nonpayable",
      "type": "function"
    },
    {
      "inputs": [],
      "name": "tonApproveMarketPlace",
      "outputs": [],
      "stateMutability": "nonpayable",
      "type": "function"
    },
    {
      "inputs": [],
      "name": "tonApproveWstonSwapPool",
      "outputs": [],
      "stateMutability": "nonpayable",
      "type": "function"
    },
    {
      "inputs": [
        {
          "internalType": "address",
          "name": "newAdmin",
          "type": "address"
        }
      ],
      "name": "transferAdmin",
      "outputs": [],
      "stateMutability": "nonpayable",
      "type": "function"
    },
    {
      "inputs": [
        {
          "internalType": "address",
          "name": "newAdmin",
          "type": "address"
        }
      ],
      "name": "transferOwnership",
      "outputs": [],
      "stateMutability": "nonpayable",
      "type": "function"
    },
    {
      "inputs": [
        {
          "internalType": "address",
          "name": "_to",
          "type": "address"
        },
        {
          "internalType": "uint256",
          "name": "_amount",
          "type": "uint256"
        }
      ],
      "name": "transferTON",
      "outputs": [
        {
          "internalType": "bool",
          "name": "",
          "type": "bool"
        }
      ],
      "stateMutability": "nonpayable",
      "type": "function"
    },
    {
      "inputs": [
        {
          "internalType": "address",
          "name": "_to",
          "type": "address"
        },
        {
          "internalType": "uint256",
          "name": "_tokenId",
          "type": "uint256"
        }
      ],
      "name": "transferTreasuryGEMto",
      "outputs": [
        {
          "internalType": "bool",
          "name": "",
          "type": "bool"
        }
      ],
      "stateMutability": "nonpayable",
      "type": "function"
    },
    {
      "inputs": [
        {
          "internalType": "address",
          "name": "_to",
          "type": "address"
        },
        {
          "internalType": "uint256",
          "name": "_amount",
          "type": "uint256"
        }
      ],
      "name": "transferWSTON",
      "outputs": [
        {
          "internalType": "bool",
          "name": "",
          "type": "bool"
        }
      ],
      "stateMutability": "nonpayable",
      "type": "function"
    },
    {
      "inputs": [],
      "name": "wstonApproveMarketPlace",
      "outputs": [],
      "stateMutability": "nonpayable",
      "type": "function"
    }
  ],
  "bytecode": "0x6080346100bc57601f61299f38819003918201601f19168301916001600160401b038311848410176100c1578084926060946040528339810103126100bc57610047816100d7565b61005f6040610058602085016100d7565b93016100d7565b60016000556007805460ff60a01b191690559161007b336100eb565b5060018060a01b0380928160018060a01b031995168560025416176002551683600554161760055516906006541617600655604051612822908161017d8239f35b600080fd5b634e487b7160e01b600052604160045260246000fd5b51906001600160a01b03821682036100bc57565b6001600160a01b031660008181527fa6eef7e35abe7026729641147f7915573c7e97b47efa546f5f6e3230263bcb49602052604081205490919060ff166101785781805260016020526040822081835260205260408220600160ff1982541617905533917f2f8788117e7eff1d82e926ec794901d17c78024a50270940304540a733656f0d8180a4600190565b509056fe6080604052600436101561001257600080fd5b6000803560e01c80630169dc3114611adb57806301ffc9a714611a8457806302424ed3146119e957806307db44701461197b5780630d727e2b146118fb578063150b7a02146118915780631785f53c1461186457806320e641b7146117f6578063248a9ca3146117ca57806324d7806c146117725780632ede6432146116c95780632f2ff15d1461168b57806330568a8d1461163b57806336568abe14611605578063389ed267146115dc5780633b22f110146115c157806340e5854814611505578063425c7fc214610e5a57806348dbcef014610d80578063520aefae14610d475780636b2c0f5514610cf75780636fcf2fc914610c915780637048027514610c43578063715018a614610c1e57806375829def14610c0457806375b238fc14610bdb57806379dbd79814610adb57806382dc1ec414610a465780638f32d59b14610a2157806391005b081461098b578063912b431b146106b757806391d148541461066b57806398d111b2146105ac5780639d541be214610583578063a217fddf14610567578063b23a1d0d14610517578063bae77ac9146104f4578063d547741f146104b2578063e61475181461045e578063ec23919a14610435578063ec7ae61d1461034d578063ed8c2472146102fd5763f2fde38b146101f657600080fd5b346102fa5760203660031901126102fa5761020f611bec565b61021f61021a6121ec565b611eaf565b61022a61021a6121ec565b6001600160a01b03811680156102ba57331461027c5761026f906000805160206127ad8339815191528352600160205261026a6001604085200154612355565b612399565b5061027933611fbc565b80f35b60405162461bcd60e51b815260206004820152601660248201527520b1b1b2b9b9b4b136329d1039b0b6b29030b236b4b760511b6044820152606490fd5b60405162461bcd60e51b815260206004820152601860248201527741636365737369626c653a207a65726f206164647265737360401b6044820152606490fd5b80fd5b50346102fa5760203660031901126102fa57610317611bec565b61032261021a6121ec565b6001600160a01b0316610336811515611f7e565b600480546001600160a01b03191691909117905580f35b50346102fa5760403660031901126102fa57610367611bec565b906040602435916000805160206127ad83398151915281526001602052203360005260205260ff604060002054168015610422575b6103a590611e6e565b6001600160a01b03916103bb8184161515611e33565b816103c4611fd8565b106103e1576103d6926006541661228a565b602060405160018152f35b60405162461bcd60e51b8152602060048201526019602482015278556e7375666669736369656e7420544f4e2062616c616e636560381b6044820152606490fd5b506103a561042e6121ec565b905061039c565b50346102fa57806003193601126102fa576004546040516001600160a01b039091168152602090f35b50346102fa5760203660031901126102fa57610478611bec565b61048361021a6121ec565b600254906001600160a01b039061049d8284161515611f7e565b6001600160a01b031990921691161760025580f35b50346102fa5760403660031901126102fa576104f06004356104d2611c02565b9080845260016020526104eb6001604086200154612355565b612684565b5080f35b50346102fa57806003193601126102fa57602061050f61224c565b604051908152f35b50346102fa5760203660031901126102fa57610531611bec565b61053c61021a6121ec565b6001600160a01b0316610550811515611f7e565b600780546001600160a01b03191691909117905580f35b50346102fa57806003193601126102fa57602090604051908152f35b50346102fa57806003193601126102fa576002546040516001600160a01b039091168152602090f35b50346102fa5760203660031901126102fa576000805160206127ad83398151915281526001602052604081203360005260205260ff604060002054168015610658575b6105f890611e6e565b60035481906001600160a01b0316803b15610655578180916024604051809481936356d6b49360e11b835260043560048401525af1801561064a5761063a5750f35b61064390611c18565b6102fa5780f35b6040513d84823e3d90fd5b50fd5b506105f86106646121ec565b90506105ef565b50346102fa5760403660031901126102fa576040610687611c02565b9160043581526001602052209060018060a01b0316600052602052602060ff604060002054166040519015158152f35b50346102fa5761010090816003193601126102fa57600435916006831015610987573660431215610896576040516106ee81611c41565b606481368211610896576024905b82821061096f5750505036608312156108965760405161071b81611c5c565b60e481368211610896576064905b8282106109575750505060e4356001600160401b03811161095357610752903690600401611cd8565b6004546001600160a01b03969190871633148015610946575b8015610933575b61077b90612051565b61078361224c565b96600254169260405197630265f21b60e51b89526020988981600481895afa9081156109285789916108fb575b50604051630b513d9960e01b8152906107cc60048301876120b5565b8a826024818a5afa9182156108f057918a9593918c999897959387926108ae575b50610856936108146108329897969461080d61083c9e95610846956120d8565b11156120fb565b60405163975781b760e01b81529b8c9a8b998a9860048a01906120b5565b6024880190612156565b6064860190612181565b60e48401526101048301906121ac565b03925af19182156108a25791610870575b50604051908152f35b90508181813d831161089b575b6108878183611c77565b81010312610896575138610867565b600080fd5b503d61087d565b604051903d90823e3d90fd5b998a919695939497508092503d83116108e9575b6108cc8183611c77565b810103126108965796518a978a95939490939291906108566107ed565b503d6108c2565b6040513d8c823e3d90fd5b90508981813d8311610921575b6109128183611c77565b810103126108965751386107b0565b503d610908565b6040513d8b823e3d90fd5b5061077b61093f6121ec565b9050610772565b508660035416331461076b565b8480fd5b6020809161096484611caf565b815201910190610729565b6020809161097c84611caf565b8152019101906106fc565b5080fd5b50346102fa57806003193601126102fa576109a761021a6121ec565b80602060018060a01b0360448160055416916109c4831515611f07565b60035460405163095ea7b360e01b81529116600482015260001960248201529384928391905af1801561064a576109f9575080f35b6104f09060203d602011610a1a575b610a128183611c77565b810190611f4b565b503d610a08565b50346102fa57806003193601126102fa576020610a3c6121ec565b6040519015158152f35b50346102fa5760203660031901126102fa576104f0610a63611bec565b6000805160206127ad83398151915283526001602052604083203360005260205260ff604060002054168015610ac8575b610a9d90611e6e565b60008051602061278d83398151915283526001602052610ac36001604085200154612355565b612416565b50610a9d610ad46121ec565b9050610a94565b50346102fa5780600319604036820112610655576001600160401b03600435818111610bd657610b0f903690600401611d53565b90602435908111610bd657610b28903690600401611d53565b6000805160206127ad83398151915284526001602052604084203360005260205260ff604060002054168015610bc3575b610b6290611e6e565b6003546001600160a01b0316803b1561095357610ba3858094610bb260405197889687958694630f3b7af360e31b8652604060048701526044860190611d1f565b91848303016024850152611d1f565b03925af1801561064a5761063a5750f35b50610b62610bcf6121ec565b9050610b59565b505050fd5b50346102fa57806003193601126102fa5760206040516000805160206127ad8339815191528152f35b50346102fa5760203660031901126102fa5761021f611bec565b50346102fa57806003193601126102fa57610c3a61021a6121ec565b6104f033612591565b50346102fa5760203660031901126102fa576104f0610c60611bec565b610c6b61021a6121ec565b6000805160206127ad8339815191528352600160205261026a6001604085200154612355565b50346102fa5760403660031901126102fa5780610cac611bec565b610cb761021a6121ec565b6002546001600160a01b0316803b15610cf35760405163095ea7b360e01b81529183918391829084908290610bb2906024359060048401611f63565b5050fd5b50346102fa5760203660031901126102fa57610d11611bec565b610d1c61021a6121ec565b336001600160a01b03821603610d35576104f090612509565b60405163334bd91960e11b8152600490fd5b50346102fa57806003193601126102fa57610d6361021a6121ec565b80602060018060a01b0360448160065416916109c4831515611f07565b50346102fa5760403660031901126102fa57610d9a611bec565b6002546001600160a01b03908116918391903384148015610e4d575b8015610e40575b8015610e2d575b610dcd90611db3565b833b15610e29576064908360405195869485936323b872dd60e01b855230600486015216602484015260243560448401525af1801561064a57610e1557602060405160018152f35b610e1f8291611c18565b6102fa57806103d6565b8280fd5b50610dcd610e396121ec565b9050610dc4565b5081600454163314610dbd565b5081600354163314610db6565b50346102fa5760803660031901126102fa57600435906001600160401b0382116102fa57366023830112156102fa57816004013590610e9882611c98565b92610ea66040519485611c77565b82845260208401906024829460051b820101903682116112c357602401915b8183106114ec57505050602435926001600160401b038411610987573660238501121561098757836004013590610efb82611c98565b91610f096040519384611c77565b808352602083019081963660248360061b830101116114e85760248101925b60248360061b830101841061148e5750505050604435946001600160401b0386116112c357366023870112156112c357856004013595610f6787611c98565b96610f756040519889611c77565b808852602088019081923660248360071b8301011161148a5760248101925b60248360071b830101841061143057505050506001600160401b036064351161095357366023606435011215610953576064356004013591610fd583611c98565b90610fe36040519283611c77565b8382526020820180943660248260051b60643501011161142c57602460643501915b60248260051b606435010183106113f55750505060018060a01b0360045416331480156113e1575b80156113ce575b6110419099969899612051565b600254969889976001600160a01b03169690885b87518c101561110b5760208c60051b8901015160068110156110f757604051630b513d9960e01b81529061108d9060048301906120b5565b6020816024818d5afa9081156110ec578b916110b9575b506110b1906001926120d8565b9b019a611055565b90506020813d6020116110e4575b816110d460209383611c77565b81010312610896575160016110a4565b3d91506110c7565b6040513d8d823e3d90fd5b634e487b7160e01b8b52602160045260248bfd5b8a9098979861111861224c565b604051630265f21b60e51b81526020816004818e5afa9081156113c3578d9161138f575b509061080d8d9b99979593611156939d9b9997959d6120d8565b604051630ff1ac6760e01b81526080600482015297516084890181905297998a9860a48a0192908b5b81811061135a575050506020906003198a84030160248b01525191828152019290895b818110611328575050506020906003198884030160448901525191828152019290875b8181106112fa5750505060031985830301606486015251808252602082019160208260051b820101939287915b8383106112c75750505050508383809203925af190811561064a57829161122e575b6040516020808252819061122a90820185611d1f565b0390f35b90503d8083833e61123f8183611c77565b810190602081830312610e29578051906001600160401b0382116112c3570181601f82011215610e295780519061127582611c98565b936112836040519586611c77565b82855260208086019360051b8301019384116102fa5750602001905b8282106112b35750505061122a9082611214565b815181526020918201910161129f565b8380fd5b92959750929550926020806112e8600193601f1986820301875289516121ac565b970193019301879593899795926111f2565b92949650928195975060808161131560209360019551612181565b01950191019088969492889694926111c5565b929496985092819597995060408161134560209360019551612156565b0195019101908a989694928a989694926111a2565b929496989a5092819597999b506020816113788293600195516120b5565b0195019101908c9a989694928c9a9896949261117f565b90506020813d6020116113bb575b816113aa60209383611c77565b81010312610896575161115661113c565b3d915061139d565b6040513d8f823e3d90fd5b506110416113da6121ec565b9050611034565b506003546001600160a01b0316331461102d565b6001600160401b038335116114285760208060249261141b368588356064350101611cd8565b8152019301929050611005565b8980fd5b8880fd5b36601f850112156108965760405161144781611c5c565b803660808701116108965785905b608087018210611472575050815260809390930192602001610f94565b6020809161147f84611caf565b815201910190611455565b8780fd5b36601f85011215610896576040516114a581611c41565b803660408701116108965785905b6040870182106114d0575050815260409390930192602001610f28565b602080916114dd84611caf565b8152019101906114b3565b8580fd5b8235600681101561095357815260209283019201610ec5565b50346102fa5760203660031901126102fa576003546001600160a01b039081163381900361156c5761155a6020918493600554169060405194858094819363095ea7b360e01b83526004359060048401611f63565b03925af1801561064a576109f9575080f35b60405162461bcd60e51b815260206004820152602760248201527f63616c6c657220697320206e6f7420746865206d61726b6574706c61636520636044820152661bdb9d1c9858dd60ca1b6064820152608490fd5b50346102fa57806003193601126102fa57602061050f611fd8565b50346102fa57806003193601126102fa57602060405160008051602061278d8339815191528152f35b50346102fa5760403660031901126102fa5761161f611c02565b336001600160a01b03821603610d35576104f090600435612684565b50346102fa5760203660031901126102fa57611655611bec565b61166061021a6121ec565b6001600160a01b0316611674811515611f7e565b600380546001600160a01b03191691909117905580f35b50346102fa5760403660031901126102fa576104f06004356116ab611c02565b9080845260016020526116c46001604086200154612355565b6124a0565b50346102fa5760403660031901126102fa576000805160206127ad83398151915281526001602052604081203360005260205260ff60406000205416801561175f575b61171590611e6e565b60035481906001600160a01b0316803b156106555781809160446040518094819363176f321960e11b8352600435600484015260243560248401525af1801561064a5761063a5750f35b5061171561176b6121ec565b905061170c565b50346102fa5760203660031901126102fa57604061178e611bec565b916000805160206127ad83398151915281526001602052209060018060a01b0316600052602052602060ff604060002054166040519015158152f35b50346102fa5760203660031901126102fa57600160406020926004358152828452200154604051908152f35b50346102fa57806003193601126102fa5761181261021a6121ec565b80602060018060a01b03604481600654169161182f831515611f07565b60075460405163095ea7b360e01b81529116600482015260001960248201529384928391905af1801561064a576109f9575080f35b50346102fa5760203660031901126102fa57610279611881611bec565b61188c61021a6121ec565b611fbc565b50346102fa5760803660031901126102fa576118ab611bec565b506118b4611c02565b506064356001600160401b03808211610e295736602383011215610e29578160040135908111610e2957369101602401116102fa57604051630a85bd0160e11b8152602090f35b50346102fa5760203660031901126102fa5761191633612221565b8015611968575b61192690611e6e565b60075481906001600160a01b0316803b1561065557818091602460405180948193630d727e2b60e01b835260043560048401525af1801561064a5761063a5750f35b506119266119746121ec565b905061191d565b50346102fa57806003193601126102fa5761199761021a6121ec565b80602060018060a01b0360448160055416916119b4831515611f07565b60025460405163095ea7b360e01b81529116600482015260001960248201529384928391905af1801561064a576109f9575080f35b50346102fa5760403660031901126102fa578060243580151580910361065557611a1233612221565b8015611a71575b611a2290611e6e565b6003546001600160a01b0316803b15610cf3576044839260405194859384926302424ed360e01b8452600435600485015260248401525af1801561064a57611a68575080f35b61027990611c18565b50611a22611a7d6121ec565b9050611a19565b50346102fa5760203660031901126102fa5760043563ffffffff60e01b811680910361098757602090637965db0b60e01b8114908115611aca575b506040519015158152f35b6301ffc9a760e01b14905082611abf565b50346102fa5760403660031901126102fa57611af5611bec565b9060243560018060a01b0390816002541633148015611bdf575b8015611bd2575b8015611bbf575b611b2690611db3565b6002835414611bad5760028355611b408285161515611e33565b80611b4961224c565b10611b6a57600193611b5e926005541661228a565b55602060405160018152f35b60405162461bcd60e51b815260206004820152601b60248201527a556e7375666669736369656e74205753544f4e2062616c616e636560281b6044820152606490fd5b604051633ee5aeb560e01b8152600490fd5b50611b26611bcb6121ec565b9050611b1d565b5081600454163314611b16565b5081600354163314611b0f565b600435906001600160a01b038216820361089657565b602435906001600160a01b038216820361089657565b6001600160401b038111611c2b57604052565b634e487b7160e01b600052604160045260246000fd5b604081019081106001600160401b03821117611c2b57604052565b608081019081106001600160401b03821117611c2b57604052565b90601f801991011681019081106001600160401b03821117611c2b57604052565b6001600160401b038111611c2b5760051b60200190565b359060ff8216820361089657565b6001600160401b038111611c2b57601f01601f191660200190565b81601f8201121561089657803590611cef82611cbd565b92611cfd6040519485611c77565b8284526020838301011161089657816000926020809301838601378301015290565b90815180825260208080930193019160005b828110611d3f575050505090565b835185529381019392810192600101611d31565b9080601f83011215610896576020908235611d6d81611c98565b93611d7b6040519586611c77565b81855260208086019260051b82010192831161089657602001905b828210611da4575050505090565b81358152908301908301611d96565b15611dba57565b60405162461bcd60e51b815260206004820152604560248201527f63616c6c6572206973206e656974686572204f776e6572206e6f722047656d4660448201527f6163746f7279206e6f72204d61726b6574506c616365206e6f722052616e646f6064820152646d5061636b60d81b608482015260a490fd5b15611e3a57565b60405162461bcd60e51b815260206004820152600c60248201526b61646472657373207a65726f60a01b6044820152606490fd5b15611e7557565b60405162461bcd60e51b81526020600482015260126024820152713737ba1027bbb732b91037b91020b236b4b760711b6044820152606490fd5b15611eb657565b60405162461bcd60e51b8152602060048201526024808201527f41757468436f6e74726f6c3a2043616c6c6572206973206e6f7420746865206f6044820152633bb732b960e11b6064820152608490fd5b15611f0e57565b60405162461bcd60e51b81526020600482015260156024820152741ddcdd1bdb881859191c995cdcc81b9bdd081cd95d605a1b6044820152606490fd5b90816020910312610896575180151581036108965790565b6001600160a01b039091168152602081019190915260400190565b15611f8557565b60405162461bcd60e51b815260206004820152600f60248201526e496e76616c6964206164647265737360881b6044820152606490fd5b336001600160a01b03821603610d3557611fd59061260e565b50565b6006546040516370a0823160e01b815230600482015290602090829060249082906001600160a01b03165afa90811561204557600091612016575090565b90506020813d60201161203d575b8161203160209383611c77565b81010312610896575190565b3d9150612024565b6040513d6000823e3d90fd5b1561205857565b60405162461bcd60e51b815260206004820152602f60248201527f63616c6c6572206973206e656974686572206f776e6572206e6f722072616e6460448201526e1bdb541858dac818dbdb9d1c9858dd608a1b6064820152608490fd5b9060068210156120c25752565b634e487b7160e01b600052602160045260246000fd5b919082018092116120e557565b634e487b7160e01b600052601160045260246000fd5b1561210257565b60405162461bcd60e51b815260206004820152602660248201527f4e6f7420656e6f756768205753544f4e20617661696c61626c6520696e20547260448201526565617375727960d01b6064820152608490fd5b6000915b6002831061216757505050565b60019060ff8351168152602080910192019201919061215a565b6000915b6004831061219257505050565b60019060ff83511681526020809101920192019190612185565b919082519283825260005b8481106121d8575050826000602080949584010152601f8019910116010190565b6020818301810151848301820152016121b7565b3360009081527fa6eef7e35abe7026729641147f7915573c7e97b47efa546f5f6e3230263bcb49602052604090205460ff1690565b6001600160a01b0316600090815260008051602061276d833981519152602052604090205460ff1690565b6005546040516370a0823160e01b815230600482015290602090829060249082906001600160a01b03165afa90811561204557600091612016575090565b60006123049281926122c56122b796604051978891602083019563a9059cbb60e01b875260248401611f63565b03601f198101885287611c77565b60018060a01b031694519082865af13d1561234d573d906122e582611cbd565b916122f36040519384611c77565b82523d6000602084013e5b836126e9565b8051908115159182612332575b505061231a5750565b60249060405190635274afe760e01b82526004820152fd5b6123459250602080918301019101611f4b565b153880612311565b6060906122fe565b80600052600160205260406000203360005260205260ff604060002054161561237b5750565b6044906040519063e2517d3f60e01b82523360048301526024820152fd5b6001600160a01b0316600081815260008051602061276d83398151915260205260408120549091906000805160206127ad8339815191529060ff166124115780835260016020526040832082845260205260408320600160ff1982541617905560008051602061274d833981519152339380a4600190565b505090565b6001600160a01b031660008181527fe1a43b5771e30cf668ec0dc18c42d6714aff29cbb9ec47bd8eb0b81d4a8bcc14602052604081205490919060008051602061278d8339815191529060ff166124115780835260016020526040832082845260205260408320600160ff1982541617905560008051602061274d833981519152339380a4600190565b906000918083526001602052604083209160018060a01b03169182845260205260ff604084205416156000146124115780835260016020526040832082845260205260408320600160ff1982541617905560008051602061274d833981519152339380a4600190565b6001600160a01b031660008181527fe1a43b5771e30cf668ec0dc18c42d6714aff29cbb9ec47bd8eb0b81d4a8bcc14602052604081205490919060008051602061278d8339815191529060ff1615612411578083526001602052604083208284526020526040832060ff1981541690556000805160206127cd833981519152339380a4600190565b6001600160a01b031660008181527fa6eef7e35abe7026729641147f7915573c7e97b47efa546f5f6e3230263bcb49602052604081205490919060ff161561260a578180526001602052604082208183526020526040822060ff19815416905533916000805160206127cd8339815191528180a4600190565b5090565b6001600160a01b0316600081815260008051602061276d83398151915260205260408120549091906000805160206127ad8339815191529060ff1615612411578083526001602052604083208284526020526040832060ff1981541690556000805160206127cd833981519152339380a4600190565b906000918083526001602052604083209160018060a01b03169182845260205260ff604084205416600014612411578083526001602052604083208284526020526040832060ff1981541690556000805160206127cd833981519152339380a4600190565b9061271057508051156126fe57805190602001fd5b604051630a12f52160e11b8152600490fd5b81511580612743575b612721575090565b604051639996b31560e01b81526001600160a01b039091166004820152602490fd5b50803b1561271956fe2f8788117e7eff1d82e926ec794901d17c78024a50270940304540a733656f0dd52cfefb3f6fd7766669e08a03d2ceb3243383019e3a5fed2a519df30ee55b92fcb9fcbfa83b897fb2d5cf4b58962164105c1e71489a37ef3ae0db3fdce576f6df8b4c520ffe197c5343c6f5aec59570151ef9a492f2c624fd45ddde6135ec42f6391f5c32d9c69d2a47ea670b442974b53935d1edc7fd64eb21e047a839171ba2646970667358221220ee5e6829a91a9037067369efb1922486d13d1bdedd3f57292ade43bd94a2b1bc64736f6c63430008190033",
  "linkReferences": {},
  "deployedLinkReferences": {}
}