{
  "_format": "hh-sol-artifact-1",
  "contractName": "Treasury",
  "sourceName": "src/L2/Treasury.sol",
  "abi": [
    {
      "inputs": [
        {
          "internalType": "address",
          "name": "_wston",
          "type": "address"
        },
        {
          "internalType": "address",
          "name": "_ton",
          "type": "address"
        },
        {
          "internalType": "address",
          "name": "_gemFactory",
          "type": "address"
        }
      ],
      "stateMutability": "nonpayable",
      "type": "constructor"
    },
    {
      "inputs": [],
      "name": "AccessControlBadConfirmation",
      "type": "error"
    },
    {
      "inputs": [
        {
          "internalType": "address",
          "name": "account",
          "type": "address"
        },
        {
          "internalType": "bytes32",
          "name": "neededRole",
          "type": "bytes32"
        }
      ],
      "name": "AccessControlUnauthorizedAccount",
      "type": "error"
    },
    {
      "inputs": [
        {
          "internalType": "address",
          "name": "target",
          "type": "address"
        }
      ],
      "name": "AddressEmptyCode",
      "type": "error"
    },
    {
      "inputs": [
        {
          "internalType": "address",
          "name": "account",
          "type": "address"
        }
      ],
      "name": "AddressInsufficientBalance",
      "type": "error"
    },
    {
      "inputs": [],
      "name": "FailedInnerCall",
      "type": "error"
    },
    {
      "inputs": [],
      "name": "ReentrancyGuardReentrantCall",
      "type": "error"
    },
    {
      "inputs": [
        {
          "internalType": "address",
          "name": "token",
          "type": "address"
        }
      ],
      "name": "SafeERC20FailedOperation",
      "type": "error"
    },
    {
      "anonymous": false,
      "inputs": [
        {
          "indexed": true,
          "internalType": "bytes32",
          "name": "role",
          "type": "bytes32"
        },
        {
          "indexed": true,
          "internalType": "bytes32",
          "name": "previousAdminRole",
          "type": "bytes32"
        },
        {
          "indexed": true,
          "internalType": "bytes32",
          "name": "newAdminRole",
          "type": "bytes32"
        }
      ],
      "name": "RoleAdminChanged",
      "type": "event"
    },
    {
      "anonymous": false,
      "inputs": [
        {
          "indexed": true,
          "internalType": "bytes32",
          "name": "role",
          "type": "bytes32"
        },
        {
          "indexed": true,
          "internalType": "address",
          "name": "account",
          "type": "address"
        },
        {
          "indexed": true,
          "internalType": "address",
          "name": "sender",
          "type": "address"
        }
      ],
      "name": "RoleGranted",
      "type": "event"
    },
    {
      "anonymous": false,
      "inputs": [
        {
          "indexed": true,
          "internalType": "bytes32",
          "name": "role",
          "type": "bytes32"
        },
        {
          "indexed": true,
          "internalType": "address",
          "name": "account",
          "type": "address"
        },
        {
          "indexed": true,
          "internalType": "address",
          "name": "sender",
          "type": "address"
        }
      ],
      "name": "RoleRevoked",
      "type": "event"
    },
    {
      "inputs": [],
      "name": "ADMIN_ROLE",
      "outputs": [
        {
          "internalType": "bytes32",
          "name": "",
          "type": "bytes32"
        }
      ],
      "stateMutability": "view",
      "type": "function"
    },
    {
      "inputs": [],
      "name": "DEFAULT_ADMIN_ROLE",
      "outputs": [
        {
          "internalType": "bytes32",
          "name": "",
          "type": "bytes32"
        }
      ],
      "stateMutability": "view",
      "type": "function"
    },
    {
      "inputs": [],
      "name": "PAUSE_ROLE",
      "outputs": [
        {
          "internalType": "bytes32",
          "name": "",
          "type": "bytes32"
        }
      ],
      "stateMutability": "view",
      "type": "function"
    },
    {
      "inputs": [
        {
          "internalType": "address",
          "name": "account",
          "type": "address"
        }
      ],
      "name": "addAdmin",
      "outputs": [],
      "stateMutability": "nonpayable",
      "type": "function"
    },
    {
      "inputs": [
        {
          "internalType": "address",
          "name": "account",
          "type": "address"
        }
      ],
      "name": "addPauser",
      "outputs": [],
      "stateMutability": "nonpayable",
      "type": "function"
    },
    {
      "inputs": [],
      "name": "approveGemFactory",
      "outputs": [],
      "stateMutability": "nonpayable",
      "type": "function"
    },
    {
      "inputs": [
        {
          "internalType": "uint256",
          "name": "_tokenId",
          "type": "uint256"
        },
        {
          "internalType": "bool",
          "name": "_paymentMethod",
          "type": "bool"
        }
      ],
      "name": "buyGem",
      "outputs": [],
      "stateMutability": "nonpayable",
      "type": "function"
    },
    {
      "inputs": [
        {
          "internalType": "enum GemFactoryStorage.Rarity",
          "name": "_rarity",
          "type": "uint8"
        },
        {
          "internalType": "uint8[2]",
          "name": "_color",
          "type": "uint8[2]"
        },
        {
          "internalType": "uint8[4]",
          "name": "_quadrants",
          "type": "uint8[4]"
        },
        {
          "internalType": "string",
          "name": "_tokenURI",
          "type": "string"
        }
      ],
      "name": "createPreminedGEM",
      "outputs": [
        {
          "internalType": "uint256",
          "name": "",
          "type": "uint256"
        }
      ],
      "stateMutability": "nonpayable",
      "type": "function"
    },
    {
      "inputs": [
        {
          "internalType": "enum GemFactoryStorage.Rarity[]",
          "name": "_rarities",
          "type": "uint8[]"
        },
        {
          "internalType": "uint8[2][]",
          "name": "_colors",
          "type": "uint8[2][]"
        },
        {
          "internalType": "uint8[4][]",
          "name": "_quadrants",
          "type": "uint8[4][]"
        },
        {
          "internalType": "string[]",
          "name": "_tokenURIs",
          "type": "string[]"
        }
      ],
      "name": "createPreminedGEMPool",
      "outputs": [
        {
          "internalType": "uint256[]",
          "name": "",
          "type": "uint256[]"
        }
      ],
      "stateMutability": "nonpayable",
      "type": "function"
    },
    {
      "inputs": [],
      "name": "getGemFactoryAddress",
      "outputs": [
        {
          "internalType": "address",
          "name": "",
          "type": "address"
        }
      ],
      "stateMutability": "view",
      "type": "function"
    },
    {
      "inputs": [
        {
          "internalType": "bytes32",
          "name": "role",
          "type": "bytes32"
        }
      ],
      "name": "getRoleAdmin",
      "outputs": [
        {
          "internalType": "bytes32",
          "name": "",
          "type": "bytes32"
        }
      ],
      "stateMutability": "view",
      "type": "function"
    },
    {
      "inputs": [],
      "name": "getTONBalance",
      "outputs": [
        {
          "internalType": "uint256",
          "name": "",
          "type": "uint256"
        }
      ],
      "stateMutability": "view",
      "type": "function"
    },
    {
      "inputs": [],
      "name": "getWSTONBalance",
      "outputs": [
        {
          "internalType": "uint256",
          "name": "",
          "type": "uint256"
        }
      ],
      "stateMutability": "view",
      "type": "function"
    },
    {
      "inputs": [
        {
          "internalType": "bytes32",
          "name": "role",
          "type": "bytes32"
        },
        {
          "internalType": "address",
          "name": "account",
          "type": "address"
        }
      ],
      "name": "grantRole",
      "outputs": [],
      "stateMutability": "nonpayable",
      "type": "function"
    },
    {
      "inputs": [
        {
          "internalType": "bytes32",
          "name": "role",
          "type": "bytes32"
        },
        {
          "internalType": "address",
          "name": "account",
          "type": "address"
        }
      ],
      "name": "hasRole",
      "outputs": [
        {
          "internalType": "bool",
          "name": "",
          "type": "bool"
        }
      ],
      "stateMutability": "view",
      "type": "function"
    },
    {
      "inputs": [
        {
          "internalType": "address",
          "name": "account",
          "type": "address"
        }
      ],
      "name": "isAdmin",
      "outputs": [
        {
          "internalType": "bool",
          "name": "",
          "type": "bool"
        }
      ],
      "stateMutability": "view",
      "type": "function"
    },
    {
      "inputs": [],
      "name": "isOwner",
      "outputs": [
        {
          "internalType": "bool",
          "name": "",
          "type": "bool"
        }
      ],
      "stateMutability": "view",
      "type": "function"
    },
    {
      "inputs": [
        {
          "internalType": "address",
          "name": "",
          "type": "address"
        },
        {
          "internalType": "address",
          "name": "",
          "type": "address"
        },
        {
          "internalType": "uint256",
          "name": "",
          "type": "uint256"
        },
        {
          "internalType": "bytes",
          "name": "",
          "type": "bytes"
        }
      ],
      "name": "onERC721Received",
      "outputs": [
        {
          "internalType": "bytes4",
          "name": "",
          "type": "bytes4"
        }
      ],
      "stateMutability": "pure",
      "type": "function"
    },
    {
      "inputs": [
        {
          "internalType": "uint256",
          "name": "_tokenId",
          "type": "uint256"
        },
        {
          "internalType": "uint256",
          "name": "_price",
          "type": "uint256"
        }
      ],
      "name": "putGemForSale",
      "outputs": [],
      "stateMutability": "nonpayable",
      "type": "function"
    },
    {
      "inputs": [
        {
          "internalType": "uint256[]",
          "name": "tokenIds",
          "type": "uint256[]"
        },
        {
          "internalType": "uint256[]",
          "name": "prices",
          "type": "uint256[]"
        }
      ],
      "name": "putGemListForSale",
      "outputs": [],
      "stateMutability": "nonpayable",
      "type": "function"
    },
    {
      "inputs": [
        {
          "internalType": "address",
          "name": "account",
          "type": "address"
        }
      ],
      "name": "removeAdmin",
      "outputs": [],
      "stateMutability": "nonpayable",
      "type": "function"
    },
    {
      "inputs": [
        {
          "internalType": "address",
          "name": "account",
          "type": "address"
        }
      ],
      "name": "removePauser",
      "outputs": [],
      "stateMutability": "nonpayable",
      "type": "function"
    },
    {
      "inputs": [],
      "name": "renounceOwnership",
      "outputs": [],
      "stateMutability": "nonpayable",
      "type": "function"
    },
    {
      "inputs": [
        {
          "internalType": "bytes32",
          "name": "role",
          "type": "bytes32"
        },
        {
          "internalType": "address",
          "name": "callerConfirmation",
          "type": "address"
        }
      ],
      "name": "renounceRole",
      "outputs": [],
      "stateMutability": "nonpayable",
      "type": "function"
    },
    {
      "inputs": [
        {
          "internalType": "bytes32",
          "name": "role",
          "type": "bytes32"
        },
        {
          "internalType": "address",
          "name": "account",
          "type": "address"
        }
      ],
      "name": "revokeRole",
      "outputs": [],
      "stateMutability": "nonpayable",
      "type": "function"
    },
    {
      "inputs": [
        {
          "internalType": "address",
          "name": "_gemFactory",
          "type": "address"
        }
      ],
      "name": "setGemFactory",
      "outputs": [],
      "stateMutability": "nonpayable",
      "type": "function"
    },
    {
      "inputs": [
        {
          "internalType": "address",
          "name": "marketplace",
          "type": "address"
        }
      ],
      "name": "setMarketPlace",
      "outputs": [],
      "stateMutability": "nonpayable",
      "type": "function"
    },
    {
      "inputs": [
        {
          "internalType": "address",
          "name": "_wstonSwapPool",
          "type": "address"
        }
      ],
      "name": "setWstonSwapPool",
      "outputs": [],
      "stateMutability": "nonpayable",
      "type": "function"
    },
    {
      "inputs": [
        {
          "internalType": "bytes4",
          "name": "interfaceId",
          "type": "bytes4"
        }
      ],
      "name": "supportsInterface",
      "outputs": [
        {
          "internalType": "bool",
          "name": "",
          "type": "bool"
        }
      ],
      "stateMutability": "view",
      "type": "function"
    },
    {
      "inputs": [
        {
          "internalType": "uint256",
          "name": "tonAmount",
          "type": "uint256"
        }
      ],
      "name": "swapTONforWSTON",
      "outputs": [],
      "stateMutability": "nonpayable",
      "type": "function"
    },
    {
      "inputs": [],
      "name": "tonApproveMarketPlace",
      "outputs": [],
      "stateMutability": "nonpayable",
      "type": "function"
    },
    {
      "inputs": [],
      "name": "tonApproveWstonSwapPool",
      "outputs": [],
      "stateMutability": "nonpayable",
      "type": "function"
    },
    {
      "inputs": [
        {
          "internalType": "address",
          "name": "newAdmin",
          "type": "address"
        }
      ],
      "name": "transferAdmin",
      "outputs": [],
      "stateMutability": "nonpayable",
      "type": "function"
    },
    {
      "inputs": [
        {
          "internalType": "address",
          "name": "newAdmin",
          "type": "address"
        }
      ],
      "name": "transferOwnership",
      "outputs": [],
      "stateMutability": "nonpayable",
      "type": "function"
    },
    {
      "inputs": [
        {
          "internalType": "address",
          "name": "_to",
          "type": "address"
        },
        {
          "internalType": "uint256",
          "name": "_amount",
          "type": "uint256"
        }
      ],
      "name": "transferTON",
      "outputs": [
        {
          "internalType": "bool",
          "name": "",
          "type": "bool"
        }
      ],
      "stateMutability": "nonpayable",
      "type": "function"
    },
    {
      "inputs": [
        {
          "internalType": "address",
          "name": "_to",
          "type": "address"
        },
        {
          "internalType": "uint256",
          "name": "_tokenId",
          "type": "uint256"
        }
      ],
      "name": "transferTreasuryGEMto",
      "outputs": [
        {
          "internalType": "bool",
          "name": "",
          "type": "bool"
        }
      ],
      "stateMutability": "nonpayable",
      "type": "function"
    },
    {
      "inputs": [
        {
          "internalType": "address",
          "name": "_to",
          "type": "address"
        },
        {
          "internalType": "uint256",
          "name": "_amount",
          "type": "uint256"
        }
      ],
      "name": "transferWSTON",
      "outputs": [
        {
          "internalType": "bool",
          "name": "",
          "type": "bool"
        }
      ],
      "stateMutability": "nonpayable",
      "type": "function"
    },
    {
      "inputs": [],
      "name": "wstonApproveMarketPlace",
      "outputs": [],
      "stateMutability": "nonpayable",
      "type": "function"
    }
  ],
  "bytecode": "0x6080346100bc57601f61237238819003918201601f19168301916001600160401b038311848410176100c1578084926060946040528339810103126100bc57610047816100d7565b61005f6040610058602085016100d7565b93016100d7565b60016000556006805460ff60a01b191690559161007b336100eb565b5060018060a01b0380928160018060a01b0319951685600254161760025516836004541617600455169060055416176005556040516121f5908161017d8239f35b600080fd5b634e487b7160e01b600052604160045260246000fd5b51906001600160a01b03821682036100bc57565b6001600160a01b031660008181527fa6eef7e35abe7026729641147f7915573c7e97b47efa546f5f6e3230263bcb49602052604081205490919060ff166101785781805260016020526040822081835260205260408220600160ff1982541617905533917f2f8788117e7eff1d82e926ec794901d17c78024a50270940304540a733656f0d8180a4600190565b509056fe6080604052600436101561001257600080fd5b6000803560e01c80630169dc31146115e657806301ffc9a71461158f57806302424ed3146114f057806307db4470146114825780630d727e2b14611402578063150b7a02146113985780631785f53c1461136b57806320e641b7146112fd578063248a9ca3146112d157806324d7806c146112795780632ede6432146111d05780632f2ff15d1461119257806330568a8d1461114257806336568abe1461110c578063389ed267146110e35780633b22f110146110c8578063425c7fc214610b8357806348dbcef014610a9f578063520aefae14610a665780636b2c0f5514610a1657806370480275146109c8578063715018a6146109a357806375829def1461098957806375b238fc1461096057806379dbd7981461084957806382dc1ec4146107b45780638f32d59b1461078f57806391005b08146106ee578063912b431b1461054857806391d14854146104fc5780639d541be2146104d3578063a217fddf146104b7578063b23a1d0d14610467578063bae77ac914610444578063d547741f14610402578063e6147518146103ae578063ec7ae61d146102c65763f2fde38b146101bf57600080fd5b346102c35760203660031901126102c3576101d86116e4565b6101e86101e3611bc8565b611988565b6101f36101e3611bc8565b6001600160a01b03811680156102835733146102455761023890600080516020612180833981519152835260016020526102336001604085200154611d28565b611d6c565b5061024233611a7a565b80f35b60405162461bcd60e51b815260206004820152601660248201527520b1b1b2b9b9b4b136329d1039b0b6b29030b236b4b760511b6044820152606490fd5b60405162461bcd60e51b815260206004820152601860248201527741636365737369626c653a207a65726f206164647265737360401b6044820152606490fd5b80fd5b50346102c35760403660031901126102c3576102e06116e4565b9060406024359160008051602061218083398151915281526001602052203360005260205260ff60406000205416801561039b575b61031e90611947565b6001600160a01b0391610334818416151561190c565b8161033d611a96565b1061035a5761034f9260055416611c62565b602060405160018152f35b60405162461bcd60e51b8152602060048201526019602482015278556e7375666669736369656e7420544f4e2062616c616e636560381b6044820152606490fd5b5061031e6103a7611bc8565b9050610315565b50346102c35760203660031901126102c3576103c86116e4565b6103d36101e3611bc8565b600254906001600160a01b03906103ed8284161515611a3c565b6001600160a01b031990921691161760025580f35b50346102c35760403660031901126102c3576104406004356104226116fa565b90808452600160205261043b6001604086200154611d28565b612057565b5080f35b50346102c357806003193601126102c357602061045f611c28565b604051908152f35b50346102c35760203660031901126102c3576104816116e4565b61048c6101e3611bc8565b6001600160a01b03166104a0811515611a3c565b600680546001600160a01b03191691909117905580f35b50346102c357806003193601126102c357602090604051908152f35b50346102c357806003193601126102c3576002546040516001600160a01b039091168152602090f35b50346102c35760403660031901126102c35760406105186116fa565b9160043581526001602052209060018060a01b0316600052602052602060ff604060002054166040519015158152f35b50346102c357610100806003193601126106ea576004359060068210156106e6573660431215610699576040519161057f83611739565b606483368211610699576024905b8282106106ce57505050366083121561069957604051916105ad83611754565b60e483368211610699576064905b8282106106b65750505060e4356001600160401b0381116106b25785610638969593610652602096946105f561062e9536906004016117d0565b906106016101e3611bc8565b61064260018060a01b0360025416976040519c8d9a8b998a9863975781b760e01b8a5260048a0190611b0f565b6024880190611b32565b6064860190611b5d565b60e4840152610104830190611b88565b03925af19081156106a6579061066e575b602090604051908152f35b506020813d60201161069e575b816106886020938361176f565b810103126106995760209051610663565b600080fd5b3d915061067b565b604051903d90823e3d90fd5b8580fd5b602080916106c3846117a7565b8152019101906105bb565b602080916106db846117a7565b81520191019061058d565b8280fd5b5080fd5b50346102c357806003193601126102c35761070a6101e3611bc8565b80602060018060a01b0360448160045416916107278315156119e0565b60035460405163095ea7b360e01b81529116600482015260001960248201529384928391905af180156107845761075c575080f35b6104409060203d60201161077d575b610775818361176f565b810190611a24565b503d61076b565b6040513d84823e3d90fd5b50346102c357806003193601126102c35760206107aa611bc8565b6040519015158152f35b50346102c35760203660031901126102c3576104406107d16116e4565b60008051602061218083398151915283526001602052604083203360005260205260ff604060002054168015610836575b61080b90611947565b600080516020612160833981519152835260016020526108316001604085200154611d28565b611de9565b5061080b610842611bc8565b9050610802565b50346102c3578060031960403682011261095d576001600160401b036004358181116109585761087d90369060040161184b565b906024359081116109585761089690369060040161184b565b60008051602061218083398151915284526001602052604084203360005260205260ff604060002054168015610945575b6108d090611947565b6003546001600160a01b0316803b156109415761091185809461092060405197889687958694630f3b7af360e31b8652604060048701526044860190611817565b91848303016024850152611817565b03925af18015610784576109315750f35b61093a90611710565b6102c35780f35b8480fd5b506108d0610951611bc8565b90506108c7565b505050fd5b50fd5b50346102c357806003193601126102c35760206040516000805160206121808339815191528152f35b50346102c35760203660031901126102c3576101e86116e4565b50346102c357806003193601126102c3576109bf6101e3611bc8565b61044033611f64565b50346102c35760203660031901126102c3576104406109e56116e4565b6109f06101e3611bc8565b600080516020612180833981519152835260016020526102336001604085200154611d28565b50346102c35760203660031901126102c357610a306116e4565b610a3b6101e3611bc8565b336001600160a01b03821603610a545761044090611edc565b60405163334bd91960e11b8152600490fd5b50346102c357806003193601126102c357610a826101e3611bc8565b80602060018060a01b0360448160055416916107278315156119e0565b50346102c35760403660031901126102c357610ab96116e4565b6002546001600160a01b03908116918391903384148015610b76575b8015610b41575b610ae5906118ab565b833b156106e6576064908360405195869485936323b872dd60e01b855230600486015216602484015260243560448401525af1801561078457610b2d57602060405160018152f35b610b378291611710565b6102c3578061034f565b50600080516020612180833981519152835260016020526040832033600052602052610ae560ff604060002054169050610adc565b5081600354163314610ad5565b50346102c35760803660031901126102c3576004356001600160401b0381116106ea57366023820112156106ea578060040135610bbf81611790565b91610bcd604051938461176f565b81835260208301906024829360051b820101903682116106b257602401915b8183106110af575050506024356001600160401b038111610ed15736602382011215610ed157806004013591610c2183611790565b92610c2f604051948561176f565b808452602084019081933660248360061b830101116110ab5760248101925b60248360061b83010184106110525750505050604435906001600160401b0382116106b257366023830112156106b257816004013592610c8d84611790565b93610c9b604051958661176f565b808552602085019081943660248360071b8301011161104e5760248101925b60248360071b8301018410610ff457505050506001600160401b0360643511610ff057366023606435011215610ff0576064356004013593610cfb85611790565b92610d09604051948561176f565b8584526020840180963660248260051b606435010111610fec57908a98999795939160246064989694983501915b60248260051b60643501018310610f9d57505050610d566101e3611bc8565b600254604051630ff1ac6760e01b81526080600482015297516084890181905297998a986001600160a01b039092169760a48a01928b5b818110610f68575050506020906003198a84030160248b01525191828152019290895b818110610f36575050506020906003198884030160448901525191828152019290875b818110610f085750505060031985830301606486015251808252602082019160208260051b820101939287915b838310610ed55750505050508383809203925af1908115610784578291610e3c575b60405160208082528190610e3890820185611817565b0390f35b90503d8083833e610e4d818361176f565b8101906020818303126106e6578051906001600160401b038211610ed1570181601f820112156106e657805190610e8382611790565b93610e91604051958661176f565b82855260208086019360051b8301019384116102c35750602001905b828210610ec157505050610e389038610e22565b8151815260209182019101610ead565b8380fd5b9295975092955092602080610ef6600193601f198682030187528951611b88565b97019301930187959389979592610e00565b929496509281959750608081610f2360209360019551611b5d565b0195019101908896949288969492610dd3565b9294969850928195979950604081610f5360209360019551611b32565b0195019101908a989694928a98969492610db0565b929496989a5092819597999b50602081610f86829360019551611b0f565b0195019101908c9a989694928c9a98969492610d8d565b9091929496989a99506001600160401b0383989496983511610fe857602080602492610fd03685883560643501016117d0565b81520193019190508b999a9896949297959397610d37565b8b80fd5b8a80fd5b8680fd5b36601f850112156106995760405161100b81611754565b803660808701116106995785905b608087018210611036575050815260809390930192602001610cba565b60208091611043846117a7565b815201910190611019565b8980fd5b36601f850112156106995760405161106981611739565b80604086013681116106995786915b81831061109357505050815260409390930192602001610c4e565b602080916110a0856117a7565b815201920191611078565b8780fd5b82356006811015610ff057815260209283019201610bec565b50346102c357806003193601126102c357602061045f611a96565b50346102c357806003193601126102c35760206040516000805160206121608339815191528152f35b50346102c35760403660031901126102c3576111266116fa565b336001600160a01b03821603610a545761044090600435612057565b50346102c35760203660031901126102c35761115c6116e4565b6111676101e3611bc8565b6001600160a01b031661117b811515611a3c565b600380546001600160a01b03191691909117905580f35b50346102c35760403660031901126102c3576104406004356111b26116fa565b9080845260016020526111cb6001604086200154611d28565b611e73565b50346102c35760403660031901126102c35760008051602061218083398151915281526001602052604081203360005260205260ff604060002054168015611266575b61121c90611947565b60035481906001600160a01b0316803b1561095d5781809160446040518094819363176f321960e11b8352600435600484015260243560248401525af18015610784576109315750f35b5061121c611272611bc8565b9050611213565b50346102c35760203660031901126102c35760406112956116e4565b9160008051602061218083398151915281526001602052209060018060a01b0316600052602052602060ff604060002054166040519015158152f35b50346102c35760203660031901126102c357600160406020926004358152828452200154604051908152f35b50346102c357806003193601126102c3576113196101e3611bc8565b80602060018060a01b0360448160055416916113368315156119e0565b60065460405163095ea7b360e01b81529116600482015260001960248201529384928391905af180156107845761075c575080f35b50346102c35760203660031901126102c3576102426113886116e4565b6113936101e3611bc8565b611a7a565b50346102c35760803660031901126102c3576113b26116e4565b506113bb6116fa565b506064356001600160401b038082116106e657366023830112156106e65781600401359081116106e657369101602401116102c357604051630a85bd0160e11b8152602090f35b50346102c35760203660031901126102c35761141d33611bfd565b801561146f575b61142d90611947565b60065481906001600160a01b0316803b1561095d57818091602460405180948193630d727e2b60e01b835260043560048401525af18015610784576109315750f35b5061142d61147b611bc8565b9050611424565b50346102c357806003193601126102c35761149e6101e3611bc8565b80602060018060a01b0360448160045416916114bb8315156119e0565b60025460405163095ea7b360e01b81529116600482015260001960248201529384928391905af180156107845761075c575080f35b50346102c35760403660031901126102c3578060243580151580910361095d5761151933611bfd565b801561157c575b61152990611947565b6003546001600160a01b0316803b15611578576044839260405194859384926302424ed360e01b8452600435600485015260248401525af180156107845761156f575080f35b61024290611710565b5050fd5b50611529611588611bc8565b9050611520565b50346102c35760203660031901126102c35760043563ffffffff60e01b81168091036106ea57602090637965db0b60e01b81149081156115d5575b506040519015158152f35b6301ffc9a760e01b149050826115ca565b50346102c35760403660031901126102c3576116006116e4565b9060243560018060a01b03908160025416331480156116d7575b80156116c3575b61162a906118ab565b60028354146116b15760028355611644828516151561190c565b8061164d611c28565b1061166e576001936116629260045416611c62565b55602060405160018152f35b60405162461bcd60e51b815260206004820152601b60248201527a556e7375666669736369656e74205753544f4e2062616c616e636560281b6044820152606490fd5b604051633ee5aeb560e01b8152600490fd5b5061162a6116d033611bfd565b9050611621565b508160035416331461161a565b600435906001600160a01b038216820361069957565b602435906001600160a01b038216820361069957565b6001600160401b03811161172357604052565b634e487b7160e01b600052604160045260246000fd5b604081019081106001600160401b0382111761172357604052565b608081019081106001600160401b0382111761172357604052565b90601f801991011681019081106001600160401b0382111761172357604052565b6001600160401b0381116117235760051b60200190565b359060ff8216820361069957565b6001600160401b03811161172357601f01601f191660200190565b81601f82011215610699578035906117e7826117b5565b926117f5604051948561176f565b8284526020838301011161069957816000926020809301838601378301015290565b90815180825260208080930193019160005b828110611837575050505090565b835185529381019392810192600101611829565b9080601f8301121561069957602090823561186581611790565b93611873604051958661176f565b81855260208086019260051b82010192831161069957602001905b82821061189c575050505090565b8135815290830190830161188e565b156118b257565b60405162461bcd60e51b815260206004820152602c60248201527f63616c6c6572206973206e6569746865722047656d466163746f7279206e6f7260448201526b204d61726b6574506c61636560a01b6064820152608490fd5b1561191357565b60405162461bcd60e51b815260206004820152600c60248201526b61646472657373207a65726f60a01b6044820152606490fd5b1561194e57565b60405162461bcd60e51b81526020600482015260126024820152713737ba1027bbb732b91037b91020b236b4b760711b6044820152606490fd5b1561198f57565b60405162461bcd60e51b8152602060048201526024808201527f41757468436f6e74726f6c3a2043616c6c6572206973206e6f7420746865206f6044820152633bb732b960e11b6064820152608490fd5b156119e757565b60405162461bcd60e51b81526020600482015260156024820152741ddcdd1bdb881859191c995cdcc81b9bdd081cd95d605a1b6044820152606490fd5b90816020910312610699575180151581036106995790565b15611a4357565b60405162461bcd60e51b815260206004820152600f60248201526e496e76616c6964206164647265737360881b6044820152606490fd5b336001600160a01b03821603610a5457611a9390611fe1565b50565b6005546040516370a0823160e01b815230600482015290602090829060249082906001600160a01b03165afa908115611b0357600091611ad4575090565b90506020813d602011611afb575b81611aef6020938361176f565b81010312610699575190565b3d9150611ae2565b6040513d6000823e3d90fd5b906006821015611b1c5752565b634e487b7160e01b600052602160045260246000fd5b6000915b60028310611b4357505050565b60019060ff83511681526020809101920192019190611b36565b6000915b60048310611b6e57505050565b60019060ff83511681526020809101920192019190611b61565b919082519283825260005b848110611bb4575050826000602080949584010152601f8019910116010190565b602081830181015184830182015201611b93565b3360009081527fa6eef7e35abe7026729641147f7915573c7e97b47efa546f5f6e3230263bcb49602052604090205460ff1690565b6001600160a01b03166000908152600080516020612140833981519152602052604090205460ff1690565b6024602060018060a01b0360045416604051928380926370a0823160e01b82523060048301525afa908115611b0357600091611ad4575090565b9160008091611cd79360405195602087019263a9059cbb60e01b845260018060a01b038093166024890152604488015260448752611c9f87611754565b1694519082865af13d15611d20573d90611cb8826117b5565b91611cc6604051938461176f565b82523d6000602084013e5b836120bc565b8051908115159182611d05575b5050611ced5750565b60249060405190635274afe760e01b82526004820152fd5b611d189250602080918301019101611a24565b153880611ce4565b606090611cd1565b80600052600160205260406000203360005260205260ff6040600020541615611d4e5750565b6044906040519063e2517d3f60e01b82523360048301526024820152fd5b6001600160a01b0316600081815260008051602061214083398151915260205260408120549091906000805160206121808339815191529060ff16611de45780835260016020526040832082845260205260408320600160ff19825416179055600080516020612120833981519152339380a4600190565b505090565b6001600160a01b031660008181527fe1a43b5771e30cf668ec0dc18c42d6714aff29cbb9ec47bd8eb0b81d4a8bcc1460205260408120549091906000805160206121608339815191529060ff16611de45780835260016020526040832082845260205260408320600160ff19825416179055600080516020612120833981519152339380a4600190565b906000918083526001602052604083209160018060a01b03169182845260205260ff60408420541615600014611de45780835260016020526040832082845260205260408320600160ff19825416179055600080516020612120833981519152339380a4600190565b6001600160a01b031660008181527fe1a43b5771e30cf668ec0dc18c42d6714aff29cbb9ec47bd8eb0b81d4a8bcc1460205260408120549091906000805160206121608339815191529060ff1615611de4578083526001602052604083208284526020526040832060ff1981541690556000805160206121a0833981519152339380a4600190565b6001600160a01b031660008181527fa6eef7e35abe7026729641147f7915573c7e97b47efa546f5f6e3230263bcb49602052604081205490919060ff1615611fdd578180526001602052604082208183526020526040822060ff19815416905533916000805160206121a08339815191528180a4600190565b5090565b6001600160a01b0316600081815260008051602061214083398151915260205260408120549091906000805160206121808339815191529060ff1615611de4578083526001602052604083208284526020526040832060ff1981541690556000805160206121a0833981519152339380a4600190565b906000918083526001602052604083209160018060a01b03169182845260205260ff604084205416600014611de4578083526001602052604083208284526020526040832060ff1981541690556000805160206121a0833981519152339380a4600190565b906120e357508051156120d157805190602001fd5b604051630a12f52160e11b8152600490fd5b81511580612116575b6120f4575090565b604051639996b31560e01b81526001600160a01b039091166004820152602490fd5b50803b156120ec56fe2f8788117e7eff1d82e926ec794901d17c78024a50270940304540a733656f0dd52cfefb3f6fd7766669e08a03d2ceb3243383019e3a5fed2a519df30ee55b92fcb9fcbfa83b897fb2d5cf4b58962164105c1e71489a37ef3ae0db3fdce576f6df8b4c520ffe197c5343c6f5aec59570151ef9a492f2c624fd45ddde6135ec42f6391f5c32d9c69d2a47ea670b442974b53935d1edc7fd64eb21e047a839171ba26469706673582212200ab42754fa8e572a10b4f5651821fe166700d8377bc6243fe48176639615e19f64736f6c63430008190033",
  "linkReferences": {},
  "deployedLinkReferences": {}
}