{
  "_format": "hh-sol-artifact-1",
  "contractName": "MarketPlace",
  "sourceName": "src/L2/MarketPlace.sol",
  "abi": [
    {
      "inputs": [],
      "stateMutability": "nonpayable",
      "type": "constructor"
    },
    {
      "inputs": [],
      "name": "AccessControlBadConfirmation",
      "type": "error"
    },
    {
      "inputs": [
        {
          "internalType": "address",
          "name": "account",
          "type": "address"
        },
        {
          "internalType": "bytes32",
          "name": "neededRole",
          "type": "bytes32"
        }
      ],
      "name": "AccessControlUnauthorizedAccount",
      "type": "error"
    },
    {
      "inputs": [
        {
          "internalType": "address",
          "name": "target",
          "type": "address"
        }
      ],
      "name": "AddressEmptyCode",
      "type": "error"
    },
    {
      "inputs": [
        {
          "internalType": "address",
          "name": "account",
          "type": "address"
        }
      ],
      "name": "AddressInsufficientBalance",
      "type": "error"
    },
    {
      "inputs": [],
      "name": "FailedInnerCall",
      "type": "error"
    },
    {
      "inputs": [],
      "name": "ReentrancyGuardReentrantCall",
      "type": "error"
    },
    {
      "inputs": [
        {
          "internalType": "address",
          "name": "token",
          "type": "address"
        }
      ],
      "name": "SafeERC20FailedOperation",
      "type": "error"
    },
    {
      "anonymous": false,
      "inputs": [
        {
          "indexed": false,
          "internalType": "uint256",
          "name": "tokenId",
          "type": "uint256"
        },
        {
          "indexed": false,
          "internalType": "address",
          "name": "payer",
          "type": "address"
        },
        {
          "indexed": false,
          "internalType": "address",
          "name": "seller",
          "type": "address"
        },
        {
          "indexed": false,
          "internalType": "uint256",
          "name": "amount",
          "type": "uint256"
        }
      ],
      "name": "GemBought",
      "type": "event"
    },
    {
      "anonymous": false,
      "inputs": [
        {
          "indexed": false,
          "internalType": "uint256",
          "name": "tokenId",
          "type": "uint256"
        },
        {
          "indexed": false,
          "internalType": "address",
          "name": "seller",
          "type": "address"
        },
        {
          "indexed": false,
          "internalType": "uint256",
          "name": "price",
          "type": "uint256"
        }
      ],
      "name": "GemForSale",
      "type": "event"
    },
    {
      "anonymous": false,
      "inputs": [
        {
          "indexed": true,
          "internalType": "bytes32",
          "name": "role",
          "type": "bytes32"
        },
        {
          "indexed": true,
          "internalType": "bytes32",
          "name": "previousAdminRole",
          "type": "bytes32"
        },
        {
          "indexed": true,
          "internalType": "bytes32",
          "name": "newAdminRole",
          "type": "bytes32"
        }
      ],
      "name": "RoleAdminChanged",
      "type": "event"
    },
    {
      "anonymous": false,
      "inputs": [
        {
          "indexed": true,
          "internalType": "bytes32",
          "name": "role",
          "type": "bytes32"
        },
        {
          "indexed": true,
          "internalType": "address",
          "name": "account",
          "type": "address"
        },
        {
          "indexed": true,
          "internalType": "address",
          "name": "sender",
          "type": "address"
        }
      ],
      "name": "RoleGranted",
      "type": "event"
    },
    {
      "anonymous": false,
      "inputs": [
        {
          "indexed": true,
          "internalType": "bytes32",
          "name": "role",
          "type": "bytes32"
        },
        {
          "indexed": true,
          "internalType": "address",
          "name": "account",
          "type": "address"
        },
        {
          "indexed": true,
          "internalType": "address",
          "name": "sender",
          "type": "address"
        }
      ],
      "name": "RoleRevoked",
      "type": "event"
    },
    {
      "anonymous": false,
      "inputs": [
        {
          "indexed": false,
          "internalType": "uint256",
          "name": "discountRate",
          "type": "uint256"
        }
      ],
      "name": "SetDiscountRate",
      "type": "event"
    },
    {
      "anonymous": false,
      "inputs": [
        {
          "indexed": false,
          "internalType": "uint256",
          "name": "tokenId",
          "type": "uint256"
        },
        {
          "indexed": false,
          "internalType": "address",
          "name": "claimer",
          "type": "address"
        }
      ],
      "name": "WSTONClaimed",
      "type": "event"
    },
    {
      "inputs": [],
      "name": "DECIMALS",
      "outputs": [
        {
          "internalType": "uint256",
          "name": "",
          "type": "uint256"
        }
      ],
      "stateMutability": "view",
      "type": "function"
    },
    {
      "inputs": [],
      "name": "DEFAULT_ADMIN_ROLE",
      "outputs": [
        {
          "internalType": "bytes32",
          "name": "",
          "type": "bytes32"
        }
      ],
      "stateMutability": "view",
      "type": "function"
    },
    {
      "inputs": [],
      "name": "PAUSE_ROLE",
      "outputs": [
        {
          "internalType": "bytes32",
          "name": "",
          "type": "bytes32"
        }
      ],
      "stateMutability": "view",
      "type": "function"
    },
    {
      "inputs": [],
      "name": "TON_FEES_RATE_DIVIDER",
      "outputs": [
        {
          "internalType": "uint256",
          "name": "",
          "type": "uint256"
        }
      ],
      "stateMutability": "view",
      "type": "function"
    },
    {
      "inputs": [],
      "name": "TREASURY_ROLE",
      "outputs": [
        {
          "internalType": "bytes32",
          "name": "",
          "type": "bytes32"
        }
      ],
      "stateMutability": "view",
      "type": "function"
    },
    {
      "inputs": [],
      "name": "_treasury",
      "outputs": [
        {
          "internalType": "address",
          "name": "",
          "type": "address"
        }
      ],
      "stateMutability": "view",
      "type": "function"
    },
    {
      "inputs": [
        {
          "internalType": "address",
          "name": "account",
          "type": "address"
        }
      ],
      "name": "addAdmin",
      "outputs": [],
      "stateMutability": "nonpayable",
      "type": "function"
    },
    {
      "inputs": [
        {
          "internalType": "address",
          "name": "account",
          "type": "address"
        }
      ],
      "name": "addMinter",
      "outputs": [],
      "stateMutability": "nonpayable",
      "type": "function"
    },
    {
      "inputs": [
        {
          "internalType": "uint256",
          "name": "_tokenId",
          "type": "uint256"
        },
        {
          "internalType": "bool",
          "name": "_paymentMethod",
          "type": "bool"
        }
      ],
      "name": "buyGem",
      "outputs": [],
      "stateMutability": "nonpayable",
      "type": "function"
    },
    {
      "inputs": [],
      "name": "gemFactory",
      "outputs": [
        {
          "internalType": "address",
          "name": "",
          "type": "address"
        }
      ],
      "stateMutability": "view",
      "type": "function"
    },
    {
      "inputs": [
        {
          "internalType": "uint256",
          "name": "",
          "type": "uint256"
        }
      ],
      "name": "gemsForSale",
      "outputs": [
        {
          "internalType": "address",
          "name": "seller",
          "type": "address"
        },
        {
          "internalType": "uint256",
          "name": "price",
          "type": "uint256"
        },
        {
          "internalType": "bool",
          "name": "isActive",
          "type": "bool"
        }
      ],
      "stateMutability": "view",
      "type": "function"
    },
    {
      "inputs": [],
      "name": "getGemFactory",
      "outputs": [
        {
          "internalType": "address",
          "name": "",
          "type": "address"
        }
      ],
      "stateMutability": "view",
      "type": "function"
    },
    {
      "inputs": [
        {
          "internalType": "bytes32",
          "name": "role",
          "type": "bytes32"
        }
      ],
      "name": "getRoleAdmin",
      "outputs": [
        {
          "internalType": "bytes32",
          "name": "",
          "type": "bytes32"
        }
      ],
      "stateMutability": "view",
      "type": "function"
    },
    {
      "inputs": [],
      "name": "getStakingIndex",
      "outputs": [
        {
          "internalType": "uint256",
          "name": "",
          "type": "uint256"
        }
      ],
      "stateMutability": "view",
      "type": "function"
    },
    {
      "inputs": [],
      "name": "getTonFeesRate",
      "outputs": [
        {
          "internalType": "uint256",
          "name": "",
          "type": "uint256"
        }
      ],
      "stateMutability": "view",
      "type": "function"
    },
    {
      "inputs": [
        {
          "internalType": "bytes32",
          "name": "role",
          "type": "bytes32"
        },
        {
          "internalType": "address",
          "name": "account",
          "type": "address"
        }
      ],
      "name": "grantRole",
      "outputs": [],
      "stateMutability": "nonpayable",
      "type": "function"
    },
    {
      "inputs": [
        {
          "internalType": "bytes32",
          "name": "role",
          "type": "bytes32"
        },
        {
          "internalType": "address",
          "name": "account",
          "type": "address"
        }
      ],
      "name": "hasRole",
      "outputs": [
        {
          "internalType": "bool",
          "name": "",
          "type": "bool"
        }
      ],
      "stateMutability": "view",
      "type": "function"
    },
    {
      "inputs": [
        {
          "internalType": "address",
          "name": "treasury",
          "type": "address"
        },
        {
          "internalType": "address",
          "name": "_gemfactory",
          "type": "address"
        },
        {
          "internalType": "uint256",
          "name": "_tonFeesRate",
          "type": "uint256"
        },
        {
          "internalType": "address",
          "name": "_wston",
          "type": "address"
        },
        {
          "internalType": "address",
          "name": "_ton",
          "type": "address"
        }
      ],
      "name": "initialize",
      "outputs": [],
      "stateMutability": "nonpayable",
      "type": "function"
    },
    {
      "inputs": [
        {
          "internalType": "address",
          "name": "account",
          "type": "address"
        }
      ],
      "name": "isAdmin",
      "outputs": [
        {
          "internalType": "bool",
          "name": "",
          "type": "bool"
        }
      ],
      "stateMutability": "view",
      "type": "function"
    },
    {
      "inputs": [
        {
          "internalType": "address",
          "name": "account",
          "type": "address"
        }
      ],
      "name": "isMinter",
      "outputs": [
        {
          "internalType": "bool",
          "name": "",
          "type": "bool"
        }
      ],
      "stateMutability": "view",
      "type": "function"
    },
    {
      "inputs": [],
      "name": "isOwner",
      "outputs": [
        {
          "internalType": "bool",
          "name": "",
          "type": "bool"
        }
      ],
      "stateMutability": "view",
      "type": "function"
    },
    {
      "inputs": [],
      "name": "paused",
      "outputs": [
        {
          "internalType": "bool",
          "name": "",
          "type": "bool"
        }
      ],
      "stateMutability": "view",
      "type": "function"
    },
    {
      "inputs": [
        {
          "internalType": "uint256",
          "name": "_tokenId",
          "type": "uint256"
        },
        {
          "internalType": "uint256",
          "name": "_price",
          "type": "uint256"
        }
      ],
      "name": "putGemForSale",
      "outputs": [],
      "stateMutability": "nonpayable",
      "type": "function"
    },
    {
      "inputs": [
        {
          "internalType": "uint256[]",
          "name": "tokenIds",
          "type": "uint256[]"
        },
        {
          "internalType": "uint256[]",
          "name": "prices",
          "type": "uint256[]"
        }
      ],
      "name": "putGemListForSale",
      "outputs": [],
      "stateMutability": "nonpayable",
      "type": "function"
    },
    {
      "inputs": [
        {
          "internalType": "address",
          "name": "account",
          "type": "address"
        }
      ],
      "name": "removeAdmin",
      "outputs": [],
      "stateMutability": "nonpayable",
      "type": "function"
    },
    {
      "inputs": [
        {
          "internalType": "address",
          "name": "account",
          "type": "address"
        }
      ],
      "name": "removeMinter",
      "outputs": [],
      "stateMutability": "nonpayable",
      "type": "function"
    },
    {
      "inputs": [],
      "name": "renounceMinter",
      "outputs": [],
      "stateMutability": "nonpayable",
      "type": "function"
    },
    {
      "inputs": [],
      "name": "renounceOwnership",
      "outputs": [],
      "stateMutability": "nonpayable",
      "type": "function"
    },
    {
      "inputs": [
        {
          "internalType": "bytes32",
          "name": "role",
          "type": "bytes32"
        },
        {
          "internalType": "address",
          "name": "callerConfirmation",
          "type": "address"
        }
      ],
      "name": "renounceRole",
      "outputs": [],
      "stateMutability": "nonpayable",
      "type": "function"
    },
    {
      "inputs": [
        {
          "internalType": "address",
          "name": "account",
          "type": "address"
        }
      ],
      "name": "revokeMinter",
      "outputs": [],
      "stateMutability": "nonpayable",
      "type": "function"
    },
    {
      "inputs": [
        {
          "internalType": "bytes32",
          "name": "role",
          "type": "bytes32"
        },
        {
          "internalType": "address",
          "name": "account",
          "type": "address"
        }
      ],
      "name": "revokeRole",
      "outputs": [],
      "stateMutability": "nonpayable",
      "type": "function"
    },
    {
      "inputs": [
        {
          "internalType": "uint256",
          "name": "_tonFeesRate",
          "type": "uint256"
        }
      ],
      "name": "setDiscountRate",
      "outputs": [],
      "stateMutability": "nonpayable",
      "type": "function"
    },
    {
      "inputs": [
        {
          "internalType": "uint256",
          "name": "_stakingIndex",
          "type": "uint256"
        }
      ],
      "name": "setStakingIndex",
      "outputs": [],
      "stateMutability": "nonpayable",
      "type": "function"
    },
    {
      "inputs": [],
      "name": "stakingIndex",
      "outputs": [
        {
          "internalType": "uint256",
          "name": "",
          "type": "uint256"
        }
      ],
      "stateMutability": "view",
      "type": "function"
    },
    {
      "inputs": [
        {
          "internalType": "bytes4",
          "name": "interfaceId",
          "type": "bytes4"
        }
      ],
      "name": "supportsInterface",
      "outputs": [
        {
          "internalType": "bool",
          "name": "",
          "type": "bool"
        }
      ],
      "stateMutability": "view",
      "type": "function"
    },
    {
      "inputs": [],
      "name": "tonFeesRate",
      "outputs": [
        {
          "internalType": "uint256",
          "name": "",
          "type": "uint256"
        }
      ],
      "stateMutability": "view",
      "type": "function"
    },
    {
      "inputs": [],
      "name": "ton_",
      "outputs": [
        {
          "internalType": "address",
          "name": "",
          "type": "address"
        }
      ],
      "stateMutability": "view",
      "type": "function"
    },
    {
      "inputs": [
        {
          "internalType": "address",
          "name": "newAdmin",
          "type": "address"
        }
      ],
      "name": "transferAdmin",
      "outputs": [],
      "stateMutability": "nonpayable",
      "type": "function"
    },
    {
      "inputs": [
        {
          "internalType": "address",
          "name": "newAdmin",
          "type": "address"
        }
      ],
      "name": "transferOwnership",
      "outputs": [],
      "stateMutability": "nonpayable",
      "type": "function"
    },
    {
      "inputs": [],
      "name": "wston_",
      "outputs": [
        {
          "internalType": "address",
          "name": "",
          "type": "address"
        }
      ],
      "stateMutability": "view",
      "type": "function"
    }
  ],
  "bytecode": "0x608060405234603357600160065560ff196007541660075560016008556023336038565b50604051611a0890816100c98239f35b600080fd5b6001600160a01b031660008181527fec8156718a8372b1db44bb411437d0870f3e3790d4a08526d024ce1b0b668f6b602052604081205490919060ff1660c45781805260096020526040822081835260205260408220600160ff1982541617905533917f2f8788117e7eff1d82e926ec794901d17c78024a50270940304540a733656f0d8180a4600190565b509056fe608060408181526004908136101561001657600080fd5b600092833560e01c90816301ffc9a714610edf5750806302424ed314610bd257806308ec897d14610bb6578063127886191461053c5780631785f53c14610b8d578063248a9ca314610b6257806324d7806c14610b1b5780632e0f262514610af55780632ede643214610ac35780632f2ff15d14610a9b5780633092afd514610a5557806330f508591461092057806333e1a223146109c157806336568abe1461097a578063389ed2671461093f5780635074e0c8146109205780635c975abb146108fc57806370480275146108a4578063715018a61461086757806375829def1461082b57806379dbd7981461071d5780637c69febd146106ab5780638d609841146106835780638f32d59b1461064e57806391d1485414610608578063983b2d56146105df57806398650275146105c25780639c41b42b14610576578063a217fddf1461055b578063a53225c0146102f9578063a69c8fb21461053c578063aa271e1a146104e7578063ce49a3601461044a578063cfbd4885146103df578063d11a57ec146103b6578063d547741f14610378578063e319a3d91461034f578063e8dea5e814610326578063f00fe4fd146102f95763f2fde38b146101dc57600080fd5b346102f5576020806003193601126102f1576101f6610f33565b928480526009825282852033600052825261021760ff84600020541661104e565b8480526009825282852033600052825261023760ff84600020541661104e565b6001600160a01b03841680156102b457331461027a5750600161026d939260096102689387805252852001546114f1565b611535565b5061027733611147565b80f35b915162461bcd60e51b815291820152601660248201527520b1b1b2b9b9b4b136329d1039b0b6b29030b236b4b760511b6044820152606490fd5b50915162461bcd60e51b815291820152601860248201527741636365737369626c653a207a65726f206164647265737360401b6044820152606490fd5b8380fd5b8280fd5b83823461032257816003193601126103225760025490516001600160a01b039091168152602090f35b5080fd5b83823461032257816003193601126103225760055490516001600160a01b039091168152602090f35b83823461032257816003193601126103225760035490516001600160a01b039091168152602090f35b50346102f557806003193601126102f5576103b291356103ad600161039b610f49565b938387526009602052862001546114f1565b6117ad565b5080f35b838234610322578160031936011261032257602090516000805160206119b38339815191528152f35b838234610322576020366003190112610322576103b2906104456001610403610f33565b9285805260096020528086203360005260205261042660ff82600020541661104e565b6000805160206119b383398151915286526009602052852001546114f1565b6116ac565b50346102f55760203660031901126102f55782805260096020528083203360005260205261047e60ff82600020541661104e565b60016006541061049057503560065580f35b906020608492519162461bcd60e51b8352820152602b60248201527f7374616b696e6720696e646578206d7573742062652067726561746572206f7260448201526a20657175616c20746f203160a81b6064820152fd5b8382346103225760203660031901126103225760209181610506610f33565b916000805160206119b3833981519152815260098552209060018060a01b0316600052825260ff81600020541690519015158152f35b8382346103225781600319360112610322576020906001549051908152f35b83823461032257816003193601126103225751908152602090f35b5090346102f55760203660031901126102f557606092829135815280602052209060018060a01b038254169160ff60026001830154920154169082519384526020840152151590820152f35b83346105dc57806003193601126105dc5761027733611175565b80fd5b838234610322576020366003190112610322576103b2906106036001610403610f33565b6115b4565b5090346102f557816003193601126102f55781602093610626610f49565b9235815260098552209060018060a01b0316600052825260ff81600020541690519015158152f35b83823461032257816003193601126103225780828060209452600984522033600052825260ff81600020541690519015158152f35b5090346102f557826003193601126102f5575490516001600160a01b03909116815260209150f35b5090346102f55760203660031901126102f5577f21a8eefc17e9c864964b5a4c0769d87f39cc0a7576773159e12358bc0095ffc59160209135908480526009835280852033600052835261070560ff82600020541661104e565b610711606483106110ef565b8160015551908152a180f35b509190346103225782600319360112610322576001600160401b039080358281116102f15761074f9036908301610fa9565b916024359081116102f1576107679036908301610fa9565b9361077760ff600754161561100f565b8251156107fc5782518551036107ca575050815b81518110156107c657806107c06107bb6107a76001948661118e565b5133906107b4858a61118e565b519061121b565b6110a6565b0161078b565b8280f35b906020606492519162461bcd60e51b8352820152600c60248201526b0eee4dedcce40d8cadccee8d60a31b6044820152fd5b906020606492519162461bcd60e51b835282015260096024820152686e6f20746f6b656e7360b81b6044820152fd5b50346102f5576020806003193601126102f157610846610f33565b928480526009825282852033600052825261023760ff84600020541661104e565b83823461032257816003193601126103225760ff61089b91838052600960205280842033600052602052600020541661104e565b61027733611147565b838234610322576020366003190112610322576103b29061026860016108c8610f33565b928580526009602052808620336000526020526108eb60ff82600020541661104e565b8580526009602052852001546114f1565b83823461032257816003193601126103225760209060ff6007541690519015158152f35b8382346103225781600319360112610322576020906006549051908152f35b838234610322578160031936011261032257602090517ffcb9fcbfa83b897fb2d5cf4b58962164105c1e71489a37ef3ae0db3fdce576f68152f35b50829034610322578060031936011261032257610995610f49565b90336001600160a01b038316036109b257506103b29192356117ad565b5163334bd91960e11b81528390fd5b5050346103225760a0366003190112610322576109dc610f33565b906109e5610f49565b604435929091906001600160a01b036064358181169290839003610a505760843595828716809703610a5057610a1d606482106110ef565b6001558160018060a01b031995168560025416176002551683600354161760035582825416179055600554161760055580f35b600080fd5b8382346103225760203660031901126103225761027790610a9660ff610a79610f33565b92858052600960205280862033600052602052600020541661104e565b611175565b50346102f557806003193601126102f5576103b29135610abe600161039b610f49565b611643565b50346102f557366003190112610322576107bb61027791610ae960ff600754161561100f565b3390602435903561121b565b83823461032257816003193601126103225751676765c793fa10079d601b1b8152602090f35b8382346103225760203660031901126103225760209181610b3a610f33565b9180805260098552209060018060a01b0316600052825260ff81600020541690519015158152f35b5090346102f55760203660031901126102f55781602093600192358152600985522001549051908152f35b8382346103225760203660031901126103225761027790610bb160ff610a79610f33565b611147565b8382346103225781600319360112610322576020905160648152f35b5090346102f557816003193601126102f55780359060248035908115158203610d6557610c0460ff600754161561100f565b6002928360085414610ed157836008553315610ea15784875260209187835260ff85888a2001541615610e725785885287835260018789200154948515610e4357868952888452878920546001600160a01b03908116959092908615610e12578a919015610d9457610c7b88883387895416611812565b8882528186528982208301805460ff191690558254841690813b156102f55760448a8480948e519687958694634d723a7560e01b86528c8601528401525af18015610d8a57610d73575b505488929116803b156102f557868391610cf693838b518096819582946323b872dd60e01b84528c339185016111e1565b03925af18015610d6957610d49575b507f429a311c86d807d248190c8540973d38711c40cabad4c6266ef4b9a7ae6cdc3c60808686868a87815194855233908501528301526060820152a1600160085580f35b610d57909594939295610f5f565b610d65579091928538610d05565b8580fd5b87513d84823e3d90fd5b610d81909991939299610f5f565b97909138610cc5565b89513d8c823e3d90fd5b9050676765c793fa10079d601b1b610dae600654896111b8565b046064610dbd600154836111b8565b048101809111610e005790610de78b92633b9aca0086600554169104908660035416903390611812565b610dfb888886885416876003541690611812565b610c7b565b50634e487b7160e01b8a526011845289fd5b895162461bcd60e51b8152808601879052600c818401526b3bb937b7339039b2b63632b960a11b6044820152606490fd5b50600b9060649388519362461bcd60e51b85528401528201526a77726f6e6720707269636560a81b6044820152fd5b600c9060649388519362461bcd60e51b85528401528201526b6e6f7420666f722073616c6560a01b6044820152fd5b600c606492602088519362461bcd60e51b85528401528201526b7a65726f206164647265737360a01b6044820152fd5b8551633ee5aeb560e01b8152fd5b849084346102f55760203660031901126102f5573563ffffffff60e01b81168091036102f55760209250637965db0b60e01b8114908115610f22575b5015158152f35b6301ffc9a760e01b14905083610f1b565b600435906001600160a01b0382168203610a5057565b602435906001600160a01b0382168203610a5057565b6001600160401b038111610f7257604052565b634e487b7160e01b600052604160045260246000fd5b90601f801991011681019081106001600160401b03821117610f7257604052565b81601f82011215610a50578035916020916001600160401b038411610f72578360051b9060405194610fdd85840187610f88565b85528380860192820101928311610a50578301905b828210611000575050505090565b81358152908301908301610ff2565b1561101657565b60405162461bcd60e51b815260206004820152601060248201526f14185d5cd8589b194e881c185d5cd95960821b6044820152606490fd5b1561105557565b60405162461bcd60e51b815260206004820152602360248201527f41757468436f6e74726f6c3a2043616c6c6572206973206e6f7420616e20616460448201526236b4b760e91b6064820152608490fd5b156110ad57565b60405162461bcd60e51b815260206004820152601a6024820152796661696c656420746f207075742067656d20666f722073616c6560301b6044820152606490fd5b156110f657565b60405162461bcd60e51b8152602060048201526024808201527f646973636f756e742072617465206d757374206265206c657373207468616e206044820152633130302560e01b6064820152608490fd5b336001600160a01b038216036111635761116090611734565b50565b60405163334bd91960e11b8152600490fd5b336001600160a01b0382160361116357611160906116ac565b80518210156111a25760209160051b010190565b634e487b7160e01b600052603260045260246000fd5b818102929181159184041417156111cb57565b634e487b7160e01b600052601160045260246000fd5b6001600160a01b03918216815291166020820152604081019190915260600190565b90816020910312610a5057518015158103610a505790565b600254604080516331a9108f60e11b81526004808201859052939591936001600160a01b03936020936000936024939287169186828681865afa9182156114295790889493929187926114b2575b508416978891160361147557881561143357875163276a28a360e01b81528281018b905286818681855afa9081156114295786916113fc575b506113b057803b156113ac5784809160448c8b519485938492634d723a7560e01b84528884015260018a8401525af180156113a25761138f575b5086519260608401918483106001600160401b0384111761137c5750508694926060989694926002927f8b8052dfcc72d6fc28cd795f60661e1a701f185ce78c06a47b2ac29357d6ef8b9b9952858252848201908882528780840195600187528b81528088522092511660018060a01b0319835416178255516001820155019051151560ff801983541691161790558251948552840152820152a1600190565b604190634e487b7160e01b600052526000fd5b61139b90949194610f5f565b92386112dc565b88513d87823e3d90fd5b8480fd5b875162461bcd60e51b81528083018790526021818601527f47656d20697320616c726561647920666f722073616c65206f72206d696e696e6044820152606760f81b6064820152608490fd5b61141c9150873d8911611422575b6114148183610f88565b810190611203565b386112a2565b503d61140a565b89513d88823e3d90fd5b875162461bcd60e51b8152808301879052601f818601527f5072696365206d7573742062652067726561746572207468616e207a65726f006044820152606490fd5b875162461bcd60e51b8152808301879052601881860152774e6f7420746865206f776e6572206f66207468652047454d60401b6044820152606490fd5b888092949596508193503d83116114ea575b6114ce8183610f88565b81010312610d6557518781168103610d65578793929184611269565b503d6114c4565b80600052600960205260406000203360005260205260ff60406000205416156115175750565b6044906040519063e2517d3f60e01b82523360048301526024820152fd5b6001600160a01b031660008181527fec8156718a8372b1db44bb411437d0870f3e3790d4a08526d024ce1b0b668f6b602052604081205490919060ff166115b05781805260096020526040822081835260205260408220600160ff1982541617905533916000805160206119738339815191528180a4600190565b5090565b6001600160a01b031660008181527fd42ae5fc9e10f8f15689ebdc809ceeda8915cf5e861d7d681fd20551fe494f0160205260408120549091906000805160206119b38339815191529060ff1661163e5780835260096020526040832082845260205260408320600160ff19825416179055600080516020611973833981519152339380a4600190565b505090565b906000918083526009602052604083209160018060a01b03169182845260205260ff6040842054161560001461163e5780835260096020526040832082845260205260408320600160ff19825416179055600080516020611973833981519152339380a4600190565b6001600160a01b031660008181527fd42ae5fc9e10f8f15689ebdc809ceeda8915cf5e861d7d681fd20551fe494f0160205260408120549091906000805160206119b38339815191529060ff161561163e578083526009602052604083208284526020526040832060ff198154169055600080516020611993833981519152339380a4600190565b6001600160a01b031660008181527fec8156718a8372b1db44bb411437d0870f3e3790d4a08526d024ce1b0b668f6b602052604081205490919060ff16156115b0578180526009602052604082208183526020526040822060ff19815416905533916000805160206119938339815191528180a4600190565b906000918083526009602052604083209160018060a01b03169182845260205260ff60408420541660001461163e578083526009602052604083208284526020526040832060ff198154169055600080516020611993833981519152339380a4600190565b93929161183660405193849260208401946323b872dd60e01b8652602485016111e1565b039361184a601f1995868101855284610f88565b60018060a01b031691600080928192519082865af13d156118fe573d946001600160401b0386116118ea576118a1939495611890602060405193601f8401160183610f88565b8152809260203d92013e5b8361190f565b80519081151591826118cf575b50506118b75750565b60249060405190635274afe760e01b82526004820152fd5b6118e29250602080918301019101611203565b1538806118ae565b634e487b7160e01b83526041600452602483fd5b90506118a19192935060609061189b565b90611936575080511561192457805190602001fd5b604051630a12f52160e11b8152600490fd5b81511580611969575b611947575090565b604051639996b31560e01b81526001600160a01b039091166004820152602490fd5b50803b1561193f56fe2f8788117e7eff1d82e926ec794901d17c78024a50270940304540a733656f0df6391f5c32d9c69d2a47ea670b442974b53935d1edc7fd64eb21e047a839171b06aa03964db1f7257357ef09714a5f0ca3633723df419e97015e0c7a3e83edb7a2646970667358221220e8f086bf659c6bdbb73a3e78f7afe65ad316c0bd430e89bf244b22f43e93b83b64736f6c63430008190033",
  "linkReferences": {},
  "deployedLinkReferences": {}
}