{
  "_format": "hh-sol-artifact-1",
  "contractName": "MarketPlace",
  "sourceName": "src/L2/MarketPlace.sol",
  "abi": [
    {
      "inputs": [],
      "stateMutability": "nonpayable",
      "type": "constructor"
    },
    {
      "inputs": [
        {
          "internalType": "address",
          "name": "target",
          "type": "address"
        }
      ],
      "name": "AddressEmptyCode",
      "type": "error"
    },
    {
      "inputs": [
        {
          "internalType": "address",
          "name": "account",
          "type": "address"
        }
      ],
      "name": "AddressInsufficientBalance",
      "type": "error"
    },
    {
      "inputs": [],
      "name": "FailedInnerCall",
      "type": "error"
    },
    {
      "inputs": [
        {
          "internalType": "address",
          "name": "owner",
          "type": "address"
        }
      ],
      "name": "OwnableInvalidOwner",
      "type": "error"
    },
    {
      "inputs": [
        {
          "internalType": "address",
          "name": "account",
          "type": "address"
        }
      ],
      "name": "OwnableUnauthorizedAccount",
      "type": "error"
    },
    {
      "inputs": [],
      "name": "ReentrancyGuardReentrantCall",
      "type": "error"
    },
    {
      "inputs": [
        {
          "internalType": "address",
          "name": "token",
          "type": "address"
        }
      ],
      "name": "SafeERC20FailedOperation",
      "type": "error"
    },
    {
      "anonymous": false,
      "inputs": [
        {
          "indexed": false,
          "internalType": "uint256",
          "name": "tokenId",
          "type": "uint256"
        },
        {
          "indexed": false,
          "internalType": "address",
          "name": "payer",
          "type": "address"
        },
        {
          "indexed": false,
          "internalType": "address",
          "name": "seller",
          "type": "address"
        },
        {
          "indexed": false,
          "internalType": "uint256",
          "name": "amount",
          "type": "uint256"
        }
      ],
      "name": "GemBought",
      "type": "event"
    },
    {
      "anonymous": false,
      "inputs": [
        {
          "indexed": false,
          "internalType": "uint256",
          "name": "tokenId",
          "type": "uint256"
        },
        {
          "indexed": false,
          "internalType": "address",
          "name": "seller",
          "type": "address"
        },
        {
          "indexed": false,
          "internalType": "uint256",
          "name": "price",
          "type": "uint256"
        }
      ],
      "name": "GemForSale",
      "type": "event"
    },
    {
      "anonymous": false,
      "inputs": [
        {
          "indexed": false,
          "internalType": "uint256",
          "name": "tokenId",
          "type": "uint256"
        }
      ],
      "name": "GemRemovedFromSale",
      "type": "event"
    },
    {
      "anonymous": false,
      "inputs": [
        {
          "indexed": true,
          "internalType": "address",
          "name": "previousOwner",
          "type": "address"
        },
        {
          "indexed": true,
          "internalType": "address",
          "name": "newOwner",
          "type": "address"
        }
      ],
      "name": "OwnershipTransferred",
      "type": "event"
    },
    {
      "anonymous": false,
      "inputs": [
        {
          "indexed": false,
          "internalType": "uint256",
          "name": "discountRate",
          "type": "uint256"
        }
      ],
      "name": "SetDiscountRate",
      "type": "event"
    },
    {
      "anonymous": false,
      "inputs": [
        {
          "indexed": false,
          "internalType": "uint256",
          "name": "tokenId",
          "type": "uint256"
        },
        {
          "indexed": false,
          "internalType": "address",
          "name": "claimer",
          "type": "address"
        }
      ],
      "name": "WSTONClaimed",
      "type": "event"
    },
    {
      "inputs": [],
      "name": "DECIMALS",
      "outputs": [
        {
          "internalType": "uint256",
          "name": "",
          "type": "uint256"
        }
      ],
      "stateMutability": "view",
      "type": "function"
    },
    {
      "inputs": [],
      "name": "TON_FEES_RATE_DIVIDER",
      "outputs": [
        {
          "internalType": "uint256",
          "name": "",
          "type": "uint256"
        }
      ],
      "stateMutability": "view",
      "type": "function"
    },
    {
      "inputs": [],
      "name": "buyCommonGem",
      "outputs": [
        {
          "internalType": "uint256",
          "name": "newTokenId",
          "type": "uint256"
        }
      ],
      "stateMutability": "nonpayable",
      "type": "function"
    },
    {
      "inputs": [
        {
          "internalType": "uint256",
          "name": "_tokenId",
          "type": "uint256"
        },
        {
          "internalType": "bool",
          "name": "_paymentMethod",
          "type": "bool"
        }
      ],
      "name": "buyGem",
      "outputs": [],
      "stateMutability": "nonpayable",
      "type": "function"
    },
    {
      "inputs": [],
      "name": "commonGemTokenUri",
      "outputs": [
        {
          "internalType": "string",
          "name": "",
          "type": "string"
        }
      ],
      "stateMutability": "view",
      "type": "function"
    },
    {
      "inputs": [],
      "name": "gemFactory",
      "outputs": [
        {
          "internalType": "address",
          "name": "",
          "type": "address"
        }
      ],
      "stateMutability": "view",
      "type": "function"
    },
    {
      "inputs": [
        {
          "internalType": "uint256",
          "name": "",
          "type": "uint256"
        }
      ],
      "name": "gemsForSale",
      "outputs": [
        {
          "internalType": "address",
          "name": "seller",
          "type": "address"
        },
        {
          "internalType": "uint256",
          "name": "price",
          "type": "uint256"
        },
        {
          "internalType": "bool",
          "name": "isActive",
          "type": "bool"
        }
      ],
      "stateMutability": "view",
      "type": "function"
    },
    {
      "inputs": [],
      "name": "getGemFactory",
      "outputs": [
        {
          "internalType": "address",
          "name": "",
          "type": "address"
        }
      ],
      "stateMutability": "view",
      "type": "function"
    },
    {
      "inputs": [],
      "name": "getTonFeesRate",
      "outputs": [
        {
          "internalType": "uint256",
          "name": "",
          "type": "uint256"
        }
      ],
      "stateMutability": "view",
      "type": "function"
    },
    {
      "inputs": [
        {
          "internalType": "address",
          "name": "_treasury",
          "type": "address"
        },
        {
          "internalType": "address",
          "name": "_gemfactory",
          "type": "address"
        },
        {
          "internalType": "uint256",
          "name": "_tonFeesRate",
          "type": "uint256"
        },
        {
          "internalType": "address",
          "name": "_wston",
          "type": "address"
        },
        {
          "internalType": "address",
          "name": "_ton",
          "type": "address"
        }
      ],
      "name": "initialize",
      "outputs": [],
      "stateMutability": "nonpayable",
      "type": "function"
    },
    {
      "inputs": [],
      "name": "owner",
      "outputs": [
        {
          "internalType": "address",
          "name": "",
          "type": "address"
        }
      ],
      "stateMutability": "view",
      "type": "function"
    },
    {
      "inputs": [],
      "name": "paused",
      "outputs": [
        {
          "internalType": "bool",
          "name": "",
          "type": "bool"
        }
      ],
      "stateMutability": "view",
      "type": "function"
    },
    {
      "inputs": [
        {
          "internalType": "uint256",
          "name": "_tokenId",
          "type": "uint256"
        },
        {
          "internalType": "uint256",
          "name": "_price",
          "type": "uint256"
        }
      ],
      "name": "putGemForSale",
      "outputs": [],
      "stateMutability": "nonpayable",
      "type": "function"
    },
    {
      "inputs": [
        {
          "internalType": "uint256[]",
          "name": "tokenIds",
          "type": "uint256[]"
        },
        {
          "internalType": "uint256[]",
          "name": "prices",
          "type": "uint256[]"
        }
      ],
      "name": "putGemListForSale",
      "outputs": [],
      "stateMutability": "nonpayable",
      "type": "function"
    },
    {
      "inputs": [
        {
          "internalType": "uint256",
          "name": "_tokenId",
          "type": "uint256"
        }
      ],
      "name": "removeGemForSale",
      "outputs": [],
      "stateMutability": "nonpayable",
      "type": "function"
    },
    {
      "inputs": [],
      "name": "renounceOwnership",
      "outputs": [],
      "stateMutability": "nonpayable",
      "type": "function"
    },
    {
      "inputs": [
        {
          "internalType": "string",
          "name": "_tokenURI",
          "type": "string"
        }
      ],
      "name": "setCommonGemTokenUri",
      "outputs": [],
      "stateMutability": "nonpayable",
      "type": "function"
    },
    {
      "inputs": [
        {
          "internalType": "uint256",
          "name": "_tonFeesRate",
          "type": "uint256"
        }
      ],
      "name": "setDiscountRate",
      "outputs": [],
      "stateMutability": "nonpayable",
      "type": "function"
    },
    {
      "inputs": [
        {
          "internalType": "uint256",
          "name": "_stakingIndex",
          "type": "uint256"
        }
      ],
      "name": "setStakingIndex",
      "outputs": [],
      "stateMutability": "nonpayable",
      "type": "function"
    },
    {
      "inputs": [],
      "name": "stakingIndex",
      "outputs": [
        {
          "internalType": "uint256",
          "name": "",
          "type": "uint256"
        }
      ],
      "stateMutability": "view",
      "type": "function"
    },
    {
      "inputs": [],
      "name": "ton",
      "outputs": [
        {
          "internalType": "address",
          "name": "",
          "type": "address"
        }
      ],
      "stateMutability": "view",
      "type": "function"
    },
    {
      "inputs": [],
      "name": "tonFeesRate",
      "outputs": [
        {
          "internalType": "uint256",
          "name": "",
          "type": "uint256"
        }
      ],
      "stateMutability": "view",
      "type": "function"
    },
    {
      "inputs": [
        {
          "internalType": "address",
          "name": "newOwner",
          "type": "address"
        }
      ],
      "name": "transferOwnership",
      "outputs": [],
      "stateMutability": "nonpayable",
      "type": "function"
    },
    {
      "inputs": [],
      "name": "treasury",
      "outputs": [
        {
          "internalType": "address",
          "name": "",
          "type": "address"
        }
      ],
      "stateMutability": "view",
      "type": "function"
    },
    {
      "inputs": [],
      "name": "wston",
      "outputs": [
        {
          "internalType": "address",
          "name": "",
          "type": "address"
        }
      ],
      "stateMutability": "view",
      "type": "function"
    }
  ],
  "bytecode": "0x60808060405234608c57600160075560ff196008541660085560016009553315607657600a8054336001600160a01b03198216811790925560405191906001600160a01b03167f8be0079c531659141344cd1fd0a4f28419497f9722a3daafe3b4186f6b6457e0600080a361180b90816100928239f35b631e4fbdf760e01b815260006004820152602490fd5b600080fdfe6040608081526004908136101561001557600080fd5b600091823560e01c806302424ed314610e1257806308ec897d14610df6578063127886191461042d5780632e0f262514610dd05780632ede643214610d9c57806330f5085914610d7d5780633336096814610c8257806333e1a22314610b9157806336b17e1314610b6a5780635c975abb14610b4657806361d027b314610b1d578063715018a614610abc5780637525e526146107ab57806379dbd7981461069f5780637c69febd146106465780638da5cb5b1461061d5780639c41b42b146105d2578063a27682ef1461044c578063a53225c0146101c1578063a69c8fb21461042d578063adad69261461029b578063cc48b94714610272578063ce49a360146101ee578063f00fe4fd146101c15763f2fde38b1461013457600080fd5b346101bd5760203660031901126101bd5761014d61119e565b9061015661167b565b6001600160a01b039182169283156101a7575050600a80546001600160a01b031981168417909155167f8be0079c531659141344cd1fd0a4f28419497f9722a3daafe3b4186f6b6457e0600080a380f35b51631e4fbdf760e01b8152908101849052602490fd5b8280fd5b5050346101ea57816003193601126101ea5760025490516001600160a01b039091168152602090f35b5080fd5b5090346101bd5760203660031901126101bd5761020961167b565b60016007541061021b57503560075580f35b906020608492519162461bcd60e51b8352820152602b60248201527f7374616b696e6720696e646578206d7573742062652067726561746572206f7260448201526a20657175616c20746f203160a81b6064820152fd5b5050346101ea57816003193601126101ea5760055490516001600160a01b039091168152602090f35b50346101bd57602090816003193601126103ad578035906102c160ff6008541615611235565b818552848352600160ff60028688200154161515036103f45760025484516331a9108f60e11b815280830184905286926001600160a01b03928316929091908682602481875afa9081156103ea576103239286926103bb575b5016331461138d565b813b156101bd5783604484928389519586948593634d723a7560e01b85528401528160248401525af180156103b157610399575b5092817f05e530d2932a31001c9cde048b350c93ce3ffea36cf640e4473b8da9e62ac1bb9452848352846002828220828155826001820155015551908152a180f35b6103a290611154565b6103ad578338610357565b8380fd5b85513d84823e3d90fd5b6103dc919250883d8a116103e3575b6103d4818361117d565b81019061136e565b903861031a565b503d6103ca565b88513d87823e3d90fd5b835162461bcd60e51b8152908101839052601360248201527247656d206973206e6f7420666f722073616c6560681b6044820152606490fd5b5050346101ea57816003193601126101ea576020906001549051908152f35b508290346101ea576020806003193601126101bd576001600160401b039180358381116105ce57366023820112156105ce57808201359061049861048f8361121a565b9751978861117d565b81875236602483830101116105ca578186926024869301838a0137870101526104bf61167b565b84519283116105b757506104d460065461111a565b601f811161057b575b5080601f83116001146105185750829382939261050d575b50508160011b916000199060031b1c19161760065580f35b0151905083806104f5565b90601f19831694600685528285209285905b87821061056357505083600195961061054a575b505050811b0160065580f35b015160001960f88460031b161c1916905583808061053e565b8060018596829496860151815501950193019061052a565b6105a790600660005282600020601f850160051c8101918486106105ad575b601f0160051c0190611315565b846104dd565b909150819061059a565b634e487b7160e01b845260419052602483fd5b8580fd5b8480fd5b50346101bd5760203660031901126101bd57606092829135815280602052209060018060a01b038254169160ff60026001830154920154169082519384526020840152151590820152f35b5050346101ea57816003193601126101ea57600a5490516001600160a01b039091168152602090f35b50346101bd5760203660031901126101bd577f21a8eefc17e9c864964b5a4c0769d87f39cc0a7576773159e12358bc0095ffc591602091359061068761167b565b610693606483106112bd565b8160015551908152a180f35b508290346101ea57826003193601126101ea576001600160401b039080358281116103ad576106d190369083016111b4565b916024359081116103ad576106e990369083016111b4565b936106f960ff6008541615611235565b82511561077c57825185510361074a575050815b8151811015610746578061074061073b61072960019486611344565b516107348489611344565b519061141f565b611274565b0161070d565b8280f35b906020606492519162461bcd60e51b8352820152600c60248201526b0eee4dedcce40d8cadccee8d60a31b6044820152fd5b906020606492519162461bcd60e51b835282015260096024820152686e6f20746f6b656e7360b81b6044820152fd5b509190346101ea57816003193601126101ea5760ff916107d060ff6008541615611235565b60028054835163d55486d360e01b8152602096926001600160a01b0392909190889082908690829087165afa8015610ab2578590610a83575b61081f91508385541684600354169033906116a7565b8160035416908551968688016001600160401b039089811082821117610a6e578852868952868a8a0152875190608082019082821090821117610a6e57908a949288928a9b959b526001918281528287820152828b8201528260608201528a519b8c9663912b431b60e01b8852858b890152602488019086915b838310610a445750505050606486019084915b8a8310610a2857505061010060e4870152505060065482916108cd8261111a565b908161010488015261012492878282169182600014610a075750506001146109c6575b5050509083809203925af19485156109bc57908692918496610983575b5090604484939260035416918651958693849263048dbcef60e41b845233908401528960248401525af1908115610978575061094b575b5051908152f35b61096a90843d8611610971575b610962818361117d565b81019061132c565b5038610944565b503d610958565b8351903d90823e3d90fd5b838193949297503d83116109b5575b61099c818361117d565b810103126109b0575193859190604461090d565b600080fd5b503d610992565b84513d85823e3d90fd5b91925060068452868420918785935b8385106109eb57505050508401018380386108f0565b80549885018601989098528d978c9650930192889082016109d5565b60ff19168582015292151560051b83019093019350909150819050386108f0565b8151841681528e988e98508c96509285019291820191016108ac565b86995081949750858b9396999b92979497511681520192019201928c96938e9896938c9693610899565b604187634e487b7160e01b6000525260246000fd5b508781813d8311610aab575b610a99818361117d565b810103126109b05761081f9051610809565b503d610a8f565b86513d87823e3d90fd5b8334610b1a5780600319360112610b1a57610ad561167b565b600a80546001600160a01b031981169091556000906001600160a01b03167f8be0079c531659141344cd1fd0a4f28419497f9722a3daafe3b4186f6b6457e08280a380f35b80fd5b5050346101ea57816003193601126101ea5760035490516001600160a01b039091168152602090f35b5050346101ea57816003193601126101ea5760209060ff6008541690519015158152f35b50346101bd57826003193601126101bd575490516001600160a01b03909116815260209150f35b8382346101ea5760a03660031901126101ea57610bac61119e565b6001600160a01b039160243583811692908390036109b05760443593606435918183168093036109b057608435958287168097036109b057610bec61167b565b610bf8606482106112bd565b60015560018060a01b03199485600254161760025516836003541617600355828254161790556005541617600555610c3160065461111a565b601f8111610c43575b50600060065580f35b6006600052610c7c90601f0160051c7ff652222313e28459528d920b65115c16c04f3efc82aaedc97be59f3f377c0d3f90810190611315565b81610c3a565b5050346101ea57816003193601126101ea5780518260065482610ca48261111a565b958682526020968793600190600181169081600014610d5c5750600114610d1e575b5050610cd8925095939295038261117d565b82519382859384528251928382860152825b848110610d0857505050828201840152601f01601f19168101030190f35b8181018301518882018801528795508201610cea565b600686528486209492508591905b818310610d44575088945050820101610cd838610cc6565b85548884018501529485019487945091830191610d2c565b915050610cd894925060ff191682840152151560051b820101869238610cc6565b5050346101ea57816003193601126101ea576020906007549051908152f35b5090346101bd573660031901126101ea5761073b610dcd91610dc360ff6008541615611235565b602435903561141f565b80f35b5050346101ea57816003193601126101ea5751676765c793fa10079d601b1b8152602090f35b5050346101ea57816003193601126101ea576020905160648152f35b50346101bd57816003193601126101bd57803590602480359081151582036105ca57610e4360ff6008541615611235565b600292836009541461110c578360095533156110dc5784875260209187835260ff85888a20015416156110ad578588528783526001878920015494851561107e57868952888452878920546001600160a01b0390811695909290861561104d578a919015610fcf57610eba888833878954166116a7565b8882528186528982208301805460ff191690558254841690813b156101bd5760448a8480948e519687958694634d723a7560e01b86528c8601528401525af18015610fc557610fae575b505488929116803b156101bd57868391610f3593838b518096819582946323b872dd60e01b84528c339185016113fd565b03925af18015610fa457610f88575b507f429a311c86d807d248190c8540973d38711c40cabad4c6266ef4b9a7ae6cdc3c60808686868a87815194855233908501528301526060820152a1600160095580f35b610f96909594939295611154565b6105ca579091928538610f44565b87513d84823e3d90fd5b610fbc909991939299611154565b97909138610f04565b89513d8c823e3d90fd5b9050676765c793fa10079d601b1b610fe9600754896113d4565b046064610ff8600154836113d4565b04810180911161103b57906110228b92633b9aca00866005541691049086600354169033906116a7565b6110368888868854168760035416906116a7565b610eba565b50634e487b7160e01b8a526011845289fd5b895162461bcd60e51b8152808601879052600c818401526b3bb937b7339039b2b63632b960a11b6044820152606490fd5b50600b9060649388519362461bcd60e51b85528401528201526a77726f6e6720707269636560a81b6044820152fd5b600c9060649388519362461bcd60e51b85528401528201526b6e6f7420666f722073616c6560a01b6044820152fd5b600c606492602088519362461bcd60e51b85528401528201526b7a65726f206164647265737360a01b6044820152fd5b8551633ee5aeb560e01b8152fd5b90600182811c9216801561114a575b602083101461113457565b634e487b7160e01b600052602260045260246000fd5b91607f1691611129565b6001600160401b03811161116757604052565b634e487b7160e01b600052604160045260246000fd5b90601f801991011681019081106001600160401b0382111761116757604052565b600435906001600160a01b03821682036109b057565b81601f820112156109b0578035916020916001600160401b038411611167578360051b90604051946111e88584018761117d565b855283808601928201019283116109b0578301905b82821061120b575050505090565b813581529083019083016111fd565b6001600160401b03811161116757601f01601f191660200190565b1561123c57565b60405162461bcd60e51b815260206004820152601060248201526f14185d5cd8589b194e881c185d5cd95960821b6044820152606490fd5b1561127b57565b60405162461bcd60e51b815260206004820152601a6024820152796661696c656420746f207075742067656d20666f722073616c6560301b6044820152606490fd5b156112c457565b60405162461bcd60e51b8152602060048201526024808201527f646973636f756e742072617465206d757374206265206c657373207468616e206044820152633130302560e01b6064820152608490fd5b818110611320575050565b60008155600101611315565b908160209103126109b0575180151581036109b05790565b80518210156113585760209160051b010190565b634e487b7160e01b600052603260045260246000fd5b908160209103126109b057516001600160a01b03811681036109b05790565b1561139457565b60405162461bcd60e51b81526020600482015260186024820152774e6f7420746865206f776e6572206f66207468652047454d60401b6044820152606490fd5b818102929181159184041417156113e757565b634e487b7160e01b600052601160045260246000fd5b6001600160a01b03918216815291166020820152604081019190915260600190565b90600254600060018060a01b03809216906040928351906331a9108f60e11b82526004878184015260209460249386818681855afa908115611612579061147191879161165e575b508416331461138d565b871561161c57865163276a28a360e01b81528281018a905286818681855afa9081156116125786916115f5575b506115a957803b156105ce5784809160448b8a519485938492634d723a7560e01b84528884015260018a8401525af1801561159f5761158c575b5085519260608401918483106001600160401b0384111761157957505060609694928694926002927f8b8052dfcc72d6fc28cd795f60661e1a701f185ce78c06a47b2ac29357d6ef8b9a9852338252848201908782528680840195600187528a81528088522092511660018060a01b0319835416178255516001820155019051151560ff8019835416911617905581519384523390840152820152a1600190565b604190634e487b7160e01b600052526000fd5b61159890949194611154565b92386114d8565b87513d87823e3d90fd5b865162461bcd60e51b81528083018790526021818601527f47656d20697320616c726561647920666f722073616c65206f72206d696e696e6044820152606760f81b6064820152608490fd5b61160c9150873d891161097157610962818361117d565b3861149e565b88513d88823e3d90fd5b865162461bcd60e51b8152808301879052601f818601527f5072696365206d7573742062652067726561746572207468616e207a65726f006044820152606490fd5b6116759150883d8a116103e3576103d4818361117d565b38611467565b600a546001600160a01b0316330361168f57565b60405163118cdaa760e01b8152336004820152602490fd5b60009182916116e2611721956116d460405198899260208401966323b872dd60e01b8852602485016113fd565b03601f19810188528761117d565b60018060a01b031694519082865af13d1561176a573d906117028261121a565b91611710604051938461117d565b82523d6000602084013e5b83611772565b805190811515918261174f575b50506117375750565b60249060405190635274afe760e01b82526004820152fd5b611762925060208091830101910161132c565b15388061172e565b60609061171b565b90611799575080511561178757805190602001fd5b604051630a12f52160e11b8152600490fd5b815115806117cc575b6117aa575090565b604051639996b31560e01b81526001600160a01b039091166004820152602490fd5b50803b156117a256fea26469706673582212207291e708be6d19bba85922d237046a1da0a33e9f2a32834ca374a1ac6607fa0064736f6c63430008190033",
  "linkReferences": {},
  "deployedLinkReferences": {}
}