{
  "_format": "hh-sol-artifact-1",
  "contractName": "MarketPlace",
  "sourceName": "src/L2/MarketPlace.sol",
  "abi": [
    {
      "inputs": [],
      "name": "AccessControlBadConfirmation",
      "type": "error"
    },
    {
      "inputs": [
        {
          "internalType": "address",
          "name": "account",
          "type": "address"
        },
        {
          "internalType": "bytes32",
          "name": "neededRole",
          "type": "bytes32"
        }
      ],
      "name": "AccessControlUnauthorizedAccount",
      "type": "error"
    },
    {
      "inputs": [],
      "name": "AddressZero",
      "type": "error"
    },
    {
      "inputs": [
        {
          "internalType": "string",
          "name": "errorMessage",
          "type": "string"
        }
      ],
      "name": "BuyerIsSeller",
      "type": "error"
    },
    {
      "inputs": [],
      "name": "GemIsAlreadyForSaleOrIsMining",
      "type": "error"
    },
    {
      "inputs": [],
      "name": "GemIsNotForSale",
      "type": "error"
    },
    {
      "inputs": [],
      "name": "NoTokens",
      "type": "error"
    },
    {
      "inputs": [],
      "name": "NotGemOwner",
      "type": "error"
    },
    {
      "inputs": [],
      "name": "ReentrancyGuardReentrantCall",
      "type": "error"
    },
    {
      "inputs": [],
      "name": "SameAdmin",
      "type": "error"
    },
    {
      "inputs": [],
      "name": "WrongDiscountRate",
      "type": "error"
    },
    {
      "inputs": [],
      "name": "WrongLength",
      "type": "error"
    },
    {
      "inputs": [],
      "name": "WrongPrice",
      "type": "error"
    },
    {
      "inputs": [],
      "name": "WrongSeller",
      "type": "error"
    },
    {
      "inputs": [],
      "name": "WrongStakingIndex",
      "type": "error"
    },
    {
      "inputs": [],
      "name": "ZeroAddress",
      "type": "error"
    },
    {
      "anonymous": false,
      "inputs": [
        {
          "indexed": false,
          "internalType": "uint256",
          "name": "tokenId",
          "type": "uint256"
        },
        {
          "indexed": false,
          "internalType": "address",
          "name": "payer",
          "type": "address"
        },
        {
          "indexed": false,
          "internalType": "address",
          "name": "seller",
          "type": "address"
        },
        {
          "indexed": false,
          "internalType": "uint256",
          "name": "amount",
          "type": "uint256"
        }
      ],
      "name": "GemBought",
      "type": "event"
    },
    {
      "anonymous": false,
      "inputs": [
        {
          "indexed": false,
          "internalType": "uint256",
          "name": "tokenId",
          "type": "uint256"
        },
        {
          "indexed": false,
          "internalType": "address",
          "name": "seller",
          "type": "address"
        },
        {
          "indexed": false,
          "internalType": "uint256",
          "name": "price",
          "type": "uint256"
        }
      ],
      "name": "GemForSale",
      "type": "event"
    },
    {
      "anonymous": false,
      "inputs": [
        {
          "indexed": false,
          "internalType": "uint256",
          "name": "tokenId",
          "type": "uint256"
        }
      ],
      "name": "GemRemovedFromSale",
      "type": "event"
    },
    {
      "anonymous": false,
      "inputs": [
        {
          "indexed": true,
          "internalType": "bytes32",
          "name": "role",
          "type": "bytes32"
        },
        {
          "indexed": true,
          "internalType": "bytes32",
          "name": "previousAdminRole",
          "type": "bytes32"
        },
        {
          "indexed": true,
          "internalType": "bytes32",
          "name": "newAdminRole",
          "type": "bytes32"
        }
      ],
      "name": "RoleAdminChanged",
      "type": "event"
    },
    {
      "anonymous": false,
      "inputs": [
        {
          "indexed": true,
          "internalType": "bytes32",
          "name": "role",
          "type": "bytes32"
        },
        {
          "indexed": true,
          "internalType": "address",
          "name": "account",
          "type": "address"
        },
        {
          "indexed": true,
          "internalType": "address",
          "name": "sender",
          "type": "address"
        }
      ],
      "name": "RoleGranted",
      "type": "event"
    },
    {
      "anonymous": false,
      "inputs": [
        {
          "indexed": true,
          "internalType": "bytes32",
          "name": "role",
          "type": "bytes32"
        },
        {
          "indexed": true,
          "internalType": "address",
          "name": "account",
          "type": "address"
        },
        {
          "indexed": true,
          "internalType": "address",
          "name": "sender",
          "type": "address"
        }
      ],
      "name": "RoleRevoked",
      "type": "event"
    },
    {
      "anonymous": false,
      "inputs": [
        {
          "indexed": false,
          "internalType": "uint256",
          "name": "discountRate",
          "type": "uint256"
        }
      ],
      "name": "SetDiscountRate",
      "type": "event"
    },
    {
      "anonymous": false,
      "inputs": [
        {
          "indexed": false,
          "internalType": "uint256",
          "name": "tokenId",
          "type": "uint256"
        },
        {
          "indexed": false,
          "internalType": "address",
          "name": "claimer",
          "type": "address"
        }
      ],
      "name": "WSTONClaimed",
      "type": "event"
    },
    {
      "inputs": [],
      "name": "ADMIN_ROLE",
      "outputs": [
        {
          "internalType": "bytes32",
          "name": "",
          "type": "bytes32"
        }
      ],
      "stateMutability": "view",
      "type": "function"
    },
    {
      "inputs": [],
      "name": "DECIMALS",
      "outputs": [
        {
          "internalType": "uint256",
          "name": "",
          "type": "uint256"
        }
      ],
      "stateMutability": "view",
      "type": "function"
    },
    {
      "inputs": [],
      "name": "DEFAULT_ADMIN_ROLE",
      "outputs": [
        {
          "internalType": "bytes32",
          "name": "",
          "type": "bytes32"
        }
      ],
      "stateMutability": "view",
      "type": "function"
    },
    {
      "inputs": [],
      "name": "PAUSE_ROLE",
      "outputs": [
        {
          "internalType": "bytes32",
          "name": "",
          "type": "bytes32"
        }
      ],
      "stateMutability": "view",
      "type": "function"
    },
    {
      "inputs": [],
      "name": "TON_FEES_RATE_DIVIDER",
      "outputs": [
        {
          "internalType": "uint256",
          "name": "",
          "type": "uint256"
        }
      ],
      "stateMutability": "view",
      "type": "function"
    },
    {
      "inputs": [
        {
          "internalType": "address",
          "name": "account",
          "type": "address"
        }
      ],
      "name": "addAdmin",
      "outputs": [],
      "stateMutability": "nonpayable",
      "type": "function"
    },
    {
      "inputs": [
        {
          "internalType": "address",
          "name": "account",
          "type": "address"
        }
      ],
      "name": "addPauser",
      "outputs": [],
      "stateMutability": "nonpayable",
      "type": "function"
    },
    {
      "inputs": [
        {
          "internalType": "address",
          "name": "",
          "type": "address"
        }
      ],
      "name": "aliveImplementation",
      "outputs": [
        {
          "internalType": "bool",
          "name": "",
          "type": "bool"
        }
      ],
      "stateMutability": "view",
      "type": "function"
    },
    {
      "inputs": [
        {
          "internalType": "uint256",
          "name": "_tokenId",
          "type": "uint256"
        },
        {
          "internalType": "bool",
          "name": "_paymentMethod",
          "type": "bool"
        }
      ],
      "name": "buyGem",
      "outputs": [],
      "stateMutability": "nonpayable",
      "type": "function"
    },
    {
      "inputs": [],
      "name": "commonGemTokenUri",
      "outputs": [
        {
          "internalType": "string",
          "name": "",
          "type": "string"
        }
      ],
      "stateMutability": "view",
      "type": "function"
    },
    {
      "inputs": [],
      "name": "gemFactory",
      "outputs": [
        {
          "internalType": "address",
          "name": "",
          "type": "address"
        }
      ],
      "stateMutability": "view",
      "type": "function"
    },
    {
      "inputs": [
        {
          "internalType": "uint256",
          "name": "",
          "type": "uint256"
        }
      ],
      "name": "gemsForSale",
      "outputs": [
        {
          "internalType": "address",
          "name": "seller",
          "type": "address"
        },
        {
          "internalType": "uint256",
          "name": "price",
          "type": "uint256"
        },
        {
          "internalType": "bool",
          "name": "isActive",
          "type": "bool"
        }
      ],
      "stateMutability": "view",
      "type": "function"
    },
    {
      "inputs": [
        {
          "internalType": "bytes32",
          "name": "role",
          "type": "bytes32"
        }
      ],
      "name": "getRoleAdmin",
      "outputs": [
        {
          "internalType": "bytes32",
          "name": "",
          "type": "bytes32"
        }
      ],
      "stateMutability": "view",
      "type": "function"
    },
    {
      "inputs": [],
      "name": "getStakingIndex",
      "outputs": [
        {
          "internalType": "uint256",
          "name": "",
          "type": "uint256"
        }
      ],
      "stateMutability": "view",
      "type": "function"
    },
    {
      "inputs": [
        {
          "internalType": "bytes32",
          "name": "role",
          "type": "bytes32"
        },
        {
          "internalType": "address",
          "name": "account",
          "type": "address"
        }
      ],
      "name": "grantRole",
      "outputs": [],
      "stateMutability": "nonpayable",
      "type": "function"
    },
    {
      "inputs": [
        {
          "internalType": "bytes32",
          "name": "role",
          "type": "bytes32"
        },
        {
          "internalType": "address",
          "name": "account",
          "type": "address"
        }
      ],
      "name": "hasRole",
      "outputs": [
        {
          "internalType": "bool",
          "name": "",
          "type": "bool"
        }
      ],
      "stateMutability": "view",
      "type": "function"
    },
    {
      "inputs": [
        {
          "internalType": "address",
          "name": "_treasury",
          "type": "address"
        },
        {
          "internalType": "address",
          "name": "_gemfactory",
          "type": "address"
        },
        {
          "internalType": "uint256",
          "name": "_tonFeesRate",
          "type": "uint256"
        },
        {
          "internalType": "address",
          "name": "_wston",
          "type": "address"
        },
        {
          "internalType": "address",
          "name": "_ton",
          "type": "address"
        }
      ],
      "name": "initialize",
      "outputs": [],
      "stateMutability": "nonpayable",
      "type": "function"
    },
    {
      "inputs": [
        {
          "internalType": "address",
          "name": "account",
          "type": "address"
        }
      ],
      "name": "isAdmin",
      "outputs": [
        {
          "internalType": "bool",
          "name": "",
          "type": "bool"
        }
      ],
      "stateMutability": "view",
      "type": "function"
    },
    {
      "inputs": [],
      "name": "isOwner",
      "outputs": [
        {
          "internalType": "bool",
          "name": "",
          "type": "bool"
        }
      ],
      "stateMutability": "view",
      "type": "function"
    },
    {
      "inputs": [],
      "name": "pause",
      "outputs": [],
      "stateMutability": "nonpayable",
      "type": "function"
    },
    {
      "inputs": [],
      "name": "pauseProxy",
      "outputs": [
        {
          "internalType": "bool",
          "name": "",
          "type": "bool"
        }
      ],
      "stateMutability": "view",
      "type": "function"
    },
    {
      "inputs": [],
      "name": "paused",
      "outputs": [
        {
          "internalType": "bool",
          "name": "",
          "type": "bool"
        }
      ],
      "stateMutability": "view",
      "type": "function"
    },
    {
      "inputs": [
        {
          "internalType": "uint256",
          "name": "",
          "type": "uint256"
        }
      ],
      "name": "proxyImplementation",
      "outputs": [
        {
          "internalType": "address",
          "name": "",
          "type": "address"
        }
      ],
      "stateMutability": "view",
      "type": "function"
    },
    {
      "inputs": [
        {
          "internalType": "uint256",
          "name": "_tokenId",
          "type": "uint256"
        },
        {
          "internalType": "uint256",
          "name": "_price",
          "type": "uint256"
        }
      ],
      "name": "putGemForSale",
      "outputs": [],
      "stateMutability": "nonpayable",
      "type": "function"
    },
    {
      "inputs": [
        {
          "internalType": "uint256[]",
          "name": "tokenIds",
          "type": "uint256[]"
        },
        {
          "internalType": "uint256[]",
          "name": "prices",
          "type": "uint256[]"
        }
      ],
      "name": "putGemListForSale",
      "outputs": [],
      "stateMutability": "nonpayable",
      "type": "function"
    },
    {
      "inputs": [
        {
          "internalType": "address",
          "name": "account",
          "type": "address"
        }
      ],
      "name": "removeAdmin",
      "outputs": [],
      "stateMutability": "nonpayable",
      "type": "function"
    },
    {
      "inputs": [
        {
          "internalType": "uint256",
          "name": "_tokenId",
          "type": "uint256"
        }
      ],
      "name": "removeGemForSale",
      "outputs": [],
      "stateMutability": "nonpayable",
      "type": "function"
    },
    {
      "inputs": [
        {
          "internalType": "address",
          "name": "account",
          "type": "address"
        }
      ],
      "name": "removePauser",
      "outputs": [],
      "stateMutability": "nonpayable",
      "type": "function"
    },
    {
      "inputs": [],
      "name": "renounceOwnership",
      "outputs": [],
      "stateMutability": "nonpayable",
      "type": "function"
    },
    {
      "inputs": [
        {
          "internalType": "bytes32",
          "name": "role",
          "type": "bytes32"
        },
        {
          "internalType": "address",
          "name": "callerConfirmation",
          "type": "address"
        }
      ],
      "name": "renounceRole",
      "outputs": [],
      "stateMutability": "nonpayable",
      "type": "function"
    },
    {
      "inputs": [
        {
          "internalType": "bytes32",
          "name": "role",
          "type": "bytes32"
        },
        {
          "internalType": "address",
          "name": "account",
          "type": "address"
        }
      ],
      "name": "revokeRole",
      "outputs": [],
      "stateMutability": "nonpayable",
      "type": "function"
    },
    {
      "inputs": [
        {
          "internalType": "bytes4",
          "name": "",
          "type": "bytes4"
        }
      ],
      "name": "selectorImplementation",
      "outputs": [
        {
          "internalType": "address",
          "name": "",
          "type": "address"
        }
      ],
      "stateMutability": "view",
      "type": "function"
    },
    {
      "inputs": [
        {
          "internalType": "string",
          "name": "_tokenURI",
          "type": "string"
        }
      ],
      "name": "setCommonGemTokenUri",
      "outputs": [],
      "stateMutability": "nonpayable",
      "type": "function"
    },
    {
      "inputs": [
        {
          "internalType": "uint256",
          "name": "_tonFeesRate",
          "type": "uint256"
        }
      ],
      "name": "setDiscountRate",
      "outputs": [],
      "stateMutability": "nonpayable",
      "type": "function"
    },
    {
      "inputs": [
        {
          "internalType": "uint256",
          "name": "_stakingIndex",
          "type": "uint256"
        }
      ],
      "name": "setStakingIndex",
      "outputs": [],
      "stateMutability": "nonpayable",
      "type": "function"
    },
    {
      "inputs": [
        {
          "internalType": "uint256",
          "name": "_tonFeesRate",
          "type": "uint256"
        }
      ],
      "name": "setTonFeesRate",
      "outputs": [],
      "stateMutability": "nonpayable",
      "type": "function"
    },
    {
      "inputs": [],
      "name": "stakingIndex",
      "outputs": [
        {
          "internalType": "uint256",
          "name": "",
          "type": "uint256"
        }
      ],
      "stateMutability": "view",
      "type": "function"
    },
    {
      "inputs": [
        {
          "internalType": "bytes4",
          "name": "interfaceId",
          "type": "bytes4"
        }
      ],
      "name": "supportsInterface",
      "outputs": [
        {
          "internalType": "bool",
          "name": "",
          "type": "bool"
        }
      ],
      "stateMutability": "view",
      "type": "function"
    },
    {
      "inputs": [],
      "name": "ton",
      "outputs": [
        {
          "internalType": "address",
          "name": "",
          "type": "address"
        }
      ],
      "stateMutability": "view",
      "type": "function"
    },
    {
      "inputs": [],
      "name": "tonFeesRate",
      "outputs": [
        {
          "internalType": "uint256",
          "name": "",
          "type": "uint256"
        }
      ],
      "stateMutability": "view",
      "type": "function"
    },
    {
      "inputs": [
        {
          "internalType": "address",
          "name": "newAdmin",
          "type": "address"
        }
      ],
      "name": "transferAdmin",
      "outputs": [],
      "stateMutability": "nonpayable",
      "type": "function"
    },
    {
      "inputs": [
        {
          "internalType": "address",
          "name": "newAdmin",
          "type": "address"
        }
      ],
      "name": "transferOwnership",
      "outputs": [],
      "stateMutability": "nonpayable",
      "type": "function"
    },
    {
      "inputs": [],
      "name": "treasury",
      "outputs": [
        {
          "internalType": "address",
          "name": "",
          "type": "address"
        }
      ],
      "stateMutability": "view",
      "type": "function"
    },
    {
      "inputs": [],
      "name": "unpause",
      "outputs": [],
      "stateMutability": "nonpayable",
      "type": "function"
    },
    {
      "inputs": [],
      "name": "wston",
      "outputs": [
        {
          "internalType": "address",
          "name": "",
          "type": "address"
        }
      ],
      "stateMutability": "view",
      "type": "function"
    }
  ],
  "bytecode": "0x608080604052346073576b033b2e3c9fd0803ce8000000600b55600c805461ffff191690556001600d8190556301ffc9a760e01b600052600e6020527ff78053c79e0b9aa452e27b1a016da828f8da009fc4e41d10c85bd3a969c7facb805460ff191690911790556120b890816100798239f35b600080fdfe608060408181526004908136101561001657600080fd5b600092833560e01c90816301ffc9a7146116245750806302424ed3146111f057806308ec897d146111d457806312788619146111b55780631785f53c14611188578063248a9ca31461115d57806324d7806c146111085780632dd355c2146110e35780632e0f2625146110bd5780632ede6432146110155780632f2ff15d14610fed57806330f5085914610c6a5780633336096814610ef257806333e1a22314610d5857806336568abe14610d1157806336b17e1314610ce8578063389ed26714610cbf5780633f4ba83a14610c895780635074e0c814610c6a57806350d2a27614610c26578063550d01a314610be85780635c975abb14610bc457806361d027b314610b9b57806363a8fd8914610b795780636b2c0f5514610b2b5780637048027514610adc578063715018a614610ab757806375829def14610a9157806375b238fc14610a6857806379dbd7981461091f5780637c69febd146108b657806382dc1ec4146107f05780638456cb59146107b45780638f32d59b1461078e57806391d14854146107485780639c41b42b146106fc578063a217fddf146106e1578063a27682ef1461053e578063a53225c014610515578063adad6926146103a1578063b911135f1461036e578063cc48b94714610341578063ce49a360146102f9578063d547741f146102bb5763f2fde38b1461021357600080fd5b346102b75760203660031901126102b75761022c61165d565b9161023d610238611927565b6117b2565b610248610238611927565b6001600160a01b03831680156102a857331461029a575090610288600161028d936000805160206120438339815191528652600f60205285200154611bd3565b611c84565b50610297336118cf565b80f35b90516309cd70b960e21b8152fd5b50905163d92e233d60e01b8152fd5b8280fd5b50346102b757806003193601126102b7576102f591356102f060016102de611673565b93838752600f60205286200154611bd3565b611f7d565b5080f35b5090346102b75760203660031901126102b75780359161031a610238611927565b676765c793fa10079d601b1b8310610334575050600b5580f35b516373fd31f360e01b8152fd5b83823461036a578160031936011261036a5760095490516001600160a01b039091168152602090f35b5080fd5b5090346102b75760203660031901126102b75735825260016020908152918190205490516001600160a01b039091168152f35b50346102b75760209081600319360112610511578235906103c760ff600c541615611773565b818552838352600160ff60028388200154161515036105025760065481516331a9108f60e11b81528581018490526001600160a01b03918216918582602481865afa9182156104f85788926104c9575b50339116036104b9578086913b1561036a578180916044855180948193634d723a7560e01b8352898c8401528160248401525af180156104af57610497575b5093827f05e530d2932a31001c9cde048b350c93ce3ffea36cf640e4473b8da9e62ac1bb95528352846002828220828155826001820155015551908152a180f35b6104a0906116c3565b6104ab578438610456565b8480fd5b83513d84823e3d90fd5b81516302b327b560e41b81528590fd5b6104ea919250863d88116104f1575b6104e281836116ec565b81019061180a565b9038610417565b503d6104d8565b84513d8a823e3d90fd5b516374f0c4bb60e11b81528390fd5b8380fd5b83823461036a578160031936011261036a5760065490516001600160a01b039091168152602090f35b5091903461036a57602092836003193601126102b7578135936001600160401b03928386116104ab57366023870112156104ab57858101358481116106ce57601f199351966105948486601f85011601896116ec565b81885236602483830101116106ca578187926024869301838b0137880101526105be610238611927565b85519384116106b757506105d3600a54611689565b601f811161067b575b508091601f8411600114610619575050829382939261060e575b50508160011b916000199060031b1c191617600a5580f35b0151905038806105f6565b839291921694600a85528285209285905b87821061066357505083600195961061064a575b505050811b01600a5580f35b015160001960f88460031b161c1916905538808061063e565b8060018596829496860151815501950193019061062a565b6106a790600a60005282600020601f860160051c8101918487106106ad575b601f0160051c01906118b8565b386105dc565b909150819061069a565b634e487b7160e01b855260419052602484fd5b8680fd5b634e487b7160e01b865260418252602486fd5b83823461036a578160031936011261036a5751908152602090f35b5090346102b75760203660031901126102b757606092818392358252602052209060018060a01b038254169160ff60026001830154920154169082519384526020840152151590820152f35b5090346102b757816003193601126102b75781602093610766611673565b92358152600f8552209060018060a01b0316600052825260ff81600020541690519015158152f35b83823461036a578160031936011261036a576020906107ab611927565b90519015158152f35b83346107ed57806003193601126107ed576107d0610238611927565b6001600c546107e260ff821615611773565b60ff191617600c5580f35b80fd5b5091903461036a57602036600319011261036a5761080c61165d565b906000805160206120438339815191528352600f6020528383203360005260205260ff84600020541680156108a8575b15610870575061086b600183946000805160206120038339815191526102f59552600f60205285200154611bd3565b611d13565b606490602085519162461bcd60e51b835282015260126024820152713737ba1027bbb732b91037b91020b236b4b760711b6044820152fd5b506108b1611927565b61083c565b50346102b75760203660031901126102b7578135916108d6610238611927565b60648310156109115750816020917f21a8eefc17e9c864964b5a4c0769d87f39cc0a7576773159e12358bc0095ffc59360055551908152a180f35b9051630cd8d79760e31b8152fd5b5090346102b757816003193601126102b7576001600160401b039181358381116104ab57610950903690840161170d565b90602493602435908111610a645761096b903690850161170d565b9261097b60ff600c541615611773565b825115610a56578251845103610a4857855b8351811015610a44576006546001600160a01b03908116906109af83876118fd565b51855192839163020604bf60e21b835286830152818a60209586935afa928315610a3a579160019493916109ee938c93610a1b575b5050163014611829565b610a15610a106109fe83886118fd565b51610a09848a6118fd565b51906119d9565b61186f565b0161098d565b610a32929350803d106104f1576104e281836116ec565b9038806109e4565b86513d8c823e3d90fd5b8680f35b90516349552d5960e11b8152fd5b905163df95788360e01b8152fd5b8580fd5b83823461036a578160031936011261036a57602090516000805160206120438339815191528152f35b50346102b75760203660031901126102b757610aab61165d565b91610248610238611927565b83346107ed57806003193601126107ed57610ad3610238611927565b6102f533611e8e565b83823461036a57602036600319011261036a576102f5906102886001610b0061165d565b92610b0c610238611927565b6000805160206120438339815191528652600f60205285200154611bd3565b5090346102b75760203660031901126102b757610b4661165d565b91610b52610238611927565b336001600160a01b03841603610b6c57836102f584611e06565b5163334bd91960e11b8152fd5b83823461036a578160031936011261036a5760ff602092541690519015158152f35b83823461036a578160031936011261036a5760075490516001600160a01b039091168152602090f35b83823461036a578160031936011261036a5760209060ff600c541690519015158152f35b83823461036a57602036600319011261036a5760209160ff9082906001600160a01b03610c1361165d565b1681526002855220541690519015158152f35b5090346102b75760203660031901126102b7573563ffffffff60e01b81168091036102b757825260036020908152918190205490516001600160a01b039091168152f35b83823461036a578160031936011261036a57602090600b549051908152f35b83346107ed57806003193601126107ed57610ca5610238611927565b600c54610cb560ff821615611773565b60ff1916600c5580f35b83823461036a578160031936011261036a57602090516000805160206120038339815191528152f35b83823461036a578160031936011261036a5760085490516001600160a01b039091168152602090f35b5082903461036a578060031936011261036a57610d2c611673565b90336001600160a01b03831603610d4957506102f5919235611f7d565b5163334bd91960e11b81528390fd5b5090346102b75760a03660031901126102b757610d7361165d565b610d7b611673565b916001600160a01b0360643581811693919260443591859003610eed5760843596848816809803610eed5760ff600c5460081c16610eb4576064831015610e65575050610dc733611c17565b506005558160018060a01b03199416846006541617600655168260075416176007558160085416176008556009541617600955610e05600a54611689565b601f8111610e26575b506000600a5561010061ff0019600c541617600c5580f35b600a600052610e5f90601f0160051c7fc65a7bb8d6351c1cf70c95a316cc6a92839c986682d98bc35f958f4883f9d2a8908101906118b8565b38610e0e565b906020608492519162461bcd60e51b83528201526024808201527f646973636f756e742072617465206d757374206265206c657373207468616e206044820152633130302560e01b6064820152fd5b906020606492519162461bcd60e51b83528201526013602482015272185b1c9958591e481a5b9a5d1a585b1a5e9959606a1b6044820152fd5b600080fd5b83823461036a578160031936011261036a57805182600a5482610f1482611689565b958682526020968793600190600181169081600014610fcc5750600114610f8e575b5050610f4892509593929503826116ec565b82519382859384528251928382860152825b848110610f7857505050828201840152601f01601f19168101030190f35b8181018301518882018801528795508201610f5a565b600a86528486209492508591905b818310610fb4575088945050820101610f4888610f36565b85548884018501529485019487945091830191610f9c565b915050610f4894925060ff191682840152151560051b820101869288610f36565b50346102b757806003193601126102b7576102f5913561101060016102de611673565b611d9d565b50346102b757806003193601126102b75781359161103860ff600c541615611773565b600654825163020604bf60e21b81529182018490526001600160a01b0391906020908290602490829086165afa9283156110b45750610a1092610297949261108a928792611093575b50163014611829565b602435906119d9565b6110ad91925060203d6020116104f1576104e281836116ec565b9038611081565b513d86823e3d90fd5b83823461036a578160031936011261036a5751676765c793fa10079d601b1b8152602090f35b50503461036a57602036600319011261036a57611101610238611927565b3560055580f35b83823461036a57602036600319011261036a576020918161112761165d565b916000805160206120438339815191528152600f8552209060018060a01b0316600052825260ff81600020541690519015158152f35b5090346102b75760203660031901126102b75781602093600192358152600f85522001549051908152f35b83346107ed5760203660031901126107ed576102976111a561165d565b6111b0610238611927565b6118cf565b83823461036a578160031936011261036a576020906005549051908152f35b83823461036a578160031936011261036a576020905160648152f35b5090346102b757816003193601126102b75780359060243580151581036104ab5761122060ff600c541615611773565b6002600d5414611615576002600d55331561160657828552602082815260ff6002868820015416156115f657838652828152600185872001549283156115e857848752808252858720546001600160a01b039081169384156115d857843314806115d0575b61158c57889291901561140d57806008541684895180926323b872dd60e01b82528187816112b78d8d338c85016119b7565b03925af180156113d6576113e0575b505b868352818452878320600201805460ff191690556006548116803b156105115783809160448b5180948193634d723a7560e01b83528d898401528160248401525af19081156113d65784916113c2575b505060065416803b156102b75786839161134993838b518096819582946323b872dd60e01b84528c339185016119b7565b03925af180156113b85761139c575b507f429a311c86d807d248190c8540973d38711c40cabad4c6266ef4b9a7ae6cdc3c60808686868a87815194855233908501528301526060820152a16001600d5580f35b6113aa9095949392956116c3565b610a64579091928538611358565b87513d84823e3d90fd5b6113cb906116c3565b6102b7578238611318565b89513d86823e3d90fd5b6113ff90853d8711611406575b6113f781836116ec565b81019061199f565b50386112c6565b503d6113ed565b909150676765c793fa10079d601b1b611428600b5487611976565b04606461143760055483611976565b04810180911161157957908892918385611478846009541685600754168d51948580948193633b9aca006323b872dd60e01b9a8b85520490338d85016119b7565b03925af1801561156f57611552575b50816007541680870361149c575b50506112c8565b8094919293943b1561036a57819060248b518094819363081cb0a960e31b83528c8a8401525af180156115485761152b575b50908584868b95948b878660085416926114f9886007541693519788968795869485528c85016119b7565b03925af180156113d65761150e575b80611495565b61152490853d8711611406576113f781836116ec565b5038611508565b84869a61153c8993969594966116c3565b9a5050929091926114ce565b89513d8c823e3d90fd5b61156890863d8811611406576113f781836116ec565b5038611487565b8a513d87823e3d90fd5b634e487b7160e01b895260118352602489fd5b875163b06bd67960e01b8152808401859052601d60248201527f5573652052656d6f766547656d46726f6d4c69737420696e73746561640000006044820152606490fd5b506001611285565b8751630bcca81960e41b81528390fd5b855163f7760f2560e01b8152fd5b84516374f0c4bb60e11b81528390fd5b508251639fabe1c160e01b8152fd5b508251633ee5aeb560e01b8152fd5b849084346102b75760203660031901126102b75735916001600160e01b0319831683036107ed575061165760209261194a565b15158152f35b600435906001600160a01b0382168203610eed57565b602435906001600160a01b0382168203610eed57565b90600182811c921680156116b9575b60208310146116a357565b634e487b7160e01b600052602260045260246000fd5b91607f1691611698565b6001600160401b0381116116d657604052565b634e487b7160e01b600052604160045260246000fd5b90601f801991011681019081106001600160401b038211176116d657604052565b81601f82011215610eed578035916020916001600160401b0384116116d6578360051b9060405194611741858401876116ec565b85528380860192820101928311610eed578301905b828210611764575050505090565b81358152908301908301611756565b1561177a57565b60405162461bcd60e51b815260206004820152601060248201526f14185d5cd8589b194e881c185d5cd95960821b6044820152606490fd5b156117b957565b60405162461bcd60e51b8152602060048201526024808201527f41757468436f6e74726f6c3a2043616c6c6572206973206e6f7420746865206f6044820152633bb732b960e11b6064820152608490fd5b90816020910312610eed57516001600160a01b0381168103610eed5790565b1561183057565b60405162461bcd60e51b81526020600482015260176024820152761d1a1948139195081a5cc81b9bdd08185c1c1c9bdd9959604a1b6044820152606490fd5b1561187657565b60405162461bcd60e51b815260206004820152601a6024820152796661696c656420746f207075742067656d20666f722073616c6560301b6044820152606490fd5b8181106118c3575050565b600081556001016118b8565b336001600160a01b038216036118eb576118e890611ef5565b50565b60405163334bd91960e11b8152600490fd5b80518210156119115760209160051b010190565b634e487b7160e01b600052603260045260246000fd5b336000908152600080516020612023833981519152602052604090205460ff1690565b6001600160e01b03198116637965db0b60e01b14908115611969575090565b611973915061194a565b90565b8181029291811591840414171561198957565b634e487b7160e01b600052601160045260246000fd5b90816020910312610eed57518015158103610eed5790565b6001600160a01b03918216815291166020820152604081019190915260600190565b90600654600060018060a01b038092166040928351926331a9108f60e11b845260049287848601526020948581602481855afa908115611b8c578391611bb6575b508333911603611ba6578615611b9657855163276a28a360e01b81528481018990528581602481855afa908115611b8c57906001918491611b6f575b50151514611b5f57803b1561036a578180916044885180948193634d723a7560e01b83528d8a840152600160248401525af18015611b5557611b46575b50845191606083018381106001600160401b03821117611b31579286949260029260609997957f8b8052dfcc72d6fc28cd795f60661e1a701f185ce78c06a47b2ac29357d6ef8b9b9952338352868684019289845281850196600188528b825288522092511660018060a01b0319835416178255516001820155019051151560ff8019835416911617905581519384523390840152820152a1600190565b604185634e487b7160e01b6000525260246000fd5b611b4f906116c3565b38611a93565b86513d84823e3d90fd5b855163e970f37f60e01b81528490fd5b611b869150873d8911611406576113f781836116ec565b38611a56565b87513d85823e3d90fd5b855163f7760f2560e01b81528490fd5b85516302b327b560e41b81528490fd5b611bcd9150863d88116104f1576104e281836116ec565b38611a1a565b80600052600f60205260406000203360005260205260ff6040600020541615611bf95750565b6044906040519063e2517d3f60e01b82523360048301526024820152fd5b6001600160a01b03166000818152600080516020612023833981519152602052604081205490919060ff16611c8057818052600f6020526040822081835260205260408220600160ff198254161790553391600080516020611fe38339815191528180a4600190565b5090565b6001600160a01b031660008181527f48945d08a6a6e5df37ff861c962b26039579993152870f09872fc65034c7b28360205260408120549091906000805160206120438339815191529060ff16611d0e57808352600f6020526040832082845260205260408320600160ff19825416179055600080516020611fe3833981519152339380a4600190565b505090565b6001600160a01b031660008181527f1c0b7cc895cf67c0593b21ab9c9bc1437f3001b48850a811952c6b906093b58b60205260408120549091906000805160206120038339815191529060ff16611d0e57808352600f6020526040832082845260205260408320600160ff19825416179055600080516020611fe3833981519152339380a4600190565b90600091808352600f602052604083209160018060a01b03169182845260205260ff60408420541615600014611d0e57808352600f6020526040832082845260205260408320600160ff19825416179055600080516020611fe3833981519152339380a4600190565b6001600160a01b031660008181527f1c0b7cc895cf67c0593b21ab9c9bc1437f3001b48850a811952c6b906093b58b60205260408120549091906000805160206120038339815191529060ff1615611d0e57808352600f602052604083208284526020526040832060ff198154169055600080516020612063833981519152339380a4600190565b6001600160a01b03166000818152600080516020612023833981519152602052604081205490919060ff1615611c8057818052600f602052604082208183526020526040822060ff19815416905533916000805160206120638339815191528180a4600190565b6001600160a01b031660008181527f48945d08a6a6e5df37ff861c962b26039579993152870f09872fc65034c7b28360205260408120549091906000805160206120438339815191529060ff1615611d0e57808352600f602052604083208284526020526040832060ff198154169055600080516020612063833981519152339380a4600190565b90600091808352600f602052604083209160018060a01b03169182845260205260ff604084205416600014611d0e57808352600f602052604083208284526020526040832060ff198154169055600080516020612063833981519152339380a460019056fe2f8788117e7eff1d82e926ec794901d17c78024a50270940304540a733656f0dfcb9fcbfa83b897fb2d5cf4b58962164105c1e71489a37ef3ae0db3fdce576f6f4803e074bd026baaf6ed2e288c9515f68c72fb7216eebdd7cae1718a53ec375df8b4c520ffe197c5343c6f5aec59570151ef9a492f2c624fd45ddde6135ec42f6391f5c32d9c69d2a47ea670b442974b53935d1edc7fd64eb21e047a839171ba26469706673582212209d00d5b635ccb4077705c4541995386da49152633cc6ca6dce018a79516ecb3c64736f6c63430008190033",
  "linkReferences": {},
  "deployedLinkReferences": {}
}