{
  "_format": "hh-sol-artifact-1",
  "contractName": "MarketPlace",
  "sourceName": "src/L2/MarketPlace.sol",
  "abi": [
    {
      "inputs": [],
      "stateMutability": "nonpayable",
      "type": "constructor"
    },
    {
      "inputs": [
        {
          "internalType": "address",
          "name": "target",
          "type": "address"
        }
      ],
      "name": "AddressEmptyCode",
      "type": "error"
    },
    {
      "inputs": [
        {
          "internalType": "address",
          "name": "account",
          "type": "address"
        }
      ],
      "name": "AddressInsufficientBalance",
      "type": "error"
    },
    {
      "inputs": [],
      "name": "FailedInnerCall",
      "type": "error"
    },
    {
      "inputs": [
        {
          "internalType": "address",
          "name": "owner",
          "type": "address"
        }
      ],
      "name": "OwnableInvalidOwner",
      "type": "error"
    },
    {
      "inputs": [
        {
          "internalType": "address",
          "name": "account",
          "type": "address"
        }
      ],
      "name": "OwnableUnauthorizedAccount",
      "type": "error"
    },
    {
      "inputs": [],
      "name": "ReentrancyGuardReentrantCall",
      "type": "error"
    },
    {
      "inputs": [
        {
          "internalType": "address",
          "name": "token",
          "type": "address"
        }
      ],
      "name": "SafeERC20FailedOperation",
      "type": "error"
    },
    {
      "anonymous": false,
      "inputs": [
        {
          "indexed": false,
          "internalType": "uint256",
          "name": "tokenId",
          "type": "uint256"
        },
        {
          "indexed": false,
          "internalType": "address",
          "name": "payer",
          "type": "address"
        },
        {
          "indexed": false,
          "internalType": "address",
          "name": "seller",
          "type": "address"
        },
        {
          "indexed": false,
          "internalType": "uint256",
          "name": "amount",
          "type": "uint256"
        }
      ],
      "name": "GemBought",
      "type": "event"
    },
    {
      "anonymous": false,
      "inputs": [
        {
          "indexed": false,
          "internalType": "uint256",
          "name": "tokenId",
          "type": "uint256"
        },
        {
          "indexed": false,
          "internalType": "address",
          "name": "seller",
          "type": "address"
        },
        {
          "indexed": false,
          "internalType": "uint256",
          "name": "price",
          "type": "uint256"
        }
      ],
      "name": "GemForSale",
      "type": "event"
    },
    {
      "anonymous": false,
      "inputs": [
        {
          "indexed": true,
          "internalType": "address",
          "name": "previousOwner",
          "type": "address"
        },
        {
          "indexed": true,
          "internalType": "address",
          "name": "newOwner",
          "type": "address"
        }
      ],
      "name": "OwnershipTransferred",
      "type": "event"
    },
    {
      "anonymous": false,
      "inputs": [
        {
          "indexed": false,
          "internalType": "uint256",
          "name": "discountRate",
          "type": "uint256"
        }
      ],
      "name": "SetDiscountRate",
      "type": "event"
    },
    {
      "anonymous": false,
      "inputs": [
        {
          "indexed": false,
          "internalType": "uint256",
          "name": "tokenId",
          "type": "uint256"
        },
        {
          "indexed": false,
          "internalType": "address",
          "name": "claimer",
          "type": "address"
        }
      ],
      "name": "WSTONClaimed",
      "type": "event"
    },
    {
      "inputs": [],
      "name": "DECIMALS",
      "outputs": [
        {
          "internalType": "uint256",
          "name": "",
          "type": "uint256"
        }
      ],
      "stateMutability": "view",
      "type": "function"
    },
    {
      "inputs": [],
      "name": "TON_FEES_RATE_DIVIDER",
      "outputs": [
        {
          "internalType": "uint256",
          "name": "",
          "type": "uint256"
        }
      ],
      "stateMutability": "view",
      "type": "function"
    },
    {
      "inputs": [],
      "name": "_treasury",
      "outputs": [
        {
          "internalType": "address",
          "name": "",
          "type": "address"
        }
      ],
      "stateMutability": "view",
      "type": "function"
    },
    {
      "inputs": [
        {
          "internalType": "uint256",
          "name": "_tokenId",
          "type": "uint256"
        },
        {
          "internalType": "bool",
          "name": "_paymentMethod",
          "type": "bool"
        }
      ],
      "name": "buyGem",
      "outputs": [],
      "stateMutability": "nonpayable",
      "type": "function"
    },
    {
      "inputs": [],
      "name": "gemFactory",
      "outputs": [
        {
          "internalType": "address",
          "name": "",
          "type": "address"
        }
      ],
      "stateMutability": "view",
      "type": "function"
    },
    {
      "inputs": [
        {
          "internalType": "uint256",
          "name": "",
          "type": "uint256"
        }
      ],
      "name": "gemsForSale",
      "outputs": [
        {
          "internalType": "address",
          "name": "seller",
          "type": "address"
        },
        {
          "internalType": "uint256",
          "name": "price",
          "type": "uint256"
        },
        {
          "internalType": "bool",
          "name": "isActive",
          "type": "bool"
        }
      ],
      "stateMutability": "view",
      "type": "function"
    },
    {
      "inputs": [],
      "name": "getGemFactory",
      "outputs": [
        {
          "internalType": "address",
          "name": "",
          "type": "address"
        }
      ],
      "stateMutability": "view",
      "type": "function"
    },
    {
      "inputs": [],
      "name": "getStakingIndex",
      "outputs": [
        {
          "internalType": "uint256",
          "name": "",
          "type": "uint256"
        }
      ],
      "stateMutability": "view",
      "type": "function"
    },
    {
      "inputs": [],
      "name": "getTonFeesRate",
      "outputs": [
        {
          "internalType": "uint256",
          "name": "",
          "type": "uint256"
        }
      ],
      "stateMutability": "view",
      "type": "function"
    },
    {
      "inputs": [
        {
          "internalType": "address",
          "name": "treasury",
          "type": "address"
        },
        {
          "internalType": "address",
          "name": "_gemfactory",
          "type": "address"
        },
        {
          "internalType": "uint256",
          "name": "_tonFeesRate",
          "type": "uint256"
        },
        {
          "internalType": "address",
          "name": "_wston",
          "type": "address"
        },
        {
          "internalType": "address",
          "name": "_ton",
          "type": "address"
        }
      ],
      "name": "initialize",
      "outputs": [],
      "stateMutability": "nonpayable",
      "type": "function"
    },
    {
      "inputs": [],
      "name": "owner",
      "outputs": [
        {
          "internalType": "address",
          "name": "",
          "type": "address"
        }
      ],
      "stateMutability": "view",
      "type": "function"
    },
    {
      "inputs": [],
      "name": "paused",
      "outputs": [
        {
          "internalType": "bool",
          "name": "",
          "type": "bool"
        }
      ],
      "stateMutability": "view",
      "type": "function"
    },
    {
      "inputs": [
        {
          "internalType": "uint256",
          "name": "_tokenId",
          "type": "uint256"
        },
        {
          "internalType": "uint256",
          "name": "_price",
          "type": "uint256"
        }
      ],
      "name": "putGemForSale",
      "outputs": [],
      "stateMutability": "nonpayable",
      "type": "function"
    },
    {
      "inputs": [
        {
          "internalType": "uint256[]",
          "name": "tokenIds",
          "type": "uint256[]"
        },
        {
          "internalType": "uint256[]",
          "name": "prices",
          "type": "uint256[]"
        }
      ],
      "name": "putGemListForSale",
      "outputs": [],
      "stateMutability": "nonpayable",
      "type": "function"
    },
    {
      "inputs": [],
      "name": "renounceOwnership",
      "outputs": [],
      "stateMutability": "nonpayable",
      "type": "function"
    },
    {
      "inputs": [
        {
          "internalType": "uint256",
          "name": "_tonFeesRate",
          "type": "uint256"
        }
      ],
      "name": "setDiscountRate",
      "outputs": [],
      "stateMutability": "nonpayable",
      "type": "function"
    },
    {
      "inputs": [
        {
          "internalType": "uint256",
          "name": "_stakingIndex",
          "type": "uint256"
        }
      ],
      "name": "setStakingIndex",
      "outputs": [],
      "stateMutability": "nonpayable",
      "type": "function"
    },
    {
      "inputs": [],
      "name": "stakingIndex",
      "outputs": [
        {
          "internalType": "uint256",
          "name": "",
          "type": "uint256"
        }
      ],
      "stateMutability": "view",
      "type": "function"
    },
    {
      "inputs": [],
      "name": "tonFeesRate",
      "outputs": [
        {
          "internalType": "uint256",
          "name": "",
          "type": "uint256"
        }
      ],
      "stateMutability": "view",
      "type": "function"
    },
    {
      "inputs": [],
      "name": "ton_",
      "outputs": [
        {
          "internalType": "address",
          "name": "",
          "type": "address"
        }
      ],
      "stateMutability": "view",
      "type": "function"
    },
    {
      "inputs": [
        {
          "internalType": "address",
          "name": "newOwner",
          "type": "address"
        }
      ],
      "name": "transferOwnership",
      "outputs": [],
      "stateMutability": "nonpayable",
      "type": "function"
    },
    {
      "inputs": [],
      "name": "wston_",
      "outputs": [
        {
          "internalType": "address",
          "name": "",
          "type": "address"
        }
      ],
      "stateMutability": "view",
      "type": "function"
    }
  ],
  "bytecode": "0x60808060405234608c57600160065560ff19600754166007556001600855331560765760098054336001600160a01b03198216811790925560405191906001600160a01b03167f8be0079c531659141344cd1fd0a4f28419497f9722a3daafe3b4186f6b6457e0600080a361105090816100928239f35b631e4fbdf760e01b815260006004820152602490fd5b600080fdfe6040608081526004908136101561001557600080fd5b600091823560e01c806302424ed31461067957806308ec897d1461065d57806312788619146102a35780632e0f2625146106375780632ede64321461060157806330f508591461054d57806333e1a2231461056c5780635074e0c81461054d5780635c975abb14610529578063715018a6146104c857806379dbd798146103b65780637c69febd1461035d5780638d609841146103365780638da5cb5b1461030d5780639c41b42b146102c2578063a53225c0146101a0578063a69c8fb2146102a3578063ce49a3601461021f578063e319a3d9146101f6578063e8dea5e8146101cd578063f00fe4fd146101a05763f2fde38b1461011357600080fd5b3461019c57602036600319011261019c5761012c610985565b90610135610e8e565b6001600160a01b03918216928315610186575050600980546001600160a01b031981168417909155167f8be0079c531659141344cd1fd0a4f28419497f9722a3daafe3b4186f6b6457e0600080a380f35b51631e4fbdf760e01b8152908101849052602490fd5b8280fd5b5050346101c957816003193601126101c95760025490516001600160a01b039091168152602090f35b5080fd5b5050346101c957816003193601126101c95760055490516001600160a01b039091168152602090f35b5050346101c957816003193601126101c95760035490516001600160a01b039091168152602090f35b50903461019c57602036600319011261019c5761023a610e8e565b60016006541061024c57503560065580f35b906020608492519162461bcd60e51b8352820152602b60248201527f7374616b696e6720696e646578206d7573742062652067726561746572206f7260448201526a20657175616c20746f203160a81b6064820152fd5b5050346101c957816003193601126101c9576020906001549051908152f35b503461019c57602036600319011261019c57606092829135815280602052209060018060a01b038254169160ff60026001830154920154169082519384526020840152151590820152f35b5050346101c957816003193601126101c95760095490516001600160a01b039091168152602090f35b503461019c578260031936011261019c575490516001600160a01b03909116815260209150f35b503461019c57602036600319011261019c577f21a8eefc17e9c864964b5a4c0769d87f39cc0a7576773159e12358bc0095ffc591602091359061039e610e8e565b6103aa60648310610ad3565b8160015551908152a180f35b508290346101c957826003193601126101c9576001600160401b039080358281116104c4576103e890369083016109e5565b916024359081116104c45761040090369083016109e5565b9361041060ff6007541615610a4b565b825115610495578251855103610463575050815b815181101561045f578061045961045461044060019486610b2b565b51339061044d858a610b2b565b5190610bb8565b610a8a565b01610424565b8280f35b906020606492519162461bcd60e51b8352820152600c60248201526b0eee4dedcce40d8cadccee8d60a31b6044820152fd5b906020606492519162461bcd60e51b835282015260096024820152686e6f20746f6b656e7360b81b6044820152fd5b8380fd5b83346105265780600319360112610526576104e1610e8e565b600980546001600160a01b031981169091556000906001600160a01b03167f8be0079c531659141344cd1fd0a4f28419497f9722a3daafe3b4186f6b6457e08280a380f35b80fd5b5050346101c957816003193601126101c95760209060ff6007541690519015158152f35b5050346101c957816003193601126101c9576020906006549051908152f35b8382346101c95760a03660031901126101c957610587610985565b6001600160a01b039160243583811692908390036105fc5760443593606435918183168093036105fc57608435958287168097036105fc576105cb60648210610ad3565b60015560018060a01b0319948560025416176002551683600354161760035582825416179055600554161760055580f35b600080fd5b50903461019c573660031901126101c9576104546106349161062860ff6007541615610a4b565b33906024359035610bb8565b80f35b5050346101c957816003193601126101c95751676765c793fa10079d601b1b8152602090f35b5050346101c957816003193601126101c9576020905160648152f35b503461019c578160031936011261019c578035906024803590811515820361080b576106aa60ff6007541615610a4b565b6002928360085414610977578360085533156109475784875260209187835260ff85888a200154161561091857858852878352600187892001549485156108e957868952888452878920546001600160a01b039081169590929086156108b8578a91901561083a5761072188883387895416610eba565b8882528186528982208301805460ff191690558254841690813b1561019c5760448a8480948e519687958694634d723a7560e01b86528c8601528401525af1801561083057610819575b505488929116803b1561019c5786839161079c93838b518096819582946323b872dd60e01b84528c33918501610b7e565b03925af1801561080f576107ef575b507f429a311c86d807d248190c8540973d38711c40cabad4c6266ef4b9a7ae6cdc3c60808686868a87815194855233908501528301526060820152a1600160085580f35b6107fd90959493929561099b565b61080b5790919285386107ab565b8580fd5b87513d84823e3d90fd5b61082790999193929961099b565b9790913861076b565b89513d8c823e3d90fd5b9050676765c793fa10079d601b1b61085460065489610b55565b04606461086360015483610b55565b0481018091116108a6579061088d8b92633b9aca0086600554169104908660035416903390610eba565b6108a1888886885416876003541690610eba565b610721565b50634e487b7160e01b8a526011845289fd5b895162461bcd60e51b8152808601879052600c818401526b3bb937b7339039b2b63632b960a11b6044820152606490fd5b50600b9060649388519362461bcd60e51b85528401528201526a77726f6e6720707269636560a81b6044820152fd5b600c9060649388519362461bcd60e51b85528401528201526b6e6f7420666f722073616c6560a01b6044820152fd5b600c606492602088519362461bcd60e51b85528401528201526b7a65726f206164647265737360a01b6044820152fd5b8551633ee5aeb560e01b8152fd5b600435906001600160a01b03821682036105fc57565b6001600160401b0381116109ae57604052565b634e487b7160e01b600052604160045260246000fd5b90601f801991011681019081106001600160401b038211176109ae57604052565b81601f820112156105fc578035916020916001600160401b0384116109ae578360051b9060405194610a19858401876109c4565b855283808601928201019283116105fc578301905b828210610a3c575050505090565b81358152908301908301610a2e565b15610a5257565b60405162461bcd60e51b815260206004820152601060248201526f14185d5cd8589b194e881c185d5cd95960821b6044820152606490fd5b15610a9157565b60405162461bcd60e51b815260206004820152601a6024820152796661696c656420746f207075742067656d20666f722073616c6560301b6044820152606490fd5b15610ada57565b60405162461bcd60e51b8152602060048201526024808201527f646973636f756e742072617465206d757374206265206c657373207468616e206044820152633130302560e01b6064820152608490fd5b8051821015610b3f5760209160051b010190565b634e487b7160e01b600052603260045260246000fd5b81810292918115918404141715610b6857565b634e487b7160e01b600052601160045260246000fd5b6001600160a01b03918216815291166020820152604081019190915260600190565b908160209103126105fc575180151581036105fc5790565b600254604080516331a9108f60e11b81526004808201859052939591936001600160a01b03936020936000936024939287169186828681865afa918215610dc6579088949392918792610e4f575b5084169788911603610e12578815610dd057875163276a28a360e01b81528281018b905286818681855afa908115610dc6578691610d99575b50610d4d57803b15610d495784809160448c8b519485938492634d723a7560e01b84528884015260018a8401525af18015610d3f57610d2c575b5086519260608401918483106001600160401b03841117610d195750508694926060989694926002927f8b8052dfcc72d6fc28cd795f60661e1a701f185ce78c06a47b2ac29357d6ef8b9b9952858252848201908882528780840195600187528b81528088522092511660018060a01b0319835416178255516001820155019051151560ff801983541691161790558251948552840152820152a1600190565b604190634e487b7160e01b600052526000fd5b610d389094919461099b565b9238610c79565b88513d87823e3d90fd5b8480fd5b875162461bcd60e51b81528083018790526021818601527f47656d20697320616c726561647920666f722073616c65206f72206d696e696e6044820152606760f81b6064820152608490fd5b610db99150873d8911610dbf575b610db181836109c4565b810190610ba0565b38610c3f565b503d610da7565b89513d88823e3d90fd5b875162461bcd60e51b8152808301879052601f818601527f5072696365206d7573742062652067726561746572207468616e207a65726f006044820152606490fd5b875162461bcd60e51b8152808301879052601881860152774e6f7420746865206f776e6572206f66207468652047454d60401b6044820152606490fd5b888092949596508193503d8311610e87575b610e6b81836109c4565b8101031261080b5751878116810361080b578793929184610c06565b503d610e61565b6009546001600160a01b03163303610ea257565b60405163118cdaa760e01b8152336004820152602490fd5b939291610ede60405193849260208401946323b872dd60e01b865260248501610b7e565b0393610ef2601f19958681018552846109c4565b60018060a01b031691600080928192519082865af13d15610fa6573d946001600160401b038611610f9257610f49939495610f38602060405193601f84011601836109c4565b8152809260203d92013e5b83610fb7565b8051908115159182610f77575b5050610f5f5750565b60249060405190635274afe760e01b82526004820152fd5b610f8a9250602080918301019101610ba0565b153880610f56565b634e487b7160e01b83526041600452602483fd5b9050610f4991929350606090610f43565b90610fde5750805115610fcc57805190602001fd5b604051630a12f52160e11b8152600490fd5b81511580611011575b610fef575090565b604051639996b31560e01b81526001600160a01b039091166004820152602490fd5b50803b15610fe756fea2646970667358221220235a21151700de5c83d708faf309fac911d25d1fdd3497dd01c72308165a47ce64736f6c63430008190033",
  "linkReferences": {},
  "deployedLinkReferences": {}
}