{
  "_format": "hh-sol-artifact-1",
  "contractName": "MarketPlace",
  "sourceName": "src/L2/MarketPlace.sol",
  "abi": [
    {
      "inputs": [],
      "stateMutability": "nonpayable",
      "type": "constructor"
    },
    {
      "inputs": [
        {
          "internalType": "address",
          "name": "target",
          "type": "address"
        }
      ],
      "name": "AddressEmptyCode",
      "type": "error"
    },
    {
      "inputs": [
        {
          "internalType": "address",
          "name": "account",
          "type": "address"
        }
      ],
      "name": "AddressInsufficientBalance",
      "type": "error"
    },
    {
      "inputs": [],
      "name": "FailedInnerCall",
      "type": "error"
    },
    {
      "inputs": [
        {
          "internalType": "address",
          "name": "owner",
          "type": "address"
        }
      ],
      "name": "OwnableInvalidOwner",
      "type": "error"
    },
    {
      "inputs": [
        {
          "internalType": "address",
          "name": "account",
          "type": "address"
        }
      ],
      "name": "OwnableUnauthorizedAccount",
      "type": "error"
    },
    {
      "inputs": [],
      "name": "ReentrancyGuardReentrantCall",
      "type": "error"
    },
    {
      "inputs": [
        {
          "internalType": "address",
          "name": "token",
          "type": "address"
        }
      ],
      "name": "SafeERC20FailedOperation",
      "type": "error"
    },
    {
      "anonymous": false,
      "inputs": [
        {
          "indexed": false,
          "internalType": "uint256",
          "name": "tokenId",
          "type": "uint256"
        },
        {
          "indexed": false,
          "internalType": "address",
          "name": "payer",
          "type": "address"
        },
        {
          "indexed": false,
          "internalType": "address",
          "name": "seller",
          "type": "address"
        },
        {
          "indexed": false,
          "internalType": "uint256",
          "name": "amount",
          "type": "uint256"
        }
      ],
      "name": "GemBought",
      "type": "event"
    },
    {
      "anonymous": false,
      "inputs": [
        {
          "indexed": false,
          "internalType": "uint256",
          "name": "tokenId",
          "type": "uint256"
        },
        {
          "indexed": false,
          "internalType": "address",
          "name": "seller",
          "type": "address"
        },
        {
          "indexed": false,
          "internalType": "uint256",
          "name": "price",
          "type": "uint256"
        }
      ],
      "name": "GemForSale",
      "type": "event"
    },
    {
      "anonymous": false,
      "inputs": [
        {
          "indexed": false,
          "internalType": "uint256",
          "name": "tokenId",
          "type": "uint256"
        }
      ],
      "name": "GemRemovedFromSale",
      "type": "event"
    },
    {
      "anonymous": false,
      "inputs": [
        {
          "indexed": true,
          "internalType": "address",
          "name": "previousOwner",
          "type": "address"
        },
        {
          "indexed": true,
          "internalType": "address",
          "name": "newOwner",
          "type": "address"
        }
      ],
      "name": "OwnershipTransferred",
      "type": "event"
    },
    {
      "anonymous": false,
      "inputs": [
        {
          "indexed": false,
          "internalType": "uint256",
          "name": "discountRate",
          "type": "uint256"
        }
      ],
      "name": "SetDiscountRate",
      "type": "event"
    },
    {
      "anonymous": false,
      "inputs": [
        {
          "indexed": false,
          "internalType": "uint256",
          "name": "tokenId",
          "type": "uint256"
        },
        {
          "indexed": false,
          "internalType": "address",
          "name": "claimer",
          "type": "address"
        }
      ],
      "name": "WSTONClaimed",
      "type": "event"
    },
    {
      "inputs": [],
      "name": "DECIMALS",
      "outputs": [
        {
          "internalType": "uint256",
          "name": "",
          "type": "uint256"
        }
      ],
      "stateMutability": "view",
      "type": "function"
    },
    {
      "inputs": [],
      "name": "TON_FEES_RATE_DIVIDER",
      "outputs": [
        {
          "internalType": "uint256",
          "name": "",
          "type": "uint256"
        }
      ],
      "stateMutability": "view",
      "type": "function"
    },
    {
      "inputs": [],
      "name": "_treasury",
      "outputs": [
        {
          "internalType": "address",
          "name": "",
          "type": "address"
        }
      ],
      "stateMutability": "view",
      "type": "function"
    },
    {
      "inputs": [
        {
          "internalType": "uint256",
          "name": "_tokenId",
          "type": "uint256"
        },
        {
          "internalType": "bool",
          "name": "_paymentMethod",
          "type": "bool"
        }
      ],
      "name": "buyGem",
      "outputs": [],
      "stateMutability": "nonpayable",
      "type": "function"
    },
    {
      "inputs": [],
      "name": "gemFactory",
      "outputs": [
        {
          "internalType": "address",
          "name": "",
          "type": "address"
        }
      ],
      "stateMutability": "view",
      "type": "function"
    },
    {
      "inputs": [
        {
          "internalType": "uint256",
          "name": "",
          "type": "uint256"
        }
      ],
      "name": "gemsForSale",
      "outputs": [
        {
          "internalType": "address",
          "name": "seller",
          "type": "address"
        },
        {
          "internalType": "uint256",
          "name": "price",
          "type": "uint256"
        },
        {
          "internalType": "bool",
          "name": "isActive",
          "type": "bool"
        }
      ],
      "stateMutability": "view",
      "type": "function"
    },
    {
      "inputs": [],
      "name": "getGemFactory",
      "outputs": [
        {
          "internalType": "address",
          "name": "",
          "type": "address"
        }
      ],
      "stateMutability": "view",
      "type": "function"
    },
    {
      "inputs": [],
      "name": "getStakingIndex",
      "outputs": [
        {
          "internalType": "uint256",
          "name": "",
          "type": "uint256"
        }
      ],
      "stateMutability": "view",
      "type": "function"
    },
    {
      "inputs": [],
      "name": "getTonFeesRate",
      "outputs": [
        {
          "internalType": "uint256",
          "name": "",
          "type": "uint256"
        }
      ],
      "stateMutability": "view",
      "type": "function"
    },
    {
      "inputs": [
        {
          "internalType": "address",
          "name": "treasury",
          "type": "address"
        },
        {
          "internalType": "address",
          "name": "_gemfactory",
          "type": "address"
        },
        {
          "internalType": "uint256",
          "name": "_tonFeesRate",
          "type": "uint256"
        },
        {
          "internalType": "address",
          "name": "_wston",
          "type": "address"
        },
        {
          "internalType": "address",
          "name": "_ton",
          "type": "address"
        }
      ],
      "name": "initialize",
      "outputs": [],
      "stateMutability": "nonpayable",
      "type": "function"
    },
    {
      "inputs": [],
      "name": "owner",
      "outputs": [
        {
          "internalType": "address",
          "name": "",
          "type": "address"
        }
      ],
      "stateMutability": "view",
      "type": "function"
    },
    {
      "inputs": [],
      "name": "paused",
      "outputs": [
        {
          "internalType": "bool",
          "name": "",
          "type": "bool"
        }
      ],
      "stateMutability": "view",
      "type": "function"
    },
    {
      "inputs": [
        {
          "internalType": "uint256",
          "name": "_tokenId",
          "type": "uint256"
        },
        {
          "internalType": "uint256",
          "name": "_price",
          "type": "uint256"
        }
      ],
      "name": "putGemForSale",
      "outputs": [],
      "stateMutability": "nonpayable",
      "type": "function"
    },
    {
      "inputs": [
        {
          "internalType": "uint256[]",
          "name": "tokenIds",
          "type": "uint256[]"
        },
        {
          "internalType": "uint256[]",
          "name": "prices",
          "type": "uint256[]"
        }
      ],
      "name": "putGemListForSale",
      "outputs": [],
      "stateMutability": "nonpayable",
      "type": "function"
    },
    {
      "inputs": [
        {
          "internalType": "uint256",
          "name": "_tokenId",
          "type": "uint256"
        }
      ],
      "name": "removeGemForSale",
      "outputs": [],
      "stateMutability": "nonpayable",
      "type": "function"
    },
    {
      "inputs": [],
      "name": "renounceOwnership",
      "outputs": [],
      "stateMutability": "nonpayable",
      "type": "function"
    },
    {
      "inputs": [
        {
          "internalType": "uint256",
          "name": "_tonFeesRate",
          "type": "uint256"
        }
      ],
      "name": "setDiscountRate",
      "outputs": [],
      "stateMutability": "nonpayable",
      "type": "function"
    },
    {
      "inputs": [
        {
          "internalType": "uint256",
          "name": "_stakingIndex",
          "type": "uint256"
        }
      ],
      "name": "setStakingIndex",
      "outputs": [],
      "stateMutability": "nonpayable",
      "type": "function"
    },
    {
      "inputs": [],
      "name": "stakingIndex",
      "outputs": [
        {
          "internalType": "uint256",
          "name": "",
          "type": "uint256"
        }
      ],
      "stateMutability": "view",
      "type": "function"
    },
    {
      "inputs": [],
      "name": "tonFeesRate",
      "outputs": [
        {
          "internalType": "uint256",
          "name": "",
          "type": "uint256"
        }
      ],
      "stateMutability": "view",
      "type": "function"
    },
    {
      "inputs": [],
      "name": "ton_",
      "outputs": [
        {
          "internalType": "address",
          "name": "",
          "type": "address"
        }
      ],
      "stateMutability": "view",
      "type": "function"
    },
    {
      "inputs": [
        {
          "internalType": "address",
          "name": "newOwner",
          "type": "address"
        }
      ],
      "name": "transferOwnership",
      "outputs": [],
      "stateMutability": "nonpayable",
      "type": "function"
    },
    {
      "inputs": [],
      "name": "wston_",
      "outputs": [
        {
          "internalType": "address",
          "name": "",
          "type": "address"
        }
      ],
      "stateMutability": "view",
      "type": "function"
    }
  ],
  "bytecode": "0x60808060405234608c57600160065560ff19600754166007556001600855331560765760098054336001600160a01b03198216811790925560405191906001600160a01b03167f8be0079c531659141344cd1fd0a4f28419497f9722a3daafe3b4186f6b6457e0600080a36111e590816100928239f35b631e4fbdf760e01b815260006004820152602490fd5b600080fdfe6040608081526004908136101561001557600080fd5b600091823560e01c806302424ed31461080e57806308ec897d146107f257806312788619146104405780632e0f2625146107cc5780632ede64321461079857806330f50859146106e457806333e1a223146107035780635074e0c8146106e45780635c975abb146106c0578063715018a61461065f57806379dbd798146105535780637c69febd146104fa5780638d609841146104d35780638da5cb5b146104aa5780639c41b42b1461045f578063a53225c0146101ab578063a69c8fb214610440578063adad6926146102ae578063ce49a3601461022a578063e319a3d914610201578063e8dea5e8146101d8578063f00fe4fd146101ab5763f2fde38b1461011e57600080fd5b346101a75760203660031901126101a757610137610b1a565b90610140611023565b6001600160a01b03918216928315610191575050600980546001600160a01b031981168417909155167f8be0079c531659141344cd1fd0a4f28419497f9722a3daafe3b4186f6b6457e0600080a380f35b51631e4fbdf760e01b8152908101849052602490fd5b8280fd5b5050346101d457816003193601126101d45760025490516001600160a01b039091168152602090f35b5080fd5b5050346101d457816003193601126101d45760055490516001600160a01b039091168152602090f35b5050346101d457816003193601126101d45760035490516001600160a01b039091168152602090f35b5090346101a75760203660031901126101a757610245611023565b60016006541061025757503560065580f35b906020608492519162461bcd60e51b8352820152602b60248201527f7374616b696e6720696e646578206d7573742062652067726561746572206f7260448201526a20657175616c20746f203160a81b6064820152fd5b50346101a757602090816003193601126103c0578035906102d460ff6007541615610be0565b818552848352600160ff60028688200154161515036104075760025484516331a9108f60e11b815280830184905286926001600160a01b03928316929091908682602481875afa9081156103fd576103369286926103ce575b50163314610d09565b813b156101a75783604484928389519586948593634d723a7560e01b85528401528160248401525af180156103c4576103ac575b5092817f05e530d2932a31001c9cde048b350c93ce3ffea36cf640e4473b8da9e62ac1bb9452848352846002828220828155826001820155015551908152a180f35b6103b590610b30565b6103c057833861036a565b8380fd5b85513d84823e3d90fd5b6103ef919250883d8a116103f6575b6103e78183610b59565b810190610cea565b903861032d565b503d6103dd565b88513d87823e3d90fd5b835162461bcd60e51b8152908101839052601360248201527247656d206973206e6f7420666f722073616c6560681b6044820152606490fd5b5050346101d457816003193601126101d4576020906001549051908152f35b50346101a75760203660031901126101a757606092829135815280602052209060018060a01b038254169160ff60026001830154920154169082519384526020840152151590820152f35b5050346101d457816003193601126101d45760095490516001600160a01b039091168152602090f35b50346101a757826003193601126101a7575490516001600160a01b03909116815260209150f35b50346101a75760203660031901126101a7577f21a8eefc17e9c864964b5a4c0769d87f39cc0a7576773159e12358bc0095ffc591602091359061053b611023565b61054760648310610c68565b8160015551908152a180f35b508290346101d457826003193601126101d4576001600160401b039080358281116103c0576105859036908301610b7a565b916024359081116103c05761059d9036908301610b7a565b936105ad60ff6007541615610be0565b8251156106305782518551036105fe575050815b81518110156105fa57806105f46105ef6105dd60019486610cc0565b516105e88489610cc0565b5190610db3565b610c1f565b016105c1565b8280f35b906020606492519162461bcd60e51b8352820152600c60248201526b0eee4dedcce40d8cadccee8d60a31b6044820152fd5b906020606492519162461bcd60e51b835282015260096024820152686e6f20746f6b656e7360b81b6044820152fd5b83346106bd57806003193601126106bd57610678611023565b600980546001600160a01b031981169091556000906001600160a01b03167f8be0079c531659141344cd1fd0a4f28419497f9722a3daafe3b4186f6b6457e08280a380f35b80fd5b5050346101d457816003193601126101d45760209060ff6007541690519015158152f35b5050346101d457816003193601126101d4576020906006549051908152f35b8382346101d45760a03660031901126101d45761071e610b1a565b6001600160a01b0391602435838116929083900361079357604435936064359181831680930361079357608435958287168097036107935761076260648210610c68565b60015560018060a01b0319948560025416176002551683600354161760035582825416179055600554161760055580f35b600080fd5b5090346101a7573660031901126101d4576105ef6107c9916107bf60ff6007541615610be0565b6024359035610db3565b80f35b5050346101d457816003193601126101d45751676765c793fa10079d601b1b8152602090f35b5050346101d457816003193601126101d4576020905160648152f35b50346101a757816003193601126101a757803590602480359081151582036109a05761083f60ff6007541615610be0565b6002928360085414610b0c57836008553315610adc5784875260209187835260ff85888a2001541615610aad5785885287835260018789200154948515610a7e57868952888452878920546001600160a01b03908116959092908615610a4d578a9190156109cf576108b68888338789541661104f565b8882528186528982208301805460ff191690558254841690813b156101a75760448a8480948e519687958694634d723a7560e01b86528c8601528401525af180156109c5576109ae575b505488929116803b156101a75786839161093193838b518096819582946323b872dd60e01b84528c33918501610d79565b03925af180156109a457610984575b507f429a311c86d807d248190c8540973d38711c40cabad4c6266ef4b9a7ae6cdc3c60808686868a87815194855233908501528301526060820152a1600160085580f35b610992909594939295610b30565b6109a0579091928538610940565b8580fd5b87513d84823e3d90fd5b6109bc909991939299610b30565b97909138610900565b89513d8c823e3d90fd5b9050676765c793fa10079d601b1b6109e960065489610d50565b0460646109f860015483610d50565b048101809111610a3b5790610a228b92633b9aca008660055416910490866003541690339061104f565b610a3688888688541687600354169061104f565b6108b6565b50634e487b7160e01b8a526011845289fd5b895162461bcd60e51b8152808601879052600c818401526b3bb937b7339039b2b63632b960a11b6044820152606490fd5b50600b9060649388519362461bcd60e51b85528401528201526a77726f6e6720707269636560a81b6044820152fd5b600c9060649388519362461bcd60e51b85528401528201526b6e6f7420666f722073616c6560a01b6044820152fd5b600c606492602088519362461bcd60e51b85528401528201526b7a65726f206164647265737360a01b6044820152fd5b8551633ee5aeb560e01b8152fd5b600435906001600160a01b038216820361079357565b6001600160401b038111610b4357604052565b634e487b7160e01b600052604160045260246000fd5b90601f801991011681019081106001600160401b03821117610b4357604052565b81601f82011215610793578035916020916001600160401b038411610b43578360051b9060405194610bae85840187610b59565b85528380860192820101928311610793578301905b828210610bd1575050505090565b81358152908301908301610bc3565b15610be757565b60405162461bcd60e51b815260206004820152601060248201526f14185d5cd8589b194e881c185d5cd95960821b6044820152606490fd5b15610c2657565b60405162461bcd60e51b815260206004820152601a6024820152796661696c656420746f207075742067656d20666f722073616c6560301b6044820152606490fd5b15610c6f57565b60405162461bcd60e51b8152602060048201526024808201527f646973636f756e742072617465206d757374206265206c657373207468616e206044820152633130302560e01b6064820152608490fd5b8051821015610cd45760209160051b010190565b634e487b7160e01b600052603260045260246000fd5b9081602091031261079357516001600160a01b03811681036107935790565b15610d1057565b60405162461bcd60e51b81526020600482015260186024820152774e6f7420746865206f776e6572206f66207468652047454d60401b6044820152606490fd5b81810292918115918404141715610d6357565b634e487b7160e01b600052601160045260246000fd5b6001600160a01b03918216815291166020820152604081019190915260600190565b90816020910312610793575180151581036107935790565b90600254600060018060a01b03809216906040928351906331a9108f60e11b82526004878184015260209460249386818681855afa908115610fba5790610e05918791611006575b5084163314610d09565b8715610fc457865163276a28a360e01b81528281018a905286818681855afa908115610fba578691610f8d575b50610f4157803b15610f3d5784809160448b8a519485938492634d723a7560e01b84528884015260018a8401525af18015610f3357610f20575b5085519260608401918483106001600160401b03841117610f0d57505060609694928694926002927f8b8052dfcc72d6fc28cd795f60661e1a701f185ce78c06a47b2ac29357d6ef8b9a9852338252848201908782528680840195600187528a81528088522092511660018060a01b0319835416178255516001820155019051151560ff8019835416911617905581519384523390840152820152a1600190565b604190634e487b7160e01b600052526000fd5b610f2c90949194610b30565b9238610e6c565b87513d87823e3d90fd5b8480fd5b865162461bcd60e51b81528083018790526021818601527f47656d20697320616c726561647920666f722073616c65206f72206d696e696e6044820152606760f81b6064820152608490fd5b610fad9150873d8911610fb3575b610fa58183610b59565b810190610d9b565b38610e32565b503d610f9b565b88513d88823e3d90fd5b865162461bcd60e51b8152808301879052601f818601527f5072696365206d7573742062652067726561746572207468616e207a65726f006044820152606490fd5b61101d9150883d8a116103f6576103e78183610b59565b38610dfb565b6009546001600160a01b0316330361103757565b60405163118cdaa760e01b8152336004820152602490fd5b93929161107360405193849260208401946323b872dd60e01b865260248501610d79565b0393611087601f1995868101855284610b59565b60018060a01b031691600080928192519082865af13d1561113b573d946001600160401b038611611127576110de9394956110cd602060405193601f8401160183610b59565b8152809260203d92013e5b8361114c565b805190811515918261110c575b50506110f45750565b60249060405190635274afe760e01b82526004820152fd5b61111f9250602080918301019101610d9b565b1538806110eb565b634e487b7160e01b83526041600452602483fd5b90506110de919293506060906110d8565b90611173575080511561116157805190602001fd5b604051630a12f52160e11b8152600490fd5b815115806111a6575b611184575090565b604051639996b31560e01b81526001600160a01b039091166004820152602490fd5b50803b1561117c56fea2646970667358221220b8146c7ce7704df19f808a2d93fadbaaff7dfa43c89819e52c1a72863a4831bd64736f6c63430008190033",
  "linkReferences": {},
  "deployedLinkReferences": {}
}