{
  "_format": "hh-sol-artifact-1",
  "contractName": "MarketPlace",
  "sourceName": "src/L2/MarketPlace.sol",
  "abi": [
    {
      "inputs": [],
      "name": "AccessControlBadConfirmation",
      "type": "error"
    },
    {
      "inputs": [
        {
          "internalType": "address",
          "name": "account",
          "type": "address"
        },
        {
          "internalType": "bytes32",
          "name": "neededRole",
          "type": "bytes32"
        }
      ],
      "name": "AccessControlUnauthorizedAccount",
      "type": "error"
    },
    {
      "inputs": [],
      "name": "AddressZero",
      "type": "error"
    },
    {
      "inputs": [],
      "name": "AlreadyInitialized",
      "type": "error"
    },
    {
      "inputs": [
        {
          "internalType": "string",
          "name": "errorMessage",
          "type": "string"
        }
      ],
      "name": "BuyerIsSeller",
      "type": "error"
    },
    {
      "inputs": [],
      "name": "GemIsAlreadyForSaleOrIsMining",
      "type": "error"
    },
    {
      "inputs": [],
      "name": "GemIsNotForSale",
      "type": "error"
    },
    {
      "inputs": [],
      "name": "GemNotApproved",
      "type": "error"
    },
    {
      "inputs": [],
      "name": "ListingGemFailed",
      "type": "error"
    },
    {
      "inputs": [],
      "name": "NoTokens",
      "type": "error"
    },
    {
      "inputs": [],
      "name": "NotGemOwner",
      "type": "error"
    },
    {
      "inputs": [],
      "name": "NotPaused",
      "type": "error"
    },
    {
      "inputs": [],
      "name": "Paused",
      "type": "error"
    },
    {
      "inputs": [],
      "name": "PurchaseFailed",
      "type": "error"
    },
    {
      "inputs": [],
      "name": "ReentrancyGuardReentrantCall",
      "type": "error"
    },
    {
      "inputs": [],
      "name": "SameAdmin",
      "type": "error"
    },
    {
      "inputs": [],
      "name": "WrongLength",
      "type": "error"
    },
    {
      "inputs": [],
      "name": "WrongPrice",
      "type": "error"
    },
    {
      "inputs": [],
      "name": "WrongSeller",
      "type": "error"
    },
    {
      "inputs": [],
      "name": "WrongStakingIndex",
      "type": "error"
    },
    {
      "inputs": [],
      "name": "ZeroAddress",
      "type": "error"
    },
    {
      "anonymous": false,
      "inputs": [
        {
          "indexed": false,
          "internalType": "uint256",
          "name": "tokenId",
          "type": "uint256"
        },
        {
          "indexed": false,
          "internalType": "address",
          "name": "payer",
          "type": "address"
        },
        {
          "indexed": false,
          "internalType": "address",
          "name": "seller",
          "type": "address"
        },
        {
          "indexed": false,
          "internalType": "uint256",
          "name": "amount",
          "type": "uint256"
        }
      ],
      "name": "GemBought",
      "type": "event"
    },
    {
      "anonymous": false,
      "inputs": [
        {
          "indexed": false,
          "internalType": "uint256",
          "name": "tokenId",
          "type": "uint256"
        },
        {
          "indexed": false,
          "internalType": "address",
          "name": "seller",
          "type": "address"
        },
        {
          "indexed": false,
          "internalType": "uint256",
          "name": "price",
          "type": "uint256"
        }
      ],
      "name": "GemForSale",
      "type": "event"
    },
    {
      "anonymous": false,
      "inputs": [
        {
          "indexed": false,
          "internalType": "uint256",
          "name": "tokenId",
          "type": "uint256"
        }
      ],
      "name": "GemRemovedFromSale",
      "type": "event"
    },
    {
      "anonymous": false,
      "inputs": [
        {
          "indexed": true,
          "internalType": "bytes32",
          "name": "role",
          "type": "bytes32"
        },
        {
          "indexed": true,
          "internalType": "bytes32",
          "name": "previousAdminRole",
          "type": "bytes32"
        },
        {
          "indexed": true,
          "internalType": "bytes32",
          "name": "newAdminRole",
          "type": "bytes32"
        }
      ],
      "name": "RoleAdminChanged",
      "type": "event"
    },
    {
      "anonymous": false,
      "inputs": [
        {
          "indexed": true,
          "internalType": "bytes32",
          "name": "role",
          "type": "bytes32"
        },
        {
          "indexed": true,
          "internalType": "address",
          "name": "account",
          "type": "address"
        },
        {
          "indexed": true,
          "internalType": "address",
          "name": "sender",
          "type": "address"
        }
      ],
      "name": "RoleGranted",
      "type": "event"
    },
    {
      "anonymous": false,
      "inputs": [
        {
          "indexed": true,
          "internalType": "bytes32",
          "name": "role",
          "type": "bytes32"
        },
        {
          "indexed": true,
          "internalType": "address",
          "name": "account",
          "type": "address"
        },
        {
          "indexed": true,
          "internalType": "address",
          "name": "sender",
          "type": "address"
        }
      ],
      "name": "RoleRevoked",
      "type": "event"
    },
    {
      "anonymous": false,
      "inputs": [
        {
          "indexed": false,
          "internalType": "uint256",
          "name": "discountRate",
          "type": "uint256"
        }
      ],
      "name": "SetDiscountRate",
      "type": "event"
    },
    {
      "anonymous": false,
      "inputs": [
        {
          "indexed": false,
          "internalType": "uint256",
          "name": "stakingIndex",
          "type": "uint256"
        }
      ],
      "name": "SetStakingIndex",
      "type": "event"
    },
    {
      "anonymous": false,
      "inputs": [
        {
          "indexed": false,
          "internalType": "uint256",
          "name": "tokenId",
          "type": "uint256"
        },
        {
          "indexed": false,
          "internalType": "address",
          "name": "claimer",
          "type": "address"
        }
      ],
      "name": "WSTONClaimed",
      "type": "event"
    },
    {
      "inputs": [],
      "name": "ADMIN_ROLE",
      "outputs": [
        {
          "internalType": "bytes32",
          "name": "",
          "type": "bytes32"
        }
      ],
      "stateMutability": "view",
      "type": "function"
    },
    {
      "inputs": [],
      "name": "DECIMALS",
      "outputs": [
        {
          "internalType": "uint256",
          "name": "",
          "type": "uint256"
        }
      ],
      "stateMutability": "view",
      "type": "function"
    },
    {
      "inputs": [],
      "name": "DEFAULT_ADMIN_ROLE",
      "outputs": [
        {
          "internalType": "bytes32",
          "name": "",
          "type": "bytes32"
        }
      ],
      "stateMutability": "view",
      "type": "function"
    },
    {
      "inputs": [],
      "name": "PAUSE_ROLE",
      "outputs": [
        {
          "internalType": "bytes32",
          "name": "",
          "type": "bytes32"
        }
      ],
      "stateMutability": "view",
      "type": "function"
    },
    {
      "inputs": [],
      "name": "TON_FEES_RATE_DIVIDER",
      "outputs": [
        {
          "internalType": "uint256",
          "name": "",
          "type": "uint256"
        }
      ],
      "stateMutability": "view",
      "type": "function"
    },
    {
      "inputs": [
        {
          "internalType": "address",
          "name": "account",
          "type": "address"
        }
      ],
      "name": "addAdmin",
      "outputs": [],
      "stateMutability": "nonpayable",
      "type": "function"
    },
    {
      "inputs": [
        {
          "internalType": "address",
          "name": "account",
          "type": "address"
        }
      ],
      "name": "addPauser",
      "outputs": [],
      "stateMutability": "nonpayable",
      "type": "function"
    },
    {
      "inputs": [
        {
          "internalType": "address",
          "name": "",
          "type": "address"
        }
      ],
      "name": "aliveImplementation",
      "outputs": [
        {
          "internalType": "bool",
          "name": "",
          "type": "bool"
        }
      ],
      "stateMutability": "view",
      "type": "function"
    },
    {
      "inputs": [
        {
          "internalType": "uint256",
          "name": "_tokenId",
          "type": "uint256"
        },
        {
          "internalType": "bool",
          "name": "_paymentMethod",
          "type": "bool"
        }
      ],
      "name": "buyGem",
      "outputs": [],
      "stateMutability": "nonpayable",
      "type": "function"
    },
    {
      "inputs": [
        {
          "internalType": "uint256",
          "name": "",
          "type": "uint256"
        }
      ],
      "name": "gemsForSale",
      "outputs": [
        {
          "internalType": "address",
          "name": "seller",
          "type": "address"
        },
        {
          "internalType": "uint256",
          "name": "price",
          "type": "uint256"
        },
        {
          "internalType": "bool",
          "name": "isActive",
          "type": "bool"
        }
      ],
      "stateMutability": "view",
      "type": "function"
    },
    {
      "inputs": [],
      "name": "getGemFactoryAddress",
      "outputs": [
        {
          "internalType": "address",
          "name": "",
          "type": "address"
        }
      ],
      "stateMutability": "view",
      "type": "function"
    },
    {
      "inputs": [
        {
          "internalType": "uint256",
          "name": "_tokenId",
          "type": "uint256"
        }
      ],
      "name": "getGemForSale",
      "outputs": [
        {
          "components": [
            {
              "internalType": "address",
              "name": "seller",
              "type": "address"
            },
            {
              "internalType": "uint256",
              "name": "price",
              "type": "uint256"
            },
            {
              "internalType": "bool",
              "name": "isActive",
              "type": "bool"
            }
          ],
          "internalType": "struct MarketPlaceStorage.Sale",
          "name": "",
          "type": "tuple"
        }
      ],
      "stateMutability": "view",
      "type": "function"
    },
    {
      "inputs": [],
      "name": "getPauseStatus",
      "outputs": [
        {
          "internalType": "bool",
          "name": "",
          "type": "bool"
        }
      ],
      "stateMutability": "view",
      "type": "function"
    },
    {
      "inputs": [
        {
          "internalType": "bytes32",
          "name": "role",
          "type": "bytes32"
        }
      ],
      "name": "getRoleAdmin",
      "outputs": [
        {
          "internalType": "bytes32",
          "name": "",
          "type": "bytes32"
        }
      ],
      "stateMutability": "view",
      "type": "function"
    },
    {
      "inputs": [],
      "name": "getStakingIndex",
      "outputs": [
        {
          "internalType": "uint256",
          "name": "",
          "type": "uint256"
        }
      ],
      "stateMutability": "view",
      "type": "function"
    },
    {
      "inputs": [],
      "name": "getTonAddress",
      "outputs": [
        {
          "internalType": "address",
          "name": "",
          "type": "address"
        }
      ],
      "stateMutability": "view",
      "type": "function"
    },
    {
      "inputs": [],
      "name": "getTonFeesRate",
      "outputs": [
        {
          "internalType": "uint256",
          "name": "",
          "type": "uint256"
        }
      ],
      "stateMutability": "view",
      "type": "function"
    },
    {
      "inputs": [],
      "name": "getTreasuryAddress",
      "outputs": [
        {
          "internalType": "address",
          "name": "",
          "type": "address"
        }
      ],
      "stateMutability": "view",
      "type": "function"
    },
    {
      "inputs": [],
      "name": "getWstonAddress",
      "outputs": [
        {
          "internalType": "address",
          "name": "",
          "type": "address"
        }
      ],
      "stateMutability": "view",
      "type": "function"
    },
    {
      "inputs": [
        {
          "internalType": "bytes32",
          "name": "role",
          "type": "bytes32"
        },
        {
          "internalType": "address",
          "name": "account",
          "type": "address"
        }
      ],
      "name": "grantRole",
      "outputs": [],
      "stateMutability": "nonpayable",
      "type": "function"
    },
    {
      "inputs": [
        {
          "internalType": "bytes32",
          "name": "role",
          "type": "bytes32"
        },
        {
          "internalType": "address",
          "name": "account",
          "type": "address"
        }
      ],
      "name": "hasRole",
      "outputs": [
        {
          "internalType": "bool",
          "name": "",
          "type": "bool"
        }
      ],
      "stateMutability": "view",
      "type": "function"
    },
    {
      "inputs": [
        {
          "internalType": "address",
          "name": "_treasury",
          "type": "address"
        },
        {
          "internalType": "address",
          "name": "_gemfactory",
          "type": "address"
        },
        {
          "internalType": "uint256",
          "name": "_tonFeesRate",
          "type": "uint256"
        },
        {
          "internalType": "address",
          "name": "_wston",
          "type": "address"
        },
        {
          "internalType": "address",
          "name": "_ton",
          "type": "address"
        }
      ],
      "name": "initialize",
      "outputs": [],
      "stateMutability": "nonpayable",
      "type": "function"
    },
    {
      "inputs": [
        {
          "internalType": "address",
          "name": "account",
          "type": "address"
        }
      ],
      "name": "isAdmin",
      "outputs": [
        {
          "internalType": "bool",
          "name": "",
          "type": "bool"
        }
      ],
      "stateMutability": "view",
      "type": "function"
    },
    {
      "inputs": [],
      "name": "isOwner",
      "outputs": [
        {
          "internalType": "bool",
          "name": "",
          "type": "bool"
        }
      ],
      "stateMutability": "view",
      "type": "function"
    },
    {
      "inputs": [],
      "name": "pause",
      "outputs": [],
      "stateMutability": "nonpayable",
      "type": "function"
    },
    {
      "inputs": [],
      "name": "pauseProxy",
      "outputs": [
        {
          "internalType": "bool",
          "name": "",
          "type": "bool"
        }
      ],
      "stateMutability": "view",
      "type": "function"
    },
    {
      "inputs": [
        {
          "internalType": "uint256",
          "name": "",
          "type": "uint256"
        }
      ],
      "name": "proxyImplementation",
      "outputs": [
        {
          "internalType": "address",
          "name": "",
          "type": "address"
        }
      ],
      "stateMutability": "view",
      "type": "function"
    },
    {
      "inputs": [
        {
          "internalType": "uint256",
          "name": "_tokenId",
          "type": "uint256"
        },
        {
          "internalType": "uint256",
          "name": "_price",
          "type": "uint256"
        }
      ],
      "name": "putGemForSale",
      "outputs": [],
      "stateMutability": "nonpayable",
      "type": "function"
    },
    {
      "inputs": [
        {
          "internalType": "uint256[]",
          "name": "tokenIds",
          "type": "uint256[]"
        },
        {
          "internalType": "uint256[]",
          "name": "prices",
          "type": "uint256[]"
        }
      ],
      "name": "putGemListForSale",
      "outputs": [],
      "stateMutability": "nonpayable",
      "type": "function"
    },
    {
      "inputs": [
        {
          "internalType": "address",
          "name": "account",
          "type": "address"
        }
      ],
      "name": "removeAdmin",
      "outputs": [],
      "stateMutability": "nonpayable",
      "type": "function"
    },
    {
      "inputs": [
        {
          "internalType": "uint256",
          "name": "_tokenId",
          "type": "uint256"
        }
      ],
      "name": "removeGemForSale",
      "outputs": [],
      "stateMutability": "nonpayable",
      "type": "function"
    },
    {
      "inputs": [
        {
          "internalType": "address",
          "name": "account",
          "type": "address"
        }
      ],
      "name": "removePauser",
      "outputs": [],
      "stateMutability": "nonpayable",
      "type": "function"
    },
    {
      "inputs": [],
      "name": "renounceOwnership",
      "outputs": [],
      "stateMutability": "nonpayable",
      "type": "function"
    },
    {
      "inputs": [
        {
          "internalType": "bytes32",
          "name": "role",
          "type": "bytes32"
        },
        {
          "internalType": "address",
          "name": "callerConfirmation",
          "type": "address"
        }
      ],
      "name": "renounceRole",
      "outputs": [],
      "stateMutability": "nonpayable",
      "type": "function"
    },
    {
      "inputs": [
        {
          "internalType": "bytes32",
          "name": "role",
          "type": "bytes32"
        },
        {
          "internalType": "address",
          "name": "account",
          "type": "address"
        }
      ],
      "name": "revokeRole",
      "outputs": [],
      "stateMutability": "nonpayable",
      "type": "function"
    },
    {
      "inputs": [
        {
          "internalType": "bytes4",
          "name": "",
          "type": "bytes4"
        }
      ],
      "name": "selectorImplementation",
      "outputs": [
        {
          "internalType": "address",
          "name": "",
          "type": "address"
        }
      ],
      "stateMutability": "view",
      "type": "function"
    },
    {
      "inputs": [
        {
          "internalType": "uint256",
          "name": "_tonFeesRate",
          "type": "uint256"
        }
      ],
      "name": "setDiscountRate",
      "outputs": [],
      "stateMutability": "nonpayable",
      "type": "function"
    },
    {
      "inputs": [
        {
          "internalType": "uint256",
          "name": "_stakingIndex",
          "type": "uint256"
        }
      ],
      "name": "setStakingIndex",
      "outputs": [],
      "stateMutability": "nonpayable",
      "type": "function"
    },
    {
      "inputs": [
        {
          "internalType": "bytes4",
          "name": "interfaceId",
          "type": "bytes4"
        }
      ],
      "name": "supportsInterface",
      "outputs": [
        {
          "internalType": "bool",
          "name": "",
          "type": "bool"
        }
      ],
      "stateMutability": "view",
      "type": "function"
    },
    {
      "inputs": [
        {
          "internalType": "address",
          "name": "newAdmin",
          "type": "address"
        }
      ],
      "name": "transferAdmin",
      "outputs": [],
      "stateMutability": "nonpayable",
      "type": "function"
    },
    {
      "inputs": [
        {
          "internalType": "address",
          "name": "newAdmin",
          "type": "address"
        }
      ],
      "name": "transferOwnership",
      "outputs": [],
      "stateMutability": "nonpayable",
      "type": "function"
    },
    {
      "inputs": [],
      "name": "unpause",
      "outputs": [],
      "stateMutability": "nonpayable",
      "type": "function"
    }
  ],
  "bytecode": "0x608080604052346073576b033b2e3c9fd0803ce8000000600a55600b805461ffff191690556001600c8190556301ffc9a760e01b600052600d6020527f49c01d976ca1c616ed1de1469e98d664903a805642011c315785aa325a483c71805460ff19169091179055611cc690816100798239f35b600080fdfe608060408181526004908136101561001657600080fd5b600092833560e01c90816301ffc9a71461135a5750806302424ed314610f17578063044bc77914610eee57806308ec897d14610ed15780631785f53c14610ea45780631d9023cb14610e80578063248a9ca314610e5557806324d7806c14610e005780632e0f262514610dda5780632ede643214610d0f5780632f2ff15d14610ce757806333e1a22314610c2b57806336568abe14610be4578063389ed26714610bbb5780633f4ba83a14610b865780635074e0c814610b6757806350d2a27614610b23578063550d01a314610ae557806363a8fd8914610ac35780636ae638d014610a9a5780636b2c0f5514610a4c57806370480275146109fd578063715018a6146109d557806375829def146109af57806375b238fc1461098657806379dbd798146108215780637c69febd146107d057806382dc1ec41461070a5780638456cb59146106c55780638f32d59b1461069f57806391d14854146106595780639c41b42b1461060d5780639d541be2146105e4578063a217fddf146105c9578063a69c8fb2146105aa578063adad69261461042c578063b911135f146103f9578063c255bf1614610377578063ce49a36014610305578063d547741f146102c7578063e00246041461029a5763f2fde38b146101f257600080fd5b346102965760203660031901126102965761020b611393565b9161021c610217611559565b61148a565b610227610217611559565b6001600160a01b0383168015610287573314610279575090610267600161026c93600080516020611c318339815191528652600e602052852001546117e1565b611892565b5061027633611501565b80f35b90516309cd70b960e21b8152fd5b50905163d92e233d60e01b8152fd5b8280fd5b8382346102c357816003193601126102c35760075490516001600160a01b039091168152602090f35b5080fd5b503461029657806003193601126102965761030191356102fc60016102ea6113a9565b93838752600e602052862001546117e1565b611b8b565b5080f35b503461029657602036600319011261029657813591610325610217611559565b676765c793fa10079d601b1b83106103695750816020917fa597abe6b82f0190c1192d690059f8a214908502cdc266fde36fd659711948d993600a5551908152a180f35b90516373fd31f360e01b8152fd5b5090346102965760203660031901126102965782829160609483805161039c816113e8565b828152826020820152015280358252602052209080516103bb816113e8565b60018060a01b03835416928382528260ff60026001840154936020860194855201541692019115158252825193845251602084015251151590820152f35b5090346102965760203660031901126102965735825260016020908152918190205490516001600160a01b039091168152f35b503461029657602090816003193601126105a65782359060ff600b541661059757818552838352600160ff60028388200154161515036105885760065481516331a9108f60e11b81528581018490526001600160a01b03918216918582602481865afa91821561057e57889261054f575b503391160361053f578086913b156102c3578180916044855180948193634d723a7560e01b8352898c8401528160248401525af180156105355761051d575b5093827f05e530d2932a31001c9cde048b350c93ce3ffea36cf640e4473b8da9e62ac1bb95528352846002828220828155826001820155015551908152a180f35b610526906113bf565b6105315784386104dc565b8480fd5b83513d84823e3d90fd5b81516302b327b560e41b81528590fd5b610570919250863d8811610577575b6105688183611403565b8101906114e2565b903861049d565b503d61055e565b84513d8a823e3d90fd5b516374f0c4bb60e11b81528390fd5b516313d0ff5960e31b81528390fd5b8380fd5b8382346102c357816003193601126102c3576020906005549051908152f35b8382346102c357816003193601126102c35751908152602090f35b8382346102c357816003193601126102c35760065490516001600160a01b039091168152602090f35b50903461029657602036600319011261029657606092818392358252602052209060018060a01b038254169160ff60026001830154920154169082519384526020840152151590820152f35b509034610296578160031936011261029657816020936106776113a9565b92358152600e8552209060018060a01b0316600052825260ff81600020541690519015158152f35b8382346102c357816003193601126102c3576020906106bc611559565b90519015158152f35b5090346102965782600319360112610296576106e2610217611559565b600b549160ff83166106fd5760ff198316600117600b558380f35b516313d0ff5960e31b8152fd5b509190346102c35760203660031901126102c357610726611393565b90600080516020611c318339815191528352600e6020528383203360005260205260ff84600020541680156107c2575b1561078a575061078560018394600080516020611c118339815191526103019552600e602052852001546117e1565b611921565b606490602085519162461bcd60e51b835282015260126024820152713737ba1027bbb732b91037b91020b236b4b760711b6044820152fd5b506107cb611559565b610756565b509034610296576020366003190112610296577f21a8eefc17e9c864964b5a4c0769d87f39cc0a7576773159e12358bc0095ffc5916020913590610815610217611559565b8160055551908152a180f35b508290346102c357806003193601126102c3576001600160401b039183358381116102c3576108539036908601611424565b6024936024359081116102965761086d9036908701611424565b9160ff600b54166109765781511561096657815183510361095657805b8251811015610301576006546001600160a01b03908116906108ac838661152f565b51875192839163020604bf60e21b83528b830152818a60209586935afa92831561094c57859361092d575b50503091160361091d576109006108ee828561152f565b516108f9838761152f565b519061160b565b1561090d5760010161088a565b845163176479df60e01b81528790fd5b845163077ad1ed60e51b81528790fd5b610944929350803d10610577576105688183611403565b9089806108d7565b88513d87823e3d90fd5b83516349552d5960e11b81528690fd5b835163df95788360e01b81528690fd5b83516313d0ff5960e31b81528690fd5b8382346102c357816003193601126102c35760209051600080516020611c318339815191528152f35b5034610296576020366003190112610296576109c9611393565b91610227610217611559565b83346109fa57806003193601126109fa576109f1610217611559565b61030133611a9c565b80fd5b8382346102c35760203660031901126102c357610301906102676001610a21611393565b92610a2d610217611559565b600080516020611c318339815191528652600e602052852001546117e1565b50903461029657602036600319011261029657610a67611393565b91610a73610217611559565b336001600160a01b03841603610a8d578361030184611a14565b5163334bd91960e11b8152fd5b8382346102c357816003193601126102c35760095490516001600160a01b039091168152602090f35b8382346102c357816003193601126102c35760ff602092541690519015158152f35b8382346102c35760203660031901126102c35760209160ff9082906001600160a01b03610b10611393565b1681526002855220541690519015158152f35b509034610296576020366003190112610296573563ffffffff60e01b811680910361029657825260036020908152918190205490516001600160a01b039091168152f35b8382346102c357816003193601126102c357602090600a549051908152f35b509034610296578260031936011261029657610ba3610217611559565b600b549160ff83166106fd57505060ff1916600b5580f35b8382346102c357816003193601126102c35760209051600080516020611c118339815191528152f35b508290346102c357806003193601126102c357610bff6113a9565b90336001600160a01b03831603610c1c5750610301919235611b8b565b5163334bd91960e11b81528390fd5b5090346102965760a036600319011261029657610c46611393565b610c4e6113a9565b916001600160a01b0360643581811693919290849003610ce25760843595838716809703610ce25760ff600b5460081c16610cd6575050610c8e33611825565b506044356005558160018060a01b0319941684600654161760065516826007541617600755816008541617600855600954161760095561010061ff0019600b541617600b5580f35b5162dc149f60e41b8152fd5b600080fd5b50346102965780600319360112610296576103019135610d0a60016102ea6113a9565b6119ab565b5034610296578060031936011261029657813560ff600b5416610dcc57600654825163020604bf60e21b8152848101839052906001600160a01b03906020908390602490829085165afa918215610dc2578692610da1575b5030911603610d9357610d7d906024359061160b565b15610d86578280f35b5163176479df60e01b8152fd5b505163077ad1ed60e51b8152fd5b610dbb91925060203d602011610577576105688183611403565b9038610d67565b84513d88823e3d90fd5b50516313d0ff5960e31b8152fd5b8382346102c357816003193601126102c35751676765c793fa10079d601b1b8152602090f35b8382346102c35760203660031901126102c35760209181610e1f611393565b91600080516020611c318339815191528152600e8552209060018060a01b0316600052825260ff81600020541690519015158152f35b5090346102965760203660031901126102965781602093600192358152600e85522001549051908152f35b8382346102c357816003193601126102c35760209060ff600b541690519015158152f35b83346109fa5760203660031901126109fa57610276610ec1611393565b610ecc610217611559565b611501565b8382346102c357816003193601126102c357602090516127108152f35b8382346102c357816003193601126102c35760085490516001600160a01b039091168152602090f35b50903461029657816003193601126102965780359060243580151581036105315760ff600b541661134b576002600c541461133c576002600c55331561132d57828552602082815260ff60028688200154161561131d578386528281526001858720015492831561130f57848752808252858720546001600160a01b039081169384156112ff57843314806112f7575b6112b357889291901561113357806008541684895180926323b872dd60e01b8252818781610fd98d8d338c85016115e9565b03925af180156110fc57611106575b505b868352818452878320600201805460ff191690556006548116803b156105a65783809160448b5180948193634d723a7560e01b83528d898401528160248401525af19081156110fc5784916110e8575b505060065416803b156102965786839161106b93838b518096819582946323b872dd60e01b84528c339185016115e9565b03925af180156110de576110be575b507f429a311c86d807d248190c8540973d38711c40cabad4c6266ef4b9a7ae6cdc3c60808686868a87815194855233908501528301526060820152a16001600c5580f35b6110cc9095949392956113bf565b6110da57909192853861107a565b8580fd5b87513d84823e3d90fd5b6110f1906113bf565b61029657823861103a565b89513d86823e3d90fd5b61112590853d871161112c575b61111d8183611403565b8101906115d1565b5038610fe8565b503d611113565b909150676765c793fa10079d601b1b61114e600a54876115a8565b0461271061115e600554836115a8565b0481018091116112a05790889291838561119f846009541685600754168d51948580948193633b9aca006323b872dd60e01b9a8b85520490338d85016115e9565b03925af1801561129657611279575b5081600754168087036111c3575b5050610fea565b8094919293943b156102c357819060248b518094819363081cb0a960e31b83528c8a8401525af1801561126f57611252575b50908584868b95948b87866008541692611220886007541693519788968795869485528c85016115e9565b03925af180156110fc57611235575b806111bc565b61124b90853d871161112c5761111d8183611403565b503861122f565b84869a6112638993969594966113bf565b9a5050929091926111f5565b89513d8c823e3d90fd5b61128f90863d881161112c5761111d8183611403565b50386111ae565b8a513d87823e3d90fd5b634e487b7160e01b895260118352602489fd5b875163b06bd67960e01b8152808401859052601d60248201527f5573652052656d6f766547656d46726f6d4c69737420696e73746561640000006044820152606490fd5b506001610fa7565b8751630bcca81960e41b81528390fd5b855163f7760f2560e01b8152fd5b84516374f0c4bb60e11b81528390fd5b508251639fabe1c160e01b8152fd5b508251633ee5aeb560e01b8152fd5b5082516313d0ff5960e31b8152fd5b849084346102965760203660031901126102965735916001600160e01b0319831683036109fa575061138d60209261157c565b15158152f35b600435906001600160a01b0382168203610ce257565b602435906001600160a01b0382168203610ce257565b6001600160401b0381116113d257604052565b634e487b7160e01b600052604160045260246000fd5b606081019081106001600160401b038211176113d257604052565b90601f801991011681019081106001600160401b038211176113d257604052565b81601f82011215610ce2578035916020916001600160401b0384116113d2578360051b906040519461145885840187611403565b85528380860192820101928311610ce2578301905b82821061147b575050505090565b8135815290830190830161146d565b1561149157565b60405162461bcd60e51b8152602060048201526024808201527f41757468436f6e74726f6c3a2043616c6c6572206973206e6f7420746865206f6044820152633bb732b960e11b6064820152608490fd5b90816020910312610ce257516001600160a01b0381168103610ce25790565b336001600160a01b0382160361151d5761151a90611b03565b50565b60405163334bd91960e11b8152600490fd5b80518210156115435760209160051b010190565b634e487b7160e01b600052603260045260246000fd5b336000908152600080516020611c71833981519152602052604090205460ff1690565b6001600160e01b03198116637965db0b60e01b1490811561159b575090565b6115a5915061157c565b90565b818102929181159184041417156115bb57565b634e487b7160e01b600052601160045260246000fd5b90816020910312610ce257518015158103610ce25790565b6001600160a01b03918216815291166020820152604081019190915260600190565b90600654600060018060a01b038092166040928351926331a9108f60e11b845260049287848601526020948581602481855afa90811561179a5783916117c4575b5083339116036117b45786156117a457855163276a28a360e01b81528481018990528581602481855afa90811561179a5790600191849161177d575b5015151461176d57803b156102c3578180916044885180948193634d723a7560e01b83528d8a840152600160248401525af1801561176357927f8b8052dfcc72d6fc28cd795f60661e1a701f185ce78c06a47b2ac29357d6ef8b989694926002926060999795611754575b50855191611700836113e8565b338352868684019289845281850196600188528b825288522092511660018060a01b0319835416178255516001820155019051151560ff8019835416911617905581519384523390840152820152a1600190565b61175d906113bf565b386116f3565b86513d84823e3d90fd5b855163e970f37f60e01b81528490fd5b6117949150873d891161112c5761111d8183611403565b38611688565b87513d85823e3d90fd5b855163f7760f2560e01b81528490fd5b85516302b327b560e41b81528490fd5b6117db9150863d8811610577576105688183611403565b3861164c565b80600052600e60205260406000203360005260205260ff60406000205416156118075750565b6044906040519063e2517d3f60e01b82523360048301526024820152fd5b6001600160a01b03166000818152600080516020611c71833981519152602052604081205490919060ff1661188e57818052600e6020526040822081835260205260408220600160ff198254161790553391600080516020611bf18339815191528180a4600190565b5090565b6001600160a01b031660008181527f620eb73d6cf6578a5bdd33c262a61a3d1a7de2092b995e873e99d9120b3f30126020526040812054909190600080516020611c318339815191529060ff1661191c57808352600e6020526040832082845260205260408320600160ff19825416179055600080516020611bf1833981519152339380a4600190565b505090565b6001600160a01b031660008181527f4c2b6ec66c03b94709f5ce37cb27d8dbf249a6f7b696d154ca5782de6f3977a26020526040812054909190600080516020611c118339815191529060ff1661191c57808352600e6020526040832082845260205260408320600160ff19825416179055600080516020611bf1833981519152339380a4600190565b90600091808352600e602052604083209160018060a01b03169182845260205260ff6040842054161560001461191c57808352600e6020526040832082845260205260408320600160ff19825416179055600080516020611bf1833981519152339380a4600190565b6001600160a01b031660008181527f4c2b6ec66c03b94709f5ce37cb27d8dbf249a6f7b696d154ca5782de6f3977a26020526040812054909190600080516020611c118339815191529060ff161561191c57808352600e602052604083208284526020526040832060ff198154169055600080516020611c51833981519152339380a4600190565b6001600160a01b03166000818152600080516020611c71833981519152602052604081205490919060ff161561188e57818052600e602052604082208183526020526040822060ff1981541690553391600080516020611c518339815191528180a4600190565b6001600160a01b031660008181527f620eb73d6cf6578a5bdd33c262a61a3d1a7de2092b995e873e99d9120b3f30126020526040812054909190600080516020611c318339815191529060ff161561191c57808352600e602052604083208284526020526040832060ff198154169055600080516020611c51833981519152339380a4600190565b90600091808352600e602052604083209160018060a01b03169182845260205260ff60408420541660001461191c57808352600e602052604083208284526020526040832060ff198154169055600080516020611c51833981519152339380a460019056fe2f8788117e7eff1d82e926ec794901d17c78024a50270940304540a733656f0dfcb9fcbfa83b897fb2d5cf4b58962164105c1e71489a37ef3ae0db3fdce576f6df8b4c520ffe197c5343c6f5aec59570151ef9a492f2c624fd45ddde6135ec42f6391f5c32d9c69d2a47ea670b442974b53935d1edc7fd64eb21e047a839171be710864318d4a32f37d6ce54cb3fadbef648dd12d8dbdf53973564d56b7f881ca26469706673582212203ab82c8fddc3938a4cb956663a7fa9cef1bfed1f8492bff10ea7112691dee84264736f6c63430008190033",
  "linkReferences": {},
  "deployedLinkReferences": {}
}