{
  "_format": "hh-sol-artifact-1",
  "contractName": "Layer2Registry",
  "sourceName": "src/L1/Mock/Layer2Registry.sol",
  "abi": [
    {
      "inputs": [],
      "name": "AccessControlBadConfirmation",
      "type": "error"
    },
    {
      "inputs": [
        {
          "internalType": "address",
          "name": "account",
          "type": "address"
        },
        {
          "internalType": "bytes32",
          "name": "neededRole",
          "type": "bytes32"
        }
      ],
      "name": "AccessControlUnauthorizedAccount",
      "type": "error"
    },
    {
      "anonymous": false,
      "inputs": [
        {
          "indexed": true,
          "internalType": "bytes32",
          "name": "role",
          "type": "bytes32"
        },
        {
          "indexed": true,
          "internalType": "bytes32",
          "name": "previousAdminRole",
          "type": "bytes32"
        },
        {
          "indexed": true,
          "internalType": "bytes32",
          "name": "newAdminRole",
          "type": "bytes32"
        }
      ],
      "name": "RoleAdminChanged",
      "type": "event"
    },
    {
      "anonymous": false,
      "inputs": [
        {
          "indexed": true,
          "internalType": "bytes32",
          "name": "role",
          "type": "bytes32"
        },
        {
          "indexed": true,
          "internalType": "address",
          "name": "account",
          "type": "address"
        },
        {
          "indexed": true,
          "internalType": "address",
          "name": "sender",
          "type": "address"
        }
      ],
      "name": "RoleGranted",
      "type": "event"
    },
    {
      "anonymous": false,
      "inputs": [
        {
          "indexed": true,
          "internalType": "bytes32",
          "name": "role",
          "type": "bytes32"
        },
        {
          "indexed": true,
          "internalType": "address",
          "name": "account",
          "type": "address"
        },
        {
          "indexed": true,
          "internalType": "address",
          "name": "sender",
          "type": "address"
        }
      ],
      "name": "RoleRevoked",
      "type": "event"
    },
    {
      "inputs": [],
      "name": "DEFAULT_ADMIN_ROLE",
      "outputs": [
        {
          "internalType": "bytes32",
          "name": "",
          "type": "bytes32"
        }
      ],
      "stateMutability": "view",
      "type": "function"
    },
    {
      "inputs": [],
      "name": "MINTER_ROLE",
      "outputs": [
        {
          "internalType": "bytes32",
          "name": "",
          "type": "bytes32"
        }
      ],
      "stateMutability": "view",
      "type": "function"
    },
    {
      "inputs": [],
      "name": "OPERATOR_ROLE",
      "outputs": [
        {
          "internalType": "bytes32",
          "name": "",
          "type": "bytes32"
        }
      ],
      "stateMutability": "view",
      "type": "function"
    },
    {
      "inputs": [
        {
          "internalType": "address",
          "name": "account",
          "type": "address"
        }
      ],
      "name": "addAdmin",
      "outputs": [],
      "stateMutability": "nonpayable",
      "type": "function"
    },
    {
      "inputs": [
        {
          "internalType": "address",
          "name": "account",
          "type": "address"
        }
      ],
      "name": "addMinter",
      "outputs": [],
      "stateMutability": "nonpayable",
      "type": "function"
    },
    {
      "inputs": [
        {
          "internalType": "address",
          "name": "account",
          "type": "address"
        }
      ],
      "name": "addOperator",
      "outputs": [],
      "stateMutability": "nonpayable",
      "type": "function"
    },
    {
      "inputs": [
        {
          "internalType": "address",
          "name": "",
          "type": "address"
        }
      ],
      "name": "aliveImplementation",
      "outputs": [
        {
          "internalType": "bool",
          "name": "",
          "type": "bool"
        }
      ],
      "stateMutability": "view",
      "type": "function"
    },
    {
      "inputs": [
        {
          "internalType": "address",
          "name": "layer2",
          "type": "address"
        },
        {
          "internalType": "address",
          "name": "seigManager",
          "type": "address"
        }
      ],
      "name": "deployCoinage",
      "outputs": [
        {
          "internalType": "bool",
          "name": "",
          "type": "bool"
        }
      ],
      "stateMutability": "nonpayable",
      "type": "function"
    },
    {
      "inputs": [
        {
          "internalType": "bytes32",
          "name": "role",
          "type": "bytes32"
        }
      ],
      "name": "getRoleAdmin",
      "outputs": [
        {
          "internalType": "bytes32",
          "name": "",
          "type": "bytes32"
        }
      ],
      "stateMutability": "view",
      "type": "function"
    },
    {
      "inputs": [
        {
          "internalType": "bytes32",
          "name": "role",
          "type": "bytes32"
        },
        {
          "internalType": "address",
          "name": "account",
          "type": "address"
        }
      ],
      "name": "grantRole",
      "outputs": [],
      "stateMutability": "nonpayable",
      "type": "function"
    },
    {
      "inputs": [
        {
          "internalType": "bytes32",
          "name": "role",
          "type": "bytes32"
        },
        {
          "internalType": "address",
          "name": "account",
          "type": "address"
        }
      ],
      "name": "hasRole",
      "outputs": [
        {
          "internalType": "bool",
          "name": "",
          "type": "bool"
        }
      ],
      "stateMutability": "view",
      "type": "function"
    },
    {
      "inputs": [
        {
          "internalType": "address",
          "name": "account",
          "type": "address"
        }
      ],
      "name": "isAdmin",
      "outputs": [
        {
          "internalType": "bool",
          "name": "",
          "type": "bool"
        }
      ],
      "stateMutability": "view",
      "type": "function"
    },
    {
      "inputs": [
        {
          "internalType": "address",
          "name": "account",
          "type": "address"
        }
      ],
      "name": "isMinter",
      "outputs": [
        {
          "internalType": "bool",
          "name": "",
          "type": "bool"
        }
      ],
      "stateMutability": "view",
      "type": "function"
    },
    {
      "inputs": [
        {
          "internalType": "address",
          "name": "account",
          "type": "address"
        }
      ],
      "name": "isOperator",
      "outputs": [
        {
          "internalType": "bool",
          "name": "",
          "type": "bool"
        }
      ],
      "stateMutability": "view",
      "type": "function"
    },
    {
      "inputs": [],
      "name": "isOwner",
      "outputs": [
        {
          "internalType": "bool",
          "name": "",
          "type": "bool"
        }
      ],
      "stateMutability": "view",
      "type": "function"
    },
    {
      "inputs": [
        {
          "internalType": "uint256",
          "name": "index",
          "type": "uint256"
        }
      ],
      "name": "layer2ByIndex",
      "outputs": [
        {
          "internalType": "address",
          "name": "",
          "type": "address"
        }
      ],
      "stateMutability": "view",
      "type": "function"
    },
    {
      "inputs": [
        {
          "internalType": "address",
          "name": "layer2",
          "type": "address"
        }
      ],
      "name": "layer2s",
      "outputs": [
        {
          "internalType": "bool",
          "name": "",
          "type": "bool"
        }
      ],
      "stateMutability": "view",
      "type": "function"
    },
    {
      "inputs": [],
      "name": "numLayer2s",
      "outputs": [
        {
          "internalType": "uint256",
          "name": "",
          "type": "uint256"
        }
      ],
      "stateMutability": "view",
      "type": "function"
    },
    {
      "inputs": [],
      "name": "pauseProxy",
      "outputs": [
        {
          "internalType": "bool",
          "name": "",
          "type": "bool"
        }
      ],
      "stateMutability": "view",
      "type": "function"
    },
    {
      "inputs": [
        {
          "internalType": "uint256",
          "name": "",
          "type": "uint256"
        }
      ],
      "name": "proxyImplementation",
      "outputs": [
        {
          "internalType": "address",
          "name": "",
          "type": "address"
        }
      ],
      "stateMutability": "view",
      "type": "function"
    },
    {
      "inputs": [
        {
          "internalType": "address",
          "name": "layer2",
          "type": "address"
        }
      ],
      "name": "register",
      "outputs": [
        {
          "internalType": "bool",
          "name": "",
          "type": "bool"
        }
      ],
      "stateMutability": "nonpayable",
      "type": "function"
    },
    {
      "inputs": [
        {
          "internalType": "address",
          "name": "layer2",
          "type": "address"
        },
        {
          "internalType": "address",
          "name": "seigManager",
          "type": "address"
        }
      ],
      "name": "registerAndDeployCoinage",
      "outputs": [
        {
          "internalType": "bool",
          "name": "",
          "type": "bool"
        }
      ],
      "stateMutability": "nonpayable",
      "type": "function"
    },
    {
      "inputs": [
        {
          "internalType": "address",
          "name": "layer2",
          "type": "address"
        },
        {
          "internalType": "address",
          "name": "seigManager",
          "type": "address"
        },
        {
          "internalType": "uint256",
          "name": "commissionRate",
          "type": "uint256"
        },
        {
          "internalType": "bool",
          "name": "isCommissionRateNegative",
          "type": "bool"
        }
      ],
      "name": "registerAndDeployCoinageAndSetCommissionRate",
      "outputs": [
        {
          "internalType": "bool",
          "name": "",
          "type": "bool"
        }
      ],
      "stateMutability": "nonpayable",
      "type": "function"
    },
    {
      "inputs": [
        {
          "internalType": "address",
          "name": "account",
          "type": "address"
        }
      ],
      "name": "removeAdmin",
      "outputs": [],
      "stateMutability": "nonpayable",
      "type": "function"
    },
    {
      "inputs": [
        {
          "internalType": "address",
          "name": "account",
          "type": "address"
        }
      ],
      "name": "removeMinter",
      "outputs": [],
      "stateMutability": "nonpayable",
      "type": "function"
    },
    {
      "inputs": [
        {
          "internalType": "address",
          "name": "account",
          "type": "address"
        }
      ],
      "name": "removeOperator",
      "outputs": [],
      "stateMutability": "nonpayable",
      "type": "function"
    },
    {
      "inputs": [],
      "name": "renounceMinter",
      "outputs": [],
      "stateMutability": "nonpayable",
      "type": "function"
    },
    {
      "inputs": [],
      "name": "renounceOperator",
      "outputs": [],
      "stateMutability": "nonpayable",
      "type": "function"
    },
    {
      "inputs": [],
      "name": "renounceOwnership",
      "outputs": [],
      "stateMutability": "nonpayable",
      "type": "function"
    },
    {
      "inputs": [
        {
          "internalType": "bytes32",
          "name": "role",
          "type": "bytes32"
        },
        {
          "internalType": "address",
          "name": "callerConfirmation",
          "type": "address"
        }
      ],
      "name": "renounceRole",
      "outputs": [],
      "stateMutability": "nonpayable",
      "type": "function"
    },
    {
      "inputs": [
        {
          "internalType": "address",
          "name": "account",
          "type": "address"
        }
      ],
      "name": "revokeMinter",
      "outputs": [],
      "stateMutability": "nonpayable",
      "type": "function"
    },
    {
      "inputs": [
        {
          "internalType": "address",
          "name": "account",
          "type": "address"
        }
      ],
      "name": "revokeOperator",
      "outputs": [],
      "stateMutability": "nonpayable",
      "type": "function"
    },
    {
      "inputs": [
        {
          "internalType": "bytes32",
          "name": "role",
          "type": "bytes32"
        },
        {
          "internalType": "address",
          "name": "account",
          "type": "address"
        }
      ],
      "name": "revokeRole",
      "outputs": [],
      "stateMutability": "nonpayable",
      "type": "function"
    },
    {
      "inputs": [
        {
          "internalType": "bytes4",
          "name": "",
          "type": "bytes4"
        }
      ],
      "name": "selectorImplementation",
      "outputs": [
        {
          "internalType": "address",
          "name": "",
          "type": "address"
        }
      ],
      "stateMutability": "view",
      "type": "function"
    },
    {
      "inputs": [
        {
          "internalType": "bytes4",
          "name": "interfaceId",
          "type": "bytes4"
        }
      ],
      "name": "supportsInterface",
      "outputs": [
        {
          "internalType": "bool",
          "name": "",
          "type": "bool"
        }
      ],
      "stateMutability": "view",
      "type": "function"
    },
    {
      "inputs": [
        {
          "internalType": "address",
          "name": "newAdmin",
          "type": "address"
        }
      ],
      "name": "transferAdmin",
      "outputs": [],
      "stateMutability": "nonpayable",
      "type": "function"
    },
    {
      "inputs": [
        {
          "internalType": "address",
          "name": "newAdmin",
          "type": "address"
        }
      ],
      "name": "transferOwnership",
      "outputs": [],
      "stateMutability": "nonpayable",
      "type": "function"
    },
    {
      "inputs": [
        {
          "internalType": "address",
          "name": "layer2",
          "type": "address"
        }
      ],
      "name": "unregister",
      "outputs": [
        {
          "internalType": "bool",
          "name": "",
          "type": "bool"
        }
      ],
      "stateMutability": "nonpayable",
      "type": "function"
    }
  ],
  "bytecode": "0x608080604052346015576115a7908161001b8239f35b600080fdfe6080604081815260048036101561001557600080fd5b600092833560e01c90816301ffc9a714610d7f575080630d42d49714610d605780631785f53c14610d38578063248a9ca314610d0f57806324d7806c14610cca5780632ab6f8db14610cb05780632ec2c24614610c485780632f2ff15d14610c1e5780633092afd514610bf657806336568abe14610baf5780633eb2a66c14610a355780634420e4861461096757806350d2a27614610924578063550d01a3146108e657806361cdc5b8146108a857806363a8fd89146108865780636d70f7ae1461083357806370480275146107e1578063715018a6146107a857806375829def1461076c578063851086041461067b5780638f32d59b1461064a57806391d1485414610605578063983b2d56146105dd57806398650275146105c05780639870d7fe14610598578063a217fddf1461057d578063aa271e1a1461052a578063ac8a584a146104e9578063b7ffb179146104b7578063b911135f14610485578063bcb1a71e14610439578063cfbd4885146103d4578063d5391393146103ab578063d547741f14610371578063f2fde38b1461025e578063f5b541a6146102315763fad8b32a146101c557600080fd5b3461022d57602036600319011261022d576102246001610229936101e7610dd3565b938680528060205281872033885260205261020760ff8389205416610e04565b600080516020611532833981519152875260205285200154610f6b565b611238565b5080f35b8280fd5b50503461025a578160031936011261025a57602090516000805160206115328339815191528152f35b5080fd5b5082903461025a576020908160031936011261022d5761027c610dd3565b91838052818152848420338552815261029a60ff8686205416610e04565b83805281815284842033855281526102b760ff8686205416610e04565b6001600160a01b03831680156103335733146102f85783946102e692600192866102eb97525285200154610f6b565b610faf565b506102f533610e5c565b80f35b845162461bcd60e51b815291820152601660248201527520b1b1b2b9b9b4b136329d1039b0b6b29030b236b4b760511b604482015260649150fd5b855162461bcd60e51b8152808401839052601860248201527741636365737369626c653a207a65726f206164647265737360401b6044820152606490fd5b503461022d578160031936011261022d57610229916103a66001833592610396610dee565b9484885260205286200154610f6b565b611339565b50503461025a578160031936011261025a57602090516000805160206115128339815191528152f35b503461022d57602036600319011261022d576104346001610229936103f7610dd3565b938680528060205281872033885260205261041760ff8389205416610e04565b600080516020611512833981519152875260205285200154610f6b565b6111b0565b50503461025a578060031936011261025a57610453610dd3565b61045b610dee565b610464826113b6565b156104815761047291611489565b1561025a576020905160018152f35b8380fd5b503461022d57602036600319011261022d5735825260016020908152918190205490516001600160a01b039091168152f35b503461022d57602036600319011261022d5735825260076020908152918190205490516001600160a01b039091168152f35b503461022d57602036600319011261022d5761052560ff6102f59361050c610dd3565b9386805260205280862033875260205285205416610e04565b610e8a565b503461022d57602036600319011261022d578160209360ff9261054b610dd3565b60008051602061151283398151915283529086528282206001600160a01b039091168252855220549151911615158152f35b50503461025a578160031936011261025a5751908152602090f35b503461022d57602036600319011261022d576105bb6001610229936101e7610dd3565b6110bd565b83346105da57806003193601126105da576102f533610ea3565b80fd5b503461022d57602036600319011261022d576106006001610229936103f7610dd3565b61102e565b503461022d578160031936011261022d578160209360ff92610625610dee565b813583529086528282206001600160a01b039091168252855220549151911615158152f35b503461022d578260031936011261022d57818360ff9281602096528552818120338252855220541690519015158152f35b503461022d578160031936011261022d57610694610dd3565b61069c610dee565b916000805160206115128339815191528552602094818652848120338252865260ff85822054169182156106e9575b5050906106db6106e09392610f13565b611489565b90519015158152f35b855163570ca73560e01b81529192506001600160a01b03919087908290818786165afa92831561076157916106e0959493916106db9392610732575b50339116149192936106cb565b610753919250883d8a1161075a575b61074b8183610ebc565b810190610ef4565b9038610725565b503d610741565b8651903d90823e3d90fd5b5082903461025a576020908160031936011261022d5761078a610dd3565b9183805281815284842033855281526102b760ff8686205416610e04565b503461022d578260031936011261022d576107d89160ff9184805260205280842033855260205283205416610e04565b6102f533610e5c565b503461022d57602036600319011261022d576102e6600161022993610804610dd3565b938680528060205281872033885260205261082460ff8389205416610e04565b86805260205285200154610f6b565b503461022d57602036600319011261022d578160209360ff92610854610dd3565b60008051602061153283398151915283529086528282206001600160a01b039091168252855220549151911615158152f35b50503461025a578160031936011261025a5760ff602092541690519015158152f35b50503461025a57602036600319011261025a5760209160ff9082906001600160a01b036108d3610dd3565b1681526005855220541690519015158152f35b50503461025a57602036600319011261025a5760209160ff9082906001600160a01b03610911610dd3565b1681526002855220541690519015158152f35b503461022d57602036600319011261022d573563ffffffff60e01b811680910361022d57825260036020908152918190205490516001600160a01b039091168152f35b5091346105da576020928360031936011261025a57610984610dd3565b916000805160206115128339815191528152818552838120338252855260ff84822054169182156109c4575b5050906109bf6106e092610f13565b6113b6565b845163570ca73560e01b81529192506001600160a01b03919086908290818786165afa928315610a2a57916106e09493916109bf9392610a0b575b503391161491926109b0565b610a23919250873d891161075a5761074b8183610ebc565b90386109ff565b8551903d90823e3d90fd5b5091346105da5760803660031901126105da57610a50610dd3565b92610a59610dee565b60643594851515809603610481576000805160206115128339815191528452602095838752858520338652875260ff86862054168015610b49575b610a9d90610f13565b610aa6826113b6565b15610b4557610ab58383611489565b15610b4557855163211276b360e11b81526001600160a01b03928316948101949094526044803560248601528401528591839160649183918791165af1908115610b3b578291610b0e575b50156105da57505160018152f35b610b2e9150843d8611610b34575b610b268183610ebc565b81019061139e565b38610b00565b503d610b1c565b83513d84823e3d90fd5b8480fd5b50855163570ca73560e01b81526001600160a01b03888287818785165afa918215610ba55790610a9d92918892610b86575b501633149050610a94565b610b9e9192508a3d8c1161075a5761074b8183610ebc565b9038610b7b565b88513d89823e3d90fd5b5091903461025a578060031936011261025a57610bca610dee565b90336001600160a01b03831603610be75750610229919235611339565b5163334bd91960e11b81528390fd5b503461022d57602036600319011261022d57610c1960ff6102f59361050c610dd3565b610ea3565b503461022d578160031936011261022d5761022991610c436001833592610396610dee565b611147565b503461022d57602036600319011261022d57610c62610dd3565b90838052602052818320338452602052610c8160ff8385205416610e04565b6001600160a01b031682526005602052808220805460ff8116156104815760ff19169055516001815260209150f35b83346105da57806003193601126105da576102f533610e8a565b503461022d57602036600319011261022d578160209360ff92610ceb610dd3565b8280529086528282206001600160a01b039091168252855220549151911615158152f35b503461022d57602036600319011261022d57816020938260019335825285522001549051908152f35b503461022d57602036600319011261022d57610d5b60ff6102f59361050c610dd3565b610e5c565b50503461025a578160031936011261025a576020906006549051908152f35b9250503461022d57602036600319011261022d573563ffffffff60e01b811680910361022d5760209250637965db0b60e01b8114908115610dc2575b5015158152f35b6301ffc9a760e01b14905038610dbb565b600435906001600160a01b0382168203610de957565b600080fd5b602435906001600160a01b0382168203610de957565b15610e0b57565b60405162461bcd60e51b815260206004820152602360248201527f41757468436f6e74726f6c3a2043616c6c6572206973206e6f7420616e20616460448201526236b4b760e91b6064820152608490fd5b336001600160a01b03821603610e7857610e75906112c0565b50565b60405163334bd91960e11b8152600490fd5b336001600160a01b03821603610e7857610e7590611238565b336001600160a01b03821603610e7857610e75906111b0565b90601f8019910116810190811067ffffffffffffffff821117610ede57604052565b634e487b7160e01b600052604160045260246000fd5b90816020910312610de957516001600160a01b0381168103610de95790565b15610f1a57565b60405162461bcd60e51b8152602060048201526024808201527f73656e646572206973206e6569746865722061646d696e206e6f72206f70657260448201526330ba37b960e11b6064820152608490fd5b80600052600460205260406000203360005260205260ff6040600020541615610f915750565b6044906040519063e2517d3f60e01b82523360048301526024820152fd5b6001600160a01b031660008181527f17ef568e3e12ab5b9c7254a8d58478811de00f9e6eb34345acd53bf8fd09d3ec602052604081205490919060ff1661102a5781805260046020526040822081835260205260408220600160ff1982541617905533916000805160206114f28339815191528180a4600190565b5090565b6001600160a01b031660008181527fc8eb82122b0a761efb0e99f166311d3c9fc899bad9a87f4be6a6aaea831ff0e260205260408120549091906000805160206115128339815191529060ff166110b85780835260046020526040832082845260205260408320600160ff198254161790556000805160206114f2833981519152339380a4600190565b505090565b6001600160a01b031660008181527fd040eb565e09a47b48cd8067d32ca1f9075290bcdf8bb7535df4a4d0830da9f460205260408120549091906000805160206115328339815191529060ff166110b85780835260046020526040832082845260205260408320600160ff198254161790556000805160206114f2833981519152339380a4600190565b906000918083526004602052604083209160018060a01b03169182845260205260ff604084205416156000146110b85780835260046020526040832082845260205260408320600160ff198254161790556000805160206114f2833981519152339380a4600190565b6001600160a01b031660008181527fc8eb82122b0a761efb0e99f166311d3c9fc899bad9a87f4be6a6aaea831ff0e260205260408120549091906000805160206115128339815191529060ff16156110b8578083526004602052604083208284526020526040832060ff198154169055600080516020611552833981519152339380a4600190565b6001600160a01b031660008181527fd040eb565e09a47b48cd8067d32ca1f9075290bcdf8bb7535df4a4d0830da9f460205260408120549091906000805160206115328339815191529060ff16156110b8578083526004602052604083208284526020526040832060ff198154169055600080516020611552833981519152339380a4600190565b6001600160a01b031660008181527f17ef568e3e12ab5b9c7254a8d58478811de00f9e6eb34345acd53bf8fd09d3ec602052604081205490919060ff161561102a578180526004602052604082208183526020526040822060ff19815416905533916000805160206115528339815191528180a4600190565b906000918083526004602052604083209160018060a01b03169182845260205260ff6040842054166000146110b8578083526004602052604083208284526020526040832060ff198154169055600080516020611552833981519152339380a4600190565b90816020910312610de957518015158103610de95790565b6001600160a01b0316600081815260056020908152604082205491929160ff1661022d5760405163220bbb4b60e21b81528181600481865afa90811561147e578491611461575b501561022d576007908284526005815260408420600160ff19825416179055600654845252604082209060018060a01b0319825416179055600654906001820180921161144d5750600655600190565b634e487b7160e01b81526011600452602490fd5b6114789150823d8411610b3457610b268183610ebc565b386113fd565b6040513d86823e3d90fd5b60405163833a774f60e01b81526001600160a01b0391821660048201529160209183916024918391600091165af19081156114e5576000916114c9575090565b6114e2915060203d602011610b3457610b268183610ebc565b90565b6040513d6000823e3d90fdfe2f8788117e7eff1d82e926ec794901d17c78024a50270940304540a733656f0df0887ba65ee2024ea881d91b74c2450ef19e1557f03bed3ea9f16b037cbe2dc9523a704056dcd17bcf83bed8b68c59416dac1119be77755efe3bde0a64e46e0cf6391f5c32d9c69d2a47ea670b442974b53935d1edc7fd64eb21e047a839171ba264697066735822122087577b1894eb3180ca96c2cdf4a77a9a0e04d3cd842bc369c5baea1f3dddaeb464736f6c63430008190033",
  "linkReferences": {},
  "deployedLinkReferences": {}
}