{
  "_format": "hh-sol-artifact-1",
  "contractName": "Layer2Registry",
  "sourceName": "src/L1/Mock/Layer2Registry.sol",
  "abi": [
    {
      "inputs": [],
      "name": "AccessControlBadConfirmation",
      "type": "error"
    },
    {
      "inputs": [
        {
          "internalType": "address",
          "name": "account",
          "type": "address"
        },
        {
          "internalType": "bytes32",
          "name": "neededRole",
          "type": "bytes32"
        }
      ],
      "name": "AccessControlUnauthorizedAccount",
      "type": "error"
    },
    {
      "anonymous": false,
      "inputs": [
        {
          "indexed": true,
          "internalType": "bytes32",
          "name": "role",
          "type": "bytes32"
        },
        {
          "indexed": true,
          "internalType": "bytes32",
          "name": "previousAdminRole",
          "type": "bytes32"
        },
        {
          "indexed": true,
          "internalType": "bytes32",
          "name": "newAdminRole",
          "type": "bytes32"
        }
      ],
      "name": "RoleAdminChanged",
      "type": "event"
    },
    {
      "anonymous": false,
      "inputs": [
        {
          "indexed": true,
          "internalType": "bytes32",
          "name": "role",
          "type": "bytes32"
        },
        {
          "indexed": true,
          "internalType": "address",
          "name": "account",
          "type": "address"
        },
        {
          "indexed": true,
          "internalType": "address",
          "name": "sender",
          "type": "address"
        }
      ],
      "name": "RoleGranted",
      "type": "event"
    },
    {
      "anonymous": false,
      "inputs": [
        {
          "indexed": true,
          "internalType": "bytes32",
          "name": "role",
          "type": "bytes32"
        },
        {
          "indexed": true,
          "internalType": "address",
          "name": "account",
          "type": "address"
        },
        {
          "indexed": true,
          "internalType": "address",
          "name": "sender",
          "type": "address"
        }
      ],
      "name": "RoleRevoked",
      "type": "event"
    },
    {
      "inputs": [],
      "name": "DEFAULT_ADMIN_ROLE",
      "outputs": [
        {
          "internalType": "bytes32",
          "name": "",
          "type": "bytes32"
        }
      ],
      "stateMutability": "view",
      "type": "function"
    },
    {
      "inputs": [],
      "name": "MINTER_ROLE",
      "outputs": [
        {
          "internalType": "bytes32",
          "name": "",
          "type": "bytes32"
        }
      ],
      "stateMutability": "view",
      "type": "function"
    },
    {
      "inputs": [],
      "name": "OPERATOR_ROLE",
      "outputs": [
        {
          "internalType": "bytes32",
          "name": "",
          "type": "bytes32"
        }
      ],
      "stateMutability": "view",
      "type": "function"
    },
    {
      "inputs": [
        {
          "internalType": "address",
          "name": "account",
          "type": "address"
        }
      ],
      "name": "addAdmin",
      "outputs": [],
      "stateMutability": "nonpayable",
      "type": "function"
    },
    {
      "inputs": [
        {
          "internalType": "address",
          "name": "account",
          "type": "address"
        }
      ],
      "name": "addMinter",
      "outputs": [],
      "stateMutability": "nonpayable",
      "type": "function"
    },
    {
      "inputs": [
        {
          "internalType": "address",
          "name": "account",
          "type": "address"
        }
      ],
      "name": "addOperator",
      "outputs": [],
      "stateMutability": "nonpayable",
      "type": "function"
    },
    {
      "inputs": [
        {
          "internalType": "address",
          "name": "",
          "type": "address"
        }
      ],
      "name": "aliveImplementation",
      "outputs": [
        {
          "internalType": "bool",
          "name": "",
          "type": "bool"
        }
      ],
      "stateMutability": "view",
      "type": "function"
    },
    {
      "inputs": [
        {
          "internalType": "address",
          "name": "layer2",
          "type": "address"
        },
        {
          "internalType": "address",
          "name": "seigManager",
          "type": "address"
        }
      ],
      "name": "deployCoinage",
      "outputs": [
        {
          "internalType": "bool",
          "name": "",
          "type": "bool"
        }
      ],
      "stateMutability": "nonpayable",
      "type": "function"
    },
    {
      "inputs": [
        {
          "internalType": "bytes32",
          "name": "role",
          "type": "bytes32"
        }
      ],
      "name": "getRoleAdmin",
      "outputs": [
        {
          "internalType": "bytes32",
          "name": "",
          "type": "bytes32"
        }
      ],
      "stateMutability": "view",
      "type": "function"
    },
    {
      "inputs": [
        {
          "internalType": "bytes32",
          "name": "role",
          "type": "bytes32"
        },
        {
          "internalType": "address",
          "name": "account",
          "type": "address"
        }
      ],
      "name": "grantRole",
      "outputs": [],
      "stateMutability": "nonpayable",
      "type": "function"
    },
    {
      "inputs": [
        {
          "internalType": "bytes32",
          "name": "role",
          "type": "bytes32"
        },
        {
          "internalType": "address",
          "name": "account",
          "type": "address"
        }
      ],
      "name": "hasRole",
      "outputs": [
        {
          "internalType": "bool",
          "name": "",
          "type": "bool"
        }
      ],
      "stateMutability": "view",
      "type": "function"
    },
    {
      "inputs": [
        {
          "internalType": "address",
          "name": "account",
          "type": "address"
        }
      ],
      "name": "isAdmin",
      "outputs": [
        {
          "internalType": "bool",
          "name": "",
          "type": "bool"
        }
      ],
      "stateMutability": "view",
      "type": "function"
    },
    {
      "inputs": [
        {
          "internalType": "address",
          "name": "account",
          "type": "address"
        }
      ],
      "name": "isMinter",
      "outputs": [
        {
          "internalType": "bool",
          "name": "",
          "type": "bool"
        }
      ],
      "stateMutability": "view",
      "type": "function"
    },
    {
      "inputs": [
        {
          "internalType": "address",
          "name": "account",
          "type": "address"
        }
      ],
      "name": "isOperator",
      "outputs": [
        {
          "internalType": "bool",
          "name": "",
          "type": "bool"
        }
      ],
      "stateMutability": "view",
      "type": "function"
    },
    {
      "inputs": [],
      "name": "isOwner",
      "outputs": [
        {
          "internalType": "bool",
          "name": "",
          "type": "bool"
        }
      ],
      "stateMutability": "view",
      "type": "function"
    },
    {
      "inputs": [
        {
          "internalType": "uint256",
          "name": "index",
          "type": "uint256"
        }
      ],
      "name": "layer2ByIndex",
      "outputs": [
        {
          "internalType": "address",
          "name": "",
          "type": "address"
        }
      ],
      "stateMutability": "view",
      "type": "function"
    },
    {
      "inputs": [
        {
          "internalType": "address",
          "name": "layer2",
          "type": "address"
        }
      ],
      "name": "layer2s",
      "outputs": [
        {
          "internalType": "bool",
          "name": "",
          "type": "bool"
        }
      ],
      "stateMutability": "view",
      "type": "function"
    },
    {
      "inputs": [],
      "name": "numLayer2s",
      "outputs": [
        {
          "internalType": "uint256",
          "name": "",
          "type": "uint256"
        }
      ],
      "stateMutability": "view",
      "type": "function"
    },
    {
      "inputs": [],
      "name": "pauseProxy",
      "outputs": [
        {
          "internalType": "bool",
          "name": "",
          "type": "bool"
        }
      ],
      "stateMutability": "view",
      "type": "function"
    },
    {
      "inputs": [
        {
          "internalType": "uint256",
          "name": "",
          "type": "uint256"
        }
      ],
      "name": "proxyImplementation",
      "outputs": [
        {
          "internalType": "address",
          "name": "",
          "type": "address"
        }
      ],
      "stateMutability": "view",
      "type": "function"
    },
    {
      "inputs": [
        {
          "internalType": "address",
          "name": "layer2",
          "type": "address"
        }
      ],
      "name": "register",
      "outputs": [
        {
          "internalType": "bool",
          "name": "",
          "type": "bool"
        }
      ],
      "stateMutability": "nonpayable",
      "type": "function"
    },
    {
      "inputs": [
        {
          "internalType": "address",
          "name": "layer2",
          "type": "address"
        },
        {
          "internalType": "address",
          "name": "seigManager",
          "type": "address"
        }
      ],
      "name": "registerAndDeployCoinage",
      "outputs": [
        {
          "internalType": "bool",
          "name": "",
          "type": "bool"
        }
      ],
      "stateMutability": "nonpayable",
      "type": "function"
    },
    {
      "inputs": [
        {
          "internalType": "address",
          "name": "layer2",
          "type": "address"
        },
        {
          "internalType": "address",
          "name": "seigManager",
          "type": "address"
        },
        {
          "internalType": "uint256",
          "name": "commissionRate",
          "type": "uint256"
        },
        {
          "internalType": "bool",
          "name": "isCommissionRateNegative",
          "type": "bool"
        }
      ],
      "name": "registerAndDeployCoinageAndSetCommissionRate",
      "outputs": [
        {
          "internalType": "bool",
          "name": "",
          "type": "bool"
        }
      ],
      "stateMutability": "nonpayable",
      "type": "function"
    },
    {
      "inputs": [
        {
          "internalType": "address",
          "name": "account",
          "type": "address"
        }
      ],
      "name": "removeAdmin",
      "outputs": [],
      "stateMutability": "nonpayable",
      "type": "function"
    },
    {
      "inputs": [
        {
          "internalType": "address",
          "name": "account",
          "type": "address"
        }
      ],
      "name": "removeMinter",
      "outputs": [],
      "stateMutability": "nonpayable",
      "type": "function"
    },
    {
      "inputs": [
        {
          "internalType": "address",
          "name": "account",
          "type": "address"
        }
      ],
      "name": "removeOperator",
      "outputs": [],
      "stateMutability": "nonpayable",
      "type": "function"
    },
    {
      "inputs": [],
      "name": "renounceMinter",
      "outputs": [],
      "stateMutability": "nonpayable",
      "type": "function"
    },
    {
      "inputs": [],
      "name": "renounceOperator",
      "outputs": [],
      "stateMutability": "nonpayable",
      "type": "function"
    },
    {
      "inputs": [],
      "name": "renounceOwnership",
      "outputs": [],
      "stateMutability": "nonpayable",
      "type": "function"
    },
    {
      "inputs": [
        {
          "internalType": "bytes32",
          "name": "role",
          "type": "bytes32"
        },
        {
          "internalType": "address",
          "name": "callerConfirmation",
          "type": "address"
        }
      ],
      "name": "renounceRole",
      "outputs": [],
      "stateMutability": "nonpayable",
      "type": "function"
    },
    {
      "inputs": [
        {
          "internalType": "address",
          "name": "account",
          "type": "address"
        }
      ],
      "name": "revokeMinter",
      "outputs": [],
      "stateMutability": "nonpayable",
      "type": "function"
    },
    {
      "inputs": [
        {
          "internalType": "address",
          "name": "account",
          "type": "address"
        }
      ],
      "name": "revokeOperator",
      "outputs": [],
      "stateMutability": "nonpayable",
      "type": "function"
    },
    {
      "inputs": [
        {
          "internalType": "bytes32",
          "name": "role",
          "type": "bytes32"
        },
        {
          "internalType": "address",
          "name": "account",
          "type": "address"
        }
      ],
      "name": "revokeRole",
      "outputs": [],
      "stateMutability": "nonpayable",
      "type": "function"
    },
    {
      "inputs": [
        {
          "internalType": "bytes4",
          "name": "",
          "type": "bytes4"
        }
      ],
      "name": "selectorImplementation",
      "outputs": [
        {
          "internalType": "address",
          "name": "",
          "type": "address"
        }
      ],
      "stateMutability": "view",
      "type": "function"
    },
    {
      "inputs": [
        {
          "internalType": "bytes4",
          "name": "interfaceId",
          "type": "bytes4"
        }
      ],
      "name": "supportsInterface",
      "outputs": [
        {
          "internalType": "bool",
          "name": "",
          "type": "bool"
        }
      ],
      "stateMutability": "view",
      "type": "function"
    },
    {
      "inputs": [
        {
          "internalType": "address",
          "name": "newAdmin",
          "type": "address"
        }
      ],
      "name": "transferAdmin",
      "outputs": [],
      "stateMutability": "nonpayable",
      "type": "function"
    },
    {
      "inputs": [
        {
          "internalType": "address",
          "name": "newAdmin",
          "type": "address"
        }
      ],
      "name": "transferOwnership",
      "outputs": [],
      "stateMutability": "nonpayable",
      "type": "function"
    },
    {
      "inputs": [
        {
          "internalType": "address",
          "name": "layer2",
          "type": "address"
        }
      ],
      "name": "unregister",
      "outputs": [
        {
          "internalType": "bool",
          "name": "",
          "type": "bool"
        }
      ],
      "stateMutability": "nonpayable",
      "type": "function"
    }
  ],
  "bytecode": "0x608080604052346051576301ffc9a760e01b60005260046020527f9fe05126d2d9ecf60592e254dead906a4b2e492f36cca727682c38e9008c6ac1805460ff191660011790556115dd90816100578239f35b600080fdfe608060408181526004918236101561001657600080fd5b600092833560e01c91826301ffc9a714610da8575081630d42d49714610d895781631785f53c14610d60578163248a9ca314610d3557816324d7806c14610cef5781632ab6f8db14610cd55781632ec2c24614610c6b5781632f2ff15d14610c415781633092afd514610c1857816336568abe14610bd25781633eb2a66c14610a575781634420e4861461098857816350d2a27614610944578163550d01a31461090657816361cdc5b8146108c857816363a8fd89146108a65781636d70f7ae1461085257816370480275146107fc578163715018a6146107c157816375829def1461078557816385108604146106925781638f32d59b1461065f57816391d1485414610618578163983b2d56146105ef57816398650275146105d25781639870d7fe146105a9578163a217fddf1461058e578163aa271e1a1461053a578163ac8a584a146104f6578163b7ffb179146104c3578163b911135f14610490578163bcb1a71e14610448578163cfbd4885146103df578163d5391393146103b6578163d547741f1461037a578163f2fde38b1461025e57508063f5b541a6146102365763fad8b32a146101c757600080fd5b346102325760203660031901126102325761022e9061022960016101e9610de0565b92858052600560205280862033875260205261020a60ff8288205416610e11565b6000805160206115688339815191528652600560205285200154610fa4565b611271565b5080f35b5080fd5b5034610232578160031936011261023257602090516000805160206115688339815191528152f35b91905034610376576020806003193601126103725761027b610de0565b9284805260058252828520338652825261029a60ff8487205416610e11565b8480526005825282852033865282526102b860ff8487205416610e11565b6001600160a01b03841680156103355733146102fb575060016102ee939260056102e9938780525285200154610fa4565b610fe8565b506102f833610e69565b80f35b915162461bcd60e51b815291820152601660248201527520b1b1b2b9b9b4b136329d1039b0b6b29030b236b4b760511b6044820152606490fd5b50915162461bcd60e51b815291820152601860248201527741636365737369626c653a207a65726f206164647265737360401b6044820152606490fd5b8380fd5b8280fd5b9190503461037657806003193601126103765761022e91356103b1600161039f610dfb565b93838752600560205286200154610fa4565b611372565b505034610232578160031936011261023257602090516000805160206115488339815191528152f35b5050346102325760203660031901126102325761022e906104436001610403610de0565b92858052600560205280862033875260205261042460ff8288205416610e11565b6000805160206115488339815191528652600560205285200154610fa4565b6111e9565b505034610232578060031936011261023257610462610de0565b61046a610dfb565b610473826113ef565b1561037257610481916114c2565b15610232576020905160018152f35b9050346103765760203660031901126103765735825260016020908152918190205490516001600160a01b039091168152f35b9050346103765760203660031901126103765735825260086020908152918190205490516001600160a01b039091168152f35b505034610232576020366003190112610232576102f89061053560ff61051a610de0565b92858052600560205280862033875260205285205416610e11565b610e97565b5050346102325760203660031901126102325760ff8160209361055b610de0565b6000805160206115488339815191528252600586528282206001600160a01b039091168252855220549151911615158152f35b50503461023257816003193601126102325751908152602090f35b5050346102325760203660031901126102325761022e906105cd60016101e9610de0565b6110f6565b83346105ec57806003193601126105ec576102f833610eb0565b80fd5b5050346102325760203660031901126102325761022e906106136001610403610de0565b611067565b9050346103765781600319360112610376578160209360ff92610639610dfb565b90358252600586528282206001600160a01b039091168252855220549151911615158152f35b50503461023257816003193601126102325760ff8183806020955260058552818120338252855220541690519015158152f35b9050346103765781600319360112610376576106ac610de0565b6106b4610dfb565b91600080516020611548833981519152855260209460058652848120338252865260ff8582205416918215610702575b5050906106f46106f99392610f20565b6114c2565b90519015158152f35b855163570ca73560e01b81529192506001600160a01b03919087908290818786165afa92831561077a57916106f9959493916106f4939261074b575b50339116149192936106e4565b61076c919250883d8a11610773575b6107648183610ec9565b810190610f01565b903861073e565b503d61075a565b8651903d90823e3d90fd5b9190503461037657602080600319360112610372576107a2610de0565b928480526005825282852033865282526102b860ff8487205416610e11565b50503461023257816003193601126102325760ff6107f391838052600560205280842033855260205283205416610e11565b6102f833610e69565b5050346102325760203660031901126102325761022e906102e96001610820610de0565b92858052600560205280862033875260205261084160ff8288205416610e11565b858052600560205285200154610fa4565b5050346102325760203660031901126102325760ff81602093610873610de0565b6000805160206115688339815191528252600586528282206001600160a01b039091168252855220549151911615158152f35b50503461023257816003193601126102325760ff602092541690519015158152f35b5050346102325760203660031901126102325760209160ff9082906001600160a01b036108f3610de0565b1681526006855220541690519015158152f35b5050346102325760203660031901126102325760209160ff9082906001600160a01b03610931610de0565b1681526002855220541690519015158152f35b905034610376576020366003190112610376573563ffffffff60e01b811680910361037657825260036020908152918190205490516001600160a01b039091168152f35b8284346105ec5760209283600319360112610232576109a5610de0565b91600080516020611548833981519152815260058552838120338252855260ff84822054169182156109e6575b5050906109e16106f992610f20565b6113ef565b845163570ca73560e01b81529192506001600160a01b03919086908290818786165afa928315610a4c57916106f99493916109e19392610a2d575b503391161491926109d2565b610a45919250873d8911610773576107648183610ec9565b9087610a21565b8551903d90823e3d90fd5b8284346105ec5760803660031901126105ec57610a72610de0565b92610a7b610dfb565b6064359485151580960361037257600080516020611548833981519152845260209560058752858520338652875260ff86862054168015610b6c575b610ac090610f20565b610ac9826113ef565b15610b6857610ad883836114c2565b15610b6857855163211276b360e11b81526001600160a01b03928316948101949094526044803560248601528401528591839160649183918791165af1908115610b5e578291610b31575b50156105ec57505160018152f35b610b519150843d8611610b57575b610b498183610ec9565b8101906113d7565b84610b23565b503d610b3f565b83513d84823e3d90fd5b8480fd5b50855163570ca73560e01b81526001600160a01b03888287818785165afa918215610bc85790610ac092918892610ba9575b501633149050610ab7565b610bc19192508a3d8c11610773576107648183610ec9565b908a610b9e565b88513d89823e3d90fd5b838334610232578060031936011261023257610bec610dfb565b90336001600160a01b03831603610c09575061022e919235611372565b5163334bd91960e11b81528390fd5b505034610232576020366003190112610232576102f890610c3c60ff61051a610de0565b610eb0565b9190503461037657806003193601126103765761022e9135610c66600161039f610dfb565b611180565b50503461023257602036600319011261023257610c86610de0565b8280526005602052818320338452602052610ca660ff8385205416610e11565b6001600160a01b031682526006602052808220805460ff8116156103725760ff19169055516001815260209150f35b83346105ec57806003193601126105ec576102f833610e97565b5050346102325760203660031901126102325760ff81602093610d10610de0565b818052600586528282206001600160a01b039091168252855220549151911615158152f35b9050346103765760203660031901126103765781602093600192358152600585522001549051908152f35b505034610232576020366003190112610232576102f890610d8460ff61051a610de0565b610e69565b5050346102325781600319360112610232576020906007549051908152f35b8491346103765760203660031901126103765735916001600160e01b0319831683036105ec5750610dda602092610f78565b15158152f35b600435906001600160a01b0382168203610df657565b600080fd5b602435906001600160a01b0382168203610df657565b15610e1857565b60405162461bcd60e51b815260206004820152602360248201527f41757468436f6e74726f6c3a2043616c6c6572206973206e6f7420616e20616460448201526236b4b760e91b6064820152608490fd5b336001600160a01b03821603610e8557610e82906112f9565b50565b60405163334bd91960e11b8152600490fd5b336001600160a01b03821603610e8557610e8290611271565b336001600160a01b03821603610e8557610e82906111e9565b90601f8019910116810190811067ffffffffffffffff821117610eeb57604052565b634e487b7160e01b600052604160045260246000fd5b90816020910312610df657516001600160a01b0381168103610df65790565b15610f2757565b60405162461bcd60e51b8152602060048201526024808201527f73656e646572206973206e6569746865722061646d696e206e6f72206f70657260448201526330ba37b960e11b6064820152608490fd5b6001600160e01b03198116637965db0b60e01b14908115610f97575090565b610fa19150610f78565b90565b80600052600560205260406000203360005260205260ff6040600020541615610fca5750565b6044906040519063e2517d3f60e01b82523360048301526024820152fd5b6001600160a01b031660008181527f05b8ccbb9d4d8fb16ea74ce3c29a41f1b461fbdaff4714a0d9a8eb05499746bc602052604081205490919060ff166110635781805260056020526040822081835260205260408220600160ff1982541617905533916000805160206115288339815191528180a4600190565b5090565b6001600160a01b031660008181527fca0a2f641ec05ca23127d994cf03ffc453db616acae0b86cb56bb95304d0685460205260408120549091906000805160206115488339815191529060ff166110f15780835260056020526040832082845260205260408320600160ff19825416179055600080516020611528833981519152339380a4600190565b505090565b6001600160a01b031660008181527f02634a7c777b8129955fe1824eee49ef19dfa96f2f4cb63212492c3d84eb58e660205260408120549091906000805160206115688339815191529060ff166110f15780835260056020526040832082845260205260408320600160ff19825416179055600080516020611528833981519152339380a4600190565b906000918083526005602052604083209160018060a01b03169182845260205260ff604084205416156000146110f15780835260056020526040832082845260205260408320600160ff19825416179055600080516020611528833981519152339380a4600190565b6001600160a01b031660008181527fca0a2f641ec05ca23127d994cf03ffc453db616acae0b86cb56bb95304d0685460205260408120549091906000805160206115488339815191529060ff16156110f1578083526005602052604083208284526020526040832060ff198154169055600080516020611588833981519152339380a4600190565b6001600160a01b031660008181527f02634a7c777b8129955fe1824eee49ef19dfa96f2f4cb63212492c3d84eb58e660205260408120549091906000805160206115688339815191529060ff16156110f1578083526005602052604083208284526020526040832060ff198154169055600080516020611588833981519152339380a4600190565b6001600160a01b031660008181527f05b8ccbb9d4d8fb16ea74ce3c29a41f1b461fbdaff4714a0d9a8eb05499746bc602052604081205490919060ff1615611063578180526005602052604082208183526020526040822060ff19815416905533916000805160206115888339815191528180a4600190565b906000918083526005602052604083209160018060a01b03169182845260205260ff6040842054166000146110f1578083526005602052604083208284526020526040832060ff198154169055600080516020611588833981519152339380a4600190565b90816020910312610df657518015158103610df65790565b6001600160a01b0316600081815260066020908152604082205491929160ff166103765760405163220bbb4b60e21b81528181600481865afa9081156114b757849161149a575b5015610376576008908284526006815260408420600160ff19825416179055600754845252604082209060018060a01b031982541617905560075490600182018092116114865750600755600190565b634e487b7160e01b81526011600452602490fd5b6114b19150823d8411610b5757610b498183610ec9565b38611436565b6040513d86823e3d90fd5b60405163833a774f60e01b81526001600160a01b0391821660048201529160209183916024918391600091165af190811561151b57600091611502575090565b610fa1915060203d602011610b5757610b498183610ec9565b6040513d6000823e3d90fdfe2f8788117e7eff1d82e926ec794901d17c78024a50270940304540a733656f0df0887ba65ee2024ea881d91b74c2450ef19e1557f03bed3ea9f16b037cbe2dc9523a704056dcd17bcf83bed8b68c59416dac1119be77755efe3bde0a64e46e0cf6391f5c32d9c69d2a47ea670b442974b53935d1edc7fd64eb21e047a839171ba26469706673582212202fc4d54fcd5ad0c5eb47108095ae311ef79105ea367c49b5fcc814c24b6afa7d64736f6c63430008190033",
  "linkReferences": {},
  "deployedLinkReferences": {}
}