{
  "_format": "hh-sol-artifact-1",
  "contractName": "SeigManager",
  "sourceName": "src/L1/Mock/SeigManager.sol",
  "abi": [
    {
      "inputs": [],
      "name": "AccessControlBadConfirmation",
      "type": "error"
    },
    {
      "inputs": [
        {
          "internalType": "address",
          "name": "account",
          "type": "address"
        },
        {
          "internalType": "bytes32",
          "name": "neededRole",
          "type": "bytes32"
        }
      ],
      "name": "AccessControlUnauthorizedAccount",
      "type": "error"
    },
    {
      "anonymous": false,
      "inputs": [
        {
          "indexed": false,
          "internalType": "address",
          "name": "layer2",
          "type": "address"
        },
        {
          "indexed": false,
          "internalType": "uint256",
          "name": "seigs",
          "type": "uint256"
        },
        {
          "indexed": false,
          "internalType": "uint256",
          "name": "operatorSeigs",
          "type": "uint256"
        },
        {
          "indexed": false,
          "internalType": "uint256",
          "name": "nextTotalSupply",
          "type": "uint256"
        },
        {
          "indexed": false,
          "internalType": "uint256",
          "name": "prevTotalSupply",
          "type": "uint256"
        }
      ],
      "name": "AddedSeigAtLayer",
      "type": "event"
    },
    {
      "anonymous": false,
      "inputs": [
        {
          "indexed": true,
          "internalType": "address",
          "name": "layer2",
          "type": "address"
        },
        {
          "indexed": false,
          "internalType": "address",
          "name": "coinage",
          "type": "address"
        }
      ],
      "name": "CoinageCreated",
      "type": "event"
    },
    {
      "anonymous": false,
      "inputs": [
        {
          "indexed": true,
          "internalType": "address",
          "name": "layer2",
          "type": "address"
        }
      ],
      "name": "Comitted",
      "type": "event"
    },
    {
      "anonymous": false,
      "inputs": [
        {
          "indexed": true,
          "internalType": "address",
          "name": "layer2",
          "type": "address"
        },
        {
          "indexed": false,
          "internalType": "uint256",
          "name": "previousRate",
          "type": "uint256"
        },
        {
          "indexed": false,
          "internalType": "uint256",
          "name": "newRate",
          "type": "uint256"
        }
      ],
      "name": "CommissionRateSet",
      "type": "event"
    },
    {
      "anonymous": false,
      "inputs": [
        {
          "indexed": false,
          "internalType": "string",
          "name": "message",
          "type": "string"
        },
        {
          "indexed": false,
          "internalType": "uint256",
          "name": "value1",
          "type": "uint256"
        },
        {
          "indexed": false,
          "internalType": "uint256",
          "name": "value2",
          "type": "uint256"
        }
      ],
      "name": "LogValues",
      "type": "event"
    },
    {
      "anonymous": false,
      "inputs": [
        {
          "indexed": false,
          "internalType": "uint256",
          "name": "snapshotId",
          "type": "uint256"
        }
      ],
      "name": "OnSnapshot",
      "type": "event"
    },
    {
      "anonymous": false,
      "inputs": [
        {
          "indexed": false,
          "internalType": "address",
          "name": "account",
          "type": "address"
        }
      ],
      "name": "Paused",
      "type": "event"
    },
    {
      "anonymous": false,
      "inputs": [
        {
          "indexed": true,
          "internalType": "bytes32",
          "name": "role",
          "type": "bytes32"
        },
        {
          "indexed": true,
          "internalType": "bytes32",
          "name": "previousAdminRole",
          "type": "bytes32"
        },
        {
          "indexed": true,
          "internalType": "bytes32",
          "name": "newAdminRole",
          "type": "bytes32"
        }
      ],
      "name": "RoleAdminChanged",
      "type": "event"
    },
    {
      "anonymous": false,
      "inputs": [
        {
          "indexed": true,
          "internalType": "bytes32",
          "name": "role",
          "type": "bytes32"
        },
        {
          "indexed": true,
          "internalType": "address",
          "name": "account",
          "type": "address"
        },
        {
          "indexed": true,
          "internalType": "address",
          "name": "sender",
          "type": "address"
        }
      ],
      "name": "RoleGranted",
      "type": "event"
    },
    {
      "anonymous": false,
      "inputs": [
        {
          "indexed": true,
          "internalType": "bytes32",
          "name": "role",
          "type": "bytes32"
        },
        {
          "indexed": true,
          "internalType": "address",
          "name": "account",
          "type": "address"
        },
        {
          "indexed": true,
          "internalType": "address",
          "name": "sender",
          "type": "address"
        }
      ],
      "name": "RoleRevoked",
      "type": "event"
    },
    {
      "anonymous": false,
      "inputs": [
        {
          "indexed": true,
          "internalType": "address",
          "name": "layer2",
          "type": "address"
        },
        {
          "indexed": false,
          "internalType": "uint256",
          "name": "totalSeig",
          "type": "uint256"
        },
        {
          "indexed": false,
          "internalType": "uint256",
          "name": "stakedSeig",
          "type": "uint256"
        },
        {
          "indexed": false,
          "internalType": "uint256",
          "name": "unstakedSeig",
          "type": "uint256"
        },
        {
          "indexed": false,
          "internalType": "uint256",
          "name": "powertonSeig",
          "type": "uint256"
        },
        {
          "indexed": false,
          "internalType": "uint256",
          "name": "daoSeig",
          "type": "uint256"
        },
        {
          "indexed": false,
          "internalType": "uint256",
          "name": "pseig",
          "type": "uint256"
        }
      ],
      "name": "SeigGiven",
      "type": "event"
    },
    {
      "anonymous": false,
      "inputs": [
        {
          "indexed": false,
          "internalType": "uint256",
          "name": "daoSeigRate",
          "type": "uint256"
        }
      ],
      "name": "SetDaoSeigRate",
      "type": "event"
    },
    {
      "anonymous": false,
      "inputs": [
        {
          "indexed": false,
          "internalType": "uint256",
          "name": "powerTONSeigRate",
          "type": "uint256"
        }
      ],
      "name": "SetPowerTONSeigRate",
      "type": "event"
    },
    {
      "anonymous": false,
      "inputs": [
        {
          "indexed": false,
          "internalType": "uint256",
          "name": "pseigRate",
          "type": "uint256"
        }
      ],
      "name": "SetPseigRate",
      "type": "event"
    },
    {
      "anonymous": false,
      "inputs": [
        {
          "indexed": false,
          "internalType": "address",
          "name": "_to",
          "type": "address"
        },
        {
          "indexed": false,
          "internalType": "uint256",
          "name": "amount",
          "type": "uint256"
        }
      ],
      "name": "Transferred",
      "type": "event"
    },
    {
      "anonymous": false,
      "inputs": [
        {
          "indexed": false,
          "internalType": "address",
          "name": "account",
          "type": "address"
        }
      ],
      "name": "Unpaused",
      "type": "event"
    },
    {
      "anonymous": false,
      "inputs": [
        {
          "indexed": false,
          "internalType": "uint256",
          "name": "coinageBurnAmount",
          "type": "uint256"
        },
        {
          "indexed": false,
          "internalType": "uint256",
          "name": "totBurnAmount",
          "type": "uint256"
        }
      ],
      "name": "UnstakeLog",
      "type": "event"
    },
    {
      "inputs": [],
      "name": "CHALLENGER_ROLE",
      "outputs": [
        {
          "internalType": "bytes32",
          "name": "",
          "type": "bytes32"
        }
      ],
      "stateMutability": "view",
      "type": "function"
    },
    {
      "inputs": [],
      "name": "DEFAULT_ADMIN_ROLE",
      "outputs": [
        {
          "internalType": "bytes32",
          "name": "",
          "type": "bytes32"
        }
      ],
      "stateMutability": "view",
      "type": "function"
    },
    {
      "inputs": [],
      "name": "DEFAULT_FACTOR",
      "outputs": [
        {
          "internalType": "uint256",
          "name": "",
          "type": "uint256"
        }
      ],
      "stateMutability": "pure",
      "type": "function"
    },
    {
      "inputs": [],
      "name": "MAX_VALID_COMMISSION",
      "outputs": [
        {
          "internalType": "uint256",
          "name": "",
          "type": "uint256"
        }
      ],
      "stateMutability": "view",
      "type": "function"
    },
    {
      "inputs": [],
      "name": "MINTER_ROLE",
      "outputs": [
        {
          "internalType": "bytes32",
          "name": "",
          "type": "bytes32"
        }
      ],
      "stateMutability": "view",
      "type": "function"
    },
    {
      "inputs": [],
      "name": "MIN_VALID_COMMISSION",
      "outputs": [
        {
          "internalType": "uint256",
          "name": "",
          "type": "uint256"
        }
      ],
      "stateMutability": "view",
      "type": "function"
    },
    {
      "inputs": [],
      "name": "OPERATOR_ROLE",
      "outputs": [
        {
          "internalType": "bytes32",
          "name": "",
          "type": "bytes32"
        }
      ],
      "stateMutability": "view",
      "type": "function"
    },
    {
      "inputs": [],
      "name": "PAUSE_ROLE",
      "outputs": [
        {
          "internalType": "bytes32",
          "name": "",
          "type": "bytes32"
        }
      ],
      "stateMutability": "view",
      "type": "function"
    },
    {
      "inputs": [],
      "name": "RAY",
      "outputs": [
        {
          "internalType": "uint256",
          "name": "",
          "type": "uint256"
        }
      ],
      "stateMutability": "view",
      "type": "function"
    },
    {
      "inputs": [],
      "name": "accRelativeSeig",
      "outputs": [
        {
          "internalType": "uint256",
          "name": "",
          "type": "uint256"
        }
      ],
      "stateMutability": "view",
      "type": "function"
    },
    {
      "inputs": [
        {
          "internalType": "address",
          "name": "account",
          "type": "address"
        }
      ],
      "name": "addAdmin",
      "outputs": [],
      "stateMutability": "nonpayable",
      "type": "function"
    },
    {
      "inputs": [
        {
          "internalType": "address",
          "name": "account",
          "type": "address"
        }
      ],
      "name": "addChallenger",
      "outputs": [],
      "stateMutability": "nonpayable",
      "type": "function"
    },
    {
      "inputs": [
        {
          "internalType": "address",
          "name": "account",
          "type": "address"
        }
      ],
      "name": "addMinter",
      "outputs": [],
      "stateMutability": "nonpayable",
      "type": "function"
    },
    {
      "inputs": [
        {
          "internalType": "address",
          "name": "account",
          "type": "address"
        }
      ],
      "name": "addOperator",
      "outputs": [],
      "stateMutability": "nonpayable",
      "type": "function"
    },
    {
      "inputs": [
        {
          "internalType": "address",
          "name": "layer2",
          "type": "address"
        },
        {
          "internalType": "address",
          "name": "account",
          "type": "address"
        },
        {
          "internalType": "uint256",
          "name": "amount",
          "type": "uint256"
        }
      ],
      "name": "additionalTotBurnAmount",
      "outputs": [
        {
          "internalType": "uint256",
          "name": "totAmount",
          "type": "uint256"
        }
      ],
      "stateMutability": "view",
      "type": "function"
    },
    {
      "inputs": [],
      "name": "adjustCommissionDelay",
      "outputs": [
        {
          "internalType": "uint256",
          "name": "",
          "type": "uint256"
        }
      ],
      "stateMutability": "view",
      "type": "function"
    },
    {
      "inputs": [
        {
          "internalType": "address",
          "name": "",
          "type": "address"
        }
      ],
      "name": "aliveImplementation",
      "outputs": [
        {
          "internalType": "bool",
          "name": "",
          "type": "bool"
        }
      ],
      "stateMutability": "view",
      "type": "function"
    },
    {
      "inputs": [
        {
          "internalType": "address",
          "name": "layer2",
          "type": "address"
        }
      ],
      "name": "coinages",
      "outputs": [
        {
          "internalType": "address",
          "name": "",
          "type": "address"
        }
      ],
      "stateMutability": "view",
      "type": "function"
    },
    {
      "inputs": [
        {
          "internalType": "address",
          "name": "layer2",
          "type": "address"
        }
      ],
      "name": "commissionRates",
      "outputs": [
        {
          "internalType": "uint256",
          "name": "",
          "type": "uint256"
        }
      ],
      "stateMutability": "view",
      "type": "function"
    },
    {
      "inputs": [],
      "name": "dao",
      "outputs": [
        {
          "internalType": "address",
          "name": "",
          "type": "address"
        }
      ],
      "stateMutability": "view",
      "type": "function"
    },
    {
      "inputs": [],
      "name": "daoSeigRate",
      "outputs": [
        {
          "internalType": "uint256",
          "name": "",
          "type": "uint256"
        }
      ],
      "stateMutability": "view",
      "type": "function"
    },
    {
      "inputs": [
        {
          "internalType": "address",
          "name": "",
          "type": "address"
        }
      ],
      "name": "delayedCommissionBlock",
      "outputs": [
        {
          "internalType": "uint256",
          "name": "",
          "type": "uint256"
        }
      ],
      "stateMutability": "view",
      "type": "function"
    },
    {
      "inputs": [
        {
          "internalType": "address",
          "name": "",
          "type": "address"
        }
      ],
      "name": "delayedCommissionRate",
      "outputs": [
        {
          "internalType": "uint256",
          "name": "",
          "type": "uint256"
        }
      ],
      "stateMutability": "view",
      "type": "function"
    },
    {
      "inputs": [
        {
          "internalType": "address",
          "name": "",
          "type": "address"
        }
      ],
      "name": "delayedCommissionRateNegative",
      "outputs": [
        {
          "internalType": "bool",
          "name": "",
          "type": "bool"
        }
      ],
      "stateMutability": "view",
      "type": "function"
    },
    {
      "inputs": [
        {
          "internalType": "address",
          "name": "layer2",
          "type": "address"
        }
      ],
      "name": "deployCoinage",
      "outputs": [
        {
          "internalType": "bool",
          "name": "",
          "type": "bool"
        }
      ],
      "stateMutability": "nonpayable",
      "type": "function"
    },
    {
      "inputs": [],
      "name": "depositManager",
      "outputs": [
        {
          "internalType": "address",
          "name": "",
          "type": "address"
        }
      ],
      "stateMutability": "view",
      "type": "function"
    },
    {
      "inputs": [],
      "name": "factory",
      "outputs": [
        {
          "internalType": "address",
          "name": "",
          "type": "address"
        }
      ],
      "stateMutability": "view",
      "type": "function"
    },
    {
      "inputs": [
        {
          "internalType": "address",
          "name": "layer2",
          "type": "address"
        }
      ],
      "name": "getOperatorAmount",
      "outputs": [
        {
          "internalType": "uint256",
          "name": "",
          "type": "uint256"
        }
      ],
      "stateMutability": "view",
      "type": "function"
    },
    {
      "inputs": [
        {
          "internalType": "bytes32",
          "name": "role",
          "type": "bytes32"
        }
      ],
      "name": "getRoleAdmin",
      "outputs": [
        {
          "internalType": "bytes32",
          "name": "",
          "type": "bytes32"
        }
      ],
      "stateMutability": "view",
      "type": "function"
    },
    {
      "inputs": [
        {
          "internalType": "bytes32",
          "name": "role",
          "type": "bytes32"
        },
        {
          "internalType": "address",
          "name": "account",
          "type": "address"
        }
      ],
      "name": "grantRole",
      "outputs": [],
      "stateMutability": "nonpayable",
      "type": "function"
    },
    {
      "inputs": [
        {
          "internalType": "bytes32",
          "name": "role",
          "type": "bytes32"
        },
        {
          "internalType": "address",
          "name": "account",
          "type": "address"
        }
      ],
      "name": "hasRole",
      "outputs": [
        {
          "internalType": "bool",
          "name": "",
          "type": "bool"
        }
      ],
      "stateMutability": "view",
      "type": "function"
    },
    {
      "inputs": [
        {
          "internalType": "address",
          "name": "ton_",
          "type": "address"
        },
        {
          "internalType": "address",
          "name": "wton_",
          "type": "address"
        },
        {
          "internalType": "address",
          "name": "registry_",
          "type": "address"
        },
        {
          "internalType": "address",
          "name": "depositManager_",
          "type": "address"
        },
        {
          "internalType": "uint256",
          "name": "seigPerBlock_",
          "type": "uint256"
        },
        {
          "internalType": "address",
          "name": "factory_",
          "type": "address"
        },
        {
          "internalType": "uint256",
          "name": "lastSeigBlock_",
          "type": "uint256"
        }
      ],
      "name": "initialize",
      "outputs": [],
      "stateMutability": "nonpayable",
      "type": "function"
    },
    {
      "inputs": [
        {
          "internalType": "address",
          "name": "account",
          "type": "address"
        }
      ],
      "name": "isAdmin",
      "outputs": [
        {
          "internalType": "bool",
          "name": "",
          "type": "bool"
        }
      ],
      "stateMutability": "view",
      "type": "function"
    },
    {
      "inputs": [
        {
          "internalType": "address",
          "name": "account",
          "type": "address"
        }
      ],
      "name": "isChallenger",
      "outputs": [
        {
          "internalType": "bool",
          "name": "",
          "type": "bool"
        }
      ],
      "stateMutability": "view",
      "type": "function"
    },
    {
      "inputs": [
        {
          "internalType": "address",
          "name": "layer2",
          "type": "address"
        }
      ],
      "name": "isCommissionRateNegative",
      "outputs": [
        {
          "internalType": "bool",
          "name": "",
          "type": "bool"
        }
      ],
      "stateMutability": "view",
      "type": "function"
    },
    {
      "inputs": [
        {
          "internalType": "address",
          "name": "account",
          "type": "address"
        }
      ],
      "name": "isMinter",
      "outputs": [
        {
          "internalType": "bool",
          "name": "",
          "type": "bool"
        }
      ],
      "stateMutability": "view",
      "type": "function"
    },
    {
      "inputs": [
        {
          "internalType": "address",
          "name": "account",
          "type": "address"
        }
      ],
      "name": "isOperator",
      "outputs": [
        {
          "internalType": "bool",
          "name": "",
          "type": "bool"
        }
      ],
      "stateMutability": "view",
      "type": "function"
    },
    {
      "inputs": [],
      "name": "isOwner",
      "outputs": [
        {
          "internalType": "bool",
          "name": "",
          "type": "bool"
        }
      ],
      "stateMutability": "view",
      "type": "function"
    },
    {
      "inputs": [
        {
          "internalType": "address",
          "name": "layer2",
          "type": "address"
        }
      ],
      "name": "lastCommitBlock",
      "outputs": [
        {
          "internalType": "uint256",
          "name": "",
          "type": "uint256"
        }
      ],
      "stateMutability": "view",
      "type": "function"
    },
    {
      "inputs": [],
      "name": "lastSeigBlock",
      "outputs": [
        {
          "internalType": "uint256",
          "name": "",
          "type": "uint256"
        }
      ],
      "stateMutability": "view",
      "type": "function"
    },
    {
      "inputs": [],
      "name": "lastSnapshotId",
      "outputs": [
        {
          "internalType": "uint256",
          "name": "",
          "type": "uint256"
        }
      ],
      "stateMutability": "view",
      "type": "function"
    },
    {
      "inputs": [],
      "name": "minimumAmount",
      "outputs": [
        {
          "internalType": "uint256",
          "name": "",
          "type": "uint256"
        }
      ],
      "stateMutability": "view",
      "type": "function"
    },
    {
      "inputs": [
        {
          "internalType": "address",
          "name": "layer2",
          "type": "address"
        },
        {
          "internalType": "address",
          "name": "account",
          "type": "address"
        },
        {
          "internalType": "uint256",
          "name": "amount",
          "type": "uint256"
        }
      ],
      "name": "onDeposit",
      "outputs": [
        {
          "internalType": "bool",
          "name": "",
          "type": "bool"
        }
      ],
      "stateMutability": "nonpayable",
      "type": "function"
    },
    {
      "inputs": [],
      "name": "onSnapshot",
      "outputs": [
        {
          "internalType": "uint256",
          "name": "snapshotId",
          "type": "uint256"
        }
      ],
      "stateMutability": "nonpayable",
      "type": "function"
    },
    {
      "inputs": [
        {
          "internalType": "address",
          "name": "",
          "type": "address"
        },
        {
          "internalType": "address",
          "name": "",
          "type": "address"
        },
        {
          "internalType": "uint256",
          "name": "",
          "type": "uint256"
        }
      ],
      "name": "onTransfer",
      "outputs": [
        {
          "internalType": "bool",
          "name": "",
          "type": "bool"
        }
      ],
      "stateMutability": "nonpayable",
      "type": "function"
    },
    {
      "inputs": [
        {
          "internalType": "address",
          "name": "layer2",
          "type": "address"
        },
        {
          "internalType": "address",
          "name": "account",
          "type": "address"
        },
        {
          "internalType": "uint256",
          "name": "amount",
          "type": "uint256"
        }
      ],
      "name": "onWithdraw",
      "outputs": [
        {
          "internalType": "bool",
          "name": "",
          "type": "bool"
        }
      ],
      "stateMutability": "nonpayable",
      "type": "function"
    },
    {
      "inputs": [],
      "name": "pause",
      "outputs": [],
      "stateMutability": "nonpayable",
      "type": "function"
    },
    {
      "inputs": [],
      "name": "pauseProxy",
      "outputs": [
        {
          "internalType": "bool",
          "name": "",
          "type": "bool"
        }
      ],
      "stateMutability": "view",
      "type": "function"
    },
    {
      "inputs": [],
      "name": "paused",
      "outputs": [
        {
          "internalType": "bool",
          "name": "",
          "type": "bool"
        }
      ],
      "stateMutability": "view",
      "type": "function"
    },
    {
      "inputs": [],
      "name": "pausedBlock",
      "outputs": [
        {
          "internalType": "uint256",
          "name": "",
          "type": "uint256"
        }
      ],
      "stateMutability": "view",
      "type": "function"
    },
    {
      "inputs": [],
      "name": "powerTONSeigRate",
      "outputs": [
        {
          "internalType": "uint256",
          "name": "",
          "type": "uint256"
        }
      ],
      "stateMutability": "view",
      "type": "function"
    },
    {
      "inputs": [],
      "name": "powerton",
      "outputs": [
        {
          "internalType": "address",
          "name": "",
          "type": "address"
        }
      ],
      "stateMutability": "view",
      "type": "function"
    },
    {
      "inputs": [],
      "name": "progressSnapshotId",
      "outputs": [
        {
          "internalType": "uint256",
          "name": "",
          "type": "uint256"
        }
      ],
      "stateMutability": "view",
      "type": "function"
    },
    {
      "inputs": [
        {
          "internalType": "uint256",
          "name": "",
          "type": "uint256"
        }
      ],
      "name": "proxyImplementation",
      "outputs": [
        {
          "internalType": "address",
          "name": "",
          "type": "address"
        }
      ],
      "stateMutability": "view",
      "type": "function"
    },
    {
      "inputs": [],
      "name": "registry",
      "outputs": [
        {
          "internalType": "address",
          "name": "",
          "type": "address"
        }
      ],
      "stateMutability": "view",
      "type": "function"
    },
    {
      "inputs": [],
      "name": "relativeSeigRate",
      "outputs": [
        {
          "internalType": "uint256",
          "name": "",
          "type": "uint256"
        }
      ],
      "stateMutability": "view",
      "type": "function"
    },
    {
      "inputs": [
        {
          "internalType": "address",
          "name": "account",
          "type": "address"
        }
      ],
      "name": "removeAdmin",
      "outputs": [],
      "stateMutability": "nonpayable",
      "type": "function"
    },
    {
      "inputs": [
        {
          "internalType": "address",
          "name": "account",
          "type": "address"
        }
      ],
      "name": "removeChallenger",
      "outputs": [],
      "stateMutability": "nonpayable",
      "type": "function"
    },
    {
      "inputs": [
        {
          "internalType": "address",
          "name": "account",
          "type": "address"
        }
      ],
      "name": "removeMinter",
      "outputs": [],
      "stateMutability": "nonpayable",
      "type": "function"
    },
    {
      "inputs": [
        {
          "internalType": "address",
          "name": "account",
          "type": "address"
        }
      ],
      "name": "removeOperator",
      "outputs": [],
      "stateMutability": "nonpayable",
      "type": "function"
    },
    {
      "inputs": [],
      "name": "renounceChallenger",
      "outputs": [],
      "stateMutability": "nonpayable",
      "type": "function"
    },
    {
      "inputs": [
        {
          "internalType": "address",
          "name": "target",
          "type": "address"
        }
      ],
      "name": "renounceMinter",
      "outputs": [],
      "stateMutability": "nonpayable",
      "type": "function"
    },
    {
      "inputs": [],
      "name": "renounceMinter",
      "outputs": [],
      "stateMutability": "nonpayable",
      "type": "function"
    },
    {
      "inputs": [],
      "name": "renounceOperator",
      "outputs": [],
      "stateMutability": "nonpayable",
      "type": "function"
    },
    {
      "inputs": [
        {
          "internalType": "address",
          "name": "target",
          "type": "address"
        }
      ],
      "name": "renounceOwnership",
      "outputs": [],
      "stateMutability": "nonpayable",
      "type": "function"
    },
    {
      "inputs": [],
      "name": "renounceOwnership",
      "outputs": [],
      "stateMutability": "nonpayable",
      "type": "function"
    },
    {
      "inputs": [
        {
          "internalType": "address",
          "name": "target",
          "type": "address"
        }
      ],
      "name": "renouncePauser",
      "outputs": [],
      "stateMutability": "nonpayable",
      "type": "function"
    },
    {
      "inputs": [
        {
          "internalType": "bytes32",
          "name": "role",
          "type": "bytes32"
        },
        {
          "internalType": "address",
          "name": "callerConfirmation",
          "type": "address"
        }
      ],
      "name": "renounceRole",
      "outputs": [],
      "stateMutability": "nonpayable",
      "type": "function"
    },
    {
      "inputs": [],
      "name": "renounceWTONMinter",
      "outputs": [],
      "stateMutability": "nonpayable",
      "type": "function"
    },
    {
      "inputs": [
        {
          "internalType": "address",
          "name": "account",
          "type": "address"
        }
      ],
      "name": "revokeChallenger",
      "outputs": [],
      "stateMutability": "nonpayable",
      "type": "function"
    },
    {
      "inputs": [
        {
          "internalType": "address",
          "name": "account",
          "type": "address"
        }
      ],
      "name": "revokeMinter",
      "outputs": [],
      "stateMutability": "nonpayable",
      "type": "function"
    },
    {
      "inputs": [
        {
          "internalType": "address",
          "name": "account",
          "type": "address"
        }
      ],
      "name": "revokeOperator",
      "outputs": [],
      "stateMutability": "nonpayable",
      "type": "function"
    },
    {
      "inputs": [
        {
          "internalType": "bytes32",
          "name": "role",
          "type": "bytes32"
        },
        {
          "internalType": "address",
          "name": "account",
          "type": "address"
        }
      ],
      "name": "revokeRole",
      "outputs": [],
      "stateMutability": "nonpayable",
      "type": "function"
    },
    {
      "inputs": [],
      "name": "seigPerBlock",
      "outputs": [
        {
          "internalType": "uint256",
          "name": "",
          "type": "uint256"
        }
      ],
      "stateMutability": "view",
      "type": "function"
    },
    {
      "inputs": [
        {
          "internalType": "bytes4",
          "name": "",
          "type": "bytes4"
        }
      ],
      "name": "selectorImplementation",
      "outputs": [
        {
          "internalType": "address",
          "name": "",
          "type": "address"
        }
      ],
      "stateMutability": "view",
      "type": "function"
    },
    {
      "inputs": [
        {
          "internalType": "uint256",
          "name": "adjustDelay_",
          "type": "uint256"
        }
      ],
      "name": "setAdjustDelay",
      "outputs": [],
      "stateMutability": "nonpayable",
      "type": "function"
    },
    {
      "inputs": [
        {
          "internalType": "address",
          "name": "factory_",
          "type": "address"
        }
      ],
      "name": "setCoinageFactory",
      "outputs": [],
      "stateMutability": "nonpayable",
      "type": "function"
    },
    {
      "inputs": [
        {
          "internalType": "address",
          "name": "layer2",
          "type": "address"
        },
        {
          "internalType": "uint256",
          "name": "commissionRate",
          "type": "uint256"
        },
        {
          "internalType": "bool",
          "name": "isCommissionRateNegative_",
          "type": "bool"
        }
      ],
      "name": "setCommissionRate",
      "outputs": [
        {
          "internalType": "bool",
          "name": "",
          "type": "bool"
        }
      ],
      "stateMutability": "nonpayable",
      "type": "function"
    },
    {
      "inputs": [
        {
          "internalType": "address",
          "name": "daoAddress",
          "type": "address"
        }
      ],
      "name": "setDao",
      "outputs": [],
      "stateMutability": "nonpayable",
      "type": "function"
    },
    {
      "inputs": [
        {
          "internalType": "uint256",
          "name": "daoSeigRate_",
          "type": "uint256"
        }
      ],
      "name": "setDaoSeigRate",
      "outputs": [],
      "stateMutability": "nonpayable",
      "type": "function"
    },
    {
      "inputs": [
        {
          "internalType": "address",
          "name": "powerton_",
          "type": "address"
        },
        {
          "internalType": "address",
          "name": "daoAddress",
          "type": "address"
        },
        {
          "internalType": "uint256",
          "name": "powerTONSeigRate_",
          "type": "uint256"
        },
        {
          "internalType": "uint256",
          "name": "daoSeigRate_",
          "type": "uint256"
        },
        {
          "internalType": "uint256",
          "name": "relativeSeigRate_",
          "type": "uint256"
        },
        {
          "internalType": "uint256",
          "name": "adjustDelay_",
          "type": "uint256"
        },
        {
          "internalType": "uint256",
          "name": "minimumAmount_",
          "type": "uint256"
        }
      ],
      "name": "setData",
      "outputs": [],
      "stateMutability": "nonpayable",
      "type": "function"
    },
    {
      "inputs": [
        {
          "internalType": "uint256",
          "name": "minimumAmount_",
          "type": "uint256"
        }
      ],
      "name": "setMinimumAmount",
      "outputs": [],
      "stateMutability": "nonpayable",
      "type": "function"
    },
    {
      "inputs": [
        {
          "internalType": "address",
          "name": "powerton_",
          "type": "address"
        }
      ],
      "name": "setPowerTON",
      "outputs": [],
      "stateMutability": "nonpayable",
      "type": "function"
    },
    {
      "inputs": [
        {
          "internalType": "uint256",
          "name": "powerTONSeigRate_",
          "type": "uint256"
        }
      ],
      "name": "setPowerTONSeigRate",
      "outputs": [],
      "stateMutability": "nonpayable",
      "type": "function"
    },
    {
      "inputs": [
        {
          "internalType": "uint256",
          "name": "pseigRate_",
          "type": "uint256"
        }
      ],
      "name": "setPseigRate",
      "outputs": [],
      "stateMutability": "nonpayable",
      "type": "function"
    },
    {
      "inputs": [
        {
          "internalType": "address",
          "name": "layer2",
          "type": "address"
        },
        {
          "internalType": "address",
          "name": "challenger",
          "type": "address"
        }
      ],
      "name": "slash",
      "outputs": [
        {
          "internalType": "bool",
          "name": "",
          "type": "bool"
        }
      ],
      "stateMutability": "nonpayable",
      "type": "function"
    },
    {
      "inputs": [
        {
          "internalType": "address",
          "name": "account",
          "type": "address"
        }
      ],
      "name": "stakeOf",
      "outputs": [
        {
          "internalType": "uint256",
          "name": "amount",
          "type": "uint256"
        }
      ],
      "stateMutability": "view",
      "type": "function"
    },
    {
      "inputs": [
        {
          "internalType": "address",
          "name": "layer2",
          "type": "address"
        },
        {
          "internalType": "address",
          "name": "account",
          "type": "address"
        }
      ],
      "name": "stakeOf",
      "outputs": [
        {
          "internalType": "uint256",
          "name": "",
          "type": "uint256"
        }
      ],
      "stateMutability": "view",
      "type": "function"
    },
    {
      "inputs": [
        {
          "internalType": "address",
          "name": "account",
          "type": "address"
        },
        {
          "internalType": "uint256",
          "name": "snapshotId",
          "type": "uint256"
        }
      ],
      "name": "stakeOfAt",
      "outputs": [
        {
          "internalType": "uint256",
          "name": "amount",
          "type": "uint256"
        }
      ],
      "stateMutability": "view",
      "type": "function"
    },
    {
      "inputs": [
        {
          "internalType": "address",
          "name": "layer2",
          "type": "address"
        },
        {
          "internalType": "address",
          "name": "account",
          "type": "address"
        },
        {
          "internalType": "uint256",
          "name": "snapshotId",
          "type": "uint256"
        }
      ],
      "name": "stakeOfAt",
      "outputs": [
        {
          "internalType": "uint256",
          "name": "amount",
          "type": "uint256"
        }
      ],
      "stateMutability": "view",
      "type": "function"
    },
    {
      "inputs": [],
      "name": "stakeOfTotal",
      "outputs": [
        {
          "internalType": "uint256",
          "name": "amount",
          "type": "uint256"
        }
      ],
      "stateMutability": "view",
      "type": "function"
    },
    {
      "inputs": [
        {
          "internalType": "uint256",
          "name": "snapshotId",
          "type": "uint256"
        }
      ],
      "name": "stakeOfTotalAt",
      "outputs": [
        {
          "internalType": "uint256",
          "name": "amount",
          "type": "uint256"
        }
      ],
      "stateMutability": "view",
      "type": "function"
    },
    {
      "inputs": [
        {
          "internalType": "bytes4",
          "name": "interfaceId",
          "type": "bytes4"
        }
      ],
      "name": "supportsInterface",
      "outputs": [
        {
          "internalType": "bool",
          "name": "",
          "type": "bool"
        }
      ],
      "stateMutability": "view",
      "type": "function"
    },
    {
      "inputs": [],
      "name": "ton",
      "outputs": [
        {
          "internalType": "address",
          "name": "",
          "type": "address"
        }
      ],
      "stateMutability": "view",
      "type": "function"
    },
    {
      "inputs": [],
      "name": "tot",
      "outputs": [
        {
          "internalType": "address",
          "name": "",
          "type": "address"
        }
      ],
      "stateMutability": "view",
      "type": "function"
    },
    {
      "inputs": [],
      "name": "totalSupplyOfTon",
      "outputs": [
        {
          "internalType": "uint256",
          "name": "tos",
          "type": "uint256"
        }
      ],
      "stateMutability": "pure",
      "type": "function"
    },
    {
      "inputs": [
        {
          "internalType": "address",
          "name": "newAdmin",
          "type": "address"
        }
      ],
      "name": "transferAdmin",
      "outputs": [],
      "stateMutability": "nonpayable",
      "type": "function"
    },
    {
      "inputs": [
        {
          "internalType": "address",
          "name": "newSeigManager",
          "type": "address"
        },
        {
          "internalType": "address[]",
          "name": "coinages_",
          "type": "address[]"
        }
      ],
      "name": "transferCoinageOwnership",
      "outputs": [],
      "stateMutability": "nonpayable",
      "type": "function"
    },
    {
      "inputs": [
        {
          "internalType": "address",
          "name": "target",
          "type": "address"
        },
        {
          "internalType": "address",
          "name": "newOwner",
          "type": "address"
        }
      ],
      "name": "transferOwnership",
      "outputs": [],
      "stateMutability": "nonpayable",
      "type": "function"
    },
    {
      "inputs": [
        {
          "internalType": "address",
          "name": "newAdmin",
          "type": "address"
        }
      ],
      "name": "transferOwnership",
      "outputs": [],
      "stateMutability": "nonpayable",
      "type": "function"
    },
    {
      "inputs": [
        {
          "internalType": "address",
          "name": "layer2",
          "type": "address"
        },
        {
          "internalType": "address",
          "name": "account",
          "type": "address"
        }
      ],
      "name": "uncomittedStakeOf",
      "outputs": [
        {
          "internalType": "uint256",
          "name": "",
          "type": "uint256"
        }
      ],
      "stateMutability": "view",
      "type": "function"
    },
    {
      "inputs": [],
      "name": "unpause",
      "outputs": [],
      "stateMutability": "nonpayable",
      "type": "function"
    },
    {
      "inputs": [],
      "name": "unpausedBlock",
      "outputs": [
        {
          "internalType": "uint256",
          "name": "",
          "type": "uint256"
        }
      ],
      "stateMutability": "view",
      "type": "function"
    },
    {
      "inputs": [],
      "name": "updateSeigniorage",
      "outputs": [
        {
          "internalType": "bool",
          "name": "",
          "type": "bool"
        }
      ],
      "stateMutability": "nonpayable",
      "type": "function"
    },
    {
      "inputs": [
        {
          "internalType": "address",
          "name": "layer2",
          "type": "address"
        }
      ],
      "name": "updateSeigniorageLayer",
      "outputs": [
        {
          "internalType": "bool",
          "name": "",
          "type": "bool"
        }
      ],
      "stateMutability": "nonpayable",
      "type": "function"
    },
    {
      "inputs": [],
      "name": "wton",
      "outputs": [
        {
          "internalType": "address",
          "name": "",
          "type": "address"
        }
      ],
      "stateMutability": "view",
      "type": "function"
    }
  ],
  "bytecode": "0x608080604052346051576301ffc9a760e01b60005260046020527f9fe05126d2d9ecf60592e254dead906a4b2e492f36cca727682c38e9008c6ac1805460ff19166001179055614b1490816100578239f35b600080fdfe608060408181526004918236101561001657600080fd5b600092833560e01c91826301ffc9a7146130b05750816303e1cc271461304f5781630ceb678014612f87578163139770421461173c5781631785f53c14612f545781631cc4789014612f355781631e1f0b6014612e885781632428c62814612e5e578163248a9ca314612e3357816324d7806c14612ded57816325374a9a14612dce57816325e90db414612db45781632ab6f8db14612d9a5781632d1bdec814612d5f5781632f17250a14612d395781632f2ff15d14612d0f5781633092afd514612ce657816332053c9914612cc75781633284795314612b5057816336568abe14612b0a578163389ed26714612ae15783826338bf3cfa14612a71575081633c49117314612a085781633e832e1d146129df5781633f4ba83a1461291f5781634123196f14611e10578163412c6d501461277b5781634162169f14612752578163418130201461270f5783826341eb24bb1461269f575081634224ed661461245657816342623360146122e557816346a99fe71461215a57816348c8577e1461213c5781634a3931491461207b5781634c063c19146120405781634c75ab9c14611ec057816350d2a27614611e7c578163530adbb414611e53578163550d01a314611e15578163552033c414611e1057816358d00cd614611da55781635998a8d714611d865781635a16a41614611d485781635c975abb14611d24578382635f112c6814611cb4575081635f40a34914611c955781636304a62414611c7657816363a8fd8914611c545781636637b88214611c115781636c578c1d14611be85781636c7ac9d814611bbf5781636d43542114611b3c5781636d70f7ae14611ae85781637048027514611a92578163715018a614611a5757816375829def14611a1b578163764a7856146119d55781637aeccce9146118b85781637b056c1b146118805781637b10399914611857578163833a774f1461175a578163837afbc01461173c5781638456cb591461167e5781638bf91dc4146116585781638d62d9491461162f5781638f32d59b146115fc57816391d14854146115b55781639328f1bc1461154e578163983b2d5614611525578163986502751461150b5781639870d7fe146114e25781639c877e471461146f578163a0474ef514611419578163a16d6aa7146113f0578163a217fddf146113d5578163a415d8dc14611381578163a7dcc8501461135b578163aa271e1a14611307578163ac753a7a146112c9578163ac8932191461126b578163ac8a584a1461122757838263ae3458f8146111a257508163b911135f1461116f578163bb0c829814611150578163c45a015514611127578163c59f1046146110ef578163cbfebe62146110b7578163cc48b9471461108e578163ce4cb87614610fe2578163ce6c035514610f52578163cfbd488514610ee9578163d539139314610ec0578163d547741f14610e84578163df7fbef014610e65578163e2fe8fd114610e2d578163e403483214610da1578163eeb4a9c814610d66578163f2fde38b14610c4e578163f35c89e814610c2f578163f5b541a614610c06578163f822934814610be7578163f850ffaa1461091b578163f8951f46146107ff578163fa9789c81461052a575063fad8b32a146104bb57600080fd5b34610526576020366003190112610526576105229061051d60016104dd6130e8565b9285805260056020528086203387526020526104fe60ff8288205416613175565b600080516020614a3f8339815191528652600560205285200154613ae6565b613eb3565b5080f35b5080fd5b8284346106e157816003193601126106e1576105446130e8565b9061054d613103565b6001600160a01b03928316808352600e6020908152858420548651630a9ee07f60e31b8152919792959081169391929188848481885afa9384156107f55786946107c2575b5087516318160ddd60e01b815289818581895afa9081156107b8579088939291889161077f575b5060248b84600d54168c51928380926370a0823160e01b998a83528b8301525afa90811561073b5787939285928e928c91610745575b509061062a61062061062f9361061a610615676765c793fa10079d601b1b9a8b93614957565b61498e565b046148f3565b8260011c906149e9565b61489a565b9260248d51809481938a8352169b8c8b8301525afa90811561073b57908c9695949392918a916106f6575b5061067b91610676602497989961062a610620610615956148f3565b614957565b04978752600e855288872054168851958694859384528301525afa9182156106eb5780926106b6575b50506106af91613562565b9051908152f35b9091508482813d83116106e4575b6106ce8183613261565b810103126106e15750516106af856106a4565b80fd5b503d6106c4565b8451903d90823e3d90fd5b87819395979994969892503d8311610734575b6107138183613261565b81010312610730575190958b95909490939092909161067b61065a565b8880fd5b503d610709565b8b513d8b823e3d90fd5b93505092935081813d8311610778575b61075f8183613261565b81010312610730575186929184918d919061062a6105ef565b503d610755565b80929394508b8092503d83116107b1575b61079a8183613261565b810103126107ad5790879291518b6105b9565b8680fd5b503d610790565b89513d89823e3d90fd5b9093508881813d83116107ee575b6107da8183613261565b810103126107ea57519289610592565b8580fd5b503d6107d0565b88513d88823e3d90fd5b5050346105265760e0366003190112610526576020809161081e6130e8565b907f25826073c0320e7bfcef08488f501afb014791143befc0558b6343262751a87683610849613103565b93604435906064359589805260058452858a20338b52845261087060ff878c205416613175565b6108a3610882601b54601c54906131cd565b601d54676765c793fa10079d601b1b9161089c91906131cd565b11156131f0565b60018060a01b03908160018060a01b031993168360085416176008551690600954161760095580601b5584601c55608435601d5560a43560165560c435601a558351908152a180518281527f1140c1f14579543e61b599f8f43d0112d66ec1462431e56c97c27b47446a38ac948591a151908152a180f35b905034610be35761092b36613140565b9291949060018060a01b039561094687600754163314613456565b86811693848452602097600e8952610964818987205416151561349b565b858552600e89528088862054168851906370a0823160e01b918281528b81602481878b1695868a8301525afa908115610bd957908a918991610ba8575b5010610b50578a906109b38787614007565b610ac3575b5050506109c58784614062565b9581600d54166109d5888a6131cd565b813b15610abf576109ff889283928d5194858094819363079cc67960e41b9c8d84528c8401613547565b03925af18015610ab557610aa6575b508552600e8952878520541691823b15610aa2579184939184889694610a3f8b519889968795869485528401613547565b03925af1908115610a975750917f650f673bb96a43afff4620ecc3f3e38e0cbfddebde9894e951ba2ceff7472f6093918593610a88575b50825191825285820152a15160018152f35b610a9190613238565b38610a76565b8551903d90823e3d90fd5b8480fd5b610aaf90613238565b38610a0e565b8a513d89823e3d90fd5b8780fd5b888852600e82526024848c8a205416938c5194859384928352888301525afa908115610b46579088918791610b13575b50610b0b91610b0191613562565b601a5411156134fe565b3889816109b8565b8092508b8092503d8311610b3f575b610b2c8183613261565b810103126107ea57518790610b0b610af3565b503d610b22565b89513d88823e3d90fd5b895162461bcd60e51b81528085018c9052602c60248201527f536569674d616e616765723a20696e73756666696369616e742062616c616e6360448201526b6520746f20756e7374616b6560a01b6064820152608490fd5b8092508d8092503d8311610bd2575b610bc18183613261565b81010312610abf57899051386109a1565b503d610bb7565b8b513d8a823e3d90fd5b8280fd5b505034610526578160031936011261052657602090601e549051908152f35b50503461052657816003193601126105265760209051600080516020614a3f8339815191528152f35b5050346105265781600319360112610526576020906011549051908152f35b91905034610be357602080600319360112610d6257610c6b6130e8565b92848052600582528285203386528252610c8a60ff8487205416613175565b848052600582528285203386528252610ca860ff8487205416613175565b6001600160a01b0384168015610d25573314610ceb57506001610cde93926005610cd9938780525285200154613ae6565b613bb9565b50610ce833613385565b80f35b915162461bcd60e51b815291820152601660248201527520b1b1b2b9b9b4b136329d1039b0b6b29030b236b4b760511b6044820152606490fd5b50915162461bcd60e51b815291820152601860248201527741636365737369626c653a207a65726f206164647265737360401b6044820152606490fd5b8380fd5b91905034610be3576020366003190112610be35760ff610d9a91848052600560205280852033865260205284205416613175565b35601a5580f35b905034610be3576020366003190112610be3577f4f3f4d2a7e076fb16f4fe2fc46ac0a4050623f4a4ba0fb0e9a9d5283f192a090916020913590848052600583528085203386528352610df960ff8287205416613175565b610e21601b5461089c84610e1c676765c793fa10079d601b1b93601c54906131cd565b6131cd565b81601d5551908152a180f35b5050346105265760203660031901126105265760209181906001600160a01b03610e556130e8565b1681526018845220549051908152f35b5050346105265781600319360112610526576020906016549051908152f35b91905034610be35780600319360112610be3576105229135610ebb6001610ea9613103565b93838752600560205286200154613ae6565b613fa2565b50503461052657816003193601126105265760209051600080516020614a1f8339815191528152f35b5050346105265760203660031901126105265761052290610f4d6001610f0d6130e8565b928580526005602052808620338752602052610f2e60ff8288205416613175565b600080516020614a1f8339815191528652600560205285200154613ae6565b613e2b565b91905034610be35782600319360112610be357600d5481516318160ddd60e01b81529260209184919082906001600160a01b03165afa918215610fd8578392610fa0575b6020838351908152f35b9091506020813d602011610fd0575b81610fbc60209383613261565b81010312610be35760209250519038610f96565b3d9150610faf565b81513d85823e3d90fd5b838334610526578060031936011261052657602492610fff6130e8565b611007613103565b9060018060a01b0380911685526020958692600e8452828688205416865195869485936370a0823160e01b855216908301525afa928315611083578093611051575b505051908152f35b909192508382813d831161107c575b61106a8183613261565b810103126106e1575051908380611049565b503d611060565b8251903d90823e3d90fd5b505034610526578160031936011261052657600a5490516001600160a01b039091168152602090f35b5050346105265760203660031901126105265760209181906001600160a01b036110df6130e8565b1681526017845220549051908152f35b5050346105265760203660031901126105265760209181906001600160a01b036111176130e8565b168152600f845220549051908152f35b505034610526578160031936011261052657600c5490516001600160a01b039091168152602090f35b505034610526578160031936011261052657602090601a549051908152f35b905034610be3576020366003190112610be35735825260016020908152918190205490516001600160a01b039091168152f35b9291503461122357826003193601126112235782805260056020528183203384526020526111d560ff8385205416613175565b600b546001600160a01b0316803b1561121e578391835180958193639865027560e01b83525af1908115611215575061120c575080f35b610ce890613238565b513d84823e3d90fd5b505050fd5b5050fd5b50503461052657602036600319011261052657610ce89061126660ff61124b6130e8565b92858052600560205280862033875260205285205416613175565b6133cc565b505034610526576020366003190112610526576112a660ff61128b6130e8565b92848052600560205280852033865260205284205416613175565b600c80546001600160a01b0319166001600160a01b039290921691909117905580f35b5050346105265760203660031901126105265760209160ff9082906001600160a01b036112f46130e8565b1681526019855220541690519015158152f35b5050346105265760203660031901126105265760ff816020936113286130e8565b600080516020614a1f8339815191528252600586528282206001600160a01b039091168252855220549151911615158152f35b505034610526578160031936011261052657602090516a084595161401484a0000008152f35b5050346105265760203660031901126105265760ff816020936113a26130e8565b600080516020614a7f8339815191528252600586528282206001600160a01b039091168252855220549151911615158152f35b50503461052657816003193601126105265751908152602090f35b505034610526578160031936011261052657600d5490516001600160a01b039091168152602090f35b8383346105265760209283600319360112610be357600d548251630981b24d60e41b81528235928101929092528490829060249082906001600160a01b03165afa92831561108357809361105157505051908152f35b905034610be3576020366003190112610be3577f25826073c0320e7bfcef08488f501afb014791143befc0558b6343262751a8769160209135908480526005835280852033865283526114c760ff8287205416613175565b6114d6610882601c54846131cd565b81601b5551908152a180f35b505034610526576020366003190112610526576105229061150660016104dd6130e8565b613cb0565b83346106e157806003193601126106e157610ce8336133e5565b50503461052657602036600319011261052657610522906115496001610f0d6130e8565b613c26565b8383346105265761159c61156136613140565b6001600160a01b039283168652600e602090815285872054865163277166bf60e11b8152919891958995879592169385938493908401613547565b03915afa92831561108357809361105157505051908152f35b905034610be35781600319360112610be3578160209360ff926115d6613103565b90358252600586528282206001600160a01b039091168252855220549151911615158152f35b50503461052657816003193601126105265760ff8183806020955260058552818120338252855220541690519015158152f35b505034610526578160031936011261052657600b5490516001600160a01b039091168152602090f35b50503461052657816003193601126105265751676765c793fa10079d601b1b8152602090f35b905034610be35782600319360112610be357600080516020614a5f833981519152835260056020528183203384526020526116be60ff83852054166133fe565b601f549060ff821661170657504360125560ff1916600117601f55513381527f62e78cea01bee320cd4e420270b5ea74000d11b0c9f74754ebdbfc544b05a25890602090a180f35b606490602084519162461bcd60e51b8352820152601060248201526f14185d5cd8589b194e881c185d5cd95960821b6044820152fd5b50503461052657816003193601126105265760209081549051908152f35b905034610be357602092836003193601126106e1576001600160a01b03806117806130e8565b1692838352600e8652858286852054161561179e575b855160018152f35b600c548651631dd70c0360e21b81529283918290879087165af190811561184d578692849287927f124cac1e701d08d642237ad795ddd275670e12f2cd956a26709721c68084c2b29691611820575b50868452600f855243838520551691600e8452208160018060a01b03198254161790558451908152a23880808085611796565b6118409150853d8711611846575b6118388183613261565b81019061329a565b386117ed565b503d61182e565b85513d85823e3d90fd5b50503461052657816003193601126105265760065490516001600160a01b039091168152602090f35b5050346105265760203660031901126105265760209181906001600160a01b036118a86130e8565b1681526014845220549051908152f35b905034610be35781600319360112610be3576118d26130e8565b6118da613103565b600080516020614a7f8339815191528552600560205283852033865260205260ff848620541615611982576001600160a01b03918216808652600e602052848620548693929061192d908416151561349b565b813b15610d625783602492875196879586946306394c9b60e01b865216908401525af180156119765760209350611967575b505160018152f35b61197090613238565b3861195f565b505051903d90823e3d90fd5b835162461bcd60e51b8152602081850152602760248201527f41757468436f6e74726f6c3a2043616c6c6572206973206e6f74206120636861604482015266363632b733b2b960c91b6064820152608490fd5b505034610526578160031936011261052657338252600e60209081529181902054611a0a906001600160a01b0316151561349b565b611a1261356f565b90519015158152f35b91905034610be357602080600319360112610d6257611a386130e8565b92848052600582528285203386528252610ca860ff8487205416613175565b50503461052657816003193601126105265760ff611a8991838052600560205280842033855260205283205416613175565b610ce833613385565b5050346105265760203660031901126105265761052290610cd96001611ab66130e8565b928580526005602052808620338752602052611ad760ff8288205416613175565b858052600560205285200154613ae6565b5050346105265760203660031901126105265760ff81602093611b096130e8565b600080516020614a3f8339815191528252600586528282206001600160a01b039091168252855220549151911615158152f35b91905034610be35780600319360112610be35782611b586130e8565b611b60613103565b8280526005602052838320338452602052611b8060ff8585205416613175565b6001600160a01b0391821690813b15610d6257836024928651978895869463f2fde38b60e01b865216908401525af1908115611215575061120c575080f35b50503461052657816003193601126105265760075490516001600160a01b039091168152602090f35b50503461052657602036600319011261052657610ce890611c0c60ff61124b6130e8565b6133b3565b50503461052657602036600319011261052657611c3160ff61128b6130e8565b600980546001600160a01b0319166001600160a01b039290921691909117905580f35b50503461052657816003193601126105265760ff602092541690519015158152f35b505034610526578160031936011261052657602090601b549051908152f35b5050346105265781600319360112610526576020906010549051908152f35b9291503461122357602036600319011261122357611cd06130e8565b8380526005602052828420338552602052611cf060ff8486205416613175565b6001600160a01b0316803b1561121e578391835180958193639865027560e01b83525af1908115611215575061120c575080f35b50503461052657816003193601126105265760209060ff601f541690519015158152f35b5050346105265760203660031901126105265760209160ff9082906001600160a01b03611d736130e8565b1681526015855220541690519015158152f35b505034610526578160031936011261052657602090601c549051908152f35b838334610526578160031936011261052657602054917fac3d68540f9902349c72a28dc187ad15b504d68182767a2b00a3db86880507ba60208351858152a16000198314611dfd576020838360018201835551908152f35b634e487b7160e01b815260118452602490fd5b613119565b5050346105265760203660031901126105265760209160ff9082906001600160a01b03611e406130e8565b1681526002855220541690519015158152f35b50503461052657816003193601126105265760209051600080516020614a7f8339815191528152f35b905034610be3576020366003190112610be3573563ffffffff60e01b8116809103610be357825260036020908152918190205490516001600160a01b039091168152f35b91905034610be35780600319360112610be357611edb6130e8565b6006548251630d42d49760e01b81526020959490928592602480359392916001600160a01b03919082168a888681845afa9788156107b8578798612011575b509695949392919085975b878910611f35578b8b8b51908152f35b909192939495969799895163b7ffb17960e01b81528b878201528c818581865afa90811561073b57888c8f928a89838f82611f98998f968391611ff4575b50168152600e885220541692519586948593849363277166bf60e11b85528401613547565b03915afa90811561073b578991611fc6575b50611fb7906001926131cd565b9a019796959493929190611f25565b90508c81813d8311611fed575b611fdd8183613261565b8101031261073057516001611faa565b503d611fd3565b61200b91508a3d8c11611846576118388183613261565b38611f73565b9097508a81813d8311612039575b6120298183613261565b810103126107ad57519638611f1a565b503d61201f565b505034610526576020366003190112610526576020916001600160a01b039082908261206a6130e8565b168152600e85522054169051908152f35b905082346106e1575061208d36613140565b5050600a54336001600160a01b03918216149150811561212e575b50156120d25760208260ff601f5416156120c4575b5160018152f35b6120cc6141ba565b506120bd565b6020608492519162461bcd60e51b8352820152603160248201527f536569674d616e616765723a206f6e6c7920544f4e206f722057544f4e206361604482015270371031b0b6361037b72a3930b739b332b960791b6064820152fd5b9050600b54163314836120a8565b505034610526576020906106af61215236613140565b919050614062565b905034610be35760e0366003190112610be3576121756130e8565b9061217e613103565b6001600160a01b039290604435848116908190036107ad5760643591858316809303610abf5760a4359386851680950361073057600a549087821615806122db575b156122a25792878096938b969360209660018060a01b03199b8c9116911617600a551688600b541617600b558760065416176006558660075416176007556084356010558086600c541617600c5584875180948193631dd70c0360e21b83525af1908115612298578691612279575b501692831561224b575050600d541617600d5560c43560115580f35b906020606492519162461bcd60e51b835282015260086024820152671e995c9bc81d1bdd60c21b6044820152fd5b612292915060203d602011611846576118388183613261565b3861222f565b85513d88823e3d90fd5b885162461bcd60e51b81526020818901526013602482015272185b1c9958591e481a5b9a5d1a585b1a5e9959606a1b6044820152606490fd5b50601154156121c0565b8383346105265760209283600319360112610be3576123026130e8565b6006548351630d42d49760e01b815291929185916001600160a01b0390811688838681845afa92831561244c57849361241d575b509080849395949616915b8587106123515789898951908152f35b90919293949597875163b7ffb17960e01b815289878201526024908b818381875afa908115610ab5579085918891612400575b50168652600e8b528a848a882054168a51928380926370a0823160e01b8252898c8301525afa908115610b465786916123d2575b506123c5906001926131cd565b9801959493929190612341565b90508a81813d83116123f9575b6123e98183613261565b810103126107ea575160016123b8565b503d6123df565b61241791508d803d10611846576118388183613261565b8d612384565b9092508881813d8311612445575b6124358183613261565b81010312610d6257519189612336565b503d61242b565b87513d86823e3d90fd5b905034610be3576060366003190112610be3576124716130e8565b602435916044359182151583036107ea576006546001600160a01b039290831633148015612647575b1561260757841580156125dc575b1561256657509184917f11841078e38c91feada06e1f8ded3697ab2dadc2583c52b14109b82ccd4f77d79316938487526020966014885283812054928460165492831560001461252a57612519935088815260148b52848282205560158b52209060ff801983541691151516179055565b825191825286820152a25160018152f35b61253761256194436131cd565b89825260178c528282205560188b52848282205560198b52209060ff801983541691151516179055565b612519565b60a490602087519162461bcd60e51b8352820152604460248201527f536569674d616e616765723a20636f6d6d697373696f6e2072617465206d757360448201527f742062652030206f72206265747765656e20312052415920616e6420302e30316064820152632052415960e01b6084820152fd5b50846a084595161401484a000000111580156124a85750676765c793fa10079d601b1b8511156124a8565b606490602087519162461bcd60e51b8352820152601a6024820152793737ba1037b7363ca932b3b4b9ba393ca7b927b832b930ba37b960311b6044820152fd5b50855163570ca73560e01b815260208183818688165afa80156126955784918991612676575b5016331461249a565b61268f915060203d602011611846576118388183613261565b3861266d565b87513d8a823e3d90fd5b92915034611223576020366003190112611223576126bb6130e8565b83805260056020528284203385526020526126db60ff8486205416613175565b6001600160a01b0316803b1561121e578391835180958193636ef8d66d60e01b83525af1908115611215575061120c575080f35b5050346105265760203660031901126105265761272f60ff61128b6130e8565b600880546001600160a01b0319166001600160a01b039290921691909117905580f35b50503461052657816003193601126105265760095490516001600160a01b039091168152602090f35b8284346106e15761278b36613140565b929160018060a01b03956127a487600754163314613456565b86821696878552602097600e89526127c2828988205416151561349b565b6127cc8585614007565b61289f575b85896127f884600d54168a8c519485809481936340c10f1960e01b9c8d84528c8401613547565b03925af180156107b857918a96959493918893612882575b508252600e865288822054169261283289519889968795869485528401613547565b03925af1908115612877575061284a57505160018152f35b61286990833d8511612870575b6128618183613261565b810190613282565b508261195f565b503d612857565b8351903d90823e3d90fd5b61289890883d8a11612870576128618183613261565b508b612810565b808652600e8952602489838a892054168a51928380926370a0823160e01b8252878b16898301525afa9081156107b85790889188916128ec575b506128e791610b01916131cd565b6127d1565b8092508b8092503d8311612918575b6129058183613261565b810103126107ad575187906128e76128d9565b503d6128fb565b905034610be35782600319360112610be357600080516020614a5f8339815191528352600560205281832033845260205261295f60ff83852054166133fe565b601f549060ff8216156129a557504360135560ff1916601f55513381527f5db9ee0a495bf2e6ff9c91a7834c1ba4fdd244a5e8aa4e537bd38aeae4b073aa90602090a180f35b606490602084519162461bcd60e51b8352820152601460248201527314185d5cd8589b194e881b9bdd081c185d5cd95960621b6044820152fd5b50503461052657816003193601126105265760085490516001600160a01b039091168152602090f35b5050346105265760203660031901126105265761052290612a6c6001612a2c6130e8565b928580526005602052808620338752602052612a4d60ff8288205416613175565b600080516020614a7f8339815191528652600560205285200154613ae6565b613da3565b9291503461122357602036600319011261122357612a8d6130e8565b8380526005602052828420338552602052612aad60ff8486205416613175565b6001600160a01b0316803b1561121e5783918351809581936338a80c5360e11b83525af1908115611215575061120c575080f35b50503461052657816003193601126105265760209051600080516020614a5f8339815191528152f35b838334610526578060031936011261052657612b24613103565b90336001600160a01b03831603612b415750610522919235613fa2565b5163334bd91960e11b81528390fd5b91905034610be35780600319360112610be357612b6b6130e8565b9083602493602435946001600160401b0391828711610d625736602388011215610d625786810135928311610d625760053660248560051b8a010111610aa2578480989498526005602052858520338652602052612bce60ff8787205416613175565b6001600160a01b0396871693855b898110612be7578680f35b8481841b83010135898116809103610abf57803b15610abf578851634c1d96ab60e11b81528581018890528881888183865af18015612cae57612cb8575b50803b15610abf578851639865027560e01b81528881878183865af18015612cae57612c9f575b50803b15610abf57878091878b518094819363f2fde38b60e01b83528c8b8401525af18015612c95579060019291612c86575b5001612bdc565b612c8f90613238565b38612c7f565b89513d8a823e3d90fd5b612ca890613238565b38612c4c565b8a513d8b823e3d90fd5b612cc190613238565b38612c25565b5050346105265781600319360112610526576020906012549051908152f35b50503461052657602036600319011261052657610ce890612d0a60ff61124b6130e8565b6133e5565b91905034610be35780600319360112610be3576105229135612d346001610ea9613103565b613d3a565b505034610526576020366003190112610526576020906106af612d5a6130e8565b6132b9565b91905034610be3576020366003190112610be35760ff612d9391848052600560205280852033865260205284205416613175565b3560165580f35b83346106e157806003193601126106e157610ce8336133cc565b83346106e157806003193601126106e157610ce8336133b3565b505034610526578160031936011261052657602090601d549051908152f35b5050346105265760203660031901126105265760ff81602093612e0e6130e8565b818052600586528282206001600160a01b039091168252855220549151911615158152f35b905034610be3576020366003190112610be35781602093600192358152600585522001549051908152f35b505034610526578160031936011261052657602090516e099868a38de9ff144be9b8a2db00008152f35b905034610be357602092836003193601126106e15780846001600160a01b03612eaf6130e8565b1684865180948193633b253c2b60e11b83525af19182156106eb5791612f18575b5015612ede57505160018152f35b82606492519162461bcd60e51b835282015260166024820152756661696c20757064617465536569676e696f7261676560501b6044820152fd5b612f2f9150843d8611612870576128618183613261565b38612ed0565b5050346105265781600319360112610526576020906013549051908152f35b83346106e15760203660031901126106e157610ce8612f716130e8565b612f82612f7d33613a8f565b613175565b613385565b8391503461052657602036600319011261052657612fa36130e8565b90612fad33613a8f565b8015613023575b15612fe85750612fe360018394600080516020614a7f8339815191526105229552600560205285200154613ae6565b613b2a565b606490602085519162461bcd60e51b835282015260156024820152743737ba1037b7363ca6b4b73a32b927b920b236b4b760591b6044820152fd5b50600080516020614a1f8339815191528352600560205283832033845260205260ff8484205416612fb4565b905034610be3576020366003190112610be3577f1140c1f14579543e61b599f8f43d0112d66ec1462431e56c97c27b47446a38ac916020913590613095612f7d33613a8f565b6130a461088283601b546131cd565b81601c5551908152a180f35b849134610be3576020366003190112610be35735916001600160e01b0319831683036106e157506130e2602092613aba565b15158152f35b600435906001600160a01b03821682036130fe57565b600080fd5b602435906001600160a01b03821682036130fe57565b346130fe5760003660031901126130fe57604051676765c793fa10079d601b1b8152602090f35b60609060031901126130fe576001600160a01b039060043582811681036130fe579160243590811681036130fe579060443590565b1561317c57565b60405162461bcd60e51b815260206004820152602360248201527f41757468436f6e74726f6c3a2043616c6c6572206973206e6f7420616e20616460448201526236b4b760e91b6064820152608490fd5b919082018092116131da57565b634e487b7160e01b600052601160045260246000fd5b156131f757565b60405162461bcd60e51b8152602060048201526019602482015278657863656564656420736569676e696f72616765207261746560381b6044820152606490fd5b6001600160401b03811161324b57604052565b634e487b7160e01b600052604160045260246000fd5b90601f801991011681019081106001600160401b0382111761324b57604052565b908160209103126130fe575180151581036130fe5790565b908160209103126130fe57516001600160a01b03811681036130fe5790565b60405163570ca73560e01b8152602091908281600481335afa91821561335a578391600093613366575b506001600160a01b039081166000908152600e83526040908190205490516370a0823160e01b8152938216600485015283916024918391165afa91821561335a5760009261333057505090565b90809250813d8311613353575b6133478183613261565b810103126130fe575190565b503d61333d565b6040513d6000823e3d90fd5b61337e919350823d8411611846576118388183613261565b91386132e3565b336001600160a01b038216036133a15761339e90613f3b565b50565b60405163334bd91960e11b8152600490fd5b336001600160a01b038216036133a15761339e90613da3565b336001600160a01b038216036133a15761339e90613eb3565b336001600160a01b038216036133a15761339e90613e2b565b1561340557565b60405162461bcd60e51b815260206004820152602360248201527f41757468436f6e74726f6c3a2043616c6c6572206973206e6f7420612070617560448201526239b2b960e91b6064820152608490fd5b1561345d57565b60405162461bcd60e51b81526020600482015260166024820152753737ba1037b7363ca232b837b9b4ba26b0b730b3b2b960511b6044820152606490fd5b156134a257565b60405162461bcd60e51b815260206004820152602e60248201527f536569674d616e616765723a20636f696e61676520686173206e6f742062656560448201526d1b8819195c1b1bde5959081e595d60921b6064820152608490fd5b1561350557565b60405162461bcd60e51b815260206004820152601a6024820152791b5a5b9a5b5d5b48185b5bdd5b9d081a5cc81c995c5d5a5c995960321b6044820152606490fd5b6001600160a01b039091168152602081019190915260400190565b919082039182116131da57565b600060ff601f5416613a8957601154431115613a465761358e336132b9565b601a5411613a0157338152600e60209081526040808320546001600160a01b0392908316916135bb6141ba565b50338552600f825280852043905580516318160ddd60e01b81529360049280868581885afa9586156139f75787966139c8575b5060248183600d54168551928380926370a0823160e01b8252338a8301525afa9081156139be578891613991575b5080871015613960578661362f91613562565b9183519463570ca73560e01b865282868281335afa9586156137f9578996613941575b503389526015835260ff858a205416966136708789878c8533614669565b9790988751630a9ee07f60e31b815286818681875afa9081156138fa578c8c8f938a938591613904575b506106206136bf939261061a61061561062a94676765c793fa10079d601b1b93614957565b60248b518094819363817e9d3160e01b83528a830152885af180156138fa578794928994928c926138dd575b5081613803575b505050506137219284600b5416908c8660075416918a51968795869485936340c10f1960e01b85528401613547565b03925af19081156137f95789916137dc575b5015610abf57917f9f0aff7defc0f0b331d66bccf1955a699b40155565289317e38b9799ddf09448979593917fe6d858f14d755446648a6e0c8ab8b5a0f58ccc7920d4c910b0454e4dcd869af08260a099979560075416613798865192839283613547565b0390a18251967f521cc65179761533a7c8d7a973291dd7baebb99a67edf5ef78e9c2b61a533d95339180a233875286015284015260608301526080820152a1600190565b6137f39150833d8511612870576128618183613261565b38613733565b85513d8b823e3d90fd5b9294919350909115613881575050813b1561387d578761383a928c92838a5180968195829463079cc67960e41b84528a8401613547565b03925af180156138735761385a575b508284613721925b923889816136f2565b84613721929a61386a8693613238565b9a925050613849565b86513d8c823e3d90fd5b8a80fd5b9091926138a3938d8a518096819582946340c10f1960e01b84528a8401613547565b03925af180156138735761372192859287926138c0575b50613851565b6138d690843d8611612870576128618183613261565b50386138ba565b6138f390873d8911612870576128618183613261565b50386136eb565b89513d8f823e3d90fd5b945050505081813d831161393a575b61391d8183613261565b8101031261393657518c9087908d908d9061062061369a565b8c80fd5b503d613913565b613959919650833d8511611846576118388183613261565b9438613652565b505050505050507f521cc65179761533a7c8d7a973291dd7baebb99a67edf5ef78e9c2b61a533d95339180a2600190565b90508181813d83116139b7575b6139a88183613261565b81010312610abf57513861361c565b503d61399e565b84513d8a823e3d90fd5b9080965081813d83116139f0575b6139e08183613261565b810103126107ad575194386135ee565b503d6139d6565b83513d89823e3d90fd5b60405162461bcd60e51b815260206004820152601d60248201527f6d696e696d756d416d6f756e7420697320696e73756666696369656e740000006044820152606490fd5b60405162461bcd60e51b815260206004820152601b60248201527a1b185cdd081cd95a59c8189b1bd8dac81a5cc81b9bdd081c185cdd602a1b6044820152606490fd5b50600190565b6001600160a01b03166000908152600080516020614abf833981519152602052604090205460ff1690565b6001600160e01b03198116637965db0b60e01b14908115613ad9575090565b613ae39150613aba565b90565b80600052600560205260406000203360005260205260ff6040600020541615613b0c5750565b6044906040519063e2517d3f60e01b82523360048301526024820152fd5b6001600160a01b031660008181527fedec71783a10810e436f3392a073a61717130e573433fcc6591c3061a012f7676020526040812054909190600080516020614a7f8339815191529060ff16613bb45780835260056020526040832082845260205260408320600160ff198254161790556000805160206149ff833981519152339380a4600190565b505090565b6001600160a01b03166000818152600080516020614abf833981519152602052604081205490919060ff16613c225781805260056020526040822081835260205260408220600160ff1982541617905533916000805160206149ff8339815191528180a4600190565b5090565b6001600160a01b031660008181527fca0a2f641ec05ca23127d994cf03ffc453db616acae0b86cb56bb95304d068546020526040812054909190600080516020614a1f8339815191529060ff16613bb45780835260056020526040832082845260205260408320600160ff198254161790556000805160206149ff833981519152339380a4600190565b6001600160a01b031660008181527f02634a7c777b8129955fe1824eee49ef19dfa96f2f4cb63212492c3d84eb58e66020526040812054909190600080516020614a3f8339815191529060ff16613bb45780835260056020526040832082845260205260408320600160ff198254161790556000805160206149ff833981519152339380a4600190565b906000918083526005602052604083209160018060a01b03169182845260205260ff60408420541615600014613bb45780835260056020526040832082845260205260408320600160ff198254161790556000805160206149ff833981519152339380a4600190565b6001600160a01b031660008181527fedec71783a10810e436f3392a073a61717130e573433fcc6591c3061a012f7676020526040812054909190600080516020614a7f8339815191529060ff1615613bb4578083526005602052604083208284526020526040832060ff198154169055600080516020614a9f833981519152339380a4600190565b6001600160a01b031660008181527fca0a2f641ec05ca23127d994cf03ffc453db616acae0b86cb56bb95304d068546020526040812054909190600080516020614a1f8339815191529060ff1615613bb4578083526005602052604083208284526020526040832060ff198154169055600080516020614a9f833981519152339380a4600190565b6001600160a01b031660008181527f02634a7c777b8129955fe1824eee49ef19dfa96f2f4cb63212492c3d84eb58e66020526040812054909190600080516020614a3f8339815191529060ff1615613bb4578083526005602052604083208284526020526040832060ff198154169055600080516020614a9f833981519152339380a4600190565b6001600160a01b03166000818152600080516020614abf833981519152602052604081205490919060ff1615613c22578180526005602052604082208183526020526040822060ff1981541690553391600080516020614a9f8339815191528180a4600190565b906000918083526005602052604083209160018060a01b03169182845260205260ff604084205416600014613bb4578083526005602052604083208284526020526040832060ff198154169055600080516020614a9f833981519152339380a4600190565b60405163570ca73560e01b81526001600160a01b03916020908290600490829086165afa801561335a578291600091614043575b501691161490565b61405c915060203d602011611846576118388183613261565b3861403b565b9060049060018060a01b03809316600090808252602094600e86528581604085205416604051968780926318160ddd60e01b82525afa94851561419c57908691849661416b575b50600d5416916024604051809481936370a0823160e01b835260048301525afa948515614160578295614130575b50508383101580614116575b61410f5750610620613ae39361061a61061561062a9461067687676765c793fa10079d601b1b95613562565b9250505090565b50670de0b6b3a764000061412a8585613562565b106140e3565b9080929550813d8311614159575b6141488183613261565b81010312610d6257519238806140d7565b503d61413e565b6040513d84823e3d90fd5b8281939297503d8311614195575b6141838183613261565b81010312610be35785905194386140a9565b503d614179565b6040513d85823e3d90fd5b818102929181159184041417156131da57565b60009060115443111561466757600d54604080516318160ddd60e01b808252946001600160a01b03938416936004939092602090818187818a5afa90811561462057849161463a575b501561462d578151888152818187818a5afa9081156146205784916145f3575b5061423861422f6148ba565b601054906141a7565b968351998a52828a8881845afa998a156145e957859a6145b8575b5061427561061598999a61061a676765c793fa10079d601b1b9a8b928d614957565b6e04cc3451c6f4ff8a25f4dc516d80008101908181116145a557811061456b576e099868a38de9ff144be9b8a2db00009004929190886142c46106156142bb878e613562565b601d5490614957565b04916142d483610e1c87846131cd565b436011558651630a9ee07f60e31b81529085828c81875afa91821561456157918c918794938b92614529575b50614319939261061a61061561062a9461062094614957565b60248a898951958694859363817e9d3160e01b85528401525af180156122985761450c575b50614349838a613562565b9480968198829a826008541680614453575b50826009541690816143d2575b5050505050601d546143bb575b5082519788528701528501526060840152608083015260a08201527fa1c52db210d9232b95c07d81e0aca3d25829b70963d3c458843f9d63d1ccb99460c03392a2600190565b96506143c987601e546131cd565b601e5538614375565b849b509161441194939187936143ee6106158d601c5490614957565b049c8d93600b5416928b51978895869485936340c10f1960e01b85528401613547565b03925af1908115614448575061442b575b80808080614368565b61444190833d8511612870576128618183613261565b5038614422565b8651903d90823e3d90fd5b995061448e868261446a6106158d601b5490614957565b04809c86600b541690888d518096819582946340c10f1960e01b84528b8401613547565b03925af180156144e5576144ef575b508260085416803b15610aa25784809160248d8c51948593849263027aa37b60e01b8452898401525af180156144e5571561435b576144de90949194613238565b923861435b565b89513d87823e3d90fd5b61450590873d8911612870576128618183613261565b503861449d565b61452290833d8511612870576128618183613261565b503861433e565b92509293905081813d831161455a575b6145438183613261565b8101031261073057518592918c9190614319614300565b503d614539565b88513d8b823e3d90fd5b845162461bcd60e51b8152808901859052601460248201527364732d6d6174682d6164642d6f766572666c6f7760601b6044820152606490fd5b634e487b7160e01b875260118952602487fd5b9950828a813d83116145e2575b6145cf8183613261565b81010312610aa257985198614275614253565b503d6145c5565b84513d87823e3d90fd5b90508181813d8311614619575b61460a8183613261565b81010312610d62575138614223565b503d614600565b50505051903d90823e3d90fd5b5050436011559450505050565b90508181813d8311614660575b6146518183613261565b81010312610d62575138614203565b503d614647565b565b95939491959290926000809460018060a01b03809316865260206017815260409384882054804310159081614890575b5061484c575b3388526014825284882054966146b5878d6131cd565b9a881561483c571561480c578b156147fd5785516370a0823160e01b8152908216600482015292829184916024918391165afa9384156147f4575086936147c4575b505081156147bb57506106156147196106159861062a61062061473b956148f3565b938493614735676765c793fa10079d601b1b9a8b968793614957565b04614957565b0485821495866000146147815761476094959682945b501561476457509050936131cd565b9190565b61477461061561477b9486614957565b04906131cd565b936131cd565b828103968188116147a7576147a161476096979861062a610620866148f3565b94614751565b634e487b7160e01b85526011600452602485fd5b95965050505050565b9080929350813d83116147ed575b6147dc8183613261565b81010312610aa257519038806146f7565b503d6147d2565b513d88823e3d90fd5b50505050965050505050909190565b50505050505091506147609293945061061561483491676765c793fa10079d601b1b93614957565b048093613562565b5050505050505050509250909190565b601882528488205460148352858920556019825261488260ff868a20541660158452868a209060ff801983541691151516179055565b60178252878581205561469f565b9050151538614699565b81156148a4570490565b634e487b7160e01b600052601260045260246000fd5b60ff601f54166130fe576011546148d18143613562565b90601354908110613c2257906148ed613ae39260125490613562565b90613562565b676765c793fa10079d601b1b8082029291908115828504821417156131da5783040361491b57565b60405162461bcd60e51b815260206004820152601460248201527364732d6d6174682d6d756c2d6f766572666c6f7760601b6044820152606490fd5b60009291801591821561496e575b50501561491b57565b9150925061498661497f84836141a7565b938461489a565b143880614965565b676765c793fa10079d601a1b810191908281116131da5782106149ad57565b60405162461bcd60e51b815260206004820152601460248201527364732d6d6174682d6164642d6f766572666c6f7760601b6044820152606490fd5b91906149f590836131cd565b9182106149ad5756fe2f8788117e7eff1d82e926ec794901d17c78024a50270940304540a733656f0df0887ba65ee2024ea881d91b74c2450ef19e1557f03bed3ea9f16b037cbe2dc9523a704056dcd17bcf83bed8b68c59416dac1119be77755efe3bde0a64e46e0cfcb9fcbfa83b897fb2d5cf4b58962164105c1e71489a37ef3ae0db3fdce576f6bf02bad7114723a857a3af46cea17b778a3a951c96f183784d9a2448cc479ab6f6391f5c32d9c69d2a47ea670b442974b53935d1edc7fd64eb21e047a839171b05b8ccbb9d4d8fb16ea74ce3c29a41f1b461fbdaff4714a0d9a8eb05499746bca26469706673582212208e313e0e0bc833cdb6f5efde44884efad99b46904cc750fc2fa417da75955d5b64736f6c63430008190033",
  "linkReferences": {},
  "deployedLinkReferences": {}
}