{
  "_format": "hh-sol-artifact-1",
  "contractName": "AuthControlGemFactory",
  "sourceName": "src/common/AuthControlGemFactory.sol",
  "abi": [
    {
      "inputs": [],
      "name": "AccessControlBadConfirmation",
      "type": "error"
    },
    {
      "inputs": [
        {
          "internalType": "address",
          "name": "account",
          "type": "address"
        },
        {
          "internalType": "bytes32",
          "name": "neededRole",
          "type": "bytes32"
        }
      ],
      "name": "AccessControlUnauthorizedAccount",
      "type": "error"
    },
    {
      "anonymous": false,
      "inputs": [
        {
          "indexed": true,
          "internalType": "bytes32",
          "name": "role",
          "type": "bytes32"
        },
        {
          "indexed": true,
          "internalType": "bytes32",
          "name": "previousAdminRole",
          "type": "bytes32"
        },
        {
          "indexed": true,
          "internalType": "bytes32",
          "name": "newAdminRole",
          "type": "bytes32"
        }
      ],
      "name": "RoleAdminChanged",
      "type": "event"
    },
    {
      "anonymous": false,
      "inputs": [
        {
          "indexed": true,
          "internalType": "bytes32",
          "name": "role",
          "type": "bytes32"
        },
        {
          "indexed": true,
          "internalType": "address",
          "name": "account",
          "type": "address"
        },
        {
          "indexed": true,
          "internalType": "address",
          "name": "sender",
          "type": "address"
        }
      ],
      "name": "RoleGranted",
      "type": "event"
    },
    {
      "anonymous": false,
      "inputs": [
        {
          "indexed": true,
          "internalType": "bytes32",
          "name": "role",
          "type": "bytes32"
        },
        {
          "indexed": true,
          "internalType": "address",
          "name": "account",
          "type": "address"
        },
        {
          "indexed": true,
          "internalType": "address",
          "name": "sender",
          "type": "address"
        }
      ],
      "name": "RoleRevoked",
      "type": "event"
    },
    {
      "inputs": [],
      "name": "DEFAULT_ADMIN_ROLE",
      "outputs": [
        {
          "internalType": "bytes32",
          "name": "",
          "type": "bytes32"
        }
      ],
      "stateMutability": "view",
      "type": "function"
    },
    {
      "inputs": [],
      "name": "PAUSE_ROLE",
      "outputs": [
        {
          "internalType": "bytes32",
          "name": "",
          "type": "bytes32"
        }
      ],
      "stateMutability": "view",
      "type": "function"
    },
    {
      "inputs": [],
      "name": "TREASURY_ROLE",
      "outputs": [
        {
          "internalType": "bytes32",
          "name": "",
          "type": "bytes32"
        }
      ],
      "stateMutability": "view",
      "type": "function"
    },
    {
      "inputs": [
        {
          "internalType": "address",
          "name": "account",
          "type": "address"
        }
      ],
      "name": "addAdmin",
      "outputs": [],
      "stateMutability": "nonpayable",
      "type": "function"
    },
    {
      "inputs": [
        {
          "internalType": "address",
          "name": "account",
          "type": "address"
        }
      ],
      "name": "addMinter",
      "outputs": [],
      "stateMutability": "nonpayable",
      "type": "function"
    },
    {
      "inputs": [
        {
          "internalType": "bytes32",
          "name": "role",
          "type": "bytes32"
        }
      ],
      "name": "getRoleAdmin",
      "outputs": [
        {
          "internalType": "bytes32",
          "name": "",
          "type": "bytes32"
        }
      ],
      "stateMutability": "view",
      "type": "function"
    },
    {
      "inputs": [
        {
          "internalType": "bytes32",
          "name": "role",
          "type": "bytes32"
        },
        {
          "internalType": "address",
          "name": "account",
          "type": "address"
        }
      ],
      "name": "grantRole",
      "outputs": [],
      "stateMutability": "nonpayable",
      "type": "function"
    },
    {
      "inputs": [
        {
          "internalType": "bytes32",
          "name": "role",
          "type": "bytes32"
        },
        {
          "internalType": "address",
          "name": "account",
          "type": "address"
        }
      ],
      "name": "hasRole",
      "outputs": [
        {
          "internalType": "bool",
          "name": "",
          "type": "bool"
        }
      ],
      "stateMutability": "view",
      "type": "function"
    },
    {
      "inputs": [
        {
          "internalType": "address",
          "name": "account",
          "type": "address"
        }
      ],
      "name": "isAdmin",
      "outputs": [
        {
          "internalType": "bool",
          "name": "",
          "type": "bool"
        }
      ],
      "stateMutability": "view",
      "type": "function"
    },
    {
      "inputs": [
        {
          "internalType": "address",
          "name": "account",
          "type": "address"
        }
      ],
      "name": "isMinter",
      "outputs": [
        {
          "internalType": "bool",
          "name": "",
          "type": "bool"
        }
      ],
      "stateMutability": "view",
      "type": "function"
    },
    {
      "inputs": [],
      "name": "isOwner",
      "outputs": [
        {
          "internalType": "bool",
          "name": "",
          "type": "bool"
        }
      ],
      "stateMutability": "view",
      "type": "function"
    },
    {
      "inputs": [
        {
          "internalType": "address",
          "name": "account",
          "type": "address"
        }
      ],
      "name": "removeAdmin",
      "outputs": [],
      "stateMutability": "nonpayable",
      "type": "function"
    },
    {
      "inputs": [
        {
          "internalType": "address",
          "name": "account",
          "type": "address"
        }
      ],
      "name": "removeMinter",
      "outputs": [],
      "stateMutability": "nonpayable",
      "type": "function"
    },
    {
      "inputs": [],
      "name": "renounceMinter",
      "outputs": [],
      "stateMutability": "nonpayable",
      "type": "function"
    },
    {
      "inputs": [],
      "name": "renounceOwnership",
      "outputs": [],
      "stateMutability": "nonpayable",
      "type": "function"
    },
    {
      "inputs": [
        {
          "internalType": "bytes32",
          "name": "role",
          "type": "bytes32"
        },
        {
          "internalType": "address",
          "name": "callerConfirmation",
          "type": "address"
        }
      ],
      "name": "renounceRole",
      "outputs": [],
      "stateMutability": "nonpayable",
      "type": "function"
    },
    {
      "inputs": [
        {
          "internalType": "address",
          "name": "account",
          "type": "address"
        }
      ],
      "name": "revokeMinter",
      "outputs": [],
      "stateMutability": "nonpayable",
      "type": "function"
    },
    {
      "inputs": [
        {
          "internalType": "bytes32",
          "name": "role",
          "type": "bytes32"
        },
        {
          "internalType": "address",
          "name": "account",
          "type": "address"
        }
      ],
      "name": "revokeRole",
      "outputs": [],
      "stateMutability": "nonpayable",
      "type": "function"
    },
    {
      "inputs": [
        {
          "internalType": "bytes4",
          "name": "interfaceId",
          "type": "bytes4"
        }
      ],
      "name": "supportsInterface",
      "outputs": [
        {
          "internalType": "bool",
          "name": "",
          "type": "bool"
        }
      ],
      "stateMutability": "view",
      "type": "function"
    },
    {
      "inputs": [
        {
          "internalType": "address",
          "name": "newAdmin",
          "type": "address"
        }
      ],
      "name": "transferAdmin",
      "outputs": [],
      "stateMutability": "nonpayable",
      "type": "function"
    },
    {
      "inputs": [
        {
          "internalType": "address",
          "name": "newAdmin",
          "type": "address"
        }
      ],
      "name": "transferOwnership",
      "outputs": [],
      "stateMutability": "nonpayable",
      "type": "function"
    }
  ],
  "bytecode": "0x60808060405234601557610b3d908161001b8239f35b600080fdfe608060408181526004908136101561001657600080fd5b600092833560e01c90816301ffc9a71461066a575080631785f53c14610641578063248a9ca31461061757806324d7806c146105d25780632f2ff15d146105aa5780633092afd51461056757806336568abe14610520578063389ed267146104e55780637048027514610491578063715018a61461045757806375829def1461041e5780638f32d59b146103ec57806391d14854146103a6578063983b2d561461037d5780639865027514610360578063a217fddf14610345578063aa271e1a146102f2578063cfbd48851461028b578063d11a57ec1461025e578063d547741f146102215763f2fde38b1461010b57600080fd5b3461021d57602080600319360112610219576101256106be565b92848052848252828520338652825261014360ff84872054166106ef565b848052848252828520338652825261016060ff84872054166106ef565b6001600160a01b03841680156101dc5733146101a25750600161019593928561019093818052528520015461078e565b6107d2565b5061019f33610747565b80f35b915162461bcd60e51b815291820152601660248201527520b1b1b2b9b9b4b136329d1039b0b6b29030b236b4b760511b6044820152606490fd5b50915162461bcd60e51b815291820152601860248201527741636365737369626c653a207a65726f206164647265737360401b6044820152606490fd5b8380fd5b8280fd5b503461021d578060031936011261021d5761025a913561025560016102446106d9565b93838752866020528620015461078e565b610a44565b5080f35b83823461028757816003193601126102875760209051600080516020610ae88339815191528152f35b5080fd5b8382346102875760203660031901126102875761025a906102ed60016102af6106be565b92858052856020528086203387526020526102cf60ff82882054166106ef565b600080516020610ae88339815191528652856020528520015461078e565b610945565b8382346102875760203660031901126102875760ff816020936103136106be565b600080516020610ae883398151915282528186528282206001600160a01b039091168252855220549151911615158152f35b83823461028757816003193601126102875751908152602090f35b833461037a578060031936011261037a5761019f33610775565b80fd5b8382346102875760203660031901126102875761025a906103a160016102af6106be565b610850565b50903461021d578160031936011261021d578160209360ff926103c76106d9565b903582528186528282206001600160a01b039091168252855220549151911615158152f35b83823461028757816003193601126102875760ff81838060209552808552818120338252855220541690519015158152f35b503461021d57602080600319360112610219576104396106be565b92848052848252828520338652825261016060ff84872054166106ef565b83823461028757816003193601126102875760ff6104889183805283602052808420338552602052832054166106ef565b61019f33610747565b8382346102875760203660031901126102875761025a9061019060016104b56106be565b92858052856020528086203387526020526104d560ff82882054166106ef565b858052856020528520015461078e565b838234610287578160031936011261028757602090517ffcb9fcbfa83b897fb2d5cf4b58962164105c1e71489a37ef3ae0db3fdce576f68152f35b5082903461028757806003193601126102875761053b6106d9565b90336001600160a01b03831603610558575061025a919235610a44565b5163334bd91960e11b81528390fd5b8382346102875760203660031901126102875761019f906105a560ff61058b6106be565b9285805285602052808620338752602052852054166106ef565b610775565b503461021d578060031936011261021d5761025a91356105cd60016102446106d9565b6108de565b8382346102875760203660031901126102875760ff816020936105f36106be565b8180528186528282206001600160a01b039091168252855220549151911615158152f35b50903461021d57602036600319011261021d57816020936001923581528085522001549051908152f35b8382346102875760203660031901126102875761019f9061066560ff61058b6106be565b610747565b8490843461021d57602036600319011261021d573563ffffffff60e01b811680910361021d5760209250637965db0b60e01b81149081156106ad575b5015158152f35b6301ffc9a760e01b149050836106a6565b600435906001600160a01b03821682036106d457565b600080fd5b602435906001600160a01b03821682036106d457565b156106f657565b60405162461bcd60e51b815260206004820152602360248201527f41757468436f6e74726f6c3a2043616c6c6572206973206e6f7420616e20616460448201526236b4b760e91b6064820152608490fd5b336001600160a01b0382160361076357610760906109cc565b50565b60405163334bd91960e11b8152600490fd5b336001600160a01b038216036107635761076090610945565b80600052600060205260406000203360005260205260ff60406000205416156107b45750565b6044906040519063e2517d3f60e01b82523360048301526024820152fd5b6001600160a01b031660008181527fad3228b676f7d3cd4284a5443f17f1962b36e491b30a40b2405849e597ba5fb5602052604081205490919060ff1661084c57818052816020526040822081835260205260408220600160ff198254161790553391600080516020610aa88339815191528180a4600190565b5090565b6001600160a01b031660008181527f5d86d4bf24e8589044ace59e025756077045f3ba31b25df78a1a31f29e4f08236020526040812054909190600080516020610ae88339815191529060ff166108d957808352826020526040832082845260205260408320600160ff19825416179055600080516020610aa8833981519152339380a4600190565b505090565b9060009180835282602052604083209160018060a01b03169182845260205260ff604084205416156000146108d957808352826020526040832082845260205260408320600160ff19825416179055600080516020610aa8833981519152339380a4600190565b6001600160a01b031660008181527f5d86d4bf24e8589044ace59e025756077045f3ba31b25df78a1a31f29e4f08236020526040812054909190600080516020610ae88339815191529060ff16156108d95780835282602052604083208284526020526040832060ff198154169055600080516020610ac8833981519152339380a4600190565b6001600160a01b031660008181527fad3228b676f7d3cd4284a5443f17f1962b36e491b30a40b2405849e597ba5fb5602052604081205490919060ff161561084c5781805281602052604082208183526020526040822060ff1981541690553391600080516020610ac88339815191528180a4600190565b9060009180835282602052604083209160018060a01b03169182845260205260ff6040842054166000146108d95780835282602052604083208284526020526040832060ff198154169055600080516020610ac8833981519152339380a460019056fe2f8788117e7eff1d82e926ec794901d17c78024a50270940304540a733656f0df6391f5c32d9c69d2a47ea670b442974b53935d1edc7fd64eb21e047a839171b06aa03964db1f7257357ef09714a5f0ca3633723df419e97015e0c7a3e83edb7a2646970667358221220bbbe9b246cbf39256d1b9e9160937816d378d4fb4b4338f2fc2059f90a17541c64736f6c63430008190033",
  "linkReferences": {},
  "deployedLinkReferences": {}
}