{
  "_format": "hh-sol-artifact-1",
  "contractName": "DRBCoordinatorMock",
  "sourceName": "src/L2/Mock/DRBCoordinatorMock.sol",
  "abi": [
    {
      "inputs": [
        {
          "internalType": "uint256",
          "name": "avgL2GasUsed",
          "type": "uint256"
        },
        {
          "internalType": "uint256",
          "name": "premiumPercentage",
          "type": "uint256"
        },
        {
          "internalType": "uint256",
          "name": "flatFee",
          "type": "uint256"
        },
        {
          "internalType": "uint256",
          "name": "calldataSizeBytes",
          "type": "uint256"
        }
      ],
      "stateMutability": "nonpayable",
      "type": "constructor"
    },
    {
      "inputs": [],
      "name": "AlreadyFullfilled",
      "type": "error"
    },
    {
      "inputs": [],
      "name": "InsufficientAmount",
      "type": "error"
    },
    {
      "inputs": [
        {
          "internalType": "uint8",
          "name": "mode",
          "type": "uint8"
        }
      ],
      "name": "InvalidL1FeeCalculationMode",
      "type": "error"
    },
    {
      "inputs": [
        {
          "internalType": "uint8",
          "name": "coefficient",
          "type": "uint8"
        }
      ],
      "name": "InvalidL1FeeCoefficient",
      "type": "error"
    },
    {
      "inputs": [],
      "name": "NoRequestFound",
      "type": "error"
    },
    {
      "inputs": [
        {
          "internalType": "address",
          "name": "owner",
          "type": "address"
        }
      ],
      "name": "OwnableInvalidOwner",
      "type": "error"
    },
    {
      "inputs": [
        {
          "internalType": "address",
          "name": "account",
          "type": "address"
        }
      ],
      "name": "OwnableUnauthorizedAccount",
      "type": "error"
    },
    {
      "inputs": [],
      "name": "ReentrancyGuardReentrantCall",
      "type": "error"
    },
    {
      "anonymous": false,
      "inputs": [
        {
          "indexed": false,
          "internalType": "uint256",
          "name": "requestId",
          "type": "uint256"
        },
        {
          "indexed": false,
          "internalType": "bool",
          "name": "success",
          "type": "bool"
        },
        {
          "indexed": false,
          "internalType": "address",
          "name": "fulfiller",
          "type": "address"
        }
      ],
      "name": "FulfillRandomness",
      "type": "event"
    },
    {
      "anonymous": false,
      "inputs": [
        {
          "indexed": false,
          "internalType": "uint8",
          "name": "mode",
          "type": "uint8"
        },
        {
          "indexed": false,
          "internalType": "uint8",
          "name": "coefficient",
          "type": "uint8"
        }
      ],
      "name": "L1FeeCalculationSet",
      "type": "event"
    },
    {
      "anonymous": false,
      "inputs": [
        {
          "indexed": true,
          "internalType": "address",
          "name": "previousOwner",
          "type": "address"
        },
        {
          "indexed": true,
          "internalType": "address",
          "name": "newOwner",
          "type": "address"
        }
      ],
      "name": "OwnershipTransferred",
      "type": "event"
    },
    {
      "anonymous": false,
      "inputs": [
        {
          "indexed": false,
          "internalType": "uint256",
          "name": "requestId",
          "type": "uint256"
        },
        {
          "indexed": false,
          "internalType": "uint256",
          "name": "requestedTime",
          "type": "uint256"
        }
      ],
      "name": "RandomWordsRequested",
      "type": "event"
    },
    {
      "inputs": [
        {
          "components": [
            {
              "internalType": "uint16",
              "name": "security",
              "type": "uint16"
            },
            {
              "internalType": "uint16",
              "name": "mode",
              "type": "uint16"
            },
            {
              "internalType": "uint32",
              "name": "callbackGasLimit",
              "type": "uint32"
            }
          ],
          "internalType": "struct IDRBCoordinator.RandomWordsRequest",
          "name": "_request",
          "type": "tuple"
        }
      ],
      "name": "calculateDirectFundingPrice",
      "outputs": [
        {
          "internalType": "uint256",
          "name": "",
          "type": "uint256"
        }
      ],
      "stateMutability": "view",
      "type": "function"
    },
    {
      "inputs": [
        {
          "internalType": "uint256",
          "name": "gasPrice",
          "type": "uint256"
        },
        {
          "components": [
            {
              "internalType": "uint16",
              "name": "security",
              "type": "uint16"
            },
            {
              "internalType": "uint16",
              "name": "mode",
              "type": "uint16"
            },
            {
              "internalType": "uint32",
              "name": "callbackGasLimit",
              "type": "uint32"
            }
          ],
          "internalType": "struct IDRBCoordinator.RandomWordsRequest",
          "name": "_request",
          "type": "tuple"
        }
      ],
      "name": "estimateDirectFundingPrice",
      "outputs": [
        {
          "internalType": "uint256",
          "name": "",
          "type": "uint256"
        }
      ],
      "stateMutability": "view",
      "type": "function"
    },
    {
      "inputs": [
        {
          "internalType": "uint256",
          "name": "requestId",
          "type": "uint256"
        }
      ],
      "name": "fulfillRandomness",
      "outputs": [],
      "stateMutability": "nonpayable",
      "type": "function"
    },
    {
      "inputs": [],
      "name": "owner",
      "outputs": [
        {
          "internalType": "address",
          "name": "",
          "type": "address"
        }
      ],
      "stateMutability": "view",
      "type": "function"
    },
    {
      "inputs": [],
      "name": "renounceOwnership",
      "outputs": [],
      "stateMutability": "nonpayable",
      "type": "function"
    },
    {
      "inputs": [
        {
          "components": [
            {
              "internalType": "uint16",
              "name": "security",
              "type": "uint16"
            },
            {
              "internalType": "uint16",
              "name": "mode",
              "type": "uint16"
            },
            {
              "internalType": "uint32",
              "name": "callbackGasLimit",
              "type": "uint32"
            }
          ],
          "internalType": "struct IDRBCoordinator.RandomWordsRequest",
          "name": "_request",
          "type": "tuple"
        }
      ],
      "name": "requestRandomWordDirectFunding",
      "outputs": [
        {
          "internalType": "uint256",
          "name": "requestId",
          "type": "uint256"
        }
      ],
      "stateMutability": "payable",
      "type": "function"
    },
    {
      "inputs": [],
      "name": "s_l1FeeCalculationMode",
      "outputs": [
        {
          "internalType": "uint8",
          "name": "",
          "type": "uint8"
        }
      ],
      "stateMutability": "view",
      "type": "function"
    },
    {
      "inputs": [],
      "name": "s_l1FeeCoefficient",
      "outputs": [
        {
          "internalType": "uint8",
          "name": "",
          "type": "uint8"
        }
      ],
      "stateMutability": "view",
      "type": "function"
    },
    {
      "inputs": [
        {
          "internalType": "uint8",
          "name": "mode",
          "type": "uint8"
        },
        {
          "internalType": "uint8",
          "name": "coefficient",
          "type": "uint8"
        }
      ],
      "name": "setL1FeeCalculation",
      "outputs": [],
      "stateMutability": "nonpayable",
      "type": "function"
    },
    {
      "inputs": [
        {
          "internalType": "address",
          "name": "newOwner",
          "type": "address"
        }
      ],
      "name": "transferOwnership",
      "outputs": [],
      "stateMutability": "nonpayable",
      "type": "function"
    }
  ],
  "bytecode": "0x6080346100ec57601f610ffe38819003918201601f19168301916001600160401b038311848410176100f1578084926080946040528339810103126100ec57805190602081015190606060408201519101519133156100d35760008054604051959133906001600160a01b038316907f8be0079c531659141344cd1fd0a4f28419497f9722a3daafe3b4186f6b6457e09080a36001600160a81b0319163360ff60a01b191617600160a21b1760ff60a81b1916601960aa1b17600055600155600255600355600455610ef690816101088239f35b604051631e4fbdf760e01b815260006004820152602490fd5b600080fd5b634e487b7160e01b600052604160045260246000fdfe6080604052600436101561001257600080fd5b60003560e01c8063122c162a146100b757806314530741146100b257806340e3290f146100ad578063495bd94e146100a8578063715018a6146100a3578063807ca9d61461009e5780638da5cb5b1461009957806390bd5c7414610094578063a6c278f31461008f5763f2fde38b1461008a57600080fd5b610684565b610657565b610633565b61060a565b61057a565b61051c565b61033d565b610319565b610230565b60603660031901126101fa576100cc366101ff565b6100d4610892565b6100de813a610981565b908134106101fa576005549060001982146101f5576101f19261011e6101859260018501600555610119856000526006602052604060002090565b610742565b6101266107e5565b428152602081019190915233604082015261014b836000526007602052604060002090565b815181556020820151600182015560409091015160029190910180546001600160a01b0319166001600160a01b0392909216919091179055565b7fc904ef81354df41ed9256aa2ab862017f6ab3f33f3f7ca50016a1786083d086d6101d66101bd836000526007602052604060002090565b5460408051858152602081019290925290918291820190565b0390a16101e16108d1565b6040519081529081906020820190565b0390f35b61070f565b600080fd5b60609060031901126101fa57600490565b6004359060ff821682036101fa57565b6024359060ff821682036101fa57565b346101fa5760403660031901126101fa57610249610210565b610251610220565b6102596109eb565b60ff82166005811015610302575060ff811680159081156102f7575b506102db576000805460ff60a81b60a884901b1661ffff60a01b1990911660ff60a01b60a086901b16171790556040805160ff93841681529290911660208301527f8e63dc2f2e669ce73bebd2580bb9dd9a5d17fa2d046ac02057d8349fc0b0c2f391a1005b60405162d4503560e51b815260ff919091166004820152602490fd5b606491501138610275565b60249060405190621c300f60e81b82526004820152fd5b346101fa5760003660031901126101fa57602060ff60005460a01c16604051908152f35b346101fa5760203660031901126101fa577fbf52e7473231c98c03552838ea271b6ad66f7cbcbdc3a9aad5128e85785cb6b160043561037a610892565b610399610391826000526007602052604060002090565b541515610804565b6103c96103c46103c060016103b8856000526008602052604060002090565b015460ff1690565b1590565b610843565b6103d243610883565b60408051914060208301908152908201839052426060808401919091528252601f19916104fa9161049a916104086080826107ae565b519020926104336002610425876000526007602052604060002090565b01546001600160a01b031690565b6040516337ed11db60e01b6020820152602481018790526044810186905260649283018152909161046490826107ae565b61049461048b61047e886000526006602052604060002090565b5460201c63ffffffff1690565b63ffffffff1690565b91610a17565b916104a36107e5565b9081526001602082015282151560408201526104c9846000526008602052604060002090565b600190825181550190602081015115159060ff61ff0060408554930151151560081b1692169061ffff191617179055565b6040805192835290151560208301523390820152606090a161051a6108d1565b005b346101fa57600080600319360112610577576105366109eb565b80546001600160a01b03198116825581906001600160a01b03167f8be0079c531659141344cd1fd0a4f28419497f9722a3daafe3b4186f6b6457e08280a380f35b80fd5b346101fa5760803660031901126101fa5760603660231901126101fa576064356105a381610734565b63ffffffff60015491169081018091116101f5576105c39060043561094e565b60025490606482018092116101f5576064916105de9161094e565b0460035481018091116101f5576105f6600454610a73565b81018091116101f557602090604051908152f35b346101fa5760003660031901126101fa576000546040516001600160a01b039091168152602090f35b346101fa5760003660031901126101fa57602060ff60005460a81c16604051908152f35b346101fa5760603660031901126101fa57602061067c610676366101ff565b3a610981565b604051908152f35b346101fa5760203660031901126101fa576001600160a01b03600435818116908190036101fa576106b36109eb565b80156106f657600080546001600160a01b03198116831782559092167f8be0079c531659141344cd1fd0a4f28419497f9722a3daafe3b4186f6b6457e08380a380f35b604051631e4fbdf760e01b815260006004820152602490fd5b634e487b7160e01b600052601160045260246000fd5b3561ffff811681036101fa5790565b63ffffffff8116036101fa57565b9061ffff61074f82610725565b16908254918061ffff198416178455604063ffff000061077160208501610725565b60101b1692838363ffffffff19871617178655013561078f81610734565b63ffffffff60201b9060201b16926001600160401b0319161717179055565b90601f801991011681019081106001600160401b038211176107cf57604052565b634e487b7160e01b600052604160045260246000fd5b60405190606082018281106001600160401b038211176107cf57604052565b1561080b57565b60405162461bcd60e51b815260206004820152601060248201526f139bc81c995c5d595cdd08199bdd5b9960821b6044820152606490fd5b1561084a57565b60405162461bcd60e51b8152602060048201526011602482015270105b1c9958591e48199d5b199a5b1b1959607a1b6044820152606490fd5b6000198101919082116101f557565b7f9b779b17422d0df92223018b32b4d1fa46e071723d6817e2486d003becc55f0080546108bf5760019055565b604051633ee5aeb560e01b8152600490fd5b60007f9b779b17422d0df92223018b32b4d1fa46e071723d6817e2486d003becc55f0055565b90604782018092116101f557565b90604482018092116101f557565b919082018092116101f557565b908160041b91808304601014901517156101f557565b600481901b91906001600160fc1b038116036101f557565b818102929181159184041417156101f557565b811561096b570490565b634e487b7160e01b600052601260045260246000fd5b906040013561098f81610734565b63ffffffff60015491169081018091116101f5576109ac9161094e565b60025490606482018092116101f5576064916109c79161094e565b0460035481018091116101f5576109df600454610a73565b81018091116101f55790565b6000546001600160a01b031633036109ff57565b60405163118cdaa760e01b8152336004820152602490fd5b905a61138881106101fa578390611387199081810160061c900381810160061c90030111156101fa57813b156101fa5760009283809360208451940192f190565b908160209103126101fa575190565b6040513d6000823e3d90fd5b60005460a01c60ff166000198101610a9a5750610a92610a97916108f7565b610ccc565b90565b80610b1957506020610aae610acd926108f7565b6040518093819263f1c7a58b60e01b8352600483019190602083019252565b0381600f602160991b015afa908115610b1457600091610aeb575090565b610a97915060203d602011610b0d575b610b0581836107ae565b810190610a58565b503d610afb565b610a67565b600203610b2957610a9790610b3d565b50600090565b604d81116101f557600a0a90565b610b49610b4e91610905565b610920565b60405163060c60b160e11b8152602091600f602160991b0191908382600481865afa908115610b1457610b8992600092610c7d575b50610913565b60405163519b4bd360e01b8152908382600481865afa908115610b1457610bb892600092610c5e575b5061094e565b60405163313ce56760e01b815292908184600481865afa8015610b1457610beb8391600496600091610c41575b50610b2f565b9360405195868092631e8bccbb60e31b82525afa908115610b1457610a9794610c1d93600093610c22575b505061094e565b610961565b610c39929350803d10610b0d57610b0581836107ae565b903880610c16565b610c589150833d8511610b0d57610b0581836107ae565b38610be5565b610c76919250853d8711610b0d57610b0581836107ae565b9038610bb2565b610c95919250853d8711610b0d57610b0581836107ae565b9038610b83565b908160209103126101fa5751610a9781610734565b60041b90640ffffffff063fffffff08316921682036101f557565b610b49610cd891610905565b6040516318b30b2360e31b815260209190600f602160991b01908381600481855afa8015610b1457610d1291600091610ea3575b50610cb1565b60405163519b4bd360e01b81528481600481865afa8015610b1457610d4791600091610e86575b5063ffffffff80931661094e565b9260405163346aee5360e11b81528581600481875afa908115610b1457600091610e59575b506040516303e0818560e61b8152948686600481885afa958615610b1457600496610db495610dae94610da893600093610e3a575b501661094e565b90610913565b9061094e565b9280610dc660005460ff9060a81c1690565b926040519485809263313ce56760e01b82525afa8015610b1457610a9794610e09610e04610e0f93610e169760ff96600092610e1d575b5050610b2f565b610936565b90610961565b911661094e565b6064900490565b610e339250803d10610b0d57610b0581836107ae565b3880610dfd565b610e529193508b3d8d11610b0d57610b0581836107ae565b9138610da1565b610e799150863d8811610e7f575b610e7181836107ae565b810190610c9c565b38610d6c565b503d610e67565b610e9d9150863d8811610b0d57610b0581836107ae565b38610d39565b610eba9150853d8711610e7f57610e7181836107ae565b38610d0c56fea2646970667358221220079866ec7f01e7fae23526ae7023c726cf1b182780e48c0d20a8ecee2f6a641264736f6c63430008190033",
  "linkReferences": {},
  "deployedLinkReferences": {}
}