{
  "_format": "hh-sol-artifact-1",
  "contractName": "AuthControl",
  "sourceName": "src/common/AuthControl.sol",
  "abi": [
    {
      "inputs": [],
      "name": "AccessControlBadConfirmation",
      "type": "error"
    },
    {
      "inputs": [
        {
          "internalType": "address",
          "name": "account",
          "type": "address"
        },
        {
          "internalType": "bytes32",
          "name": "neededRole",
          "type": "bytes32"
        }
      ],
      "name": "AccessControlUnauthorizedAccount",
      "type": "error"
    },
    {
      "inputs": [],
      "name": "SameAdmin",
      "type": "error"
    },
    {
      "inputs": [],
      "name": "ZeroAddress",
      "type": "error"
    },
    {
      "anonymous": false,
      "inputs": [
        {
          "indexed": true,
          "internalType": "bytes32",
          "name": "role",
          "type": "bytes32"
        },
        {
          "indexed": true,
          "internalType": "bytes32",
          "name": "previousAdminRole",
          "type": "bytes32"
        },
        {
          "indexed": true,
          "internalType": "bytes32",
          "name": "newAdminRole",
          "type": "bytes32"
        }
      ],
      "name": "RoleAdminChanged",
      "type": "event"
    },
    {
      "anonymous": false,
      "inputs": [
        {
          "indexed": true,
          "internalType": "bytes32",
          "name": "role",
          "type": "bytes32"
        },
        {
          "indexed": true,
          "internalType": "address",
          "name": "account",
          "type": "address"
        },
        {
          "indexed": true,
          "internalType": "address",
          "name": "sender",
          "type": "address"
        }
      ],
      "name": "RoleGranted",
      "type": "event"
    },
    {
      "anonymous": false,
      "inputs": [
        {
          "indexed": true,
          "internalType": "bytes32",
          "name": "role",
          "type": "bytes32"
        },
        {
          "indexed": true,
          "internalType": "address",
          "name": "account",
          "type": "address"
        },
        {
          "indexed": true,
          "internalType": "address",
          "name": "sender",
          "type": "address"
        }
      ],
      "name": "RoleRevoked",
      "type": "event"
    },
    {
      "inputs": [],
      "name": "ADMIN_ROLE",
      "outputs": [
        {
          "internalType": "bytes32",
          "name": "",
          "type": "bytes32"
        }
      ],
      "stateMutability": "view",
      "type": "function"
    },
    {
      "inputs": [],
      "name": "DEFAULT_ADMIN_ROLE",
      "outputs": [
        {
          "internalType": "bytes32",
          "name": "",
          "type": "bytes32"
        }
      ],
      "stateMutability": "view",
      "type": "function"
    },
    {
      "inputs": [],
      "name": "PAUSE_ROLE",
      "outputs": [
        {
          "internalType": "bytes32",
          "name": "",
          "type": "bytes32"
        }
      ],
      "stateMutability": "view",
      "type": "function"
    },
    {
      "inputs": [
        {
          "internalType": "address",
          "name": "account",
          "type": "address"
        }
      ],
      "name": "addAdmin",
      "outputs": [],
      "stateMutability": "nonpayable",
      "type": "function"
    },
    {
      "inputs": [
        {
          "internalType": "address",
          "name": "account",
          "type": "address"
        }
      ],
      "name": "addPauser",
      "outputs": [],
      "stateMutability": "nonpayable",
      "type": "function"
    },
    {
      "inputs": [
        {
          "internalType": "bytes32",
          "name": "role",
          "type": "bytes32"
        }
      ],
      "name": "getRoleAdmin",
      "outputs": [
        {
          "internalType": "bytes32",
          "name": "",
          "type": "bytes32"
        }
      ],
      "stateMutability": "view",
      "type": "function"
    },
    {
      "inputs": [
        {
          "internalType": "bytes32",
          "name": "role",
          "type": "bytes32"
        },
        {
          "internalType": "address",
          "name": "account",
          "type": "address"
        }
      ],
      "name": "grantRole",
      "outputs": [],
      "stateMutability": "nonpayable",
      "type": "function"
    },
    {
      "inputs": [
        {
          "internalType": "bytes32",
          "name": "role",
          "type": "bytes32"
        },
        {
          "internalType": "address",
          "name": "account",
          "type": "address"
        }
      ],
      "name": "hasRole",
      "outputs": [
        {
          "internalType": "bool",
          "name": "",
          "type": "bool"
        }
      ],
      "stateMutability": "view",
      "type": "function"
    },
    {
      "inputs": [
        {
          "internalType": "address",
          "name": "account",
          "type": "address"
        }
      ],
      "name": "isAdmin",
      "outputs": [
        {
          "internalType": "bool",
          "name": "",
          "type": "bool"
        }
      ],
      "stateMutability": "view",
      "type": "function"
    },
    {
      "inputs": [],
      "name": "isOwner",
      "outputs": [
        {
          "internalType": "bool",
          "name": "",
          "type": "bool"
        }
      ],
      "stateMutability": "view",
      "type": "function"
    },
    {
      "inputs": [
        {
          "internalType": "address",
          "name": "account",
          "type": "address"
        }
      ],
      "name": "removeAdmin",
      "outputs": [],
      "stateMutability": "nonpayable",
      "type": "function"
    },
    {
      "inputs": [
        {
          "internalType": "address",
          "name": "account",
          "type": "address"
        }
      ],
      "name": "removePauser",
      "outputs": [],
      "stateMutability": "nonpayable",
      "type": "function"
    },
    {
      "inputs": [],
      "name": "renounceOwnership",
      "outputs": [],
      "stateMutability": "nonpayable",
      "type": "function"
    },
    {
      "inputs": [
        {
          "internalType": "bytes32",
          "name": "role",
          "type": "bytes32"
        },
        {
          "internalType": "address",
          "name": "callerConfirmation",
          "type": "address"
        }
      ],
      "name": "renounceRole",
      "outputs": [],
      "stateMutability": "nonpayable",
      "type": "function"
    },
    {
      "inputs": [
        {
          "internalType": "bytes32",
          "name": "role",
          "type": "bytes32"
        },
        {
          "internalType": "address",
          "name": "account",
          "type": "address"
        }
      ],
      "name": "revokeRole",
      "outputs": [],
      "stateMutability": "nonpayable",
      "type": "function"
    },
    {
      "inputs": [
        {
          "internalType": "bytes4",
          "name": "interfaceId",
          "type": "bytes4"
        }
      ],
      "name": "supportsInterface",
      "outputs": [
        {
          "internalType": "bool",
          "name": "",
          "type": "bool"
        }
      ],
      "stateMutability": "view",
      "type": "function"
    },
    {
      "inputs": [
        {
          "internalType": "address",
          "name": "newAdmin",
          "type": "address"
        }
      ],
      "name": "transferAdmin",
      "outputs": [],
      "stateMutability": "nonpayable",
      "type": "function"
    },
    {
      "inputs": [
        {
          "internalType": "address",
          "name": "newAdmin",
          "type": "address"
        }
      ],
      "name": "transferOwnership",
      "outputs": [],
      "stateMutability": "nonpayable",
      "type": "function"
    }
  ],
  "bytecode": "0x608080604052346051576301ffc9a760e01b60009081526020527f67be87c3ff9960ca1e9cfac5cab2ff4747269cf9ed20c9b7306235ac35a491c5805460ff19166001179055610b3290816100578239f35b600080fdfe608060408181526004908136101561001657600080fd5b600092833560e01c90816301ffc9a714610573575080631785f53c14610546578063248a9ca31461051c57806324d7806c146104c85780632f2ff15d146104a057806336568abe14610459578063389ed267146104305780636b2c0f55146103e25780637048027514610394578063715018a61461036c57806375829def1461034657806375b238fc1461031d57806382dc1ec41461025a5780638f32d59b1461023457806391d14854146101ed578063a217fddf146101ce578063d547741f146101915763f2fde38b146100ea57600080fd5b3461018d57602036600319011261018d576101036105ac565b9161011461010f610663565b6105dd565b61011f61010f610663565b6001600160a01b038316801561017e57331461017057509061015e600161016393600080516020610abd833981519152865281602052852001546106c4565b610708565b5061016d33610635565b80f35b90516309cd70b960e21b8152fd5b50905163d92e233d60e01b8152fd5b8280fd5b503461018d578060031936011261018d576101ca91356101c560016101b46105c7565b9383875281602052862001546106c4565b610a17565b5080f35b8382346101e957816003193601126101e95751908152602090f35b5080fd5b50903461018d578160031936011261018d578160209360ff9261020e6105c7565b90358252600186528282206001600160a01b039091168252855220549151911615158152f35b8382346101e957816003193601126101e957602090610251610663565b90519015158152f35b509190346101e95760203660031901126101e9576102766105ac565b90600080516020610abd8339815191528352600160205283832033845260205260ff8484205416801561030f575b156102d757506102d260018394600080516020610a9d8339815191526101ca955281602052852001546106c4565b610797565b606490602085519162461bcd60e51b835282015260126024820152713737ba1027bbb732b91037b91020b236b4b760711b6044820152fd5b50610318610663565b6102a4565b8382346101e957816003193601126101e95760209051600080516020610abd8339815191528152f35b503461018d57602036600319011261018d576103606105ac565b9161011f61010f610663565b833461039157806003193601126103915761038861010f610663565b6101ca33610912565b80fd5b8382346101e95760203660031901126101e9576101ca9061015e60016103b86105ac565b926103c461010f610663565b600080516020610abd833981519152865281602052852001546106c4565b50903461018d57602036600319011261018d576103fd6105ac565b9161040961010f610663565b336001600160a01b0384160361042357836101ca8461088a565b5163334bd91960e11b8152fd5b8382346101e957816003193601126101e95760209051600080516020610a9d8339815191528152f35b508290346101e957806003193601126101e9576104746105c7565b90336001600160a01b0383160361049157506101ca919235610a17565b5163334bd91960e11b81528390fd5b503461018d578060031936011261018d576101ca91356104c360016101b46105c7565b610821565b8382346101e95760203660031901126101e95760ff816020936104e96105ac565b600080516020610abd8339815191528252600186528282206001600160a01b039091168252855220549151911615158152f35b50903461018d57602036600319011261018d57816020936001923581528285522001549051908152f35b83346103915760203660031901126103915761016d6105636105ac565b61056e61010f610663565b610635565b8490843461018d57602036600319011261018d5735916001600160e01b03198316830361039157506105a6602092610698565b15158152f35b600435906001600160a01b03821682036105c257565b600080fd5b602435906001600160a01b03821682036105c257565b156105e457565b60405162461bcd60e51b8152602060048201526024808201527f41757468436f6e74726f6c3a2043616c6c6572206973206e6f7420746865206f6044820152633bb732b960e11b6064820152608490fd5b336001600160a01b038216036106515761064e9061098f565b50565b60405163334bd91960e11b8152600490fd5b3360009081527fa6eef7e35abe7026729641147f7915573c7e97b47efa546f5f6e3230263bcb49602052604090205460ff1690565b6001600160e01b03198116637965db0b60e01b149081156106b7575090565b6106c19150610698565b90565b80600052600160205260406000203360005260205260ff60406000205416156106ea5750565b6044906040519063e2517d3f60e01b82523360048301526024820152fd5b6001600160a01b031660008181527fd52cfefb3f6fd7766669e08a03d2ceb3243383019e3a5fed2a519df30ee55b926020526040812054909190600080516020610abd8339815191529060ff166107925780835260016020526040832082845260205260408320600160ff19825416179055600080516020610a7d833981519152339380a4600190565b505090565b6001600160a01b031660008181527fe1a43b5771e30cf668ec0dc18c42d6714aff29cbb9ec47bd8eb0b81d4a8bcc146020526040812054909190600080516020610a9d8339815191529060ff166107925780835260016020526040832082845260205260408320600160ff19825416179055600080516020610a7d833981519152339380a4600190565b906000918083526001602052604083209160018060a01b03169182845260205260ff604084205416156000146107925780835260016020526040832082845260205260408320600160ff19825416179055600080516020610a7d833981519152339380a4600190565b6001600160a01b031660008181527fe1a43b5771e30cf668ec0dc18c42d6714aff29cbb9ec47bd8eb0b81d4a8bcc146020526040812054909190600080516020610a9d8339815191529060ff1615610792578083526001602052604083208284526020526040832060ff198154169055600080516020610add833981519152339380a4600190565b6001600160a01b031660008181527fa6eef7e35abe7026729641147f7915573c7e97b47efa546f5f6e3230263bcb49602052604081205490919060ff161561098b578180526001602052604082208183526020526040822060ff1981541690553391600080516020610add8339815191528180a4600190565b5090565b6001600160a01b031660008181527fd52cfefb3f6fd7766669e08a03d2ceb3243383019e3a5fed2a519df30ee55b926020526040812054909190600080516020610abd8339815191529060ff1615610792578083526001602052604083208284526020526040832060ff198154169055600080516020610add833981519152339380a4600190565b906000918083526001602052604083209160018060a01b03169182845260205260ff604084205416600014610792578083526001602052604083208284526020526040832060ff198154169055600080516020610add833981519152339380a460019056fe2f8788117e7eff1d82e926ec794901d17c78024a50270940304540a733656f0dfcb9fcbfa83b897fb2d5cf4b58962164105c1e71489a37ef3ae0db3fdce576f6df8b4c520ffe197c5343c6f5aec59570151ef9a492f2c624fd45ddde6135ec42f6391f5c32d9c69d2a47ea670b442974b53935d1edc7fd64eb21e047a839171ba2646970667358221220168b71fa3e1daae6c554e8413ebf0416a6dd1323328c7040a598c51400bf242c64736f6c63430008190033",
  "linkReferences": {},
  "deployedLinkReferences": {}
}