{
  "_format": "hh-sol-artifact-1",
  "contractName": "AuthControl",
  "sourceName": "src/common/AuthControl.sol",
  "abi": [
    {
      "inputs": [],
      "name": "AccessControlBadConfirmation",
      "type": "error"
    },
    {
      "inputs": [
        {
          "internalType": "address",
          "name": "account",
          "type": "address"
        },
        {
          "internalType": "bytes32",
          "name": "neededRole",
          "type": "bytes32"
        }
      ],
      "name": "AccessControlUnauthorizedAccount",
      "type": "error"
    },
    {
      "anonymous": false,
      "inputs": [
        {
          "indexed": true,
          "internalType": "bytes32",
          "name": "role",
          "type": "bytes32"
        },
        {
          "indexed": true,
          "internalType": "bytes32",
          "name": "previousAdminRole",
          "type": "bytes32"
        },
        {
          "indexed": true,
          "internalType": "bytes32",
          "name": "newAdminRole",
          "type": "bytes32"
        }
      ],
      "name": "RoleAdminChanged",
      "type": "event"
    },
    {
      "anonymous": false,
      "inputs": [
        {
          "indexed": true,
          "internalType": "bytes32",
          "name": "role",
          "type": "bytes32"
        },
        {
          "indexed": true,
          "internalType": "address",
          "name": "account",
          "type": "address"
        },
        {
          "indexed": true,
          "internalType": "address",
          "name": "sender",
          "type": "address"
        }
      ],
      "name": "RoleGranted",
      "type": "event"
    },
    {
      "anonymous": false,
      "inputs": [
        {
          "indexed": true,
          "internalType": "bytes32",
          "name": "role",
          "type": "bytes32"
        },
        {
          "indexed": true,
          "internalType": "address",
          "name": "account",
          "type": "address"
        },
        {
          "indexed": true,
          "internalType": "address",
          "name": "sender",
          "type": "address"
        }
      ],
      "name": "RoleRevoked",
      "type": "event"
    },
    {
      "inputs": [],
      "name": "ADMIN_ROLE",
      "outputs": [
        {
          "internalType": "bytes32",
          "name": "",
          "type": "bytes32"
        }
      ],
      "stateMutability": "view",
      "type": "function"
    },
    {
      "inputs": [],
      "name": "DEFAULT_ADMIN_ROLE",
      "outputs": [
        {
          "internalType": "bytes32",
          "name": "",
          "type": "bytes32"
        }
      ],
      "stateMutability": "view",
      "type": "function"
    },
    {
      "inputs": [],
      "name": "PAUSE_ROLE",
      "outputs": [
        {
          "internalType": "bytes32",
          "name": "",
          "type": "bytes32"
        }
      ],
      "stateMutability": "view",
      "type": "function"
    },
    {
      "inputs": [
        {
          "internalType": "address",
          "name": "account",
          "type": "address"
        }
      ],
      "name": "addAdmin",
      "outputs": [],
      "stateMutability": "nonpayable",
      "type": "function"
    },
    {
      "inputs": [
        {
          "internalType": "address",
          "name": "account",
          "type": "address"
        }
      ],
      "name": "addPauser",
      "outputs": [],
      "stateMutability": "nonpayable",
      "type": "function"
    },
    {
      "inputs": [
        {
          "internalType": "bytes32",
          "name": "role",
          "type": "bytes32"
        }
      ],
      "name": "getRoleAdmin",
      "outputs": [
        {
          "internalType": "bytes32",
          "name": "",
          "type": "bytes32"
        }
      ],
      "stateMutability": "view",
      "type": "function"
    },
    {
      "inputs": [
        {
          "internalType": "bytes32",
          "name": "role",
          "type": "bytes32"
        },
        {
          "internalType": "address",
          "name": "account",
          "type": "address"
        }
      ],
      "name": "grantRole",
      "outputs": [],
      "stateMutability": "nonpayable",
      "type": "function"
    },
    {
      "inputs": [
        {
          "internalType": "bytes32",
          "name": "role",
          "type": "bytes32"
        },
        {
          "internalType": "address",
          "name": "account",
          "type": "address"
        }
      ],
      "name": "hasRole",
      "outputs": [
        {
          "internalType": "bool",
          "name": "",
          "type": "bool"
        }
      ],
      "stateMutability": "view",
      "type": "function"
    },
    {
      "inputs": [
        {
          "internalType": "address",
          "name": "account",
          "type": "address"
        }
      ],
      "name": "isAdmin",
      "outputs": [
        {
          "internalType": "bool",
          "name": "",
          "type": "bool"
        }
      ],
      "stateMutability": "view",
      "type": "function"
    },
    {
      "inputs": [],
      "name": "isOwner",
      "outputs": [
        {
          "internalType": "bool",
          "name": "",
          "type": "bool"
        }
      ],
      "stateMutability": "view",
      "type": "function"
    },
    {
      "inputs": [
        {
          "internalType": "address",
          "name": "account",
          "type": "address"
        }
      ],
      "name": "removeAdmin",
      "outputs": [],
      "stateMutability": "nonpayable",
      "type": "function"
    },
    {
      "inputs": [
        {
          "internalType": "address",
          "name": "account",
          "type": "address"
        }
      ],
      "name": "removePauser",
      "outputs": [],
      "stateMutability": "nonpayable",
      "type": "function"
    },
    {
      "inputs": [],
      "name": "renounceOwnership",
      "outputs": [],
      "stateMutability": "nonpayable",
      "type": "function"
    },
    {
      "inputs": [
        {
          "internalType": "bytes32",
          "name": "role",
          "type": "bytes32"
        },
        {
          "internalType": "address",
          "name": "callerConfirmation",
          "type": "address"
        }
      ],
      "name": "renounceRole",
      "outputs": [],
      "stateMutability": "nonpayable",
      "type": "function"
    },
    {
      "inputs": [
        {
          "internalType": "bytes32",
          "name": "role",
          "type": "bytes32"
        },
        {
          "internalType": "address",
          "name": "account",
          "type": "address"
        }
      ],
      "name": "revokeRole",
      "outputs": [],
      "stateMutability": "nonpayable",
      "type": "function"
    },
    {
      "inputs": [
        {
          "internalType": "bytes4",
          "name": "interfaceId",
          "type": "bytes4"
        }
      ],
      "name": "supportsInterface",
      "outputs": [
        {
          "internalType": "bool",
          "name": "",
          "type": "bool"
        }
      ],
      "stateMutability": "view",
      "type": "function"
    },
    {
      "inputs": [
        {
          "internalType": "address",
          "name": "newAdmin",
          "type": "address"
        }
      ],
      "name": "transferAdmin",
      "outputs": [],
      "stateMutability": "nonpayable",
      "type": "function"
    },
    {
      "inputs": [
        {
          "internalType": "address",
          "name": "newAdmin",
          "type": "address"
        }
      ],
      "name": "transferOwnership",
      "outputs": [],
      "stateMutability": "nonpayable",
      "type": "function"
    }
  ],
  "bytecode": "0x60808060405234601557610b74908161001b8239f35b600080fdfe608060409080825260048036101561001657600080fd5b600091823560e01c90816301ffc9a7146105cf575080631785f53c146105a2578063248a9ca31461057757806324d7806c146105245780632f2ff15d146104fb57806336568abe146104b5578063389ed2671461048c5780636b2c0f551461043d57806370480275146103ef578063715018a6146103c757806375829def146103a157806375b238fc1461037857806382dc1ec4146102b85780638f32d59b1461029257806391d148541461024b578063a217fddf14610230578063d547741f146101ee5763f2fde38b146100ea57600080fd5b346101ea5760203660031901126101ea57610103610623565b9061011461010f6106da565b610654565b61011f61010f6106da565b6001600160a01b03821680156101ac573314610170575061015e60018394600080516020610aff8339815191526101639552856020528520015461070f565b610753565b5061016d336106ac565b80f35b606490602085519162461bcd60e51b8352820152601660248201527520b1b1b2b9b9b4b136329d1039b0b6b29030b236b4b760511b6044820152fd5b845162461bcd60e51b8152602081840152601860248201527741636365737369626c653a207a65726f206164647265737360401b6044820152606490fd5b5080fd5b50823461022c578060031936011261022c576102289135610223600161021261063e565b93838752866020528620015461070f565b610a5b565b5080f35b8280fd5b8284346101ea57816003193601126101ea5751908152602090f35b5082903461022c578160031936011261022c578160209360ff9261026d61063e565b903582528186528282206001600160a01b039091168252855220549151911615158152f35b8284346101ea57816003193601126101ea576020906102af6106da565b90519015158152f35b50346101ea5760203660031901126101ea576102d2610623565b90600080516020610aff83398151915283528260205283832033845260205260ff8484205416801561036a575b15610332575061032d60018394600080516020610adf8339815191526102289552856020528520015461070f565b6107e1565b606490602085519162461bcd60e51b835282015260126024820152713737ba1027bbb732b91037b91020b236b4b760711b6044820152fd5b506103736106da565b6102ff565b8284346101ea57816003193601126101ea5760209051600080516020610aff8339815191528152f35b50346101ea5760203660031901126101ea576103bb610623565b9061011f61010f6106da565b82346103ec57806003193601126103ec576103e361010f6106da565b61022833610958565b80fd5b8284346101ea5760203660031901126101ea576102289061015e6001610413610623565b9261041f61010f6106da565b600080516020610aff8339815191528652856020528520015461070f565b5082903461022c57602036600319011261022c57610459610623565b9161046561010f6106da565b336001600160a01b0384160361047f5783610228846108d1565b5163334bd91960e11b8152fd5b8284346101ea57816003193601126101ea5760209051600080516020610adf8339815191528152f35b5091346101ea57806003193601126101ea576104cf61063e565b90336001600160a01b038316036104ec5750610228919235610a5b565b5163334bd91960e11b81528390fd5b50823461022c578060031936011261022c57610228913561051f600161021261063e565b61086a565b8284346101ea5760203660031901126101ea5760ff81602093610545610623565b600080516020610aff83398151915282528186528282206001600160a01b039091168252855220549151911615158152f35b5082903461022c57602036600319011261022c57816020936001923581528085522001549051908152f35b82346103ec5760203660031901126103ec5761016d6105bf610623565b6105ca61010f6106da565b6106ac565b9190503461022c57602036600319011261022c573563ffffffff60e01b811680910361022c5760209250637965db0b60e01b8114908115610612575b5015158152f35b6301ffc9a760e01b1490508361060b565b600435906001600160a01b038216820361063957565b600080fd5b602435906001600160a01b038216820361063957565b1561065b57565b60405162461bcd60e51b8152602060048201526024808201527f41757468436f6e74726f6c3a2043616c6c6572206973206e6f7420746865206f6044820152633bb732b960e11b6064820152608490fd5b336001600160a01b038216036106c8576106c5906109d4565b50565b60405163334bd91960e11b8152600490fd5b3360009081527fad3228b676f7d3cd4284a5443f17f1962b36e491b30a40b2405849e597ba5fb5602052604090205460ff1690565b80600052600060205260406000203360005260205260ff60406000205416156107355750565b6044906040519063e2517d3f60e01b82523360048301526024820152fd5b6001600160a01b031660008181527f5cbfc8ee58ca47855df7bcf648dd304ddb6b932f9b87878bdf6318d7ec7ee5b76020526040812054909190600080516020610aff8339815191529060ff166107dc57808352826020526040832082845260205260408320600160ff19825416179055600080516020610abf833981519152339380a4600190565b505090565b6001600160a01b031660008181527f37507518c100ddd5bfd50d3f0fc3a4ae47e4394ece9422a4ca21a82fdff32e546020526040812054909190600080516020610adf8339815191529060ff166107dc57808352826020526040832082845260205260408320600160ff19825416179055600080516020610abf833981519152339380a4600190565b9060009180835282602052604083209160018060a01b03169182845260205260ff604084205416156000146107dc57808352826020526040832082845260205260408320600160ff19825416179055600080516020610abf833981519152339380a4600190565b6001600160a01b031660008181527f37507518c100ddd5bfd50d3f0fc3a4ae47e4394ece9422a4ca21a82fdff32e546020526040812054909190600080516020610adf8339815191529060ff16156107dc5780835282602052604083208284526020526040832060ff198154169055600080516020610b1f833981519152339380a4600190565b6001600160a01b031660008181527fad3228b676f7d3cd4284a5443f17f1962b36e491b30a40b2405849e597ba5fb5602052604081205490919060ff16156109d05781805281602052604082208183526020526040822060ff1981541690553391600080516020610b1f8339815191528180a4600190565b5090565b6001600160a01b031660008181527f5cbfc8ee58ca47855df7bcf648dd304ddb6b932f9b87878bdf6318d7ec7ee5b76020526040812054909190600080516020610aff8339815191529060ff16156107dc5780835282602052604083208284526020526040832060ff198154169055600080516020610b1f833981519152339380a4600190565b9060009180835282602052604083209160018060a01b03169182845260205260ff6040842054166000146107dc5780835282602052604083208284526020526040832060ff198154169055600080516020610b1f833981519152339380a460019056fe2f8788117e7eff1d82e926ec794901d17c78024a50270940304540a733656f0dfcb9fcbfa83b897fb2d5cf4b58962164105c1e71489a37ef3ae0db3fdce576f6df8b4c520ffe197c5343c6f5aec59570151ef9a492f2c624fd45ddde6135ec42f6391f5c32d9c69d2a47ea670b442974b53935d1edc7fd64eb21e047a839171ba264697066735822122088736dfcd607bb213ccf50b4844b144bcfc6986934ad8c52a4d59bb30ea44cf364736f6c63430008190033",
  "linkReferences": {},
  "deployedLinkReferences": {}
}