{
  "_format": "hh-sol-artifact-1",
  "contractName": "AirdropProxy",
  "sourceName": "src/L2/AirdropProxy.sol",
  "abi": [
    {
      "inputs": [],
      "name": "AccessControlBadConfirmation",
      "type": "error"
    },
    {
      "inputs": [
        {
          "internalType": "address",
          "name": "account",
          "type": "address"
        },
        {
          "internalType": "bytes32",
          "name": "neededRole",
          "type": "bytes32"
        }
      ],
      "name": "AccessControlUnauthorizedAccount",
      "type": "error"
    },
    {
      "inputs": [],
      "name": "AlreadyInitialized",
      "type": "error"
    },
    {
      "inputs": [],
      "name": "NoEligibleUsers",
      "type": "error"
    },
    {
      "inputs": [],
      "name": "SameAdmin",
      "type": "error"
    },
    {
      "inputs": [],
      "name": "TokenNotAvailable",
      "type": "error"
    },
    {
      "inputs": [],
      "name": "TokenNotOwnedByTreasury",
      "type": "error"
    },
    {
      "inputs": [],
      "name": "UserAlreadyClaimedCurrentAirdrop",
      "type": "error"
    },
    {
      "inputs": [],
      "name": "UserNotEligible",
      "type": "error"
    },
    {
      "inputs": [],
      "name": "ZeroAddress",
      "type": "error"
    },
    {
      "anonymous": false,
      "inputs": [],
      "name": "EligibleTokenListCleared",
      "type": "event"
    },
    {
      "anonymous": false,
      "inputs": [
        {
          "indexed": true,
          "internalType": "bytes32",
          "name": "role",
          "type": "bytes32"
        },
        {
          "indexed": true,
          "internalType": "bytes32",
          "name": "previousAdminRole",
          "type": "bytes32"
        },
        {
          "indexed": true,
          "internalType": "bytes32",
          "name": "newAdminRole",
          "type": "bytes32"
        }
      ],
      "name": "RoleAdminChanged",
      "type": "event"
    },
    {
      "anonymous": false,
      "inputs": [
        {
          "indexed": true,
          "internalType": "bytes32",
          "name": "role",
          "type": "bytes32"
        },
        {
          "indexed": true,
          "internalType": "address",
          "name": "account",
          "type": "address"
        },
        {
          "indexed": true,
          "internalType": "address",
          "name": "sender",
          "type": "address"
        }
      ],
      "name": "RoleGranted",
      "type": "event"
    },
    {
      "anonymous": false,
      "inputs": [
        {
          "indexed": true,
          "internalType": "bytes32",
          "name": "role",
          "type": "bytes32"
        },
        {
          "indexed": true,
          "internalType": "address",
          "name": "account",
          "type": "address"
        },
        {
          "indexed": true,
          "internalType": "address",
          "name": "sender",
          "type": "address"
        }
      ],
      "name": "RoleRevoked",
      "type": "event"
    },
    {
      "anonymous": false,
      "inputs": [
        {
          "indexed": true,
          "internalType": "address",
          "name": "impl",
          "type": "address"
        },
        {
          "indexed": false,
          "internalType": "bool",
          "name": "alive",
          "type": "bool"
        }
      ],
      "name": "SetAliveImplementation",
      "type": "event"
    },
    {
      "anonymous": false,
      "inputs": [
        {
          "indexed": true,
          "internalType": "bytes4",
          "name": "selector",
          "type": "bytes4"
        },
        {
          "indexed": true,
          "internalType": "address",
          "name": "impl",
          "type": "address"
        }
      ],
      "name": "SetSelectorImplementation",
      "type": "event"
    },
    {
      "anonymous": false,
      "inputs": [
        {
          "indexed": false,
          "internalType": "uint256[]",
          "name": "tokenIds",
          "type": "uint256[]"
        },
        {
          "indexed": false,
          "internalType": "address",
          "name": "_to",
          "type": "address"
        }
      ],
      "name": "TokensAssigned",
      "type": "event"
    },
    {
      "anonymous": false,
      "inputs": [
        {
          "indexed": false,
          "internalType": "uint256[]",
          "name": "tokenIds",
          "type": "uint256[]"
        },
        {
          "indexed": false,
          "internalType": "address",
          "name": "to",
          "type": "address"
        }
      ],
      "name": "TokensClaimed",
      "type": "event"
    },
    {
      "anonymous": false,
      "inputs": [
        {
          "indexed": true,
          "internalType": "address",
          "name": "implementation",
          "type": "address"
        }
      ],
      "name": "Upgraded",
      "type": "event"
    },
    {
      "stateMutability": "payable",
      "type": "fallback"
    },
    {
      "inputs": [],
      "name": "ADMIN_ROLE",
      "outputs": [
        {
          "internalType": "bytes32",
          "name": "",
          "type": "bytes32"
        }
      ],
      "stateMutability": "view",
      "type": "function"
    },
    {
      "inputs": [],
      "name": "DEFAULT_ADMIN_ROLE",
      "outputs": [
        {
          "internalType": "bytes32",
          "name": "",
          "type": "bytes32"
        }
      ],
      "stateMutability": "view",
      "type": "function"
    },
    {
      "inputs": [],
      "name": "PAUSE_ROLE",
      "outputs": [
        {
          "internalType": "bytes32",
          "name": "",
          "type": "bytes32"
        }
      ],
      "stateMutability": "view",
      "type": "function"
    },
    {
      "inputs": [
        {
          "internalType": "address",
          "name": "account",
          "type": "address"
        }
      ],
      "name": "addAdmin",
      "outputs": [],
      "stateMutability": "nonpayable",
      "type": "function"
    },
    {
      "inputs": [
        {
          "internalType": "address",
          "name": "account",
          "type": "address"
        }
      ],
      "name": "addPauser",
      "outputs": [],
      "stateMutability": "nonpayable",
      "type": "function"
    },
    {
      "inputs": [
        {
          "internalType": "address",
          "name": "",
          "type": "address"
        }
      ],
      "name": "aliveImplementation",
      "outputs": [
        {
          "internalType": "bool",
          "name": "",
          "type": "bool"
        }
      ],
      "stateMutability": "view",
      "type": "function"
    },
    {
      "inputs": [],
      "name": "gemFactory",
      "outputs": [
        {
          "internalType": "address",
          "name": "",
          "type": "address"
        }
      ],
      "stateMutability": "view",
      "type": "function"
    },
    {
      "inputs": [
        {
          "internalType": "bytes32",
          "name": "role",
          "type": "bytes32"
        }
      ],
      "name": "getRoleAdmin",
      "outputs": [
        {
          "internalType": "bytes32",
          "name": "",
          "type": "bytes32"
        }
      ],
      "stateMutability": "view",
      "type": "function"
    },
    {
      "inputs": [
        {
          "internalType": "bytes4",
          "name": "_selector",
          "type": "bytes4"
        }
      ],
      "name": "getSelectorImplementation2",
      "outputs": [
        {
          "internalType": "address",
          "name": "impl",
          "type": "address"
        }
      ],
      "stateMutability": "view",
      "type": "function"
    },
    {
      "inputs": [
        {
          "internalType": "bytes32",
          "name": "role",
          "type": "bytes32"
        },
        {
          "internalType": "address",
          "name": "account",
          "type": "address"
        }
      ],
      "name": "grantRole",
      "outputs": [],
      "stateMutability": "nonpayable",
      "type": "function"
    },
    {
      "inputs": [
        {
          "internalType": "bytes32",
          "name": "role",
          "type": "bytes32"
        },
        {
          "internalType": "address",
          "name": "account",
          "type": "address"
        }
      ],
      "name": "hasRole",
      "outputs": [
        {
          "internalType": "bool",
          "name": "",
          "type": "bool"
        }
      ],
      "stateMutability": "view",
      "type": "function"
    },
    {
      "inputs": [],
      "name": "implementation",
      "outputs": [
        {
          "internalType": "address",
          "name": "",
          "type": "address"
        }
      ],
      "stateMutability": "view",
      "type": "function"
    },
    {
      "inputs": [
        {
          "internalType": "uint256",
          "name": "_index",
          "type": "uint256"
        }
      ],
      "name": "implementation2",
      "outputs": [
        {
          "internalType": "address",
          "name": "",
          "type": "address"
        }
      ],
      "stateMutability": "view",
      "type": "function"
    },
    {
      "inputs": [
        {
          "internalType": "address",
          "name": "account",
          "type": "address"
        }
      ],
      "name": "isAdmin",
      "outputs": [
        {
          "internalType": "bool",
          "name": "",
          "type": "bool"
        }
      ],
      "stateMutability": "view",
      "type": "function"
    },
    {
      "inputs": [],
      "name": "isOwner",
      "outputs": [
        {
          "internalType": "bool",
          "name": "",
          "type": "bool"
        }
      ],
      "stateMutability": "view",
      "type": "function"
    },
    {
      "inputs": [],
      "name": "pauseProxy",
      "outputs": [
        {
          "internalType": "bool",
          "name": "",
          "type": "bool"
        }
      ],
      "stateMutability": "view",
      "type": "function"
    },
    {
      "inputs": [],
      "name": "paused",
      "outputs": [
        {
          "internalType": "bool",
          "name": "",
          "type": "bool"
        }
      ],
      "stateMutability": "view",
      "type": "function"
    },
    {
      "inputs": [
        {
          "internalType": "uint256",
          "name": "",
          "type": "uint256"
        }
      ],
      "name": "proxyImplementation",
      "outputs": [
        {
          "internalType": "address",
          "name": "",
          "type": "address"
        }
      ],
      "stateMutability": "view",
      "type": "function"
    },
    {
      "inputs": [
        {
          "internalType": "address",
          "name": "account",
          "type": "address"
        }
      ],
      "name": "removeAdmin",
      "outputs": [],
      "stateMutability": "nonpayable",
      "type": "function"
    },
    {
      "inputs": [
        {
          "internalType": "address",
          "name": "account",
          "type": "address"
        }
      ],
      "name": "removePauser",
      "outputs": [],
      "stateMutability": "nonpayable",
      "type": "function"
    },
    {
      "inputs": [],
      "name": "renounceOwnership",
      "outputs": [],
      "stateMutability": "nonpayable",
      "type": "function"
    },
    {
      "inputs": [
        {
          "internalType": "bytes32",
          "name": "role",
          "type": "bytes32"
        },
        {
          "internalType": "address",
          "name": "callerConfirmation",
          "type": "address"
        }
      ],
      "name": "renounceRole",
      "outputs": [],
      "stateMutability": "nonpayable",
      "type": "function"
    },
    {
      "inputs": [
        {
          "internalType": "bytes32",
          "name": "role",
          "type": "bytes32"
        },
        {
          "internalType": "address",
          "name": "account",
          "type": "address"
        }
      ],
      "name": "revokeRole",
      "outputs": [],
      "stateMutability": "nonpayable",
      "type": "function"
    },
    {
      "inputs": [
        {
          "internalType": "bytes4",
          "name": "",
          "type": "bytes4"
        }
      ],
      "name": "selectorImplementation",
      "outputs": [
        {
          "internalType": "address",
          "name": "",
          "type": "address"
        }
      ],
      "stateMutability": "view",
      "type": "function"
    },
    {
      "inputs": [
        {
          "internalType": "address",
          "name": "newImplementation",
          "type": "address"
        },
        {
          "internalType": "bool",
          "name": "_alive",
          "type": "bool"
        }
      ],
      "name": "setAliveImplementation2",
      "outputs": [],
      "stateMutability": "nonpayable",
      "type": "function"
    },
    {
      "inputs": [
        {
          "internalType": "address",
          "name": "newImplementation",
          "type": "address"
        },
        {
          "internalType": "uint256",
          "name": "_index",
          "type": "uint256"
        },
        {
          "internalType": "bool",
          "name": "_alive",
          "type": "bool"
        }
      ],
      "name": "setImplementation2",
      "outputs": [],
      "stateMutability": "nonpayable",
      "type": "function"
    },
    {
      "inputs": [
        {
          "internalType": "bool",
          "name": "_pause",
          "type": "bool"
        }
      ],
      "name": "setProxyPause",
      "outputs": [],
      "stateMutability": "nonpayable",
      "type": "function"
    },
    {
      "inputs": [
        {
          "internalType": "bytes4[]",
          "name": "_selectors",
          "type": "bytes4[]"
        },
        {
          "internalType": "address",
          "name": "_imp",
          "type": "address"
        }
      ],
      "name": "setSelectorImplementations2",
      "outputs": [],
      "stateMutability": "nonpayable",
      "type": "function"
    },
    {
      "inputs": [
        {
          "internalType": "bytes4",
          "name": "interfaceId",
          "type": "bytes4"
        }
      ],
      "name": "supportsInterface",
      "outputs": [
        {
          "internalType": "bool",
          "name": "",
          "type": "bool"
        }
      ],
      "stateMutability": "view",
      "type": "function"
    },
    {
      "inputs": [
        {
          "internalType": "address",
          "name": "",
          "type": "address"
        },
        {
          "internalType": "uint256",
          "name": "",
          "type": "uint256"
        }
      ],
      "name": "tokensEligible",
      "outputs": [
        {
          "internalType": "uint256",
          "name": "",
          "type": "uint256"
        }
      ],
      "stateMutability": "view",
      "type": "function"
    },
    {
      "inputs": [
        {
          "internalType": "address",
          "name": "newAdmin",
          "type": "address"
        }
      ],
      "name": "transferAdmin",
      "outputs": [],
      "stateMutability": "nonpayable",
      "type": "function"
    },
    {
      "inputs": [
        {
          "internalType": "address",
          "name": "newAdmin",
          "type": "address"
        }
      ],
      "name": "transferOwnership",
      "outputs": [],
      "stateMutability": "nonpayable",
      "type": "function"
    },
    {
      "inputs": [],
      "name": "treasury",
      "outputs": [
        {
          "internalType": "address",
          "name": "",
          "type": "address"
        }
      ],
      "stateMutability": "view",
      "type": "function"
    },
    {
      "inputs": [
        {
          "internalType": "address",
          "name": "impl",
          "type": "address"
        }
      ],
      "name": "upgradeTo",
      "outputs": [],
      "stateMutability": "nonpayable",
      "type": "function"
    },
    {
      "inputs": [
        {
          "internalType": "address",
          "name": "",
          "type": "address"
        }
      ],
      "name": "userClaimed",
      "outputs": [
        {
          "internalType": "bool",
          "name": "",
          "type": "bool"
        }
      ],
      "stateMutability": "view",
      "type": "function"
    },
    {
      "stateMutability": "payable",
      "type": "receive"
    }
  ],
  "bytecode": "0x608060405234605b576301ffc9a760e01b60005260046020527f9fe05126d2d9ecf60592e254dead906a4b2e492f36cca727682c38e9008c6ac1805460ff19166001179055604b336060565b506040516114ec90816100f18239f35b600080fd5b6001600160a01b031660008181527f05b8ccbb9d4d8fb16ea74ce3c29a41f1b461fbdaff4714a0d9a8eb05499746bc602052604081205490919060ff1660ec5781805260056020526040822081835260205260408220600160ff1982541617905533917f2f8788117e7eff1d82e926ec794901d17c78024a50270940304540a733656f0d8180a4600190565b509056fe60806040526004361015610018575b3661139b57610fb5565b60003560e01c806301ffc9a7146102435780631785f53c1461023e578063248a9ca31461023957806324d7806c146102345780632f2ff15d1461022f57806336568abe1461022a5780633659cfe614610225578063389ed267146102205780633b7fcdca1461021b5780634a5df50f1461021657806350d2a27614610211578063550d01a31461020c5780635c60da1b146102075780635c975abb146102025780635cc797d8146101fd57806361d027b3146101f857806363a8fd89146101f35780636b2c0f55146101ee57806370480275146101e9578063715018a6146101e457806375829def146101df57806375b238fc146101da5780637cb00d25146101d55780637cd5f663146101d057806382dc1ec4146101cb5780638b8f4a65146101ad5780638d4fdb40146101c65780638f32d59b146101c157806391d14854146101bc578063a217fddf146101b7578063a53225c0146101b2578063b911135f146101ad578063d547741f146101a8578063e7da0eed146101a35763f2fde38b0361000e57610d3a565b610ce6565b610ca7565b610ba6565b610c7e565b610c62565b610c2e565b610c13565b610bda565b610ad0565b610a33565b6109f7565b6109ce565b61091f565b6108fa565b61088c565b61084f565b61082c565b610803565b6107ca565b6107a7565b610773565b610734565b6106ee565b610553565b610514565b6104ba565b6103f0565b6103a9565b61036a565b61031e565b6102ef565b6102bc565b61025f565b6001600160e01b031981160361025a57565b600080fd5b3461025a57602036600319011261025a57602061028660043561028181610248565b610ff1565b6040519015158152f35b600435906001600160a01b038216820361025a57565b602435906001600160a01b038216820361025a57565b3461025a57602036600319011261025a576102ed6102d8610290565b6102e86102e3610f80565b610d5e565b610db6565b005b3461025a57602036600319011261025a5760043560005260056020526020600160406000200154604051908152f35b3461025a57602036600319011261025a57602060ff61035e61033e610290565b6000805160206114778339815191526000526005845260406000206104fd565b54166040519015158152f35b3461025a57604036600319011261025a576102ed6004356103896102a6565b908060005260056020526103a460016040600020015461101a565b611136565b3461025a57604036600319011261025a576103c26102a6565b336001600160a01b038216036103de576102ed906004356112b7565b60405163334bd91960e11b8152600490fd5b3461025a57602036600319011261025a57610409610290565b6104146102e3610f80565b6001600160a01b0381168015610485576000808052600160205260008051602061143783398151915254909261045e91610459906001600160a01b0316841415610dd2565b6112d1565b7fbc7cd75a20ee27fd9adebab32041f755214dbc6bffa90cc0225b39da2e5c2d3b8280a280f35b60405162461bcd60e51b815260206004820152600d60248201526c696e707574206973207a65726f60981b6044820152606490fd5b3461025a57600036600319011261025a5760206040516000805160206114578339815191528152f35b6001600160a01b0316600090815260026020526040902090565b9060018060a01b0316600052602052604060002090565b3461025a57602036600319011261025a576001600160a01b03610535610290565b16600052600a602052602060ff604060002054166040519015158152f35b3461025a57604036600319011261025a5760043567ffffffffffffffff80821161025a573660238301121561025a57816004013590811161025a576024820191602436918360051b01011161025a576105aa6102a6565b916105b66102e3610f80565b811561069157906105d86105d36105cc856104e3565b5460ff1690565b610e0a565b6001600160a01b0391838316919060005b8281106105f257005b8061062d858761062561061861061361060e6001988b8b610e51565b610e77565b6106d5565b546001600160a01b031690565b161415610e84565b6106478761064261061361060e858989610e51565b610ed0565b8461066661065961060e848888610e51565b6001600160e01b03191690565b7f14ebc1c32aa68f4d766e89f3e546cee249f7df25183fc10ab1568d91c2ce9b7b600080a3016105e9565b606460405162461bcd60e51b815260206004820152602060248201527f50726f78793a205f73656c6563746f727327732073697a65206973207a65726f6044820152fd5b63ffffffff60e01b166000526003602052604060002090565b3461025a57602036600319011261025a5760043561070b81610248565b63ffffffff60e01b166000526003602052602060018060a01b0360406000205416604051908152f35b3461025a57602036600319011261025a576001600160a01b03610755610290565b166000526002602052602060ff604060002054166040519015158152f35b3461025a576000806003193601126107a45780806020925260018252604060018060a01b0391205416604051908152f35b80fd5b3461025a57600036600319011261025a57602060ff600954166040519015158152f35b3461025a57604036600319011261025a576107e3610290565b602435801515810361025a576102ed916107fe6102e3610f80565b611347565b3461025a57600036600319011261025a576006546040516001600160a01b039091168152602090f35b3461025a57600036600319011261025a57602060ff600054166040519015158152f35b3461025a57602036600319011261025a57610868610290565b6108736102e3610f80565b336001600160a01b038216036103de576102ed90611150565b3461025a57602036600319011261025a576102ed6108a8610290565b6108b36102e3610f80565b60008051602061147783398151915260005260056020527f09f04f5809d5be59813a33617d16f069caae874a6b34f03139f63d934daddae7546108f59061101a565b61105b565b3461025a57600036600319011261025a576109166102e3610f80565b6102ed336111ef565b3461025a57602036600319011261025a57610938610290565b6109436102e3610f80565b6001600160a01b03811680156109bc5733146109aa5760008051602061147783398151915260005260056020527f09f04f5809d5be59813a33617d16f069caae874a6b34f03139f63d934daddae7546109a091906108f59061101a565b506102ed33610db6565b6040516309cd70b960e21b8152600490fd5b60405163d92e233d60e01b8152600490fd5b3461025a57600036600319011261025a5760206040516000805160206114778339815191528152f35b3461025a57602036600319011261025a5760043580151580910361025a57610a206102e3610f80565b60ff801960005416911617600055600080f35b3461025a57606036600319011261025a57610a4c610290565b604435801515810361025a57610a636102e3610f80565b813b15610a8d576102ed9181156113475760243560005260016020526107fe816040600020610ed0565b60405162461bcd60e51b815260206004820152601b60248201527a50726f78793a206e6f7420636f6e7472616374206164647265737360281b6044820152606490fd5b3461025a57602036600319011261025a57610ae9610290565b600080516020611477833981519152600090815260056020529060ff610b1d336000805160206114978339815191526104fd565b54168015610b98575b15610b5e57610b5a9060008051602061145783398151915283526005602052610b55600160408520015461101a565b6110f0565b5080f35b60405162461bcd60e51b81526020600482015260126024820152713737ba1027bbb732b91037b91020b236b4b760711b6044820152606490fd5b50610ba1610f80565b610b26565b3461025a57602036600319011261025a576004356000526001602052602060018060a01b0360406000205416604051908152f35b3461025a57602036600319011261025a576020610c01600435610bfc81610248565b610eef565b6040516001600160a01b039091168152f35b3461025a57600036600319011261025a576020610286610f80565b3461025a57604036600319011261025a57602060ff61035e610c4e6102a6565b6004356000526005845260406000206104fd565b3461025a57600036600319011261025a57602060405160008152f35b3461025a57600036600319011261025a576007546040516001600160a01b039091168152602090f35b3461025a57604036600319011261025a576102ed600435610cc66102a6565b90806000526005602052610ce160016040600020015461101a565b6112b7565b3461025a57604036600319011261025a57610cff610290565b6001600160a01b03166000908152600b6020526040812080546024359190821015610d365782526020918290200154604051908152f35b8280fd5b3461025a57602036600319011261025a57610d53610290565b6109386102e3610f80565b15610d6557565b60405162461bcd60e51b8152602060048201526024808201527f41757468436f6e74726f6c3a2043616c6c6572206973206e6f7420746865206f6044820152633bb732b960e11b6064820152608490fd5b336001600160a01b038216036103de57610dcf90611283565b50565b15610dd957565b60405162461bcd60e51b815260206004820152600960248201526839b0b6b29030b2323960b91b6044820152606490fd5b15610e1157565b60405162461bcd60e51b815260206004820152601860248201527750726f78793a205f696d70206973206e6f7420616c69766560401b6044820152606490fd5b9190811015610e615760051b0190565b634e487b7160e01b600052603260045260246000fd5b35610e8181610248565b90565b15610e8b57565b60405162461bcd60e51b815260206004820152601d60248201527f4c69717569646974795661756c7450726f78793a2073616d6520696d700000006044820152606490fd5b80546001600160a01b0319166001600160a01b03909216919091179055565b6001600160e01b031981166000908152600360205260409020546001600160a01b0391908216610f3c5750600080526001602052600080516020611437833981519152541690565b541690565b60ff610f5283610f4b846106d5565b54166104e3565b541615610f6257610f37906106d5565b50600080526001602052600080516020611437833981519152541690565b60008052600560205260ff610f37337f05b8ccbb9d4d8fb16ea74ce3c29a41f1b461fbdaff4714a0d9a8eb05499746bc6104fd565b60405162461bcd60e51b815260206004820152601460248201527331b0b73737ba103932b1b2b4bb329022ba3432b960611b6044820152606490fd5b6001600160e01b03198116637965db0b60e01b14908115611010575090565b610e819150610ff1565b80600052600560205260ff6110333360406000206104fd565b54161561103d5750565b6044906040519063e2517d3f60e01b82523360048301526024820152fd5b600080516020611477833981519152600081815260056020529060ff61108f846000805160206114978339815191526104fd565b54166110ea5780825260056020526110aa83604084206104fd565b805460ff1916600117905533926001600160a01b0316917f2f8788117e7eff1d82e926ec794901d17c78024a50270940304540a733656f0d9080a4600190565b50905090565b600080516020611457833981519152600081815260056020529060ff61108f847f787f97f3270d439d97068e73d6d75a066b24f84c342661f177d4e43e00e9f5136104fd565b600090808252600560205260ff61108f84604085206104fd565b600080516020611457833981519152600081815260056020529060ff611196847f787f97f3270d439d97068e73d6d75a066b24f84c342661f177d4e43e00e9f5136104fd565b5416156110ea5780825260056020526111b283604084206104fd565b805460ff1916905533926001600160a01b0316917ff6391f5c32d9c69d2a47ea670b442974b53935d1edc7fd64eb21e047a839171b9080a4600190565b6000808052600560205260ff611225837f05b8ccbb9d4d8fb16ea74ce3c29a41f1b461fbdaff4714a0d9a8eb05499746bc6104fd565b54161561127e57808052600560205261124182604083206104fd565b805460ff1916905533916001600160a01b0316907ff6391f5c32d9c69d2a47ea670b442974b53935d1edc7fd64eb21e047a839171b8180a4600190565b905090565b600080516020611477833981519152600081815260056020529060ff611196846000805160206114978339815191526104fd565b600090808252600560205260ff61119684604085206104fd565b803b15610a8d576000805260016020526112f981600080516020611437833981519152610ed0565b60018060a01b03168060005260026020526040600020600160ff198254161790557f72558d9bfba4210f9ef095c782589484151f6d90f7a81bb3cb9b33efc695d324602060405160018152a2565b60207f72558d9bfba4210f9ef095c782589484151f6d90f7a81bb3cb9b33efc695d3249160018060a01b031692836000526002825260406000209015159060ff1981541660ff8316179055604051908152a2565b60006113b181356001600160e01b031916610eef565b6001600160a01b03811615158061142a575b156113e557818091368280378136915af43d82803e156113e1573d90f35b3d90fd5b60405162461bcd60e51b815260206004820152601d60248201527f50726f78793a20696d706c204f522070726f78792069732066616c73650000006044820152606490fd5b5060ff825416156113c356fea6eef7e35abe7026729641147f7915573c7e97b47efa546f5f6e3230263bcb49fcb9fcbfa83b897fb2d5cf4b58962164105c1e71489a37ef3ae0db3fdce576f6df8b4c520ffe197c5343c6f5aec59570151ef9a492f2c624fd45ddde6135ec4209f04f5809d5be59813a33617d16f069caae874a6b34f03139f63d934daddae6a2646970667358221220b851806b2633c6ed02b8bf85331220f1fbf13a567eac711d4eb97bbd82e3923664736f6c63430008190033",
  "linkReferences": {},
  "deployedLinkReferences": {}
}