{
  "_format": "hh-sol-artifact-1",
  "contractName": "ProxyL1WrappedStakedTON",
  "sourceName": "src/proxy/ProxyL1WrappedStakedTON.sol",
  "abi": [
    {
      "inputs": [],
      "stateMutability": "nonpayable",
      "type": "constructor"
    },
    {
      "inputs": [],
      "name": "AccessControlBadConfirmation",
      "type": "error"
    },
    {
      "inputs": [
        {
          "internalType": "address",
          "name": "account",
          "type": "address"
        },
        {
          "internalType": "bytes32",
          "name": "neededRole",
          "type": "bytes32"
        }
      ],
      "name": "AccessControlUnauthorizedAccount",
      "type": "error"
    },
    {
      "anonymous": false,
      "inputs": [
        {
          "indexed": true,
          "internalType": "bytes32",
          "name": "role",
          "type": "bytes32"
        },
        {
          "indexed": true,
          "internalType": "bytes32",
          "name": "previousAdminRole",
          "type": "bytes32"
        },
        {
          "indexed": true,
          "internalType": "bytes32",
          "name": "newAdminRole",
          "type": "bytes32"
        }
      ],
      "name": "RoleAdminChanged",
      "type": "event"
    },
    {
      "anonymous": false,
      "inputs": [
        {
          "indexed": true,
          "internalType": "bytes32",
          "name": "role",
          "type": "bytes32"
        },
        {
          "indexed": true,
          "internalType": "address",
          "name": "account",
          "type": "address"
        },
        {
          "indexed": true,
          "internalType": "address",
          "name": "sender",
          "type": "address"
        }
      ],
      "name": "RoleGranted",
      "type": "event"
    },
    {
      "anonymous": false,
      "inputs": [
        {
          "indexed": true,
          "internalType": "bytes32",
          "name": "role",
          "type": "bytes32"
        },
        {
          "indexed": true,
          "internalType": "address",
          "name": "account",
          "type": "address"
        },
        {
          "indexed": true,
          "internalType": "address",
          "name": "sender",
          "type": "address"
        }
      ],
      "name": "RoleRevoked",
      "type": "event"
    },
    {
      "anonymous": false,
      "inputs": [
        {
          "indexed": true,
          "internalType": "address",
          "name": "impl",
          "type": "address"
        },
        {
          "indexed": false,
          "internalType": "bool",
          "name": "alive",
          "type": "bool"
        }
      ],
      "name": "SetAliveImplementation",
      "type": "event"
    },
    {
      "anonymous": false,
      "inputs": [
        {
          "indexed": true,
          "internalType": "bytes4",
          "name": "selector",
          "type": "bytes4"
        },
        {
          "indexed": true,
          "internalType": "address",
          "name": "impl",
          "type": "address"
        }
      ],
      "name": "SetSelectorImplementation",
      "type": "event"
    },
    {
      "anonymous": false,
      "inputs": [
        {
          "indexed": true,
          "internalType": "address",
          "name": "implementation",
          "type": "address"
        }
      ],
      "name": "Upgraded",
      "type": "event"
    },
    {
      "stateMutability": "payable",
      "type": "fallback"
    },
    {
      "inputs": [],
      "name": "ADMIN_ROLE",
      "outputs": [
        {
          "internalType": "bytes32",
          "name": "",
          "type": "bytes32"
        }
      ],
      "stateMutability": "view",
      "type": "function"
    },
    {
      "inputs": [],
      "name": "DEFAULT_ADMIN_ROLE",
      "outputs": [
        {
          "internalType": "bytes32",
          "name": "",
          "type": "bytes32"
        }
      ],
      "stateMutability": "view",
      "type": "function"
    },
    {
      "inputs": [],
      "name": "PAUSE_ROLE",
      "outputs": [
        {
          "internalType": "bytes32",
          "name": "",
          "type": "bytes32"
        }
      ],
      "stateMutability": "view",
      "type": "function"
    },
    {
      "inputs": [
        {
          "internalType": "address",
          "name": "account",
          "type": "address"
        }
      ],
      "name": "addAdmin",
      "outputs": [],
      "stateMutability": "nonpayable",
      "type": "function"
    },
    {
      "inputs": [
        {
          "internalType": "address",
          "name": "account",
          "type": "address"
        }
      ],
      "name": "addPauser",
      "outputs": [],
      "stateMutability": "nonpayable",
      "type": "function"
    },
    {
      "inputs": [
        {
          "internalType": "address",
          "name": "",
          "type": "address"
        }
      ],
      "name": "aliveImplementation",
      "outputs": [
        {
          "internalType": "bool",
          "name": "",
          "type": "bool"
        }
      ],
      "stateMutability": "view",
      "type": "function"
    },
    {
      "inputs": [
        {
          "internalType": "bytes32",
          "name": "role",
          "type": "bytes32"
        }
      ],
      "name": "getRoleAdmin",
      "outputs": [
        {
          "internalType": "bytes32",
          "name": "",
          "type": "bytes32"
        }
      ],
      "stateMutability": "view",
      "type": "function"
    },
    {
      "inputs": [
        {
          "internalType": "bytes4",
          "name": "_selector",
          "type": "bytes4"
        }
      ],
      "name": "getSelectorImplementation2",
      "outputs": [
        {
          "internalType": "address",
          "name": "impl",
          "type": "address"
        }
      ],
      "stateMutability": "view",
      "type": "function"
    },
    {
      "inputs": [
        {
          "internalType": "bytes32",
          "name": "role",
          "type": "bytes32"
        },
        {
          "internalType": "address",
          "name": "account",
          "type": "address"
        }
      ],
      "name": "grantRole",
      "outputs": [],
      "stateMutability": "nonpayable",
      "type": "function"
    },
    {
      "inputs": [
        {
          "internalType": "bytes32",
          "name": "role",
          "type": "bytes32"
        },
        {
          "internalType": "address",
          "name": "account",
          "type": "address"
        }
      ],
      "name": "hasRole",
      "outputs": [
        {
          "internalType": "bool",
          "name": "",
          "type": "bool"
        }
      ],
      "stateMutability": "view",
      "type": "function"
    },
    {
      "inputs": [],
      "name": "implementation",
      "outputs": [
        {
          "internalType": "address",
          "name": "",
          "type": "address"
        }
      ],
      "stateMutability": "view",
      "type": "function"
    },
    {
      "inputs": [
        {
          "internalType": "uint256",
          "name": "_index",
          "type": "uint256"
        }
      ],
      "name": "implementation2",
      "outputs": [
        {
          "internalType": "address",
          "name": "",
          "type": "address"
        }
      ],
      "stateMutability": "view",
      "type": "function"
    },
    {
      "inputs": [
        {
          "internalType": "address",
          "name": "account",
          "type": "address"
        }
      ],
      "name": "isAdmin",
      "outputs": [
        {
          "internalType": "bool",
          "name": "",
          "type": "bool"
        }
      ],
      "stateMutability": "view",
      "type": "function"
    },
    {
      "inputs": [],
      "name": "isOwner",
      "outputs": [
        {
          "internalType": "bool",
          "name": "",
          "type": "bool"
        }
      ],
      "stateMutability": "view",
      "type": "function"
    },
    {
      "inputs": [],
      "name": "pauseProxy",
      "outputs": [
        {
          "internalType": "bool",
          "name": "",
          "type": "bool"
        }
      ],
      "stateMutability": "view",
      "type": "function"
    },
    {
      "inputs": [
        {
          "internalType": "uint256",
          "name": "",
          "type": "uint256"
        }
      ],
      "name": "proxyImplementation",
      "outputs": [
        {
          "internalType": "address",
          "name": "",
          "type": "address"
        }
      ],
      "stateMutability": "view",
      "type": "function"
    },
    {
      "inputs": [
        {
          "internalType": "address",
          "name": "account",
          "type": "address"
        }
      ],
      "name": "removeAdmin",
      "outputs": [],
      "stateMutability": "nonpayable",
      "type": "function"
    },
    {
      "inputs": [
        {
          "internalType": "address",
          "name": "account",
          "type": "address"
        }
      ],
      "name": "removePauser",
      "outputs": [],
      "stateMutability": "nonpayable",
      "type": "function"
    },
    {
      "inputs": [],
      "name": "renounceOwnership",
      "outputs": [],
      "stateMutability": "nonpayable",
      "type": "function"
    },
    {
      "inputs": [
        {
          "internalType": "bytes32",
          "name": "role",
          "type": "bytes32"
        },
        {
          "internalType": "address",
          "name": "callerConfirmation",
          "type": "address"
        }
      ],
      "name": "renounceRole",
      "outputs": [],
      "stateMutability": "nonpayable",
      "type": "function"
    },
    {
      "inputs": [
        {
          "internalType": "bytes32",
          "name": "role",
          "type": "bytes32"
        },
        {
          "internalType": "address",
          "name": "account",
          "type": "address"
        }
      ],
      "name": "revokeRole",
      "outputs": [],
      "stateMutability": "nonpayable",
      "type": "function"
    },
    {
      "inputs": [
        {
          "internalType": "bytes4",
          "name": "",
          "type": "bytes4"
        }
      ],
      "name": "selectorImplementation",
      "outputs": [
        {
          "internalType": "address",
          "name": "",
          "type": "address"
        }
      ],
      "stateMutability": "view",
      "type": "function"
    },
    {
      "inputs": [
        {
          "internalType": "address",
          "name": "newImplementation",
          "type": "address"
        },
        {
          "internalType": "bool",
          "name": "_alive",
          "type": "bool"
        }
      ],
      "name": "setAliveImplementation2",
      "outputs": [],
      "stateMutability": "nonpayable",
      "type": "function"
    },
    {
      "inputs": [
        {
          "internalType": "address",
          "name": "newImplementation",
          "type": "address"
        },
        {
          "internalType": "uint256",
          "name": "_index",
          "type": "uint256"
        },
        {
          "internalType": "bool",
          "name": "_alive",
          "type": "bool"
        }
      ],
      "name": "setImplementation2",
      "outputs": [],
      "stateMutability": "nonpayable",
      "type": "function"
    },
    {
      "inputs": [
        {
          "internalType": "bool",
          "name": "_pause",
          "type": "bool"
        }
      ],
      "name": "setProxyPause",
      "outputs": [],
      "stateMutability": "nonpayable",
      "type": "function"
    },
    {
      "inputs": [
        {
          "internalType": "bytes4[]",
          "name": "_selectors",
          "type": "bytes4[]"
        },
        {
          "internalType": "address",
          "name": "_imp",
          "type": "address"
        }
      ],
      "name": "setSelectorImplementations2",
      "outputs": [],
      "stateMutability": "nonpayable",
      "type": "function"
    },
    {
      "inputs": [
        {
          "internalType": "bytes4",
          "name": "interfaceId",
          "type": "bytes4"
        }
      ],
      "name": "supportsInterface",
      "outputs": [
        {
          "internalType": "bool",
          "name": "",
          "type": "bool"
        }
      ],
      "stateMutability": "view",
      "type": "function"
    },
    {
      "inputs": [
        {
          "internalType": "address",
          "name": "newAdmin",
          "type": "address"
        }
      ],
      "name": "transferAdmin",
      "outputs": [],
      "stateMutability": "nonpayable",
      "type": "function"
    },
    {
      "inputs": [
        {
          "internalType": "address",
          "name": "newAdmin",
          "type": "address"
        }
      ],
      "name": "transferOwnership",
      "outputs": [],
      "stateMutability": "nonpayable",
      "type": "function"
    },
    {
      "inputs": [
        {
          "internalType": "address",
          "name": "impl",
          "type": "address"
        }
      ],
      "name": "upgradeTo",
      "outputs": [],
      "stateMutability": "nonpayable",
      "type": "function"
    },
    {
      "stateMutability": "payable",
      "type": "receive"
    }
  ],
  "bytecode": "0x608060405234601f57600f336024565b506040516113fc90816100b58239f35b600080fd5b6001600160a01b031660008181527f17ef568e3e12ab5b9c7254a8d58478811de00f9e6eb34345acd53bf8fd09d3ec602052604081205490919060ff1660b05781805260046020526040822081835260205260408220600160ff1982541617905533917f2f8788117e7eff1d82e926ec794901d17c78024a50270940304540a733656f0d8180a4600190565b509056fe60806040526004361015610018575b366112ab57610eee565b60003560e01c806301ffc9a7146101f35780631785f53c146101ee578063248a9ca3146101e957806324d7806c146101e45780632f2ff15d146101df57806336568abe146101da5780633659cfe6146101d5578063389ed267146101d05780634a5df50f146101cb57806350d2a276146101c6578063550d01a3146101c15780635c60da1b146101bc5780635cc797d8146101b757806363a8fd89146101b25780636b2c0f55146101ad57806370480275146101a8578063715018a6146101a357806375829def1461019e57806375b238fc146101995780637cb00d25146101945780637cd5f6631461018f57806382dc1ec41461018a5780638b8f4a65146101715780638d4fdb40146101855780638f32d59b1461018057806391d148541461017b578063a217fddf14610176578063b911135f14610171578063d547741f1461016c5763f2fde38b0361000e57610c2c565b610bed565b610b0b565b610bd1565b610b9d565b610b78565b610b3f565b610a35565b610998565b61095c565b610933565b610869565b610844565b6107d6565b610799565b610776565b61073d565b610709565b6106ca565b610653565b6104b8565b61048f565b6103c5565b61037e565b61033f565b6102f3565b6102c4565b610291565b61020f565b6001600160e01b031981160361020a57565b600080fd5b3461020a57602036600319011261020a57602060043561022e816101f8565b63ffffffff60e01b16637965db0b60e01b8114908115610254575b506040519015158152f35b6301ffc9a760e01b14905038610249565b600435906001600160a01b038216820361020a57565b602435906001600160a01b038216820361020a57565b3461020a57602036600319011261020a576102c26102ad610265565b6102bd6102b8610eb9565b610c50565b610cf2565b005b3461020a57602036600319011261020a5760043560005260046020526020600160406000200154604051908152f35b3461020a57602036600319011261020a57602060ff610333610313610265565b6000805160206113878339815191526000526004845260406000206106b3565b54166040519015158152f35b3461020a57604036600319011261020a576102c260043561035e61027b565b90806000526004602052610379600160406000200154610f2a565b611046565b3461020a57604036600319011261020a5761039761027b565b336001600160a01b038216036103b3576102c2906004356111c7565b60405163334bd91960e11b8152600490fd5b3461020a57602036600319011261020a576103de610265565b6103e96102b8610eb9565b6001600160a01b038116801561045a57600080805260016020526000805160206113478339815191525490926104339161042e906001600160a01b0316841415610d0b565b6111e1565b7fbc7cd75a20ee27fd9adebab32041f755214dbc6bffa90cc0225b39da2e5c2d3b8280a280f35b60405162461bcd60e51b815260206004820152600d60248201526c696e707574206973207a65726f60981b6044820152606490fd5b3461020a57600036600319011261020a5760206040516000805160206113678339815191528152f35b3461020a57604036600319011261020a5760043567ffffffffffffffff80821161020a573660238301121561020a57816004013590811161020a576024820191602436918360051b01011161020a5761050f61027b565b9161051b6102b8610eb9565b81156105f6579061053d61053861053185610699565b5460ff1690565b610d43565b6001600160a01b0391838316919060005b82811061055757005b80610592858761058a61057d6105786105736001988b8b610d8a565b610db0565b61063a565b546001600160a01b031690565b161415610dbd565b6105ac876105a7610578610573858989610d8a565b610e09565b846105cb6105be610573848888610d8a565b6001600160e01b03191690565b7f14ebc1c32aa68f4d766e89f3e546cee249f7df25183fc10ab1568d91c2ce9b7b600080a30161054e565b606460405162461bcd60e51b815260206004820152602060248201527f50726f78793a205f73656c6563746f727327732073697a65206973207a65726f6044820152fd5b63ffffffff60e01b166000526003602052604060002090565b3461020a57602036600319011261020a57600435610670816101f8565b63ffffffff60e01b166000526003602052602060018060a01b0360406000205416604051908152f35b6001600160a01b0316600090815260026020526040902090565b9060018060a01b0316600052602052604060002090565b3461020a57602036600319011261020a576001600160a01b036106eb610265565b166000526002602052602060ff604060002054166040519015158152f35b3461020a5760008060031936011261073a5780806020925260018252604060018060a01b0391205416604051908152f35b80fd5b3461020a57604036600319011261020a57610756610265565b602435801515810361020a576102c2916107716102b8610eb9565b611257565b3461020a57600036600319011261020a57602060ff600054166040519015158152f35b3461020a57602036600319011261020a576107b2610265565b6107bd6102b8610eb9565b336001600160a01b038216036103b3576102c290611060565b3461020a57602036600319011261020a576102c26107f2610265565b6107fd6102b8610eb9565b60008051602061138783398151915260005260046020527f2fb794d17134dfdec181ddbac1babb5ab1eb140204ef4d982f294e7fc8b690235461083f90610f2a565b610f6b565b3461020a57600036600319011261020a576108606102b8610eb9565b6102c2336110ff565b3461020a57602036600319011261020a57610882610265565b61088d6102b8610eb9565b6001600160a01b03811680156108f35733146108b5576108ac90610ca8565b6102c233610cf2565b60405162461bcd60e51b815260206004820152601660248201527520b1b1b2b9b9b4b136329d1039b0b6b29030b236b4b760511b6044820152606490fd5b60405162461bcd60e51b815260206004820152601860248201527741636365737369626c653a207a65726f206164647265737360401b6044820152606490fd5b3461020a57600036600319011261020a5760206040516000805160206113878339815191528152f35b3461020a57602036600319011261020a5760043580151580910361020a576109856102b8610eb9565b60ff801960005416911617600055600080f35b3461020a57606036600319011261020a576109b1610265565b604435801515810361020a576109c86102b8610eb9565b813b156109f2576102c2918115611257576024356000526001602052610771816040600020610e09565b60405162461bcd60e51b815260206004820152601b60248201527a50726f78793a206e6f7420636f6e7472616374206164647265737360281b6044820152606490fd5b3461020a57602036600319011261020a57610a4e610265565b600080516020611387833981519152600090815260046020529060ff610a82336000805160206113a78339815191526106b3565b54168015610afd575b15610ac357610abf9060008051602061136783398151915283526004602052610aba6001604085200154610f2a565b611000565b5080f35b60405162461bcd60e51b81526020600482015260126024820152713737ba1027bbb732b91037b91020b236b4b760711b6044820152606490fd5b50610b06610eb9565b610a8b565b3461020a57602036600319011261020a576004356000526001602052602060018060a01b0360406000205416604051908152f35b3461020a57602036600319011261020a576020610b66600435610b61816101f8565b610e28565b6040516001600160a01b039091168152f35b3461020a57600036600319011261020a576020610b93610eb9565b6040519015158152f35b3461020a57604036600319011261020a57602060ff610333610bbd61027b565b6004356000526004845260406000206106b3565b3461020a57600036600319011261020a57602060405160008152f35b3461020a57604036600319011261020a576102c2600435610c0c61027b565b90806000526004602052610c27600160406000200154610f2a565b6111c7565b3461020a57602036600319011261020a57610c45610265565b6108826102b8610eb9565b15610c5757565b60405162461bcd60e51b8152602060048201526024808201527f41757468436f6e74726f6c3a2043616c6c6572206973206e6f7420746865206f6044820152633bb732b960e11b6064820152608490fd5b60008051602061138783398151915260005260046020527f2fb794d17134dfdec181ddbac1babb5ab1eb140204ef4d982f294e7fc8b6902354610cef919061083f90610f2a565b50565b336001600160a01b038216036103b357610cef90611193565b15610d1257565b60405162461bcd60e51b815260206004820152600960248201526839b0b6b29030b2323960b91b6044820152606490fd5b15610d4a57565b60405162461bcd60e51b815260206004820152601860248201527750726f78793a205f696d70206973206e6f7420616c69766560401b6044820152606490fd5b9190811015610d9a5760051b0190565b634e487b7160e01b600052603260045260246000fd5b35610dba816101f8565b90565b15610dc457565b60405162461bcd60e51b815260206004820152601d60248201527f4c69717569646974795661756c7450726f78793a2073616d6520696d700000006044820152606490fd5b80546001600160a01b0319166001600160a01b03909216919091179055565b6001600160e01b031981166000908152600360205260409020546001600160a01b0391908216610e755750600080526001602052600080516020611347833981519152541690565b541690565b60ff610e8b83610e848461063a565b5416610699565b541615610e9b57610e709061063a565b50600080526001602052600080516020611347833981519152541690565b60008052600460205260ff610e70337f17ef568e3e12ab5b9c7254a8d58478811de00f9e6eb34345acd53bf8fd09d3ec6106b3565b60405162461bcd60e51b815260206004820152601460248201527331b0b73737ba103932b1b2b4bb329022ba3432b960611b6044820152606490fd5b80600052600460205260ff610f433360406000206106b3565b541615610f4d5750565b6044906040519063e2517d3f60e01b82523360048301526024820152fd5b600080516020611387833981519152600081815260046020529060ff610f9f846000805160206113a78339815191526106b3565b5416610ffa578082526004602052610fba83604084206106b3565b805460ff1916600117905533926001600160a01b0316917f2f8788117e7eff1d82e926ec794901d17c78024a50270940304540a733656f0d9080a4600190565b50905090565b600080516020611367833981519152600081815260046020529060ff610f9f847f2ed987ab732d519c59d4a2f2f586b9ca6af9f18905fa2093aceeb8d462ffc8426106b3565b600090808252600460205260ff610f9f84604085206106b3565b600080516020611367833981519152600081815260046020529060ff6110a6847f2ed987ab732d519c59d4a2f2f586b9ca6af9f18905fa2093aceeb8d462ffc8426106b3565b541615610ffa5780825260046020526110c283604084206106b3565b805460ff1916905533926001600160a01b0316917ff6391f5c32d9c69d2a47ea670b442974b53935d1edc7fd64eb21e047a839171b9080a4600190565b6000808052600460205260ff611135837f17ef568e3e12ab5b9c7254a8d58478811de00f9e6eb34345acd53bf8fd09d3ec6106b3565b54161561118e57808052600460205261115182604083206106b3565b805460ff1916905533916001600160a01b0316907ff6391f5c32d9c69d2a47ea670b442974b53935d1edc7fd64eb21e047a839171b8180a4600190565b905090565b600080516020611387833981519152600081815260046020529060ff6110a6846000805160206113a78339815191526106b3565b600090808252600460205260ff6110a684604085206106b3565b803b156109f25760008052600160205261120981600080516020611347833981519152610e09565b60018060a01b03168060005260026020526040600020600160ff198254161790557f72558d9bfba4210f9ef095c782589484151f6d90f7a81bb3cb9b33efc695d324602060405160018152a2565b60207f72558d9bfba4210f9ef095c782589484151f6d90f7a81bb3cb9b33efc695d3249160018060a01b031692836000526002825260406000209015159060ff1981541660ff8316179055604051908152a2565b60006112c181356001600160e01b031916610e28565b6001600160a01b03811615158061133a575b156112f557818091368280378136915af43d82803e156112f1573d90f35b3d90fd5b60405162461bcd60e51b815260206004820152601d60248201527f50726f78793a20696d706c204f522070726f78792069732066616c73650000006044820152606490fd5b5060ff825416156112d356fea6eef7e35abe7026729641147f7915573c7e97b47efa546f5f6e3230263bcb49fcb9fcbfa83b897fb2d5cf4b58962164105c1e71489a37ef3ae0db3fdce576f6df8b4c520ffe197c5343c6f5aec59570151ef9a492f2c624fd45ddde6135ec422fb794d17134dfdec181ddbac1babb5ab1eb140204ef4d982f294e7fc8b69022a2646970667358221220996576045cca59d88b8e796000be3bd6368e8de14e3725b25ca360ae7a30897164736f6c63430008190033",
  "linkReferences": {},
  "deployedLinkReferences": {}
}