{
  "_format": "hh-sol-artifact-1",
  "contractName": "RandomPackProxy",
  "sourceName": "src/L2/RandomPackProxy.sol",
  "abi": [
    {
      "inputs": [],
      "name": "AccessControlBadConfirmation",
      "type": "error"
    },
    {
      "inputs": [
        {
          "internalType": "address",
          "name": "account",
          "type": "address"
        },
        {
          "internalType": "bytes32",
          "name": "neededRole",
          "type": "bytes32"
        }
      ],
      "name": "AccessControlUnauthorizedAccount",
      "type": "error"
    },
    {
      "inputs": [],
      "name": "FailedToSendEthBack",
      "type": "error"
    },
    {
      "inputs": [],
      "name": "InvalidAddress",
      "type": "error"
    },
    {
      "inputs": [],
      "name": "RandomPackFeesEqualToZero",
      "type": "error"
    },
    {
      "inputs": [],
      "name": "RequestNotMade",
      "type": "error"
    },
    {
      "inputs": [],
      "name": "SameAdmin",
      "type": "error"
    },
    {
      "inputs": [],
      "name": "ZeroAddress",
      "type": "error"
    },
    {
      "anonymous": false,
      "inputs": [
        {
          "indexed": false,
          "internalType": "uint256",
          "name": "_callbackGasLimit",
          "type": "uint256"
        }
      ],
      "name": "CallBackGasLimitUpdated",
      "type": "event"
    },
    {
      "anonymous": false,
      "inputs": [],
      "name": "CommonGemMinted",
      "type": "event"
    },
    {
      "anonymous": false,
      "inputs": [],
      "name": "CommonGemToBeMinted",
      "type": "event"
    },
    {
      "anonymous": false,
      "inputs": [
        {
          "indexed": false,
          "internalType": "uint256",
          "name": "amount",
          "type": "uint256"
        }
      ],
      "name": "EthSentBack",
      "type": "event"
    },
    {
      "anonymous": false,
      "inputs": [
        {
          "indexed": false,
          "internalType": "address",
          "name": "gemFactory",
          "type": "address"
        }
      ],
      "name": "GemFactoryAddressUpdated",
      "type": "event"
    },
    {
      "anonymous": false,
      "inputs": [
        {
          "indexed": false,
          "internalType": "string",
          "name": "_tokenURI",
          "type": "string"
        }
      ],
      "name": "PerfectCommonGemURIUpdated",
      "type": "event"
    },
    {
      "anonymous": false,
      "inputs": [
        {
          "indexed": false,
          "internalType": "address",
          "name": "requestor",
          "type": "address"
        }
      ],
      "name": "RandomGemRequested",
      "type": "event"
    },
    {
      "anonymous": false,
      "inputs": [
        {
          "indexed": false,
          "internalType": "uint256",
          "name": "tokenId",
          "type": "uint256"
        },
        {
          "indexed": false,
          "internalType": "address",
          "name": "newOwner",
          "type": "address"
        }
      ],
      "name": "RandomGemToBeTransferred",
      "type": "event"
    },
    {
      "anonymous": false,
      "inputs": [
        {
          "indexed": false,
          "internalType": "uint256",
          "name": "tokenId",
          "type": "uint256"
        },
        {
          "indexed": false,
          "internalType": "address",
          "name": "newOwner",
          "type": "address"
        }
      ],
      "name": "RandomGemTransferred",
      "type": "event"
    },
    {
      "anonymous": false,
      "inputs": [
        {
          "indexed": false,
          "internalType": "uint256",
          "name": "randomPackFees",
          "type": "uint256"
        }
      ],
      "name": "RandomPackFeesUpdated",
      "type": "event"
    },
    {
      "anonymous": false,
      "inputs": [
        {
          "indexed": true,
          "internalType": "bytes32",
          "name": "role",
          "type": "bytes32"
        },
        {
          "indexed": true,
          "internalType": "bytes32",
          "name": "previousAdminRole",
          "type": "bytes32"
        },
        {
          "indexed": true,
          "internalType": "bytes32",
          "name": "newAdminRole",
          "type": "bytes32"
        }
      ],
      "name": "RoleAdminChanged",
      "type": "event"
    },
    {
      "anonymous": false,
      "inputs": [
        {
          "indexed": true,
          "internalType": "bytes32",
          "name": "role",
          "type": "bytes32"
        },
        {
          "indexed": true,
          "internalType": "address",
          "name": "account",
          "type": "address"
        },
        {
          "indexed": true,
          "internalType": "address",
          "name": "sender",
          "type": "address"
        }
      ],
      "name": "RoleGranted",
      "type": "event"
    },
    {
      "anonymous": false,
      "inputs": [
        {
          "indexed": true,
          "internalType": "bytes32",
          "name": "role",
          "type": "bytes32"
        },
        {
          "indexed": true,
          "internalType": "address",
          "name": "account",
          "type": "address"
        },
        {
          "indexed": true,
          "internalType": "address",
          "name": "sender",
          "type": "address"
        }
      ],
      "name": "RoleRevoked",
      "type": "event"
    },
    {
      "anonymous": false,
      "inputs": [
        {
          "indexed": true,
          "internalType": "address",
          "name": "impl",
          "type": "address"
        },
        {
          "indexed": false,
          "internalType": "bool",
          "name": "alive",
          "type": "bool"
        }
      ],
      "name": "SetAliveImplementation",
      "type": "event"
    },
    {
      "anonymous": false,
      "inputs": [
        {
          "indexed": true,
          "internalType": "bytes4",
          "name": "selector",
          "type": "bytes4"
        },
        {
          "indexed": true,
          "internalType": "address",
          "name": "impl",
          "type": "address"
        }
      ],
      "name": "SetSelectorImplementation",
      "type": "event"
    },
    {
      "anonymous": false,
      "inputs": [
        {
          "indexed": false,
          "internalType": "address",
          "name": "treasury",
          "type": "address"
        }
      ],
      "name": "TreasuryAddressUpdated",
      "type": "event"
    },
    {
      "anonymous": false,
      "inputs": [
        {
          "indexed": true,
          "internalType": "address",
          "name": "implementation",
          "type": "address"
        }
      ],
      "name": "Upgraded",
      "type": "event"
    },
    {
      "stateMutability": "payable",
      "type": "fallback"
    },
    {
      "inputs": [],
      "name": "ADMIN_ROLE",
      "outputs": [
        {
          "internalType": "bytes32",
          "name": "",
          "type": "bytes32"
        }
      ],
      "stateMutability": "view",
      "type": "function"
    },
    {
      "inputs": [],
      "name": "DEFAULT_ADMIN_ROLE",
      "outputs": [
        {
          "internalType": "bytes32",
          "name": "",
          "type": "bytes32"
        }
      ],
      "stateMutability": "view",
      "type": "function"
    },
    {
      "inputs": [],
      "name": "PAUSE_ROLE",
      "outputs": [
        {
          "internalType": "bytes32",
          "name": "",
          "type": "bytes32"
        }
      ],
      "stateMutability": "view",
      "type": "function"
    },
    {
      "inputs": [
        {
          "internalType": "address",
          "name": "account",
          "type": "address"
        }
      ],
      "name": "addAdmin",
      "outputs": [],
      "stateMutability": "nonpayable",
      "type": "function"
    },
    {
      "inputs": [
        {
          "internalType": "address",
          "name": "account",
          "type": "address"
        }
      ],
      "name": "addPauser",
      "outputs": [],
      "stateMutability": "nonpayable",
      "type": "function"
    },
    {
      "inputs": [
        {
          "internalType": "address",
          "name": "",
          "type": "address"
        }
      ],
      "name": "aliveImplementation",
      "outputs": [
        {
          "internalType": "bool",
          "name": "",
          "type": "bool"
        }
      ],
      "stateMutability": "view",
      "type": "function"
    },
    {
      "inputs": [
        {
          "internalType": "bytes32",
          "name": "role",
          "type": "bytes32"
        }
      ],
      "name": "getRoleAdmin",
      "outputs": [
        {
          "internalType": "bytes32",
          "name": "",
          "type": "bytes32"
        }
      ],
      "stateMutability": "view",
      "type": "function"
    },
    {
      "inputs": [
        {
          "internalType": "bytes4",
          "name": "_selector",
          "type": "bytes4"
        }
      ],
      "name": "getSelectorImplementation2",
      "outputs": [
        {
          "internalType": "address",
          "name": "impl",
          "type": "address"
        }
      ],
      "stateMutability": "view",
      "type": "function"
    },
    {
      "inputs": [
        {
          "internalType": "bytes32",
          "name": "role",
          "type": "bytes32"
        },
        {
          "internalType": "address",
          "name": "account",
          "type": "address"
        }
      ],
      "name": "grantRole",
      "outputs": [],
      "stateMutability": "nonpayable",
      "type": "function"
    },
    {
      "inputs": [
        {
          "internalType": "bytes32",
          "name": "role",
          "type": "bytes32"
        },
        {
          "internalType": "address",
          "name": "account",
          "type": "address"
        }
      ],
      "name": "hasRole",
      "outputs": [
        {
          "internalType": "bool",
          "name": "",
          "type": "bool"
        }
      ],
      "stateMutability": "view",
      "type": "function"
    },
    {
      "inputs": [],
      "name": "implementation",
      "outputs": [
        {
          "internalType": "address",
          "name": "",
          "type": "address"
        }
      ],
      "stateMutability": "view",
      "type": "function"
    },
    {
      "inputs": [
        {
          "internalType": "uint256",
          "name": "_index",
          "type": "uint256"
        }
      ],
      "name": "implementation2",
      "outputs": [
        {
          "internalType": "address",
          "name": "",
          "type": "address"
        }
      ],
      "stateMutability": "view",
      "type": "function"
    },
    {
      "inputs": [
        {
          "internalType": "address",
          "name": "account",
          "type": "address"
        }
      ],
      "name": "isAdmin",
      "outputs": [
        {
          "internalType": "bool",
          "name": "",
          "type": "bool"
        }
      ],
      "stateMutability": "view",
      "type": "function"
    },
    {
      "inputs": [],
      "name": "isOwner",
      "outputs": [
        {
          "internalType": "bool",
          "name": "",
          "type": "bool"
        }
      ],
      "stateMutability": "view",
      "type": "function"
    },
    {
      "inputs": [],
      "name": "pauseProxy",
      "outputs": [
        {
          "internalType": "bool",
          "name": "",
          "type": "bool"
        }
      ],
      "stateMutability": "view",
      "type": "function"
    },
    {
      "inputs": [
        {
          "internalType": "uint256",
          "name": "",
          "type": "uint256"
        }
      ],
      "name": "proxyImplementation",
      "outputs": [
        {
          "internalType": "address",
          "name": "",
          "type": "address"
        }
      ],
      "stateMutability": "view",
      "type": "function"
    },
    {
      "inputs": [
        {
          "internalType": "address",
          "name": "account",
          "type": "address"
        }
      ],
      "name": "removeAdmin",
      "outputs": [],
      "stateMutability": "nonpayable",
      "type": "function"
    },
    {
      "inputs": [
        {
          "internalType": "address",
          "name": "account",
          "type": "address"
        }
      ],
      "name": "removePauser",
      "outputs": [],
      "stateMutability": "nonpayable",
      "type": "function"
    },
    {
      "inputs": [],
      "name": "renounceOwnership",
      "outputs": [],
      "stateMutability": "nonpayable",
      "type": "function"
    },
    {
      "inputs": [
        {
          "internalType": "bytes32",
          "name": "role",
          "type": "bytes32"
        },
        {
          "internalType": "address",
          "name": "callerConfirmation",
          "type": "address"
        }
      ],
      "name": "renounceRole",
      "outputs": [],
      "stateMutability": "nonpayable",
      "type": "function"
    },
    {
      "inputs": [
        {
          "internalType": "bytes32",
          "name": "role",
          "type": "bytes32"
        },
        {
          "internalType": "address",
          "name": "account",
          "type": "address"
        }
      ],
      "name": "revokeRole",
      "outputs": [],
      "stateMutability": "nonpayable",
      "type": "function"
    },
    {
      "inputs": [
        {
          "internalType": "uint256",
          "name": "",
          "type": "uint256"
        }
      ],
      "name": "s_requests",
      "outputs": [
        {
          "internalType": "uint256",
          "name": "randomWord",
          "type": "uint256"
        },
        {
          "internalType": "uint256",
          "name": "chosenTokenId",
          "type": "uint256"
        },
        {
          "internalType": "address",
          "name": "requester",
          "type": "address"
        },
        {
          "internalType": "bool",
          "name": "requested",
          "type": "bool"
        },
        {
          "internalType": "bool",
          "name": "fulfilled",
          "type": "bool"
        }
      ],
      "stateMutability": "view",
      "type": "function"
    },
    {
      "inputs": [
        {
          "internalType": "bytes4",
          "name": "",
          "type": "bytes4"
        }
      ],
      "name": "selectorImplementation",
      "outputs": [
        {
          "internalType": "address",
          "name": "",
          "type": "address"
        }
      ],
      "stateMutability": "view",
      "type": "function"
    },
    {
      "inputs": [
        {
          "internalType": "address",
          "name": "newImplementation",
          "type": "address"
        },
        {
          "internalType": "bool",
          "name": "_alive",
          "type": "bool"
        }
      ],
      "name": "setAliveImplementation2",
      "outputs": [],
      "stateMutability": "nonpayable",
      "type": "function"
    },
    {
      "inputs": [
        {
          "internalType": "address",
          "name": "newImplementation",
          "type": "address"
        },
        {
          "internalType": "uint256",
          "name": "_index",
          "type": "uint256"
        },
        {
          "internalType": "bool",
          "name": "_alive",
          "type": "bool"
        }
      ],
      "name": "setImplementation2",
      "outputs": [],
      "stateMutability": "nonpayable",
      "type": "function"
    },
    {
      "inputs": [
        {
          "internalType": "bool",
          "name": "_pause",
          "type": "bool"
        }
      ],
      "name": "setProxyPause",
      "outputs": [],
      "stateMutability": "nonpayable",
      "type": "function"
    },
    {
      "inputs": [
        {
          "internalType": "bytes4[]",
          "name": "_selectors",
          "type": "bytes4[]"
        },
        {
          "internalType": "address",
          "name": "_imp",
          "type": "address"
        }
      ],
      "name": "setSelectorImplementations2",
      "outputs": [],
      "stateMutability": "nonpayable",
      "type": "function"
    },
    {
      "inputs": [
        {
          "internalType": "bytes4",
          "name": "interfaceId",
          "type": "bytes4"
        }
      ],
      "name": "supportsInterface",
      "outputs": [
        {
          "internalType": "bool",
          "name": "",
          "type": "bool"
        }
      ],
      "stateMutability": "view",
      "type": "function"
    },
    {
      "inputs": [
        {
          "internalType": "address",
          "name": "newAdmin",
          "type": "address"
        }
      ],
      "name": "transferAdmin",
      "outputs": [],
      "stateMutability": "nonpayable",
      "type": "function"
    },
    {
      "inputs": [
        {
          "internalType": "address",
          "name": "newAdmin",
          "type": "address"
        }
      ],
      "name": "transferOwnership",
      "outputs": [],
      "stateMutability": "nonpayable",
      "type": "function"
    },
    {
      "inputs": [
        {
          "internalType": "address",
          "name": "impl",
          "type": "address"
        }
      ],
      "name": "upgradeTo",
      "outputs": [],
      "stateMutability": "nonpayable",
      "type": "function"
    },
    {
      "stateMutability": "payable",
      "type": "receive"
    }
  ],
  "bytecode": "0x608060405234610068576301ffc9a760e01b60005260046020527f9fe05126d2d9ecf60592e254dead906a4b2e492f36cca727682c38e9008c6ac1805460ff199081166001179091556100513361006d565b50600d5416600d5560405161140890816100ff8239f35b600080fd5b6001600160a01b031660008181527f05b8ccbb9d4d8fb16ea74ce3c29a41f1b461fbdaff4714a0d9a8eb05499746bc602052604081205490919060ff166100fa5781805260056020526040822081835260205260408220600160ff1982541617905533917f2f8788117e7eff1d82e926ec794901d17c78024a50270940304540a733656f0d8180a4600190565b509056fe60806040526004361015610018575b366112b757610ed1565b60003560e01c806301ffc9a7146102035780631785f53c146101fe578063248a9ca3146101f957806324d7806c146101f45780632f2ff15d146101ef57806336568abe146101ea5780633659cfe6146101e5578063389ed267146101e05780634a5df50f146101db57806350d2a276146101d6578063550d01a3146101d15780635c60da1b146101cc5780635cc797d8146101c757806363a8fd89146101c25780636b2c0f55146101bd57806370480275146101b8578063715018a6146101b357806375829def146101ae57806375b238fc146101a95780637cb00d25146101a45780637cd5f6631461019f57806382dc1ec41461019a5780638b8f4a651461017c5780638d4fdb40146101955780638f32d59b1461019057806391d148541461018b578063a168fa8914610186578063a217fddf14610181578063b911135f1461017c578063d547741f146101775763f2fde38b0361000e57610c56565b610c17565b610adb565b610bfb565b610b97565b610b63565b610b48565b610b0f565b610a05565b610968565b61092c565b610903565b610854565b61082f565b6107c1565b610784565b610761565b610728565b6106f4565b6106b5565b61063e565b6104a3565b61047a565b6103b0565b610369565b61032a565b6102de565b6102af565b61027c565b61021f565b6001600160e01b031981160361021a57565b600080fd5b3461021a57602036600319011261021a57602061024660043561024181610208565b610f0d565b6040519015158152f35b600435906001600160a01b038216820361021a57565b602435906001600160a01b038216820361021a57565b3461021a57602036600319011261021a576102ad610298610250565b6102a86102a3610e9c565b610c7a565b610cd2565b005b3461021a57602036600319011261021a5760043560005260056020526020600160406000200154604051908152f35b3461021a57602036600319011261021a57602060ff61031e6102fe610250565b60008051602061139383398151915260005260058452604060002061069e565b54166040519015158152f35b3461021a57604036600319011261021a576102ad600435610349610266565b90806000526005602052610364600160406000200154610f36565b611052565b3461021a57604036600319011261021a57610382610266565b336001600160a01b0382160361039e576102ad906004356111d3565b60405163334bd91960e11b8152600490fd5b3461021a57602036600319011261021a576103c9610250565b6103d46102a3610e9c565b6001600160a01b0381168015610445576000808052600160205260008051602061135383398151915254909261041e91610419906001600160a01b0316841415610cee565b6111ed565b7fbc7cd75a20ee27fd9adebab32041f755214dbc6bffa90cc0225b39da2e5c2d3b8280a280f35b60405162461bcd60e51b815260206004820152600d60248201526c696e707574206973207a65726f60981b6044820152606490fd5b3461021a57600036600319011261021a5760206040516000805160206113738339815191528152f35b3461021a57604036600319011261021a5760043567ffffffffffffffff80821161021a573660238301121561021a57816004013590811161021a576024820191602436918360051b01011161021a576104fa610266565b916105066102a3610e9c565b81156105e1579061052861052361051c85610684565b5460ff1690565b610d26565b6001600160a01b0391838316919060005b82811061054257005b8061057d858761057561056861056361055e6001988b8b610d6d565b610d93565b610625565b546001600160a01b031690565b161415610da0565b6105978761059261056361055e858989610d6d565b610dec565b846105b66105a961055e848888610d6d565b6001600160e01b03191690565b7f14ebc1c32aa68f4d766e89f3e546cee249f7df25183fc10ab1568d91c2ce9b7b600080a301610539565b606460405162461bcd60e51b815260206004820152602060248201527f50726f78793a205f73656c6563746f727327732073697a65206973207a65726f6044820152fd5b63ffffffff60e01b166000526003602052604060002090565b3461021a57602036600319011261021a5760043561065b81610208565b63ffffffff60e01b166000526003602052602060018060a01b0360406000205416604051908152f35b6001600160a01b0316600090815260026020526040902090565b9060018060a01b0316600052602052604060002090565b3461021a57602036600319011261021a576001600160a01b036106d6610250565b166000526002602052602060ff604060002054166040519015158152f35b3461021a576000806003193601126107255780806020925260018252604060018060a01b0391205416604051908152f35b80fd5b3461021a57604036600319011261021a57610741610250565b602435801515810361021a576102ad9161075c6102a3610e9c565b611263565b3461021a57600036600319011261021a57602060ff600054166040519015158152f35b3461021a57602036600319011261021a5761079d610250565b6107a86102a3610e9c565b336001600160a01b0382160361039e576102ad9061106c565b3461021a57602036600319011261021a576102ad6107dd610250565b6107e86102a3610e9c565b60008051602061139383398151915260005260056020527f09f04f5809d5be59813a33617d16f069caae874a6b34f03139f63d934daddae75461082a90610f36565b610f77565b3461021a57600036600319011261021a5761084b6102a3610e9c565b6102ad3361110b565b3461021a57602036600319011261021a5761086d610250565b6108786102a3610e9c565b6001600160a01b03811680156108f15733146108df5760008051602061139383398151915260005260056020527f09f04f5809d5be59813a33617d16f069caae874a6b34f03139f63d934daddae7546108d5919061082a90610f36565b506102ad33610cd2565b6040516309cd70b960e21b8152600490fd5b60405163d92e233d60e01b8152600490fd5b3461021a57600036600319011261021a5760206040516000805160206113938339815191528152f35b3461021a57602036600319011261021a5760043580151580910361021a576109556102a3610e9c565b60ff801960005416911617600055600080f35b3461021a57606036600319011261021a57610981610250565b604435801515810361021a576109986102a3610e9c565b813b156109c2576102ad91811561126357602435600052600160205261075c816040600020610dec565b60405162461bcd60e51b815260206004820152601b60248201527a50726f78793a206e6f7420636f6e7472616374206164647265737360281b6044820152606490fd5b3461021a57602036600319011261021a57610a1e610250565b600080516020611393833981519152600090815260056020529060ff610a52336000805160206113b383398151915261069e565b54168015610acd575b15610a9357610a8f9060008051602061137383398151915283526005602052610a8a6001604085200154610f36565b61100c565b5080f35b60405162461bcd60e51b81526020600482015260126024820152713737ba1027bbb732b91037b91020b236b4b760711b6044820152606490fd5b50610ad6610e9c565b610a5b565b3461021a57602036600319011261021a576004356000526001602052602060018060a01b0360406000205416604051908152f35b3461021a57602036600319011261021a576020610b36600435610b3181610208565b610e0b565b6040516001600160a01b039091168152f35b3461021a57600036600319011261021a576020610246610e9c565b3461021a57604036600319011261021a57602060ff61031e610b83610266565b60043560005260058452604060002061069e565b3461021a57602036600319011261021a57600435600052600660205260a0604060002060ff81549160026001820154910154906040519384526020840152600180851b03811660408401528181851c161515606084015260a81c1615156080820152f35b3461021a57600036600319011261021a57602060405160008152f35b3461021a57604036600319011261021a576102ad600435610c36610266565b90806000526005602052610c51600160406000200154610f36565b6111d3565b3461021a57602036600319011261021a57610c6f610250565b61086d6102a3610e9c565b15610c8157565b60405162461bcd60e51b8152602060048201526024808201527f41757468436f6e74726f6c3a2043616c6c6572206973206e6f7420746865206f6044820152633bb732b960e11b6064820152608490fd5b336001600160a01b0382160361039e57610ceb9061119f565b50565b15610cf557565b60405162461bcd60e51b815260206004820152600960248201526839b0b6b29030b2323960b91b6044820152606490fd5b15610d2d57565b60405162461bcd60e51b815260206004820152601860248201527750726f78793a205f696d70206973206e6f7420616c69766560401b6044820152606490fd5b9190811015610d7d5760051b0190565b634e487b7160e01b600052603260045260246000fd5b35610d9d81610208565b90565b15610da757565b60405162461bcd60e51b815260206004820152601d60248201527f4c69717569646974795661756c7450726f78793a2073616d6520696d700000006044820152606490fd5b80546001600160a01b0319166001600160a01b03909216919091179055565b6001600160e01b031981166000908152600360205260409020546001600160a01b0391908216610e585750600080526001602052600080516020611353833981519152541690565b541690565b60ff610e6e83610e6784610625565b5416610684565b541615610e7e57610e5390610625565b50600080526001602052600080516020611353833981519152541690565b60008052600560205260ff610e53337f05b8ccbb9d4d8fb16ea74ce3c29a41f1b461fbdaff4714a0d9a8eb05499746bc61069e565b60405162461bcd60e51b815260206004820152601460248201527331b0b73737ba103932b1b2b4bb329022ba3432b960611b6044820152606490fd5b6001600160e01b03198116637965db0b60e01b14908115610f2c575090565b610d9d9150610f0d565b80600052600560205260ff610f4f33604060002061069e565b541615610f595750565b6044906040519063e2517d3f60e01b82523360048301526024820152fd5b600080516020611393833981519152600081815260056020529060ff610fab846000805160206113b383398151915261069e565b5416611006578082526005602052610fc6836040842061069e565b805460ff1916600117905533926001600160a01b0316917f2f8788117e7eff1d82e926ec794901d17c78024a50270940304540a733656f0d9080a4600190565b50905090565b600080516020611373833981519152600081815260056020529060ff610fab847f787f97f3270d439d97068e73d6d75a066b24f84c342661f177d4e43e00e9f51361069e565b600090808252600560205260ff610fab846040852061069e565b600080516020611373833981519152600081815260056020529060ff6110b2847f787f97f3270d439d97068e73d6d75a066b24f84c342661f177d4e43e00e9f51361069e565b5416156110065780825260056020526110ce836040842061069e565b805460ff1916905533926001600160a01b0316917ff6391f5c32d9c69d2a47ea670b442974b53935d1edc7fd64eb21e047a839171b9080a4600190565b6000808052600560205260ff611141837f05b8ccbb9d4d8fb16ea74ce3c29a41f1b461fbdaff4714a0d9a8eb05499746bc61069e565b54161561119a57808052600560205261115d826040832061069e565b805460ff1916905533916001600160a01b0316907ff6391f5c32d9c69d2a47ea670b442974b53935d1edc7fd64eb21e047a839171b8180a4600190565b905090565b600080516020611393833981519152600081815260056020529060ff6110b2846000805160206113b383398151915261069e565b600090808252600560205260ff6110b2846040852061069e565b803b156109c25760008052600160205261121581600080516020611353833981519152610dec565b60018060a01b03168060005260026020526040600020600160ff198254161790557f72558d9bfba4210f9ef095c782589484151f6d90f7a81bb3cb9b33efc695d324602060405160018152a2565b60207f72558d9bfba4210f9ef095c782589484151f6d90f7a81bb3cb9b33efc695d3249160018060a01b031692836000526002825260406000209015159060ff1981541660ff8316179055604051908152a2565b60006112cd81356001600160e01b031916610e0b565b6001600160a01b038116151580611346575b1561130157818091368280378136915af43d82803e156112fd573d90f35b3d90fd5b60405162461bcd60e51b815260206004820152601d60248201527f50726f78793a20696d706c204f522070726f78792069732066616c73650000006044820152606490fd5b5060ff825416156112df56fea6eef7e35abe7026729641147f7915573c7e97b47efa546f5f6e3230263bcb49fcb9fcbfa83b897fb2d5cf4b58962164105c1e71489a37ef3ae0db3fdce576f6df8b4c520ffe197c5343c6f5aec59570151ef9a492f2c624fd45ddde6135ec4209f04f5809d5be59813a33617d16f069caae874a6b34f03139f63d934daddae6a264697066735822122074f2aadea83a8f0fe2fef4fdcbb0070e1d19e862d3d449ad2a0dfe6e9714724364736f6c63430008190033",
  "linkReferences": {},
  "deployedLinkReferences": {}
}