{
  "_format": "hh-sol-artifact-1",
  "contractName": "DepositManager",
  "sourceName": "src/L1/Mock/DepositManager.sol",
  "abi": [
    {
      "inputs": [],
      "name": "AccessControlBadConfirmation",
      "type": "error"
    },
    {
      "inputs": [
        {
          "internalType": "address",
          "name": "account",
          "type": "address"
        },
        {
          "internalType": "bytes32",
          "name": "neededRole",
          "type": "bytes32"
        }
      ],
      "name": "AccessControlUnauthorizedAccount",
      "type": "error"
    },
    {
      "inputs": [
        {
          "internalType": "address",
          "name": "target",
          "type": "address"
        }
      ],
      "name": "AddressEmptyCode",
      "type": "error"
    },
    {
      "inputs": [
        {
          "internalType": "address",
          "name": "account",
          "type": "address"
        }
      ],
      "name": "AddressInsufficientBalance",
      "type": "error"
    },
    {
      "inputs": [],
      "name": "FailedInnerCall",
      "type": "error"
    },
    {
      "inputs": [
        {
          "internalType": "address",
          "name": "token",
          "type": "address"
        }
      ],
      "name": "SafeERC20FailedOperation",
      "type": "error"
    },
    {
      "anonymous": false,
      "inputs": [
        {
          "indexed": true,
          "internalType": "address",
          "name": "layer2",
          "type": "address"
        },
        {
          "indexed": false,
          "internalType": "address",
          "name": "depositor",
          "type": "address"
        },
        {
          "indexed": false,
          "internalType": "uint256",
          "name": "amount",
          "type": "uint256"
        }
      ],
      "name": "Deposited",
      "type": "event"
    },
    {
      "anonymous": false,
      "inputs": [
        {
          "indexed": true,
          "internalType": "bytes32",
          "name": "role",
          "type": "bytes32"
        },
        {
          "indexed": true,
          "internalType": "bytes32",
          "name": "previousAdminRole",
          "type": "bytes32"
        },
        {
          "indexed": true,
          "internalType": "bytes32",
          "name": "newAdminRole",
          "type": "bytes32"
        }
      ],
      "name": "RoleAdminChanged",
      "type": "event"
    },
    {
      "anonymous": false,
      "inputs": [
        {
          "indexed": true,
          "internalType": "bytes32",
          "name": "role",
          "type": "bytes32"
        },
        {
          "indexed": true,
          "internalType": "address",
          "name": "account",
          "type": "address"
        },
        {
          "indexed": true,
          "internalType": "address",
          "name": "sender",
          "type": "address"
        }
      ],
      "name": "RoleGranted",
      "type": "event"
    },
    {
      "anonymous": false,
      "inputs": [
        {
          "indexed": true,
          "internalType": "bytes32",
          "name": "role",
          "type": "bytes32"
        },
        {
          "indexed": true,
          "internalType": "address",
          "name": "account",
          "type": "address"
        },
        {
          "indexed": true,
          "internalType": "address",
          "name": "sender",
          "type": "address"
        }
      ],
      "name": "RoleRevoked",
      "type": "event"
    },
    {
      "anonymous": false,
      "inputs": [
        {
          "indexed": true,
          "internalType": "address",
          "name": "layer2",
          "type": "address"
        },
        {
          "indexed": false,
          "internalType": "address",
          "name": "depositor",
          "type": "address"
        },
        {
          "indexed": false,
          "internalType": "uint256",
          "name": "amount",
          "type": "uint256"
        }
      ],
      "name": "WithdrawalProcessed",
      "type": "event"
    },
    {
      "anonymous": false,
      "inputs": [
        {
          "indexed": true,
          "internalType": "address",
          "name": "layer2",
          "type": "address"
        },
        {
          "indexed": false,
          "internalType": "address",
          "name": "depositor",
          "type": "address"
        },
        {
          "indexed": false,
          "internalType": "uint256",
          "name": "amount",
          "type": "uint256"
        }
      ],
      "name": "WithdrawalRequested",
      "type": "event"
    },
    {
      "inputs": [],
      "name": "DEFAULT_ADMIN_ROLE",
      "outputs": [
        {
          "internalType": "bytes32",
          "name": "",
          "type": "bytes32"
        }
      ],
      "stateMutability": "view",
      "type": "function"
    },
    {
      "inputs": [],
      "name": "MINTER_ROLE",
      "outputs": [
        {
          "internalType": "bytes32",
          "name": "",
          "type": "bytes32"
        }
      ],
      "stateMutability": "view",
      "type": "function"
    },
    {
      "inputs": [
        {
          "internalType": "address",
          "name": "layer2",
          "type": "address"
        },
        {
          "internalType": "address",
          "name": "account",
          "type": "address"
        }
      ],
      "name": "accStaked",
      "outputs": [
        {
          "internalType": "uint256",
          "name": "wtonAmount",
          "type": "uint256"
        }
      ],
      "stateMutability": "view",
      "type": "function"
    },
    {
      "inputs": [
        {
          "internalType": "address",
          "name": "account",
          "type": "address"
        }
      ],
      "name": "accStakedAccount",
      "outputs": [
        {
          "internalType": "uint256",
          "name": "wtonAmount",
          "type": "uint256"
        }
      ],
      "stateMutability": "view",
      "type": "function"
    },
    {
      "inputs": [
        {
          "internalType": "address",
          "name": "layer2",
          "type": "address"
        }
      ],
      "name": "accStakedLayer2",
      "outputs": [
        {
          "internalType": "uint256",
          "name": "wtonAmount",
          "type": "uint256"
        }
      ],
      "stateMutability": "view",
      "type": "function"
    },
    {
      "inputs": [
        {
          "internalType": "address",
          "name": "layer2",
          "type": "address"
        },
        {
          "internalType": "address",
          "name": "account",
          "type": "address"
        }
      ],
      "name": "accUnstaked",
      "outputs": [
        {
          "internalType": "uint256",
          "name": "wtonAmount",
          "type": "uint256"
        }
      ],
      "stateMutability": "view",
      "type": "function"
    },
    {
      "inputs": [
        {
          "internalType": "address",
          "name": "account",
          "type": "address"
        }
      ],
      "name": "accUnstakedAccount",
      "outputs": [
        {
          "internalType": "uint256",
          "name": "wtonAmount",
          "type": "uint256"
        }
      ],
      "stateMutability": "view",
      "type": "function"
    },
    {
      "inputs": [
        {
          "internalType": "address",
          "name": "layer2",
          "type": "address"
        }
      ],
      "name": "accUnstakedLayer2",
      "outputs": [
        {
          "internalType": "uint256",
          "name": "wtonAmount",
          "type": "uint256"
        }
      ],
      "stateMutability": "view",
      "type": "function"
    },
    {
      "inputs": [
        {
          "internalType": "address",
          "name": "account",
          "type": "address"
        }
      ],
      "name": "addAdmin",
      "outputs": [],
      "stateMutability": "nonpayable",
      "type": "function"
    },
    {
      "inputs": [
        {
          "internalType": "address",
          "name": "",
          "type": "address"
        }
      ],
      "name": "aliveImplementation",
      "outputs": [
        {
          "internalType": "bool",
          "name": "",
          "type": "bool"
        }
      ],
      "stateMutability": "view",
      "type": "function"
    },
    {
      "inputs": [
        {
          "internalType": "address",
          "name": "layer2",
          "type": "address"
        },
        {
          "internalType": "uint256",
          "name": "amount",
          "type": "uint256"
        }
      ],
      "name": "deposit",
      "outputs": [
        {
          "internalType": "bool",
          "name": "",
          "type": "bool"
        }
      ],
      "stateMutability": "nonpayable",
      "type": "function"
    },
    {
      "inputs": [
        {
          "internalType": "address",
          "name": "layer2",
          "type": "address"
        },
        {
          "internalType": "address[]",
          "name": "accounts",
          "type": "address[]"
        },
        {
          "internalType": "uint256[]",
          "name": "amounts",
          "type": "uint256[]"
        }
      ],
      "name": "deposit",
      "outputs": [
        {
          "internalType": "bool",
          "name": "",
          "type": "bool"
        }
      ],
      "stateMutability": "nonpayable",
      "type": "function"
    },
    {
      "inputs": [
        {
          "internalType": "address",
          "name": "layer2",
          "type": "address"
        },
        {
          "internalType": "address",
          "name": "account",
          "type": "address"
        },
        {
          "internalType": "uint256",
          "name": "amount",
          "type": "uint256"
        }
      ],
      "name": "deposit",
      "outputs": [
        {
          "internalType": "bool",
          "name": "",
          "type": "bool"
        }
      ],
      "stateMutability": "nonpayable",
      "type": "function"
    },
    {
      "inputs": [
        {
          "internalType": "address",
          "name": "layer2",
          "type": "address"
        }
      ],
      "name": "getDelayBlocks",
      "outputs": [
        {
          "internalType": "uint256",
          "name": "",
          "type": "uint256"
        }
      ],
      "stateMutability": "view",
      "type": "function"
    },
    {
      "inputs": [
        {
          "internalType": "bytes32",
          "name": "role",
          "type": "bytes32"
        }
      ],
      "name": "getRoleAdmin",
      "outputs": [
        {
          "internalType": "bytes32",
          "name": "",
          "type": "bytes32"
        }
      ],
      "stateMutability": "view",
      "type": "function"
    },
    {
      "inputs": [],
      "name": "globalWithdrawalDelay",
      "outputs": [
        {
          "internalType": "uint256",
          "name": "",
          "type": "uint256"
        }
      ],
      "stateMutability": "view",
      "type": "function"
    },
    {
      "inputs": [
        {
          "internalType": "bytes32",
          "name": "role",
          "type": "bytes32"
        },
        {
          "internalType": "address",
          "name": "account",
          "type": "address"
        }
      ],
      "name": "grantRole",
      "outputs": [],
      "stateMutability": "nonpayable",
      "type": "function"
    },
    {
      "inputs": [
        {
          "internalType": "bytes32",
          "name": "role",
          "type": "bytes32"
        },
        {
          "internalType": "address",
          "name": "account",
          "type": "address"
        }
      ],
      "name": "hasRole",
      "outputs": [
        {
          "internalType": "bool",
          "name": "",
          "type": "bool"
        }
      ],
      "stateMutability": "view",
      "type": "function"
    },
    {
      "inputs": [
        {
          "internalType": "address",
          "name": "wton_",
          "type": "address"
        },
        {
          "internalType": "address",
          "name": "registry_",
          "type": "address"
        },
        {
          "internalType": "address",
          "name": "seigManager_",
          "type": "address"
        },
        {
          "internalType": "uint256",
          "name": "globalWithdrawalDelay_",
          "type": "uint256"
        }
      ],
      "name": "initialize",
      "outputs": [],
      "stateMutability": "nonpayable",
      "type": "function"
    },
    {
      "inputs": [
        {
          "internalType": "address",
          "name": "account",
          "type": "address"
        }
      ],
      "name": "isAdmin",
      "outputs": [
        {
          "internalType": "bool",
          "name": "",
          "type": "bool"
        }
      ],
      "stateMutability": "view",
      "type": "function"
    },
    {
      "inputs": [],
      "name": "isOwner",
      "outputs": [
        {
          "internalType": "bool",
          "name": "",
          "type": "bool"
        }
      ],
      "stateMutability": "view",
      "type": "function"
    },
    {
      "inputs": [
        {
          "internalType": "address",
          "name": "layer2",
          "type": "address"
        },
        {
          "internalType": "address",
          "name": "account",
          "type": "address"
        }
      ],
      "name": "numPendingRequests",
      "outputs": [
        {
          "internalType": "uint256",
          "name": "",
          "type": "uint256"
        }
      ],
      "stateMutability": "view",
      "type": "function"
    },
    {
      "inputs": [
        {
          "internalType": "address",
          "name": "layer2",
          "type": "address"
        },
        {
          "internalType": "address",
          "name": "account",
          "type": "address"
        }
      ],
      "name": "numRequests",
      "outputs": [
        {
          "internalType": "uint256",
          "name": "",
          "type": "uint256"
        }
      ],
      "stateMutability": "view",
      "type": "function"
    },
    {
      "inputs": [],
      "name": "oldDepositManager",
      "outputs": [
        {
          "internalType": "address",
          "name": "",
          "type": "address"
        }
      ],
      "stateMutability": "view",
      "type": "function"
    },
    {
      "inputs": [
        {
          "internalType": "address",
          "name": "owner",
          "type": "address"
        },
        {
          "internalType": "address",
          "name": "",
          "type": "address"
        },
        {
          "internalType": "uint256",
          "name": "amount",
          "type": "uint256"
        },
        {
          "internalType": "bytes",
          "name": "data",
          "type": "bytes"
        }
      ],
      "name": "onApprove",
      "outputs": [
        {
          "internalType": "bool",
          "name": "",
          "type": "bool"
        }
      ],
      "stateMutability": "nonpayable",
      "type": "function"
    },
    {
      "inputs": [],
      "name": "pauseProxy",
      "outputs": [
        {
          "internalType": "bool",
          "name": "",
          "type": "bool"
        }
      ],
      "stateMutability": "view",
      "type": "function"
    },
    {
      "inputs": [
        {
          "internalType": "address",
          "name": "layer2",
          "type": "address"
        },
        {
          "internalType": "address",
          "name": "account",
          "type": "address"
        }
      ],
      "name": "pendingUnstaked",
      "outputs": [
        {
          "internalType": "uint256",
          "name": "wtonAmount",
          "type": "uint256"
        }
      ],
      "stateMutability": "view",
      "type": "function"
    },
    {
      "inputs": [
        {
          "internalType": "address",
          "name": "account",
          "type": "address"
        }
      ],
      "name": "pendingUnstakedAccount",
      "outputs": [
        {
          "internalType": "uint256",
          "name": "wtonAmount",
          "type": "uint256"
        }
      ],
      "stateMutability": "view",
      "type": "function"
    },
    {
      "inputs": [
        {
          "internalType": "address",
          "name": "layer2",
          "type": "address"
        }
      ],
      "name": "pendingUnstakedLayer2",
      "outputs": [
        {
          "internalType": "uint256",
          "name": "wtonAmount",
          "type": "uint256"
        }
      ],
      "stateMutability": "view",
      "type": "function"
    },
    {
      "inputs": [
        {
          "internalType": "address",
          "name": "layer2",
          "type": "address"
        },
        {
          "internalType": "bool",
          "name": "receiveTON",
          "type": "bool"
        }
      ],
      "name": "processRequest",
      "outputs": [
        {
          "internalType": "bool",
          "name": "",
          "type": "bool"
        }
      ],
      "stateMutability": "nonpayable",
      "type": "function"
    },
    {
      "inputs": [
        {
          "internalType": "address",
          "name": "layer2",
          "type": "address"
        },
        {
          "internalType": "uint256",
          "name": "n",
          "type": "uint256"
        },
        {
          "internalType": "bool",
          "name": "receiveTON",
          "type": "bool"
        }
      ],
      "name": "processRequests",
      "outputs": [
        {
          "internalType": "bool",
          "name": "",
          "type": "bool"
        }
      ],
      "stateMutability": "nonpayable",
      "type": "function"
    },
    {
      "inputs": [
        {
          "internalType": "uint256",
          "name": "",
          "type": "uint256"
        }
      ],
      "name": "proxyImplementation",
      "outputs": [
        {
          "internalType": "address",
          "name": "",
          "type": "address"
        }
      ],
      "stateMutability": "view",
      "type": "function"
    },
    {
      "inputs": [
        {
          "internalType": "address",
          "name": "layer2",
          "type": "address"
        }
      ],
      "name": "redeposit",
      "outputs": [
        {
          "internalType": "bool",
          "name": "",
          "type": "bool"
        }
      ],
      "stateMutability": "nonpayable",
      "type": "function"
    },
    {
      "inputs": [
        {
          "internalType": "address",
          "name": "layer2",
          "type": "address"
        },
        {
          "internalType": "uint256",
          "name": "n",
          "type": "uint256"
        }
      ],
      "name": "redepositMulti",
      "outputs": [
        {
          "internalType": "bool",
          "name": "",
          "type": "bool"
        }
      ],
      "stateMutability": "nonpayable",
      "type": "function"
    },
    {
      "inputs": [],
      "name": "registry",
      "outputs": [
        {
          "internalType": "address",
          "name": "",
          "type": "address"
        }
      ],
      "stateMutability": "view",
      "type": "function"
    },
    {
      "inputs": [
        {
          "internalType": "address",
          "name": "account",
          "type": "address"
        }
      ],
      "name": "removeAdmin",
      "outputs": [],
      "stateMutability": "nonpayable",
      "type": "function"
    },
    {
      "inputs": [],
      "name": "renounceOwnership",
      "outputs": [],
      "stateMutability": "nonpayable",
      "type": "function"
    },
    {
      "inputs": [
        {
          "internalType": "bytes32",
          "name": "role",
          "type": "bytes32"
        },
        {
          "internalType": "address",
          "name": "callerConfirmation",
          "type": "address"
        }
      ],
      "name": "renounceRole",
      "outputs": [],
      "stateMutability": "nonpayable",
      "type": "function"
    },
    {
      "inputs": [
        {
          "internalType": "address",
          "name": "layer2",
          "type": "address"
        },
        {
          "internalType": "uint256",
          "name": "amount",
          "type": "uint256"
        }
      ],
      "name": "requestWithdrawal",
      "outputs": [
        {
          "internalType": "bool",
          "name": "",
          "type": "bool"
        }
      ],
      "stateMutability": "nonpayable",
      "type": "function"
    },
    {
      "inputs": [
        {
          "internalType": "address",
          "name": "layer2",
          "type": "address"
        }
      ],
      "name": "requestWithdrawalAll",
      "outputs": [
        {
          "internalType": "bool",
          "name": "",
          "type": "bool"
        }
      ],
      "stateMutability": "nonpayable",
      "type": "function"
    },
    {
      "inputs": [
        {
          "internalType": "bytes32",
          "name": "role",
          "type": "bytes32"
        },
        {
          "internalType": "address",
          "name": "account",
          "type": "address"
        }
      ],
      "name": "revokeRole",
      "outputs": [],
      "stateMutability": "nonpayable",
      "type": "function"
    },
    {
      "inputs": [],
      "name": "seigManager",
      "outputs": [
        {
          "internalType": "address",
          "name": "",
          "type": "address"
        }
      ],
      "stateMutability": "view",
      "type": "function"
    },
    {
      "inputs": [
        {
          "internalType": "bytes4",
          "name": "",
          "type": "bytes4"
        }
      ],
      "name": "selectorImplementation",
      "outputs": [
        {
          "internalType": "address",
          "name": "",
          "type": "address"
        }
      ],
      "stateMutability": "view",
      "type": "function"
    },
    {
      "inputs": [
        {
          "internalType": "uint256",
          "name": "globalWithdrawalDelay_",
          "type": "uint256"
        }
      ],
      "name": "setGlobalWithdrawalDelay",
      "outputs": [],
      "stateMutability": "nonpayable",
      "type": "function"
    },
    {
      "inputs": [
        {
          "internalType": "address",
          "name": "seigManager_",
          "type": "address"
        }
      ],
      "name": "setSeigManager",
      "outputs": [],
      "stateMutability": "nonpayable",
      "type": "function"
    },
    {
      "inputs": [
        {
          "internalType": "address",
          "name": "l2chain",
          "type": "address"
        },
        {
          "internalType": "uint256",
          "name": "withdrawalDelay_",
          "type": "uint256"
        }
      ],
      "name": "setWithdrawalDelay",
      "outputs": [],
      "stateMutability": "nonpayable",
      "type": "function"
    },
    {
      "inputs": [
        {
          "internalType": "address",
          "name": "layer2",
          "type": "address"
        },
        {
          "internalType": "address",
          "name": "recipient",
          "type": "address"
        },
        {
          "internalType": "uint256",
          "name": "amount",
          "type": "uint256"
        }
      ],
      "name": "slash",
      "outputs": [
        {
          "internalType": "bool",
          "name": "",
          "type": "bool"
        }
      ],
      "stateMutability": "nonpayable",
      "type": "function"
    },
    {
      "inputs": [
        {
          "internalType": "bytes4",
          "name": "interfaceId",
          "type": "bytes4"
        }
      ],
      "name": "supportsInterface",
      "outputs": [
        {
          "internalType": "bool",
          "name": "",
          "type": "bool"
        }
      ],
      "stateMutability": "view",
      "type": "function"
    },
    {
      "inputs": [
        {
          "internalType": "address",
          "name": "newAdmin",
          "type": "address"
        }
      ],
      "name": "transferAdmin",
      "outputs": [],
      "stateMutability": "nonpayable",
      "type": "function"
    },
    {
      "inputs": [
        {
          "internalType": "address",
          "name": "newAdmin",
          "type": "address"
        }
      ],
      "name": "transferOwnership",
      "outputs": [],
      "stateMutability": "nonpayable",
      "type": "function"
    },
    {
      "inputs": [
        {
          "internalType": "address",
          "name": "",
          "type": "address"
        }
      ],
      "name": "withdrawalDelay",
      "outputs": [
        {
          "internalType": "uint256",
          "name": "",
          "type": "uint256"
        }
      ],
      "stateMutability": "view",
      "type": "function"
    },
    {
      "inputs": [
        {
          "internalType": "address",
          "name": "layer2",
          "type": "address"
        },
        {
          "internalType": "address",
          "name": "account",
          "type": "address"
        },
        {
          "internalType": "uint256",
          "name": "index",
          "type": "uint256"
        }
      ],
      "name": "withdrawalRequest",
      "outputs": [
        {
          "internalType": "uint128",
          "name": "withdrawableBlockNumber",
          "type": "uint128"
        },
        {
          "internalType": "uint128",
          "name": "amount",
          "type": "uint128"
        },
        {
          "internalType": "bool",
          "name": "processed",
          "type": "bool"
        }
      ],
      "stateMutability": "view",
      "type": "function"
    },
    {
      "inputs": [
        {
          "internalType": "address",
          "name": "layer2",
          "type": "address"
        },
        {
          "internalType": "address",
          "name": "account",
          "type": "address"
        }
      ],
      "name": "withdrawalRequestIndex",
      "outputs": [
        {
          "internalType": "uint256",
          "name": "index",
          "type": "uint256"
        }
      ],
      "stateMutability": "view",
      "type": "function"
    },
    {
      "inputs": [],
      "name": "wton",
      "outputs": [
        {
          "internalType": "address",
          "name": "",
          "type": "address"
        }
      ],
      "stateMutability": "view",
      "type": "function"
    }
  ],
  "bytecode": "0x60808060405234601557612904908161001b8239f35b600080fdfe6080604052600436101561001257600080fd5b60003560e01c806255f5c114610376578063010ca3901461037157806301ffc9a71461036c5780631785f53c146103675780632153c23914610362578063248a9ca31461035d57806324d7806c146103585780632638fdf5146103535780632d2fab941461034e5780632f2ff15d1461034957806336568abe146103445780634273ca161461033f578063445e83b91461033a57806347e7ef24146103355780634ce970361461033057806350d2a2761461032b578063550d01a314610326578063562fa0df146103215780635c0df46b1461031c57806363a8fd89146103175780636b2160b7146103125780636ec3d5ae1461030d5780636fb7f558146103085780637048027514610303578063715018a6146102fe57806375829def146102f95780637657f20a146102f45780637b103999146102ef5780638340f549146102ea5780638af4a948146102e55780638d62d949146102e05780638f32d59b146102db5780638fbef2d0146102d657806391d14854146102d15780639d91b87b146102cc578063a0b2a913146102c7578063a217fddf146102c2578063a3543989146102bd578063a79da341146102b8578063b5f19db2146102b3578063b8bee628146102ae578063b911135f146102a9578063c20a44c6146102a4578063c647f26e1461029f578063cf756fdf1461029a578063d285f78c14610295578063d539139314610290578063d547741f1461028b578063da95ebf714610286578063dc5a709f14610281578063e74f82391461027c578063f2fde38b14610277578063f762eb57146102725763fb0713b11461026d57600080fd5b6118ef565b6118bf565b611841565b611825565b611772565b61173d565b6116fb565b6116c0565b611683565b6115bd565b61158d565b61154f565b611511565b61133f565b611318565b6112ff565b6112c2565b6112a6565b611269565b611239565b611201565b61116e565b611143565b61111a565b6110dd565b6110c4565b61106f565b611030565b610f47565b610f0c565b610ea2565b610e79565b610e5b565b610db3565b610d90565b610d6f565b610cae565b610b9a565b610b62565b610b25565b6109b3565b61070a565b610682565b610637565b6105f5565b6105c5565b61058c565b610522565b6104f3565b6104ca565b610476565b61042e565b6103ce565b610391565b6001600160a01b0381160361038c57565b600080fd5b3461038c57602036600319011261038c576004356103ae8161037b565b60018060a01b0316600052600b6020526020604060002054604051908152f35b3461038c57602036600319011261038c576004356103eb8161037b565b60018060a01b0316600052600a6020526020604060002054604051908152f35b602090600319011261038c576004356001600160e01b03198116810361038c5790565b3461038c5760206001600160e01b03196104473661040b565b16637965db0b60e01b8114908115610465575b506040519015158152f35b6301ffc9a760e01b1490503861045a565b3461038c57602036600319011261038c576104c86004356104968161037b565b6000805260046020526104c360ff6104bc336000805160206128af833981519152610b0e565b541661194f565b6119e2565b005b3461038c57600036600319011261038c576008546040516001600160a01b039091168152602090f35b3461038c57602036600319011261038c5760043560005260046020526020600160406000200154604051908152f35b3461038c57602036600319011261038c57602060ff6105586004356105468161037b565b60008052600484526040600020610b0e565b54166040519015158152f35b604090600319011261038c5760043561057c8161037b565b906024356105898161037b565b90565b3461038c5760206105bc61059f36610564565b6001600160a01b039091166000908152600c845260409020610b0e565b54604051908152f35b3461038c5760206105bc6105d836610564565b6001600160a01b0390911660009081526009845260409020610b0e565b3461038c57604036600319011261038c576104c86024356004356106188261037b565b806000526004602052610632600160406000200154611cc9565b611d89565b3461038c57604036600319011261038c576024356106548161037b565b336001600160a01b03821603610670576104c890600435611e81565b60405163334bd91960e11b8152600490fd5b3461038c57608036600319011261038c5760043561069f8161037b565b6106aa60243561037b565b6064356001600160401b0380821161038c573660238301121561038c57816004013590811161038c57366024828401011161038c576107069260246106f493019060443590611a1d565b60405190151581529081906020820190565b0390f35b3461038c57604036600319011261038c576004356107278161037b565b60243560018060a01b03821680600052601360205261074b60406000203390610b0e565b549160009261076d6107653361076088610a3e565b610b0e565b5415156120fd565b61078f8261078883610782336107608b610a3e565b54611c00565b1015612146565b6107998282611f5c565b905b818110610937576108dc6020868887876107c2846107bc33610760876109f0565b54611f5c565b6107cf33610760866109f0565b556107dd846107bc85610a0a565b6107e684610a0a565b556107f4846107bc33610a24565b6107fd33610a24565b5561080f846107823361076087610a58565b61081c3361076086610a58565b5561082a8461078285610a72565b61083384610a72565b556108418461078233610a8c565b61084a33610a8c565b5561086361085b3361076086610aa6565b918254611f5c565b90557f8752a472e571a816aea92eec8dae9baf628e840f4929fbcc2d155e6233ff68a760405180610895863383611f69565b0390a26007546108bb906108af906001600160a01b031681565b6001600160a01b031690565b906000604051809681958294630412c6d560e41b8452339060048501611f99565b03925af18015610932576108f891600091610903575b50611a16565b602060405160018152f35b610925915060203d60201161092b575b61091d8183610bf2565b810190611f84565b826108f2565b503d610913565b611c73565b806109ad61099f610956600194610951336107608d610a3e565b611c7f565b5084610972610966835460801c90565b6001600160801b031690565b91019861098f61098a6109868c5460ff1690565b1590565b6121ac565b61099a821515612212565b611f5c565b875460ff1916600117909755565b0161079b565b3461038c57604036600319011261038c576109e06004356109d38161037b565b3390602435903390611fbb565b1561038c57602060405160018152f35b6001600160a01b0316600090815260096020526040902090565b6001600160a01b03166000908152600a6020526040902090565b6001600160a01b03166000908152600b6020526040902090565b6001600160a01b0316600090815260126020526040902090565b6001600160a01b03166000908152600c6020526040902090565b6001600160a01b03166000908152600d6020526040902090565b6001600160a01b03166000908152600e6020526040902090565b6001600160a01b0316600090815260136020526040902090565b6001600160a01b03166000908152600f6020526040902090565b6001600160a01b0316600090815260106020526040902090565b6001600160a01b0316600090815260116020526040902090565b9060018060a01b0316600052602052604060002090565b3461038c57602036600319011261038c57600435610b428161037b565b60018060a01b031660005260156020526020604060002054604051908152f35b3461038c576001600160e01b0319610b793661040b565b166000526003602052602060018060a01b0360406000205416604051908152f35b3461038c57602036600319011261038c57600435610bb78161037b565b60018060a01b03166000526002602052602060ff604060002054166040519015158152f35b634e487b7160e01b600052604160045260246000fd5b90601f801991011681019081106001600160401b03821117610c1357604052565b610bdc565b60405190606082018281106001600160401b03821117610c1357604052565b6001600160401b038111610c135760051b60200190565b9080601f8301121561038c576020908235610c6881610c37565b93610c766040519586610bf2565b81855260208086019260051b82010192831161038c57602001905b828210610c9f575050505090565b81358152908301908301610c91565b3461038c57606036600319011261038c57600435610ccb8161037b565b602435906001600160401b039081831161038c573660238401121561038c578260040135610cf881610c37565b93610d066040519586610bf2565b8185526020916024602087019160051b8301019136831161038c57602401905b828210610d56575050505060443591821161038c5761070692610d506106f4933690600401610c4e565b91611b4e565b8380918335610d648161037b565b815201910190610d26565b3461038c576020610d88610d8236610564565b90611c12565b604051908152f35b3461038c57600036600319011261038c57602060ff600054166040519015158152f35b3461038c57602036600319011261038c57600435610dd08161037b565b6007546040516367265c3b60e11b81526001600160a01b038381166004830152336024830152909160209183916044918391165afa91821561093257610706926106f492600091610e2c575b50610e2682611c9b565b91612348565b610e4e915060203d602011610e54575b610e468183610bf2565b810190611c64565b38610e1c565b503d610e3c565b3461038c57600036600319011261038c576020601454604051908152f35b3461038c57600036600319011261038c576007546040516001600160a01b039091168152602090f35b3461038c57602036600319011261038c57600435610ebf8161037b565b6000808052600460205290610f0890610eeb60ff6104bc336000805160206128af833981519152610b0e565b8280526004602052610f036001604085200154611cc9565b611d0a565b5080f35b3461038c57600080600319360112610f44578080526004602052610f3860ff6104bc3360408520610b0e565b610f41336119e2565b80f35b80fd5b3461038c57602036600319011261038c57600435610f648161037b565b600080526004602052610f8a60ff6104bc336000805160206128af833981519152610b0e565b6001600160a01b0381168015610ff0573314610fb257610fa9906119a6565b6104c8336119e2565b60405162461bcd60e51b815260206004820152601660248201527520b1b1b2b9b9b4b136329d1039b0b6b29030b236b4b760511b6044820152606490fd5b60405162461bcd60e51b815260206004820152601860248201527741636365737369626c653a207a65726f206164647265737360401b6044820152606490fd5b3461038c57602036600319011261038c5760043561104d8161037b565b600780546001600160a01b0319166001600160a01b0392909216919091179055005b3461038c57600036600319011261038c576006546040516001600160a01b039091168152602090f35b606090600319011261038c576004356110b08161037b565b906024356110bd8161037b565b9060443590565b3461038c576109e06110d536611098565b903392611fbb565b3461038c57602036600319011261038c576004356110fa8161037b565b60018060a01b031660005260106020526020604060002054604051908152f35b3461038c57600036600319011261038c576005546040516001600160a01b039091168152602090f35b3461038c57600080600319360112610f445760ff610558828060209452600484526040339120610b0e565b3461038c5760606111e8600160ff61118536611098565b9391828060a09793971b031693610951600096868852601260205260406111b28461095184848d20610b0e565b50868060801b039054169888815260126020526111d58561095185858520610b0e565b505460801c988152601260205220610b0e565b5001541690604051928352602083015215156040820152f35b3461038c57604036600319011261038c57602060ff6105586024356112258161037b565b600435600052600484526040600020610b0e565b3461038c5760206105bc61124c36610564565b6001600160a01b039091166000908152600f845260409020610b0e565b3461038c57602036600319011261038c576004356112868161037b565b60018060a01b0316600052600e6020526020604060002054604051908152f35b3461038c57600036600319011261038c57602060405160008152f35b3461038c57602036600319011261038c576004356112df8161037b565b60018060a01b031660005260116020526020604060002054604051908152f35b3461038c57602036600319011261038c57600435601455005b3461038c57602036600319011261038c576020610d8860043561133a8161037b565b611c9b565b3461038c5760208060031936011261038c5760043561135d8161037b565b8160018060a01b038216806000526013825261137e60406000203390610b0e565b54926000916113936107653361076085610a3e565b60016113ab6001610788886107823361076089610a3e565b6113b486611f4e565b8087106114b457505061147394506113d3836107bc33610760866109f0565b6113e033610760856109f0565b556113ee836107bc84610a0a565b6113f783610a0a565b55611405836107bc33610a24565b61140e33610a24565b55611420836107823361076086610a58565b61142d3361076085610a58565b5561143b8361078284610a72565b61144483610a72565b556114528361078233610a8c565b61145b33610a8c565b556114693361076084610aa6565b6108638154611f4e565b03925af180156109325761148e916000916114975750611a16565b60405160018152f35b6114ae9150833d851161092b5761091d8183610bf2565b386108f2565b919395819395506115046114f66114d283610951336107608c610a3e565b50846114e2610966835460801c90565b91019961098f61098a6109868d5460ff1690565b885460ff1916600117909855565b01949290918694926113b4565b3461038c57602036600319011261038c576004356000526001602052602060018060a01b0360406000205416604051908152f35b8015150361038c57565b3461038c57604036600319011261038c5760206115836004356115718161037b565b6024359061157e82611545565b61252f565b6040519015158152f35b3461038c5760206105bc6115a036610564565b6001600160a01b0390911660009081526013845260409020610b0e565b3461038c57608036600319011261038c576004356115da8161037b565b602435906115e78261037b565b604435906115f48261037b565b6005546001600160a01b03939084811661164857939091166001600160a01b031993841617600555600680546001600160a01b039283169085161790556007805490931691161790556104c8606435601455565b60405162461bcd60e51b8152602060048201526013602482015272185b1c9958591e481a5b9a5d1a585b1a5e9959606a1b6044820152606490fd5b3461038c57602036600319011261038c576004356116a08161037b565b60018060a01b0316600052600d6020526020604060002054604051908152f35b3461038c57600036600319011261038c5760206040517ff0887ba65ee2024ea881d91b74c2450ef19e1557f03bed3ea9f16b037cbe2dc98152f35b3461038c57604036600319011261038c576104c860243560043561171e8261037b565b806000526004602052611738600160406000200154611cc9565b611e81565b3461038c57604036600319011261038c57602061158360043561175f8161037b565b61176881611c9b565b9060243590612348565b3461038c57604036600319011261038c5760043561178f8161037b565b60405163570ca73560e01b81526001600160a01b036020826004818685165afa8015610932576000906117e8575b6117ca9250163314611a16565b6001600160a01b031660009081526015602052604090206024359055005b506020823d60201161181d575b8161180260209383610bf2565b8101031261038c576117ca91516118188161037b565b6117bd565b3d91506117f5565b3461038c5761183336611098565b505050602060405160008152f35b3461038c57602036600319011261038c5760043561185e8161037b565b600080805260046020529061188660ff6104bc336000805160206128af833981519152610b0e565b81805260046020526118a060ff6104bc3360408620610b0e565b6001600160a01b0381168015610ff0573314610fb257610f38906119a6565b3461038c5760206105bc6118d236610564565b6001600160a01b0390911660009081526012845260409020610b0e565b3461038c57606036600319011261038c5760043561190c8161037b565b6024356044359161191c83611545565b60009260005b83811061193457602060405160018152f35b61193e828461252f565b1561194b57600101611922565b8480fd5b1561195657565b60405162461bcd60e51b815260206004820152602260248201527f41636365737369626c653a2043616c6c6572206973206e6f7420616e2061646d60448201526134b760f11b6064820152608490fd5b6000805260046020527f17ef568e3e12ab5b9c7254a8d58478811de00f9e6eb34345acd53bf8fd09d3ed546119df9190610f0390611cc9565b50565b336001600160a01b03821603610670576119df90611e04565b6001600160401b038111610c1357601f01601f191660200190565b1561038c57565b6005549293929091906001600160a01b03163303611a8657611a3e836119fb565b92611a4c6040519485610bf2565b808452368186011161038c57611a778460006020848795611a819a83611a7c9b013783010152611ef4565b611fbb565b611a16565b600190565b60405162461bcd60e51b815260206004820152603160248201527f4465706f7369744d616e616765723a206f6e6c79206163636570742057544f4e60448201527020617070726f76652063616c6c6261636b60781b6064820152608490fd5b15611aec57565b60405162461bcd60e51b815260206004820152600b60248201526a0eee4dedcce40d8cadce8d60ab1b6044820152606490fd5b634e487b7160e01b600052603260045260246000fd5b8051821015611b495760209160051b010190565b611b1f565b90929192805115611bb857611b668151855114611ae5565b60005b8151811015611baf5780611ba9611a7c611b95611b8860019587611b35565b516001600160a01b031690565b3390611ba1858b611b35565b519088611fbb565b01611b69565b50600193505050565b60405162461bcd60e51b815260206004820152600a6024820152691b9bc81858d8dbdd5b9d60b21b6044820152606490fd5b634e487b7160e01b600052601160045260246000fd5b91908203918211611c0d57565b611bea565b611c4a9060018060a01b031691826000526012602052611c36816040600020610b0e565b549260005260136020526040600020610b0e565b548115611c5d578103908111611c0d5790565b5050600090565b9081602091031261038c575190565b6040513d6000823e3d90fd5b8054821015611b495760005260206000209060011b0190600090565b6014546001600160a01b0390911660009081526015602052604090205480821115611cc4575090565b905090565b80600052600460205260ff611ce2336040600020610b0e565b541615611cec5750565b6044906040519063e2517d3f60e01b82523360048301526024820152fd5b6000808052600460205260ff611d2e836000805160206128af833981519152610b0e565b5416611cc4578080526004602052611d498260408320610b0e565b805460ff1916600117905533916001600160a01b0316907f2f8788117e7eff1d82e926ec794901d17c78024a50270940304540a733656f0d8180a4600190565b600090808252600460205260ff611da38460408520610b0e565b5416611dfe578082526004602052611dbe8360408420610b0e565b805460ff1916600117905533926001600160a01b0316917f2f8788117e7eff1d82e926ec794901d17c78024a50270940304540a733656f0d9080a4600190565b50905090565b6000808052600460205260ff611e28836000805160206128af833981519152610b0e565b541615611cc4578080526004602052611e448260408320610b0e565b805460ff1916905533916001600160a01b0316907ff6391f5c32d9c69d2a47ea670b442974b53935d1edc7fd64eb21e047a839171b8180a4600190565b600090808252600460205260ff611e9b8460408520610b0e565b541615611dfe578082526004602052611eb78360408420610b0e565b805460ff1916905533926001600160a01b0316917ff6391f5c32d9c69d2a47ea670b442974b53935d1edc7fd64eb21e047a839171b9080a4600190565b602081510361038c576020015190565b15611f0b57565b60405162461bcd60e51b815260206004820152601b60248201527a7a65726f20616d6f756e74206f72207a65726f206164647265737360281b6044820152606490fd5b9060018201809211611c0d57565b91908201809211611c0d57565b6001600160a01b039091168152602081019190915260400190565b9081602091031261038c575161058981611545565b6001600160a01b03918216815291166020820152604081019190915260600190565b6120c09360209392906001600160a01b03906120519085908385161515806120f4575b611fe790611f04565b611ff8826107bc876107608a6109f0565b61200586610760896109f0565b55612013826107bc88610a0a565b61201c87610a0a565b5561202a826107bc87610a24565b61203386610a24565b55600554612049906001600160a01b03166108af565b90309161273e565b7f8752a472e571a816aea92eec8dae9baf628e840f4929fbcc2d155e6233ff68a76040519184169180612085878683611f69565b0390a26007546000906120a2906108af906001600160a01b031681565b9260405196879586948593630412c6d560e41b855260048501611f99565b03925af1801561093257611a81916000916120db5750611a16565b6114ae915060203d60201161092b5761091d8183610bf2565b50811515611fde565b1561210457565b60405162461bcd60e51b815260206004820152601a60248201527911195c1bdcda5d13585b9859d95c8e881b9bc81c995c5d595cdd60321b6044820152606490fd5b1561214d57565b60405162461bcd60e51b815260206004820152603160248201527f4465706f7369744d616e616765723a206e2065786365656473206e756d206f666044820152702070656e64696e6720726571756573747360781b6064820152608490fd5b156121b357565b60405162461bcd60e51b815260206004820152603160248201527f4465706f7369744d616e616765723a2070656e64696e67207265717565737420604482015270185b1c9958591e481c1c9bd8d95cdcd959607a1b6064820152608490fd5b1561221957565b60405162461bcd60e51b815260206004820152602860248201527f4465706f7369744d616e616765723a206e6f2076616c69642070656e64696e67604482015267081c995c5d595cdd60c21b6064820152608490fd5b1561227657565b60405162461bcd60e51b815260206004820152602760248201527f4465706f7369744d616e616765723a20616d6f756e74206d757374206e6f74206044820152666265207a65726f60c81b6064820152608490fd5b8054600160401b811015610c13576122e891600182018155611c7f565b612332578151602083015160801b6001600160801b0319166001600160801b039091161781556040909101516001909101805460ff9215159290921660ff19909216919091179055565b634e487b7160e01b600052600060045260246000fd5b906020916123b36120c09461235e84151561226f565b61237e61096661237761237086610a3e565b3390610b0e565b9243611f5c565b9061239961238a610c18565b6001600160801b039093168352565b6001600160801b03851682870152600060408301526122cb565b6123c4826107bc3361076085610a58565b6123d13361076084610a58565b556123df826107bc83610a72565b6123e882610a72565b556123f6826107bc33610a8c565b6123ff33610a8c565b556040516001600160a01b038216907f04c56a409d50971e45c5a2d96e5d557d2b0f1d66d40f14b141e4c958b0f39b32908061243c863383611f69565b0390a2600754612456906108af906001600160a01b031681565b906000604051809681958294637c287fd560e11b8452339060048501611f99565b1561247e57565b60405162461bcd60e51b815260206004820152602560248201527f4465706f7369744d616e616765723a206e6f207265717565737420746f2070726044820152646f6365737360d81b6064820152608490fd5b156124d857565b60405162461bcd60e51b815260206004820152602960248201527f4465706f7369744d616e616765723a207761697420666f72207769746864726160448201526877616c2064656c617960b81b6064820152608490fd5b6125b861096661256a61254461237085610aa6565b5461255d816125563361076089610a3e565b5411612477565b6109513361076087610a3e565b50805461258490436001600160801b0390911611156124d1565b61259860018201600160ff19825416179055565b6125a53361076086610aa6565b6125af8154611f4e565b90555460801c90565b916125ca836107823361076086610a58565b6125d73361076085610a58565b556125e58361078284610a72565b6125ee83610a72565b556125fc8361078233610a8c565b61260533610a8c565b55612617836107bc3361076086610ac0565b6126243361076085610ac0565b55612632836107bc84610ada565b61263b83610ada565b55612649836107bc33610af4565b61265233610af4565b55156126f65760055461266f906108af906001600160a01b031681565b906020604051809363e3b99e8560e01b825281600081612693893360048401611f69565b03925af1908115610932576126d46126ee927fcd1fce47d5ad89dd70b04c75bd6bdb8114d4d4ff7b4393f9fb5937e733ba9582946000916120db5750611a16565b6040516001600160a01b0390911693909182913383611f69565b0390a2600190565b6126ee7fcd1fce47d5ad89dd70b04c75bd6bdb8114d4d4ff7b4393f9fb5937e733ba95829161273984336127346108af60055460018060a01b031690565b61277b565b6126d4565b9061277490612766612779956040519586936323b872dd60e01b602086015260248501611f99565b03601f198101845283610bf2565b6127a2565b565b612774612779939261276660405194859263a9059cbb60e01b602085015260248401611f69565b6000806127ec9260018060a01b03169360208151910182865af13d15612843573d906127cd826119fb565b916127db6040519384610bf2565b82523d6000602084013e5b8361284b565b8051908115159182612825575b50506128025750565b604051635274afe760e01b81526001600160a01b03919091166004820152602490fd5b61283c925090602080610986938301019101611f84565b38806127f9565b6060906127e6565b90612872575080511561286057805190602001fd5b604051630a12f52160e11b8152600490fd5b815115806128a5575b612883575090565b604051639996b31560e01b81526001600160a01b039091166004820152602490fd5b50803b1561287b56fe17ef568e3e12ab5b9c7254a8d58478811de00f9e6eb34345acd53bf8fd09d3eca26469706673582212202b5b902492e5f6be21320857658276707ffa46f58fd3b4219901aa256afadeb964736f6c63430008190033",
  "linkReferences": {},
  "deployedLinkReferences": {}
}