{
  "_format": "hh-sol-artifact-1",
  "contractName": "DepositManager",
  "sourceName": "src/L1/Mock/DepositManager.sol",
  "abi": [
    {
      "inputs": [],
      "name": "AccessControlBadConfirmation",
      "type": "error"
    },
    {
      "inputs": [
        {
          "internalType": "address",
          "name": "account",
          "type": "address"
        },
        {
          "internalType": "bytes32",
          "name": "neededRole",
          "type": "bytes32"
        }
      ],
      "name": "AccessControlUnauthorizedAccount",
      "type": "error"
    },
    {
      "inputs": [
        {
          "internalType": "address",
          "name": "target",
          "type": "address"
        }
      ],
      "name": "AddressEmptyCode",
      "type": "error"
    },
    {
      "inputs": [
        {
          "internalType": "address",
          "name": "account",
          "type": "address"
        }
      ],
      "name": "AddressInsufficientBalance",
      "type": "error"
    },
    {
      "inputs": [],
      "name": "FailedInnerCall",
      "type": "error"
    },
    {
      "inputs": [
        {
          "internalType": "address",
          "name": "token",
          "type": "address"
        }
      ],
      "name": "SafeERC20FailedOperation",
      "type": "error"
    },
    {
      "anonymous": false,
      "inputs": [
        {
          "indexed": true,
          "internalType": "address",
          "name": "layer2",
          "type": "address"
        },
        {
          "indexed": false,
          "internalType": "address",
          "name": "depositor",
          "type": "address"
        },
        {
          "indexed": false,
          "internalType": "uint256",
          "name": "amount",
          "type": "uint256"
        }
      ],
      "name": "Deposited",
      "type": "event"
    },
    {
      "anonymous": false,
      "inputs": [
        {
          "indexed": true,
          "internalType": "bytes32",
          "name": "role",
          "type": "bytes32"
        },
        {
          "indexed": true,
          "internalType": "bytes32",
          "name": "previousAdminRole",
          "type": "bytes32"
        },
        {
          "indexed": true,
          "internalType": "bytes32",
          "name": "newAdminRole",
          "type": "bytes32"
        }
      ],
      "name": "RoleAdminChanged",
      "type": "event"
    },
    {
      "anonymous": false,
      "inputs": [
        {
          "indexed": true,
          "internalType": "bytes32",
          "name": "role",
          "type": "bytes32"
        },
        {
          "indexed": true,
          "internalType": "address",
          "name": "account",
          "type": "address"
        },
        {
          "indexed": true,
          "internalType": "address",
          "name": "sender",
          "type": "address"
        }
      ],
      "name": "RoleGranted",
      "type": "event"
    },
    {
      "anonymous": false,
      "inputs": [
        {
          "indexed": true,
          "internalType": "bytes32",
          "name": "role",
          "type": "bytes32"
        },
        {
          "indexed": true,
          "internalType": "address",
          "name": "account",
          "type": "address"
        },
        {
          "indexed": true,
          "internalType": "address",
          "name": "sender",
          "type": "address"
        }
      ],
      "name": "RoleRevoked",
      "type": "event"
    },
    {
      "anonymous": false,
      "inputs": [
        {
          "indexed": true,
          "internalType": "address",
          "name": "layer2",
          "type": "address"
        },
        {
          "indexed": false,
          "internalType": "address",
          "name": "depositor",
          "type": "address"
        },
        {
          "indexed": false,
          "internalType": "uint256",
          "name": "amount",
          "type": "uint256"
        }
      ],
      "name": "WithdrawalProcessed",
      "type": "event"
    },
    {
      "anonymous": false,
      "inputs": [
        {
          "indexed": true,
          "internalType": "address",
          "name": "layer2",
          "type": "address"
        },
        {
          "indexed": false,
          "internalType": "address",
          "name": "depositor",
          "type": "address"
        },
        {
          "indexed": false,
          "internalType": "uint256",
          "name": "amount",
          "type": "uint256"
        }
      ],
      "name": "WithdrawalRequested",
      "type": "event"
    },
    {
      "inputs": [],
      "name": "DEFAULT_ADMIN_ROLE",
      "outputs": [
        {
          "internalType": "bytes32",
          "name": "",
          "type": "bytes32"
        }
      ],
      "stateMutability": "view",
      "type": "function"
    },
    {
      "inputs": [],
      "name": "MINTER_ROLE",
      "outputs": [
        {
          "internalType": "bytes32",
          "name": "",
          "type": "bytes32"
        }
      ],
      "stateMutability": "view",
      "type": "function"
    },
    {
      "inputs": [
        {
          "internalType": "address",
          "name": "layer2",
          "type": "address"
        },
        {
          "internalType": "address",
          "name": "account",
          "type": "address"
        }
      ],
      "name": "accStaked",
      "outputs": [
        {
          "internalType": "uint256",
          "name": "wtonAmount",
          "type": "uint256"
        }
      ],
      "stateMutability": "view",
      "type": "function"
    },
    {
      "inputs": [
        {
          "internalType": "address",
          "name": "account",
          "type": "address"
        }
      ],
      "name": "accStakedAccount",
      "outputs": [
        {
          "internalType": "uint256",
          "name": "wtonAmount",
          "type": "uint256"
        }
      ],
      "stateMutability": "view",
      "type": "function"
    },
    {
      "inputs": [
        {
          "internalType": "address",
          "name": "layer2",
          "type": "address"
        }
      ],
      "name": "accStakedLayer2",
      "outputs": [
        {
          "internalType": "uint256",
          "name": "wtonAmount",
          "type": "uint256"
        }
      ],
      "stateMutability": "view",
      "type": "function"
    },
    {
      "inputs": [
        {
          "internalType": "address",
          "name": "layer2",
          "type": "address"
        },
        {
          "internalType": "address",
          "name": "account",
          "type": "address"
        }
      ],
      "name": "accUnstaked",
      "outputs": [
        {
          "internalType": "uint256",
          "name": "wtonAmount",
          "type": "uint256"
        }
      ],
      "stateMutability": "view",
      "type": "function"
    },
    {
      "inputs": [
        {
          "internalType": "address",
          "name": "account",
          "type": "address"
        }
      ],
      "name": "accUnstakedAccount",
      "outputs": [
        {
          "internalType": "uint256",
          "name": "wtonAmount",
          "type": "uint256"
        }
      ],
      "stateMutability": "view",
      "type": "function"
    },
    {
      "inputs": [
        {
          "internalType": "address",
          "name": "layer2",
          "type": "address"
        }
      ],
      "name": "accUnstakedLayer2",
      "outputs": [
        {
          "internalType": "uint256",
          "name": "wtonAmount",
          "type": "uint256"
        }
      ],
      "stateMutability": "view",
      "type": "function"
    },
    {
      "inputs": [
        {
          "internalType": "address",
          "name": "account",
          "type": "address"
        }
      ],
      "name": "addAdmin",
      "outputs": [],
      "stateMutability": "nonpayable",
      "type": "function"
    },
    {
      "inputs": [
        {
          "internalType": "address",
          "name": "",
          "type": "address"
        }
      ],
      "name": "aliveImplementation",
      "outputs": [
        {
          "internalType": "bool",
          "name": "",
          "type": "bool"
        }
      ],
      "stateMutability": "view",
      "type": "function"
    },
    {
      "inputs": [
        {
          "internalType": "address",
          "name": "layer2",
          "type": "address"
        },
        {
          "internalType": "uint256",
          "name": "amount",
          "type": "uint256"
        }
      ],
      "name": "deposit",
      "outputs": [
        {
          "internalType": "bool",
          "name": "",
          "type": "bool"
        }
      ],
      "stateMutability": "nonpayable",
      "type": "function"
    },
    {
      "inputs": [
        {
          "internalType": "address",
          "name": "layer2",
          "type": "address"
        },
        {
          "internalType": "address[]",
          "name": "accounts",
          "type": "address[]"
        },
        {
          "internalType": "uint256[]",
          "name": "amounts",
          "type": "uint256[]"
        }
      ],
      "name": "deposit",
      "outputs": [
        {
          "internalType": "bool",
          "name": "",
          "type": "bool"
        }
      ],
      "stateMutability": "nonpayable",
      "type": "function"
    },
    {
      "inputs": [
        {
          "internalType": "address",
          "name": "layer2",
          "type": "address"
        },
        {
          "internalType": "address",
          "name": "account",
          "type": "address"
        },
        {
          "internalType": "uint256",
          "name": "amount",
          "type": "uint256"
        }
      ],
      "name": "deposit",
      "outputs": [
        {
          "internalType": "bool",
          "name": "",
          "type": "bool"
        }
      ],
      "stateMutability": "nonpayable",
      "type": "function"
    },
    {
      "inputs": [
        {
          "internalType": "address",
          "name": "layer2",
          "type": "address"
        }
      ],
      "name": "getDelayBlocks",
      "outputs": [
        {
          "internalType": "uint256",
          "name": "",
          "type": "uint256"
        }
      ],
      "stateMutability": "view",
      "type": "function"
    },
    {
      "inputs": [
        {
          "internalType": "bytes32",
          "name": "role",
          "type": "bytes32"
        }
      ],
      "name": "getRoleAdmin",
      "outputs": [
        {
          "internalType": "bytes32",
          "name": "",
          "type": "bytes32"
        }
      ],
      "stateMutability": "view",
      "type": "function"
    },
    {
      "inputs": [],
      "name": "globalWithdrawalDelay",
      "outputs": [
        {
          "internalType": "uint256",
          "name": "",
          "type": "uint256"
        }
      ],
      "stateMutability": "view",
      "type": "function"
    },
    {
      "inputs": [
        {
          "internalType": "bytes32",
          "name": "role",
          "type": "bytes32"
        },
        {
          "internalType": "address",
          "name": "account",
          "type": "address"
        }
      ],
      "name": "grantRole",
      "outputs": [],
      "stateMutability": "nonpayable",
      "type": "function"
    },
    {
      "inputs": [
        {
          "internalType": "bytes32",
          "name": "role",
          "type": "bytes32"
        },
        {
          "internalType": "address",
          "name": "account",
          "type": "address"
        }
      ],
      "name": "hasRole",
      "outputs": [
        {
          "internalType": "bool",
          "name": "",
          "type": "bool"
        }
      ],
      "stateMutability": "view",
      "type": "function"
    },
    {
      "inputs": [
        {
          "internalType": "address",
          "name": "wton_",
          "type": "address"
        },
        {
          "internalType": "address",
          "name": "registry_",
          "type": "address"
        },
        {
          "internalType": "address",
          "name": "seigManager_",
          "type": "address"
        },
        {
          "internalType": "uint256",
          "name": "globalWithdrawalDelay_",
          "type": "uint256"
        }
      ],
      "name": "initialize",
      "outputs": [],
      "stateMutability": "nonpayable",
      "type": "function"
    },
    {
      "inputs": [
        {
          "internalType": "address",
          "name": "account",
          "type": "address"
        }
      ],
      "name": "isAdmin",
      "outputs": [
        {
          "internalType": "bool",
          "name": "",
          "type": "bool"
        }
      ],
      "stateMutability": "view",
      "type": "function"
    },
    {
      "inputs": [],
      "name": "isOwner",
      "outputs": [
        {
          "internalType": "bool",
          "name": "",
          "type": "bool"
        }
      ],
      "stateMutability": "view",
      "type": "function"
    },
    {
      "inputs": [
        {
          "internalType": "address",
          "name": "layer2",
          "type": "address"
        },
        {
          "internalType": "address",
          "name": "account",
          "type": "address"
        }
      ],
      "name": "numPendingRequests",
      "outputs": [
        {
          "internalType": "uint256",
          "name": "",
          "type": "uint256"
        }
      ],
      "stateMutability": "view",
      "type": "function"
    },
    {
      "inputs": [
        {
          "internalType": "address",
          "name": "layer2",
          "type": "address"
        },
        {
          "internalType": "address",
          "name": "account",
          "type": "address"
        }
      ],
      "name": "numRequests",
      "outputs": [
        {
          "internalType": "uint256",
          "name": "",
          "type": "uint256"
        }
      ],
      "stateMutability": "view",
      "type": "function"
    },
    {
      "inputs": [],
      "name": "oldDepositManager",
      "outputs": [
        {
          "internalType": "address",
          "name": "",
          "type": "address"
        }
      ],
      "stateMutability": "view",
      "type": "function"
    },
    {
      "inputs": [
        {
          "internalType": "address",
          "name": "owner",
          "type": "address"
        },
        {
          "internalType": "address",
          "name": "",
          "type": "address"
        },
        {
          "internalType": "uint256",
          "name": "amount",
          "type": "uint256"
        },
        {
          "internalType": "bytes",
          "name": "data",
          "type": "bytes"
        }
      ],
      "name": "onApprove",
      "outputs": [
        {
          "internalType": "bool",
          "name": "",
          "type": "bool"
        }
      ],
      "stateMutability": "nonpayable",
      "type": "function"
    },
    {
      "inputs": [],
      "name": "pauseProxy",
      "outputs": [
        {
          "internalType": "bool",
          "name": "",
          "type": "bool"
        }
      ],
      "stateMutability": "view",
      "type": "function"
    },
    {
      "inputs": [
        {
          "internalType": "address",
          "name": "layer2",
          "type": "address"
        },
        {
          "internalType": "address",
          "name": "account",
          "type": "address"
        }
      ],
      "name": "pendingUnstaked",
      "outputs": [
        {
          "internalType": "uint256",
          "name": "wtonAmount",
          "type": "uint256"
        }
      ],
      "stateMutability": "view",
      "type": "function"
    },
    {
      "inputs": [
        {
          "internalType": "address",
          "name": "account",
          "type": "address"
        }
      ],
      "name": "pendingUnstakedAccount",
      "outputs": [
        {
          "internalType": "uint256",
          "name": "wtonAmount",
          "type": "uint256"
        }
      ],
      "stateMutability": "view",
      "type": "function"
    },
    {
      "inputs": [
        {
          "internalType": "address",
          "name": "layer2",
          "type": "address"
        }
      ],
      "name": "pendingUnstakedLayer2",
      "outputs": [
        {
          "internalType": "uint256",
          "name": "wtonAmount",
          "type": "uint256"
        }
      ],
      "stateMutability": "view",
      "type": "function"
    },
    {
      "inputs": [
        {
          "internalType": "address",
          "name": "layer2",
          "type": "address"
        },
        {
          "internalType": "bool",
          "name": "receiveTON",
          "type": "bool"
        }
      ],
      "name": "processRequest",
      "outputs": [
        {
          "internalType": "bool",
          "name": "",
          "type": "bool"
        }
      ],
      "stateMutability": "nonpayable",
      "type": "function"
    },
    {
      "inputs": [
        {
          "internalType": "address",
          "name": "layer2",
          "type": "address"
        },
        {
          "internalType": "uint256",
          "name": "n",
          "type": "uint256"
        },
        {
          "internalType": "bool",
          "name": "receiveTON",
          "type": "bool"
        }
      ],
      "name": "processRequests",
      "outputs": [
        {
          "internalType": "bool",
          "name": "",
          "type": "bool"
        }
      ],
      "stateMutability": "nonpayable",
      "type": "function"
    },
    {
      "inputs": [
        {
          "internalType": "uint256",
          "name": "",
          "type": "uint256"
        }
      ],
      "name": "proxyImplementation",
      "outputs": [
        {
          "internalType": "address",
          "name": "",
          "type": "address"
        }
      ],
      "stateMutability": "view",
      "type": "function"
    },
    {
      "inputs": [
        {
          "internalType": "address",
          "name": "layer2",
          "type": "address"
        }
      ],
      "name": "redeposit",
      "outputs": [
        {
          "internalType": "bool",
          "name": "",
          "type": "bool"
        }
      ],
      "stateMutability": "nonpayable",
      "type": "function"
    },
    {
      "inputs": [
        {
          "internalType": "address",
          "name": "layer2",
          "type": "address"
        },
        {
          "internalType": "uint256",
          "name": "n",
          "type": "uint256"
        }
      ],
      "name": "redepositMulti",
      "outputs": [
        {
          "internalType": "bool",
          "name": "",
          "type": "bool"
        }
      ],
      "stateMutability": "nonpayable",
      "type": "function"
    },
    {
      "inputs": [],
      "name": "registry",
      "outputs": [
        {
          "internalType": "address",
          "name": "",
          "type": "address"
        }
      ],
      "stateMutability": "view",
      "type": "function"
    },
    {
      "inputs": [
        {
          "internalType": "address",
          "name": "account",
          "type": "address"
        }
      ],
      "name": "removeAdmin",
      "outputs": [],
      "stateMutability": "nonpayable",
      "type": "function"
    },
    {
      "inputs": [],
      "name": "renounceOwnership",
      "outputs": [],
      "stateMutability": "nonpayable",
      "type": "function"
    },
    {
      "inputs": [
        {
          "internalType": "bytes32",
          "name": "role",
          "type": "bytes32"
        },
        {
          "internalType": "address",
          "name": "callerConfirmation",
          "type": "address"
        }
      ],
      "name": "renounceRole",
      "outputs": [],
      "stateMutability": "nonpayable",
      "type": "function"
    },
    {
      "inputs": [
        {
          "internalType": "address",
          "name": "layer2",
          "type": "address"
        },
        {
          "internalType": "uint256",
          "name": "amount",
          "type": "uint256"
        }
      ],
      "name": "requestWithdrawal",
      "outputs": [
        {
          "internalType": "bool",
          "name": "",
          "type": "bool"
        }
      ],
      "stateMutability": "nonpayable",
      "type": "function"
    },
    {
      "inputs": [
        {
          "internalType": "address",
          "name": "layer2",
          "type": "address"
        }
      ],
      "name": "requestWithdrawalAll",
      "outputs": [
        {
          "internalType": "bool",
          "name": "",
          "type": "bool"
        }
      ],
      "stateMutability": "nonpayable",
      "type": "function"
    },
    {
      "inputs": [
        {
          "internalType": "bytes32",
          "name": "role",
          "type": "bytes32"
        },
        {
          "internalType": "address",
          "name": "account",
          "type": "address"
        }
      ],
      "name": "revokeRole",
      "outputs": [],
      "stateMutability": "nonpayable",
      "type": "function"
    },
    {
      "inputs": [],
      "name": "seigManager",
      "outputs": [
        {
          "internalType": "address",
          "name": "",
          "type": "address"
        }
      ],
      "stateMutability": "view",
      "type": "function"
    },
    {
      "inputs": [
        {
          "internalType": "bytes4",
          "name": "",
          "type": "bytes4"
        }
      ],
      "name": "selectorImplementation",
      "outputs": [
        {
          "internalType": "address",
          "name": "",
          "type": "address"
        }
      ],
      "stateMutability": "view",
      "type": "function"
    },
    {
      "inputs": [
        {
          "internalType": "uint256",
          "name": "globalWithdrawalDelay_",
          "type": "uint256"
        }
      ],
      "name": "setGlobalWithdrawalDelay",
      "outputs": [],
      "stateMutability": "nonpayable",
      "type": "function"
    },
    {
      "inputs": [
        {
          "internalType": "address",
          "name": "seigManager_",
          "type": "address"
        }
      ],
      "name": "setSeigManager",
      "outputs": [],
      "stateMutability": "nonpayable",
      "type": "function"
    },
    {
      "inputs": [
        {
          "internalType": "address",
          "name": "l2chain",
          "type": "address"
        },
        {
          "internalType": "uint256",
          "name": "withdrawalDelay_",
          "type": "uint256"
        }
      ],
      "name": "setWithdrawalDelay",
      "outputs": [],
      "stateMutability": "nonpayable",
      "type": "function"
    },
    {
      "inputs": [
        {
          "internalType": "address",
          "name": "layer2",
          "type": "address"
        },
        {
          "internalType": "address",
          "name": "recipient",
          "type": "address"
        },
        {
          "internalType": "uint256",
          "name": "amount",
          "type": "uint256"
        }
      ],
      "name": "slash",
      "outputs": [
        {
          "internalType": "bool",
          "name": "",
          "type": "bool"
        }
      ],
      "stateMutability": "nonpayable",
      "type": "function"
    },
    {
      "inputs": [
        {
          "internalType": "bytes4",
          "name": "interfaceId",
          "type": "bytes4"
        }
      ],
      "name": "supportsInterface",
      "outputs": [
        {
          "internalType": "bool",
          "name": "",
          "type": "bool"
        }
      ],
      "stateMutability": "view",
      "type": "function"
    },
    {
      "inputs": [
        {
          "internalType": "address",
          "name": "newAdmin",
          "type": "address"
        }
      ],
      "name": "transferAdmin",
      "outputs": [],
      "stateMutability": "nonpayable",
      "type": "function"
    },
    {
      "inputs": [
        {
          "internalType": "address",
          "name": "newAdmin",
          "type": "address"
        }
      ],
      "name": "transferOwnership",
      "outputs": [],
      "stateMutability": "nonpayable",
      "type": "function"
    },
    {
      "inputs": [
        {
          "internalType": "address",
          "name": "",
          "type": "address"
        }
      ],
      "name": "withdrawalDelay",
      "outputs": [
        {
          "internalType": "uint256",
          "name": "",
          "type": "uint256"
        }
      ],
      "stateMutability": "view",
      "type": "function"
    },
    {
      "inputs": [
        {
          "internalType": "address",
          "name": "layer2",
          "type": "address"
        },
        {
          "internalType": "address",
          "name": "account",
          "type": "address"
        },
        {
          "internalType": "uint256",
          "name": "index",
          "type": "uint256"
        }
      ],
      "name": "withdrawalRequest",
      "outputs": [
        {
          "internalType": "uint128",
          "name": "withdrawableBlockNumber",
          "type": "uint128"
        },
        {
          "internalType": "uint128",
          "name": "amount",
          "type": "uint128"
        },
        {
          "internalType": "bool",
          "name": "processed",
          "type": "bool"
        }
      ],
      "stateMutability": "view",
      "type": "function"
    },
    {
      "inputs": [
        {
          "internalType": "address",
          "name": "layer2",
          "type": "address"
        },
        {
          "internalType": "address",
          "name": "account",
          "type": "address"
        }
      ],
      "name": "withdrawalRequestIndex",
      "outputs": [
        {
          "internalType": "uint256",
          "name": "index",
          "type": "uint256"
        }
      ],
      "stateMutability": "view",
      "type": "function"
    },
    {
      "inputs": [],
      "name": "wton",
      "outputs": [
        {
          "internalType": "address",
          "name": "",
          "type": "address"
        }
      ],
      "stateMutability": "view",
      "type": "function"
    }
  ],
  "bytecode": "0x608080604052346051576301ffc9a760e01b60005260046020527f9fe05126d2d9ecf60592e254dead906a4b2e492f36cca727682c38e9008c6ac1805460ff191660011790556128fd90816100578239f35b600080fdfe6080604052600436101561001257600080fd5b60003560e01c806255f5c114610376578063010ca3901461037157806301ffc9a71461036c5780631785f53c146103675780632153c23914610362578063248a9ca31461035d57806324d7806c146103585780632638fdf5146103535780632d2fab941461034e5780632f2ff15d1461034957806336568abe146103445780634273ca161461033f578063445e83b91461033a57806347e7ef24146103355780634ce970361461033057806350d2a2761461032b578063550d01a314610326578063562fa0df146103215780635c0df46b1461031c57806363a8fd89146103175780636b2160b7146103125780636ec3d5ae1461030d5780636fb7f558146103085780637048027514610303578063715018a6146102fe57806375829def146102f95780637657f20a146102f45780637b103999146102ef5780638340f549146102ea5780638af4a948146102e55780638d62d949146102e05780638f32d59b146102db5780638fbef2d0146102d657806391d14854146102d15780639d91b87b146102cc578063a0b2a913146102c7578063a217fddf146102c2578063a3543989146102bd578063a79da341146102b8578063b5f19db2146102b3578063b8bee628146102ae578063b911135f146102a9578063c20a44c6146102a4578063c647f26e1461029f578063cf756fdf1461029a578063d285f78c14610295578063d539139314610290578063d547741f1461028b578063da95ebf714610286578063dc5a709f14610281578063e74f82391461027c578063f2fde38b14610277578063f762eb57146102725763fb0713b11461026d57600080fd5b6118bf565b61188f565b611811565b6117f5565b611742565b61170d565b6116cb565b611690565b611653565b61158d565b61155d565b611529565b6114eb565b611319565b6112f2565b6112d9565b61129c565b611280565b611243565b611213565b6111db565b611148565b61111d565b6110f4565b6110b7565b61109e565b611049565b61100a565b610f21565b610ee6565b610e7c565b610e53565b610e35565b610d8d565b610d6a565b610d49565b610c88565b610b74565b610b3c565b610aff565b61098d565b6106e4565b61065c565b610611565b6105cf565b61059f565b610566565b6104fc565b6104cd565b6104a4565b610450565b61042e565b6103ce565b610391565b6001600160a01b0381160361038c57565b600080fd5b3461038c57602036600319011261038c576004356103ae8161037b565b60018060a01b0316600052600c6020526020604060002054604051908152f35b3461038c57602036600319011261038c576004356103eb8161037b565b60018060a01b0316600052600b6020526020604060002054604051908152f35b602090600319011261038c576004356001600160e01b03198116810361038c5790565b3461038c5760206104466104413661040b565b611c99565b6040519015158152f35b3461038c57602036600319011261038c576104a26004356104708161037b565b60008052600560205261049d60ff610496336000805160206128a8833981519152610ae8565b541661191f565b6119b2565b005b3461038c57600036600319011261038c576009546040516001600160a01b039091168152602090f35b3461038c57602036600319011261038c5760043560005260056020526020600160406000200154604051908152f35b3461038c57602036600319011261038c57602060ff6105326004356105208161037b565b60008052600584526040600020610ae8565b54166040519015158152f35b604090600319011261038c576004356105568161037b565b906024356105638161037b565b90565b3461038c5760206105966105793661053e565b6001600160a01b039091166000908152600d845260409020610ae8565b54604051908152f35b3461038c5760206105966105b23661053e565b6001600160a01b039091166000908152600a845260409020610ae8565b3461038c57604036600319011261038c576104a26024356004356105f28261037b565b80600052600560205261060c600160406000200154611cc2565b611d82565b3461038c57604036600319011261038c5760243561062e8161037b565b336001600160a01b0382160361064a576104a290600435611e7a565b60405163334bd91960e11b8152600490fd5b3461038c57608036600319011261038c576004356106798161037b565b61068460243561037b565b6064356001600160401b0380821161038c573660238301121561038c57816004013590811161038c57366024828401011161038c576106e09260246106ce930190604435906119ed565b60405190151581529081906020820190565b0390f35b3461038c57604036600319011261038c576004356107018161037b565b60243560018060a01b03821680600052601460205261072560406000203390610ae8565b549160009261074761073f3361073a88610a18565b610ae8565b5415156120f6565b610769826107628361075c3361073a8b610a18565b54611bd0565b101561213f565b6107738282611f55565b905b818110610911576108b660208688878761079c846107963361073a876109ca565b54611f55565b6107a93361073a866109ca565b556107b784610796856109e4565b6107c0846109e4565b556107ce84610796336109fe565b6107d7336109fe565b556107e98461075c3361073a87610a32565b6107f63361073a86610a32565b556108048461075c85610a4c565b61080d84610a4c565b5561081b8461075c33610a66565b61082433610a66565b5561083d6108353361073a86610a80565b918254611f55565b90557f8752a472e571a816aea92eec8dae9baf628e840f4929fbcc2d155e6233ff68a76040518061086f863383611f62565b0390a260085461089590610889906001600160a01b031681565b6001600160a01b031690565b906000604051809681958294630412c6d560e41b8452339060048501611f92565b03925af1801561090c576108d2916000916108dd575b506119e6565b602060405160018152f35b6108ff915060203d602011610905575b6108f78183610bcc565b810190611f7d565b826108cc565b503d6108ed565b611c43565b8061098761097961093060019461092b3361073a8d610a18565b611c4f565b508461094c610940835460801c90565b6001600160801b031690565b9101986109696109646109608c5460ff1690565b1590565b6121a5565b61097482151561220b565b611f55565b875460ff1916600117909755565b01610775565b3461038c57604036600319011261038c576109ba6004356109ad8161037b565b3390602435903390611fb4565b1561038c57602060405160018152f35b6001600160a01b03166000908152600a6020526040902090565b6001600160a01b03166000908152600b6020526040902090565b6001600160a01b03166000908152600c6020526040902090565b6001600160a01b0316600090815260136020526040902090565b6001600160a01b03166000908152600d6020526040902090565b6001600160a01b03166000908152600e6020526040902090565b6001600160a01b03166000908152600f6020526040902090565b6001600160a01b0316600090815260146020526040902090565b6001600160a01b0316600090815260106020526040902090565b6001600160a01b0316600090815260116020526040902090565b6001600160a01b0316600090815260126020526040902090565b9060018060a01b0316600052602052604060002090565b3461038c57602036600319011261038c57600435610b1c8161037b565b60018060a01b031660005260166020526020604060002054604051908152f35b3461038c576001600160e01b0319610b533661040b565b166000526003602052602060018060a01b0360406000205416604051908152f35b3461038c57602036600319011261038c57600435610b918161037b565b60018060a01b03166000526002602052602060ff604060002054166040519015158152f35b634e487b7160e01b600052604160045260246000fd5b90601f801991011681019081106001600160401b03821117610bed57604052565b610bb6565b60405190606082018281106001600160401b03821117610bed57604052565b6001600160401b038111610bed5760051b60200190565b9080601f8301121561038c576020908235610c4281610c11565b93610c506040519586610bcc565b81855260208086019260051b82010192831161038c57602001905b828210610c79575050505090565b81358152908301908301610c6b565b3461038c57606036600319011261038c57600435610ca58161037b565b602435906001600160401b039081831161038c573660238401121561038c578260040135610cd281610c11565b93610ce06040519586610bcc565b8185526020916024602087019160051b8301019136831161038c57602401905b828210610d30575050505060443591821161038c576106e092610d2a6106ce933690600401610c28565b91611b1e565b8380918335610d3e8161037b565b815201910190610d00565b3461038c576020610d62610d5c3661053e565b90611be2565b604051908152f35b3461038c57600036600319011261038c57602060ff600054166040519015158152f35b3461038c57602036600319011261038c57600435610daa8161037b565b6008546040516367265c3b60e11b81526001600160a01b038381166004830152336024830152909160209183916044918391165afa91821561090c576106e0926106ce92600091610e06575b50610e0082611c6b565b91612341565b610e28915060203d602011610e2e575b610e208183610bcc565b810190611c34565b38610df6565b503d610e16565b3461038c57600036600319011261038c576020601554604051908152f35b3461038c57600036600319011261038c576008546040516001600160a01b039091168152602090f35b3461038c57602036600319011261038c57600435610e998161037b565b6000808052600560205290610ee290610ec560ff610496336000805160206128a8833981519152610ae8565b8280526005602052610edd6001604085200154611cc2565b611d03565b5080f35b3461038c57600080600319360112610f1e578080526005602052610f1260ff6104963360408520610ae8565b610f1b336119b2565b80f35b80fd5b3461038c57602036600319011261038c57600435610f3e8161037b565b600080526005602052610f6460ff610496336000805160206128a8833981519152610ae8565b6001600160a01b0381168015610fca573314610f8c57610f8390611976565b6104a2336119b2565b60405162461bcd60e51b815260206004820152601660248201527520b1b1b2b9b9b4b136329d1039b0b6b29030b236b4b760511b6044820152606490fd5b60405162461bcd60e51b815260206004820152601860248201527741636365737369626c653a207a65726f206164647265737360401b6044820152606490fd5b3461038c57602036600319011261038c576004356110278161037b565b600880546001600160a01b0319166001600160a01b0392909216919091179055005b3461038c57600036600319011261038c576007546040516001600160a01b039091168152602090f35b606090600319011261038c5760043561108a8161037b565b906024356110978161037b565b9060443590565b3461038c576109ba6110af36611072565b903392611fb4565b3461038c57602036600319011261038c576004356110d48161037b565b60018060a01b031660005260116020526020604060002054604051908152f35b3461038c57600036600319011261038c576006546040516001600160a01b039091168152602090f35b3461038c57600080600319360112610f1e5760ff610532828060209452600584526040339120610ae8565b3461038c5760606111c2600160ff61115f36611072565b9391828060a09793971b03169361092b6000968688526013602052604061118c8461092b84848d20610ae8565b50868060801b039054169888815260136020526111af8561092b85858520610ae8565b505460801c988152601360205220610ae8565b5001541690604051928352602083015215156040820152f35b3461038c57604036600319011261038c57602060ff6105326024356111ff8161037b565b600435600052600584526040600020610ae8565b3461038c5760206105966112263661053e565b6001600160a01b0390911660009081526010845260409020610ae8565b3461038c57602036600319011261038c576004356112608161037b565b60018060a01b0316600052600f6020526020604060002054604051908152f35b3461038c57600036600319011261038c57602060405160008152f35b3461038c57602036600319011261038c576004356112b98161037b565b60018060a01b031660005260126020526020604060002054604051908152f35b3461038c57602036600319011261038c57600435601555005b3461038c57602036600319011261038c576020610d626004356113148161037b565b611c6b565b3461038c5760208060031936011261038c576004356113378161037b565b8160018060a01b038216806000526014825261135860406000203390610ae8565b549260009161136d61073f3361073a85610a18565b600161138560016107628861075c3361073a89610a18565b61138e86611f47565b80871061148e57505061144d94506113ad836107963361073a866109ca565b6113ba3361073a856109ca565b556113c883610796846109e4565b6113d1836109e4565b556113df83610796336109fe565b6113e8336109fe565b556113fa8361075c3361073a86610a32565b6114073361073a85610a32565b556114158361075c84610a4c565b61141e83610a4c565b5561142c8361075c33610a66565b61143533610a66565b556114433361073a84610a80565b61083d8154611f47565b03925af1801561090c576114689160009161147157506119e6565b60405160018152f35b6114889150833d8511610905576108f78183610bcc565b386108cc565b919395819395506114de6114d06114ac8361092b3361073a8c610a18565b50846114bc610940835460801c90565b9101996109696109646109608d5460ff1690565b885460ff1916600117909855565b019492909186949261138e565b3461038c57602036600319011261038c576004356000526001602052602060018060a01b0360406000205416604051908152f35b8015150361038c57565b3461038c57604036600319011261038c57602061044660043561154b8161037b565b602435906115588261151f565b612528565b3461038c5760206105966115703661053e565b6001600160a01b0390911660009081526014845260409020610ae8565b3461038c57608036600319011261038c576004356115aa8161037b565b602435906115b78261037b565b604435906115c48261037b565b6006546001600160a01b03939084811661161857939091166001600160a01b031993841617600655600780546001600160a01b039283169085161790556008805490931691161790556104a2606435601555565b60405162461bcd60e51b8152602060048201526013602482015272185b1c9958591e481a5b9a5d1a585b1a5e9959606a1b6044820152606490fd5b3461038c57602036600319011261038c576004356116708161037b565b60018060a01b0316600052600e6020526020604060002054604051908152f35b3461038c57600036600319011261038c5760206040517ff0887ba65ee2024ea881d91b74c2450ef19e1557f03bed3ea9f16b037cbe2dc98152f35b3461038c57604036600319011261038c576104a26024356004356116ee8261037b565b806000526005602052611708600160406000200154611cc2565b611e7a565b3461038c57604036600319011261038c57602061044660043561172f8161037b565b61173881611c6b565b9060243590612341565b3461038c57604036600319011261038c5760043561175f8161037b565b60405163570ca73560e01b81526001600160a01b036020826004818685165afa801561090c576000906117b8575b61179a92501633146119e6565b6001600160a01b031660009081526016602052604090206024359055005b506020823d6020116117ed575b816117d260209383610bcc565b8101031261038c5761179a91516117e88161037b565b61178d565b3d91506117c5565b3461038c5761180336611072565b505050602060405160008152f35b3461038c57602036600319011261038c5760043561182e8161037b565b600080805260056020529061185660ff610496336000805160206128a8833981519152610ae8565b818052600560205261187060ff6104963360408620610ae8565b6001600160a01b0381168015610fca573314610f8c57610f1290611976565b3461038c5760206105966118a23661053e565b6001600160a01b0390911660009081526013845260409020610ae8565b3461038c57606036600319011261038c576004356118dc8161037b565b602435604435916118ec8361151f565b60009260005b83811061190457602060405160018152f35b61190e8284612528565b1561191b576001016118f2565b8480fd5b1561192657565b60405162461bcd60e51b815260206004820152602260248201527f41636365737369626c653a2043616c6c6572206973206e6f7420616e2061646d60448201526134b760f11b6064820152608490fd5b6000805260056020527f05b8ccbb9d4d8fb16ea74ce3c29a41f1b461fbdaff4714a0d9a8eb05499746bd546119af9190610edd90611cc2565b50565b336001600160a01b0382160361064a576119af90611dfd565b6001600160401b038111610bed57601f01601f191660200190565b1561038c57565b6006549293929091906001600160a01b03163303611a5657611a0e836119cb565b92611a1c6040519485610bcc565b808452368186011161038c57611a478460006020848795611a519a83611a4c9b013783010152611eed565b611fb4565b6119e6565b600190565b60405162461bcd60e51b815260206004820152603160248201527f4465706f7369744d616e616765723a206f6e6c79206163636570742057544f4e60448201527020617070726f76652063616c6c6261636b60781b6064820152608490fd5b15611abc57565b60405162461bcd60e51b815260206004820152600b60248201526a0eee4dedcce40d8cadce8d60ab1b6044820152606490fd5b634e487b7160e01b600052603260045260246000fd5b8051821015611b195760209160051b010190565b611aef565b90929192805115611b8857611b368151855114611ab5565b60005b8151811015611b7f5780611b79611a4c611b65611b5860019587611b05565b516001600160a01b031690565b3390611b71858b611b05565b519088611fb4565b01611b39565b50600193505050565b60405162461bcd60e51b815260206004820152600a6024820152691b9bc81858d8dbdd5b9d60b21b6044820152606490fd5b634e487b7160e01b600052601160045260246000fd5b91908203918211611bdd57565b611bba565b611c1a9060018060a01b031691826000526013602052611c06816040600020610ae8565b549260005260146020526040600020610ae8565b548115611c2d578103908111611bdd5790565b5050600090565b9081602091031261038c575190565b6040513d6000823e3d90fd5b8054821015611b195760005260206000209060011b0190600090565b6015546001600160a01b0390911660009081526016602052604090205480821115611c94575090565b905090565b6001600160e01b03198116637965db0b60e01b14908115611cb8575090565b6105639150611c99565b80600052600560205260ff611cdb336040600020610ae8565b541615611ce55750565b6044906040519063e2517d3f60e01b82523360048301526024820152fd5b6000808052600560205260ff611d27836000805160206128a8833981519152610ae8565b5416611c94578080526005602052611d428260408320610ae8565b805460ff1916600117905533916001600160a01b0316907f2f8788117e7eff1d82e926ec794901d17c78024a50270940304540a733656f0d8180a4600190565b600090808252600560205260ff611d9c8460408520610ae8565b5416611df7578082526005602052611db78360408420610ae8565b805460ff1916600117905533926001600160a01b0316917f2f8788117e7eff1d82e926ec794901d17c78024a50270940304540a733656f0d9080a4600190565b50905090565b6000808052600560205260ff611e21836000805160206128a8833981519152610ae8565b541615611c94578080526005602052611e3d8260408320610ae8565b805460ff1916905533916001600160a01b0316907ff6391f5c32d9c69d2a47ea670b442974b53935d1edc7fd64eb21e047a839171b8180a4600190565b600090808252600560205260ff611e948460408520610ae8565b541615611df7578082526005602052611eb08360408420610ae8565b805460ff1916905533926001600160a01b0316917ff6391f5c32d9c69d2a47ea670b442974b53935d1edc7fd64eb21e047a839171b9080a4600190565b602081510361038c576020015190565b15611f0457565b60405162461bcd60e51b815260206004820152601b60248201527a7a65726f20616d6f756e74206f72207a65726f206164647265737360281b6044820152606490fd5b9060018201809211611bdd57565b91908201809211611bdd57565b6001600160a01b039091168152602081019190915260400190565b9081602091031261038c57516105638161151f565b6001600160a01b03918216815291166020820152604081019190915260600190565b6120b99360209392906001600160a01b039061204a9085908385161515806120ed575b611fe090611efd565b611ff1826107968761073a8a6109ca565b611ffe8661073a896109ca565b5561200c82610796886109e4565b612015876109e4565b5561202382610796876109fe565b61202c866109fe565b55600654612042906001600160a01b0316610889565b903091612737565b7f8752a472e571a816aea92eec8dae9baf628e840f4929fbcc2d155e6233ff68a7604051918416918061207e878683611f62565b0390a260085460009061209b90610889906001600160a01b031681565b9260405196879586948593630412c6d560e41b855260048501611f92565b03925af1801561090c57611a51916000916120d457506119e6565b611488915060203d602011610905576108f78183610bcc565b50811515611fd7565b156120fd57565b60405162461bcd60e51b815260206004820152601a60248201527911195c1bdcda5d13585b9859d95c8e881b9bc81c995c5d595cdd60321b6044820152606490fd5b1561214657565b60405162461bcd60e51b815260206004820152603160248201527f4465706f7369744d616e616765723a206e2065786365656473206e756d206f666044820152702070656e64696e6720726571756573747360781b6064820152608490fd5b156121ac57565b60405162461bcd60e51b815260206004820152603160248201527f4465706f7369744d616e616765723a2070656e64696e67207265717565737420604482015270185b1c9958591e481c1c9bd8d95cdcd959607a1b6064820152608490fd5b1561221257565b60405162461bcd60e51b815260206004820152602860248201527f4465706f7369744d616e616765723a206e6f2076616c69642070656e64696e67604482015267081c995c5d595cdd60c21b6064820152608490fd5b1561226f57565b60405162461bcd60e51b815260206004820152602760248201527f4465706f7369744d616e616765723a20616d6f756e74206d757374206e6f74206044820152666265207a65726f60c81b6064820152608490fd5b8054600160401b811015610bed576122e191600182018155611c4f565b61232b578151602083015160801b6001600160801b0319166001600160801b039091161781556040909101516001909101805460ff9215159290921660ff19909216919091179055565b634e487b7160e01b600052600060045260246000fd5b906020916123ac6120b994612357841515612268565b61237761094061237061236986610a18565b3390610ae8565b9243611f55565b90612392612383610bf2565b6001600160801b039093168352565b6001600160801b03851682870152600060408301526122c4565b6123bd826107963361073a85610a32565b6123ca3361073a84610a32565b556123d88261079683610a4c565b6123e182610a4c565b556123ef8261079633610a66565b6123f833610a66565b556040516001600160a01b038216907f04c56a409d50971e45c5a2d96e5d557d2b0f1d66d40f14b141e4c958b0f39b329080612435863383611f62565b0390a260085461244f90610889906001600160a01b031681565b906000604051809681958294637c287fd560e11b8452339060048501611f92565b1561247757565b60405162461bcd60e51b815260206004820152602560248201527f4465706f7369744d616e616765723a206e6f207265717565737420746f2070726044820152646f6365737360d81b6064820152608490fd5b156124d157565b60405162461bcd60e51b815260206004820152602960248201527f4465706f7369744d616e616765723a207761697420666f72207769746864726160448201526877616c2064656c617960b81b6064820152608490fd5b6125b161094061256361253d61236985610a80565b546125568161254f3361073a89610a18565b5411612470565b61092b3361073a87610a18565b50805461257d90436001600160801b0390911611156124ca565b61259160018201600160ff19825416179055565b61259e3361073a86610a80565b6125a88154611f47565b90555460801c90565b916125c38361075c3361073a86610a32565b6125d03361073a85610a32565b556125de8361075c84610a4c565b6125e783610a4c565b556125f58361075c33610a66565b6125fe33610a66565b55612610836107963361073a86610a9a565b61261d3361073a85610a9a565b5561262b8361079684610ab4565b61263483610ab4565b556126428361079633610ace565b61264b33610ace565b55156126ef5760065461266890610889906001600160a01b031681565b906020604051809363e3b99e8560e01b82528160008161268c893360048401611f62565b03925af190811561090c576126cd6126e7927fcd1fce47d5ad89dd70b04c75bd6bdb8114d4d4ff7b4393f9fb5937e733ba9582946000916120d457506119e6565b6040516001600160a01b0390911693909182913383611f62565b0390a2600190565b6126e77fcd1fce47d5ad89dd70b04c75bd6bdb8114d4d4ff7b4393f9fb5937e733ba958291612732843361272d61088960065460018060a01b031690565b612774565b6126cd565b9061276d9061275f612772956040519586936323b872dd60e01b602086015260248501611f92565b03601f198101845283610bcc565b61279b565b565b61276d612772939261275f60405194859263a9059cbb60e01b602085015260248401611f62565b6000806127e59260018060a01b03169360208151910182865af13d1561283c573d906127c6826119cb565b916127d46040519384610bcc565b82523d6000602084013e5b83612844565b805190811515918261281e575b50506127fb5750565b604051635274afe760e01b81526001600160a01b03919091166004820152602490fd5b612835925090602080610960938301019101611f7d565b38806127f2565b6060906127df565b9061286b575080511561285957805190602001fd5b604051630a12f52160e11b8152600490fd5b8151158061289e575b61287c575090565b604051639996b31560e01b81526001600160a01b039091166004820152602490fd5b50803b1561287456fe05b8ccbb9d4d8fb16ea74ce3c29a41f1b461fbdaff4714a0d9a8eb05499746bca2646970667358221220a4198d1e16dc7ac61421f3c84f8b96e08575331d165d4dbb57c631eee7fda20164736f6c63430008190033",
  "linkReferences": {},
  "deployedLinkReferences": {}
}