{
  "_format": "hh-sol-artifact-1",
  "contractName": "SeigManagerStorage",
  "sourceName": "src/L1/Mock/SeigManagerStorage.sol",
  "abi": [
    {
      "inputs": [],
      "name": "MAX_VALID_COMMISSION",
      "outputs": [
        {
          "internalType": "uint256",
          "name": "",
          "type": "uint256"
        }
      ],
      "stateMutability": "view",
      "type": "function"
    },
    {
      "inputs": [],
      "name": "MIN_VALID_COMMISSION",
      "outputs": [
        {
          "internalType": "uint256",
          "name": "",
          "type": "uint256"
        }
      ],
      "stateMutability": "view",
      "type": "function"
    },
    {
      "inputs": [],
      "name": "RAY",
      "outputs": [
        {
          "internalType": "uint256",
          "name": "",
          "type": "uint256"
        }
      ],
      "stateMutability": "view",
      "type": "function"
    },
    {
      "inputs": [],
      "name": "accRelativeSeig",
      "outputs": [
        {
          "internalType": "uint256",
          "name": "",
          "type": "uint256"
        }
      ],
      "stateMutability": "view",
      "type": "function"
    },
    {
      "inputs": [],
      "name": "adjustCommissionDelay",
      "outputs": [
        {
          "internalType": "uint256",
          "name": "",
          "type": "uint256"
        }
      ],
      "stateMutability": "view",
      "type": "function"
    },
    {
      "inputs": [],
      "name": "dao",
      "outputs": [
        {
          "internalType": "address",
          "name": "",
          "type": "address"
        }
      ],
      "stateMutability": "view",
      "type": "function"
    },
    {
      "inputs": [],
      "name": "daoSeigRate",
      "outputs": [
        {
          "internalType": "uint256",
          "name": "",
          "type": "uint256"
        }
      ],
      "stateMutability": "view",
      "type": "function"
    },
    {
      "inputs": [
        {
          "internalType": "address",
          "name": "",
          "type": "address"
        }
      ],
      "name": "delayedCommissionBlock",
      "outputs": [
        {
          "internalType": "uint256",
          "name": "",
          "type": "uint256"
        }
      ],
      "stateMutability": "view",
      "type": "function"
    },
    {
      "inputs": [
        {
          "internalType": "address",
          "name": "",
          "type": "address"
        }
      ],
      "name": "delayedCommissionRate",
      "outputs": [
        {
          "internalType": "uint256",
          "name": "",
          "type": "uint256"
        }
      ],
      "stateMutability": "view",
      "type": "function"
    },
    {
      "inputs": [
        {
          "internalType": "address",
          "name": "",
          "type": "address"
        }
      ],
      "name": "delayedCommissionRateNegative",
      "outputs": [
        {
          "internalType": "bool",
          "name": "",
          "type": "bool"
        }
      ],
      "stateMutability": "view",
      "type": "function"
    },
    {
      "inputs": [],
      "name": "factory",
      "outputs": [
        {
          "internalType": "address",
          "name": "",
          "type": "address"
        }
      ],
      "stateMutability": "view",
      "type": "function"
    },
    {
      "inputs": [],
      "name": "lastSnapshotId",
      "outputs": [
        {
          "internalType": "uint256",
          "name": "",
          "type": "uint256"
        }
      ],
      "stateMutability": "view",
      "type": "function"
    },
    {
      "inputs": [],
      "name": "minimumAmount",
      "outputs": [
        {
          "internalType": "uint256",
          "name": "",
          "type": "uint256"
        }
      ],
      "stateMutability": "view",
      "type": "function"
    },
    {
      "inputs": [],
      "name": "paused",
      "outputs": [
        {
          "internalType": "bool",
          "name": "",
          "type": "bool"
        }
      ],
      "stateMutability": "view",
      "type": "function"
    },
    {
      "inputs": [],
      "name": "powerTONSeigRate",
      "outputs": [
        {
          "internalType": "uint256",
          "name": "",
          "type": "uint256"
        }
      ],
      "stateMutability": "view",
      "type": "function"
    },
    {
      "inputs": [],
      "name": "relativeSeigRate",
      "outputs": [
        {
          "internalType": "uint256",
          "name": "",
          "type": "uint256"
        }
      ],
      "stateMutability": "view",
      "type": "function"
    }
  ],
  "bytecode": "0x6080806040523460155761035e908161001b8239f35b600080fdfe60806040818152600436101561001457600080fd5b600091823560e01c90816325374a9a146102e0575080634123196f146102b35780634162169f146102b8578063552033c4146102b35780635998a8d7146102955780635c975abb146102725780636304a62414610254578063837afbc014610236578063a7dcc85014610211578063ac753a7a146101d1578063bb0c8298146101b3578063c45a01551461018b578063cbfebe6214610150578063df7fbef014610132578063e2fe8fd1146100f35763f8229348146100d257600080fd5b346100ef57816003193601126100ef576020906018549051908152f35b5080fd5b50346100ef5760203660031901126100ef576004356001600160a01b0381169081900361012e57828291602094526012845220549051908152f35b8280fd5b50346100ef57816003193601126100ef576020906010549051908152f35b50346100ef5760203660031901126100ef576004356001600160a01b0381169081900361012e57828291602094526011845220549051908152f35b50346100ef57816003193601126100ef5760065490516001600160a01b039091168152602090f35b50346100ef57816003193601126100ef576020906014549051908152f35b50346100ef5760203660031901126100ef576004356001600160a01b0381169081900361012e57818360ff92602095526013855220541690519015158152f35b50346100ef57816003193601126100ef57602090516a084595161401484a0000008152f35b50346100ef57816003193601126100ef57602090601a549051908152f35b50346100ef57816003193601126100ef576020906015549051908152f35b50346100ef57816003193601126100ef5760209060ff6019541690519015158152f35b50346100ef57816003193601126100ef576020906016549051908152f35b6102fc565b50346100ef57816003193601126100ef5760035490516001600160a01b039091168152602090f35b8390346100ef57816003193601126100ef576020906017548152f35b3461032357600036600319011261032357604051676765c793fa10079d601b1b8152602090f35b600080fdfea264697066735822122048463c0f56777d3d0276fe60e716df64a8b5ed4a0527c663ccc06220a80baf0b64736f6c63430008190033",
  "linkReferences": {},
  "deployedLinkReferences": {}
}